{
  "abi": [
    {
      "anonymous": false,
      "inputs": [
        {
          "indexed": true,
          "internalType": "address",
          "name": "account",
          "type": "address"
        },
        {
          "indexed": true,
          "internalType": "address",
          "name": "operator",
          "type": "address"
        },
        {
          "indexed": false,
          "internalType": "bool",
          "name": "approved",
          "type": "bool"
        }
      ],
      "name": "ApprovalForAll",
      "type": "event"
    },
    {
      "anonymous": false,
      "inputs": [
        {
          "indexed": true,
          "internalType": "address",
          "name": "operator",
          "type": "address"
        },
        {
          "indexed": true,
          "internalType": "address",
          "name": "from",
          "type": "address"
        },
        {
          "indexed": true,
          "internalType": "address",
          "name": "to",
          "type": "address"
        },
        {
          "indexed": false,
          "internalType": "uint256[]",
          "name": "ids",
          "type": "uint256[]"
        },
        {
          "indexed": false,
          "internalType": "uint256[]",
          "name": "values",
          "type": "uint256[]"
        }
      ],
      "name": "TransferBatch",
      "type": "event"
    },
    {
      "anonymous": false,
      "inputs": [
        {
          "indexed": true,
          "internalType": "address",
          "name": "operator",
          "type": "address"
        },
        {
          "indexed": true,
          "internalType": "address",
          "name": "from",
          "type": "address"
        },
        {
          "indexed": true,
          "internalType": "address",
          "name": "to",
          "type": "address"
        },
        {
          "indexed": false,
          "internalType": "uint256",
          "name": "id",
          "type": "uint256"
        },
        {
          "indexed": false,
          "internalType": "uint256",
          "name": "value",
          "type": "uint256"
        }
      ],
      "name": "TransferSingle",
      "type": "event"
    },
    {
      "anonymous": false,
      "inputs": [
        {
          "indexed": false,
          "internalType": "string",
          "name": "value",
          "type": "string"
        },
        {
          "indexed": true,
          "internalType": "uint256",
          "name": "id",
          "type": "uint256"
        }
      ],
      "name": "URI",
      "type": "event"
    },
    {
      "inputs": [
        {
          "internalType": "uint256",
          "name": "_yards",
          "type": "uint256"
        }
      ],
      "name": "_yards",
      "outputs": [
        {
          "internalType": "uint256",
          "name": "",
          "type": "uint256"
        }
      ],
      "stateMutability": "nonpayable",
      "type": "function"
    },
    {
      "inputs": [
        {
          "internalType": "address",
          "name": "_hero",
          "type": "address"
        },
        {
          "internalType": "uint256",
          "name": "_hId",
          "type": "uint256"
        },
        {
          "internalType": "uint256",
          "name": "_target",
          "type": "uint256"
        }
      ],
      "name": "addExperience",
      "outputs": [
        {
          "internalType": "uint256",
          "name": "",
          "type": "uint256"
        }
      ],
      "stateMutability": "nonpayable",
      "type": "function"
    },
    {
      "inputs": [
        {
          "internalType": "address",
          "name": "_gM",
          "type": "address"
        },
        {
          "internalType": "uint256",
          "name": "_what",
          "type": "uint256"
        },
        {
          "internalType": "uint256",
          "name": "_amount",
          "type": "uint256"
        }
      ],
      "name": "addonMintTo",
      "outputs": [],
      "stateMutability": "nonpayable",
      "type": "function"
    },
    {
      "inputs": [],
      "name": "addonPay",
      "outputs": [],
      "stateMutability": "payable",
      "type": "function"
    },
    {
      "inputs": [
        {
          "internalType": "address",
          "name": "account",
          "type": "address"
        },
        {
          "internalType": "uint256",
          "name": "id",
          "type": "uint256"
        }
      ],
      "name": "balanceOf",
      "outputs": [
        {
          "internalType": "uint256",
          "name": "",
          "type": "uint256"
        }
      ],
      "stateMutability": "view",
      "type": "function"
    },
    {
      "inputs": [
        {
          "internalType": "address[]",
          "name": "accounts",
          "type": "address[]"
        },
        {
          "internalType": "uint256[]",
          "name": "ids",
          "type": "uint256[]"
        }
      ],
      "name": "balanceOfBatch",
      "outputs": [
        {
          "internalType": "uint256[]",
          "name": "",
          "type": "uint256[]"
        }
      ],
      "stateMutability": "view",
      "type": "function"
    },
    {
      "inputs": [
        {
          "internalType": "address",
          "name": "account",
          "type": "address"
        },
        {
          "internalType": "uint256",
          "name": "id",
          "type": "uint256"
        },
        {
          "internalType": "uint256",
          "name": "value",
          "type": "uint256"
        }
      ],
      "name": "burn",
      "outputs": [],
      "stateMutability": "nonpayable",
      "type": "function"
    },
    {
      "inputs": [
        {
          "internalType": "address",
          "name": "account",
          "type": "address"
        },
        {
          "internalType": "uint256[]",
          "name": "ids",
          "type": "uint256[]"
        },
        {
          "internalType": "uint256[]",
          "name": "values",
          "type": "uint256[]"
        }
      ],
      "name": "burnBatch",
      "outputs": [],
      "stateMutability": "nonpayable",
      "type": "function"
    },
    {
      "inputs": [
        {
          "internalType": "address",
          "name": "_hero",
          "type": "address"
        },
        {
          "internalType": "uint256",
          "name": "_hId",
          "type": "uint256"
        },
        {
          "internalType": "uint256",
          "name": "_to1",
          "type": "uint256"
        },
        {
          "internalType": "uint256",
          "name": "_to2",
          "type": "uint256"
        }
      ],
      "name": "castAO",
      "outputs": [],
      "stateMutability": "nonpayable",
      "type": "function"
    },
    {
      "inputs": [
        {
          "internalType": "address",
          "name": "_hero",
          "type": "address"
        },
        {
          "internalType": "uint256",
          "name": "_hId",
          "type": "uint256"
        },
        {
          "internalType": "uint256",
          "name": "_beastCount",
          "type": "uint256"
        },
        {
          "internalType": "int256",
          "name": "_petType",
          "type": "int256"
        },
        {
          "internalType": "uint256",
          "name": "ccAmount",
          "type": "uint256"
        }
      ],
      "name": "castSB",
      "outputs": [],
      "stateMutability": "nonpayable",
      "type": "function"
    },
    {
      "inputs": [
        {
          "internalType": "address",
          "name": "_hero",
          "type": "address"
        },
        {
          "internalType": "uint256",
          "name": "_to",
          "type": "uint256"
        },
        {
          "internalType": "int256",
          "name": "_what",
          "type": "int256"
        },
        {
          "internalType": "uint256",
          "name": "_amount",
          "type": "uint256"
        }
      ],
      "name": "castTo",
      "outputs": [],
      "stateMutability": "nonpayable",
      "type": "function"
    },
    {
      "inputs": [
        {
          "internalType": "address",
          "name": "_hero",
          "type": "address"
        },
        {
          "internalType": "uint256",
          "name": "_hId",
          "type": "uint256"
        }
      ],
      "name": "curSummons",
      "outputs": [
        {
          "internalType": "uint256",
          "name": "",
          "type": "uint256"
        }
      ],
      "stateMutability": "nonpayable",
      "type": "function"
    },
    {
      "inputs": [
        {
          "internalType": "uint256",
          "name": "_amount",
          "type": "uint256"
        },
        {
          "internalType": "int256",
          "name": "_resist",
          "type": "int256"
        }
      ],
      "name": "damageFloor",
      "outputs": [
        {
          "internalType": "uint256",
          "name": "",
          "type": "uint256"
        }
      ],
      "stateMutability": "pure",
      "type": "function"
    },
    {
      "inputs": [
        {
          "internalType": "address",
          "name": "_hero",
          "type": "address"
        },
        {
          "internalType": "uint256",
          "name": "_hId",
          "type": "uint256"
        },
        {
          "internalType": "uint256",
          "name": "_target",
          "type": "uint256"
        },
        {
          "internalType": "uint256",
          "name": "_x",
          "type": "uint256"
        },
        {
          "internalType": "uint256",
          "name": "_ten",
          "type": "uint256"
        }
      ],
      "name": "dot",
      "outputs": [],
      "stateMutability": "nonpayable",
      "type": "function"
    },
    {
      "inputs": [
        {
          "internalType": "address",
          "name": "_addon",
          "type": "address"
        }
      ],
      "name": "getAddon",
      "outputs": [
        {
          "internalType": "bool",
          "name": "",
          "type": "bool"
        }
      ],
      "stateMutability": "view",
      "type": "function"
    },
    {
      "inputs": [
        {
          "internalType": "address",
          "name": "_hero",
          "type": "address"
        },
        {
          "internalType": "uint256",
          "name": "_target",
          "type": "uint256"
        }
      ],
      "name": "getHPBase",
      "outputs": [
        {
          "internalType": "uint256",
          "name": "",
          "type": "uint256"
        }
      ],
      "stateMutability": "view",
      "type": "function"
    },
    {
      "inputs": [
        {
          "internalType": "address",
          "name": "_hero",
          "type": "address"
        },
        {
          "internalType": "uint256",
          "name": "_hId",
          "type": "uint256"
        }
      ],
      "name": "getLevel",
      "outputs": [
        {
          "internalType": "uint256",
          "name": "",
          "type": "uint256"
        }
      ],
      "stateMutability": "nonpayable",
      "type": "function"
    },
    {
      "inputs": [
        {
          "internalType": "address",
          "name": "_hero",
          "type": "address"
        },
        {
          "internalType": "uint256",
          "name": "_target",
          "type": "uint256"
        }
      ],
      "name": "getPowBase",
      "outputs": [
        {
          "internalType": "uint256",
          "name": "",
          "type": "uint256"
        }
      ],
      "stateMutability": "view",
      "type": "function"
    },
    {
      "inputs": [
        {
          "internalType": "address",
          "name": "_hero",
          "type": "address"
        },
        {
          "internalType": "uint256",
          "name": "_target",
          "type": "uint256"
        },
        {
          "internalType": "uint256",
          "name": "_power",
          "type": "uint256"
        }
      ],
      "name": "getPowerMult",
      "outputs": [
        {
          "internalType": "uint256",
          "name": "",
          "type": "uint256"
        }
      ],
      "stateMutability": "view",
      "type": "function"
    },
    {
      "inputs": [
        {
          "internalType": "address",
          "name": "_hero",
          "type": "address"
        },
        {
          "internalType": "uint256",
          "name": "_target",
          "type": "uint256"
        },
        {
          "internalType": "uint256",
          "name": "_power",
          "type": "uint256"
        },
        {
          "internalType": "uint256",
          "name": "_powerMax",
          "type": "uint256"
        }
      ],
      "name": "getPowerShift",
      "outputs": [
        {
          "internalType": "int256",
          "name": "",
          "type": "int256"
        }
      ],
      "stateMutability": "nonpayable",
      "type": "function"
    },
    {
      "inputs": [
        {
          "internalType": "address",
          "name": "_hero",
          "type": "address"
        },
        {
          "internalType": "uint256",
          "name": "_hId",
          "type": "uint256"
        }
      ],
      "name": "getSkin",
      "outputs": [
        {
          "internalType": "uint256",
          "name": "",
          "type": "uint256"
        }
      ],
      "stateMutability": "nonpayable",
      "type": "function"
    },
    {
      "inputs": [
        {
          "internalType": "address",
          "name": "_hero",
          "type": "address"
        },
        {
          "internalType": "uint256",
          "name": "_target",
          "type": "uint256"
        }
      ],
      "name": "getStamMult",
      "outputs": [
        {
          "internalType": "uint256",
          "name": "",
          "type": "uint256"
        }
      ],
      "stateMutability": "view",
      "type": "function"
    },
    {
      "inputs": [
        {
          "internalType": "address",
          "name": "_hero",
          "type": "address"
        },
        {
          "internalType": "uint256",
          "name": "_hId",
          "type": "uint256"
        },
        {
          "internalType": "int256",
          "name": "_which",
          "type": "int256"
        }
      ],
      "name": "getState",
      "outputs": [
        {
          "internalType": "bool",
          "name": "",
          "type": "bool"
        }
      ],
      "stateMutability": "view",
      "type": "function"
    },
    {
      "inputs": [
        {
          "internalType": "address",
          "name": "_hero",
          "type": "address"
        },
        {
          "internalType": "uint256",
          "name": "_hId",
          "type": "uint256"
        }
      ],
      "name": "getXYZ",
      "outputs": [
        {
          "components": [
            {
              "internalType": "int256",
              "name": "hX",
              "type": "int256"
            },
            {
              "internalType": "int256",
              "name": "hY",
              "type": "int256"
            },
            {
              "internalType": "int256",
              "name": "hZ",
              "type": "int256"
            },
            {
              "internalType": "int256",
              "name": "hAlpha",
              "type": "int256"
            },
            {
              "internalType": "int256",
              "name": "hBeta",
              "type": "int256"
            }
          ],
          "internalType": "struct HeroXYZ",
          "name": "",
          "type": "tuple"
        }
      ],
      "stateMutability": "nonpayable",
      "type": "function"
    },
    {
      "inputs": [
        {
          "internalType": "address",
          "name": "",
          "type": "address"
        },
        {
          "internalType": "uint256",
          "name": "",
          "type": "uint256"
        },
        {
          "internalType": "int256",
          "name": "",
          "type": "int256"
        }
      ],
      "name": "hState",
      "outputs": [
        {
          "internalType": "bool",
          "name": "",
          "type": "bool"
        }
      ],
      "stateMutability": "view",
      "type": "function"
    },
    {
      "inputs": [
        {
          "internalType": "address",
          "name": "_hero",
          "type": "address"
        },
        {
          "internalType": "uint256",
          "name": "_hId",
          "type": "uint256"
        },
        {
          "internalType": "uint256",
          "name": "_target",
          "type": "uint256"
        }
      ],
      "name": "hasLOS",
      "outputs": [
        {
          "internalType": "bool",
          "name": "",
          "type": "bool"
        }
      ],
      "stateMutability": "view",
      "type": "function"
    },
    {
      "inputs": [
        {
          "internalType": "address",
          "name": "_hero",
          "type": "address"
        },
        {
          "internalType": "uint256",
          "name": "_hId",
          "type": "uint256"
        },
        {
          "internalType": "uint256",
          "name": "_target",
          "type": "uint256"
        },
        {
          "internalType": "uint256",
          "name": "_x",
          "type": "uint256"
        },
        {
          "internalType": "uint256",
          "name": "_ten",
          "type": "uint256"
        }
      ],
      "name": "hot",
      "outputs": [],
      "stateMutability": "nonpayable",
      "type": "function"
    },
    {
      "inputs": [
        {
          "internalType": "address",
          "name": "_cCA",
          "type": "address"
        },
        {
          "internalType": "address",
          "name": "cultureCoin",
          "type": "address"
        },
        {
          "internalType": "string",
          "name": "_uri",
          "type": "string"
        }
      ],
      "name": "initialize",
      "outputs": [],
      "stateMutability": "nonpayable",
      "type": "function"
    },
    {
      "inputs": [
        {
          "internalType": "address",
          "name": "",
          "type": "address"
        }
      ],
      "name": "isAddon",
      "outputs": [
        {
          "internalType": "bool",
          "name": "",
          "type": "bool"
        }
      ],
      "stateMutability": "view",
      "type": "function"
    },
    {
      "inputs": [
        {
          "internalType": "address",
          "name": "account",
          "type": "address"
        },
        {
          "internalType": "address",
          "name": "operator",
          "type": "address"
        }
      ],
      "name": "isApprovedForAll",
      "outputs": [
        {
          "internalType": "bool",
          "name": "",
          "type": "bool"
        }
      ],
      "stateMutability": "view",
      "type": "function"
    },
    {
      "inputs": [
        {
          "internalType": "uint256",
          "name": "x",
          "type": "uint256"
        }
      ],
      "name": "log2",
      "outputs": [
        {
          "internalType": "uint256",
          "name": "y",
          "type": "uint256"
        }
      ],
      "stateMutability": "nonpayable",
      "type": "function"
    },
    {
      "inputs": [
        {
          "internalType": "address",
          "name": "_hero",
          "type": "address"
        },
        {
          "internalType": "uint256",
          "name": "_hId",
          "type": "uint256"
        }
      ],
      "name": "maxSummon",
      "outputs": [
        {
          "internalType": "uint256",
          "name": "",
          "type": "uint256"
        }
      ],
      "stateMutability": "nonpayable",
      "type": "function"
    },
    {
      "inputs": [
        {
          "internalType": "address",
          "name": "_hero",
          "type": "address"
        },
        {
          "internalType": "uint256",
          "name": "_target",
          "type": "uint256"
        },
        {
          "internalType": "uint256",
          "name": "_curHp",
          "type": "uint256"
        },
        {
          "components": [
            {
              "internalType": "bool",
              "name": "needsTightening",
              "type": "bool"
            },
            {
              "internalType": "address",
              "name": "hero",
              "type": "address"
            },
            {
              "internalType": "uint256",
              "name": "target",
              "type": "uint256"
            },
            {
              "internalType": "uint256",
              "name": "heal",
              "type": "uint256"
            },
            {
              "internalType": "uint256",
              "name": "damage",
              "type": "uint256"
            },
            {
              "internalType": "int256",
              "name": "damageType",
              "type": "int256"
            },
            {
              "internalType": "int256",
              "name": "armor",
              "type": "int256"
            },
            {
              "internalType": "int256",
              "name": "fire",
              "type": "int256"
            },
            {
              "internalType": "int256",
              "name": "frost",
              "type": "int256"
            },
            {
              "internalType": "int256",
              "name": "meta",
              "type": "int256"
            },
            {
              "internalType": "uint256",
              "name": "effect",
              "type": "uint256"
            },
            {
              "internalType": "uint256",
              "name": "interval",
              "type": "uint256"
            },
            {
              "internalType": "uint256",
              "name": "curTicks",
              "type": "uint256"
            },
            {
              "internalType": "uint256",
              "name": "startTime",
              "type": "uint256"
            },
            {
              "internalType": "uint256",
              "name": "maxTicks",
              "type": "uint256"
            }
          ],
          "internalType": "struct Screwdrivers",
          "name": "_nutsNBolts",
          "type": "tuple"
        }
      ],
      "name": "resolveHP",
      "outputs": [
        {
          "internalType": "uint256",
          "name": "",
          "type": "uint256"
        }
      ],
      "stateMutability": "nonpayable",
      "type": "function"
    },
    {
      "inputs": [
        {
          "internalType": "address",
          "name": "from",
          "type": "address"
        },
        {
          "internalType": "address",
          "name": "to",
          "type": "address"
        },
        {
          "internalType": "uint256[]",
          "name": "ids",
          "type": "uint256[]"
        },
        {
          "internalType": "uint256[]",
          "name": "amounts",
          "type": "uint256[]"
        },
        {
          "internalType": "bytes",
          "name": "data",
          "type": "bytes"
        }
      ],
      "name": "safeBatchTransferFrom",
      "outputs": [],
      "stateMutability": "nonpayable",
      "type": "function"
    },
    {
      "inputs": [
        {
          "internalType": "address",
          "name": "from",
          "type": "address"
        },
        {
          "internalType": "address",
          "name": "to",
          "type": "address"
        },
        {
          "internalType": "uint256",
          "name": "id",
          "type": "uint256"
        },
        {
          "internalType": "uint256",
          "name": "amount",
          "type": "uint256"
        },
        {
          "internalType": "bytes",
          "name": "data",
          "type": "bytes"
        }
      ],
      "name": "safeTransferFrom",
      "outputs": [],
      "stateMutability": "nonpayable",
      "type": "function"
    },
    {
      "inputs": [
        {
          "internalType": "address",
          "name": "_addon",
          "type": "address"
        },
        {
          "internalType": "bool",
          "name": "_onOff",
          "type": "bool"
        }
      ],
      "name": "setAddon",
      "outputs": [],
      "stateMutability": "nonpayable",
      "type": "function"
    },
    {
      "inputs": [
        {
          "internalType": "address",
          "name": "operator",
          "type": "address"
        },
        {
          "internalType": "bool",
          "name": "approved",
          "type": "bool"
        }
      ],
      "name": "setApprovalForAll",
      "outputs": [],
      "stateMutability": "nonpayable",
      "type": "function"
    },
    {
      "inputs": [
        {
          "internalType": "address",
          "name": "_hero",
          "type": "address"
        },
        {
          "internalType": "uint256",
          "name": "_hId",
          "type": "uint256"
        },
        {
          "internalType": "uint256",
          "name": "_amount",
          "type": "uint256"
        }
      ],
      "name": "setSkin",
      "outputs": [],
      "stateMutability": "nonpayable",
      "type": "function"
    },
    {
      "inputs": [
        {
          "internalType": "address",
          "name": "_hero",
          "type": "address"
        },
        {
          "internalType": "uint256",
          "name": "_hId",
          "type": "uint256"
        },
        {
          "internalType": "int256",
          "name": "_which",
          "type": "int256"
        },
        {
          "internalType": "bool",
          "name": "_state",
          "type": "bool"
        }
      ],
      "name": "setState",
      "outputs": [],
      "stateMutability": "nonpayable",
      "type": "function"
    },
    {
      "inputs": [
        {
          "internalType": "address",
          "name": "_hero",
          "type": "address"
        },
        {
          "internalType": "uint256",
          "name": "_hId",
          "type": "uint256"
        },
        {
          "internalType": "int256",
          "name": "_x",
          "type": "int256"
        },
        {
          "internalType": "int256",
          "name": "_y",
          "type": "int256"
        },
        {
          "internalType": "int256",
          "name": "_z",
          "type": "int256"
        }
      ],
      "name": "setXYZ",
      "outputs": [],
      "stateMutability": "nonpayable",
      "type": "function"
    },
    {
      "inputs": [
        {
          "internalType": "address",
          "name": "_hero",
          "type": "address"
        },
        {
          "internalType": "uint256",
          "name": "_hId",
          "type": "uint256"
        },
        {
          "internalType": "uint256",
          "name": "_target",
          "type": "uint256"
        }
      ],
      "name": "shadowTag",
      "outputs": [
        {
          "internalType": "bool",
          "name": "",
          "type": "bool"
        }
      ],
      "stateMutability": "nonpayable",
      "type": "function"
    },
    {
      "inputs": [
        {
          "internalType": "int256",
          "name": "x",
          "type": "int256"
        }
      ],
      "name": "sqrt",
      "outputs": [
        {
          "internalType": "int256",
          "name": "y",
          "type": "int256"
        }
      ],
      "stateMutability": "view",
      "type": "function"
    },
    {
      "inputs": [
        {
          "internalType": "bytes4",
          "name": "interfaceId",
          "type": "bytes4"
        }
      ],
      "name": "supportsInterface",
      "outputs": [
        {
          "internalType": "bool",
          "name": "",
          "type": "bool"
        }
      ],
      "stateMutability": "view",
      "type": "function"
    },
    {
      "inputs": [
        {
          "internalType": "address",
          "name": "_hero",
          "type": "address"
        },
        {
          "internalType": "uint256",
          "name": "_hId",
          "type": "uint256"
        },
        {
          "internalType": "uint256",
          "name": "_target",
          "type": "uint256"
        }
      ],
      "name": "tag",
      "outputs": [
        {
          "internalType": "bool",
          "name": "",
          "type": "bool"
        }
      ],
      "stateMutability": "nonpayable",
      "type": "function"
    },
    {
      "inputs": [
        {
          "internalType": "address",
          "name": "_hero",
          "type": "address"
        },
        {
          "internalType": "uint256",
          "name": "_hId",
          "type": "uint256"
        },
        {
          "internalType": "uint256",
          "name": "_target",
          "type": "uint256"
        }
      ],
      "name": "tagged",
      "outputs": [
        {
          "internalType": "bool",
          "name": "",
          "type": "bool"
        }
      ],
      "stateMutability": "view",
      "type": "function"
    },
    {
      "inputs": [
        {
          "internalType": "uint256",
          "name": "",
          "type": "uint256"
        }
      ],
      "name": "uri",
      "outputs": [
        {
          "internalType": "string",
          "name": "",
          "type": "string"
        }
      ],
      "stateMutability": "view",
      "type": "function"
    },
    {
      "inputs": [
        {
          "components": [
            {
              "internalType": "int256",
              "name": "hX",
              "type": "int256"
            },
            {
              "internalType": "int256",
              "name": "hY",
              "type": "int256"
            },
            {
              "internalType": "int256",
              "name": "hZ",
              "type": "int256"
            },
            {
              "internalType": "int256",
              "name": "hAlpha",
              "type": "int256"
            },
            {
              "internalType": "int256",
              "name": "hBeta",
              "type": "int256"
            }
          ],
          "internalType": "struct HeroXYZ",
          "name": "one",
          "type": "tuple"
        },
        {
          "components": [
            {
              "internalType": "int256",
              "name": "hX",
              "type": "int256"
            },
            {
              "internalType": "int256",
              "name": "hY",
              "type": "int256"
            },
            {
              "internalType": "int256",
              "name": "hZ",
              "type": "int256"
            },
            {
              "internalType": "int256",
              "name": "hAlpha",
              "type": "int256"
            },
            {
              "internalType": "int256",
              "name": "hBeta",
              "type": "int256"
            }
          ],
          "internalType": "struct HeroXYZ",
          "name": "two",
          "type": "tuple"
        }
      ],
      "name": "xyzDist",
      "outputs": [
        {
          "internalType": "uint256",
          "name": "",
          "type": "uint256"
        }
      ],
      "stateMutability": "nonpayable",
      "type": "function"
    },
    {
      "inputs": [
        {
          "internalType": "address",
          "name": "_hero",
          "type": "address"
        },
        {
          "internalType": "uint256",
          "name": "_hId",
          "type": "uint256"
        },
        {
          "internalType": "uint256",
          "name": "_target",
          "type": "uint256"
        },
        {
          "internalType": "uint256",
          "name": "_maxRange",
          "type": "uint256"
        }
      ],
      "name": "xyzInRange",
      "outputs": [
        {
          "internalType": "bool",
          "name": "",
          "type": "bool"
        }
      ],
      "stateMutability": "nonpayable",
      "type": "function"
    }
  ],
  "bytecode": "608060405234801561001057600080fd5b5061588280620000216000396000f3fe6080604052600436106102925760003560e01c806369d15bca1161015a578063a22cb465116100c1578063c38c9fbc1161007a578063c38c9fbc14610a32578063cd0aca99146102fa578063d1cdbdba14610a52578063e985e9c514610ab4578063f242432a14610afd578063f5298aca14610b1d57600080fd5b8063a22cb46514610952578063a6c9232314610972578063a93af614146109b2578063a9dbd70b146109d2578063ac4a61be146109f2578063b121f2ac14610a1257600080fd5b80637dfa3f56116101135780637dfa3f561461087957806381b38be9146108995780638297f29f146108b957806388fc291c146108f25780639710b3801461091257806398a9c3261461093257600080fd5b806369d15bca146107b55780636b20c454146107d55780636d714b68146107f5578063787023b5146108155780637bc93516146102fa5780637df554981461083557600080fd5b8063419c76c3116101fe5780634e1273f4116101b75780634e1273f4146105245780635456bf131461055157806355a82fc414610725578063596c63251461074557806363f6aa8314610775578063665df4601461079557600080fd5b8063419c76c31461048457806342958036146104a457806343717931146104c45780634571e3a6146104e4578063495057be1461033d5780634d7875131461050457600080fd5b806319178a051161025057806319178a051461038c5780632581ff2d146103ac57806328b420a4146103cf5780632d7301e2146103ef5780632eb2c2d61461040f57806333c07ff11461042f57600080fd5b8062fdd58e1461029757806301ffc9a7146102ca57806307e6f85d146102fa57806309dfe8411461031d5780630e89341c1461033f578063108bda0c1461036c575b600080fd5b3480156102a357600080fd5b506102b76102b2366004614767565b610b3d565b6040519081526020015b60405180910390f35b3480156102d657600080fd5b506102ea6102e53660046147a9565b610bd9565b60405190151581526020016102c1565b34801561030657600080fd5b506102b7610315366004614767565b606492915050565b34801561032957600080fd5b5061033d6103383660046147c6565b610c29565b005b34801561034b57600080fd5b5061035f61035a3660046147fb565b610cc4565b6040516102c19190614861565b34801561037857600080fd5b5061033d610387366004614874565b610d58565b34801561039857600080fd5b5061033d6103a73660046148af565b610dc7565b3480156103b857600080fd5b506102b76103c7366004614767565b600392915050565b3480156103db57600080fd5b506102b76103ea3660046147c6565b611142565b3480156103fb57600080fd5b5061033d61040a36600461490c565b61114c565b34801561041b57600080fd5b5061033d61042a366004614af7565b6111dd565b34801561043b57600080fd5b506102ea61044a3660046147c6565b6001600160a01b038316600090815261010260209081526040808320848452825280832085845260020190915290205460ff169392505050565b34801561049057600080fd5b506102b761049f366004614767565b611274565b3480156104b057600080fd5b506102ea6104bf3660046147c6565b61129c565b3480156104d057600080fd5b506102b76104df366004614ba4565b611314565b3480156104f057600080fd5b5061033d6104ff366004614bc6565b611337565b34801561051057600080fd5b5061033d61051f3660046148af565b61143d565b34801561053057600080fd5b5061054461053f366004614c3b565b6114f0565b6040516102c19190614d42565b34801561055d57600080fd5b506102b761056c3660046147fb565b604080517ff8f9cbfae6cc78fbefe7cdc3a1793dfcf4f0e8bbd8cec470b6a28a7a5a3e1efd81527ff5ecf1b3e9debc68e1d9cfabc5997135bfb7a7a3938b7b606b5b4b3f2f1f0ffe60208201527ff6e4ed9ff2d6b458eadcdf97bd91692de2d4da8fd2d0ac50c6ae9a8272523616818301527fc8c0b887b0a8a4489c948c7f847c6125746c645c544c444038302820181008ff60608201527ff7cae577eec2a03cf3bad76fb589591debb2dd67e0aa9834bea6925f6a4a2e0e60808201527fe39ed557db96902cd38ed14fad815115c786af479b7e8324736353433727170760a08201527fc976c13bb96e881cb166a933a55e490d9d56952b8d4e801485467d236242260660c08201527f753a6d1b65325d0c552a4d1345224105391a310b29122104190a11030902010060e0820152610100808201909252600160f81b6001600160801b600160401b640100000000620100006010600460026000198c019081041790810417908104178881041790810417908104179081041790810417017e818283848586878898a8b8c8d8e8f929395969799a9b9d9e9faaeb6bedeeff0281900460ff039091015104600160ff1b909211020190565b34801561073157600080fd5b506102ea6107403660046147c6565b611619565b34801561075157600080fd5b506102ea610760366004614d55565b60fd6020526000908152604090205460ff1681565b34801561078157600080fd5b5061033d610790366004614874565b61164c565b3480156107a157600080fd5b506102b76107b03660046147fb565b611b25565b3480156107c157600080fd5b506102ea6107d03660046147c6565b611b7e565b3480156107e157600080fd5b5061033d6107f0366004614d72565b611c3a565b34801561080157600080fd5b5061033d610810366004614ddd565b611c82565b34801561082157600080fd5b506102b7610830366004614e16565b611d07565b34801561084157600080fd5b506102b7610850366004614767565b6001600160a01b0391909116600090815261010960209081526040808320938352929052205490565b34801561088557600080fd5b506102b7610894366004614f97565b611da6565b3480156108a557600080fd5b506102b76108b4366004614874565b611e49565b3480156108c557600080fd5b506102ea6108d4366004614d55565b6001600160a01b0316600090815260fd602052604090205460ff1690565b3480156108fe57600080fd5b506102ea61090d3660046147c6565b611eef565b34801561091e57600080fd5b5061033d61092d3660046148af565b611f90565b34801561093e57600080fd5b5061033d61094d3660046148af565b612668565b34801561095e57600080fd5b5061033d61096d366004614ddd565b612e65565b34801561097e57600080fd5b506102ea61098d3660046147c6565b60ff602081815260009485526040808620825293855283852090529083529120541681565b3480156109be57600080fd5b506102b76109cd3660046147fb565b612e74565b3480156109de57600080fd5b5061033d6109ed3660046147c6565b612e83565b3480156109fe57600080fd5b506102ea610a0d366004614874565b612f1d565b348015610a1e57600080fd5b506102b7610a2d366004614767565b612ff6565b348015610a3e57600080fd5b506102b7610a4d3660046147c6565b613035565b348015610a5e57600080fd5b50610a72610a6d366004614767565b61313b565b6040516102c19190600060a082019050825182526020830151602083015260408301516040830152606083015160608301526080830151608083015292915050565b348015610ac057600080fd5b506102ea610acf366004614fcd565b6001600160a01b03918216600090815260666020908152604080832093909416825291909152205460ff1690565b348015610b0957600080fd5b5061033d610b18366004614ffb565b613255565b348015610b2957600080fd5b5061033d610b383660046147c6565b61329a565b60006001600160a01b038316610bae5760405162461bcd60e51b815260206004820152602b60248201527f455243313135353a2062616c616e636520717565727920666f7220746865207a60448201526a65726f206164647265737360a81b60648201526084015b60405180910390fd5b5060008181526065602090815260408083206001600160a01b03861684529091529020545b92915050565b60006001600160e01b03198216636cdb3d1360e11b1480610c0a57506001600160e01b031982166303a24d0760e21b145b80610bd357506301ffc9a760e01b6001600160e01b0319831614610bd3565b60fb546001600160a01b0316331480610c51575033600090815260fd602052604090205460ff165b610c9d5760405162461bcd60e51b815260206004820152601d60248201527f4f6e6c792061646d696e732063616e207365742074686520736b696e2e0000006044820152606401610ba5565b6001600160a01b039092166000908152610109602090815260408083209383529290522055565b606060678054610cd390615063565b80601f0160208091040260200160405190810160405280929190818152602001828054610cff90615063565b8015610d4c5780601f10610d2157610100808354040283529160200191610d4c565b820191906000526020600020905b815481529060010190602001808311610d2f57829003601f168201915b50505050509050919050565b60fb546001600160a01b0316331480610d80575033600090815260fd602052604090205460ff165b610db55760405162461bcd60e51b815260206004820152600660248201526563617374546f60d01b6044820152606401610ba5565b610dc1848484846132dd565b50505050565b6040516331a9108f60e11b815260048101859052859033906001600160a01b03831690636352211e90602401602060405180830381865afa158015610e10573d6000803e3d6000fd5b505050506040513d601f19601f82011682018060405250810190610e349190615097565b6001600160a01b03161480610e58575033600090815260fd602052604090205460ff165b610e745760405162461bcd60e51b8152600401610ba5906150b4565b604051636bfc324f60e01b815260048101869052606960248201526001600160a01b03821690636bfc324f90604401602060405180830381865afa158015610ec0573d6000803e3d6000fd5b505050506040513d601f19601f82011682018060405250810190610ee491906150e0565b610f3a5760405162461bcd60e51b815260206004820152602160248201527f4865726f2063616e277420636173742073756d6d6f6e206372656174757265736044820152601760f91b6064820152608401610ba5565b600384610f478888611274565b610f519190615113565b11610fb35760405162461bcd60e51b815260206004820152602c60248201527f4865726f2063616e27742073756d6d6f6e2074686174206d616e7920746f746160448201526b361031b932b0ba3ab932b99760a11b6064820152608401610ba5565b6000610fbf878761313b565b606081015160fc546040516313784abf60e31b81523360048201526024810187905292935090916000916001600160a01b031690639bc255f8906044016020604051808303816000875af115801561101b573d6000803e3d6000fd5b505050506040513d601f19601f8201168201806040525081019061103f919061512b565b905060005b87811015611136576040516325f31ab760e01b81526004810184905233602482015260448101889052606481018390526000906001600160a01b038716906325f31ab7906084016020604051808303816000875af11580156110aa573d6000803e3d6000fd5b505050506040513d601f19601f820116820180604052508101906110ce919061512b565b90506110df8b826127116001613376565b6110ee8b826127106001613376565b6001600160a01b038b16600090815260fe602090815260408083208d8452909152812080549161111d83615144565b919050555050808061112e90615144565b915050611044565b50505050505050505050565b600a5b9392505050565b60fb546001600160a01b0316331480611174575033600090815260fd602052604090205460ff165b6111d15760405162461bcd60e51b815260206004820152602860248201527f4f6e6c792061646d696e732063616e2073657420746865207374617465206c6960448201526735b2903a3434b99760c11b6064820152608401610ba5565b610dc184848484613376565b6001600160a01b0385163314806111f957506111f98533610acf565b6112605760405162461bcd60e51b815260206004820152603260248201527f455243313135353a207472616e736665722063616c6c6572206973206e6f74206044820152711bdddb995c881b9bdc88185c1c1c9bdd995960721b6064820152608401610ba5565b61126d85858585856133b5565b5050505050565b6001600160a01b0391909116600090815260fe60209081526040808320938352929052205490565b6000818311156112dd57506001600160a01b038316600090815261010560209081526040808320848452825280832085845290915290205460ff1615611145565b506001600160a01b038316600090815261010560209081526040808320858452825280832084845290915290205460ff1615611145565b60008282111561132657506000610bd3565b611330828461515d565b9050610bd3565b600054610100900460ff166113525760005460ff1615611356565b303b155b6113b95760405162461bcd60e51b815260206004820152602e60248201527f496e697469616c697a61626c653a20636f6e747261637420697320616c72656160448201526d191e481a5b9a5d1a585b1a5e995960921b6064820152608401610ba5565b600054610100900460ff161580156113db576000805461ffff19166101011790555b6113e482613554565b6113ec613587565b6113f46135ae565b60fb80546001600160a01b038087166001600160a01b03199283161790925560fc8054928616929091169190911790558015610dc1576000805461ff001916905550505050565b565b60fb546001600160a01b0316331480611465575033600090815260fd602052604090205460ff165b61149a5760405162461bcd60e51b815260206004820152600660248201526539b2ba2c2cad60d11b6044820152606401610ba5565b6001600160a01b0390941660008181526101066020908152604080832087845282528083209590955582825261010781528482208683528152848220939093559081526101088252828120938152929052902055565b606081518351146115555760405162461bcd60e51b815260206004820152602960248201527f455243313135353a206163636f756e747320616e6420696473206c656e677468604482015268040dad2e6dac2e8c6d60bb1b6064820152608401610ba5565b600083516001600160401b0381111561157057611570614956565b604051908082528060200260200182016040528015611599578160200160208202803683370190505b50905060005b8451811015611611576115e48582815181106115bd576115bd615174565b60200260200101518583815181106115d7576115d7615174565b6020026020010151610b3d565b8282815181106115f6576115f6615174565b602090810291909101015261160a81615144565b905061159f565b509392505050565b6001600160a01b0392909216600090815260ff602081815260408084209484529381528383209483529390935220541690565b6040516331a9108f60e11b815260048101849052849033906001600160a01b03831690636352211e90602401602060405180830381865afa158015611695573d6000803e3d6000fd5b505050506040513d601f19601f820116820180604052508101906116b99190615097565b6001600160a01b031614806116dd575033600090815260fd602052604090205460ff165b6116f95760405162461bcd60e51b8152600401610ba5906150b4565b604051636bfc324f60e01b815260048101859052600160248201526001600160a01b03821690636bfc324f90604401602060405180830381865afa158015611745573d6000803e3d6000fd5b505050506040513d601f19601f8201168201806040525081019061176991906150e0565b6117b55760405162461bcd60e51b815260206004820152601b60248201527f4865726f2063616e2774206361737420617263616e65206f72622e00000000006044820152606401610ba5565b6040516343e8c3f760e11b81526004810185905260009081906001600160a01b038416906387d187ee9060240160408051808303816000875af1158015611800573d6000803e3d6000fd5b505050506040513d601f19601f82011682018060405250810190611824919061518a565b604051636573c78760e01b81526004810183905291935091506000906001600160a01b03851690636573c78790602401602060405180830381865afa158015611871573d6000803e3d6000fd5b505050506040513d601f19601f8201168201806040525081019061189591906150e0565b9050806118b45760405162461bcd60e51b8152600401610ba5906151ae565b600160006118ca8267016345785d8a00006151d5565b90506000806000886001600160a01b03166387d187ee8c6040518263ffffffff1660e01b81526004016118ff91815260200190565b60408051808303816000875af115801561191d573d6000803e3d6000fd5b505050506040513d601f19601f82011682018060405250810190611941919061518a565b604051636573c78760e01b81526004810183905291935091506000906001600160a01b038b1690636573c78790602401602060405180830381865afa15801561198e573d6000803e3d6000fd5b505050506040513d601f19601f820116820180604052508101906119b291906150e0565b90508080156119cc57506119cc8e8e8e610a0d600a612e74565b156119ec576119de8a8d6001806132dd565b836119e881615144565b9450505b6040516343e8c3f760e11b8152600481018c90526001600160a01b038b16906387d187ee9060240160408051808303816000875af1158015611a32573d6000803e3d6000fd5b505050506040513d601f19601f82011682018060405250810190611a56919061518a565b604051636573c78760e01b81526004810183905291945092506001600160a01b038b1690636573c78790602401602060405180830381865afa158015611aa0573d6000803e3d6000fd5b505050506040513d601f19601f82011682018060405250810190611ac491906150e0565b9050808015611ade5750611ade8e8e8d610a0d600a612e74565b15611afe57611af08a8c6001806132dd565b83611afa81615144565b9450505b611b158a8e6001611b1088600361515d565b6132dd565b5050505050505050505050505050565b6000806002611b358460016151f4565b611b3f919061524b565b90508291505b81811215611b7857905080600281611b5d818661524b565b611b6791906151f4565b611b71919061524b565b9050611b45565b50919050565b60fb546000906001600160a01b0316331480611ba9575033600090815260fd602052604090205460ff165b611beb5760405162461bcd60e51b81526020600482015260136024820152722cb7ba9031b0b713ba103a30b3903a3434b99760691b6044820152606401610ba5565b6001600160a01b03841660009081526101026020908152604080832085845290915290206001810154815410611c2f57611c2581856135dd565b6001915050611145565b506000949350505050565b6001600160a01b038316331480611c565750611c568333610acf565b611c725760405162461bcd60e51b8152600401610ba590615279565b611c7d838383613612565b505050565b60fb546001600160a01b03163314611cdc5760405162461bcd60e51b815260206004820152601a60248201527f4f6e6c792061646d696e73206d617920736574206164646f6e2e0000000000006044820152606401610ba5565b6001600160a01b0391909116600090815260fd60205260409020805460ff1916911515919091179055565b60fb5460009085906001600160a01b0316331480611d34575033600090815260fd602052604090205460ff165b611d765760405162461bcd60e51b8152602060048201526013602482015272596f752063616e27742074727920746861742160681b6044820152606401610ba5565b8251849015611d8e57611d8b8287838761379f565b90505b611d99828783613895565b925050505b949350505050565b600061114582604001518460400151611dbf91906152c2565b83604001518560400151611dd391906152c2565b611ddd9190615301565b83602001518560200151611df191906152c2565b84602001518660200151611e0591906152c2565b611e0f9190615301565b84518651611e1d91906152c2565b85518751611e2b91906152c2565b611e359190615301565b611e3f91906151f4565b6107b091906151f4565b60fb5460009085906001600160a01b0316331480611e76575033600090815260fd602052604090205460ff165b611eb95760405162461bcd60e51b81526020600482015260146024820152732cb7ba9031b0b713ba103a30b5b2903a3434b99760611b6044820152606401610ba5565b6000611ec782878787613b74565b905084811115611ee457611edb858261515d565b92505050611d9e565b600092505050611d9e565b60fb546000906001600160a01b0316331480611f1a575033600090815260fd602052604090205460ff165b611f625760405162461bcd60e51b81526020600482015260196024820152782cb7ba9031b0b713ba103337b931b2903a3434b9903a30b39760391b6044820152606401610ba5565b6001600160a01b038416600090815261010260209081526040808320858452909152902061161181856135dd565b604051637b30396560e01b81526004810185905285906000906001600160a01b03831690637b3039659060240160c0604051808303816000875af1158015611fdc573d6000803e3d6000fd5b505050506040513d601f19601f820116820180604052508101906120009190615386565b60fb549091506001600160a01b031633148061202b575033600090815260fd602052604090205460ff165b6120475760405162461bcd60e51b8152600401610ba5906150b4565b6040516343e8c3f760e11b81526004810187905260009081906001600160a01b038516906387d187ee9060240160408051808303816000875af1158015612092573d6000803e3d6000fd5b505050506040513d601f19601f820116820180604052508101906120b6919061518a565b604051636573c78760e01b81526004810183905291935091506000906001600160a01b03861690636573c78790602401602060405180830381865afa158015612103573d6000803e3d6000fd5b505050506040513d601f19601f8201168201806040525081019061212791906150e0565b9050806121465760405162461bcd60e51b8152600401610ba5906151ae565b6001600061215c8267016345785d8a00006151d5565b90508381111561217e5760405162461bcd60e51b8152600401610ba590615424565b6040516317c57edf60e31b8152600481018c9052602481018290526001600160a01b0388169063be2bf6f8906044016020604051808303816000875af11580156121cc573d6000803e3d6000fd5b505050506040513d601f19601f820116820180604052508101906121f0919061512b565b506040516343e8c3f760e11b8152600481018b905260009081906001600160a01b038a16906387d187ee9060240160408051808303816000875af115801561223c573d6000803e3d6000fd5b505050506040513d601f19601f82011682018060405250810190612260919061518a565b604051636573c78760e01b81526004810182905291935091506001600160a01b038a1690636573c78790602401602060405180830381865afa1580156122aa573d6000803e3d6000fd5b505050506040513d601f19601f820116820180604052508101906122ce91906150e0565b6122ea5760405162461bcd60e51b8152600401610ba59061545b565b6122f78e8d612712611619565b156123145760405162461bcd60e51b8152600401610ba590615484565b6001600160a01b0389166000908152610101602090815260408083208f8452909152808220815160e081018352918290810182600586835b8282101561242257604080516101e081018252600e84028601805460ff8116151583526001600160a01b036101009182900416602080850191909152600180840154958501959095526002830154606085015260038301546080850152600483015460a0850152600583015460c0850152600683015460e085015260078301549184019190915260088201546101208401526009820154610140840152600a820154610160840152600b820154610180840152600c8201546101a0840152600d909101546101c08301529083529201910161234c565b505050908252506040805160a081019091526020909101906046830160056000835b8282101561251a57604080516101e081018252600e84028601805460ff8116151583526001600160a01b036101009182900416602080850191909152600180840154958501959095526002830154606085015260038301546080850152600483015460a0850152600583015460c0850152600683015460e085015260078301549184019190915260088201546101208401526009820154610140840152600a820154610160840152600b820154610180840152600c8201546101a0840152600d909101546101c083015290835292019101612444565b505050915250909150600190505b6005811015612656578151816005811061254457612544615174565b602002015151612644578151600190826005811061256457612564615174565b602002015160000190151590811515815250508f8260000151826005811061258e5761258e615174565b602090810291909101516001600160a01b0390921691015281518e9082600581106125bb576125bb615174565b60200201516040015281518d9082600581106125d9576125d9615174565b60200201516060015281518c9082600581106125f7576125f7615174565b6020020151610160015281514290826005811061261657612616615174565b60200201516101a0015281518c90826005811061263557612635615174565b60200201516101c00152612656565b8061264e81615144565b915050612528565b50505050505050505050505050505050565b604051637b30396560e01b81526004810185905285906000906001600160a01b03831690637b3039659060240160c0604051808303816000875af11580156126b4573d6000803e3d6000fd5b505050506040513d601f19601f820116820180604052508101906126d89190615386565b604051636bfc324f60e01b815260048101889052606760248201529091506001600160a01b03831690636bfc324f90604401602060405180830381865afa158015612727573d6000803e3d6000fd5b505050506040513d601f19601f8201168201806040525081019061274b91906150e0565b6127925760405162461bcd60e51b81526020600482015260186024820152772432b9379031b0b713ba1031b0b9ba1030b733bab4b9b41760411b6044820152606401610ba5565b6040516331a9108f60e11b81526004810187905233906001600160a01b03841690636352211e90602401602060405180830381865afa1580156127d9573d6000803e3d6000fd5b505050506040513d601f19601f820116820180604052508101906127fd9190615097565b6001600160a01b03161480612821575033600090815260fd602052604090205460ff165b61283d5760405162461bcd60e51b8152600401610ba5906150b4565b6040516343e8c3f760e11b81526004810187905260009081906001600160a01b038516906387d187ee9060240160408051808303816000875af1158015612888573d6000803e3d6000fd5b505050506040513d601f19601f820116820180604052508101906128ac919061518a565b604051636573c78760e01b81526004810183905291935091506000906001600160a01b03861690636573c78790602401602060405180830381865afa1580156128f9573d6000803e3d6000fd5b505050506040513d601f19601f8201168201806040525081019061291d91906150e0565b90508061293c5760405162461bcd60e51b8152600401610ba5906151ae565b600160006129528267016345785d8a00006151d5565b9050838111156129745760405162461bcd60e51b8152600401610ba590615424565b6040516317c57edf60e31b8152600481018c9052602481018290526001600160a01b0388169063be2bf6f8906044016020604051808303816000875af11580156129c2573d6000803e3d6000fd5b505050506040513d601f19601f820116820180604052508101906129e6919061512b565b506040516343e8c3f760e11b8152600481018b905260009081906001600160a01b038a16906387d187ee9060240160408051808303816000875af1158015612a32573d6000803e3d6000fd5b505050506040513d601f19601f82011682018060405250810190612a56919061518a565b604051636573c78760e01b81526004810182905291935091506001600160a01b038a1690636573c78790602401602060405180830381865afa158015612aa0573d6000803e3d6000fd5b505050506040513d601f19601f82011682018060405250810190612ac491906150e0565b612ae05760405162461bcd60e51b8152600401610ba59061545b565b612aed8e8d612712611619565b15612b0a5760405162461bcd60e51b8152600401610ba590615484565b6001600160a01b0389166000908152610101602090815260408083208f8452909152808220815160e081018352918290810182600586835b82821015612c1857604080516101e081018252600e84028601805460ff8116151583526001600160a01b036101009182900416602080850191909152600180840154958501959095526002830154606085015260038301546080850152600483015460a0850152600583015460c0850152600683015460e085015260078301549184019190915260088201546101208401526009820154610140840152600a820154610160840152600b820154610180840152600c8201546101a0840152600d909101546101c083015290835292019101612b42565b505050908252506040805160a081019091526020909101906046830160056000835b82821015612d1057604080516101e081018252600e84028601805460ff8116151583526001600160a01b036101009182900416602080850191909152600180840154958501959095526002830154606085015260038301546080850152600483015460a0850152600583015460c0850152600683015460e085015260078301549184019190915260088201546101208401526009820154610140840152600a820154610160840152600b820154610180840152600c8201546101a0840152600d909101546101c083015290835292019101612c3a565b505050915250909150600190505b60058110156126565781602001518160058110612d3d57612d3d615174565b602002015151612e5357600182602001518260058110612d5f57612d5f615174565b602002015160000190151590811515815250508f82602001518260058110612d8957612d89615174565b6020020151602001906001600160a01b031690816001600160a01b0316815250508d82602001518260058110612dc157612dc1615174565b602002015160400181815250508c82602001518260058110612de557612de5615174565b602002015160800181815250508b82602001518260058110612e0957612e09615174565b60200201516101600181815250504282602001518260058110612e2e57612e2e615174565b60200201516101a00181815250508b8260200151826005811061263557612635615174565b80612e5d81615144565b915050612d1e565b612e70338383613dd6565b5050565b6000610bd382620186a06151d5565b60fb546001600160a01b0316331480612eab575033600090815260fd602052604090205460ff165b612eee5760405162461bcd60e51b81526020600482015260146024820152732cb7ba9030b932b713ba1030b71030b236b4b71760611b6044820152606401610ba5565b611c7d8383836040518060400160405280600b81526020016a6164646f6e4d696e74546f60a81b815250613eb6565b60008481612f2b828761313b565b90506000612f39888761313b565b905084612fe882604001518460400151612f5391906152c2565b83604001518560400151612f6791906152c2565b612f719190615301565b83602001518560200151612f8591906152c2565b84602001518660200151612f9991906152c2565b612fa39190615301565b84518651612fb191906152c2565b85518751612fbf91906152c2565b612fc99190615301565b612fd391906151f4565b612fdd91906151f4565b6107b09060006151f4565b131598975050505050505050565b6001600160a01b03821660009081526101036020908152604080832084845290915281205461302a9061056c906001615113565b611145906001615113565b60fb546000906001600160a01b0316331480613060575033600090815260fd602052604090205460ff165b6130a25760405162461bcd60e51b81526020600482015260136024820152722cb7ba9031b0b713ba1030b232103a3430ba1760691b6044820152606401610ba5565b6001600160a01b0384166000908152610104602090815260408083208584529091529020546130d2906001615113565b6001600160a01b03851660009081526101036020908152604080832087845290915281208054909190613106908490615113565b90915550506001600160a01b038416600090815261010460209081526040808320858452909152902054611d9e906001615113565b61316d6040518060a0016040528060008152602001600081526020016000815260200160008152602001600081525090565b60405163dcb9d1f160e01b815260048101839052839060009081906001600160a01b0384169063dcb9d1f19060240160408051808303816000875af11580156131ba573d6000803e3d6000fd5b505050506040513d601f19601f820116820180604052508101906131de919061518a565b6040805160a0810182526001600160a01b0399909916600081815261010660209081528382208b83528152838220548c5282825261010781528382208b8352815283822054818d01529181526101088252828120998152989052968790205496880196909652606087015250505050608082015290565b6001600160a01b03851633148061327157506132718533610acf565b61328d5760405162461bcd60e51b8152600401610ba590615279565b61126d8585858585613fba565b6001600160a01b0383163314806132b657506132b68333610acf565b6132d25760405162461bcd60e51b8152600401610ba590615279565b611c7d8383836140d6565b613308848383604051806040016040528060078152602001665f63617374546f60c81b815250613eb6565b604051633e9fd1e760e11b81526004810184905260248101839052604481018290526001600160a01b03851690637d3fa3ce90606401600060405180830381600087803b15801561335857600080fd5b505af115801561336c573d6000803e3d6000fd5b5050505050505050565b6001600160a01b0393909316600090815260ff602090815260408083209483529381528382209282529190915220805460ff1916911515919091179055565b81518351146133d65760405162461bcd60e51b8152600401610ba5906154a8565b6001600160a01b0384166133fc5760405162461bcd60e51b8152600401610ba5906154f0565b3360005b84518110156134e657600085828151811061341d5761341d615174565b60200260200101519050600085838151811061343b5761343b615174565b60209081029190910181015160008481526065835260408082206001600160a01b038e16835290935291909120549091508181101561348c5760405162461bcd60e51b8152600401610ba590615535565b60008381526065602090815260408083206001600160a01b038e8116855292528083208585039055908b168252812080548492906134cb908490615113565b92505081905550505050806134df90615144565b9050613400565b50846001600160a01b0316866001600160a01b0316826001600160a01b03167f4a39dc06d4c0dbc64b70af90fd698a233a518aa5d07e595d983b8c0526c8f7fb878760405161353692919061557f565b60405180910390a461354c8187878787876141cb565b505050505050565b600054610100900460ff1661357b5760405162461bcd60e51b8152600401610ba5906155a4565b61358481614326565b50565b600054610100900460ff1661143b5760405162461bcd60e51b8152600401610ba5906155a4565b600054610100900460ff166135d55760405162461bcd60e51b8152600401610ba5906155a4565b61143b614356565b6001820180549060006135ef83615144565b90915550506000908152600290910160205260409020805460ff19166001179055565b6001600160a01b0383166136385760405162461bcd60e51b8152600401610ba5906155ef565b80518251146136595760405162461bcd60e51b8152600401610ba5906154a8565b604080516020810190915260009081905233905b835181101561373257600084828151811061368a5761368a615174565b6020026020010151905060008483815181106136a8576136a8615174565b60209081029190910181015160008481526065835260408082206001600160a01b038c1683529093529190912054909150818110156136f95760405162461bcd60e51b8152600401610ba590615632565b60009283526065602090815260408085206001600160a01b038b168652909152909220910390558061372a81615144565b91505061366d565b5060006001600160a01b0316846001600160a01b0316826001600160a01b03167f4a39dc06d4c0dbc64b70af90fd698a233a518aa5d07e595d983b8c0526c8f7fb868660405161378392919061557f565b60405180910390a4604080516020810190915260009052610dc1565b80516000906137af575081611d9e565b6060820151156138525760006137c786868686614384565b604051636f9a6e9160e11b8152600481018790529091506000906001600160a01b0388169063df34dd22906024016020604051808303816000875af1158015613814573d6000803e3d6000fd5b505050506040513d601f19601f82011682018060405250810190613838919061512b565b9050806138458684615113565b111561384f578094505b50505b60808201511561388c57600061386a86868686614439565b90508381111561387d576000935061388a565b613887818561515d565b93505b505b50909392505050565b6001600160a01b038316600090815261010160209081526040808320858452909152808220815160e08101835284928492908290810182600586835b828210156139a757604080516101e081018252600e84028601805460ff8116151583526001600160a01b036101009182900416602080850191909152600180840154958501959095526002830154606085015260038301546080850152600483015460a0850152600583015460c0850152600683015460e085015260078301549184019190915260088201546101208401526009820154610140840152600a820154610160840152600b820154610180840152600c8201546101a0840152600d909101546101c0830152908352920191016138d1565b505050908252506040805160a081019091526020909101906046830160056000835b82821015613a9f57604080516101e081018252600e84028601805460ff8116151583526001600160a01b036101009182900416602080850191909152600180840154958501959095526002830154606085015260038301546080850152600483015460a0850152600583015460c0850152600683015460e085015260078301549184019190915260088201546101208401526009820154610140840152600a820154610160840152600b820154610180840152600c8201546101a0840152600d909101546101c0830152908352920191016139c9565b505050915250909150600190505b6005811015613b1357613adc87878585600001518560058110613ad257613ad2615174565b602002015161379f565b9250613b0182600001518260058110613af757613af7615174565b60200201516144cd565b80613b0b81615144565b915050613aad565b5060015b6005811015613b6957613b3c87878585602001518560058110613ad257613ad2615174565b9250613b5782602001518260058110613af757613af7615174565b80613b6181615144565b915050613b17565b509095945050505050565b6001600160a01b03841660009081526101006020908152604080832086845290915281205481908103613bd05750506001600160a01b038416600090815261010060209081526040808320868452909152902042905581611d9e565b6001600160a01b038616600090815261010060209081526040808320888452909152812054613bff904261515d565b6001600160a01b0388166000818152610100602090815260408083208b84529091529081902042905551636bfc324f60e01b8152600481018990526087602482015291925090636bfc324f90604401602060405180830381865afa158015613c6b573d6000803e3d6000fd5b505050506040513d601f19601f82011682018060405250810190613c8f91906150e0565b80613d055750604051636bfc324f60e01b815260048101879052600f60248201526001600160a01b03881690636bfc324f90604401602060405180830381865afa158015613ce1573d6000803e3d6000fd5b505050506040513d601f19601f82011682018060405250810190613d0591906150e0565b80613d7b5750604051636bfc324f60e01b815260048101879052606960248201526001600160a01b03881690636bfc324f90604401602060405180830381865afa158015613d57573d6000803e3d6000fd5b505050506040513d601f19601f82011682018060405250810190613d7b91906150e0565b15613dbc5780670de0b6b3a7640000613d9b866611c37937e080006151d5565b613da59190615676565b613daf91906151d5565b613db99086615113565b91505b83821115613dce578392505050611d9e565b509050611d9e565b816001600160a01b0316836001600160a01b031603613e495760405162461bcd60e51b815260206004820152602960248201527f455243313135353a2073657474696e6720617070726f76616c20737461747573604482015268103337b91039b2b63360b91b6064820152608401610ba5565b6001600160a01b03838116600081815260666020908152604080832094871680845294825291829020805460ff191686151590811790915591519182527f17307eab39ab6107e8899845ad3d59bd9653f200f220920489ca2b5937696c31910160405180910390a3505050565b6001600160a01b038416613f165760405162461bcd60e51b815260206004820152602160248201527f455243313135353a206d696e7420746f20746865207a65726f206164647265736044820152607360f81b6064820152608401610ba5565b336000613f228561455f565b90506000613f2f8561455f565b905060008681526065602090815260408083206001600160a01b038b16845290915281208054879290613f63908490615113565b909155505060408051878152602081018790526001600160a01b03808a16926000929187169160008051602061582d833981519152910160405180910390a4613fb1836000898989896145aa565b50505050505050565b6001600160a01b038416613fe05760405162461bcd60e51b8152600401610ba5906154f0565b336000613fec8561455f565b90506000613ff98561455f565b905060008681526065602090815260408083206001600160a01b038c1684529091529020548581101561403e5760405162461bcd60e51b8152600401610ba590615535565b60008781526065602090815260408083206001600160a01b038d8116855292528083208985039055908a1682528120805488929061407d908490615113565b909155505060408051888152602081018890526001600160a01b03808b16928c8216929188169160008051602061582d833981519152910160405180910390a46140cb848a8a8a8a8a6145aa565b505050505050505050565b6001600160a01b0383166140fc5760405162461bcd60e51b8152600401610ba5906155ef565b3360006141088461455f565b905060006141158461455f565b6040805160208082018352600091829052888252606581528282206001600160a01b038b16835290522054909150848110156141635760405162461bcd60e51b8152600401610ba590615632565b60008681526065602090815260408083206001600160a01b038b81168086529184528285208a8703905582518b81529384018a905290929088169160008051602061582d833981519152910160405180910390a4604080516020810190915260009052613fb1565b6001600160a01b0384163b1561354c5760405163bc197c8160e01b81526001600160a01b0385169063bc197c819061420f908990899088908890889060040161568a565b6020604051808303816000875af192505050801561424a575060408051601f3d908101601f19168201909252614247918101906156e8565b60015b6142f657614256615705565b806308c379a00361428f575061426a615721565b806142755750614291565b8060405162461bcd60e51b8152600401610ba59190614861565b505b60405162461bcd60e51b815260206004820152603460248201527f455243313135353a207472616e7366657220746f206e6f6e20455243313135356044820152732932b1b2b4bb32b91034b6b83632b6b2b73a32b960611b6064820152608401610ba5565b6001600160e01b0319811663bc197c8160e01b14613fb15760405162461bcd60e51b8152600401610ba59061579f565b600054610100900460ff1661434d5760405162461bcd60e51b8152600401610ba5906155a4565b61358481614665565b600054610100900460ff1661437d5760405162461bcd60e51b8152600401610ba5906155a4565b600160c955565b610160810151610180820151600091829142916143a0916151d5565b846101a001516143b09190615113565b11614430576000836101a00151426143c8919061515d565b90506000846101600151826143dd9190615676565b9050846101c0015181106143f357506101c08401515b600081866101800151614406919061515d565b905080866060015161441891906151d5565b6144229085615113565b610180870192909252509150505b95945050505050565b61016081015161018082015160009182914291614455916151d5565b846101a001516144659190615113565b11614430576000836101a001514261447d919061515d565b90506000846101600151826144929190615676565b9050846101c0015181106144a857506101c08401515b6000818661018001516144bb919061515d565b905080866080015161441891906151d5565b6144d681614678565b1561358457612e70604051806101e0016040528060001515815260200160006001600160a01b03168152602001600081526020016000815260200160008152602001600081526020016000815260200160008152602001600081526020016000815260200160008152602001600081526020016000815260200160008152602001600081525090565b6040805160018082528183019092526060916000919060208083019080368337019050509050828160008151811061459957614599615174565b602090810291909101015292915050565b6001600160a01b0384163b1561354c5760405163f23a6e6160e01b81526001600160a01b0385169063f23a6e61906145ee90899089908890889088906004016157e7565b6020604051808303816000875af1925050508015614629575060408051601f3d908101601f19168201909252614626918101906156e8565b60015b61463557614256615705565b6001600160e01b0319811663f23a6e6160e01b14613fb15760405162461bcd60e51b8152600401610ba59061579f565b8051612e709060679060208401906146a9565b600042826101a0015183610180015184610160015161469791906151d5565b6146a19190615113565b111592915050565b8280546146b590615063565b90600052602060002090601f0160209004810192826146d7576000855561471d565b82601f106146f057805160ff191683800117855561471d565b8280016001018555821561471d579182015b8281111561471d578251825591602001919060010190614702565b5061472992915061472d565b5090565b5b80821115614729576000815560010161472e565b6001600160a01b038116811461358457600080fd5b803561476281614742565b919050565b6000806040838503121561477a57600080fd5b823561478581614742565b946020939093013593505050565b6001600160e01b03198116811461358457600080fd5b6000602082840312156147bb57600080fd5b813561114581614793565b6000806000606084860312156147db57600080fd5b83356147e681614742565b95602085013595506040909401359392505050565b60006020828403121561480d57600080fd5b5035919050565b6000815180845260005b8181101561483a5760208185018101518683018201520161481e565b8181111561484c576000602083870101525b50601f01601f19169290920160200192915050565b6020815260006111456020830184614814565b6000806000806080858703121561488a57600080fd5b843561489581614742565b966020860135965060408601359560600135945092505050565b600080600080600060a086880312156148c757600080fd5b85356148d281614742565b97602087013597506040870135966060810135965060800135945092505050565b801515811461358457600080fd5b8035614762816148f3565b6000806000806080858703121561492257600080fd5b843561492d81614742565b93506020850135925060408501359150606085013561494b816148f3565b939692955090935050565b634e487b7160e01b600052604160045260246000fd5b602081018181106001600160401b038211171561498b5761498b614956565b60405250565b601f8201601f191681016001600160401b03811182821017156149b6576149b6614956565b6040525050565b6040516101e081016001600160401b03811182821017156149e0576149e0614956565b60405290565b60006001600160401b038211156149ff576149ff614956565b5060051b60200190565b600082601f830112614a1a57600080fd5b81356020614a27826149e6565b604051614a348282614991565b83815260059390931b8501820192828101915086841115614a5457600080fd5b8286015b84811015614a6f5780358352918301918301614a58565b509695505050505050565b60006001600160401b03831115614a9357614a93614956565b604051614aaa601f8501601f191660200182614991565b809150838152848484011115614abf57600080fd5b83836020830137600060208583010152509392505050565b600082601f830112614ae857600080fd5b61114583833560208501614a7a565b600080600080600060a08688031215614b0f57600080fd5b8535614b1a81614742565b94506020860135614b2a81614742565b935060408601356001600160401b0380821115614b4657600080fd5b614b5289838a01614a09565b94506060880135915080821115614b6857600080fd5b614b7489838a01614a09565b93506080880135915080821115614b8a57600080fd5b50614b9788828901614ad7565b9150509295509295909350565b60008060408385031215614bb757600080fd5b50508035926020909101359150565b600080600060608486031215614bdb57600080fd5b8335614be681614742565b92506020840135614bf681614742565b915060408401356001600160401b03811115614c1157600080fd5b8401601f81018613614c2257600080fd5b614c3186823560208401614a7a565b9150509250925092565b60008060408385031215614c4e57600080fd5b82356001600160401b0380821115614c6557600080fd5b818501915085601f830112614c7957600080fd5b81356020614c86826149e6565b604051614c938282614991565b83815260059390931b8501820192828101915089841115614cb357600080fd5b948201945b83861015614cda578535614ccb81614742565b82529482019490820190614cb8565b96505086013592505080821115614cf057600080fd5b50614cfd85828601614a09565b9150509250929050565b600081518084526020808501945080840160005b83811015614d3757815187529582019590820190600101614d1b565b509495945050505050565b6020815260006111456020830184614d07565b600060208284031215614d6757600080fd5b813561114581614742565b600080600060608486031215614d8757600080fd5b8335614d9281614742565b925060208401356001600160401b0380821115614dae57600080fd5b614dba87838801614a09565b93506040860135915080821115614dd057600080fd5b50614c3186828701614a09565b60008060408385031215614df057600080fd5b8235614dfb81614742565b91506020830135614e0b816148f3565b809150509250929050565b600080600080848603610240811215614e2e57600080fd5b8535614e3981614742565b945060208601359350604086013592506101e0605f198201811315614e5d57600080fd5b614e656149bd565b9150614e7360608801614901565b8252614e8160808801614757565b602083015260a0870135604083015260c0870135606083015260e087013560808301526101008088013560a08401526101208089013560c0850152610140808a013560e0860152610160808b0135848701526101809350838b0135838701526101a09250828b0135828701526101c09150818b01358187015250838a0135838601526102008a0135828601526102208a013581860152505050508091505092959194509250565b600060a08284031215614f3a57600080fd5b60405160a081018181106001600160401b0382111715614f5c57614f5c614956565b806040525080915082358152602083013560208201526040830135604082015260608301356060820152608083013560808201525092915050565b6000806101408385031215614fab57600080fd5b614fb58484614f28565b9150614fc48460a08501614f28565b90509250929050565b60008060408385031215614fe057600080fd5b8235614feb81614742565b91506020830135614e0b81614742565b600080600080600060a0868803121561501357600080fd5b853561501e81614742565b9450602086013561502e81614742565b9350604086013592506060860135915060808601356001600160401b0381111561505757600080fd5b614b9788828901614ad7565b600181811c9082168061507757607f821691505b602082108103611b7857634e487b7160e01b600052602260045260246000fd5b6000602082840312156150a957600080fd5b815161114581614742565b6020808252601290820152712cb7ba9031b0b713ba103237903a3430ba1760711b604082015260600190565b6000602082840312156150f257600080fd5b8151611145816148f3565b634e487b7160e01b600052601160045260246000fd5b60008219821115615126576151266150fd565b500190565b60006020828403121561513d57600080fd5b5051919050565b600060018201615156576151566150fd565b5060010190565b60008282101561516f5761516f6150fd565b500390565b634e487b7160e01b600052603260045260246000fd5b6000806040838503121561519d57600080fd5b505080516020909101519092909150565b6020808252600d908201526c2cb7ba9030b932903232b0b21760991b604082015260600190565b60008160001904831182151516156151ef576151ef6150fd565b500290565b600080821280156001600160ff1b0384900385131615615216576152166150fd565b600160ff1b839003841281161561522f5761522f6150fd565b50500190565b634e487b7160e01b600052601260045260246000fd5b60008261525a5761525a615235565b600160ff1b821460001984141615615274576152746150fd565b500590565b60208082526029908201527f455243313135353a2063616c6c6572206973206e6f74206f776e6572206e6f7260408201526808185c1c1c9bdd995960ba1b606082015260800190565b60008083128015600160ff1b8501841216156152e0576152e06150fd565b6001600160ff1b03840183138116156152fb576152fb6150fd565b50500390565b60006001600160ff1b0381841382841380821686840486111615615327576153276150fd565b600160ff1b6000871282811687830589121615615346576153466150fd565b60008712925087820587128484161615615362576153626150fd565b87850587128184161615615378576153786150fd565b505050929093029392505050565b600081830360c081121561539957600080fd5b60405160c081018181106001600160401b03821117156153bb576153bb614956565b8060405250835181526020840151602082015260408401516040820152606084015160608201526020607f19830112156153f457600080fd5b60405191506154028261496c565b6080840151825281608082015260a084015160a0820152809250505092915050565b6020808252601e908201527f596f75206c61636b2074686520706f77657220746f20646f20746861742e0000604082015260600190565b6020808252600f908201526e2a30b933b2ba1034b9903232b0b21760891b604082015260600190565b6020808252600a90820152692737ba1030903830b61760b11b604082015260600190565b60208082526028908201527f455243313135353a2069647320616e6420616d6f756e7473206c656e677468206040820152670dad2e6dac2e8c6d60c31b606082015260800190565b60208082526025908201527f455243313135353a207472616e7366657220746f20746865207a65726f206164604082015264647265737360d81b606082015260800190565b6020808252602a908201527f455243313135353a20696e73756666696369656e742062616c616e636520666f60408201526939103a3930b739b332b960b11b606082015260800190565b6040815260006155926040830185614d07565b82810360208401526144308185614d07565b6020808252602b908201527f496e697469616c697a61626c653a20636f6e7472616374206973206e6f74206960408201526a6e697469616c697a696e6760a81b606082015260800190565b60208082526023908201527f455243313135353a206275726e2066726f6d20746865207a65726f206164647260408201526265737360e81b606082015260800190565b60208082526024908201527f455243313135353a206275726e20616d6f756e7420657863656564732062616c604082015263616e636560e01b606082015260800190565b60008261568557615685615235565b500490565b6001600160a01b0386811682528516602082015260a0604082018190526000906156b690830186614d07565b82810360608401526156c88186614d07565b905082810360808401526156dc8185614814565b98975050505050505050565b6000602082840312156156fa57600080fd5b815161114581614793565b600060033d111561571e5760046000803e5060005160e01c5b90565b600060443d101561572f5790565b6040516003193d81016004833e81513d6001600160401b03816024840111818411171561575e57505050505090565b82850191508151818111156157765750505050505090565b843d87010160208285010111156157905750505050505090565b613b6960208286010187614991565b60208082526028908201527f455243313135353a204552433131353552656365697665722072656a656374656040820152676420746f6b656e7360c01b606082015260800190565b6001600160a01b03868116825285166020820152604081018490526060810183905260a06080820181905260009061582190830184614814565b97965050505050505056fec3d58168c5ae7397731d063d5bbf3d657854427343f4c083240f7aacaa2d0f62a2646970667358221220547046744cb6b997ef96f560f98f7e87b669acd74c8bae3853bda7a78f42a20664736f6c634300080e0033",
  "bytecodeSha1": "dd3878b32399a6227a7ff7d58d5d6ed0272f53cc",
  "compiler": {
    "evm_version": "istanbul",
    "optimizer": {
      "enabled": true,
      "runs": 100
    },
    "version": "0.8.14+commit.80d49f37"
  },
  "contractName": "BaseSpells",
  "language": "Solidity",
  "natspec": {
    "kind": "dev",
    "methods": {
      "balanceOf(address,uint256)": {
        "details": "See {IERC1155-balanceOf}. Requirements: - `account` cannot be the zero address."
      },
      "balanceOfBatch(address[],uint256[])": {
        "details": "See {IERC1155-balanceOfBatch}. Requirements: - `accounts` and `ids` must have the same length."
      },
      "isApprovedForAll(address,address)": {
        "details": "See {IERC1155-isApprovedForAll}."
      },
      "safeBatchTransferFrom(address,address,uint256[],uint256[],bytes)": {
        "details": "See {IERC1155-safeBatchTransferFrom}."
      },
      "safeTransferFrom(address,address,uint256,uint256,bytes)": {
        "details": "See {IERC1155-safeTransferFrom}."
      },
      "setApprovalForAll(address,bool)": {
        "details": "See {IERC1155-setApprovalForAll}."
      },
      "supportsInterface(bytes4)": {
        "details": "See {IERC165-supportsInterface}."
      },
      "uri(uint256)": {
        "details": "See {IERC1155MetadataURI-uri}. This implementation returns the same URI for *all* token types. It relies on the token type ID substitution mechanism https://eips.ethereum.org/EIPS/eip-1155#metadata[defined in the EIP]. Clients calling this function must replace the `\\{id\\}` substring with the actual token type ID."
      }
    },
    "version": 1
  },
  "opcodes": "PUSH1 0x80 PUSH1 0x40 MSTORE PUSH1 0x4 CALLDATASIZE LT PUSH2 0x292 JUMPI PUSH1 0x0 CALLDATALOAD PUSH1 0xE0 SHR DUP1 PUSH4 0x69D15BCA GT PUSH2 0x15A JUMPI DUP1 PUSH4 0xA22CB465 GT PUSH2 0xC1 JUMPI DUP1 PUSH4 0xC38C9FBC GT PUSH2 0x7A JUMPI DUP1 PUSH4 0xC38C9FBC EQ PUSH2 0xA32 JUMPI DUP1 PUSH4 0xCD0ACA99 EQ PUSH2 0x2FA JUMPI DUP1 PUSH4 0xD1CDBDBA EQ PUSH2 0xA52 JUMPI DUP1 PUSH4 0xE985E9C5 EQ PUSH2 0xAB4 JUMPI DUP1 PUSH4 0xF242432A EQ PUSH2 0xAFD JUMPI DUP1 PUSH4 0xF5298ACA EQ PUSH2 0xB1D JUMPI PUSH1 0x0 DUP1 REVERT JUMPDEST DUP1 PUSH4 0xA22CB465 EQ PUSH2 0x952 JUMPI DUP1 PUSH4 0xA6C92323 EQ PUSH2 0x972 JUMPI DUP1 PUSH4 0xA93AF614 EQ PUSH2 0x9B2 JUMPI DUP1 PUSH4 0xA9DBD70B EQ PUSH2 0x9D2 JUMPI DUP1 PUSH4 0xAC4A61BE EQ PUSH2 0x9F2 JUMPI DUP1 PUSH4 0xB121F2AC EQ PUSH2 0xA12 JUMPI PUSH1 0x0 DUP1 REVERT JUMPDEST DUP1 PUSH4 0x7DFA3F56 GT PUSH2 0x113 JUMPI DUP1 PUSH4 0x7DFA3F56 EQ PUSH2 0x879 JUMPI DUP1 PUSH4 0x81B38BE9 EQ PUSH2 0x899 JUMPI DUP1 PUSH4 0x8297F29F EQ PUSH2 0x8B9 JUMPI DUP1 PUSH4 0x88FC291C EQ PUSH2 0x8F2 JUMPI DUP1 PUSH4 0x9710B380 EQ PUSH2 0x912 JUMPI DUP1 PUSH4 0x98A9C326 EQ PUSH2 0x932 JUMPI PUSH1 0x0 DUP1 REVERT JUMPDEST DUP1 PUSH4 0x69D15BCA EQ PUSH2 0x7B5 JUMPI DUP1 PUSH4 0x6B20C454 EQ PUSH2 0x7D5 JUMPI DUP1 PUSH4 0x6D714B68 EQ PUSH2 0x7F5 JUMPI DUP1 PUSH4 0x787023B5 EQ PUSH2 0x815 JUMPI DUP1 PUSH4 0x7BC93516 EQ PUSH2 0x2FA JUMPI DUP1 PUSH4 0x7DF55498 EQ PUSH2 0x835 JUMPI PUSH1 0x0 DUP1 REVERT JUMPDEST DUP1 PUSH4 0x419C76C3 GT PUSH2 0x1FE JUMPI DUP1 PUSH4 0x4E1273F4 GT PUSH2 0x1B7 JUMPI DUP1 PUSH4 0x4E1273F4 EQ PUSH2 0x524 JUMPI DUP1 PUSH4 0x5456BF13 EQ PUSH2 0x551 JUMPI DUP1 PUSH4 0x55A82FC4 EQ PUSH2 0x725 JUMPI DUP1 PUSH4 0x596C6325 EQ PUSH2 0x745 JUMPI DUP1 PUSH4 0x63F6AA83 EQ PUSH2 0x775 JUMPI DUP1 PUSH4 0x665DF460 EQ PUSH2 0x795 JUMPI PUSH1 0x0 DUP1 REVERT JUMPDEST DUP1 PUSH4 0x419C76C3 EQ PUSH2 0x484 JUMPI DUP1 PUSH4 0x42958036 EQ PUSH2 0x4A4 JUMPI DUP1 PUSH4 0x43717931 EQ PUSH2 0x4C4 JUMPI DUP1 PUSH4 0x4571E3A6 EQ PUSH2 0x4E4 JUMPI DUP1 PUSH4 0x495057BE EQ PUSH2 0x33D JUMPI DUP1 PUSH4 0x4D787513 EQ PUSH2 0x504 JUMPI PUSH1 0x0 DUP1 REVERT JUMPDEST DUP1 PUSH4 0x19178A05 GT PUSH2 0x250 JUMPI DUP1 PUSH4 0x19178A05 EQ PUSH2 0x38C JUMPI DUP1 PUSH4 0x2581FF2D EQ PUSH2 0x3AC JUMPI DUP1 PUSH4 0x28B420A4 EQ PUSH2 0x3CF JUMPI DUP1 PUSH4 0x2D7301E2 EQ PUSH2 0x3EF JUMPI DUP1 PUSH4 0x2EB2C2D6 EQ PUSH2 0x40F JUMPI DUP1 PUSH4 0x33C07FF1 EQ PUSH2 0x42F JUMPI PUSH1 0x0 DUP1 REVERT JUMPDEST DUP1 PUSH3 0xFDD58E EQ PUSH2 0x297 JUMPI DUP1 PUSH4 0x1FFC9A7 EQ PUSH2 0x2CA JUMPI DUP1 PUSH4 0x7E6F85D EQ PUSH2 0x2FA JUMPI DUP1 PUSH4 0x9DFE841 EQ PUSH2 0x31D JUMPI DUP1 PUSH4 0xE89341C EQ PUSH2 0x33F JUMPI DUP1 PUSH4 0x108BDA0C EQ PUSH2 0x36C JUMPI JUMPDEST PUSH1 0x0 DUP1 REVERT JUMPDEST CALLVALUE DUP1 ISZERO PUSH2 0x2A3 JUMPI PUSH1 0x0 DUP1 REVERT JUMPDEST POP PUSH2 0x2B7 PUSH2 0x2B2 CALLDATASIZE PUSH1 0x4 PUSH2 0x4767 JUMP JUMPDEST PUSH2 0xB3D JUMP JUMPDEST PUSH1 0x40 MLOAD SWAP1 DUP2 MSTORE PUSH1 0x20 ADD JUMPDEST PUSH1 0x40 MLOAD DUP1 SWAP2 SUB SWAP1 RETURN JUMPDEST CALLVALUE DUP1 ISZERO PUSH2 0x2D6 JUMPI PUSH1 0x0 DUP1 REVERT JUMPDEST POP PUSH2 0x2EA PUSH2 0x2E5 CALLDATASIZE PUSH1 0x4 PUSH2 0x47A9 JUMP JUMPDEST PUSH2 0xBD9 JUMP JUMPDEST PUSH1 0x40 MLOAD SWAP1 ISZERO ISZERO DUP2 MSTORE PUSH1 0x20 ADD PUSH2 0x2C1 JUMP JUMPDEST CALLVALUE DUP1 ISZERO PUSH2 0x306 JUMPI PUSH1 0x0 DUP1 REVERT JUMPDEST POP PUSH2 0x2B7 PUSH2 0x315 CALLDATASIZE PUSH1 0x4 PUSH2 0x4767 JUMP JUMPDEST PUSH1 0x64 SWAP3 SWAP2 POP POP JUMP JUMPDEST CALLVALUE DUP1 ISZERO PUSH2 0x329 JUMPI PUSH1 0x0 DUP1 REVERT JUMPDEST POP PUSH2 0x33D PUSH2 0x338 CALLDATASIZE PUSH1 0x4 PUSH2 0x47C6 JUMP JUMPDEST PUSH2 0xC29 JUMP JUMPDEST STOP JUMPDEST CALLVALUE DUP1 ISZERO PUSH2 0x34B JUMPI PUSH1 0x0 DUP1 REVERT JUMPDEST POP PUSH2 0x35F PUSH2 0x35A CALLDATASIZE PUSH1 0x4 PUSH2 0x47FB JUMP JUMPDEST PUSH2 0xCC4 JUMP JUMPDEST PUSH1 0x40 MLOAD PUSH2 0x2C1 SWAP2 SWAP1 PUSH2 0x4861 JUMP JUMPDEST CALLVALUE DUP1 ISZERO PUSH2 0x378 JUMPI PUSH1 0x0 DUP1 REVERT JUMPDEST POP PUSH2 0x33D PUSH2 0x387 CALLDATASIZE PUSH1 0x4 PUSH2 0x4874 JUMP JUMPDEST PUSH2 0xD58 JUMP JUMPDEST CALLVALUE DUP1 ISZERO PUSH2 0x398 JUMPI PUSH1 0x0 DUP1 REVERT JUMPDEST POP PUSH2 0x33D PUSH2 0x3A7 CALLDATASIZE PUSH1 0x4 PUSH2 0x48AF JUMP JUMPDEST PUSH2 0xDC7 JUMP JUMPDEST CALLVALUE DUP1 ISZERO PUSH2 0x3B8 JUMPI PUSH1 0x0 DUP1 REVERT JUMPDEST POP PUSH2 0x2B7 PUSH2 0x3C7 CALLDATASIZE PUSH1 0x4 PUSH2 0x4767 JUMP JUMPDEST PUSH1 0x3 SWAP3 SWAP2 POP POP JUMP JUMPDEST CALLVALUE DUP1 ISZERO PUSH2 0x3DB JUMPI PUSH1 0x0 DUP1 REVERT JUMPDEST POP PUSH2 0x2B7 PUSH2 0x3EA CALLDATASIZE PUSH1 0x4 PUSH2 0x47C6 JUMP JUMPDEST PUSH2 0x1142 JUMP JUMPDEST CALLVALUE DUP1 ISZERO PUSH2 0x3FB JUMPI PUSH1 0x0 DUP1 REVERT JUMPDEST POP PUSH2 0x33D PUSH2 0x40A CALLDATASIZE PUSH1 0x4 PUSH2 0x490C JUMP JUMPDEST PUSH2 0x114C JUMP JUMPDEST CALLVALUE DUP1 ISZERO PUSH2 0x41B JUMPI PUSH1 0x0 DUP1 REVERT JUMPDEST POP PUSH2 0x33D PUSH2 0x42A CALLDATASIZE PUSH1 0x4 PUSH2 0x4AF7 JUMP JUMPDEST PUSH2 0x11DD JUMP JUMPDEST CALLVALUE DUP1 ISZERO PUSH2 0x43B JUMPI PUSH1 0x0 DUP1 REVERT JUMPDEST POP PUSH2 0x2EA PUSH2 0x44A CALLDATASIZE PUSH1 0x4 PUSH2 0x47C6 JUMP JUMPDEST PUSH1 0x1 PUSH1 0x1 PUSH1 0xA0 SHL SUB DUP4 AND PUSH1 0x0 SWAP1 DUP2 MSTORE PUSH2 0x102 PUSH1 0x20 SWAP1 DUP2 MSTORE PUSH1 0x40 DUP1 DUP4 KECCAK256 DUP5 DUP5 MSTORE DUP3 MSTORE DUP1 DUP4 KECCAK256 DUP6 DUP5 MSTORE PUSH1 0x2 ADD SWAP1 SWAP2 MSTORE SWAP1 KECCAK256 SLOAD PUSH1 0xFF AND SWAP4 SWAP3 POP POP POP JUMP JUMPDEST CALLVALUE DUP1 ISZERO PUSH2 0x490 JUMPI PUSH1 0x0 DUP1 REVERT JUMPDEST POP PUSH2 0x2B7 PUSH2 0x49F CALLDATASIZE PUSH1 0x4 PUSH2 0x4767 JUMP JUMPDEST PUSH2 0x1274 JUMP JUMPDEST CALLVALUE DUP1 ISZERO PUSH2 0x4B0 JUMPI PUSH1 0x0 DUP1 REVERT JUMPDEST POP PUSH2 0x2EA PUSH2 0x4BF CALLDATASIZE PUSH1 0x4 PUSH2 0x47C6 JUMP JUMPDEST PUSH2 0x129C JUMP JUMPDEST CALLVALUE DUP1 ISZERO PUSH2 0x4D0 JUMPI PUSH1 0x0 DUP1 REVERT JUMPDEST POP PUSH2 0x2B7 PUSH2 0x4DF CALLDATASIZE PUSH1 0x4 PUSH2 0x4BA4 JUMP JUMPDEST PUSH2 0x1314 JUMP JUMPDEST CALLVALUE DUP1 ISZERO PUSH2 0x4F0 JUMPI PUSH1 0x0 DUP1 REVERT JUMPDEST POP PUSH2 0x33D PUSH2 0x4FF CALLDATASIZE PUSH1 0x4 PUSH2 0x4BC6 JUMP JUMPDEST PUSH2 0x1337 JUMP JUMPDEST CALLVALUE DUP1 ISZERO PUSH2 0x510 JUMPI PUSH1 0x0 DUP1 REVERT JUMPDEST POP PUSH2 0x33D PUSH2 0x51F CALLDATASIZE PUSH1 0x4 PUSH2 0x48AF JUMP JUMPDEST PUSH2 0x143D JUMP JUMPDEST CALLVALUE DUP1 ISZERO PUSH2 0x530 JUMPI PUSH1 0x0 DUP1 REVERT JUMPDEST POP PUSH2 0x544 PUSH2 0x53F CALLDATASIZE PUSH1 0x4 PUSH2 0x4C3B JUMP JUMPDEST PUSH2 0x14F0 JUMP JUMPDEST PUSH1 0x40 MLOAD PUSH2 0x2C1 SWAP2 SWAP1 PUSH2 0x4D42 JUMP JUMPDEST CALLVALUE DUP1 ISZERO PUSH2 0x55D JUMPI PUSH1 0x0 DUP1 REVERT JUMPDEST POP PUSH2 0x2B7 PUSH2 0x56C CALLDATASIZE PUSH1 0x4 PUSH2 0x47FB JUMP JUMPDEST PUSH1 0x40 DUP1 MLOAD PUSH32 0xF8F9CBFAE6CC78FBEFE7CDC3A1793DFCF4F0E8BBD8CEC470B6A28A7A5A3E1EFD DUP2 MSTORE PUSH32 0xF5ECF1B3E9DEBC68E1D9CFABC5997135BFB7A7A3938B7B606B5B4B3F2F1F0FFE PUSH1 0x20 DUP3 ADD MSTORE PUSH32 0xF6E4ED9FF2D6B458EADCDF97BD91692DE2D4DA8FD2D0AC50C6AE9A8272523616 DUP2 DUP4 ADD MSTORE PUSH32 0xC8C0B887B0A8A4489C948C7F847C6125746C645C544C444038302820181008FF PUSH1 0x60 DUP3 ADD MSTORE PUSH32 0xF7CAE577EEC2A03CF3BAD76FB589591DEBB2DD67E0AA9834BEA6925F6A4A2E0E PUSH1 0x80 DUP3 ADD MSTORE PUSH32 0xE39ED557DB96902CD38ED14FAD815115C786AF479B7E83247363534337271707 PUSH1 0xA0 DUP3 ADD MSTORE PUSH32 0xC976C13BB96E881CB166A933A55E490D9D56952B8D4E801485467D2362422606 PUSH1 0xC0 DUP3 ADD MSTORE PUSH32 0x753A6D1B65325D0C552A4D1345224105391A310B29122104190A110309020100 PUSH1 0xE0 DUP3 ADD MSTORE PUSH2 0x100 DUP1 DUP3 ADD SWAP1 SWAP3 MSTORE PUSH1 0x1 PUSH1 0xF8 SHL PUSH1 0x1 PUSH1 0x1 PUSH1 0x80 SHL PUSH1 0x1 PUSH1 0x40 SHL PUSH5 0x100000000 PUSH3 0x10000 PUSH1 0x10 PUSH1 0x4 PUSH1 0x2 PUSH1 0x0 NOT DUP13 ADD SWAP1 DUP2 DIV OR SWAP1 DUP2 DIV OR SWAP1 DUP2 DIV OR DUP9 DUP2 DIV OR SWAP1 DUP2 DIV OR SWAP1 DUP2 DIV OR SWAP1 DUP2 DIV OR SWAP1 DUP2 DIV OR ADD PUSH31 0x818283848586878898A8B8C8D8E8F929395969799A9B9D9E9FAAEB6BEDEEFF MUL DUP2 SWAP1 DIV PUSH1 0xFF SUB SWAP1 SWAP2 ADD MLOAD DIV PUSH1 0x1 PUSH1 0xFF SHL SWAP1 SWAP3 GT MUL ADD SWAP1 JUMP JUMPDEST CALLVALUE DUP1 ISZERO PUSH2 0x731 JUMPI PUSH1 0x0 DUP1 REVERT JUMPDEST POP PUSH2 0x2EA PUSH2 0x740 CALLDATASIZE PUSH1 0x4 PUSH2 0x47C6 JUMP JUMPDEST PUSH2 0x1619 JUMP JUMPDEST CALLVALUE DUP1 ISZERO PUSH2 0x751 JUMPI PUSH1 0x0 DUP1 REVERT JUMPDEST POP PUSH2 0x2EA PUSH2 0x760 CALLDATASIZE PUSH1 0x4 PUSH2 0x4D55 JUMP JUMPDEST PUSH1 0xFD PUSH1 0x20 MSTORE PUSH1 0x0 SWAP1 DUP2 MSTORE PUSH1 0x40 SWAP1 KECCAK256 SLOAD PUSH1 0xFF AND DUP2 JUMP JUMPDEST CALLVALUE DUP1 ISZERO PUSH2 0x781 JUMPI PUSH1 0x0 DUP1 REVERT JUMPDEST POP PUSH2 0x33D PUSH2 0x790 CALLDATASIZE PUSH1 0x4 PUSH2 0x4874 JUMP JUMPDEST PUSH2 0x164C JUMP JUMPDEST CALLVALUE DUP1 ISZERO PUSH2 0x7A1 JUMPI PUSH1 0x0 DUP1 REVERT JUMPDEST POP PUSH2 0x2B7 PUSH2 0x7B0 CALLDATASIZE PUSH1 0x4 PUSH2 0x47FB JUMP JUMPDEST PUSH2 0x1B25 JUMP JUMPDEST CALLVALUE DUP1 ISZERO PUSH2 0x7C1 JUMPI PUSH1 0x0 DUP1 REVERT JUMPDEST POP PUSH2 0x2EA PUSH2 0x7D0 CALLDATASIZE PUSH1 0x4 PUSH2 0x47C6 JUMP JUMPDEST PUSH2 0x1B7E JUMP JUMPDEST CALLVALUE DUP1 ISZERO PUSH2 0x7E1 JUMPI PUSH1 0x0 DUP1 REVERT JUMPDEST POP PUSH2 0x33D PUSH2 0x7F0 CALLDATASIZE PUSH1 0x4 PUSH2 0x4D72 JUMP JUMPDEST PUSH2 0x1C3A JUMP JUMPDEST CALLVALUE DUP1 ISZERO PUSH2 0x801 JUMPI PUSH1 0x0 DUP1 REVERT JUMPDEST POP PUSH2 0x33D PUSH2 0x810 CALLDATASIZE PUSH1 0x4 PUSH2 0x4DDD JUMP JUMPDEST PUSH2 0x1C82 JUMP JUMPDEST CALLVALUE DUP1 ISZERO PUSH2 0x821 JUMPI PUSH1 0x0 DUP1 REVERT JUMPDEST POP PUSH2 0x2B7 PUSH2 0x830 CALLDATASIZE PUSH1 0x4 PUSH2 0x4E16 JUMP JUMPDEST PUSH2 0x1D07 JUMP JUMPDEST CALLVALUE DUP1 ISZERO PUSH2 0x841 JUMPI PUSH1 0x0 DUP1 REVERT JUMPDEST POP PUSH2 0x2B7 PUSH2 0x850 CALLDATASIZE PUSH1 0x4 PUSH2 0x4767 JUMP JUMPDEST PUSH1 0x1 PUSH1 0x1 PUSH1 0xA0 SHL SUB SWAP2 SWAP1 SWAP2 AND PUSH1 0x0 SWAP1 DUP2 MSTORE PUSH2 0x109 PUSH1 0x20 SWAP1 DUP2 MSTORE PUSH1 0x40 DUP1 DUP4 KECCAK256 SWAP4 DUP4 MSTORE SWAP3 SWAP1 MSTORE KECCAK256 SLOAD SWAP1 JUMP JUMPDEST CALLVALUE DUP1 ISZERO PUSH2 0x885 JUMPI PUSH1 0x0 DUP1 REVERT JUMPDEST POP PUSH2 0x2B7 PUSH2 0x894 CALLDATASIZE PUSH1 0x4 PUSH2 0x4F97 JUMP JUMPDEST PUSH2 0x1DA6 JUMP JUMPDEST CALLVALUE DUP1 ISZERO PUSH2 0x8A5 JUMPI PUSH1 0x0 DUP1 REVERT JUMPDEST POP PUSH2 0x2B7 PUSH2 0x8B4 CALLDATASIZE PUSH1 0x4 PUSH2 0x4874 JUMP JUMPDEST PUSH2 0x1E49 JUMP JUMPDEST CALLVALUE DUP1 ISZERO PUSH2 0x8C5 JUMPI PUSH1 0x0 DUP1 REVERT JUMPDEST POP PUSH2 0x2EA PUSH2 0x8D4 CALLDATASIZE PUSH1 0x4 PUSH2 0x4D55 JUMP JUMPDEST PUSH1 0x1 PUSH1 0x1 PUSH1 0xA0 SHL SUB AND PUSH1 0x0 SWAP1 DUP2 MSTORE PUSH1 0xFD PUSH1 0x20 MSTORE PUSH1 0x40 SWAP1 KECCAK256 SLOAD PUSH1 0xFF AND SWAP1 JUMP JUMPDEST CALLVALUE DUP1 ISZERO PUSH2 0x8FE JUMPI PUSH1 0x0 DUP1 REVERT JUMPDEST POP PUSH2 0x2EA PUSH2 0x90D CALLDATASIZE PUSH1 0x4 PUSH2 0x47C6 JUMP JUMPDEST PUSH2 0x1EEF JUMP JUMPDEST CALLVALUE DUP1 ISZERO PUSH2 0x91E JUMPI PUSH1 0x0 DUP1 REVERT JUMPDEST POP PUSH2 0x33D PUSH2 0x92D CALLDATASIZE PUSH1 0x4 PUSH2 0x48AF JUMP JUMPDEST PUSH2 0x1F90 JUMP JUMPDEST CALLVALUE DUP1 ISZERO PUSH2 0x93E JUMPI PUSH1 0x0 DUP1 REVERT JUMPDEST POP PUSH2 0x33D PUSH2 0x94D CALLDATASIZE PUSH1 0x4 PUSH2 0x48AF JUMP JUMPDEST PUSH2 0x2668 JUMP JUMPDEST CALLVALUE DUP1 ISZERO PUSH2 0x95E JUMPI PUSH1 0x0 DUP1 REVERT JUMPDEST POP PUSH2 0x33D PUSH2 0x96D CALLDATASIZE PUSH1 0x4 PUSH2 0x4DDD JUMP JUMPDEST PUSH2 0x2E65 JUMP JUMPDEST CALLVALUE DUP1 ISZERO PUSH2 0x97E JUMPI PUSH1 0x0 DUP1 REVERT JUMPDEST POP PUSH2 0x2EA PUSH2 0x98D CALLDATASIZE PUSH1 0x4 PUSH2 0x47C6 JUMP JUMPDEST PUSH1 0xFF PUSH1 0x20 DUP2 DUP2 MSTORE PUSH1 0x0 SWAP5 DUP6 MSTORE PUSH1 0x40 DUP1 DUP7 KECCAK256 DUP3 MSTORE SWAP4 DUP6 MSTORE DUP4 DUP6 KECCAK256 SWAP1 MSTORE SWAP1 DUP4 MSTORE SWAP2 KECCAK256 SLOAD AND DUP2 JUMP JUMPDEST CALLVALUE DUP1 ISZERO PUSH2 0x9BE JUMPI PUSH1 0x0 DUP1 REVERT JUMPDEST POP PUSH2 0x2B7 PUSH2 0x9CD CALLDATASIZE PUSH1 0x4 PUSH2 0x47FB JUMP JUMPDEST PUSH2 0x2E74 JUMP JUMPDEST CALLVALUE DUP1 ISZERO PUSH2 0x9DE JUMPI PUSH1 0x0 DUP1 REVERT JUMPDEST POP PUSH2 0x33D PUSH2 0x9ED CALLDATASIZE PUSH1 0x4 PUSH2 0x47C6 JUMP JUMPDEST PUSH2 0x2E83 JUMP JUMPDEST CALLVALUE DUP1 ISZERO PUSH2 0x9FE JUMPI PUSH1 0x0 DUP1 REVERT JUMPDEST POP PUSH2 0x2EA PUSH2 0xA0D CALLDATASIZE PUSH1 0x4 PUSH2 0x4874 JUMP JUMPDEST PUSH2 0x2F1D JUMP JUMPDEST CALLVALUE DUP1 ISZERO PUSH2 0xA1E JUMPI PUSH1 0x0 DUP1 REVERT JUMPDEST POP PUSH2 0x2B7 PUSH2 0xA2D CALLDATASIZE PUSH1 0x4 PUSH2 0x4767 JUMP JUMPDEST PUSH2 0x2FF6 JUMP JUMPDEST CALLVALUE DUP1 ISZERO PUSH2 0xA3E JUMPI PUSH1 0x0 DUP1 REVERT JUMPDEST POP PUSH2 0x2B7 PUSH2 0xA4D CALLDATASIZE PUSH1 0x4 PUSH2 0x47C6 JUMP JUMPDEST PUSH2 0x3035 JUMP JUMPDEST CALLVALUE DUP1 ISZERO PUSH2 0xA5E JUMPI PUSH1 0x0 DUP1 REVERT JUMPDEST POP PUSH2 0xA72 PUSH2 0xA6D CALLDATASIZE PUSH1 0x4 PUSH2 0x4767 JUMP JUMPDEST PUSH2 0x313B JUMP JUMPDEST PUSH1 0x40 MLOAD PUSH2 0x2C1 SWAP2 SWAP1 PUSH1 0x0 PUSH1 0xA0 DUP3 ADD SWAP1 POP DUP3 MLOAD DUP3 MSTORE PUSH1 0x20 DUP4 ADD MLOAD PUSH1 0x20 DUP4 ADD MSTORE PUSH1 0x40 DUP4 ADD MLOAD PUSH1 0x40 DUP4 ADD MSTORE PUSH1 0x60 DUP4 ADD MLOAD PUSH1 0x60 DUP4 ADD MSTORE PUSH1 0x80 DUP4 ADD MLOAD PUSH1 0x80 DUP4 ADD MSTORE SWAP3 SWAP2 POP POP JUMP JUMPDEST CALLVALUE DUP1 ISZERO PUSH2 0xAC0 JUMPI PUSH1 0x0 DUP1 REVERT JUMPDEST POP PUSH2 0x2EA PUSH2 0xACF CALLDATASIZE PUSH1 0x4 PUSH2 0x4FCD JUMP JUMPDEST PUSH1 0x1 PUSH1 0x1 PUSH1 0xA0 SHL SUB SWAP2 DUP3 AND PUSH1 0x0 SWAP1 DUP2 MSTORE PUSH1 0x66 PUSH1 0x20 SWAP1 DUP2 MSTORE PUSH1 0x40 DUP1 DUP4 KECCAK256 SWAP4 SWAP1 SWAP5 AND DUP3 MSTORE SWAP2 SWAP1 SWAP2 MSTORE KECCAK256 SLOAD PUSH1 0xFF AND SWAP1 JUMP JUMPDEST CALLVALUE DUP1 ISZERO PUSH2 0xB09 JUMPI PUSH1 0x0 DUP1 REVERT JUMPDEST POP PUSH2 0x33D PUSH2 0xB18 CALLDATASIZE PUSH1 0x4 PUSH2 0x4FFB JUMP JUMPDEST PUSH2 0x3255 JUMP JUMPDEST CALLVALUE DUP1 ISZERO PUSH2 0xB29 JUMPI PUSH1 0x0 DUP1 REVERT JUMPDEST POP PUSH2 0x33D PUSH2 0xB38 CALLDATASIZE PUSH1 0x4 PUSH2 0x47C6 JUMP JUMPDEST PUSH2 0x329A JUMP JUMPDEST PUSH1 0x0 PUSH1 0x1 PUSH1 0x1 PUSH1 0xA0 SHL SUB DUP4 AND PUSH2 0xBAE JUMPI PUSH1 0x40 MLOAD PUSH3 0x461BCD PUSH1 0xE5 SHL DUP2 MSTORE PUSH1 0x20 PUSH1 0x4 DUP3 ADD MSTORE PUSH1 0x2B PUSH1 0x24 DUP3 ADD MSTORE PUSH32 0x455243313135353A2062616C616E636520717565727920666F7220746865207A PUSH1 0x44 DUP3 ADD MSTORE PUSH11 0x65726F2061646472657373 PUSH1 0xA8 SHL PUSH1 0x64 DUP3 ADD MSTORE PUSH1 0x84 ADD JUMPDEST PUSH1 0x40 MLOAD DUP1 SWAP2 SUB SWAP1 REVERT JUMPDEST POP PUSH1 0x0 DUP2 DUP2 MSTORE PUSH1 0x65 PUSH1 0x20 SWAP1 DUP2 MSTORE PUSH1 0x40 DUP1 DUP4 KECCAK256 PUSH1 0x1 PUSH1 0x1 PUSH1 0xA0 SHL SUB DUP7 AND DUP5 MSTORE SWAP1 SWAP2 MSTORE SWAP1 KECCAK256 SLOAD JUMPDEST SWAP3 SWAP2 POP POP JUMP JUMPDEST PUSH1 0x0 PUSH1 0x1 PUSH1 0x1 PUSH1 0xE0 SHL SUB NOT DUP3 AND PUSH4 0x6CDB3D13 PUSH1 0xE1 SHL EQ DUP1 PUSH2 0xC0A JUMPI POP PUSH1 0x1 PUSH1 0x1 PUSH1 0xE0 SHL SUB NOT DUP3 AND PUSH4 0x3A24D07 PUSH1 0xE2 SHL EQ JUMPDEST DUP1 PUSH2 0xBD3 JUMPI POP PUSH4 0x1FFC9A7 PUSH1 0xE0 SHL PUSH1 0x1 PUSH1 0x1 PUSH1 0xE0 SHL SUB NOT DUP4 AND EQ PUSH2 0xBD3 JUMP JUMPDEST PUSH1 0xFB SLOAD PUSH1 0x1 PUSH1 0x1 PUSH1 0xA0 SHL SUB AND CALLER EQ DUP1 PUSH2 0xC51 JUMPI POP CALLER PUSH1 0x0 SWAP1 DUP2 MSTORE PUSH1 0xFD PUSH1 0x20 MSTORE PUSH1 0x40 SWAP1 KECCAK256 SLOAD PUSH1 0xFF AND JUMPDEST PUSH2 0xC9D JUMPI PUSH1 0x40 MLOAD PUSH3 0x461BCD PUSH1 0xE5 SHL DUP2 MSTORE PUSH1 0x20 PUSH1 0x4 DUP3 ADD MSTORE PUSH1 0x1D PUSH1 0x24 DUP3 ADD MSTORE PUSH32 0x4F6E6C792061646D696E732063616E207365742074686520736B696E2E000000 PUSH1 0x44 DUP3 ADD MSTORE PUSH1 0x64 ADD PUSH2 0xBA5 JUMP JUMPDEST PUSH1 0x1 PUSH1 0x1 PUSH1 0xA0 SHL SUB SWAP1 SWAP3 AND PUSH1 0x0 SWAP1 DUP2 MSTORE PUSH2 0x109 PUSH1 0x20 SWAP1 DUP2 MSTORE PUSH1 0x40 DUP1 DUP4 KECCAK256 SWAP4 DUP4 MSTORE SWAP3 SWAP1 MSTORE KECCAK256 SSTORE JUMP JUMPDEST PUSH1 0x60 PUSH1 0x67 DUP1 SLOAD PUSH2 0xCD3 SWAP1 PUSH2 0x5063 JUMP JUMPDEST DUP1 PUSH1 0x1F ADD PUSH1 0x20 DUP1 SWAP2 DIV MUL PUSH1 0x20 ADD PUSH1 0x40 MLOAD SWAP1 DUP2 ADD PUSH1 0x40 MSTORE DUP1 SWAP3 SWAP2 SWAP1 DUP2 DUP2 MSTORE PUSH1 0x20 ADD DUP3 DUP1 SLOAD PUSH2 0xCFF SWAP1 PUSH2 0x5063 JUMP JUMPDEST DUP1 ISZERO PUSH2 0xD4C JUMPI DUP1 PUSH1 0x1F LT PUSH2 0xD21 JUMPI PUSH2 0x100 DUP1 DUP4 SLOAD DIV MUL DUP4 MSTORE SWAP2 PUSH1 0x20 ADD SWAP2 PUSH2 0xD4C JUMP JUMPDEST DUP3 ADD SWAP2 SWAP1 PUSH1 0x0 MSTORE PUSH1 0x20 PUSH1 0x0 KECCAK256 SWAP1 JUMPDEST DUP2 SLOAD DUP2 MSTORE SWAP1 PUSH1 0x1 ADD SWAP1 PUSH1 0x20 ADD DUP1 DUP4 GT PUSH2 0xD2F JUMPI DUP3 SWAP1 SUB PUSH1 0x1F AND DUP3 ADD SWAP2 JUMPDEST POP POP POP POP POP SWAP1 POP SWAP2 SWAP1 POP JUMP JUMPDEST PUSH1 0xFB SLOAD PUSH1 0x1 PUSH1 0x1 PUSH1 0xA0 SHL SUB AND CALLER EQ DUP1 PUSH2 0xD80 JUMPI POP CALLER PUSH1 0x0 SWAP1 DUP2 MSTORE PUSH1 0xFD PUSH1 0x20 MSTORE PUSH1 0x40 SWAP1 KECCAK256 SLOAD PUSH1 0xFF AND JUMPDEST PUSH2 0xDB5 JUMPI PUSH1 0x40 MLOAD PUSH3 0x461BCD PUSH1 0xE5 SHL DUP2 MSTORE PUSH1 0x20 PUSH1 0x4 DUP3 ADD MSTORE PUSH1 0x6 PUSH1 0x24 DUP3 ADD MSTORE PUSH6 0x63617374546F PUSH1 0xD0 SHL PUSH1 0x44 DUP3 ADD MSTORE PUSH1 0x64 ADD PUSH2 0xBA5 JUMP JUMPDEST PUSH2 0xDC1 DUP5 DUP5 DUP5 DUP5 PUSH2 0x32DD JUMP JUMPDEST POP POP POP POP JUMP JUMPDEST PUSH1 0x40 MLOAD PUSH4 0x31A9108F PUSH1 0xE1 SHL DUP2 MSTORE PUSH1 0x4 DUP2 ADD DUP6 SWAP1 MSTORE DUP6 SWAP1 CALLER SWAP1 PUSH1 0x1 PUSH1 0x1 PUSH1 0xA0 SHL SUB DUP4 AND SWAP1 PUSH4 0x6352211E SWAP1 PUSH1 0x24 ADD PUSH1 0x20 PUSH1 0x40 MLOAD DUP1 DUP4 SUB DUP2 DUP7 GAS STATICCALL ISZERO DUP1 ISZERO PUSH2 0xE10 JUMPI RETURNDATASIZE PUSH1 0x0 DUP1 RETURNDATACOPY RETURNDATASIZE PUSH1 0x0 REVERT JUMPDEST POP POP POP POP PUSH1 0x40 MLOAD RETURNDATASIZE PUSH1 0x1F NOT PUSH1 0x1F DUP3 ADD AND DUP3 ADD DUP1 PUSH1 0x40 MSTORE POP DUP2 ADD SWAP1 PUSH2 0xE34 SWAP2 SWAP1 PUSH2 0x5097 JUMP JUMPDEST PUSH1 0x1 PUSH1 0x1 PUSH1 0xA0 SHL SUB AND EQ DUP1 PUSH2 0xE58 JUMPI POP CALLER PUSH1 0x0 SWAP1 DUP2 MSTORE PUSH1 0xFD PUSH1 0x20 MSTORE PUSH1 0x40 SWAP1 KECCAK256 SLOAD PUSH1 0xFF AND JUMPDEST PUSH2 0xE74 JUMPI PUSH1 0x40 MLOAD PUSH3 0x461BCD PUSH1 0xE5 SHL DUP2 MSTORE PUSH1 0x4 ADD PUSH2 0xBA5 SWAP1 PUSH2 0x50B4 JUMP JUMPDEST PUSH1 0x40 MLOAD PUSH4 0x6BFC324F PUSH1 0xE0 SHL DUP2 MSTORE PUSH1 0x4 DUP2 ADD DUP7 SWAP1 MSTORE PUSH1 0x69 PUSH1 0x24 DUP3 ADD MSTORE PUSH1 0x1 PUSH1 0x1 PUSH1 0xA0 SHL SUB DUP3 AND SWAP1 PUSH4 0x6BFC324F SWAP1 PUSH1 0x44 ADD PUSH1 0x20 PUSH1 0x40 MLOAD DUP1 DUP4 SUB DUP2 DUP7 GAS STATICCALL ISZERO DUP1 ISZERO PUSH2 0xEC0 JUMPI RETURNDATASIZE PUSH1 0x0 DUP1 RETURNDATACOPY RETURNDATASIZE PUSH1 0x0 REVERT JUMPDEST POP POP POP POP PUSH1 0x40 MLOAD RETURNDATASIZE PUSH1 0x1F NOT PUSH1 0x1F DUP3 ADD AND DUP3 ADD DUP1 PUSH1 0x40 MSTORE POP DUP2 ADD SWAP1 PUSH2 0xEE4 SWAP2 SWAP1 PUSH2 0x50E0 JUMP JUMPDEST PUSH2 0xF3A JUMPI PUSH1 0x40 MLOAD PUSH3 0x461BCD PUSH1 0xE5 SHL DUP2 MSTORE PUSH1 0x20 PUSH1 0x4 DUP3 ADD MSTORE PUSH1 0x21 PUSH1 0x24 DUP3 ADD MSTORE PUSH32 0x4865726F2063616E277420636173742073756D6D6F6E20637265617475726573 PUSH1 0x44 DUP3 ADD MSTORE PUSH1 0x17 PUSH1 0xF9 SHL PUSH1 0x64 DUP3 ADD MSTORE PUSH1 0x84 ADD PUSH2 0xBA5 JUMP JUMPDEST PUSH1 0x3 DUP5 PUSH2 0xF47 DUP9 DUP9 PUSH2 0x1274 JUMP JUMPDEST PUSH2 0xF51 SWAP2 SWAP1 PUSH2 0x5113 JUMP JUMPDEST GT PUSH2 0xFB3 JUMPI PUSH1 0x40 MLOAD PUSH3 0x461BCD PUSH1 0xE5 SHL DUP2 MSTORE PUSH1 0x20 PUSH1 0x4 DUP3 ADD MSTORE PUSH1 0x2C PUSH1 0x24 DUP3 ADD MSTORE PUSH32 0x4865726F2063616E27742073756D6D6F6E2074686174206D616E7920746F7461 PUSH1 0x44 DUP3 ADD MSTORE PUSH12 0x361031B932B0BA3AB932B997 PUSH1 0xA1 SHL PUSH1 0x64 DUP3 ADD MSTORE PUSH1 0x84 ADD PUSH2 0xBA5 JUMP JUMPDEST PUSH1 0x0 PUSH2 0xFBF DUP8 DUP8 PUSH2 0x313B JUMP JUMPDEST PUSH1 0x60 DUP2 ADD MLOAD PUSH1 0xFC SLOAD PUSH1 0x40 MLOAD PUSH4 0x13784ABF PUSH1 0xE3 SHL DUP2 MSTORE CALLER PUSH1 0x4 DUP3 ADD MSTORE PUSH1 0x24 DUP2 ADD DUP8 SWAP1 MSTORE SWAP3 SWAP4 POP SWAP1 SWAP2 PUSH1 0x0 SWAP2 PUSH1 0x1 PUSH1 0x1 PUSH1 0xA0 SHL SUB AND SWAP1 PUSH4 0x9BC255F8 SWAP1 PUSH1 0x44 ADD PUSH1 0x20 PUSH1 0x40 MLOAD DUP1 DUP4 SUB DUP2 PUSH1 0x0 DUP8 GAS CALL ISZERO DUP1 ISZERO PUSH2 0x101B JUMPI RETURNDATASIZE PUSH1 0x0 DUP1 RETURNDATACOPY RETURNDATASIZE PUSH1 0x0 REVERT JUMPDEST POP POP POP POP PUSH1 0x40 MLOAD RETURNDATASIZE PUSH1 0x1F NOT PUSH1 0x1F DUP3 ADD AND DUP3 ADD DUP1 PUSH1 0x40 MSTORE POP DUP2 ADD SWAP1 PUSH2 0x103F SWAP2 SWAP1 PUSH2 0x512B JUMP JUMPDEST SWAP1 POP PUSH1 0x0 JUMPDEST DUP8 DUP2 LT ISZERO PUSH2 0x1136 JUMPI PUSH1 0x40 MLOAD PUSH4 0x25F31AB7 PUSH1 0xE0 SHL DUP2 MSTORE PUSH1 0x4 DUP2 ADD DUP5 SWAP1 MSTORE CALLER PUSH1 0x24 DUP3 ADD MSTORE PUSH1 0x44 DUP2 ADD DUP9 SWAP1 MSTORE PUSH1 0x64 DUP2 ADD DUP4 SWAP1 MSTORE PUSH1 0x0 SWAP1 PUSH1 0x1 PUSH1 0x1 PUSH1 0xA0 SHL SUB DUP8 AND SWAP1 PUSH4 0x25F31AB7 SWAP1 PUSH1 0x84 ADD PUSH1 0x20 PUSH1 0x40 MLOAD DUP1 DUP4 SUB DUP2 PUSH1 0x0 DUP8 GAS CALL ISZERO DUP1 ISZERO PUSH2 0x10AA JUMPI RETURNDATASIZE PUSH1 0x0 DUP1 RETURNDATACOPY RETURNDATASIZE PUSH1 0x0 REVERT JUMPDEST POP POP POP POP PUSH1 0x40 MLOAD RETURNDATASIZE PUSH1 0x1F NOT PUSH1 0x1F DUP3 ADD AND DUP3 ADD DUP1 PUSH1 0x40 MSTORE POP DUP2 ADD SWAP1 PUSH2 0x10CE SWAP2 SWAP1 PUSH2 0x512B JUMP JUMPDEST SWAP1 POP PUSH2 0x10DF DUP12 DUP3 PUSH2 0x2711 PUSH1 0x1 PUSH2 0x3376 JUMP JUMPDEST PUSH2 0x10EE DUP12 DUP3 PUSH2 0x2710 PUSH1 0x1 PUSH2 0x3376 JUMP JUMPDEST PUSH1 0x1 PUSH1 0x1 PUSH1 0xA0 SHL SUB DUP12 AND PUSH1 0x0 SWAP1 DUP2 MSTORE PUSH1 0xFE PUSH1 0x20 SWAP1 DUP2 MSTORE PUSH1 0x40 DUP1 DUP4 KECCAK256 DUP14 DUP5 MSTORE SWAP1 SWAP2 MSTORE DUP2 KECCAK256 DUP1 SLOAD SWAP2 PUSH2 0x111D DUP4 PUSH2 0x5144 JUMP JUMPDEST SWAP2 SWAP1 POP SSTORE POP POP DUP1 DUP1 PUSH2 0x112E SWAP1 PUSH2 0x5144 JUMP JUMPDEST SWAP2 POP POP PUSH2 0x1044 JUMP JUMPDEST POP POP POP POP POP POP POP POP POP POP JUMP JUMPDEST PUSH1 0xA JUMPDEST SWAP4 SWAP3 POP POP POP JUMP JUMPDEST PUSH1 0xFB SLOAD PUSH1 0x1 PUSH1 0x1 PUSH1 0xA0 SHL SUB AND CALLER EQ DUP1 PUSH2 0x1174 JUMPI POP CALLER PUSH1 0x0 SWAP1 DUP2 MSTORE PUSH1 0xFD PUSH1 0x20 MSTORE PUSH1 0x40 SWAP1 KECCAK256 SLOAD PUSH1 0xFF AND JUMPDEST PUSH2 0x11D1 JUMPI PUSH1 0x40 MLOAD PUSH3 0x461BCD PUSH1 0xE5 SHL DUP2 MSTORE PUSH1 0x20 PUSH1 0x4 DUP3 ADD MSTORE PUSH1 0x28 PUSH1 0x24 DUP3 ADD MSTORE PUSH32 0x4F6E6C792061646D696E732063616E2073657420746865207374617465206C69 PUSH1 0x44 DUP3 ADD MSTORE PUSH8 0x35B2903A3434B997 PUSH1 0xC1 SHL PUSH1 0x64 DUP3 ADD MSTORE PUSH1 0x84 ADD PUSH2 0xBA5 JUMP JUMPDEST PUSH2 0xDC1 DUP5 DUP5 DUP5 DUP5 PUSH2 0x3376 JUMP JUMPDEST PUSH1 0x1 PUSH1 0x1 PUSH1 0xA0 SHL SUB DUP6 AND CALLER EQ DUP1 PUSH2 0x11F9 JUMPI POP PUSH2 0x11F9 DUP6 CALLER PUSH2 0xACF JUMP JUMPDEST PUSH2 0x1260 JUMPI PUSH1 0x40 MLOAD PUSH3 0x461BCD PUSH1 0xE5 SHL DUP2 MSTORE PUSH1 0x20 PUSH1 0x4 DUP3 ADD MSTORE PUSH1 0x32 PUSH1 0x24 DUP3 ADD MSTORE PUSH32 0x455243313135353A207472616E736665722063616C6C6572206973206E6F7420 PUSH1 0x44 DUP3 ADD MSTORE PUSH18 0x1BDDDB995C881B9BDC88185C1C1C9BDD9959 PUSH1 0x72 SHL PUSH1 0x64 DUP3 ADD MSTORE PUSH1 0x84 ADD PUSH2 0xBA5 JUMP JUMPDEST PUSH2 0x126D DUP6 DUP6 DUP6 DUP6 DUP6 PUSH2 0x33B5 JUMP JUMPDEST POP POP POP POP POP JUMP JUMPDEST PUSH1 0x1 PUSH1 0x1 PUSH1 0xA0 SHL SUB SWAP2 SWAP1 SWAP2 AND PUSH1 0x0 SWAP1 DUP2 MSTORE PUSH1 0xFE PUSH1 0x20 SWAP1 DUP2 MSTORE PUSH1 0x40 DUP1 DUP4 KECCAK256 SWAP4 DUP4 MSTORE SWAP3 SWAP1 MSTORE KECCAK256 SLOAD SWAP1 JUMP JUMPDEST PUSH1 0x0 DUP2 DUP4 GT ISZERO PUSH2 0x12DD JUMPI POP PUSH1 0x1 PUSH1 0x1 PUSH1 0xA0 SHL SUB DUP4 AND PUSH1 0x0 SWAP1 DUP2 MSTORE PUSH2 0x105 PUSH1 0x20 SWAP1 DUP2 MSTORE PUSH1 0x40 DUP1 DUP4 KECCAK256 DUP5 DUP5 MSTORE DUP3 MSTORE DUP1 DUP4 KECCAK256 DUP6 DUP5 MSTORE SWAP1 SWAP2 MSTORE SWAP1 KECCAK256 SLOAD PUSH1 0xFF AND ISZERO PUSH2 0x1145 JUMP JUMPDEST POP PUSH1 0x1 PUSH1 0x1 PUSH1 0xA0 SHL SUB DUP4 AND PUSH1 0x0 SWAP1 DUP2 MSTORE PUSH2 0x105 PUSH1 0x20 SWAP1 DUP2 MSTORE PUSH1 0x40 DUP1 DUP4 KECCAK256 DUP6 DUP5 MSTORE DUP3 MSTORE DUP1 DUP4 KECCAK256 DUP5 DUP5 MSTORE SWAP1 SWAP2 MSTORE SWAP1 KECCAK256 SLOAD PUSH1 0xFF AND ISZERO PUSH2 0x1145 JUMP JUMPDEST PUSH1 0x0 DUP3 DUP3 GT ISZERO PUSH2 0x1326 JUMPI POP PUSH1 0x0 PUSH2 0xBD3 JUMP JUMPDEST PUSH2 0x1330 DUP3 DUP5 PUSH2 0x515D JUMP JUMPDEST SWAP1 POP PUSH2 0xBD3 JUMP JUMPDEST PUSH1 0x0 SLOAD PUSH2 0x100 SWAP1 DIV PUSH1 0xFF AND PUSH2 0x1352 JUMPI PUSH1 0x0 SLOAD PUSH1 0xFF AND ISZERO PUSH2 0x1356 JUMP JUMPDEST ADDRESS EXTCODESIZE ISZERO JUMPDEST PUSH2 0x13B9 JUMPI PUSH1 0x40 MLOAD PUSH3 0x461BCD PUSH1 0xE5 SHL DUP2 MSTORE PUSH1 0x20 PUSH1 0x4 DUP3 ADD MSTORE PUSH1 0x2E PUSH1 0x24 DUP3 ADD MSTORE PUSH32 0x496E697469616C697A61626C653A20636F6E747261637420697320616C726561 PUSH1 0x44 DUP3 ADD MSTORE PUSH14 0x191E481A5B9A5D1A585B1A5E9959 PUSH1 0x92 SHL PUSH1 0x64 DUP3 ADD MSTORE PUSH1 0x84 ADD PUSH2 0xBA5 JUMP JUMPDEST PUSH1 0x0 SLOAD PUSH2 0x100 SWAP1 DIV PUSH1 0xFF AND ISZERO DUP1 ISZERO PUSH2 0x13DB JUMPI PUSH1 0x0 DUP1 SLOAD PUSH2 0xFFFF NOT AND PUSH2 0x101 OR SWAP1 SSTORE JUMPDEST PUSH2 0x13E4 DUP3 PUSH2 0x3554 JUMP JUMPDEST PUSH2 0x13EC PUSH2 0x3587 JUMP JUMPDEST PUSH2 0x13F4 PUSH2 0x35AE JUMP JUMPDEST PUSH1 0xFB DUP1 SLOAD PUSH1 0x1 PUSH1 0x1 PUSH1 0xA0 SHL SUB DUP1 DUP8 AND PUSH1 0x1 PUSH1 0x1 PUSH1 0xA0 SHL SUB NOT SWAP3 DUP4 AND OR SWAP1 SWAP3 SSTORE PUSH1 0xFC DUP1 SLOAD SWAP3 DUP7 AND SWAP3 SWAP1 SWAP2 AND SWAP2 SWAP1 SWAP2 OR SWAP1 SSTORE DUP1 ISZERO PUSH2 0xDC1 JUMPI PUSH1 0x0 DUP1 SLOAD PUSH2 0xFF00 NOT AND SWAP1 SSTORE POP POP POP POP JUMP JUMPDEST JUMP JUMPDEST PUSH1 0xFB SLOAD PUSH1 0x1 PUSH1 0x1 PUSH1 0xA0 SHL SUB AND CALLER EQ DUP1 PUSH2 0x1465 JUMPI POP CALLER PUSH1 0x0 SWAP1 DUP2 MSTORE PUSH1 0xFD PUSH1 0x20 MSTORE PUSH1 0x40 SWAP1 KECCAK256 SLOAD PUSH1 0xFF AND JUMPDEST PUSH2 0x149A JUMPI PUSH1 0x40 MLOAD PUSH3 0x461BCD PUSH1 0xE5 SHL DUP2 MSTORE PUSH1 0x20 PUSH1 0x4 DUP3 ADD MSTORE PUSH1 0x6 PUSH1 0x24 DUP3 ADD MSTORE PUSH6 0x39B2BA2C2CAD PUSH1 0xD1 SHL PUSH1 0x44 DUP3 ADD MSTORE PUSH1 0x64 ADD PUSH2 0xBA5 JUMP JUMPDEST PUSH1 0x1 PUSH1 0x1 PUSH1 0xA0 SHL SUB SWAP1 SWAP5 AND PUSH1 0x0 DUP2 DUP2 MSTORE PUSH2 0x106 PUSH1 0x20 SWAP1 DUP2 MSTORE PUSH1 0x40 DUP1 DUP4 KECCAK256 DUP8 DUP5 MSTORE DUP3 MSTORE DUP1 DUP4 KECCAK256 SWAP6 SWAP1 SWAP6 SSTORE DUP3 DUP3 MSTORE PUSH2 0x107 DUP2 MSTORE DUP5 DUP3 KECCAK256 DUP7 DUP4 MSTORE DUP2 MSTORE DUP5 DUP3 KECCAK256 SWAP4 SWAP1 SWAP4 SSTORE SWAP1 DUP2 MSTORE PUSH2 0x108 DUP3 MSTORE DUP3 DUP2 KECCAK256 SWAP4 DUP2 MSTORE SWAP3 SWAP1 MSTORE SWAP1 KECCAK256 SSTORE JUMP JUMPDEST PUSH1 0x60 DUP2 MLOAD DUP4 MLOAD EQ PUSH2 0x1555 JUMPI PUSH1 0x40 MLOAD PUSH3 0x461BCD PUSH1 0xE5 SHL DUP2 MSTORE PUSH1 0x20 PUSH1 0x4 DUP3 ADD MSTORE PUSH1 0x29 PUSH1 0x24 DUP3 ADD MSTORE PUSH32 0x455243313135353A206163636F756E747320616E6420696473206C656E677468 PUSH1 0x44 DUP3 ADD MSTORE PUSH9 0x40DAD2E6DAC2E8C6D PUSH1 0xBB SHL PUSH1 0x64 DUP3 ADD MSTORE PUSH1 0x84 ADD PUSH2 0xBA5 JUMP JUMPDEST PUSH1 0x0 DUP4 MLOAD PUSH1 0x1 PUSH1 0x1 PUSH1 0x40 SHL SUB DUP2 GT ISZERO PUSH2 0x1570 JUMPI PUSH2 0x1570 PUSH2 0x4956 JUMP JUMPDEST PUSH1 0x40 MLOAD SWAP1 DUP1 DUP3 MSTORE DUP1 PUSH1 0x20 MUL PUSH1 0x20 ADD DUP3 ADD PUSH1 0x40 MSTORE DUP1 ISZERO PUSH2 0x1599 JUMPI DUP2 PUSH1 0x20 ADD PUSH1 0x20 DUP3 MUL DUP1 CALLDATASIZE DUP4 CALLDATACOPY ADD SWAP1 POP JUMPDEST POP SWAP1 POP PUSH1 0x0 JUMPDEST DUP5 MLOAD DUP2 LT ISZERO PUSH2 0x1611 JUMPI PUSH2 0x15E4 DUP6 DUP3 DUP2 MLOAD DUP2 LT PUSH2 0x15BD JUMPI PUSH2 0x15BD PUSH2 0x5174 JUMP JUMPDEST PUSH1 0x20 MUL PUSH1 0x20 ADD ADD MLOAD DUP6 DUP4 DUP2 MLOAD DUP2 LT PUSH2 0x15D7 JUMPI PUSH2 0x15D7 PUSH2 0x5174 JUMP JUMPDEST PUSH1 0x20 MUL PUSH1 0x20 ADD ADD MLOAD PUSH2 0xB3D JUMP JUMPDEST DUP3 DUP3 DUP2 MLOAD DUP2 LT PUSH2 0x15F6 JUMPI PUSH2 0x15F6 PUSH2 0x5174 JUMP JUMPDEST PUSH1 0x20 SWAP1 DUP2 MUL SWAP2 SWAP1 SWAP2 ADD ADD MSTORE PUSH2 0x160A DUP2 PUSH2 0x5144 JUMP JUMPDEST SWAP1 POP PUSH2 0x159F JUMP JUMPDEST POP SWAP4 SWAP3 POP POP POP JUMP JUMPDEST PUSH1 0x1 PUSH1 0x1 PUSH1 0xA0 SHL SUB SWAP3 SWAP1 SWAP3 AND PUSH1 0x0 SWAP1 DUP2 MSTORE PUSH1 0xFF PUSH1 0x20 DUP2 DUP2 MSTORE PUSH1 0x40 DUP1 DUP5 KECCAK256 SWAP5 DUP5 MSTORE SWAP4 DUP2 MSTORE DUP4 DUP4 KECCAK256 SWAP5 DUP4 MSTORE SWAP4 SWAP1 SWAP4 MSTORE KECCAK256 SLOAD AND SWAP1 JUMP JUMPDEST PUSH1 0x40 MLOAD PUSH4 0x31A9108F PUSH1 0xE1 SHL DUP2 MSTORE PUSH1 0x4 DUP2 ADD DUP5 SWAP1 MSTORE DUP5 SWAP1 CALLER SWAP1 PUSH1 0x1 PUSH1 0x1 PUSH1 0xA0 SHL SUB DUP4 AND SWAP1 PUSH4 0x6352211E SWAP1 PUSH1 0x24 ADD PUSH1 0x20 PUSH1 0x40 MLOAD DUP1 DUP4 SUB DUP2 DUP7 GAS STATICCALL ISZERO DUP1 ISZERO PUSH2 0x1695 JUMPI RETURNDATASIZE PUSH1 0x0 DUP1 RETURNDATACOPY RETURNDATASIZE PUSH1 0x0 REVERT JUMPDEST POP POP POP POP PUSH1 0x40 MLOAD RETURNDATASIZE PUSH1 0x1F NOT PUSH1 0x1F DUP3 ADD AND DUP3 ADD DUP1 PUSH1 0x40 MSTORE POP DUP2 ADD SWAP1 PUSH2 0x16B9 SWAP2 SWAP1 PUSH2 0x5097 JUMP JUMPDEST PUSH1 0x1 PUSH1 0x1 PUSH1 0xA0 SHL SUB AND EQ DUP1 PUSH2 0x16DD JUMPI POP CALLER PUSH1 0x0 SWAP1 DUP2 MSTORE PUSH1 0xFD PUSH1 0x20 MSTORE PUSH1 0x40 SWAP1 KECCAK256 SLOAD PUSH1 0xFF AND JUMPDEST PUSH2 0x16F9 JUMPI PUSH1 0x40 MLOAD PUSH3 0x461BCD PUSH1 0xE5 SHL DUP2 MSTORE PUSH1 0x4 ADD PUSH2 0xBA5 SWAP1 PUSH2 0x50B4 JUMP JUMPDEST PUSH1 0x40 MLOAD PUSH4 0x6BFC324F PUSH1 0xE0 SHL DUP2 MSTORE PUSH1 0x4 DUP2 ADD DUP6 SWAP1 MSTORE PUSH1 0x1 PUSH1 0x24 DUP3 ADD MSTORE PUSH1 0x1 PUSH1 0x1 PUSH1 0xA0 SHL SUB DUP3 AND SWAP1 PUSH4 0x6BFC324F SWAP1 PUSH1 0x44 ADD PUSH1 0x20 PUSH1 0x40 MLOAD DUP1 DUP4 SUB DUP2 DUP7 GAS STATICCALL ISZERO DUP1 ISZERO PUSH2 0x1745 JUMPI RETURNDATASIZE PUSH1 0x0 DUP1 RETURNDATACOPY RETURNDATASIZE PUSH1 0x0 REVERT JUMPDEST POP POP POP POP PUSH1 0x40 MLOAD RETURNDATASIZE PUSH1 0x1F NOT PUSH1 0x1F DUP3 ADD AND DUP3 ADD DUP1 PUSH1 0x40 MSTORE POP DUP2 ADD SWAP1 PUSH2 0x1769 SWAP2 SWAP1 PUSH2 0x50E0 JUMP JUMPDEST PUSH2 0x17B5 JUMPI PUSH1 0x40 MLOAD PUSH3 0x461BCD PUSH1 0xE5 SHL DUP2 MSTORE PUSH1 0x20 PUSH1 0x4 DUP3 ADD MSTORE PUSH1 0x1B PUSH1 0x24 DUP3 ADD MSTORE PUSH32 0x4865726F2063616E2774206361737420617263616E65206F72622E0000000000 PUSH1 0x44 DUP3 ADD MSTORE PUSH1 0x64 ADD PUSH2 0xBA5 JUMP JUMPDEST PUSH1 0x40 MLOAD PUSH4 0x43E8C3F7 PUSH1 0xE1 SHL DUP2 MSTORE PUSH1 0x4 DUP2 ADD DUP6 SWAP1 MSTORE PUSH1 0x0 SWAP1 DUP2 SWAP1 PUSH1 0x1 PUSH1 0x1 PUSH1 0xA0 SHL SUB DUP5 AND SWAP1 PUSH4 0x87D187EE SWAP1 PUSH1 0x24 ADD PUSH1 0x40 DUP1 MLOAD DUP1 DUP4 SUB DUP2 PUSH1 0x0 DUP8 GAS CALL ISZERO DUP1 ISZERO PUSH2 0x1800 JUMPI RETURNDATASIZE PUSH1 0x0 DUP1 RETURNDATACOPY RETURNDATASIZE PUSH1 0x0 REVERT JUMPDEST POP POP POP POP PUSH1 0x40 MLOAD RETURNDATASIZE PUSH1 0x1F NOT PUSH1 0x1F DUP3 ADD AND DUP3 ADD DUP1 PUSH1 0x40 MSTORE POP DUP2 ADD SWAP1 PUSH2 0x1824 SWAP2 SWAP1 PUSH2 0x518A JUMP JUMPDEST PUSH1 0x40 MLOAD PUSH4 0x6573C787 PUSH1 0xE0 SHL DUP2 MSTORE PUSH1 0x4 DUP2 ADD DUP4 SWAP1 MSTORE SWAP2 SWAP4 POP SWAP2 POP PUSH1 0x0 SWAP1 PUSH1 0x1 PUSH1 0x1 PUSH1 0xA0 SHL SUB DUP6 AND SWAP1 PUSH4 0x6573C787 SWAP1 PUSH1 0x24 ADD PUSH1 0x20 PUSH1 0x40 MLOAD DUP1 DUP4 SUB DUP2 DUP7 GAS STATICCALL ISZERO DUP1 ISZERO PUSH2 0x1871 JUMPI RETURNDATASIZE PUSH1 0x0 DUP1 RETURNDATACOPY RETURNDATASIZE PUSH1 0x0 REVERT JUMPDEST POP POP POP POP PUSH1 0x40 MLOAD RETURNDATASIZE PUSH1 0x1F NOT PUSH1 0x1F DUP3 ADD AND DUP3 ADD DUP1 PUSH1 0x40 MSTORE POP DUP2 ADD SWAP1 PUSH2 0x1895 SWAP2 SWAP1 PUSH2 0x50E0 JUMP JUMPDEST SWAP1 POP DUP1 PUSH2 0x18B4 JUMPI PUSH1 0x40 MLOAD PUSH3 0x461BCD PUSH1 0xE5 SHL DUP2 MSTORE PUSH1 0x4 ADD PUSH2 0xBA5 SWAP1 PUSH2 0x51AE JUMP JUMPDEST PUSH1 0x1 PUSH1 0x0 PUSH2 0x18CA DUP3 PUSH8 0x16345785D8A0000 PUSH2 0x51D5 JUMP JUMPDEST SWAP1 POP PUSH1 0x0 DUP1 PUSH1 0x0 DUP9 PUSH1 0x1 PUSH1 0x1 PUSH1 0xA0 SHL SUB AND PUSH4 0x87D187EE DUP13 PUSH1 0x40 MLOAD DUP3 PUSH4 0xFFFFFFFF AND PUSH1 0xE0 SHL DUP2 MSTORE PUSH1 0x4 ADD PUSH2 0x18FF SWAP2 DUP2 MSTORE PUSH1 0x20 ADD SWAP1 JUMP JUMPDEST PUSH1 0x40 DUP1 MLOAD DUP1 DUP4 SUB DUP2 PUSH1 0x0 DUP8 GAS CALL ISZERO DUP1 ISZERO PUSH2 0x191D JUMPI RETURNDATASIZE PUSH1 0x0 DUP1 RETURNDATACOPY RETURNDATASIZE PUSH1 0x0 REVERT JUMPDEST POP POP POP POP PUSH1 0x40 MLOAD RETURNDATASIZE PUSH1 0x1F NOT PUSH1 0x1F DUP3 ADD AND DUP3 ADD DUP1 PUSH1 0x40 MSTORE POP DUP2 ADD SWAP1 PUSH2 0x1941 SWAP2 SWAP1 PUSH2 0x518A JUMP JUMPDEST PUSH1 0x40 MLOAD PUSH4 0x6573C787 PUSH1 0xE0 SHL DUP2 MSTORE PUSH1 0x4 DUP2 ADD DUP4 SWAP1 MSTORE SWAP2 SWAP4 POP SWAP2 POP PUSH1 0x0 SWAP1 PUSH1 0x1 PUSH1 0x1 PUSH1 0xA0 SHL SUB DUP12 AND SWAP1 PUSH4 0x6573C787 SWAP1 PUSH1 0x24 ADD PUSH1 0x20 PUSH1 0x40 MLOAD DUP1 DUP4 SUB DUP2 DUP7 GAS STATICCALL ISZERO DUP1 ISZERO PUSH2 0x198E JUMPI RETURNDATASIZE PUSH1 0x0 DUP1 RETURNDATACOPY RETURNDATASIZE PUSH1 0x0 REVERT JUMPDEST POP POP POP POP PUSH1 0x40 MLOAD RETURNDATASIZE PUSH1 0x1F NOT PUSH1 0x1F DUP3 ADD AND DUP3 ADD DUP1 PUSH1 0x40 MSTORE POP DUP2 ADD SWAP1 PUSH2 0x19B2 SWAP2 SWAP1 PUSH2 0x50E0 JUMP JUMPDEST SWAP1 POP DUP1 DUP1 ISZERO PUSH2 0x19CC JUMPI POP PUSH2 0x19CC DUP15 DUP15 DUP15 PUSH2 0xA0D PUSH1 0xA PUSH2 0x2E74 JUMP JUMPDEST ISZERO PUSH2 0x19EC JUMPI PUSH2 0x19DE DUP11 DUP14 PUSH1 0x1 DUP1 PUSH2 0x32DD JUMP JUMPDEST DUP4 PUSH2 0x19E8 DUP2 PUSH2 0x5144 JUMP JUMPDEST SWAP5 POP POP JUMPDEST PUSH1 0x40 MLOAD PUSH4 0x43E8C3F7 PUSH1 0xE1 SHL DUP2 MSTORE PUSH1 0x4 DUP2 ADD DUP13 SWAP1 MSTORE PUSH1 0x1 PUSH1 0x1 PUSH1 0xA0 SHL SUB DUP12 AND SWAP1 PUSH4 0x87D187EE SWAP1 PUSH1 0x24 ADD PUSH1 0x40 DUP1 MLOAD DUP1 DUP4 SUB DUP2 PUSH1 0x0 DUP8 GAS CALL ISZERO DUP1 ISZERO PUSH2 0x1A32 JUMPI RETURNDATASIZE PUSH1 0x0 DUP1 RETURNDATACOPY RETURNDATASIZE PUSH1 0x0 REVERT JUMPDEST POP POP POP POP PUSH1 0x40 MLOAD RETURNDATASIZE PUSH1 0x1F NOT PUSH1 0x1F DUP3 ADD AND DUP3 ADD DUP1 PUSH1 0x40 MSTORE POP DUP2 ADD SWAP1 PUSH2 0x1A56 SWAP2 SWAP1 PUSH2 0x518A JUMP JUMPDEST PUSH1 0x40 MLOAD PUSH4 0x6573C787 PUSH1 0xE0 SHL DUP2 MSTORE PUSH1 0x4 DUP2 ADD DUP4 SWAP1 MSTORE SWAP2 SWAP5 POP SWAP3 POP PUSH1 0x1 PUSH1 0x1 PUSH1 0xA0 SHL SUB DUP12 AND SWAP1 PUSH4 0x6573C787 SWAP1 PUSH1 0x24 ADD PUSH1 0x20 PUSH1 0x40 MLOAD DUP1 DUP4 SUB DUP2 DUP7 GAS STATICCALL ISZERO DUP1 ISZERO PUSH2 0x1AA0 JUMPI RETURNDATASIZE PUSH1 0x0 DUP1 RETURNDATACOPY RETURNDATASIZE PUSH1 0x0 REVERT JUMPDEST POP POP POP POP PUSH1 0x40 MLOAD RETURNDATASIZE PUSH1 0x1F NOT PUSH1 0x1F DUP3 ADD AND DUP3 ADD DUP1 PUSH1 0x40 MSTORE POP DUP2 ADD SWAP1 PUSH2 0x1AC4 SWAP2 SWAP1 PUSH2 0x50E0 JUMP JUMPDEST SWAP1 POP DUP1 DUP1 ISZERO PUSH2 0x1ADE JUMPI POP PUSH2 0x1ADE DUP15 DUP15 DUP14 PUSH2 0xA0D PUSH1 0xA PUSH2 0x2E74 JUMP JUMPDEST ISZERO PUSH2 0x1AFE JUMPI PUSH2 0x1AF0 DUP11 DUP13 PUSH1 0x1 DUP1 PUSH2 0x32DD JUMP JUMPDEST DUP4 PUSH2 0x1AFA DUP2 PUSH2 0x5144 JUMP JUMPDEST SWAP5 POP POP JUMPDEST PUSH2 0x1B15 DUP11 DUP15 PUSH1 0x1 PUSH2 0x1B10 DUP9 PUSH1 0x3 PUSH2 0x515D JUMP JUMPDEST PUSH2 0x32DD JUMP JUMPDEST POP POP POP POP POP POP POP POP POP POP POP POP POP POP JUMP JUMPDEST PUSH1 0x0 DUP1 PUSH1 0x2 PUSH2 0x1B35 DUP5 PUSH1 0x1 PUSH2 0x51F4 JUMP JUMPDEST PUSH2 0x1B3F SWAP2 SWAP1 PUSH2 0x524B JUMP JUMPDEST SWAP1 POP DUP3 SWAP2 POP JUMPDEST DUP2 DUP2 SLT ISZERO PUSH2 0x1B78 JUMPI SWAP1 POP DUP1 PUSH1 0x2 DUP2 PUSH2 0x1B5D DUP2 DUP7 PUSH2 0x524B JUMP JUMPDEST PUSH2 0x1B67 SWAP2 SWAP1 PUSH2 0x51F4 JUMP JUMPDEST PUSH2 0x1B71 SWAP2 SWAP1 PUSH2 0x524B JUMP JUMPDEST SWAP1 POP PUSH2 0x1B45 JUMP JUMPDEST POP SWAP2 SWAP1 POP JUMP JUMPDEST PUSH1 0xFB SLOAD PUSH1 0x0 SWAP1 PUSH1 0x1 PUSH1 0x1 PUSH1 0xA0 SHL SUB AND CALLER EQ DUP1 PUSH2 0x1BA9 JUMPI POP CALLER PUSH1 0x0 SWAP1 DUP2 MSTORE PUSH1 0xFD PUSH1 0x20 MSTORE PUSH1 0x40 SWAP1 KECCAK256 SLOAD PUSH1 0xFF AND JUMPDEST PUSH2 0x1BEB JUMPI PUSH1 0x40 MLOAD PUSH3 0x461BCD PUSH1 0xE5 SHL DUP2 MSTORE PUSH1 0x20 PUSH1 0x4 DUP3 ADD MSTORE PUSH1 0x13 PUSH1 0x24 DUP3 ADD MSTORE PUSH19 0x2CB7BA9031B0B713BA103A30B3903A3434B997 PUSH1 0x69 SHL PUSH1 0x44 DUP3 ADD MSTORE PUSH1 0x64 ADD PUSH2 0xBA5 JUMP JUMPDEST PUSH1 0x1 PUSH1 0x1 PUSH1 0xA0 SHL SUB DUP5 AND PUSH1 0x0 SWAP1 DUP2 MSTORE PUSH2 0x102 PUSH1 0x20 SWAP1 DUP2 MSTORE PUSH1 0x40 DUP1 DUP4 KECCAK256 DUP6 DUP5 MSTORE SWAP1 SWAP2 MSTORE SWAP1 KECCAK256 PUSH1 0x1 DUP2 ADD SLOAD DUP2 SLOAD LT PUSH2 0x1C2F JUMPI PUSH2 0x1C25 DUP2 DUP6 PUSH2 0x35DD JUMP JUMPDEST PUSH1 0x1 SWAP2 POP POP PUSH2 0x1145 JUMP JUMPDEST POP PUSH1 0x0 SWAP5 SWAP4 POP POP POP POP JUMP JUMPDEST PUSH1 0x1 PUSH1 0x1 PUSH1 0xA0 SHL SUB DUP4 AND CALLER EQ DUP1 PUSH2 0x1C56 JUMPI POP PUSH2 0x1C56 DUP4 CALLER PUSH2 0xACF JUMP JUMPDEST PUSH2 0x1C72 JUMPI PUSH1 0x40 MLOAD PUSH3 0x461BCD PUSH1 0xE5 SHL DUP2 MSTORE PUSH1 0x4 ADD PUSH2 0xBA5 SWAP1 PUSH2 0x5279 JUMP JUMPDEST PUSH2 0x1C7D DUP4 DUP4 DUP4 PUSH2 0x3612 JUMP JUMPDEST POP POP POP JUMP JUMPDEST PUSH1 0xFB SLOAD PUSH1 0x1 PUSH1 0x1 PUSH1 0xA0 SHL SUB AND CALLER EQ PUSH2 0x1CDC JUMPI PUSH1 0x40 MLOAD PUSH3 0x461BCD PUSH1 0xE5 SHL DUP2 MSTORE PUSH1 0x20 PUSH1 0x4 DUP3 ADD MSTORE PUSH1 0x1A PUSH1 0x24 DUP3 ADD MSTORE PUSH32 0x4F6E6C792061646D696E73206D617920736574206164646F6E2E000000000000 PUSH1 0x44 DUP3 ADD MSTORE PUSH1 0x64 ADD PUSH2 0xBA5 JUMP JUMPDEST PUSH1 0x1 PUSH1 0x1 PUSH1 0xA0 SHL SUB SWAP2 SWAP1 SWAP2 AND PUSH1 0x0 SWAP1 DUP2 MSTORE PUSH1 0xFD PUSH1 0x20 MSTORE PUSH1 0x40 SWAP1 KECCAK256 DUP1 SLOAD PUSH1 0xFF NOT AND SWAP2 ISZERO ISZERO SWAP2 SWAP1 SWAP2 OR SWAP1 SSTORE JUMP JUMPDEST PUSH1 0xFB SLOAD PUSH1 0x0 SWAP1 DUP6 SWAP1 PUSH1 0x1 PUSH1 0x1 PUSH1 0xA0 SHL SUB AND CALLER EQ DUP1 PUSH2 0x1D34 JUMPI POP CALLER PUSH1 0x0 SWAP1 DUP2 MSTORE PUSH1 0xFD PUSH1 0x20 MSTORE PUSH1 0x40 SWAP1 KECCAK256 SLOAD PUSH1 0xFF AND JUMPDEST PUSH2 0x1D76 JUMPI PUSH1 0x40 MLOAD PUSH3 0x461BCD PUSH1 0xE5 SHL DUP2 MSTORE PUSH1 0x20 PUSH1 0x4 DUP3 ADD MSTORE PUSH1 0x13 PUSH1 0x24 DUP3 ADD MSTORE PUSH19 0x596F752063616E277420747279207468617421 PUSH1 0x68 SHL PUSH1 0x44 DUP3 ADD MSTORE PUSH1 0x64 ADD PUSH2 0xBA5 JUMP JUMPDEST DUP3 MLOAD DUP5 SWAP1 ISZERO PUSH2 0x1D8E JUMPI PUSH2 0x1D8B DUP3 DUP8 DUP4 DUP8 PUSH2 0x379F JUMP JUMPDEST SWAP1 POP JUMPDEST PUSH2 0x1D99 DUP3 DUP8 DUP4 PUSH2 0x3895 JUMP JUMPDEST SWAP3 POP POP POP JUMPDEST SWAP5 SWAP4 POP POP POP POP JUMP JUMPDEST PUSH1 0x0 PUSH2 0x1145 DUP3 PUSH1 0x40 ADD MLOAD DUP5 PUSH1 0x40 ADD MLOAD PUSH2 0x1DBF SWAP2 SWAP1 PUSH2 0x52C2 JUMP JUMPDEST DUP4 PUSH1 0x40 ADD MLOAD DUP6 PUSH1 0x40 ADD MLOAD PUSH2 0x1DD3 SWAP2 SWAP1 PUSH2 0x52C2 JUMP JUMPDEST PUSH2 0x1DDD SWAP2 SWAP1 PUSH2 0x5301 JUMP JUMPDEST DUP4 PUSH1 0x20 ADD MLOAD DUP6 PUSH1 0x20 ADD MLOAD PUSH2 0x1DF1 SWAP2 SWAP1 PUSH2 0x52C2 JUMP JUMPDEST DUP5 PUSH1 0x20 ADD MLOAD DUP7 PUSH1 0x20 ADD MLOAD PUSH2 0x1E05 SWAP2 SWAP1 PUSH2 0x52C2 JUMP JUMPDEST PUSH2 0x1E0F SWAP2 SWAP1 PUSH2 0x5301 JUMP JUMPDEST DUP5 MLOAD DUP7 MLOAD PUSH2 0x1E1D SWAP2 SWAP1 PUSH2 0x52C2 JUMP JUMPDEST DUP6 MLOAD DUP8 MLOAD PUSH2 0x1E2B SWAP2 SWAP1 PUSH2 0x52C2 JUMP JUMPDEST PUSH2 0x1E35 SWAP2 SWAP1 PUSH2 0x5301 JUMP JUMPDEST PUSH2 0x1E3F SWAP2 SWAP1 PUSH2 0x51F4 JUMP JUMPDEST PUSH2 0x7B0 SWAP2 SWAP1 PUSH2 0x51F4 JUMP JUMPDEST PUSH1 0xFB SLOAD PUSH1 0x0 SWAP1 DUP6 SWAP1 PUSH1 0x1 PUSH1 0x1 PUSH1 0xA0 SHL SUB AND CALLER EQ DUP1 PUSH2 0x1E76 JUMPI POP CALLER PUSH1 0x0 SWAP1 DUP2 MSTORE PUSH1 0xFD PUSH1 0x20 MSTORE PUSH1 0x40 SWAP1 KECCAK256 SLOAD PUSH1 0xFF AND JUMPDEST PUSH2 0x1EB9 JUMPI PUSH1 0x40 MLOAD PUSH3 0x461BCD PUSH1 0xE5 SHL DUP2 MSTORE PUSH1 0x20 PUSH1 0x4 DUP3 ADD MSTORE PUSH1 0x14 PUSH1 0x24 DUP3 ADD MSTORE PUSH20 0x2CB7BA9031B0B713BA103A30B5B2903A3434B997 PUSH1 0x61 SHL PUSH1 0x44 DUP3 ADD MSTORE PUSH1 0x64 ADD PUSH2 0xBA5 JUMP JUMPDEST PUSH1 0x0 PUSH2 0x1EC7 DUP3 DUP8 DUP8 DUP8 PUSH2 0x3B74 JUMP JUMPDEST SWAP1 POP DUP5 DUP2 GT ISZERO PUSH2 0x1EE4 JUMPI PUSH2 0x1EDB DUP6 DUP3 PUSH2 0x515D JUMP JUMPDEST SWAP3 POP POP POP PUSH2 0x1D9E JUMP JUMPDEST PUSH1 0x0 SWAP3 POP POP POP PUSH2 0x1D9E JUMP JUMPDEST PUSH1 0xFB SLOAD PUSH1 0x0 SWAP1 PUSH1 0x1 PUSH1 0x1 PUSH1 0xA0 SHL SUB AND CALLER EQ DUP1 PUSH2 0x1F1A JUMPI POP CALLER PUSH1 0x0 SWAP1 DUP2 MSTORE PUSH1 0xFD PUSH1 0x20 MSTORE PUSH1 0x40 SWAP1 KECCAK256 SLOAD PUSH1 0xFF AND JUMPDEST PUSH2 0x1F62 JUMPI PUSH1 0x40 MLOAD PUSH3 0x461BCD PUSH1 0xE5 SHL DUP2 MSTORE PUSH1 0x20 PUSH1 0x4 DUP3 ADD MSTORE PUSH1 0x19 PUSH1 0x24 DUP3 ADD MSTORE PUSH25 0x2CB7BA9031B0B713BA103337B931B2903A3434B9903A30B397 PUSH1 0x39 SHL PUSH1 0x44 DUP3 ADD MSTORE PUSH1 0x64 ADD PUSH2 0xBA5 JUMP JUMPDEST PUSH1 0x1 PUSH1 0x1 PUSH1 0xA0 SHL SUB DUP5 AND PUSH1 0x0 SWAP1 DUP2 MSTORE PUSH2 0x102 PUSH1 0x20 SWAP1 DUP2 MSTORE PUSH1 0x40 DUP1 DUP4 KECCAK256 DUP6 DUP5 MSTORE SWAP1 SWAP2 MSTORE SWAP1 KECCAK256 PUSH2 0x1611 DUP2 DUP6 PUSH2 0x35DD JUMP JUMPDEST PUSH1 0x40 MLOAD PUSH4 0x7B303965 PUSH1 0xE0 SHL DUP2 MSTORE PUSH1 0x4 DUP2 ADD DUP6 SWAP1 MSTORE DUP6 SWAP1 PUSH1 0x0 SWAP1 PUSH1 0x1 PUSH1 0x1 PUSH1 0xA0 SHL SUB DUP4 AND SWAP1 PUSH4 0x7B303965 SWAP1 PUSH1 0x24 ADD PUSH1 0xC0 PUSH1 0x40 MLOAD DUP1 DUP4 SUB DUP2 PUSH1 0x0 DUP8 GAS CALL ISZERO DUP1 ISZERO PUSH2 0x1FDC JUMPI RETURNDATASIZE PUSH1 0x0 DUP1 RETURNDATACOPY RETURNDATASIZE PUSH1 0x0 REVERT JUMPDEST POP POP POP POP PUSH1 0x40 MLOAD RETURNDATASIZE PUSH1 0x1F NOT PUSH1 0x1F DUP3 ADD AND DUP3 ADD DUP1 PUSH1 0x40 MSTORE POP DUP2 ADD SWAP1 PUSH2 0x2000 SWAP2 SWAP1 PUSH2 0x5386 JUMP JUMPDEST PUSH1 0xFB SLOAD SWAP1 SWAP2 POP PUSH1 0x1 PUSH1 0x1 PUSH1 0xA0 SHL SUB AND CALLER EQ DUP1 PUSH2 0x202B JUMPI POP CALLER PUSH1 0x0 SWAP1 DUP2 MSTORE PUSH1 0xFD PUSH1 0x20 MSTORE PUSH1 0x40 SWAP1 KECCAK256 SLOAD PUSH1 0xFF AND JUMPDEST PUSH2 0x2047 JUMPI PUSH1 0x40 MLOAD PUSH3 0x461BCD PUSH1 0xE5 SHL DUP2 MSTORE PUSH1 0x4 ADD PUSH2 0xBA5 SWAP1 PUSH2 0x50B4 JUMP JUMPDEST PUSH1 0x40 MLOAD PUSH4 0x43E8C3F7 PUSH1 0xE1 SHL DUP2 MSTORE PUSH1 0x4 DUP2 ADD DUP8 SWAP1 MSTORE PUSH1 0x0 SWAP1 DUP2 SWAP1 PUSH1 0x1 PUSH1 0x1 PUSH1 0xA0 SHL SUB DUP6 AND SWAP1 PUSH4 0x87D187EE SWAP1 PUSH1 0x24 ADD PUSH1 0x40 DUP1 MLOAD DUP1 DUP4 SUB DUP2 PUSH1 0x0 DUP8 GAS CALL ISZERO DUP1 ISZERO PUSH2 0x2092 JUMPI RETURNDATASIZE PUSH1 0x0 DUP1 RETURNDATACOPY RETURNDATASIZE PUSH1 0x0 REVERT JUMPDEST POP POP POP POP PUSH1 0x40 MLOAD RETURNDATASIZE PUSH1 0x1F NOT PUSH1 0x1F DUP3 ADD AND DUP3 ADD DUP1 PUSH1 0x40 MSTORE POP DUP2 ADD SWAP1 PUSH2 0x20B6 SWAP2 SWAP1 PUSH2 0x518A JUMP JUMPDEST PUSH1 0x40 MLOAD PUSH4 0x6573C787 PUSH1 0xE0 SHL DUP2 MSTORE PUSH1 0x4 DUP2 ADD DUP4 SWAP1 MSTORE SWAP2 SWAP4 POP SWAP2 POP PUSH1 0x0 SWAP1 PUSH1 0x1 PUSH1 0x1 PUSH1 0xA0 SHL SUB DUP7 AND SWAP1 PUSH4 0x6573C787 SWAP1 PUSH1 0x24 ADD PUSH1 0x20 PUSH1 0x40 MLOAD DUP1 DUP4 SUB DUP2 DUP7 GAS STATICCALL ISZERO DUP1 ISZERO PUSH2 0x2103 JUMPI RETURNDATASIZE PUSH1 0x0 DUP1 RETURNDATACOPY RETURNDATASIZE PUSH1 0x0 REVERT JUMPDEST POP POP POP POP PUSH1 0x40 MLOAD RETURNDATASIZE PUSH1 0x1F NOT PUSH1 0x1F DUP3 ADD AND DUP3 ADD DUP1 PUSH1 0x40 MSTORE POP DUP2 ADD SWAP1 PUSH2 0x2127 SWAP2 SWAP1 PUSH2 0x50E0 JUMP JUMPDEST SWAP1 POP DUP1 PUSH2 0x2146 JUMPI PUSH1 0x40 MLOAD PUSH3 0x461BCD PUSH1 0xE5 SHL DUP2 MSTORE PUSH1 0x4 ADD PUSH2 0xBA5 SWAP1 PUSH2 0x51AE JUMP JUMPDEST PUSH1 0x1 PUSH1 0x0 PUSH2 0x215C DUP3 PUSH8 0x16345785D8A0000 PUSH2 0x51D5 JUMP JUMPDEST SWAP1 POP DUP4 DUP2 GT ISZERO PUSH2 0x217E JUMPI PUSH1 0x40 MLOAD PUSH3 0x461BCD PUSH1 0xE5 SHL DUP2 MSTORE PUSH1 0x4 ADD PUSH2 0xBA5 SWAP1 PUSH2 0x5424 JUMP JUMPDEST PUSH1 0x40 MLOAD PUSH4 0x17C57EDF PUSH1 0xE3 SHL DUP2 MSTORE PUSH1 0x4 DUP2 ADD DUP13 SWAP1 MSTORE PUSH1 0x24 DUP2 ADD DUP3 SWAP1 MSTORE PUSH1 0x1 PUSH1 0x1 PUSH1 0xA0 SHL SUB DUP9 AND SWAP1 PUSH4 0xBE2BF6F8 SWAP1 PUSH1 0x44 ADD PUSH1 0x20 PUSH1 0x40 MLOAD DUP1 DUP4 SUB DUP2 PUSH1 0x0 DUP8 GAS CALL ISZERO DUP1 ISZERO PUSH2 0x21CC JUMPI RETURNDATASIZE PUSH1 0x0 DUP1 RETURNDATACOPY RETURNDATASIZE PUSH1 0x0 REVERT JUMPDEST POP POP POP POP PUSH1 0x40 MLOAD RETURNDATASIZE PUSH1 0x1F NOT PUSH1 0x1F DUP3 ADD AND DUP3 ADD DUP1 PUSH1 0x40 MSTORE POP DUP2 ADD SWAP1 PUSH2 0x21F0 SWAP2 SWAP1 PUSH2 0x512B JUMP JUMPDEST POP PUSH1 0x40 MLOAD PUSH4 0x43E8C3F7 PUSH1 0xE1 SHL DUP2 MSTORE PUSH1 0x4 DUP2 ADD DUP12 SWAP1 MSTORE PUSH1 0x0 SWAP1 DUP2 SWAP1 PUSH1 0x1 PUSH1 0x1 PUSH1 0xA0 SHL SUB DUP11 AND SWAP1 PUSH4 0x87D187EE SWAP1 PUSH1 0x24 ADD PUSH1 0x40 DUP1 MLOAD DUP1 DUP4 SUB DUP2 PUSH1 0x0 DUP8 GAS CALL ISZERO DUP1 ISZERO PUSH2 0x223C JUMPI RETURNDATASIZE PUSH1 0x0 DUP1 RETURNDATACOPY RETURNDATASIZE PUSH1 0x0 REVERT JUMPDEST POP POP POP POP PUSH1 0x40 MLOAD RETURNDATASIZE PUSH1 0x1F NOT PUSH1 0x1F DUP3 ADD AND DUP3 ADD DUP1 PUSH1 0x40 MSTORE POP DUP2 ADD SWAP1 PUSH2 0x2260 SWAP2 SWAP1 PUSH2 0x518A JUMP JUMPDEST PUSH1 0x40 MLOAD PUSH4 0x6573C787 PUSH1 0xE0 SHL DUP2 MSTORE PUSH1 0x4 DUP2 ADD DUP3 SWAP1 MSTORE SWAP2 SWAP4 POP SWAP2 POP PUSH1 0x1 PUSH1 0x1 PUSH1 0xA0 SHL SUB DUP11 AND SWAP1 PUSH4 0x6573C787 SWAP1 PUSH1 0x24 ADD PUSH1 0x20 PUSH1 0x40 MLOAD DUP1 DUP4 SUB DUP2 DUP7 GAS STATICCALL ISZERO DUP1 ISZERO PUSH2 0x22AA JUMPI RETURNDATASIZE PUSH1 0x0 DUP1 RETURNDATACOPY RETURNDATASIZE PUSH1 0x0 REVERT JUMPDEST POP POP POP POP PUSH1 0x40 MLOAD RETURNDATASIZE PUSH1 0x1F NOT PUSH1 0x1F DUP3 ADD AND DUP3 ADD DUP1 PUSH1 0x40 MSTORE POP DUP2 ADD SWAP1 PUSH2 0x22CE SWAP2 SWAP1 PUSH2 0x50E0 JUMP JUMPDEST PUSH2 0x22EA JUMPI PUSH1 0x40 MLOAD PUSH3 0x461BCD PUSH1 0xE5 SHL DUP2 MSTORE PUSH1 0x4 ADD PUSH2 0xBA5 SWAP1 PUSH2 0x545B JUMP JUMPDEST PUSH2 0x22F7 DUP15 DUP14 PUSH2 0x2712 PUSH2 0x1619 JUMP JUMPDEST ISZERO PUSH2 0x2314 JUMPI PUSH1 0x40 MLOAD PUSH3 0x461BCD PUSH1 0xE5 SHL DUP2 MSTORE PUSH1 0x4 ADD PUSH2 0xBA5 SWAP1 PUSH2 0x5484 JUMP JUMPDEST PUSH1 0x1 PUSH1 0x1 PUSH1 0xA0 SHL SUB DUP10 AND PUSH1 0x0 SWAP1 DUP2 MSTORE PUSH2 0x101 PUSH1 0x20 SWAP1 DUP2 MSTORE PUSH1 0x40 DUP1 DUP4 KECCAK256 DUP16 DUP5 MSTORE SWAP1 SWAP2 MSTORE DUP1 DUP3 KECCAK256 DUP2 MLOAD PUSH1 0xE0 DUP2 ADD DUP4 MSTORE SWAP2 DUP3 SWAP1 DUP2 ADD DUP3 PUSH1 0x5 DUP7 DUP4 JUMPDEST DUP3 DUP3 LT ISZERO PUSH2 0x2422 JUMPI PUSH1 0x40 DUP1 MLOAD PUSH2 0x1E0 DUP2 ADD DUP3 MSTORE PUSH1 0xE DUP5 MUL DUP7 ADD DUP1 SLOAD PUSH1 0xFF DUP2 AND ISZERO ISZERO DUP4 MSTORE PUSH1 0x1 PUSH1 0x1 PUSH1 0xA0 SHL SUB PUSH2 0x100 SWAP2 DUP3 SWAP1 DIV AND PUSH1 0x20 DUP1 DUP6 ADD SWAP2 SWAP1 SWAP2 MSTORE PUSH1 0x1 DUP1 DUP5 ADD SLOAD SWAP6 DUP6 ADD SWAP6 SWAP1 SWAP6 MSTORE PUSH1 0x2 DUP4 ADD SLOAD PUSH1 0x60 DUP6 ADD MSTORE PUSH1 0x3 DUP4 ADD SLOAD PUSH1 0x80 DUP6 ADD MSTORE PUSH1 0x4 DUP4 ADD SLOAD PUSH1 0xA0 DUP6 ADD MSTORE PUSH1 0x5 DUP4 ADD SLOAD PUSH1 0xC0 DUP6 ADD MSTORE PUSH1 0x6 DUP4 ADD SLOAD PUSH1 0xE0 DUP6 ADD MSTORE PUSH1 0x7 DUP4 ADD SLOAD SWAP2 DUP5 ADD SWAP2 SWAP1 SWAP2 MSTORE PUSH1 0x8 DUP3 ADD SLOAD PUSH2 0x120 DUP5 ADD MSTORE PUSH1 0x9 DUP3 ADD SLOAD PUSH2 0x140 DUP5 ADD MSTORE PUSH1 0xA DUP3 ADD SLOAD PUSH2 0x160 DUP5 ADD MSTORE PUSH1 0xB DUP3 ADD SLOAD PUSH2 0x180 DUP5 ADD MSTORE PUSH1 0xC DUP3 ADD SLOAD PUSH2 0x1A0 DUP5 ADD MSTORE PUSH1 0xD SWAP1 SWAP2 ADD SLOAD PUSH2 0x1C0 DUP4 ADD MSTORE SWAP1 DUP4 MSTORE SWAP3 ADD SWAP2 ADD PUSH2 0x234C JUMP JUMPDEST POP POP POP SWAP1 DUP3 MSTORE POP PUSH1 0x40 DUP1 MLOAD PUSH1 0xA0 DUP2 ADD SWAP1 SWAP2 MSTORE PUSH1 0x20 SWAP1 SWAP2 ADD SWAP1 PUSH1 0x46 DUP4 ADD PUSH1 0x5 PUSH1 0x0 DUP4 JUMPDEST DUP3 DUP3 LT ISZERO PUSH2 0x251A JUMPI PUSH1 0x40 DUP1 MLOAD PUSH2 0x1E0 DUP2 ADD DUP3 MSTORE PUSH1 0xE DUP5 MUL DUP7 ADD DUP1 SLOAD PUSH1 0xFF DUP2 AND ISZERO ISZERO DUP4 MSTORE PUSH1 0x1 PUSH1 0x1 PUSH1 0xA0 SHL SUB PUSH2 0x100 SWAP2 DUP3 SWAP1 DIV AND PUSH1 0x20 DUP1 DUP6 ADD SWAP2 SWAP1 SWAP2 MSTORE PUSH1 0x1 DUP1 DUP5 ADD SLOAD SWAP6 DUP6 ADD SWAP6 SWAP1 SWAP6 MSTORE PUSH1 0x2 DUP4 ADD SLOAD PUSH1 0x60 DUP6 ADD MSTORE PUSH1 0x3 DUP4 ADD SLOAD PUSH1 0x80 DUP6 ADD MSTORE PUSH1 0x4 DUP4 ADD SLOAD PUSH1 0xA0 DUP6 ADD MSTORE PUSH1 0x5 DUP4 ADD SLOAD PUSH1 0xC0 DUP6 ADD MSTORE PUSH1 0x6 DUP4 ADD SLOAD PUSH1 0xE0 DUP6 ADD MSTORE PUSH1 0x7 DUP4 ADD SLOAD SWAP2 DUP5 ADD SWAP2 SWAP1 SWAP2 MSTORE PUSH1 0x8 DUP3 ADD SLOAD PUSH2 0x120 DUP5 ADD MSTORE PUSH1 0x9 DUP3 ADD SLOAD PUSH2 0x140 DUP5 ADD MSTORE PUSH1 0xA DUP3 ADD SLOAD PUSH2 0x160 DUP5 ADD MSTORE PUSH1 0xB DUP3 ADD SLOAD PUSH2 0x180 DUP5 ADD MSTORE PUSH1 0xC DUP3 ADD SLOAD PUSH2 0x1A0 DUP5 ADD MSTORE PUSH1 0xD SWAP1 SWAP2 ADD SLOAD PUSH2 0x1C0 DUP4 ADD MSTORE SWAP1 DUP4 MSTORE SWAP3 ADD SWAP2 ADD PUSH2 0x2444 JUMP JUMPDEST POP POP POP SWAP2 MSTORE POP SWAP1 SWAP2 POP PUSH1 0x1 SWAP1 POP JUMPDEST PUSH1 0x5 DUP2 LT ISZERO PUSH2 0x2656 JUMPI DUP2 MLOAD DUP2 PUSH1 0x5 DUP2 LT PUSH2 0x2544 JUMPI PUSH2 0x2544 PUSH2 0x5174 JUMP JUMPDEST PUSH1 0x20 MUL ADD MLOAD MLOAD PUSH2 0x2644 JUMPI DUP2 MLOAD PUSH1 0x1 SWAP1 DUP3 PUSH1 0x5 DUP2 LT PUSH2 0x2564 JUMPI PUSH2 0x2564 PUSH2 0x5174 JUMP JUMPDEST PUSH1 0x20 MUL ADD MLOAD PUSH1 0x0 ADD SWAP1 ISZERO ISZERO SWAP1 DUP2 ISZERO ISZERO DUP2 MSTORE POP POP DUP16 DUP3 PUSH1 0x0 ADD MLOAD DUP3 PUSH1 0x5 DUP2 LT PUSH2 0x258E JUMPI PUSH2 0x258E PUSH2 0x5174 JUMP JUMPDEST PUSH1 0x20 SWAP1 DUP2 MUL SWAP2 SWAP1 SWAP2 ADD MLOAD PUSH1 0x1 PUSH1 0x1 PUSH1 0xA0 SHL SUB SWAP1 SWAP3 AND SWAP2 ADD MSTORE DUP2 MLOAD DUP15 SWAP1 DUP3 PUSH1 0x5 DUP2 LT PUSH2 0x25BB JUMPI PUSH2 0x25BB PUSH2 0x5174 JUMP JUMPDEST PUSH1 0x20 MUL ADD MLOAD PUSH1 0x40 ADD MSTORE DUP2 MLOAD DUP14 SWAP1 DUP3 PUSH1 0x5 DUP2 LT PUSH2 0x25D9 JUMPI PUSH2 0x25D9 PUSH2 0x5174 JUMP JUMPDEST PUSH1 0x20 MUL ADD MLOAD PUSH1 0x60 ADD MSTORE DUP2 MLOAD DUP13 SWAP1 DUP3 PUSH1 0x5 DUP2 LT PUSH2 0x25F7 JUMPI PUSH2 0x25F7 PUSH2 0x5174 JUMP JUMPDEST PUSH1 0x20 MUL ADD MLOAD PUSH2 0x160 ADD MSTORE DUP2 MLOAD TIMESTAMP SWAP1 DUP3 PUSH1 0x5 DUP2 LT PUSH2 0x2616 JUMPI PUSH2 0x2616 PUSH2 0x5174 JUMP JUMPDEST PUSH1 0x20 MUL ADD MLOAD PUSH2 0x1A0 ADD MSTORE DUP2 MLOAD DUP13 SWAP1 DUP3 PUSH1 0x5 DUP2 LT PUSH2 0x2635 JUMPI PUSH2 0x2635 PUSH2 0x5174 JUMP JUMPDEST PUSH1 0x20 MUL ADD MLOAD PUSH2 0x1C0 ADD MSTORE PUSH2 0x2656 JUMP JUMPDEST DUP1 PUSH2 0x264E DUP2 PUSH2 0x5144 JUMP JUMPDEST SWAP2 POP POP PUSH2 0x2528 JUMP JUMPDEST POP POP POP POP POP POP POP POP POP POP POP POP POP POP POP POP JUMP JUMPDEST PUSH1 0x40 MLOAD PUSH4 0x7B303965 PUSH1 0xE0 SHL DUP2 MSTORE PUSH1 0x4 DUP2 ADD DUP6 SWAP1 MSTORE DUP6 SWAP1 PUSH1 0x0 SWAP1 PUSH1 0x1 PUSH1 0x1 PUSH1 0xA0 SHL SUB DUP4 AND SWAP1 PUSH4 0x7B303965 SWAP1 PUSH1 0x24 ADD PUSH1 0xC0 PUSH1 0x40 MLOAD DUP1 DUP4 SUB DUP2 PUSH1 0x0 DUP8 GAS CALL ISZERO DUP1 ISZERO PUSH2 0x26B4 JUMPI RETURNDATASIZE PUSH1 0x0 DUP1 RETURNDATACOPY RETURNDATASIZE PUSH1 0x0 REVERT JUMPDEST POP POP POP POP PUSH1 0x40 MLOAD RETURNDATASIZE PUSH1 0x1F NOT PUSH1 0x1F DUP3 ADD AND DUP3 ADD DUP1 PUSH1 0x40 MSTORE POP DUP2 ADD SWAP1 PUSH2 0x26D8 SWAP2 SWAP1 PUSH2 0x5386 JUMP JUMPDEST PUSH1 0x40 MLOAD PUSH4 0x6BFC324F PUSH1 0xE0 SHL DUP2 MSTORE PUSH1 0x4 DUP2 ADD DUP9 SWAP1 MSTORE PUSH1 0x67 PUSH1 0x24 DUP3 ADD MSTORE SWAP1 SWAP2 POP PUSH1 0x1 PUSH1 0x1 PUSH1 0xA0 SHL SUB DUP4 AND SWAP1 PUSH4 0x6BFC324F SWAP1 PUSH1 0x44 ADD PUSH1 0x20 PUSH1 0x40 MLOAD DUP1 DUP4 SUB DUP2 DUP7 GAS STATICCALL ISZERO DUP1 ISZERO PUSH2 0x2727 JUMPI RETURNDATASIZE PUSH1 0x0 DUP1 RETURNDATACOPY RETURNDATASIZE PUSH1 0x0 REVERT JUMPDEST POP POP POP POP PUSH1 0x40 MLOAD RETURNDATASIZE PUSH1 0x1F NOT PUSH1 0x1F DUP3 ADD AND DUP3 ADD DUP1 PUSH1 0x40 MSTORE POP DUP2 ADD SWAP1 PUSH2 0x274B SWAP2 SWAP1 PUSH2 0x50E0 JUMP JUMPDEST PUSH2 0x2792 JUMPI PUSH1 0x40 MLOAD PUSH3 0x461BCD PUSH1 0xE5 SHL DUP2 MSTORE PUSH1 0x20 PUSH1 0x4 DUP3 ADD MSTORE PUSH1 0x18 PUSH1 0x24 DUP3 ADD MSTORE PUSH24 0x2432B9379031B0B713BA1031B0B9BA1030B733BAB4B9B417 PUSH1 0x41 SHL PUSH1 0x44 DUP3 ADD MSTORE PUSH1 0x64 ADD PUSH2 0xBA5 JUMP JUMPDEST PUSH1 0x40 MLOAD PUSH4 0x31A9108F PUSH1 0xE1 SHL DUP2 MSTORE PUSH1 0x4 DUP2 ADD DUP8 SWAP1 MSTORE CALLER SWAP1 PUSH1 0x1 PUSH1 0x1 PUSH1 0xA0 SHL SUB DUP5 AND SWAP1 PUSH4 0x6352211E SWAP1 PUSH1 0x24 ADD PUSH1 0x20 PUSH1 0x40 MLOAD DUP1 DUP4 SUB DUP2 DUP7 GAS STATICCALL ISZERO DUP1 ISZERO PUSH2 0x27D9 JUMPI RETURNDATASIZE PUSH1 0x0 DUP1 RETURNDATACOPY RETURNDATASIZE PUSH1 0x0 REVERT JUMPDEST POP POP POP POP PUSH1 0x40 MLOAD RETURNDATASIZE PUSH1 0x1F NOT PUSH1 0x1F DUP3 ADD AND DUP3 ADD DUP1 PUSH1 0x40 MSTORE POP DUP2 ADD SWAP1 PUSH2 0x27FD SWAP2 SWAP1 PUSH2 0x5097 JUMP JUMPDEST PUSH1 0x1 PUSH1 0x1 PUSH1 0xA0 SHL SUB AND EQ DUP1 PUSH2 0x2821 JUMPI POP CALLER PUSH1 0x0 SWAP1 DUP2 MSTORE PUSH1 0xFD PUSH1 0x20 MSTORE PUSH1 0x40 SWAP1 KECCAK256 SLOAD PUSH1 0xFF AND JUMPDEST PUSH2 0x283D JUMPI PUSH1 0x40 MLOAD PUSH3 0x461BCD PUSH1 0xE5 SHL DUP2 MSTORE PUSH1 0x4 ADD PUSH2 0xBA5 SWAP1 PUSH2 0x50B4 JUMP JUMPDEST PUSH1 0x40 MLOAD PUSH4 0x43E8C3F7 PUSH1 0xE1 SHL DUP2 MSTORE PUSH1 0x4 DUP2 ADD DUP8 SWAP1 MSTORE PUSH1 0x0 SWAP1 DUP2 SWAP1 PUSH1 0x1 PUSH1 0x1 PUSH1 0xA0 SHL SUB DUP6 AND SWAP1 PUSH4 0x87D187EE SWAP1 PUSH1 0x24 ADD PUSH1 0x40 DUP1 MLOAD DUP1 DUP4 SUB DUP2 PUSH1 0x0 DUP8 GAS CALL ISZERO DUP1 ISZERO PUSH2 0x2888 JUMPI RETURNDATASIZE PUSH1 0x0 DUP1 RETURNDATACOPY RETURNDATASIZE PUSH1 0x0 REVERT JUMPDEST POP POP POP POP PUSH1 0x40 MLOAD RETURNDATASIZE PUSH1 0x1F NOT PUSH1 0x1F DUP3 ADD AND DUP3 ADD DUP1 PUSH1 0x40 MSTORE POP DUP2 ADD SWAP1 PUSH2 0x28AC SWAP2 SWAP1 PUSH2 0x518A JUMP JUMPDEST PUSH1 0x40 MLOAD PUSH4 0x6573C787 PUSH1 0xE0 SHL DUP2 MSTORE PUSH1 0x4 DUP2 ADD DUP4 SWAP1 MSTORE SWAP2 SWAP4 POP SWAP2 POP PUSH1 0x0 SWAP1 PUSH1 0x1 PUSH1 0x1 PUSH1 0xA0 SHL SUB DUP7 AND SWAP1 PUSH4 0x6573C787 SWAP1 PUSH1 0x24 ADD PUSH1 0x20 PUSH1 0x40 MLOAD DUP1 DUP4 SUB DUP2 DUP7 GAS STATICCALL ISZERO DUP1 ISZERO PUSH2 0x28F9 JUMPI RETURNDATASIZE PUSH1 0x0 DUP1 RETURNDATACOPY RETURNDATASIZE PUSH1 0x0 REVERT JUMPDEST POP POP POP POP PUSH1 0x40 MLOAD RETURNDATASIZE PUSH1 0x1F NOT PUSH1 0x1F DUP3 ADD AND DUP3 ADD DUP1 PUSH1 0x40 MSTORE POP DUP2 ADD SWAP1 PUSH2 0x291D SWAP2 SWAP1 PUSH2 0x50E0 JUMP JUMPDEST SWAP1 POP DUP1 PUSH2 0x293C JUMPI PUSH1 0x40 MLOAD PUSH3 0x461BCD PUSH1 0xE5 SHL DUP2 MSTORE PUSH1 0x4 ADD PUSH2 0xBA5 SWAP1 PUSH2 0x51AE JUMP JUMPDEST PUSH1 0x1 PUSH1 0x0 PUSH2 0x2952 DUP3 PUSH8 0x16345785D8A0000 PUSH2 0x51D5 JUMP JUMPDEST SWAP1 POP DUP4 DUP2 GT ISZERO PUSH2 0x2974 JUMPI PUSH1 0x40 MLOAD PUSH3 0x461BCD PUSH1 0xE5 SHL DUP2 MSTORE PUSH1 0x4 ADD PUSH2 0xBA5 SWAP1 PUSH2 0x5424 JUMP JUMPDEST PUSH1 0x40 MLOAD PUSH4 0x17C57EDF PUSH1 0xE3 SHL DUP2 MSTORE PUSH1 0x4 DUP2 ADD DUP13 SWAP1 MSTORE PUSH1 0x24 DUP2 ADD DUP3 SWAP1 MSTORE PUSH1 0x1 PUSH1 0x1 PUSH1 0xA0 SHL SUB DUP9 AND SWAP1 PUSH4 0xBE2BF6F8 SWAP1 PUSH1 0x44 ADD PUSH1 0x20 PUSH1 0x40 MLOAD DUP1 DUP4 SUB DUP2 PUSH1 0x0 DUP8 GAS CALL ISZERO DUP1 ISZERO PUSH2 0x29C2 JUMPI RETURNDATASIZE PUSH1 0x0 DUP1 RETURNDATACOPY RETURNDATASIZE PUSH1 0x0 REVERT JUMPDEST POP POP POP POP PUSH1 0x40 MLOAD RETURNDATASIZE PUSH1 0x1F NOT PUSH1 0x1F DUP3 ADD AND DUP3 ADD DUP1 PUSH1 0x40 MSTORE POP DUP2 ADD SWAP1 PUSH2 0x29E6 SWAP2 SWAP1 PUSH2 0x512B JUMP JUMPDEST POP PUSH1 0x40 MLOAD PUSH4 0x43E8C3F7 PUSH1 0xE1 SHL DUP2 MSTORE PUSH1 0x4 DUP2 ADD DUP12 SWAP1 MSTORE PUSH1 0x0 SWAP1 DUP2 SWAP1 PUSH1 0x1 PUSH1 0x1 PUSH1 0xA0 SHL SUB DUP11 AND SWAP1 PUSH4 0x87D187EE SWAP1 PUSH1 0x24 ADD PUSH1 0x40 DUP1 MLOAD DUP1 DUP4 SUB DUP2 PUSH1 0x0 DUP8 GAS CALL ISZERO DUP1 ISZERO PUSH2 0x2A32 JUMPI RETURNDATASIZE PUSH1 0x0 DUP1 RETURNDATACOPY RETURNDATASIZE PUSH1 0x0 REVERT JUMPDEST POP POP POP POP PUSH1 0x40 MLOAD RETURNDATASIZE PUSH1 0x1F NOT PUSH1 0x1F DUP3 ADD AND DUP3 ADD DUP1 PUSH1 0x40 MSTORE POP DUP2 ADD SWAP1 PUSH2 0x2A56 SWAP2 SWAP1 PUSH2 0x518A JUMP JUMPDEST PUSH1 0x40 MLOAD PUSH4 0x6573C787 PUSH1 0xE0 SHL DUP2 MSTORE PUSH1 0x4 DUP2 ADD DUP3 SWAP1 MSTORE SWAP2 SWAP4 POP SWAP2 POP PUSH1 0x1 PUSH1 0x1 PUSH1 0xA0 SHL SUB DUP11 AND SWAP1 PUSH4 0x6573C787 SWAP1 PUSH1 0x24 ADD PUSH1 0x20 PUSH1 0x40 MLOAD DUP1 DUP4 SUB DUP2 DUP7 GAS STATICCALL ISZERO DUP1 ISZERO PUSH2 0x2AA0 JUMPI RETURNDATASIZE PUSH1 0x0 DUP1 RETURNDATACOPY RETURNDATASIZE PUSH1 0x0 REVERT JUMPDEST POP POP POP POP PUSH1 0x40 MLOAD RETURNDATASIZE PUSH1 0x1F NOT PUSH1 0x1F DUP3 ADD AND DUP3 ADD DUP1 PUSH1 0x40 MSTORE POP DUP2 ADD SWAP1 PUSH2 0x2AC4 SWAP2 SWAP1 PUSH2 0x50E0 JUMP JUMPDEST PUSH2 0x2AE0 JUMPI PUSH1 0x40 MLOAD PUSH3 0x461BCD PUSH1 0xE5 SHL DUP2 MSTORE PUSH1 0x4 ADD PUSH2 0xBA5 SWAP1 PUSH2 0x545B JUMP JUMPDEST PUSH2 0x2AED DUP15 DUP14 PUSH2 0x2712 PUSH2 0x1619 JUMP JUMPDEST ISZERO PUSH2 0x2B0A JUMPI PUSH1 0x40 MLOAD PUSH3 0x461BCD PUSH1 0xE5 SHL DUP2 MSTORE PUSH1 0x4 ADD PUSH2 0xBA5 SWAP1 PUSH2 0x5484 JUMP JUMPDEST PUSH1 0x1 PUSH1 0x1 PUSH1 0xA0 SHL SUB DUP10 AND PUSH1 0x0 SWAP1 DUP2 MSTORE PUSH2 0x101 PUSH1 0x20 SWAP1 DUP2 MSTORE PUSH1 0x40 DUP1 DUP4 KECCAK256 DUP16 DUP5 MSTORE SWAP1 SWAP2 MSTORE DUP1 DUP3 KECCAK256 DUP2 MLOAD PUSH1 0xE0 DUP2 ADD DUP4 MSTORE SWAP2 DUP3 SWAP1 DUP2 ADD DUP3 PUSH1 0x5 DUP7 DUP4 JUMPDEST DUP3 DUP3 LT ISZERO PUSH2 0x2C18 JUMPI PUSH1 0x40 DUP1 MLOAD PUSH2 0x1E0 DUP2 ADD DUP3 MSTORE PUSH1 0xE DUP5 MUL DUP7 ADD DUP1 SLOAD PUSH1 0xFF DUP2 AND ISZERO ISZERO DUP4 MSTORE PUSH1 0x1 PUSH1 0x1 PUSH1 0xA0 SHL SUB PUSH2 0x100 SWAP2 DUP3 SWAP1 DIV AND PUSH1 0x20 DUP1 DUP6 ADD SWAP2 SWAP1 SWAP2 MSTORE PUSH1 0x1 DUP1 DUP5 ADD SLOAD SWAP6 DUP6 ADD SWAP6 SWAP1 SWAP6 MSTORE PUSH1 0x2 DUP4 ADD SLOAD PUSH1 0x60 DUP6 ADD MSTORE PUSH1 0x3 DUP4 ADD SLOAD PUSH1 0x80 DUP6 ADD MSTORE PUSH1 0x4 DUP4 ADD SLOAD PUSH1 0xA0 DUP6 ADD MSTORE PUSH1 0x5 DUP4 ADD SLOAD PUSH1 0xC0 DUP6 ADD MSTORE PUSH1 0x6 DUP4 ADD SLOAD PUSH1 0xE0 DUP6 ADD MSTORE PUSH1 0x7 DUP4 ADD SLOAD SWAP2 DUP5 ADD SWAP2 SWAP1 SWAP2 MSTORE PUSH1 0x8 DUP3 ADD SLOAD PUSH2 0x120 DUP5 ADD MSTORE PUSH1 0x9 DUP3 ADD SLOAD PUSH2 0x140 DUP5 ADD MSTORE PUSH1 0xA DUP3 ADD SLOAD PUSH2 0x160 DUP5 ADD MSTORE PUSH1 0xB DUP3 ADD SLOAD PUSH2 0x180 DUP5 ADD MSTORE PUSH1 0xC DUP3 ADD SLOAD PUSH2 0x1A0 DUP5 ADD MSTORE PUSH1 0xD SWAP1 SWAP2 ADD SLOAD PUSH2 0x1C0 DUP4 ADD MSTORE SWAP1 DUP4 MSTORE SWAP3 ADD SWAP2 ADD PUSH2 0x2B42 JUMP JUMPDEST POP POP POP SWAP1 DUP3 MSTORE POP PUSH1 0x40 DUP1 MLOAD PUSH1 0xA0 DUP2 ADD SWAP1 SWAP2 MSTORE PUSH1 0x20 SWAP1 SWAP2 ADD SWAP1 PUSH1 0x46 DUP4 ADD PUSH1 0x5 PUSH1 0x0 DUP4 JUMPDEST DUP3 DUP3 LT ISZERO PUSH2 0x2D10 JUMPI PUSH1 0x40 DUP1 MLOAD PUSH2 0x1E0 DUP2 ADD DUP3 MSTORE PUSH1 0xE DUP5 MUL DUP7 ADD DUP1 SLOAD PUSH1 0xFF DUP2 AND ISZERO ISZERO DUP4 MSTORE PUSH1 0x1 PUSH1 0x1 PUSH1 0xA0 SHL SUB PUSH2 0x100 SWAP2 DUP3 SWAP1 DIV AND PUSH1 0x20 DUP1 DUP6 ADD SWAP2 SWAP1 SWAP2 MSTORE PUSH1 0x1 DUP1 DUP5 ADD SLOAD SWAP6 DUP6 ADD SWAP6 SWAP1 SWAP6 MSTORE PUSH1 0x2 DUP4 ADD SLOAD PUSH1 0x60 DUP6 ADD MSTORE PUSH1 0x3 DUP4 ADD SLOAD PUSH1 0x80 DUP6 ADD MSTORE PUSH1 0x4 DUP4 ADD SLOAD PUSH1 0xA0 DUP6 ADD MSTORE PUSH1 0x5 DUP4 ADD SLOAD PUSH1 0xC0 DUP6 ADD MSTORE PUSH1 0x6 DUP4 ADD SLOAD PUSH1 0xE0 DUP6 ADD MSTORE PUSH1 0x7 DUP4 ADD SLOAD SWAP2 DUP5 ADD SWAP2 SWAP1 SWAP2 MSTORE PUSH1 0x8 DUP3 ADD SLOAD PUSH2 0x120 DUP5 ADD MSTORE PUSH1 0x9 DUP3 ADD SLOAD PUSH2 0x140 DUP5 ADD MSTORE PUSH1 0xA DUP3 ADD SLOAD PUSH2 0x160 DUP5 ADD MSTORE PUSH1 0xB DUP3 ADD SLOAD PUSH2 0x180 DUP5 ADD MSTORE PUSH1 0xC DUP3 ADD SLOAD PUSH2 0x1A0 DUP5 ADD MSTORE PUSH1 0xD SWAP1 SWAP2 ADD SLOAD PUSH2 0x1C0 DUP4 ADD MSTORE SWAP1 DUP4 MSTORE SWAP3 ADD SWAP2 ADD PUSH2 0x2C3A JUMP JUMPDEST POP POP POP SWAP2 MSTORE POP SWAP1 SWAP2 POP PUSH1 0x1 SWAP1 POP JUMPDEST PUSH1 0x5 DUP2 LT ISZERO PUSH2 0x2656 JUMPI DUP2 PUSH1 0x20 ADD MLOAD DUP2 PUSH1 0x5 DUP2 LT PUSH2 0x2D3D JUMPI PUSH2 0x2D3D PUSH2 0x5174 JUMP JUMPDEST PUSH1 0x20 MUL ADD MLOAD MLOAD PUSH2 0x2E53 JUMPI PUSH1 0x1 DUP3 PUSH1 0x20 ADD MLOAD DUP3 PUSH1 0x5 DUP2 LT PUSH2 0x2D5F JUMPI PUSH2 0x2D5F PUSH2 0x5174 JUMP JUMPDEST PUSH1 0x20 MUL ADD MLOAD PUSH1 0x0 ADD SWAP1 ISZERO ISZERO SWAP1 DUP2 ISZERO ISZERO DUP2 MSTORE POP POP DUP16 DUP3 PUSH1 0x20 ADD MLOAD DUP3 PUSH1 0x5 DUP2 LT PUSH2 0x2D89 JUMPI PUSH2 0x2D89 PUSH2 0x5174 JUMP JUMPDEST PUSH1 0x20 MUL ADD MLOAD PUSH1 0x20 ADD SWAP1 PUSH1 0x1 PUSH1 0x1 PUSH1 0xA0 SHL SUB AND SWAP1 DUP2 PUSH1 0x1 PUSH1 0x1 PUSH1 0xA0 SHL SUB AND DUP2 MSTORE POP POP DUP14 DUP3 PUSH1 0x20 ADD MLOAD DUP3 PUSH1 0x5 DUP2 LT PUSH2 0x2DC1 JUMPI PUSH2 0x2DC1 PUSH2 0x5174 JUMP JUMPDEST PUSH1 0x20 MUL ADD MLOAD PUSH1 0x40 ADD DUP2 DUP2 MSTORE POP POP DUP13 DUP3 PUSH1 0x20 ADD MLOAD DUP3 PUSH1 0x5 DUP2 LT PUSH2 0x2DE5 JUMPI PUSH2 0x2DE5 PUSH2 0x5174 JUMP JUMPDEST PUSH1 0x20 MUL ADD MLOAD PUSH1 0x80 ADD DUP2 DUP2 MSTORE POP POP DUP12 DUP3 PUSH1 0x20 ADD MLOAD DUP3 PUSH1 0x5 DUP2 LT PUSH2 0x2E09 JUMPI PUSH2 0x2E09 PUSH2 0x5174 JUMP JUMPDEST PUSH1 0x20 MUL ADD MLOAD PUSH2 0x160 ADD DUP2 DUP2 MSTORE POP POP TIMESTAMP DUP3 PUSH1 0x20 ADD MLOAD DUP3 PUSH1 0x5 DUP2 LT PUSH2 0x2E2E JUMPI PUSH2 0x2E2E PUSH2 0x5174 JUMP JUMPDEST PUSH1 0x20 MUL ADD MLOAD PUSH2 0x1A0 ADD DUP2 DUP2 MSTORE POP POP DUP12 DUP3 PUSH1 0x20 ADD MLOAD DUP3 PUSH1 0x5 DUP2 LT PUSH2 0x2635 JUMPI PUSH2 0x2635 PUSH2 0x5174 JUMP JUMPDEST DUP1 PUSH2 0x2E5D DUP2 PUSH2 0x5144 JUMP JUMPDEST SWAP2 POP POP PUSH2 0x2D1E JUMP JUMPDEST PUSH2 0x2E70 CALLER DUP4 DUP4 PUSH2 0x3DD6 JUMP JUMPDEST POP POP JUMP JUMPDEST PUSH1 0x0 PUSH2 0xBD3 DUP3 PUSH3 0x186A0 PUSH2 0x51D5 JUMP JUMPDEST PUSH1 0xFB SLOAD PUSH1 0x1 PUSH1 0x1 PUSH1 0xA0 SHL SUB AND CALLER EQ DUP1 PUSH2 0x2EAB JUMPI POP CALLER PUSH1 0x0 SWAP1 DUP2 MSTORE PUSH1 0xFD PUSH1 0x20 MSTORE PUSH1 0x40 SWAP1 KECCAK256 SLOAD PUSH1 0xFF AND JUMPDEST PUSH2 0x2EEE JUMPI PUSH1 0x40 MLOAD PUSH3 0x461BCD PUSH1 0xE5 SHL DUP2 MSTORE PUSH1 0x20 PUSH1 0x4 DUP3 ADD MSTORE PUSH1 0x14 PUSH1 0x24 DUP3 ADD MSTORE PUSH20 0x2CB7BA9030B932B713BA1030B71030B236B4B717 PUSH1 0x61 SHL PUSH1 0x44 DUP3 ADD MSTORE PUSH1 0x64 ADD PUSH2 0xBA5 JUMP JUMPDEST PUSH2 0x1C7D DUP4 DUP4 DUP4 PUSH1 0x40 MLOAD DUP1 PUSH1 0x40 ADD PUSH1 0x40 MSTORE DUP1 PUSH1 0xB DUP2 MSTORE PUSH1 0x20 ADD PUSH11 0x6164646F6E4D696E74546F PUSH1 0xA8 SHL DUP2 MSTORE POP PUSH2 0x3EB6 JUMP JUMPDEST PUSH1 0x0 DUP5 DUP2 PUSH2 0x2F2B DUP3 DUP8 PUSH2 0x313B JUMP JUMPDEST SWAP1 POP PUSH1 0x0 PUSH2 0x2F39 DUP9 DUP8 PUSH2 0x313B JUMP JUMPDEST SWAP1 POP DUP5 PUSH2 0x2FE8 DUP3 PUSH1 0x40 ADD MLOAD DUP5 PUSH1 0x40 ADD MLOAD PUSH2 0x2F53 SWAP2 SWAP1 PUSH2 0x52C2 JUMP JUMPDEST DUP4 PUSH1 0x40 ADD MLOAD DUP6 PUSH1 0x40 ADD MLOAD PUSH2 0x2F67 SWAP2 SWAP1 PUSH2 0x52C2 JUMP JUMPDEST PUSH2 0x2F71 SWAP2 SWAP1 PUSH2 0x5301 JUMP JUMPDEST DUP4 PUSH1 0x20 ADD MLOAD DUP6 PUSH1 0x20 ADD MLOAD PUSH2 0x2F85 SWAP2 SWAP1 PUSH2 0x52C2 JUMP JUMPDEST DUP5 PUSH1 0x20 ADD MLOAD DUP7 PUSH1 0x20 ADD MLOAD PUSH2 0x2F99 SWAP2 SWAP1 PUSH2 0x52C2 JUMP JUMPDEST PUSH2 0x2FA3 SWAP2 SWAP1 PUSH2 0x5301 JUMP JUMPDEST DUP5 MLOAD DUP7 MLOAD PUSH2 0x2FB1 SWAP2 SWAP1 PUSH2 0x52C2 JUMP JUMPDEST DUP6 MLOAD DUP8 MLOAD PUSH2 0x2FBF SWAP2 SWAP1 PUSH2 0x52C2 JUMP JUMPDEST PUSH2 0x2FC9 SWAP2 SWAP1 PUSH2 0x5301 JUMP JUMPDEST PUSH2 0x2FD3 SWAP2 SWAP1 PUSH2 0x51F4 JUMP JUMPDEST PUSH2 0x2FDD SWAP2 SWAP1 PUSH2 0x51F4 JUMP JUMPDEST PUSH2 0x7B0 SWAP1 PUSH1 0x0 PUSH2 0x51F4 JUMP JUMPDEST SGT ISZERO SWAP9 SWAP8 POP POP POP POP POP POP POP POP JUMP JUMPDEST PUSH1 0x1 PUSH1 0x1 PUSH1 0xA0 SHL SUB DUP3 AND PUSH1 0x0 SWAP1 DUP2 MSTORE PUSH2 0x103 PUSH1 0x20 SWAP1 DUP2 MSTORE PUSH1 0x40 DUP1 DUP4 KECCAK256 DUP5 DUP5 MSTORE SWAP1 SWAP2 MSTORE DUP2 KECCAK256 SLOAD PUSH2 0x302A SWAP1 PUSH2 0x56C SWAP1 PUSH1 0x1 PUSH2 0x5113 JUMP JUMPDEST PUSH2 0x1145 SWAP1 PUSH1 0x1 PUSH2 0x5113 JUMP JUMPDEST PUSH1 0xFB SLOAD PUSH1 0x0 SWAP1 PUSH1 0x1 PUSH1 0x1 PUSH1 0xA0 SHL SUB AND CALLER EQ DUP1 PUSH2 0x3060 JUMPI POP CALLER PUSH1 0x0 SWAP1 DUP2 MSTORE PUSH1 0xFD PUSH1 0x20 MSTORE PUSH1 0x40 SWAP1 KECCAK256 SLOAD PUSH1 0xFF AND JUMPDEST PUSH2 0x30A2 JUMPI PUSH1 0x40 MLOAD PUSH3 0x461BCD PUSH1 0xE5 SHL DUP2 MSTORE PUSH1 0x20 PUSH1 0x4 DUP3 ADD MSTORE PUSH1 0x13 PUSH1 0x24 DUP3 ADD MSTORE PUSH19 0x2CB7BA9031B0B713BA1030B232103A3430BA17 PUSH1 0x69 SHL PUSH1 0x44 DUP3 ADD MSTORE PUSH1 0x64 ADD PUSH2 0xBA5 JUMP JUMPDEST PUSH1 0x1 PUSH1 0x1 PUSH1 0xA0 SHL SUB DUP5 AND PUSH1 0x0 SWAP1 DUP2 MSTORE PUSH2 0x104 PUSH1 0x20 SWAP1 DUP2 MSTORE PUSH1 0x40 DUP1 DUP4 KECCAK256 DUP6 DUP5 MSTORE SWAP1 SWAP2 MSTORE SWAP1 KECCAK256 SLOAD PUSH2 0x30D2 SWAP1 PUSH1 0x1 PUSH2 0x5113 JUMP JUMPDEST PUSH1 0x1 PUSH1 0x1 PUSH1 0xA0 SHL SUB DUP6 AND PUSH1 0x0 SWAP1 DUP2 MSTORE PUSH2 0x103 PUSH1 0x20 SWAP1 DUP2 MSTORE PUSH1 0x40 DUP1 DUP4 KECCAK256 DUP8 DUP5 MSTORE SWAP1 SWAP2 MSTORE DUP2 KECCAK256 DUP1 SLOAD SWAP1 SWAP2 SWAP1 PUSH2 0x3106 SWAP1 DUP5 SWAP1 PUSH2 0x5113 JUMP JUMPDEST SWAP1 SWAP2 SSTORE POP POP PUSH1 0x1 PUSH1 0x1 PUSH1 0xA0 SHL SUB DUP5 AND PUSH1 0x0 SWAP1 DUP2 MSTORE PUSH2 0x104 PUSH1 0x20 SWAP1 DUP2 MSTORE PUSH1 0x40 DUP1 DUP4 KECCAK256 DUP6 DUP5 MSTORE SWAP1 SWAP2 MSTORE SWAP1 KECCAK256 SLOAD PUSH2 0x1D9E SWAP1 PUSH1 0x1 PUSH2 0x5113 JUMP JUMPDEST PUSH2 0x316D PUSH1 0x40 MLOAD DUP1 PUSH1 0xA0 ADD PUSH1 0x40 MSTORE DUP1 PUSH1 0x0 DUP2 MSTORE PUSH1 0x20 ADD PUSH1 0x0 DUP2 MSTORE PUSH1 0x20 ADD PUSH1 0x0 DUP2 MSTORE PUSH1 0x20 ADD PUSH1 0x0 DUP2 MSTORE PUSH1 0x20 ADD PUSH1 0x0 DUP2 MSTORE POP SWAP1 JUMP JUMPDEST PUSH1 0x40 MLOAD PUSH4 0xDCB9D1F1 PUSH1 0xE0 SHL DUP2 MSTORE PUSH1 0x4 DUP2 ADD DUP4 SWAP1 MSTORE DUP4 SWAP1 PUSH1 0x0 SWAP1 DUP2 SWAP1 PUSH1 0x1 PUSH1 0x1 PUSH1 0xA0 SHL SUB DUP5 AND SWAP1 PUSH4 0xDCB9D1F1 SWAP1 PUSH1 0x24 ADD PUSH1 0x40 DUP1 MLOAD DUP1 DUP4 SUB DUP2 PUSH1 0x0 DUP8 GAS CALL ISZERO DUP1 ISZERO PUSH2 0x31BA JUMPI RETURNDATASIZE PUSH1 0x0 DUP1 RETURNDATACOPY RETURNDATASIZE PUSH1 0x0 REVERT JUMPDEST POP POP POP POP PUSH1 0x40 MLOAD RETURNDATASIZE PUSH1 0x1F NOT PUSH1 0x1F DUP3 ADD AND DUP3 ADD DUP1 PUSH1 0x40 MSTORE POP DUP2 ADD SWAP1 PUSH2 0x31DE SWAP2 SWAP1 PUSH2 0x518A JUMP JUMPDEST PUSH1 0x40 DUP1 MLOAD PUSH1 0xA0 DUP2 ADD DUP3 MSTORE PUSH1 0x1 PUSH1 0x1 PUSH1 0xA0 SHL SUB SWAP10 SWAP1 SWAP10 AND PUSH1 0x0 DUP2 DUP2 MSTORE PUSH2 0x106 PUSH1 0x20 SWAP1 DUP2 MSTORE DUP4 DUP3 KECCAK256 DUP12 DUP4 MSTORE DUP2 MSTORE DUP4 DUP3 KECCAK256 SLOAD DUP13 MSTORE DUP3 DUP3 MSTORE PUSH2 0x107 DUP2 MSTORE DUP4 DUP3 KECCAK256 DUP12 DUP4 MSTORE DUP2 MSTORE DUP4 DUP3 KECCAK256 SLOAD DUP2 DUP14 ADD MSTORE SWAP2 DUP2 MSTORE PUSH2 0x108 DUP3 MSTORE DUP3 DUP2 KECCAK256 SWAP10 DUP2 MSTORE SWAP9 SWAP1 MSTORE SWAP7 DUP8 SWAP1 KECCAK256 SLOAD SWAP7 DUP9 ADD SWAP7 SWAP1 SWAP7 MSTORE PUSH1 0x60 DUP8 ADD MSTORE POP POP POP POP PUSH1 0x80 DUP3 ADD MSTORE SWAP1 JUMP JUMPDEST PUSH1 0x1 PUSH1 0x1 PUSH1 0xA0 SHL SUB DUP6 AND CALLER EQ DUP1 PUSH2 0x3271 JUMPI POP PUSH2 0x3271 DUP6 CALLER PUSH2 0xACF JUMP JUMPDEST PUSH2 0x328D JUMPI PUSH1 0x40 MLOAD PUSH3 0x461BCD PUSH1 0xE5 SHL DUP2 MSTORE PUSH1 0x4 ADD PUSH2 0xBA5 SWAP1 PUSH2 0x5279 JUMP JUMPDEST PUSH2 0x126D DUP6 DUP6 DUP6 DUP6 DUP6 PUSH2 0x3FBA JUMP JUMPDEST PUSH1 0x1 PUSH1 0x1 PUSH1 0xA0 SHL SUB DUP4 AND CALLER EQ DUP1 PUSH2 0x32B6 JUMPI POP PUSH2 0x32B6 DUP4 CALLER PUSH2 0xACF JUMP JUMPDEST PUSH2 0x32D2 JUMPI PUSH1 0x40 MLOAD PUSH3 0x461BCD PUSH1 0xE5 SHL DUP2 MSTORE PUSH1 0x4 ADD PUSH2 0xBA5 SWAP1 PUSH2 0x5279 JUMP JUMPDEST PUSH2 0x1C7D DUP4 DUP4 DUP4 PUSH2 0x40D6 JUMP JUMPDEST PUSH2 0x3308 DUP5 DUP4 DUP4 PUSH1 0x40 MLOAD DUP1 PUSH1 0x40 ADD PUSH1 0x40 MSTORE DUP1 PUSH1 0x7 DUP2 MSTORE PUSH1 0x20 ADD PUSH7 0x5F63617374546F PUSH1 0xC8 SHL DUP2 MSTORE POP PUSH2 0x3EB6 JUMP JUMPDEST PUSH1 0x40 MLOAD PUSH4 0x3E9FD1E7 PUSH1 0xE1 SHL DUP2 MSTORE PUSH1 0x4 DUP2 ADD DUP5 SWAP1 MSTORE PUSH1 0x24 DUP2 ADD DUP4 SWAP1 MSTORE PUSH1 0x44 DUP2 ADD DUP3 SWAP1 MSTORE PUSH1 0x1 PUSH1 0x1 PUSH1 0xA0 SHL SUB DUP6 AND SWAP1 PUSH4 0x7D3FA3CE SWAP1 PUSH1 0x64 ADD PUSH1 0x0 PUSH1 0x40 MLOAD DUP1 DUP4 SUB DUP2 PUSH1 0x0 DUP8 DUP1 EXTCODESIZE ISZERO DUP1 ISZERO PUSH2 0x3358 JUMPI PUSH1 0x0 DUP1 REVERT JUMPDEST POP GAS CALL ISZERO DUP1 ISZERO PUSH2 0x336C JUMPI RETURNDATASIZE PUSH1 0x0 DUP1 RETURNDATACOPY RETURNDATASIZE PUSH1 0x0 REVERT JUMPDEST POP POP POP POP POP POP POP POP JUMP JUMPDEST PUSH1 0x1 PUSH1 0x1 PUSH1 0xA0 SHL SUB SWAP4 SWAP1 SWAP4 AND PUSH1 0x0 SWAP1 DUP2 MSTORE PUSH1 0xFF PUSH1 0x20 SWAP1 DUP2 MSTORE PUSH1 0x40 DUP1 DUP4 KECCAK256 SWAP5 DUP4 MSTORE SWAP4 DUP2 MSTORE DUP4 DUP3 KECCAK256 SWAP3 DUP3 MSTORE SWAP2 SWAP1 SWAP2 MSTORE KECCAK256 DUP1 SLOAD PUSH1 0xFF NOT AND SWAP2 ISZERO ISZERO SWAP2 SWAP1 SWAP2 OR SWAP1 SSTORE JUMP JUMPDEST DUP2 MLOAD DUP4 MLOAD EQ PUSH2 0x33D6 JUMPI PUSH1 0x40 MLOAD PUSH3 0x461BCD PUSH1 0xE5 SHL DUP2 MSTORE PUSH1 0x4 ADD PUSH2 0xBA5 SWAP1 PUSH2 0x54A8 JUMP JUMPDEST PUSH1 0x1 PUSH1 0x1 PUSH1 0xA0 SHL SUB DUP5 AND PUSH2 0x33FC JUMPI PUSH1 0x40 MLOAD PUSH3 0x461BCD PUSH1 0xE5 SHL DUP2 MSTORE PUSH1 0x4 ADD PUSH2 0xBA5 SWAP1 PUSH2 0x54F0 JUMP JUMPDEST CALLER PUSH1 0x0 JUMPDEST DUP5 MLOAD DUP2 LT ISZERO PUSH2 0x34E6 JUMPI PUSH1 0x0 DUP6 DUP3 DUP2 MLOAD DUP2 LT PUSH2 0x341D JUMPI PUSH2 0x341D PUSH2 0x5174 JUMP JUMPDEST PUSH1 0x20 MUL PUSH1 0x20 ADD ADD MLOAD SWAP1 POP PUSH1 0x0 DUP6 DUP4 DUP2 MLOAD DUP2 LT PUSH2 0x343B JUMPI PUSH2 0x343B PUSH2 0x5174 JUMP JUMPDEST PUSH1 0x20 SWAP1 DUP2 MUL SWAP2 SWAP1 SWAP2 ADD DUP2 ADD MLOAD PUSH1 0x0 DUP5 DUP2 MSTORE PUSH1 0x65 DUP4 MSTORE PUSH1 0x40 DUP1 DUP3 KECCAK256 PUSH1 0x1 PUSH1 0x1 PUSH1 0xA0 SHL SUB DUP15 AND DUP4 MSTORE SWAP1 SWAP4 MSTORE SWAP2 SWAP1 SWAP2 KECCAK256 SLOAD SWAP1 SWAP2 POP DUP2 DUP2 LT ISZERO PUSH2 0x348C JUMPI PUSH1 0x40 MLOAD PUSH3 0x461BCD PUSH1 0xE5 SHL DUP2 MSTORE PUSH1 0x4 ADD PUSH2 0xBA5 SWAP1 PUSH2 0x5535 JUMP JUMPDEST PUSH1 0x0 DUP4 DUP2 MSTORE PUSH1 0x65 PUSH1 0x20 SWAP1 DUP2 MSTORE PUSH1 0x40 DUP1 DUP4 KECCAK256 PUSH1 0x1 PUSH1 0x1 PUSH1 0xA0 SHL SUB DUP15 DUP2 AND DUP6 MSTORE SWAP3 MSTORE DUP1 DUP4 KECCAK256 DUP6 DUP6 SUB SWAP1 SSTORE SWAP1 DUP12 AND DUP3 MSTORE DUP2 KECCAK256 DUP1 SLOAD DUP5 SWAP3 SWAP1 PUSH2 0x34CB SWAP1 DUP5 SWAP1 PUSH2 0x5113 JUMP JUMPDEST SWAP3 POP POP DUP2 SWAP1 SSTORE POP POP POP POP DUP1 PUSH2 0x34DF SWAP1 PUSH2 0x5144 JUMP JUMPDEST SWAP1 POP PUSH2 0x3400 JUMP JUMPDEST POP DUP5 PUSH1 0x1 PUSH1 0x1 PUSH1 0xA0 SHL SUB AND DUP7 PUSH1 0x1 PUSH1 0x1 PUSH1 0xA0 SHL SUB AND DUP3 PUSH1 0x1 PUSH1 0x1 PUSH1 0xA0 SHL SUB AND PUSH32 0x4A39DC06D4C0DBC64B70AF90FD698A233A518AA5D07E595D983B8C0526C8F7FB DUP8 DUP8 PUSH1 0x40 MLOAD PUSH2 0x3536 SWAP3 SWAP2 SWAP1 PUSH2 0x557F JUMP JUMPDEST PUSH1 0x40 MLOAD DUP1 SWAP2 SUB SWAP1 LOG4 PUSH2 0x354C DUP2 DUP8 DUP8 DUP8 DUP8 DUP8 PUSH2 0x41CB JUMP JUMPDEST POP POP POP POP POP POP JUMP JUMPDEST PUSH1 0x0 SLOAD PUSH2 0x100 SWAP1 DIV PUSH1 0xFF AND PUSH2 0x357B JUMPI PUSH1 0x40 MLOAD PUSH3 0x461BCD PUSH1 0xE5 SHL DUP2 MSTORE PUSH1 0x4 ADD PUSH2 0xBA5 SWAP1 PUSH2 0x55A4 JUMP JUMPDEST PUSH2 0x3584 DUP2 PUSH2 0x4326 JUMP JUMPDEST POP JUMP JUMPDEST PUSH1 0x0 SLOAD PUSH2 0x100 SWAP1 DIV PUSH1 0xFF AND PUSH2 0x143B JUMPI PUSH1 0x40 MLOAD PUSH3 0x461BCD PUSH1 0xE5 SHL DUP2 MSTORE PUSH1 0x4 ADD PUSH2 0xBA5 SWAP1 PUSH2 0x55A4 JUMP JUMPDEST PUSH1 0x0 SLOAD PUSH2 0x100 SWAP1 DIV PUSH1 0xFF AND PUSH2 0x35D5 JUMPI PUSH1 0x40 MLOAD PUSH3 0x461BCD PUSH1 0xE5 SHL DUP2 MSTORE PUSH1 0x4 ADD PUSH2 0xBA5 SWAP1 PUSH2 0x55A4 JUMP JUMPDEST PUSH2 0x143B PUSH2 0x4356 JUMP JUMPDEST PUSH1 0x1 DUP3 ADD DUP1 SLOAD SWAP1 PUSH1 0x0 PUSH2 0x35EF DUP4 PUSH2 0x5144 JUMP JUMPDEST SWAP1 SWAP2 SSTORE POP POP PUSH1 0x0 SWAP1 DUP2 MSTORE PUSH1 0x2 SWAP1 SWAP2 ADD PUSH1 0x20 MSTORE PUSH1 0x40 SWAP1 KECCAK256 DUP1 SLOAD PUSH1 0xFF NOT AND PUSH1 0x1 OR SWAP1 SSTORE JUMP JUMPDEST PUSH1 0x1 PUSH1 0x1 PUSH1 0xA0 SHL SUB DUP4 AND PUSH2 0x3638 JUMPI PUSH1 0x40 MLOAD PUSH3 0x461BCD PUSH1 0xE5 SHL DUP2 MSTORE PUSH1 0x4 ADD PUSH2 0xBA5 SWAP1 PUSH2 0x55EF JUMP JUMPDEST DUP1 MLOAD DUP3 MLOAD EQ PUSH2 0x3659 JUMPI PUSH1 0x40 MLOAD PUSH3 0x461BCD PUSH1 0xE5 SHL DUP2 MSTORE PUSH1 0x4 ADD PUSH2 0xBA5 SWAP1 PUSH2 0x54A8 JUMP JUMPDEST PUSH1 0x40 DUP1 MLOAD PUSH1 0x20 DUP2 ADD SWAP1 SWAP2 MSTORE PUSH1 0x0 SWAP1 DUP2 SWAP1 MSTORE CALLER SWAP1 JUMPDEST DUP4 MLOAD DUP2 LT ISZERO PUSH2 0x3732 JUMPI PUSH1 0x0 DUP5 DUP3 DUP2 MLOAD DUP2 LT PUSH2 0x368A JUMPI PUSH2 0x368A PUSH2 0x5174 JUMP JUMPDEST PUSH1 0x20 MUL PUSH1 0x20 ADD ADD MLOAD SWAP1 POP PUSH1 0x0 DUP5 DUP4 DUP2 MLOAD DUP2 LT PUSH2 0x36A8 JUMPI PUSH2 0x36A8 PUSH2 0x5174 JUMP JUMPDEST PUSH1 0x20 SWAP1 DUP2 MUL SWAP2 SWAP1 SWAP2 ADD DUP2 ADD MLOAD PUSH1 0x0 DUP5 DUP2 MSTORE PUSH1 0x65 DUP4 MSTORE PUSH1 0x40 DUP1 DUP3 KECCAK256 PUSH1 0x1 PUSH1 0x1 PUSH1 0xA0 SHL SUB DUP13 AND DUP4 MSTORE SWAP1 SWAP4 MSTORE SWAP2 SWAP1 SWAP2 KECCAK256 SLOAD SWAP1 SWAP2 POP DUP2 DUP2 LT ISZERO PUSH2 0x36F9 JUMPI PUSH1 0x40 MLOAD PUSH3 0x461BCD PUSH1 0xE5 SHL DUP2 MSTORE PUSH1 0x4 ADD PUSH2 0xBA5 SWAP1 PUSH2 0x5632 JUMP JUMPDEST PUSH1 0x0 SWAP3 DUP4 MSTORE PUSH1 0x65 PUSH1 0x20 SWAP1 DUP2 MSTORE PUSH1 0x40 DUP1 DUP6 KECCAK256 PUSH1 0x1 PUSH1 0x1 PUSH1 0xA0 SHL SUB DUP12 AND DUP7 MSTORE SWAP1 SWAP2 MSTORE SWAP1 SWAP3 KECCAK256 SWAP2 SUB SWAP1 SSTORE DUP1 PUSH2 0x372A DUP2 PUSH2 0x5144 JUMP JUMPDEST SWAP2 POP POP PUSH2 0x366D JUMP JUMPDEST POP PUSH1 0x0 PUSH1 0x1 PUSH1 0x1 PUSH1 0xA0 SHL SUB AND DUP5 PUSH1 0x1 PUSH1 0x1 PUSH1 0xA0 SHL SUB AND DUP3 PUSH1 0x1 PUSH1 0x1 PUSH1 0xA0 SHL SUB AND PUSH32 0x4A39DC06D4C0DBC64B70AF90FD698A233A518AA5D07E595D983B8C0526C8F7FB DUP7 DUP7 PUSH1 0x40 MLOAD PUSH2 0x3783 SWAP3 SWAP2 SWAP1 PUSH2 0x557F JUMP JUMPDEST PUSH1 0x40 MLOAD DUP1 SWAP2 SUB SWAP1 LOG4 PUSH1 0x40 DUP1 MLOAD PUSH1 0x20 DUP2 ADD SWAP1 SWAP2 MSTORE PUSH1 0x0 SWAP1 MSTORE PUSH2 0xDC1 JUMP JUMPDEST DUP1 MLOAD PUSH1 0x0 SWAP1 PUSH2 0x37AF JUMPI POP DUP2 PUSH2 0x1D9E JUMP JUMPDEST PUSH1 0x60 DUP3 ADD MLOAD ISZERO PUSH2 0x3852 JUMPI PUSH1 0x0 PUSH2 0x37C7 DUP7 DUP7 DUP7 DUP7 PUSH2 0x4384 JUMP JUMPDEST PUSH1 0x40 MLOAD PUSH4 0x6F9A6E91 PUSH1 0xE1 SHL DUP2 MSTORE PUSH1 0x4 DUP2 ADD DUP8 SWAP1 MSTORE SWAP1 SWAP2 POP PUSH1 0x0 SWAP1 PUSH1 0x1 PUSH1 0x1 PUSH1 0xA0 SHL SUB DUP9 AND SWAP1 PUSH4 0xDF34DD22 SWAP1 PUSH1 0x24 ADD PUSH1 0x20 PUSH1 0x40 MLOAD DUP1 DUP4 SUB DUP2 PUSH1 0x0 DUP8 GAS CALL ISZERO DUP1 ISZERO PUSH2 0x3814 JUMPI RETURNDATASIZE PUSH1 0x0 DUP1 RETURNDATACOPY RETURNDATASIZE PUSH1 0x0 REVERT JUMPDEST POP POP POP POP PUSH1 0x40 MLOAD RETURNDATASIZE PUSH1 0x1F NOT PUSH1 0x1F DUP3 ADD AND DUP3 ADD DUP1 PUSH1 0x40 MSTORE POP DUP2 ADD SWAP1 PUSH2 0x3838 SWAP2 SWAP1 PUSH2 0x512B JUMP JUMPDEST SWAP1 POP DUP1 PUSH2 0x3845 DUP7 DUP5 PUSH2 0x5113 JUMP JUMPDEST GT ISZERO PUSH2 0x384F JUMPI DUP1 SWAP5 POP JUMPDEST POP POP JUMPDEST PUSH1 0x80 DUP3 ADD MLOAD ISZERO PUSH2 0x388C JUMPI PUSH1 0x0 PUSH2 0x386A DUP7 DUP7 DUP7 DUP7 PUSH2 0x4439 JUMP JUMPDEST SWAP1 POP DUP4 DUP2 GT ISZERO PUSH2 0x387D JUMPI PUSH1 0x0 SWAP4 POP PUSH2 0x388A JUMP JUMPDEST PUSH2 0x3887 DUP2 DUP6 PUSH2 0x515D JUMP JUMPDEST SWAP4 POP JUMPDEST POP JUMPDEST POP SWAP1 SWAP4 SWAP3 POP POP POP JUMP JUMPDEST PUSH1 0x1 PUSH1 0x1 PUSH1 0xA0 SHL SUB DUP4 AND PUSH1 0x0 SWAP1 DUP2 MSTORE PUSH2 0x101 PUSH1 0x20 SWAP1 DUP2 MSTORE PUSH1 0x40 DUP1 DUP4 KECCAK256 DUP6 DUP5 MSTORE SWAP1 SWAP2 MSTORE DUP1 DUP3 KECCAK256 DUP2 MLOAD PUSH1 0xE0 DUP2 ADD DUP4 MSTORE DUP5 SWAP3 DUP5 SWAP3 SWAP1 DUP3 SWAP1 DUP2 ADD DUP3 PUSH1 0x5 DUP7 DUP4 JUMPDEST DUP3 DUP3 LT ISZERO PUSH2 0x39A7 JUMPI PUSH1 0x40 DUP1 MLOAD PUSH2 0x1E0 DUP2 ADD DUP3 MSTORE PUSH1 0xE DUP5 MUL DUP7 ADD DUP1 SLOAD PUSH1 0xFF DUP2 AND ISZERO ISZERO DUP4 MSTORE PUSH1 0x1 PUSH1 0x1 PUSH1 0xA0 SHL SUB PUSH2 0x100 SWAP2 DUP3 SWAP1 DIV AND PUSH1 0x20 DUP1 DUP6 ADD SWAP2 SWAP1 SWAP2 MSTORE PUSH1 0x1 DUP1 DUP5 ADD SLOAD SWAP6 DUP6 ADD SWAP6 SWAP1 SWAP6 MSTORE PUSH1 0x2 DUP4 ADD SLOAD PUSH1 0x60 DUP6 ADD MSTORE PUSH1 0x3 DUP4 ADD SLOAD PUSH1 0x80 DUP6 ADD MSTORE PUSH1 0x4 DUP4 ADD SLOAD PUSH1 0xA0 DUP6 ADD MSTORE PUSH1 0x5 DUP4 ADD SLOAD PUSH1 0xC0 DUP6 ADD MSTORE PUSH1 0x6 DUP4 ADD SLOAD PUSH1 0xE0 DUP6 ADD MSTORE PUSH1 0x7 DUP4 ADD SLOAD SWAP2 DUP5 ADD SWAP2 SWAP1 SWAP2 MSTORE PUSH1 0x8 DUP3 ADD SLOAD PUSH2 0x120 DUP5 ADD MSTORE PUSH1 0x9 DUP3 ADD SLOAD PUSH2 0x140 DUP5 ADD MSTORE PUSH1 0xA DUP3 ADD SLOAD PUSH2 0x160 DUP5 ADD MSTORE PUSH1 0xB DUP3 ADD SLOAD PUSH2 0x180 DUP5 ADD MSTORE PUSH1 0xC DUP3 ADD SLOAD PUSH2 0x1A0 DUP5 ADD MSTORE PUSH1 0xD SWAP1 SWAP2 ADD SLOAD PUSH2 0x1C0 DUP4 ADD MSTORE SWAP1 DUP4 MSTORE SWAP3 ADD SWAP2 ADD PUSH2 0x38D1 JUMP JUMPDEST POP POP POP SWAP1 DUP3 MSTORE POP PUSH1 0x40 DUP1 MLOAD PUSH1 0xA0 DUP2 ADD SWAP1 SWAP2 MSTORE PUSH1 0x20 SWAP1 SWAP2 ADD SWAP1 PUSH1 0x46 DUP4 ADD PUSH1 0x5 PUSH1 0x0 DUP4 JUMPDEST DUP3 DUP3 LT ISZERO PUSH2 0x3A9F JUMPI PUSH1 0x40 DUP1 MLOAD PUSH2 0x1E0 DUP2 ADD DUP3 MSTORE PUSH1 0xE DUP5 MUL DUP7 ADD DUP1 SLOAD PUSH1 0xFF DUP2 AND ISZERO ISZERO DUP4 MSTORE PUSH1 0x1 PUSH1 0x1 PUSH1 0xA0 SHL SUB PUSH2 0x100 SWAP2 DUP3 SWAP1 DIV AND PUSH1 0x20 DUP1 DUP6 ADD SWAP2 SWAP1 SWAP2 MSTORE PUSH1 0x1 DUP1 DUP5 ADD SLOAD SWAP6 DUP6 ADD SWAP6 SWAP1 SWAP6 MSTORE PUSH1 0x2 DUP4 ADD SLOAD PUSH1 0x60 DUP6 ADD MSTORE PUSH1 0x3 DUP4 ADD SLOAD PUSH1 0x80 DUP6 ADD MSTORE PUSH1 0x4 DUP4 ADD SLOAD PUSH1 0xA0 DUP6 ADD MSTORE PUSH1 0x5 DUP4 ADD SLOAD PUSH1 0xC0 DUP6 ADD MSTORE PUSH1 0x6 DUP4 ADD SLOAD PUSH1 0xE0 DUP6 ADD MSTORE PUSH1 0x7 DUP4 ADD SLOAD SWAP2 DUP5 ADD SWAP2 SWAP1 SWAP2 MSTORE PUSH1 0x8 DUP3 ADD SLOAD PUSH2 0x120 DUP5 ADD MSTORE PUSH1 0x9 DUP3 ADD SLOAD PUSH2 0x140 DUP5 ADD MSTORE PUSH1 0xA DUP3 ADD SLOAD PUSH2 0x160 DUP5 ADD MSTORE PUSH1 0xB DUP3 ADD SLOAD PUSH2 0x180 DUP5 ADD MSTORE PUSH1 0xC DUP3 ADD SLOAD PUSH2 0x1A0 DUP5 ADD MSTORE PUSH1 0xD SWAP1 SWAP2 ADD SLOAD PUSH2 0x1C0 DUP4 ADD MSTORE SWAP1 DUP4 MSTORE SWAP3 ADD SWAP2 ADD PUSH2 0x39C9 JUMP JUMPDEST POP POP POP SWAP2 MSTORE POP SWAP1 SWAP2 POP PUSH1 0x1 SWAP1 POP JUMPDEST PUSH1 0x5 DUP2 LT ISZERO PUSH2 0x3B13 JUMPI PUSH2 0x3ADC DUP8 DUP8 DUP6 DUP6 PUSH1 0x0 ADD MLOAD DUP6 PUSH1 0x5 DUP2 LT PUSH2 0x3AD2 JUMPI PUSH2 0x3AD2 PUSH2 0x5174 JUMP JUMPDEST PUSH1 0x20 MUL ADD MLOAD PUSH2 0x379F JUMP JUMPDEST SWAP3 POP PUSH2 0x3B01 DUP3 PUSH1 0x0 ADD MLOAD DUP3 PUSH1 0x5 DUP2 LT PUSH2 0x3AF7 JUMPI PUSH2 0x3AF7 PUSH2 0x5174 JUMP JUMPDEST PUSH1 0x20 MUL ADD MLOAD PUSH2 0x44CD JUMP JUMPDEST DUP1 PUSH2 0x3B0B DUP2 PUSH2 0x5144 JUMP JUMPDEST SWAP2 POP POP PUSH2 0x3AAD JUMP JUMPDEST POP PUSH1 0x1 JUMPDEST PUSH1 0x5 DUP2 LT ISZERO PUSH2 0x3B69 JUMPI PUSH2 0x3B3C DUP8 DUP8 DUP6 DUP6 PUSH1 0x20 ADD MLOAD DUP6 PUSH1 0x5 DUP2 LT PUSH2 0x3AD2 JUMPI PUSH2 0x3AD2 PUSH2 0x5174 JUMP JUMPDEST SWAP3 POP PUSH2 0x3B57 DUP3 PUSH1 0x20 ADD MLOAD DUP3 PUSH1 0x5 DUP2 LT PUSH2 0x3AF7 JUMPI PUSH2 0x3AF7 PUSH2 0x5174 JUMP JUMPDEST DUP1 PUSH2 0x3B61 DUP2 PUSH2 0x5144 JUMP JUMPDEST SWAP2 POP POP PUSH2 0x3B17 JUMP JUMPDEST POP SWAP1 SWAP6 SWAP5 POP POP POP POP POP JUMP JUMPDEST PUSH1 0x1 PUSH1 0x1 PUSH1 0xA0 SHL SUB DUP5 AND PUSH1 0x0 SWAP1 DUP2 MSTORE PUSH2 0x100 PUSH1 0x20 SWAP1 DUP2 MSTORE PUSH1 0x40 DUP1 DUP4 KECCAK256 DUP7 DUP5 MSTORE SWAP1 SWAP2 MSTORE DUP2 KECCAK256 SLOAD DUP2 SWAP1 DUP2 SUB PUSH2 0x3BD0 JUMPI POP POP PUSH1 0x1 PUSH1 0x1 PUSH1 0xA0 SHL SUB DUP5 AND PUSH1 0x0 SWAP1 DUP2 MSTORE PUSH2 0x100 PUSH1 0x20 SWAP1 DUP2 MSTORE PUSH1 0x40 DUP1 DUP4 KECCAK256 DUP7 DUP5 MSTORE SWAP1 SWAP2 MSTORE SWAP1 KECCAK256 TIMESTAMP SWAP1 SSTORE DUP2 PUSH2 0x1D9E JUMP JUMPDEST PUSH1 0x1 PUSH1 0x1 PUSH1 0xA0 SHL SUB DUP7 AND PUSH1 0x0 SWAP1 DUP2 MSTORE PUSH2 0x100 PUSH1 0x20 SWAP1 DUP2 MSTORE PUSH1 0x40 DUP1 DUP4 KECCAK256 DUP9 DUP5 MSTORE SWAP1 SWAP2 MSTORE DUP2 KECCAK256 SLOAD PUSH2 0x3BFF SWAP1 TIMESTAMP PUSH2 0x515D JUMP JUMPDEST PUSH1 0x1 PUSH1 0x1 PUSH1 0xA0 SHL SUB DUP9 AND PUSH1 0x0 DUP2 DUP2 MSTORE PUSH2 0x100 PUSH1 0x20 SWAP1 DUP2 MSTORE PUSH1 0x40 DUP1 DUP4 KECCAK256 DUP12 DUP5 MSTORE SWAP1 SWAP2 MSTORE SWAP1 DUP2 SWAP1 KECCAK256 TIMESTAMP SWAP1 SSTORE MLOAD PUSH4 0x6BFC324F PUSH1 0xE0 SHL DUP2 MSTORE PUSH1 0x4 DUP2 ADD DUP10 SWAP1 MSTORE PUSH1 0x87 PUSH1 0x24 DUP3 ADD MSTORE SWAP2 SWAP3 POP SWAP1 PUSH4 0x6BFC324F SWAP1 PUSH1 0x44 ADD PUSH1 0x20 PUSH1 0x40 MLOAD DUP1 DUP4 SUB DUP2 DUP7 GAS STATICCALL ISZERO DUP1 ISZERO PUSH2 0x3C6B JUMPI RETURNDATASIZE PUSH1 0x0 DUP1 RETURNDATACOPY RETURNDATASIZE PUSH1 0x0 REVERT JUMPDEST POP POP POP POP PUSH1 0x40 MLOAD RETURNDATASIZE PUSH1 0x1F NOT PUSH1 0x1F DUP3 ADD AND DUP3 ADD DUP1 PUSH1 0x40 MSTORE POP DUP2 ADD SWAP1 PUSH2 0x3C8F SWAP2 SWAP1 PUSH2 0x50E0 JUMP JUMPDEST DUP1 PUSH2 0x3D05 JUMPI POP PUSH1 0x40 MLOAD PUSH4 0x6BFC324F PUSH1 0xE0 SHL DUP2 MSTORE PUSH1 0x4 DUP2 ADD DUP8 SWAP1 MSTORE PUSH1 0xF PUSH1 0x24 DUP3 ADD MSTORE PUSH1 0x1 PUSH1 0x1 PUSH1 0xA0 SHL SUB DUP9 AND SWAP1 PUSH4 0x6BFC324F SWAP1 PUSH1 0x44 ADD PUSH1 0x20 PUSH1 0x40 MLOAD DUP1 DUP4 SUB DUP2 DUP7 GAS STATICCALL ISZERO DUP1 ISZERO PUSH2 0x3CE1 JUMPI RETURNDATASIZE PUSH1 0x0 DUP1 RETURNDATACOPY RETURNDATASIZE PUSH1 0x0 REVERT JUMPDEST POP POP POP POP PUSH1 0x40 MLOAD RETURNDATASIZE PUSH1 0x1F NOT PUSH1 0x1F DUP3 ADD AND DUP3 ADD DUP1 PUSH1 0x40 MSTORE POP DUP2 ADD SWAP1 PUSH2 0x3D05 SWAP2 SWAP1 PUSH2 0x50E0 JUMP JUMPDEST DUP1 PUSH2 0x3D7B JUMPI POP PUSH1 0x40 MLOAD PUSH4 0x6BFC324F PUSH1 0xE0 SHL DUP2 MSTORE PUSH1 0x4 DUP2 ADD DUP8 SWAP1 MSTORE PUSH1 0x69 PUSH1 0x24 DUP3 ADD MSTORE PUSH1 0x1 PUSH1 0x1 PUSH1 0xA0 SHL SUB DUP9 AND SWAP1 PUSH4 0x6BFC324F SWAP1 PUSH1 0x44 ADD PUSH1 0x20 PUSH1 0x40 MLOAD DUP1 DUP4 SUB DUP2 DUP7 GAS STATICCALL ISZERO DUP1 ISZERO PUSH2 0x3D57 JUMPI RETURNDATASIZE PUSH1 0x0 DUP1 RETURNDATACOPY RETURNDATASIZE PUSH1 0x0 REVERT JUMPDEST POP POP POP POP PUSH1 0x40 MLOAD RETURNDATASIZE PUSH1 0x1F NOT PUSH1 0x1F DUP3 ADD AND DUP3 ADD DUP1 PUSH1 0x40 MSTORE POP DUP2 ADD SWAP1 PUSH2 0x3D7B SWAP2 SWAP1 PUSH2 0x50E0 JUMP JUMPDEST ISZERO PUSH2 0x3DBC JUMPI DUP1 PUSH8 0xDE0B6B3A7640000 PUSH2 0x3D9B DUP7 PUSH7 0x11C37937E08000 PUSH2 0x51D5 JUMP JUMPDEST PUSH2 0x3DA5 SWAP2 SWAP1 PUSH2 0x5676 JUMP JUMPDEST PUSH2 0x3DAF SWAP2 SWAP1 PUSH2 0x51D5 JUMP JUMPDEST PUSH2 0x3DB9 SWAP1 DUP7 PUSH2 0x5113 JUMP JUMPDEST SWAP2 POP JUMPDEST DUP4 DUP3 GT ISZERO PUSH2 0x3DCE JUMPI DUP4 SWAP3 POP POP POP PUSH2 0x1D9E JUMP JUMPDEST POP SWAP1 POP PUSH2 0x1D9E JUMP JUMPDEST DUP2 PUSH1 0x1 PUSH1 0x1 PUSH1 0xA0 SHL SUB AND DUP4 PUSH1 0x1 PUSH1 0x1 PUSH1 0xA0 SHL SUB AND SUB PUSH2 0x3E49 JUMPI PUSH1 0x40 MLOAD PUSH3 0x461BCD PUSH1 0xE5 SHL DUP2 MSTORE PUSH1 0x20 PUSH1 0x4 DUP3 ADD MSTORE PUSH1 0x29 PUSH1 0x24 DUP3 ADD MSTORE PUSH32 0x455243313135353A2073657474696E6720617070726F76616C20737461747573 PUSH1 0x44 DUP3 ADD MSTORE PUSH9 0x103337B91039B2B633 PUSH1 0xB9 SHL PUSH1 0x64 DUP3 ADD MSTORE PUSH1 0x84 ADD PUSH2 0xBA5 JUMP JUMPDEST PUSH1 0x1 PUSH1 0x1 PUSH1 0xA0 SHL SUB DUP4 DUP2 AND PUSH1 0x0 DUP2 DUP2 MSTORE PUSH1 0x66 PUSH1 0x20 SWAP1 DUP2 MSTORE PUSH1 0x40 DUP1 DUP4 KECCAK256 SWAP5 DUP8 AND DUP1 DUP5 MSTORE SWAP5 DUP3 MSTORE SWAP2 DUP3 SWAP1 KECCAK256 DUP1 SLOAD PUSH1 0xFF NOT AND DUP7 ISZERO ISZERO SWAP1 DUP2 OR SWAP1 SWAP2 SSTORE SWAP2 MLOAD SWAP2 DUP3 MSTORE PUSH32 0x17307EAB39AB6107E8899845AD3D59BD9653F200F220920489CA2B5937696C31 SWAP2 ADD PUSH1 0x40 MLOAD DUP1 SWAP2 SUB SWAP1 LOG3 POP POP POP JUMP JUMPDEST PUSH1 0x1 PUSH1 0x1 PUSH1 0xA0 SHL SUB DUP5 AND PUSH2 0x3F16 JUMPI PUSH1 0x40 MLOAD PUSH3 0x461BCD PUSH1 0xE5 SHL DUP2 MSTORE PUSH1 0x20 PUSH1 0x4 DUP3 ADD MSTORE PUSH1 0x21 PUSH1 0x24 DUP3 ADD MSTORE PUSH32 0x455243313135353A206D696E7420746F20746865207A65726F20616464726573 PUSH1 0x44 DUP3 ADD MSTORE PUSH1 0x73 PUSH1 0xF8 SHL PUSH1 0x64 DUP3 ADD MSTORE PUSH1 0x84 ADD PUSH2 0xBA5 JUMP JUMPDEST CALLER PUSH1 0x0 PUSH2 0x3F22 DUP6 PUSH2 0x455F JUMP JUMPDEST SWAP1 POP PUSH1 0x0 PUSH2 0x3F2F DUP6 PUSH2 0x455F JUMP JUMPDEST SWAP1 POP PUSH1 0x0 DUP7 DUP2 MSTORE PUSH1 0x65 PUSH1 0x20 SWAP1 DUP2 MSTORE PUSH1 0x40 DUP1 DUP4 KECCAK256 PUSH1 0x1 PUSH1 0x1 PUSH1 0xA0 SHL SUB DUP12 AND DUP5 MSTORE SWAP1 SWAP2 MSTORE DUP2 KECCAK256 DUP1 SLOAD DUP8 SWAP3 SWAP1 PUSH2 0x3F63 SWAP1 DUP5 SWAP1 PUSH2 0x5113 JUMP JUMPDEST SWAP1 SWAP2 SSTORE POP POP PUSH1 0x40 DUP1 MLOAD DUP8 DUP2 MSTORE PUSH1 0x20 DUP2 ADD DUP8 SWAP1 MSTORE PUSH1 0x1 PUSH1 0x1 PUSH1 0xA0 SHL SUB DUP1 DUP11 AND SWAP3 PUSH1 0x0 SWAP3 SWAP2 DUP8 AND SWAP2 PUSH1 0x0 DUP1 MLOAD PUSH1 0x20 PUSH2 0x582D DUP4 CODECOPY DUP2 MLOAD SWAP2 MSTORE SWAP2 ADD PUSH1 0x40 MLOAD DUP1 SWAP2 SUB SWAP1 LOG4 PUSH2 0x3FB1 DUP4 PUSH1 0x0 DUP10 DUP10 DUP10 DUP10 PUSH2 0x45AA JUMP JUMPDEST POP POP POP POP POP POP POP JUMP JUMPDEST PUSH1 0x1 PUSH1 0x1 PUSH1 0xA0 SHL SUB DUP5 AND PUSH2 0x3FE0 JUMPI PUSH1 0x40 MLOAD PUSH3 0x461BCD PUSH1 0xE5 SHL DUP2 MSTORE PUSH1 0x4 ADD PUSH2 0xBA5 SWAP1 PUSH2 0x54F0 JUMP JUMPDEST CALLER PUSH1 0x0 PUSH2 0x3FEC DUP6 PUSH2 0x455F JUMP JUMPDEST SWAP1 POP PUSH1 0x0 PUSH2 0x3FF9 DUP6 PUSH2 0x455F JUMP JUMPDEST SWAP1 POP PUSH1 0x0 DUP7 DUP2 MSTORE PUSH1 0x65 PUSH1 0x20 SWAP1 DUP2 MSTORE PUSH1 0x40 DUP1 DUP4 KECCAK256 PUSH1 0x1 PUSH1 0x1 PUSH1 0xA0 SHL SUB DUP13 AND DUP5 MSTORE SWAP1 SWAP2 MSTORE SWAP1 KECCAK256 SLOAD DUP6 DUP2 LT ISZERO PUSH2 0x403E JUMPI PUSH1 0x40 MLOAD PUSH3 0x461BCD PUSH1 0xE5 SHL DUP2 MSTORE PUSH1 0x4 ADD PUSH2 0xBA5 SWAP1 PUSH2 0x5535 JUMP JUMPDEST PUSH1 0x0 DUP8 DUP2 MSTORE PUSH1 0x65 PUSH1 0x20 SWAP1 DUP2 MSTORE PUSH1 0x40 DUP1 DUP4 KECCAK256 PUSH1 0x1 PUSH1 0x1 PUSH1 0xA0 SHL SUB DUP14 DUP2 AND DUP6 MSTORE SWAP3 MSTORE DUP1 DUP4 KECCAK256 DUP10 DUP6 SUB SWAP1 SSTORE SWAP1 DUP11 AND DUP3 MSTORE DUP2 KECCAK256 DUP1 SLOAD DUP9 SWAP3 SWAP1 PUSH2 0x407D SWAP1 DUP5 SWAP1 PUSH2 0x5113 JUMP JUMPDEST SWAP1 SWAP2 SSTORE POP POP PUSH1 0x40 DUP1 MLOAD DUP9 DUP2 MSTORE PUSH1 0x20 DUP2 ADD DUP9 SWAP1 MSTORE PUSH1 0x1 PUSH1 0x1 PUSH1 0xA0 SHL SUB DUP1 DUP12 AND SWAP3 DUP13 DUP3 AND SWAP3 SWAP2 DUP9 AND SWAP2 PUSH1 0x0 DUP1 MLOAD PUSH1 0x20 PUSH2 0x582D DUP4 CODECOPY DUP2 MLOAD SWAP2 MSTORE SWAP2 ADD PUSH1 0x40 MLOAD DUP1 SWAP2 SUB SWAP1 LOG4 PUSH2 0x40CB DUP5 DUP11 DUP11 DUP11 DUP11 DUP11 PUSH2 0x45AA JUMP JUMPDEST POP POP POP POP POP POP POP POP POP JUMP JUMPDEST PUSH1 0x1 PUSH1 0x1 PUSH1 0xA0 SHL SUB DUP4 AND PUSH2 0x40FC JUMPI PUSH1 0x40 MLOAD PUSH3 0x461BCD PUSH1 0xE5 SHL DUP2 MSTORE PUSH1 0x4 ADD PUSH2 0xBA5 SWAP1 PUSH2 0x55EF JUMP JUMPDEST CALLER PUSH1 0x0 PUSH2 0x4108 DUP5 PUSH2 0x455F JUMP JUMPDEST SWAP1 POP PUSH1 0x0 PUSH2 0x4115 DUP5 PUSH2 0x455F JUMP JUMPDEST PUSH1 0x40 DUP1 MLOAD PUSH1 0x20 DUP1 DUP3 ADD DUP4 MSTORE PUSH1 0x0 SWAP2 DUP3 SWAP1 MSTORE DUP9 DUP3 MSTORE PUSH1 0x65 DUP2 MSTORE DUP3 DUP3 KECCAK256 PUSH1 0x1 PUSH1 0x1 PUSH1 0xA0 SHL SUB DUP12 AND DUP4 MSTORE SWAP1 MSTORE KECCAK256 SLOAD SWAP1 SWAP2 POP DUP5 DUP2 LT ISZERO PUSH2 0x4163 JUMPI PUSH1 0x40 MLOAD PUSH3 0x461BCD PUSH1 0xE5 SHL DUP2 MSTORE PUSH1 0x4 ADD PUSH2 0xBA5 SWAP1 PUSH2 0x5632 JUMP JUMPDEST PUSH1 0x0 DUP7 DUP2 MSTORE PUSH1 0x65 PUSH1 0x20 SWAP1 DUP2 MSTORE PUSH1 0x40 DUP1 DUP4 KECCAK256 PUSH1 0x1 PUSH1 0x1 PUSH1 0xA0 SHL SUB DUP12 DUP2 AND DUP1 DUP7 MSTORE SWAP2 DUP5 MSTORE DUP3 DUP6 KECCAK256 DUP11 DUP8 SUB SWAP1 SSTORE DUP3 MLOAD DUP12 DUP2 MSTORE SWAP4 DUP5 ADD DUP11 SWAP1 MSTORE SWAP1 SWAP3 SWAP1 DUP9 AND SWAP2 PUSH1 0x0 DUP1 MLOAD PUSH1 0x20 PUSH2 0x582D DUP4 CODECOPY DUP2 MLOAD SWAP2 MSTORE SWAP2 ADD PUSH1 0x40 MLOAD DUP1 SWAP2 SUB SWAP1 LOG4 PUSH1 0x40 DUP1 MLOAD PUSH1 0x20 DUP2 ADD SWAP1 SWAP2 MSTORE PUSH1 0x0 SWAP1 MSTORE PUSH2 0x3FB1 JUMP JUMPDEST PUSH1 0x1 PUSH1 0x1 PUSH1 0xA0 SHL SUB DUP5 AND EXTCODESIZE ISZERO PUSH2 0x354C JUMPI PUSH1 0x40 MLOAD PUSH4 0xBC197C81 PUSH1 0xE0 SHL DUP2 MSTORE PUSH1 0x1 PUSH1 0x1 PUSH1 0xA0 SHL SUB DUP6 AND SWAP1 PUSH4 0xBC197C81 SWAP1 PUSH2 0x420F SWAP1 DUP10 SWAP1 DUP10 SWAP1 DUP9 SWAP1 DUP9 SWAP1 DUP9 SWAP1 PUSH1 0x4 ADD PUSH2 0x568A JUMP JUMPDEST PUSH1 0x20 PUSH1 0x40 MLOAD DUP1 DUP4 SUB DUP2 PUSH1 0x0 DUP8 GAS CALL SWAP3 POP POP POP DUP1 ISZERO PUSH2 0x424A JUMPI POP PUSH1 0x40 DUP1 MLOAD PUSH1 0x1F RETURNDATASIZE SWAP1 DUP2 ADD PUSH1 0x1F NOT AND DUP3 ADD SWAP1 SWAP3 MSTORE PUSH2 0x4247 SWAP2 DUP2 ADD SWAP1 PUSH2 0x56E8 JUMP JUMPDEST PUSH1 0x1 JUMPDEST PUSH2 0x42F6 JUMPI PUSH2 0x4256 PUSH2 0x5705 JUMP JUMPDEST DUP1 PUSH4 0x8C379A0 SUB PUSH2 0x428F JUMPI POP PUSH2 0x426A PUSH2 0x5721 JUMP JUMPDEST DUP1 PUSH2 0x4275 JUMPI POP PUSH2 0x4291 JUMP JUMPDEST DUP1 PUSH1 0x40 MLOAD PUSH3 0x461BCD PUSH1 0xE5 SHL DUP2 MSTORE PUSH1 0x4 ADD PUSH2 0xBA5 SWAP2 SWAP1 PUSH2 0x4861 JUMP JUMPDEST POP JUMPDEST PUSH1 0x40 MLOAD PUSH3 0x461BCD PUSH1 0xE5 SHL DUP2 MSTORE PUSH1 0x20 PUSH1 0x4 DUP3 ADD MSTORE PUSH1 0x34 PUSH1 0x24 DUP3 ADD MSTORE PUSH32 0x455243313135353A207472616E7366657220746F206E6F6E2045524331313535 PUSH1 0x44 DUP3 ADD MSTORE PUSH20 0x2932B1B2B4BB32B91034B6B83632B6B2B73A32B9 PUSH1 0x61 SHL PUSH1 0x64 DUP3 ADD MSTORE PUSH1 0x84 ADD PUSH2 0xBA5 JUMP JUMPDEST PUSH1 0x1 PUSH1 0x1 PUSH1 0xE0 SHL SUB NOT DUP2 AND PUSH4 0xBC197C81 PUSH1 0xE0 SHL EQ PUSH2 0x3FB1 JUMPI PUSH1 0x40 MLOAD PUSH3 0x461BCD PUSH1 0xE5 SHL DUP2 MSTORE PUSH1 0x4 ADD PUSH2 0xBA5 SWAP1 PUSH2 0x579F JUMP JUMPDEST PUSH1 0x0 SLOAD PUSH2 0x100 SWAP1 DIV PUSH1 0xFF AND PUSH2 0x434D JUMPI PUSH1 0x40 MLOAD PUSH3 0x461BCD PUSH1 0xE5 SHL DUP2 MSTORE PUSH1 0x4 ADD PUSH2 0xBA5 SWAP1 PUSH2 0x55A4 JUMP JUMPDEST PUSH2 0x3584 DUP2 PUSH2 0x4665 JUMP JUMPDEST PUSH1 0x0 SLOAD PUSH2 0x100 SWAP1 DIV PUSH1 0xFF AND PUSH2 0x437D JUMPI PUSH1 0x40 MLOAD PUSH3 0x461BCD PUSH1 0xE5 SHL DUP2 MSTORE PUSH1 0x4 ADD PUSH2 0xBA5 SWAP1 PUSH2 0x55A4 JUMP JUMPDEST PUSH1 0x1 PUSH1 0xC9 SSTORE JUMP JUMPDEST PUSH2 0x160 DUP2 ADD MLOAD PUSH2 0x180 DUP3 ADD MLOAD PUSH1 0x0 SWAP2 DUP3 SWAP2 TIMESTAMP SWAP2 PUSH2 0x43A0 SWAP2 PUSH2 0x51D5 JUMP JUMPDEST DUP5 PUSH2 0x1A0 ADD MLOAD PUSH2 0x43B0 SWAP2 SWAP1 PUSH2 0x5113 JUMP JUMPDEST GT PUSH2 0x4430 JUMPI PUSH1 0x0 DUP4 PUSH2 0x1A0 ADD MLOAD TIMESTAMP PUSH2 0x43C8 SWAP2 SWAP1 PUSH2 0x515D JUMP JUMPDEST SWAP1 POP PUSH1 0x0 DUP5 PUSH2 0x160 ADD MLOAD DUP3 PUSH2 0x43DD SWAP2 SWAP1 PUSH2 0x5676 JUMP JUMPDEST SWAP1 POP DUP5 PUSH2 0x1C0 ADD MLOAD DUP2 LT PUSH2 0x43F3 JUMPI POP PUSH2 0x1C0 DUP5 ADD MLOAD JUMPDEST PUSH1 0x0 DUP2 DUP7 PUSH2 0x180 ADD MLOAD PUSH2 0x4406 SWAP2 SWAP1 PUSH2 0x515D JUMP JUMPDEST SWAP1 POP DUP1 DUP7 PUSH1 0x60 ADD MLOAD PUSH2 0x4418 SWAP2 SWAP1 PUSH2 0x51D5 JUMP JUMPDEST PUSH2 0x4422 SWAP1 DUP6 PUSH2 0x5113 JUMP JUMPDEST PUSH2 0x180 DUP8 ADD SWAP3 SWAP1 SWAP3 MSTORE POP SWAP2 POP POP JUMPDEST SWAP6 SWAP5 POP POP POP POP POP JUMP JUMPDEST PUSH2 0x160 DUP2 ADD MLOAD PUSH2 0x180 DUP3 ADD MLOAD PUSH1 0x0 SWAP2 DUP3 SWAP2 TIMESTAMP SWAP2 PUSH2 0x4455 SWAP2 PUSH2 0x51D5 JUMP JUMPDEST DUP5 PUSH2 0x1A0 ADD MLOAD PUSH2 0x4465 SWAP2 SWAP1 PUSH2 0x5113 JUMP JUMPDEST GT PUSH2 0x4430 JUMPI PUSH1 0x0 DUP4 PUSH2 0x1A0 ADD MLOAD TIMESTAMP PUSH2 0x447D SWAP2 SWAP1 PUSH2 0x515D JUMP JUMPDEST SWAP1 POP PUSH1 0x0 DUP5 PUSH2 0x160 ADD MLOAD DUP3 PUSH2 0x4492 SWAP2 SWAP1 PUSH2 0x5676 JUMP JUMPDEST SWAP1 POP DUP5 PUSH2 0x1C0 ADD MLOAD DUP2 LT PUSH2 0x44A8 JUMPI POP PUSH2 0x1C0 DUP5 ADD MLOAD JUMPDEST PUSH1 0x0 DUP2 DUP7 PUSH2 0x180 ADD MLOAD PUSH2 0x44BB SWAP2 SWAP1 PUSH2 0x515D JUMP JUMPDEST SWAP1 POP DUP1 DUP7 PUSH1 0x80 ADD MLOAD PUSH2 0x4418 SWAP2 SWAP1 PUSH2 0x51D5 JUMP JUMPDEST PUSH2 0x44D6 DUP2 PUSH2 0x4678 JUMP JUMPDEST ISZERO PUSH2 0x3584 JUMPI PUSH2 0x2E70 PUSH1 0x40 MLOAD DUP1 PUSH2 0x1E0 ADD PUSH1 0x40 MSTORE DUP1 PUSH1 0x0 ISZERO ISZERO DUP2 MSTORE PUSH1 0x20 ADD PUSH1 0x0 PUSH1 0x1 PUSH1 0x1 PUSH1 0xA0 SHL SUB AND DUP2 MSTORE PUSH1 0x20 ADD PUSH1 0x0 DUP2 MSTORE PUSH1 0x20 ADD PUSH1 0x0 DUP2 MSTORE PUSH1 0x20 ADD PUSH1 0x0 DUP2 MSTORE PUSH1 0x20 ADD PUSH1 0x0 DUP2 MSTORE PUSH1 0x20 ADD PUSH1 0x0 DUP2 MSTORE PUSH1 0x20 ADD PUSH1 0x0 DUP2 MSTORE PUSH1 0x20 ADD PUSH1 0x0 DUP2 MSTORE PUSH1 0x20 ADD PUSH1 0x0 DUP2 MSTORE PUSH1 0x20 ADD PUSH1 0x0 DUP2 MSTORE PUSH1 0x20 ADD PUSH1 0x0 DUP2 MSTORE PUSH1 0x20 ADD PUSH1 0x0 DUP2 MSTORE PUSH1 0x20 ADD PUSH1 0x0 DUP2 MSTORE PUSH1 0x20 ADD PUSH1 0x0 DUP2 MSTORE POP SWAP1 JUMP JUMPDEST PUSH1 0x40 DUP1 MLOAD PUSH1 0x1 DUP1 DUP3 MSTORE DUP2 DUP4 ADD SWAP1 SWAP3 MSTORE PUSH1 0x60 SWAP2 PUSH1 0x0 SWAP2 SWAP1 PUSH1 0x20 DUP1 DUP4 ADD SWAP1 DUP1 CALLDATASIZE DUP4 CALLDATACOPY ADD SWAP1 POP POP SWAP1 POP DUP3 DUP2 PUSH1 0x0 DUP2 MLOAD DUP2 LT PUSH2 0x4599 JUMPI PUSH2 0x4599 PUSH2 0x5174 JUMP JUMPDEST PUSH1 0x20 SWAP1 DUP2 MUL SWAP2 SWAP1 SWAP2 ADD ADD MSTORE SWAP3 SWAP2 POP POP JUMP JUMPDEST PUSH1 0x1 PUSH1 0x1 PUSH1 0xA0 SHL SUB DUP5 AND EXTCODESIZE ISZERO PUSH2 0x354C JUMPI PUSH1 0x40 MLOAD PUSH4 0xF23A6E61 PUSH1 0xE0 SHL DUP2 MSTORE PUSH1 0x1 PUSH1 0x1 PUSH1 0xA0 SHL SUB DUP6 AND SWAP1 PUSH4 0xF23A6E61 SWAP1 PUSH2 0x45EE SWAP1 DUP10 SWAP1 DUP10 SWAP1 DUP9 SWAP1 DUP9 SWAP1 DUP9 SWAP1 PUSH1 0x4 ADD PUSH2 0x57E7 JUMP JUMPDEST PUSH1 0x20 PUSH1 0x40 MLOAD DUP1 DUP4 SUB DUP2 PUSH1 0x0 DUP8 GAS CALL SWAP3 POP POP POP DUP1 ISZERO PUSH2 0x4629 JUMPI POP PUSH1 0x40 DUP1 MLOAD PUSH1 0x1F RETURNDATASIZE SWAP1 DUP2 ADD PUSH1 0x1F NOT AND DUP3 ADD SWAP1 SWAP3 MSTORE PUSH2 0x4626 SWAP2 DUP2 ADD SWAP1 PUSH2 0x56E8 JUMP JUMPDEST PUSH1 0x1 JUMPDEST PUSH2 0x4635 JUMPI PUSH2 0x4256 PUSH2 0x5705 JUMP JUMPDEST PUSH1 0x1 PUSH1 0x1 PUSH1 0xE0 SHL SUB NOT DUP2 AND PUSH4 0xF23A6E61 PUSH1 0xE0 SHL EQ PUSH2 0x3FB1 JUMPI PUSH1 0x40 MLOAD PUSH3 0x461BCD PUSH1 0xE5 SHL DUP2 MSTORE PUSH1 0x4 ADD PUSH2 0xBA5 SWAP1 PUSH2 0x579F JUMP JUMPDEST DUP1 MLOAD PUSH2 0x2E70 SWAP1 PUSH1 0x67 SWAP1 PUSH1 0x20 DUP5 ADD SWAP1 PUSH2 0x46A9 JUMP JUMPDEST PUSH1 0x0 TIMESTAMP DUP3 PUSH2 0x1A0 ADD MLOAD DUP4 PUSH2 0x180 ADD MLOAD DUP5 PUSH2 0x160 ADD MLOAD PUSH2 0x4697 SWAP2 SWAP1 PUSH2 0x51D5 JUMP JUMPDEST PUSH2 0x46A1 SWAP2 SWAP1 PUSH2 0x5113 JUMP JUMPDEST GT ISZERO SWAP3 SWAP2 POP POP JUMP JUMPDEST DUP3 DUP1 SLOAD PUSH2 0x46B5 SWAP1 PUSH2 0x5063 JUMP JUMPDEST SWAP1 PUSH1 0x0 MSTORE PUSH1 0x20 PUSH1 0x0 KECCAK256 SWAP1 PUSH1 0x1F ADD PUSH1 0x20 SWAP1 DIV DUP2 ADD SWAP3 DUP3 PUSH2 0x46D7 JUMPI PUSH1 0x0 DUP6 SSTORE PUSH2 0x471D JUMP JUMPDEST DUP3 PUSH1 0x1F LT PUSH2 0x46F0 JUMPI DUP1 MLOAD PUSH1 0xFF NOT AND DUP4 DUP1 ADD OR DUP6 SSTORE PUSH2 0x471D JUMP JUMPDEST DUP3 DUP1 ADD PUSH1 0x1 ADD DUP6 SSTORE DUP3 ISZERO PUSH2 0x471D JUMPI SWAP2 DUP3 ADD JUMPDEST DUP3 DUP2 GT ISZERO PUSH2 0x471D JUMPI DUP3 MLOAD DUP3 SSTORE SWAP2 PUSH1 0x20 ADD SWAP2 SWAP1 PUSH1 0x1 ADD SWAP1 PUSH2 0x4702 JUMP JUMPDEST POP PUSH2 0x4729 SWAP3 SWAP2 POP PUSH2 0x472D JUMP JUMPDEST POP SWAP1 JUMP JUMPDEST JUMPDEST DUP1 DUP3 GT ISZERO PUSH2 0x4729 JUMPI PUSH1 0x0 DUP2 SSTORE PUSH1 0x1 ADD PUSH2 0x472E JUMP JUMPDEST PUSH1 0x1 PUSH1 0x1 PUSH1 0xA0 SHL SUB DUP2 AND DUP2 EQ PUSH2 0x3584 JUMPI PUSH1 0x0 DUP1 REVERT JUMPDEST DUP1 CALLDATALOAD PUSH2 0x4762 DUP2 PUSH2 0x4742 JUMP JUMPDEST SWAP2 SWAP1 POP JUMP JUMPDEST PUSH1 0x0 DUP1 PUSH1 0x40 DUP4 DUP6 SUB SLT ISZERO PUSH2 0x477A JUMPI PUSH1 0x0 DUP1 REVERT JUMPDEST DUP3 CALLDATALOAD PUSH2 0x4785 DUP2 PUSH2 0x4742 JUMP JUMPDEST SWAP5 PUSH1 0x20 SWAP4 SWAP1 SWAP4 ADD CALLDATALOAD SWAP4 POP POP POP JUMP JUMPDEST PUSH1 0x1 PUSH1 0x1 PUSH1 0xE0 SHL SUB NOT DUP2 AND DUP2 EQ PUSH2 0x3584 JUMPI PUSH1 0x0 DUP1 REVERT JUMPDEST PUSH1 0x0 PUSH1 0x20 DUP3 DUP5 SUB SLT ISZERO PUSH2 0x47BB JUMPI PUSH1 0x0 DUP1 REVERT JUMPDEST DUP2 CALLDATALOAD PUSH2 0x1145 DUP2 PUSH2 0x4793 JUMP JUMPDEST PUSH1 0x0 DUP1 PUSH1 0x0 PUSH1 0x60 DUP5 DUP7 SUB SLT ISZERO PUSH2 0x47DB JUMPI PUSH1 0x0 DUP1 REVERT JUMPDEST DUP4 CALLDATALOAD PUSH2 0x47E6 DUP2 PUSH2 0x4742 JUMP JUMPDEST SWAP6 PUSH1 0x20 DUP6 ADD CALLDATALOAD SWAP6 POP PUSH1 0x40 SWAP1 SWAP5 ADD CALLDATALOAD SWAP4 SWAP3 POP POP POP JUMP JUMPDEST PUSH1 0x0 PUSH1 0x20 DUP3 DUP5 SUB SLT ISZERO PUSH2 0x480D JUMPI PUSH1 0x0 DUP1 REVERT JUMPDEST POP CALLDATALOAD SWAP2 SWAP1 POP JUMP JUMPDEST PUSH1 0x0 DUP2 MLOAD DUP1 DUP5 MSTORE PUSH1 0x0 JUMPDEST DUP2 DUP2 LT ISZERO PUSH2 0x483A JUMPI PUSH1 0x20 DUP2 DUP6 ADD DUP2 ADD MLOAD DUP7 DUP4 ADD DUP3 ADD MSTORE ADD PUSH2 0x481E JUMP JUMPDEST DUP2 DUP2 GT ISZERO PUSH2 0x484C JUMPI PUSH1 0x0 PUSH1 0x20 DUP4 DUP8 ADD ADD MSTORE JUMPDEST POP PUSH1 0x1F ADD PUSH1 0x1F NOT AND SWAP3 SWAP1 SWAP3 ADD PUSH1 0x20 ADD SWAP3 SWAP2 POP POP JUMP JUMPDEST PUSH1 0x20 DUP2 MSTORE PUSH1 0x0 PUSH2 0x1145 PUSH1 0x20 DUP4 ADD DUP5 PUSH2 0x4814 JUMP JUMPDEST PUSH1 0x0 DUP1 PUSH1 0x0 DUP1 PUSH1 0x80 DUP6 DUP8 SUB SLT ISZERO PUSH2 0x488A JUMPI PUSH1 0x0 DUP1 REVERT JUMPDEST DUP5 CALLDATALOAD PUSH2 0x4895 DUP2 PUSH2 0x4742 JUMP JUMPDEST SWAP7 PUSH1 0x20 DUP7 ADD CALLDATALOAD SWAP7 POP PUSH1 0x40 DUP7 ADD CALLDATALOAD SWAP6 PUSH1 0x60 ADD CALLDATALOAD SWAP5 POP SWAP3 POP POP POP JUMP JUMPDEST PUSH1 0x0 DUP1 PUSH1 0x0 DUP1 PUSH1 0x0 PUSH1 0xA0 DUP7 DUP9 SUB SLT ISZERO PUSH2 0x48C7 JUMPI PUSH1 0x0 DUP1 REVERT JUMPDEST DUP6 CALLDATALOAD PUSH2 0x48D2 DUP2 PUSH2 0x4742 JUMP JUMPDEST SWAP8 PUSH1 0x20 DUP8 ADD CALLDATALOAD SWAP8 POP PUSH1 0x40 DUP8 ADD CALLDATALOAD SWAP7 PUSH1 0x60 DUP2 ADD CALLDATALOAD SWAP7 POP PUSH1 0x80 ADD CALLDATALOAD SWAP5 POP SWAP3 POP POP POP JUMP JUMPDEST DUP1 ISZERO ISZERO DUP2 EQ PUSH2 0x3584 JUMPI PUSH1 0x0 DUP1 REVERT JUMPDEST DUP1 CALLDATALOAD PUSH2 0x4762 DUP2 PUSH2 0x48F3 JUMP JUMPDEST PUSH1 0x0 DUP1 PUSH1 0x0 DUP1 PUSH1 0x80 DUP6 DUP8 SUB SLT ISZERO PUSH2 0x4922 JUMPI PUSH1 0x0 DUP1 REVERT JUMPDEST DUP5 CALLDATALOAD PUSH2 0x492D DUP2 PUSH2 0x4742 JUMP JUMPDEST SWAP4 POP PUSH1 0x20 DUP6 ADD CALLDATALOAD SWAP3 POP PUSH1 0x40 DUP6 ADD CALLDATALOAD SWAP2 POP PUSH1 0x60 DUP6 ADD CALLDATALOAD PUSH2 0x494B DUP2 PUSH2 0x48F3 JUMP JUMPDEST SWAP4 SWAP7 SWAP3 SWAP6 POP SWAP1 SWAP4 POP POP JUMP JUMPDEST PUSH4 0x4E487B71 PUSH1 0xE0 SHL PUSH1 0x0 MSTORE PUSH1 0x41 PUSH1 0x4 MSTORE PUSH1 0x24 PUSH1 0x0 REVERT JUMPDEST PUSH1 0x20 DUP2 ADD DUP2 DUP2 LT PUSH1 0x1 PUSH1 0x1 PUSH1 0x40 SHL SUB DUP3 GT OR ISZERO PUSH2 0x498B JUMPI PUSH2 0x498B PUSH2 0x4956 JUMP JUMPDEST PUSH1 0x40 MSTORE POP JUMP JUMPDEST PUSH1 0x1F DUP3 ADD PUSH1 0x1F NOT AND DUP2 ADD PUSH1 0x1 PUSH1 0x1 PUSH1 0x40 SHL SUB DUP2 GT DUP3 DUP3 LT OR ISZERO PUSH2 0x49B6 JUMPI PUSH2 0x49B6 PUSH2 0x4956 JUMP JUMPDEST PUSH1 0x40 MSTORE POP POP JUMP JUMPDEST PUSH1 0x40 MLOAD PUSH2 0x1E0 DUP2 ADD PUSH1 0x1 PUSH1 0x1 PUSH1 0x40 SHL SUB DUP2 GT DUP3 DUP3 LT OR ISZERO PUSH2 0x49E0 JUMPI PUSH2 0x49E0 PUSH2 0x4956 JUMP JUMPDEST PUSH1 0x40 MSTORE SWAP1 JUMP JUMPDEST PUSH1 0x0 PUSH1 0x1 PUSH1 0x1 PUSH1 0x40 SHL SUB DUP3 GT ISZERO PUSH2 0x49FF JUMPI PUSH2 0x49FF PUSH2 0x4956 JUMP JUMPDEST POP PUSH1 0x5 SHL PUSH1 0x20 ADD SWAP1 JUMP JUMPDEST PUSH1 0x0 DUP3 PUSH1 0x1F DUP4 ADD SLT PUSH2 0x4A1A JUMPI PUSH1 0x0 DUP1 REVERT JUMPDEST DUP2 CALLDATALOAD PUSH1 0x20 PUSH2 0x4A27 DUP3 PUSH2 0x49E6 JUMP JUMPDEST PUSH1 0x40 MLOAD PUSH2 0x4A34 DUP3 DUP3 PUSH2 0x4991 JUMP JUMPDEST DUP4 DUP2 MSTORE PUSH1 0x5 SWAP4 SWAP1 SWAP4 SHL DUP6 ADD DUP3 ADD SWAP3 DUP3 DUP2 ADD SWAP2 POP DUP7 DUP5 GT ISZERO PUSH2 0x4A54 JUMPI PUSH1 0x0 DUP1 REVERT JUMPDEST DUP3 DUP7 ADD JUMPDEST DUP5 DUP2 LT ISZERO PUSH2 0x4A6F JUMPI DUP1 CALLDATALOAD DUP4 MSTORE SWAP2 DUP4 ADD SWAP2 DUP4 ADD PUSH2 0x4A58 JUMP JUMPDEST POP SWAP7 SWAP6 POP POP POP POP POP POP JUMP JUMPDEST PUSH1 0x0 PUSH1 0x1 PUSH1 0x1 PUSH1 0x40 SHL SUB DUP4 GT ISZERO PUSH2 0x4A93 JUMPI PUSH2 0x4A93 PUSH2 0x4956 JUMP JUMPDEST PUSH1 0x40 MLOAD PUSH2 0x4AAA PUSH1 0x1F DUP6 ADD PUSH1 0x1F NOT AND PUSH1 0x20 ADD DUP3 PUSH2 0x4991 JUMP JUMPDEST DUP1 SWAP2 POP DUP4 DUP2 MSTORE DUP5 DUP5 DUP5 ADD GT ISZERO PUSH2 0x4ABF JUMPI PUSH1 0x0 DUP1 REVERT JUMPDEST DUP4 DUP4 PUSH1 0x20 DUP4 ADD CALLDATACOPY PUSH1 0x0 PUSH1 0x20 DUP6 DUP4 ADD ADD MSTORE POP SWAP4 SWAP3 POP POP POP JUMP JUMPDEST PUSH1 0x0 DUP3 PUSH1 0x1F DUP4 ADD SLT PUSH2 0x4AE8 JUMPI PUSH1 0x0 DUP1 REVERT JUMPDEST PUSH2 0x1145 DUP4 DUP4 CALLDATALOAD PUSH1 0x20 DUP6 ADD PUSH2 0x4A7A JUMP JUMPDEST PUSH1 0x0 DUP1 PUSH1 0x0 DUP1 PUSH1 0x0 PUSH1 0xA0 DUP7 DUP9 SUB SLT ISZERO PUSH2 0x4B0F JUMPI PUSH1 0x0 DUP1 REVERT JUMPDEST DUP6 CALLDATALOAD PUSH2 0x4B1A DUP2 PUSH2 0x4742 JUMP JUMPDEST SWAP5 POP PUSH1 0x20 DUP7 ADD CALLDATALOAD PUSH2 0x4B2A DUP2 PUSH2 0x4742 JUMP JUMPDEST SWAP4 POP PUSH1 0x40 DUP7 ADD CALLDATALOAD PUSH1 0x1 PUSH1 0x1 PUSH1 0x40 SHL SUB DUP1 DUP3 GT ISZERO PUSH2 0x4B46 JUMPI PUSH1 0x0 DUP1 REVERT JUMPDEST PUSH2 0x4B52 DUP10 DUP4 DUP11 ADD PUSH2 0x4A09 JUMP JUMPDEST SWAP5 POP PUSH1 0x60 DUP9 ADD CALLDATALOAD SWAP2 POP DUP1 DUP3 GT ISZERO PUSH2 0x4B68 JUMPI PUSH1 0x0 DUP1 REVERT JUMPDEST PUSH2 0x4B74 DUP10 DUP4 DUP11 ADD PUSH2 0x4A09 JUMP JUMPDEST SWAP4 POP PUSH1 0x80 DUP9 ADD CALLDATALOAD SWAP2 POP DUP1 DUP3 GT ISZERO PUSH2 0x4B8A JUMPI PUSH1 0x0 DUP1 REVERT JUMPDEST POP PUSH2 0x4B97 DUP9 DUP3 DUP10 ADD PUSH2 0x4AD7 JUMP JUMPDEST SWAP2 POP POP SWAP3 SWAP6 POP SWAP3 SWAP6 SWAP1 SWAP4 POP JUMP JUMPDEST PUSH1 0x0 DUP1 PUSH1 0x40 DUP4 DUP6 SUB SLT ISZERO PUSH2 0x4BB7 JUMPI PUSH1 0x0 DUP1 REVERT JUMPDEST POP POP DUP1 CALLDATALOAD SWAP3 PUSH1 0x20 SWAP1 SWAP2 ADD CALLDATALOAD SWAP2 POP JUMP JUMPDEST PUSH1 0x0 DUP1 PUSH1 0x0 PUSH1 0x60 DUP5 DUP7 SUB SLT ISZERO PUSH2 0x4BDB JUMPI PUSH1 0x0 DUP1 REVERT JUMPDEST DUP4 CALLDATALOAD PUSH2 0x4BE6 DUP2 PUSH2 0x4742 JUMP JUMPDEST SWAP3 POP PUSH1 0x20 DUP5 ADD CALLDATALOAD PUSH2 0x4BF6 DUP2 PUSH2 0x4742 JUMP JUMPDEST SWAP2 POP PUSH1 0x40 DUP5 ADD CALLDATALOAD PUSH1 0x1 PUSH1 0x1 PUSH1 0x40 SHL SUB DUP2 GT ISZERO PUSH2 0x4C11 JUMPI PUSH1 0x0 DUP1 REVERT JUMPDEST DUP5 ADD PUSH1 0x1F DUP2 ADD DUP7 SGT PUSH2 0x4C22 JUMPI PUSH1 0x0 DUP1 REVERT JUMPDEST PUSH2 0x4C31 DUP7 DUP3 CALLDATALOAD PUSH1 0x20 DUP5 ADD PUSH2 0x4A7A JUMP JUMPDEST SWAP2 POP POP SWAP3 POP SWAP3 POP SWAP3 JUMP JUMPDEST PUSH1 0x0 DUP1 PUSH1 0x40 DUP4 DUP6 SUB SLT ISZERO PUSH2 0x4C4E JUMPI PUSH1 0x0 DUP1 REVERT JUMPDEST DUP3 CALLDATALOAD PUSH1 0x1 PUSH1 0x1 PUSH1 0x40 SHL SUB DUP1 DUP3 GT ISZERO PUSH2 0x4C65 JUMPI PUSH1 0x0 DUP1 REVERT JUMPDEST DUP2 DUP6 ADD SWAP2 POP DUP6 PUSH1 0x1F DUP4 ADD SLT PUSH2 0x4C79 JUMPI PUSH1 0x0 DUP1 REVERT JUMPDEST DUP2 CALLDATALOAD PUSH1 0x20 PUSH2 0x4C86 DUP3 PUSH2 0x49E6 JUMP JUMPDEST PUSH1 0x40 MLOAD PUSH2 0x4C93 DUP3 DUP3 PUSH2 0x4991 JUMP JUMPDEST DUP4 DUP2 MSTORE PUSH1 0x5 SWAP4 SWAP1 SWAP4 SHL DUP6 ADD DUP3 ADD SWAP3 DUP3 DUP2 ADD SWAP2 POP DUP10 DUP5 GT ISZERO PUSH2 0x4CB3 JUMPI PUSH1 0x0 DUP1 REVERT JUMPDEST SWAP5 DUP3 ADD SWAP5 JUMPDEST DUP4 DUP7 LT ISZERO PUSH2 0x4CDA JUMPI DUP6 CALLDATALOAD PUSH2 0x4CCB DUP2 PUSH2 0x4742 JUMP JUMPDEST DUP3 MSTORE SWAP5 DUP3 ADD SWAP5 SWAP1 DUP3 ADD SWAP1 PUSH2 0x4CB8 JUMP JUMPDEST SWAP7 POP POP DUP7 ADD CALLDATALOAD SWAP3 POP POP DUP1 DUP3 GT ISZERO PUSH2 0x4CF0 JUMPI PUSH1 0x0 DUP1 REVERT JUMPDEST POP PUSH2 0x4CFD DUP6 DUP3 DUP7 ADD PUSH2 0x4A09 JUMP JUMPDEST SWAP2 POP POP SWAP3 POP SWAP3 SWAP1 POP JUMP JUMPDEST PUSH1 0x0 DUP2 MLOAD DUP1 DUP5 MSTORE PUSH1 0x20 DUP1 DUP6 ADD SWAP5 POP DUP1 DUP5 ADD PUSH1 0x0 JUMPDEST DUP4 DUP2 LT ISZERO PUSH2 0x4D37 JUMPI DUP2 MLOAD DUP8 MSTORE SWAP6 DUP3 ADD SWAP6 SWAP1 DUP3 ADD SWAP1 PUSH1 0x1 ADD PUSH2 0x4D1B JUMP JUMPDEST POP SWAP5 SWAP6 SWAP5 POP POP POP POP POP JUMP JUMPDEST PUSH1 0x20 DUP2 MSTORE PUSH1 0x0 PUSH2 0x1145 PUSH1 0x20 DUP4 ADD DUP5 PUSH2 0x4D07 JUMP JUMPDEST PUSH1 0x0 PUSH1 0x20 DUP3 DUP5 SUB SLT ISZERO PUSH2 0x4D67 JUMPI PUSH1 0x0 DUP1 REVERT JUMPDEST DUP2 CALLDATALOAD PUSH2 0x1145 DUP2 PUSH2 0x4742 JUMP JUMPDEST PUSH1 0x0 DUP1 PUSH1 0x0 PUSH1 0x60 DUP5 DUP7 SUB SLT ISZERO PUSH2 0x4D87 JUMPI PUSH1 0x0 DUP1 REVERT JUMPDEST DUP4 CALLDATALOAD PUSH2 0x4D92 DUP2 PUSH2 0x4742 JUMP JUMPDEST SWAP3 POP PUSH1 0x20 DUP5 ADD CALLDATALOAD PUSH1 0x1 PUSH1 0x1 PUSH1 0x40 SHL SUB DUP1 DUP3 GT ISZERO PUSH2 0x4DAE JUMPI PUSH1 0x0 DUP1 REVERT JUMPDEST PUSH2 0x4DBA DUP8 DUP4 DUP9 ADD PUSH2 0x4A09 JUMP JUMPDEST SWAP4 POP PUSH1 0x40 DUP7 ADD CALLDATALOAD SWAP2 POP DUP1 DUP3 GT ISZERO PUSH2 0x4DD0 JUMPI PUSH1 0x0 DUP1 REVERT JUMPDEST POP PUSH2 0x4C31 DUP7 DUP3 DUP8 ADD PUSH2 0x4A09 JUMP JUMPDEST PUSH1 0x0 DUP1 PUSH1 0x40 DUP4 DUP6 SUB SLT ISZERO PUSH2 0x4DF0 JUMPI PUSH1 0x0 DUP1 REVERT JUMPDEST DUP3 CALLDATALOAD PUSH2 0x4DFB DUP2 PUSH2 0x4742 JUMP JUMPDEST SWAP2 POP PUSH1 0x20 DUP4 ADD CALLDATALOAD PUSH2 0x4E0B DUP2 PUSH2 0x48F3 JUMP JUMPDEST DUP1 SWAP2 POP POP SWAP3 POP SWAP3 SWAP1 POP JUMP JUMPDEST PUSH1 0x0 DUP1 PUSH1 0x0 DUP1 DUP5 DUP7 SUB PUSH2 0x240 DUP2 SLT ISZERO PUSH2 0x4E2E JUMPI PUSH1 0x0 DUP1 REVERT JUMPDEST DUP6 CALLDATALOAD PUSH2 0x4E39 DUP2 PUSH2 0x4742 JUMP JUMPDEST SWAP5 POP PUSH1 0x20 DUP7 ADD CALLDATALOAD SWAP4 POP PUSH1 0x40 DUP7 ADD CALLDATALOAD SWAP3 POP PUSH2 0x1E0 PUSH1 0x5F NOT DUP3 ADD DUP2 SGT ISZERO PUSH2 0x4E5D JUMPI PUSH1 0x0 DUP1 REVERT JUMPDEST PUSH2 0x4E65 PUSH2 0x49BD JUMP JUMPDEST SWAP2 POP PUSH2 0x4E73 PUSH1 0x60 DUP9 ADD PUSH2 0x4901 JUMP JUMPDEST DUP3 MSTORE PUSH2 0x4E81 PUSH1 0x80 DUP9 ADD PUSH2 0x4757 JUMP JUMPDEST PUSH1 0x20 DUP4 ADD MSTORE PUSH1 0xA0 DUP8 ADD CALLDATALOAD PUSH1 0x40 DUP4 ADD MSTORE PUSH1 0xC0 DUP8 ADD CALLDATALOAD PUSH1 0x60 DUP4 ADD MSTORE PUSH1 0xE0 DUP8 ADD CALLDATALOAD PUSH1 0x80 DUP4 ADD MSTORE PUSH2 0x100 DUP1 DUP9 ADD CALLDATALOAD PUSH1 0xA0 DUP5 ADD MSTORE PUSH2 0x120 DUP1 DUP10 ADD CALLDATALOAD PUSH1 0xC0 DUP6 ADD MSTORE PUSH2 0x140 DUP1 DUP11 ADD CALLDATALOAD PUSH1 0xE0 DUP7 ADD MSTORE PUSH2 0x160 DUP1 DUP12 ADD CALLDATALOAD DUP5 DUP8 ADD MSTORE PUSH2 0x180 SWAP4 POP DUP4 DUP12 ADD CALLDATALOAD DUP4 DUP8 ADD MSTORE PUSH2 0x1A0 SWAP3 POP DUP3 DUP12 ADD CALLDATALOAD DUP3 DUP8 ADD MSTORE PUSH2 0x1C0 SWAP2 POP DUP2 DUP12 ADD CALLDATALOAD DUP2 DUP8 ADD MSTORE POP DUP4 DUP11 ADD CALLDATALOAD DUP4 DUP7 ADD MSTORE PUSH2 0x200 DUP11 ADD CALLDATALOAD DUP3 DUP7 ADD MSTORE PUSH2 0x220 DUP11 ADD CALLDATALOAD DUP2 DUP7 ADD MSTORE POP POP POP POP DUP1 SWAP2 POP POP SWAP3 SWAP6 SWAP2 SWAP5 POP SWAP3 POP JUMP JUMPDEST PUSH1 0x0 PUSH1 0xA0 DUP3 DUP5 SUB SLT ISZERO PUSH2 0x4F3A JUMPI PUSH1 0x0 DUP1 REVERT JUMPDEST PUSH1 0x40 MLOAD PUSH1 0xA0 DUP2 ADD DUP2 DUP2 LT PUSH1 0x1 PUSH1 0x1 PUSH1 0x40 SHL SUB DUP3 GT OR ISZERO PUSH2 0x4F5C JUMPI PUSH2 0x4F5C PUSH2 0x4956 JUMP JUMPDEST DUP1 PUSH1 0x40 MSTORE POP DUP1 SWAP2 POP DUP3 CALLDATALOAD DUP2 MSTORE PUSH1 0x20 DUP4 ADD CALLDATALOAD PUSH1 0x20 DUP3 ADD MSTORE PUSH1 0x40 DUP4 ADD CALLDATALOAD PUSH1 0x40 DUP3 ADD MSTORE PUSH1 0x60 DUP4 ADD CALLDATALOAD PUSH1 0x60 DUP3 ADD MSTORE PUSH1 0x80 DUP4 ADD CALLDATALOAD PUSH1 0x80 DUP3 ADD MSTORE POP SWAP3 SWAP2 POP POP JUMP JUMPDEST PUSH1 0x0 DUP1 PUSH2 0x140 DUP4 DUP6 SUB SLT ISZERO PUSH2 0x4FAB JUMPI PUSH1 0x0 DUP1 REVERT JUMPDEST PUSH2 0x4FB5 DUP5 DUP5 PUSH2 0x4F28 JUMP JUMPDEST SWAP2 POP PUSH2 0x4FC4 DUP5 PUSH1 0xA0 DUP6 ADD PUSH2 0x4F28 JUMP JUMPDEST SWAP1 POP SWAP3 POP SWAP3 SWAP1 POP JUMP JUMPDEST PUSH1 0x0 DUP1 PUSH1 0x40 DUP4 DUP6 SUB SLT ISZERO PUSH2 0x4FE0 JUMPI PUSH1 0x0 DUP1 REVERT JUMPDEST DUP3 CALLDATALOAD PUSH2 0x4FEB DUP2 PUSH2 0x4742 JUMP JUMPDEST SWAP2 POP PUSH1 0x20 DUP4 ADD CALLDATALOAD PUSH2 0x4E0B DUP2 PUSH2 0x4742 JUMP JUMPDEST PUSH1 0x0 DUP1 PUSH1 0x0 DUP1 PUSH1 0x0 PUSH1 0xA0 DUP7 DUP9 SUB SLT ISZERO PUSH2 0x5013 JUMPI PUSH1 0x0 DUP1 REVERT JUMPDEST DUP6 CALLDATALOAD PUSH2 0x501E DUP2 PUSH2 0x4742 JUMP JUMPDEST SWAP5 POP PUSH1 0x20 DUP7 ADD CALLDATALOAD PUSH2 0x502E DUP2 PUSH2 0x4742 JUMP JUMPDEST SWAP4 POP PUSH1 0x40 DUP7 ADD CALLDATALOAD SWAP3 POP PUSH1 0x60 DUP7 ADD CALLDATALOAD SWAP2 POP PUSH1 0x80 DUP7 ADD CALLDATALOAD PUSH1 0x1 PUSH1 0x1 PUSH1 0x40 SHL SUB DUP2 GT ISZERO PUSH2 0x5057 JUMPI PUSH1 0x0 DUP1 REVERT JUMPDEST PUSH2 0x4B97 DUP9 DUP3 DUP10 ADD PUSH2 0x4AD7 JUMP JUMPDEST PUSH1 0x1 DUP2 DUP2 SHR SWAP1 DUP3 AND DUP1 PUSH2 0x5077 JUMPI PUSH1 0x7F DUP3 AND SWAP2 POP JUMPDEST PUSH1 0x20 DUP3 LT DUP2 SUB PUSH2 0x1B78 JUMPI PUSH4 0x4E487B71 PUSH1 0xE0 SHL PUSH1 0x0 MSTORE PUSH1 0x22 PUSH1 0x4 MSTORE PUSH1 0x24 PUSH1 0x0 REVERT JUMPDEST PUSH1 0x0 PUSH1 0x20 DUP3 DUP5 SUB SLT ISZERO PUSH2 0x50A9 JUMPI PUSH1 0x0 DUP1 REVERT JUMPDEST DUP2 MLOAD PUSH2 0x1145 DUP2 PUSH2 0x4742 JUMP JUMPDEST PUSH1 0x20 DUP1 DUP3 MSTORE PUSH1 0x12 SWAP1 DUP3 ADD MSTORE PUSH18 0x2CB7BA9031B0B713BA103237903A3430BA17 PUSH1 0x71 SHL PUSH1 0x40 DUP3 ADD MSTORE PUSH1 0x60 ADD SWAP1 JUMP JUMPDEST PUSH1 0x0 PUSH1 0x20 DUP3 DUP5 SUB SLT ISZERO PUSH2 0x50F2 JUMPI PUSH1 0x0 DUP1 REVERT JUMPDEST DUP2 MLOAD PUSH2 0x1145 DUP2 PUSH2 0x48F3 JUMP JUMPDEST PUSH4 0x4E487B71 PUSH1 0xE0 SHL PUSH1 0x0 MSTORE PUSH1 0x11 PUSH1 0x4 MSTORE PUSH1 0x24 PUSH1 0x0 REVERT JUMPDEST PUSH1 0x0 DUP3 NOT DUP3 GT ISZERO PUSH2 0x5126 JUMPI PUSH2 0x5126 PUSH2 0x50FD JUMP JUMPDEST POP ADD SWAP1 JUMP JUMPDEST PUSH1 0x0 PUSH1 0x20 DUP3 DUP5 SUB SLT ISZERO PUSH2 0x513D JUMPI PUSH1 0x0 DUP1 REVERT JUMPDEST POP MLOAD SWAP2 SWAP1 POP JUMP JUMPDEST PUSH1 0x0 PUSH1 0x1 DUP3 ADD PUSH2 0x5156 JUMPI PUSH2 0x5156 PUSH2 0x50FD JUMP JUMPDEST POP PUSH1 0x1 ADD SWAP1 JUMP JUMPDEST PUSH1 0x0 DUP3 DUP3 LT ISZERO PUSH2 0x516F JUMPI PUSH2 0x516F PUSH2 0x50FD JUMP JUMPDEST POP SUB SWAP1 JUMP JUMPDEST PUSH4 0x4E487B71 PUSH1 0xE0 SHL PUSH1 0x0 MSTORE PUSH1 0x32 PUSH1 0x4 MSTORE PUSH1 0x24 PUSH1 0x0 REVERT JUMPDEST PUSH1 0x0 DUP1 PUSH1 0x40 DUP4 DUP6 SUB SLT ISZERO PUSH2 0x519D JUMPI PUSH1 0x0 DUP1 REVERT JUMPDEST POP POP DUP1 MLOAD PUSH1 0x20 SWAP1 SWAP2 ADD MLOAD SWAP1 SWAP3 SWAP1 SWAP2 POP JUMP JUMPDEST PUSH1 0x20 DUP1 DUP3 MSTORE PUSH1 0xD SWAP1 DUP3 ADD MSTORE PUSH13 0x2CB7BA9030B932903232B0B217 PUSH1 0x99 SHL PUSH1 0x40 DUP3 ADD MSTORE PUSH1 0x60 ADD SWAP1 JUMP JUMPDEST PUSH1 0x0 DUP2 PUSH1 0x0 NOT DIV DUP4 GT DUP3 ISZERO ISZERO AND ISZERO PUSH2 0x51EF JUMPI PUSH2 0x51EF PUSH2 0x50FD JUMP JUMPDEST POP MUL SWAP1 JUMP JUMPDEST PUSH1 0x0 DUP1 DUP3 SLT DUP1 ISZERO PUSH1 0x1 PUSH1 0x1 PUSH1 0xFF SHL SUB DUP5 SWAP1 SUB DUP6 SGT AND ISZERO PUSH2 0x5216 JUMPI PUSH2 0x5216 PUSH2 0x50FD JUMP JUMPDEST PUSH1 0x1 PUSH1 0xFF SHL DUP4 SWAP1 SUB DUP5 SLT DUP2 AND ISZERO PUSH2 0x522F JUMPI PUSH2 0x522F PUSH2 0x50FD JUMP JUMPDEST POP POP ADD SWAP1 JUMP JUMPDEST PUSH4 0x4E487B71 PUSH1 0xE0 SHL PUSH1 0x0 MSTORE PUSH1 0x12 PUSH1 0x4 MSTORE PUSH1 0x24 PUSH1 0x0 REVERT JUMPDEST PUSH1 0x0 DUP3 PUSH2 0x525A JUMPI PUSH2 0x525A PUSH2 0x5235 JUMP JUMPDEST PUSH1 0x1 PUSH1 0xFF SHL DUP3 EQ PUSH1 0x0 NOT DUP5 EQ AND ISZERO PUSH2 0x5274 JUMPI PUSH2 0x5274 PUSH2 0x50FD JUMP JUMPDEST POP SDIV SWAP1 JUMP JUMPDEST PUSH1 0x20 DUP1 DUP3 MSTORE PUSH1 0x29 SWAP1 DUP3 ADD MSTORE PUSH32 0x455243313135353A2063616C6C6572206973206E6F74206F776E6572206E6F72 PUSH1 0x40 DUP3 ADD MSTORE PUSH9 0x8185C1C1C9BDD9959 PUSH1 0xBA SHL PUSH1 0x60 DUP3 ADD MSTORE PUSH1 0x80 ADD SWAP1 JUMP JUMPDEST PUSH1 0x0 DUP1 DUP4 SLT DUP1 ISZERO PUSH1 0x1 PUSH1 0xFF SHL DUP6 ADD DUP5 SLT AND ISZERO PUSH2 0x52E0 JUMPI PUSH2 0x52E0 PUSH2 0x50FD JUMP JUMPDEST PUSH1 0x1 PUSH1 0x1 PUSH1 0xFF SHL SUB DUP5 ADD DUP4 SGT DUP2 AND ISZERO PUSH2 0x52FB JUMPI PUSH2 0x52FB PUSH2 0x50FD JUMP JUMPDEST POP POP SUB SWAP1 JUMP JUMPDEST PUSH1 0x0 PUSH1 0x1 PUSH1 0x1 PUSH1 0xFF SHL SUB DUP2 DUP5 SGT DUP3 DUP5 SGT DUP1 DUP3 AND DUP7 DUP5 DIV DUP7 GT AND ISZERO PUSH2 0x5327 JUMPI PUSH2 0x5327 PUSH2 0x50FD JUMP JUMPDEST PUSH1 0x1 PUSH1 0xFF SHL PUSH1 0x0 DUP8 SLT DUP3 DUP2 AND DUP8 DUP4 SDIV DUP10 SLT AND ISZERO PUSH2 0x5346 JUMPI PUSH2 0x5346 PUSH2 0x50FD JUMP JUMPDEST PUSH1 0x0 DUP8 SLT SWAP3 POP DUP8 DUP3 SDIV DUP8 SLT DUP5 DUP5 AND AND ISZERO PUSH2 0x5362 JUMPI PUSH2 0x5362 PUSH2 0x50FD JUMP JUMPDEST DUP8 DUP6 SDIV DUP8 SLT DUP2 DUP5 AND AND ISZERO PUSH2 0x5378 JUMPI PUSH2 0x5378 PUSH2 0x50FD JUMP JUMPDEST POP POP POP SWAP3 SWAP1 SWAP4 MUL SWAP4 SWAP3 POP POP POP JUMP JUMPDEST PUSH1 0x0 DUP2 DUP4 SUB PUSH1 0xC0 DUP2 SLT ISZERO PUSH2 0x5399 JUMPI PUSH1 0x0 DUP1 REVERT JUMPDEST PUSH1 0x40 MLOAD PUSH1 0xC0 DUP2 ADD DUP2 DUP2 LT PUSH1 0x1 PUSH1 0x1 PUSH1 0x40 SHL SUB DUP3 GT OR ISZERO PUSH2 0x53BB JUMPI PUSH2 0x53BB PUSH2 0x4956 JUMP JUMPDEST DUP1 PUSH1 0x40 MSTORE POP DUP4 MLOAD DUP2 MSTORE PUSH1 0x20 DUP5 ADD MLOAD PUSH1 0x20 DUP3 ADD MSTORE PUSH1 0x40 DUP5 ADD MLOAD PUSH1 0x40 DUP3 ADD MSTORE PUSH1 0x60 DUP5 ADD MLOAD PUSH1 0x60 DUP3 ADD MSTORE PUSH1 0x20 PUSH1 0x7F NOT DUP4 ADD SLT ISZERO PUSH2 0x53F4 JUMPI PUSH1 0x0 DUP1 REVERT JUMPDEST PUSH1 0x40 MLOAD SWAP2 POP PUSH2 0x5402 DUP3 PUSH2 0x496C JUMP JUMPDEST PUSH1 0x80 DUP5 ADD MLOAD DUP3 MSTORE DUP2 PUSH1 0x80 DUP3 ADD MSTORE PUSH1 0xA0 DUP5 ADD MLOAD PUSH1 0xA0 DUP3 ADD MSTORE DUP1 SWAP3 POP POP POP SWAP3 SWAP2 POP POP JUMP JUMPDEST PUSH1 0x20 DUP1 DUP3 MSTORE PUSH1 0x1E SWAP1 DUP3 ADD MSTORE PUSH32 0x596F75206C61636B2074686520706F77657220746F20646F20746861742E0000 PUSH1 0x40 DUP3 ADD MSTORE PUSH1 0x60 ADD SWAP1 JUMP JUMPDEST PUSH1 0x20 DUP1 DUP3 MSTORE PUSH1 0xF SWAP1 DUP3 ADD MSTORE PUSH15 0x2A30B933B2BA1034B9903232B0B217 PUSH1 0x89 SHL PUSH1 0x40 DUP3 ADD MSTORE PUSH1 0x60 ADD SWAP1 JUMP JUMPDEST PUSH1 0x20 DUP1 DUP3 MSTORE PUSH1 0xA SWAP1 DUP3 ADD MSTORE PUSH10 0x2737BA1030903830B617 PUSH1 0xB1 SHL PUSH1 0x40 DUP3 ADD MSTORE PUSH1 0x60 ADD SWAP1 JUMP JUMPDEST PUSH1 0x20 DUP1 DUP3 MSTORE PUSH1 0x28 SWAP1 DUP3 ADD MSTORE PUSH32 0x455243313135353A2069647320616E6420616D6F756E7473206C656E67746820 PUSH1 0x40 DUP3 ADD MSTORE PUSH8 0xDAD2E6DAC2E8C6D PUSH1 0xC3 SHL PUSH1 0x60 DUP3 ADD MSTORE PUSH1 0x80 ADD SWAP1 JUMP JUMPDEST PUSH1 0x20 DUP1 DUP3 MSTORE PUSH1 0x25 SWAP1 DUP3 ADD MSTORE PUSH32 0x455243313135353A207472616E7366657220746F20746865207A65726F206164 PUSH1 0x40 DUP3 ADD MSTORE PUSH5 0x6472657373 PUSH1 0xD8 SHL PUSH1 0x60 DUP3 ADD MSTORE PUSH1 0x80 ADD SWAP1 JUMP JUMPDEST PUSH1 0x20 DUP1 DUP3 MSTORE PUSH1 0x2A SWAP1 DUP3 ADD MSTORE PUSH32 0x455243313135353A20696E73756666696369656E742062616C616E636520666F PUSH1 0x40 DUP3 ADD MSTORE PUSH10 0x39103A3930B739B332B9 PUSH1 0xB1 SHL PUSH1 0x60 DUP3 ADD MSTORE PUSH1 0x80 ADD SWAP1 JUMP JUMPDEST PUSH1 0x40 DUP2 MSTORE PUSH1 0x0 PUSH2 0x5592 PUSH1 0x40 DUP4 ADD DUP6 PUSH2 0x4D07 JUMP JUMPDEST DUP3 DUP2 SUB PUSH1 0x20 DUP5 ADD MSTORE PUSH2 0x4430 DUP2 DUP6 PUSH2 0x4D07 JUMP JUMPDEST PUSH1 0x20 DUP1 DUP3 MSTORE PUSH1 0x2B SWAP1 DUP3 ADD MSTORE PUSH32 0x496E697469616C697A61626C653A20636F6E7472616374206973206E6F742069 PUSH1 0x40 DUP3 ADD MSTORE PUSH11 0x6E697469616C697A696E67 PUSH1 0xA8 SHL PUSH1 0x60 DUP3 ADD MSTORE PUSH1 0x80 ADD SWAP1 JUMP JUMPDEST PUSH1 0x20 DUP1 DUP3 MSTORE PUSH1 0x23 SWAP1 DUP3 ADD MSTORE PUSH32 0x455243313135353A206275726E2066726F6D20746865207A65726F2061646472 PUSH1 0x40 DUP3 ADD MSTORE PUSH3 0x657373 PUSH1 0xE8 SHL PUSH1 0x60 DUP3 ADD MSTORE PUSH1 0x80 ADD SWAP1 JUMP JUMPDEST PUSH1 0x20 DUP1 DUP3 MSTORE PUSH1 0x24 SWAP1 DUP3 ADD MSTORE PUSH32 0x455243313135353A206275726E20616D6F756E7420657863656564732062616C PUSH1 0x40 DUP3 ADD MSTORE PUSH4 0x616E6365 PUSH1 0xE0 SHL PUSH1 0x60 DUP3 ADD MSTORE PUSH1 0x80 ADD SWAP1 JUMP JUMPDEST PUSH1 0x0 DUP3 PUSH2 0x5685 JUMPI PUSH2 0x5685 PUSH2 0x5235 JUMP JUMPDEST POP DIV SWAP1 JUMP JUMPDEST PUSH1 0x1 PUSH1 0x1 PUSH1 0xA0 SHL SUB DUP7 DUP2 AND DUP3 MSTORE DUP6 AND PUSH1 0x20 DUP3 ADD MSTORE PUSH1 0xA0 PUSH1 0x40 DUP3 ADD DUP2 SWAP1 MSTORE PUSH1 0x0 SWAP1 PUSH2 0x56B6 SWAP1 DUP4 ADD DUP7 PUSH2 0x4D07 JUMP JUMPDEST DUP3 DUP2 SUB PUSH1 0x60 DUP5 ADD MSTORE PUSH2 0x56C8 DUP2 DUP7 PUSH2 0x4D07 JUMP JUMPDEST SWAP1 POP DUP3 DUP2 SUB PUSH1 0x80 DUP5 ADD MSTORE PUSH2 0x56DC DUP2 DUP6 PUSH2 0x4814 JUMP JUMPDEST SWAP9 SWAP8 POP POP POP POP POP POP POP POP JUMP JUMPDEST PUSH1 0x0 PUSH1 0x20 DUP3 DUP5 SUB SLT ISZERO PUSH2 0x56FA JUMPI PUSH1 0x0 DUP1 REVERT JUMPDEST DUP2 MLOAD PUSH2 0x1145 DUP2 PUSH2 0x4793 JUMP JUMPDEST PUSH1 0x0 PUSH1 0x3 RETURNDATASIZE GT ISZERO PUSH2 0x571E JUMPI PUSH1 0x4 PUSH1 0x0 DUP1 RETURNDATACOPY POP PUSH1 0x0 MLOAD PUSH1 0xE0 SHR JUMPDEST SWAP1 JUMP JUMPDEST PUSH1 0x0 PUSH1 0x44 RETURNDATASIZE LT ISZERO PUSH2 0x572F JUMPI SWAP1 JUMP JUMPDEST PUSH1 0x40 MLOAD PUSH1 0x3 NOT RETURNDATASIZE DUP2 ADD PUSH1 0x4 DUP4 RETURNDATACOPY DUP2 MLOAD RETURNDATASIZE PUSH1 0x1 PUSH1 0x1 PUSH1 0x40 SHL SUB DUP2 PUSH1 0x24 DUP5 ADD GT DUP2 DUP5 GT OR ISZERO PUSH2 0x575E JUMPI POP POP POP POP POP SWAP1 JUMP JUMPDEST DUP3 DUP6 ADD SWAP2 POP DUP2 MLOAD DUP2 DUP2 GT ISZERO PUSH2 0x5776 JUMPI POP POP POP POP POP POP SWAP1 JUMP JUMPDEST DUP5 RETURNDATASIZE DUP8 ADD ADD PUSH1 0x20 DUP3 DUP6 ADD ADD GT ISZERO PUSH2 0x5790 JUMPI POP POP POP POP POP POP SWAP1 JUMP JUMPDEST PUSH2 0x3B69 PUSH1 0x20 DUP3 DUP7 ADD ADD DUP8 PUSH2 0x4991 JUMP JUMPDEST PUSH1 0x20 DUP1 DUP3 MSTORE PUSH1 0x28 SWAP1 DUP3 ADD MSTORE PUSH32 0x455243313135353A204552433131353552656365697665722072656A65637465 PUSH1 0x40 DUP3 ADD MSTORE PUSH8 0x6420746F6B656E73 PUSH1 0xC0 SHL PUSH1 0x60 DUP3 ADD MSTORE PUSH1 0x80 ADD SWAP1 JUMP JUMPDEST PUSH1 0x1 PUSH1 0x1 PUSH1 0xA0 SHL SUB DUP7 DUP2 AND DUP3 MSTORE DUP6 AND PUSH1 0x20 DUP3 ADD MSTORE PUSH1 0x40 DUP2 ADD DUP5 SWAP1 MSTORE PUSH1 0x60 DUP2 ADD DUP4 SWAP1 MSTORE PUSH1 0xA0 PUSH1 0x80 DUP3 ADD DUP2 SWAP1 MSTORE PUSH1 0x0 SWAP1 PUSH2 0x5821 SWAP1 DUP4 ADD DUP5 PUSH2 0x4814 JUMP JUMPDEST SWAP8 SWAP7 POP POP POP POP POP POP POP JUMP INVALID 0xC3 0xD5 DUP2 PUSH9 0xC5AE7397731D063D5B 0xBF RETURNDATASIZE PUSH6 0x7854427343F4 0xC0 DUP4 0x24 0xF PUSH27 0xACAA2D0F62A2646970667358221220547046744CB6B997EF96F560 0xF9 DUP16 PUSH31 0x87B669ACD74C8BAE3853BDA7A78F42A20664736F6C634300080E0033000000 ",
  "sha1": "4ab72ac395757d236fe1ac7f8b71b6f456b8cf37",
  "source": "// SPDX-License-Identifier:\tUNLICENSED\n\npragma solidity ^0.8.0;\n\nimport \"./Constants.sol\";\nimport \"./Base.sol\";\nimport \"./Hero.sol\";\nimport \"./HeroXYZ.sol\";\nimport \"./CultureCoin.sol\";\n\ncontract BaseSpells is Base {\n\taddress private cCA;\n\tCultureCoin CC;\n\tmapping(address => bool) public isAddon;\n\n\tmapping(address => mapping(uint256 => uint)) private hSummons;\t\t// A count of current summons.\n\tmapping(address => mapping(uint256 => mapping(int => bool))) public hState;\n\tmapping(address => mapping(uint256 => uint256)) private lastPowerShift;\n\tmapping(address => mapping(uint256 => HotsNDots)) private hotNDots;\t\t// Where the heal and damage over time go for resolving..\n\tmapping(address => mapping(uint256 => Tags)) private enemies;\n\tmapping(address => mapping(uint256 => uint256)) private playerExp;\n\tmapping(address => mapping(uint256 => uint256)) private expReward;\n\tmapping(address => mapping(uint256 => mapping(uint256 => bool))) private blockLOS;\t\t// Always use lower id as first key for LOS checking.\n\tmapping(address => mapping(uint256 => int)) private hX;\n        mapping(address => mapping(uint256 => int)) private hY;\n        mapping(address => mapping(uint256 => int)) private hZ;\n\tmapping(address => mapping(uint256 => uint)) private skin;\n\n\tmapping(address => mapping(uint256 => bool)) private charmed; \t\t// Not using bool because there could be types of charms.\n\n\n\t// Begin building the world here...\n\n    \tfunction initialize (address _cCA, address cultureCoin, string memory _uri) external initializer {\n\t\t__ERC1155_init(_uri);\n\t\t__ERC1155Burnable_init();\n\t\t__ReentrancyGuard_init();\n\t\n\t\tcCA = _cCA;\n\t\tCC = CultureCoin(cultureCoin);\n    \t}\n        function getXYZ(address _hero, uint256 _hId) public returns(HeroXYZ memory) {\n\t\tHero hero = Hero(_hero);\n\t\t(int a, int b) = hero.getAB(_hId);\n                return HeroXYZ(hX[_hero][_hId], hY[_hero][_hId], hZ[_hero][_hId], a, b);\n        }\n        function setXYZ(address _hero, uint256 _hId, int _x, int _y, int _z) public {\n                require(msg.sender == cCA || isAddon[msg.sender], \"setXYZ\");\n\n                hX[_hero][_hId] = _x;\n                hY[_hero][_hId] = _y;\n                hZ[_hero][_hId] = _z;\n        }\n\tfunction getAddon(address _addon) external view returns(bool) {\n        \treturn isAddon[_addon];\n    \t}\n        function setAddon(address _addon, bool _onOff) public {\n                require(msg.sender == cCA, \"Only admins may set addon.\");\n                isAddon[_addon] = _onOff;\n        }\n\tfunction getSkin(address _hero, uint256 _hId) public returns(uint) {\n\t\treturn skin[_hero][_hId];\n\t}\n\tfunction setSkin(address _hero, uint256 _hId, uint _amount) public {\n\t\trequire(msg.sender == cCA || isAddon[msg.sender], \"Only admins can set the skin.\");\n\t\tskin[_hero][_hId] = _amount;\n\t}\n\tfunction setState(address _hero, uint256 _hId, int _which, bool _state) public {\n                require(msg.sender == cCA || isAddon[msg.sender] , \"Only admins can set the state like this.\");\n                _setState(_hero, _hId, _which, _state);\n        }\n\tfunction _setState(address _hero, uint256 _hId, int _which, bool _state) internal {\n                hState[_hero][_hId][_which] = _state;\n\t}\n        function getState(address _hero, uint256 _hId, int _which) public view returns(bool) {\n                return hState[_hero][_hId][_which];\n        }\n\tfunction sqrt(int x) public view returns (int y) {\n    \t\tint z = (x + 1) / 2;\n    \t\ty = x;\n    \t\twhile (z < y) {\n        \t\ty = z;\n        \t\tz = (x / z + z) / 2;\n\t\t}\n   \t}\n\tfunction xyzDist(HeroXYZ memory one, HeroXYZ memory two) public returns(uint256) {\n                return uint(sqrt((one.hX - two.hX) * (one.hX - two.hX) +\n                            (one.hY - two.hY) * (one.hY - two.hY) +\n                            (one.hZ - two.hZ) * (one.hZ - two.hZ)));\n\t}\n\tfunction xyzInRange(address _hero, uint256 _hId, uint256 _target, uint256 _maxRange) public returns(bool) {\n                Hero hero = Hero(_hero);\n\n\t\tHeroXYZ memory one = getXYZ(_hero, _hId);\n\t\tHeroXYZ memory two = getXYZ(_hero, _target);\n\n\n\t\treturn sqrt((one.hX - two.hX) * (one.hX - two.hX) +\n\t\t\t    (one.hY - two.hY) * (one.hY - two.hY) +\n\t\t\t    (one.hZ - two.hZ) * (one.hZ - two.hZ) +\n\t\t\t    \t\t0.00000\n\t\t\t     //int(uint(one.hAlpha-two.hAlpha)) + int(uint(one.hBeta-two.hBeta))\n\t\t\t    \t\t\t\t) // <=== This \")\" is out here because we dont want to lose it in the top half.\n\t\t\t    \t\t<= \n\t\t\t\tint (_maxRange); \t  // This is the bottom half of this check.\n\t}\n\tfunction hasLOS(address _hero, uint256 _hId, uint256 _target) public view returns(bool) {\n\t\tif(_hId > _target) {\n\t\t\treturn !blockLOS[_hero][_target][_hId];\n\t\t} else {\n\t\t\treturn !blockLOS[_hero][_hId][_target];\n\t\t}\n\t\treturn true;\n\t}\n\tfunction addonMintTo(address _gM, uint _what, uint _amount) external {\n\t\trequire(cCA == msg.sender || isAddon[msg.sender], \"You aren't an admin.\");\n\t\t_mint(_gM, uint(_what), _amount, \"addonMintTo\");\n\t}\n\tfunction castTo(address _hero, uint256 _to, int _what, uint _amount) public {\n\t\trequire(msg.sender == cCA || isAddon[msg.sender], \"castTo\");\n\t\t_castTo(Hero(_hero), _to, _what, _amount);\n\t}\n\tfunction _castTo(Hero hero, uint256 _to, int _what, uint _amount) internal {\n\t\t_mint(address(hero), uint(_what), _amount, \"_castTo\");\n\t\thero.doCast(_to, uint(_what), _amount);\n\t}\n\tfunction getStamMult(address _hero, uint256 _target) public view returns(uint256) {\n\t\treturn 100;\t\t// FIXME: Check state and passives...\n\t}\n\tfunction getPowerMult(address _hero, uint256 _target, uint _power) public view returns(uint256) {\n\t\treturn 10;\t// In case of powershifted heros returns 1? FIXME\n\t}\n\tfunction getPowBase(address _hero, uint256 _target) public view returns(uint256) {\n\t\treturn 100;\n\t}\n\tfunction getHPBase(address _hero, uint256 _target) public view returns(uint256) {\n\t\treturn 100;\n\t}\n\tfunction powerUp(Hero hero, uint256 _target, uint _power, uint _powerMax) internal returns(uint) {\n\t\tuint power;\n\t\tif(lastPowerShift[address(hero)][_target] == 0) {\n\t\t\tlastPowerShift[address(hero)][_target] = block.timestamp;\n\t\t\treturn _power;\n\t\t}\n\n\t\tuint ticks = block.timestamp - lastPowerShift[address(hero)][_target];\n\t\tlastPowerShift[address(hero)][_target] = block.timestamp;\n\n\t\tif(hero.canCast(_target, BLOODLUST) || hero.canCast(_target, ARCANE_POWER) || hero.canCast(_target, SUMMON)) {\n\t\t\tpower = _power + (_powerMax * 0.005 ether / 1.0 ether) * ticks;\t\t// Say 0.5% mana per second.\n\t\t} \n\n\t\tif(power > _powerMax) {\n\t\t\treturn _powerMax;\n\t\t} else {\n\t\t\treturn power;\n\t\t}\n\t}\n\tfunction getPowerShift(address _hero, uint256 _target, uint _power, uint _powerMax) public returns(int) {\n\t\tHero hero = Hero(_hero);\n\t\trequire(cCA == msg.sender || isAddon[msg.sender], \"You can't take this.\");\n\n                uint power = powerUp(hero, _target, _power, _powerMax);\n\t\tif (power > _power) {\n\t\t\treturn int(power - _power);\n\t\t} else {\n\t\t\treturn 0;\n\t\t}\n        }\n\tfunction log2(uint x) public returns (uint y){\n   assembly {\n        let arg := x\n        x := sub(x,1)\n        x := or(x, div(x, 0x02))\n        x := or(x, div(x, 0x04))\n        x := or(x, div(x, 0x10))\n        x := or(x, div(x, 0x100))\n        x := or(x, div(x, 0x10000))\n        x := or(x, div(x, 0x100000000))\n        x := or(x, div(x, 0x10000000000000000))\n        x := or(x, div(x, 0x100000000000000000000000000000000))\n        x := add(x, 1)\n        let m := mload(0x40)\n        mstore(m,           0xf8f9cbfae6cc78fbefe7cdc3a1793dfcf4f0e8bbd8cec470b6a28a7a5a3e1efd)\n        mstore(add(m,0x20), 0xf5ecf1b3e9debc68e1d9cfabc5997135bfb7a7a3938b7b606b5b4b3f2f1f0ffe)\n        mstore(add(m,0x40), 0xf6e4ed9ff2d6b458eadcdf97bd91692de2d4da8fd2d0ac50c6ae9a8272523616)\n        mstore(add(m,0x60), 0xc8c0b887b0a8a4489c948c7f847c6125746c645c544c444038302820181008ff)\n        mstore(add(m,0x80), 0xf7cae577eec2a03cf3bad76fb589591debb2dd67e0aa9834bea6925f6a4a2e0e)\n        mstore(add(m,0xa0), 0xe39ed557db96902cd38ed14fad815115c786af479b7e83247363534337271707)\n        mstore(add(m,0xc0), 0xc976c13bb96e881cb166a933a55e490d9d56952b8d4e801485467d2362422606)\n        mstore(add(m,0xe0), 0x753a6d1b65325d0c552a4d1345224105391a310b29122104190a110309020100)\n        mstore(0x40, add(m, 0x100))\n        let magic := 0x818283848586878898a8b8c8d8e8f929395969799a9b9d9e9faaeb6bedeeff\n        let shift := 0x100000000000000000000000000000000000000000000000000000000000000\n        let a := div(mul(x, magic), shift)\n        y := div(mload(add(m,sub(255,a))), shift)\n        y := add(y, mul(256, gt(arg, 0x8000000000000000000000000000000000000000000000000000000000000000)))\n    }  \n}\n\tfunction damageFloor(uint _amount, int _resist) public pure returns(uint) {\n\t\tif(uint(_resist) > _amount) {\n\t\t\treturn 0;\n\t\t} else {\n\t\t\treturn _amount - uint(_resist);\n\t\t}\n\t}\n\tfunction getLevel(address _hero, uint256 _hId) public returns(uint) {\n\t\treturn log2(playerExp[_hero][_hId]+1)+1;\n\t}\n\tfunction addExperience(address _hero, uint256 _hId, uint256 _target) public returns(uint) {\n\t\trequire(cCA == msg.sender || isAddon[msg.sender], \"You can't add that.\");\n\t\tplayerExp[_hero][_hId] += expReward[_hero][_target] + 1;\n\t\treturn expReward[_hero][_target] + 1;\n\t}\n\tstruct Tags {\n\t\tuint maxTags;\n\t\tuint addTags;\n\t\tmapping(uint256 => bool) tagged;\n\t}\n\tfunction _tag(Tags storage tags, uint256 _hId) internal {\n\t\ttags.addTags++;\n\t\ttags.tagged[_hId] = true;\n\t}\n\tfunction shadowTag(address _hero, uint256 _hId, uint256 _target) public returns(bool) {\n\t\trequire(cCA == msg.sender || isAddon[msg.sender], \"You can't force this tag.\");\n\t\tTags storage tags = enemies[_hero][_target];\n\t\t_tag(tags, _hId);\n\t}\n\n\tfunction tag(address _hero, uint256 _hId, uint256 _target) public returns(bool) {\n\t\trequire(cCA == msg.sender || isAddon[msg.sender], \"You can't tag this.\");\n\t\tTags storage tags = enemies[_hero][_target];\n\t\tif(tags.maxTags >= tags.addTags) {\n\t\t\t_tag(tags, _hId);\n\t\t\treturn true;\n\t\t}\n\t\treturn false;\n\t}\n\tfunction tagged(address _hero, uint256 _hId, uint256 _target) public view returns(bool) {\n\t\tTags storage tags = enemies[_hero][_target];\n\t\treturn tags.tagged[_hId];\n\t}\n\tfunction _yards(uint _yards) public returns(uint256) {\n\t\treturn _yards * 100000;\n\t}\n\t// Arcane Orb\n\tfunction castAO(address _hero, uint256 _hId, uint256 _to1, uint256 _to2) public {\n\t\tHero hero = Hero(_hero);\n\t\trequire(hero.ownerOf(_hId) == msg.sender || isAddon[msg.sender], \"You can't do that.\");\n\t\trequire(hero.canCast(_hId, ARCANE_ORB), \"Hero can't cast arcane orb.\");\n\n                (uint heroHp, uint heroPower) = hero.getHP(_hId);\n                bool heroAlive = hero.alive(heroHp);\n\t\trequire(heroAlive, \"You are dead.\");\n\n\t\tuint heroLevel = 1; // getLevel(_hero, _hId);\t// FIXME\n\t\tuint cost = heroLevel * 0.1 ether;\n\t\t//require(cost <= heroPower, \"You lack the power to do that.\");\n\t\t//hero.powerDown(_hId, cost);\t\t// FIXME.\n\n\t\tuint minted;\n                (uint tarHp, uint tarPow) = hero.getHP(_to1);\n                bool tarAlive = hero.alive(tarHp);\n\t\tif(tarAlive && xyzInRange(_hero, _hId, _to1, _yards(10))) {\n\t\t\t_castTo(hero, _to1, ARCANE_ORB, 1);\t// This is likely also the _hero...\n\t\t\tminted++;\n\t\t}\n\n\t\t(tarHp, tarPow) = hero.getHP(_to2);\n                tarAlive = hero.alive(tarHp);\n\t\tif(tarAlive && xyzInRange(_hero, _hId, _to2, _yards(10))) {\n                        _castTo(hero, _to2, ARCANE_ORB, 1);      // This is likely also the _hero...\n                        minted++;\n                }\n\t\t_castTo(hero, _hId, ARCANE_ORB, 3 - minted);\n\t}\n        function curSummons(address _hero, uint256 _hId) public returns(uint) {\n                return hSummons[_hero][_hId];\n        }\n        function maxSummon(address _hero, uint256 _hId) public returns(uint) {\n                return 3;\n        }\n\t// Summon beasts\n\tfunction castSB(address _hero, uint256 _hId, uint _beastCount, int _petType, uint ccAmount) public {\n\t\tHero hero = Hero(_hero);\n\t\trequire(hero.ownerOf(_hId) == msg.sender || isAddon[msg.sender], \"You can't do that.\");\n\n\t\trequire(hero.canCast(_hId, SUMMON), \"Hero can't cast summon creatures.\");\n\t\trequire(curSummons(_hero, _hId) + _beastCount > maxSummon(_hero, _hId), \"Hero can't summon that many total creatures.\");\n\n\t\t// uint256 _tokenId, address _to, int _class, uint256 _amount  // TokenId is the current alpha...\n\t\tHeroXYZ memory xyz = getXYZ(_hero, _hId);\n\t\tuint256 _tokenId = uint(xyz.hAlpha);\n\t\tuint _amount = CC.dexCCInFrom(msg.sender, ccAmount);\n\n\t\tfor(uint i = 0; i < _beastCount; i++) {\n\t\t\tuint256 newHero = hero.heroMint(_tokenId, msg.sender, _petType, _amount);\n\t\t\t_setState(_hero, newHero, FLAG_IS_SUMMONED, true);\n\t\t\t_setState(_hero, newHero, FLAG_IS_NPC, true);\n\t\t\thSummons[_hero][_hId]++;\n\t\t\t//hero.summon(_hId, newHero);\n\t\t}\n\t}\n\t/*\n\tfunction castRES(address _hero, uint256 _hId, uint256 _target) public returns(uint) {\n\t\tHero hero = Hero(_hero);\n\t\tStats memory stats = hero.getStats(_hId);\n                require(hero.canCast(_hId, RESURECTION), \"Hero can't cast res.\");\n                require(hero.ownerOf(_hId) == msg.sender || isAddon[msg.sender], \"You can't do that.\");\n\n                (uint heroHp, uint heroPower) = hero.getHP(_hId);\n                bool heroAlive = hero.alive(heroHp);\n                require(heroAlive || stats.talent.talent & (1 << uint(SELF_RES)) > 0, \"You are dead.\");\n                uint heroLevel = 1; //getLevel(_hero, _hId);\n                uint cost = heroLevel * 0.1 ether;\n                //require(cost <= heroPower, \"You lack the power to do that.\");\t\t// FIXME : Turn oun power use...?\n\n                if(!hero.canCast(_hId, ANCESTRAL_KNOWLEDGE)) {\n\t\t\t//hero.powerDown(_hId, cost);\n\t\t}\n\n                (uint tarHp, uint tarPow) = hero.getHP(_target);\n\t\tif(hero.alive(tarHp)) {\n\t\t} else {\n                \thero.healByPercent(_hId, _target, 0.5 ether, META, stats.effect);\n\t\t}\n\t\trequire(getState(_hero, _target, FLAG_IS_ENEMY) == getState(_hero, _hId, FLAG_IS_ENEMY), \"Not pals.\");\n\t} */\n\tfunction hot(address _hero, uint256 _hId, uint256 _target, uint _x, uint _ten) public {\n\t\tHero hero = Hero(_hero);\n                Stats memory stats = hero.getStats(_hId);\n                require(cCA == msg.sender || isAddon[msg.sender], \"You can't do that.\");\n\n                (uint heroHp, uint heroPower) = hero.getHP(_hId);\n                bool heroAlive = hero.alive(heroHp);\n                require(heroAlive, \"You are dead.\");\n\n                uint heroLevel = 1; //getLevel(_hero, _hId);\n                uint cost = heroLevel * 0.1 ether;\n                require(cost <= heroPower, \"You lack the power to do that.\");\n                hero.powerDown(_hId, cost);\n\n\n                (uint tarHp, uint tarPow) = hero.getHP(_target);\n                require(hero.alive(tarPow), \"Target is dead.\");\n                require(!getState(_hero, _target, FLAG_IS_ENEMY), \"Not a pal.\");\n                //hero.healBy(_hId, _target, 1 ether, META, stats.effect);\n\n\t\tHotsNDots memory hd = hotNDots[address(hero)][_target];\n                for (uint i = 1; i < HOT_SLOTS; i++) {  // HOTS\n\t\t\tif(!hd.hots[i].needsTightening) {\n\t\t\t\thd.hots[i].needsTightening = true;\n\t\t\t\thd.hots[i].hero = _hero;\n\t\t\t\thd.hots[i].target = _target;\n\t\t\t\thd.hots[i].heal = _x;\n\t\t\t\thd.hots[i].interval = _ten;\t\t// 10 seconds\n        \t\t\thd.hots[i].startTime = block.timestamp;\n        \t\t\thd.hots[i].maxTicks = _ten;\n\n\t\t\t\tbreak;\n\t\t\t}\n\t\t}\n\t}\n\tfunction dot(address _hero, uint256 _hId, uint256 _target, uint _x, uint _ten) public {\n\t\tHero hero = Hero(_hero);\n                Stats memory stats = hero.getStats(_hId);\n                require(hero.canCast(_hId, ANGUISH), \"Hero can't cast anguish.\");\n                require(hero.ownerOf(_hId) == msg.sender || isAddon[msg.sender], \"You can't do that.\");\n\n                (uint heroHp, uint heroPower) = hero.getHP(_hId);\n                bool heroAlive = hero.alive(heroHp);\n                require(heroAlive, \"You are dead.\");\n\n                uint heroLevel = 1; //getLevel(_hero, _hId);\n                uint cost = heroLevel * 0.1 ether;\n                require(cost <= heroPower, \"You lack the power to do that.\");\n                hero.powerDown(_hId, cost);\n\n                (uint tarHp, uint tarPow) = hero.getHP(_target);\n                require(hero.alive(tarPow), \"Target is dead.\");\n                require(!getState(_hero, _target, FLAG_IS_ENEMY), \"Not a pal.\");\n                //hero.healBy(_hId, _target, 1 ether, META, stats.effect);\n\n                HotsNDots memory hd = hotNDots[address(hero)][_target];\n                for (uint i = 1; i < DOT_SLOTS; i++) {  // DOTS\n                        if(!hd.dots[i].needsTightening) {\n                                hd.dots[i].needsTightening = true;\n                                hd.dots[i].hero = _hero;\n                                hd.dots[i].target = _target;\n                                hd.dots[i].damage = _x;\n                                hd.dots[i].interval = _ten;               // 10 seconds\n                                hd.dots[i].startTime = block.timestamp;\n                                hd.dots[i].maxTicks = _ten;\n\n                                break;\n                        }\n                }\n\t}\n\n\tfunction canReset(Screwdrivers memory _nutsNBolts) view internal returns(bool) {\n\t\treturn _nutsNBolts.interval * _nutsNBolts.curTicks + _nutsNBolts.startTime <= block.timestamp;\n\t}\n\t// Try to resolve all damage and heals since last time.\n        function resolveHP(address _hero, uint256 _target, uint _curHp, Screwdrivers memory _nutsNBolts) public returns(uint) {\n\t\tHero hero = Hero(_hero);\n\t\trequire(cCA == msg.sender || isAddon[msg.sender], \"You can't try that!\");\n\n\t\tuint hp = _curHp;\n\t\tif(_nutsNBolts.needsTightening) {\n\t\t\thp = tighten1(hero, _target, hp, _nutsNBolts);\n\t\t}\n\t\treturn tighten(hero, _target, hp);\n\t}\n\tfunction getRealDamage(Hero hero, uint256 _target, uint _hp, Screwdrivers memory _nutsNBolts) internal returns(uint) {\n\t\tuint _damage = 0;\n\n\t\tif(_nutsNBolts.startTime + _nutsNBolts.curTicks * _nutsNBolts.interval <= block.timestamp) {\n\t\t\tuint256 secondsElapsedFromStart = block.timestamp - _nutsNBolts.startTime;\n\t\t\tuint256 ticksFromStart = secondsElapsedFromStart / _nutsNBolts.interval;\n\t\t\tif(ticksFromStart >= _nutsNBolts.maxTicks) {\n\t\t\t\tticksFromStart = _nutsNBolts.maxTicks;\n\t\t\t}\n\t\t\tuint256 elapsedTicks = _nutsNBolts.curTicks - ticksFromStart;\n\n\t\t\t_damage += _nutsNBolts.damage * elapsedTicks;\n\n\t\t\t_nutsNBolts.curTicks = ticksFromStart;\n\t\t}\n\n\t\treturn _damage;\t\t// FIXME so it is modified by resistances/toughness.\n\t}\n\tfunction getRealHealing(Hero hero, uint256 _target, uint _hp, Screwdrivers memory _nutsNBolts) internal returns(uint) {\n\t\tuint _healing = 0;\n\t\tif(_nutsNBolts.startTime + _nutsNBolts.curTicks * _nutsNBolts.interval <= block.timestamp) {\n                        uint256 secondsElapsedFromStart = block.timestamp - _nutsNBolts.startTime;\n                        uint256 ticksFromStart = secondsElapsedFromStart / _nutsNBolts.interval;\n                        if(ticksFromStart >= _nutsNBolts.maxTicks) {\n                                ticksFromStart = _nutsNBolts.maxTicks;\n                        }\n                        uint256 elapsedTicks = _nutsNBolts.curTicks - ticksFromStart;\n\n\t\t\t_healing += _nutsNBolts.heal * elapsedTicks;\n\t\t\t_nutsNBolts.curTicks = ticksFromStart;\n\t\t}\n\t\treturn _healing;\n\t}\n\tfunction tighten1(Hero hero, uint256 _target, uint _hp, Screwdrivers memory _nutsNBolts) internal returns(uint) {\n\t\tif(!_nutsNBolts.needsTightening) {\n\t\t\treturn _hp;\n\t\t}\n\n\t\tif(_nutsNBolts.heal > 0) {\n\t\t\tuint heal = getRealHealing(hero, _target, _hp, _nutsNBolts);\t\t\t\n\t\t\tuint maxHp = hero.getMaxHp(_target);\n\t\t\tif(heal + _hp > maxHp) {\n\t\t\t\t_hp = maxHp;\n\t\t\t}\n\t\t}\n\n\t\tif(_nutsNBolts.damage > 0) {\n\t\t\t//require(false, \"We are good boys here.\");\n\t\t\tuint damage = getRealDamage(hero, _target, _hp, _nutsNBolts);\n\t\t\tif(damage >  _hp) {\n\t\t\t\t_hp = 0;\n\t\t\t} else {\n\t\t\t\t_hp =  _hp - damage;\n\t\t\t}\n\t\t}\n\t\treturn _hp;\n\t}\n\tfunction rotate(Screwdrivers memory driver) internal {\n\t\tif(canReset(driver)) {\n                \tScrewdrivers memory empty;\n                \tdriver = empty;\n                }\n\t}\n\tfunction tighten(Hero hero, uint256 _target, uint _hp) internal returns(uint) {\n\t\tuint hp = _hp;\n\n                HotsNDots memory hd = hotNDots[address(hero)][_target];\n\n                for (uint i = 1; i < HOT_SLOTS; i++) {\t// HOTS\n\t\t\thp = tighten1(hero, _target, hp, hd.hots[i]);\n\t\t\trotate(hd.hots[i]);\n\n                }\n\t\tfor (uint i = 1; i < DOT_SLOTS; i++) {\t// DOTS\n                        hp = tighten1(hero, _target, hp, hd.dots[i]);\n\t\t\trotate(hd.dots[i]);\n                }\n\t\treturn hp;\n\t}\n}\n\n",
  "sourcePath": "contracts/BaseSpells.sol",
  "type": "contract"
}