{
  "abi": [
    {
      "inputs": [
        {
          "internalType": "address",
          "name": "",
          "type": "address"
        }
      ],
      "name": "proxies",
      "outputs": [
        {
          "internalType": "contract OwnableDelegateBook",
          "name": "",
          "type": "address"
        }
      ],
      "stateMutability": "view",
      "type": "function"
    }
  ],
  "bytecode": "608060405234801561001057600080fd5b5060d38061001f6000396000f3fe6080604052348015600f57600080fd5b506004361060285760003560e01c8063c455279114602d575b600080fd5b60536038366004606f565b6000602081905290815260409020546001600160a01b031681565b6040516001600160a01b03909116815260200160405180910390f35b600060208284031215608057600080fd5b81356001600160a01b0381168114609657600080fd5b939250505056fea2646970667358221220f84c2140a04877199bafa867cf32d56da19d9817bbd6c0e9f1c36da75b836e4164736f6c63430008090033",
  "bytecodeSha1": "608638f6acaec91c90ff89e3cf3ab07429b3672a",
  "compiler": {
    "evm_version": "istanbul",
    "optimizer": {
      "enabled": true,
      "runs": 100
    },
    "version": "0.8.9+commit.e5eed63a"
  },
  "contractName": "BookRegistry",
  "language": "Solidity",
  "natspec": {
    "kind": "dev",
    "methods": {},
    "version": 1
  },
  "opcodes": "PUSH1 0x80 PUSH1 0x40 MSTORE CALLVALUE DUP1 ISZERO PUSH1 0xF JUMPI PUSH1 0x0 DUP1 REVERT JUMPDEST POP PUSH1 0x4 CALLDATASIZE LT PUSH1 0x28 JUMPI PUSH1 0x0 CALLDATALOAD PUSH1 0xE0 SHR DUP1 PUSH4 0xC4552791 EQ PUSH1 0x2D JUMPI JUMPDEST PUSH1 0x0 DUP1 REVERT JUMPDEST PUSH1 0x53 PUSH1 0x38 CALLDATASIZE PUSH1 0x4 PUSH1 0x6F JUMP JUMPDEST PUSH1 0x0 PUSH1 0x20 DUP2 SWAP1 MSTORE SWAP1 DUP2 MSTORE PUSH1 0x40 SWAP1 KECCAK256 SLOAD PUSH1 0x1 PUSH1 0x1 PUSH1 0xA0 SHL SUB AND DUP2 JUMP JUMPDEST PUSH1 0x40 MLOAD PUSH1 0x1 PUSH1 0x1 PUSH1 0xA0 SHL SUB SWAP1 SWAP2 AND DUP2 MSTORE PUSH1 0x20 ADD PUSH1 0x40 MLOAD DUP1 SWAP2 SUB SWAP1 RETURN JUMPDEST PUSH1 0x0 PUSH1 0x20 DUP3 DUP5 SUB SLT ISZERO PUSH1 0x80 JUMPI PUSH1 0x0 DUP1 REVERT JUMPDEST DUP2 CALLDATALOAD PUSH1 0x1 PUSH1 0x1 PUSH1 0xA0 SHL SUB DUP2 AND DUP2 EQ PUSH1 0x96 JUMPI PUSH1 0x0 DUP1 REVERT JUMPDEST SWAP4 SWAP3 POP POP POP JUMP INVALID LOG2 PUSH5 0x6970667358 0x22 SLT KECCAK256 0xF8 0x4C 0x21 BLOCKHASH LOG0 BASEFEE PUSH24 0x199BAFA867CF32D56DA19D9817BBD6C0E9F1C36DA75B836E COINBASE PUSH5 0x736F6C6343 STOP ADDMOD MULMOD STOP CALLER ",
  "sha1": "81ec738dfda399b9bb332c6dae033a15c75b8a3d",
  "source": "// SPDX-License-Identifier: MIT\n\npragma solidity ^0.8.0;\n\nimport \"../openzeppelin-solidity/contracts/token/ERC721/ERC721.sol\";\nimport \"../openzeppelin-solidity/contracts/token/ERC721/extensions/ERC721Enumerable.sol\";\nimport \"../openzeppelin-solidity/contracts/access/Ownable.sol\";\nimport \"../openzeppelin-solidity/contracts/utils/math/SafeMath.sol\";\nimport \"../openzeppelin-solidity/contracts/utils/Strings.sol\";\n\nimport \"./common/meta-transactions/ContentMixin.sol\";\nimport \"./common/meta-transactions/NativeMetaTransaction.sol\";\n\nimport \"../openzeppelin-solidity/contracts/token/ERC20/utils/SafeERC20.sol\";\n\n\ncontract OwnableDelegateBook {}\n\ncontract BookRegistry {\n    mapping(address => OwnableDelegateBook) public proxies;\n}\n\n/**\n * @title ERC721BookTradable\n * ERC721BookTradable - Book Tradable ERC721 contract whitelists a trading address with minting functionality.\n */\nabstract contract ERC721BookTradable is ContextMixin, ERC721Enumerable, NativeMetaTransaction, Ownable {\n    using SafeMath for uint256;\n\n    uint256 private _currentTokenId = 0;\n    uint256 public maxmint;\n\n    address public cCA;\n\n    constructor(\n        string memory _name,\n        string memory _symbol,\n        address _cCA,\n\tuint256 _maxmint\n    ) ERC721(_name, _symbol) {\n        cCA = _cCA;\n        _initializeEIP712(_name);\n\n        maxmint = _maxmint;\n    }\n\n    function setMaxMint(uint256 _maxmint) public {\n    \trequire(msgSender() == owner() || msgSender()  == cCA);\n\n    \tmaxmint = _maxmint;\n    }\n\n    // Handle default pricing and minting.\n    function getCurrentToken () public view returns(uint256) {\n        return _currentTokenId;\n    }\n\n\n    /**\n     * @dev Mints a token to an address with a tokenURI.\n     * @param _to address of the future owner of the token\n     */\n    function mintTo(address _to) public returns(uint256) {\n        require(msgSender() == owner() || msgSender() == cCA, \"Only owner and marketplace can mint tokens.\");\n\trequire(_getNextTokenId() < maxmint, \"Already at max tokens.\") ;\n\n        uint256 newTokenId = _getNextTokenId();\n        _mint(_to, newTokenId);\n\t_incrementTokenId();\n\n\treturn newTokenId;\n    }\n\n    /**\n     * @dev calculates the next token ID based on value of _currentTokenId\n     * @return uint256 for the next token ID\n     */\n    function _getNextTokenId() public view returns (uint256) {\n        return _currentTokenId.add(1);\n    }\n\n    /**\n     * @dev increments the value of _currentTokenId\n     */\n    function _incrementTokenId() public {\n        _currentTokenId++;\n    }\n\n    function baseTokenURI() virtual public view returns (string memory);\n\n    function tokenURI(uint256 _tokenId) override public view returns (string memory) {\n        return string(abi.encodePacked(baseTokenURI(), Strings.toString(_tokenId)));\n    }\n\n    /**\n     * Override isApprovedForAll to whitelist user's OpenSea proxy accounts to enable gas-less listings.\n     *\n    function isApprovedForAll(address owner, address operator)\n        override\n        public\n        view\n        returns (bool)\n    {\n        // Whitelist OpenSea proxy contract for easy trading.\n        BookRegistry bookRegistry = BookRegistry(cCA);\n        if (address(bookRegistry.proxies(owner)) == operator) {\n            return true;\n        }\n\n        return super.isApprovedForAll(owner, operator);\n    }\n*/\n\n    /**\n     * This is used instead of msg.sender as transactions won't be sent by the original token owner, but by OpenSea.\n     */\n    function _msgSender()\n        internal\n        override\n        view\n        returns (address sender)\n    {\n        return ContextMixin.msgSender();\n    }\n}\n",
  "sourcePath": "contracts/ERC721BookTradable.sol",
  "type": "contract"
}