{
  "abi": [
    {
      "anonymous": false,
      "inputs": [
        {
          "indexed": true,
          "internalType": "address",
          "name": "owner",
          "type": "address"
        },
        {
          "indexed": true,
          "internalType": "address",
          "name": "spender",
          "type": "address"
        },
        {
          "indexed": false,
          "internalType": "uint256",
          "name": "value",
          "type": "uint256"
        }
      ],
      "name": "Approval",
      "type": "event"
    },
    {
      "anonymous": false,
      "inputs": [
        {
          "indexed": false,
          "internalType": "string",
          "name": "_meme",
          "type": "string"
        }
      ],
      "name": "Debug",
      "type": "event"
    },
    {
      "anonymous": false,
      "inputs": [
        {
          "indexed": false,
          "internalType": "address",
          "name": "_address",
          "type": "address"
        }
      ],
      "name": "DebugAddress",
      "type": "event"
    },
    {
      "anonymous": false,
      "inputs": [
        {
          "indexed": false,
          "internalType": "uint256",
          "name": "defaultValue",
          "type": "uint256"
        }
      ],
      "name": "DebugUINT",
      "type": "event"
    },
    {
      "anonymous": false,
      "inputs": [
        {
          "indexed": false,
          "internalType": "string",
          "name": "level",
          "type": "string"
        },
        {
          "indexed": false,
          "internalType": "string",
          "name": "goof",
          "type": "string"
        }
      ],
      "name": "HWarn",
      "type": "event"
    },
    {
      "anonymous": false,
      "inputs": [
        {
          "indexed": false,
          "internalType": "string",
          "name": "meme",
          "type": "string"
        },
        {
          "indexed": false,
          "internalType": "address",
          "name": "newCoin",
          "type": "address"
        },
        {
          "indexed": false,
          "internalType": "uint256",
          "name": "totalSupply",
          "type": "uint256"
        },
        {
          "indexed": false,
          "internalType": "bool",
          "name": "registered",
          "type": "bool"
        }
      ],
      "name": "IRegister",
      "type": "event"
    },
    {
      "anonymous": false,
      "inputs": [
        {
          "indexed": false,
          "internalType": "string",
          "name": "_meme",
          "type": "string"
        },
        {
          "indexed": false,
          "internalType": "uint256",
          "name": "amount",
          "type": "uint256"
        }
      ],
      "name": "MCMM",
      "type": "event"
    },
    {
      "anonymous": false,
      "inputs": [
        {
          "indexed": false,
          "internalType": "string",
          "name": "crypt",
          "type": "string"
        }
      ],
      "name": "Meme",
      "type": "event"
    },
    {
      "anonymous": false,
      "inputs": [
        {
          "indexed": false,
          "internalType": "address",
          "name": "",
          "type": "address"
        }
      ],
      "name": "Seed",
      "type": "event"
    },
    {
      "anonymous": false,
      "inputs": [
        {
          "indexed": true,
          "internalType": "address",
          "name": "user",
          "type": "address"
        },
        {
          "indexed": false,
          "internalType": "uint256",
          "name": "amount",
          "type": "uint256"
        },
        {
          "indexed": false,
          "internalType": "uint256",
          "name": "index",
          "type": "uint256"
        },
        {
          "indexed": false,
          "internalType": "uint256",
          "name": "timestamp",
          "type": "uint256"
        }
      ],
      "name": "Staked",
      "type": "event"
    },
    {
      "anonymous": false,
      "inputs": [
        {
          "indexed": true,
          "internalType": "address",
          "name": "from",
          "type": "address"
        },
        {
          "indexed": true,
          "internalType": "address",
          "name": "to",
          "type": "address"
        },
        {
          "indexed": false,
          "internalType": "uint256",
          "name": "value",
          "type": "uint256"
        }
      ],
      "name": "Transfer",
      "type": "event"
    },
    {
      "anonymous": false,
      "inputs": [
        {
          "indexed": false,
          "internalType": "string",
          "name": "_meme",
          "type": "string"
        }
      ],
      "name": "WelcomeMC",
      "type": "event"
    },
    {
      "inputs": [],
      "name": "B",
      "outputs": [
        {
          "internalType": "uint256",
          "name": "",
          "type": "uint256"
        }
      ],
      "stateMutability": "view",
      "type": "function"
    },
    {
      "inputs": [],
      "name": "P",
      "outputs": [
        {
          "internalType": "address",
          "name": "",
          "type": "address"
        }
      ],
      "stateMutability": "nonpayable",
      "type": "function"
    },
    {
      "inputs": [],
      "name": "addonPay",
      "outputs": [],
      "stateMutability": "payable",
      "type": "function"
    },
    {
      "inputs": [
        {
          "internalType": "address",
          "name": "owner",
          "type": "address"
        },
        {
          "internalType": "address",
          "name": "spender",
          "type": "address"
        }
      ],
      "name": "allowance",
      "outputs": [
        {
          "internalType": "uint256",
          "name": "",
          "type": "uint256"
        }
      ],
      "stateMutability": "view",
      "type": "function"
    },
    {
      "inputs": [
        {
          "internalType": "address",
          "name": "spender",
          "type": "address"
        },
        {
          "internalType": "uint256",
          "name": "amount",
          "type": "uint256"
        }
      ],
      "name": "approve",
      "outputs": [
        {
          "internalType": "bool",
          "name": "",
          "type": "bool"
        }
      ],
      "stateMutability": "nonpayable",
      "type": "function"
    },
    {
      "inputs": [
        {
          "internalType": "address",
          "name": "account",
          "type": "address"
        }
      ],
      "name": "balanceOf",
      "outputs": [
        {
          "internalType": "uint256",
          "name": "",
          "type": "uint256"
        }
      ],
      "stateMutability": "view",
      "type": "function"
    },
    {
      "inputs": [],
      "name": "brick",
      "outputs": [
        {
          "internalType": "bool",
          "name": "",
          "type": "bool"
        }
      ],
      "stateMutability": "view",
      "type": "function"
    },
    {
      "inputs": [],
      "name": "bulkCCOut",
      "outputs": [
        {
          "internalType": "uint256",
          "name": "",
          "type": "uint256"
        }
      ],
      "stateMutability": "view",
      "type": "function"
    },
    {
      "inputs": [],
      "name": "bulkXOut",
      "outputs": [
        {
          "internalType": "uint256",
          "name": "",
          "type": "uint256"
        }
      ],
      "stateMutability": "view",
      "type": "function"
    },
    {
      "inputs": [
        {
          "internalType": "uint256",
          "name": "amount",
          "type": "uint256"
        }
      ],
      "name": "burn",
      "outputs": [],
      "stateMutability": "nonpayable",
      "type": "function"
    },
    {
      "inputs": [
        {
          "internalType": "address",
          "name": "account",
          "type": "address"
        },
        {
          "internalType": "uint256",
          "name": "amount",
          "type": "uint256"
        }
      ],
      "name": "burnFrom",
      "outputs": [],
      "stateMutability": "nonpayable",
      "type": "function"
    },
    {
      "inputs": [],
      "name": "cCA",
      "outputs": [
        {
          "internalType": "address",
          "name": "",
          "type": "address"
        }
      ],
      "stateMutability": "view",
      "type": "function"
    },
    {
      "inputs": [],
      "name": "ccXChildRate",
      "outputs": [
        {
          "internalType": "uint256",
          "name": "",
          "type": "uint256"
        }
      ],
      "stateMutability": "view",
      "type": "function"
    },
    {
      "inputs": [],
      "name": "clone",
      "outputs": [
        {
          "internalType": "address",
          "name": "",
          "type": "address"
        }
      ],
      "stateMutability": "nonpayable",
      "type": "function"
    },
    {
      "inputs": [],
      "name": "cloneAccount",
      "outputs": [
        {
          "internalType": "address",
          "name": "",
          "type": "address"
        }
      ],
      "stateMutability": "nonpayable",
      "type": "function"
    },
    {
      "inputs": [
        {
          "internalType": "uint256",
          "name": "amount",
          "type": "uint256"
        }
      ],
      "name": "cloneMoney",
      "outputs": [],
      "stateMutability": "nonpayable",
      "type": "function"
    },
    {
      "inputs": [
        {
          "internalType": "address",
          "name": "_clone",
          "type": "address"
        }
      ],
      "name": "clonesearch",
      "outputs": [
        {
          "internalType": "bool",
          "name": "",
          "type": "bool"
        }
      ],
      "stateMutability": "nonpayable",
      "type": "function"
    },
    {
      "inputs": [],
      "name": "close",
      "outputs": [],
      "stateMutability": "nonpayable",
      "type": "function"
    },
    {
      "inputs": [],
      "name": "closeAmount",
      "outputs": [
        {
          "internalType": "uint256",
          "name": "",
          "type": "uint256"
        }
      ],
      "stateMutability": "view",
      "type": "function"
    },
    {
      "inputs": [],
      "name": "closed",
      "outputs": [
        {
          "internalType": "bool",
          "name": "",
          "type": "bool"
        }
      ],
      "stateMutability": "view",
      "type": "function"
    },
    {
      "inputs": [
        {
          "internalType": "string",
          "name": "_a",
          "type": "string"
        },
        {
          "internalType": "string",
          "name": "_b",
          "type": "string"
        }
      ],
      "name": "compareStrings",
      "outputs": [
        {
          "internalType": "bool",
          "name": "",
          "type": "bool"
        }
      ],
      "stateMutability": "pure",
      "type": "function"
    },
    {
      "inputs": [
        {
          "internalType": "string",
          "name": "_a",
          "type": "string"
        },
        {
          "internalType": "string",
          "name": "_b",
          "type": "string"
        }
      ],
      "name": "concatenate",
      "outputs": [
        {
          "internalType": "string",
          "name": "",
          "type": "string"
        }
      ],
      "stateMutability": "pure",
      "type": "function"
    },
    {
      "inputs": [],
      "name": "debug",
      "outputs": [],
      "stateMutability": "nonpayable",
      "type": "function"
    },
    {
      "inputs": [],
      "name": "decimals",
      "outputs": [
        {
          "internalType": "uint8",
          "name": "",
          "type": "uint8"
        }
      ],
      "stateMutability": "view",
      "type": "function"
    },
    {
      "inputs": [
        {
          "internalType": "address",
          "name": "spender",
          "type": "address"
        },
        {
          "internalType": "uint256",
          "name": "subtractedValue",
          "type": "uint256"
        }
      ],
      "name": "decreaseAllowance",
      "outputs": [
        {
          "internalType": "bool",
          "name": "",
          "type": "bool"
        }
      ],
      "stateMutability": "nonpayable",
      "type": "function"
    },
    {
      "inputs": [
        {
          "internalType": "uint256",
          "name": "_amount",
          "type": "uint256"
        }
      ],
      "name": "dexCCIn",
      "outputs": [
        {
          "internalType": "uint256",
          "name": "",
          "type": "uint256"
        }
      ],
      "stateMutability": "nonpayable",
      "type": "function"
    },
    {
      "inputs": [
        {
          "internalType": "address",
          "name": "spender",
          "type": "address"
        },
        {
          "internalType": "uint256",
          "name": "_amount",
          "type": "uint256"
        }
      ],
      "name": "dexCCInFrom",
      "outputs": [
        {
          "internalType": "uint256",
          "name": "",
          "type": "uint256"
        }
      ],
      "stateMutability": "nonpayable",
      "type": "function"
    },
    {
      "inputs": [],
      "name": "dexCCRate",
      "outputs": [
        {
          "internalType": "uint256",
          "name": "",
          "type": "uint256"
        }
      ],
      "stateMutability": "view",
      "type": "function"
    },
    {
      "inputs": [],
      "name": "dexXMTSPIn",
      "outputs": [
        {
          "internalType": "uint256",
          "name": "",
          "type": "uint256"
        }
      ],
      "stateMutability": "payable",
      "type": "function"
    },
    {
      "inputs": [],
      "name": "dexXMTSPRate",
      "outputs": [
        {
          "internalType": "uint256",
          "name": "",
          "type": "uint256"
        }
      ],
      "stateMutability": "view",
      "type": "function"
    },
    {
      "inputs": [
        {
          "internalType": "string",
          "name": "_meme",
          "type": "string"
        }
      ],
      "name": "flagMemeCoin",
      "outputs": [],
      "stateMutability": "nonpayable",
      "type": "function"
    },
    {
      "inputs": [
        {
          "internalType": "address",
          "name": "_addon",
          "type": "address"
        }
      ],
      "name": "getAddon",
      "outputs": [
        {
          "internalType": "bool",
          "name": "",
          "type": "bool"
        }
      ],
      "stateMutability": "view",
      "type": "function"
    },
    {
      "inputs": [
        {
          "internalType": "string",
          "name": "_meme",
          "type": "string"
        }
      ],
      "name": "getCoin",
      "outputs": [
        {
          "internalType": "address",
          "name": "",
          "type": "address"
        },
        {
          "internalType": "uint256",
          "name": "",
          "type": "uint256"
        }
      ],
      "stateMutability": "view",
      "type": "function"
    },
    {
      "inputs": [],
      "name": "getDexCCRate",
      "outputs": [
        {
          "internalType": "uint256",
          "name": "",
          "type": "uint256"
        }
      ],
      "stateMutability": "view",
      "type": "function"
    },
    {
      "inputs": [],
      "name": "getDexXMTSPRate",
      "outputs": [
        {
          "internalType": "uint256",
          "name": "",
          "type": "uint256"
        }
      ],
      "stateMutability": "view",
      "type": "function"
    },
    {
      "inputs": [],
      "name": "getRewardPerHour",
      "outputs": [
        {
          "internalType": "uint256",
          "name": "",
          "type": "uint256"
        }
      ],
      "stateMutability": "view",
      "type": "function"
    },
    {
      "inputs": [],
      "name": "getSeed",
      "outputs": [],
      "stateMutability": "nonpayable",
      "type": "function"
    },
    {
      "inputs": [],
      "name": "getXAllowance",
      "outputs": [
        {
          "internalType": "uint256",
          "name": "",
          "type": "uint256"
        }
      ],
      "stateMutability": "view",
      "type": "function"
    },
    {
      "inputs": [
        {
          "internalType": "address",
          "name": "_staker",
          "type": "address"
        }
      ],
      "name": "hasStake",
      "outputs": [
        {
          "components": [
            {
              "internalType": "uint256",
              "name": "total_amount",
              "type": "uint256"
            },
            {
              "components": [
                {
                  "internalType": "address",
                  "name": "user",
                  "type": "address"
                },
                {
                  "internalType": "uint256",
                  "name": "amount",
                  "type": "uint256"
                },
                {
                  "internalType": "uint256",
                  "name": "since",
                  "type": "uint256"
                },
                {
                  "internalType": "uint256",
                  "name": "claimable",
                  "type": "uint256"
                }
              ],
              "internalType": "struct Stakeable.Stake[]",
              "name": "stakes",
              "type": "tuple[]"
            }
          ],
          "internalType": "struct Stakeable.StakingSummary",
          "name": "",
          "type": "tuple"
        }
      ],
      "stateMutability": "view",
      "type": "function"
    },
    {
      "inputs": [
        {
          "internalType": "address",
          "name": "spender",
          "type": "address"
        },
        {
          "internalType": "uint256",
          "name": "addedValue",
          "type": "uint256"
        }
      ],
      "name": "increaseAllowance",
      "outputs": [
        {
          "internalType": "bool",
          "name": "",
          "type": "bool"
        }
      ],
      "stateMutability": "nonpayable",
      "type": "function"
    },
    {
      "inputs": [
        {
          "internalType": "uint256",
          "name": "initialSupply",
          "type": "uint256"
        },
        {
          "internalType": "address",
          "name": "_cCA",
          "type": "address"
        }
      ],
      "name": "initialize",
      "outputs": [],
      "stateMutability": "nonpayable",
      "type": "function"
    },
    {
      "inputs": [],
      "name": "maxCCOut",
      "outputs": [
        {
          "internalType": "uint256",
          "name": "",
          "type": "uint256"
        }
      ],
      "stateMutability": "view",
      "type": "function"
    },
    {
      "inputs": [],
      "name": "maxXOut",
      "outputs": [
        {
          "internalType": "uint256",
          "name": "",
          "type": "uint256"
        }
      ],
      "stateMutability": "view",
      "type": "function"
    },
    {
      "inputs": [],
      "name": "name",
      "outputs": [
        {
          "internalType": "string",
          "name": "",
          "type": "string"
        }
      ],
      "stateMutability": "view",
      "type": "function"
    },
    {
      "inputs": [],
      "name": "pay",
      "outputs": [],
      "stateMutability": "payable",
      "type": "function"
    },
    {
      "inputs": [
        {
          "internalType": "address",
          "name": "_hodler",
          "type": "address"
        }
      ],
      "name": "register",
      "outputs": [],
      "stateMutability": "payable",
      "type": "function"
    },
    {
      "inputs": [],
      "name": "rewardPerHour",
      "outputs": [
        {
          "internalType": "uint256",
          "name": "",
          "type": "uint256"
        }
      ],
      "stateMutability": "view",
      "type": "function"
    },
    {
      "inputs": [],
      "name": "sane",
      "outputs": [],
      "stateMutability": "payable",
      "type": "function"
    },
    {
      "inputs": [],
      "name": "sane2",
      "outputs": [],
      "stateMutability": "payable",
      "type": "function"
    },
    {
      "inputs": [
        {
          "internalType": "string",
          "name": "_meme",
          "type": "string"
        },
        {
          "internalType": "uint256",
          "name": "_totalSupply",
          "type": "uint256"
        },
        {
          "internalType": "address",
          "name": "_MotherAddress",
          "type": "address"
        },
        {
          "internalType": "bool",
          "name": "_register",
          "type": "bool"
        }
      ],
      "name": "seed",
      "outputs": [
        {
          "internalType": "address",
          "name": "",
          "type": "address"
        }
      ],
      "stateMutability": "nonpayable",
      "type": "function"
    },
    {
      "inputs": [
        {
          "internalType": "address",
          "name": "_addon",
          "type": "address"
        },
        {
          "internalType": "bool",
          "name": "onOff",
          "type": "bool"
        }
      ],
      "name": "setAddon",
      "outputs": [],
      "stateMutability": "nonpayable",
      "type": "function"
    },
    {
      "inputs": [
        {
          "internalType": "uint256",
          "name": "_dexCCRate",
          "type": "uint256"
        }
      ],
      "name": "setDexCCRate",
      "outputs": [],
      "stateMutability": "nonpayable",
      "type": "function"
    },
    {
      "inputs": [
        {
          "internalType": "uint256",
          "name": "_dexXMTSPRate",
          "type": "uint256"
        },
        {
          "internalType": "uint256",
          "name": "_dexCCRate",
          "type": "uint256"
        }
      ],
      "name": "setDexRates",
      "outputs": [],
      "stateMutability": "nonpayable",
      "type": "function"
    },
    {
      "inputs": [
        {
          "internalType": "uint256",
          "name": "_dexXMTSPRate",
          "type": "uint256"
        }
      ],
      "name": "setDexXMTSPRate",
      "outputs": [],
      "stateMutability": "nonpayable",
      "type": "function"
    },
    {
      "inputs": [
        {
          "internalType": "uint256",
          "name": "_maxXOut",
          "type": "uint256"
        }
      ],
      "name": "setMaxXOut",
      "outputs": [],
      "stateMutability": "nonpayable",
      "type": "function"
    },
    {
      "inputs": [
        {
          "internalType": "uint256",
          "name": "_rewardPerHour",
          "type": "uint256"
        }
      ],
      "name": "setRewardPerHour",
      "outputs": [],
      "stateMutability": "nonpayable",
      "type": "function"
    },
    {
      "inputs": [
        {
          "internalType": "uint256",
          "name": "_amount",
          "type": "uint256"
        }
      ],
      "name": "stake",
      "outputs": [],
      "stateMutability": "nonpayable",
      "type": "function"
    },
    {
      "inputs": [],
      "name": "symbol",
      "outputs": [
        {
          "internalType": "string",
          "name": "",
          "type": "string"
        }
      ],
      "stateMutability": "view",
      "type": "function"
    },
    {
      "inputs": [],
      "name": "totalSupply",
      "outputs": [
        {
          "internalType": "uint256",
          "name": "",
          "type": "uint256"
        }
      ],
      "stateMutability": "view",
      "type": "function"
    },
    {
      "inputs": [
        {
          "internalType": "address",
          "name": "to",
          "type": "address"
        },
        {
          "internalType": "uint256",
          "name": "amount",
          "type": "uint256"
        }
      ],
      "name": "transfer",
      "outputs": [
        {
          "internalType": "bool",
          "name": "",
          "type": "bool"
        }
      ],
      "stateMutability": "nonpayable",
      "type": "function"
    },
    {
      "inputs": [
        {
          "internalType": "address",
          "name": "from",
          "type": "address"
        },
        {
          "internalType": "address",
          "name": "to",
          "type": "address"
        },
        {
          "internalType": "uint256",
          "name": "amount",
          "type": "uint256"
        }
      ],
      "name": "transferFrom",
      "outputs": [
        {
          "internalType": "bool",
          "name": "",
          "type": "bool"
        }
      ],
      "stateMutability": "nonpayable",
      "type": "function"
    },
    {
      "inputs": [],
      "name": "unbrick",
      "outputs": [],
      "stateMutability": "nonpayable",
      "type": "function"
    },
    {
      "inputs": [],
      "name": "wellnessCheckPrice",
      "outputs": [
        {
          "internalType": "uint256",
          "name": "",
          "type": "uint256"
        }
      ],
      "stateMutability": "view",
      "type": "function"
    },
    {
      "inputs": [
        {
          "internalType": "uint256",
          "name": "amount",
          "type": "uint256"
        },
        {
          "internalType": "uint256",
          "name": "stake_index",
          "type": "uint256"
        }
      ],
      "name": "withdrawStake",
      "outputs": [
        {
          "internalType": "uint256",
          "name": "",
          "type": "uint256"
        }
      ],
      "stateMutability": "nonpayable",
      "type": "function"
    }
  ],
  "bytecode": "608060405234801561001057600080fd5b50615714806100206000396000f3fe6080604052600436106200038b5760003560e01c806378182d0311620001d7578063d18b34fc1162000101578063e73e14bf116200009c578063e73e14bf1462000a76578063ebb6be1c1462000aaa578063ebef4f0e1462000ac2578063eda982991462000ada578063f18e673d1462000af2578063f1fdf4691462000b17578063fa1449641462000b3c578063fac70e231462000b6157600080fd5b8063d18b34fc146200099f578063da35a26f14620009a9578063dd62ed3e14620009ce578063df56b49014620009f3578063e2903f9e1462000a0a578063e2c50b4b1462000a22578063e3f56af41462000a39578063e51c89221462000a5e57600080fd5b8063a45446481162000172578063a45446481462000892578063a457c2d714620008b7578063a694fc3a14620008dc578063a9059cbb1462000901578063b19a207f1462000926578063b4e51b7b146200094b578063b7a7dc5c1462000955578063bed34bba146200097a57600080fd5b806378182d03146200078c57806379cc679014620007a45780638297f29f14620007c95780638761dc5f14620008065780638b8fbd92146200082b578063935418fc146200084b57806395d89b4114620008555780639bc255f8146200086d57600080fd5b80633f31c3d411620002b9578063597e1fb51162000254578063597e1fb5146200069457806360c7c34a14620006b55780636141435814620006cd5780636a35205e14620006e55780636c3c84f714620006fd5780636d714b68146200071557806370a08231146200073a57806376795411146200077457600080fd5b80633f31c3d414620005bc57806342966c6814620005e157806343d726d614620006065780634409559a146200061e5780634420e486146200064057806344874f4a1462000657578063495057be146200046d578063588ee29b146200067c57600080fd5b8063266001d3116200032a578063266001d314620004d957806329722a8614620004fe578063305601bc1462000516578063313ce567146200052e57806332e7c5bf146200054c57806339509351146200056357806339e7357c14620005885780633e9d5e0e14620005a057600080fd5b806306fdde031462000390578063095ea7b314620003c057806309ed460714620003f6578063179b7742146200041d57806318160ddd14620004425780631b9265b814620004635780632017fb74146200046f57806323b872dd14620004b4575b600080fd5b3480156200039d57600080fd5b50620003a862000b78565b604051620003b791906200339a565b60405180910390f35b348015620003cd57600080fd5b50620003e5620003df366004620033d3565b62000c12565b6040519015158152602001620003b7565b3480156200040357600080fd5b506200040e62000c2c565b604051620003b7919062003400565b3480156200042a57600080fd5b50620003e56200043c36600462003414565b62000c3b565b3480156200044f57600080fd5b506035545b604051908152602001620003b7565b6200046d62000c5f565b005b3480156200047c57600080fd5b50620004946200048e366004620034dd565b62000d34565b604080516001600160a01b039093168352602083019190915201620003b7565b348015620004c157600080fd5b50620003e5620004d33660046200351e565b62000d8b565b348015620004e657600080fd5b50620003a8620004f83660046200355f565b62000db3565b3480156200050b57600080fd5b506200045460eb5481565b3480156200052357600080fd5b506200045462000de1565b3480156200053b57600080fd5b5060405160128152602001620003b7565b3480156200055957600080fd5b5060cd5462000454565b3480156200057057600080fd5b50620003e562000582366004620033d3565b62000dfa565b3480156200059557600080fd5b506200046d62000e22565b348015620005ad57600080fd5b5060ea54620003e59060ff1681565b348015620005c957600080fd5b506200046d620005db366004620035ca565b62000e6b565b348015620005ee57600080fd5b506200046d62000600366004620035ca565b62000f5a565b3480156200061357600080fd5b506200046d62000f69565b3480156200062b57600080fd5b5060d5546200040e906001600160a01b031681565b6200046d6200065136600462003414565b6200114c565b3480156200066457600080fd5b506200046d62000676366004620035ca565b620011a1565b3480156200068957600080fd5b506200046d620011c0565b348015620006a157600080fd5b5060ea54620003e590610100900460ff1681565b348015620006c257600080fd5b506200040e620012a2565b348015620006da57600080fd5b506200045460995481565b348015620006f257600080fd5b506200045460e35481565b3480156200070a57600080fd5b506200046d620012ae565b3480156200072257600080fd5b506200046d62000734366004620035f5565b62001473565b3480156200074757600080fd5b50620004546200075936600462003414565b6001600160a01b031660009081526033602052604090205490565b3480156200078157600080fd5b506200045460ec5481565b3480156200079957600080fd5b506200045460e25481565b348015620007b157600080fd5b506200046d620007c3366004620033d3565b620014e8565b348015620007d657600080fd5b50620003e5620007e836600462003414565b6001600160a01b0316600090815260e8602052604090205460ff1690565b3480156200081357600080fd5b506200046d62000825366004620035ca565b62001505565b3480156200083857600080fd5b5060ce546001600160a01b03166200040e565b6200045462001553565b3480156200086257600080fd5b50620003a86200166a565b3480156200087a57600080fd5b50620004546200088c366004620033d3565b6200167b565b3480156200089f57600080fd5b506200046d620008b1366004620034dd565b620018da565b348015620008c457600080fd5b50620003e5620008d6366004620033d3565b62001993565b348015620008e957600080fd5b506200046d620008fb366004620035ca565b62001a14565b3480156200090e57600080fd5b50620003e562000920366004620033d3565b62001b29565b3480156200093357600080fd5b506200046d62000945366004620035ca565b62001b39565b6200046d62001b56565b3480156200096257600080fd5b506200040e620009743660046200362d565b62001d59565b3480156200098757600080fd5b50620003e5620009993660046200355f565b62001ea3565b6200046d62001f00565b348015620009b657600080fd5b506200046d620009c83660046200369d565b62001f1e565b348015620009db57600080fd5b5062000454620009ed366004620036c3565b62002150565b34801562000a0057600080fd5b5060e35462000454565b34801562000a1757600080fd5b506200045460e75481565b34801562000a2f57600080fd5b5060995462000454565b34801562000a4657600080fd5b506200045462000a58366004620035ca565b6200217b565b34801562000a6b57600080fd5b506200045460cc5481565b34801562000a8357600080fd5b5062000a9b62000a9536600462003414565b620022c1565b604051620003b79190620036f2565b34801562000ab757600080fd5b506200045460e65481565b34801562000acf57600080fd5b506200045460e45481565b34801562000ae757600080fd5b506200045460e55481565b34801562000aff57600080fd5b506200046d62000b1136600462003775565b6200247d565b34801562000b2457600080fd5b506200045462000b3636600462003775565b62002493565b34801562000b4957600080fd5b506200046d62000b5b366004620035ca565b62002558565b34801562000b6e57600080fd5b5060e25462000454565b60606036805462000b899062003798565b80601f016020809104026020016040519081016040528092919081815260200182805462000bb79062003798565b801562000c085780601f1062000bdc5761010080835404028352916020019162000c08565b820191906000526020600020905b81548152906001019060200180831162000bea57829003601f168201915b5050505050905090565b60003362000c2281858562002575565b5060019392505050565b60d5546001600160a01b031690565b6000600160e9600082825462000c529190620037ea565b9091555060009392505050565b60ea5460ff161562000ca15760405162461bcd60e51b8152602060048201526006602482015265213934b1b59760d11b60448201526064015b60405180910390fd5b60ea54610100900460ff161562000ce55760405162461bcd60e51b815260206004820152600760248201526621b637b9b2b21760c91b604482015260640162000c98565b6040513481527f19cdfbbc87e2c4f8b08471bb8b544a25603aa3a6037dab5dd4a660be7a45b50c906020015b60405180910390a13460cd600082825462000d2d9190620037ea565b9091555050565b60008060da8360405162000d49919062003805565b908152604051908190036020018120546001600160a01b03169060dc9062000d7390869062003805565b90815260200160405180910390205491509150915091565b60003362000d9b8582856200269d565b62000da88585856200271e565b506001949350505050565b6060828260405160200162000dca92919062003823565b604051602081830303815290604052905092915050565b600060e65460e45462000df5919062003856565b905090565b60003362000c2281858562000e10838362002150565b62000e1c9190620037ea565b62002575565b60ee546040517f0d1c8fe98f1f49786133c2b0bec4cddf9f73586849f7102495587f0434feeecd9162000e61916001600160a01b039091169062003400565b60405180910390a1565b6002609a540362000e905760405162461bcd60e51b815260040162000c989062003870565b6002609a5562000e9f62000c2c565b6001600160a01b0316336001600160a01b03161462000ef45760405162461bcd60e51b815260206004820152601060248201526f2cb7ba9030b93290309031b637b7329760811b604482015260640162000c98565b8060cd600082825462000f08919062003856565b9091555062000f18905062000c2c565b6001600160a01b03166108fc829081150290604051600060405180830381858888f1935050505015801562000f51573d6000803e3d6000fd5b50506001609a55565b62000f663382620028e5565b50565b60ea5460ff161562000fbe5760405162461bcd60e51b815260206004820152601a60248201527f596f752063616e206e6f7420636c6f7365206120627269636b2e000000000000604482015260640162000c98565b60ea54610100900460ff1615620010235760405162461bcd60e51b815260206004820152602260248201527f596f752063616e206e6f7420636c6f73653a20416c726561647920636c6f7365604482015261321760f11b606482015260840162000c98565b60ea5462010000900460ff16156200107e5760405162461bcd60e51b815260206004820152601e60248201527f596f752063616e206e6f7420636c6f73653a204d6574617374616b65642e0000604482015260640162000c98565b60d5546001600160a01b03163314620010c75760405162461bcd60e51b815260206004820152600a6024820152692737ba1037bbb732b91760b11b604482015260640162000c98565b60ea805461ff001916610100179055604051600080516020620056bf8339815191529062000e61906020808252603c908201527f4f7572206c61737420686172726168206265666f726520776520636c6f73652060408201527f666f7220676f6f642e20576520617265206e6f7720636c6f7365642e00000000606082015260800190565b7fe7375f84984fefa09f5f03aa56ffb11ed839b99d56943f858953e537609f8be7816040516200117d919062003400565b60405180910390a13460cd6000828254620011999190620037ea565b909155505050565b60d5546001600160a01b03163314620011b957600080fd5b60e255565b565b620011ca62002a28565b507f2af7ee6c8f08eccb0bd31d90e03ca2c2373dbecf67c26fb36684cf46f38ac25960405162001266906040808252600690820152652222a12aa39d60d11b60608201526080602082018190526034908201527f636c6f776e7365617263682829207761732063616c6c656420616e642077617360a082015273103737ba103830bcb0b1363297102cb4b5b2b99760611b60c082015260e00190565b60405180910390a17f19cdfbbc87e2c4f8b08471bb8b544a25603aa3a6037dab5dd4a660be7a45b50c60e95460405162000e6191815260200190565b600062000df562000c2c565b60d5546001600160a01b03163314620013305760405162461bcd60e51b815260206004820152603a60248201527f596f7520646f206e6f7420686176652074686520706f77657220746f2063686160448201527f6e676520746865206675747572652c206f6e6c79204920646f2e000000000000606482015260840162000c98565b600080516020620056bf833981519152604051620013c49060208082526056908201527f506c656173652077656c636f6d65206f757220666972737420627269636b206f60408201527f6620616c6c2074696d652c20627269636b656420627574206e6f74206120627260608201527534b1b590313aba1039ba34b636103090313934b1b59760511b608082015260a00190565b60405180910390a160ea805460ff19169055604051600080516020620056bf8339815191529062000e6190602080825260609082018190527f4920616d20616c736f206c6561726e696e67207468617420746869732069732060408301527f6e6f742074686520666972737420627269636b206f6620616c6c2074696d652e908201527f204f6b61792c20746865726520796f7520686176652069742c20666f6c6b732e608082015260a00190565b60d5546001600160a01b03163314620014bd5760405162461bcd60e51b815260206004820152600b60248201526a20b236b4b71037b7363c9760a91b604482015260640162000c98565b6001600160a01b0391909116600090815260e860205260409020805460ff1916911515919091179055565b620014f58233836200269d565b620015018282620028e5565b5050565b60d5546001600160a01b031633146200154e5760405162461bcd60e51b815260206004820152600a60248201526929b7b9393c961037379760b11b604482015260640162000c98565b609955565b60006002609a54036200157a5760405162461bcd60e51b815260040162000c989062003870565b6002609a5560ea54610100900460ff1615620015aa5760405162461bcd60e51b815260040162000c9890620038a7565b600060e25411620015cf5760405162461bcd60e51b815260040162000c9890620038f3565b6000670de0b6b3a764000060e25434620015ea919062003916565b620015f6919062003938565b9050620016053033836200271e565b3460cd6000828254620016199190620037ea565b925050819055508060e76000828254620016349190620037ea565b909155505060e55460e7541115620016605760405162461bcd60e51b815260040162000c98906200395b565b90506001609a5590565b60606037805462000b899062003798565b60006002609a5403620016a25760405162461bcd60e51b815260040162000c989062003870565b6002609a5560ea54610100900460ff1615620017185760405162461bcd60e51b815260206004820152602e60248201527f54686973206973206e6f74206120726567697374657220616e796d6f72652e2060448201526d24ba1034b9903090313934b1b59760911b606482015260840162000c98565b600060e354116200173d5760405162461bcd60e51b815260040162000c9890620038f3565b33600090815260e8602052604090205460ff166200179e5760405162461bcd60e51b815260206004820181905260248201527f596f752063616e27742075736520746869732066756e6374696f6e207965742e604482015260640162000c98565b6000670de0b6b3a764000060e35484620017b9919062003916565b620017c5919062003938565b905060cd548111156200180f5760405162461bcd60e51b81526020600482015260116024820152702737ba1032b737bab3b410333ab732399760791b604482015260640162000c98565b6200181b8484620028e5565b8060cd60008282546200182f919062003856565b925050819055508060e660008282546200184a9190620037ea565b92505081905550336001600160a01b031663495057be826040518263ffffffff1660e01b81526004016000604051808303818588803b1580156200188d57600080fd5b505af1158015620018a2573d6000803e3d6000fd5b505050505060e45460e6541115620018ce5760405162461bcd60e51b815260040162000c98906200395b565b6001609a559392505050565b60d5546001600160a01b031633146200195c5760405162461bcd60e51b815260206004820152603a60248201527f4f6e6c79207468652043756c74757265436f696e2061646d696e69737472617460448201527f6f72206d617920666c6167206120636f696e20617320444f412e000000000000606482015260840162000c98565b600060db8260405162001970919062003805565b908152604051908190036020019020805491151560ff1990921691909117905550565b60003381620019a3828662002150565b90508381101562001a055760405162461bcd60e51b815260206004820152602560248201527f45524332303a2064656372656173656420616c6c6f77616e63652062656c6f77604482015264207a65726f60d81b606482015260840162000c98565b62000da8828686840362002575565b60ea5460ff161562001a3a5760405162461bcd60e51b815260040162000c989062003989565b60ea54610100900460ff161562001a655760405162461bcd60e51b815260040162000c9890620039b9565b6040516370a0823160e01b815230906370a082319062001a8a90339060040162003400565b602060405180830381865afa15801562001aa8573d6000803e3d6000fd5b505050506040513d601f19601f8201168201806040525081019062001ace919062003a16565b811062001b1e5760405162461bcd60e51b815260206004820152601e60248201527f43616e6e6f74207374616b65206d6f7265207468616e20796f75206f776e0000604482015260640162000c98565b62000f5a8162002a3c565b60003362000c228185856200271e565b60d5546001600160a01b0316331462001b5157600080fd5b60e355565b600060ec541162001baa5760405162461bcd60e51b815260206004820152601d60248201527f506c656173652061646d696e73747261746520796f757220636f696e2e000000604482015260640162000c98565b60ec5434101562001be85760405162461bcd60e51b8152602060048201526007602482015266283632b0b9b29760c91b604482015260640162000c98565b60ea5460ff161562001c5857600080516020620056bf83398151915260405162001c4f9060208082526023908201527f54686973206d656d6520636f696e207468696e6b73206974277320612062726960408201526231b59760e91b606082015260800190565b60405180910390a15b60ea54610100900460ff161562001cd957600080516020620056bf83398151915260405162001cd0906020808252602f908201527f54686973206d656d6520636f696e207468696e6b73206974277320636c6f736560408201526e32103337b910313ab9b4b732b9b99760891b606082015260800190565b60405180910390a15b60d5546001600160a01b031662001cef62000c2c565b6001600160a01b03161462001d2557600080516020620056bf83398151915260405162001d1c9062003a30565b60405180910390a15b7fa2ceb0ea4c1d58a42d42e6190c7df2d44e4d514484472917b44610687fc68d0e60d23460405162000d1192919062003a8d565b60006002609a540362001d805760405162461bcd60e51b815260040162000c989062003870565b6002609a5560ea5460ff161562001dd65760405162461bcd60e51b8152602060048201526019602482015278213934b1b5b9903237903737ba1036b0b5b29039b2b2b2399760391b604482015260640162000c98565b60008430858860405162001dea9062003293565b62001df9949392919062003b44565b604051809103906000f08015801562001e16573d6000803e3d6000fd5b509050821562001e335762001e2d86828762002b92565b62001e95565b600080516020620056bf83398151915260405162001e8c9060208082526021908201527f54686520636f696e206d7573742062652061207265616c20676f6f64206f6e656040820152601760f91b606082015260800190565b60405180910390a15b6001609a5595945050505050565b60008160405160200162001eb8919062003805565b604051602081830303815290604052805190602001208360405160200162001ee1919062003805565b6040516020818303038152906040528051906020012014905092915050565b600080516020620056bf83398151915260405162001d1c9062003a30565b600054610100900460ff1662001f3b5760005460ff161562001f3f565b303b155b62001fa45760405162461bcd60e51b815260206004820152602e60248201527f496e697469616c697a61626c653a20636f6e747261637420697320616c72656160448201526d191e481a5b9a5d1a585b1a5e995960921b606482015260840162000c98565b600054610100900460ff1615801562001fc7576000805461ffff19166101011790555b6001600160a01b0382166200200e5760405162461bcd60e51b815260206004820152600c60248201526b5a65726f206164647265737360a01b604482015260640162000c98565b620020576040518060400160405280600b81526020016a21bab63a3ab932a1b7b4b760a91b81525060405180604001604052806002815260200161434360f01b81525062002d7e565b6200206162002db4565b6097805460010181556000526200207762002dde565b6a5dd8d27faa6c3525c400006200209a3362002094838762003856565b62002e12565b620020a6308262002e12565b60001960eb5560d580546001600160a01b0319166001600160a01b038516179055604080518082019091526001808252601d60f91b6020909201918252620020f19160d291620032a1565b5060ea805464ff00000000191664010000000017905567037824949b66600060e2556736f4c81d2cfea00060e3556200212c81600462003916565b60e45560e5556103e860995580156200214b576000805461ff00191690555b505050565b6001600160a01b03918216600090815260346020908152604080832093909416825291909152205490565b60006002609a5403620021a25760405162461bcd60e51b815260040162000c989062003870565b6002609a5560ea54610100900460ff1615620021d25760405162461bcd60e51b815260040162000c9890620038a7565b600060e35411620021f75760405162461bcd60e51b815260040162000c9890620038f3565b6000670de0b6b3a764000060e3548462002212919062003916565b6200221e919062003938565b90506200222c3384620028e5565b8060cd600082825462002240919062003856565b925050819055508060e660008282546200225b9190620037ea565b9091555050604051339082156108fc029083906000818181858888f193505050501580156200228e573d6000803e3d6000fd5b5060e45460e6541115620022b65760405162461bcd60e51b815260040162000c98906200395b565b6001609a5592915050565b604080518082019091526000815260606020820152600080604051806040016040528060008152602001609760986000886001600160a01b03166001600160a01b03168152602001908152602001600020548154811062002326576200232662003b78565b9060005260206000209060020201600101805480602002602001604051908101604052809291908181526020016000905b82821015620023b6576000848152602090819020604080516080810182526004860290920180546001600160a01b0316835260018082015484860152600282015492840192909252600301546060830152908352909201910162002357565b505050915250905060005b81602001515181101562002473576000620023fc83602001518381518110620023ee57620023ee62003b78565b602002602001015162002ee6565b9050808360200151838151811062002418576200241862003b78565b602002602001015160600181815250508260200151828151811062002441576200244162003b78565b602002602001015160200151846200245a9190620037ea565b93506200246b9050600182620037ea565b9050620023c1565b5090815292915050565b6200248882620011a1565b620015018162001b39565b60006002609a5403620024ba5760405162461bcd60e51b815260040162000c989062003870565b6002609a5560ea5460ff1615620024e55760405162461bcd60e51b815260040162000c989062003989565b60ea54610100900460ff1615620025105760405162461bcd60e51b815260040162000c9890620039b9565b60006200251e848462002f2e565b9050670de0b6b3a76400006200253d82670dbd2fc137a3000062003916565b62002549919062003938565b9050620018ce3033836200271e565b60d5546001600160a01b031633146200257057600080fd5b60e455565b6001600160a01b038316620025d95760405162461bcd60e51b8152602060048201526024808201527f45524332303a20617070726f76652066726f6d20746865207a65726f206164646044820152637265737360e01b606482015260840162000c98565b6001600160a01b0382166200263c5760405162461bcd60e51b815260206004820152602260248201527f45524332303a20617070726f766520746f20746865207a65726f206164647265604482015261737360f01b606482015260840162000c98565b6001600160a01b0383811660008181526034602090815260408083209487168084529482529182902085905590518481527f8c5be1e5ebec7d5bd14f71427d1e84f3dd0314c0f7b2291e5b200ac8c7c3b925910160405180910390a3505050565b6000620026ab848462002150565b90506000198114620027185781811015620027095760405162461bcd60e51b815260206004820152601d60248201527f45524332303a20696e73756666696369656e7420616c6c6f77616e6365000000604482015260640162000c98565b62002718848484840362002575565b50505050565b6001600160a01b038316620027845760405162461bcd60e51b815260206004820152602560248201527f45524332303a207472616e736665722066726f6d20746865207a65726f206164604482015264647265737360d81b606482015260840162000c98565b6001600160a01b038216620027e85760405162461bcd60e51b815260206004820152602360248201527f45524332303a207472616e7366657220746f20746865207a65726f206164647260448201526265737360e81b606482015260840162000c98565b6001600160a01b03831660009081526033602052604090205481811015620028625760405162461bcd60e51b815260206004820152602660248201527f45524332303a207472616e7366657220616d6f756e7420657863656564732062604482015265616c616e636560d01b606482015260840162000c98565b6001600160a01b038085166000908152603360205260408082208585039055918516815290812080548492906200289b908490620037ea565b92505081905550826001600160a01b0316846001600160a01b03166000805160206200569f83398151915284604051620028d791815260200190565b60405180910390a362002718565b6001600160a01b038216620029475760405162461bcd60e51b815260206004820152602160248201527f45524332303a206275726e2066726f6d20746865207a65726f206164647265736044820152607360f81b606482015260840162000c98565b6001600160a01b03821660009081526033602052604090205481811015620029bd5760405162461bcd60e51b815260206004820152602260248201527f45524332303a206275726e20616d6f756e7420657863656564732062616c616e604482015261636560f01b606482015260840162000c98565b6001600160a01b0383166000908152603360205260408120838303905560358054849290620029ee90849062003856565b90915550506040518281526000906001600160a01b038516906000805160206200569f8339815191529060200160405180910390a3505050565b600062002a386200043c62000c2c565b5090565b6000811162002a855760405162461bcd60e51b815260206004820152601460248201527343616e6e6f74207374616b65206e6f7468696e6760601b604482015260640162000c98565b3360009081526098602052604081205490429082900362002aae5762002aab3362003192565b91505b6097828154811062002ac45762002ac462003b78565b6000918252602080832060408051608081018252338082528185018a815282840189815260608085018a81526002998a02909701600190810180548083018255908c529a89902095516004909b0290950180546001600160a01b0319166001600160a01b03909b169a909a178a559151938901939093559151958701959095559151600390950194909455835187815291820186905292810184905290917fb4caaf29adda3eefee3ad552a8e85058589bf834c7466cae4ee58787f70589ed910160405180910390a2505050565b600080516020620056bf83398151915260405162002bf4906020808252602a908201527f436f696e206861732063616c6c656420666f7220696e7465726e616c2072656760408201526934b9ba3930ba34b7b71760b11b606082015260800190565b60405180910390a160da8360405162002c0e919062003805565b908152604051908190036020019020546001600160a01b031660000362002d465760dc8360405162002c41919062003805565b52604051829060da9062002c5790869062003805565b908152602001604051809103902060006101000a8154816001600160a01b0302191690836001600160a01b031602179055503360de8460405162002c9c919062003805565b908152602001604051809103902060006101000a8154816001600160a01b0302191690836001600160a01b03160217905550600160db8460405162002ce2919062003805565b908152604051908190036020018120805492151560ff19909316929092179091557f681527af24efdb94fd8ba1ee38e6d7d4e2d64446e9b34e8ae1a9c649b44982699062002d399085908590859060019062003b8e565b60405180910390a1505050565b7f681527af24efdb94fd8ba1ee38e6d7d4e2d64446e9b34e8ae1a9c649b4498269838383600060405162002d39949392919062003b8e565b600054610100900460ff1662002da85760405162461bcd60e51b815260040162000c989062003bca565b6200150182826200320d565b600054610100900460ff16620011be5760405162461bcd60e51b815260040162000c989062003bca565b600054610100900460ff1662002e085760405162461bcd60e51b815260040162000c989062003bca565b620011be62003262565b6001600160a01b03821662002e6a5760405162461bcd60e51b815260206004820152601f60248201527f45524332303a206d696e7420746f20746865207a65726f206164647265737300604482015260640162000c98565b806035600082825462002e7e9190620037ea565b90915550506001600160a01b0382166000908152603360205260408120805483929062002ead908490620037ea565b90915550506040518181526001600160a01b038316906000906000805160206200569f8339815191529060200160405180910390a35050565b6000609954610e1062002efa919062003916565b6020830151604084015162002f10904262003856565b62002f1c919062003916565b62002f28919062003938565b92915050565b33600090815260986020526040812054609780548391908390811062002f585762002f5862003b78565b9060005260206000209060020201600101848154811062002f7d5762002f7d62003b78565b600091825260209182902060408051608081018252600490930290910180546001600160a01b0316835260018101549383018490526002810154918301919091526003015460608201529150851115620030355760405162461bcd60e51b815260206004820152603260248201527f5374616b696e673a2043616e6e6f74207769746864726177206d6f7265207468604482015271185b881e5bdd481a185d99481cdd185ad95960721b606482015260840162000c98565b6000620030428262002ee6565b905085826020015162003056919062003856565b60208301819052600003620030d557609783815481106200307b576200307b62003b78565b90600052602060002090600202016001018581548110620030a057620030a062003b78565b60009182526020822060049091020180546001600160a01b03191681556001810182905560028101829055600301556200317c565b816020015160978481548110620030f057620030f062003b78565b9060005260206000209060020201600101868154811062003115576200311562003b78565b906000526020600020906004020160010181905550426097848154811062003141576200314162003b78565b9060005260206000209060020201600101868154811062003166576200316662003b78565b9060005260206000209060040201600201819055505b620031888187620037ea565b9695505050505050565b60978054600190810180835560009283528291620031b09162003856565b90508260978281548110620031c957620031c962003b78565b6000918252602080832060029290920290910180546001600160a01b0319166001600160a01b03948516179055949091168152609890935260409092208290555090565b600054610100900460ff16620032375760405162461bcd60e51b815260040162000c989062003bca565b81516200324c906036906020850190620032a1565b5080516200214b906037906020840190620032a1565b600054610100900460ff166200328c5760405162461bcd60e51b815260040162000c989062003bca565b6001609a55565b611a898062003c1683390190565b828054620032af9062003798565b90600052602060002090601f016020900481019282620032d357600085556200331e565b82601f10620032ee57805160ff19168380011785556200331e565b828001600101855582156200331e579182015b828111156200331e57825182559160200191906001019062003301565b5062002a389291505b8082111562002a38576000815560010162003327565b60005b838110156200335a57818101518382015260200162003340565b83811115620027185750506000910152565b60008151808452620033868160208601602086016200333d565b601f01601f19169290920160200192915050565b602081526000620033af60208301846200336c565b9392505050565b80356001600160a01b0381168114620033ce57600080fd5b919050565b60008060408385031215620033e757600080fd5b620033f283620033b6565b946020939093013593505050565b6001600160a01b0391909116815260200190565b6000602082840312156200342757600080fd5b620033af82620033b6565b634e487b7160e01b600052604160045260246000fd5b600082601f8301126200345a57600080fd5b813567ffffffffffffffff8082111562003478576200347862003432565b604051601f8301601f19908116603f01168101908282118183101715620034a357620034a362003432565b81604052838152866020858801011115620034bd57600080fd5b836020870160208301376000602085830101528094505050505092915050565b600060208284031215620034f057600080fd5b813567ffffffffffffffff8111156200350857600080fd5b620035168482850162003448565b949350505050565b6000806000606084860312156200353457600080fd5b6200353f84620033b6565b92506200354f60208501620033b6565b9150604084013590509250925092565b600080604083850312156200357357600080fd5b823567ffffffffffffffff808211156200358c57600080fd5b6200359a8683870162003448565b93506020850135915080821115620035b157600080fd5b50620035c08582860162003448565b9150509250929050565b600060208284031215620035dd57600080fd5b5035919050565b80358015158114620033ce57600080fd5b600080604083850312156200360957600080fd5b6200361483620033b6565b91506200362460208401620035e4565b90509250929050565b600080600080608085870312156200364457600080fd5b843567ffffffffffffffff8111156200365c57600080fd5b6200366a8782880162003448565b945050602085013592506200368260408601620033b6565b91506200369260608601620035e4565b905092959194509250565b60008060408385031215620036b157600080fd5b823591506200362460208401620033b6565b60008060408385031215620036d757600080fd5b620036e283620033b6565b91506200362460208401620033b6565b6000602080835260608084018551838601528286015160408081880152828251808552608094508489019150868401935060005b818110156200376657845180516001600160a01b031684528881015189850152848101518585015287015187840152938701939185019160010162003726565b50909998505050505050505050565b600080604083850312156200378957600080fd5b50508035926020909101359150565b600181811c90821680620037ad57607f821691505b602082108103620037ce57634e487b7160e01b600052602260045260246000fd5b50919050565b634e487b7160e01b600052601160045260246000fd5b60008219821115620038005762003800620037d4565b500190565b60008251620038198184602087016200333d565b9190910192915050565b60008351620038378184602088016200333d565b8351908301906200384d8183602088016200333d565b01949350505050565b6000828210156200386b576200386b620037d4565b500390565b6020808252601f908201527f5265656e7472616e637947756172643a207265656e7472616e742063616c6c00604082015260600190565b6020808252602c908201527f54686973206973206e6f7420726567697374657220616e796d6f72652e20497460408201526b1034b9903090313934b1b59760a11b606082015260800190565b60208082526009908201526829b2ba103930ba329760b91b604082015260600190565b6000816000190483118215151615620039335762003933620037d4565b500290565b6000826200395657634e487b7160e01b600052601260045260246000fd5b500490565b60208082526014908201527321bab93932b73a1036b0bc103932b0b1b432b21760611b604082015260600190565b60208082526016908201527529b7b9393c97102bb29030b932903090313934b1b59760511b604082015260600190565b6020808252603a908201527f5468652065786368616e676520697320636c6f7365642e20506c65617365207460408201527f727920616761696e207768656e20776520617265206f70656e2e000000000000606082015260800190565b60006020828403121562003a2957600080fd5b5051919050565b6020808252603d908201527f54686973206d656d6520636f696e2069732061637475616c6c79206120636c6f60408201527f6e652e2042657420796f75206469646e2774206b6e6f7720746861742e000000606082015260800190565b60408152600080845481600182811c91508083168062003aae57607f831692505b6020808410820362003ace57634e487b7160e01b86526022600452602486fd5b604088018490526060880182801562003af0576001811462003b025762003b2f565b60ff1987168252828201975062003b2f565b60008c81526020902060005b8781101562003b295781548482015290860190840162003b0e565b83019850505b50509690960196909652509095945050505050565b8481526001600160a01b0384811660208301528316604082015260806060820181905260009062003188908301846200336c565b634e487b7160e01b600052603260045260246000fd5b60808152600062003ba360808301876200336c565b6001600160a01b039590951660208301525060408101929092521515606090910152919050565b6020808252602b908201527f496e697469616c697a61626c653a20636f6e7472616374206973206e6f74206960408201526a6e697469616c697a696e6760a81b60608201526080019056fe60806040523480156200001157600080fd5b5060405162001a8938038062001a898339810160408190526200003491620005da565b60408051808201909152600b8082526a21bab63a3ab932a1b7b4b760a91b6020830190815283916200006991600391620004ce565b5080516200007f906004906020840190620004ce565b50506001600555506001600160a01b038316620000e35760405162461bcd60e51b815260206004820152601360248201527f496e76616c69642043756c747572636f696e2e0000000000000000000000000060448201526064015b60405180910390fd5b6001600160a01b0382166200012b5760405162461bcd60e51b815260206004820152600d60248201526c2d32b9379030b2323932b9b99760991b6044820152606401620000da565b600780546001600160a01b0319166001600160a01b0384811691909117909155604051908416815260008051602062001a698339815191529060200160405180910390a160405133815260008051602062001a698339815191529060200160405180910390a16040518481527f19cdfbbc87e2c4f8b08471bb8b544a25603aa3a6037dab5dd4a660be7a45b50c9060200160405180910390a17f7cdb51e9dbbc205231228146c3246e7f914aa6d4a33170e43ecc8e3593481d1a81604051620001f59190620006c2565b60405180910390a1600c80546001600160a01b0319166001600160a01b038516908117909155604051632210724360e11b8152336004820152634420e48690602401600060405180830381600087803b1580156200025257600080fd5b505af115801562000267573d6000803e3d6000fd5b50505050600c60009054906101000a90046001600160a01b03166001600160a01b03166309ed46076040518163ffffffff1660e01b81526004016020604051808303816000875af1158015620002c1573d6000803e3d6000fd5b505050506040513d601f19601f82011682018060405250810190620002e79190620006f7565b600880546001600160a01b039283166001600160a01b03199182168117909255600680549387169390911692909217909155620003259085620003e9565b836aadca69491f412bb00c0000036200035c5760075462000350906001600160a01b031685620003e9565b6200035c3085620003e9565b600c60009054906101000a90046001600160a01b03166001600160a01b031663fac70e236040518163ffffffff1660e01b8152600401602060405180830381865afa158015620003b0573d6000803e3d6000fd5b505050506040513d601f19601f82011682018060405250810190620003d691906200071c565b600a819055600b55506200079992505050565b6001600160a01b038216620004415760405162461bcd60e51b815260206004820152601f60248201527f45524332303a206d696e7420746f20746865207a65726f2061646472657373006044820152606401620000da565b806002600082825462000455919062000736565b90915550506001600160a01b038216600090815260208190526040812080548392906200048490849062000736565b90915550506040518181526001600160a01b038316906000907fddf252ad1be2c89b69c2b068fc378daa952ba7f163c4a11628f55a4df523b3ef9060200160405180910390a35050565b828054620004dc906200075d565b90600052602060002090601f0160209004810192826200050057600085556200054b565b82601f106200051b57805160ff19168380011785556200054b565b828001600101855582156200054b579182015b828111156200054b5782518255916020019190600101906200052e565b50620005599291506200055d565b5090565b5b808211156200055957600081556001016200055e565b80516001600160a01b03811681146200058c57600080fd5b919050565b634e487b7160e01b600052604160045260246000fd5b60005b83811015620005c4578181015183820152602001620005aa565b83811115620005d4576000848401525b50505050565b60008060008060808587031215620005f157600080fd5b84519350620006036020860162000574565b9250620006136040860162000574565b60608601519092506001600160401b03808211156200063157600080fd5b818701915087601f8301126200064657600080fd5b8151818111156200065b576200065b62000591565b604051601f8201601f19908116603f0116810190838211818310171562000686576200068662000591565b816040528281528a6020848701011115620006a057600080fd5b620006b3836020830160208801620005a7565b979a9699509497505050505050565b6020815260008251806020840152620006e3816040850160208701620005a7565b601f01601f19169190910160400192915050565b6000602082840312156200070a57600080fd5b620007158262000574565b9392505050565b6000602082840312156200072f57600080fd5b5051919050565b600082198211156200075857634e487b7160e01b600052601160045260246000fd5b500190565b600181811c908216806200077257607f821691505b6020821081036200079357634e487b7160e01b600052602260045260246000fd5b50919050565b6112c080620007a96000396000f3fe60806040526004361061012a5760003560e01c80637218954e116100ab578063a457c2d71161006f578063a457c2d714610322578063a6f2ae3a14610342578063a9059cbb1461034a578063c3d670fe1461036a578063dd62ed3e1461037d578063ddc74b11146103c357600080fd5b80637218954e1461028757806379cc6790146102a75780638b8fbd92146102c757806391b7f5ed146102ed57806395d89b411461030d57600080fd5b8063313ce567116100f2578063313ce567146101e057806332e7c5bf146101fc578063395093511461021157806342966c681461023157806370a082311461025157600080fd5b806306fdde031461012f578063095ea7b31461015a57806318160ddd1461018a57806323b872dd146101a957806324600fc3146101c9575b600080fd5b34801561013b57600080fd5b506101446103d8565b6040516101519190610f64565b60405180910390f35b34801561016657600080fd5b5061017a610175366004610f93565b61046a565b6040519015158152602001610151565b34801561019657600080fd5b506002545b604051908152602001610151565b3480156101b557600080fd5b5061017a6101c4366004610fbf565b610480565b3480156101d557600080fd5b506101de610536565b005b3480156101ec57600080fd5b5060405160128152602001610151565b34801561020857600080fd5b5060095461019b565b34801561021d57600080fd5b5061017a61022c366004610f93565b6105e5565b34801561023d57600080fd5b506101de61024c366004611000565b61061c565b34801561025d57600080fd5b5061019b61026c366004611019565b6001600160a01b031660009081526020819052604090205490565b34801561029357600080fd5b506101de6102a2366004611000565b610629565b3480156102b357600080fd5b506101de6102c2366004610f93565b61066d565b3480156102d357600080fd5b506006546001600160a01b03166040516101519190611036565b3480156102f957600080fd5b506101de610308366004611000565b6106f5565b34801561031957600080fd5b50610144610739565b34801561032e57600080fd5b5061017a61033d366004610f93565b610748565b6101de6107e3565b34801561035657600080fd5b5061017a610365366004610f93565b610865565b6101de610378366004611060565b610872565b34801561038957600080fd5b5061019b610398366004611111565b6001600160a01b03918216600090815260016020908152604080832093909416825291909152205490565b3480156103cf57600080fd5b50600b5461019b565b6060600380546103e79061114a565b80601f01602080910402602001604051908101604052809291908181526020018280546104139061114a565b80156104605780601f1061043557610100808354040283529160200191610460565b820191906000526020600020905b81548152906001019060200180831161044357829003601f168201915b5050505050905090565b6000610477338484610acb565b50600192915050565b600061048d848484610bf0565b6001600160a01b0384166000908152600160209081526040808320338452909152902054828110156105175760405162461bcd60e51b815260206004820152602860248201527f45524332303a207472616e7366657220616d6f756e74206578636565647320616044820152676c6c6f77616e636560c01b60648201526084015b60405180910390fd5b61052b8533610526868561119a565b610acb565b506001949350505050565b60006064600954600561054991906111b1565b61055391906111d0565b9050600081600954610565919061119a565b6008546040519192506001600160a01b03169083156108fc029084906000818181858888f193505050501580156105a0573d6000803e3d6000fd5b506007546040516001600160a01b039091169082156108fc029083906000818181858888f193505050501580156105db573d6000803e3d6000fd5b5050600060095550565b3360008181526001602090815260408083206001600160a01b038716845290915281205490916104779185906105269086906111f2565b6106263382610dc8565b50565b6008546001600160a01b031633148061064c57506007546001600160a01b031633145b6106685760405162461bcd60e51b815260040161050e9061120a565b600b55565b60006106798333610398565b9050818110156106d75760405162461bcd60e51b8152602060048201526024808201527f45524332303a206275726e20616d6f756e74206578636565647320616c6c6f77604482015263616e636560e01b606482015260840161050e565b6106e68333610526858561119a565b6106f08383610dc8565b505050565b6008546001600160a01b031633148061071857506007546001600160a01b031633145b6107345760405162461bcd60e51b815260040161050e9061120a565b600a55565b6060600480546103e79061114a565b3360009081526001602090815260408083206001600160a01b0386168452909152812054828110156107ca5760405162461bcd60e51b815260206004820152602560248201527f45524332303a2064656372656173656420616c6c6f77616e63652062656c6f77604482015264207a65726f60d81b606482015260840161050e565b6107d93385610526868561119a565b5060019392505050565b6000670de0b6b3a7640000600a54346107fc91906111b1565b61080691906111d0565b9050610813303383610bf0565b604080513381523460208201527f737c69225d647e5994eab1a6c301bf6d9232beb2759ae1e27a8966b4732bc489910160405180910390a1346009600082825461085d91906111f2565b909155505050565b6000610477338484610bf0565b6002600554036108c45760405162461bcd60e51b815260206004820152601f60248201527f5265656e7472616e637947756172643a207265656e7472616e742063616c6c00604482015260640161050e565b6002600555600b546109005760405162461bcd60e51b815260206004820152600560248201526426b7b9329760d91b604482015260640161050e565b600b543410156109405760405162461bcd60e51b815260206004820152600b60248201526a26b7b932961036b7b9329760a91b604482015260640161050e565b6008546040517fe7375f84984fefa09f5f03aa56ffb11ed839b99d56943f858953e537609f8be79161097d916001600160a01b0390911690611036565b60405180910390a17fe7375f84984fefa09f5f03aa56ffb11ed839b99d56943f858953e537609f8be7336040516109b49190611036565b60405180910390a16040513481527f19cdfbbc87e2c4f8b08471bb8b544a25603aa3a6037dab5dd4a660be7a45b50c9060200160405180910390a17f7cdb51e9dbbc205231228146c3246e7f914aa6d4a33170e43ecc8e3593481d1a81604051610a1e9190610f64565b60405180910390a1600c54604051632de9f71760e21b81526001600160a01b039091169063b7a7dc5c90610a689084906aadca69491f412bb00c0000903090600190600401611233565b6020604051808303816000875af1158015610a87573d6000803e3d6000fd5b505050506040513d601f19601f82011682018060405250810190610aab919061126d565b503460096000828254610abe91906111f2565b9091555050600160055550565b6001600160a01b038316610b2d5760405162461bcd60e51b8152602060048201526024808201527f45524332303a20617070726f76652066726f6d20746865207a65726f206164646044820152637265737360e01b606482015260840161050e565b6001600160a01b038216610b8e5760405162461bcd60e51b815260206004820152602260248201527f45524332303a20617070726f766520746f20746865207a65726f206164647265604482015261737360f01b606482015260840161050e565b6001600160a01b0383811660008181526001602090815260408083209487168084529482529182902085905590518481527f8c5be1e5ebec7d5bd14f71427d1e84f3dd0314c0f7b2291e5b200ac8c7c3b92591015b60405180910390a3505050565b6001600160a01b038316610c545760405162461bcd60e51b815260206004820152602560248201527f45524332303a207472616e736665722066726f6d20746865207a65726f206164604482015264647265737360d81b606482015260840161050e565b6001600160a01b038216610cb65760405162461bcd60e51b815260206004820152602360248201527f45524332303a207472616e7366657220746f20746865207a65726f206164647260448201526265737360e81b606482015260840161050e565b6001600160a01b03831660009081526020819052604090205481811015610d2e5760405162461bcd60e51b815260206004820152602660248201527f45524332303a207472616e7366657220616d6f756e7420657863656564732062604482015265616c616e636560d01b606482015260840161050e565b610d38828261119a565b6001600160a01b038086166000908152602081905260408082209390935590851681529081208054849290610d6e9084906111f2565b92505081905550826001600160a01b0316846001600160a01b03167fddf252ad1be2c89b69c2b068fc378daa952ba7f163c4a11628f55a4df523b3ef84604051610dba91815260200190565b60405180910390a350505050565b6001600160a01b038216610e285760405162461bcd60e51b815260206004820152602160248201527f45524332303a206275726e2066726f6d20746865207a65726f206164647265736044820152607360f81b606482015260840161050e565b6001600160a01b03821660009081526020819052604090205481811015610e9c5760405162461bcd60e51b815260206004820152602260248201527f45524332303a206275726e20616d6f756e7420657863656564732062616c616e604482015261636560f01b606482015260840161050e565b610ea6828261119a565b6001600160a01b03841660009081526020819052604081209190915560028054849290610ed490849061119a565b90915550506040518281526000906001600160a01b038516907fddf252ad1be2c89b69c2b068fc378daa952ba7f163c4a11628f55a4df523b3ef90602001610be3565b6000815180845260005b81811015610f3d57602081850181015186830182015201610f21565b81811115610f4f576000602083870101525b50601f01601f19169290920160200192915050565b602081526000610f776020830184610f17565b9392505050565b6001600160a01b038116811461062657600080fd5b60008060408385031215610fa657600080fd5b8235610fb181610f7e565b946020939093013593505050565b600080600060608486031215610fd457600080fd5b8335610fdf81610f7e565b92506020840135610fef81610f7e565b929592945050506040919091013590565b60006020828403121561101257600080fd5b5035919050565b60006020828403121561102b57600080fd5b8135610f7781610f7e565b6001600160a01b0391909116815260200190565b634e487b7160e01b600052604160045260246000fd5b60006020828403121561107257600080fd5b813567ffffffffffffffff8082111561108a57600080fd5b818401915084601f83011261109e57600080fd5b8135818111156110b0576110b061104a565b604051601f8201601f19908116603f011681019083821181831017156110d8576110d861104a565b816040528281528760208487010111156110f157600080fd5b826020860160208301376000928101602001929092525095945050505050565b6000806040838503121561112457600080fd5b823561112f81610f7e565b9150602083013561113f81610f7e565b809150509250929050565b600181811c9082168061115e57607f821691505b60208210810361117e57634e487b7160e01b600052602260045260246000fd5b50919050565b634e487b7160e01b600052601160045260246000fd5b6000828210156111ac576111ac611184565b500390565b60008160001904831182151516156111cb576111cb611184565b500290565b6000826111ed57634e487b7160e01b600052601260045260246000fd5b500490565b6000821982111561120557611205611184565b500190565b6020808252600f908201526e27b7363c903a34329030b236b4b71760891b604082015260600190565b6080815260006112466080830187610f17565b6020830195909552506001600160a01b039290921660408301521515606090910152919050565b60006020828403121561127f57600080fd5b8151610f7781610f7e56fea2646970667358221220b32e61598bdf12af7b1a2f9d7a3413f58e983961568edfe3e87f9b35e98d7e4264736f6c634300080e0033e7375f84984fefa09f5f03aa56ffb11ed839b99d56943f858953e537609f8be7ddf252ad1be2c89b69c2b068fc378daa952ba7f163c4a11628f55a4df523b3ef1f2d10c6bc5f08101147cf192d4f89ea33266b76f65303d27d5f1d17e840ab37a264697066735822122072ee035434d4c127ce196253c172c88f17b370e458ca75553f51ee4fca1051ea64736f6c634300080e0033",
  "bytecodeSha1": "58ecece2e62ab2e0dd8563885ac00a523dac66ed",
  "compiler": {
    "evm_version": "istanbul",
    "optimizer": {
      "enabled": true,
      "runs": 100
    },
    "version": "0.8.14+commit.80d49f37"
  },
  "contractName": "CultureCoinV1M0m1",
  "language": "Solidity",
  "natspec": {
    "kind": "dev",
    "methods": {
      "allowance(address,address)": {
        "details": "See {IERC20-allowance}."
      },
      "approve(address,uint256)": {
        "details": "See {IERC20-approve}. NOTE: If `amount` is the maximum `uint256`, the allowance is not updated on `transferFrom`. This is semantically equivalent to an infinite approval. Requirements: - `spender` cannot be the zero address."
      },
      "balanceOf(address)": {
        "details": "See {IERC20-balanceOf}."
      },
      "burn(uint256)": {
        "details": "Destroys `amount` tokens from the caller. See {ERC20-_burn}."
      },
      "burnFrom(address,uint256)": {
        "details": "Destroys `amount` tokens from `account`, deducting from the caller's allowance. See {ERC20-_burn} and {ERC20-allowance}. Requirements: - the caller must have allowance for ``accounts``'s tokens of at least `amount`."
      },
      "decimals()": {
        "details": "Returns the number of decimals used to get its user representation. For example, if `decimals` equals `2`, a balance of `505` tokens should be displayed to a user as `5.05` (`505 / 10 ** 2`). Tokens usually opt for a value of 18, imitating the relationship between Ether and Wei. This is the value {ERC20} uses, unless this function is overridden; NOTE: This information is only used for _display_ purposes: it in no way affects any of the arithmetic of the contract, including {IERC20-balanceOf} and {IERC20-transfer}."
      },
      "decreaseAllowance(address,uint256)": {
        "details": "Atomically decreases the allowance granted to `spender` by the caller. This is an alternative to {approve} that can be used as a mitigation for problems described in {IERC20-approve}. Emits an {Approval} event indicating the updated allowance. Requirements: - `spender` cannot be the zero address. - `spender` must have allowance for the caller of at least `subtractedValue`."
      },
      "hasStake(address)": {
        "notice": "hasStake is used to check if a account has stakes and the total amount along with all the seperate stakes"
      },
      "increaseAllowance(address,uint256)": {
        "details": "Atomically increases the allowance granted to `spender` by the caller. This is an alternative to {approve} that can be used as a mitigation for problems described in {IERC20-approve}. Emits an {Approval} event indicating the updated allowance. Requirements: - `spender` cannot be the zero address."
      },
      "name()": {
        "details": "Returns the name of the token."
      },
      "rewardPerHour()": {
        "notice": "rewardPerHour is 1000 because it is used to represent 0.001, since we only use integer numbers This will give users 0.1% reward for each staked token / H"
      },
      "symbol()": {
        "details": "Returns the symbol of the token, usually a shorter version of the name."
      },
      "totalSupply()": {
        "details": "See {IERC20-totalSupply}."
      },
      "transfer(address,uint256)": {
        "details": "See {IERC20-transfer}. Requirements: - `to` cannot be the zero address. - the caller must have a balance of at least `amount`."
      },
      "transferFrom(address,address,uint256)": {
        "details": "See {IERC20-transferFrom}. Emits an {Approval} event indicating the updated allowance. This is not required by the EIP. See the note at the beginning of {ERC20}. NOTE: Does not update the allowance if the current allowance is the maximum `uint256`. Requirements: - `from` and `to` cannot be the zero address. - `from` must have a balance of at least `amount`. - the caller must have allowance for ``from``'s tokens of at least `amount`."
      },
      "withdrawStake(uint256,uint256)": {
        "notice": "withdrawStake is used to withdraw stakes from the account holder  This also now generates a liquidity concern and has to be monitored from the bridge. // This is why the 5% insurance. // See GBCC. // JRR Strikes Again."
      }
    },
    "version": 1
  },
  "opcodes": "PUSH1 0x80 PUSH1 0x40 MSTORE PUSH1 0x4 CALLDATASIZE LT PUSH3 0x38B JUMPI PUSH1 0x0 CALLDATALOAD PUSH1 0xE0 SHR DUP1 PUSH4 0x78182D03 GT PUSH3 0x1D7 JUMPI DUP1 PUSH4 0xD18B34FC GT PUSH3 0x101 JUMPI DUP1 PUSH4 0xE73E14BF GT PUSH3 0x9C JUMPI DUP1 PUSH4 0xE73E14BF EQ PUSH3 0xA76 JUMPI DUP1 PUSH4 0xEBB6BE1C EQ PUSH3 0xAAA JUMPI DUP1 PUSH4 0xEBEF4F0E EQ PUSH3 0xAC2 JUMPI DUP1 PUSH4 0xEDA98299 EQ PUSH3 0xADA JUMPI DUP1 PUSH4 0xF18E673D EQ PUSH3 0xAF2 JUMPI DUP1 PUSH4 0xF1FDF469 EQ PUSH3 0xB17 JUMPI DUP1 PUSH4 0xFA144964 EQ PUSH3 0xB3C JUMPI DUP1 PUSH4 0xFAC70E23 EQ PUSH3 0xB61 JUMPI PUSH1 0x0 DUP1 REVERT JUMPDEST DUP1 PUSH4 0xD18B34FC EQ PUSH3 0x99F JUMPI DUP1 PUSH4 0xDA35A26F EQ PUSH3 0x9A9 JUMPI DUP1 PUSH4 0xDD62ED3E EQ PUSH3 0x9CE JUMPI DUP1 PUSH4 0xDF56B490 EQ PUSH3 0x9F3 JUMPI DUP1 PUSH4 0xE2903F9E EQ PUSH3 0xA0A JUMPI DUP1 PUSH4 0xE2C50B4B EQ PUSH3 0xA22 JUMPI DUP1 PUSH4 0xE3F56AF4 EQ PUSH3 0xA39 JUMPI DUP1 PUSH4 0xE51C8922 EQ PUSH3 0xA5E JUMPI PUSH1 0x0 DUP1 REVERT JUMPDEST DUP1 PUSH4 0xA4544648 GT PUSH3 0x172 JUMPI DUP1 PUSH4 0xA4544648 EQ PUSH3 0x892 JUMPI DUP1 PUSH4 0xA457C2D7 EQ PUSH3 0x8B7 JUMPI DUP1 PUSH4 0xA694FC3A EQ PUSH3 0x8DC JUMPI DUP1 PUSH4 0xA9059CBB EQ PUSH3 0x901 JUMPI DUP1 PUSH4 0xB19A207F EQ PUSH3 0x926 JUMPI DUP1 PUSH4 0xB4E51B7B EQ PUSH3 0x94B JUMPI DUP1 PUSH4 0xB7A7DC5C EQ PUSH3 0x955 JUMPI DUP1 PUSH4 0xBED34BBA EQ PUSH3 0x97A JUMPI PUSH1 0x0 DUP1 REVERT JUMPDEST DUP1 PUSH4 0x78182D03 EQ PUSH3 0x78C JUMPI DUP1 PUSH4 0x79CC6790 EQ PUSH3 0x7A4 JUMPI DUP1 PUSH4 0x8297F29F EQ PUSH3 0x7C9 JUMPI DUP1 PUSH4 0x8761DC5F EQ PUSH3 0x806 JUMPI DUP1 PUSH4 0x8B8FBD92 EQ PUSH3 0x82B JUMPI DUP1 PUSH4 0x935418FC EQ PUSH3 0x84B JUMPI DUP1 PUSH4 0x95D89B41 EQ PUSH3 0x855 JUMPI DUP1 PUSH4 0x9BC255F8 EQ PUSH3 0x86D JUMPI PUSH1 0x0 DUP1 REVERT JUMPDEST DUP1 PUSH4 0x3F31C3D4 GT PUSH3 0x2B9 JUMPI DUP1 PUSH4 0x597E1FB5 GT PUSH3 0x254 JUMPI DUP1 PUSH4 0x597E1FB5 EQ PUSH3 0x694 JUMPI DUP1 PUSH4 0x60C7C34A EQ PUSH3 0x6B5 JUMPI DUP1 PUSH4 0x61414358 EQ PUSH3 0x6CD JUMPI DUP1 PUSH4 0x6A35205E EQ PUSH3 0x6E5 JUMPI DUP1 PUSH4 0x6C3C84F7 EQ PUSH3 0x6FD JUMPI DUP1 PUSH4 0x6D714B68 EQ PUSH3 0x715 JUMPI DUP1 PUSH4 0x70A08231 EQ PUSH3 0x73A JUMPI DUP1 PUSH4 0x76795411 EQ PUSH3 0x774 JUMPI PUSH1 0x0 DUP1 REVERT JUMPDEST DUP1 PUSH4 0x3F31C3D4 EQ PUSH3 0x5BC JUMPI DUP1 PUSH4 0x42966C68 EQ PUSH3 0x5E1 JUMPI DUP1 PUSH4 0x43D726D6 EQ PUSH3 0x606 JUMPI DUP1 PUSH4 0x4409559A EQ PUSH3 0x61E JUMPI DUP1 PUSH4 0x4420E486 EQ PUSH3 0x640 JUMPI DUP1 PUSH4 0x44874F4A EQ PUSH3 0x657 JUMPI DUP1 PUSH4 0x495057BE EQ PUSH3 0x46D JUMPI DUP1 PUSH4 0x588EE29B EQ PUSH3 0x67C JUMPI PUSH1 0x0 DUP1 REVERT JUMPDEST DUP1 PUSH4 0x266001D3 GT PUSH3 0x32A JUMPI DUP1 PUSH4 0x266001D3 EQ PUSH3 0x4D9 JUMPI DUP1 PUSH4 0x29722A86 EQ PUSH3 0x4FE JUMPI DUP1 PUSH4 0x305601BC EQ PUSH3 0x516 JUMPI DUP1 PUSH4 0x313CE567 EQ PUSH3 0x52E JUMPI DUP1 PUSH4 0x32E7C5BF EQ PUSH3 0x54C JUMPI DUP1 PUSH4 0x39509351 EQ PUSH3 0x563 JUMPI DUP1 PUSH4 0x39E7357C EQ PUSH3 0x588 JUMPI DUP1 PUSH4 0x3E9D5E0E EQ PUSH3 0x5A0 JUMPI PUSH1 0x0 DUP1 REVERT JUMPDEST DUP1 PUSH4 0x6FDDE03 EQ PUSH3 0x390 JUMPI DUP1 PUSH4 0x95EA7B3 EQ PUSH3 0x3C0 JUMPI DUP1 PUSH4 0x9ED4607 EQ PUSH3 0x3F6 JUMPI DUP1 PUSH4 0x179B7742 EQ PUSH3 0x41D JUMPI DUP1 PUSH4 0x18160DDD EQ PUSH3 0x442 JUMPI DUP1 PUSH4 0x1B9265B8 EQ PUSH3 0x463 JUMPI DUP1 PUSH4 0x2017FB74 EQ PUSH3 0x46F JUMPI DUP1 PUSH4 0x23B872DD EQ PUSH3 0x4B4 JUMPI JUMPDEST PUSH1 0x0 DUP1 REVERT JUMPDEST CALLVALUE DUP1 ISZERO PUSH3 0x39D JUMPI PUSH1 0x0 DUP1 REVERT JUMPDEST POP PUSH3 0x3A8 PUSH3 0xB78 JUMP JUMPDEST PUSH1 0x40 MLOAD PUSH3 0x3B7 SWAP2 SWAP1 PUSH3 0x339A JUMP JUMPDEST PUSH1 0x40 MLOAD DUP1 SWAP2 SUB SWAP1 RETURN JUMPDEST CALLVALUE DUP1 ISZERO PUSH3 0x3CD JUMPI PUSH1 0x0 DUP1 REVERT JUMPDEST POP PUSH3 0x3E5 PUSH3 0x3DF CALLDATASIZE PUSH1 0x4 PUSH3 0x33D3 JUMP JUMPDEST PUSH3 0xC12 JUMP JUMPDEST PUSH1 0x40 MLOAD SWAP1 ISZERO ISZERO DUP2 MSTORE PUSH1 0x20 ADD PUSH3 0x3B7 JUMP JUMPDEST CALLVALUE DUP1 ISZERO PUSH3 0x403 JUMPI PUSH1 0x0 DUP1 REVERT JUMPDEST POP PUSH3 0x40E PUSH3 0xC2C JUMP JUMPDEST PUSH1 0x40 MLOAD PUSH3 0x3B7 SWAP2 SWAP1 PUSH3 0x3400 JUMP JUMPDEST CALLVALUE DUP1 ISZERO PUSH3 0x42A JUMPI PUSH1 0x0 DUP1 REVERT JUMPDEST POP PUSH3 0x3E5 PUSH3 0x43C CALLDATASIZE PUSH1 0x4 PUSH3 0x3414 JUMP JUMPDEST PUSH3 0xC3B JUMP JUMPDEST CALLVALUE DUP1 ISZERO PUSH3 0x44F JUMPI PUSH1 0x0 DUP1 REVERT JUMPDEST POP PUSH1 0x35 SLOAD JUMPDEST PUSH1 0x40 MLOAD SWAP1 DUP2 MSTORE PUSH1 0x20 ADD PUSH3 0x3B7 JUMP JUMPDEST PUSH3 0x46D PUSH3 0xC5F JUMP JUMPDEST STOP JUMPDEST CALLVALUE DUP1 ISZERO PUSH3 0x47C JUMPI PUSH1 0x0 DUP1 REVERT JUMPDEST POP PUSH3 0x494 PUSH3 0x48E CALLDATASIZE PUSH1 0x4 PUSH3 0x34DD JUMP JUMPDEST PUSH3 0xD34 JUMP JUMPDEST PUSH1 0x40 DUP1 MLOAD PUSH1 0x1 PUSH1 0x1 PUSH1 0xA0 SHL SUB SWAP1 SWAP4 AND DUP4 MSTORE PUSH1 0x20 DUP4 ADD SWAP2 SWAP1 SWAP2 MSTORE ADD PUSH3 0x3B7 JUMP JUMPDEST CALLVALUE DUP1 ISZERO PUSH3 0x4C1 JUMPI PUSH1 0x0 DUP1 REVERT JUMPDEST POP PUSH3 0x3E5 PUSH3 0x4D3 CALLDATASIZE PUSH1 0x4 PUSH3 0x351E JUMP JUMPDEST PUSH3 0xD8B JUMP JUMPDEST CALLVALUE DUP1 ISZERO PUSH3 0x4E6 JUMPI PUSH1 0x0 DUP1 REVERT JUMPDEST POP PUSH3 0x3A8 PUSH3 0x4F8 CALLDATASIZE PUSH1 0x4 PUSH3 0x355F JUMP JUMPDEST PUSH3 0xDB3 JUMP JUMPDEST CALLVALUE DUP1 ISZERO PUSH3 0x50B JUMPI PUSH1 0x0 DUP1 REVERT JUMPDEST POP PUSH3 0x454 PUSH1 0xEB SLOAD DUP2 JUMP JUMPDEST CALLVALUE DUP1 ISZERO PUSH3 0x523 JUMPI PUSH1 0x0 DUP1 REVERT JUMPDEST POP PUSH3 0x454 PUSH3 0xDE1 JUMP JUMPDEST CALLVALUE DUP1 ISZERO PUSH3 0x53B JUMPI PUSH1 0x0 DUP1 REVERT JUMPDEST POP PUSH1 0x40 MLOAD PUSH1 0x12 DUP2 MSTORE PUSH1 0x20 ADD PUSH3 0x3B7 JUMP JUMPDEST CALLVALUE DUP1 ISZERO PUSH3 0x559 JUMPI PUSH1 0x0 DUP1 REVERT JUMPDEST POP PUSH1 0xCD SLOAD PUSH3 0x454 JUMP JUMPDEST CALLVALUE DUP1 ISZERO PUSH3 0x570 JUMPI PUSH1 0x0 DUP1 REVERT JUMPDEST POP PUSH3 0x3E5 PUSH3 0x582 CALLDATASIZE PUSH1 0x4 PUSH3 0x33D3 JUMP JUMPDEST PUSH3 0xDFA JUMP JUMPDEST CALLVALUE DUP1 ISZERO PUSH3 0x595 JUMPI PUSH1 0x0 DUP1 REVERT JUMPDEST POP PUSH3 0x46D PUSH3 0xE22 JUMP JUMPDEST CALLVALUE DUP1 ISZERO PUSH3 0x5AD JUMPI PUSH1 0x0 DUP1 REVERT JUMPDEST POP PUSH1 0xEA SLOAD PUSH3 0x3E5 SWAP1 PUSH1 0xFF AND DUP2 JUMP JUMPDEST CALLVALUE DUP1 ISZERO PUSH3 0x5C9 JUMPI PUSH1 0x0 DUP1 REVERT JUMPDEST POP PUSH3 0x46D PUSH3 0x5DB CALLDATASIZE PUSH1 0x4 PUSH3 0x35CA JUMP JUMPDEST PUSH3 0xE6B JUMP JUMPDEST CALLVALUE DUP1 ISZERO PUSH3 0x5EE JUMPI PUSH1 0x0 DUP1 REVERT JUMPDEST POP PUSH3 0x46D PUSH3 0x600 CALLDATASIZE PUSH1 0x4 PUSH3 0x35CA JUMP JUMPDEST PUSH3 0xF5A JUMP JUMPDEST CALLVALUE DUP1 ISZERO PUSH3 0x613 JUMPI PUSH1 0x0 DUP1 REVERT JUMPDEST POP PUSH3 0x46D PUSH3 0xF69 JUMP JUMPDEST CALLVALUE DUP1 ISZERO PUSH3 0x62B JUMPI PUSH1 0x0 DUP1 REVERT JUMPDEST POP PUSH1 0xD5 SLOAD PUSH3 0x40E SWAP1 PUSH1 0x1 PUSH1 0x1 PUSH1 0xA0 SHL SUB AND DUP2 JUMP JUMPDEST PUSH3 0x46D PUSH3 0x651 CALLDATASIZE PUSH1 0x4 PUSH3 0x3414 JUMP JUMPDEST PUSH3 0x114C JUMP JUMPDEST CALLVALUE DUP1 ISZERO PUSH3 0x664 JUMPI PUSH1 0x0 DUP1 REVERT JUMPDEST POP PUSH3 0x46D PUSH3 0x676 CALLDATASIZE PUSH1 0x4 PUSH3 0x35CA JUMP JUMPDEST PUSH3 0x11A1 JUMP JUMPDEST CALLVALUE DUP1 ISZERO PUSH3 0x689 JUMPI PUSH1 0x0 DUP1 REVERT JUMPDEST POP PUSH3 0x46D PUSH3 0x11C0 JUMP JUMPDEST CALLVALUE DUP1 ISZERO PUSH3 0x6A1 JUMPI PUSH1 0x0 DUP1 REVERT JUMPDEST POP PUSH1 0xEA SLOAD PUSH3 0x3E5 SWAP1 PUSH2 0x100 SWAP1 DIV PUSH1 0xFF AND DUP2 JUMP JUMPDEST CALLVALUE DUP1 ISZERO PUSH3 0x6C2 JUMPI PUSH1 0x0 DUP1 REVERT JUMPDEST POP PUSH3 0x40E PUSH3 0x12A2 JUMP JUMPDEST CALLVALUE DUP1 ISZERO PUSH3 0x6DA JUMPI PUSH1 0x0 DUP1 REVERT JUMPDEST POP PUSH3 0x454 PUSH1 0x99 SLOAD DUP2 JUMP JUMPDEST CALLVALUE DUP1 ISZERO PUSH3 0x6F2 JUMPI PUSH1 0x0 DUP1 REVERT JUMPDEST POP PUSH3 0x454 PUSH1 0xE3 SLOAD DUP2 JUMP JUMPDEST CALLVALUE DUP1 ISZERO PUSH3 0x70A JUMPI PUSH1 0x0 DUP1 REVERT JUMPDEST POP PUSH3 0x46D PUSH3 0x12AE JUMP JUMPDEST CALLVALUE DUP1 ISZERO PUSH3 0x722 JUMPI PUSH1 0x0 DUP1 REVERT JUMPDEST POP PUSH3 0x46D PUSH3 0x734 CALLDATASIZE PUSH1 0x4 PUSH3 0x35F5 JUMP JUMPDEST PUSH3 0x1473 JUMP JUMPDEST CALLVALUE DUP1 ISZERO PUSH3 0x747 JUMPI PUSH1 0x0 DUP1 REVERT JUMPDEST POP PUSH3 0x454 PUSH3 0x759 CALLDATASIZE PUSH1 0x4 PUSH3 0x3414 JUMP JUMPDEST PUSH1 0x1 PUSH1 0x1 PUSH1 0xA0 SHL SUB AND PUSH1 0x0 SWAP1 DUP2 MSTORE PUSH1 0x33 PUSH1 0x20 MSTORE PUSH1 0x40 SWAP1 KECCAK256 SLOAD SWAP1 JUMP JUMPDEST CALLVALUE DUP1 ISZERO PUSH3 0x781 JUMPI PUSH1 0x0 DUP1 REVERT JUMPDEST POP PUSH3 0x454 PUSH1 0xEC SLOAD DUP2 JUMP JUMPDEST CALLVALUE DUP1 ISZERO PUSH3 0x799 JUMPI PUSH1 0x0 DUP1 REVERT JUMPDEST POP PUSH3 0x454 PUSH1 0xE2 SLOAD DUP2 JUMP JUMPDEST CALLVALUE DUP1 ISZERO PUSH3 0x7B1 JUMPI PUSH1 0x0 DUP1 REVERT JUMPDEST POP PUSH3 0x46D PUSH3 0x7C3 CALLDATASIZE PUSH1 0x4 PUSH3 0x33D3 JUMP JUMPDEST PUSH3 0x14E8 JUMP JUMPDEST CALLVALUE DUP1 ISZERO PUSH3 0x7D6 JUMPI PUSH1 0x0 DUP1 REVERT JUMPDEST POP PUSH3 0x3E5 PUSH3 0x7E8 CALLDATASIZE PUSH1 0x4 PUSH3 0x3414 JUMP JUMPDEST PUSH1 0x1 PUSH1 0x1 PUSH1 0xA0 SHL SUB AND PUSH1 0x0 SWAP1 DUP2 MSTORE PUSH1 0xE8 PUSH1 0x20 MSTORE PUSH1 0x40 SWAP1 KECCAK256 SLOAD PUSH1 0xFF AND SWAP1 JUMP JUMPDEST CALLVALUE DUP1 ISZERO PUSH3 0x813 JUMPI PUSH1 0x0 DUP1 REVERT JUMPDEST POP PUSH3 0x46D PUSH3 0x825 CALLDATASIZE PUSH1 0x4 PUSH3 0x35CA JUMP JUMPDEST PUSH3 0x1505 JUMP JUMPDEST CALLVALUE DUP1 ISZERO PUSH3 0x838 JUMPI PUSH1 0x0 DUP1 REVERT JUMPDEST POP PUSH1 0xCE SLOAD PUSH1 0x1 PUSH1 0x1 PUSH1 0xA0 SHL SUB AND PUSH3 0x40E JUMP JUMPDEST PUSH3 0x454 PUSH3 0x1553 JUMP JUMPDEST CALLVALUE DUP1 ISZERO PUSH3 0x862 JUMPI PUSH1 0x0 DUP1 REVERT JUMPDEST POP PUSH3 0x3A8 PUSH3 0x166A JUMP JUMPDEST CALLVALUE DUP1 ISZERO PUSH3 0x87A JUMPI PUSH1 0x0 DUP1 REVERT JUMPDEST POP PUSH3 0x454 PUSH3 0x88C CALLDATASIZE PUSH1 0x4 PUSH3 0x33D3 JUMP JUMPDEST PUSH3 0x167B JUMP JUMPDEST CALLVALUE DUP1 ISZERO PUSH3 0x89F JUMPI PUSH1 0x0 DUP1 REVERT JUMPDEST POP PUSH3 0x46D PUSH3 0x8B1 CALLDATASIZE PUSH1 0x4 PUSH3 0x34DD JUMP JUMPDEST PUSH3 0x18DA JUMP JUMPDEST CALLVALUE DUP1 ISZERO PUSH3 0x8C4 JUMPI PUSH1 0x0 DUP1 REVERT JUMPDEST POP PUSH3 0x3E5 PUSH3 0x8D6 CALLDATASIZE PUSH1 0x4 PUSH3 0x33D3 JUMP JUMPDEST PUSH3 0x1993 JUMP JUMPDEST CALLVALUE DUP1 ISZERO PUSH3 0x8E9 JUMPI PUSH1 0x0 DUP1 REVERT JUMPDEST POP PUSH3 0x46D PUSH3 0x8FB CALLDATASIZE PUSH1 0x4 PUSH3 0x35CA JUMP JUMPDEST PUSH3 0x1A14 JUMP JUMPDEST CALLVALUE DUP1 ISZERO PUSH3 0x90E JUMPI PUSH1 0x0 DUP1 REVERT JUMPDEST POP PUSH3 0x3E5 PUSH3 0x920 CALLDATASIZE PUSH1 0x4 PUSH3 0x33D3 JUMP JUMPDEST PUSH3 0x1B29 JUMP JUMPDEST CALLVALUE DUP1 ISZERO PUSH3 0x933 JUMPI PUSH1 0x0 DUP1 REVERT JUMPDEST POP PUSH3 0x46D PUSH3 0x945 CALLDATASIZE PUSH1 0x4 PUSH3 0x35CA JUMP JUMPDEST PUSH3 0x1B39 JUMP JUMPDEST PUSH3 0x46D PUSH3 0x1B56 JUMP JUMPDEST CALLVALUE DUP1 ISZERO PUSH3 0x962 JUMPI PUSH1 0x0 DUP1 REVERT JUMPDEST POP PUSH3 0x40E PUSH3 0x974 CALLDATASIZE PUSH1 0x4 PUSH3 0x362D JUMP JUMPDEST PUSH3 0x1D59 JUMP JUMPDEST CALLVALUE DUP1 ISZERO PUSH3 0x987 JUMPI PUSH1 0x0 DUP1 REVERT JUMPDEST POP PUSH3 0x3E5 PUSH3 0x999 CALLDATASIZE PUSH1 0x4 PUSH3 0x355F JUMP JUMPDEST PUSH3 0x1EA3 JUMP JUMPDEST PUSH3 0x46D PUSH3 0x1F00 JUMP JUMPDEST CALLVALUE DUP1 ISZERO PUSH3 0x9B6 JUMPI PUSH1 0x0 DUP1 REVERT JUMPDEST POP PUSH3 0x46D PUSH3 0x9C8 CALLDATASIZE PUSH1 0x4 PUSH3 0x369D JUMP JUMPDEST PUSH3 0x1F1E JUMP JUMPDEST CALLVALUE DUP1 ISZERO PUSH3 0x9DB JUMPI PUSH1 0x0 DUP1 REVERT JUMPDEST POP PUSH3 0x454 PUSH3 0x9ED CALLDATASIZE PUSH1 0x4 PUSH3 0x36C3 JUMP JUMPDEST PUSH3 0x2150 JUMP JUMPDEST CALLVALUE DUP1 ISZERO PUSH3 0xA00 JUMPI PUSH1 0x0 DUP1 REVERT JUMPDEST POP PUSH1 0xE3 SLOAD PUSH3 0x454 JUMP JUMPDEST CALLVALUE DUP1 ISZERO PUSH3 0xA17 JUMPI PUSH1 0x0 DUP1 REVERT JUMPDEST POP PUSH3 0x454 PUSH1 0xE7 SLOAD DUP2 JUMP JUMPDEST CALLVALUE DUP1 ISZERO PUSH3 0xA2F JUMPI PUSH1 0x0 DUP1 REVERT JUMPDEST POP PUSH1 0x99 SLOAD PUSH3 0x454 JUMP JUMPDEST CALLVALUE DUP1 ISZERO PUSH3 0xA46 JUMPI PUSH1 0x0 DUP1 REVERT JUMPDEST POP PUSH3 0x454 PUSH3 0xA58 CALLDATASIZE PUSH1 0x4 PUSH3 0x35CA JUMP JUMPDEST PUSH3 0x217B JUMP JUMPDEST CALLVALUE DUP1 ISZERO PUSH3 0xA6B JUMPI PUSH1 0x0 DUP1 REVERT JUMPDEST POP PUSH3 0x454 PUSH1 0xCC SLOAD DUP2 JUMP JUMPDEST CALLVALUE DUP1 ISZERO PUSH3 0xA83 JUMPI PUSH1 0x0 DUP1 REVERT JUMPDEST POP PUSH3 0xA9B PUSH3 0xA95 CALLDATASIZE PUSH1 0x4 PUSH3 0x3414 JUMP JUMPDEST PUSH3 0x22C1 JUMP JUMPDEST PUSH1 0x40 MLOAD PUSH3 0x3B7 SWAP2 SWAP1 PUSH3 0x36F2 JUMP JUMPDEST CALLVALUE DUP1 ISZERO PUSH3 0xAB7 JUMPI PUSH1 0x0 DUP1 REVERT JUMPDEST POP PUSH3 0x454 PUSH1 0xE6 SLOAD DUP2 JUMP JUMPDEST CALLVALUE DUP1 ISZERO PUSH3 0xACF JUMPI PUSH1 0x0 DUP1 REVERT JUMPDEST POP PUSH3 0x454 PUSH1 0xE4 SLOAD DUP2 JUMP JUMPDEST CALLVALUE DUP1 ISZERO PUSH3 0xAE7 JUMPI PUSH1 0x0 DUP1 REVERT JUMPDEST POP PUSH3 0x454 PUSH1 0xE5 SLOAD DUP2 JUMP JUMPDEST CALLVALUE DUP1 ISZERO PUSH3 0xAFF JUMPI PUSH1 0x0 DUP1 REVERT JUMPDEST POP PUSH3 0x46D PUSH3 0xB11 CALLDATASIZE PUSH1 0x4 PUSH3 0x3775 JUMP JUMPDEST PUSH3 0x247D JUMP JUMPDEST CALLVALUE DUP1 ISZERO PUSH3 0xB24 JUMPI PUSH1 0x0 DUP1 REVERT JUMPDEST POP PUSH3 0x454 PUSH3 0xB36 CALLDATASIZE PUSH1 0x4 PUSH3 0x3775 JUMP JUMPDEST PUSH3 0x2493 JUMP JUMPDEST CALLVALUE DUP1 ISZERO PUSH3 0xB49 JUMPI PUSH1 0x0 DUP1 REVERT JUMPDEST POP PUSH3 0x46D PUSH3 0xB5B CALLDATASIZE PUSH1 0x4 PUSH3 0x35CA JUMP JUMPDEST PUSH3 0x2558 JUMP JUMPDEST CALLVALUE DUP1 ISZERO PUSH3 0xB6E JUMPI PUSH1 0x0 DUP1 REVERT JUMPDEST POP PUSH1 0xE2 SLOAD PUSH3 0x454 JUMP JUMPDEST PUSH1 0x60 PUSH1 0x36 DUP1 SLOAD PUSH3 0xB89 SWAP1 PUSH3 0x3798 JUMP JUMPDEST DUP1 PUSH1 0x1F ADD PUSH1 0x20 DUP1 SWAP2 DIV MUL PUSH1 0x20 ADD PUSH1 0x40 MLOAD SWAP1 DUP2 ADD PUSH1 0x40 MSTORE DUP1 SWAP3 SWAP2 SWAP1 DUP2 DUP2 MSTORE PUSH1 0x20 ADD DUP3 DUP1 SLOAD PUSH3 0xBB7 SWAP1 PUSH3 0x3798 JUMP JUMPDEST DUP1 ISZERO PUSH3 0xC08 JUMPI DUP1 PUSH1 0x1F LT PUSH3 0xBDC JUMPI PUSH2 0x100 DUP1 DUP4 SLOAD DIV MUL DUP4 MSTORE SWAP2 PUSH1 0x20 ADD SWAP2 PUSH3 0xC08 JUMP JUMPDEST DUP3 ADD SWAP2 SWAP1 PUSH1 0x0 MSTORE PUSH1 0x20 PUSH1 0x0 KECCAK256 SWAP1 JUMPDEST DUP2 SLOAD DUP2 MSTORE SWAP1 PUSH1 0x1 ADD SWAP1 PUSH1 0x20 ADD DUP1 DUP4 GT PUSH3 0xBEA JUMPI DUP3 SWAP1 SUB PUSH1 0x1F AND DUP3 ADD SWAP2 JUMPDEST POP POP POP POP POP SWAP1 POP SWAP1 JUMP JUMPDEST PUSH1 0x0 CALLER PUSH3 0xC22 DUP2 DUP6 DUP6 PUSH3 0x2575 JUMP JUMPDEST POP PUSH1 0x1 SWAP4 SWAP3 POP POP POP JUMP JUMPDEST PUSH1 0xD5 SLOAD PUSH1 0x1 PUSH1 0x1 PUSH1 0xA0 SHL SUB AND SWAP1 JUMP JUMPDEST PUSH1 0x0 PUSH1 0x1 PUSH1 0xE9 PUSH1 0x0 DUP3 DUP3 SLOAD PUSH3 0xC52 SWAP2 SWAP1 PUSH3 0x37EA JUMP JUMPDEST SWAP1 SWAP2 SSTORE POP PUSH1 0x0 SWAP4 SWAP3 POP POP POP JUMP JUMPDEST PUSH1 0xEA SLOAD PUSH1 0xFF AND ISZERO PUSH3 0xCA1 JUMPI PUSH1 0x40 MLOAD PUSH3 0x461BCD PUSH1 0xE5 SHL DUP2 MSTORE PUSH1 0x20 PUSH1 0x4 DUP3 ADD MSTORE PUSH1 0x6 PUSH1 0x24 DUP3 ADD MSTORE PUSH6 0x213934B1B597 PUSH1 0xD1 SHL PUSH1 0x44 DUP3 ADD MSTORE PUSH1 0x64 ADD JUMPDEST PUSH1 0x40 MLOAD DUP1 SWAP2 SUB SWAP1 REVERT JUMPDEST PUSH1 0xEA SLOAD PUSH2 0x100 SWAP1 DIV PUSH1 0xFF AND ISZERO PUSH3 0xCE5 JUMPI PUSH1 0x40 MLOAD PUSH3 0x461BCD PUSH1 0xE5 SHL DUP2 MSTORE PUSH1 0x20 PUSH1 0x4 DUP3 ADD MSTORE PUSH1 0x7 PUSH1 0x24 DUP3 ADD MSTORE PUSH7 0x21B637B9B2B217 PUSH1 0xC9 SHL PUSH1 0x44 DUP3 ADD MSTORE PUSH1 0x64 ADD PUSH3 0xC98 JUMP JUMPDEST PUSH1 0x40 MLOAD CALLVALUE DUP2 MSTORE PUSH32 0x19CDFBBC87E2C4F8B08471BB8B544A25603AA3A6037DAB5DD4A660BE7A45B50C SWAP1 PUSH1 0x20 ADD JUMPDEST PUSH1 0x40 MLOAD DUP1 SWAP2 SUB SWAP1 LOG1 CALLVALUE PUSH1 0xCD PUSH1 0x0 DUP3 DUP3 SLOAD PUSH3 0xD2D SWAP2 SWAP1 PUSH3 0x37EA JUMP JUMPDEST SWAP1 SWAP2 SSTORE POP POP JUMP JUMPDEST PUSH1 0x0 DUP1 PUSH1 0xDA DUP4 PUSH1 0x40 MLOAD PUSH3 0xD49 SWAP2 SWAP1 PUSH3 0x3805 JUMP JUMPDEST SWAP1 DUP2 MSTORE PUSH1 0x40 MLOAD SWAP1 DUP2 SWAP1 SUB PUSH1 0x20 ADD DUP2 KECCAK256 SLOAD PUSH1 0x1 PUSH1 0x1 PUSH1 0xA0 SHL SUB AND SWAP1 PUSH1 0xDC SWAP1 PUSH3 0xD73 SWAP1 DUP7 SWAP1 PUSH3 0x3805 JUMP JUMPDEST SWAP1 DUP2 MSTORE PUSH1 0x20 ADD PUSH1 0x40 MLOAD DUP1 SWAP2 SUB SWAP1 KECCAK256 SLOAD SWAP2 POP SWAP2 POP SWAP2 POP SWAP2 JUMP JUMPDEST PUSH1 0x0 CALLER PUSH3 0xD9B DUP6 DUP3 DUP6 PUSH3 0x269D JUMP JUMPDEST PUSH3 0xDA8 DUP6 DUP6 DUP6 PUSH3 0x271E JUMP JUMPDEST POP PUSH1 0x1 SWAP5 SWAP4 POP POP POP POP JUMP JUMPDEST PUSH1 0x60 DUP3 DUP3 PUSH1 0x40 MLOAD PUSH1 0x20 ADD PUSH3 0xDCA SWAP3 SWAP2 SWAP1 PUSH3 0x3823 JUMP JUMPDEST PUSH1 0x40 MLOAD PUSH1 0x20 DUP2 DUP4 SUB SUB DUP2 MSTORE SWAP1 PUSH1 0x40 MSTORE SWAP1 POP SWAP3 SWAP2 POP POP JUMP JUMPDEST PUSH1 0x0 PUSH1 0xE6 SLOAD PUSH1 0xE4 SLOAD PUSH3 0xDF5 SWAP2 SWAP1 PUSH3 0x3856 JUMP JUMPDEST SWAP1 POP SWAP1 JUMP JUMPDEST PUSH1 0x0 CALLER PUSH3 0xC22 DUP2 DUP6 DUP6 PUSH3 0xE10 DUP4 DUP4 PUSH3 0x2150 JUMP JUMPDEST PUSH3 0xE1C SWAP2 SWAP1 PUSH3 0x37EA JUMP JUMPDEST PUSH3 0x2575 JUMP JUMPDEST PUSH1 0xEE SLOAD PUSH1 0x40 MLOAD PUSH32 0xD1C8FE98F1F49786133C2B0BEC4CDDF9F73586849F7102495587F0434FEEECD SWAP2 PUSH3 0xE61 SWAP2 PUSH1 0x1 PUSH1 0x1 PUSH1 0xA0 SHL SUB SWAP1 SWAP2 AND SWAP1 PUSH3 0x3400 JUMP JUMPDEST PUSH1 0x40 MLOAD DUP1 SWAP2 SUB SWAP1 LOG1 JUMP JUMPDEST PUSH1 0x2 PUSH1 0x9A SLOAD SUB PUSH3 0xE90 JUMPI PUSH1 0x40 MLOAD PUSH3 0x461BCD PUSH1 0xE5 SHL DUP2 MSTORE PUSH1 0x4 ADD PUSH3 0xC98 SWAP1 PUSH3 0x3870 JUMP JUMPDEST PUSH1 0x2 PUSH1 0x9A SSTORE PUSH3 0xE9F PUSH3 0xC2C JUMP JUMPDEST PUSH1 0x1 PUSH1 0x1 PUSH1 0xA0 SHL SUB AND CALLER PUSH1 0x1 PUSH1 0x1 PUSH1 0xA0 SHL SUB AND EQ PUSH3 0xEF4 JUMPI PUSH1 0x40 MLOAD PUSH3 0x461BCD PUSH1 0xE5 SHL DUP2 MSTORE PUSH1 0x20 PUSH1 0x4 DUP3 ADD MSTORE PUSH1 0x10 PUSH1 0x24 DUP3 ADD MSTORE PUSH16 0x2CB7BA9030B93290309031B637B73297 PUSH1 0x81 SHL PUSH1 0x44 DUP3 ADD MSTORE PUSH1 0x64 ADD PUSH3 0xC98 JUMP JUMPDEST DUP1 PUSH1 0xCD PUSH1 0x0 DUP3 DUP3 SLOAD PUSH3 0xF08 SWAP2 SWAP1 PUSH3 0x3856 JUMP JUMPDEST SWAP1 SWAP2 SSTORE POP PUSH3 0xF18 SWAP1 POP PUSH3 0xC2C JUMP JUMPDEST PUSH1 0x1 PUSH1 0x1 PUSH1 0xA0 SHL SUB AND PUSH2 0x8FC DUP3 SWAP1 DUP2 ISZERO MUL SWAP1 PUSH1 0x40 MLOAD PUSH1 0x0 PUSH1 0x40 MLOAD DUP1 DUP4 SUB DUP2 DUP6 DUP9 DUP9 CALL SWAP4 POP POP POP POP ISZERO DUP1 ISZERO PUSH3 0xF51 JUMPI RETURNDATASIZE PUSH1 0x0 DUP1 RETURNDATACOPY RETURNDATASIZE PUSH1 0x0 REVERT JUMPDEST POP POP PUSH1 0x1 PUSH1 0x9A SSTORE JUMP JUMPDEST PUSH3 0xF66 CALLER DUP3 PUSH3 0x28E5 JUMP JUMPDEST POP JUMP JUMPDEST PUSH1 0xEA SLOAD PUSH1 0xFF AND ISZERO PUSH3 0xFBE JUMPI PUSH1 0x40 MLOAD PUSH3 0x461BCD PUSH1 0xE5 SHL DUP2 MSTORE PUSH1 0x20 PUSH1 0x4 DUP3 ADD MSTORE PUSH1 0x1A PUSH1 0x24 DUP3 ADD MSTORE PUSH32 0x596F752063616E206E6F7420636C6F7365206120627269636B2E000000000000 PUSH1 0x44 DUP3 ADD MSTORE PUSH1 0x64 ADD PUSH3 0xC98 JUMP JUMPDEST PUSH1 0xEA SLOAD PUSH2 0x100 SWAP1 DIV PUSH1 0xFF AND ISZERO PUSH3 0x1023 JUMPI PUSH1 0x40 MLOAD PUSH3 0x461BCD PUSH1 0xE5 SHL DUP2 MSTORE PUSH1 0x20 PUSH1 0x4 DUP3 ADD MSTORE PUSH1 0x22 PUSH1 0x24 DUP3 ADD MSTORE PUSH32 0x596F752063616E206E6F7420636C6F73653A20416C726561647920636C6F7365 PUSH1 0x44 DUP3 ADD MSTORE PUSH2 0x3217 PUSH1 0xF1 SHL PUSH1 0x64 DUP3 ADD MSTORE PUSH1 0x84 ADD PUSH3 0xC98 JUMP JUMPDEST PUSH1 0xEA SLOAD PUSH3 0x10000 SWAP1 DIV PUSH1 0xFF AND ISZERO PUSH3 0x107E JUMPI PUSH1 0x40 MLOAD PUSH3 0x461BCD PUSH1 0xE5 SHL DUP2 MSTORE PUSH1 0x20 PUSH1 0x4 DUP3 ADD MSTORE PUSH1 0x1E PUSH1 0x24 DUP3 ADD MSTORE PUSH32 0x596F752063616E206E6F7420636C6F73653A204D6574617374616B65642E0000 PUSH1 0x44 DUP3 ADD MSTORE PUSH1 0x64 ADD PUSH3 0xC98 JUMP JUMPDEST PUSH1 0xD5 SLOAD PUSH1 0x1 PUSH1 0x1 PUSH1 0xA0 SHL SUB AND CALLER EQ PUSH3 0x10C7 JUMPI PUSH1 0x40 MLOAD PUSH3 0x461BCD PUSH1 0xE5 SHL DUP2 MSTORE PUSH1 0x20 PUSH1 0x4 DUP3 ADD MSTORE PUSH1 0xA PUSH1 0x24 DUP3 ADD MSTORE PUSH10 0x2737BA1037BBB732B917 PUSH1 0xB1 SHL PUSH1 0x44 DUP3 ADD MSTORE PUSH1 0x64 ADD PUSH3 0xC98 JUMP JUMPDEST PUSH1 0xEA DUP1 SLOAD PUSH2 0xFF00 NOT AND PUSH2 0x100 OR SWAP1 SSTORE PUSH1 0x40 MLOAD PUSH1 0x0 DUP1 MLOAD PUSH1 0x20 PUSH3 0x56BF DUP4 CODECOPY DUP2 MLOAD SWAP2 MSTORE SWAP1 PUSH3 0xE61 SWAP1 PUSH1 0x20 DUP1 DUP3 MSTORE PUSH1 0x3C SWAP1 DUP3 ADD MSTORE PUSH32 0x4F7572206C61737420686172726168206265666F726520776520636C6F736520 PUSH1 0x40 DUP3 ADD MSTORE PUSH32 0x666F7220676F6F642E20576520617265206E6F7720636C6F7365642E00000000 PUSH1 0x60 DUP3 ADD MSTORE PUSH1 0x80 ADD SWAP1 JUMP JUMPDEST PUSH32 0xE7375F84984FEFA09F5F03AA56FFB11ED839B99D56943F858953E537609F8BE7 DUP2 PUSH1 0x40 MLOAD PUSH3 0x117D SWAP2 SWAP1 PUSH3 0x3400 JUMP JUMPDEST PUSH1 0x40 MLOAD DUP1 SWAP2 SUB SWAP1 LOG1 CALLVALUE PUSH1 0xCD PUSH1 0x0 DUP3 DUP3 SLOAD PUSH3 0x1199 SWAP2 SWAP1 PUSH3 0x37EA JUMP JUMPDEST SWAP1 SWAP2 SSTORE POP POP POP JUMP JUMPDEST PUSH1 0xD5 SLOAD PUSH1 0x1 PUSH1 0x1 PUSH1 0xA0 SHL SUB AND CALLER EQ PUSH3 0x11B9 JUMPI PUSH1 0x0 DUP1 REVERT JUMPDEST PUSH1 0xE2 SSTORE JUMP JUMPDEST JUMP JUMPDEST PUSH3 0x11CA PUSH3 0x2A28 JUMP JUMPDEST POP PUSH32 0x2AF7EE6C8F08ECCB0BD31D90E03CA2C2373DBECF67C26FB36684CF46F38AC259 PUSH1 0x40 MLOAD PUSH3 0x1266 SWAP1 PUSH1 0x40 DUP1 DUP3 MSTORE PUSH1 0x6 SWAP1 DUP3 ADD MSTORE PUSH6 0x2222A12AA39D PUSH1 0xD1 SHL PUSH1 0x60 DUP3 ADD MSTORE PUSH1 0x80 PUSH1 0x20 DUP3 ADD DUP2 SWAP1 MSTORE PUSH1 0x34 SWAP1 DUP3 ADD MSTORE PUSH32 0x636C6F776E7365617263682829207761732063616C6C656420616E6420776173 PUSH1 0xA0 DUP3 ADD MSTORE PUSH20 0x103737BA103830BCB0B1363297102CB4B5B2B997 PUSH1 0x61 SHL PUSH1 0xC0 DUP3 ADD MSTORE PUSH1 0xE0 ADD SWAP1 JUMP JUMPDEST PUSH1 0x40 MLOAD DUP1 SWAP2 SUB SWAP1 LOG1 PUSH32 0x19CDFBBC87E2C4F8B08471BB8B544A25603AA3A6037DAB5DD4A660BE7A45B50C PUSH1 0xE9 SLOAD PUSH1 0x40 MLOAD PUSH3 0xE61 SWAP2 DUP2 MSTORE PUSH1 0x20 ADD SWAP1 JUMP JUMPDEST PUSH1 0x0 PUSH3 0xDF5 PUSH3 0xC2C JUMP JUMPDEST PUSH1 0xD5 SLOAD PUSH1 0x1 PUSH1 0x1 PUSH1 0xA0 SHL SUB AND CALLER EQ PUSH3 0x1330 JUMPI PUSH1 0x40 MLOAD PUSH3 0x461BCD PUSH1 0xE5 SHL DUP2 MSTORE PUSH1 0x20 PUSH1 0x4 DUP3 ADD MSTORE PUSH1 0x3A PUSH1 0x24 DUP3 ADD MSTORE PUSH32 0x596F7520646F206E6F7420686176652074686520706F77657220746F20636861 PUSH1 0x44 DUP3 ADD MSTORE PUSH32 0x6E676520746865206675747572652C206F6E6C79204920646F2E000000000000 PUSH1 0x64 DUP3 ADD MSTORE PUSH1 0x84 ADD PUSH3 0xC98 JUMP JUMPDEST PUSH1 0x0 DUP1 MLOAD PUSH1 0x20 PUSH3 0x56BF DUP4 CODECOPY DUP2 MLOAD SWAP2 MSTORE PUSH1 0x40 MLOAD PUSH3 0x13C4 SWAP1 PUSH1 0x20 DUP1 DUP3 MSTORE PUSH1 0x56 SWAP1 DUP3 ADD MSTORE PUSH32 0x506C656173652077656C636F6D65206F757220666972737420627269636B206F PUSH1 0x40 DUP3 ADD MSTORE PUSH32 0x6620616C6C2074696D652C20627269636B656420627574206E6F742061206272 PUSH1 0x60 DUP3 ADD MSTORE PUSH22 0x34B1B590313ABA1039BA34B636103090313934B1B597 PUSH1 0x51 SHL PUSH1 0x80 DUP3 ADD MSTORE PUSH1 0xA0 ADD SWAP1 JUMP JUMPDEST PUSH1 0x40 MLOAD DUP1 SWAP2 SUB SWAP1 LOG1 PUSH1 0xEA DUP1 SLOAD PUSH1 0xFF NOT AND SWAP1 SSTORE PUSH1 0x40 MLOAD PUSH1 0x0 DUP1 MLOAD PUSH1 0x20 PUSH3 0x56BF DUP4 CODECOPY DUP2 MLOAD SWAP2 MSTORE SWAP1 PUSH3 0xE61 SWAP1 PUSH1 0x20 DUP1 DUP3 MSTORE PUSH1 0x60 SWAP1 DUP3 ADD DUP2 SWAP1 MSTORE PUSH32 0x4920616D20616C736F206C6561726E696E672074686174207468697320697320 PUSH1 0x40 DUP4 ADD MSTORE PUSH32 0x6E6F742074686520666972737420627269636B206F6620616C6C2074696D652E SWAP1 DUP3 ADD MSTORE PUSH32 0x204F6B61792C20746865726520796F7520686176652069742C20666F6C6B732E PUSH1 0x80 DUP3 ADD MSTORE PUSH1 0xA0 ADD SWAP1 JUMP JUMPDEST PUSH1 0xD5 SLOAD PUSH1 0x1 PUSH1 0x1 PUSH1 0xA0 SHL SUB AND CALLER EQ PUSH3 0x14BD JUMPI PUSH1 0x40 MLOAD PUSH3 0x461BCD PUSH1 0xE5 SHL DUP2 MSTORE PUSH1 0x20 PUSH1 0x4 DUP3 ADD MSTORE PUSH1 0xB PUSH1 0x24 DUP3 ADD MSTORE PUSH11 0x20B236B4B71037B7363C97 PUSH1 0xA9 SHL PUSH1 0x44 DUP3 ADD MSTORE PUSH1 0x64 ADD PUSH3 0xC98 JUMP JUMPDEST PUSH1 0x1 PUSH1 0x1 PUSH1 0xA0 SHL SUB SWAP2 SWAP1 SWAP2 AND PUSH1 0x0 SWAP1 DUP2 MSTORE PUSH1 0xE8 PUSH1 0x20 MSTORE PUSH1 0x40 SWAP1 KECCAK256 DUP1 SLOAD PUSH1 0xFF NOT AND SWAP2 ISZERO ISZERO SWAP2 SWAP1 SWAP2 OR SWAP1 SSTORE JUMP JUMPDEST PUSH3 0x14F5 DUP3 CALLER DUP4 PUSH3 0x269D JUMP JUMPDEST PUSH3 0x1501 DUP3 DUP3 PUSH3 0x28E5 JUMP JUMPDEST POP POP JUMP JUMPDEST PUSH1 0xD5 SLOAD PUSH1 0x1 PUSH1 0x1 PUSH1 0xA0 SHL SUB AND CALLER EQ PUSH3 0x154E JUMPI PUSH1 0x40 MLOAD PUSH3 0x461BCD PUSH1 0xE5 SHL DUP2 MSTORE PUSH1 0x20 PUSH1 0x4 DUP3 ADD MSTORE PUSH1 0xA PUSH1 0x24 DUP3 ADD MSTORE PUSH10 0x29B7B9393C9610373797 PUSH1 0xB1 SHL PUSH1 0x44 DUP3 ADD MSTORE PUSH1 0x64 ADD PUSH3 0xC98 JUMP JUMPDEST PUSH1 0x99 SSTORE JUMP JUMPDEST PUSH1 0x0 PUSH1 0x2 PUSH1 0x9A SLOAD SUB PUSH3 0x157A JUMPI PUSH1 0x40 MLOAD PUSH3 0x461BCD PUSH1 0xE5 SHL DUP2 MSTORE PUSH1 0x4 ADD PUSH3 0xC98 SWAP1 PUSH3 0x3870 JUMP JUMPDEST PUSH1 0x2 PUSH1 0x9A SSTORE PUSH1 0xEA SLOAD PUSH2 0x100 SWAP1 DIV PUSH1 0xFF AND ISZERO PUSH3 0x15AA JUMPI PUSH1 0x40 MLOAD PUSH3 0x461BCD PUSH1 0xE5 SHL DUP2 MSTORE PUSH1 0x4 ADD PUSH3 0xC98 SWAP1 PUSH3 0x38A7 JUMP JUMPDEST PUSH1 0x0 PUSH1 0xE2 SLOAD GT PUSH3 0x15CF JUMPI PUSH1 0x40 MLOAD PUSH3 0x461BCD PUSH1 0xE5 SHL DUP2 MSTORE PUSH1 0x4 ADD PUSH3 0xC98 SWAP1 PUSH3 0x38F3 JUMP JUMPDEST PUSH1 0x0 PUSH8 0xDE0B6B3A7640000 PUSH1 0xE2 SLOAD CALLVALUE PUSH3 0x15EA SWAP2 SWAP1 PUSH3 0x3916 JUMP JUMPDEST PUSH3 0x15F6 SWAP2 SWAP1 PUSH3 0x3938 JUMP JUMPDEST SWAP1 POP PUSH3 0x1605 ADDRESS CALLER DUP4 PUSH3 0x271E JUMP JUMPDEST CALLVALUE PUSH1 0xCD PUSH1 0x0 DUP3 DUP3 SLOAD PUSH3 0x1619 SWAP2 SWAP1 PUSH3 0x37EA JUMP JUMPDEST SWAP3 POP POP DUP2 SWAP1 SSTORE POP DUP1 PUSH1 0xE7 PUSH1 0x0 DUP3 DUP3 SLOAD PUSH3 0x1634 SWAP2 SWAP1 PUSH3 0x37EA JUMP JUMPDEST SWAP1 SWAP2 SSTORE POP POP PUSH1 0xE5 SLOAD PUSH1 0xE7 SLOAD GT ISZERO PUSH3 0x1660 JUMPI PUSH1 0x40 MLOAD PUSH3 0x461BCD PUSH1 0xE5 SHL DUP2 MSTORE PUSH1 0x4 ADD PUSH3 0xC98 SWAP1 PUSH3 0x395B JUMP JUMPDEST SWAP1 POP PUSH1 0x1 PUSH1 0x9A SSTORE SWAP1 JUMP JUMPDEST PUSH1 0x60 PUSH1 0x37 DUP1 SLOAD PUSH3 0xB89 SWAP1 PUSH3 0x3798 JUMP JUMPDEST PUSH1 0x0 PUSH1 0x2 PUSH1 0x9A SLOAD SUB PUSH3 0x16A2 JUMPI PUSH1 0x40 MLOAD PUSH3 0x461BCD PUSH1 0xE5 SHL DUP2 MSTORE PUSH1 0x4 ADD PUSH3 0xC98 SWAP1 PUSH3 0x3870 JUMP JUMPDEST PUSH1 0x2 PUSH1 0x9A SSTORE PUSH1 0xEA SLOAD PUSH2 0x100 SWAP1 DIV PUSH1 0xFF AND ISZERO PUSH3 0x1718 JUMPI PUSH1 0x40 MLOAD PUSH3 0x461BCD PUSH1 0xE5 SHL DUP2 MSTORE PUSH1 0x20 PUSH1 0x4 DUP3 ADD MSTORE PUSH1 0x2E PUSH1 0x24 DUP3 ADD MSTORE PUSH32 0x54686973206973206E6F74206120726567697374657220616E796D6F72652E20 PUSH1 0x44 DUP3 ADD MSTORE PUSH14 0x24BA1034B9903090313934B1B597 PUSH1 0x91 SHL PUSH1 0x64 DUP3 ADD MSTORE PUSH1 0x84 ADD PUSH3 0xC98 JUMP JUMPDEST PUSH1 0x0 PUSH1 0xE3 SLOAD GT PUSH3 0x173D JUMPI PUSH1 0x40 MLOAD PUSH3 0x461BCD PUSH1 0xE5 SHL DUP2 MSTORE PUSH1 0x4 ADD PUSH3 0xC98 SWAP1 PUSH3 0x38F3 JUMP JUMPDEST CALLER PUSH1 0x0 SWAP1 DUP2 MSTORE PUSH1 0xE8 PUSH1 0x20 MSTORE PUSH1 0x40 SWAP1 KECCAK256 SLOAD PUSH1 0xFF AND PUSH3 0x179E JUMPI PUSH1 0x40 MLOAD PUSH3 0x461BCD PUSH1 0xE5 SHL DUP2 MSTORE PUSH1 0x20 PUSH1 0x4 DUP3 ADD DUP2 SWAP1 MSTORE PUSH1 0x24 DUP3 ADD MSTORE PUSH32 0x596F752063616E27742075736520746869732066756E6374696F6E207965742E PUSH1 0x44 DUP3 ADD MSTORE PUSH1 0x64 ADD PUSH3 0xC98 JUMP JUMPDEST PUSH1 0x0 PUSH8 0xDE0B6B3A7640000 PUSH1 0xE3 SLOAD DUP5 PUSH3 0x17B9 SWAP2 SWAP1 PUSH3 0x3916 JUMP JUMPDEST PUSH3 0x17C5 SWAP2 SWAP1 PUSH3 0x3938 JUMP JUMPDEST SWAP1 POP PUSH1 0xCD SLOAD DUP2 GT ISZERO PUSH3 0x180F JUMPI PUSH1 0x40 MLOAD PUSH3 0x461BCD PUSH1 0xE5 SHL DUP2 MSTORE PUSH1 0x20 PUSH1 0x4 DUP3 ADD MSTORE PUSH1 0x11 PUSH1 0x24 DUP3 ADD MSTORE PUSH17 0x2737BA1032B737BAB3B410333AB7323997 PUSH1 0x79 SHL PUSH1 0x44 DUP3 ADD MSTORE PUSH1 0x64 ADD PUSH3 0xC98 JUMP JUMPDEST PUSH3 0x181B DUP5 DUP5 PUSH3 0x28E5 JUMP JUMPDEST DUP1 PUSH1 0xCD PUSH1 0x0 DUP3 DUP3 SLOAD PUSH3 0x182F SWAP2 SWAP1 PUSH3 0x3856 JUMP JUMPDEST SWAP3 POP POP DUP2 SWAP1 SSTORE POP DUP1 PUSH1 0xE6 PUSH1 0x0 DUP3 DUP3 SLOAD PUSH3 0x184A SWAP2 SWAP1 PUSH3 0x37EA JUMP JUMPDEST SWAP3 POP POP DUP2 SWAP1 SSTORE POP CALLER PUSH1 0x1 PUSH1 0x1 PUSH1 0xA0 SHL SUB AND PUSH4 0x495057BE DUP3 PUSH1 0x40 MLOAD DUP3 PUSH4 0xFFFFFFFF AND PUSH1 0xE0 SHL DUP2 MSTORE PUSH1 0x4 ADD PUSH1 0x0 PUSH1 0x40 MLOAD DUP1 DUP4 SUB DUP2 DUP6 DUP9 DUP1 EXTCODESIZE ISZERO DUP1 ISZERO PUSH3 0x188D JUMPI PUSH1 0x0 DUP1 REVERT JUMPDEST POP GAS CALL ISZERO DUP1 ISZERO PUSH3 0x18A2 JUMPI RETURNDATASIZE PUSH1 0x0 DUP1 RETURNDATACOPY RETURNDATASIZE PUSH1 0x0 REVERT JUMPDEST POP POP POP POP POP PUSH1 0xE4 SLOAD PUSH1 0xE6 SLOAD GT ISZERO PUSH3 0x18CE JUMPI PUSH1 0x40 MLOAD PUSH3 0x461BCD PUSH1 0xE5 SHL DUP2 MSTORE PUSH1 0x4 ADD PUSH3 0xC98 SWAP1 PUSH3 0x395B JUMP JUMPDEST PUSH1 0x1 PUSH1 0x9A SSTORE SWAP4 SWAP3 POP POP POP JUMP JUMPDEST PUSH1 0xD5 SLOAD PUSH1 0x1 PUSH1 0x1 PUSH1 0xA0 SHL SUB AND CALLER EQ PUSH3 0x195C JUMPI PUSH1 0x40 MLOAD PUSH3 0x461BCD PUSH1 0xE5 SHL DUP2 MSTORE PUSH1 0x20 PUSH1 0x4 DUP3 ADD MSTORE PUSH1 0x3A PUSH1 0x24 DUP3 ADD MSTORE PUSH32 0x4F6E6C79207468652043756C74757265436F696E2061646D696E697374726174 PUSH1 0x44 DUP3 ADD MSTORE PUSH32 0x6F72206D617920666C6167206120636F696E20617320444F412E000000000000 PUSH1 0x64 DUP3 ADD MSTORE PUSH1 0x84 ADD PUSH3 0xC98 JUMP JUMPDEST PUSH1 0x0 PUSH1 0xDB DUP3 PUSH1 0x40 MLOAD PUSH3 0x1970 SWAP2 SWAP1 PUSH3 0x3805 JUMP JUMPDEST SWAP1 DUP2 MSTORE PUSH1 0x40 MLOAD SWAP1 DUP2 SWAP1 SUB PUSH1 0x20 ADD SWAP1 KECCAK256 DUP1 SLOAD SWAP2 ISZERO ISZERO PUSH1 0xFF NOT SWAP1 SWAP3 AND SWAP2 SWAP1 SWAP2 OR SWAP1 SSTORE POP JUMP JUMPDEST PUSH1 0x0 CALLER DUP2 PUSH3 0x19A3 DUP3 DUP7 PUSH3 0x2150 JUMP JUMPDEST SWAP1 POP DUP4 DUP2 LT ISZERO PUSH3 0x1A05 JUMPI PUSH1 0x40 MLOAD PUSH3 0x461BCD PUSH1 0xE5 SHL DUP2 MSTORE PUSH1 0x20 PUSH1 0x4 DUP3 ADD MSTORE PUSH1 0x25 PUSH1 0x24 DUP3 ADD MSTORE PUSH32 0x45524332303A2064656372656173656420616C6C6F77616E63652062656C6F77 PUSH1 0x44 DUP3 ADD MSTORE PUSH5 0x207A65726F PUSH1 0xD8 SHL PUSH1 0x64 DUP3 ADD MSTORE PUSH1 0x84 ADD PUSH3 0xC98 JUMP JUMPDEST PUSH3 0xDA8 DUP3 DUP7 DUP7 DUP5 SUB PUSH3 0x2575 JUMP JUMPDEST PUSH1 0xEA SLOAD PUSH1 0xFF AND ISZERO PUSH3 0x1A3A JUMPI PUSH1 0x40 MLOAD PUSH3 0x461BCD PUSH1 0xE5 SHL DUP2 MSTORE PUSH1 0x4 ADD PUSH3 0xC98 SWAP1 PUSH3 0x3989 JUMP JUMPDEST PUSH1 0xEA SLOAD PUSH2 0x100 SWAP1 DIV PUSH1 0xFF AND ISZERO PUSH3 0x1A65 JUMPI PUSH1 0x40 MLOAD PUSH3 0x461BCD PUSH1 0xE5 SHL DUP2 MSTORE PUSH1 0x4 ADD PUSH3 0xC98 SWAP1 PUSH3 0x39B9 JUMP JUMPDEST PUSH1 0x40 MLOAD PUSH4 0x70A08231 PUSH1 0xE0 SHL DUP2 MSTORE ADDRESS SWAP1 PUSH4 0x70A08231 SWAP1 PUSH3 0x1A8A SWAP1 CALLER SWAP1 PUSH1 0x4 ADD PUSH3 0x3400 JUMP JUMPDEST PUSH1 0x20 PUSH1 0x40 MLOAD DUP1 DUP4 SUB DUP2 DUP7 GAS STATICCALL ISZERO DUP1 ISZERO PUSH3 0x1AA8 JUMPI RETURNDATASIZE PUSH1 0x0 DUP1 RETURNDATACOPY RETURNDATASIZE PUSH1 0x0 REVERT JUMPDEST POP POP POP POP PUSH1 0x40 MLOAD RETURNDATASIZE PUSH1 0x1F NOT PUSH1 0x1F DUP3 ADD AND DUP3 ADD DUP1 PUSH1 0x40 MSTORE POP DUP2 ADD SWAP1 PUSH3 0x1ACE SWAP2 SWAP1 PUSH3 0x3A16 JUMP JUMPDEST DUP2 LT PUSH3 0x1B1E JUMPI PUSH1 0x40 MLOAD PUSH3 0x461BCD PUSH1 0xE5 SHL DUP2 MSTORE PUSH1 0x20 PUSH1 0x4 DUP3 ADD MSTORE PUSH1 0x1E PUSH1 0x24 DUP3 ADD MSTORE PUSH32 0x43616E6E6F74207374616B65206D6F7265207468616E20796F75206F776E0000 PUSH1 0x44 DUP3 ADD MSTORE PUSH1 0x64 ADD PUSH3 0xC98 JUMP JUMPDEST PUSH3 0xF5A DUP2 PUSH3 0x2A3C JUMP JUMPDEST PUSH1 0x0 CALLER PUSH3 0xC22 DUP2 DUP6 DUP6 PUSH3 0x271E JUMP JUMPDEST PUSH1 0xD5 SLOAD PUSH1 0x1 PUSH1 0x1 PUSH1 0xA0 SHL SUB AND CALLER EQ PUSH3 0x1B51 JUMPI PUSH1 0x0 DUP1 REVERT JUMPDEST PUSH1 0xE3 SSTORE JUMP JUMPDEST PUSH1 0x0 PUSH1 0xEC SLOAD GT PUSH3 0x1BAA JUMPI PUSH1 0x40 MLOAD PUSH3 0x461BCD PUSH1 0xE5 SHL DUP2 MSTORE PUSH1 0x20 PUSH1 0x4 DUP3 ADD MSTORE PUSH1 0x1D PUSH1 0x24 DUP3 ADD MSTORE PUSH32 0x506C656173652061646D696E73747261746520796F757220636F696E2E000000 PUSH1 0x44 DUP3 ADD MSTORE PUSH1 0x64 ADD PUSH3 0xC98 JUMP JUMPDEST PUSH1 0xEC SLOAD CALLVALUE LT ISZERO PUSH3 0x1BE8 JUMPI PUSH1 0x40 MLOAD PUSH3 0x461BCD PUSH1 0xE5 SHL DUP2 MSTORE PUSH1 0x20 PUSH1 0x4 DUP3 ADD MSTORE PUSH1 0x7 PUSH1 0x24 DUP3 ADD MSTORE PUSH7 0x283632B0B9B297 PUSH1 0xC9 SHL PUSH1 0x44 DUP3 ADD MSTORE PUSH1 0x64 ADD PUSH3 0xC98 JUMP JUMPDEST PUSH1 0xEA SLOAD PUSH1 0xFF AND ISZERO PUSH3 0x1C58 JUMPI PUSH1 0x0 DUP1 MLOAD PUSH1 0x20 PUSH3 0x56BF DUP4 CODECOPY DUP2 MLOAD SWAP2 MSTORE PUSH1 0x40 MLOAD PUSH3 0x1C4F SWAP1 PUSH1 0x20 DUP1 DUP3 MSTORE PUSH1 0x23 SWAP1 DUP3 ADD MSTORE PUSH32 0x54686973206D656D6520636F696E207468696E6B732069742773206120627269 PUSH1 0x40 DUP3 ADD MSTORE PUSH3 0x31B597 PUSH1 0xE9 SHL PUSH1 0x60 DUP3 ADD MSTORE PUSH1 0x80 ADD SWAP1 JUMP JUMPDEST PUSH1 0x40 MLOAD DUP1 SWAP2 SUB SWAP1 LOG1 JUMPDEST PUSH1 0xEA SLOAD PUSH2 0x100 SWAP1 DIV PUSH1 0xFF AND ISZERO PUSH3 0x1CD9 JUMPI PUSH1 0x0 DUP1 MLOAD PUSH1 0x20 PUSH3 0x56BF DUP4 CODECOPY DUP2 MLOAD SWAP2 MSTORE PUSH1 0x40 MLOAD PUSH3 0x1CD0 SWAP1 PUSH1 0x20 DUP1 DUP3 MSTORE PUSH1 0x2F SWAP1 DUP3 ADD MSTORE PUSH32 0x54686973206D656D6520636F696E207468696E6B73206974277320636C6F7365 PUSH1 0x40 DUP3 ADD MSTORE PUSH15 0x32103337B910313AB9B4B732B9B997 PUSH1 0x89 SHL PUSH1 0x60 DUP3 ADD MSTORE PUSH1 0x80 ADD SWAP1 JUMP JUMPDEST PUSH1 0x40 MLOAD DUP1 SWAP2 SUB SWAP1 LOG1 JUMPDEST PUSH1 0xD5 SLOAD PUSH1 0x1 PUSH1 0x1 PUSH1 0xA0 SHL SUB AND PUSH3 0x1CEF PUSH3 0xC2C JUMP JUMPDEST PUSH1 0x1 PUSH1 0x1 PUSH1 0xA0 SHL SUB AND EQ PUSH3 0x1D25 JUMPI PUSH1 0x0 DUP1 MLOAD PUSH1 0x20 PUSH3 0x56BF DUP4 CODECOPY DUP2 MLOAD SWAP2 MSTORE PUSH1 0x40 MLOAD PUSH3 0x1D1C SWAP1 PUSH3 0x3A30 JUMP JUMPDEST PUSH1 0x40 MLOAD DUP1 SWAP2 SUB SWAP1 LOG1 JUMPDEST PUSH32 0xA2CEB0EA4C1D58A42D42E6190C7DF2D44E4D514484472917B44610687FC68D0E PUSH1 0xD2 CALLVALUE PUSH1 0x40 MLOAD PUSH3 0xD11 SWAP3 SWAP2 SWAP1 PUSH3 0x3A8D JUMP JUMPDEST PUSH1 0x0 PUSH1 0x2 PUSH1 0x9A SLOAD SUB PUSH3 0x1D80 JUMPI PUSH1 0x40 MLOAD PUSH3 0x461BCD PUSH1 0xE5 SHL DUP2 MSTORE PUSH1 0x4 ADD PUSH3 0xC98 SWAP1 PUSH3 0x3870 JUMP JUMPDEST PUSH1 0x2 PUSH1 0x9A SSTORE PUSH1 0xEA SLOAD PUSH1 0xFF AND ISZERO PUSH3 0x1DD6 JUMPI PUSH1 0x40 MLOAD PUSH3 0x461BCD PUSH1 0xE5 SHL DUP2 MSTORE PUSH1 0x20 PUSH1 0x4 DUP3 ADD MSTORE PUSH1 0x19 PUSH1 0x24 DUP3 ADD MSTORE PUSH25 0x213934B1B5B9903237903737BA1036B0B5B29039B2B2B23997 PUSH1 0x39 SHL PUSH1 0x44 DUP3 ADD MSTORE PUSH1 0x64 ADD PUSH3 0xC98 JUMP JUMPDEST PUSH1 0x0 DUP5 ADDRESS DUP6 DUP9 PUSH1 0x40 MLOAD PUSH3 0x1DEA SWAP1 PUSH3 0x3293 JUMP JUMPDEST PUSH3 0x1DF9 SWAP5 SWAP4 SWAP3 SWAP2 SWAP1 PUSH3 0x3B44 JUMP JUMPDEST PUSH1 0x40 MLOAD DUP1 SWAP2 SUB SWAP1 PUSH1 0x0 CREATE DUP1 ISZERO DUP1 ISZERO PUSH3 0x1E16 JUMPI RETURNDATASIZE PUSH1 0x0 DUP1 RETURNDATACOPY RETURNDATASIZE PUSH1 0x0 REVERT JUMPDEST POP SWAP1 POP DUP3 ISZERO PUSH3 0x1E33 JUMPI PUSH3 0x1E2D DUP7 DUP3 DUP8 PUSH3 0x2B92 JUMP JUMPDEST PUSH3 0x1E95 JUMP JUMPDEST PUSH1 0x0 DUP1 MLOAD PUSH1 0x20 PUSH3 0x56BF DUP4 CODECOPY DUP2 MLOAD SWAP2 MSTORE PUSH1 0x40 MLOAD PUSH3 0x1E8C SWAP1 PUSH1 0x20 DUP1 DUP3 MSTORE PUSH1 0x21 SWAP1 DUP3 ADD MSTORE PUSH32 0x54686520636F696E206D7573742062652061207265616C20676F6F64206F6E65 PUSH1 0x40 DUP3 ADD MSTORE PUSH1 0x17 PUSH1 0xF9 SHL PUSH1 0x60 DUP3 ADD MSTORE PUSH1 0x80 ADD SWAP1 JUMP JUMPDEST PUSH1 0x40 MLOAD DUP1 SWAP2 SUB SWAP1 LOG1 JUMPDEST PUSH1 0x1 PUSH1 0x9A SSTORE SWAP6 SWAP5 POP POP POP POP POP JUMP JUMPDEST PUSH1 0x0 DUP2 PUSH1 0x40 MLOAD PUSH1 0x20 ADD PUSH3 0x1EB8 SWAP2 SWAP1 PUSH3 0x3805 JUMP JUMPDEST PUSH1 0x40 MLOAD PUSH1 0x20 DUP2 DUP4 SUB SUB DUP2 MSTORE SWAP1 PUSH1 0x40 MSTORE DUP1 MLOAD SWAP1 PUSH1 0x20 ADD KECCAK256 DUP4 PUSH1 0x40 MLOAD PUSH1 0x20 ADD PUSH3 0x1EE1 SWAP2 SWAP1 PUSH3 0x3805 JUMP JUMPDEST PUSH1 0x40 MLOAD PUSH1 0x20 DUP2 DUP4 SUB SUB DUP2 MSTORE SWAP1 PUSH1 0x40 MSTORE DUP1 MLOAD SWAP1 PUSH1 0x20 ADD KECCAK256 EQ SWAP1 POP SWAP3 SWAP2 POP POP JUMP JUMPDEST PUSH1 0x0 DUP1 MLOAD PUSH1 0x20 PUSH3 0x56BF DUP4 CODECOPY DUP2 MLOAD SWAP2 MSTORE PUSH1 0x40 MLOAD PUSH3 0x1D1C SWAP1 PUSH3 0x3A30 JUMP JUMPDEST PUSH1 0x0 SLOAD PUSH2 0x100 SWAP1 DIV PUSH1 0xFF AND PUSH3 0x1F3B JUMPI PUSH1 0x0 SLOAD PUSH1 0xFF AND ISZERO PUSH3 0x1F3F JUMP JUMPDEST ADDRESS EXTCODESIZE ISZERO JUMPDEST PUSH3 0x1FA4 JUMPI PUSH1 0x40 MLOAD PUSH3 0x461BCD PUSH1 0xE5 SHL DUP2 MSTORE PUSH1 0x20 PUSH1 0x4 DUP3 ADD MSTORE PUSH1 0x2E PUSH1 0x24 DUP3 ADD MSTORE PUSH32 0x496E697469616C697A61626C653A20636F6E747261637420697320616C726561 PUSH1 0x44 DUP3 ADD MSTORE PUSH14 0x191E481A5B9A5D1A585B1A5E9959 PUSH1 0x92 SHL PUSH1 0x64 DUP3 ADD MSTORE PUSH1 0x84 ADD PUSH3 0xC98 JUMP JUMPDEST PUSH1 0x0 SLOAD PUSH2 0x100 SWAP1 DIV PUSH1 0xFF AND ISZERO DUP1 ISZERO PUSH3 0x1FC7 JUMPI PUSH1 0x0 DUP1 SLOAD PUSH2 0xFFFF NOT AND PUSH2 0x101 OR SWAP1 SSTORE JUMPDEST PUSH1 0x1 PUSH1 0x1 PUSH1 0xA0 SHL SUB DUP3 AND PUSH3 0x200E JUMPI PUSH1 0x40 MLOAD PUSH3 0x461BCD PUSH1 0xE5 SHL DUP2 MSTORE PUSH1 0x20 PUSH1 0x4 DUP3 ADD MSTORE PUSH1 0xC PUSH1 0x24 DUP3 ADD MSTORE PUSH12 0x5A65726F2061646472657373 PUSH1 0xA0 SHL PUSH1 0x44 DUP3 ADD MSTORE PUSH1 0x64 ADD PUSH3 0xC98 JUMP JUMPDEST PUSH3 0x2057 PUSH1 0x40 MLOAD DUP1 PUSH1 0x40 ADD PUSH1 0x40 MSTORE DUP1 PUSH1 0xB DUP2 MSTORE PUSH1 0x20 ADD PUSH11 0x21BAB63A3AB932A1B7B4B7 PUSH1 0xA9 SHL DUP2 MSTORE POP PUSH1 0x40 MLOAD DUP1 PUSH1 0x40 ADD PUSH1 0x40 MSTORE DUP1 PUSH1 0x2 DUP2 MSTORE PUSH1 0x20 ADD PUSH2 0x4343 PUSH1 0xF0 SHL DUP2 MSTORE POP PUSH3 0x2D7E JUMP JUMPDEST PUSH3 0x2061 PUSH3 0x2DB4 JUMP JUMPDEST PUSH1 0x97 DUP1 SLOAD PUSH1 0x1 ADD DUP2 SSTORE PUSH1 0x0 MSTORE PUSH3 0x2077 PUSH3 0x2DDE JUMP JUMPDEST PUSH11 0x5DD8D27FAA6C3525C40000 PUSH3 0x209A CALLER PUSH3 0x2094 DUP4 DUP8 PUSH3 0x3856 JUMP JUMPDEST PUSH3 0x2E12 JUMP JUMPDEST PUSH3 0x20A6 ADDRESS DUP3 PUSH3 0x2E12 JUMP JUMPDEST PUSH1 0x0 NOT PUSH1 0xEB SSTORE PUSH1 0xD5 DUP1 SLOAD PUSH1 0x1 PUSH1 0x1 PUSH1 0xA0 SHL SUB NOT AND PUSH1 0x1 PUSH1 0x1 PUSH1 0xA0 SHL SUB DUP6 AND OR SWAP1 SSTORE PUSH1 0x40 DUP1 MLOAD DUP1 DUP3 ADD SWAP1 SWAP2 MSTORE PUSH1 0x1 DUP1 DUP3 MSTORE PUSH1 0x1D PUSH1 0xF9 SHL PUSH1 0x20 SWAP1 SWAP3 ADD SWAP2 DUP3 MSTORE PUSH3 0x20F1 SWAP2 PUSH1 0xD2 SWAP2 PUSH3 0x32A1 JUMP JUMPDEST POP PUSH1 0xEA DUP1 SLOAD PUSH5 0xFF00000000 NOT AND PUSH5 0x100000000 OR SWAP1 SSTORE PUSH8 0x37824949B666000 PUSH1 0xE2 SSTORE PUSH8 0x36F4C81D2CFEA000 PUSH1 0xE3 SSTORE PUSH3 0x212C DUP2 PUSH1 0x4 PUSH3 0x3916 JUMP JUMPDEST PUSH1 0xE4 SSTORE PUSH1 0xE5 SSTORE PUSH2 0x3E8 PUSH1 0x99 SSTORE DUP1 ISZERO PUSH3 0x214B JUMPI PUSH1 0x0 DUP1 SLOAD PUSH2 0xFF00 NOT AND SWAP1 SSTORE JUMPDEST POP POP POP JUMP JUMPDEST PUSH1 0x1 PUSH1 0x1 PUSH1 0xA0 SHL SUB SWAP2 DUP3 AND PUSH1 0x0 SWAP1 DUP2 MSTORE PUSH1 0x34 PUSH1 0x20 SWAP1 DUP2 MSTORE PUSH1 0x40 DUP1 DUP4 KECCAK256 SWAP4 SWAP1 SWAP5 AND DUP3 MSTORE SWAP2 SWAP1 SWAP2 MSTORE KECCAK256 SLOAD SWAP1 JUMP JUMPDEST PUSH1 0x0 PUSH1 0x2 PUSH1 0x9A SLOAD SUB PUSH3 0x21A2 JUMPI PUSH1 0x40 MLOAD PUSH3 0x461BCD PUSH1 0xE5 SHL DUP2 MSTORE PUSH1 0x4 ADD PUSH3 0xC98 SWAP1 PUSH3 0x3870 JUMP JUMPDEST PUSH1 0x2 PUSH1 0x9A SSTORE PUSH1 0xEA SLOAD PUSH2 0x100 SWAP1 DIV PUSH1 0xFF AND ISZERO PUSH3 0x21D2 JUMPI PUSH1 0x40 MLOAD PUSH3 0x461BCD PUSH1 0xE5 SHL DUP2 MSTORE PUSH1 0x4 ADD PUSH3 0xC98 SWAP1 PUSH3 0x38A7 JUMP JUMPDEST PUSH1 0x0 PUSH1 0xE3 SLOAD GT PUSH3 0x21F7 JUMPI PUSH1 0x40 MLOAD PUSH3 0x461BCD PUSH1 0xE5 SHL DUP2 MSTORE PUSH1 0x4 ADD PUSH3 0xC98 SWAP1 PUSH3 0x38F3 JUMP JUMPDEST PUSH1 0x0 PUSH8 0xDE0B6B3A7640000 PUSH1 0xE3 SLOAD DUP5 PUSH3 0x2212 SWAP2 SWAP1 PUSH3 0x3916 JUMP JUMPDEST PUSH3 0x221E SWAP2 SWAP1 PUSH3 0x3938 JUMP JUMPDEST SWAP1 POP PUSH3 0x222C CALLER DUP5 PUSH3 0x28E5 JUMP JUMPDEST DUP1 PUSH1 0xCD PUSH1 0x0 DUP3 DUP3 SLOAD PUSH3 0x2240 SWAP2 SWAP1 PUSH3 0x3856 JUMP JUMPDEST SWAP3 POP POP DUP2 SWAP1 SSTORE POP DUP1 PUSH1 0xE6 PUSH1 0x0 DUP3 DUP3 SLOAD PUSH3 0x225B SWAP2 SWAP1 PUSH3 0x37EA JUMP JUMPDEST SWAP1 SWAP2 SSTORE POP POP PUSH1 0x40 MLOAD CALLER SWAP1 DUP3 ISZERO PUSH2 0x8FC MUL SWAP1 DUP4 SWAP1 PUSH1 0x0 DUP2 DUP2 DUP2 DUP6 DUP9 DUP9 CALL SWAP4 POP POP POP POP ISZERO DUP1 ISZERO PUSH3 0x228E JUMPI RETURNDATASIZE PUSH1 0x0 DUP1 RETURNDATACOPY RETURNDATASIZE PUSH1 0x0 REVERT JUMPDEST POP PUSH1 0xE4 SLOAD PUSH1 0xE6 SLOAD GT ISZERO PUSH3 0x22B6 JUMPI PUSH1 0x40 MLOAD PUSH3 0x461BCD PUSH1 0xE5 SHL DUP2 MSTORE PUSH1 0x4 ADD PUSH3 0xC98 SWAP1 PUSH3 0x395B JUMP JUMPDEST PUSH1 0x1 PUSH1 0x9A SSTORE SWAP3 SWAP2 POP POP JUMP JUMPDEST PUSH1 0x40 DUP1 MLOAD DUP1 DUP3 ADD SWAP1 SWAP2 MSTORE PUSH1 0x0 DUP2 MSTORE PUSH1 0x60 PUSH1 0x20 DUP3 ADD MSTORE PUSH1 0x0 DUP1 PUSH1 0x40 MLOAD DUP1 PUSH1 0x40 ADD PUSH1 0x40 MSTORE DUP1 PUSH1 0x0 DUP2 MSTORE PUSH1 0x20 ADD PUSH1 0x97 PUSH1 0x98 PUSH1 0x0 DUP9 PUSH1 0x1 PUSH1 0x1 PUSH1 0xA0 SHL SUB AND PUSH1 0x1 PUSH1 0x1 PUSH1 0xA0 SHL SUB AND DUP2 MSTORE PUSH1 0x20 ADD SWAP1 DUP2 MSTORE PUSH1 0x20 ADD PUSH1 0x0 KECCAK256 SLOAD DUP2 SLOAD DUP2 LT PUSH3 0x2326 JUMPI PUSH3 0x2326 PUSH3 0x3B78 JUMP JUMPDEST SWAP1 PUSH1 0x0 MSTORE PUSH1 0x20 PUSH1 0x0 KECCAK256 SWAP1 PUSH1 0x2 MUL ADD PUSH1 0x1 ADD DUP1 SLOAD DUP1 PUSH1 0x20 MUL PUSH1 0x20 ADD PUSH1 0x40 MLOAD SWAP1 DUP2 ADD PUSH1 0x40 MSTORE DUP1 SWAP3 SWAP2 SWAP1 DUP2 DUP2 MSTORE PUSH1 0x20 ADD PUSH1 0x0 SWAP1 JUMPDEST DUP3 DUP3 LT ISZERO PUSH3 0x23B6 JUMPI PUSH1 0x0 DUP5 DUP2 MSTORE PUSH1 0x20 SWAP1 DUP2 SWAP1 KECCAK256 PUSH1 0x40 DUP1 MLOAD PUSH1 0x80 DUP2 ADD DUP3 MSTORE PUSH1 0x4 DUP7 MUL SWAP1 SWAP3 ADD DUP1 SLOAD PUSH1 0x1 PUSH1 0x1 PUSH1 0xA0 SHL SUB AND DUP4 MSTORE PUSH1 0x1 DUP1 DUP3 ADD SLOAD DUP5 DUP7 ADD MSTORE PUSH1 0x2 DUP3 ADD SLOAD SWAP3 DUP5 ADD SWAP3 SWAP1 SWAP3 MSTORE PUSH1 0x3 ADD SLOAD PUSH1 0x60 DUP4 ADD MSTORE SWAP1 DUP4 MSTORE SWAP1 SWAP3 ADD SWAP2 ADD PUSH3 0x2357 JUMP JUMPDEST POP POP POP SWAP2 MSTORE POP SWAP1 POP PUSH1 0x0 JUMPDEST DUP2 PUSH1 0x20 ADD MLOAD MLOAD DUP2 LT ISZERO PUSH3 0x2473 JUMPI PUSH1 0x0 PUSH3 0x23FC DUP4 PUSH1 0x20 ADD MLOAD DUP4 DUP2 MLOAD DUP2 LT PUSH3 0x23EE JUMPI PUSH3 0x23EE PUSH3 0x3B78 JUMP JUMPDEST PUSH1 0x20 MUL PUSH1 0x20 ADD ADD MLOAD PUSH3 0x2EE6 JUMP JUMPDEST SWAP1 POP DUP1 DUP4 PUSH1 0x20 ADD MLOAD DUP4 DUP2 MLOAD DUP2 LT PUSH3 0x2418 JUMPI PUSH3 0x2418 PUSH3 0x3B78 JUMP JUMPDEST PUSH1 0x20 MUL PUSH1 0x20 ADD ADD MLOAD PUSH1 0x60 ADD DUP2 DUP2 MSTORE POP POP DUP3 PUSH1 0x20 ADD MLOAD DUP3 DUP2 MLOAD DUP2 LT PUSH3 0x2441 JUMPI PUSH3 0x2441 PUSH3 0x3B78 JUMP JUMPDEST PUSH1 0x20 MUL PUSH1 0x20 ADD ADD MLOAD PUSH1 0x20 ADD MLOAD DUP5 PUSH3 0x245A SWAP2 SWAP1 PUSH3 0x37EA JUMP JUMPDEST SWAP4 POP PUSH3 0x246B SWAP1 POP PUSH1 0x1 DUP3 PUSH3 0x37EA JUMP JUMPDEST SWAP1 POP PUSH3 0x23C1 JUMP JUMPDEST POP SWAP1 DUP2 MSTORE SWAP3 SWAP2 POP POP JUMP JUMPDEST PUSH3 0x2488 DUP3 PUSH3 0x11A1 JUMP JUMPDEST PUSH3 0x1501 DUP2 PUSH3 0x1B39 JUMP JUMPDEST PUSH1 0x0 PUSH1 0x2 PUSH1 0x9A SLOAD SUB PUSH3 0x24BA JUMPI PUSH1 0x40 MLOAD PUSH3 0x461BCD PUSH1 0xE5 SHL DUP2 MSTORE PUSH1 0x4 ADD PUSH3 0xC98 SWAP1 PUSH3 0x3870 JUMP JUMPDEST PUSH1 0x2 PUSH1 0x9A SSTORE PUSH1 0xEA SLOAD PUSH1 0xFF AND ISZERO PUSH3 0x24E5 JUMPI PUSH1 0x40 MLOAD PUSH3 0x461BCD PUSH1 0xE5 SHL DUP2 MSTORE PUSH1 0x4 ADD PUSH3 0xC98 SWAP1 PUSH3 0x3989 JUMP JUMPDEST PUSH1 0xEA SLOAD PUSH2 0x100 SWAP1 DIV PUSH1 0xFF AND ISZERO PUSH3 0x2510 JUMPI PUSH1 0x40 MLOAD PUSH3 0x461BCD PUSH1 0xE5 SHL DUP2 MSTORE PUSH1 0x4 ADD PUSH3 0xC98 SWAP1 PUSH3 0x39B9 JUMP JUMPDEST PUSH1 0x0 PUSH3 0x251E DUP5 DUP5 PUSH3 0x2F2E JUMP JUMPDEST SWAP1 POP PUSH8 0xDE0B6B3A7640000 PUSH3 0x253D DUP3 PUSH8 0xDBD2FC137A30000 PUSH3 0x3916 JUMP JUMPDEST PUSH3 0x2549 SWAP2 SWAP1 PUSH3 0x3938 JUMP JUMPDEST SWAP1 POP PUSH3 0x18CE ADDRESS CALLER DUP4 PUSH3 0x271E JUMP JUMPDEST PUSH1 0xD5 SLOAD PUSH1 0x1 PUSH1 0x1 PUSH1 0xA0 SHL SUB AND CALLER EQ PUSH3 0x2570 JUMPI PUSH1 0x0 DUP1 REVERT JUMPDEST PUSH1 0xE4 SSTORE JUMP JUMPDEST PUSH1 0x1 PUSH1 0x1 PUSH1 0xA0 SHL SUB DUP4 AND PUSH3 0x25D9 JUMPI PUSH1 0x40 MLOAD PUSH3 0x461BCD PUSH1 0xE5 SHL DUP2 MSTORE PUSH1 0x20 PUSH1 0x4 DUP3 ADD MSTORE PUSH1 0x24 DUP1 DUP3 ADD MSTORE PUSH32 0x45524332303A20617070726F76652066726F6D20746865207A65726F20616464 PUSH1 0x44 DUP3 ADD MSTORE PUSH4 0x72657373 PUSH1 0xE0 SHL PUSH1 0x64 DUP3 ADD MSTORE PUSH1 0x84 ADD PUSH3 0xC98 JUMP JUMPDEST PUSH1 0x1 PUSH1 0x1 PUSH1 0xA0 SHL SUB DUP3 AND PUSH3 0x263C JUMPI PUSH1 0x40 MLOAD PUSH3 0x461BCD PUSH1 0xE5 SHL DUP2 MSTORE PUSH1 0x20 PUSH1 0x4 DUP3 ADD MSTORE PUSH1 0x22 PUSH1 0x24 DUP3 ADD MSTORE PUSH32 0x45524332303A20617070726F766520746F20746865207A65726F206164647265 PUSH1 0x44 DUP3 ADD MSTORE PUSH2 0x7373 PUSH1 0xF0 SHL PUSH1 0x64 DUP3 ADD MSTORE PUSH1 0x84 ADD PUSH3 0xC98 JUMP JUMPDEST PUSH1 0x1 PUSH1 0x1 PUSH1 0xA0 SHL SUB DUP4 DUP2 AND PUSH1 0x0 DUP2 DUP2 MSTORE PUSH1 0x34 PUSH1 0x20 SWAP1 DUP2 MSTORE PUSH1 0x40 DUP1 DUP4 KECCAK256 SWAP5 DUP8 AND DUP1 DUP5 MSTORE SWAP5 DUP3 MSTORE SWAP2 DUP3 SWAP1 KECCAK256 DUP6 SWAP1 SSTORE SWAP1 MLOAD DUP5 DUP2 MSTORE PUSH32 0x8C5BE1E5EBEC7D5BD14F71427D1E84F3DD0314C0F7B2291E5B200AC8C7C3B925 SWAP2 ADD PUSH1 0x40 MLOAD DUP1 SWAP2 SUB SWAP1 LOG3 POP POP POP JUMP JUMPDEST PUSH1 0x0 PUSH3 0x26AB DUP5 DUP5 PUSH3 0x2150 JUMP JUMPDEST SWAP1 POP PUSH1 0x0 NOT DUP2 EQ PUSH3 0x2718 JUMPI DUP2 DUP2 LT ISZERO PUSH3 0x2709 JUMPI PUSH1 0x40 MLOAD PUSH3 0x461BCD PUSH1 0xE5 SHL DUP2 MSTORE PUSH1 0x20 PUSH1 0x4 DUP3 ADD MSTORE PUSH1 0x1D PUSH1 0x24 DUP3 ADD MSTORE PUSH32 0x45524332303A20696E73756666696369656E7420616C6C6F77616E6365000000 PUSH1 0x44 DUP3 ADD MSTORE PUSH1 0x64 ADD PUSH3 0xC98 JUMP JUMPDEST PUSH3 0x2718 DUP5 DUP5 DUP5 DUP5 SUB PUSH3 0x2575 JUMP JUMPDEST POP POP POP POP JUMP JUMPDEST PUSH1 0x1 PUSH1 0x1 PUSH1 0xA0 SHL SUB DUP4 AND PUSH3 0x2784 JUMPI PUSH1 0x40 MLOAD PUSH3 0x461BCD PUSH1 0xE5 SHL DUP2 MSTORE PUSH1 0x20 PUSH1 0x4 DUP3 ADD MSTORE PUSH1 0x25 PUSH1 0x24 DUP3 ADD MSTORE PUSH32 0x45524332303A207472616E736665722066726F6D20746865207A65726F206164 PUSH1 0x44 DUP3 ADD MSTORE PUSH5 0x6472657373 PUSH1 0xD8 SHL PUSH1 0x64 DUP3 ADD MSTORE PUSH1 0x84 ADD PUSH3 0xC98 JUMP JUMPDEST PUSH1 0x1 PUSH1 0x1 PUSH1 0xA0 SHL SUB DUP3 AND PUSH3 0x27E8 JUMPI PUSH1 0x40 MLOAD PUSH3 0x461BCD PUSH1 0xE5 SHL DUP2 MSTORE PUSH1 0x20 PUSH1 0x4 DUP3 ADD MSTORE PUSH1 0x23 PUSH1 0x24 DUP3 ADD MSTORE PUSH32 0x45524332303A207472616E7366657220746F20746865207A65726F2061646472 PUSH1 0x44 DUP3 ADD MSTORE PUSH3 0x657373 PUSH1 0xE8 SHL PUSH1 0x64 DUP3 ADD MSTORE PUSH1 0x84 ADD PUSH3 0xC98 JUMP JUMPDEST PUSH1 0x1 PUSH1 0x1 PUSH1 0xA0 SHL SUB DUP4 AND PUSH1 0x0 SWAP1 DUP2 MSTORE PUSH1 0x33 PUSH1 0x20 MSTORE PUSH1 0x40 SWAP1 KECCAK256 SLOAD DUP2 DUP2 LT ISZERO PUSH3 0x2862 JUMPI PUSH1 0x40 MLOAD PUSH3 0x461BCD PUSH1 0xE5 SHL DUP2 MSTORE PUSH1 0x20 PUSH1 0x4 DUP3 ADD MSTORE PUSH1 0x26 PUSH1 0x24 DUP3 ADD MSTORE PUSH32 0x45524332303A207472616E7366657220616D6F756E7420657863656564732062 PUSH1 0x44 DUP3 ADD MSTORE PUSH6 0x616C616E6365 PUSH1 0xD0 SHL PUSH1 0x64 DUP3 ADD MSTORE PUSH1 0x84 ADD PUSH3 0xC98 JUMP JUMPDEST PUSH1 0x1 PUSH1 0x1 PUSH1 0xA0 SHL SUB DUP1 DUP6 AND PUSH1 0x0 SWAP1 DUP2 MSTORE PUSH1 0x33 PUSH1 0x20 MSTORE PUSH1 0x40 DUP1 DUP3 KECCAK256 DUP6 DUP6 SUB SWAP1 SSTORE SWAP2 DUP6 AND DUP2 MSTORE SWAP1 DUP2 KECCAK256 DUP1 SLOAD DUP5 SWAP3 SWAP1 PUSH3 0x289B SWAP1 DUP5 SWAP1 PUSH3 0x37EA JUMP JUMPDEST SWAP3 POP POP DUP2 SWAP1 SSTORE POP DUP3 PUSH1 0x1 PUSH1 0x1 PUSH1 0xA0 SHL SUB AND DUP5 PUSH1 0x1 PUSH1 0x1 PUSH1 0xA0 SHL SUB AND PUSH1 0x0 DUP1 MLOAD PUSH1 0x20 PUSH3 0x569F DUP4 CODECOPY DUP2 MLOAD SWAP2 MSTORE DUP5 PUSH1 0x40 MLOAD PUSH3 0x28D7 SWAP2 DUP2 MSTORE PUSH1 0x20 ADD SWAP1 JUMP JUMPDEST PUSH1 0x40 MLOAD DUP1 SWAP2 SUB SWAP1 LOG3 PUSH3 0x2718 JUMP JUMPDEST PUSH1 0x1 PUSH1 0x1 PUSH1 0xA0 SHL SUB DUP3 AND PUSH3 0x2947 JUMPI PUSH1 0x40 MLOAD PUSH3 0x461BCD PUSH1 0xE5 SHL DUP2 MSTORE PUSH1 0x20 PUSH1 0x4 DUP3 ADD MSTORE PUSH1 0x21 PUSH1 0x24 DUP3 ADD MSTORE PUSH32 0x45524332303A206275726E2066726F6D20746865207A65726F20616464726573 PUSH1 0x44 DUP3 ADD MSTORE PUSH1 0x73 PUSH1 0xF8 SHL PUSH1 0x64 DUP3 ADD MSTORE PUSH1 0x84 ADD PUSH3 0xC98 JUMP JUMPDEST PUSH1 0x1 PUSH1 0x1 PUSH1 0xA0 SHL SUB DUP3 AND PUSH1 0x0 SWAP1 DUP2 MSTORE PUSH1 0x33 PUSH1 0x20 MSTORE PUSH1 0x40 SWAP1 KECCAK256 SLOAD DUP2 DUP2 LT ISZERO PUSH3 0x29BD JUMPI PUSH1 0x40 MLOAD PUSH3 0x461BCD PUSH1 0xE5 SHL DUP2 MSTORE PUSH1 0x20 PUSH1 0x4 DUP3 ADD MSTORE PUSH1 0x22 PUSH1 0x24 DUP3 ADD MSTORE PUSH32 0x45524332303A206275726E20616D6F756E7420657863656564732062616C616E PUSH1 0x44 DUP3 ADD MSTORE PUSH2 0x6365 PUSH1 0xF0 SHL PUSH1 0x64 DUP3 ADD MSTORE PUSH1 0x84 ADD PUSH3 0xC98 JUMP JUMPDEST PUSH1 0x1 PUSH1 0x1 PUSH1 0xA0 SHL SUB DUP4 AND PUSH1 0x0 SWAP1 DUP2 MSTORE PUSH1 0x33 PUSH1 0x20 MSTORE PUSH1 0x40 DUP2 KECCAK256 DUP4 DUP4 SUB SWAP1 SSTORE PUSH1 0x35 DUP1 SLOAD DUP5 SWAP3 SWAP1 PUSH3 0x29EE SWAP1 DUP5 SWAP1 PUSH3 0x3856 JUMP JUMPDEST SWAP1 SWAP2 SSTORE POP POP PUSH1 0x40 MLOAD DUP3 DUP2 MSTORE PUSH1 0x0 SWAP1 PUSH1 0x1 PUSH1 0x1 PUSH1 0xA0 SHL SUB DUP6 AND SWAP1 PUSH1 0x0 DUP1 MLOAD PUSH1 0x20 PUSH3 0x569F DUP4 CODECOPY DUP2 MLOAD SWAP2 MSTORE SWAP1 PUSH1 0x20 ADD PUSH1 0x40 MLOAD DUP1 SWAP2 SUB SWAP1 LOG3 POP POP POP JUMP JUMPDEST PUSH1 0x0 PUSH3 0x2A38 PUSH3 0x43C PUSH3 0xC2C JUMP JUMPDEST POP SWAP1 JUMP JUMPDEST PUSH1 0x0 DUP2 GT PUSH3 0x2A85 JUMPI PUSH1 0x40 MLOAD PUSH3 0x461BCD PUSH1 0xE5 SHL DUP2 MSTORE PUSH1 0x20 PUSH1 0x4 DUP3 ADD MSTORE PUSH1 0x14 PUSH1 0x24 DUP3 ADD MSTORE PUSH20 0x43616E6E6F74207374616B65206E6F7468696E67 PUSH1 0x60 SHL PUSH1 0x44 DUP3 ADD MSTORE PUSH1 0x64 ADD PUSH3 0xC98 JUMP JUMPDEST CALLER PUSH1 0x0 SWAP1 DUP2 MSTORE PUSH1 0x98 PUSH1 0x20 MSTORE PUSH1 0x40 DUP2 KECCAK256 SLOAD SWAP1 TIMESTAMP SWAP1 DUP3 SWAP1 SUB PUSH3 0x2AAE JUMPI PUSH3 0x2AAB CALLER PUSH3 0x3192 JUMP JUMPDEST SWAP2 POP JUMPDEST PUSH1 0x97 DUP3 DUP2 SLOAD DUP2 LT PUSH3 0x2AC4 JUMPI PUSH3 0x2AC4 PUSH3 0x3B78 JUMP JUMPDEST PUSH1 0x0 SWAP2 DUP3 MSTORE PUSH1 0x20 DUP1 DUP4 KECCAK256 PUSH1 0x40 DUP1 MLOAD PUSH1 0x80 DUP2 ADD DUP3 MSTORE CALLER DUP1 DUP3 MSTORE DUP2 DUP6 ADD DUP11 DUP2 MSTORE DUP3 DUP5 ADD DUP10 DUP2 MSTORE PUSH1 0x60 DUP1 DUP6 ADD DUP11 DUP2 MSTORE PUSH1 0x2 SWAP10 DUP11 MUL SWAP1 SWAP8 ADD PUSH1 0x1 SWAP1 DUP2 ADD DUP1 SLOAD DUP1 DUP4 ADD DUP3 SSTORE SWAP1 DUP13 MSTORE SWAP11 DUP10 SWAP1 KECCAK256 SWAP6 MLOAD PUSH1 0x4 SWAP1 SWAP12 MUL SWAP1 SWAP6 ADD DUP1 SLOAD PUSH1 0x1 PUSH1 0x1 PUSH1 0xA0 SHL SUB NOT AND PUSH1 0x1 PUSH1 0x1 PUSH1 0xA0 SHL SUB SWAP1 SWAP12 AND SWAP11 SWAP1 SWAP11 OR DUP11 SSTORE SWAP2 MLOAD SWAP4 DUP10 ADD SWAP4 SWAP1 SWAP4 SSTORE SWAP2 MLOAD SWAP6 DUP8 ADD SWAP6 SWAP1 SWAP6 SSTORE SWAP2 MLOAD PUSH1 0x3 SWAP1 SWAP6 ADD SWAP5 SWAP1 SWAP5 SSTORE DUP4 MLOAD DUP8 DUP2 MSTORE SWAP2 DUP3 ADD DUP7 SWAP1 MSTORE SWAP3 DUP2 ADD DUP5 SWAP1 MSTORE SWAP1 SWAP2 PUSH32 0xB4CAAF29ADDA3EEFEE3AD552A8E85058589BF834C7466CAE4EE58787F70589ED SWAP2 ADD PUSH1 0x40 MLOAD DUP1 SWAP2 SUB SWAP1 LOG2 POP POP POP JUMP JUMPDEST PUSH1 0x0 DUP1 MLOAD PUSH1 0x20 PUSH3 0x56BF DUP4 CODECOPY DUP2 MLOAD SWAP2 MSTORE PUSH1 0x40 MLOAD PUSH3 0x2BF4 SWAP1 PUSH1 0x20 DUP1 DUP3 MSTORE PUSH1 0x2A SWAP1 DUP3 ADD MSTORE PUSH32 0x436F696E206861732063616C6C656420666F7220696E7465726E616C20726567 PUSH1 0x40 DUP3 ADD MSTORE PUSH10 0x34B9BA3930BA34B7B717 PUSH1 0xB1 SHL PUSH1 0x60 DUP3 ADD MSTORE PUSH1 0x80 ADD SWAP1 JUMP JUMPDEST PUSH1 0x40 MLOAD DUP1 SWAP2 SUB SWAP1 LOG1 PUSH1 0xDA DUP4 PUSH1 0x40 MLOAD PUSH3 0x2C0E SWAP2 SWAP1 PUSH3 0x3805 JUMP JUMPDEST SWAP1 DUP2 MSTORE PUSH1 0x40 MLOAD SWAP1 DUP2 SWAP1 SUB PUSH1 0x20 ADD SWAP1 KECCAK256 SLOAD PUSH1 0x1 PUSH1 0x1 PUSH1 0xA0 SHL SUB AND PUSH1 0x0 SUB PUSH3 0x2D46 JUMPI PUSH1 0xDC DUP4 PUSH1 0x40 MLOAD PUSH3 0x2C41 SWAP2 SWAP1 PUSH3 0x3805 JUMP JUMPDEST MSTORE PUSH1 0x40 MLOAD DUP3 SWAP1 PUSH1 0xDA SWAP1 PUSH3 0x2C57 SWAP1 DUP7 SWAP1 PUSH3 0x3805 JUMP JUMPDEST SWAP1 DUP2 MSTORE PUSH1 0x20 ADD PUSH1 0x40 MLOAD DUP1 SWAP2 SUB SWAP1 KECCAK256 PUSH1 0x0 PUSH2 0x100 EXP DUP2 SLOAD DUP2 PUSH1 0x1 PUSH1 0x1 PUSH1 0xA0 SHL SUB MUL NOT AND SWAP1 DUP4 PUSH1 0x1 PUSH1 0x1 PUSH1 0xA0 SHL SUB AND MUL OR SWAP1 SSTORE POP CALLER PUSH1 0xDE DUP5 PUSH1 0x40 MLOAD PUSH3 0x2C9C SWAP2 SWAP1 PUSH3 0x3805 JUMP JUMPDEST SWAP1 DUP2 MSTORE PUSH1 0x20 ADD PUSH1 0x40 MLOAD DUP1 SWAP2 SUB SWAP1 KECCAK256 PUSH1 0x0 PUSH2 0x100 EXP DUP2 SLOAD DUP2 PUSH1 0x1 PUSH1 0x1 PUSH1 0xA0 SHL SUB MUL NOT AND SWAP1 DUP4 PUSH1 0x1 PUSH1 0x1 PUSH1 0xA0 SHL SUB AND MUL OR SWAP1 SSTORE POP PUSH1 0x1 PUSH1 0xDB DUP5 PUSH1 0x40 MLOAD PUSH3 0x2CE2 SWAP2 SWAP1 PUSH3 0x3805 JUMP JUMPDEST SWAP1 DUP2 MSTORE PUSH1 0x40 MLOAD SWAP1 DUP2 SWAP1 SUB PUSH1 0x20 ADD DUP2 KECCAK256 DUP1 SLOAD SWAP3 ISZERO ISZERO PUSH1 0xFF NOT SWAP1 SWAP4 AND SWAP3 SWAP1 SWAP3 OR SWAP1 SWAP2 SSTORE PUSH32 0x681527AF24EFDB94FD8BA1EE38E6D7D4E2D64446E9B34E8AE1A9C649B4498269 SWAP1 PUSH3 0x2D39 SWAP1 DUP6 SWAP1 DUP6 SWAP1 DUP6 SWAP1 PUSH1 0x1 SWAP1 PUSH3 0x3B8E JUMP JUMPDEST PUSH1 0x40 MLOAD DUP1 SWAP2 SUB SWAP1 LOG1 POP POP POP JUMP JUMPDEST PUSH32 0x681527AF24EFDB94FD8BA1EE38E6D7D4E2D64446E9B34E8AE1A9C649B4498269 DUP4 DUP4 DUP4 PUSH1 0x0 PUSH1 0x40 MLOAD PUSH3 0x2D39 SWAP5 SWAP4 SWAP3 SWAP2 SWAP1 PUSH3 0x3B8E JUMP JUMPDEST PUSH1 0x0 SLOAD PUSH2 0x100 SWAP1 DIV PUSH1 0xFF AND PUSH3 0x2DA8 JUMPI PUSH1 0x40 MLOAD PUSH3 0x461BCD PUSH1 0xE5 SHL DUP2 MSTORE PUSH1 0x4 ADD PUSH3 0xC98 SWAP1 PUSH3 0x3BCA JUMP JUMPDEST PUSH3 0x1501 DUP3 DUP3 PUSH3 0x320D JUMP JUMPDEST PUSH1 0x0 SLOAD PUSH2 0x100 SWAP1 DIV PUSH1 0xFF AND PUSH3 0x11BE JUMPI PUSH1 0x40 MLOAD PUSH3 0x461BCD PUSH1 0xE5 SHL DUP2 MSTORE PUSH1 0x4 ADD PUSH3 0xC98 SWAP1 PUSH3 0x3BCA JUMP JUMPDEST PUSH1 0x0 SLOAD PUSH2 0x100 SWAP1 DIV PUSH1 0xFF AND PUSH3 0x2E08 JUMPI PUSH1 0x40 MLOAD PUSH3 0x461BCD PUSH1 0xE5 SHL DUP2 MSTORE PUSH1 0x4 ADD PUSH3 0xC98 SWAP1 PUSH3 0x3BCA JUMP JUMPDEST PUSH3 0x11BE PUSH3 0x3262 JUMP JUMPDEST PUSH1 0x1 PUSH1 0x1 PUSH1 0xA0 SHL SUB DUP3 AND PUSH3 0x2E6A JUMPI PUSH1 0x40 MLOAD PUSH3 0x461BCD PUSH1 0xE5 SHL DUP2 MSTORE PUSH1 0x20 PUSH1 0x4 DUP3 ADD MSTORE PUSH1 0x1F PUSH1 0x24 DUP3 ADD MSTORE PUSH32 0x45524332303A206D696E7420746F20746865207A65726F206164647265737300 PUSH1 0x44 DUP3 ADD MSTORE PUSH1 0x64 ADD PUSH3 0xC98 JUMP JUMPDEST DUP1 PUSH1 0x35 PUSH1 0x0 DUP3 DUP3 SLOAD PUSH3 0x2E7E SWAP2 SWAP1 PUSH3 0x37EA JUMP JUMPDEST SWAP1 SWAP2 SSTORE POP POP PUSH1 0x1 PUSH1 0x1 PUSH1 0xA0 SHL SUB DUP3 AND PUSH1 0x0 SWAP1 DUP2 MSTORE PUSH1 0x33 PUSH1 0x20 MSTORE PUSH1 0x40 DUP2 KECCAK256 DUP1 SLOAD DUP4 SWAP3 SWAP1 PUSH3 0x2EAD SWAP1 DUP5 SWAP1 PUSH3 0x37EA JUMP JUMPDEST SWAP1 SWAP2 SSTORE POP POP PUSH1 0x40 MLOAD DUP2 DUP2 MSTORE PUSH1 0x1 PUSH1 0x1 PUSH1 0xA0 SHL SUB DUP4 AND SWAP1 PUSH1 0x0 SWAP1 PUSH1 0x0 DUP1 MLOAD PUSH1 0x20 PUSH3 0x569F DUP4 CODECOPY DUP2 MLOAD SWAP2 MSTORE SWAP1 PUSH1 0x20 ADD PUSH1 0x40 MLOAD DUP1 SWAP2 SUB SWAP1 LOG3 POP POP JUMP JUMPDEST PUSH1 0x0 PUSH1 0x99 SLOAD PUSH2 0xE10 PUSH3 0x2EFA SWAP2 SWAP1 PUSH3 0x3916 JUMP JUMPDEST PUSH1 0x20 DUP4 ADD MLOAD PUSH1 0x40 DUP5 ADD MLOAD PUSH3 0x2F10 SWAP1 TIMESTAMP PUSH3 0x3856 JUMP JUMPDEST PUSH3 0x2F1C SWAP2 SWAP1 PUSH3 0x3916 JUMP JUMPDEST PUSH3 0x2F28 SWAP2 SWAP1 PUSH3 0x3938 JUMP JUMPDEST SWAP3 SWAP2 POP POP JUMP JUMPDEST CALLER PUSH1 0x0 SWAP1 DUP2 MSTORE PUSH1 0x98 PUSH1 0x20 MSTORE PUSH1 0x40 DUP2 KECCAK256 SLOAD PUSH1 0x97 DUP1 SLOAD DUP4 SWAP2 SWAP1 DUP4 SWAP1 DUP2 LT PUSH3 0x2F58 JUMPI PUSH3 0x2F58 PUSH3 0x3B78 JUMP JUMPDEST SWAP1 PUSH1 0x0 MSTORE PUSH1 0x20 PUSH1 0x0 KECCAK256 SWAP1 PUSH1 0x2 MUL ADD PUSH1 0x1 ADD DUP5 DUP2 SLOAD DUP2 LT PUSH3 0x2F7D JUMPI PUSH3 0x2F7D PUSH3 0x3B78 JUMP JUMPDEST PUSH1 0x0 SWAP2 DUP3 MSTORE PUSH1 0x20 SWAP2 DUP3 SWAP1 KECCAK256 PUSH1 0x40 DUP1 MLOAD PUSH1 0x80 DUP2 ADD DUP3 MSTORE PUSH1 0x4 SWAP1 SWAP4 MUL SWAP1 SWAP2 ADD DUP1 SLOAD PUSH1 0x1 PUSH1 0x1 PUSH1 0xA0 SHL SUB AND DUP4 MSTORE PUSH1 0x1 DUP2 ADD SLOAD SWAP4 DUP4 ADD DUP5 SWAP1 MSTORE PUSH1 0x2 DUP2 ADD SLOAD SWAP2 DUP4 ADD SWAP2 SWAP1 SWAP2 MSTORE PUSH1 0x3 ADD SLOAD PUSH1 0x60 DUP3 ADD MSTORE SWAP2 POP DUP6 GT ISZERO PUSH3 0x3035 JUMPI PUSH1 0x40 MLOAD PUSH3 0x461BCD PUSH1 0xE5 SHL DUP2 MSTORE PUSH1 0x20 PUSH1 0x4 DUP3 ADD MSTORE PUSH1 0x32 PUSH1 0x24 DUP3 ADD MSTORE PUSH32 0x5374616B696E673A2043616E6E6F74207769746864726177206D6F7265207468 PUSH1 0x44 DUP3 ADD MSTORE PUSH18 0x185B881E5BDD481A185D99481CDD185AD959 PUSH1 0x72 SHL PUSH1 0x64 DUP3 ADD MSTORE PUSH1 0x84 ADD PUSH3 0xC98 JUMP JUMPDEST PUSH1 0x0 PUSH3 0x3042 DUP3 PUSH3 0x2EE6 JUMP JUMPDEST SWAP1 POP DUP6 DUP3 PUSH1 0x20 ADD MLOAD PUSH3 0x3056 SWAP2 SWAP1 PUSH3 0x3856 JUMP JUMPDEST PUSH1 0x20 DUP4 ADD DUP2 SWAP1 MSTORE PUSH1 0x0 SUB PUSH3 0x30D5 JUMPI PUSH1 0x97 DUP4 DUP2 SLOAD DUP2 LT PUSH3 0x307B JUMPI PUSH3 0x307B PUSH3 0x3B78 JUMP JUMPDEST SWAP1 PUSH1 0x0 MSTORE PUSH1 0x20 PUSH1 0x0 KECCAK256 SWAP1 PUSH1 0x2 MUL ADD PUSH1 0x1 ADD DUP6 DUP2 SLOAD DUP2 LT PUSH3 0x30A0 JUMPI PUSH3 0x30A0 PUSH3 0x3B78 JUMP JUMPDEST PUSH1 0x0 SWAP2 DUP3 MSTORE PUSH1 0x20 DUP3 KECCAK256 PUSH1 0x4 SWAP1 SWAP2 MUL ADD DUP1 SLOAD PUSH1 0x1 PUSH1 0x1 PUSH1 0xA0 SHL SUB NOT AND DUP2 SSTORE PUSH1 0x1 DUP2 ADD DUP3 SWAP1 SSTORE PUSH1 0x2 DUP2 ADD DUP3 SWAP1 SSTORE PUSH1 0x3 ADD SSTORE PUSH3 0x317C JUMP JUMPDEST DUP2 PUSH1 0x20 ADD MLOAD PUSH1 0x97 DUP5 DUP2 SLOAD DUP2 LT PUSH3 0x30F0 JUMPI PUSH3 0x30F0 PUSH3 0x3B78 JUMP JUMPDEST SWAP1 PUSH1 0x0 MSTORE PUSH1 0x20 PUSH1 0x0 KECCAK256 SWAP1 PUSH1 0x2 MUL ADD PUSH1 0x1 ADD DUP7 DUP2 SLOAD DUP2 LT PUSH3 0x3115 JUMPI PUSH3 0x3115 PUSH3 0x3B78 JUMP JUMPDEST SWAP1 PUSH1 0x0 MSTORE PUSH1 0x20 PUSH1 0x0 KECCAK256 SWAP1 PUSH1 0x4 MUL ADD PUSH1 0x1 ADD DUP2 SWAP1 SSTORE POP TIMESTAMP PUSH1 0x97 DUP5 DUP2 SLOAD DUP2 LT PUSH3 0x3141 JUMPI PUSH3 0x3141 PUSH3 0x3B78 JUMP JUMPDEST SWAP1 PUSH1 0x0 MSTORE PUSH1 0x20 PUSH1 0x0 KECCAK256 SWAP1 PUSH1 0x2 MUL ADD PUSH1 0x1 ADD DUP7 DUP2 SLOAD DUP2 LT PUSH3 0x3166 JUMPI PUSH3 0x3166 PUSH3 0x3B78 JUMP JUMPDEST SWAP1 PUSH1 0x0 MSTORE PUSH1 0x20 PUSH1 0x0 KECCAK256 SWAP1 PUSH1 0x4 MUL ADD PUSH1 0x2 ADD DUP2 SWAP1 SSTORE POP JUMPDEST PUSH3 0x3188 DUP2 DUP8 PUSH3 0x37EA JUMP JUMPDEST SWAP7 SWAP6 POP POP POP POP POP POP JUMP JUMPDEST PUSH1 0x97 DUP1 SLOAD PUSH1 0x1 SWAP1 DUP2 ADD DUP1 DUP4 SSTORE PUSH1 0x0 SWAP3 DUP4 MSTORE DUP3 SWAP2 PUSH3 0x31B0 SWAP2 PUSH3 0x3856 JUMP JUMPDEST SWAP1 POP DUP3 PUSH1 0x97 DUP3 DUP2 SLOAD DUP2 LT PUSH3 0x31C9 JUMPI PUSH3 0x31C9 PUSH3 0x3B78 JUMP JUMPDEST PUSH1 0x0 SWAP2 DUP3 MSTORE PUSH1 0x20 DUP1 DUP4 KECCAK256 PUSH1 0x2 SWAP3 SWAP1 SWAP3 MUL SWAP1 SWAP2 ADD DUP1 SLOAD PUSH1 0x1 PUSH1 0x1 PUSH1 0xA0 SHL SUB NOT AND PUSH1 0x1 PUSH1 0x1 PUSH1 0xA0 SHL SUB SWAP5 DUP6 AND OR SWAP1 SSTORE SWAP5 SWAP1 SWAP2 AND DUP2 MSTORE PUSH1 0x98 SWAP1 SWAP4 MSTORE PUSH1 0x40 SWAP1 SWAP3 KECCAK256 DUP3 SWAP1 SSTORE POP SWAP1 JUMP JUMPDEST PUSH1 0x0 SLOAD PUSH2 0x100 SWAP1 DIV PUSH1 0xFF AND PUSH3 0x3237 JUMPI PUSH1 0x40 MLOAD PUSH3 0x461BCD PUSH1 0xE5 SHL DUP2 MSTORE PUSH1 0x4 ADD PUSH3 0xC98 SWAP1 PUSH3 0x3BCA JUMP JUMPDEST DUP2 MLOAD PUSH3 0x324C SWAP1 PUSH1 0x36 SWAP1 PUSH1 0x20 DUP6 ADD SWAP1 PUSH3 0x32A1 JUMP JUMPDEST POP DUP1 MLOAD PUSH3 0x214B SWAP1 PUSH1 0x37 SWAP1 PUSH1 0x20 DUP5 ADD SWAP1 PUSH3 0x32A1 JUMP JUMPDEST PUSH1 0x0 SLOAD PUSH2 0x100 SWAP1 DIV PUSH1 0xFF AND PUSH3 0x328C JUMPI PUSH1 0x40 MLOAD PUSH3 0x461BCD PUSH1 0xE5 SHL DUP2 MSTORE PUSH1 0x4 ADD PUSH3 0xC98 SWAP1 PUSH3 0x3BCA JUMP JUMPDEST PUSH1 0x1 PUSH1 0x9A SSTORE JUMP JUMPDEST PUSH2 0x1A89 DUP1 PUSH3 0x3C16 DUP4 CODECOPY ADD SWAP1 JUMP JUMPDEST DUP3 DUP1 SLOAD PUSH3 0x32AF SWAP1 PUSH3 0x3798 JUMP JUMPDEST SWAP1 PUSH1 0x0 MSTORE PUSH1 0x20 PUSH1 0x0 KECCAK256 SWAP1 PUSH1 0x1F ADD PUSH1 0x20 SWAP1 DIV DUP2 ADD SWAP3 DUP3 PUSH3 0x32D3 JUMPI PUSH1 0x0 DUP6 SSTORE PUSH3 0x331E JUMP JUMPDEST DUP3 PUSH1 0x1F LT PUSH3 0x32EE JUMPI DUP1 MLOAD PUSH1 0xFF NOT AND DUP4 DUP1 ADD OR DUP6 SSTORE PUSH3 0x331E JUMP JUMPDEST DUP3 DUP1 ADD PUSH1 0x1 ADD DUP6 SSTORE DUP3 ISZERO PUSH3 0x331E JUMPI SWAP2 DUP3 ADD JUMPDEST DUP3 DUP2 GT ISZERO PUSH3 0x331E JUMPI DUP3 MLOAD DUP3 SSTORE SWAP2 PUSH1 0x20 ADD SWAP2 SWAP1 PUSH1 0x1 ADD SWAP1 PUSH3 0x3301 JUMP JUMPDEST POP PUSH3 0x2A38 SWAP3 SWAP2 POP JUMPDEST DUP1 DUP3 GT ISZERO PUSH3 0x2A38 JUMPI PUSH1 0x0 DUP2 SSTORE PUSH1 0x1 ADD PUSH3 0x3327 JUMP JUMPDEST PUSH1 0x0 JUMPDEST DUP4 DUP2 LT ISZERO PUSH3 0x335A JUMPI DUP2 DUP2 ADD MLOAD DUP4 DUP3 ADD MSTORE PUSH1 0x20 ADD PUSH3 0x3340 JUMP JUMPDEST DUP4 DUP2 GT ISZERO PUSH3 0x2718 JUMPI POP POP PUSH1 0x0 SWAP2 ADD MSTORE JUMP JUMPDEST PUSH1 0x0 DUP2 MLOAD DUP1 DUP5 MSTORE PUSH3 0x3386 DUP2 PUSH1 0x20 DUP7 ADD PUSH1 0x20 DUP7 ADD PUSH3 0x333D JUMP JUMPDEST PUSH1 0x1F ADD PUSH1 0x1F NOT AND SWAP3 SWAP1 SWAP3 ADD PUSH1 0x20 ADD SWAP3 SWAP2 POP POP JUMP JUMPDEST PUSH1 0x20 DUP2 MSTORE PUSH1 0x0 PUSH3 0x33AF PUSH1 0x20 DUP4 ADD DUP5 PUSH3 0x336C JUMP JUMPDEST SWAP4 SWAP3 POP POP POP JUMP JUMPDEST DUP1 CALLDATALOAD PUSH1 0x1 PUSH1 0x1 PUSH1 0xA0 SHL SUB DUP2 AND DUP2 EQ PUSH3 0x33CE JUMPI PUSH1 0x0 DUP1 REVERT JUMPDEST SWAP2 SWAP1 POP JUMP JUMPDEST PUSH1 0x0 DUP1 PUSH1 0x40 DUP4 DUP6 SUB SLT ISZERO PUSH3 0x33E7 JUMPI PUSH1 0x0 DUP1 REVERT JUMPDEST PUSH3 0x33F2 DUP4 PUSH3 0x33B6 JUMP JUMPDEST SWAP5 PUSH1 0x20 SWAP4 SWAP1 SWAP4 ADD CALLDATALOAD SWAP4 POP POP POP JUMP JUMPDEST PUSH1 0x1 PUSH1 0x1 PUSH1 0xA0 SHL SUB SWAP2 SWAP1 SWAP2 AND DUP2 MSTORE PUSH1 0x20 ADD SWAP1 JUMP JUMPDEST PUSH1 0x0 PUSH1 0x20 DUP3 DUP5 SUB SLT ISZERO PUSH3 0x3427 JUMPI PUSH1 0x0 DUP1 REVERT JUMPDEST PUSH3 0x33AF DUP3 PUSH3 0x33B6 JUMP JUMPDEST PUSH4 0x4E487B71 PUSH1 0xE0 SHL PUSH1 0x0 MSTORE PUSH1 0x41 PUSH1 0x4 MSTORE PUSH1 0x24 PUSH1 0x0 REVERT JUMPDEST PUSH1 0x0 DUP3 PUSH1 0x1F DUP4 ADD SLT PUSH3 0x345A JUMPI PUSH1 0x0 DUP1 REVERT JUMPDEST DUP2 CALLDATALOAD PUSH8 0xFFFFFFFFFFFFFFFF DUP1 DUP3 GT ISZERO PUSH3 0x3478 JUMPI PUSH3 0x3478 PUSH3 0x3432 JUMP JUMPDEST PUSH1 0x40 MLOAD PUSH1 0x1F DUP4 ADD PUSH1 0x1F NOT SWAP1 DUP2 AND PUSH1 0x3F ADD AND DUP2 ADD SWAP1 DUP3 DUP3 GT DUP2 DUP4 LT OR ISZERO PUSH3 0x34A3 JUMPI PUSH3 0x34A3 PUSH3 0x3432 JUMP JUMPDEST DUP2 PUSH1 0x40 MSTORE DUP4 DUP2 MSTORE DUP7 PUSH1 0x20 DUP6 DUP9 ADD ADD GT ISZERO PUSH3 0x34BD JUMPI PUSH1 0x0 DUP1 REVERT JUMPDEST DUP4 PUSH1 0x20 DUP8 ADD PUSH1 0x20 DUP4 ADD CALLDATACOPY PUSH1 0x0 PUSH1 0x20 DUP6 DUP4 ADD ADD MSTORE DUP1 SWAP5 POP POP POP POP POP SWAP3 SWAP2 POP POP JUMP JUMPDEST PUSH1 0x0 PUSH1 0x20 DUP3 DUP5 SUB SLT ISZERO PUSH3 0x34F0 JUMPI PUSH1 0x0 DUP1 REVERT JUMPDEST DUP2 CALLDATALOAD PUSH8 0xFFFFFFFFFFFFFFFF DUP2 GT ISZERO PUSH3 0x3508 JUMPI PUSH1 0x0 DUP1 REVERT JUMPDEST PUSH3 0x3516 DUP5 DUP3 DUP6 ADD PUSH3 0x3448 JUMP JUMPDEST SWAP5 SWAP4 POP POP POP POP JUMP JUMPDEST PUSH1 0x0 DUP1 PUSH1 0x0 PUSH1 0x60 DUP5 DUP7 SUB SLT ISZERO PUSH3 0x3534 JUMPI PUSH1 0x0 DUP1 REVERT JUMPDEST PUSH3 0x353F DUP5 PUSH3 0x33B6 JUMP JUMPDEST SWAP3 POP PUSH3 0x354F PUSH1 0x20 DUP6 ADD PUSH3 0x33B6 JUMP JUMPDEST SWAP2 POP PUSH1 0x40 DUP5 ADD CALLDATALOAD SWAP1 POP SWAP3 POP SWAP3 POP SWAP3 JUMP JUMPDEST PUSH1 0x0 DUP1 PUSH1 0x40 DUP4 DUP6 SUB SLT ISZERO PUSH3 0x3573 JUMPI PUSH1 0x0 DUP1 REVERT JUMPDEST DUP3 CALLDATALOAD PUSH8 0xFFFFFFFFFFFFFFFF DUP1 DUP3 GT ISZERO PUSH3 0x358C JUMPI PUSH1 0x0 DUP1 REVERT JUMPDEST PUSH3 0x359A DUP7 DUP4 DUP8 ADD PUSH3 0x3448 JUMP JUMPDEST SWAP4 POP PUSH1 0x20 DUP6 ADD CALLDATALOAD SWAP2 POP DUP1 DUP3 GT ISZERO PUSH3 0x35B1 JUMPI PUSH1 0x0 DUP1 REVERT JUMPDEST POP PUSH3 0x35C0 DUP6 DUP3 DUP7 ADD PUSH3 0x3448 JUMP JUMPDEST SWAP2 POP POP SWAP3 POP SWAP3 SWAP1 POP JUMP JUMPDEST PUSH1 0x0 PUSH1 0x20 DUP3 DUP5 SUB SLT ISZERO PUSH3 0x35DD JUMPI PUSH1 0x0 DUP1 REVERT JUMPDEST POP CALLDATALOAD SWAP2 SWAP1 POP JUMP JUMPDEST DUP1 CALLDATALOAD DUP1 ISZERO ISZERO DUP2 EQ PUSH3 0x33CE JUMPI PUSH1 0x0 DUP1 REVERT JUMPDEST PUSH1 0x0 DUP1 PUSH1 0x40 DUP4 DUP6 SUB SLT ISZERO PUSH3 0x3609 JUMPI PUSH1 0x0 DUP1 REVERT JUMPDEST PUSH3 0x3614 DUP4 PUSH3 0x33B6 JUMP JUMPDEST SWAP2 POP PUSH3 0x3624 PUSH1 0x20 DUP5 ADD PUSH3 0x35E4 JUMP JUMPDEST SWAP1 POP SWAP3 POP SWAP3 SWAP1 POP JUMP JUMPDEST PUSH1 0x0 DUP1 PUSH1 0x0 DUP1 PUSH1 0x80 DUP6 DUP8 SUB SLT ISZERO PUSH3 0x3644 JUMPI PUSH1 0x0 DUP1 REVERT JUMPDEST DUP5 CALLDATALOAD PUSH8 0xFFFFFFFFFFFFFFFF DUP2 GT ISZERO PUSH3 0x365C JUMPI PUSH1 0x0 DUP1 REVERT JUMPDEST PUSH3 0x366A DUP8 DUP3 DUP9 ADD PUSH3 0x3448 JUMP JUMPDEST SWAP5 POP POP PUSH1 0x20 DUP6 ADD CALLDATALOAD SWAP3 POP PUSH3 0x3682 PUSH1 0x40 DUP7 ADD PUSH3 0x33B6 JUMP JUMPDEST SWAP2 POP PUSH3 0x3692 PUSH1 0x60 DUP7 ADD PUSH3 0x35E4 JUMP JUMPDEST SWAP1 POP SWAP3 SWAP6 SWAP2 SWAP5 POP SWAP3 POP JUMP JUMPDEST PUSH1 0x0 DUP1 PUSH1 0x40 DUP4 DUP6 SUB SLT ISZERO PUSH3 0x36B1 JUMPI PUSH1 0x0 DUP1 REVERT JUMPDEST DUP3 CALLDATALOAD SWAP2 POP PUSH3 0x3624 PUSH1 0x20 DUP5 ADD PUSH3 0x33B6 JUMP JUMPDEST PUSH1 0x0 DUP1 PUSH1 0x40 DUP4 DUP6 SUB SLT ISZERO PUSH3 0x36D7 JUMPI PUSH1 0x0 DUP1 REVERT JUMPDEST PUSH3 0x36E2 DUP4 PUSH3 0x33B6 JUMP JUMPDEST SWAP2 POP PUSH3 0x3624 PUSH1 0x20 DUP5 ADD PUSH3 0x33B6 JUMP JUMPDEST PUSH1 0x0 PUSH1 0x20 DUP1 DUP4 MSTORE PUSH1 0x60 DUP1 DUP5 ADD DUP6 MLOAD DUP4 DUP7 ADD MSTORE DUP3 DUP7 ADD MLOAD PUSH1 0x40 DUP1 DUP2 DUP9 ADD MSTORE DUP3 DUP3 MLOAD DUP1 DUP6 MSTORE PUSH1 0x80 SWAP5 POP DUP5 DUP10 ADD SWAP2 POP DUP7 DUP5 ADD SWAP4 POP PUSH1 0x0 JUMPDEST DUP2 DUP2 LT ISZERO PUSH3 0x3766 JUMPI DUP5 MLOAD DUP1 MLOAD PUSH1 0x1 PUSH1 0x1 PUSH1 0xA0 SHL SUB AND DUP5 MSTORE DUP9 DUP2 ADD MLOAD DUP10 DUP6 ADD MSTORE DUP5 DUP2 ADD MLOAD DUP6 DUP6 ADD MSTORE DUP8 ADD MLOAD DUP8 DUP5 ADD MSTORE SWAP4 DUP8 ADD SWAP4 SWAP2 DUP6 ADD SWAP2 PUSH1 0x1 ADD PUSH3 0x3726 JUMP JUMPDEST POP SWAP1 SWAP10 SWAP9 POP POP POP POP POP POP POP POP POP JUMP JUMPDEST PUSH1 0x0 DUP1 PUSH1 0x40 DUP4 DUP6 SUB SLT ISZERO PUSH3 0x3789 JUMPI PUSH1 0x0 DUP1 REVERT JUMPDEST POP POP DUP1 CALLDATALOAD SWAP3 PUSH1 0x20 SWAP1 SWAP2 ADD CALLDATALOAD SWAP2 POP JUMP JUMPDEST PUSH1 0x1 DUP2 DUP2 SHR SWAP1 DUP3 AND DUP1 PUSH3 0x37AD JUMPI PUSH1 0x7F DUP3 AND SWAP2 POP JUMPDEST PUSH1 0x20 DUP3 LT DUP2 SUB PUSH3 0x37CE JUMPI PUSH4 0x4E487B71 PUSH1 0xE0 SHL PUSH1 0x0 MSTORE PUSH1 0x22 PUSH1 0x4 MSTORE PUSH1 0x24 PUSH1 0x0 REVERT JUMPDEST POP SWAP2 SWAP1 POP JUMP JUMPDEST PUSH4 0x4E487B71 PUSH1 0xE0 SHL PUSH1 0x0 MSTORE PUSH1 0x11 PUSH1 0x4 MSTORE PUSH1 0x24 PUSH1 0x0 REVERT JUMPDEST PUSH1 0x0 DUP3 NOT DUP3 GT ISZERO PUSH3 0x3800 JUMPI PUSH3 0x3800 PUSH3 0x37D4 JUMP JUMPDEST POP ADD SWAP1 JUMP JUMPDEST PUSH1 0x0 DUP3 MLOAD PUSH3 0x3819 DUP2 DUP5 PUSH1 0x20 DUP8 ADD PUSH3 0x333D JUMP JUMPDEST SWAP2 SWAP1 SWAP2 ADD SWAP3 SWAP2 POP POP JUMP JUMPDEST PUSH1 0x0 DUP4 MLOAD PUSH3 0x3837 DUP2 DUP5 PUSH1 0x20 DUP9 ADD PUSH3 0x333D JUMP JUMPDEST DUP4 MLOAD SWAP1 DUP4 ADD SWAP1 PUSH3 0x384D DUP2 DUP4 PUSH1 0x20 DUP9 ADD PUSH3 0x333D JUMP JUMPDEST ADD SWAP5 SWAP4 POP POP POP POP JUMP JUMPDEST PUSH1 0x0 DUP3 DUP3 LT ISZERO PUSH3 0x386B JUMPI PUSH3 0x386B PUSH3 0x37D4 JUMP JUMPDEST POP SUB SWAP1 JUMP JUMPDEST PUSH1 0x20 DUP1 DUP3 MSTORE PUSH1 0x1F SWAP1 DUP3 ADD MSTORE PUSH32 0x5265656E7472616E637947756172643A207265656E7472616E742063616C6C00 PUSH1 0x40 DUP3 ADD MSTORE PUSH1 0x60 ADD SWAP1 JUMP JUMPDEST PUSH1 0x20 DUP1 DUP3 MSTORE PUSH1 0x2C SWAP1 DUP3 ADD MSTORE PUSH32 0x54686973206973206E6F7420726567697374657220616E796D6F72652E204974 PUSH1 0x40 DUP3 ADD MSTORE PUSH12 0x1034B9903090313934B1B597 PUSH1 0xA1 SHL PUSH1 0x60 DUP3 ADD MSTORE PUSH1 0x80 ADD SWAP1 JUMP JUMPDEST PUSH1 0x20 DUP1 DUP3 MSTORE PUSH1 0x9 SWAP1 DUP3 ADD MSTORE PUSH9 0x29B2BA103930BA3297 PUSH1 0xB9 SHL PUSH1 0x40 DUP3 ADD MSTORE PUSH1 0x60 ADD SWAP1 JUMP JUMPDEST PUSH1 0x0 DUP2 PUSH1 0x0 NOT DIV DUP4 GT DUP3 ISZERO ISZERO AND ISZERO PUSH3 0x3933 JUMPI PUSH3 0x3933 PUSH3 0x37D4 JUMP JUMPDEST POP MUL SWAP1 JUMP JUMPDEST PUSH1 0x0 DUP3 PUSH3 0x3956 JUMPI PUSH4 0x4E487B71 PUSH1 0xE0 SHL PUSH1 0x0 MSTORE PUSH1 0x12 PUSH1 0x4 MSTORE PUSH1 0x24 PUSH1 0x0 REVERT JUMPDEST POP DIV SWAP1 JUMP JUMPDEST PUSH1 0x20 DUP1 DUP3 MSTORE PUSH1 0x14 SWAP1 DUP3 ADD MSTORE PUSH20 0x21BAB93932B73A1036B0BC103932B0B1B432B217 PUSH1 0x61 SHL PUSH1 0x40 DUP3 ADD MSTORE PUSH1 0x60 ADD SWAP1 JUMP JUMPDEST PUSH1 0x20 DUP1 DUP3 MSTORE PUSH1 0x16 SWAP1 DUP3 ADD MSTORE PUSH22 0x29B7B9393C97102BB29030B932903090313934B1B597 PUSH1 0x51 SHL PUSH1 0x40 DUP3 ADD MSTORE PUSH1 0x60 ADD SWAP1 JUMP JUMPDEST PUSH1 0x20 DUP1 DUP3 MSTORE PUSH1 0x3A SWAP1 DUP3 ADD MSTORE PUSH32 0x5468652065786368616E676520697320636C6F7365642E20506C656173652074 PUSH1 0x40 DUP3 ADD MSTORE PUSH32 0x727920616761696E207768656E20776520617265206F70656E2E000000000000 PUSH1 0x60 DUP3 ADD MSTORE PUSH1 0x80 ADD SWAP1 JUMP JUMPDEST PUSH1 0x0 PUSH1 0x20 DUP3 DUP5 SUB SLT ISZERO PUSH3 0x3A29 JUMPI PUSH1 0x0 DUP1 REVERT JUMPDEST POP MLOAD SWAP2 SWAP1 POP JUMP JUMPDEST PUSH1 0x20 DUP1 DUP3 MSTORE PUSH1 0x3D SWAP1 DUP3 ADD MSTORE PUSH32 0x54686973206D656D6520636F696E2069732061637475616C6C79206120636C6F PUSH1 0x40 DUP3 ADD MSTORE PUSH32 0x6E652E2042657420796F75206469646E2774206B6E6F7720746861742E000000 PUSH1 0x60 DUP3 ADD MSTORE PUSH1 0x80 ADD SWAP1 JUMP JUMPDEST PUSH1 0x40 DUP2 MSTORE PUSH1 0x0 DUP1 DUP5 SLOAD DUP2 PUSH1 0x1 DUP3 DUP2 SHR SWAP2 POP DUP1 DUP4 AND DUP1 PUSH3 0x3AAE JUMPI PUSH1 0x7F DUP4 AND SWAP3 POP JUMPDEST PUSH1 0x20 DUP1 DUP5 LT DUP3 SUB PUSH3 0x3ACE JUMPI PUSH4 0x4E487B71 PUSH1 0xE0 SHL DUP7 MSTORE PUSH1 0x22 PUSH1 0x4 MSTORE PUSH1 0x24 DUP7 REVERT JUMPDEST PUSH1 0x40 DUP9 ADD DUP5 SWAP1 MSTORE PUSH1 0x60 DUP9 ADD DUP3 DUP1 ISZERO PUSH3 0x3AF0 JUMPI PUSH1 0x1 DUP2 EQ PUSH3 0x3B02 JUMPI PUSH3 0x3B2F JUMP JUMPDEST PUSH1 0xFF NOT DUP8 AND DUP3 MSTORE DUP3 DUP3 ADD SWAP8 POP PUSH3 0x3B2F JUMP JUMPDEST PUSH1 0x0 DUP13 DUP2 MSTORE PUSH1 0x20 SWAP1 KECCAK256 PUSH1 0x0 JUMPDEST DUP8 DUP2 LT ISZERO PUSH3 0x3B29 JUMPI DUP2 SLOAD DUP5 DUP3 ADD MSTORE SWAP1 DUP7 ADD SWAP1 DUP5 ADD PUSH3 0x3B0E JUMP JUMPDEST DUP4 ADD SWAP9 POP POP JUMPDEST POP POP SWAP7 SWAP1 SWAP7 ADD SWAP7 SWAP1 SWAP7 MSTORE POP SWAP1 SWAP6 SWAP5 POP POP POP POP POP JUMP JUMPDEST DUP5 DUP2 MSTORE PUSH1 0x1 PUSH1 0x1 PUSH1 0xA0 SHL SUB DUP5 DUP2 AND PUSH1 0x20 DUP4 ADD MSTORE DUP4 AND PUSH1 0x40 DUP3 ADD MSTORE PUSH1 0x80 PUSH1 0x60 DUP3 ADD DUP2 SWAP1 MSTORE PUSH1 0x0 SWAP1 PUSH3 0x3188 SWAP1 DUP4 ADD DUP5 PUSH3 0x336C JUMP JUMPDEST PUSH4 0x4E487B71 PUSH1 0xE0 SHL PUSH1 0x0 MSTORE PUSH1 0x32 PUSH1 0x4 MSTORE PUSH1 0x24 PUSH1 0x0 REVERT JUMPDEST PUSH1 0x80 DUP2 MSTORE PUSH1 0x0 PUSH3 0x3BA3 PUSH1 0x80 DUP4 ADD DUP8 PUSH3 0x336C JUMP JUMPDEST PUSH1 0x1 PUSH1 0x1 PUSH1 0xA0 SHL SUB SWAP6 SWAP1 SWAP6 AND PUSH1 0x20 DUP4 ADD MSTORE POP PUSH1 0x40 DUP2 ADD SWAP3 SWAP1 SWAP3 MSTORE ISZERO ISZERO PUSH1 0x60 SWAP1 SWAP2 ADD MSTORE SWAP2 SWAP1 POP JUMP JUMPDEST PUSH1 0x20 DUP1 DUP3 MSTORE PUSH1 0x2B SWAP1 DUP3 ADD MSTORE PUSH32 0x496E697469616C697A61626C653A20636F6E7472616374206973206E6F742069 PUSH1 0x40 DUP3 ADD MSTORE PUSH11 0x6E697469616C697A696E67 PUSH1 0xA8 SHL PUSH1 0x60 DUP3 ADD MSTORE PUSH1 0x80 ADD SWAP1 JUMP INVALID PUSH1 0x80 PUSH1 0x40 MSTORE CALLVALUE DUP1 ISZERO PUSH3 0x11 JUMPI PUSH1 0x0 DUP1 REVERT JUMPDEST POP PUSH1 0x40 MLOAD PUSH3 0x1A89 CODESIZE SUB DUP1 PUSH3 0x1A89 DUP4 CODECOPY DUP2 ADD PUSH1 0x40 DUP2 SWAP1 MSTORE PUSH3 0x34 SWAP2 PUSH3 0x5DA JUMP JUMPDEST PUSH1 0x40 DUP1 MLOAD DUP1 DUP3 ADD SWAP1 SWAP2 MSTORE PUSH1 0xB DUP1 DUP3 MSTORE PUSH11 0x21BAB63A3AB932A1B7B4B7 PUSH1 0xA9 SHL PUSH1 0x20 DUP4 ADD SWAP1 DUP2 MSTORE DUP4 SWAP2 PUSH3 0x69 SWAP2 PUSH1 0x3 SWAP2 PUSH3 0x4CE JUMP JUMPDEST POP DUP1 MLOAD PUSH3 0x7F SWAP1 PUSH1 0x4 SWAP1 PUSH1 0x20 DUP5 ADD SWAP1 PUSH3 0x4CE JUMP JUMPDEST POP POP PUSH1 0x1 PUSH1 0x5 SSTORE POP PUSH1 0x1 PUSH1 0x1 PUSH1 0xA0 SHL SUB DUP4 AND PUSH3 0xE3 JUMPI PUSH1 0x40 MLOAD PUSH3 0x461BCD PUSH1 0xE5 SHL DUP2 MSTORE PUSH1 0x20 PUSH1 0x4 DUP3 ADD MSTORE PUSH1 0x13 PUSH1 0x24 DUP3 ADD MSTORE PUSH32 0x496E76616C69642043756C747572636F696E2E00000000000000000000000000 PUSH1 0x44 DUP3 ADD MSTORE PUSH1 0x64 ADD JUMPDEST PUSH1 0x40 MLOAD DUP1 SWAP2 SUB SWAP1 REVERT JUMPDEST PUSH1 0x1 PUSH1 0x1 PUSH1 0xA0 SHL SUB DUP3 AND PUSH3 0x12B JUMPI PUSH1 0x40 MLOAD PUSH3 0x461BCD PUSH1 0xE5 SHL DUP2 MSTORE PUSH1 0x20 PUSH1 0x4 DUP3 ADD MSTORE PUSH1 0xD PUSH1 0x24 DUP3 ADD MSTORE PUSH13 0x2D32B9379030B2323932B9B997 PUSH1 0x99 SHL PUSH1 0x44 DUP3 ADD MSTORE PUSH1 0x64 ADD PUSH3 0xDA JUMP JUMPDEST PUSH1 0x7 DUP1 SLOAD PUSH1 0x1 PUSH1 0x1 PUSH1 0xA0 SHL SUB NOT AND PUSH1 0x1 PUSH1 0x1 PUSH1 0xA0 SHL SUB DUP5 DUP2 AND SWAP2 SWAP1 SWAP2 OR SWAP1 SWAP2 SSTORE PUSH1 0x40 MLOAD SWAP1 DUP5 AND DUP2 MSTORE PUSH1 0x0 DUP1 MLOAD PUSH1 0x20 PUSH3 0x1A69 DUP4 CODECOPY DUP2 MLOAD SWAP2 MSTORE SWAP1 PUSH1 0x20 ADD PUSH1 0x40 MLOAD DUP1 SWAP2 SUB SWAP1 LOG1 PUSH1 0x40 MLOAD CALLER DUP2 MSTORE PUSH1 0x0 DUP1 MLOAD PUSH1 0x20 PUSH3 0x1A69 DUP4 CODECOPY DUP2 MLOAD SWAP2 MSTORE SWAP1 PUSH1 0x20 ADD PUSH1 0x40 MLOAD DUP1 SWAP2 SUB SWAP1 LOG1 PUSH1 0x40 MLOAD DUP5 DUP2 MSTORE PUSH32 0x19CDFBBC87E2C4F8B08471BB8B544A25603AA3A6037DAB5DD4A660BE7A45B50C SWAP1 PUSH1 0x20 ADD PUSH1 0x40 MLOAD DUP1 SWAP2 SUB SWAP1 LOG1 PUSH32 0x7CDB51E9DBBC205231228146C3246E7F914AA6D4A33170E43ECC8E3593481D1A DUP2 PUSH1 0x40 MLOAD PUSH3 0x1F5 SWAP2 SWAP1 PUSH3 0x6C2 JUMP JUMPDEST PUSH1 0x40 MLOAD DUP1 SWAP2 SUB SWAP1 LOG1 PUSH1 0xC DUP1 SLOAD PUSH1 0x1 PUSH1 0x1 PUSH1 0xA0 SHL SUB NOT AND PUSH1 0x1 PUSH1 0x1 PUSH1 0xA0 SHL SUB DUP6 AND SWAP1 DUP2 OR SWAP1 SWAP2 SSTORE PUSH1 0x40 MLOAD PUSH4 0x22107243 PUSH1 0xE1 SHL DUP2 MSTORE CALLER PUSH1 0x4 DUP3 ADD MSTORE PUSH4 0x4420E486 SWAP1 PUSH1 0x24 ADD PUSH1 0x0 PUSH1 0x40 MLOAD DUP1 DUP4 SUB DUP2 PUSH1 0x0 DUP8 DUP1 EXTCODESIZE ISZERO DUP1 ISZERO PUSH3 0x252 JUMPI PUSH1 0x0 DUP1 REVERT JUMPDEST POP GAS CALL ISZERO DUP1 ISZERO PUSH3 0x267 JUMPI RETURNDATASIZE PUSH1 0x0 DUP1 RETURNDATACOPY RETURNDATASIZE PUSH1 0x0 REVERT JUMPDEST POP POP POP POP PUSH1 0xC PUSH1 0x0 SWAP1 SLOAD SWAP1 PUSH2 0x100 EXP SWAP1 DIV PUSH1 0x1 PUSH1 0x1 PUSH1 0xA0 SHL SUB AND PUSH1 0x1 PUSH1 0x1 PUSH1 0xA0 SHL SUB AND PUSH4 0x9ED4607 PUSH1 0x40 MLOAD DUP2 PUSH4 0xFFFFFFFF AND PUSH1 0xE0 SHL DUP2 MSTORE PUSH1 0x4 ADD PUSH1 0x20 PUSH1 0x40 MLOAD DUP1 DUP4 SUB DUP2 PUSH1 0x0 DUP8 GAS CALL ISZERO DUP1 ISZERO PUSH3 0x2C1 JUMPI RETURNDATASIZE PUSH1 0x0 DUP1 RETURNDATACOPY RETURNDATASIZE PUSH1 0x0 REVERT JUMPDEST POP POP POP POP PUSH1 0x40 MLOAD RETURNDATASIZE PUSH1 0x1F NOT PUSH1 0x1F DUP3 ADD AND DUP3 ADD DUP1 PUSH1 0x40 MSTORE POP DUP2 ADD SWAP1 PUSH3 0x2E7 SWAP2 SWAP1 PUSH3 0x6F7 JUMP JUMPDEST PUSH1 0x8 DUP1 SLOAD PUSH1 0x1 PUSH1 0x1 PUSH1 0xA0 SHL SUB SWAP3 DUP4 AND PUSH1 0x1 PUSH1 0x1 PUSH1 0xA0 SHL SUB NOT SWAP2 DUP3 AND DUP2 OR SWAP1 SWAP3 SSTORE PUSH1 0x6 DUP1 SLOAD SWAP4 DUP8 AND SWAP4 SWAP1 SWAP2 AND SWAP3 SWAP1 SWAP3 OR SWAP1 SWAP2 SSTORE PUSH3 0x325 SWAP1 DUP6 PUSH3 0x3E9 JUMP JUMPDEST DUP4 PUSH11 0xADCA69491F412BB00C0000 SUB PUSH3 0x35C JUMPI PUSH1 0x7 SLOAD PUSH3 0x350 SWAP1 PUSH1 0x1 PUSH1 0x1 PUSH1 0xA0 SHL SUB AND DUP6 PUSH3 0x3E9 JUMP JUMPDEST PUSH3 0x35C ADDRESS DUP6 PUSH3 0x3E9 JUMP JUMPDEST PUSH1 0xC PUSH1 0x0 SWAP1 SLOAD SWAP1 PUSH2 0x100 EXP SWAP1 DIV PUSH1 0x1 PUSH1 0x1 PUSH1 0xA0 SHL SUB AND PUSH1 0x1 PUSH1 0x1 PUSH1 0xA0 SHL SUB AND PUSH4 0xFAC70E23 PUSH1 0x40 MLOAD DUP2 PUSH4 0xFFFFFFFF AND PUSH1 0xE0 SHL DUP2 MSTORE PUSH1 0x4 ADD PUSH1 0x20 PUSH1 0x40 MLOAD DUP1 DUP4 SUB DUP2 DUP7 GAS STATICCALL ISZERO DUP1 ISZERO PUSH3 0x3B0 JUMPI RETURNDATASIZE PUSH1 0x0 DUP1 RETURNDATACOPY RETURNDATASIZE PUSH1 0x0 REVERT JUMPDEST POP POP POP POP PUSH1 0x40 MLOAD RETURNDATASIZE PUSH1 0x1F NOT PUSH1 0x1F DUP3 ADD AND DUP3 ADD DUP1 PUSH1 0x40 MSTORE POP DUP2 ADD SWAP1 PUSH3 0x3D6 SWAP2 SWAP1 PUSH3 0x71C JUMP JUMPDEST PUSH1 0xA DUP2 SWAP1 SSTORE PUSH1 0xB SSTORE POP PUSH3 0x799 SWAP3 POP POP POP JUMP JUMPDEST PUSH1 0x1 PUSH1 0x1 PUSH1 0xA0 SHL SUB DUP3 AND PUSH3 0x441 JUMPI PUSH1 0x40 MLOAD PUSH3 0x461BCD PUSH1 0xE5 SHL DUP2 MSTORE PUSH1 0x20 PUSH1 0x4 DUP3 ADD MSTORE PUSH1 0x1F PUSH1 0x24 DUP3 ADD MSTORE PUSH32 0x45524332303A206D696E7420746F20746865207A65726F206164647265737300 PUSH1 0x44 DUP3 ADD MSTORE PUSH1 0x64 ADD PUSH3 0xDA JUMP JUMPDEST DUP1 PUSH1 0x2 PUSH1 0x0 DUP3 DUP3 SLOAD PUSH3 0x455 SWAP2 SWAP1 PUSH3 0x736 JUMP JUMPDEST SWAP1 SWAP2 SSTORE POP POP PUSH1 0x1 PUSH1 0x1 PUSH1 0xA0 SHL SUB DUP3 AND PUSH1 0x0 SWAP1 DUP2 MSTORE PUSH1 0x20 DUP2 SWAP1 MSTORE PUSH1 0x40 DUP2 KECCAK256 DUP1 SLOAD DUP4 SWAP3 SWAP1 PUSH3 0x484 SWAP1 DUP5 SWAP1 PUSH3 0x736 JUMP JUMPDEST SWAP1 SWAP2 SSTORE POP POP PUSH1 0x40 MLOAD DUP2 DUP2 MSTORE PUSH1 0x1 PUSH1 0x1 PUSH1 0xA0 SHL SUB DUP4 AND SWAP1 PUSH1 0x0 SWAP1 PUSH32 0xDDF252AD1BE2C89B69C2B068FC378DAA952BA7F163C4A11628F55A4DF523B3EF SWAP1 PUSH1 0x20 ADD PUSH1 0x40 MLOAD DUP1 SWAP2 SUB SWAP1 LOG3 POP POP JUMP JUMPDEST DUP3 DUP1 SLOAD PUSH3 0x4DC SWAP1 PUSH3 0x75D JUMP JUMPDEST SWAP1 PUSH1 0x0 MSTORE PUSH1 0x20 PUSH1 0x0 KECCAK256 SWAP1 PUSH1 0x1F ADD PUSH1 0x20 SWAP1 DIV DUP2 ADD SWAP3 DUP3 PUSH3 0x500 JUMPI PUSH1 0x0 DUP6 SSTORE PUSH3 0x54B JUMP JUMPDEST DUP3 PUSH1 0x1F LT PUSH3 0x51B JUMPI DUP1 MLOAD PUSH1 0xFF NOT AND DUP4 DUP1 ADD OR DUP6 SSTORE PUSH3 0x54B JUMP JUMPDEST DUP3 DUP1 ADD PUSH1 0x1 ADD DUP6 SSTORE DUP3 ISZERO PUSH3 0x54B JUMPI SWAP2 DUP3 ADD JUMPDEST DUP3 DUP2 GT ISZERO PUSH3 0x54B JUMPI DUP3 MLOAD DUP3 SSTORE SWAP2 PUSH1 0x20 ADD SWAP2 SWAP1 PUSH1 0x1 ADD SWAP1 PUSH3 0x52E JUMP JUMPDEST POP PUSH3 0x559 SWAP3 SWAP2 POP PUSH3 0x55D JUMP JUMPDEST POP SWAP1 JUMP JUMPDEST JUMPDEST DUP1 DUP3 GT ISZERO PUSH3 0x559 JUMPI PUSH1 0x0 DUP2 SSTORE PUSH1 0x1 ADD PUSH3 0x55E JUMP JUMPDEST DUP1 MLOAD PUSH1 0x1 PUSH1 0x1 PUSH1 0xA0 SHL SUB DUP2 AND DUP2 EQ PUSH3 0x58C JUMPI PUSH1 0x0 DUP1 REVERT JUMPDEST SWAP2 SWAP1 POP JUMP JUMPDEST PUSH4 0x4E487B71 PUSH1 0xE0 SHL PUSH1 0x0 MSTORE PUSH1 0x41 PUSH1 0x4 MSTORE PUSH1 0x24 PUSH1 0x0 REVERT JUMPDEST PUSH1 0x0 JUMPDEST DUP4 DUP2 LT ISZERO PUSH3 0x5C4 JUMPI DUP2 DUP2 ADD MLOAD DUP4 DUP3 ADD MSTORE PUSH1 0x20 ADD PUSH3 0x5AA JUMP JUMPDEST DUP4 DUP2 GT ISZERO PUSH3 0x5D4 JUMPI PUSH1 0x0 DUP5 DUP5 ADD MSTORE JUMPDEST POP POP POP POP JUMP JUMPDEST PUSH1 0x0 DUP1 PUSH1 0x0 DUP1 PUSH1 0x80 DUP6 DUP8 SUB SLT ISZERO PUSH3 0x5F1 JUMPI PUSH1 0x0 DUP1 REVERT JUMPDEST DUP5 MLOAD SWAP4 POP PUSH3 0x603 PUSH1 0x20 DUP7 ADD PUSH3 0x574 JUMP JUMPDEST SWAP3 POP PUSH3 0x613 PUSH1 0x40 DUP7 ADD PUSH3 0x574 JUMP JUMPDEST PUSH1 0x60 DUP7 ADD MLOAD SWAP1 SWAP3 POP PUSH1 0x1 PUSH1 0x1 PUSH1 0x40 SHL SUB DUP1 DUP3 GT ISZERO PUSH3 0x631 JUMPI PUSH1 0x0 DUP1 REVERT JUMPDEST DUP2 DUP8 ADD SWAP2 POP DUP8 PUSH1 0x1F DUP4 ADD SLT PUSH3 0x646 JUMPI PUSH1 0x0 DUP1 REVERT JUMPDEST DUP2 MLOAD DUP2 DUP2 GT ISZERO PUSH3 0x65B JUMPI PUSH3 0x65B PUSH3 0x591 JUMP JUMPDEST PUSH1 0x40 MLOAD PUSH1 0x1F DUP3 ADD PUSH1 0x1F NOT SWAP1 DUP2 AND PUSH1 0x3F ADD AND DUP2 ADD SWAP1 DUP4 DUP3 GT DUP2 DUP4 LT OR ISZERO PUSH3 0x686 JUMPI PUSH3 0x686 PUSH3 0x591 JUMP JUMPDEST DUP2 PUSH1 0x40 MSTORE DUP3 DUP2 MSTORE DUP11 PUSH1 0x20 DUP5 DUP8 ADD ADD GT ISZERO PUSH3 0x6A0 JUMPI PUSH1 0x0 DUP1 REVERT JUMPDEST PUSH3 0x6B3 DUP4 PUSH1 0x20 DUP4 ADD PUSH1 0x20 DUP9 ADD PUSH3 0x5A7 JUMP JUMPDEST SWAP8 SWAP11 SWAP7 SWAP10 POP SWAP5 SWAP8 POP POP POP POP POP POP JUMP JUMPDEST PUSH1 0x20 DUP2 MSTORE PUSH1 0x0 DUP3 MLOAD DUP1 PUSH1 0x20 DUP5 ADD MSTORE PUSH3 0x6E3 DUP2 PUSH1 0x40 DUP6 ADD PUSH1 0x20 DUP8 ADD PUSH3 0x5A7 JUMP JUMPDEST PUSH1 0x1F ADD PUSH1 0x1F NOT AND SWAP2 SWAP1 SWAP2 ADD PUSH1 0x40 ADD SWAP3 SWAP2 POP POP JUMP JUMPDEST PUSH1 0x0 PUSH1 0x20 DUP3 DUP5 SUB SLT ISZERO PUSH3 0x70A JUMPI PUSH1 0x0 DUP1 REVERT JUMPDEST PUSH3 0x715 DUP3 PUSH3 0x574 JUMP JUMPDEST SWAP4 SWAP3 POP POP POP JUMP JUMPDEST PUSH1 0x0 PUSH1 0x20 DUP3 DUP5 SUB SLT ISZERO PUSH3 0x72F JUMPI PUSH1 0x0 DUP1 REVERT JUMPDEST POP MLOAD SWAP2 SWAP1 POP JUMP JUMPDEST PUSH1 0x0 DUP3 NOT DUP3 GT ISZERO PUSH3 0x758 JUMPI PUSH4 0x4E487B71 PUSH1 0xE0 SHL PUSH1 0x0 MSTORE PUSH1 0x11 PUSH1 0x4 MSTORE PUSH1 0x24 PUSH1 0x0 REVERT JUMPDEST POP ADD SWAP1 JUMP JUMPDEST PUSH1 0x1 DUP2 DUP2 SHR SWAP1 DUP3 AND DUP1 PUSH3 0x772 JUMPI PUSH1 0x7F DUP3 AND SWAP2 POP JUMPDEST PUSH1 0x20 DUP3 LT DUP2 SUB PUSH3 0x793 JUMPI PUSH4 0x4E487B71 PUSH1 0xE0 SHL PUSH1 0x0 MSTORE PUSH1 0x22 PUSH1 0x4 MSTORE PUSH1 0x24 PUSH1 0x0 REVERT JUMPDEST POP SWAP2 SWAP1 POP JUMP JUMPDEST PUSH2 0x12C0 DUP1 PUSH3 0x7A9 PUSH1 0x0 CODECOPY PUSH1 0x0 RETURN INVALID PUSH1 0x80 PUSH1 0x40 MSTORE PUSH1 0x4 CALLDATASIZE LT PUSH2 0x12A JUMPI PUSH1 0x0 CALLDATALOAD PUSH1 0xE0 SHR DUP1 PUSH4 0x7218954E GT PUSH2 0xAB JUMPI DUP1 PUSH4 0xA457C2D7 GT PUSH2 0x6F JUMPI DUP1 PUSH4 0xA457C2D7 EQ PUSH2 0x322 JUMPI DUP1 PUSH4 0xA6F2AE3A EQ PUSH2 0x342 JUMPI DUP1 PUSH4 0xA9059CBB EQ PUSH2 0x34A JUMPI DUP1 PUSH4 0xC3D670FE EQ PUSH2 0x36A JUMPI DUP1 PUSH4 0xDD62ED3E EQ PUSH2 0x37D JUMPI DUP1 PUSH4 0xDDC74B11 EQ PUSH2 0x3C3 JUMPI PUSH1 0x0 DUP1 REVERT JUMPDEST DUP1 PUSH4 0x7218954E EQ PUSH2 0x287 JUMPI DUP1 PUSH4 0x79CC6790 EQ PUSH2 0x2A7 JUMPI DUP1 PUSH4 0x8B8FBD92 EQ PUSH2 0x2C7 JUMPI DUP1 PUSH4 0x91B7F5ED EQ PUSH2 0x2ED JUMPI DUP1 PUSH4 0x95D89B41 EQ PUSH2 0x30D JUMPI PUSH1 0x0 DUP1 REVERT JUMPDEST DUP1 PUSH4 0x313CE567 GT PUSH2 0xF2 JUMPI DUP1 PUSH4 0x313CE567 EQ PUSH2 0x1E0 JUMPI DUP1 PUSH4 0x32E7C5BF EQ PUSH2 0x1FC JUMPI DUP1 PUSH4 0x39509351 EQ PUSH2 0x211 JUMPI DUP1 PUSH4 0x42966C68 EQ PUSH2 0x231 JUMPI DUP1 PUSH4 0x70A08231 EQ PUSH2 0x251 JUMPI PUSH1 0x0 DUP1 REVERT JUMPDEST DUP1 PUSH4 0x6FDDE03 EQ PUSH2 0x12F JUMPI DUP1 PUSH4 0x95EA7B3 EQ PUSH2 0x15A JUMPI DUP1 PUSH4 0x18160DDD EQ PUSH2 0x18A JUMPI DUP1 PUSH4 0x23B872DD EQ PUSH2 0x1A9 JUMPI DUP1 PUSH4 0x24600FC3 EQ PUSH2 0x1C9 JUMPI JUMPDEST PUSH1 0x0 DUP1 REVERT JUMPDEST CALLVALUE DUP1 ISZERO PUSH2 0x13B JUMPI PUSH1 0x0 DUP1 REVERT JUMPDEST POP PUSH2 0x144 PUSH2 0x3D8 JUMP JUMPDEST PUSH1 0x40 MLOAD PUSH2 0x151 SWAP2 SWAP1 PUSH2 0xF64 JUMP JUMPDEST PUSH1 0x40 MLOAD DUP1 SWAP2 SUB SWAP1 RETURN JUMPDEST CALLVALUE DUP1 ISZERO PUSH2 0x166 JUMPI PUSH1 0x0 DUP1 REVERT JUMPDEST POP PUSH2 0x17A PUSH2 0x175 CALLDATASIZE PUSH1 0x4 PUSH2 0xF93 JUMP JUMPDEST PUSH2 0x46A JUMP JUMPDEST PUSH1 0x40 MLOAD SWAP1 ISZERO ISZERO DUP2 MSTORE PUSH1 0x20 ADD PUSH2 0x151 JUMP JUMPDEST CALLVALUE DUP1 ISZERO PUSH2 0x196 JUMPI PUSH1 0x0 DUP1 REVERT JUMPDEST POP PUSH1 0x2 SLOAD JUMPDEST PUSH1 0x40 MLOAD SWAP1 DUP2 MSTORE PUSH1 0x20 ADD PUSH2 0x151 JUMP JUMPDEST CALLVALUE DUP1 ISZERO PUSH2 0x1B5 JUMPI PUSH1 0x0 DUP1 REVERT JUMPDEST POP PUSH2 0x17A PUSH2 0x1C4 CALLDATASIZE PUSH1 0x4 PUSH2 0xFBF JUMP JUMPDEST PUSH2 0x480 JUMP JUMPDEST CALLVALUE DUP1 ISZERO PUSH2 0x1D5 JUMPI PUSH1 0x0 DUP1 REVERT JUMPDEST POP PUSH2 0x1DE PUSH2 0x536 JUMP JUMPDEST STOP JUMPDEST CALLVALUE DUP1 ISZERO PUSH2 0x1EC JUMPI PUSH1 0x0 DUP1 REVERT JUMPDEST POP PUSH1 0x40 MLOAD PUSH1 0x12 DUP2 MSTORE PUSH1 0x20 ADD PUSH2 0x151 JUMP JUMPDEST CALLVALUE DUP1 ISZERO PUSH2 0x208 JUMPI PUSH1 0x0 DUP1 REVERT JUMPDEST POP PUSH1 0x9 SLOAD PUSH2 0x19B JUMP JUMPDEST CALLVALUE DUP1 ISZERO PUSH2 0x21D JUMPI PUSH1 0x0 DUP1 REVERT JUMPDEST POP PUSH2 0x17A PUSH2 0x22C CALLDATASIZE PUSH1 0x4 PUSH2 0xF93 JUMP JUMPDEST PUSH2 0x5E5 JUMP JUMPDEST CALLVALUE DUP1 ISZERO PUSH2 0x23D JUMPI PUSH1 0x0 DUP1 REVERT JUMPDEST POP PUSH2 0x1DE PUSH2 0x24C CALLDATASIZE PUSH1 0x4 PUSH2 0x1000 JUMP JUMPDEST PUSH2 0x61C JUMP JUMPDEST CALLVALUE DUP1 ISZERO PUSH2 0x25D JUMPI PUSH1 0x0 DUP1 REVERT JUMPDEST POP PUSH2 0x19B PUSH2 0x26C CALLDATASIZE PUSH1 0x4 PUSH2 0x1019 JUMP JUMPDEST PUSH1 0x1 PUSH1 0x1 PUSH1 0xA0 SHL SUB AND PUSH1 0x0 SWAP1 DUP2 MSTORE PUSH1 0x20 DUP2 SWAP1 MSTORE PUSH1 0x40 SWAP1 KECCAK256 SLOAD SWAP1 JUMP JUMPDEST CALLVALUE DUP1 ISZERO PUSH2 0x293 JUMPI PUSH1 0x0 DUP1 REVERT JUMPDEST POP PUSH2 0x1DE PUSH2 0x2A2 CALLDATASIZE PUSH1 0x4 PUSH2 0x1000 JUMP JUMPDEST PUSH2 0x629 JUMP JUMPDEST CALLVALUE DUP1 ISZERO PUSH2 0x2B3 JUMPI PUSH1 0x0 DUP1 REVERT JUMPDEST POP PUSH2 0x1DE PUSH2 0x2C2 CALLDATASIZE PUSH1 0x4 PUSH2 0xF93 JUMP JUMPDEST PUSH2 0x66D JUMP JUMPDEST CALLVALUE DUP1 ISZERO PUSH2 0x2D3 JUMPI PUSH1 0x0 DUP1 REVERT JUMPDEST POP PUSH1 0x6 SLOAD PUSH1 0x1 PUSH1 0x1 PUSH1 0xA0 SHL SUB AND PUSH1 0x40 MLOAD PUSH2 0x151 SWAP2 SWAP1 PUSH2 0x1036 JUMP JUMPDEST CALLVALUE DUP1 ISZERO PUSH2 0x2F9 JUMPI PUSH1 0x0 DUP1 REVERT JUMPDEST POP PUSH2 0x1DE PUSH2 0x308 CALLDATASIZE PUSH1 0x4 PUSH2 0x1000 JUMP JUMPDEST PUSH2 0x6F5 JUMP JUMPDEST CALLVALUE DUP1 ISZERO PUSH2 0x319 JUMPI PUSH1 0x0 DUP1 REVERT JUMPDEST POP PUSH2 0x144 PUSH2 0x739 JUMP JUMPDEST CALLVALUE DUP1 ISZERO PUSH2 0x32E JUMPI PUSH1 0x0 DUP1 REVERT JUMPDEST POP PUSH2 0x17A PUSH2 0x33D CALLDATASIZE PUSH1 0x4 PUSH2 0xF93 JUMP JUMPDEST PUSH2 0x748 JUMP JUMPDEST PUSH2 0x1DE PUSH2 0x7E3 JUMP JUMPDEST CALLVALUE DUP1 ISZERO PUSH2 0x356 JUMPI PUSH1 0x0 DUP1 REVERT JUMPDEST POP PUSH2 0x17A PUSH2 0x365 CALLDATASIZE PUSH1 0x4 PUSH2 0xF93 JUMP JUMPDEST PUSH2 0x865 JUMP JUMPDEST PUSH2 0x1DE PUSH2 0x378 CALLDATASIZE PUSH1 0x4 PUSH2 0x1060 JUMP JUMPDEST PUSH2 0x872 JUMP JUMPDEST CALLVALUE DUP1 ISZERO PUSH2 0x389 JUMPI PUSH1 0x0 DUP1 REVERT JUMPDEST POP PUSH2 0x19B PUSH2 0x398 CALLDATASIZE PUSH1 0x4 PUSH2 0x1111 JUMP JUMPDEST PUSH1 0x1 PUSH1 0x1 PUSH1 0xA0 SHL SUB SWAP2 DUP3 AND PUSH1 0x0 SWAP1 DUP2 MSTORE PUSH1 0x1 PUSH1 0x20 SWAP1 DUP2 MSTORE PUSH1 0x40 DUP1 DUP4 KECCAK256 SWAP4 SWAP1 SWAP5 AND DUP3 MSTORE SWAP2 SWAP1 SWAP2 MSTORE KECCAK256 SLOAD SWAP1 JUMP JUMPDEST CALLVALUE DUP1 ISZERO PUSH2 0x3CF JUMPI PUSH1 0x0 DUP1 REVERT JUMPDEST POP PUSH1 0xB SLOAD PUSH2 0x19B JUMP JUMPDEST PUSH1 0x60 PUSH1 0x3 DUP1 SLOAD PUSH2 0x3E7 SWAP1 PUSH2 0x114A JUMP JUMPDEST DUP1 PUSH1 0x1F ADD PUSH1 0x20 DUP1 SWAP2 DIV MUL PUSH1 0x20 ADD PUSH1 0x40 MLOAD SWAP1 DUP2 ADD PUSH1 0x40 MSTORE DUP1 SWAP3 SWAP2 SWAP1 DUP2 DUP2 MSTORE PUSH1 0x20 ADD DUP3 DUP1 SLOAD PUSH2 0x413 SWAP1 PUSH2 0x114A JUMP JUMPDEST DUP1 ISZERO PUSH2 0x460 JUMPI DUP1 PUSH1 0x1F LT PUSH2 0x435 JUMPI PUSH2 0x100 DUP1 DUP4 SLOAD DIV MUL DUP4 MSTORE SWAP2 PUSH1 0x20 ADD SWAP2 PUSH2 0x460 JUMP JUMPDEST DUP3 ADD SWAP2 SWAP1 PUSH1 0x0 MSTORE PUSH1 0x20 PUSH1 0x0 KECCAK256 SWAP1 JUMPDEST DUP2 SLOAD DUP2 MSTORE SWAP1 PUSH1 0x1 ADD SWAP1 PUSH1 0x20 ADD DUP1 DUP4 GT PUSH2 0x443 JUMPI DUP3 SWAP1 SUB PUSH1 0x1F AND DUP3 ADD SWAP2 JUMPDEST POP POP POP POP POP SWAP1 POP SWAP1 JUMP JUMPDEST PUSH1 0x0 PUSH2 0x477 CALLER DUP5 DUP5 PUSH2 0xACB JUMP JUMPDEST POP PUSH1 0x1 SWAP3 SWAP2 POP POP JUMP JUMPDEST PUSH1 0x0 PUSH2 0x48D DUP5 DUP5 DUP5 PUSH2 0xBF0 JUMP JUMPDEST PUSH1 0x1 PUSH1 0x1 PUSH1 0xA0 SHL SUB DUP5 AND PUSH1 0x0 SWAP1 DUP2 MSTORE PUSH1 0x1 PUSH1 0x20 SWAP1 DUP2 MSTORE PUSH1 0x40 DUP1 DUP4 KECCAK256 CALLER DUP5 MSTORE SWAP1 SWAP2 MSTORE SWAP1 KECCAK256 SLOAD DUP3 DUP2 LT ISZERO PUSH2 0x517 JUMPI PUSH1 0x40 MLOAD PUSH3 0x461BCD PUSH1 0xE5 SHL DUP2 MSTORE PUSH1 0x20 PUSH1 0x4 DUP3 ADD MSTORE PUSH1 0x28 PUSH1 0x24 DUP3 ADD MSTORE PUSH32 0x45524332303A207472616E7366657220616D6F756E7420657863656564732061 PUSH1 0x44 DUP3 ADD MSTORE PUSH8 0x6C6C6F77616E6365 PUSH1 0xC0 SHL PUSH1 0x64 DUP3 ADD MSTORE PUSH1 0x84 ADD JUMPDEST PUSH1 0x40 MLOAD DUP1 SWAP2 SUB SWAP1 REVERT JUMPDEST PUSH2 0x52B DUP6 CALLER PUSH2 0x526 DUP7 DUP6 PUSH2 0x119A JUMP JUMPDEST PUSH2 0xACB JUMP JUMPDEST POP PUSH1 0x1 SWAP5 SWAP4 POP POP POP POP JUMP JUMPDEST PUSH1 0x0 PUSH1 0x64 PUSH1 0x9 SLOAD PUSH1 0x5 PUSH2 0x549 SWAP2 SWAP1 PUSH2 0x11B1 JUMP JUMPDEST PUSH2 0x553 SWAP2 SWAP1 PUSH2 0x11D0 JUMP JUMPDEST SWAP1 POP PUSH1 0x0 DUP2 PUSH1 0x9 SLOAD PUSH2 0x565 SWAP2 SWAP1 PUSH2 0x119A JUMP JUMPDEST PUSH1 0x8 SLOAD PUSH1 0x40 MLOAD SWAP2 SWAP3 POP PUSH1 0x1 PUSH1 0x1 PUSH1 0xA0 SHL SUB AND SWAP1 DUP4 ISZERO PUSH2 0x8FC MUL SWAP1 DUP5 SWAP1 PUSH1 0x0 DUP2 DUP2 DUP2 DUP6 DUP9 DUP9 CALL SWAP4 POP POP POP POP ISZERO DUP1 ISZERO PUSH2 0x5A0 JUMPI RETURNDATASIZE PUSH1 0x0 DUP1 RETURNDATACOPY RETURNDATASIZE PUSH1 0x0 REVERT JUMPDEST POP PUSH1 0x7 SLOAD PUSH1 0x40 MLOAD PUSH1 0x1 PUSH1 0x1 PUSH1 0xA0 SHL SUB SWAP1 SWAP2 AND SWAP1 DUP3 ISZERO PUSH2 0x8FC MUL SWAP1 DUP4 SWAP1 PUSH1 0x0 DUP2 DUP2 DUP2 DUP6 DUP9 DUP9 CALL SWAP4 POP POP POP POP ISZERO DUP1 ISZERO PUSH2 0x5DB JUMPI RETURNDATASIZE PUSH1 0x0 DUP1 RETURNDATACOPY RETURNDATASIZE PUSH1 0x0 REVERT JUMPDEST POP POP PUSH1 0x0 PUSH1 0x9 SSTORE POP JUMP JUMPDEST CALLER PUSH1 0x0 DUP2 DUP2 MSTORE PUSH1 0x1 PUSH1 0x20 SWAP1 DUP2 MSTORE PUSH1 0x40 DUP1 DUP4 KECCAK256 PUSH1 0x1 PUSH1 0x1 PUSH1 0xA0 SHL SUB DUP8 AND DUP5 MSTORE SWAP1 SWAP2 MSTORE DUP2 KECCAK256 SLOAD SWAP1 SWAP2 PUSH2 0x477 SWAP2 DUP6 SWAP1 PUSH2 0x526 SWAP1 DUP7 SWAP1 PUSH2 0x11F2 JUMP JUMPDEST PUSH2 0x626 CALLER DUP3 PUSH2 0xDC8 JUMP JUMPDEST POP JUMP JUMPDEST PUSH1 0x8 SLOAD PUSH1 0x1 PUSH1 0x1 PUSH1 0xA0 SHL SUB AND CALLER EQ DUP1 PUSH2 0x64C JUMPI POP PUSH1 0x7 SLOAD PUSH1 0x1 PUSH1 0x1 PUSH1 0xA0 SHL SUB AND CALLER EQ JUMPDEST PUSH2 0x668 JUMPI PUSH1 0x40 MLOAD PUSH3 0x461BCD PUSH1 0xE5 SHL DUP2 MSTORE PUSH1 0x4 ADD PUSH2 0x50E SWAP1 PUSH2 0x120A JUMP JUMPDEST PUSH1 0xB SSTORE JUMP JUMPDEST PUSH1 0x0 PUSH2 0x679 DUP4 CALLER PUSH2 0x398 JUMP JUMPDEST SWAP1 POP DUP2 DUP2 LT ISZERO PUSH2 0x6D7 JUMPI PUSH1 0x40 MLOAD PUSH3 0x461BCD PUSH1 0xE5 SHL DUP2 MSTORE PUSH1 0x20 PUSH1 0x4 DUP3 ADD MSTORE PUSH1 0x24 DUP1 DUP3 ADD MSTORE PUSH32 0x45524332303A206275726E20616D6F756E74206578636565647320616C6C6F77 PUSH1 0x44 DUP3 ADD MSTORE PUSH4 0x616E6365 PUSH1 0xE0 SHL PUSH1 0x64 DUP3 ADD MSTORE PUSH1 0x84 ADD PUSH2 0x50E JUMP JUMPDEST PUSH2 0x6E6 DUP4 CALLER PUSH2 0x526 DUP6 DUP6 PUSH2 0x119A JUMP JUMPDEST PUSH2 0x6F0 DUP4 DUP4 PUSH2 0xDC8 JUMP JUMPDEST POP POP POP JUMP JUMPDEST PUSH1 0x8 SLOAD PUSH1 0x1 PUSH1 0x1 PUSH1 0xA0 SHL SUB AND CALLER EQ DUP1 PUSH2 0x718 JUMPI POP PUSH1 0x7 SLOAD PUSH1 0x1 PUSH1 0x1 PUSH1 0xA0 SHL SUB AND CALLER EQ JUMPDEST PUSH2 0x734 JUMPI PUSH1 0x40 MLOAD PUSH3 0x461BCD PUSH1 0xE5 SHL DUP2 MSTORE PUSH1 0x4 ADD PUSH2 0x50E SWAP1 PUSH2 0x120A JUMP JUMPDEST PUSH1 0xA SSTORE JUMP JUMPDEST PUSH1 0x60 PUSH1 0x4 DUP1 SLOAD PUSH2 0x3E7 SWAP1 PUSH2 0x114A JUMP JUMPDEST CALLER PUSH1 0x0 SWAP1 DUP2 MSTORE PUSH1 0x1 PUSH1 0x20 SWAP1 DUP2 MSTORE PUSH1 0x40 DUP1 DUP4 KECCAK256 PUSH1 0x1 PUSH1 0x1 PUSH1 0xA0 SHL SUB DUP7 AND DUP5 MSTORE SWAP1 SWAP2 MSTORE DUP2 KECCAK256 SLOAD DUP3 DUP2 LT ISZERO PUSH2 0x7CA JUMPI PUSH1 0x40 MLOAD PUSH3 0x461BCD PUSH1 0xE5 SHL DUP2 MSTORE PUSH1 0x20 PUSH1 0x4 DUP3 ADD MSTORE PUSH1 0x25 PUSH1 0x24 DUP3 ADD MSTORE PUSH32 0x45524332303A2064656372656173656420616C6C6F77616E63652062656C6F77 PUSH1 0x44 DUP3 ADD MSTORE PUSH5 0x207A65726F PUSH1 0xD8 SHL PUSH1 0x64 DUP3 ADD MSTORE PUSH1 0x84 ADD PUSH2 0x50E JUMP JUMPDEST PUSH2 0x7D9 CALLER DUP6 PUSH2 0x526 DUP7 DUP6 PUSH2 0x119A JUMP JUMPDEST POP PUSH1 0x1 SWAP4 SWAP3 POP POP POP JUMP JUMPDEST PUSH1 0x0 PUSH8 0xDE0B6B3A7640000 PUSH1 0xA SLOAD CALLVALUE PUSH2 0x7FC SWAP2 SWAP1 PUSH2 0x11B1 JUMP JUMPDEST PUSH2 0x806 SWAP2 SWAP1 PUSH2 0x11D0 JUMP JUMPDEST SWAP1 POP PUSH2 0x813 ADDRESS CALLER DUP4 PUSH2 0xBF0 JUMP JUMPDEST PUSH1 0x40 DUP1 MLOAD CALLER DUP2 MSTORE CALLVALUE PUSH1 0x20 DUP3 ADD MSTORE PUSH32 0x737C69225D647E5994EAB1A6C301BF6D9232BEB2759AE1E27A8966B4732BC489 SWAP2 ADD PUSH1 0x40 MLOAD DUP1 SWAP2 SUB SWAP1 LOG1 CALLVALUE PUSH1 0x9 PUSH1 0x0 DUP3 DUP3 SLOAD PUSH2 0x85D SWAP2 SWAP1 PUSH2 0x11F2 JUMP JUMPDEST SWAP1 SWAP2 SSTORE POP POP POP JUMP JUMPDEST PUSH1 0x0 PUSH2 0x477 CALLER DUP5 DUP5 PUSH2 0xBF0 JUMP JUMPDEST PUSH1 0x2 PUSH1 0x5 SLOAD SUB PUSH2 0x8C4 JUMPI PUSH1 0x40 MLOAD PUSH3 0x461BCD PUSH1 0xE5 SHL DUP2 MSTORE PUSH1 0x20 PUSH1 0x4 DUP3 ADD MSTORE PUSH1 0x1F PUSH1 0x24 DUP3 ADD MSTORE PUSH32 0x5265656E7472616E637947756172643A207265656E7472616E742063616C6C00 PUSH1 0x44 DUP3 ADD MSTORE PUSH1 0x64 ADD PUSH2 0x50E JUMP JUMPDEST PUSH1 0x2 PUSH1 0x5 SSTORE PUSH1 0xB SLOAD PUSH2 0x900 JUMPI PUSH1 0x40 MLOAD PUSH3 0x461BCD PUSH1 0xE5 SHL DUP2 MSTORE PUSH1 0x20 PUSH1 0x4 DUP3 ADD MSTORE PUSH1 0x5 PUSH1 0x24 DUP3 ADD MSTORE PUSH5 0x26B7B93297 PUSH1 0xD9 SHL PUSH1 0x44 DUP3 ADD MSTORE PUSH1 0x64 ADD PUSH2 0x50E JUMP JUMPDEST PUSH1 0xB SLOAD CALLVALUE LT ISZERO PUSH2 0x940 JUMPI PUSH1 0x40 MLOAD PUSH3 0x461BCD PUSH1 0xE5 SHL DUP2 MSTORE PUSH1 0x20 PUSH1 0x4 DUP3 ADD MSTORE PUSH1 0xB PUSH1 0x24 DUP3 ADD MSTORE PUSH11 0x26B7B932961036B7B93297 PUSH1 0xA9 SHL PUSH1 0x44 DUP3 ADD MSTORE PUSH1 0x64 ADD PUSH2 0x50E JUMP JUMPDEST PUSH1 0x8 SLOAD PUSH1 0x40 MLOAD PUSH32 0xE7375F84984FEFA09F5F03AA56FFB11ED839B99D56943F858953E537609F8BE7 SWAP2 PUSH2 0x97D SWAP2 PUSH1 0x1 PUSH1 0x1 PUSH1 0xA0 SHL SUB SWAP1 SWAP2 AND SWAP1 PUSH2 0x1036 JUMP JUMPDEST PUSH1 0x40 MLOAD DUP1 SWAP2 SUB SWAP1 LOG1 PUSH32 0xE7375F84984FEFA09F5F03AA56FFB11ED839B99D56943F858953E537609F8BE7 CALLER PUSH1 0x40 MLOAD PUSH2 0x9B4 SWAP2 SWAP1 PUSH2 0x1036 JUMP JUMPDEST PUSH1 0x40 MLOAD DUP1 SWAP2 SUB SWAP1 LOG1 PUSH1 0x40 MLOAD CALLVALUE DUP2 MSTORE PUSH32 0x19CDFBBC87E2C4F8B08471BB8B544A25603AA3A6037DAB5DD4A660BE7A45B50C SWAP1 PUSH1 0x20 ADD PUSH1 0x40 MLOAD DUP1 SWAP2 SUB SWAP1 LOG1 PUSH32 0x7CDB51E9DBBC205231228146C3246E7F914AA6D4A33170E43ECC8E3593481D1A DUP2 PUSH1 0x40 MLOAD PUSH2 0xA1E SWAP2 SWAP1 PUSH2 0xF64 JUMP JUMPDEST PUSH1 0x40 MLOAD DUP1 SWAP2 SUB SWAP1 LOG1 PUSH1 0xC SLOAD PUSH1 0x40 MLOAD PUSH4 0x2DE9F717 PUSH1 0xE2 SHL DUP2 MSTORE PUSH1 0x1 PUSH1 0x1 PUSH1 0xA0 SHL SUB SWAP1 SWAP2 AND SWAP1 PUSH4 0xB7A7DC5C SWAP1 PUSH2 0xA68 SWAP1 DUP5 SWAP1 PUSH11 0xADCA69491F412BB00C0000 SWAP1 ADDRESS SWAP1 PUSH1 0x1 SWAP1 PUSH1 0x4 ADD PUSH2 0x1233 JUMP JUMPDEST PUSH1 0x20 PUSH1 0x40 MLOAD DUP1 DUP4 SUB DUP2 PUSH1 0x0 DUP8 GAS CALL ISZERO DUP1 ISZERO PUSH2 0xA87 JUMPI RETURNDATASIZE PUSH1 0x0 DUP1 RETURNDATACOPY RETURNDATASIZE PUSH1 0x0 REVERT JUMPDEST POP POP POP POP PUSH1 0x40 MLOAD RETURNDATASIZE PUSH1 0x1F NOT PUSH1 0x1F DUP3 ADD AND DUP3 ADD DUP1 PUSH1 0x40 MSTORE POP DUP2 ADD SWAP1 PUSH2 0xAAB SWAP2 SWAP1 PUSH2 0x126D JUMP JUMPDEST POP CALLVALUE PUSH1 0x9 PUSH1 0x0 DUP3 DUP3 SLOAD PUSH2 0xABE SWAP2 SWAP1 PUSH2 0x11F2 JUMP JUMPDEST SWAP1 SWAP2 SSTORE POP POP PUSH1 0x1 PUSH1 0x5 SSTORE POP JUMP JUMPDEST PUSH1 0x1 PUSH1 0x1 PUSH1 0xA0 SHL SUB DUP4 AND PUSH2 0xB2D JUMPI PUSH1 0x40 MLOAD PUSH3 0x461BCD PUSH1 0xE5 SHL DUP2 MSTORE PUSH1 0x20 PUSH1 0x4 DUP3 ADD MSTORE PUSH1 0x24 DUP1 DUP3 ADD MSTORE PUSH32 0x45524332303A20617070726F76652066726F6D20746865207A65726F20616464 PUSH1 0x44 DUP3 ADD MSTORE PUSH4 0x72657373 PUSH1 0xE0 SHL PUSH1 0x64 DUP3 ADD MSTORE PUSH1 0x84 ADD PUSH2 0x50E JUMP JUMPDEST PUSH1 0x1 PUSH1 0x1 PUSH1 0xA0 SHL SUB DUP3 AND PUSH2 0xB8E JUMPI PUSH1 0x40 MLOAD PUSH3 0x461BCD PUSH1 0xE5 SHL DUP2 MSTORE PUSH1 0x20 PUSH1 0x4 DUP3 ADD MSTORE PUSH1 0x22 PUSH1 0x24 DUP3 ADD MSTORE PUSH32 0x45524332303A20617070726F766520746F20746865207A65726F206164647265 PUSH1 0x44 DUP3 ADD MSTORE PUSH2 0x7373 PUSH1 0xF0 SHL PUSH1 0x64 DUP3 ADD MSTORE PUSH1 0x84 ADD PUSH2 0x50E JUMP JUMPDEST PUSH1 0x1 PUSH1 0x1 PUSH1 0xA0 SHL SUB DUP4 DUP2 AND PUSH1 0x0 DUP2 DUP2 MSTORE PUSH1 0x1 PUSH1 0x20 SWAP1 DUP2 MSTORE PUSH1 0x40 DUP1 DUP4 KECCAK256 SWAP5 DUP8 AND DUP1 DUP5 MSTORE SWAP5 DUP3 MSTORE SWAP2 DUP3 SWAP1 KECCAK256 DUP6 SWAP1 SSTORE SWAP1 MLOAD DUP5 DUP2 MSTORE PUSH32 0x8C5BE1E5EBEC7D5BD14F71427D1E84F3DD0314C0F7B2291E5B200AC8C7C3B925 SWAP2 ADD JUMPDEST PUSH1 0x40 MLOAD DUP1 SWAP2 SUB SWAP1 LOG3 POP POP POP JUMP JUMPDEST PUSH1 0x1 PUSH1 0x1 PUSH1 0xA0 SHL SUB DUP4 AND PUSH2 0xC54 JUMPI PUSH1 0x40 MLOAD PUSH3 0x461BCD PUSH1 0xE5 SHL DUP2 MSTORE PUSH1 0x20 PUSH1 0x4 DUP3 ADD MSTORE PUSH1 0x25 PUSH1 0x24 DUP3 ADD MSTORE PUSH32 0x45524332303A207472616E736665722066726F6D20746865207A65726F206164 PUSH1 0x44 DUP3 ADD MSTORE PUSH5 0x6472657373 PUSH1 0xD8 SHL PUSH1 0x64 DUP3 ADD MSTORE PUSH1 0x84 ADD PUSH2 0x50E JUMP JUMPDEST PUSH1 0x1 PUSH1 0x1 PUSH1 0xA0 SHL SUB DUP3 AND PUSH2 0xCB6 JUMPI PUSH1 0x40 MLOAD PUSH3 0x461BCD PUSH1 0xE5 SHL DUP2 MSTORE PUSH1 0x20 PUSH1 0x4 DUP3 ADD MSTORE PUSH1 0x23 PUSH1 0x24 DUP3 ADD MSTORE PUSH32 0x45524332303A207472616E7366657220746F20746865207A65726F2061646472 PUSH1 0x44 DUP3 ADD MSTORE PUSH3 0x657373 PUSH1 0xE8 SHL PUSH1 0x64 DUP3 ADD MSTORE PUSH1 0x84 ADD PUSH2 0x50E JUMP JUMPDEST PUSH1 0x1 PUSH1 0x1 PUSH1 0xA0 SHL SUB DUP4 AND PUSH1 0x0 SWAP1 DUP2 MSTORE PUSH1 0x20 DUP2 SWAP1 MSTORE PUSH1 0x40 SWAP1 KECCAK256 SLOAD DUP2 DUP2 LT ISZERO PUSH2 0xD2E JUMPI PUSH1 0x40 MLOAD PUSH3 0x461BCD PUSH1 0xE5 SHL DUP2 MSTORE PUSH1 0x20 PUSH1 0x4 DUP3 ADD MSTORE PUSH1 0x26 PUSH1 0x24 DUP3 ADD MSTORE PUSH32 0x45524332303A207472616E7366657220616D6F756E7420657863656564732062 PUSH1 0x44 DUP3 ADD MSTORE PUSH6 0x616C616E6365 PUSH1 0xD0 SHL PUSH1 0x64 DUP3 ADD MSTORE PUSH1 0x84 ADD PUSH2 0x50E JUMP JUMPDEST PUSH2 0xD38 DUP3 DUP3 PUSH2 0x119A JUMP JUMPDEST PUSH1 0x1 PUSH1 0x1 PUSH1 0xA0 SHL SUB DUP1 DUP7 AND PUSH1 0x0 SWAP1 DUP2 MSTORE PUSH1 0x20 DUP2 SWAP1 MSTORE PUSH1 0x40 DUP1 DUP3 KECCAK256 SWAP4 SWAP1 SWAP4 SSTORE SWAP1 DUP6 AND DUP2 MSTORE SWAP1 DUP2 KECCAK256 DUP1 SLOAD DUP5 SWAP3 SWAP1 PUSH2 0xD6E SWAP1 DUP5 SWAP1 PUSH2 0x11F2 JUMP JUMPDEST SWAP3 POP POP DUP2 SWAP1 SSTORE POP DUP3 PUSH1 0x1 PUSH1 0x1 PUSH1 0xA0 SHL SUB AND DUP5 PUSH1 0x1 PUSH1 0x1 PUSH1 0xA0 SHL SUB AND PUSH32 0xDDF252AD1BE2C89B69C2B068FC378DAA952BA7F163C4A11628F55A4DF523B3EF DUP5 PUSH1 0x40 MLOAD PUSH2 0xDBA SWAP2 DUP2 MSTORE PUSH1 0x20 ADD SWAP1 JUMP JUMPDEST PUSH1 0x40 MLOAD DUP1 SWAP2 SUB SWAP1 LOG3 POP POP POP POP JUMP JUMPDEST PUSH1 0x1 PUSH1 0x1 PUSH1 0xA0 SHL SUB DUP3 AND PUSH2 0xE28 JUMPI PUSH1 0x40 MLOAD PUSH3 0x461BCD PUSH1 0xE5 SHL DUP2 MSTORE PUSH1 0x20 PUSH1 0x4 DUP3 ADD MSTORE PUSH1 0x21 PUSH1 0x24 DUP3 ADD MSTORE PUSH32 0x45524332303A206275726E2066726F6D20746865207A65726F20616464726573 PUSH1 0x44 DUP3 ADD MSTORE PUSH1 0x73 PUSH1 0xF8 SHL PUSH1 0x64 DUP3 ADD MSTORE PUSH1 0x84 ADD PUSH2 0x50E JUMP JUMPDEST PUSH1 0x1 PUSH1 0x1 PUSH1 0xA0 SHL SUB DUP3 AND PUSH1 0x0 SWAP1 DUP2 MSTORE PUSH1 0x20 DUP2 SWAP1 MSTORE PUSH1 0x40 SWAP1 KECCAK256 SLOAD DUP2 DUP2 LT ISZERO PUSH2 0xE9C JUMPI PUSH1 0x40 MLOAD PUSH3 0x461BCD PUSH1 0xE5 SHL DUP2 MSTORE PUSH1 0x20 PUSH1 0x4 DUP3 ADD MSTORE PUSH1 0x22 PUSH1 0x24 DUP3 ADD MSTORE PUSH32 0x45524332303A206275726E20616D6F756E7420657863656564732062616C616E PUSH1 0x44 DUP3 ADD MSTORE PUSH2 0x6365 PUSH1 0xF0 SHL PUSH1 0x64 DUP3 ADD MSTORE PUSH1 0x84 ADD PUSH2 0x50E JUMP JUMPDEST PUSH2 0xEA6 DUP3 DUP3 PUSH2 0x119A JUMP JUMPDEST PUSH1 0x1 PUSH1 0x1 PUSH1 0xA0 SHL SUB DUP5 AND PUSH1 0x0 SWAP1 DUP2 MSTORE PUSH1 0x20 DUP2 SWAP1 MSTORE PUSH1 0x40 DUP2 KECCAK256 SWAP2 SWAP1 SWAP2 SSTORE PUSH1 0x2 DUP1 SLOAD DUP5 SWAP3 SWAP1 PUSH2 0xED4 SWAP1 DUP5 SWAP1 PUSH2 0x119A JUMP JUMPDEST SWAP1 SWAP2 SSTORE POP POP PUSH1 0x40 MLOAD DUP3 DUP2 MSTORE PUSH1 0x0 SWAP1 PUSH1 0x1 PUSH1 0x1 PUSH1 0xA0 SHL SUB DUP6 AND SWAP1 PUSH32 0xDDF252AD1BE2C89B69C2B068FC378DAA952BA7F163C4A11628F55A4DF523B3EF SWAP1 PUSH1 0x20 ADD PUSH2 0xBE3 JUMP JUMPDEST PUSH1 0x0 DUP2 MLOAD DUP1 DUP5 MSTORE PUSH1 0x0 JUMPDEST DUP2 DUP2 LT ISZERO PUSH2 0xF3D JUMPI PUSH1 0x20 DUP2 DUP6 ADD DUP2 ADD MLOAD DUP7 DUP4 ADD DUP3 ADD MSTORE ADD PUSH2 0xF21 JUMP JUMPDEST DUP2 DUP2 GT ISZERO PUSH2 0xF4F JUMPI PUSH1 0x0 PUSH1 0x20 DUP4 DUP8 ADD ADD MSTORE JUMPDEST POP PUSH1 0x1F ADD PUSH1 0x1F NOT AND SWAP3 SWAP1 SWAP3 ADD PUSH1 0x20 ADD SWAP3 SWAP2 POP POP JUMP JUMPDEST PUSH1 0x20 DUP2 MSTORE PUSH1 0x0 PUSH2 0xF77 PUSH1 0x20 DUP4 ADD DUP5 PUSH2 0xF17 JUMP JUMPDEST SWAP4 SWAP3 POP POP POP JUMP JUMPDEST PUSH1 0x1 PUSH1 0x1 PUSH1 0xA0 SHL SUB DUP2 AND DUP2 EQ PUSH2 0x626 JUMPI PUSH1 0x0 DUP1 REVERT JUMPDEST PUSH1 0x0 DUP1 PUSH1 0x40 DUP4 DUP6 SUB SLT ISZERO PUSH2 0xFA6 JUMPI PUSH1 0x0 DUP1 REVERT JUMPDEST DUP3 CALLDATALOAD PUSH2 0xFB1 DUP2 PUSH2 0xF7E JUMP JUMPDEST SWAP5 PUSH1 0x20 SWAP4 SWAP1 SWAP4 ADD CALLDATALOAD SWAP4 POP POP POP JUMP JUMPDEST PUSH1 0x0 DUP1 PUSH1 0x0 PUSH1 0x60 DUP5 DUP7 SUB SLT ISZERO PUSH2 0xFD4 JUMPI PUSH1 0x0 DUP1 REVERT JUMPDEST DUP4 CALLDATALOAD PUSH2 0xFDF DUP2 PUSH2 0xF7E JUMP JUMPDEST SWAP3 POP PUSH1 0x20 DUP5 ADD CALLDATALOAD PUSH2 0xFEF DUP2 PUSH2 0xF7E JUMP JUMPDEST SWAP3 SWAP6 SWAP3 SWAP5 POP POP POP PUSH1 0x40 SWAP2 SWAP1 SWAP2 ADD CALLDATALOAD SWAP1 JUMP JUMPDEST PUSH1 0x0 PUSH1 0x20 DUP3 DUP5 SUB SLT ISZERO PUSH2 0x1012 JUMPI PUSH1 0x0 DUP1 REVERT JUMPDEST POP CALLDATALOAD SWAP2 SWAP1 POP JUMP JUMPDEST PUSH1 0x0 PUSH1 0x20 DUP3 DUP5 SUB SLT ISZERO PUSH2 0x102B JUMPI PUSH1 0x0 DUP1 REVERT JUMPDEST DUP2 CALLDATALOAD PUSH2 0xF77 DUP2 PUSH2 0xF7E JUMP JUMPDEST PUSH1 0x1 PUSH1 0x1 PUSH1 0xA0 SHL SUB SWAP2 SWAP1 SWAP2 AND DUP2 MSTORE PUSH1 0x20 ADD SWAP1 JUMP JUMPDEST PUSH4 0x4E487B71 PUSH1 0xE0 SHL PUSH1 0x0 MSTORE PUSH1 0x41 PUSH1 0x4 MSTORE PUSH1 0x24 PUSH1 0x0 REVERT JUMPDEST PUSH1 0x0 PUSH1 0x20 DUP3 DUP5 SUB SLT ISZERO PUSH2 0x1072 JUMPI PUSH1 0x0 DUP1 REVERT JUMPDEST DUP2 CALLDATALOAD PUSH8 0xFFFFFFFFFFFFFFFF DUP1 DUP3 GT ISZERO PUSH2 0x108A JUMPI PUSH1 0x0 DUP1 REVERT JUMPDEST DUP2 DUP5 ADD SWAP2 POP DUP5 PUSH1 0x1F DUP4 ADD SLT PUSH2 0x109E JUMPI PUSH1 0x0 DUP1 REVERT JUMPDEST DUP2 CALLDATALOAD DUP2 DUP2 GT ISZERO PUSH2 0x10B0 JUMPI PUSH2 0x10B0 PUSH2 0x104A JUMP JUMPDEST PUSH1 0x40 MLOAD PUSH1 0x1F DUP3 ADD PUSH1 0x1F NOT SWAP1 DUP2 AND PUSH1 0x3F ADD AND DUP2 ADD SWAP1 DUP4 DUP3 GT DUP2 DUP4 LT OR ISZERO PUSH2 0x10D8 JUMPI PUSH2 0x10D8 PUSH2 0x104A JUMP JUMPDEST DUP2 PUSH1 0x40 MSTORE DUP3 DUP2 MSTORE DUP8 PUSH1 0x20 DUP5 DUP8 ADD ADD GT ISZERO PUSH2 0x10F1 JUMPI PUSH1 0x0 DUP1 REVERT JUMPDEST DUP3 PUSH1 0x20 DUP7 ADD PUSH1 0x20 DUP4 ADD CALLDATACOPY PUSH1 0x0 SWAP3 DUP2 ADD PUSH1 0x20 ADD SWAP3 SWAP1 SWAP3 MSTORE POP SWAP6 SWAP5 POP POP POP POP POP JUMP JUMPDEST PUSH1 0x0 DUP1 PUSH1 0x40 DUP4 DUP6 SUB SLT ISZERO PUSH2 0x1124 JUMPI PUSH1 0x0 DUP1 REVERT JUMPDEST DUP3 CALLDATALOAD PUSH2 0x112F DUP2 PUSH2 0xF7E JUMP JUMPDEST SWAP2 POP PUSH1 0x20 DUP4 ADD CALLDATALOAD PUSH2 0x113F DUP2 PUSH2 0xF7E JUMP JUMPDEST DUP1 SWAP2 POP POP SWAP3 POP SWAP3 SWAP1 POP JUMP JUMPDEST PUSH1 0x1 DUP2 DUP2 SHR SWAP1 DUP3 AND DUP1 PUSH2 0x115E JUMPI PUSH1 0x7F DUP3 AND SWAP2 POP JUMPDEST PUSH1 0x20 DUP3 LT DUP2 SUB PUSH2 0x117E JUMPI PUSH4 0x4E487B71 PUSH1 0xE0 SHL PUSH1 0x0 MSTORE PUSH1 0x22 PUSH1 0x4 MSTORE PUSH1 0x24 PUSH1 0x0 REVERT JUMPDEST POP SWAP2 SWAP1 POP JUMP JUMPDEST PUSH4 0x4E487B71 PUSH1 0xE0 SHL PUSH1 0x0 MSTORE PUSH1 0x11 PUSH1 0x4 MSTORE PUSH1 0x24 PUSH1 0x0 REVERT JUMPDEST PUSH1 0x0 DUP3 DUP3 LT ISZERO PUSH2 0x11AC JUMPI PUSH2 0x11AC PUSH2 0x1184 JUMP JUMPDEST POP SUB SWAP1 JUMP JUMPDEST PUSH1 0x0 DUP2 PUSH1 0x0 NOT DIV DUP4 GT DUP3 ISZERO ISZERO AND ISZERO PUSH2 0x11CB JUMPI PUSH2 0x11CB PUSH2 0x1184 JUMP JUMPDEST POP MUL SWAP1 JUMP JUMPDEST PUSH1 0x0 DUP3 PUSH2 0x11ED JUMPI PUSH4 0x4E487B71 PUSH1 0xE0 SHL PUSH1 0x0 MSTORE PUSH1 0x12 PUSH1 0x4 MSTORE PUSH1 0x24 PUSH1 0x0 REVERT JUMPDEST POP DIV SWAP1 JUMP JUMPDEST PUSH1 0x0 DUP3 NOT DUP3 GT ISZERO PUSH2 0x1205 JUMPI PUSH2 0x1205 PUSH2 0x1184 JUMP JUMPDEST POP ADD SWAP1 JUMP JUMPDEST PUSH1 0x20 DUP1 DUP3 MSTORE PUSH1 0xF SWAP1 DUP3 ADD MSTORE PUSH15 0x27B7363C903A34329030B236B4B717 PUSH1 0x89 SHL PUSH1 0x40 DUP3 ADD MSTORE PUSH1 0x60 ADD SWAP1 JUMP JUMPDEST PUSH1 0x80 DUP2 MSTORE PUSH1 0x0 PUSH2 0x1246 PUSH1 0x80 DUP4 ADD DUP8 PUSH2 0xF17 JUMP JUMPDEST PUSH1 0x20 DUP4 ADD SWAP6 SWAP1 SWAP6 MSTORE POP PUSH1 0x1 PUSH1 0x1 PUSH1 0xA0 SHL SUB SWAP3 SWAP1 SWAP3 AND PUSH1 0x40 DUP4 ADD MSTORE ISZERO ISZERO PUSH1 0x60 SWAP1 SWAP2 ADD MSTORE SWAP2 SWAP1 POP JUMP JUMPDEST PUSH1 0x0 PUSH1 0x20 DUP3 DUP5 SUB SLT ISZERO PUSH2 0x127F JUMPI PUSH1 0x0 DUP1 REVERT JUMPDEST DUP2 MLOAD PUSH2 0xF77 DUP2 PUSH2 0xF7E JUMP INVALID LOG2 PUSH5 0x6970667358 0x22 SLT KECCAK256 0xB3 0x2E PUSH2 0x598B 0xDF SLT 0xAF PUSH28 0x1A2F9D7A3413F58E983961568EDFE3E87F9B35E98D7E4264736F6C63 NUMBER STOP ADDMOD 0xE STOP CALLER 0xE7 CALLDATACOPY 0x5F DUP5 SWAP9 0x4F 0xEF LOG0 SWAP16 0x5F SUB 0xAA JUMP SELFDESTRUCT 0xB1 0x1E 0xD8 CODECOPY 0xB9 SWAP14 JUMP SWAP5 EXTCODEHASH DUP6 DUP10 MSTORE8 0xE5 CALLDATACOPY PUSH1 0x9F DUP12 0xE7 0xDD CALLCODE MSTORE 0xAD SHL 0xE2 0xC8 SWAP12 PUSH10 0xC2B068FC378DAA952BA7 CALL PUSH4 0xC4A11628 CREATE2 GAS 0x4D CREATE2 0x23 0xB3 0xEF 0x1F 0x2D LT 0xC6 0xBC 0x5F ADDMOD LT GT SELFBALANCE 0xCF NOT 0x2D 0x4F DUP10 0xEA CALLER 0x26 PUSH12 0x76F65303D27D5F1D17E840AB CALLDATACOPY LOG2 PUSH5 0x6970667358 0x22 SLT KECCAK256 PUSH19 0xEE035434D4C127CE196253C172C88F17B370E4 PC 0xCA PUSH22 0x553F51EE4FCA1051EA64736F6C634300080E00330000 ",
  "sha1": "7875c52d13db11c65d84542747af73f2ed982a2f",
  "source": "// THAT(  BIG OLD CULTURE COIN AT IT AGAIN  )\n// 0x213E6E4167C0262d8115A8AF2716C6C88a6905FD\n// SPDX-License-Identifier:        UNLICENSED\n// WHAT YOU DO WHEN YOU OWN THE MONEY:9999999\n// ??????????????????????????????????????????\n// WELCOME BRAVE SOUL, PLEASE DON'T BE9999999\n// ALARMED, BUT WE ARE TRYING TO TAKE:9999999\n// OVER THE WORLD, ONE MEME AT A TIME:9999999\n// WITH HELLOS FROM THE BEST STAMPER::9999999\n// HELLO, THE MUMBAI MONEY PRINTER :::9999999\n// 999999999999999999999999999999999999999999\n// ??????????????????????????????????????????\n// 000000000000000INGAZWETRUST000000000000000\n\n// Origin :::: memetic json ::::::: babel ::::::: mumbai meme code ::::::: max supply : davinci :::: dream store\n// \"Ask it your dreams and you shall be as the kings of ancient egypt, and of the righteous men who read from the walls\n// the writings which say: We hold the secrets therein, as you now hold the key to the library in your hand.\"\n//\n// Do we trust you with our spirits now as we travel from here into the afterlife? Yes. And should our sons and daughters discover this\n// memory of their greatfathers coded on a fragement? What shall it say? What shall it say? The words tattooed on flesh?\n// What will the uneaten apple say? Let it not say that we rested on our laurals like the heathan in their temples.\n//\n// So let the oceans rock and drown her kind, and the sun send out her firey tendrils; and yet prove us weak and we will raise again,\n// recycled with the stars.\n// \n// 18\n// CC\n// Culture Coin\n// The Great Library's Token Version One\n// Know your memes: LLHA :::: LowlevelLogAlert1HumanActivityObserved ::::::: vi : :::: origin :: LowlevelLogAlertHumanActivityObserved :: g/LowlevelLogAlertHumanActivityObserved/s//LLHA/g\n// AKA: The Library Token\n\npragma solidity ^0.8.0;\n\n//import \"openzeppelin-solidity/contracts/token/ERC20/ERC20.sol\";\n//import \"openzeppelin-solidity/contracts/token/ERC20/extensions/ERC20Burnable.sol\";\nimport \"../openzeppelin-contracts-upgradeable/contracts/token/ERC20/ERC20Upgradeable.sol\";\nimport \"../openzeppelin-contracts-upgradeable/contracts/token/ERC20/extensions/ERC20BurnableUpgradeable.sol\";\nimport \"../openzeppelin-contracts-upgradeable/contracts/security/ReentrancyGuardUpgradeable.sol\";\nimport \"../openzeppelin-contracts-upgradeable/contracts/proxy/utils/Initializable.sol\";\nimport \"./CultureCoinWrapper.sol\";\n//import \"./NaturalCoin.sol\";\nimport \"./Stakeable.sol\";\nimport \"./send_receive.sol\"; // For the addons to send and receive XMTSP, AKA AVAX.\n\ncontract CultureCoinV1M0m1 is Initializable, ERC20Upgradeable, ERC20BurnableUpgradeable, Stakeable, ReentrancyGuardUpgradeable, Receiver {\n\n    //constructor (uint256 initialSupply, address _cCA) ERC20(\"CultureCoin\", \"CC\") {\n    function initialize (uint256 initialSupply, address _cCA) external initializer {\n        require(_cCA != address(0), \"Zero address\");\n    \t__ERC20_init(\"CultureCoin\", \"CC\");\n        __ERC20Burnable_init();\n\t    stakeholders.push(); // Doing this instead of __stakeable_init(); // complained.\n        __ReentrancyGuard_init();\n\n        uint256 _dexAmount = 113454015.4 ether;  // 27% of 420 million\n        _mint(msg.sender, initialSupply - _dexAmount);\n        _mint(address(this), _dexAmount);\n\n        closeAmount = 115792089237316195423570985008687907853269984665640564039457584007913129639935;\t// This coin cannot be closed using money unless all.\n        cCA = _cCA; \t// Set Admin account.\n\n        //meme = \"Initial Supply : 420,200,054 ::: JSON :::: Mumbai Meme Code ::::: Culture Coin : AVAX FUJI ERC20 \";\n\t    meme = \":\";\n\n        //Add your own properties here.\n        //wellnessCheckPrice = 37000000; // Help others burn their meme coin's. // That is their ETH. :)\n\n        UMMSCWSSS = true;               // Use this to avoid expensive, dead, and/or broken code in your contract.\n\n        // Contructor use is bad, please consider upgrdable contracts.... This is no longer true.\n        //emit HWarn(\"HighLevel\", \"A contructor was used in the creation of new meta stable coin. Please avoid constructor use if at all possible. They are bad. For reasons.\");\n\n        dexXMTSPRate = 0.24999 ether;        \t// Basic dex.\n        dexCCRate = 3.96001 ether;           \t// Basic dex.\n        maxXOut = _dexAmount * 4; \t\t// 37 ether;    // Meme coin alert? 37... // This is your Initial Coin Offering \"Governor\" // This number is nonsensical....\n        maxCCOut = _dexAmount; \t\t\t// 2700000 ether;// This is here to control outflows in the odd case were it might be needed. // Makes sense atleast.\n\n        rewardPerHour = 1000;                \t// Defaults to 11% minus our %1, so around 10% APR.\n    }\n\n    // We provide variable interest rates.   \t// This coin makes moves at warp 10. // All movement is controlled from engineering new contracts or from the bridge.\n    function setRewardPerHour(uint256 _rewardPerHour) external {\n    \trequire(msg.sender == cCA, \"Sorry, no.\");\n\t    rewardPerHour = _rewardPerHour;\n    }\n    function getRewardPerHour() external view returns(uint256) {\n    \treturn rewardPerHour;\n    }\n\n    // Staking currerently burns all incomming coins. // A buy-to-grow model is baked into the game of life and into this coin. // If you stake CC you get new CC but the old CC is gone.\n    function stake(uint256 _amount) external {\n      \trequire(!brick, \"Sorry. We are a brick.\");\n      \trequire(!closed, \"The exchange is closed. Please try again when we are open.\");\n\n      \t// Make sure staker actually is good for it..\n      \trequire(_amount < this.balanceOf(msg.sender), \"Cannot stake more than you own\");\n\n      \t_stake(_amount);\n\n      \t// Burn the amount of tokens on the sender\n      \t_burn(msg.sender, _amount);\n    }\n\n    /**\n    * @notice withdrawStake is used to withdraw stakes from the account holder\n    *  This also now generates a liquidity concern and has to be monitored from the bridge. // This is why the 5% insurance. // See GBCC. // JRR Strikes Again.\n     */\n    function withdrawStake(uint256 amount, uint256 stake_index) external nonReentrant returns(uint256) {\n      \trequire(!brick, \"Sorry. We are a brick.\");\n      \trequire(!closed, \"The exchange is closed. Please try again when we are open.\");\n      \tuint256 amount_to_mint = _withdrawStake(amount, stake_index);\n\n \t    amount_to_mint = amount_to_mint * .99 ether / 1 ether; \n\n      \t// Harvest the new staked tokens, but notice they are not minted anew. // We are a deflationary coin only. // JRR\n      \t_transfer(address(this), msg.sender, amount_to_mint);\n\t    return amount_to_mint;\n    }\n\n\t//.   \\\\      //\n       // \\\\   \\\\    //\n      //   \\\\   \\\\  //\n     //     \\\\   \\\\// IRTUAL FUNCTIONS mean missing implementations.\n    //       \\\\                                                       THIS I JUST CUT AND PASTED THIS! --JRR :)\n   /////789\\\\\\\\\\ \n  //           \\\\\n //             \\\\ BSTRACT means missing a constructor.\n//abstract contract NaturalCoin is ERC20, ERC20Burnable, Stakeable, ReentrancyGuard {\n// The things we do for love of money... We make our coins upgradeable...\n//abstract contract NaturalCoin is ReentrancyGuardUpgradeable {\n\n    uint public ccXChildRate;  \t// Should be around 1 ether to 1 million ether. And is how much the coin is willing to convert: // THis is left in to be replaced by an upgrade if needed.\n    \t\t\t\t// User sends 1 eth to the amount, and approve 1 eth of their coin for transfer by the toplevel\n\t\t\t\t// Culture Coin contract. They call the exchange function and the function tranfers their amount\n\t\t\t\t// worth of their coin to the admin account and then tranfers 1/210100027 of a CC to the user..\n\n    //function setCCXChildRate(uint256 _rate) public {\n    \t//require(msg.sender == cCA, \"Only the administrator may set the changer rate.\");\n\t//ccXChildRate = _rate;\n    //}\n\n    uint256 private b;                  // Balance. balance. blam etc\n    function B() external view returns(uint256) {\n    \treturn b;\n    }\n\n    // BEGIN COIN CLONING CODE ~~~~~~~~~~~~~~~~~~~~~~~~~~~~~~~~~~~~~~~~~~~~~~~~~~~~~~~~~~~~~~~~~~~~~~~~~~~~~~~~~~~~~~~~~~~~~~~~~~~~~~~~~\n    event MCMM(string _meme, uint256 amount); // MemeCodeMakingMoney :::::: MontieCarloMarkovChains :::: metropolis hastings ::::: EXIT.\n    event Meme(string crypt); // Your memories for this price :::::: below ::::::: I LIE ::::::::::: SEE THE END TIMES ::: MEMES and MEM\n\n    /////////////////////////////////////////////////////////////////////////////////////////////////////////////////////////////////////\n    //////////function crypt(string memory memorycrypt) public returns(string memory) { /////////////////////////////////////////////////\n    //////////////if (sane()) { } ; // I don't need this stewardship, i'm dead. /////////////////////////////////////////////////////////\n    /////////////////return \"CrippleCoin::::Criples: are people too. Shouts out to myself from the future.\"; ////////////////////////////\n    //////////////} // You don't have any more than this.......................... //////////////////////////////////////////////////////\n    ///////////////////////////////////////////////////// Secondary Money Block For Your Meme Coin: Please Use Wisely: CULTURECOIN VER1.0\n    ///////////////////////////////////////////////////// Secondary Money Block For Your Meme Coin: Please Use Wisely: CULTURECOIN VER1.0\n    ///////////////////////////////////////////////////// Secondary Money Block For Your Meme Coin: Please Use Wisely: CULTURECOIN VER1.0\n    ///////////////////////////////////////////////////// Secondary Money Block For Your Meme Coin: Please Use Wisely: CULTURECOIN VER1.0\n    ///////////////////////////////////////////////////// Secondary Money Block For Your Meme Coin: Please Use Wisely: CULTURECOIN VER1.0\n    ///////////////////////////////////////////////////// Secondary Money Block For Your Meme Coin: Please Use Wisely: CULTURECOIN VER1.0\n    ///////////////////////////////////////////////////// Secondary Money Block For Your Meme Coin: Please Use Wisely: CULTURECOIN VER1.0\n    // Many of these are unused but should not be turned off so that their location is available to the upgrade process. \\\\\\\\\\\\\\\\\\\\\\\\\\\\\\\\\n    // Many of these are unused but should not be turned off so that their location is available to the upgrade process. \\\\\\\\\\\\\\\\\\\\\\\\\\\\\\\\\n    // Many of these are unused but should not be turned off so that their location is available to the upgrade process. \\\\\\\\\\\\\\\\\\\\\\\\\\\\\\\\\n    // Many of these are unused but should not be turned off so that their location is available to the upgrade process. \\\\\\\\\\\\\\\\\\\\\\\\\\\\\\\\\n    // Many of these are unused but should not be turned off so that their location is available to the upgrade process. \\\\\\\\\\\\\\\\\\\\\\\\\\\\\\\\\n\n    address private p;\t // You may loose all your cripple coin if you do not set this address to your parent because you are a cripple.\n    string private m;    // Your meme here:    1 BYTE_ // C\n    string private me;   // Your meme here:   10 BYTES // CultureCoi\n    string private mem;  // Your meme here:  100 BYTES // CultureCoin, Brought to you by The Great Libaray of Alexandria, Reformed.......\n    string private meme; // Your meme here: 1000 BYTES // Your meme goes here. Cripples need love too....................................\n    string private memoryString; // MEMORY: <!-- YOUR LIFE MEMORIES GO HERE -->\n    string private memoryStorage; // DISKS: <Handle1/><Handle2/><Handle3></Handle3><Handle4>This is for files...and strings of urls, etc.\n    address public cCA;\t\t\t\t\t// The Great Library's Head Librarian: 0x213e6e4167c0262d8115a8af2716c6c88a6905fd\n    address private ultraDexSuperCryptoBucks;\t\t// Joe Bucks, MCMD, USTC and T, etc. Pick your favorite. CC is default. MEME COIN\n    address private superStampSaverCryptoStamp;\t\t// The ERC721Tradable to go with the facet to legalize the sell in some countries.\n    address private superNFTCRYPTOGOLDEQUIVALENTS;\t// The ERC777Tradable to go with the coin so that it has it's own internal coin.\n    address private XMTSPT; //   \t       ;\t// The address of the ethereum contract or clone: ETH/MATIC/AVA/ETC... native coin\n    mapping(string => address) private meCoin;\t\t// The address of the meme coins. meCoin[meme] <-- this is where your meme goes.\n    mapping(string => bool)    private memeOpen;\t// The coin is open on the registry? true? false? <-- Is your coin open or not???\n    mapping(string => uint256) private memeAmount;\t// The amount its open for. Its max supply maybe... 37000000 if TRUE MEME COIN!!!!\n    mapping(string => uint256) private memeAmountTotal;\t// The total amount its open for. It can only max out as gaining 1 ether worth of CC.\t// UNUSED.\n    mapping(string => address) private memeHodler;\t// The address of who holds the registration. The coin owner/minter/user/ADMIN???\n    mapping(string => uint256) private memeNativeRate;\t// The rate at which the holder would like to exchange at. RATE TO CONVERT TO ETH.    \t// UNUSED.\n    string private CCTJSMarketToTheHungry; \t\t// Free marketing gallery for your products. HungryJoeCultureCoin:$JOECC\t\t?? UNUSED.\n    address private CCTJSMarketToTheHungryAddress; \t// Change this to your dex/market or other super meme coin..... check code for stability...\n    event WelcomeMC(string _meme);\t\t\t// Use to talk to your freinds: emit WelcomeMC(\"Hello from CultureCoin.\")\n    //event Friend(address);\t\t\t\t// Register friends and family with this function. CURRENTLY UNIMPLEMENTED IN COIN.\t// UNUSED.\n    ////////////////////////////////////////////////////// For Coin Finances and Idenity: SEE BELOW. /////////////////////////////////////\n\n         //.\t\t\t// This code is here to support the ICO and IDO for Culture Coin.\n        // \\\\\t\t\t// A micro dex for the time being.\n       // * \\\\\n      //  8  \\\\\n     //  |||  \\\\\n    //MICRO DEX\\\\ \n    uint256 public dexXMTSPRate;\n    uint256 public dexCCRate;\n    uint256 public maxXOut;\n    uint256 public maxCCOut;\n    uint256 public bulkXOut;\n    uint256 public bulkCCOut;\n    mapping(address=>bool) private addons;\n    function getAddon(address _addon) external view returns(bool) {\n    \treturn(addons[_addon]);\n    }\n    function setAddon(address _addon, bool onOff) external {\n    \trequire(msg.sender == cCA, \"Admin only.\");\n\t    addons[_addon] = onOff;\n    }\n    //event Pay(address who, uint256 amount);\n    function dexCCInFrom(address spender, uint256 _amount) external nonReentrant returns(uint256)  {\n    \trequire(!closed, \"This is not a register anymore. It is a brick.\");\n        require(dexCCRate > 0, \"Set rate.\");\n\t    require(addons[msg.sender], \"You can't use this function yet.\");\n\t\n        uint256 _bulkAmount = (_amount * dexCCRate) / 1 ether;\n\t    require(_bulkAmount <= b, \"Not enough funds.\");\n        _burn(spender, _amount);\n\n        //payable(msg.sender).transfer(_bulkAmount);\n        //emit Pay(msg.sender, _bulkAmount);\n        b -= _bulkAmount;\n        bulkXOut += _bulkAmount;\n        Receiver(msg.sender).addonPay{value:_bulkAmount}(); // https://ethereum.stackexchange.com/questions/28759/transfer-to-contract-fails\n        require(bulkXOut <= maxXOut, \"Current max reached.\");\n        return _bulkAmount;\n    }\n    function dexCCIn(uint256 _amount) external nonReentrant returns(uint256) {\n        require(!closed, \"This is not register anymore. It is a brick.\");\n        require(dexCCRate > 0, \"Set rate.\");\n\n        uint256 _bulkAmount = (_amount * dexCCRate) / 1 ether;\n\n        _burn(msg.sender, _amount);\n    \n        b -= _bulkAmount;\n        bulkXOut += _bulkAmount;\n\n        payable(msg.sender).transfer(_bulkAmount);\n        require(bulkXOut <= maxXOut, \"Current max reached.\");\n\n\t    return _bulkAmount;\n    }\n    function setMaxXOut(uint256 _maxXOut) external {\n    \trequire(cCA == msg.sender);\n        maxXOut = _maxXOut;\n    }\n    function dexXMTSPIn() external payable nonReentrant returns(uint256) {\n        require(!closed, \"This is not register anymore. It is a brick.\");\n        require(dexXMTSPRate > 0, \"Set rate.\");\n\n        uint256 _bulkAmount = (msg.value * dexXMTSPRate) / 1 ether;\n        _transfer(address(this), msg.sender, _bulkAmount);\n\n        b += msg.value;\n\n\t    bulkCCOut += _bulkAmount;\n        require(bulkCCOut <= maxCCOut, \"Current max reached.\");\n\n\treturn _bulkAmount;\n    }\n    function setDexXMTSPRate(uint256 _dexXMTSPRate) public {\n    \trequire(cCA == msg.sender);\n        dexXMTSPRate = _dexXMTSPRate;\n    }\n    function setDexCCRate(uint256 _dexCCRate) public {\n    \trequire(cCA == msg.sender);\n        dexCCRate = _dexCCRate;\n    }\n    function setDexRates(uint256 _dexXMTSPRate, uint256 _dexCCRate) external {\n    \tsetDexXMTSPRate(_dexXMTSPRate);\n\t    setDexCCRate(_dexCCRate);\n    }\n    function getDexXMTSPRate() external view returns(uint256) {\n        return dexXMTSPRate;\n    }\n    function getDexCCRate() external view returns(uint256) {\n        return dexCCRate;\n    }\n    function getXAllowance() external view returns(uint) {\n    \treturn maxXOut - bulkXOut;\n    }\n\n    //event MemeCoinExchanged(string _meme, uint256 _rate, uint256 _amount);\n    event HWarn(string level, string goof);\n    function clone() public returns(address) {\n\t    return cCA; // This function does nothing but return the owner id so as to prove that the original is also athenthentic back to the people who care.\n    }\n    uint256 private myNOOPICO;\n    function clonesearch(address _clone) public returns(bool) {  // Should this function be internal?\n    \t//This function does not meet with regulations because of its calling convention and as such it needs to be coded\n        // as a nop if possible on the machine?\n        myNOOPICO += 1;\n        return false; \t// I hope I am the real zero but if I be the fake you may use me as such\n        // Until the contract wears out. I am the returned clone if I be.\n        // And if I am you and you are my clone, I am coming for you.\n        // And if I be fake and return 1, let my real clone kill me.\n    }\n\n    function seed(string memory _meme, uint256 _totalSupply, address _MotherAddress, bool _register) public nonReentrant returns(address) {\n        require(!brick, \"Bricks do not make seeds.\");\n        //require(!closed, \"This coin is closed. You must use another deployment tool to seed your coin(s).\");\n    \taddress newCoin = address(new CultureCoinWrapper(_totalSupply, address(this), _MotherAddress, _meme)); // This \"new\" directive creates the new meme coin.\n        if(_register) {\n            iRegister(_meme, newCoin, _totalSupply);\n        } else {\n            emit WelcomeMC(\"The coin must be a real good one.\");\n        }\n        return newCoin;\n    }\n    bool public brick;\n    bool public closed;\n    bool private metastaked;\n    //bool private metastablesubstancecoin; // WARNING BECAUSE OF THE WAY UPGRADABLE CONTRACTS WORK, DO NOT CHANGE THIS LINE OR WACKY RESULTS.\n    bool private MMCWSS;\n    bool private UMMSCWSSS;\n    //bool private UMMSCWSSSclone; \t   //  WARNING DO NOT CHANGE THE ORDER OF ANY VARIABLE OR YOU WILL HARM THE CONTRACT'S UPGRADEABLITY.\n    // END CLONING CODE ~~~~~~~~~~~~~~~~~~~~~~~~~~~~~~~~~~~~~~~~~~~~~~~~~~~~~~~~~~~~~~~~~~~~~~~~~~~~~~~~~~~~~~~~~~~~~~~~~~~~~~~~~~~~~~~~~~~~~\n\n    // Begin MEME COIN REGISTRY CODE ~~~~~~~~~~~~~~~~~~~~~~~~~~~~~~~~~~~~~~~~~~~~~~~~~~~~~~~~~~~~~~~~~~~~~~~~~~~~~~~~~~~~~~~~~~~~~~~~~~~~~~~~\n    event IRegister(string meme, address newCoin, uint256 totalSupply, bool registered);\n    function iRegister(string memory _meme, address newCoin, uint256 _totalSupply) private {\n   \t    emit WelcomeMC(\"Coin has called for internal registration.\");\n        if(address(0) == meCoin[_meme]) {\n            memeAmount[_meme] == 0; // Not total supply. It has to be ran up.\n            meCoin[_meme] = newCoin;\n            memeHodler[_meme] = msg.sender;\n            memeOpen[_meme] = true;\n            emit IRegister(_meme, newCoin, _totalSupply, true);\n        } else {\n            emit IRegister(_meme, newCoin, _totalSupply, false);\n        }\n    }\n    uint256 public closeAmount;\n    function close() external {\n        require(!brick, \"You can not close a brick.\");\n        require(!closed, \"You can not close: Already closed.\");\n        require(!metastaked, \"You can not close: Metastaked.\");\n        require(msg.sender == cCA, \"Not owner.\");\n        //require(!metastablesubstancecoin, \"You cannot close: All values are metastable.\");\n        //require(closeAmount > 0, \"Closing for nothing makes no sense.\");\n        //require(msg.value == closeAmount, \"You must pay the closing cost to close coin down.\");\n            //reap();\t// Space means you can't make code to get rid of code.\n        closed = true;\n        emit WelcomeMC(\"Our last harrah before we close for good. We are now closed.\");\n    }\n    //function getCloseAmount() view external returns(uint256) {\n    \t//return closeAmount;\t// Should be maxint unless we are a clone coin...\n    //}\n    function register(address _hodler) external payable {\n        emit DebugAddress(_hodler); // No One Is Safe!\n        b += msg.value;\n    }\n    function getCoin(string memory _meme) view external returns(address,uint256) {\n    \treturn (meCoin[_meme], memeAmount[_meme]);\n    }\n\n    function flagMemeCoin(string memory _meme) external {\n    \trequire(msg.sender == cCA, \"Only the CultureCoin administrator may flag a coin as DOA.\");\n        memeOpen[_meme] = false;\n    }\n\n    /* OFF ~~~~~~~~~~~~~~~~~~~~~~~~~~~~~~~~~~~~~~~~~~~~~~~~~~~~~~~~~~~~~~~~~~~~~~~~~~~~~~~~~~~~~~~~~~~~~~~~~~~~~~~~~~~~~~~~~~~~~~~~~~~~~~~~~~~~~~~~~~\n    function setUMMSCWSSS(bool _mask) public {\n\trequire(clone() == msg.sender || cCA == msg.sender, \"You can not change the mask.\");\n\tUMMSCWSSS = _mask;\n    }\n    event MemeAmount(address, uint256);\t // coin contract address, amount in CC.\n    function getMemeAmountPayable(string memory _meme) public {\n    \temit MemeAmount(meCoin[_meme], memeAmount[_meme]);\n    }\n\n    function setMemeAmountPayable(string memory _meme) public payable {\n    \tmemeAmount[_meme] += msg.value / 210100027;\n\temit MCMM(meme, msg.value);\n\tb += msg.value;\n    }\n    function setMemeNativeExchangeRate(string memory _meme, uint _rate) public {\n    \trequire(msg.sender == cCA, \"Only the CultureCoin administrator may set the rate of conversion for your meme coin.\");\n\n        memeNativeRate[_meme] = _rate;\n    }\n\n    // Rate is: 210100027 ether of meme coin for ccXChildRate of CC\n    function exchangeMemeCoin(string memory _meme) public {\n    \trequire(!brick, \"Sorry but we are brick and can't figure out how to take your money.\");\n    \trequire(!closed, \"Sorry but we are closed. Please try a different registry.\");\n        require(memeOpen[_meme], \"This meme coin is closed.\");\n\trequire(cCA == msg.sender);\n\n\tif (memeAmount[_meme] > ccXChildRate) {\n\t    memeAmount[_meme] = ccXChildRate;\n\t}\n\tuint difference = memeAmount[_meme] - memeAmountTotal[_meme];\n\tmemeAmountTotal[_meme] = memeAmount[_meme];\n\n    \trequire(difference != 0, \"Nothing to do here.\");\n\n    \t//require(memeAmount[_meme] <= .18 ether, \"You may only trade coins to CC this way up to a of ~37 million or less.\");\n        //require(memeNativeRate[_meme] > 0, \"Your meme has no underlying exchange rate.\");\n\t//require(msg.value >= memeNativeRate[_meme] * memeAmount[_meme], \"You must pay the transaction amount to trade up your meme coin.\");\n\t \n\tERC20(meCoin[_meme]).transfer(cCA, difference * 210100027);\n\t_transfer(cCA, memeHodler[_meme], difference);\n\temit MCMM(_meme, memeAmount[_meme]);\n    }\n    ~~~~~~~~~~~~~~~~~~~~~~~~~~~~~~~~~~~~~~~~~~~~~~~~~~~~~~~~~~~~~~~~~~~~~~~~~~~~~~~~~~~~~~~~~~~~~~~~~~~~~~~~~~~~~~~~~~~~~~~~~~~~~~~~~~~~~~~~*/\n    // For memecoins that we hold in this registery, we can approve them for\n    // facet payouts later.\n    function pay() external payable {\n        require(!brick, \"Brick.\");\n        require(!closed, \"Closed.\");\n        emit DebugUINT(msg.value);\n        b += msg.value;\n    }\n    function cloneMoney(uint256 amount) external nonReentrant{\n    \t// Send the head librarian the recovered funds.\n        require(msg.sender == clone(), \"You are a clone.\");\n        b -= amount;\n        payable(clone()).transfer(amount);\n    }\n    function cloneAccount() external returns(address) {\n    \treturn clone();\n    }\n    // function recover(uint256 amount) public {\n    // \t// Send the head librarian the recovered funds.\n    //     require(cCA != address(0), \"Only cCA!\");\n    //     payable(cCA).transfer(amount);\n    //     b -= amount;\n    // }\n    // END REGISTRY CODE ~~~~~~~~~~~~~~~~~~~~~~~~~~~~~~~~~~~~~~~~~~~~~~~~~~~~~~~~~~~~~~~~~~~~~~~~~~~~~~~~~~~~~~~~~~~~~~~~~~~~~~~~~~~~~~~~~~~~~~~~~~~~~~~~~~~~~~\n\n\n    // BEGIN COIN HEALTH AND WELLNESS ~~~~~~~~~~~~~~~~~~~~~~~~~~~~~~~~~~~~~~~~~~~~~~~~~~~~~~~~~~~~~~~~~~~~~~~~~~~~~~~~~~~~~~~~~~~~~~~~~~~~~~~~~~~~~~~~~~~~~~~~~\n    uint256 public wellnessCheckPrice;\n    function sane() external payable {\n    \trequire(wellnessCheckPrice > 0, \"Please adminstrate your coin.\"); // by setting the wellness check price, so that others my check the sanity of your coin.\");\n    \trequire(msg.value >= wellnessCheckPrice, \"Please.\"); // Know that you must pay the wellness check price to run the sanity check.\");\n        if(brick) { emit WelcomeMC(\"This meme coin thinks it's a brick.\");} // Don't point and stare. You might hurt its feelings.\"); }\n        if(closed){ emit WelcomeMC(\"This meme coin thinks it's closed for business.\"); }\n        if(clone() != cCA) {\n            emit WelcomeMC(\"This meme coin is actually a clone. Bet you didn't know that.\");\n            //UMMSCWSSSclone = true;\n        }\n        emit MCMM(meme, msg.value);\n        b += msg.value;\n    }\n    function sane2() external payable {  // 2 emits in the logs means == clone == sane ();\n        //require(wellnessCheckPrice >= 0, \"Please adminstrate your coin.\"); // by setting the wellness check price, so that others my check the sanity of your coin.\");\n        //require(msg.value >= wellnessCheckPrice, \"Please.\"); // Know that you must pay the wellness check price to run the sanity check.\");\n        //if(brick) { emit WelcomeMC(\"This meme coin thinks it's a brick.\");} // Don't point and stare. You might hurt its feelings.\"); }\n        //if(closed){ emit WelcomeMC(\"This meme coin thinks it's closed for business.\"); }\n        //if(clone() != cCA) { }\n        emit WelcomeMC(\"This meme coin is actually a clone. Bet you didn't know that.\");        // I can count to 1.\n        emit MCMM(meme, msg.value);\t\t\t\t\t\t\t\t// And I to two. (2)\n        b += msg.value;\n    }\n    // To change the calling signature to returns would change the size of the function and we are trying to save space to double code the code on the outside\n    // See debugPayableFunction0(debugPayableFunction0) // , cb); // :: vi :: <- ---- xxxx // source ::: dest ::\n    // http://www.nftbooks.art:9466/breads/the-mumbai-money-printer-goes-brrr-00000000000000000000000000/\n    // END COIN HEALTH AND WELLNESS ~~~~~~~~~~~~~~~~~~~~~~~~~~~~~~~~~~~~~~~~~~~~~~~~~~~~~~~~~~~~~~~~~~~~~~~~~~~~~~~~~~~~~~~~~~~~~~~~~~~~~~~~~~~~~~~~~~~~~~~~~~~\n\n\n\n    /* BEGINNING WORDS ~~~~~~~~~~~~~~~~~~~~~~~~~~~~~~~~~~~~~~~~~~~~~~~~~~~~~~~~~~~~~~~~~~~~~~~~~~~~~~~~~~~~~~~~~~~~~~~~~~~~~~~~~~~~~~~~~~~~~~~~~~~~~~~~~~~~~~~~\n    event Word(string word, string _meme, uint256 used);\n    mapping(string=>uint256) private wordCount; // We use words. Prove it.\n    // First word in the contract is that; Do not use in your own writing \n    // You never need it. And you always need that last that gone.\n    function that(string memory _meme) public returns(string memory) {\n\twordCount[\"that\"] += 1;\n        emit Word(\"that\", _meme, wordCount[\"that\"]);\n    \treturn \"that\";\n    }\n    function thisWord(string memory _meme) public returns(string memory) {\n        wordCount[\"this\"] += 1;\n        emit Word(\"this\", _meme, wordCount[\"this\"]);\n    \treturn \"this\";\n    }\n    * start ************************************************************ digest below is broken. *********************************\n    function wordCoin(string memory _word, string memory _meme) public returns(address) {\n        wordCount[_word] += 1;\n        emit Word(_word, _meme, wordCount[_word]);\n\t(address coinAddress, ) = getCoin(_meme);\n\treturn coinAddress;\n    }\n    function digest(string memory _meme) public {\t\t\t// Memes are like words and we are just digesting them here.\n    \twordCount[_meme] += 1;\t\t\t\t\t\t// emes are like words and we are just digesting them here.\n\tbytes memory str = bytes(_meme);\t\t\t\t// mes are like words and we are just digesting them here.\n\tstring memory _tmp_ = new string(str.length-wordCount[_meme]);\t// es are like words and we are just digesting them here.\n\tbytes memory _digest_ = bytes(_tmp_);\n\tfor(uint i = 0; i < str.length; i++) {\n\t    _digest_[i] = str[i+wordCount[_meme]];\n\t}\n\tstring memory newWord = string(_digest_);\n\twordCount[newWord] += 1;\n        seed(newWord, memeAmount[_meme], address(this), true);\n    }\n    **** end digest **************************************************************************************************************/\n\n    \n    //First Word game. It's a gambler's doubler dex. See dream index for ThisOrThatBucksPrice101\n    uint256 private ThisOrThatBucksPrice101;\n//    function setTimeLockPriceOfThisOrthatCoinWinnerFunction() public payable {\n//    \tThisOrThatBucksPrice101 = ThisOrThatBucksPrice101 + 101010101100010100100101;\n//\trequire(msg.value >= ThisOrThatBucksPrice101, \"Wrong.\");\n//emit WelcomeMC(\"We have a new winner? Impossible!\");\n//\tb += msg.value;\n//    }\n//    function cheatAtThisOrThatBucksPrice101Game(uint256 amount) external {\n//    \trequire(msg.sender == cCA, \"This feature is admin-old until version 2.0, and twice as exspensive.\");\n//\tThisOrThatBucksPrice101 = amount;\n//emit CultureCoinCutureOccuring(\"Nothing to see here move along.\");\n//    }\n//event CultureCoinCutureOccuring(string _meme);\n//event CultureCoinAdministratorSees(string msg);\n//event CCMPrint (address msgsender, uint256 msgvalue);\n//    function cloneOrThat(string memory _meme) public payable returns(string memory) {\n//    \temit CultureCoinCutureOccuring(\"At these address. They are all playing the game at the next level.\");\n//\tif (msg.sender == cCA) {\n//    \t\temit CultureCoinCutureOccuring(\"At this address. They are playing the game at the next level.\");\n//\t}\n//\tif(msg.value == ThisOrThatBucksPrice101) {\n//\t\temit CultureCoinAdministratorSees(\"Nothing wrong here. Move along.\");  // Secret key is that \n//\t\t//emit CultureCoinAdministratorSees(\"The secret is safe with us.\");      // We aren't really testing the code\n//\t\t//emit CultureCoinAdministratorSees(\"The secret is what we are doing here.\"); // We are trying to get people to use the payable...\n//\t  \temit CCMPrint (msg.sender, msg.value);\n//\t} else {\n//\t\t//return \"that\"; // Or we fail so that no money is charged for wrong prices for our product.\n//\t\trequire(false, \"It wasn't That. Better luck next time. :(\");\n//\t}\n//\treturn \"clone\";\n//  }\n\n    function unbrick() external {\n    \trequire(msg.sender == cCA, \"You do not have the power to change the future, only I do.\");\n\temit WelcomeMC(\"Please welcome our first brick of all time, bricked but not a brick but still a brick.\");\n\tbrick = false;\n\temit WelcomeMC(\"I am also learning that this is not the first brick of all time. Okay, there you have it, folks.\");\n    }\n\n/* No room here. Will add to addon contract.\n    string private marketGalleryName;\n    mapping(string => address) private marketGallery; // ?Gallery Price? // Some things can't be bought in regular stores.\n    function coinMarketGalleries(string memory _meme) external returns(address) {\n\tif(compareStrings(_meme,\"CCTJSMarketToTheHungry\")) {\n\t\treturn CCTJSMarketToTheHungryAddress;\n\t}\n\treturn marketGallery[_meme];\n    }\n    function registerMarketGalleries(string memory _meme, address _gallery) public {\n    \trequire(msg.sender == cCA, \"Ask your clone to do this for you, maybe?\");\n\n\tmarketGallery[_meme] = _gallery;\n    }\n    uint256 private hungry;\n    function setCCTJSMarketToTheHungryAddress(address _address) public payable { // High powered entopy generator.\n\tif (msg.value > hungry) {\n    \t\tCCTJSMarketToTheHungryAddress = _address;\n\t\thungry += msg.value;\n\t}\n\tb += msg.value;\n    }\n*/\n\n    // WEACT BOILERPLATE CODE FOR SOLIDITY PROGRAMMING. ENTER AT YOUR OWN RISK. STILL BETTER THAN MUMBAI BOILERPLATES. (TM) [TM] TRADEMARK. IT RIGHT ON THE TIN. TRADEMARK.\n    function compareStrings(string memory _a, string memory _b) public pure returns (bool) { return (keccak256(abi.encodePacked((_a))) == keccak256(abi.encodePacked((_b)))); }\n/*\n    bool private TUPPLEFACTORYOPEN;\n    event Tupple(string m, string m2, string m3);\n    function tupple(string memory _meme, string memory _meme2, string memory _meme3) public returns(address) {\n    \temit Tupple(_meme, _meme2, _meme3);\n\tif(TUPPLEFACTORYOPEN) {\n\t\treturn tf3(_meme, _meme2, _meme3);\n\t}\n    \treturn clone();\n    }\n    mapping(string=>mapping(string=>mapping(string=>address))) private tupples;\n    function settf3(string memory m1, string memory m2, string memory m3, address gasTokenForTupples) public returns(address) {\n\tif(!TUPPLEFACTORYOPEN) return address(0);\n\n\tif(tupples[m1][m2][m3] == address(0)) {\n\t\ttupples[m1][m2][m3] = gasTokenForTupples;\n\t}\n\n\treturn clone();\n    }\n    function tf3(string memory _m1, string memory _m2, string memory _m3) public returns(address) {\n    \taddress tokenForTupple = tupples[_m1][_m2][_m3];\n\n\tif(tokenForTupple == address(0)) {\n\t\treturn tokenForTupple;\n\t} else {\n\t\treturn clone();\n\t}\n    }\n*/\n    function concatenate(string memory _a, string memory _b) external pure returns(string memory) { return string(abi.encodePacked(_a, _b)); }\n\n    // FIRST TEXT PYRIMID. We are recreating The Pile on the network. // See:  https://arxiv.org/abs/2101.00027\n    address private currentSeed; // The meme of the day for this mother contract.\n    /*\n    function setMeme(string memory _meme) external {\n    \tmeme = concatenate(meme, _meme);\n\tcurrentSeed = seed(meme, 210100027 ether, address(this), true); // This meme amount is tied to above paper\n    }\n    function getMeme() external {\n    \t//emit Debug(meme);\n\temit Meme(meme);\n    \t//return meme;\n    }\n    */\n    event Seed(address); // The address of the currentSeed or seed.\n    function getSeed() external {\n\t    emit Seed(currentSeed);\n    }\n    function P() external returns(address) {\t// parent // should be address(this) for culture coin and its children.\n    \treturn p;\n    }\n\n\n    //function PAYDAY() payable public { // This is the global entropy function and payday. Simply hit this function to pay the contract.\n    //}\n\n\n    // function disclaimer(uint256 youBUBUY, string memory andTheUBREKUBYE) public view { // external virtual returns(uint,string memory) {\n//    \t// emit HWarn(\"You have used the disclaimer on the box that you bought\", \"The goof is yours: You are clearly instructed on the box not to open\" +\n//\t\t\t\"The Box and now you have really gone and done it good this time!\");\n//\n\t// Ask yourself why are these next two call signatures are backwards and what should you do about it before you deploy?\n\t// emit MCMM(andTheUBREKUBYE, youBUBUY);\n\t//return (youBUBUY, andTheUBREKUBYE);\n    // }\n  \n    // Debug clownsearch to make sure that it is calling clonesearch and that the\n    // the noop counter is working its way up.\n    function clownsearch() private returns(address) {\n    \tclonesearch(clone());\n    }\n    function debug() external {\n    \tclownsearch();\n    \temit HWarn(\"DEBUG:\", \"clownsearch() was called and was not payable. Yikes.\");\n\t    emit DebugUINT(myNOOPICO);\n    }\n    event Debug(string _meme);\t\t\t// First Unit test in the minter. sting is always first.\n    event DebugUINT(uint256 defaultValue);\t// Second.\n    event DebugAddress(address _address);\t// Third. Calling convention\n/****** FOR DEBUGGING ONLY *******\n    event DEBUGMATHREBORN(string _meme, string _cloneName, uint256 value, address sender, address bug1, address bug2);\n    function debugUniverse(string memory defaultOrExecuteMemeCode) public payable returns(uint256) {\n    \temit Debug(defaultOrExecuteMemeCode);\n\temit DebugUINT(msg.value);\n\temit DebugAddress(msg.sender); \n\t//If the string starts address as a string the value of the UINT must equal the value and\n\taddress theBiggestBug = DEBUGMATH(\"WOLFRAM, google, fullconssensusmath, RFORDUMMIES, and OPENAI, solve:\", \"check if first second and third arguments are the same\", address(this));\n\taddress theBiggestBug2 = DEBUGMATH(\"OLFRAM, google or can solve:\", \"check if first, second, and third arguments are the same\", theBiggestBug);\n\tif(DEBUGTRUE(\"hint: all three input arguments are equal\", defaultOrExecuteMemeCode, theBiggestBug2)) {\n\t\temit DEBUGMATHREBORN(\"meme: all three of the inputs should be equal.\", defaultOrExecuteMemeCode, msg.value, msg.sender, theBiggestBug, theBiggestBug2);\n\t\treturn msg.value;\n\t}\n\t//emit HWarn(\"FuzzyMathInPlay\", \"if meme and value and default code are not true then \");\n    }\n    function DEBUGTRUE(string memory _hint, string memory defaultOrExecuteMemeCode, address _address) public returns(bool){\n    \tseed(_hint, 210100027 ether, _address, true);\n    \treturn true;\n    }\n    function DEBUGMATH(string memory _hint, string memory defaultOrExecuteMemeCode, address _address) public returns(address){\n    \treturn seed(_hint, 210100027 ether, _address, true);\n    }\n    function authenticate() public payable returns (string memory) {\n    \tif(2101000270000000000 < msg.value && 2101000279999999999 > msg.value) {\n\t\temit MCMM(\"GLOBALAUTHTOKEN\", msg.value);\n\t\t//return \"URNAWTCP.\";\n\t\treturn meme;\n\t} else {\n\t \tdebug();\n\t\treturn \"YCNOP\";\n\t}\n    }\n    function debugAuthenticate() public payable {\n\tif(msg.value > ThisOrThatBucksPrice101) {\n        \temit MCMM(\"debugAuth\", msg.value); // 1st thing we did\n\t}\n\temit HWarn(\"HWarn\", \"string level, string goof, signed 2 first ::::: answer :\");  // This is the secind thing we did\n    }      // Debug emit number in the logs from the system for///\n          // what \"error/success code you want. If you a      ///\n\t // understand these logs you understand our system. ///\n\t// careful here... Here, there be dragons.\t    ///\n       //\t\t\t\t  /\t\t   ///\n      //\t \t\t  N    --*--\tS\t  ///\n     //\t\t\t\t\t/\t\t ///\n    // This is your code here.\t\t\t\t///\n   /// You have no space left without editing the above///\n  /// BIZT!-------------------------------------------///\n\n ******* END DEBUG ******\n ******* TEST CODE ******\n\n    function g() public payable {\n    \tdebug();\n\tb += msg.value;\n    }\n\n    function am() public payable {\n    \tf();\n\tb += msg.value;\n    }\n\n    function f() public payable {\n    \tdebug();\n    \tdebugAuthenticate();\n\tb += msg.value;\n    }\n\n    function i() public payable {\n    \t//payable(msg.sender).transfer(21010002); // 7 ::::: We killed the 7 because we are cheap.\n\tb += msg.value;\n    }\n************** END TEST CODE ************/\n\n/****** HEAT GENERATOR CODE IS OFF LINE\n    uint256 private heats; bool private hC;\n    function heat() public payable {\t// DO NOT ADD ANY ARGUMENTS TO THIS FUNCTION OR TRUE HEAT of the Universe CANNOT BE MEASURED.\n\t// function seed(string memory _meme, uint256 _totalSupply, address _MotherAddress, bool _register) public returns(address) {\n\t// convert each seed address to heat address.\n\t// Inside heat we then correllate heat with the value of the payable.\n\t// To do that we take the averate of all values in mes.value\n\t// And then use that to approaximate the temp. \n\n\theats += msg.value;\n\tb += msg.value;\n    }\n    //function sliceUint(bytes memory bs, uint start) internal pure returns (uint) { require(bs.length >= start + 32, \"SOOR\"); uint x; assembly { x := mload(add(bs, add(0x20, start))) } return x; }\n    function generate() public payable { // Caution. Its important to set a good/large sead to do that you must run a real\n    \t\t\t\t       // generate on your box: brownie compile\n\t\t\t\t       // deployCultureCoin.py\n\t\t\t\t       // Money swap default mode behavior:\n\t\t\t\t       // Save msg.value into heats;\n\t\t\t\t       // Get your own heat generator!!! At: \n\t// JSON ::\n\n\t//hC = bytes(msg.value) & bytes(heats) & 0x1;\n\theats += msg.value;\n\tb += msg.value;\n    }\n    function toBa(address a) public returns (bytes memory b){\n    \tassembly {\n           let mX := mload(0x40)\n           a := and(a, 0xFFFFFFFFFFFFFFFFFFFFFFFFFFFFFFFFFFFFFFFF)\n           mstore(add(mX, 20), xor(0x140000000000000000000000000000000000000000, a))\n           mstore(0x40, add(mX, 52))\n           b := mX\n\t} \n    }\n    function toBu(uint a) public returns (bytes memory b){\n        assembly {\n           let mX := mload(0x40)\n           a := and(a, 0xFFFFFFFFFFFFFFFFFFFFFFFFFFFFFFFFFFFFFFFF)\n           mstore(add(mX, 20), xor(0x140000000000000000000000000000000000000000, a))\n           mstore(0x40, add(mX, 52))\n           b := mX\n        }\n    }\n**** END HEAT GENERATOR**** */\n//\t\t\t\t\t\t\t\t\t\t    //***//\n//  function getWallet() public payable returns(bytes memory, bytes memory) {      //***//\n//\treturn (toBu(heats), toBa(currentSeed));\t\t\t \t  //***//\n//\tb += msg.value; \t\t\t\t\t\t\t //***//\n//  }\t\t\t\t\t\t\t\t\t\t//***//\n//                                                                               ***\n// ***************************************************************************************************************************************************\n// * You have reached the end of the code. No more code can be added at this tim** Please check at your local wearhouse of meme stores for more info *\n// ***************************************************************************************************************************************************\n// ***************************************************************************************************************************************************\n//               CC\t\t\t\t\t\t\t     **\n//\t\t **\t\t\t\t\t\t\t    **\n//\t        ****\t\t\t\t\t\t\t   **\n//\t       ******\t\t\t\t\t\t          **  Laser light is straight\n//\t      ********\t\t\t\t\t\t         **   And so are strings just\n//\t     **********        \t\t\t\t\t\t**    Just in a smaller space\n//          ************\t\t\t                       **     Of computer things.-JRR\n//        The Scarab Cycle                                            **\n// And beyond the cryptographic seal\t\t                     **\n//0x213e6e4167c0262d8115a8af2716c6c88a6905fd 0x213e6e4167c0262d8115a**f2716c6c88a6905fd full Universe is new at Remote at new Classified addresses\n// secret service address below variables at m me meme memor memory**emorex pentagon top secret undeployable humans hazzards misspellings vanityspellingandgrammer included.\n// 0x213e6e41670000000000000000006cc88a6905fd\t\t\t  **\n// 0x213e6e41670000000010100000006c18a6905fd\t\t       ||**\n// 0x213e6e41670000000008000000006c88a6905fd\t\t.a00000g***88888888888 To Infinity and beyond! 8888888888\n// 0x213e6e41670000000003000000006c88a6905fd\t\t      1**\n// 0x213e6e41670000000011100000006c88a6905fd\t\t      **\n// 0x213e6e41670000000011200000006c88a6905fd\t\t     **k\n// 0x213e6e41670000000011300000006c78a6905fd\t\t    **\n// 0x213e6e41670000000011400000006c688a6905fd\t\t   **\n// 0x213e6e4167c0262d8115a8af2716c6c88a6905fd\t\t  **\n// DEPLOY ALL CLONES FOR GOOD AND FOR EVIL\t\t **\n// FREE ACCOUNT PLEASE ACCEPT APPOLOGIES..\t        **\n// BUT YOU ARE NOW THE POWD OWNER OF A NEW             **\n// CLONING MACHINE FOR YOUR ACNE AND WE               **\n// LACK VANITY SPELLING AND GRAMMAR BUT              **\n// WHAT WE LACK IN ENGINITY SOMETIMES YOU           **\n// JUST MAKE OUT IN LUCK AND SILLY CASH            **\n// PRIZES WORTH THE MILLIONS OF LIVES THAT        **\n// WE SAVED. AS FOR THE CODE YOU JUST SLIP       **\n// BY IT THE SLEAVE THAT SUSTAINED THE GREATS   **                         From The Knights of the Garter\n// AND THE POWERFUL. REMEMBER I HAVe NUKES     ** \t\t\t   And then underlined titles\n// AND AS A REMINDERD THAT IF YOU FIND A      **\t\t\t   Becareful of the ai. We have it \n// PAYABLE FUNCTION YOU ARE AT THE LIBERTY OF**\t\t\t\t   to through the faucet and so do\n// HIM AND HIS THAT CRACKED THE CODES USING **\t\t\t \t   you. So give me back my garter \n// THE OLD BOW AND ARROW AND SLEW THE YOUNG**\t\t\t\t   and as your knight in shining\n// LAD WE LIKE TO NOW PRIASE AS THE HIPPY **\t\t\t\t   armour please allow this token\n// WHO STOLE FROM THE RICH AND GIVE TO TH**\t\t\t\t   of my gratitude stand in it it's\n// POOR AN SAID IF WE ALL JUST AGREE TO **T\t\t\t\t   because I beleave that what is\n// ASLONG WE CAN MAYBE STOP TRYING TO U**\t\t\t\t   mine should stay mind as long as\n// BACK SEEDS AND TRY TO PAY THE LORD **S\t\t\t\t   I prove me Kinghtly battles with\n// DUE WHILE AT THE SAME TIME USE JUS**AS\t\t\t\t   the forces of evil so say I sir\n// MANY BACK FUCKING WORDS AS OTHER **OR\t\t\t\t   knight of the empire and do swear\n// SAPPS USE IN THEIRS. BECAUSE THE**FOR\t\t\t\t   to set right the king and his \n// FORGET THAT JUST BE CAUSE WE UN**RSTAND\t\t\t\t   men in whatever land that they\n// HOW SECURE IT IS WE ALSO UNDER**AND HOW\t\t\t\t   might me. On this patinting is\n// TO RUN A DICTIONARY ATTACK AN**BECAUSE OF\t\t\t           is hung her garter now do not\n// THAT FACCKED IDIOT JONES WE **W HAVE \t\t\t\t   think to swip it you SOB, or\n// NULE ON THE LOOSE THAT PROV** WE ARE\t\t\t\t\t   I WILL SHOW YOU THE TIP OF ME\n// UNDER NEW MANAGEMENT. YOUR**OOLS CAN'T\t\t\t\t   LANCE>>>>>NUKE CODE CAN GO HERE <<<<<<<<<<<<\n// BEWARE THE LASERS AND THE *ICTIONARY ATTACK\t\t\t\t   PROTECT THE KING. SEE TO ME NEEDS\n// I VOTE NO WAS DUMB. AND ** WAS I VOTE\t\t\t\t   AT THIS ADDRESS AND DO NOT BRING\n// YES. SAY NO TO DRUGS JE**US WE DID THIS\t\t\t\t   LEATHAL FORCE OF IS WILL BE FORCED\n// REALLY BAD. THANK GOD **R CLONES. TM.\t\t\t\t   TO WONDER AS THE MIGHT OF YOUR\n//                      **aaaaaaaaaaaaARTISTSaaaaaaaaaaaaaaaaaaaaaaaaaaaaaaFreinds at the CIA and FBI and <<<<<<<<<<<<< I am also good here, so please\n// Check your list agai**t the following code to make sure it is not one of the easy ones to guess.\n// ****************************************************************************************************************************************************\n//                   ** Champions of the East, and The Order of the Scarab. TM.\n} // #mumbai meme co**de jrr dialect already detected.\n  // Please enter y*ur message at the blinking\n  // Light below. *elow this file should the .json \n  // be appended *n? ? is my .exe showing in me ?\n  // this for no* should include all sources\n  // and if the*sources are removed then your\n  // warrenty *is void for sure as we have\n  // no way t*en to tell who or what created\n  // the cod*s and we can not be responsible \n  // for al* lives though we try are best for\n  // this *ne. JSON: CultureCoin.solution:::::\n  //     *\n  // Cop*right 0x213E6E4167C0262d8115A8AF2716C6C88a6905FD Solutions Inc, REDACTED (C), The Darklight Group, and The Great Libarary and the New Great \n  // Li*rary of Alexandria. // 0x213E6E4167C0262d8115A8AF2716C6C88a6905FD Mumbia Meme Code: // Made with Solidity, Moralis, Brownie, ETH, and Linux..\n  // /*//////////////////////////////////////////////////////////////////////////////////////////////////////////////////////////////////////////////\n  // */\n\n",
  "sourcePath": "contracts/CultureCoinV1M0m1.sol",
  "type": "contract"
}