{
  "abi": [
    {
      "inputs": [],
      "name": "dummy",
      "outputs": [
        {
          "internalType": "string",
          "name": "",
          "type": "string"
        }
      ],
      "stateMutability": "view",
      "type": "function"
    }
  ],
  "bytecode": "608060405234801561001057600080fd5b5060e38061001f6000396000f3fe6080604052348015600f57600080fd5b506004361060285760003560e01c806332e43a1114602d575b600080fd5b604080518082018252600581526464756d6d7960d81b6020820152905160529190605b565b60405180910390f35b600060208083528351808285015260005b81811015608657858101830151858201604001528201606c565b818111156097576000604083870101525b50601f01601f191692909201604001939250505056fea264697066735822122052d19d98da28a62c075ccf4fdbb42f78575f5475e7deb4fc0b5d4ad7e0fe35c564736f6c634300080e0033",
  "bytecodeSha1": "d04049482c6a13db88c7548556735eee723b53a7",
  "compiler": {
    "evm_version": "istanbul",
    "optimizer": {
      "enabled": true,
      "runs": 100
    },
    "version": "0.8.14+commit.80d49f37"
  },
  "contractName": "DummyContract",
  "language": "Solidity",
  "natspec": {
    "kind": "dev",
    "methods": {},
    "version": 1
  },
  "opcodes": "PUSH1 0x80 PUSH1 0x40 MSTORE CALLVALUE DUP1 ISZERO PUSH1 0xF JUMPI PUSH1 0x0 DUP1 REVERT JUMPDEST POP PUSH1 0x4 CALLDATASIZE LT PUSH1 0x28 JUMPI PUSH1 0x0 CALLDATALOAD PUSH1 0xE0 SHR DUP1 PUSH4 0x32E43A11 EQ PUSH1 0x2D JUMPI JUMPDEST PUSH1 0x0 DUP1 REVERT JUMPDEST PUSH1 0x40 DUP1 MLOAD DUP1 DUP3 ADD DUP3 MSTORE PUSH1 0x5 DUP2 MSTORE PUSH5 0x64756D6D79 PUSH1 0xD8 SHL PUSH1 0x20 DUP3 ADD MSTORE SWAP1 MLOAD PUSH1 0x52 SWAP2 SWAP1 PUSH1 0x5B JUMP JUMPDEST PUSH1 0x40 MLOAD DUP1 SWAP2 SUB SWAP1 RETURN JUMPDEST PUSH1 0x0 PUSH1 0x20 DUP1 DUP4 MSTORE DUP4 MLOAD DUP1 DUP3 DUP6 ADD MSTORE PUSH1 0x0 JUMPDEST DUP2 DUP2 LT ISZERO PUSH1 0x86 JUMPI DUP6 DUP2 ADD DUP4 ADD MLOAD DUP6 DUP3 ADD PUSH1 0x40 ADD MSTORE DUP3 ADD PUSH1 0x6C JUMP JUMPDEST DUP2 DUP2 GT ISZERO PUSH1 0x97 JUMPI PUSH1 0x0 PUSH1 0x40 DUP4 DUP8 ADD ADD MSTORE JUMPDEST POP PUSH1 0x1F ADD PUSH1 0x1F NOT AND SWAP3 SWAP1 SWAP3 ADD PUSH1 0x40 ADD SWAP4 SWAP3 POP POP POP JUMP INVALID LOG2 PUSH5 0x6970667358 0x22 SLT KECCAK256 MSTORE 0xD1 SWAP14 SWAP9 0xDA 0x28 0xA6 0x2C SMOD 0x5C 0xCF 0x4F 0xDB 0xB4 0x2F PUSH25 0x575F5475E7DEB4FC0B5D4AD7E0FE35C564736F6C634300080E STOP CALLER ",
  "sha1": "b0c54a55f435411a77a5abd53c82aba621e446fd",
  "source": "// SPDX-License-Identifier: UNLICENSED\npragma solidity ^0.8.0;\ncontract DummyContract {\n\t//event Dummy();\t\t// Only use this if you absolutely need to.\n\tfunction dummy() public view returns(string memory) {\n\t\t//emit Dummy();\n\t\treturn \"dummy\";\t\t// runContractFunction() should work on this bad boy.\n\t}\n}\n\n",
  "sourcePath": "contracts/Dummy.sol",
  "type": "contract"
}