{
  "abi": [
    {
      "inputs": [
        {
          "internalType": "address",
          "name": "_cCA",
          "type": "address"
        },
        {
          "internalType": "address",
          "name": "_cultureCoin",
          "type": "address"
        },
        {
          "internalType": "address",
          "name": "_nbt",
          "type": "address"
        },
        {
          "internalType": "address",
          "name": "_registryAddress",
          "type": "address"
        },
        {
          "internalType": "address",
          "name": "_baseSpells",
          "type": "address"
        },
        {
          "internalType": "address",
          "name": "_myItems",
          "type": "address"
        }
      ],
      "stateMutability": "nonpayable",
      "type": "constructor"
    },
    {
      "anonymous": false,
      "inputs": [
        {
          "indexed": true,
          "internalType": "address",
          "name": "owner",
          "type": "address"
        },
        {
          "indexed": true,
          "internalType": "address",
          "name": "approved",
          "type": "address"
        },
        {
          "indexed": true,
          "internalType": "uint256",
          "name": "tokenId",
          "type": "uint256"
        }
      ],
      "name": "Approval",
      "type": "event"
    },
    {
      "anonymous": false,
      "inputs": [
        {
          "indexed": true,
          "internalType": "address",
          "name": "owner",
          "type": "address"
        },
        {
          "indexed": true,
          "internalType": "address",
          "name": "operator",
          "type": "address"
        },
        {
          "indexed": false,
          "internalType": "bool",
          "name": "approved",
          "type": "bool"
        }
      ],
      "name": "ApprovalForAll",
      "type": "event"
    },
    {
      "anonymous": false,
      "inputs": [
        {
          "indexed": false,
          "internalType": "address",
          "name": "sender",
          "type": "address"
        },
        {
          "indexed": false,
          "internalType": "address",
          "name": "from",
          "type": "address"
        },
        {
          "indexed": false,
          "internalType": "uint256",
          "name": "hId",
          "type": "uint256"
        },
        {
          "indexed": false,
          "internalType": "uint256",
          "name": "target",
          "type": "uint256"
        },
        {
          "indexed": false,
          "internalType": "int256",
          "name": "how",
          "type": "int256"
        },
        {
          "indexed": false,
          "internalType": "uint256",
          "name": "amount",
          "type": "uint256"
        }
      ],
      "name": "Bug",
      "type": "event"
    },
    {
      "anonymous": false,
      "inputs": [
        {
          "indexed": false,
          "internalType": "address",
          "name": "sender",
          "type": "address"
        },
        {
          "indexed": false,
          "internalType": "uint256",
          "name": "_who",
          "type": "uint256"
        },
        {
          "indexed": false,
          "internalType": "uint256",
          "name": "what",
          "type": "uint256"
        },
        {
          "indexed": false,
          "internalType": "uint256",
          "name": "amount",
          "type": "uint256"
        }
      ],
      "name": "Casting",
      "type": "event"
    },
    {
      "anonymous": false,
      "inputs": [
        {
          "indexed": false,
          "internalType": "uint256",
          "name": "hId",
          "type": "uint256"
        },
        {
          "indexed": false,
          "internalType": "uint256",
          "name": "target",
          "type": "uint256"
        },
        {
          "indexed": false,
          "internalType": "int256",
          "name": "how",
          "type": "int256"
        },
        {
          "indexed": false,
          "internalType": "uint256",
          "name": "amount",
          "type": "uint256"
        },
        {
          "indexed": false,
          "internalType": "uint256",
          "name": "fizzleType",
          "type": "uint256"
        }
      ],
      "name": "Fizzle",
      "type": "event"
    },
    {
      "anonymous": false,
      "inputs": [
        {
          "indexed": false,
          "internalType": "address",
          "name": "owner",
          "type": "address"
        },
        {
          "indexed": false,
          "internalType": "uint256",
          "name": "tokenId",
          "type": "uint256"
        },
        {
          "indexed": false,
          "internalType": "uint256",
          "name": "amount",
          "type": "uint256"
        },
        {
          "indexed": false,
          "internalType": "string",
          "name": "reason",
          "type": "string"
        }
      ],
      "name": "GasTokenSpent",
      "type": "event"
    },
    {
      "anonymous": false,
      "inputs": [
        {
          "indexed": false,
          "internalType": "uint256",
          "name": "_hId",
          "type": "uint256"
        },
        {
          "indexed": false,
          "internalType": "uint256",
          "name": "target",
          "type": "uint256"
        },
        {
          "indexed": false,
          "internalType": "int256",
          "name": "amount",
          "type": "int256"
        },
        {
          "indexed": false,
          "internalType": "uint256",
          "name": "hp",
          "type": "uint256"
        },
        {
          "indexed": false,
          "internalType": "uint256",
          "name": "effect",
          "type": "uint256"
        }
      ],
      "name": "HP",
      "type": "event"
    },
    {
      "anonymous": false,
      "inputs": [
        {
          "indexed": false,
          "internalType": "address",
          "name": "userAddress",
          "type": "address"
        },
        {
          "indexed": false,
          "internalType": "address payable",
          "name": "relayerAddress",
          "type": "address"
        },
        {
          "indexed": false,
          "internalType": "bytes",
          "name": "functionSignature",
          "type": "bytes"
        }
      ],
      "name": "MetaTransactionExecuted",
      "type": "event"
    },
    {
      "anonymous": false,
      "inputs": [
        {
          "indexed": false,
          "internalType": "uint256",
          "name": "hId",
          "type": "uint256"
        },
        {
          "indexed": false,
          "internalType": "uint256",
          "name": "tokenId",
          "type": "uint256"
        },
        {
          "indexed": false,
          "internalType": "address",
          "name": "to",
          "type": "address"
        },
        {
          "indexed": false,
          "internalType": "int256",
          "name": "class",
          "type": "int256"
        },
        {
          "indexed": false,
          "internalType": "uint256",
          "name": "amount",
          "type": "uint256"
        }
      ],
      "name": "NewHero",
      "type": "event"
    },
    {
      "anonymous": false,
      "inputs": [
        {
          "indexed": true,
          "internalType": "address",
          "name": "previousOwner",
          "type": "address"
        },
        {
          "indexed": true,
          "internalType": "address",
          "name": "newOwner",
          "type": "address"
        }
      ],
      "name": "OwnershipTransferred",
      "type": "event"
    },
    {
      "anonymous": false,
      "inputs": [
        {
          "indexed": false,
          "internalType": "uint256",
          "name": "_hId",
          "type": "uint256"
        },
        {
          "indexed": false,
          "internalType": "uint256",
          "name": "power",
          "type": "uint256"
        }
      ],
      "name": "Power",
      "type": "event"
    },
    {
      "anonymous": false,
      "inputs": [
        {
          "indexed": true,
          "internalType": "address",
          "name": "from",
          "type": "address"
        },
        {
          "indexed": true,
          "internalType": "address",
          "name": "to",
          "type": "address"
        },
        {
          "indexed": true,
          "internalType": "uint256",
          "name": "tokenId",
          "type": "uint256"
        }
      ],
      "name": "Transfer",
      "type": "event"
    },
    {
      "anonymous": false,
      "inputs": [
        {
          "indexed": false,
          "internalType": "address",
          "name": "sender",
          "type": "address"
        },
        {
          "indexed": false,
          "internalType": "uint256",
          "name": "_who",
          "type": "uint256"
        },
        {
          "indexed": false,
          "internalType": "uint256",
          "name": "what",
          "type": "uint256"
        },
        {
          "indexed": false,
          "internalType": "uint256",
          "name": "amount",
          "type": "uint256"
        }
      ],
      "name": "Uncasting",
      "type": "event"
    },
    {
      "inputs": [],
      "name": "ERC712_VERSION",
      "outputs": [
        {
          "internalType": "string",
          "name": "",
          "type": "string"
        }
      ],
      "stateMutability": "view",
      "type": "function"
    },
    {
      "inputs": [],
      "name": "_getNextTokenId",
      "outputs": [
        {
          "internalType": "uint256",
          "name": "",
          "type": "uint256"
        }
      ],
      "stateMutability": "view",
      "type": "function"
    },
    {
      "inputs": [],
      "name": "_incrementTokenId",
      "outputs": [],
      "stateMutability": "nonpayable",
      "type": "function"
    },
    {
      "inputs": [
        {
          "internalType": "uint256",
          "name": "_tokenId",
          "type": "uint256"
        }
      ],
      "name": "addonBurn",
      "outputs": [],
      "stateMutability": "nonpayable",
      "type": "function"
    },
    {
      "inputs": [
        {
          "internalType": "address",
          "name": "_to",
          "type": "address"
        }
      ],
      "name": "addonMintTo",
      "outputs": [
        {
          "internalType": "uint256",
          "name": "",
          "type": "uint256"
        }
      ],
      "stateMutability": "nonpayable",
      "type": "function"
    },
    {
      "inputs": [],
      "name": "addonPay",
      "outputs": [],
      "stateMutability": "payable",
      "type": "function"
    },
    {
      "inputs": [
        {
          "internalType": "uint256",
          "name": "_hp",
          "type": "uint256"
        }
      ],
      "name": "alive",
      "outputs": [
        {
          "internalType": "bool",
          "name": "",
          "type": "bool"
        }
      ],
      "stateMutability": "pure",
      "type": "function"
    },
    {
      "inputs": [
        {
          "internalType": "address",
          "name": "to",
          "type": "address"
        },
        {
          "internalType": "uint256",
          "name": "tokenId",
          "type": "uint256"
        }
      ],
      "name": "approve",
      "outputs": [],
      "stateMutability": "nonpayable",
      "type": "function"
    },
    {
      "inputs": [
        {
          "internalType": "address",
          "name": "owner",
          "type": "address"
        }
      ],
      "name": "balanceOf",
      "outputs": [
        {
          "internalType": "uint256",
          "name": "",
          "type": "uint256"
        }
      ],
      "stateMutability": "view",
      "type": "function"
    },
    {
      "inputs": [],
      "name": "baseTokenURI",
      "outputs": [
        {
          "internalType": "string",
          "name": "",
          "type": "string"
        }
      ],
      "stateMutability": "view",
      "type": "function"
    },
    {
      "inputs": [
        {
          "internalType": "address",
          "name": "_bugger",
          "type": "address"
        },
        {
          "internalType": "uint256",
          "name": "_hId",
          "type": "uint256"
        },
        {
          "internalType": "uint256",
          "name": "_target",
          "type": "uint256"
        },
        {
          "internalType": "int256",
          "name": "_how",
          "type": "int256"
        },
        {
          "internalType": "uint256",
          "name": "_amount",
          "type": "uint256"
        }
      ],
      "name": "bug",
      "outputs": [],
      "stateMutability": "nonpayable",
      "type": "function"
    },
    {
      "inputs": [
        {
          "internalType": "uint256",
          "name": "tokenId",
          "type": "uint256"
        }
      ],
      "name": "burn",
      "outputs": [],
      "stateMutability": "nonpayable",
      "type": "function"
    },
    {
      "inputs": [
        {
          "internalType": "uint256",
          "name": "_tokenId",
          "type": "uint256"
        },
        {
          "internalType": "uint256",
          "name": "_amount",
          "type": "uint256"
        },
        {
          "internalType": "string",
          "name": "_reason",
          "type": "string"
        }
      ],
      "name": "burnGas",
      "outputs": [],
      "stateMutability": "nonpayable",
      "type": "function"
    },
    {
      "inputs": [],
      "name": "cCA",
      "outputs": [
        {
          "internalType": "address",
          "name": "",
          "type": "address"
        }
      ],
      "stateMutability": "view",
      "type": "function"
    },
    {
      "inputs": [
        {
          "internalType": "uint256",
          "name": "_hId",
          "type": "uint256"
        },
        {
          "internalType": "int256",
          "name": "_spell",
          "type": "int256"
        }
      ],
      "name": "canCast",
      "outputs": [
        {
          "internalType": "bool",
          "name": "",
          "type": "bool"
        }
      ],
      "stateMutability": "view",
      "type": "function"
    },
    {
      "inputs": [
        {
          "internalType": "uint256",
          "name": "_hId",
          "type": "uint256"
        },
        {
          "internalType": "uint256",
          "name": "_whatId",
          "type": "uint256"
        }
      ],
      "name": "castsOf",
      "outputs": [
        {
          "internalType": "uint256",
          "name": "",
          "type": "uint256"
        }
      ],
      "stateMutability": "view",
      "type": "function"
    },
    {
      "inputs": [],
      "name": "contractURI",
      "outputs": [
        {
          "internalType": "string",
          "name": "",
          "type": "string"
        }
      ],
      "stateMutability": "view",
      "type": "function"
    },
    {
      "inputs": [
        {
          "internalType": "uint256",
          "name": "_hId",
          "type": "uint256"
        },
        {
          "internalType": "uint256",
          "name": "_whatId",
          "type": "uint256"
        },
        {
          "internalType": "uint256",
          "name": "_amount",
          "type": "uint256"
        }
      ],
      "name": "doCast",
      "outputs": [],
      "stateMutability": "nonpayable",
      "type": "function"
    },
    {
      "inputs": [
        {
          "internalType": "address",
          "name": "userAddress",
          "type": "address"
        },
        {
          "internalType": "bytes",
          "name": "functionSignature",
          "type": "bytes"
        },
        {
          "internalType": "bytes32",
          "name": "sigR",
          "type": "bytes32"
        },
        {
          "internalType": "bytes32",
          "name": "sigS",
          "type": "bytes32"
        },
        {
          "internalType": "uint8",
          "name": "sigV",
          "type": "uint8"
        }
      ],
      "name": "executeMetaTransaction",
      "outputs": [
        {
          "internalType": "bytes",
          "name": "",
          "type": "bytes"
        }
      ],
      "stateMutability": "payable",
      "type": "function"
    },
    {
      "inputs": [
        {
          "internalType": "uint256",
          "name": "_tokenId",
          "type": "uint256"
        },
        {
          "internalType": "uint256",
          "name": "_amount",
          "type": "uint256"
        },
        {
          "internalType": "uint256",
          "name": "_gasRewards",
          "type": "uint256"
        }
      ],
      "name": "fillGasTank",
      "outputs": [],
      "stateMutability": "nonpayable",
      "type": "function"
    },
    {
      "inputs": [
        {
          "internalType": "uint256",
          "name": "_hId",
          "type": "uint256"
        },
        {
          "internalType": "uint256",
          "name": "_target",
          "type": "uint256"
        },
        {
          "internalType": "int256",
          "name": "_how",
          "type": "int256"
        },
        {
          "internalType": "uint256",
          "name": "_amount",
          "type": "uint256"
        },
        {
          "internalType": "uint256",
          "name": "_fizzleType",
          "type": "uint256"
        }
      ],
      "name": "fizzle",
      "outputs": [],
      "stateMutability": "nonpayable",
      "type": "function"
    },
    {
      "inputs": [
        {
          "internalType": "uint256",
          "name": "_hId",
          "type": "uint256"
        }
      ],
      "name": "getAB",
      "outputs": [
        {
          "internalType": "int256",
          "name": "",
          "type": "int256"
        },
        {
          "internalType": "int256",
          "name": "",
          "type": "int256"
        }
      ],
      "stateMutability": "nonpayable",
      "type": "function"
    },
    {
      "inputs": [
        {
          "internalType": "address",
          "name": "_addon",
          "type": "address"
        }
      ],
      "name": "getAddon",
      "outputs": [
        {
          "internalType": "bool",
          "name": "",
          "type": "bool"
        }
      ],
      "stateMutability": "view",
      "type": "function"
    },
    {
      "inputs": [
        {
          "internalType": "uint256",
          "name": "tokenId",
          "type": "uint256"
        }
      ],
      "name": "getApproved",
      "outputs": [
        {
          "internalType": "address",
          "name": "",
          "type": "address"
        }
      ],
      "stateMutability": "view",
      "type": "function"
    },
    {
      "inputs": [],
      "name": "getChainId",
      "outputs": [
        {
          "internalType": "uint256",
          "name": "",
          "type": "uint256"
        }
      ],
      "stateMutability": "view",
      "type": "function"
    },
    {
      "inputs": [
        {
          "internalType": "uint256",
          "name": "_target",
          "type": "uint256"
        }
      ],
      "name": "getCurrentPower",
      "outputs": [
        {
          "internalType": "uint256",
          "name": "",
          "type": "uint256"
        }
      ],
      "stateMutability": "nonpayable",
      "type": "function"
    },
    {
      "inputs": [],
      "name": "getCurrentToken",
      "outputs": [
        {
          "internalType": "uint256",
          "name": "",
          "type": "uint256"
        }
      ],
      "stateMutability": "view",
      "type": "function"
    },
    {
      "inputs": [],
      "name": "getDefaultFrom",
      "outputs": [
        {
          "internalType": "uint256",
          "name": "",
          "type": "uint256"
        }
      ],
      "stateMutability": "view",
      "type": "function"
    },
    {
      "inputs": [],
      "name": "getDefaultPrice",
      "outputs": [
        {
          "internalType": "uint256",
          "name": "",
          "type": "uint256"
        }
      ],
      "stateMutability": "view",
      "type": "function"
    },
    {
      "inputs": [],
      "name": "getDomainSeperator",
      "outputs": [
        {
          "internalType": "bytes32",
          "name": "",
          "type": "bytes32"
        }
      ],
      "stateMutability": "view",
      "type": "function"
    },
    {
      "inputs": [
        {
          "internalType": "uint256",
          "name": "_tokenId",
          "type": "uint256"
        }
      ],
      "name": "getGasRewards",
      "outputs": [
        {
          "internalType": "uint256",
          "name": "",
          "type": "uint256"
        },
        {
          "internalType": "uint256",
          "name": "",
          "type": "uint256"
        }
      ],
      "stateMutability": "view",
      "type": "function"
    },
    {
      "inputs": [],
      "name": "getGasToken",
      "outputs": [
        {
          "internalType": "address",
          "name": "",
          "type": "address"
        }
      ],
      "stateMutability": "view",
      "type": "function"
    },
    {
      "inputs": [
        {
          "internalType": "uint256",
          "name": "_hId",
          "type": "uint256"
        }
      ],
      "name": "getHP",
      "outputs": [
        {
          "internalType": "uint256",
          "name": "",
          "type": "uint256"
        },
        {
          "internalType": "uint256",
          "name": "",
          "type": "uint256"
        }
      ],
      "stateMutability": "nonpayable",
      "type": "function"
    },
    {
      "inputs": [
        {
          "internalType": "uint256",
          "name": "_target",
          "type": "uint256"
        }
      ],
      "name": "getHPSumary",
      "outputs": [
        {
          "components": [
            {
              "internalType": "uint256",
              "name": "hp",
              "type": "uint256"
            },
            {
              "internalType": "int256",
              "name": "armor",
              "type": "int256"
            },
            {
              "internalType": "int256",
              "name": "fire",
              "type": "int256"
            },
            {
              "internalType": "int256",
              "name": "frost",
              "type": "int256"
            },
            {
              "internalType": "int256",
              "name": "meta",
              "type": "int256"
            },
            {
              "internalType": "uint256",
              "name": "effect",
              "type": "uint256"
            }
          ],
          "internalType": "struct HPSummary",
          "name": "",
          "type": "tuple"
        }
      ],
      "stateMutability": "nonpayable",
      "type": "function"
    },
    {
      "inputs": [
        {
          "internalType": "uint256",
          "name": "_target",
          "type": "uint256"
        }
      ],
      "name": "getMaxHp",
      "outputs": [
        {
          "internalType": "uint256",
          "name": "",
          "type": "uint256"
        }
      ],
      "stateMutability": "nonpayable",
      "type": "function"
    },
    {
      "inputs": [],
      "name": "getNBT",
      "outputs": [
        {
          "internalType": "address",
          "name": "",
          "type": "address"
        }
      ],
      "stateMutability": "view",
      "type": "function"
    },
    {
      "inputs": [
        {
          "internalType": "address",
          "name": "user",
          "type": "address"
        }
      ],
      "name": "getNonce",
      "outputs": [
        {
          "internalType": "uint256",
          "name": "nonce",
          "type": "uint256"
        }
      ],
      "stateMutability": "view",
      "type": "function"
    },
    {
      "inputs": [
        {
          "internalType": "uint256",
          "name": "_tokenId",
          "type": "uint256"
        }
      ],
      "name": "getPrice",
      "outputs": [
        {
          "internalType": "uint256",
          "name": "",
          "type": "uint256"
        }
      ],
      "stateMutability": "view",
      "type": "function"
    },
    {
      "inputs": [
        {
          "internalType": "uint256",
          "name": "_tokenId",
          "type": "uint256"
        }
      ],
      "name": "getRewards",
      "outputs": [
        {
          "internalType": "address",
          "name": "",
          "type": "address"
        },
        {
          "internalType": "uint256",
          "name": "",
          "type": "uint256"
        }
      ],
      "stateMutability": "view",
      "type": "function"
    },
    {
      "inputs": [],
      "name": "getRoyalty",
      "outputs": [
        {
          "internalType": "uint256",
          "name": "",
          "type": "uint256"
        }
      ],
      "stateMutability": "view",
      "type": "function"
    },
    {
      "inputs": [
        {
          "internalType": "uint256",
          "name": "_hId",
          "type": "uint256"
        }
      ],
      "name": "getSpawn",
      "outputs": [
        {
          "internalType": "uint256",
          "name": "",
          "type": "uint256"
        }
      ],
      "stateMutability": "view",
      "type": "function"
    },
    {
      "inputs": [
        {
          "internalType": "uint256",
          "name": "_target",
          "type": "uint256"
        }
      ],
      "name": "getStats",
      "outputs": [
        {
          "components": [
            {
              "internalType": "uint256",
              "name": "intel",
              "type": "uint256"
            },
            {
              "internalType": "uint256",
              "name": "agi",
              "type": "uint256"
            },
            {
              "internalType": "uint256",
              "name": "strn",
              "type": "uint256"
            },
            {
              "internalType": "uint256",
              "name": "effect",
              "type": "uint256"
            },
            {
              "components": [
                {
                  "internalType": "uint256",
                  "name": "talent",
                  "type": "uint256"
                }
              ],
              "internalType": "struct HeroTalents",
              "name": "talent",
              "type": "tuple"
            },
            {
              "internalType": "uint256",
              "name": "fizzle",
              "type": "uint256"
            }
          ],
          "internalType": "struct Stats",
          "name": "",
          "type": "tuple"
        }
      ],
      "stateMutability": "nonpayable",
      "type": "function"
    },
    {
      "inputs": [
        {
          "internalType": "uint256",
          "name": "_hId",
          "type": "uint256"
        },
        {
          "internalType": "uint256",
          "name": "_target",
          "type": "uint256"
        },
        {
          "internalType": "uint256",
          "name": "_amount",
          "type": "uint256"
        },
        {
          "internalType": "int256",
          "name": "_healType",
          "type": "int256"
        },
        {
          "internalType": "uint256",
          "name": "_effect",
          "type": "uint256"
        }
      ],
      "name": "healBy",
      "outputs": [],
      "stateMutability": "nonpayable",
      "type": "function"
    },
    {
      "inputs": [
        {
          "internalType": "uint256",
          "name": "_hId",
          "type": "uint256"
        },
        {
          "internalType": "uint256",
          "name": "_target",
          "type": "uint256"
        },
        {
          "internalType": "uint256",
          "name": "_amount",
          "type": "uint256"
        },
        {
          "internalType": "int256",
          "name": "_healType",
          "type": "int256"
        },
        {
          "internalType": "uint256",
          "name": "_effect",
          "type": "uint256"
        }
      ],
      "name": "healByPercent",
      "outputs": [],
      "stateMutability": "nonpayable",
      "type": "function"
    },
    {
      "inputs": [
        {
          "internalType": "uint256",
          "name": "_tokenId",
          "type": "uint256"
        },
        {
          "internalType": "address",
          "name": "_to",
          "type": "address"
        },
        {
          "internalType": "int256",
          "name": "_class",
          "type": "int256"
        },
        {
          "internalType": "uint256",
          "name": "_amount",
          "type": "uint256"
        }
      ],
      "name": "heroMint",
      "outputs": [
        {
          "internalType": "uint256",
          "name": "",
          "type": "uint256"
        }
      ],
      "stateMutability": "nonpayable",
      "type": "function"
    },
    {
      "inputs": [
        {
          "internalType": "uint256",
          "name": "_hId",
          "type": "uint256"
        },
        {
          "internalType": "uint256",
          "name": "_target",
          "type": "uint256"
        },
        {
          "internalType": "uint256",
          "name": "_amount",
          "type": "uint256"
        },
        {
          "internalType": "int256",
          "name": "_damageType",
          "type": "int256"
        },
        {
          "internalType": "uint256",
          "name": "_effect",
          "type": "uint256"
        }
      ],
      "name": "hurtBy",
      "outputs": [],
      "stateMutability": "nonpayable",
      "type": "function"
    },
    {
      "inputs": [
        {
          "internalType": "address",
          "name": "",
          "type": "address"
        }
      ],
      "name": "isAddon",
      "outputs": [
        {
          "internalType": "bool",
          "name": "",
          "type": "bool"
        }
      ],
      "stateMutability": "view",
      "type": "function"
    },
    {
      "inputs": [
        {
          "internalType": "address",
          "name": "owner",
          "type": "address"
        },
        {
          "internalType": "address",
          "name": "operator",
          "type": "address"
        }
      ],
      "name": "isApprovedForAll",
      "outputs": [
        {
          "internalType": "bool",
          "name": "",
          "type": "bool"
        }
      ],
      "stateMutability": "view",
      "type": "function"
    },
    {
      "inputs": [],
      "name": "maxmint",
      "outputs": [
        {
          "internalType": "uint256",
          "name": "",
          "type": "uint256"
        }
      ],
      "stateMutability": "view",
      "type": "function"
    },
    {
      "inputs": [
        {
          "internalType": "address",
          "name": "_to",
          "type": "address"
        }
      ],
      "name": "mintTo",
      "outputs": [
        {
          "internalType": "uint256",
          "name": "",
          "type": "uint256"
        }
      ],
      "stateMutability": "nonpayable",
      "type": "function"
    },
    {
      "inputs": [],
      "name": "name",
      "outputs": [
        {
          "internalType": "string",
          "name": "",
          "type": "string"
        }
      ],
      "stateMutability": "view",
      "type": "function"
    },
    {
      "inputs": [
        {
          "internalType": "address",
          "name": "operator",
          "type": "address"
        },
        {
          "internalType": "address",
          "name": "from",
          "type": "address"
        },
        {
          "internalType": "uint256[]",
          "name": "ids",
          "type": "uint256[]"
        },
        {
          "internalType": "uint256[]",
          "name": "values",
          "type": "uint256[]"
        },
        {
          "internalType": "bytes",
          "name": "data",
          "type": "bytes"
        }
      ],
      "name": "onERC1155BatchReceived",
      "outputs": [
        {
          "internalType": "bytes4",
          "name": "",
          "type": "bytes4"
        }
      ],
      "stateMutability": "nonpayable",
      "type": "function"
    },
    {
      "inputs": [
        {
          "internalType": "address",
          "name": "operator",
          "type": "address"
        },
        {
          "internalType": "address",
          "name": "from",
          "type": "address"
        },
        {
          "internalType": "uint256",
          "name": "id",
          "type": "uint256"
        },
        {
          "internalType": "uint256",
          "name": "value",
          "type": "uint256"
        },
        {
          "internalType": "bytes",
          "name": "data",
          "type": "bytes"
        }
      ],
      "name": "onERC1155Received",
      "outputs": [
        {
          "internalType": "bytes4",
          "name": "",
          "type": "bytes4"
        }
      ],
      "stateMutability": "nonpayable",
      "type": "function"
    },
    {
      "inputs": [],
      "name": "owner",
      "outputs": [
        {
          "internalType": "address",
          "name": "",
          "type": "address"
        }
      ],
      "stateMutability": "view",
      "type": "function"
    },
    {
      "inputs": [
        {
          "internalType": "uint256",
          "name": "tokenId",
          "type": "uint256"
        }
      ],
      "name": "ownerOf",
      "outputs": [
        {
          "internalType": "address",
          "name": "",
          "type": "address"
        }
      ],
      "stateMutability": "view",
      "type": "function"
    },
    {
      "inputs": [
        {
          "internalType": "uint256",
          "name": "_target",
          "type": "uint256"
        },
        {
          "internalType": "uint256",
          "name": "_amount",
          "type": "uint256"
        }
      ],
      "name": "powerDown",
      "outputs": [
        {
          "internalType": "uint256",
          "name": "",
          "type": "uint256"
        }
      ],
      "stateMutability": "nonpayable",
      "type": "function"
    },
    {
      "inputs": [
        {
          "internalType": "uint256",
          "name": "_target",
          "type": "uint256"
        },
        {
          "internalType": "uint256",
          "name": "_amount",
          "type": "uint256"
        }
      ],
      "name": "powerUp",
      "outputs": [],
      "stateMutability": "nonpayable",
      "type": "function"
    },
    {
      "inputs": [],
      "name": "renounceOwnership",
      "outputs": [],
      "stateMutability": "nonpayable",
      "type": "function"
    },
    {
      "inputs": [
        {
          "internalType": "address",
          "name": "from",
          "type": "address"
        },
        {
          "internalType": "address",
          "name": "to",
          "type": "address"
        },
        {
          "internalType": "uint256",
          "name": "tokenId",
          "type": "uint256"
        }
      ],
      "name": "safeTransferFrom",
      "outputs": [],
      "stateMutability": "nonpayable",
      "type": "function"
    },
    {
      "inputs": [
        {
          "internalType": "address",
          "name": "from",
          "type": "address"
        },
        {
          "internalType": "address",
          "name": "to",
          "type": "address"
        },
        {
          "internalType": "uint256",
          "name": "tokenId",
          "type": "uint256"
        },
        {
          "internalType": "bytes",
          "name": "_data",
          "type": "bytes"
        }
      ],
      "name": "safeTransferFrom",
      "outputs": [],
      "stateMutability": "nonpayable",
      "type": "function"
    },
    {
      "inputs": [
        {
          "internalType": "address",
          "name": "from",
          "type": "address"
        },
        {
          "internalType": "address",
          "name": "to",
          "type": "address"
        },
        {
          "internalType": "uint256",
          "name": "tokenId",
          "type": "uint256"
        }
      ],
      "name": "safeTransferFromRegistry",
      "outputs": [],
      "stateMutability": "nonpayable",
      "type": "function"
    },
    {
      "inputs": [
        {
          "internalType": "uint256",
          "name": "_hId",
          "type": "uint256"
        },
        {
          "internalType": "int256",
          "name": "_a",
          "type": "int256"
        },
        {
          "internalType": "int256",
          "name": "_b",
          "type": "int256"
        }
      ],
      "name": "setAB",
      "outputs": [],
      "stateMutability": "nonpayable",
      "type": "function"
    },
    {
      "inputs": [
        {
          "internalType": "address",
          "name": "_addon",
          "type": "address"
        },
        {
          "internalType": "bool",
          "name": "_isAddon",
          "type": "bool"
        }
      ],
      "name": "setAddon",
      "outputs": [],
      "stateMutability": "nonpayable",
      "type": "function"
    },
    {
      "inputs": [
        {
          "internalType": "address",
          "name": "operator",
          "type": "address"
        },
        {
          "internalType": "bool",
          "name": "approved",
          "type": "bool"
        }
      ],
      "name": "setApprovalForAll",
      "outputs": [],
      "stateMutability": "nonpayable",
      "type": "function"
    },
    {
      "inputs": [
        {
          "internalType": "string",
          "name": "_baseuri",
          "type": "string"
        }
      ],
      "name": "setBaseURI",
      "outputs": [],
      "stateMutability": "nonpayable",
      "type": "function"
    },
    {
      "inputs": [
        {
          "internalType": "bool",
          "name": "_burnable",
          "type": "bool"
        }
      ],
      "name": "setBurnable",
      "outputs": [],
      "stateMutability": "nonpayable",
      "type": "function"
    },
    {
      "inputs": [
        {
          "internalType": "uint256",
          "name": "_defaultfrom",
          "type": "uint256"
        }
      ],
      "name": "setDefaultFrom",
      "outputs": [],
      "stateMutability": "nonpayable",
      "type": "function"
    },
    {
      "inputs": [
        {
          "internalType": "uint256",
          "name": "_defaultprice",
          "type": "uint256"
        }
      ],
      "name": "setDefaultPrice",
      "outputs": [],
      "stateMutability": "nonpayable",
      "type": "function"
    },
    {
      "inputs": [
        {
          "internalType": "address",
          "name": "_gasToken",
          "type": "address"
        }
      ],
      "name": "setGasToken",
      "outputs": [],
      "stateMutability": "nonpayable",
      "type": "function"
    },
    {
      "inputs": [
        {
          "internalType": "uint256",
          "name": "_target",
          "type": "uint256"
        },
        {
          "components": [
            {
              "internalType": "uint256",
              "name": "hp",
              "type": "uint256"
            },
            {
              "internalType": "int256",
              "name": "armor",
              "type": "int256"
            },
            {
              "internalType": "int256",
              "name": "fire",
              "type": "int256"
            },
            {
              "internalType": "int256",
              "name": "frost",
              "type": "int256"
            },
            {
              "internalType": "int256",
              "name": "meta",
              "type": "int256"
            },
            {
              "internalType": "uint256",
              "name": "effect",
              "type": "uint256"
            }
          ],
          "internalType": "struct HPSummary",
          "name": "sum",
          "type": "tuple"
        }
      ],
      "name": "setHPSummary",
      "outputs": [],
      "stateMutability": "nonpayable",
      "type": "function"
    },
    {
      "inputs": [
        {
          "internalType": "uint256",
          "name": "_target",
          "type": "uint256"
        },
        {
          "internalType": "uint256",
          "name": "_maxHp",
          "type": "uint256"
        }
      ],
      "name": "setMaxHp",
      "outputs": [],
      "stateMutability": "nonpayable",
      "type": "function"
    },
    {
      "inputs": [
        {
          "internalType": "uint256",
          "name": "_maxmint",
          "type": "uint256"
        }
      ],
      "name": "setMaxMint",
      "outputs": [],
      "stateMutability": "nonpayable",
      "type": "function"
    },
    {
      "inputs": [
        {
          "internalType": "uint256",
          "name": "_target",
          "type": "uint256"
        },
        {
          "internalType": "uint256",
          "name": "_maxPower",
          "type": "uint256"
        }
      ],
      "name": "setMaxPower",
      "outputs": [],
      "stateMutability": "nonpayable",
      "type": "function"
    },
    {
      "inputs": [
        {
          "internalType": "uint256",
          "name": "_tokenId",
          "type": "uint256"
        },
        {
          "internalType": "uint256",
          "name": "_price",
          "type": "uint256"
        }
      ],
      "name": "setPrice",
      "outputs": [],
      "stateMutability": "nonpayable",
      "type": "function"
    },
    {
      "inputs": [
        {
          "internalType": "address",
          "name": "_rewardContract",
          "type": "address"
        }
      ],
      "name": "setRewardContract",
      "outputs": [],
      "stateMutability": "nonpayable",
      "type": "function"
    },
    {
      "inputs": [
        {
          "internalType": "uint256",
          "name": "_tokenId",
          "type": "uint256"
        },
        {
          "internalType": "uint256",
          "name": "_rewardTokenId",
          "type": "uint256"
        }
      ],
      "name": "setRewardToken",
      "outputs": [],
      "stateMutability": "nonpayable",
      "type": "function"
    },
    {
      "inputs": [
        {
          "internalType": "uint256",
          "name": "_royalty",
          "type": "uint256"
        }
      ],
      "name": "setRoyalty",
      "outputs": [],
      "stateMutability": "nonpayable",
      "type": "function"
    },
    {
      "inputs": [
        {
          "internalType": "bytes4",
          "name": "interfaceId",
          "type": "bytes4"
        }
      ],
      "name": "supportsInterface",
      "outputs": [
        {
          "internalType": "bool",
          "name": "",
          "type": "bool"
        }
      ],
      "stateMutability": "view",
      "type": "function"
    },
    {
      "inputs": [],
      "name": "symbol",
      "outputs": [
        {
          "internalType": "string",
          "name": "",
          "type": "string"
        }
      ],
      "stateMutability": "view",
      "type": "function"
    },
    {
      "inputs": [
        {
          "internalType": "uint256",
          "name": "index",
          "type": "uint256"
        }
      ],
      "name": "tokenByIndex",
      "outputs": [
        {
          "internalType": "uint256",
          "name": "",
          "type": "uint256"
        }
      ],
      "stateMutability": "view",
      "type": "function"
    },
    {
      "inputs": [
        {
          "internalType": "address",
          "name": "owner",
          "type": "address"
        },
        {
          "internalType": "uint256",
          "name": "index",
          "type": "uint256"
        }
      ],
      "name": "tokenOfOwnerByIndex",
      "outputs": [
        {
          "internalType": "uint256",
          "name": "",
          "type": "uint256"
        }
      ],
      "stateMutability": "view",
      "type": "function"
    },
    {
      "inputs": [
        {
          "internalType": "uint256",
          "name": "_tokenId",
          "type": "uint256"
        }
      ],
      "name": "tokenURI",
      "outputs": [
        {
          "internalType": "string",
          "name": "",
          "type": "string"
        }
      ],
      "stateMutability": "view",
      "type": "function"
    },
    {
      "inputs": [],
      "name": "totalSupply",
      "outputs": [
        {
          "internalType": "uint256",
          "name": "",
          "type": "uint256"
        }
      ],
      "stateMutability": "view",
      "type": "function"
    },
    {
      "inputs": [
        {
          "internalType": "address",
          "name": "from",
          "type": "address"
        },
        {
          "internalType": "address",
          "name": "to",
          "type": "address"
        },
        {
          "internalType": "uint256",
          "name": "tokenId",
          "type": "uint256"
        }
      ],
      "name": "transferFrom",
      "outputs": [],
      "stateMutability": "nonpayable",
      "type": "function"
    },
    {
      "inputs": [
        {
          "internalType": "address",
          "name": "newOwner",
          "type": "address"
        }
      ],
      "name": "transferOwnership",
      "outputs": [],
      "stateMutability": "nonpayable",
      "type": "function"
    },
    {
      "inputs": [
        {
          "internalType": "uint256",
          "name": "_hId",
          "type": "uint256"
        },
        {
          "internalType": "uint256",
          "name": "_whatId",
          "type": "uint256"
        },
        {
          "internalType": "uint256",
          "name": "_amount",
          "type": "uint256"
        }
      ],
      "name": "transferSpellIn",
      "outputs": [],
      "stateMutability": "nonpayable",
      "type": "function"
    },
    {
      "inputs": [
        {
          "internalType": "uint256",
          "name": "_hId",
          "type": "uint256"
        },
        {
          "internalType": "uint256",
          "name": "_whatId",
          "type": "uint256"
        },
        {
          "internalType": "uint256",
          "name": "_amount",
          "type": "uint256"
        },
        {
          "internalType": "address",
          "name": "_to",
          "type": "address"
        }
      ],
      "name": "transferSpellOut",
      "outputs": [],
      "stateMutability": "nonpayable",
      "type": "function"
    },
    {
      "inputs": [
        {
          "internalType": "uint256",
          "name": "_hId",
          "type": "uint256"
        },
        {
          "internalType": "int256",
          "name": "_whatId",
          "type": "int256"
        },
        {
          "internalType": "uint256",
          "name": "_amount",
          "type": "uint256"
        }
      ],
      "name": "unCast",
      "outputs": [
        {
          "internalType": "bool",
          "name": "",
          "type": "bool"
        }
      ],
      "stateMutability": "nonpayable",
      "type": "function"
    }
  ],
  "bytecode": "6080604052600a805460ff191690556000600e553480156200002057600080fd5b506040516200668238038062006682833981016040819052620000439162000480565b6040518060400160405280600b81526020016a5363617261624379636c6560a81b815250604051806040016040528060048152602001630a8a686960e31b815250846040518060600160405280602881526020016200665a60289139600160001980808c8e8989828583836000620000bc8382620005a6565b506001620000cb8282620005a6565b5050506000620000e0620002e660201b60201c565b600d80546001600160a01b0319166001600160a01b038316908117909155604051919250906000907f8be0079c531659141344cd1fd0a4f28419497f9722a3daafe3b4186f6b6457e0908290a350601080546001600160a01b0319166001600160a01b038416179055620001548462000302565b600f5550506001601155506001600160a01b038116620001bb5760405162461bcd60e51b815260206004820152601560248201527f496e76616c69642061646d696e2061646472657373000000000000000000000060448201526064015b60405180910390fd5b6001600160a01b038216620002075760405162461bcd60e51b815260206004820152601160248201527024b73b30b634b21033b0b9903a37b5b2b760791b6044820152606401620001b2565b601080546001600160a01b0319166001600160a01b0383161790556012620002308882620005a6565b50506013805460ff19169515159590951790945560149190915560155550601a80546001600160a01b03199081166001600160a01b039384161790915560056016556010805482169c83169c909c17909b55602980548c169a82169a909a179099555050602a805489169688169690961790955550602b805487169286169283179055602c80548716909217909155602d80548616919094169081179093555050602e80549092161790556000602f5562000672565b6000620002fd6200036360201b62003ff91760201c565b905090565b600a5460ff1615620003485760405162461bcd60e51b815260206004820152600e60248201526d185b1c9958591e481a5b9a5d195960921b6044820152606401620001b2565b6200035381620003c1565b50600a805460ff19166001179055565b6000303303620003bb57600080368080601f0160208091040260200160405190810160405280939291908181526020018383808284376000920191909152505050503601516001600160a01b03169150620003be9050565b50335b90565b6040518060800160405280604f81526020016200660b604f9139805160209182012082519282019290922060408051808201825260018152603160f81b90840152805180840194909452838101919091527fc89efdaa54c0f20c7adf612882df0950f5a951637e0307cdcb4c672f298b8bc660608401523060808401524660a0808501919091528151808503909101815260c090930190528151910120600b55565b80516001600160a01b03811681146200047b57600080fd5b919050565b60008060008060008060c087890312156200049a57600080fd5b620004a58762000463565b9550620004b56020880162000463565b9450620004c56040880162000463565b9350620004d56060880162000463565b9250620004e56080880162000463565b9150620004f560a0880162000463565b90509295509295509295565b634e487b7160e01b600052604160045260246000fd5b600181811c908216806200052c57607f821691505b6020821081036200054d57634e487b7160e01b600052602260045260246000fd5b50919050565b601f821115620005a157600081815260208120601f850160051c810160208610156200057c5750805b601f850160051c820191505b818110156200059d5782815560010162000588565b5050505b505050565b81516001600160401b03811115620005c257620005c262000501565b620005da81620005d3845462000517565b8462000553565b602080601f831160018114620006125760008415620005f95750858301515b600019600386901b1c1916600185901b1785556200059d565b600085815260208120601f198616915b82811015620006435788860151825594840194600190910190840162000622565b5085821015620006625787850151600019600388901b60f8161c191681555b5050505050600190811b01905550565b615f8980620006826000396000f3fe6080604052600436106104cb5760003560e01c80636bfc324f11610276578063b88d4fde1161014f578063e189977f116100c1578063f1f8b99b11610085578063f1f8b99b14610ff2578063f23a6e6114611012578063f2fde38b14611058578063f7bdfed314611078578063f7d97577146110e4578063ff2e9d3a1461110457600080fd5b8063e189977f14610f68578063e757223014610f88578063e8a3d48514610fa8578063e985e9c514610fbd578063ef2d174614610fdd57600080fd5b8063c0d8012c11610113578063c0d8012c14610e62578063c43e92b114610eac578063c87b56dd14610ecc578063d547cfb714610eec578063dcb9d1f114610f01578063df34dd2214610f3b57600080fd5b8063b88d4fde14610d8c578063b9dd657414610dac578063bc186c6e14610dc1578063bc197c8114610de1578063be2bf6f814610e4257600080fd5b80638a0de3dd116101e857806395d89b41116101ac57806395d89b4114610ced578063972d1ae214610d02578063995b08fc14610d17578063a22cb46514610d37578063a795e19314610d57578063b086613c14610d7757600080fd5b80638a0de3dd14610c645780638aa80ea514610c825780638d1d0bb914610c985780638da5cb5b14610cb85780638fc5676714610ccd57600080fd5b8063755edd171161023a578063755edd1714610b3e5780637b30396514610b5e5780637d3fa3ce14610bcb57806380929e5b14610beb5780638297f29f14610c0b57806387d187ee14610c4457600080fd5b80636bfc324f14610aa95780636d3c7ec514610ac95780636d714b6814610ae957806370a0823114610b09578063715018a614610b2957600080fd5b80633408e470116103a85780634f6ccce71161031a5780635553b81c116102de5780635553b81c146109d957806355f804b3146109f9578063596c632514610a195780636352211e14610a495780636573c78714610a6957806366ccfb6e14610a8957600080fd5b80634f6ccce71461093b57806351508f0a1461095b57806351a8261b1461097b57806351f41ee31461099b578063547520fe146109b957600080fd5b80634409559a1161036c5780634409559a146108a6578063480a962b146108c6578063495057be146105255780634b6bd12e146108e65780634d47732a146109065780634d57ca4f1461091b57600080fd5b80633408e47014610813578063343f40df146108265780634209a2e11461084657806342842e0e1461086657806342966c681461088657600080fd5b80631bfff1a31161044157806325f31ab71161040557806325f31ab714610719578063273fbdcb146107395780632b2b72dc146107715780632d0335ab146107915780632f745c59146107c757806333d119eb146107e757600080fd5b80631bfff1a31461068f5780631e9f8aad146106af57806320379ee5146106cf57806323b872dd146106e457806324d64ca21461070457600080fd5b80630c53c51c116104935780630c53c51c146105a15780630f7e5970146105b4578063109f7561146105e157806318160ddd14610601578063199dc532146106205780631b64ab591461066f57600080fd5b806301ffc9a7146104d057806304bc43a51461050557806306fdde0314610527578063081812fc14610549578063095ea7b314610581575b600080fd5b3480156104dc57600080fd5b506104f06104eb366004614ebd565b611124565b60405190151581526020015b60405180910390f35b34801561051157600080fd5b50610525610520366004614f18565b61114f565b005b34801561053357600080fd5b5061053c6111c8565b6040516104fc9190615006565b34801561055557600080fd5b50610569610564366004615019565b61125a565b6040516001600160a01b0390911681526020016104fc565b34801561058d57600080fd5b5061052561059c366004615047565b6112e7565b61053c6105af3660046150ff565b611409565b3480156105c057600080fd5b5061053c604051806040016040528060018152602001603160f81b81525081565b3480156105ed57600080fd5b506105256105fc366004615019565b6115f3565b34801561060d57600080fd5b506008545b6040519081526020016104fc565b34801561062c57600080fd5b5061065a61063b366004615019565b6000908152601860209081526040808320546019909252909120549091565b604080519283526020830191909152016104fc565b34801561067b57600080fd5b5061052561068a36600461517c565b611644565b34801561069b57600080fd5b506106126106aa366004615019565b6117b0565b3480156106bb57600080fd5b506105256106ca3660046151a8565b611868565b3480156106db57600080fd5b50600b54610612565b3480156106f057600080fd5b506105256106ff3660046151c5565b6118fc565b34801561071057600080fd5b50601554610612565b34801561072557600080fd5b50610612610734366004615206565b611934565b34801561074557600080fd5b50610612610754366004615243565b600091825260256020908152604080842092845291905290205490565b34801561077d57600080fd5b5061052561078c366004615243565b611e55565b34801561079d57600080fd5b506106126107ac3660046151a8565b6001600160a01b03166000908152600c602052604090205490565b3480156107d357600080fd5b506106126107e2366004615047565b611e98565b3480156107f357600080fd5b50610612610802366004615019565b600090815260208052604090205490565b34801561081f57600080fd5b5046610612565b34801561083257600080fd5b50610525610841366004615019565b611f2e565b34801561085257600080fd5b50610525610861366004615019565b611f56565b34801561087257600080fd5b506105256108813660046151c5565b611ff6565b34801561089257600080fd5b506105256108a1366004615019565b612011565b3480156108b257600080fd5b50601054610569906001600160a01b031681565b3480156108d257600080fd5b506105256108e1366004615265565b6120da565b3480156108f257600080fd5b506105256109013660046152a9565b612140565b34801561091257600080fd5b50601654610612565b34801561092757600080fd5b50610525610936366004615243565b612177565b34801561094757600080fd5b50610612610956366004615019565b6121d8565b34801561096757600080fd5b506105256109763660046151a8565b61226b565b34801561098757600080fd5b5061052561099636600461517c565b612368565b3480156109a757600080fd5b50602a546001600160a01b0316610569565b3480156109c557600080fd5b506105256109d4366004615019565b612405565b3480156109e557600080fd5b506104f06109f436600461517c565b61245b565b348015610a0557600080fd5b50610525610a143660046152e4565b612594565b348015610a2557600080fd5b506104f0610a343660046151a8565b601e6020526000908152604090205460ff1681565b348015610a5557600080fd5b50610569610a64366004615019565b6125f5565b348015610a7557600080fd5b506104f0610a84366004615019565b151590565b348015610a9557600080fd5b50610525610aa4366004615243565b61266c565b348015610ab557600080fd5b506104f0610ac4366004615243565b61280b565b348015610ad557600080fd5b50610525610ae4366004615019565b612861565b348015610af557600080fd5b50610525610b04366004615326565b6128b2565b348015610b1557600080fd5b50610612610b243660046151a8565b61293f565b348015610b3557600080fd5b506105256129c6565b348015610b4a57600080fd5b50610612610b593660046151a8565b612a4f565b348015610b6a57600080fd5b50610b7e610b79366004615019565b612b68565b6040516104fc9190600060c08201905082518252602083015160208301526040830151604083015260608301516060830152608083015151608083015260a083015160a083015292915050565b348015610bd757600080fd5b50610525610be636600461517c565b612be5565b348015610bf757600080fd5b50610525610c0636600461535f565b612c87565b348015610c1757600080fd5b506104f0610c263660046151a8565b6001600160a01b03166000908152601e602052604090205460ff1690565b348015610c5057600080fd5b5061065a610c5f366004615019565b612cd9565b348015610c7057600080fd5b50601a546001600160a01b0316610569565b348015610c8e57600080fd5b50610612600f5481565b348015610ca457600080fd5b50610525610cb3366004615243565b612da4565b348015610cc457600080fd5b50610569612de7565b348015610cd957600080fd5b50610525610ce83660046152a9565b612df6565b348015610cf957600080fd5b5061053c612fe8565b348015610d0e57600080fd5b50610612612ff7565b348015610d2357600080fd5b50610525610d323660046152a9565b61300d565b348015610d4357600080fd5b50610525610d52366004615326565b613239565b348015610d6357600080fd5b50610612610d723660046151a8565b613336565b348015610d8357600080fd5b50601454610612565b348015610d9857600080fd5b50610525610da736600461537c565b6133ae565b348015610db857600080fd5b506105256133ed565b348015610dcd57600080fd5b50610525610ddc3660046152a9565b613404565b348015610ded57600080fd5b50610e29610dfc366004615473565b7fbc197c819b3e337a6f9652dd10becd7eef83032af3b9d958d3d42f669414662198975050505050505050565b6040516001600160e01b031990911681526020016104fc565b348015610e4e57600080fd5b50610612610e5d366004615243565b613622565b348015610e6e57600080fd5b50610e9e610e7d366004615019565b601b546000918252601c6020526040909120546001600160a01b0390911691565b6040516104fc929190615531565b348015610eb857600080fd5b50610525610ec73660046151c5565b6137b6565b348015610ed857600080fd5b5061053c610ee7366004615019565b6139da565b348015610ef857600080fd5b5061053c613a14565b348015610f0d57600080fd5b5061065a610f1c366004615019565b6000908152602360209081526040808320546024909252909120549091565b348015610f4757600080fd5b50610612610f56366004615019565b60009081526027602052604090205490565b348015610f7457600080fd5b50610525610f8336600461554a565b613a3c565b348015610f9457600080fd5b50610612610fa3366004615019565b613bf8565b348015610fb457600080fd5b5061053c613c14565b348015610fc957600080fd5b506104f0610fd8366004615599565b613c28565b348015610fe957600080fd5b50600e54610612565b348015610ffe57600080fd5b5061052561100d3660046155c7565b613c56565b34801561101e57600080fd5b50610e2961102d366004615608565b7ff23a6e612e1ff4830e658fe43f4e3cb4a5f8170bd5d9e69fb5d7a7fa9e4fdf979695505050505050565b34801561106457600080fd5b506105256110733660046151a8565b613d7c565b34801561108457600080fd5b50611098611093366004615019565b613e7c565b6040516104fc9190600060c082019050825182526020830151602083015260408301516040830152606083015160608301526080830151608083015260a083015160a083015292915050565b3480156110f057600080fd5b506105256110ff366004615243565b613f0e565b34801561111057600080fd5b5061052561111f36600461517c565b613faa565b60006001600160e01b0319821663780e9d6360e01b1480611149575061114982614055565b92915050565b336000908152601e602052604090205460ff168061117757506010546001600160a01b031633145b61118057600080fd5b60009182526028602090815260409283902082518155908201516001820155918101516002830155606081015160038301556080810151600483015560a00151600590910155565b6060600080546111d790615683565b80601f016020809104026020016040519081016040528092919081815260200182805461120390615683565b80156112505780601f1061122557610100808354040283529160200191611250565b820191906000526020600020905b81548152906001019060200180831161123357829003601f168201915b5050505050905090565b6000611265826140a5565b6112cb5760405162461bcd60e51b815260206004820152602c60248201527f4552433732313a20617070726f76656420717565727920666f72206e6f6e657860448201526b34b9ba32b73a103a37b5b2b760a11b60648201526084015b60405180910390fd5b506000908152600460205260409020546001600160a01b031690565b60006112f2826125f5565b9050806001600160a01b0316836001600160a01b03160361135f5760405162461bcd60e51b815260206004820152602160248201527f4552433732313a20617070726f76616c20746f2063757272656e74206f776e656044820152603960f91b60648201526084016112c2565b806001600160a01b03166113716140c2565b6001600160a01b0316148061138d575061138d81610fd86140c2565b6113fa5760405162461bcd60e51b815260206004820152603860248201527f4552433732313a20617070726f76652063616c6c6572206973206e6f74206f776044820152771b995c881b9bdc88185c1c1c9bdd995908199bdc88185b1b60421b60648201526084016112c2565b61140483836140cc565b505050565b60408051606081810183526001600160a01b0388166000818152600c602090815290859020548452830152918101869052611447878287878761413a565b61149d5760405162461bcd60e51b815260206004820152602160248201527f5369676e657220616e64207369676e617475726520646f206e6f74206d6174636044820152600d60fb1b60648201526084016112c2565b6001600160a01b0387166000908152600c60205260409020546114c190600161422a565b6001600160a01b0388166000908152600c60205260409081902091909155517f5845892132946850460bff5a0083f71031bc5bf9aadcd40f1de79423eac9b10b9061151190899033908a906156bd565b60405180910390a1600080306001600160a01b0316888a6040516020016115399291906156f2565b60408051601f198184030181529082905261155391615729565b6000604051808303816000865af19150503d8060008114611590576040519150601f19603f3d011682016040523d82523d6000602084013e611595565b606091505b5091509150816115e75760405162461bcd60e51b815260206004820152601c60248201527f46756e6374696f6e2063616c6c206e6f74207375636365737366756c0000000060448201526064016112c2565b98975050505050505050565b6115fb612de7565b6001600160a01b031661160c613ff9565b6001600160a01b031614806116365750611624613ff9565b6010546001600160a01b039081169116145b61163f57600080fd5b601555565b6002601154036116665760405162461bcd60e51b81526004016112c290615745565b6002601155601a546000906001600160a01b031663dd62ed3e611687613ff9565b6040516001600160e01b031960e084901b1681526001600160a01b039091166004820152306024820152604401602060405180830381865afa1580156116d1573d6000803e3d6000fd5b505050506040513d601f19601f820116820180604052508101906116f5919061577c565b9050828110156117355760405162461bcd60e51b815260206004820152600b60248201526a66696c6c47617354616e6b60a81b60448201526064016112c2565b61173f82846157ab565b6000858152601860205260408120805490919061175d9084906157c2565b9091555050600084815260196020526040812080548492906117809084906157c2565b909155506117a59050611791613ff9565b601a546001600160a01b0316903086614236565b505060016011555050565b60008181526021602052604081205481036117cd57506000919050565b602e5460008381526022602052604090819020549051638dd1983b60e01b81526001600160a01b0390921691638dd1983b9161180f91309187916004016157da565b6020604051808303816000875af115801561182e573d6000803e3d6000fd5b505050506040513d601f19601f82011682018060405250810190611852919061577c565b6000928352602260205260409092208290555090565b6001600160a01b03811661188e5760405162461bcd60e51b81526004016112c2906157fb565b611896612de7565b6001600160a01b03166118a7613ff9565b6001600160a01b031614806118d157506118bf613ff9565b6010546001600160a01b039081169116145b6118da57600080fd5b601a80546001600160a01b0319166001600160a01b0392909216919091179055565b61190d6119076140c2565b8261428e565b6119295760405162461bcd60e51b81526004016112c290615824565b611404838383614350565b60008061194086613bf8565b9050808310156119805760405162461bcd60e51b815260206004820152600b60248201526a21b7b9ba399036b7b9329760a91b60448201526064016112c2565b6029546040516313784abf60e31b81526000916001600160a01b031690639bc255f8906119b39033908890600401615531565b6020604051808303816000875af11580156119d2573d6000803e3d6000fd5b505050506040513d601f19601f820116820180604052508101906119f6919061577c565b90506000602960009054906101000a90046001600160a01b03166001600160a01b031663935418fc836040518263ffffffff1660e01b815260040160206040518083038185885af1158015611a4f573d6000803e3d6000fd5b50505050506040513d601f19601f82011682018060405250810190611a74919061577c565b60295460405163095ea7b360e01b81529192506001600160a01b03169063095ea7b390611aa79030908590600401615531565b6020604051808303816000875af1158015611ac6573d6000803e3d6000fd5b505050506040513d601f19601f82011682018060405250810190611aea9190615875565b506000611af86002836158a8565b602954602a546040516331a9108f60e11b8152600481018d90529293506001600160a01b03918216926323b872dd9230921690636352211e90602401602060405180830381865afa158015611b51573d6000803e3d6000fd5b505050506040513d601f19601f82011682018060405250810190611b7591906158bc565b846040518463ffffffff1660e01b8152600401611b94939291906158d9565b6020604051808303816000875af1158015611bb3573d6000803e3d6000fd5b505050506040513d601f19601f82011682018060405250810190611bd79190615875565b506000611be482846157ab565b90506000611bf36002836158a8565b90506000611c0182846157ab565b602954602a5460408051638da5cb5b60e01b815290519394506001600160a01b03928316936323b872dd9330931691638da5cb5b9160048083019260209291908290030181865afa158015611c5a573d6000803e3d6000fd5b505050506040513d601f19601f82011682018060405250810190611c7e91906158bc565b856040518463ffffffff1660e01b8152600401611c9d939291906158d9565b6020604051808303816000875af1158015611cbc573d6000803e3d6000fd5b505050506040513d601f19601f82011682018060405250810190611ce09190615875565b50602954604051630852cd8d60e31b8152600481018390526001600160a01b03909116906342966c6890602401600060405180830381600087803b158015611d2757600080fd5b505af1158015611d3b573d6000803e3d6000fd5b505050506000611d49612ff7565b9050611d558c826144e9565b611d5d6133ed565b8a601f600083815260200190815260200160002081905550670de0b6b3a764000060216000838152602001908152602001600020819055508960226000838152602001908152602001600020819055508c60236000838152602001908152602001600020819055508c60206000838152602001908152602001600020819055507fe2dac6d762973cfc3a5349484ebd1f4fb2943c5ad7fdf22c89917a97101e1935818e8e8e8e604051611e3b95949392919094855260208501939093526001600160a01b039190911660408401526060830152608082015260a00190565b60405180910390a19750505050505050505b949350505050565b336000908152601e602052604090205460ff1680611e7d57506010546001600160a01b031633145b611e8657600080fd5b60009182526027602052604090912055565b6000611ea38361293f565b8210611f055760405162461bcd60e51b815260206004820152602b60248201527f455243373231456e756d657261626c653a206f776e657220696e646578206f7560448201526a74206f6620626f756e647360a81b60648201526084016112c2565b506001600160a01b03919091166000908152600660209081526040808320938352929052205490565b336000908152601e602052604090205460ff16611f4a57600080fd5b611f5381614616565b50565b611f5e612de7565b6001600160a01b0316611f6f613ff9565b6001600160a01b03161480611f9e57506010546001600160a01b0316611f93613ff9565b6001600160a01b0316145b611fa757600080fd5b60636016541115611ff15760405162461bcd60e51b81526020600482015260146024820152732132903132ba3bb2b2b710181030b732101c9c9760611b60448201526064016112c2565b601655565b611404838383604051806020016040528060008152506133ae565b60135460ff166120635760405162461bcd60e51b815260206004820152601b60248201527f596f752063616e2774206275726e20746869732e2e2e207965743f000000000060448201526064016112c2565b61206e6119076140c2565b8061208e575061207c613ff9565b6010546001600160a01b039081169116145b611f4a5760405162461bcd60e51b815260206004820181905260248201527f43616c6c6572206973206e6f74206f776e6572206e6f7220617070726f76656460448201526064016112c2565b604080513381526001600160a01b0387166020820152908101859052606081018490526080810183905260a081018290527fe41478bbc4f03a84dccd745840cd2c95429fa75e364b6b862ce92017527e18859060c0015b60405180910390a15050505050565b7f698d63d1c391e6962ab2abebf36d01ccd734af86f60be4f14375c4b7ed8c6e8285858585856040516121319594939291906158fd565b336000908152601e602052604090205460ff16806121aa5750612198613ff9565b6010546001600160a01b039081169116145b6121b357600080fd5b6000918252601c6020908152604080842092909255601d90529020805460ff19169055565b60006121e360085490565b82106122465760405162461bcd60e51b815260206004820152602c60248201527f455243373231456e756d657261626c653a20676c6f62616c20696e646578206f60448201526b7574206f6620626f756e647360a01b60648201526084016112c2565b6008828154811061225957612259615920565b90600052602060002001549050919050565b6001600160a01b0381166122915760405162461bcd60e51b81526004016112c2906157fb565b612299612de7565b6001600160a01b03166122aa613ff9565b6001600160a01b031614806122d457506122c2613ff9565b6010546001600160a01b039081169116145b6123465760405162461bcd60e51b815260206004820152603b60248201527f4f6e6c7920746865206f776e6572206f7220726567697374657279206d61792060448201527f6368616e6765207468652072657761726420636f6e74726163742e000000000060648201526084016112c2565b601b80546001600160a01b0319166001600160a01b0392909216919091179055565b602c54604051637921219560e11b81526001600160a01b039091169063f242432a9061239e903390309087908790600401615936565b600060405180830381600087803b1580156123b857600080fd5b505af11580156123cc573d6000803e3d6000fd5b5050506000848152602560209081526040808320868452909152812080548493509091906123fb9084906157c2565b9091555050505050565b61240d612de7565b6001600160a01b031661241e613ff9565b6001600160a01b0316148061244d57506010546001600160a01b0316612442613ff9565b6001600160a01b0316145b61245657600080fd5b600f55565b6010546000906001600160a01b03163314806124865750336000908152601e602052604090205460ff165b61248f57600080fd5b60008481526025602090815260408083208684529091529020548211156124b85750600061258d565b6000848152602560209081526040808320868452909152812080548492906124e19084906157ab565b9091555050602c54604051637a94c56560e11b81526001600160a01b039091169063f5298aca9061251a903090879087906004016157da565b600060405180830381600087803b15801561253457600080fd5b505af1158015612548573d6000803e3d6000fd5b505050507faefda89108f322208cfe9c07fe13735de046d8af045f680dbbeaae812d2b3f5b33858585604051612581949392919061596e565b60405180910390a15060015b9392505050565b61259c612de7565b6001600160a01b03166125ad613ff9565b6001600160a01b031614806125dc57506010546001600160a01b03166125d1613ff9565b6001600160a01b0316145b6125e557600080fd5b60126125f182826159e2565b5050565b6000818152600260205260408120546001600160a01b0316806111495760405162461bcd60e51b815260206004820152602960248201527f4552433732313a206f776e657220717565727920666f72206e6f6e657869737460448201526832b73a103a37b5b2b760b91b60648201526084016112c2565b336000908152601e602052604090205460ff168061269457506010546001600160a01b031633145b806127315750602a546000838152602080526040908190205490516331a9108f60e11b81526001600160a01b0390921691636352211e916126db9160040190815260200190565b602060405180830381865afa1580156126f8573d6000803e3d6000fd5b505050506040513d601f19601f8201168201806040525081019061271c91906158bc565b6001600160a01b0316336001600160a01b0316145b61273a57600080fd5b60008281526026602052604090205461275b82670de0b6b3a7640000615aa1565b61276591906158a8565b600083815260226020526040812080549091906127839084906157c2565b9091555050600082815260226020526040902054670de0b6b3a764000010156127c0576000828152602260205260409020670de0b6b3a764000090555b600082815260226020908152604091829020548251858152918201527fbef3cbdcef64ca80e5c5fc8476233b3fabc3f02acebb27544fa79630e27e825f910160405180910390a15050565b6000828152601f602052604081205461282f9061282a90600e90615ac0565b6146ab565b821215801561258d57506000838152601f60205260409020546128579061282a90600f615aff565b8213159392505050565b612869612de7565b6001600160a01b031661287a613ff9565b6001600160a01b031614806128a45750612892613ff9565b6010546001600160a01b039081169116145b6128ad57600080fd5b601455565b6001600160a01b0382166128d85760405162461bcd60e51b81526004016112c2906157fb565b6128e0613ff9565b6010546001600160a01b039081169116148061290b5750336000908152601e602052604090205460ff165b61291457600080fd5b6001600160a01b03919091166000908152601e60205260409020805460ff1916911515919091179055565b60006001600160a01b0382166129aa5760405162461bcd60e51b815260206004820152602a60248201527f4552433732313a2062616c616e636520717565727920666f7220746865207a65604482015269726f206164647265737360b01b60648201526084016112c2565b506001600160a01b031660009081526003602052604090205490565b6129ce6140c2565b6001600160a01b03166129df612de7565b6001600160a01b031614612a055760405162461bcd60e51b81526004016112c290615b40565b600d546040516000916001600160a01b0316907f8be0079c531659141344cd1fd0a4f28419497f9722a3daafe3b4186f6b6457e0908390a3600d80546001600160a01b0319169055565b6000612a59612de7565b6001600160a01b0316612a6a613ff9565b6001600160a01b03161480612a9957506010546001600160a01b0316612a8e613ff9565b6001600160a01b0316145b612af95760405162461bcd60e51b815260206004820152602b60248201527f4f6e6c79206f776e657220616e64206d61726b6574706c6163652063616e206d60448201526a34b73a103a37b5b2b7399760a91b60648201526084016112c2565b600f54612b04612ff7565b10612b4a5760405162461bcd60e51b815260206004820152601660248201527520b63932b0b23c9030ba1036b0bc103a37b5b2b7399760511b60448201526064016112c2565b6000612b54612ff7565b9050612b6083826144e9565b6111496133ed565b612b70614e5d565b602e54604051630368516960e01b81526001600160a01b0390911690630368516990612ba29030908690600401615531565b60c0604051808303816000875af1158015612bc1573d6000803e3d6000fd5b505050506040513d601f19601f820116820180604052508101906111499190615b75565b6010546001600160a01b0316331480612c0d5750336000908152601e602052604090205460ff165b612c1657600080fd5b600083815260256020908152604080832085845290915281208054839290612c3f9084906157c2565b90915550506040517fc8ac98fcade83e4e23276f23b6e7eccaa7446c3815452bd5e9f831d3f8274a3590612c7a90339086908690869061596e565b60405180910390a1505050565b612c8f6140c2565b6001600160a01b0316612ca0612de7565b6001600160a01b031614612cc65760405162461bcd60e51b81526004016112c290615b40565b6013805460ff1916911515919091179055565b600081815260216020526040812054819015612d9957602e5460008481526021602052604080822054905163c60e328d60e01b81526001600160a01b039093169263c60e328d92612d339230928992908190600401615c0b565b6020604051808303816000875af1158015612d52573d6000803e3d6000fd5b505050506040513d601f19601f82011682018060405250810190612d76919061577c565b6000848152602160205260409020819055612d90846117b0565b91509150915091565b506000928392509050565b336000908152601e602052604090205460ff1680612dcc57506010546001600160a01b031633145b612dd557600080fd5b60009182526026602052604090912055565b600d546001600160a01b031690565b336000908152601e602052604090205460ff1680612e1e57506010546001600160a01b031633145b80612ebb5750602a546000858152602080526040908190205490516331a9108f60e11b81526001600160a01b0390921691636352211e91612e659160040190815260200190565b602060405180830381865afa158015612e82573d6000803e3d6000fd5b505050506040513d601f19601f82011682018060405250810190612ea691906158bc565b6001600160a01b0316336001600160a01b0316145b612ec457600080fd5b6000848152602160205260408120805491859190612ee283856157c2565b90915550508115612f6b57602e54600086815260216020526040908190205490516302966bef60e41b81526001600160a01b0390921691632966bef091612f389130918b918b9188916010908b90600401615c39565b600060405180830381600087803b158015612f5257600080fd5b505af1158015612f66573d6000803e3d6000fd5b505050505b600085815260216020526040902054670de0b6b3a76400001015612fa3576000858152602160205260409020670de0b6b3a764000090555b60008581526021602052604090819020549051600080516020615f1483398151915291612fd8918991899189919088906158fd565b60405180910390a1505050505050565b6060600180546111d790615683565b600e5460009061300890600161422a565b905090565b336000908152601e602052604090205460ff168061303557506010546001600160a01b031633145b806130d25750602a546000858152602080526040908190205490516331a9108f60e11b81526001600160a01b0390921691636352211e9161307c9160040190815260200190565b602060405180830381865afa158015613099573d6000803e3d6000fd5b505050506040513d601f19601f820116820180604052508101906130bd91906158bc565b6001600160a01b0316336001600160a01b0316145b6130db57600080fd5b600084815260216020526040902054602e546001600160a01b031663c60e328d30878461310789615c74565b886040518663ffffffff1660e01b8152600401613128959493929190615c0b565b6020604051808303816000875af1158015613147573d6000803e3d6000fd5b505050506040513d601f19601f8201168201806040525081019061316b919061577c565b60008681526021602052604090205581156131fd57602e54600086815260216020526040908190205490516302966bef60e41b81526001600160a01b0390921691632966bef0916131ca9130918b918b9188918b908b90600401615c39565b600060405180830381600087803b1580156131e457600080fd5b505af11580156131f8573d6000803e3d6000fd5b505050505b600080516020615f14833981519152868661321787615c74565b60008981526021602052604090819020549051612fd8949392919088906158fd565b6132416140c2565b6001600160a01b0316826001600160a01b03160361329d5760405162461bcd60e51b815260206004820152601960248201527822a9219b99189d1030b8383937bb32903a379031b0b63632b960391b60448201526064016112c2565b80600560006132aa6140c2565b6001600160a01b03908116825260208083019390935260409182016000908120918716808252919093529120805460ff1916921515929092179091556132ee6140c2565b6001600160a01b03167f17307eab39ab6107e8899845ad3d59bd9653f200f220920489ca2b5937696c318360405161332a911515815260200190565b60405180910390a35050565b336000908152601e602052604081205460ff166133655760405162461bcd60e51b81526004016112c290615c90565b600f54613370612ff7565b10612b4a5760405162461bcd60e51b815260206004820152600e60248201526d20ba1036b0bc103a37b5b2b7399760911b60448201526064016112c2565b6133bf6133b96140c2565b8361428e565b6133db5760405162461bcd60e51b81526004016112c290615824565b6133e7848484846146cf565b50505050565b600e80549060006133fd83615cb6565b9190505550565b336000908152601e602052604090205460ff168061342c57506010546001600160a01b031633145b806134c95750602a546000858152602080526040908190205490516331a9108f60e11b81526001600160a01b0390921691636352211e916134739160040190815260200190565b602060405180830381865afa158015613490573d6000803e3d6000fd5b505050506040513d601f19601f820116820180604052508101906134b491906158bc565b6001600160a01b0316336001600160a01b0316145b6134d257600080fd5b6000848152602160205260409081902054602e54915163c60e328d60e01b815290916001600160a01b03169063c60e328d9061351a903090899086908a908a90600401615c0b565b6020604051808303816000875af1158015613539573d6000803e3d6000fd5b505050506040513d601f19601f8201168201806040525081019061355d919061577c565b6000868152602160205260409020558115612fa357602e54600086815260216020526040908190205490516302966bef60e41b81526001600160a01b0390921691632966bef0916135bc9130918b918b9188918b908b90600401615c39565b600060405180830381600087803b1580156135d657600080fd5b505af11580156135ea573d6000803e3d6000fd5b50505060008681526021602052604090819020549051600080516020615f148339815191529250612fd89189918991899188906158fd565b336000908152601e602052604081205460ff168061364a57506010546001600160a01b031633145b806136e75750602a546000848152602080526040908190205490516331a9108f60e11b81526001600160a01b0390921691636352211e916136919160040190815260200190565b602060405180830381865afa1580156136ae573d6000803e3d6000fd5b505050506040513d601f19601f820116820180604052508101906136d291906158bc565b6001600160a01b0316336001600160a01b0316145b6136f057600080fd5b60008381526022602052604090205482111561371a57600083815260226020526040812055613769565b60008381526026602052604090205461373b83670de0b6b3a7640000615aa1565b61374591906158a8565b600084815260226020526040812080549091906137639084906157ab565b90915550505b600083815260226020908152604091829020548251868152918201527fbef3cbdcef64ca80e5c5fc8476233b3fabc3f02acebb27544fa79630e27e825f910160405180910390a192915050565b6002601154036137d85760405162461bcd60e51b81526004016112c290615745565b6002601155601e60006137e9613ff9565b6001600160a01b0316815260208101919091526040016000205460ff166138225760405162461bcd60e51b81526004016112c290615c90565b600061382d826125f5565b9050826001600160a01b0316816001600160a01b0316036138a45760405162461bcd60e51b815260206004820152602b60248201527f546f6b656e206f776e65722063616e206e6f74207472616e7366657220746f6b60448201526a32b7103a379039b2b6331760a91b60648201526084016112c2565b6138af848484614350565b601b546001600160a01b0316158015906138d657506000828152601c602052604090205415155b80156138f157506000828152601d602052604090205460ff16155b1561398457601b546000838152601c60205260409081902054905163c43e92b160e01b81526001600160a01b039092169163c43e92b19161393891889188916004016158d9565b600060405180830381600087803b15801561395257600080fd5b505af1158015613966573d6000803e3d6000fd5b5050506000838152601d60205260409020805460ff19166001179055505b600082815260196020526040902054156117a557600082815260196020526040902054601a546139c1916001600160a01b03909116908590614702565b5060009081526019602052604081205550506001601155565b60606139e4613a14565b6139ed83614721565b6040516020016139fe929190615ccf565b6040516020818303038152906040529050919050565b60606012604051602001613a289190615d71565b604051602081830303815290604052905090565b600260115403613a5e5760405162461bcd60e51b81526004016112c290615745565b60026011556000613a6e846125f5565b9050806001600160a01b0316613a82613ff9565b6001600160a01b03161480613aac5750613a9a613ff9565b6010546001600160a01b039081169116145b613ae75760405162461bcd60e51b815260206004820152600c60248201526b20b236b4b7399037b7363c9760a11b60448201526064016112c2565b600084815260186020526040902054831115613b2f5760405162461bcd60e51b81526020600482015260076024820152662932b334b6361760c91b60448201526064016112c2565b60008481526018602052604081208054859290613b4d9084906157ab565b9091555050601a54604051630852cd8d60e31b8152600481018590526001600160a01b03909116906342966c6890602401600060405180830381600087803b158015613b9857600080fd5b505af1158015613bac573d6000803e3d6000fd5b505050507f06cf1047b698de02174db713eb2021be336d8a8370c8e3b762fe83b7ed289bc381858585604051613be59493929190615d94565b60405180910390a1505060016011555050565b600081815260306020526040812054602f5461114991906157c2565b60606012604051602001613a289190615dcb565b6001600160a01b03918216600090815260056020908152604080832093909416825291909152205460ff1690565b33613c60856125f5565b6001600160a01b03161480613c7f57506010546001600160a01b031633145b80613c995750336000908152601e602052604090205460ff165b613ce05760405162461bcd60e51b81526020600482015260186024820152772cb7ba903237b713ba1037bbb7103a3434b9903432b9379760411b60448201526064016112c2565b600084815260256020908152604080832086845290915281208054849290613d099084906157ab565b9091555050602c54604051637921219560e11b81526001600160a01b039091169063f242432a90613d44903090859088908890600401615936565b600060405180830381600087803b158015613d5e57600080fd5b505af1158015613d72573d6000803e3d6000fd5b5050505050505050565b613d846140c2565b6001600160a01b0316613d95612de7565b6001600160a01b031614613dbb5760405162461bcd60e51b81526004016112c290615b40565b6001600160a01b038116613e205760405162461bcd60e51b815260206004820152602660248201527f4f776e61626c653a206e6577206f776e657220697320746865207a65726f206160448201526564647265737360d01b60648201526084016112c2565b600d546040516001600160a01b038084169216907f8be0079c531659141344cd1fd0a4f28419497f9722a3daafe3b4186f6b6457e090600090a3600d80546001600160a01b0319166001600160a01b0392909216919091179055565b613eb56040518060c001604052806000815260200160008152602001600081526020016000815260200160008152602001600081525090565b50600090815260286020908152604091829020825160c08101845281548152600182015492810192909252600281015492820192909252600382015460608201526004820154608082015260059091015460a082015290565b602a546040516331a9108f60e11b8152600481018490526001600160a01b0390911690636352211e90602401602060405180830381865afa158015613f57573d6000803e3d6000fd5b505050506040513d601f19601f82011682018060405250810190613f7b91906158bc565b6001600160a01b0316336001600160a01b031614613f9857600080fd5b60009182526030602052604090912055565b6010546001600160a01b0316331480613fd25750336000908152601e602052604090205460ff165b613fdb57600080fd5b60009283526023602090815260408085209390935560249052912055565b600030330361404f57600080368080601f0160208091040260200160405190810160405280939291908181526020018383808284376000920191909152505050503601516001600160a01b031691506140529050565b50335b90565b60006001600160e01b031982166380ac58cd60e01b148061408657506001600160e01b03198216635b5e139f60e01b145b8061114957506301ffc9a760e01b6001600160e01b0319831614611149565b6000908152600260205260409020546001600160a01b0316151590565b6000613008613ff9565b600081815260046020526040902080546001600160a01b0319166001600160a01b0384169081179091558190614101826125f5565b6001600160a01b03167f8c5be1e5ebec7d5bd14f71427d1e84f3dd0314c0f7b2291e5b200ac8c7c3b92560405160405180910390a45050565b60006001600160a01b0386166141a05760405162461bcd60e51b815260206004820152602560248201527f4e61746976654d6574615472616e73616374696f6e3a20494e56414c49445f5360448201526424a3a722a960d91b60648201526084016112c2565b60016141b36141ae87614821565b61489e565b6040805160008152602081018083529290925260ff851690820152606081018690526080810185905260a0016020604051602081039080840390855afa158015614201573d6000803e3d6000fd5b505050602060405103516001600160a01b0316866001600160a01b031614905095945050505050565b600061258d82846157c2565b6133e7846323b872dd60e01b858585604051602401614257939291906158d9565b60408051601f198184030181529190526020810180516001600160e01b03166001600160e01b0319909316929092179091526148ce565b6000614299826140a5565b6142fa5760405162461bcd60e51b815260206004820152602c60248201527f4552433732313a206f70657261746f7220717565727920666f72206e6f6e657860448201526b34b9ba32b73a103a37b5b2b760a11b60648201526084016112c2565b6000614305836125f5565b9050806001600160a01b0316846001600160a01b031614806143405750836001600160a01b03166143358461125a565b6001600160a01b0316145b80611e4d5750611e4d8185613c28565b826001600160a01b0316614363826125f5565b6001600160a01b0316146143cb5760405162461bcd60e51b815260206004820152602960248201527f4552433732313a207472616e73666572206f6620746f6b656e2074686174206960448201526839903737ba1037bbb760b91b60648201526084016112c2565b6001600160a01b03821661442d5760405162461bcd60e51b8152602060048201526024808201527f4552433732313a207472616e7366657220746f20746865207a65726f206164646044820152637265737360e01b60648201526084016112c2565b6144388383836149a0565b6144436000826140cc565b6001600160a01b038316600090815260036020526040812080546001929061446c9084906157ab565b90915550506001600160a01b038216600090815260036020526040812080546001929061449a9084906157c2565b909155505060008181526002602052604080822080546001600160a01b0319166001600160a01b038681169182179092559151849391871691600080516020615f3483398151915291a4505050565b6001600160a01b03821661453f5760405162461bcd60e51b815260206004820181905260248201527f4552433732313a206d696e7420746f20746865207a65726f206164647265737360448201526064016112c2565b614548816140a5565b156145955760405162461bcd60e51b815260206004820152601c60248201527f4552433732313a20746f6b656e20616c7265616479206d696e7465640000000060448201526064016112c2565b6145a1600083836149a0565b6001600160a01b03821660009081526003602052604081208054600192906145ca9084906157c2565b909155505060008181526002602052604080822080546001600160a01b0319166001600160a01b0386169081179091559051839290600080516020615f34833981519152908290a45050565b6000614621826125f5565b905061462f816000846149a0565b61463a6000836140cc565b6001600160a01b03811660009081526003602052604081208054600192906146639084906157ab565b909155505060008281526002602052604080822080546001600160a01b0319169055518391906001600160a01b03841690600080516020615f34833981519152908390a45050565b600060966146ba600184615ac0565b6146c49190615df0565b611149906001615aff565b6146da848484614350565b6146e684848484614a58565b6133e75760405162461bcd60e51b81526004016112c290615e04565b6114048363a9059cbb60e01b8484604051602401614257929190615531565b6060816000036147485750506040805180820190915260018152600360fc1b602082015290565b8160005b8115614772578061475c81615cb6565b915061476b9050600a836158a8565b915061474c565b6000816001600160401b0381111561478c5761478c614eda565b6040519080825280601f01601f1916602001820160405280156147b6576020820181803683370190505b5090505b8415611e4d576147cb6001836157ab565b91506147d8600a86615e56565b6147e39060306157c2565b60f81b8183815181106147f8576147f8615920565b60200101906001600160f81b031916908160001a90535061481a600a866158a8565b94506147ba565b6000604051806080016040528060438152602001615ed16043913980516020918201208351848301516040808701518051908601209051614881950193845260208401929092526001600160a01b03166040830152606082015260800190565b604051602081830303815290604052805190602001209050919050565b60006148a9600b5490565b60405161190160f01b6020820152602281019190915260428101839052606201614881565b6000614923826040518060400160405280602081526020017f5361666545524332303a206c6f772d6c6576656c2063616c6c206661696c6564815250856001600160a01b0316614b5d9092919063ffffffff16565b80519091501561140457808060200190518101906149419190615875565b6114045760405162461bcd60e51b815260206004820152602a60248201527f5361666545524332303a204552433230206f7065726174696f6e20646964206e6044820152691bdd081cdd58d8d9595960b21b60648201526084016112c2565b6001600160a01b0383166149fb576149f681600880546000838152600960205260408120829055600182018355919091527ff3f7a9fe364faab93b216da50a3214154f22a0a2b415b23a84c8169e8b636ee30155565b614a1e565b816001600160a01b0316836001600160a01b031614614a1e57614a1e8382614b6c565b6001600160a01b038216614a355761140481614c09565b826001600160a01b0316826001600160a01b031614611404576114048282614cb8565b60006001600160a01b0384163b15614b5557836001600160a01b031663150b7a02614a816140c2565b8786866040518563ffffffff1660e01b8152600401614aa39493929190615e6a565b6020604051808303816000875af1925050508015614ade575060408051601f3d908101601f19168201909252614adb91810190615e9d565b60015b614b3b573d808015614b0c576040519150601f19603f3d011682016040523d82523d6000602084013e614b11565b606091505b508051600003614b335760405162461bcd60e51b81526004016112c290615e04565b805181602001fd5b6001600160e01b031916630a85bd0160e11b149050611e4d565b506001611e4d565b6060611e4d8484600085614cfc565b60006001614b798461293f565b614b8391906157ab565b600083815260076020526040902054909150808214614bd6576001600160a01b03841660009081526006602090815260408083208584528252808320548484528184208190558352600790915290208190555b5060009182526007602090815260408084208490556001600160a01b039094168352600681528383209183525290812055565b600854600090614c1b906001906157ab565b60008381526009602052604081205460088054939450909284908110614c4357614c43615920565b906000526020600020015490508060088381548110614c6457614c64615920565b6000918252602080832090910192909255828152600990915260408082208490558582528120556008805480614c9c57614c9c615eba565b6001900381819060005260206000200160009055905550505050565b6000614cc38361293f565b6001600160a01b039093166000908152600660209081526040808320868452825280832085905593825260079052919091209190915550565b606082471015614d5d5760405162461bcd60e51b815260206004820152602660248201527f416464726573733a20696e73756666696369656e742062616c616e636520666f6044820152651c8818d85b1b60d21b60648201526084016112c2565b843b614dab5760405162461bcd60e51b815260206004820152601d60248201527f416464726573733a2063616c6c20746f206e6f6e2d636f6e747261637400000060448201526064016112c2565b600080866001600160a01b03168587604051614dc79190615729565b60006040518083038185875af1925050503d8060008114614e04576040519150601f19603f3d011682016040523d82523d6000602084013e614e09565b606091505b5091509150614e19828286614e24565b979650505050505050565b60608315614e3357508161258d565b825115614e435782518084602001fd5b8160405162461bcd60e51b81526004016112c29190615006565b6040518060c0016040528060008152602001600081526020016000815260200160008152602001614e9a6040518060200160405280600081525090565b8152602001600081525090565b6001600160e01b031981168114611f5357600080fd5b600060208284031215614ecf57600080fd5b813561258d81614ea7565b634e487b7160e01b600052604160045260246000fd5b604051602081016001600160401b0381118282101715614f1257614f12614eda565b60405290565b60008082840360e0811215614f2c57600080fd5b8335925060c0601f1982011215614f4257600080fd5b5060405160c081018181106001600160401b0382111715614f6557614f65614eda565b80604052506020840135815260408401356020820152606084013560408201526080840135606082015260a0840135608082015260c084013560a0820152809150509250929050565b60005b83811015614fc9578181015183820152602001614fb1565b838111156133e75750506000910152565b60008151808452614ff2816020860160208601614fae565b601f01601f19169290920160200192915050565b60208152600061258d6020830184614fda565b60006020828403121561502b57600080fd5b5035919050565b6001600160a01b0381168114611f5357600080fd5b6000806040838503121561505a57600080fd5b823561506581615032565b946020939093013593505050565b600082601f83011261508457600080fd5b81356001600160401b038082111561509e5761509e614eda565b604051601f8301601f19908116603f011681019082821181831017156150c6576150c6614eda565b816040528381528660208588010111156150df57600080fd5b836020870160208301376000602085830101528094505050505092915050565b600080600080600060a0868803121561511757600080fd5b853561512281615032565b945060208601356001600160401b0381111561513d57600080fd5b61514988828901615073565b9450506040860135925060608601359150608086013560ff8116811461516e57600080fd5b809150509295509295909350565b60008060006060848603121561519157600080fd5b505081359360208301359350604090920135919050565b6000602082840312156151ba57600080fd5b813561258d81615032565b6000806000606084860312156151da57600080fd5b83356151e581615032565b925060208401356151f581615032565b929592945050506040919091013590565b6000806000806080858703121561521c57600080fd5b84359350602085013561522e81615032565b93969395505050506040820135916060013590565b6000806040838503121561525657600080fd5b50508035926020909101359150565b600080600080600060a0868803121561527d57600080fd5b853561528881615032565b97602087013597506040870135966060810135965060800135945092505050565b600080600080600060a086880312156152c157600080fd5b505083359560208501359550604085013594606081013594506080013592509050565b6000602082840312156152f657600080fd5b81356001600160401b0381111561530c57600080fd5b611e4d84828501615073565b8015158114611f5357600080fd5b6000806040838503121561533957600080fd5b823561534481615032565b9150602083013561535481615318565b809150509250929050565b60006020828403121561537157600080fd5b813561258d81615318565b6000806000806080858703121561539257600080fd5b843561539d81615032565b935060208501356153ad81615032565b92506040850135915060608501356001600160401b038111156153cf57600080fd5b6153db87828801615073565b91505092959194509250565b60008083601f8401126153f957600080fd5b5081356001600160401b0381111561541057600080fd5b6020830191508360208260051b850101111561542b57600080fd5b9250929050565b60008083601f84011261544457600080fd5b5081356001600160401b0381111561545b57600080fd5b60208301915083602082850101111561542b57600080fd5b60008060008060008060008060a0898b03121561548f57600080fd5b883561549a81615032565b975060208901356154aa81615032565b965060408901356001600160401b03808211156154c657600080fd5b6154d28c838d016153e7565b909850965060608b01359150808211156154eb57600080fd5b6154f78c838d016153e7565b909650945060808b013591508082111561551057600080fd5b5061551d8b828c01615432565b999c989b5096995094979396929594505050565b6001600160a01b03929092168252602082015260400190565b60008060006060848603121561555f57600080fd5b833592506020840135915060408401356001600160401b0381111561558357600080fd5b61558f86828701615073565b9150509250925092565b600080604083850312156155ac57600080fd5b82356155b781615032565b9150602083013561535481615032565b600080600080608085870312156155dd57600080fd5b84359350602085013592506040850135915060608501356155fd81615032565b939692955090935050565b60008060008060008060a0878903121561562157600080fd5b863561562c81615032565b9550602087013561563c81615032565b9450604087013593506060870135925060808701356001600160401b0381111561566557600080fd5b61567189828a01615432565b979a9699509497509295939492505050565b600181811c9082168061569757607f821691505b6020821081036156b757634e487b7160e01b600052602260045260246000fd5b50919050565b6001600160a01b038481168252831660208201526060604082018190526000906156e990830184614fda565b95945050505050565b60008351615704818460208801614fae565b60609390931b6bffffffffffffffffffffffff19169190920190815260140192915050565b6000825161573b818460208701614fae565b9190910192915050565b6020808252601f908201527f5265656e7472616e637947756172643a207265656e7472616e742063616c6c00604082015260600190565b60006020828403121561578e57600080fd5b5051919050565b634e487b7160e01b600052601160045260246000fd5b6000828210156157bd576157bd615795565b500390565b600082198211156157d5576157d5615795565b500190565b6001600160a01b039390931683526020830191909152604082015260600190565b6020808252600f908201526e496e76616c6964206164647265737360881b604082015260600190565b60208082526031908201527f4552433732313a207472616e736665722063616c6c6572206973206e6f74206f6040820152701ddb995c881b9bdc88185c1c1c9bdd9959607a1b606082015260800190565b60006020828403121561588757600080fd5b815161258d81615318565b634e487b7160e01b600052601260045260246000fd5b6000826158b7576158b7615892565b500490565b6000602082840312156158ce57600080fd5b815161258d81615032565b6001600160a01b039384168152919092166020820152604081019190915260600190565b948552602085019390935260408401919091526060830152608082015260a00190565b634e487b7160e01b600052603260045260246000fd5b6001600160a01b0394851681529290931660208301526040820152606081019190915260a06080820181905260009082015260c00190565b6001600160a01b0394909416845260208401929092526040830152606082015260800190565b601f82111561140457600081815260208120601f850160051c810160208610156159bb5750805b601f850160051c820191505b818110156159da578281556001016159c7565b505050505050565b81516001600160401b038111156159fb576159fb614eda565b615a0f81615a098454615683565b84615994565b602080601f831160018114615a445760008415615a2c5750858301515b600019600386901b1c1916600185901b1785556159da565b600085815260208120601f198616915b82811015615a7357888601518255948401946001909101908401615a54565b5085821015615a915787850151600019600388901b60f8161c191681555b5050505050600190811b01905550565b6000816000190483118215151615615abb57615abb615795565b500290565b60008083128015600160ff1b850184121615615ade57615ade615795565b6001600160ff1b0384018313811615615af957615af9615795565b50500390565b600080821280156001600160ff1b0384900385131615615b2157615b21615795565b600160ff1b8390038412811615615b3a57615b3a615795565b50500190565b6020808252818101527f4f776e61626c653a2063616c6c6572206973206e6f7420746865206f776e6572604082015260600190565b600081830360c0811215615b8857600080fd5b60405160c081018181106001600160401b0382111715615baa57615baa614eda565b8060405250835181526020840151602082015260408401516040820152606084015160608201526020607f1983011215615be357600080fd5b615beb614ef0565b608085810151825282015260a09384015193810193909352509092915050565b6001600160a01b03959095168552602085019390935260408401919091526060830152608082015260a00190565b6001600160a01b03979097168752602087019590955260408601939093526060850191909152608084015260a083015260c082015260e00190565b6000600160ff1b8201615c8957615c89615795565b5060000390565b6020808252600c908201526b20b23237b7399037b7363c9760a11b604082015260600190565b600060018201615cc857615cc8615795565b5060010190565b60008351615ce1818460208801614fae565b835190830190615cf5818360208801614fae565b01949350505050565b60008154615d0b81615683565b60018281168015615d235760018114615d3857615d67565b60ff1984168752821515830287019450615d67565b8560005260208060002060005b85811015615d5e5781548a820152908401908201615d45565b50505082870194505b5050505092915050565b6000615d7d8284615cfe565b66746f6b656e732f60c81b81526007019392505050565b60018060a01b0385168152836020820152826040820152608060608201526000615dc16080830184614fda565b9695505050505050565b6000615dd78284615cfe565b68636f6e74726163742f60b81b81526009019392505050565b600082615dff57615dff615892565b500790565b60208082526032908201527f4552433732313a207472616e7366657220746f206e6f6e20455243373231526560408201527131b2b4bb32b91034b6b83632b6b2b73a32b960711b606082015260800190565b600082615e6557615e65615892565b500690565b6001600160a01b0385811682528416602082015260408101839052608060608201819052600090615dc190830184614fda565b600060208284031215615eaf57600080fd5b815161258d81614ea7565b634e487b7160e01b600052603160045260246000fdfe4d6574615472616e73616374696f6e2875696e74323536206e6f6e63652c616464726573732066726f6d2c62797465732066756e6374696f6e5369676e61747572652935a9c2dde5b859cbf64dd5fd2e88c16764a8a622d80643619fe5b07d04500cffddf252ad1be2c89b69c2b068fc378daa952ba7f163c4a11628f55a4df523b3efa264697066735822122013302d6a3c6285a6618d07efd06bc6d8c34217f0fbba46e91af3f8f398e65a8f64736f6c634300080f0033454950373132446f6d61696e28737472696e67206e616d652c737472696e672076657273696f6e2c6164647265737320766572696679696e67436f6e74726163742c627974657333322073616c742968747470733a2f2f67726561746c6962726172792e696f2f67616d65732f5453432f6865726f732f",
  "bytecodeSha1": "da39a3ee5e6b4b0d3255bfef95601890afd80709",
  "compiler": {
    "evm_version": "istanbul",
    "optimizer": {
      "enabled": true,
      "runs": 100
    },
    "version": "0.8.15+commit.e14f2714"
  },
  "contractName": "Hero",
  "language": "Solidity",
  "natspec": {
    "kind": "dev",
    "methods": {
      "_getNextTokenId()": {
        "details": "calculates the next token ID based on value of _currentTokenId",
        "returns": {
          "_0": "uint256 for the next token ID"
        }
      },
      "_incrementTokenId()": {
        "details": "increments the value of _currentTokenId"
      },
      "approve(address,uint256)": {
        "details": "See {IERC721-approve}."
      },
      "balanceOf(address)": {
        "details": "See {IERC721-balanceOf}."
      },
      "constructor": {
        "notice": "Shaman || Arcanist ||    Druid   ||  Warrior || Warlock || Shaman || Arcanist ||\t/// The-Elements    Arcane Nature Physical     Shadow     All-The-Elements      Arcane +DPS+++++++DPS++---+++DPS++----TANKS--+--++DPS++++PET++HEAL+DPS++++++DPS++---++\t/// Each + Means damage, - means support, DPS means damage per second. TANK means damage mitigated. HEAL means restoring hit points to pets or players, etc. Each class gets ~10 main abilities with pet classes getting way more."
      },
      "getApproved(uint256)": {
        "details": "See {IERC721-getApproved}."
      },
      "isApprovedForAll(address,address)": {
        "details": "See {IERC721-isApprovedForAll}."
      },
      "mintTo(address)": {
        "details": "Mints a token to an address with a tokenURI.",
        "params": {
          "_to": "address of the future owner of the token"
        }
      },
      "name()": {
        "details": "See {IERC721Metadata-name}."
      },
      "onERC1155BatchReceived(address,address,uint256[],uint256[],bytes)": {
        "details": "Handles the receipt of a multiple ERC1155 token types. This function is called at the end of a `safeBatchTransferFrom` after the balances have been updated. To accept the transfer(s), this must return `bytes4(keccak256(\"onERC1155BatchReceived(address,address,uint256[],uint256[],bytes)\"))` (i.e. 0xbc197c81, or its own function selector).",
        "params": {
          "data": "Additional data with no specified format",
          "from": "The address which previously owned the token",
          "ids": "An array containing ids of each token being transferred (order and length must match values array)",
          "operator": "The address which initiated the batch transfer (i.e. msg.sender)",
          "values": "An array containing amounts of each token being transferred (order and length must match ids array)"
        },
        "returns": {
          "_0": "`bytes4(keccak256(\"onERC1155BatchReceived(address,address,uint256[],uint256[],bytes)\"))` if transfer is allowed"
        }
      },
      "onERC1155Received(address,address,uint256,uint256,bytes)": {
        "details": "Handles the receipt of a single ERC1155 token type. This function is called at the end of a `safeTransferFrom` after the balance has been updated. To accept the transfer, this must return `bytes4(keccak256(\"onERC1155Received(address,address,uint256,uint256,bytes)\"))` (i.e. 0xf23a6e61, or its own function selector).",
        "params": {
          "data": "Additional data with no specified format",
          "from": "The address which previously owned the token",
          "id": "The ID of the token being transferred",
          "operator": "The address which initiated the transfer (i.e. msg.sender)",
          "value": "The amount of tokens being transferred"
        },
        "returns": {
          "_0": "`bytes4(keccak256(\"onERC1155Received(address,address,uint256,uint256,bytes)\"))` if transfer is allowed"
        }
      },
      "owner()": {
        "details": "Returns the address of the current owner."
      },
      "ownerOf(uint256)": {
        "details": "See {IERC721-ownerOf}."
      },
      "renounceOwnership()": {
        "details": "Leaves the contract without owner. It will not be possible to call `onlyOwner` functions anymore. Can only be called by the current owner. NOTE: Renouncing ownership will leave the contract without an owner, thereby removing any functionality that is only available to the owner."
      },
      "safeTransferFrom(address,address,uint256)": {
        "details": "See {IERC721-safeTransferFrom}."
      },
      "safeTransferFrom(address,address,uint256,bytes)": {
        "details": "See {IERC721-safeTransferFrom}."
      },
      "setApprovalForAll(address,bool)": {
        "details": "See {IERC721-setApprovalForAll}."
      },
      "supportsInterface(bytes4)": {
        "details": "See {IERC165-supportsInterface}."
      },
      "symbol()": {
        "details": "See {IERC721Metadata-symbol}."
      },
      "tokenByIndex(uint256)": {
        "details": "See {IERC721Enumerable-tokenByIndex}."
      },
      "tokenOfOwnerByIndex(address,uint256)": {
        "details": "See {IERC721Enumerable-tokenOfOwnerByIndex}."
      },
      "totalSupply()": {
        "details": "See {IERC721Enumerable-totalSupply}."
      },
      "transferFrom(address,address,uint256)": {
        "details": "See {IERC721-transferFrom}."
      },
      "transferOwnership(address)": {
        "details": "Transfers ownership of the contract to a new account (`newOwner`). Can only be called by the current owner."
      }
    },
    "version": 1
  },
  "opcodes": "PUSH1 0x80 PUSH1 0x40 MSTORE PUSH1 0x4 CALLDATASIZE LT PUSH2 0x4CB JUMPI PUSH1 0x0 CALLDATALOAD PUSH1 0xE0 SHR DUP1 PUSH4 0x6BFC324F GT PUSH2 0x276 JUMPI DUP1 PUSH4 0xB88D4FDE GT PUSH2 0x14F JUMPI DUP1 PUSH4 0xE189977F GT PUSH2 0xC1 JUMPI DUP1 PUSH4 0xF1F8B99B GT PUSH2 0x85 JUMPI DUP1 PUSH4 0xF1F8B99B EQ PUSH2 0xFF2 JUMPI DUP1 PUSH4 0xF23A6E61 EQ PUSH2 0x1012 JUMPI DUP1 PUSH4 0xF2FDE38B EQ PUSH2 0x1058 JUMPI DUP1 PUSH4 0xF7BDFED3 EQ PUSH2 0x1078 JUMPI DUP1 PUSH4 0xF7D97577 EQ PUSH2 0x10E4 JUMPI DUP1 PUSH4 0xFF2E9D3A EQ PUSH2 0x1104 JUMPI PUSH1 0x0 DUP1 REVERT JUMPDEST DUP1 PUSH4 0xE189977F EQ PUSH2 0xF68 JUMPI DUP1 PUSH4 0xE7572230 EQ PUSH2 0xF88 JUMPI DUP1 PUSH4 0xE8A3D485 EQ PUSH2 0xFA8 JUMPI DUP1 PUSH4 0xE985E9C5 EQ PUSH2 0xFBD JUMPI DUP1 PUSH4 0xEF2D1746 EQ PUSH2 0xFDD JUMPI PUSH1 0x0 DUP1 REVERT JUMPDEST DUP1 PUSH4 0xC0D8012C GT PUSH2 0x113 JUMPI DUP1 PUSH4 0xC0D8012C EQ PUSH2 0xE62 JUMPI DUP1 PUSH4 0xC43E92B1 EQ PUSH2 0xEAC JUMPI DUP1 PUSH4 0xC87B56DD EQ PUSH2 0xECC JUMPI DUP1 PUSH4 0xD547CFB7 EQ PUSH2 0xEEC JUMPI DUP1 PUSH4 0xDCB9D1F1 EQ PUSH2 0xF01 JUMPI DUP1 PUSH4 0xDF34DD22 EQ PUSH2 0xF3B JUMPI PUSH1 0x0 DUP1 REVERT JUMPDEST DUP1 PUSH4 0xB88D4FDE EQ PUSH2 0xD8C JUMPI DUP1 PUSH4 0xB9DD6574 EQ PUSH2 0xDAC JUMPI DUP1 PUSH4 0xBC186C6E EQ PUSH2 0xDC1 JUMPI DUP1 PUSH4 0xBC197C81 EQ PUSH2 0xDE1 JUMPI DUP1 PUSH4 0xBE2BF6F8 EQ PUSH2 0xE42 JUMPI PUSH1 0x0 DUP1 REVERT JUMPDEST DUP1 PUSH4 0x8A0DE3DD GT PUSH2 0x1E8 JUMPI DUP1 PUSH4 0x95D89B41 GT PUSH2 0x1AC JUMPI DUP1 PUSH4 0x95D89B41 EQ PUSH2 0xCED JUMPI DUP1 PUSH4 0x972D1AE2 EQ PUSH2 0xD02 JUMPI DUP1 PUSH4 0x995B08FC EQ PUSH2 0xD17 JUMPI DUP1 PUSH4 0xA22CB465 EQ PUSH2 0xD37 JUMPI DUP1 PUSH4 0xA795E193 EQ PUSH2 0xD57 JUMPI DUP1 PUSH4 0xB086613C EQ PUSH2 0xD77 JUMPI PUSH1 0x0 DUP1 REVERT JUMPDEST DUP1 PUSH4 0x8A0DE3DD EQ PUSH2 0xC64 JUMPI DUP1 PUSH4 0x8AA80EA5 EQ PUSH2 0xC82 JUMPI DUP1 PUSH4 0x8D1D0BB9 EQ PUSH2 0xC98 JUMPI DUP1 PUSH4 0x8DA5CB5B EQ PUSH2 0xCB8 JUMPI DUP1 PUSH4 0x8FC56767 EQ PUSH2 0xCCD JUMPI PUSH1 0x0 DUP1 REVERT JUMPDEST DUP1 PUSH4 0x755EDD17 GT PUSH2 0x23A JUMPI DUP1 PUSH4 0x755EDD17 EQ PUSH2 0xB3E JUMPI DUP1 PUSH4 0x7B303965 EQ PUSH2 0xB5E JUMPI DUP1 PUSH4 0x7D3FA3CE EQ PUSH2 0xBCB JUMPI DUP1 PUSH4 0x80929E5B EQ PUSH2 0xBEB JUMPI DUP1 PUSH4 0x8297F29F EQ PUSH2 0xC0B JUMPI DUP1 PUSH4 0x87D187EE EQ PUSH2 0xC44 JUMPI PUSH1 0x0 DUP1 REVERT JUMPDEST DUP1 PUSH4 0x6BFC324F EQ PUSH2 0xAA9 JUMPI DUP1 PUSH4 0x6D3C7EC5 EQ PUSH2 0xAC9 JUMPI DUP1 PUSH4 0x6D714B68 EQ PUSH2 0xAE9 JUMPI DUP1 PUSH4 0x70A08231 EQ PUSH2 0xB09 JUMPI DUP1 PUSH4 0x715018A6 EQ PUSH2 0xB29 JUMPI PUSH1 0x0 DUP1 REVERT JUMPDEST DUP1 PUSH4 0x3408E470 GT PUSH2 0x3A8 JUMPI DUP1 PUSH4 0x4F6CCCE7 GT PUSH2 0x31A JUMPI DUP1 PUSH4 0x5553B81C GT PUSH2 0x2DE JUMPI DUP1 PUSH4 0x5553B81C EQ PUSH2 0x9D9 JUMPI DUP1 PUSH4 0x55F804B3 EQ PUSH2 0x9F9 JUMPI DUP1 PUSH4 0x596C6325 EQ PUSH2 0xA19 JUMPI DUP1 PUSH4 0x6352211E EQ PUSH2 0xA49 JUMPI DUP1 PUSH4 0x6573C787 EQ PUSH2 0xA69 JUMPI DUP1 PUSH4 0x66CCFB6E EQ PUSH2 0xA89 JUMPI PUSH1 0x0 DUP1 REVERT JUMPDEST DUP1 PUSH4 0x4F6CCCE7 EQ PUSH2 0x93B JUMPI DUP1 PUSH4 0x51508F0A EQ PUSH2 0x95B JUMPI DUP1 PUSH4 0x51A8261B EQ PUSH2 0x97B JUMPI DUP1 PUSH4 0x51F41EE3 EQ PUSH2 0x99B JUMPI DUP1 PUSH4 0x547520FE EQ PUSH2 0x9B9 JUMPI PUSH1 0x0 DUP1 REVERT JUMPDEST DUP1 PUSH4 0x4409559A GT PUSH2 0x36C JUMPI DUP1 PUSH4 0x4409559A EQ PUSH2 0x8A6 JUMPI DUP1 PUSH4 0x480A962B EQ PUSH2 0x8C6 JUMPI DUP1 PUSH4 0x495057BE EQ PUSH2 0x525 JUMPI DUP1 PUSH4 0x4B6BD12E EQ PUSH2 0x8E6 JUMPI DUP1 PUSH4 0x4D47732A EQ PUSH2 0x906 JUMPI DUP1 PUSH4 0x4D57CA4F EQ PUSH2 0x91B JUMPI PUSH1 0x0 DUP1 REVERT JUMPDEST DUP1 PUSH4 0x3408E470 EQ PUSH2 0x813 JUMPI DUP1 PUSH4 0x343F40DF EQ PUSH2 0x826 JUMPI DUP1 PUSH4 0x4209A2E1 EQ PUSH2 0x846 JUMPI DUP1 PUSH4 0x42842E0E EQ PUSH2 0x866 JUMPI DUP1 PUSH4 0x42966C68 EQ PUSH2 0x886 JUMPI PUSH1 0x0 DUP1 REVERT JUMPDEST DUP1 PUSH4 0x1BFFF1A3 GT PUSH2 0x441 JUMPI DUP1 PUSH4 0x25F31AB7 GT PUSH2 0x405 JUMPI DUP1 PUSH4 0x25F31AB7 EQ PUSH2 0x719 JUMPI DUP1 PUSH4 0x273FBDCB EQ PUSH2 0x739 JUMPI DUP1 PUSH4 0x2B2B72DC EQ PUSH2 0x771 JUMPI DUP1 PUSH4 0x2D0335AB EQ PUSH2 0x791 JUMPI DUP1 PUSH4 0x2F745C59 EQ PUSH2 0x7C7 JUMPI DUP1 PUSH4 0x33D119EB EQ PUSH2 0x7E7 JUMPI PUSH1 0x0 DUP1 REVERT JUMPDEST DUP1 PUSH4 0x1BFFF1A3 EQ PUSH2 0x68F JUMPI DUP1 PUSH4 0x1E9F8AAD EQ PUSH2 0x6AF JUMPI DUP1 PUSH4 0x20379EE5 EQ PUSH2 0x6CF JUMPI DUP1 PUSH4 0x23B872DD EQ PUSH2 0x6E4 JUMPI DUP1 PUSH4 0x24D64CA2 EQ PUSH2 0x704 JUMPI PUSH1 0x0 DUP1 REVERT JUMPDEST DUP1 PUSH4 0xC53C51C GT PUSH2 0x493 JUMPI DUP1 PUSH4 0xC53C51C EQ PUSH2 0x5A1 JUMPI DUP1 PUSH4 0xF7E5970 EQ PUSH2 0x5B4 JUMPI DUP1 PUSH4 0x109F7561 EQ PUSH2 0x5E1 JUMPI DUP1 PUSH4 0x18160DDD EQ PUSH2 0x601 JUMPI DUP1 PUSH4 0x199DC532 EQ PUSH2 0x620 JUMPI DUP1 PUSH4 0x1B64AB59 EQ PUSH2 0x66F JUMPI PUSH1 0x0 DUP1 REVERT JUMPDEST DUP1 PUSH4 0x1FFC9A7 EQ PUSH2 0x4D0 JUMPI DUP1 PUSH4 0x4BC43A5 EQ PUSH2 0x505 JUMPI DUP1 PUSH4 0x6FDDE03 EQ PUSH2 0x527 JUMPI DUP1 PUSH4 0x81812FC EQ PUSH2 0x549 JUMPI DUP1 PUSH4 0x95EA7B3 EQ PUSH2 0x581 JUMPI JUMPDEST PUSH1 0x0 DUP1 REVERT JUMPDEST CALLVALUE DUP1 ISZERO PUSH2 0x4DC JUMPI PUSH1 0x0 DUP1 REVERT JUMPDEST POP PUSH2 0x4F0 PUSH2 0x4EB CALLDATASIZE PUSH1 0x4 PUSH2 0x4EBD JUMP JUMPDEST PUSH2 0x1124 JUMP JUMPDEST PUSH1 0x40 MLOAD SWAP1 ISZERO ISZERO DUP2 MSTORE PUSH1 0x20 ADD JUMPDEST PUSH1 0x40 MLOAD DUP1 SWAP2 SUB SWAP1 RETURN JUMPDEST CALLVALUE DUP1 ISZERO PUSH2 0x511 JUMPI PUSH1 0x0 DUP1 REVERT JUMPDEST POP PUSH2 0x525 PUSH2 0x520 CALLDATASIZE PUSH1 0x4 PUSH2 0x4F18 JUMP JUMPDEST PUSH2 0x114F JUMP JUMPDEST STOP JUMPDEST CALLVALUE DUP1 ISZERO PUSH2 0x533 JUMPI PUSH1 0x0 DUP1 REVERT JUMPDEST POP PUSH2 0x53C PUSH2 0x11C8 JUMP JUMPDEST PUSH1 0x40 MLOAD PUSH2 0x4FC SWAP2 SWAP1 PUSH2 0x5006 JUMP JUMPDEST CALLVALUE DUP1 ISZERO PUSH2 0x555 JUMPI PUSH1 0x0 DUP1 REVERT JUMPDEST POP PUSH2 0x569 PUSH2 0x564 CALLDATASIZE PUSH1 0x4 PUSH2 0x5019 JUMP JUMPDEST PUSH2 0x125A JUMP JUMPDEST PUSH1 0x40 MLOAD PUSH1 0x1 PUSH1 0x1 PUSH1 0xA0 SHL SUB SWAP1 SWAP2 AND DUP2 MSTORE PUSH1 0x20 ADD PUSH2 0x4FC JUMP JUMPDEST CALLVALUE DUP1 ISZERO PUSH2 0x58D JUMPI PUSH1 0x0 DUP1 REVERT JUMPDEST POP PUSH2 0x525 PUSH2 0x59C CALLDATASIZE PUSH1 0x4 PUSH2 0x5047 JUMP JUMPDEST PUSH2 0x12E7 JUMP JUMPDEST PUSH2 0x53C PUSH2 0x5AF CALLDATASIZE PUSH1 0x4 PUSH2 0x50FF JUMP JUMPDEST PUSH2 0x1409 JUMP JUMPDEST CALLVALUE DUP1 ISZERO PUSH2 0x5C0 JUMPI PUSH1 0x0 DUP1 REVERT JUMPDEST POP PUSH2 0x53C PUSH1 0x40 MLOAD DUP1 PUSH1 0x40 ADD PUSH1 0x40 MSTORE DUP1 PUSH1 0x1 DUP2 MSTORE PUSH1 0x20 ADD PUSH1 0x31 PUSH1 0xF8 SHL DUP2 MSTORE POP DUP2 JUMP JUMPDEST CALLVALUE DUP1 ISZERO PUSH2 0x5ED JUMPI PUSH1 0x0 DUP1 REVERT JUMPDEST POP PUSH2 0x525 PUSH2 0x5FC CALLDATASIZE PUSH1 0x4 PUSH2 0x5019 JUMP JUMPDEST PUSH2 0x15F3 JUMP JUMPDEST CALLVALUE DUP1 ISZERO PUSH2 0x60D JUMPI PUSH1 0x0 DUP1 REVERT JUMPDEST POP PUSH1 0x8 SLOAD JUMPDEST PUSH1 0x40 MLOAD SWAP1 DUP2 MSTORE PUSH1 0x20 ADD PUSH2 0x4FC JUMP JUMPDEST CALLVALUE DUP1 ISZERO PUSH2 0x62C JUMPI PUSH1 0x0 DUP1 REVERT JUMPDEST POP PUSH2 0x65A PUSH2 0x63B CALLDATASIZE PUSH1 0x4 PUSH2 0x5019 JUMP JUMPDEST PUSH1 0x0 SWAP1 DUP2 MSTORE PUSH1 0x18 PUSH1 0x20 SWAP1 DUP2 MSTORE PUSH1 0x40 DUP1 DUP4 KECCAK256 SLOAD PUSH1 0x19 SWAP1 SWAP3 MSTORE SWAP1 SWAP2 KECCAK256 SLOAD SWAP1 SWAP2 JUMP JUMPDEST PUSH1 0x40 DUP1 MLOAD SWAP3 DUP4 MSTORE PUSH1 0x20 DUP4 ADD SWAP2 SWAP1 SWAP2 MSTORE ADD PUSH2 0x4FC JUMP JUMPDEST CALLVALUE DUP1 ISZERO PUSH2 0x67B JUMPI PUSH1 0x0 DUP1 REVERT JUMPDEST POP PUSH2 0x525 PUSH2 0x68A CALLDATASIZE PUSH1 0x4 PUSH2 0x517C JUMP JUMPDEST PUSH2 0x1644 JUMP JUMPDEST CALLVALUE DUP1 ISZERO PUSH2 0x69B JUMPI PUSH1 0x0 DUP1 REVERT JUMPDEST POP PUSH2 0x612 PUSH2 0x6AA CALLDATASIZE PUSH1 0x4 PUSH2 0x5019 JUMP JUMPDEST PUSH2 0x17B0 JUMP JUMPDEST CALLVALUE DUP1 ISZERO PUSH2 0x6BB JUMPI PUSH1 0x0 DUP1 REVERT JUMPDEST POP PUSH2 0x525 PUSH2 0x6CA CALLDATASIZE PUSH1 0x4 PUSH2 0x51A8 JUMP JUMPDEST PUSH2 0x1868 JUMP JUMPDEST CALLVALUE DUP1 ISZERO PUSH2 0x6DB JUMPI PUSH1 0x0 DUP1 REVERT JUMPDEST POP PUSH1 0xB SLOAD PUSH2 0x612 JUMP JUMPDEST CALLVALUE DUP1 ISZERO PUSH2 0x6F0 JUMPI PUSH1 0x0 DUP1 REVERT JUMPDEST POP PUSH2 0x525 PUSH2 0x6FF CALLDATASIZE PUSH1 0x4 PUSH2 0x51C5 JUMP JUMPDEST PUSH2 0x18FC JUMP JUMPDEST CALLVALUE DUP1 ISZERO PUSH2 0x710 JUMPI PUSH1 0x0 DUP1 REVERT JUMPDEST POP PUSH1 0x15 SLOAD PUSH2 0x612 JUMP JUMPDEST CALLVALUE DUP1 ISZERO PUSH2 0x725 JUMPI PUSH1 0x0 DUP1 REVERT JUMPDEST POP PUSH2 0x612 PUSH2 0x734 CALLDATASIZE PUSH1 0x4 PUSH2 0x5206 JUMP JUMPDEST PUSH2 0x1934 JUMP JUMPDEST CALLVALUE DUP1 ISZERO PUSH2 0x745 JUMPI PUSH1 0x0 DUP1 REVERT JUMPDEST POP PUSH2 0x612 PUSH2 0x754 CALLDATASIZE PUSH1 0x4 PUSH2 0x5243 JUMP JUMPDEST PUSH1 0x0 SWAP2 DUP3 MSTORE PUSH1 0x25 PUSH1 0x20 SWAP1 DUP2 MSTORE PUSH1 0x40 DUP1 DUP5 KECCAK256 SWAP3 DUP5 MSTORE SWAP2 SWAP1 MSTORE SWAP1 KECCAK256 SLOAD SWAP1 JUMP JUMPDEST CALLVALUE DUP1 ISZERO PUSH2 0x77D JUMPI PUSH1 0x0 DUP1 REVERT JUMPDEST POP PUSH2 0x525 PUSH2 0x78C CALLDATASIZE PUSH1 0x4 PUSH2 0x5243 JUMP JUMPDEST PUSH2 0x1E55 JUMP JUMPDEST CALLVALUE DUP1 ISZERO PUSH2 0x79D JUMPI PUSH1 0x0 DUP1 REVERT JUMPDEST POP PUSH2 0x612 PUSH2 0x7AC CALLDATASIZE PUSH1 0x4 PUSH2 0x51A8 JUMP JUMPDEST PUSH1 0x1 PUSH1 0x1 PUSH1 0xA0 SHL SUB AND PUSH1 0x0 SWAP1 DUP2 MSTORE PUSH1 0xC PUSH1 0x20 MSTORE PUSH1 0x40 SWAP1 KECCAK256 SLOAD SWAP1 JUMP JUMPDEST CALLVALUE DUP1 ISZERO PUSH2 0x7D3 JUMPI PUSH1 0x0 DUP1 REVERT JUMPDEST POP PUSH2 0x612 PUSH2 0x7E2 CALLDATASIZE PUSH1 0x4 PUSH2 0x5047 JUMP JUMPDEST PUSH2 0x1E98 JUMP JUMPDEST CALLVALUE DUP1 ISZERO PUSH2 0x7F3 JUMPI PUSH1 0x0 DUP1 REVERT JUMPDEST POP PUSH2 0x612 PUSH2 0x802 CALLDATASIZE PUSH1 0x4 PUSH2 0x5019 JUMP JUMPDEST PUSH1 0x0 SWAP1 DUP2 MSTORE PUSH1 0x20 DUP1 MSTORE PUSH1 0x40 SWAP1 KECCAK256 SLOAD SWAP1 JUMP JUMPDEST CALLVALUE DUP1 ISZERO PUSH2 0x81F JUMPI PUSH1 0x0 DUP1 REVERT JUMPDEST POP CHAINID PUSH2 0x612 JUMP JUMPDEST CALLVALUE DUP1 ISZERO PUSH2 0x832 JUMPI PUSH1 0x0 DUP1 REVERT JUMPDEST POP PUSH2 0x525 PUSH2 0x841 CALLDATASIZE PUSH1 0x4 PUSH2 0x5019 JUMP JUMPDEST PUSH2 0x1F2E JUMP JUMPDEST CALLVALUE DUP1 ISZERO PUSH2 0x852 JUMPI PUSH1 0x0 DUP1 REVERT JUMPDEST POP PUSH2 0x525 PUSH2 0x861 CALLDATASIZE PUSH1 0x4 PUSH2 0x5019 JUMP JUMPDEST PUSH2 0x1F56 JUMP JUMPDEST CALLVALUE DUP1 ISZERO PUSH2 0x872 JUMPI PUSH1 0x0 DUP1 REVERT JUMPDEST POP PUSH2 0x525 PUSH2 0x881 CALLDATASIZE PUSH1 0x4 PUSH2 0x51C5 JUMP JUMPDEST PUSH2 0x1FF6 JUMP JUMPDEST CALLVALUE DUP1 ISZERO PUSH2 0x892 JUMPI PUSH1 0x0 DUP1 REVERT JUMPDEST POP PUSH2 0x525 PUSH2 0x8A1 CALLDATASIZE PUSH1 0x4 PUSH2 0x5019 JUMP JUMPDEST PUSH2 0x2011 JUMP JUMPDEST CALLVALUE DUP1 ISZERO PUSH2 0x8B2 JUMPI PUSH1 0x0 DUP1 REVERT JUMPDEST POP PUSH1 0x10 SLOAD PUSH2 0x569 SWAP1 PUSH1 0x1 PUSH1 0x1 PUSH1 0xA0 SHL SUB AND DUP2 JUMP JUMPDEST CALLVALUE DUP1 ISZERO PUSH2 0x8D2 JUMPI PUSH1 0x0 DUP1 REVERT JUMPDEST POP PUSH2 0x525 PUSH2 0x8E1 CALLDATASIZE PUSH1 0x4 PUSH2 0x5265 JUMP JUMPDEST PUSH2 0x20DA JUMP JUMPDEST CALLVALUE DUP1 ISZERO PUSH2 0x8F2 JUMPI PUSH1 0x0 DUP1 REVERT JUMPDEST POP PUSH2 0x525 PUSH2 0x901 CALLDATASIZE PUSH1 0x4 PUSH2 0x52A9 JUMP JUMPDEST PUSH2 0x2140 JUMP JUMPDEST CALLVALUE DUP1 ISZERO PUSH2 0x912 JUMPI PUSH1 0x0 DUP1 REVERT JUMPDEST POP PUSH1 0x16 SLOAD PUSH2 0x612 JUMP JUMPDEST CALLVALUE DUP1 ISZERO PUSH2 0x927 JUMPI PUSH1 0x0 DUP1 REVERT JUMPDEST POP PUSH2 0x525 PUSH2 0x936 CALLDATASIZE PUSH1 0x4 PUSH2 0x5243 JUMP JUMPDEST PUSH2 0x2177 JUMP JUMPDEST CALLVALUE DUP1 ISZERO PUSH2 0x947 JUMPI PUSH1 0x0 DUP1 REVERT JUMPDEST POP PUSH2 0x612 PUSH2 0x956 CALLDATASIZE PUSH1 0x4 PUSH2 0x5019 JUMP JUMPDEST PUSH2 0x21D8 JUMP JUMPDEST CALLVALUE DUP1 ISZERO PUSH2 0x967 JUMPI PUSH1 0x0 DUP1 REVERT JUMPDEST POP PUSH2 0x525 PUSH2 0x976 CALLDATASIZE PUSH1 0x4 PUSH2 0x51A8 JUMP JUMPDEST PUSH2 0x226B JUMP JUMPDEST CALLVALUE DUP1 ISZERO PUSH2 0x987 JUMPI PUSH1 0x0 DUP1 REVERT JUMPDEST POP PUSH2 0x525 PUSH2 0x996 CALLDATASIZE PUSH1 0x4 PUSH2 0x517C JUMP JUMPDEST PUSH2 0x2368 JUMP JUMPDEST CALLVALUE DUP1 ISZERO PUSH2 0x9A7 JUMPI PUSH1 0x0 DUP1 REVERT JUMPDEST POP PUSH1 0x2A SLOAD PUSH1 0x1 PUSH1 0x1 PUSH1 0xA0 SHL SUB AND PUSH2 0x569 JUMP JUMPDEST CALLVALUE DUP1 ISZERO PUSH2 0x9C5 JUMPI PUSH1 0x0 DUP1 REVERT JUMPDEST POP PUSH2 0x525 PUSH2 0x9D4 CALLDATASIZE PUSH1 0x4 PUSH2 0x5019 JUMP JUMPDEST PUSH2 0x2405 JUMP JUMPDEST CALLVALUE DUP1 ISZERO PUSH2 0x9E5 JUMPI PUSH1 0x0 DUP1 REVERT JUMPDEST POP PUSH2 0x4F0 PUSH2 0x9F4 CALLDATASIZE PUSH1 0x4 PUSH2 0x517C JUMP JUMPDEST PUSH2 0x245B JUMP JUMPDEST CALLVALUE DUP1 ISZERO PUSH2 0xA05 JUMPI PUSH1 0x0 DUP1 REVERT JUMPDEST POP PUSH2 0x525 PUSH2 0xA14 CALLDATASIZE PUSH1 0x4 PUSH2 0x52E4 JUMP JUMPDEST PUSH2 0x2594 JUMP JUMPDEST CALLVALUE DUP1 ISZERO PUSH2 0xA25 JUMPI PUSH1 0x0 DUP1 REVERT JUMPDEST POP PUSH2 0x4F0 PUSH2 0xA34 CALLDATASIZE PUSH1 0x4 PUSH2 0x51A8 JUMP JUMPDEST PUSH1 0x1E PUSH1 0x20 MSTORE PUSH1 0x0 SWAP1 DUP2 MSTORE PUSH1 0x40 SWAP1 KECCAK256 SLOAD PUSH1 0xFF AND DUP2 JUMP JUMPDEST CALLVALUE DUP1 ISZERO PUSH2 0xA55 JUMPI PUSH1 0x0 DUP1 REVERT JUMPDEST POP PUSH2 0x569 PUSH2 0xA64 CALLDATASIZE PUSH1 0x4 PUSH2 0x5019 JUMP JUMPDEST PUSH2 0x25F5 JUMP JUMPDEST CALLVALUE DUP1 ISZERO PUSH2 0xA75 JUMPI PUSH1 0x0 DUP1 REVERT JUMPDEST POP PUSH2 0x4F0 PUSH2 0xA84 CALLDATASIZE PUSH1 0x4 PUSH2 0x5019 JUMP JUMPDEST ISZERO ISZERO SWAP1 JUMP JUMPDEST CALLVALUE DUP1 ISZERO PUSH2 0xA95 JUMPI PUSH1 0x0 DUP1 REVERT JUMPDEST POP PUSH2 0x525 PUSH2 0xAA4 CALLDATASIZE PUSH1 0x4 PUSH2 0x5243 JUMP JUMPDEST PUSH2 0x266C JUMP JUMPDEST CALLVALUE DUP1 ISZERO PUSH2 0xAB5 JUMPI PUSH1 0x0 DUP1 REVERT JUMPDEST POP PUSH2 0x4F0 PUSH2 0xAC4 CALLDATASIZE PUSH1 0x4 PUSH2 0x5243 JUMP JUMPDEST PUSH2 0x280B JUMP JUMPDEST CALLVALUE DUP1 ISZERO PUSH2 0xAD5 JUMPI PUSH1 0x0 DUP1 REVERT JUMPDEST POP PUSH2 0x525 PUSH2 0xAE4 CALLDATASIZE PUSH1 0x4 PUSH2 0x5019 JUMP JUMPDEST PUSH2 0x2861 JUMP JUMPDEST CALLVALUE DUP1 ISZERO PUSH2 0xAF5 JUMPI PUSH1 0x0 DUP1 REVERT JUMPDEST POP PUSH2 0x525 PUSH2 0xB04 CALLDATASIZE PUSH1 0x4 PUSH2 0x5326 JUMP JUMPDEST PUSH2 0x28B2 JUMP JUMPDEST CALLVALUE DUP1 ISZERO PUSH2 0xB15 JUMPI PUSH1 0x0 DUP1 REVERT JUMPDEST POP PUSH2 0x612 PUSH2 0xB24 CALLDATASIZE PUSH1 0x4 PUSH2 0x51A8 JUMP JUMPDEST PUSH2 0x293F JUMP JUMPDEST CALLVALUE DUP1 ISZERO PUSH2 0xB35 JUMPI PUSH1 0x0 DUP1 REVERT JUMPDEST POP PUSH2 0x525 PUSH2 0x29C6 JUMP JUMPDEST CALLVALUE DUP1 ISZERO PUSH2 0xB4A JUMPI PUSH1 0x0 DUP1 REVERT JUMPDEST POP PUSH2 0x612 PUSH2 0xB59 CALLDATASIZE PUSH1 0x4 PUSH2 0x51A8 JUMP JUMPDEST PUSH2 0x2A4F JUMP JUMPDEST CALLVALUE DUP1 ISZERO PUSH2 0xB6A JUMPI PUSH1 0x0 DUP1 REVERT JUMPDEST POP PUSH2 0xB7E PUSH2 0xB79 CALLDATASIZE PUSH1 0x4 PUSH2 0x5019 JUMP JUMPDEST PUSH2 0x2B68 JUMP JUMPDEST PUSH1 0x40 MLOAD PUSH2 0x4FC SWAP2 SWAP1 PUSH1 0x0 PUSH1 0xC0 DUP3 ADD SWAP1 POP DUP3 MLOAD DUP3 MSTORE PUSH1 0x20 DUP4 ADD MLOAD PUSH1 0x20 DUP4 ADD MSTORE PUSH1 0x40 DUP4 ADD MLOAD PUSH1 0x40 DUP4 ADD MSTORE PUSH1 0x60 DUP4 ADD MLOAD PUSH1 0x60 DUP4 ADD MSTORE PUSH1 0x80 DUP4 ADD MLOAD MLOAD PUSH1 0x80 DUP4 ADD MSTORE PUSH1 0xA0 DUP4 ADD MLOAD PUSH1 0xA0 DUP4 ADD MSTORE SWAP3 SWAP2 POP POP JUMP JUMPDEST CALLVALUE DUP1 ISZERO PUSH2 0xBD7 JUMPI PUSH1 0x0 DUP1 REVERT JUMPDEST POP PUSH2 0x525 PUSH2 0xBE6 CALLDATASIZE PUSH1 0x4 PUSH2 0x517C JUMP JUMPDEST PUSH2 0x2BE5 JUMP JUMPDEST CALLVALUE DUP1 ISZERO PUSH2 0xBF7 JUMPI PUSH1 0x0 DUP1 REVERT JUMPDEST POP PUSH2 0x525 PUSH2 0xC06 CALLDATASIZE PUSH1 0x4 PUSH2 0x535F JUMP JUMPDEST PUSH2 0x2C87 JUMP JUMPDEST CALLVALUE DUP1 ISZERO PUSH2 0xC17 JUMPI PUSH1 0x0 DUP1 REVERT JUMPDEST POP PUSH2 0x4F0 PUSH2 0xC26 CALLDATASIZE PUSH1 0x4 PUSH2 0x51A8 JUMP JUMPDEST PUSH1 0x1 PUSH1 0x1 PUSH1 0xA0 SHL SUB AND PUSH1 0x0 SWAP1 DUP2 MSTORE PUSH1 0x1E PUSH1 0x20 MSTORE PUSH1 0x40 SWAP1 KECCAK256 SLOAD PUSH1 0xFF AND SWAP1 JUMP JUMPDEST CALLVALUE DUP1 ISZERO PUSH2 0xC50 JUMPI PUSH1 0x0 DUP1 REVERT JUMPDEST POP PUSH2 0x65A PUSH2 0xC5F CALLDATASIZE PUSH1 0x4 PUSH2 0x5019 JUMP JUMPDEST PUSH2 0x2CD9 JUMP JUMPDEST CALLVALUE DUP1 ISZERO PUSH2 0xC70 JUMPI PUSH1 0x0 DUP1 REVERT JUMPDEST POP PUSH1 0x1A SLOAD PUSH1 0x1 PUSH1 0x1 PUSH1 0xA0 SHL SUB AND PUSH2 0x569 JUMP JUMPDEST CALLVALUE DUP1 ISZERO PUSH2 0xC8E JUMPI PUSH1 0x0 DUP1 REVERT JUMPDEST POP PUSH2 0x612 PUSH1 0xF SLOAD DUP2 JUMP JUMPDEST CALLVALUE DUP1 ISZERO PUSH2 0xCA4 JUMPI PUSH1 0x0 DUP1 REVERT JUMPDEST POP PUSH2 0x525 PUSH2 0xCB3 CALLDATASIZE PUSH1 0x4 PUSH2 0x5243 JUMP JUMPDEST PUSH2 0x2DA4 JUMP JUMPDEST CALLVALUE DUP1 ISZERO PUSH2 0xCC4 JUMPI PUSH1 0x0 DUP1 REVERT JUMPDEST POP PUSH2 0x569 PUSH2 0x2DE7 JUMP JUMPDEST CALLVALUE DUP1 ISZERO PUSH2 0xCD9 JUMPI PUSH1 0x0 DUP1 REVERT JUMPDEST POP PUSH2 0x525 PUSH2 0xCE8 CALLDATASIZE PUSH1 0x4 PUSH2 0x52A9 JUMP JUMPDEST PUSH2 0x2DF6 JUMP JUMPDEST CALLVALUE DUP1 ISZERO PUSH2 0xCF9 JUMPI PUSH1 0x0 DUP1 REVERT JUMPDEST POP PUSH2 0x53C PUSH2 0x2FE8 JUMP JUMPDEST CALLVALUE DUP1 ISZERO PUSH2 0xD0E JUMPI PUSH1 0x0 DUP1 REVERT JUMPDEST POP PUSH2 0x612 PUSH2 0x2FF7 JUMP JUMPDEST CALLVALUE DUP1 ISZERO PUSH2 0xD23 JUMPI PUSH1 0x0 DUP1 REVERT JUMPDEST POP PUSH2 0x525 PUSH2 0xD32 CALLDATASIZE PUSH1 0x4 PUSH2 0x52A9 JUMP JUMPDEST PUSH2 0x300D JUMP JUMPDEST CALLVALUE DUP1 ISZERO PUSH2 0xD43 JUMPI PUSH1 0x0 DUP1 REVERT JUMPDEST POP PUSH2 0x525 PUSH2 0xD52 CALLDATASIZE PUSH1 0x4 PUSH2 0x5326 JUMP JUMPDEST PUSH2 0x3239 JUMP JUMPDEST CALLVALUE DUP1 ISZERO PUSH2 0xD63 JUMPI PUSH1 0x0 DUP1 REVERT JUMPDEST POP PUSH2 0x612 PUSH2 0xD72 CALLDATASIZE PUSH1 0x4 PUSH2 0x51A8 JUMP JUMPDEST PUSH2 0x3336 JUMP JUMPDEST CALLVALUE DUP1 ISZERO PUSH2 0xD83 JUMPI PUSH1 0x0 DUP1 REVERT JUMPDEST POP PUSH1 0x14 SLOAD PUSH2 0x612 JUMP JUMPDEST CALLVALUE DUP1 ISZERO PUSH2 0xD98 JUMPI PUSH1 0x0 DUP1 REVERT JUMPDEST POP PUSH2 0x525 PUSH2 0xDA7 CALLDATASIZE PUSH1 0x4 PUSH2 0x537C JUMP JUMPDEST PUSH2 0x33AE JUMP JUMPDEST CALLVALUE DUP1 ISZERO PUSH2 0xDB8 JUMPI PUSH1 0x0 DUP1 REVERT JUMPDEST POP PUSH2 0x525 PUSH2 0x33ED JUMP JUMPDEST CALLVALUE DUP1 ISZERO PUSH2 0xDCD JUMPI PUSH1 0x0 DUP1 REVERT JUMPDEST POP PUSH2 0x525 PUSH2 0xDDC CALLDATASIZE PUSH1 0x4 PUSH2 0x52A9 JUMP JUMPDEST PUSH2 0x3404 JUMP JUMPDEST CALLVALUE DUP1 ISZERO PUSH2 0xDED JUMPI PUSH1 0x0 DUP1 REVERT JUMPDEST POP PUSH2 0xE29 PUSH2 0xDFC CALLDATASIZE PUSH1 0x4 PUSH2 0x5473 JUMP JUMPDEST PUSH32 0xBC197C819B3E337A6F9652DD10BECD7EEF83032AF3B9D958D3D42F6694146621 SWAP9 SWAP8 POP POP POP POP POP POP POP POP JUMP JUMPDEST PUSH1 0x40 MLOAD PUSH1 0x1 PUSH1 0x1 PUSH1 0xE0 SHL SUB NOT SWAP1 SWAP2 AND DUP2 MSTORE PUSH1 0x20 ADD PUSH2 0x4FC JUMP JUMPDEST CALLVALUE DUP1 ISZERO PUSH2 0xE4E JUMPI PUSH1 0x0 DUP1 REVERT JUMPDEST POP PUSH2 0x612 PUSH2 0xE5D CALLDATASIZE PUSH1 0x4 PUSH2 0x5243 JUMP JUMPDEST PUSH2 0x3622 JUMP JUMPDEST CALLVALUE DUP1 ISZERO PUSH2 0xE6E JUMPI PUSH1 0x0 DUP1 REVERT JUMPDEST POP PUSH2 0xE9E PUSH2 0xE7D CALLDATASIZE PUSH1 0x4 PUSH2 0x5019 JUMP JUMPDEST PUSH1 0x1B SLOAD PUSH1 0x0 SWAP2 DUP3 MSTORE PUSH1 0x1C PUSH1 0x20 MSTORE PUSH1 0x40 SWAP1 SWAP2 KECCAK256 SLOAD PUSH1 0x1 PUSH1 0x1 PUSH1 0xA0 SHL SUB SWAP1 SWAP2 AND SWAP2 JUMP JUMPDEST PUSH1 0x40 MLOAD PUSH2 0x4FC SWAP3 SWAP2 SWAP1 PUSH2 0x5531 JUMP JUMPDEST CALLVALUE DUP1 ISZERO PUSH2 0xEB8 JUMPI PUSH1 0x0 DUP1 REVERT JUMPDEST POP PUSH2 0x525 PUSH2 0xEC7 CALLDATASIZE PUSH1 0x4 PUSH2 0x51C5 JUMP JUMPDEST PUSH2 0x37B6 JUMP JUMPDEST CALLVALUE DUP1 ISZERO PUSH2 0xED8 JUMPI PUSH1 0x0 DUP1 REVERT JUMPDEST POP PUSH2 0x53C PUSH2 0xEE7 CALLDATASIZE PUSH1 0x4 PUSH2 0x5019 JUMP JUMPDEST PUSH2 0x39DA JUMP JUMPDEST CALLVALUE DUP1 ISZERO PUSH2 0xEF8 JUMPI PUSH1 0x0 DUP1 REVERT JUMPDEST POP PUSH2 0x53C PUSH2 0x3A14 JUMP JUMPDEST CALLVALUE DUP1 ISZERO PUSH2 0xF0D JUMPI PUSH1 0x0 DUP1 REVERT JUMPDEST POP PUSH2 0x65A PUSH2 0xF1C CALLDATASIZE PUSH1 0x4 PUSH2 0x5019 JUMP JUMPDEST PUSH1 0x0 SWAP1 DUP2 MSTORE PUSH1 0x23 PUSH1 0x20 SWAP1 DUP2 MSTORE PUSH1 0x40 DUP1 DUP4 KECCAK256 SLOAD PUSH1 0x24 SWAP1 SWAP3 MSTORE SWAP1 SWAP2 KECCAK256 SLOAD SWAP1 SWAP2 JUMP JUMPDEST CALLVALUE DUP1 ISZERO PUSH2 0xF47 JUMPI PUSH1 0x0 DUP1 REVERT JUMPDEST POP PUSH2 0x612 PUSH2 0xF56 CALLDATASIZE PUSH1 0x4 PUSH2 0x5019 JUMP JUMPDEST PUSH1 0x0 SWAP1 DUP2 MSTORE PUSH1 0x27 PUSH1 0x20 MSTORE PUSH1 0x40 SWAP1 KECCAK256 SLOAD SWAP1 JUMP JUMPDEST CALLVALUE DUP1 ISZERO PUSH2 0xF74 JUMPI PUSH1 0x0 DUP1 REVERT JUMPDEST POP PUSH2 0x525 PUSH2 0xF83 CALLDATASIZE PUSH1 0x4 PUSH2 0x554A JUMP JUMPDEST PUSH2 0x3A3C JUMP JUMPDEST CALLVALUE DUP1 ISZERO PUSH2 0xF94 JUMPI PUSH1 0x0 DUP1 REVERT JUMPDEST POP PUSH2 0x612 PUSH2 0xFA3 CALLDATASIZE PUSH1 0x4 PUSH2 0x5019 JUMP JUMPDEST PUSH2 0x3BF8 JUMP JUMPDEST CALLVALUE DUP1 ISZERO PUSH2 0xFB4 JUMPI PUSH1 0x0 DUP1 REVERT JUMPDEST POP PUSH2 0x53C PUSH2 0x3C14 JUMP JUMPDEST CALLVALUE DUP1 ISZERO PUSH2 0xFC9 JUMPI PUSH1 0x0 DUP1 REVERT JUMPDEST POP PUSH2 0x4F0 PUSH2 0xFD8 CALLDATASIZE PUSH1 0x4 PUSH2 0x5599 JUMP JUMPDEST PUSH2 0x3C28 JUMP JUMPDEST CALLVALUE DUP1 ISZERO PUSH2 0xFE9 JUMPI PUSH1 0x0 DUP1 REVERT JUMPDEST POP PUSH1 0xE SLOAD PUSH2 0x612 JUMP JUMPDEST CALLVALUE DUP1 ISZERO PUSH2 0xFFE JUMPI PUSH1 0x0 DUP1 REVERT JUMPDEST POP PUSH2 0x525 PUSH2 0x100D CALLDATASIZE PUSH1 0x4 PUSH2 0x55C7 JUMP JUMPDEST PUSH2 0x3C56 JUMP JUMPDEST CALLVALUE DUP1 ISZERO PUSH2 0x101E JUMPI PUSH1 0x0 DUP1 REVERT JUMPDEST POP PUSH2 0xE29 PUSH2 0x102D CALLDATASIZE PUSH1 0x4 PUSH2 0x5608 JUMP JUMPDEST PUSH32 0xF23A6E612E1FF4830E658FE43F4E3CB4A5F8170BD5D9E69FB5D7A7FA9E4FDF97 SWAP7 SWAP6 POP POP POP POP POP POP JUMP JUMPDEST CALLVALUE DUP1 ISZERO PUSH2 0x1064 JUMPI PUSH1 0x0 DUP1 REVERT JUMPDEST POP PUSH2 0x525 PUSH2 0x1073 CALLDATASIZE PUSH1 0x4 PUSH2 0x51A8 JUMP JUMPDEST PUSH2 0x3D7C JUMP JUMPDEST CALLVALUE DUP1 ISZERO PUSH2 0x1084 JUMPI PUSH1 0x0 DUP1 REVERT JUMPDEST POP PUSH2 0x1098 PUSH2 0x1093 CALLDATASIZE PUSH1 0x4 PUSH2 0x5019 JUMP JUMPDEST PUSH2 0x3E7C JUMP JUMPDEST PUSH1 0x40 MLOAD PUSH2 0x4FC SWAP2 SWAP1 PUSH1 0x0 PUSH1 0xC0 DUP3 ADD SWAP1 POP DUP3 MLOAD DUP3 MSTORE PUSH1 0x20 DUP4 ADD MLOAD PUSH1 0x20 DUP4 ADD MSTORE PUSH1 0x40 DUP4 ADD MLOAD PUSH1 0x40 DUP4 ADD MSTORE PUSH1 0x60 DUP4 ADD MLOAD PUSH1 0x60 DUP4 ADD MSTORE PUSH1 0x80 DUP4 ADD MLOAD PUSH1 0x80 DUP4 ADD MSTORE PUSH1 0xA0 DUP4 ADD MLOAD PUSH1 0xA0 DUP4 ADD MSTORE SWAP3 SWAP2 POP POP JUMP JUMPDEST CALLVALUE DUP1 ISZERO PUSH2 0x10F0 JUMPI PUSH1 0x0 DUP1 REVERT JUMPDEST POP PUSH2 0x525 PUSH2 0x10FF CALLDATASIZE PUSH1 0x4 PUSH2 0x5243 JUMP JUMPDEST PUSH2 0x3F0E JUMP JUMPDEST CALLVALUE DUP1 ISZERO PUSH2 0x1110 JUMPI PUSH1 0x0 DUP1 REVERT JUMPDEST POP PUSH2 0x525 PUSH2 0x111F CALLDATASIZE PUSH1 0x4 PUSH2 0x517C JUMP JUMPDEST PUSH2 0x3FAA JUMP JUMPDEST PUSH1 0x0 PUSH1 0x1 PUSH1 0x1 PUSH1 0xE0 SHL SUB NOT DUP3 AND PUSH4 0x780E9D63 PUSH1 0xE0 SHL EQ DUP1 PUSH2 0x1149 JUMPI POP PUSH2 0x1149 DUP3 PUSH2 0x4055 JUMP JUMPDEST SWAP3 SWAP2 POP POP JUMP JUMPDEST CALLER PUSH1 0x0 SWAP1 DUP2 MSTORE PUSH1 0x1E PUSH1 0x20 MSTORE PUSH1 0x40 SWAP1 KECCAK256 SLOAD PUSH1 0xFF AND DUP1 PUSH2 0x1177 JUMPI POP PUSH1 0x10 SLOAD PUSH1 0x1 PUSH1 0x1 PUSH1 0xA0 SHL SUB AND CALLER EQ JUMPDEST PUSH2 0x1180 JUMPI PUSH1 0x0 DUP1 REVERT JUMPDEST PUSH1 0x0 SWAP2 DUP3 MSTORE PUSH1 0x28 PUSH1 0x20 SWAP1 DUP2 MSTORE PUSH1 0x40 SWAP3 DUP4 SWAP1 KECCAK256 DUP3 MLOAD DUP2 SSTORE SWAP1 DUP3 ADD MLOAD PUSH1 0x1 DUP3 ADD SSTORE SWAP2 DUP2 ADD MLOAD PUSH1 0x2 DUP4 ADD SSTORE PUSH1 0x60 DUP2 ADD MLOAD PUSH1 0x3 DUP4 ADD SSTORE PUSH1 0x80 DUP2 ADD MLOAD PUSH1 0x4 DUP4 ADD SSTORE PUSH1 0xA0 ADD MLOAD PUSH1 0x5 SWAP1 SWAP2 ADD SSTORE JUMP JUMPDEST PUSH1 0x60 PUSH1 0x0 DUP1 SLOAD PUSH2 0x11D7 SWAP1 PUSH2 0x5683 JUMP JUMPDEST DUP1 PUSH1 0x1F ADD PUSH1 0x20 DUP1 SWAP2 DIV MUL PUSH1 0x20 ADD PUSH1 0x40 MLOAD SWAP1 DUP2 ADD PUSH1 0x40 MSTORE DUP1 SWAP3 SWAP2 SWAP1 DUP2 DUP2 MSTORE PUSH1 0x20 ADD DUP3 DUP1 SLOAD PUSH2 0x1203 SWAP1 PUSH2 0x5683 JUMP JUMPDEST DUP1 ISZERO PUSH2 0x1250 JUMPI DUP1 PUSH1 0x1F LT PUSH2 0x1225 JUMPI PUSH2 0x100 DUP1 DUP4 SLOAD DIV MUL DUP4 MSTORE SWAP2 PUSH1 0x20 ADD SWAP2 PUSH2 0x1250 JUMP JUMPDEST DUP3 ADD SWAP2 SWAP1 PUSH1 0x0 MSTORE PUSH1 0x20 PUSH1 0x0 KECCAK256 SWAP1 JUMPDEST DUP2 SLOAD DUP2 MSTORE SWAP1 PUSH1 0x1 ADD SWAP1 PUSH1 0x20 ADD DUP1 DUP4 GT PUSH2 0x1233 JUMPI DUP3 SWAP1 SUB PUSH1 0x1F AND DUP3 ADD SWAP2 JUMPDEST POP POP POP POP POP SWAP1 POP SWAP1 JUMP JUMPDEST PUSH1 0x0 PUSH2 0x1265 DUP3 PUSH2 0x40A5 JUMP JUMPDEST PUSH2 0x12CB JUMPI PUSH1 0x40 MLOAD PUSH3 0x461BCD PUSH1 0xE5 SHL DUP2 MSTORE PUSH1 0x20 PUSH1 0x4 DUP3 ADD MSTORE PUSH1 0x2C PUSH1 0x24 DUP3 ADD MSTORE PUSH32 0x4552433732313A20617070726F76656420717565727920666F72206E6F6E6578 PUSH1 0x44 DUP3 ADD MSTORE PUSH12 0x34B9BA32B73A103A37B5B2B7 PUSH1 0xA1 SHL PUSH1 0x64 DUP3 ADD MSTORE PUSH1 0x84 ADD JUMPDEST PUSH1 0x40 MLOAD DUP1 SWAP2 SUB SWAP1 REVERT JUMPDEST POP PUSH1 0x0 SWAP1 DUP2 MSTORE PUSH1 0x4 PUSH1 0x20 MSTORE PUSH1 0x40 SWAP1 KECCAK256 SLOAD PUSH1 0x1 PUSH1 0x1 PUSH1 0xA0 SHL SUB AND SWAP1 JUMP JUMPDEST PUSH1 0x0 PUSH2 0x12F2 DUP3 PUSH2 0x25F5 JUMP JUMPDEST SWAP1 POP DUP1 PUSH1 0x1 PUSH1 0x1 PUSH1 0xA0 SHL SUB AND DUP4 PUSH1 0x1 PUSH1 0x1 PUSH1 0xA0 SHL SUB AND SUB PUSH2 0x135F JUMPI PUSH1 0x40 MLOAD PUSH3 0x461BCD PUSH1 0xE5 SHL DUP2 MSTORE PUSH1 0x20 PUSH1 0x4 DUP3 ADD MSTORE PUSH1 0x21 PUSH1 0x24 DUP3 ADD MSTORE PUSH32 0x4552433732313A20617070726F76616C20746F2063757272656E74206F776E65 PUSH1 0x44 DUP3 ADD MSTORE PUSH1 0x39 PUSH1 0xF9 SHL PUSH1 0x64 DUP3 ADD MSTORE PUSH1 0x84 ADD PUSH2 0x12C2 JUMP JUMPDEST DUP1 PUSH1 0x1 PUSH1 0x1 PUSH1 0xA0 SHL SUB AND PUSH2 0x1371 PUSH2 0x40C2 JUMP JUMPDEST PUSH1 0x1 PUSH1 0x1 PUSH1 0xA0 SHL SUB AND EQ DUP1 PUSH2 0x138D JUMPI POP PUSH2 0x138D DUP2 PUSH2 0xFD8 PUSH2 0x40C2 JUMP JUMPDEST PUSH2 0x13FA JUMPI PUSH1 0x40 MLOAD PUSH3 0x461BCD PUSH1 0xE5 SHL DUP2 MSTORE PUSH1 0x20 PUSH1 0x4 DUP3 ADD MSTORE PUSH1 0x38 PUSH1 0x24 DUP3 ADD MSTORE PUSH32 0x4552433732313A20617070726F76652063616C6C6572206973206E6F74206F77 PUSH1 0x44 DUP3 ADD MSTORE PUSH24 0x1B995C881B9BDC88185C1C1C9BDD995908199BDC88185B1B PUSH1 0x42 SHL PUSH1 0x64 DUP3 ADD MSTORE PUSH1 0x84 ADD PUSH2 0x12C2 JUMP JUMPDEST PUSH2 0x1404 DUP4 DUP4 PUSH2 0x40CC JUMP JUMPDEST POP POP POP JUMP JUMPDEST PUSH1 0x40 DUP1 MLOAD PUSH1 0x60 DUP2 DUP2 ADD DUP4 MSTORE PUSH1 0x1 PUSH1 0x1 PUSH1 0xA0 SHL SUB DUP9 AND PUSH1 0x0 DUP2 DUP2 MSTORE PUSH1 0xC PUSH1 0x20 SWAP1 DUP2 MSTORE SWAP1 DUP6 SWAP1 KECCAK256 SLOAD DUP5 MSTORE DUP4 ADD MSTORE SWAP2 DUP2 ADD DUP7 SWAP1 MSTORE PUSH2 0x1447 DUP8 DUP3 DUP8 DUP8 DUP8 PUSH2 0x413A JUMP JUMPDEST PUSH2 0x149D JUMPI PUSH1 0x40 MLOAD PUSH3 0x461BCD PUSH1 0xE5 SHL DUP2 MSTORE PUSH1 0x20 PUSH1 0x4 DUP3 ADD MSTORE PUSH1 0x21 PUSH1 0x24 DUP3 ADD MSTORE PUSH32 0x5369676E657220616E64207369676E617475726520646F206E6F74206D617463 PUSH1 0x44 DUP3 ADD MSTORE PUSH1 0xD PUSH1 0xFB SHL PUSH1 0x64 DUP3 ADD MSTORE PUSH1 0x84 ADD PUSH2 0x12C2 JUMP JUMPDEST PUSH1 0x1 PUSH1 0x1 PUSH1 0xA0 SHL SUB DUP8 AND PUSH1 0x0 SWAP1 DUP2 MSTORE PUSH1 0xC PUSH1 0x20 MSTORE PUSH1 0x40 SWAP1 KECCAK256 SLOAD PUSH2 0x14C1 SWAP1 PUSH1 0x1 PUSH2 0x422A JUMP JUMPDEST PUSH1 0x1 PUSH1 0x1 PUSH1 0xA0 SHL SUB DUP9 AND PUSH1 0x0 SWAP1 DUP2 MSTORE PUSH1 0xC PUSH1 0x20 MSTORE PUSH1 0x40 SWAP1 DUP2 SWAP1 KECCAK256 SWAP2 SWAP1 SWAP2 SSTORE MLOAD PUSH32 0x5845892132946850460BFF5A0083F71031BC5BF9AADCD40F1DE79423EAC9B10B SWAP1 PUSH2 0x1511 SWAP1 DUP10 SWAP1 CALLER SWAP1 DUP11 SWAP1 PUSH2 0x56BD JUMP JUMPDEST PUSH1 0x40 MLOAD DUP1 SWAP2 SUB SWAP1 LOG1 PUSH1 0x0 DUP1 ADDRESS PUSH1 0x1 PUSH1 0x1 PUSH1 0xA0 SHL SUB AND DUP9 DUP11 PUSH1 0x40 MLOAD PUSH1 0x20 ADD PUSH2 0x1539 SWAP3 SWAP2 SWAP1 PUSH2 0x56F2 JUMP JUMPDEST PUSH1 0x40 DUP1 MLOAD PUSH1 0x1F NOT DUP2 DUP5 SUB ADD DUP2 MSTORE SWAP1 DUP3 SWAP1 MSTORE PUSH2 0x1553 SWAP2 PUSH2 0x5729 JUMP JUMPDEST PUSH1 0x0 PUSH1 0x40 MLOAD DUP1 DUP4 SUB DUP2 PUSH1 0x0 DUP7 GAS CALL SWAP2 POP POP RETURNDATASIZE DUP1 PUSH1 0x0 DUP2 EQ PUSH2 0x1590 JUMPI PUSH1 0x40 MLOAD SWAP2 POP PUSH1 0x1F NOT PUSH1 0x3F RETURNDATASIZE ADD AND DUP3 ADD PUSH1 0x40 MSTORE RETURNDATASIZE DUP3 MSTORE RETURNDATASIZE PUSH1 0x0 PUSH1 0x20 DUP5 ADD RETURNDATACOPY PUSH2 0x1595 JUMP JUMPDEST PUSH1 0x60 SWAP2 POP JUMPDEST POP SWAP2 POP SWAP2 POP DUP2 PUSH2 0x15E7 JUMPI PUSH1 0x40 MLOAD PUSH3 0x461BCD PUSH1 0xE5 SHL DUP2 MSTORE PUSH1 0x20 PUSH1 0x4 DUP3 ADD MSTORE PUSH1 0x1C PUSH1 0x24 DUP3 ADD MSTORE PUSH32 0x46756E6374696F6E2063616C6C206E6F74207375636365737366756C00000000 PUSH1 0x44 DUP3 ADD MSTORE PUSH1 0x64 ADD PUSH2 0x12C2 JUMP JUMPDEST SWAP9 SWAP8 POP POP POP POP POP POP POP POP JUMP JUMPDEST PUSH2 0x15FB PUSH2 0x2DE7 JUMP JUMPDEST PUSH1 0x1 PUSH1 0x1 PUSH1 0xA0 SHL SUB AND PUSH2 0x160C PUSH2 0x3FF9 JUMP JUMPDEST PUSH1 0x1 PUSH1 0x1 PUSH1 0xA0 SHL SUB AND EQ DUP1 PUSH2 0x1636 JUMPI POP PUSH2 0x1624 PUSH2 0x3FF9 JUMP JUMPDEST PUSH1 0x10 SLOAD PUSH1 0x1 PUSH1 0x1 PUSH1 0xA0 SHL SUB SWAP1 DUP2 AND SWAP2 AND EQ JUMPDEST PUSH2 0x163F JUMPI PUSH1 0x0 DUP1 REVERT JUMPDEST PUSH1 0x15 SSTORE JUMP JUMPDEST PUSH1 0x2 PUSH1 0x11 SLOAD SUB PUSH2 0x1666 JUMPI PUSH1 0x40 MLOAD PUSH3 0x461BCD PUSH1 0xE5 SHL DUP2 MSTORE PUSH1 0x4 ADD PUSH2 0x12C2 SWAP1 PUSH2 0x5745 JUMP JUMPDEST PUSH1 0x2 PUSH1 0x11 SSTORE PUSH1 0x1A SLOAD PUSH1 0x0 SWAP1 PUSH1 0x1 PUSH1 0x1 PUSH1 0xA0 SHL SUB AND PUSH4 0xDD62ED3E PUSH2 0x1687 PUSH2 0x3FF9 JUMP JUMPDEST PUSH1 0x40 MLOAD PUSH1 0x1 PUSH1 0x1 PUSH1 0xE0 SHL SUB NOT PUSH1 0xE0 DUP5 SWAP1 SHL AND DUP2 MSTORE PUSH1 0x1 PUSH1 0x1 PUSH1 0xA0 SHL SUB SWAP1 SWAP2 AND PUSH1 0x4 DUP3 ADD MSTORE ADDRESS PUSH1 0x24 DUP3 ADD MSTORE PUSH1 0x44 ADD PUSH1 0x20 PUSH1 0x40 MLOAD DUP1 DUP4 SUB DUP2 DUP7 GAS STATICCALL ISZERO DUP1 ISZERO PUSH2 0x16D1 JUMPI RETURNDATASIZE PUSH1 0x0 DUP1 RETURNDATACOPY RETURNDATASIZE PUSH1 0x0 REVERT JUMPDEST POP POP POP POP PUSH1 0x40 MLOAD RETURNDATASIZE PUSH1 0x1F NOT PUSH1 0x1F DUP3 ADD AND DUP3 ADD DUP1 PUSH1 0x40 MSTORE POP DUP2 ADD SWAP1 PUSH2 0x16F5 SWAP2 SWAP1 PUSH2 0x577C JUMP JUMPDEST SWAP1 POP DUP3 DUP2 LT ISZERO PUSH2 0x1735 JUMPI PUSH1 0x40 MLOAD PUSH3 0x461BCD PUSH1 0xE5 SHL DUP2 MSTORE PUSH1 0x20 PUSH1 0x4 DUP3 ADD MSTORE PUSH1 0xB PUSH1 0x24 DUP3 ADD MSTORE PUSH11 0x66696C6C47617354616E6B PUSH1 0xA8 SHL PUSH1 0x44 DUP3 ADD MSTORE PUSH1 0x64 ADD PUSH2 0x12C2 JUMP JUMPDEST PUSH2 0x173F DUP3 DUP5 PUSH2 0x57AB JUMP JUMPDEST PUSH1 0x0 DUP6 DUP2 MSTORE PUSH1 0x18 PUSH1 0x20 MSTORE PUSH1 0x40 DUP2 KECCAK256 DUP1 SLOAD SWAP1 SWAP2 SWAP1 PUSH2 0x175D SWAP1 DUP5 SWAP1 PUSH2 0x57C2 JUMP JUMPDEST SWAP1 SWAP2 SSTORE POP POP PUSH1 0x0 DUP5 DUP2 MSTORE PUSH1 0x19 PUSH1 0x20 MSTORE PUSH1 0x40 DUP2 KECCAK256 DUP1 SLOAD DUP5 SWAP3 SWAP1 PUSH2 0x1780 SWAP1 DUP5 SWAP1 PUSH2 0x57C2 JUMP JUMPDEST SWAP1 SWAP2 SSTORE POP PUSH2 0x17A5 SWAP1 POP PUSH2 0x1791 PUSH2 0x3FF9 JUMP JUMPDEST PUSH1 0x1A SLOAD PUSH1 0x1 PUSH1 0x1 PUSH1 0xA0 SHL SUB AND SWAP1 ADDRESS DUP7 PUSH2 0x4236 JUMP JUMPDEST POP POP PUSH1 0x1 PUSH1 0x11 SSTORE POP POP JUMP JUMPDEST PUSH1 0x0 DUP2 DUP2 MSTORE PUSH1 0x21 PUSH1 0x20 MSTORE PUSH1 0x40 DUP2 KECCAK256 SLOAD DUP2 SUB PUSH2 0x17CD JUMPI POP PUSH1 0x0 SWAP2 SWAP1 POP JUMP JUMPDEST PUSH1 0x2E SLOAD PUSH1 0x0 DUP4 DUP2 MSTORE PUSH1 0x22 PUSH1 0x20 MSTORE PUSH1 0x40 SWAP1 DUP2 SWAP1 KECCAK256 SLOAD SWAP1 MLOAD PUSH4 0x8DD1983B PUSH1 0xE0 SHL DUP2 MSTORE PUSH1 0x1 PUSH1 0x1 PUSH1 0xA0 SHL SUB SWAP1 SWAP3 AND SWAP2 PUSH4 0x8DD1983B SWAP2 PUSH2 0x180F SWAP2 ADDRESS SWAP2 DUP8 SWAP2 PUSH1 0x4 ADD PUSH2 0x57DA JUMP JUMPDEST PUSH1 0x20 PUSH1 0x40 MLOAD DUP1 DUP4 SUB DUP2 PUSH1 0x0 DUP8 GAS CALL ISZERO DUP1 ISZERO PUSH2 0x182E JUMPI RETURNDATASIZE PUSH1 0x0 DUP1 RETURNDATACOPY RETURNDATASIZE PUSH1 0x0 REVERT JUMPDEST POP POP POP POP PUSH1 0x40 MLOAD RETURNDATASIZE PUSH1 0x1F NOT PUSH1 0x1F DUP3 ADD AND DUP3 ADD DUP1 PUSH1 0x40 MSTORE POP DUP2 ADD SWAP1 PUSH2 0x1852 SWAP2 SWAP1 PUSH2 0x577C JUMP JUMPDEST PUSH1 0x0 SWAP3 DUP4 MSTORE PUSH1 0x22 PUSH1 0x20 MSTORE PUSH1 0x40 SWAP1 SWAP3 KECCAK256 DUP3 SWAP1 SSTORE POP SWAP1 JUMP JUMPDEST PUSH1 0x1 PUSH1 0x1 PUSH1 0xA0 SHL SUB DUP2 AND PUSH2 0x188E JUMPI PUSH1 0x40 MLOAD PUSH3 0x461BCD PUSH1 0xE5 SHL DUP2 MSTORE PUSH1 0x4 ADD PUSH2 0x12C2 SWAP1 PUSH2 0x57FB JUMP JUMPDEST PUSH2 0x1896 PUSH2 0x2DE7 JUMP JUMPDEST PUSH1 0x1 PUSH1 0x1 PUSH1 0xA0 SHL SUB AND PUSH2 0x18A7 PUSH2 0x3FF9 JUMP JUMPDEST PUSH1 0x1 PUSH1 0x1 PUSH1 0xA0 SHL SUB AND EQ DUP1 PUSH2 0x18D1 JUMPI POP PUSH2 0x18BF PUSH2 0x3FF9 JUMP JUMPDEST PUSH1 0x10 SLOAD PUSH1 0x1 PUSH1 0x1 PUSH1 0xA0 SHL SUB SWAP1 DUP2 AND SWAP2 AND EQ JUMPDEST PUSH2 0x18DA JUMPI PUSH1 0x0 DUP1 REVERT JUMPDEST PUSH1 0x1A DUP1 SLOAD PUSH1 0x1 PUSH1 0x1 PUSH1 0xA0 SHL SUB NOT AND PUSH1 0x1 PUSH1 0x1 PUSH1 0xA0 SHL SUB SWAP3 SWAP1 SWAP3 AND SWAP2 SWAP1 SWAP2 OR SWAP1 SSTORE JUMP JUMPDEST PUSH2 0x190D PUSH2 0x1907 PUSH2 0x40C2 JUMP JUMPDEST DUP3 PUSH2 0x428E JUMP JUMPDEST PUSH2 0x1929 JUMPI PUSH1 0x40 MLOAD PUSH3 0x461BCD PUSH1 0xE5 SHL DUP2 MSTORE PUSH1 0x4 ADD PUSH2 0x12C2 SWAP1 PUSH2 0x5824 JUMP JUMPDEST PUSH2 0x1404 DUP4 DUP4 DUP4 PUSH2 0x4350 JUMP JUMPDEST PUSH1 0x0 DUP1 PUSH2 0x1940 DUP7 PUSH2 0x3BF8 JUMP JUMPDEST SWAP1 POP DUP1 DUP4 LT ISZERO PUSH2 0x1980 JUMPI PUSH1 0x40 MLOAD PUSH3 0x461BCD PUSH1 0xE5 SHL DUP2 MSTORE PUSH1 0x20 PUSH1 0x4 DUP3 ADD MSTORE PUSH1 0xB PUSH1 0x24 DUP3 ADD MSTORE PUSH11 0x21B7B9BA399036B7B93297 PUSH1 0xA9 SHL PUSH1 0x44 DUP3 ADD MSTORE PUSH1 0x64 ADD PUSH2 0x12C2 JUMP JUMPDEST PUSH1 0x29 SLOAD PUSH1 0x40 MLOAD PUSH4 0x13784ABF PUSH1 0xE3 SHL DUP2 MSTORE PUSH1 0x0 SWAP2 PUSH1 0x1 PUSH1 0x1 PUSH1 0xA0 SHL SUB AND SWAP1 PUSH4 0x9BC255F8 SWAP1 PUSH2 0x19B3 SWAP1 CALLER SWAP1 DUP9 SWAP1 PUSH1 0x4 ADD PUSH2 0x5531 JUMP JUMPDEST PUSH1 0x20 PUSH1 0x40 MLOAD DUP1 DUP4 SUB DUP2 PUSH1 0x0 DUP8 GAS CALL ISZERO DUP1 ISZERO PUSH2 0x19D2 JUMPI RETURNDATASIZE PUSH1 0x0 DUP1 RETURNDATACOPY RETURNDATASIZE PUSH1 0x0 REVERT JUMPDEST POP POP POP POP PUSH1 0x40 MLOAD RETURNDATASIZE PUSH1 0x1F NOT PUSH1 0x1F DUP3 ADD AND DUP3 ADD DUP1 PUSH1 0x40 MSTORE POP DUP2 ADD SWAP1 PUSH2 0x19F6 SWAP2 SWAP1 PUSH2 0x577C JUMP JUMPDEST SWAP1 POP PUSH1 0x0 PUSH1 0x29 PUSH1 0x0 SWAP1 SLOAD SWAP1 PUSH2 0x100 EXP SWAP1 DIV PUSH1 0x1 PUSH1 0x1 PUSH1 0xA0 SHL SUB AND PUSH1 0x1 PUSH1 0x1 PUSH1 0xA0 SHL SUB AND PUSH4 0x935418FC DUP4 PUSH1 0x40 MLOAD DUP3 PUSH4 0xFFFFFFFF AND PUSH1 0xE0 SHL DUP2 MSTORE PUSH1 0x4 ADD PUSH1 0x20 PUSH1 0x40 MLOAD DUP1 DUP4 SUB DUP2 DUP6 DUP9 GAS CALL ISZERO DUP1 ISZERO PUSH2 0x1A4F JUMPI RETURNDATASIZE PUSH1 0x0 DUP1 RETURNDATACOPY RETURNDATASIZE PUSH1 0x0 REVERT JUMPDEST POP POP POP POP POP PUSH1 0x40 MLOAD RETURNDATASIZE PUSH1 0x1F NOT PUSH1 0x1F DUP3 ADD AND DUP3 ADD DUP1 PUSH1 0x40 MSTORE POP DUP2 ADD SWAP1 PUSH2 0x1A74 SWAP2 SWAP1 PUSH2 0x577C JUMP JUMPDEST PUSH1 0x29 SLOAD PUSH1 0x40 MLOAD PUSH4 0x95EA7B3 PUSH1 0xE0 SHL DUP2 MSTORE SWAP2 SWAP3 POP PUSH1 0x1 PUSH1 0x1 PUSH1 0xA0 SHL SUB AND SWAP1 PUSH4 0x95EA7B3 SWAP1 PUSH2 0x1AA7 SWAP1 ADDRESS SWAP1 DUP6 SWAP1 PUSH1 0x4 ADD PUSH2 0x5531 JUMP JUMPDEST PUSH1 0x20 PUSH1 0x40 MLOAD DUP1 DUP4 SUB DUP2 PUSH1 0x0 DUP8 GAS CALL ISZERO DUP1 ISZERO PUSH2 0x1AC6 JUMPI RETURNDATASIZE PUSH1 0x0 DUP1 RETURNDATACOPY RETURNDATASIZE PUSH1 0x0 REVERT JUMPDEST POP POP POP POP PUSH1 0x40 MLOAD RETURNDATASIZE PUSH1 0x1F NOT PUSH1 0x1F DUP3 ADD AND DUP3 ADD DUP1 PUSH1 0x40 MSTORE POP DUP2 ADD SWAP1 PUSH2 0x1AEA SWAP2 SWAP1 PUSH2 0x5875 JUMP JUMPDEST POP PUSH1 0x0 PUSH2 0x1AF8 PUSH1 0x2 DUP4 PUSH2 0x58A8 JUMP JUMPDEST PUSH1 0x29 SLOAD PUSH1 0x2A SLOAD PUSH1 0x40 MLOAD PUSH4 0x31A9108F PUSH1 0xE1 SHL DUP2 MSTORE PUSH1 0x4 DUP2 ADD DUP14 SWAP1 MSTORE SWAP3 SWAP4 POP PUSH1 0x1 PUSH1 0x1 PUSH1 0xA0 SHL SUB SWAP2 DUP3 AND SWAP3 PUSH4 0x23B872DD SWAP3 ADDRESS SWAP3 AND SWAP1 PUSH4 0x6352211E SWAP1 PUSH1 0x24 ADD PUSH1 0x20 PUSH1 0x40 MLOAD DUP1 DUP4 SUB DUP2 DUP7 GAS STATICCALL ISZERO DUP1 ISZERO PUSH2 0x1B51 JUMPI RETURNDATASIZE PUSH1 0x0 DUP1 RETURNDATACOPY RETURNDATASIZE PUSH1 0x0 REVERT JUMPDEST POP POP POP POP PUSH1 0x40 MLOAD RETURNDATASIZE PUSH1 0x1F NOT PUSH1 0x1F DUP3 ADD AND DUP3 ADD DUP1 PUSH1 0x40 MSTORE POP DUP2 ADD SWAP1 PUSH2 0x1B75 SWAP2 SWAP1 PUSH2 0x58BC JUMP JUMPDEST DUP5 PUSH1 0x40 MLOAD DUP5 PUSH4 0xFFFFFFFF AND PUSH1 0xE0 SHL DUP2 MSTORE PUSH1 0x4 ADD PUSH2 0x1B94 SWAP4 SWAP3 SWAP2 SWAP1 PUSH2 0x58D9 JUMP JUMPDEST PUSH1 0x20 PUSH1 0x40 MLOAD DUP1 DUP4 SUB DUP2 PUSH1 0x0 DUP8 GAS CALL ISZERO DUP1 ISZERO PUSH2 0x1BB3 JUMPI RETURNDATASIZE PUSH1 0x0 DUP1 RETURNDATACOPY RETURNDATASIZE PUSH1 0x0 REVERT JUMPDEST POP POP POP POP PUSH1 0x40 MLOAD RETURNDATASIZE PUSH1 0x1F NOT PUSH1 0x1F DUP3 ADD AND DUP3 ADD DUP1 PUSH1 0x40 MSTORE POP DUP2 ADD SWAP1 PUSH2 0x1BD7 SWAP2 SWAP1 PUSH2 0x5875 JUMP JUMPDEST POP PUSH1 0x0 PUSH2 0x1BE4 DUP3 DUP5 PUSH2 0x57AB JUMP JUMPDEST SWAP1 POP PUSH1 0x0 PUSH2 0x1BF3 PUSH1 0x2 DUP4 PUSH2 0x58A8 JUMP JUMPDEST SWAP1 POP PUSH1 0x0 PUSH2 0x1C01 DUP3 DUP5 PUSH2 0x57AB JUMP JUMPDEST PUSH1 0x29 SLOAD PUSH1 0x2A SLOAD PUSH1 0x40 DUP1 MLOAD PUSH4 0x8DA5CB5B PUSH1 0xE0 SHL DUP2 MSTORE SWAP1 MLOAD SWAP4 SWAP5 POP PUSH1 0x1 PUSH1 0x1 PUSH1 0xA0 SHL SUB SWAP3 DUP4 AND SWAP4 PUSH4 0x23B872DD SWAP4 ADDRESS SWAP4 AND SWAP2 PUSH4 0x8DA5CB5B SWAP2 PUSH1 0x4 DUP1 DUP4 ADD SWAP3 PUSH1 0x20 SWAP3 SWAP2 SWAP1 DUP3 SWAP1 SUB ADD DUP2 DUP7 GAS STATICCALL ISZERO DUP1 ISZERO PUSH2 0x1C5A JUMPI RETURNDATASIZE PUSH1 0x0 DUP1 RETURNDATACOPY RETURNDATASIZE PUSH1 0x0 REVERT JUMPDEST POP POP POP POP PUSH1 0x40 MLOAD RETURNDATASIZE PUSH1 0x1F NOT PUSH1 0x1F DUP3 ADD AND DUP3 ADD DUP1 PUSH1 0x40 MSTORE POP DUP2 ADD SWAP1 PUSH2 0x1C7E SWAP2 SWAP1 PUSH2 0x58BC JUMP JUMPDEST DUP6 PUSH1 0x40 MLOAD DUP5 PUSH4 0xFFFFFFFF AND PUSH1 0xE0 SHL DUP2 MSTORE PUSH1 0x4 ADD PUSH2 0x1C9D SWAP4 SWAP3 SWAP2 SWAP1 PUSH2 0x58D9 JUMP JUMPDEST PUSH1 0x20 PUSH1 0x40 MLOAD DUP1 DUP4 SUB DUP2 PUSH1 0x0 DUP8 GAS CALL ISZERO DUP1 ISZERO PUSH2 0x1CBC JUMPI RETURNDATASIZE PUSH1 0x0 DUP1 RETURNDATACOPY RETURNDATASIZE PUSH1 0x0 REVERT JUMPDEST POP POP POP POP PUSH1 0x40 MLOAD RETURNDATASIZE PUSH1 0x1F NOT PUSH1 0x1F DUP3 ADD AND DUP3 ADD DUP1 PUSH1 0x40 MSTORE POP DUP2 ADD SWAP1 PUSH2 0x1CE0 SWAP2 SWAP1 PUSH2 0x5875 JUMP JUMPDEST POP PUSH1 0x29 SLOAD PUSH1 0x40 MLOAD PUSH4 0x852CD8D PUSH1 0xE3 SHL DUP2 MSTORE PUSH1 0x4 DUP2 ADD DUP4 SWAP1 MSTORE PUSH1 0x1 PUSH1 0x1 PUSH1 0xA0 SHL SUB SWAP1 SWAP2 AND SWAP1 PUSH4 0x42966C68 SWAP1 PUSH1 0x24 ADD PUSH1 0x0 PUSH1 0x40 MLOAD DUP1 DUP4 SUB DUP2 PUSH1 0x0 DUP8 DUP1 EXTCODESIZE ISZERO DUP1 ISZERO PUSH2 0x1D27 JUMPI PUSH1 0x0 DUP1 REVERT JUMPDEST POP GAS CALL ISZERO DUP1 ISZERO PUSH2 0x1D3B JUMPI RETURNDATASIZE PUSH1 0x0 DUP1 RETURNDATACOPY RETURNDATASIZE PUSH1 0x0 REVERT JUMPDEST POP POP POP POP PUSH1 0x0 PUSH2 0x1D49 PUSH2 0x2FF7 JUMP JUMPDEST SWAP1 POP PUSH2 0x1D55 DUP13 DUP3 PUSH2 0x44E9 JUMP JUMPDEST PUSH2 0x1D5D PUSH2 0x33ED JUMP JUMPDEST DUP11 PUSH1 0x1F PUSH1 0x0 DUP4 DUP2 MSTORE PUSH1 0x20 ADD SWAP1 DUP2 MSTORE PUSH1 0x20 ADD PUSH1 0x0 KECCAK256 DUP2 SWAP1 SSTORE POP PUSH8 0xDE0B6B3A7640000 PUSH1 0x21 PUSH1 0x0 DUP4 DUP2 MSTORE PUSH1 0x20 ADD SWAP1 DUP2 MSTORE PUSH1 0x20 ADD PUSH1 0x0 KECCAK256 DUP2 SWAP1 SSTORE POP DUP10 PUSH1 0x22 PUSH1 0x0 DUP4 DUP2 MSTORE PUSH1 0x20 ADD SWAP1 DUP2 MSTORE PUSH1 0x20 ADD PUSH1 0x0 KECCAK256 DUP2 SWAP1 SSTORE POP DUP13 PUSH1 0x23 PUSH1 0x0 DUP4 DUP2 MSTORE PUSH1 0x20 ADD SWAP1 DUP2 MSTORE PUSH1 0x20 ADD PUSH1 0x0 KECCAK256 DUP2 SWAP1 SSTORE POP DUP13 PUSH1 0x20 PUSH1 0x0 DUP4 DUP2 MSTORE PUSH1 0x20 ADD SWAP1 DUP2 MSTORE PUSH1 0x20 ADD PUSH1 0x0 KECCAK256 DUP2 SWAP1 SSTORE POP PUSH32 0xE2DAC6D762973CFC3A5349484EBD1F4FB2943C5AD7FDF22C89917A97101E1935 DUP2 DUP15 DUP15 DUP15 DUP15 PUSH1 0x40 MLOAD PUSH2 0x1E3B SWAP6 SWAP5 SWAP4 SWAP3 SWAP2 SWAP1 SWAP5 DUP6 MSTORE PUSH1 0x20 DUP6 ADD SWAP4 SWAP1 SWAP4 MSTORE PUSH1 0x1 PUSH1 0x1 PUSH1 0xA0 SHL SUB SWAP2 SWAP1 SWAP2 AND PUSH1 0x40 DUP5 ADD MSTORE PUSH1 0x60 DUP4 ADD MSTORE PUSH1 0x80 DUP3 ADD MSTORE PUSH1 0xA0 ADD SWAP1 JUMP JUMPDEST PUSH1 0x40 MLOAD DUP1 SWAP2 SUB SWAP1 LOG1 SWAP8 POP POP POP POP POP POP POP POP JUMPDEST SWAP5 SWAP4 POP POP POP POP JUMP JUMPDEST CALLER PUSH1 0x0 SWAP1 DUP2 MSTORE PUSH1 0x1E PUSH1 0x20 MSTORE PUSH1 0x40 SWAP1 KECCAK256 SLOAD PUSH1 0xFF AND DUP1 PUSH2 0x1E7D JUMPI POP PUSH1 0x10 SLOAD PUSH1 0x1 PUSH1 0x1 PUSH1 0xA0 SHL SUB AND CALLER EQ JUMPDEST PUSH2 0x1E86 JUMPI PUSH1 0x0 DUP1 REVERT JUMPDEST PUSH1 0x0 SWAP2 DUP3 MSTORE PUSH1 0x27 PUSH1 0x20 MSTORE PUSH1 0x40 SWAP1 SWAP2 KECCAK256 SSTORE JUMP JUMPDEST PUSH1 0x0 PUSH2 0x1EA3 DUP4 PUSH2 0x293F JUMP JUMPDEST DUP3 LT PUSH2 0x1F05 JUMPI PUSH1 0x40 MLOAD PUSH3 0x461BCD PUSH1 0xE5 SHL DUP2 MSTORE PUSH1 0x20 PUSH1 0x4 DUP3 ADD MSTORE PUSH1 0x2B PUSH1 0x24 DUP3 ADD MSTORE PUSH32 0x455243373231456E756D657261626C653A206F776E657220696E646578206F75 PUSH1 0x44 DUP3 ADD MSTORE PUSH11 0x74206F6620626F756E6473 PUSH1 0xA8 SHL PUSH1 0x64 DUP3 ADD MSTORE PUSH1 0x84 ADD PUSH2 0x12C2 JUMP JUMPDEST POP PUSH1 0x1 PUSH1 0x1 PUSH1 0xA0 SHL SUB SWAP2 SWAP1 SWAP2 AND PUSH1 0x0 SWAP1 DUP2 MSTORE PUSH1 0x6 PUSH1 0x20 SWAP1 DUP2 MSTORE PUSH1 0x40 DUP1 DUP4 KECCAK256 SWAP4 DUP4 MSTORE SWAP3 SWAP1 MSTORE KECCAK256 SLOAD SWAP1 JUMP JUMPDEST CALLER PUSH1 0x0 SWAP1 DUP2 MSTORE PUSH1 0x1E PUSH1 0x20 MSTORE PUSH1 0x40 SWAP1 KECCAK256 SLOAD PUSH1 0xFF AND PUSH2 0x1F4A JUMPI PUSH1 0x0 DUP1 REVERT JUMPDEST PUSH2 0x1F53 DUP2 PUSH2 0x4616 JUMP JUMPDEST POP JUMP JUMPDEST PUSH2 0x1F5E PUSH2 0x2DE7 JUMP JUMPDEST PUSH1 0x1 PUSH1 0x1 PUSH1 0xA0 SHL SUB AND PUSH2 0x1F6F PUSH2 0x3FF9 JUMP JUMPDEST PUSH1 0x1 PUSH1 0x1 PUSH1 0xA0 SHL SUB AND EQ DUP1 PUSH2 0x1F9E JUMPI POP PUSH1 0x10 SLOAD PUSH1 0x1 PUSH1 0x1 PUSH1 0xA0 SHL SUB AND PUSH2 0x1F93 PUSH2 0x3FF9 JUMP JUMPDEST PUSH1 0x1 PUSH1 0x1 PUSH1 0xA0 SHL SUB AND EQ JUMPDEST PUSH2 0x1FA7 JUMPI PUSH1 0x0 DUP1 REVERT JUMPDEST PUSH1 0x63 PUSH1 0x16 SLOAD GT ISZERO PUSH2 0x1FF1 JUMPI PUSH1 0x40 MLOAD PUSH3 0x461BCD PUSH1 0xE5 SHL DUP2 MSTORE PUSH1 0x20 PUSH1 0x4 DUP3 ADD MSTORE PUSH1 0x14 PUSH1 0x24 DUP3 ADD MSTORE PUSH20 0x2132903132BA3BB2B2B710181030B732101C9C97 PUSH1 0x61 SHL PUSH1 0x44 DUP3 ADD MSTORE PUSH1 0x64 ADD PUSH2 0x12C2 JUMP JUMPDEST PUSH1 0x16 SSTORE JUMP JUMPDEST PUSH2 0x1404 DUP4 DUP4 DUP4 PUSH1 0x40 MLOAD DUP1 PUSH1 0x20 ADD PUSH1 0x40 MSTORE DUP1 PUSH1 0x0 DUP2 MSTORE POP PUSH2 0x33AE JUMP JUMPDEST PUSH1 0x13 SLOAD PUSH1 0xFF AND PUSH2 0x2063 JUMPI PUSH1 0x40 MLOAD PUSH3 0x461BCD PUSH1 0xE5 SHL DUP2 MSTORE PUSH1 0x20 PUSH1 0x4 DUP3 ADD MSTORE PUSH1 0x1B PUSH1 0x24 DUP3 ADD MSTORE PUSH32 0x596F752063616E2774206275726E20746869732E2E2E207965743F0000000000 PUSH1 0x44 DUP3 ADD MSTORE PUSH1 0x64 ADD PUSH2 0x12C2 JUMP JUMPDEST PUSH2 0x206E PUSH2 0x1907 PUSH2 0x40C2 JUMP JUMPDEST DUP1 PUSH2 0x208E JUMPI POP PUSH2 0x207C PUSH2 0x3FF9 JUMP JUMPDEST PUSH1 0x10 SLOAD PUSH1 0x1 PUSH1 0x1 PUSH1 0xA0 SHL SUB SWAP1 DUP2 AND SWAP2 AND EQ JUMPDEST PUSH2 0x1F4A JUMPI PUSH1 0x40 MLOAD PUSH3 0x461BCD PUSH1 0xE5 SHL DUP2 MSTORE PUSH1 0x20 PUSH1 0x4 DUP3 ADD DUP2 SWAP1 MSTORE PUSH1 0x24 DUP3 ADD MSTORE PUSH32 0x43616C6C6572206973206E6F74206F776E6572206E6F7220617070726F766564 PUSH1 0x44 DUP3 ADD MSTORE PUSH1 0x64 ADD PUSH2 0x12C2 JUMP JUMPDEST PUSH1 0x40 DUP1 MLOAD CALLER DUP2 MSTORE PUSH1 0x1 PUSH1 0x1 PUSH1 0xA0 SHL SUB DUP8 AND PUSH1 0x20 DUP3 ADD MSTORE SWAP1 DUP2 ADD DUP6 SWAP1 MSTORE PUSH1 0x60 DUP2 ADD DUP5 SWAP1 MSTORE PUSH1 0x80 DUP2 ADD DUP4 SWAP1 MSTORE PUSH1 0xA0 DUP2 ADD DUP3 SWAP1 MSTORE PUSH32 0xE41478BBC4F03A84DCCD745840CD2C95429FA75E364B6B862CE92017527E1885 SWAP1 PUSH1 0xC0 ADD JUMPDEST PUSH1 0x40 MLOAD DUP1 SWAP2 SUB SWAP1 LOG1 POP POP POP POP POP JUMP JUMPDEST PUSH32 0x698D63D1C391E6962AB2ABEBF36D01CCD734AF86F60BE4F14375C4B7ED8C6E82 DUP6 DUP6 DUP6 DUP6 DUP6 PUSH1 0x40 MLOAD PUSH2 0x2131 SWAP6 SWAP5 SWAP4 SWAP3 SWAP2 SWAP1 PUSH2 0x58FD JUMP JUMPDEST CALLER PUSH1 0x0 SWAP1 DUP2 MSTORE PUSH1 0x1E PUSH1 0x20 MSTORE PUSH1 0x40 SWAP1 KECCAK256 SLOAD PUSH1 0xFF AND DUP1 PUSH2 0x21AA JUMPI POP PUSH2 0x2198 PUSH2 0x3FF9 JUMP JUMPDEST PUSH1 0x10 SLOAD PUSH1 0x1 PUSH1 0x1 PUSH1 0xA0 SHL SUB SWAP1 DUP2 AND SWAP2 AND EQ JUMPDEST PUSH2 0x21B3 JUMPI PUSH1 0x0 DUP1 REVERT JUMPDEST PUSH1 0x0 SWAP2 DUP3 MSTORE PUSH1 0x1C PUSH1 0x20 SWAP1 DUP2 MSTORE PUSH1 0x40 DUP1 DUP5 KECCAK256 SWAP3 SWAP1 SWAP3 SSTORE PUSH1 0x1D SWAP1 MSTORE SWAP1 KECCAK256 DUP1 SLOAD PUSH1 0xFF NOT AND SWAP1 SSTORE JUMP JUMPDEST PUSH1 0x0 PUSH2 0x21E3 PUSH1 0x8 SLOAD SWAP1 JUMP JUMPDEST DUP3 LT PUSH2 0x2246 JUMPI PUSH1 0x40 MLOAD PUSH3 0x461BCD PUSH1 0xE5 SHL DUP2 MSTORE PUSH1 0x20 PUSH1 0x4 DUP3 ADD MSTORE PUSH1 0x2C PUSH1 0x24 DUP3 ADD MSTORE PUSH32 0x455243373231456E756D657261626C653A20676C6F62616C20696E646578206F PUSH1 0x44 DUP3 ADD MSTORE PUSH12 0x7574206F6620626F756E6473 PUSH1 0xA0 SHL PUSH1 0x64 DUP3 ADD MSTORE PUSH1 0x84 ADD PUSH2 0x12C2 JUMP JUMPDEST PUSH1 0x8 DUP3 DUP2 SLOAD DUP2 LT PUSH2 0x2259 JUMPI PUSH2 0x2259 PUSH2 0x5920 JUMP JUMPDEST SWAP1 PUSH1 0x0 MSTORE PUSH1 0x20 PUSH1 0x0 KECCAK256 ADD SLOAD SWAP1 POP SWAP2 SWAP1 POP JUMP JUMPDEST PUSH1 0x1 PUSH1 0x1 PUSH1 0xA0 SHL SUB DUP2 AND PUSH2 0x2291 JUMPI PUSH1 0x40 MLOAD PUSH3 0x461BCD PUSH1 0xE5 SHL DUP2 MSTORE PUSH1 0x4 ADD PUSH2 0x12C2 SWAP1 PUSH2 0x57FB JUMP JUMPDEST PUSH2 0x2299 PUSH2 0x2DE7 JUMP JUMPDEST PUSH1 0x1 PUSH1 0x1 PUSH1 0xA0 SHL SUB AND PUSH2 0x22AA PUSH2 0x3FF9 JUMP JUMPDEST PUSH1 0x1 PUSH1 0x1 PUSH1 0xA0 SHL SUB AND EQ DUP1 PUSH2 0x22D4 JUMPI POP PUSH2 0x22C2 PUSH2 0x3FF9 JUMP JUMPDEST PUSH1 0x10 SLOAD PUSH1 0x1 PUSH1 0x1 PUSH1 0xA0 SHL SUB SWAP1 DUP2 AND SWAP2 AND EQ JUMPDEST PUSH2 0x2346 JUMPI PUSH1 0x40 MLOAD PUSH3 0x461BCD PUSH1 0xE5 SHL DUP2 MSTORE PUSH1 0x20 PUSH1 0x4 DUP3 ADD MSTORE PUSH1 0x3B PUSH1 0x24 DUP3 ADD MSTORE PUSH32 0x4F6E6C7920746865206F776E6572206F7220726567697374657279206D617920 PUSH1 0x44 DUP3 ADD MSTORE PUSH32 0x6368616E6765207468652072657761726420636F6E74726163742E0000000000 PUSH1 0x64 DUP3 ADD MSTORE PUSH1 0x84 ADD PUSH2 0x12C2 JUMP JUMPDEST PUSH1 0x1B DUP1 SLOAD PUSH1 0x1 PUSH1 0x1 PUSH1 0xA0 SHL SUB NOT AND PUSH1 0x1 PUSH1 0x1 PUSH1 0xA0 SHL SUB SWAP3 SWAP1 SWAP3 AND SWAP2 SWAP1 SWAP2 OR SWAP1 SSTORE JUMP JUMPDEST PUSH1 0x2C SLOAD PUSH1 0x40 MLOAD PUSH4 0x79212195 PUSH1 0xE1 SHL DUP2 MSTORE PUSH1 0x1 PUSH1 0x1 PUSH1 0xA0 SHL SUB SWAP1 SWAP2 AND SWAP1 PUSH4 0xF242432A SWAP1 PUSH2 0x239E SWAP1 CALLER SWAP1 ADDRESS SWAP1 DUP8 SWAP1 DUP8 SWAP1 PUSH1 0x4 ADD PUSH2 0x5936 JUMP JUMPDEST PUSH1 0x0 PUSH1 0x40 MLOAD DUP1 DUP4 SUB DUP2 PUSH1 0x0 DUP8 DUP1 EXTCODESIZE ISZERO DUP1 ISZERO PUSH2 0x23B8 JUMPI PUSH1 0x0 DUP1 REVERT JUMPDEST POP GAS CALL ISZERO DUP1 ISZERO PUSH2 0x23CC JUMPI RETURNDATASIZE PUSH1 0x0 DUP1 RETURNDATACOPY RETURNDATASIZE PUSH1 0x0 REVERT JUMPDEST POP POP POP PUSH1 0x0 DUP5 DUP2 MSTORE PUSH1 0x25 PUSH1 0x20 SWAP1 DUP2 MSTORE PUSH1 0x40 DUP1 DUP4 KECCAK256 DUP7 DUP5 MSTORE SWAP1 SWAP2 MSTORE DUP2 KECCAK256 DUP1 SLOAD DUP5 SWAP4 POP SWAP1 SWAP2 SWAP1 PUSH2 0x23FB SWAP1 DUP5 SWAP1 PUSH2 0x57C2 JUMP JUMPDEST SWAP1 SWAP2 SSTORE POP POP POP POP POP JUMP JUMPDEST PUSH2 0x240D PUSH2 0x2DE7 JUMP JUMPDEST PUSH1 0x1 PUSH1 0x1 PUSH1 0xA0 SHL SUB AND PUSH2 0x241E PUSH2 0x3FF9 JUMP JUMPDEST PUSH1 0x1 PUSH1 0x1 PUSH1 0xA0 SHL SUB AND EQ DUP1 PUSH2 0x244D JUMPI POP PUSH1 0x10 SLOAD PUSH1 0x1 PUSH1 0x1 PUSH1 0xA0 SHL SUB AND PUSH2 0x2442 PUSH2 0x3FF9 JUMP JUMPDEST PUSH1 0x1 PUSH1 0x1 PUSH1 0xA0 SHL SUB AND EQ JUMPDEST PUSH2 0x2456 JUMPI PUSH1 0x0 DUP1 REVERT JUMPDEST PUSH1 0xF SSTORE JUMP JUMPDEST PUSH1 0x10 SLOAD PUSH1 0x0 SWAP1 PUSH1 0x1 PUSH1 0x1 PUSH1 0xA0 SHL SUB AND CALLER EQ DUP1 PUSH2 0x2486 JUMPI POP CALLER PUSH1 0x0 SWAP1 DUP2 MSTORE PUSH1 0x1E PUSH1 0x20 MSTORE PUSH1 0x40 SWAP1 KECCAK256 SLOAD PUSH1 0xFF AND JUMPDEST PUSH2 0x248F JUMPI PUSH1 0x0 DUP1 REVERT JUMPDEST PUSH1 0x0 DUP5 DUP2 MSTORE PUSH1 0x25 PUSH1 0x20 SWAP1 DUP2 MSTORE PUSH1 0x40 DUP1 DUP4 KECCAK256 DUP7 DUP5 MSTORE SWAP1 SWAP2 MSTORE SWAP1 KECCAK256 SLOAD DUP3 GT ISZERO PUSH2 0x24B8 JUMPI POP PUSH1 0x0 PUSH2 0x258D JUMP JUMPDEST PUSH1 0x0 DUP5 DUP2 MSTORE PUSH1 0x25 PUSH1 0x20 SWAP1 DUP2 MSTORE PUSH1 0x40 DUP1 DUP4 KECCAK256 DUP7 DUP5 MSTORE SWAP1 SWAP2 MSTORE DUP2 KECCAK256 DUP1 SLOAD DUP5 SWAP3 SWAP1 PUSH2 0x24E1 SWAP1 DUP5 SWAP1 PUSH2 0x57AB JUMP JUMPDEST SWAP1 SWAP2 SSTORE POP POP PUSH1 0x2C SLOAD PUSH1 0x40 MLOAD PUSH4 0x7A94C565 PUSH1 0xE1 SHL DUP2 MSTORE PUSH1 0x1 PUSH1 0x1 PUSH1 0xA0 SHL SUB SWAP1 SWAP2 AND SWAP1 PUSH4 0xF5298ACA SWAP1 PUSH2 0x251A SWAP1 ADDRESS SWAP1 DUP8 SWAP1 DUP8 SWAP1 PUSH1 0x4 ADD PUSH2 0x57DA JUMP JUMPDEST PUSH1 0x0 PUSH1 0x40 MLOAD DUP1 DUP4 SUB DUP2 PUSH1 0x0 DUP8 DUP1 EXTCODESIZE ISZERO DUP1 ISZERO PUSH2 0x2534 JUMPI PUSH1 0x0 DUP1 REVERT JUMPDEST POP GAS CALL ISZERO DUP1 ISZERO PUSH2 0x2548 JUMPI RETURNDATASIZE PUSH1 0x0 DUP1 RETURNDATACOPY RETURNDATASIZE PUSH1 0x0 REVERT JUMPDEST POP POP POP POP PUSH32 0xAEFDA89108F322208CFE9C07FE13735DE046D8AF045F680DBBEAAE812D2B3F5B CALLER DUP6 DUP6 DUP6 PUSH1 0x40 MLOAD PUSH2 0x2581 SWAP5 SWAP4 SWAP3 SWAP2 SWAP1 PUSH2 0x596E JUMP JUMPDEST PUSH1 0x40 MLOAD DUP1 SWAP2 SUB SWAP1 LOG1 POP PUSH1 0x1 JUMPDEST SWAP4 SWAP3 POP POP POP JUMP JUMPDEST PUSH2 0x259C PUSH2 0x2DE7 JUMP JUMPDEST PUSH1 0x1 PUSH1 0x1 PUSH1 0xA0 SHL SUB AND PUSH2 0x25AD PUSH2 0x3FF9 JUMP JUMPDEST PUSH1 0x1 PUSH1 0x1 PUSH1 0xA0 SHL SUB AND EQ DUP1 PUSH2 0x25DC JUMPI POP PUSH1 0x10 SLOAD PUSH1 0x1 PUSH1 0x1 PUSH1 0xA0 SHL SUB AND PUSH2 0x25D1 PUSH2 0x3FF9 JUMP JUMPDEST PUSH1 0x1 PUSH1 0x1 PUSH1 0xA0 SHL SUB AND EQ JUMPDEST PUSH2 0x25E5 JUMPI PUSH1 0x0 DUP1 REVERT JUMPDEST PUSH1 0x12 PUSH2 0x25F1 DUP3 DUP3 PUSH2 0x59E2 JUMP JUMPDEST POP POP JUMP JUMPDEST PUSH1 0x0 DUP2 DUP2 MSTORE PUSH1 0x2 PUSH1 0x20 MSTORE PUSH1 0x40 DUP2 KECCAK256 SLOAD PUSH1 0x1 PUSH1 0x1 PUSH1 0xA0 SHL SUB AND DUP1 PUSH2 0x1149 JUMPI PUSH1 0x40 MLOAD PUSH3 0x461BCD PUSH1 0xE5 SHL DUP2 MSTORE PUSH1 0x20 PUSH1 0x4 DUP3 ADD MSTORE PUSH1 0x29 PUSH1 0x24 DUP3 ADD MSTORE PUSH32 0x4552433732313A206F776E657220717565727920666F72206E6F6E6578697374 PUSH1 0x44 DUP3 ADD MSTORE PUSH9 0x32B73A103A37B5B2B7 PUSH1 0xB9 SHL PUSH1 0x64 DUP3 ADD MSTORE PUSH1 0x84 ADD PUSH2 0x12C2 JUMP JUMPDEST CALLER PUSH1 0x0 SWAP1 DUP2 MSTORE PUSH1 0x1E PUSH1 0x20 MSTORE PUSH1 0x40 SWAP1 KECCAK256 SLOAD PUSH1 0xFF AND DUP1 PUSH2 0x2694 JUMPI POP PUSH1 0x10 SLOAD PUSH1 0x1 PUSH1 0x1 PUSH1 0xA0 SHL SUB AND CALLER EQ JUMPDEST DUP1 PUSH2 0x2731 JUMPI POP PUSH1 0x2A SLOAD PUSH1 0x0 DUP4 DUP2 MSTORE PUSH1 0x20 DUP1 MSTORE PUSH1 0x40 SWAP1 DUP2 SWAP1 KECCAK256 SLOAD SWAP1 MLOAD PUSH4 0x31A9108F PUSH1 0xE1 SHL DUP2 MSTORE PUSH1 0x1 PUSH1 0x1 PUSH1 0xA0 SHL SUB SWAP1 SWAP3 AND SWAP2 PUSH4 0x6352211E SWAP2 PUSH2 0x26DB SWAP2 PUSH1 0x4 ADD SWAP1 DUP2 MSTORE PUSH1 0x20 ADD SWAP1 JUMP JUMPDEST PUSH1 0x20 PUSH1 0x40 MLOAD DUP1 DUP4 SUB DUP2 DUP7 GAS STATICCALL ISZERO DUP1 ISZERO PUSH2 0x26F8 JUMPI RETURNDATASIZE PUSH1 0x0 DUP1 RETURNDATACOPY RETURNDATASIZE PUSH1 0x0 REVERT JUMPDEST POP POP POP POP PUSH1 0x40 MLOAD RETURNDATASIZE PUSH1 0x1F NOT PUSH1 0x1F DUP3 ADD AND DUP3 ADD DUP1 PUSH1 0x40 MSTORE POP DUP2 ADD SWAP1 PUSH2 0x271C SWAP2 SWAP1 PUSH2 0x58BC JUMP JUMPDEST PUSH1 0x1 PUSH1 0x1 PUSH1 0xA0 SHL SUB AND CALLER PUSH1 0x1 PUSH1 0x1 PUSH1 0xA0 SHL SUB AND EQ JUMPDEST PUSH2 0x273A JUMPI PUSH1 0x0 DUP1 REVERT JUMPDEST PUSH1 0x0 DUP3 DUP2 MSTORE PUSH1 0x26 PUSH1 0x20 MSTORE PUSH1 0x40 SWAP1 KECCAK256 SLOAD PUSH2 0x275B DUP3 PUSH8 0xDE0B6B3A7640000 PUSH2 0x5AA1 JUMP JUMPDEST PUSH2 0x2765 SWAP2 SWAP1 PUSH2 0x58A8 JUMP JUMPDEST PUSH1 0x0 DUP4 DUP2 MSTORE PUSH1 0x22 PUSH1 0x20 MSTORE PUSH1 0x40 DUP2 KECCAK256 DUP1 SLOAD SWAP1 SWAP2 SWAP1 PUSH2 0x2783 SWAP1 DUP5 SWAP1 PUSH2 0x57C2 JUMP JUMPDEST SWAP1 SWAP2 SSTORE POP POP PUSH1 0x0 DUP3 DUP2 MSTORE PUSH1 0x22 PUSH1 0x20 MSTORE PUSH1 0x40 SWAP1 KECCAK256 SLOAD PUSH8 0xDE0B6B3A7640000 LT ISZERO PUSH2 0x27C0 JUMPI PUSH1 0x0 DUP3 DUP2 MSTORE PUSH1 0x22 PUSH1 0x20 MSTORE PUSH1 0x40 SWAP1 KECCAK256 PUSH8 0xDE0B6B3A7640000 SWAP1 SSTORE JUMPDEST PUSH1 0x0 DUP3 DUP2 MSTORE PUSH1 0x22 PUSH1 0x20 SWAP1 DUP2 MSTORE PUSH1 0x40 SWAP2 DUP3 SWAP1 KECCAK256 SLOAD DUP3 MLOAD DUP6 DUP2 MSTORE SWAP2 DUP3 ADD MSTORE PUSH32 0xBEF3CBDCEF64CA80E5C5FC8476233B3FABC3F02ACEBB27544FA79630E27E825F SWAP2 ADD PUSH1 0x40 MLOAD DUP1 SWAP2 SUB SWAP1 LOG1 POP POP JUMP JUMPDEST PUSH1 0x0 DUP3 DUP2 MSTORE PUSH1 0x1F PUSH1 0x20 MSTORE PUSH1 0x40 DUP2 KECCAK256 SLOAD PUSH2 0x282F SWAP1 PUSH2 0x282A SWAP1 PUSH1 0xE SWAP1 PUSH2 0x5AC0 JUMP JUMPDEST PUSH2 0x46AB JUMP JUMPDEST DUP3 SLT ISZERO DUP1 ISZERO PUSH2 0x258D JUMPI POP PUSH1 0x0 DUP4 DUP2 MSTORE PUSH1 0x1F PUSH1 0x20 MSTORE PUSH1 0x40 SWAP1 KECCAK256 SLOAD PUSH2 0x2857 SWAP1 PUSH2 0x282A SWAP1 PUSH1 0xF PUSH2 0x5AFF JUMP JUMPDEST DUP3 SGT ISZERO SWAP4 SWAP3 POP POP POP JUMP JUMPDEST PUSH2 0x2869 PUSH2 0x2DE7 JUMP JUMPDEST PUSH1 0x1 PUSH1 0x1 PUSH1 0xA0 SHL SUB AND PUSH2 0x287A PUSH2 0x3FF9 JUMP JUMPDEST PUSH1 0x1 PUSH1 0x1 PUSH1 0xA0 SHL SUB AND EQ DUP1 PUSH2 0x28A4 JUMPI POP PUSH2 0x2892 PUSH2 0x3FF9 JUMP JUMPDEST PUSH1 0x10 SLOAD PUSH1 0x1 PUSH1 0x1 PUSH1 0xA0 SHL SUB SWAP1 DUP2 AND SWAP2 AND EQ JUMPDEST PUSH2 0x28AD JUMPI PUSH1 0x0 DUP1 REVERT JUMPDEST PUSH1 0x14 SSTORE JUMP JUMPDEST PUSH1 0x1 PUSH1 0x1 PUSH1 0xA0 SHL SUB DUP3 AND PUSH2 0x28D8 JUMPI PUSH1 0x40 MLOAD PUSH3 0x461BCD PUSH1 0xE5 SHL DUP2 MSTORE PUSH1 0x4 ADD PUSH2 0x12C2 SWAP1 PUSH2 0x57FB JUMP JUMPDEST PUSH2 0x28E0 PUSH2 0x3FF9 JUMP JUMPDEST PUSH1 0x10 SLOAD PUSH1 0x1 PUSH1 0x1 PUSH1 0xA0 SHL SUB SWAP1 DUP2 AND SWAP2 AND EQ DUP1 PUSH2 0x290B JUMPI POP CALLER PUSH1 0x0 SWAP1 DUP2 MSTORE PUSH1 0x1E PUSH1 0x20 MSTORE PUSH1 0x40 SWAP1 KECCAK256 SLOAD PUSH1 0xFF AND JUMPDEST PUSH2 0x2914 JUMPI PUSH1 0x0 DUP1 REVERT JUMPDEST PUSH1 0x1 PUSH1 0x1 PUSH1 0xA0 SHL SUB SWAP2 SWAP1 SWAP2 AND PUSH1 0x0 SWAP1 DUP2 MSTORE PUSH1 0x1E PUSH1 0x20 MSTORE PUSH1 0x40 SWAP1 KECCAK256 DUP1 SLOAD PUSH1 0xFF NOT AND SWAP2 ISZERO ISZERO SWAP2 SWAP1 SWAP2 OR SWAP1 SSTORE JUMP JUMPDEST PUSH1 0x0 PUSH1 0x1 PUSH1 0x1 PUSH1 0xA0 SHL SUB DUP3 AND PUSH2 0x29AA JUMPI PUSH1 0x40 MLOAD PUSH3 0x461BCD PUSH1 0xE5 SHL DUP2 MSTORE PUSH1 0x20 PUSH1 0x4 DUP3 ADD MSTORE PUSH1 0x2A PUSH1 0x24 DUP3 ADD MSTORE PUSH32 0x4552433732313A2062616C616E636520717565727920666F7220746865207A65 PUSH1 0x44 DUP3 ADD MSTORE PUSH10 0x726F2061646472657373 PUSH1 0xB0 SHL PUSH1 0x64 DUP3 ADD MSTORE PUSH1 0x84 ADD PUSH2 0x12C2 JUMP JUMPDEST POP PUSH1 0x1 PUSH1 0x1 PUSH1 0xA0 SHL SUB AND PUSH1 0x0 SWAP1 DUP2 MSTORE PUSH1 0x3 PUSH1 0x20 MSTORE PUSH1 0x40 SWAP1 KECCAK256 SLOAD SWAP1 JUMP JUMPDEST PUSH2 0x29CE PUSH2 0x40C2 JUMP JUMPDEST PUSH1 0x1 PUSH1 0x1 PUSH1 0xA0 SHL SUB AND PUSH2 0x29DF PUSH2 0x2DE7 JUMP JUMPDEST PUSH1 0x1 PUSH1 0x1 PUSH1 0xA0 SHL SUB AND EQ PUSH2 0x2A05 JUMPI PUSH1 0x40 MLOAD PUSH3 0x461BCD PUSH1 0xE5 SHL DUP2 MSTORE PUSH1 0x4 ADD PUSH2 0x12C2 SWAP1 PUSH2 0x5B40 JUMP JUMPDEST PUSH1 0xD SLOAD PUSH1 0x40 MLOAD PUSH1 0x0 SWAP2 PUSH1 0x1 PUSH1 0x1 PUSH1 0xA0 SHL SUB AND SWAP1 PUSH32 0x8BE0079C531659141344CD1FD0A4F28419497F9722A3DAAFE3B4186F6B6457E0 SWAP1 DUP4 SWAP1 LOG3 PUSH1 0xD DUP1 SLOAD PUSH1 0x1 PUSH1 0x1 PUSH1 0xA0 SHL SUB NOT AND SWAP1 SSTORE JUMP JUMPDEST PUSH1 0x0 PUSH2 0x2A59 PUSH2 0x2DE7 JUMP JUMPDEST PUSH1 0x1 PUSH1 0x1 PUSH1 0xA0 SHL SUB AND PUSH2 0x2A6A PUSH2 0x3FF9 JUMP JUMPDEST PUSH1 0x1 PUSH1 0x1 PUSH1 0xA0 SHL SUB AND EQ DUP1 PUSH2 0x2A99 JUMPI POP PUSH1 0x10 SLOAD PUSH1 0x1 PUSH1 0x1 PUSH1 0xA0 SHL SUB AND PUSH2 0x2A8E PUSH2 0x3FF9 JUMP JUMPDEST PUSH1 0x1 PUSH1 0x1 PUSH1 0xA0 SHL SUB AND EQ JUMPDEST PUSH2 0x2AF9 JUMPI PUSH1 0x40 MLOAD PUSH3 0x461BCD PUSH1 0xE5 SHL DUP2 MSTORE PUSH1 0x20 PUSH1 0x4 DUP3 ADD MSTORE PUSH1 0x2B PUSH1 0x24 DUP3 ADD MSTORE PUSH32 0x4F6E6C79206F776E657220616E64206D61726B6574706C6163652063616E206D PUSH1 0x44 DUP3 ADD MSTORE PUSH11 0x34B73A103A37B5B2B73997 PUSH1 0xA9 SHL PUSH1 0x64 DUP3 ADD MSTORE PUSH1 0x84 ADD PUSH2 0x12C2 JUMP JUMPDEST PUSH1 0xF SLOAD PUSH2 0x2B04 PUSH2 0x2FF7 JUMP JUMPDEST LT PUSH2 0x2B4A JUMPI PUSH1 0x40 MLOAD PUSH3 0x461BCD PUSH1 0xE5 SHL DUP2 MSTORE PUSH1 0x20 PUSH1 0x4 DUP3 ADD MSTORE PUSH1 0x16 PUSH1 0x24 DUP3 ADD MSTORE PUSH22 0x20B63932B0B23C9030BA1036B0BC103A37B5B2B73997 PUSH1 0x51 SHL PUSH1 0x44 DUP3 ADD MSTORE PUSH1 0x64 ADD PUSH2 0x12C2 JUMP JUMPDEST PUSH1 0x0 PUSH2 0x2B54 PUSH2 0x2FF7 JUMP JUMPDEST SWAP1 POP PUSH2 0x2B60 DUP4 DUP3 PUSH2 0x44E9 JUMP JUMPDEST PUSH2 0x1149 PUSH2 0x33ED JUMP JUMPDEST PUSH2 0x2B70 PUSH2 0x4E5D JUMP JUMPDEST PUSH1 0x2E SLOAD PUSH1 0x40 MLOAD PUSH4 0x3685169 PUSH1 0xE0 SHL DUP2 MSTORE PUSH1 0x1 PUSH1 0x1 PUSH1 0xA0 SHL SUB SWAP1 SWAP2 AND SWAP1 PUSH4 0x3685169 SWAP1 PUSH2 0x2BA2 SWAP1 ADDRESS SWAP1 DUP7 SWAP1 PUSH1 0x4 ADD PUSH2 0x5531 JUMP JUMPDEST PUSH1 0xC0 PUSH1 0x40 MLOAD DUP1 DUP4 SUB DUP2 PUSH1 0x0 DUP8 GAS CALL ISZERO DUP1 ISZERO PUSH2 0x2BC1 JUMPI RETURNDATASIZE PUSH1 0x0 DUP1 RETURNDATACOPY RETURNDATASIZE PUSH1 0x0 REVERT JUMPDEST POP POP POP POP PUSH1 0x40 MLOAD RETURNDATASIZE PUSH1 0x1F NOT PUSH1 0x1F DUP3 ADD AND DUP3 ADD DUP1 PUSH1 0x40 MSTORE POP DUP2 ADD SWAP1 PUSH2 0x1149 SWAP2 SWAP1 PUSH2 0x5B75 JUMP JUMPDEST PUSH1 0x10 SLOAD PUSH1 0x1 PUSH1 0x1 PUSH1 0xA0 SHL SUB AND CALLER EQ DUP1 PUSH2 0x2C0D JUMPI POP CALLER PUSH1 0x0 SWAP1 DUP2 MSTORE PUSH1 0x1E PUSH1 0x20 MSTORE PUSH1 0x40 SWAP1 KECCAK256 SLOAD PUSH1 0xFF AND JUMPDEST PUSH2 0x2C16 JUMPI PUSH1 0x0 DUP1 REVERT JUMPDEST PUSH1 0x0 DUP4 DUP2 MSTORE PUSH1 0x25 PUSH1 0x20 SWAP1 DUP2 MSTORE PUSH1 0x40 DUP1 DUP4 KECCAK256 DUP6 DUP5 MSTORE SWAP1 SWAP2 MSTORE DUP2 KECCAK256 DUP1 SLOAD DUP4 SWAP3 SWAP1 PUSH2 0x2C3F SWAP1 DUP5 SWAP1 PUSH2 0x57C2 JUMP JUMPDEST SWAP1 SWAP2 SSTORE POP POP PUSH1 0x40 MLOAD PUSH32 0xC8AC98FCADE83E4E23276F23B6E7ECCAA7446C3815452BD5E9F831D3F8274A35 SWAP1 PUSH2 0x2C7A SWAP1 CALLER SWAP1 DUP7 SWAP1 DUP7 SWAP1 DUP7 SWAP1 PUSH2 0x596E JUMP JUMPDEST PUSH1 0x40 MLOAD DUP1 SWAP2 SUB SWAP1 LOG1 POP POP POP JUMP JUMPDEST PUSH2 0x2C8F PUSH2 0x40C2 JUMP JUMPDEST PUSH1 0x1 PUSH1 0x1 PUSH1 0xA0 SHL SUB AND PUSH2 0x2CA0 PUSH2 0x2DE7 JUMP JUMPDEST PUSH1 0x1 PUSH1 0x1 PUSH1 0xA0 SHL SUB AND EQ PUSH2 0x2CC6 JUMPI PUSH1 0x40 MLOAD PUSH3 0x461BCD PUSH1 0xE5 SHL DUP2 MSTORE PUSH1 0x4 ADD PUSH2 0x12C2 SWAP1 PUSH2 0x5B40 JUMP JUMPDEST PUSH1 0x13 DUP1 SLOAD PUSH1 0xFF NOT AND SWAP2 ISZERO ISZERO SWAP2 SWAP1 SWAP2 OR SWAP1 SSTORE JUMP JUMPDEST PUSH1 0x0 DUP2 DUP2 MSTORE PUSH1 0x21 PUSH1 0x20 MSTORE PUSH1 0x40 DUP2 KECCAK256 SLOAD DUP2 SWAP1 ISZERO PUSH2 0x2D99 JUMPI PUSH1 0x2E SLOAD PUSH1 0x0 DUP5 DUP2 MSTORE PUSH1 0x21 PUSH1 0x20 MSTORE PUSH1 0x40 DUP1 DUP3 KECCAK256 SLOAD SWAP1 MLOAD PUSH4 0xC60E328D PUSH1 0xE0 SHL DUP2 MSTORE PUSH1 0x1 PUSH1 0x1 PUSH1 0xA0 SHL SUB SWAP1 SWAP4 AND SWAP3 PUSH4 0xC60E328D SWAP3 PUSH2 0x2D33 SWAP3 ADDRESS SWAP3 DUP10 SWAP3 SWAP1 DUP2 SWAP1 PUSH1 0x4 ADD PUSH2 0x5C0B JUMP JUMPDEST PUSH1 0x20 PUSH1 0x40 MLOAD DUP1 DUP4 SUB DUP2 PUSH1 0x0 DUP8 GAS CALL ISZERO DUP1 ISZERO PUSH2 0x2D52 JUMPI RETURNDATASIZE PUSH1 0x0 DUP1 RETURNDATACOPY RETURNDATASIZE PUSH1 0x0 REVERT JUMPDEST POP POP POP POP PUSH1 0x40 MLOAD RETURNDATASIZE PUSH1 0x1F NOT PUSH1 0x1F DUP3 ADD AND DUP3 ADD DUP1 PUSH1 0x40 MSTORE POP DUP2 ADD SWAP1 PUSH2 0x2D76 SWAP2 SWAP1 PUSH2 0x577C JUMP JUMPDEST PUSH1 0x0 DUP5 DUP2 MSTORE PUSH1 0x21 PUSH1 0x20 MSTORE PUSH1 0x40 SWAP1 KECCAK256 DUP2 SWAP1 SSTORE PUSH2 0x2D90 DUP5 PUSH2 0x17B0 JUMP JUMPDEST SWAP2 POP SWAP2 POP SWAP2 POP SWAP2 JUMP JUMPDEST POP PUSH1 0x0 SWAP3 DUP4 SWAP3 POP SWAP1 POP JUMP JUMPDEST CALLER PUSH1 0x0 SWAP1 DUP2 MSTORE PUSH1 0x1E PUSH1 0x20 MSTORE PUSH1 0x40 SWAP1 KECCAK256 SLOAD PUSH1 0xFF AND DUP1 PUSH2 0x2DCC JUMPI POP PUSH1 0x10 SLOAD PUSH1 0x1 PUSH1 0x1 PUSH1 0xA0 SHL SUB AND CALLER EQ JUMPDEST PUSH2 0x2DD5 JUMPI PUSH1 0x0 DUP1 REVERT JUMPDEST PUSH1 0x0 SWAP2 DUP3 MSTORE PUSH1 0x26 PUSH1 0x20 MSTORE PUSH1 0x40 SWAP1 SWAP2 KECCAK256 SSTORE JUMP JUMPDEST PUSH1 0xD SLOAD PUSH1 0x1 PUSH1 0x1 PUSH1 0xA0 SHL SUB AND SWAP1 JUMP JUMPDEST CALLER PUSH1 0x0 SWAP1 DUP2 MSTORE PUSH1 0x1E PUSH1 0x20 MSTORE PUSH1 0x40 SWAP1 KECCAK256 SLOAD PUSH1 0xFF AND DUP1 PUSH2 0x2E1E JUMPI POP PUSH1 0x10 SLOAD PUSH1 0x1 PUSH1 0x1 PUSH1 0xA0 SHL SUB AND CALLER EQ JUMPDEST DUP1 PUSH2 0x2EBB JUMPI POP PUSH1 0x2A SLOAD PUSH1 0x0 DUP6 DUP2 MSTORE PUSH1 0x20 DUP1 MSTORE PUSH1 0x40 SWAP1 DUP2 SWAP1 KECCAK256 SLOAD SWAP1 MLOAD PUSH4 0x31A9108F PUSH1 0xE1 SHL DUP2 MSTORE PUSH1 0x1 PUSH1 0x1 PUSH1 0xA0 SHL SUB SWAP1 SWAP3 AND SWAP2 PUSH4 0x6352211E SWAP2 PUSH2 0x2E65 SWAP2 PUSH1 0x4 ADD SWAP1 DUP2 MSTORE PUSH1 0x20 ADD SWAP1 JUMP JUMPDEST PUSH1 0x20 PUSH1 0x40 MLOAD DUP1 DUP4 SUB DUP2 DUP7 GAS STATICCALL ISZERO DUP1 ISZERO PUSH2 0x2E82 JUMPI RETURNDATASIZE PUSH1 0x0 DUP1 RETURNDATACOPY RETURNDATASIZE PUSH1 0x0 REVERT JUMPDEST POP POP POP POP PUSH1 0x40 MLOAD RETURNDATASIZE PUSH1 0x1F NOT PUSH1 0x1F DUP3 ADD AND DUP3 ADD DUP1 PUSH1 0x40 MSTORE POP DUP2 ADD SWAP1 PUSH2 0x2EA6 SWAP2 SWAP1 PUSH2 0x58BC JUMP JUMPDEST PUSH1 0x1 PUSH1 0x1 PUSH1 0xA0 SHL SUB AND CALLER PUSH1 0x1 PUSH1 0x1 PUSH1 0xA0 SHL SUB AND EQ JUMPDEST PUSH2 0x2EC4 JUMPI PUSH1 0x0 DUP1 REVERT JUMPDEST PUSH1 0x0 DUP5 DUP2 MSTORE PUSH1 0x21 PUSH1 0x20 MSTORE PUSH1 0x40 DUP2 KECCAK256 DUP1 SLOAD SWAP2 DUP6 SWAP2 SWAP1 PUSH2 0x2EE2 DUP4 DUP6 PUSH2 0x57C2 JUMP JUMPDEST SWAP1 SWAP2 SSTORE POP POP DUP2 ISZERO PUSH2 0x2F6B JUMPI PUSH1 0x2E SLOAD PUSH1 0x0 DUP7 DUP2 MSTORE PUSH1 0x21 PUSH1 0x20 MSTORE PUSH1 0x40 SWAP1 DUP2 SWAP1 KECCAK256 SLOAD SWAP1 MLOAD PUSH4 0x2966BEF PUSH1 0xE4 SHL DUP2 MSTORE PUSH1 0x1 PUSH1 0x1 PUSH1 0xA0 SHL SUB SWAP1 SWAP3 AND SWAP2 PUSH4 0x2966BEF0 SWAP2 PUSH2 0x2F38 SWAP2 ADDRESS SWAP2 DUP12 SWAP2 DUP12 SWAP2 DUP9 SWAP2 PUSH1 0x10 SWAP1 DUP12 SWAP1 PUSH1 0x4 ADD PUSH2 0x5C39 JUMP JUMPDEST PUSH1 0x0 PUSH1 0x40 MLOAD DUP1 DUP4 SUB DUP2 PUSH1 0x0 DUP8 DUP1 EXTCODESIZE ISZERO DUP1 ISZERO PUSH2 0x2F52 JUMPI PUSH1 0x0 DUP1 REVERT JUMPDEST POP GAS CALL ISZERO DUP1 ISZERO PUSH2 0x2F66 JUMPI RETURNDATASIZE PUSH1 0x0 DUP1 RETURNDATACOPY RETURNDATASIZE PUSH1 0x0 REVERT JUMPDEST POP POP POP POP JUMPDEST PUSH1 0x0 DUP6 DUP2 MSTORE PUSH1 0x21 PUSH1 0x20 MSTORE PUSH1 0x40 SWAP1 KECCAK256 SLOAD PUSH8 0xDE0B6B3A7640000 LT ISZERO PUSH2 0x2FA3 JUMPI PUSH1 0x0 DUP6 DUP2 MSTORE PUSH1 0x21 PUSH1 0x20 MSTORE PUSH1 0x40 SWAP1 KECCAK256 PUSH8 0xDE0B6B3A7640000 SWAP1 SSTORE JUMPDEST PUSH1 0x0 DUP6 DUP2 MSTORE PUSH1 0x21 PUSH1 0x20 MSTORE PUSH1 0x40 SWAP1 DUP2 SWAP1 KECCAK256 SLOAD SWAP1 MLOAD PUSH1 0x0 DUP1 MLOAD PUSH1 0x20 PUSH2 0x5F14 DUP4 CODECOPY DUP2 MLOAD SWAP2 MSTORE SWAP2 PUSH2 0x2FD8 SWAP2 DUP10 SWAP2 DUP10 SWAP2 DUP10 SWAP2 SWAP1 DUP9 SWAP1 PUSH2 0x58FD JUMP JUMPDEST PUSH1 0x40 MLOAD DUP1 SWAP2 SUB SWAP1 LOG1 POP POP POP POP POP POP JUMP JUMPDEST PUSH1 0x60 PUSH1 0x1 DUP1 SLOAD PUSH2 0x11D7 SWAP1 PUSH2 0x5683 JUMP JUMPDEST PUSH1 0xE SLOAD PUSH1 0x0 SWAP1 PUSH2 0x3008 SWAP1 PUSH1 0x1 PUSH2 0x422A JUMP JUMPDEST SWAP1 POP SWAP1 JUMP JUMPDEST CALLER PUSH1 0x0 SWAP1 DUP2 MSTORE PUSH1 0x1E PUSH1 0x20 MSTORE PUSH1 0x40 SWAP1 KECCAK256 SLOAD PUSH1 0xFF AND DUP1 PUSH2 0x3035 JUMPI POP PUSH1 0x10 SLOAD PUSH1 0x1 PUSH1 0x1 PUSH1 0xA0 SHL SUB AND CALLER EQ JUMPDEST DUP1 PUSH2 0x30D2 JUMPI POP PUSH1 0x2A SLOAD PUSH1 0x0 DUP6 DUP2 MSTORE PUSH1 0x20 DUP1 MSTORE PUSH1 0x40 SWAP1 DUP2 SWAP1 KECCAK256 SLOAD SWAP1 MLOAD PUSH4 0x31A9108F PUSH1 0xE1 SHL DUP2 MSTORE PUSH1 0x1 PUSH1 0x1 PUSH1 0xA0 SHL SUB SWAP1 SWAP3 AND SWAP2 PUSH4 0x6352211E SWAP2 PUSH2 0x307C SWAP2 PUSH1 0x4 ADD SWAP1 DUP2 MSTORE PUSH1 0x20 ADD SWAP1 JUMP JUMPDEST PUSH1 0x20 PUSH1 0x40 MLOAD DUP1 DUP4 SUB DUP2 DUP7 GAS STATICCALL ISZERO DUP1 ISZERO PUSH2 0x3099 JUMPI RETURNDATASIZE PUSH1 0x0 DUP1 RETURNDATACOPY RETURNDATASIZE PUSH1 0x0 REVERT JUMPDEST POP POP POP POP PUSH1 0x40 MLOAD RETURNDATASIZE PUSH1 0x1F NOT PUSH1 0x1F DUP3 ADD AND DUP3 ADD DUP1 PUSH1 0x40 MSTORE POP DUP2 ADD SWAP1 PUSH2 0x30BD SWAP2 SWAP1 PUSH2 0x58BC JUMP JUMPDEST PUSH1 0x1 PUSH1 0x1 PUSH1 0xA0 SHL SUB AND CALLER PUSH1 0x1 PUSH1 0x1 PUSH1 0xA0 SHL SUB AND EQ JUMPDEST PUSH2 0x30DB JUMPI PUSH1 0x0 DUP1 REVERT JUMPDEST PUSH1 0x0 DUP5 DUP2 MSTORE PUSH1 0x21 PUSH1 0x20 MSTORE PUSH1 0x40 SWAP1 KECCAK256 SLOAD PUSH1 0x2E SLOAD PUSH1 0x1 PUSH1 0x1 PUSH1 0xA0 SHL SUB AND PUSH4 0xC60E328D ADDRESS DUP8 DUP5 PUSH2 0x3107 DUP10 PUSH2 0x5C74 JUMP JUMPDEST DUP9 PUSH1 0x40 MLOAD DUP7 PUSH4 0xFFFFFFFF AND PUSH1 0xE0 SHL DUP2 MSTORE PUSH1 0x4 ADD PUSH2 0x3128 SWAP6 SWAP5 SWAP4 SWAP3 SWAP2 SWAP1 PUSH2 0x5C0B JUMP JUMPDEST PUSH1 0x20 PUSH1 0x40 MLOAD DUP1 DUP4 SUB DUP2 PUSH1 0x0 DUP8 GAS CALL ISZERO DUP1 ISZERO PUSH2 0x3147 JUMPI RETURNDATASIZE PUSH1 0x0 DUP1 RETURNDATACOPY RETURNDATASIZE PUSH1 0x0 REVERT JUMPDEST POP POP POP POP PUSH1 0x40 MLOAD RETURNDATASIZE PUSH1 0x1F NOT PUSH1 0x1F DUP3 ADD AND DUP3 ADD DUP1 PUSH1 0x40 MSTORE POP DUP2 ADD SWAP1 PUSH2 0x316B SWAP2 SWAP1 PUSH2 0x577C JUMP JUMPDEST PUSH1 0x0 DUP7 DUP2 MSTORE PUSH1 0x21 PUSH1 0x20 MSTORE PUSH1 0x40 SWAP1 KECCAK256 SSTORE DUP2 ISZERO PUSH2 0x31FD JUMPI PUSH1 0x2E SLOAD PUSH1 0x0 DUP7 DUP2 MSTORE PUSH1 0x21 PUSH1 0x20 MSTORE PUSH1 0x40 SWAP1 DUP2 SWAP1 KECCAK256 SLOAD SWAP1 MLOAD PUSH4 0x2966BEF PUSH1 0xE4 SHL DUP2 MSTORE PUSH1 0x1 PUSH1 0x1 PUSH1 0xA0 SHL SUB SWAP1 SWAP3 AND SWAP2 PUSH4 0x2966BEF0 SWAP2 PUSH2 0x31CA SWAP2 ADDRESS SWAP2 DUP12 SWAP2 DUP12 SWAP2 DUP9 SWAP2 DUP12 SWAP1 DUP12 SWAP1 PUSH1 0x4 ADD PUSH2 0x5C39 JUMP JUMPDEST PUSH1 0x0 PUSH1 0x40 MLOAD DUP1 DUP4 SUB DUP2 PUSH1 0x0 DUP8 DUP1 EXTCODESIZE ISZERO DUP1 ISZERO PUSH2 0x31E4 JUMPI PUSH1 0x0 DUP1 REVERT JUMPDEST POP GAS CALL ISZERO DUP1 ISZERO PUSH2 0x31F8 JUMPI RETURNDATASIZE PUSH1 0x0 DUP1 RETURNDATACOPY RETURNDATASIZE PUSH1 0x0 REVERT JUMPDEST POP POP POP POP JUMPDEST PUSH1 0x0 DUP1 MLOAD PUSH1 0x20 PUSH2 0x5F14 DUP4 CODECOPY DUP2 MLOAD SWAP2 MSTORE DUP7 DUP7 PUSH2 0x3217 DUP8 PUSH2 0x5C74 JUMP JUMPDEST PUSH1 0x0 DUP10 DUP2 MSTORE PUSH1 0x21 PUSH1 0x20 MSTORE PUSH1 0x40 SWAP1 DUP2 SWAP1 KECCAK256 SLOAD SWAP1 MLOAD PUSH2 0x2FD8 SWAP5 SWAP4 SWAP3 SWAP2 SWAP1 DUP9 SWAP1 PUSH2 0x58FD JUMP JUMPDEST PUSH2 0x3241 PUSH2 0x40C2 JUMP JUMPDEST PUSH1 0x1 PUSH1 0x1 PUSH1 0xA0 SHL SUB AND DUP3 PUSH1 0x1 PUSH1 0x1 PUSH1 0xA0 SHL SUB AND SUB PUSH2 0x329D JUMPI PUSH1 0x40 MLOAD PUSH3 0x461BCD PUSH1 0xE5 SHL DUP2 MSTORE PUSH1 0x20 PUSH1 0x4 DUP3 ADD MSTORE PUSH1 0x19 PUSH1 0x24 DUP3 ADD MSTORE PUSH25 0x22A9219B99189D1030B8383937BB32903A379031B0B63632B9 PUSH1 0x39 SHL PUSH1 0x44 DUP3 ADD MSTORE PUSH1 0x64 ADD PUSH2 0x12C2 JUMP JUMPDEST DUP1 PUSH1 0x5 PUSH1 0x0 PUSH2 0x32AA PUSH2 0x40C2 JUMP JUMPDEST PUSH1 0x1 PUSH1 0x1 PUSH1 0xA0 SHL SUB SWAP1 DUP2 AND DUP3 MSTORE PUSH1 0x20 DUP1 DUP4 ADD SWAP4 SWAP1 SWAP4 MSTORE PUSH1 0x40 SWAP2 DUP3 ADD PUSH1 0x0 SWAP1 DUP2 KECCAK256 SWAP2 DUP8 AND DUP1 DUP3 MSTORE SWAP2 SWAP1 SWAP4 MSTORE SWAP2 KECCAK256 DUP1 SLOAD PUSH1 0xFF NOT AND SWAP3 ISZERO ISZERO SWAP3 SWAP1 SWAP3 OR SWAP1 SWAP2 SSTORE PUSH2 0x32EE PUSH2 0x40C2 JUMP JUMPDEST PUSH1 0x1 PUSH1 0x1 PUSH1 0xA0 SHL SUB AND PUSH32 0x17307EAB39AB6107E8899845AD3D59BD9653F200F220920489CA2B5937696C31 DUP4 PUSH1 0x40 MLOAD PUSH2 0x332A SWAP2 ISZERO ISZERO DUP2 MSTORE PUSH1 0x20 ADD SWAP1 JUMP JUMPDEST PUSH1 0x40 MLOAD DUP1 SWAP2 SUB SWAP1 LOG3 POP POP JUMP JUMPDEST CALLER PUSH1 0x0 SWAP1 DUP2 MSTORE PUSH1 0x1E PUSH1 0x20 MSTORE PUSH1 0x40 DUP2 KECCAK256 SLOAD PUSH1 0xFF AND PUSH2 0x3365 JUMPI PUSH1 0x40 MLOAD PUSH3 0x461BCD PUSH1 0xE5 SHL DUP2 MSTORE PUSH1 0x4 ADD PUSH2 0x12C2 SWAP1 PUSH2 0x5C90 JUMP JUMPDEST PUSH1 0xF SLOAD PUSH2 0x3370 PUSH2 0x2FF7 JUMP JUMPDEST LT PUSH2 0x2B4A JUMPI PUSH1 0x40 MLOAD PUSH3 0x461BCD PUSH1 0xE5 SHL DUP2 MSTORE PUSH1 0x20 PUSH1 0x4 DUP3 ADD MSTORE PUSH1 0xE PUSH1 0x24 DUP3 ADD MSTORE PUSH14 0x20BA1036B0BC103A37B5B2B73997 PUSH1 0x91 SHL PUSH1 0x44 DUP3 ADD MSTORE PUSH1 0x64 ADD PUSH2 0x12C2 JUMP JUMPDEST PUSH2 0x33BF PUSH2 0x33B9 PUSH2 0x40C2 JUMP JUMPDEST DUP4 PUSH2 0x428E JUMP JUMPDEST PUSH2 0x33DB JUMPI PUSH1 0x40 MLOAD PUSH3 0x461BCD PUSH1 0xE5 SHL DUP2 MSTORE PUSH1 0x4 ADD PUSH2 0x12C2 SWAP1 PUSH2 0x5824 JUMP JUMPDEST PUSH2 0x33E7 DUP5 DUP5 DUP5 DUP5 PUSH2 0x46CF JUMP JUMPDEST POP POP POP POP JUMP JUMPDEST PUSH1 0xE DUP1 SLOAD SWAP1 PUSH1 0x0 PUSH2 0x33FD DUP4 PUSH2 0x5CB6 JUMP JUMPDEST SWAP2 SWAP1 POP SSTORE POP JUMP JUMPDEST CALLER PUSH1 0x0 SWAP1 DUP2 MSTORE PUSH1 0x1E PUSH1 0x20 MSTORE PUSH1 0x40 SWAP1 KECCAK256 SLOAD PUSH1 0xFF AND DUP1 PUSH2 0x342C JUMPI POP PUSH1 0x10 SLOAD PUSH1 0x1 PUSH1 0x1 PUSH1 0xA0 SHL SUB AND CALLER EQ JUMPDEST DUP1 PUSH2 0x34C9 JUMPI POP PUSH1 0x2A SLOAD PUSH1 0x0 DUP6 DUP2 MSTORE PUSH1 0x20 DUP1 MSTORE PUSH1 0x40 SWAP1 DUP2 SWAP1 KECCAK256 SLOAD SWAP1 MLOAD PUSH4 0x31A9108F PUSH1 0xE1 SHL DUP2 MSTORE PUSH1 0x1 PUSH1 0x1 PUSH1 0xA0 SHL SUB SWAP1 SWAP3 AND SWAP2 PUSH4 0x6352211E SWAP2 PUSH2 0x3473 SWAP2 PUSH1 0x4 ADD SWAP1 DUP2 MSTORE PUSH1 0x20 ADD SWAP1 JUMP JUMPDEST PUSH1 0x20 PUSH1 0x40 MLOAD DUP1 DUP4 SUB DUP2 DUP7 GAS STATICCALL ISZERO DUP1 ISZERO PUSH2 0x3490 JUMPI RETURNDATASIZE PUSH1 0x0 DUP1 RETURNDATACOPY RETURNDATASIZE PUSH1 0x0 REVERT JUMPDEST POP POP POP POP PUSH1 0x40 MLOAD RETURNDATASIZE PUSH1 0x1F NOT PUSH1 0x1F DUP3 ADD AND DUP3 ADD DUP1 PUSH1 0x40 MSTORE POP DUP2 ADD SWAP1 PUSH2 0x34B4 SWAP2 SWAP1 PUSH2 0x58BC JUMP JUMPDEST PUSH1 0x1 PUSH1 0x1 PUSH1 0xA0 SHL SUB AND CALLER PUSH1 0x1 PUSH1 0x1 PUSH1 0xA0 SHL SUB AND EQ JUMPDEST PUSH2 0x34D2 JUMPI PUSH1 0x0 DUP1 REVERT JUMPDEST PUSH1 0x0 DUP5 DUP2 MSTORE PUSH1 0x21 PUSH1 0x20 MSTORE PUSH1 0x40 SWAP1 DUP2 SWAP1 KECCAK256 SLOAD PUSH1 0x2E SLOAD SWAP2 MLOAD PUSH4 0xC60E328D PUSH1 0xE0 SHL DUP2 MSTORE SWAP1 SWAP2 PUSH1 0x1 PUSH1 0x1 PUSH1 0xA0 SHL SUB AND SWAP1 PUSH4 0xC60E328D SWAP1 PUSH2 0x351A SWAP1 ADDRESS SWAP1 DUP10 SWAP1 DUP7 SWAP1 DUP11 SWAP1 DUP11 SWAP1 PUSH1 0x4 ADD PUSH2 0x5C0B JUMP JUMPDEST PUSH1 0x20 PUSH1 0x40 MLOAD DUP1 DUP4 SUB DUP2 PUSH1 0x0 DUP8 GAS CALL ISZERO DUP1 ISZERO PUSH2 0x3539 JUMPI RETURNDATASIZE PUSH1 0x0 DUP1 RETURNDATACOPY RETURNDATASIZE PUSH1 0x0 REVERT JUMPDEST POP POP POP POP PUSH1 0x40 MLOAD RETURNDATASIZE PUSH1 0x1F NOT PUSH1 0x1F DUP3 ADD AND DUP3 ADD DUP1 PUSH1 0x40 MSTORE POP DUP2 ADD SWAP1 PUSH2 0x355D SWAP2 SWAP1 PUSH2 0x577C JUMP JUMPDEST PUSH1 0x0 DUP7 DUP2 MSTORE PUSH1 0x21 PUSH1 0x20 MSTORE PUSH1 0x40 SWAP1 KECCAK256 SSTORE DUP2 ISZERO PUSH2 0x2FA3 JUMPI PUSH1 0x2E SLOAD PUSH1 0x0 DUP7 DUP2 MSTORE PUSH1 0x21 PUSH1 0x20 MSTORE PUSH1 0x40 SWAP1 DUP2 SWAP1 KECCAK256 SLOAD SWAP1 MLOAD PUSH4 0x2966BEF PUSH1 0xE4 SHL DUP2 MSTORE PUSH1 0x1 PUSH1 0x1 PUSH1 0xA0 SHL SUB SWAP1 SWAP3 AND SWAP2 PUSH4 0x2966BEF0 SWAP2 PUSH2 0x35BC SWAP2 ADDRESS SWAP2 DUP12 SWAP2 DUP12 SWAP2 DUP9 SWAP2 DUP12 SWAP1 DUP12 SWAP1 PUSH1 0x4 ADD PUSH2 0x5C39 JUMP JUMPDEST PUSH1 0x0 PUSH1 0x40 MLOAD DUP1 DUP4 SUB DUP2 PUSH1 0x0 DUP8 DUP1 EXTCODESIZE ISZERO DUP1 ISZERO PUSH2 0x35D6 JUMPI PUSH1 0x0 DUP1 REVERT JUMPDEST POP GAS CALL ISZERO DUP1 ISZERO PUSH2 0x35EA JUMPI RETURNDATASIZE PUSH1 0x0 DUP1 RETURNDATACOPY RETURNDATASIZE PUSH1 0x0 REVERT JUMPDEST POP POP POP PUSH1 0x0 DUP7 DUP2 MSTORE PUSH1 0x21 PUSH1 0x20 MSTORE PUSH1 0x40 SWAP1 DUP2 SWAP1 KECCAK256 SLOAD SWAP1 MLOAD PUSH1 0x0 DUP1 MLOAD PUSH1 0x20 PUSH2 0x5F14 DUP4 CODECOPY DUP2 MLOAD SWAP2 MSTORE SWAP3 POP PUSH2 0x2FD8 SWAP2 DUP10 SWAP2 DUP10 SWAP2 DUP10 SWAP2 DUP9 SWAP1 PUSH2 0x58FD JUMP JUMPDEST CALLER PUSH1 0x0 SWAP1 DUP2 MSTORE PUSH1 0x1E PUSH1 0x20 MSTORE PUSH1 0x40 DUP2 KECCAK256 SLOAD PUSH1 0xFF AND DUP1 PUSH2 0x364A JUMPI POP PUSH1 0x10 SLOAD PUSH1 0x1 PUSH1 0x1 PUSH1 0xA0 SHL SUB AND CALLER EQ JUMPDEST DUP1 PUSH2 0x36E7 JUMPI POP PUSH1 0x2A SLOAD PUSH1 0x0 DUP5 DUP2 MSTORE PUSH1 0x20 DUP1 MSTORE PUSH1 0x40 SWAP1 DUP2 SWAP1 KECCAK256 SLOAD SWAP1 MLOAD PUSH4 0x31A9108F PUSH1 0xE1 SHL DUP2 MSTORE PUSH1 0x1 PUSH1 0x1 PUSH1 0xA0 SHL SUB SWAP1 SWAP3 AND SWAP2 PUSH4 0x6352211E SWAP2 PUSH2 0x3691 SWAP2 PUSH1 0x4 ADD SWAP1 DUP2 MSTORE PUSH1 0x20 ADD SWAP1 JUMP JUMPDEST PUSH1 0x20 PUSH1 0x40 MLOAD DUP1 DUP4 SUB DUP2 DUP7 GAS STATICCALL ISZERO DUP1 ISZERO PUSH2 0x36AE JUMPI RETURNDATASIZE PUSH1 0x0 DUP1 RETURNDATACOPY RETURNDATASIZE PUSH1 0x0 REVERT JUMPDEST POP POP POP POP PUSH1 0x40 MLOAD RETURNDATASIZE PUSH1 0x1F NOT PUSH1 0x1F DUP3 ADD AND DUP3 ADD DUP1 PUSH1 0x40 MSTORE POP DUP2 ADD SWAP1 PUSH2 0x36D2 SWAP2 SWAP1 PUSH2 0x58BC JUMP JUMPDEST PUSH1 0x1 PUSH1 0x1 PUSH1 0xA0 SHL SUB AND CALLER PUSH1 0x1 PUSH1 0x1 PUSH1 0xA0 SHL SUB AND EQ JUMPDEST PUSH2 0x36F0 JUMPI PUSH1 0x0 DUP1 REVERT JUMPDEST PUSH1 0x0 DUP4 DUP2 MSTORE PUSH1 0x22 PUSH1 0x20 MSTORE PUSH1 0x40 SWAP1 KECCAK256 SLOAD DUP3 GT ISZERO PUSH2 0x371A JUMPI PUSH1 0x0 DUP4 DUP2 MSTORE PUSH1 0x22 PUSH1 0x20 MSTORE PUSH1 0x40 DUP2 KECCAK256 SSTORE PUSH2 0x3769 JUMP JUMPDEST PUSH1 0x0 DUP4 DUP2 MSTORE PUSH1 0x26 PUSH1 0x20 MSTORE PUSH1 0x40 SWAP1 KECCAK256 SLOAD PUSH2 0x373B DUP4 PUSH8 0xDE0B6B3A7640000 PUSH2 0x5AA1 JUMP JUMPDEST PUSH2 0x3745 SWAP2 SWAP1 PUSH2 0x58A8 JUMP JUMPDEST PUSH1 0x0 DUP5 DUP2 MSTORE PUSH1 0x22 PUSH1 0x20 MSTORE PUSH1 0x40 DUP2 KECCAK256 DUP1 SLOAD SWAP1 SWAP2 SWAP1 PUSH2 0x3763 SWAP1 DUP5 SWAP1 PUSH2 0x57AB JUMP JUMPDEST SWAP1 SWAP2 SSTORE POP POP JUMPDEST PUSH1 0x0 DUP4 DUP2 MSTORE PUSH1 0x22 PUSH1 0x20 SWAP1 DUP2 MSTORE PUSH1 0x40 SWAP2 DUP3 SWAP1 KECCAK256 SLOAD DUP3 MLOAD DUP7 DUP2 MSTORE SWAP2 DUP3 ADD MSTORE PUSH32 0xBEF3CBDCEF64CA80E5C5FC8476233B3FABC3F02ACEBB27544FA79630E27E825F SWAP2 ADD PUSH1 0x40 MLOAD DUP1 SWAP2 SUB SWAP1 LOG1 SWAP3 SWAP2 POP POP JUMP JUMPDEST PUSH1 0x2 PUSH1 0x11 SLOAD SUB PUSH2 0x37D8 JUMPI PUSH1 0x40 MLOAD PUSH3 0x461BCD PUSH1 0xE5 SHL DUP2 MSTORE PUSH1 0x4 ADD PUSH2 0x12C2 SWAP1 PUSH2 0x5745 JUMP JUMPDEST PUSH1 0x2 PUSH1 0x11 SSTORE PUSH1 0x1E PUSH1 0x0 PUSH2 0x37E9 PUSH2 0x3FF9 JUMP JUMPDEST PUSH1 0x1 PUSH1 0x1 PUSH1 0xA0 SHL SUB AND DUP2 MSTORE PUSH1 0x20 DUP2 ADD SWAP2 SWAP1 SWAP2 MSTORE PUSH1 0x40 ADD PUSH1 0x0 KECCAK256 SLOAD PUSH1 0xFF AND PUSH2 0x3822 JUMPI PUSH1 0x40 MLOAD PUSH3 0x461BCD PUSH1 0xE5 SHL DUP2 MSTORE PUSH1 0x4 ADD PUSH2 0x12C2 SWAP1 PUSH2 0x5C90 JUMP JUMPDEST PUSH1 0x0 PUSH2 0x382D DUP3 PUSH2 0x25F5 JUMP JUMPDEST SWAP1 POP DUP3 PUSH1 0x1 PUSH1 0x1 PUSH1 0xA0 SHL SUB AND DUP2 PUSH1 0x1 PUSH1 0x1 PUSH1 0xA0 SHL SUB AND SUB PUSH2 0x38A4 JUMPI PUSH1 0x40 MLOAD PUSH3 0x461BCD PUSH1 0xE5 SHL DUP2 MSTORE PUSH1 0x20 PUSH1 0x4 DUP3 ADD MSTORE PUSH1 0x2B PUSH1 0x24 DUP3 ADD MSTORE PUSH32 0x546F6B656E206F776E65722063616E206E6F74207472616E7366657220746F6B PUSH1 0x44 DUP3 ADD MSTORE PUSH11 0x32B7103A379039B2B63317 PUSH1 0xA9 SHL PUSH1 0x64 DUP3 ADD MSTORE PUSH1 0x84 ADD PUSH2 0x12C2 JUMP JUMPDEST PUSH2 0x38AF DUP5 DUP5 DUP5 PUSH2 0x4350 JUMP JUMPDEST PUSH1 0x1B SLOAD PUSH1 0x1 PUSH1 0x1 PUSH1 0xA0 SHL SUB AND ISZERO DUP1 ISZERO SWAP1 PUSH2 0x38D6 JUMPI POP PUSH1 0x0 DUP3 DUP2 MSTORE PUSH1 0x1C PUSH1 0x20 MSTORE PUSH1 0x40 SWAP1 KECCAK256 SLOAD ISZERO ISZERO JUMPDEST DUP1 ISZERO PUSH2 0x38F1 JUMPI POP PUSH1 0x0 DUP3 DUP2 MSTORE PUSH1 0x1D PUSH1 0x20 MSTORE PUSH1 0x40 SWAP1 KECCAK256 SLOAD PUSH1 0xFF AND ISZERO JUMPDEST ISZERO PUSH2 0x3984 JUMPI PUSH1 0x1B SLOAD PUSH1 0x0 DUP4 DUP2 MSTORE PUSH1 0x1C PUSH1 0x20 MSTORE PUSH1 0x40 SWAP1 DUP2 SWAP1 KECCAK256 SLOAD SWAP1 MLOAD PUSH4 0xC43E92B1 PUSH1 0xE0 SHL DUP2 MSTORE PUSH1 0x1 PUSH1 0x1 PUSH1 0xA0 SHL SUB SWAP1 SWAP3 AND SWAP2 PUSH4 0xC43E92B1 SWAP2 PUSH2 0x3938 SWAP2 DUP9 SWAP2 DUP9 SWAP2 PUSH1 0x4 ADD PUSH2 0x58D9 JUMP JUMPDEST PUSH1 0x0 PUSH1 0x40 MLOAD DUP1 DUP4 SUB DUP2 PUSH1 0x0 DUP8 DUP1 EXTCODESIZE ISZERO DUP1 ISZERO PUSH2 0x3952 JUMPI PUSH1 0x0 DUP1 REVERT JUMPDEST POP GAS CALL ISZERO DUP1 ISZERO PUSH2 0x3966 JUMPI RETURNDATASIZE PUSH1 0x0 DUP1 RETURNDATACOPY RETURNDATASIZE PUSH1 0x0 REVERT JUMPDEST POP POP POP PUSH1 0x0 DUP4 DUP2 MSTORE PUSH1 0x1D PUSH1 0x20 MSTORE PUSH1 0x40 SWAP1 KECCAK256 DUP1 SLOAD PUSH1 0xFF NOT AND PUSH1 0x1 OR SWAP1 SSTORE POP JUMPDEST PUSH1 0x0 DUP3 DUP2 MSTORE PUSH1 0x19 PUSH1 0x20 MSTORE PUSH1 0x40 SWAP1 KECCAK256 SLOAD ISZERO PUSH2 0x17A5 JUMPI PUSH1 0x0 DUP3 DUP2 MSTORE PUSH1 0x19 PUSH1 0x20 MSTORE PUSH1 0x40 SWAP1 KECCAK256 SLOAD PUSH1 0x1A SLOAD PUSH2 0x39C1 SWAP2 PUSH1 0x1 PUSH1 0x1 PUSH1 0xA0 SHL SUB SWAP1 SWAP2 AND SWAP1 DUP6 SWAP1 PUSH2 0x4702 JUMP JUMPDEST POP PUSH1 0x0 SWAP1 DUP2 MSTORE PUSH1 0x19 PUSH1 0x20 MSTORE PUSH1 0x40 DUP2 KECCAK256 SSTORE POP POP PUSH1 0x1 PUSH1 0x11 SSTORE JUMP JUMPDEST PUSH1 0x60 PUSH2 0x39E4 PUSH2 0x3A14 JUMP JUMPDEST PUSH2 0x39ED DUP4 PUSH2 0x4721 JUMP JUMPDEST PUSH1 0x40 MLOAD PUSH1 0x20 ADD PUSH2 0x39FE SWAP3 SWAP2 SWAP1 PUSH2 0x5CCF JUMP JUMPDEST PUSH1 0x40 MLOAD PUSH1 0x20 DUP2 DUP4 SUB SUB DUP2 MSTORE SWAP1 PUSH1 0x40 MSTORE SWAP1 POP SWAP2 SWAP1 POP JUMP JUMPDEST PUSH1 0x60 PUSH1 0x12 PUSH1 0x40 MLOAD PUSH1 0x20 ADD PUSH2 0x3A28 SWAP2 SWAP1 PUSH2 0x5D71 JUMP JUMPDEST PUSH1 0x40 MLOAD PUSH1 0x20 DUP2 DUP4 SUB SUB DUP2 MSTORE SWAP1 PUSH1 0x40 MSTORE SWAP1 POP SWAP1 JUMP JUMPDEST PUSH1 0x2 PUSH1 0x11 SLOAD SUB PUSH2 0x3A5E JUMPI PUSH1 0x40 MLOAD PUSH3 0x461BCD PUSH1 0xE5 SHL DUP2 MSTORE PUSH1 0x4 ADD PUSH2 0x12C2 SWAP1 PUSH2 0x5745 JUMP JUMPDEST PUSH1 0x2 PUSH1 0x11 SSTORE PUSH1 0x0 PUSH2 0x3A6E DUP5 PUSH2 0x25F5 JUMP JUMPDEST SWAP1 POP DUP1 PUSH1 0x1 PUSH1 0x1 PUSH1 0xA0 SHL SUB AND PUSH2 0x3A82 PUSH2 0x3FF9 JUMP JUMPDEST PUSH1 0x1 PUSH1 0x1 PUSH1 0xA0 SHL SUB AND EQ DUP1 PUSH2 0x3AAC JUMPI POP PUSH2 0x3A9A PUSH2 0x3FF9 JUMP JUMPDEST PUSH1 0x10 SLOAD PUSH1 0x1 PUSH1 0x1 PUSH1 0xA0 SHL SUB SWAP1 DUP2 AND SWAP2 AND EQ JUMPDEST PUSH2 0x3AE7 JUMPI PUSH1 0x40 MLOAD PUSH3 0x461BCD PUSH1 0xE5 SHL DUP2 MSTORE PUSH1 0x20 PUSH1 0x4 DUP3 ADD MSTORE PUSH1 0xC PUSH1 0x24 DUP3 ADD MSTORE PUSH12 0x20B236B4B7399037B7363C97 PUSH1 0xA1 SHL PUSH1 0x44 DUP3 ADD MSTORE PUSH1 0x64 ADD PUSH2 0x12C2 JUMP JUMPDEST PUSH1 0x0 DUP5 DUP2 MSTORE PUSH1 0x18 PUSH1 0x20 MSTORE PUSH1 0x40 SWAP1 KECCAK256 SLOAD DUP4 GT ISZERO PUSH2 0x3B2F JUMPI PUSH1 0x40 MLOAD PUSH3 0x461BCD PUSH1 0xE5 SHL DUP2 MSTORE PUSH1 0x20 PUSH1 0x4 DUP3 ADD MSTORE PUSH1 0x7 PUSH1 0x24 DUP3 ADD MSTORE PUSH7 0x2932B334B63617 PUSH1 0xC9 SHL PUSH1 0x44 DUP3 ADD MSTORE PUSH1 0x64 ADD PUSH2 0x12C2 JUMP JUMPDEST PUSH1 0x0 DUP5 DUP2 MSTORE PUSH1 0x18 PUSH1 0x20 MSTORE PUSH1 0x40 DUP2 KECCAK256 DUP1 SLOAD DUP6 SWAP3 SWAP1 PUSH2 0x3B4D SWAP1 DUP5 SWAP1 PUSH2 0x57AB JUMP JUMPDEST SWAP1 SWAP2 SSTORE POP POP PUSH1 0x1A SLOAD PUSH1 0x40 MLOAD PUSH4 0x852CD8D PUSH1 0xE3 SHL DUP2 MSTORE PUSH1 0x4 DUP2 ADD DUP6 SWAP1 MSTORE PUSH1 0x1 PUSH1 0x1 PUSH1 0xA0 SHL SUB SWAP1 SWAP2 AND SWAP1 PUSH4 0x42966C68 SWAP1 PUSH1 0x24 ADD PUSH1 0x0 PUSH1 0x40 MLOAD DUP1 DUP4 SUB DUP2 PUSH1 0x0 DUP8 DUP1 EXTCODESIZE ISZERO DUP1 ISZERO PUSH2 0x3B98 JUMPI PUSH1 0x0 DUP1 REVERT JUMPDEST POP GAS CALL ISZERO DUP1 ISZERO PUSH2 0x3BAC JUMPI RETURNDATASIZE PUSH1 0x0 DUP1 RETURNDATACOPY RETURNDATASIZE PUSH1 0x0 REVERT JUMPDEST POP POP POP POP PUSH32 0x6CF1047B698DE02174DB713EB2021BE336D8A8370C8E3B762FE83B7ED289BC3 DUP2 DUP6 DUP6 DUP6 PUSH1 0x40 MLOAD PUSH2 0x3BE5 SWAP5 SWAP4 SWAP3 SWAP2 SWAP1 PUSH2 0x5D94 JUMP JUMPDEST PUSH1 0x40 MLOAD DUP1 SWAP2 SUB SWAP1 LOG1 POP POP PUSH1 0x1 PUSH1 0x11 SSTORE POP POP JUMP JUMPDEST PUSH1 0x0 DUP2 DUP2 MSTORE PUSH1 0x30 PUSH1 0x20 MSTORE PUSH1 0x40 DUP2 KECCAK256 SLOAD PUSH1 0x2F SLOAD PUSH2 0x1149 SWAP2 SWAP1 PUSH2 0x57C2 JUMP JUMPDEST PUSH1 0x60 PUSH1 0x12 PUSH1 0x40 MLOAD PUSH1 0x20 ADD PUSH2 0x3A28 SWAP2 SWAP1 PUSH2 0x5DCB JUMP JUMPDEST PUSH1 0x1 PUSH1 0x1 PUSH1 0xA0 SHL SUB SWAP2 DUP3 AND PUSH1 0x0 SWAP1 DUP2 MSTORE PUSH1 0x5 PUSH1 0x20 SWAP1 DUP2 MSTORE PUSH1 0x40 DUP1 DUP4 KECCAK256 SWAP4 SWAP1 SWAP5 AND DUP3 MSTORE SWAP2 SWAP1 SWAP2 MSTORE KECCAK256 SLOAD PUSH1 0xFF AND SWAP1 JUMP JUMPDEST CALLER PUSH2 0x3C60 DUP6 PUSH2 0x25F5 JUMP JUMPDEST PUSH1 0x1 PUSH1 0x1 PUSH1 0xA0 SHL SUB AND EQ DUP1 PUSH2 0x3C7F JUMPI POP PUSH1 0x10 SLOAD PUSH1 0x1 PUSH1 0x1 PUSH1 0xA0 SHL SUB AND CALLER EQ JUMPDEST DUP1 PUSH2 0x3C99 JUMPI POP CALLER PUSH1 0x0 SWAP1 DUP2 MSTORE PUSH1 0x1E PUSH1 0x20 MSTORE PUSH1 0x40 SWAP1 KECCAK256 SLOAD PUSH1 0xFF AND JUMPDEST PUSH2 0x3CE0 JUMPI PUSH1 0x40 MLOAD PUSH3 0x461BCD PUSH1 0xE5 SHL DUP2 MSTORE PUSH1 0x20 PUSH1 0x4 DUP3 ADD MSTORE PUSH1 0x18 PUSH1 0x24 DUP3 ADD MSTORE PUSH24 0x2CB7BA903237B713BA1037BBB7103A3434B9903432B93797 PUSH1 0x41 SHL PUSH1 0x44 DUP3 ADD MSTORE PUSH1 0x64 ADD PUSH2 0x12C2 JUMP JUMPDEST PUSH1 0x0 DUP5 DUP2 MSTORE PUSH1 0x25 PUSH1 0x20 SWAP1 DUP2 MSTORE PUSH1 0x40 DUP1 DUP4 KECCAK256 DUP7 DUP5 MSTORE SWAP1 SWAP2 MSTORE DUP2 KECCAK256 DUP1 SLOAD DUP5 SWAP3 SWAP1 PUSH2 0x3D09 SWAP1 DUP5 SWAP1 PUSH2 0x57AB JUMP JUMPDEST SWAP1 SWAP2 SSTORE POP POP PUSH1 0x2C SLOAD PUSH1 0x40 MLOAD PUSH4 0x79212195 PUSH1 0xE1 SHL DUP2 MSTORE PUSH1 0x1 PUSH1 0x1 PUSH1 0xA0 SHL SUB SWAP1 SWAP2 AND SWAP1 PUSH4 0xF242432A SWAP1 PUSH2 0x3D44 SWAP1 ADDRESS SWAP1 DUP6 SWAP1 DUP9 SWAP1 DUP9 SWAP1 PUSH1 0x4 ADD PUSH2 0x5936 JUMP JUMPDEST PUSH1 0x0 PUSH1 0x40 MLOAD DUP1 DUP4 SUB DUP2 PUSH1 0x0 DUP8 DUP1 EXTCODESIZE ISZERO DUP1 ISZERO PUSH2 0x3D5E JUMPI PUSH1 0x0 DUP1 REVERT JUMPDEST POP GAS CALL ISZERO DUP1 ISZERO PUSH2 0x3D72 JUMPI RETURNDATASIZE PUSH1 0x0 DUP1 RETURNDATACOPY RETURNDATASIZE PUSH1 0x0 REVERT JUMPDEST POP POP POP POP POP POP POP POP JUMP JUMPDEST PUSH2 0x3D84 PUSH2 0x40C2 JUMP JUMPDEST PUSH1 0x1 PUSH1 0x1 PUSH1 0xA0 SHL SUB AND PUSH2 0x3D95 PUSH2 0x2DE7 JUMP JUMPDEST PUSH1 0x1 PUSH1 0x1 PUSH1 0xA0 SHL SUB AND EQ PUSH2 0x3DBB JUMPI PUSH1 0x40 MLOAD PUSH3 0x461BCD PUSH1 0xE5 SHL DUP2 MSTORE PUSH1 0x4 ADD PUSH2 0x12C2 SWAP1 PUSH2 0x5B40 JUMP JUMPDEST PUSH1 0x1 PUSH1 0x1 PUSH1 0xA0 SHL SUB DUP2 AND PUSH2 0x3E20 JUMPI PUSH1 0x40 MLOAD PUSH3 0x461BCD PUSH1 0xE5 SHL DUP2 MSTORE PUSH1 0x20 PUSH1 0x4 DUP3 ADD MSTORE PUSH1 0x26 PUSH1 0x24 DUP3 ADD MSTORE PUSH32 0x4F776E61626C653A206E6577206F776E657220697320746865207A65726F2061 PUSH1 0x44 DUP3 ADD MSTORE PUSH6 0x646472657373 PUSH1 0xD0 SHL PUSH1 0x64 DUP3 ADD MSTORE PUSH1 0x84 ADD PUSH2 0x12C2 JUMP JUMPDEST PUSH1 0xD SLOAD PUSH1 0x40 MLOAD PUSH1 0x1 PUSH1 0x1 PUSH1 0xA0 SHL SUB DUP1 DUP5 AND SWAP3 AND SWAP1 PUSH32 0x8BE0079C531659141344CD1FD0A4F28419497F9722A3DAAFE3B4186F6B6457E0 SWAP1 PUSH1 0x0 SWAP1 LOG3 PUSH1 0xD DUP1 SLOAD PUSH1 0x1 PUSH1 0x1 PUSH1 0xA0 SHL SUB NOT AND PUSH1 0x1 PUSH1 0x1 PUSH1 0xA0 SHL SUB SWAP3 SWAP1 SWAP3 AND SWAP2 SWAP1 SWAP2 OR SWAP1 SSTORE JUMP JUMPDEST PUSH2 0x3EB5 PUSH1 0x40 MLOAD DUP1 PUSH1 0xC0 ADD PUSH1 0x40 MSTORE DUP1 PUSH1 0x0 DUP2 MSTORE PUSH1 0x20 ADD PUSH1 0x0 DUP2 MSTORE PUSH1 0x20 ADD PUSH1 0x0 DUP2 MSTORE PUSH1 0x20 ADD PUSH1 0x0 DUP2 MSTORE PUSH1 0x20 ADD PUSH1 0x0 DUP2 MSTORE PUSH1 0x20 ADD PUSH1 0x0 DUP2 MSTORE POP SWAP1 JUMP JUMPDEST POP PUSH1 0x0 SWAP1 DUP2 MSTORE PUSH1 0x28 PUSH1 0x20 SWAP1 DUP2 MSTORE PUSH1 0x40 SWAP2 DUP3 SWAP1 KECCAK256 DUP3 MLOAD PUSH1 0xC0 DUP2 ADD DUP5 MSTORE DUP2 SLOAD DUP2 MSTORE PUSH1 0x1 DUP3 ADD SLOAD SWAP3 DUP2 ADD SWAP3 SWAP1 SWAP3 MSTORE PUSH1 0x2 DUP2 ADD SLOAD SWAP3 DUP3 ADD SWAP3 SWAP1 SWAP3 MSTORE PUSH1 0x3 DUP3 ADD SLOAD PUSH1 0x60 DUP3 ADD MSTORE PUSH1 0x4 DUP3 ADD SLOAD PUSH1 0x80 DUP3 ADD MSTORE PUSH1 0x5 SWAP1 SWAP2 ADD SLOAD PUSH1 0xA0 DUP3 ADD MSTORE SWAP1 JUMP JUMPDEST PUSH1 0x2A SLOAD PUSH1 0x40 MLOAD PUSH4 0x31A9108F PUSH1 0xE1 SHL DUP2 MSTORE PUSH1 0x4 DUP2 ADD DUP5 SWAP1 MSTORE PUSH1 0x1 PUSH1 0x1 PUSH1 0xA0 SHL SUB SWAP1 SWAP2 AND SWAP1 PUSH4 0x6352211E SWAP1 PUSH1 0x24 ADD PUSH1 0x20 PUSH1 0x40 MLOAD DUP1 DUP4 SUB DUP2 DUP7 GAS STATICCALL ISZERO DUP1 ISZERO PUSH2 0x3F57 JUMPI RETURNDATASIZE PUSH1 0x0 DUP1 RETURNDATACOPY RETURNDATASIZE PUSH1 0x0 REVERT JUMPDEST POP POP POP POP PUSH1 0x40 MLOAD RETURNDATASIZE PUSH1 0x1F NOT PUSH1 0x1F DUP3 ADD AND DUP3 ADD DUP1 PUSH1 0x40 MSTORE POP DUP2 ADD SWAP1 PUSH2 0x3F7B SWAP2 SWAP1 PUSH2 0x58BC JUMP JUMPDEST PUSH1 0x1 PUSH1 0x1 PUSH1 0xA0 SHL SUB AND CALLER PUSH1 0x1 PUSH1 0x1 PUSH1 0xA0 SHL SUB AND EQ PUSH2 0x3F98 JUMPI PUSH1 0x0 DUP1 REVERT JUMPDEST PUSH1 0x0 SWAP2 DUP3 MSTORE PUSH1 0x30 PUSH1 0x20 MSTORE PUSH1 0x40 SWAP1 SWAP2 KECCAK256 SSTORE JUMP JUMPDEST PUSH1 0x10 SLOAD PUSH1 0x1 PUSH1 0x1 PUSH1 0xA0 SHL SUB AND CALLER EQ DUP1 PUSH2 0x3FD2 JUMPI POP CALLER PUSH1 0x0 SWAP1 DUP2 MSTORE PUSH1 0x1E PUSH1 0x20 MSTORE PUSH1 0x40 SWAP1 KECCAK256 SLOAD PUSH1 0xFF AND JUMPDEST PUSH2 0x3FDB JUMPI PUSH1 0x0 DUP1 REVERT JUMPDEST PUSH1 0x0 SWAP3 DUP4 MSTORE PUSH1 0x23 PUSH1 0x20 SWAP1 DUP2 MSTORE PUSH1 0x40 DUP1 DUP6 KECCAK256 SWAP4 SWAP1 SWAP4 SSTORE PUSH1 0x24 SWAP1 MSTORE SWAP2 KECCAK256 SSTORE JUMP JUMPDEST PUSH1 0x0 ADDRESS CALLER SUB PUSH2 0x404F JUMPI PUSH1 0x0 DUP1 CALLDATASIZE DUP1 DUP1 PUSH1 0x1F ADD PUSH1 0x20 DUP1 SWAP2 DIV MUL PUSH1 0x20 ADD PUSH1 0x40 MLOAD SWAP1 DUP2 ADD PUSH1 0x40 MSTORE DUP1 SWAP4 SWAP3 SWAP2 SWAP1 DUP2 DUP2 MSTORE PUSH1 0x20 ADD DUP4 DUP4 DUP1 DUP3 DUP5 CALLDATACOPY PUSH1 0x0 SWAP3 ADD SWAP2 SWAP1 SWAP2 MSTORE POP POP POP POP CALLDATASIZE ADD MLOAD PUSH1 0x1 PUSH1 0x1 PUSH1 0xA0 SHL SUB AND SWAP2 POP PUSH2 0x4052 SWAP1 POP JUMP JUMPDEST POP CALLER JUMPDEST SWAP1 JUMP JUMPDEST PUSH1 0x0 PUSH1 0x1 PUSH1 0x1 PUSH1 0xE0 SHL SUB NOT DUP3 AND PUSH4 0x80AC58CD PUSH1 0xE0 SHL EQ DUP1 PUSH2 0x4086 JUMPI POP PUSH1 0x1 PUSH1 0x1 PUSH1 0xE0 SHL SUB NOT DUP3 AND PUSH4 0x5B5E139F PUSH1 0xE0 SHL EQ JUMPDEST DUP1 PUSH2 0x1149 JUMPI POP PUSH4 0x1FFC9A7 PUSH1 0xE0 SHL PUSH1 0x1 PUSH1 0x1 PUSH1 0xE0 SHL SUB NOT DUP4 AND EQ PUSH2 0x1149 JUMP JUMPDEST PUSH1 0x0 SWAP1 DUP2 MSTORE PUSH1 0x2 PUSH1 0x20 MSTORE PUSH1 0x40 SWAP1 KECCAK256 SLOAD PUSH1 0x1 PUSH1 0x1 PUSH1 0xA0 SHL SUB AND ISZERO ISZERO SWAP1 JUMP JUMPDEST PUSH1 0x0 PUSH2 0x3008 PUSH2 0x3FF9 JUMP JUMPDEST PUSH1 0x0 DUP2 DUP2 MSTORE PUSH1 0x4 PUSH1 0x20 MSTORE PUSH1 0x40 SWAP1 KECCAK256 DUP1 SLOAD PUSH1 0x1 PUSH1 0x1 PUSH1 0xA0 SHL SUB NOT AND PUSH1 0x1 PUSH1 0x1 PUSH1 0xA0 SHL SUB DUP5 AND SWAP1 DUP2 OR SWAP1 SWAP2 SSTORE DUP2 SWAP1 PUSH2 0x4101 DUP3 PUSH2 0x25F5 JUMP JUMPDEST PUSH1 0x1 PUSH1 0x1 PUSH1 0xA0 SHL SUB AND PUSH32 0x8C5BE1E5EBEC7D5BD14F71427D1E84F3DD0314C0F7B2291E5B200AC8C7C3B925 PUSH1 0x40 MLOAD PUSH1 0x40 MLOAD DUP1 SWAP2 SUB SWAP1 LOG4 POP POP JUMP JUMPDEST PUSH1 0x0 PUSH1 0x1 PUSH1 0x1 PUSH1 0xA0 SHL SUB DUP7 AND PUSH2 0x41A0 JUMPI PUSH1 0x40 MLOAD PUSH3 0x461BCD PUSH1 0xE5 SHL DUP2 MSTORE PUSH1 0x20 PUSH1 0x4 DUP3 ADD MSTORE PUSH1 0x25 PUSH1 0x24 DUP3 ADD MSTORE PUSH32 0x4E61746976654D6574615472616E73616374696F6E3A20494E56414C49445F53 PUSH1 0x44 DUP3 ADD MSTORE PUSH5 0x24A3A722A9 PUSH1 0xD9 SHL PUSH1 0x64 DUP3 ADD MSTORE PUSH1 0x84 ADD PUSH2 0x12C2 JUMP JUMPDEST PUSH1 0x1 PUSH2 0x41B3 PUSH2 0x41AE DUP8 PUSH2 0x4821 JUMP JUMPDEST PUSH2 0x489E JUMP JUMPDEST PUSH1 0x40 DUP1 MLOAD PUSH1 0x0 DUP2 MSTORE PUSH1 0x20 DUP2 ADD DUP1 DUP4 MSTORE SWAP3 SWAP1 SWAP3 MSTORE PUSH1 0xFF DUP6 AND SWAP1 DUP3 ADD MSTORE PUSH1 0x60 DUP2 ADD DUP7 SWAP1 MSTORE PUSH1 0x80 DUP2 ADD DUP6 SWAP1 MSTORE PUSH1 0xA0 ADD PUSH1 0x20 PUSH1 0x40 MLOAD PUSH1 0x20 DUP2 SUB SWAP1 DUP1 DUP5 SUB SWAP1 DUP6 GAS STATICCALL ISZERO DUP1 ISZERO PUSH2 0x4201 JUMPI RETURNDATASIZE PUSH1 0x0 DUP1 RETURNDATACOPY RETURNDATASIZE PUSH1 0x0 REVERT JUMPDEST POP POP POP PUSH1 0x20 PUSH1 0x40 MLOAD SUB MLOAD PUSH1 0x1 PUSH1 0x1 PUSH1 0xA0 SHL SUB AND DUP7 PUSH1 0x1 PUSH1 0x1 PUSH1 0xA0 SHL SUB AND EQ SWAP1 POP SWAP6 SWAP5 POP POP POP POP POP JUMP JUMPDEST PUSH1 0x0 PUSH2 0x258D DUP3 DUP5 PUSH2 0x57C2 JUMP JUMPDEST PUSH2 0x33E7 DUP5 PUSH4 0x23B872DD PUSH1 0xE0 SHL DUP6 DUP6 DUP6 PUSH1 0x40 MLOAD PUSH1 0x24 ADD PUSH2 0x4257 SWAP4 SWAP3 SWAP2 SWAP1 PUSH2 0x58D9 JUMP JUMPDEST PUSH1 0x40 DUP1 MLOAD PUSH1 0x1F NOT DUP2 DUP5 SUB ADD DUP2 MSTORE SWAP2 SWAP1 MSTORE PUSH1 0x20 DUP2 ADD DUP1 MLOAD PUSH1 0x1 PUSH1 0x1 PUSH1 0xE0 SHL SUB AND PUSH1 0x1 PUSH1 0x1 PUSH1 0xE0 SHL SUB NOT SWAP1 SWAP4 AND SWAP3 SWAP1 SWAP3 OR SWAP1 SWAP2 MSTORE PUSH2 0x48CE JUMP JUMPDEST PUSH1 0x0 PUSH2 0x4299 DUP3 PUSH2 0x40A5 JUMP JUMPDEST PUSH2 0x42FA JUMPI PUSH1 0x40 MLOAD PUSH3 0x461BCD PUSH1 0xE5 SHL DUP2 MSTORE PUSH1 0x20 PUSH1 0x4 DUP3 ADD MSTORE PUSH1 0x2C PUSH1 0x24 DUP3 ADD MSTORE PUSH32 0x4552433732313A206F70657261746F7220717565727920666F72206E6F6E6578 PUSH1 0x44 DUP3 ADD MSTORE PUSH12 0x34B9BA32B73A103A37B5B2B7 PUSH1 0xA1 SHL PUSH1 0x64 DUP3 ADD MSTORE PUSH1 0x84 ADD PUSH2 0x12C2 JUMP JUMPDEST PUSH1 0x0 PUSH2 0x4305 DUP4 PUSH2 0x25F5 JUMP JUMPDEST SWAP1 POP DUP1 PUSH1 0x1 PUSH1 0x1 PUSH1 0xA0 SHL SUB AND DUP5 PUSH1 0x1 PUSH1 0x1 PUSH1 0xA0 SHL SUB AND EQ DUP1 PUSH2 0x4340 JUMPI POP DUP4 PUSH1 0x1 PUSH1 0x1 PUSH1 0xA0 SHL SUB AND PUSH2 0x4335 DUP5 PUSH2 0x125A JUMP JUMPDEST PUSH1 0x1 PUSH1 0x1 PUSH1 0xA0 SHL SUB AND EQ JUMPDEST DUP1 PUSH2 0x1E4D JUMPI POP PUSH2 0x1E4D DUP2 DUP6 PUSH2 0x3C28 JUMP JUMPDEST DUP3 PUSH1 0x1 PUSH1 0x1 PUSH1 0xA0 SHL SUB AND PUSH2 0x4363 DUP3 PUSH2 0x25F5 JUMP JUMPDEST PUSH1 0x1 PUSH1 0x1 PUSH1 0xA0 SHL SUB AND EQ PUSH2 0x43CB JUMPI PUSH1 0x40 MLOAD PUSH3 0x461BCD PUSH1 0xE5 SHL DUP2 MSTORE PUSH1 0x20 PUSH1 0x4 DUP3 ADD MSTORE PUSH1 0x29 PUSH1 0x24 DUP3 ADD MSTORE PUSH32 0x4552433732313A207472616E73666572206F6620746F6B656E20746861742069 PUSH1 0x44 DUP3 ADD MSTORE PUSH9 0x39903737BA1037BBB7 PUSH1 0xB9 SHL PUSH1 0x64 DUP3 ADD MSTORE PUSH1 0x84 ADD PUSH2 0x12C2 JUMP JUMPDEST PUSH1 0x1 PUSH1 0x1 PUSH1 0xA0 SHL SUB DUP3 AND PUSH2 0x442D JUMPI PUSH1 0x40 MLOAD PUSH3 0x461BCD PUSH1 0xE5 SHL DUP2 MSTORE PUSH1 0x20 PUSH1 0x4 DUP3 ADD MSTORE PUSH1 0x24 DUP1 DUP3 ADD MSTORE PUSH32 0x4552433732313A207472616E7366657220746F20746865207A65726F20616464 PUSH1 0x44 DUP3 ADD MSTORE PUSH4 0x72657373 PUSH1 0xE0 SHL PUSH1 0x64 DUP3 ADD MSTORE PUSH1 0x84 ADD PUSH2 0x12C2 JUMP JUMPDEST PUSH2 0x4438 DUP4 DUP4 DUP4 PUSH2 0x49A0 JUMP JUMPDEST PUSH2 0x4443 PUSH1 0x0 DUP3 PUSH2 0x40CC JUMP JUMPDEST PUSH1 0x1 PUSH1 0x1 PUSH1 0xA0 SHL SUB DUP4 AND PUSH1 0x0 SWAP1 DUP2 MSTORE PUSH1 0x3 PUSH1 0x20 MSTORE PUSH1 0x40 DUP2 KECCAK256 DUP1 SLOAD PUSH1 0x1 SWAP3 SWAP1 PUSH2 0x446C SWAP1 DUP5 SWAP1 PUSH2 0x57AB JUMP JUMPDEST SWAP1 SWAP2 SSTORE POP POP PUSH1 0x1 PUSH1 0x1 PUSH1 0xA0 SHL SUB DUP3 AND PUSH1 0x0 SWAP1 DUP2 MSTORE PUSH1 0x3 PUSH1 0x20 MSTORE PUSH1 0x40 DUP2 KECCAK256 DUP1 SLOAD PUSH1 0x1 SWAP3 SWAP1 PUSH2 0x449A SWAP1 DUP5 SWAP1 PUSH2 0x57C2 JUMP JUMPDEST SWAP1 SWAP2 SSTORE POP POP PUSH1 0x0 DUP2 DUP2 MSTORE PUSH1 0x2 PUSH1 0x20 MSTORE PUSH1 0x40 DUP1 DUP3 KECCAK256 DUP1 SLOAD PUSH1 0x1 PUSH1 0x1 PUSH1 0xA0 SHL SUB NOT AND PUSH1 0x1 PUSH1 0x1 PUSH1 0xA0 SHL SUB DUP7 DUP2 AND SWAP2 DUP3 OR SWAP1 SWAP3 SSTORE SWAP2 MLOAD DUP5 SWAP4 SWAP2 DUP8 AND SWAP2 PUSH1 0x0 DUP1 MLOAD PUSH1 0x20 PUSH2 0x5F34 DUP4 CODECOPY DUP2 MLOAD SWAP2 MSTORE SWAP2 LOG4 POP POP POP JUMP JUMPDEST PUSH1 0x1 PUSH1 0x1 PUSH1 0xA0 SHL SUB DUP3 AND PUSH2 0x453F JUMPI PUSH1 0x40 MLOAD PUSH3 0x461BCD PUSH1 0xE5 SHL DUP2 MSTORE PUSH1 0x20 PUSH1 0x4 DUP3 ADD DUP2 SWAP1 MSTORE PUSH1 0x24 DUP3 ADD MSTORE PUSH32 0x4552433732313A206D696E7420746F20746865207A65726F2061646472657373 PUSH1 0x44 DUP3 ADD MSTORE PUSH1 0x64 ADD PUSH2 0x12C2 JUMP JUMPDEST PUSH2 0x4548 DUP2 PUSH2 0x40A5 JUMP JUMPDEST ISZERO PUSH2 0x4595 JUMPI PUSH1 0x40 MLOAD PUSH3 0x461BCD PUSH1 0xE5 SHL DUP2 MSTORE PUSH1 0x20 PUSH1 0x4 DUP3 ADD MSTORE PUSH1 0x1C PUSH1 0x24 DUP3 ADD MSTORE PUSH32 0x4552433732313A20746F6B656E20616C7265616479206D696E74656400000000 PUSH1 0x44 DUP3 ADD MSTORE PUSH1 0x64 ADD PUSH2 0x12C2 JUMP JUMPDEST PUSH2 0x45A1 PUSH1 0x0 DUP4 DUP4 PUSH2 0x49A0 JUMP JUMPDEST PUSH1 0x1 PUSH1 0x1 PUSH1 0xA0 SHL SUB DUP3 AND PUSH1 0x0 SWAP1 DUP2 MSTORE PUSH1 0x3 PUSH1 0x20 MSTORE PUSH1 0x40 DUP2 KECCAK256 DUP1 SLOAD PUSH1 0x1 SWAP3 SWAP1 PUSH2 0x45CA SWAP1 DUP5 SWAP1 PUSH2 0x57C2 JUMP JUMPDEST SWAP1 SWAP2 SSTORE POP POP PUSH1 0x0 DUP2 DUP2 MSTORE PUSH1 0x2 PUSH1 0x20 MSTORE PUSH1 0x40 DUP1 DUP3 KECCAK256 DUP1 SLOAD PUSH1 0x1 PUSH1 0x1 PUSH1 0xA0 SHL SUB NOT AND PUSH1 0x1 PUSH1 0x1 PUSH1 0xA0 SHL SUB DUP7 AND SWAP1 DUP2 OR SWAP1 SWAP2 SSTORE SWAP1 MLOAD DUP4 SWAP3 SWAP1 PUSH1 0x0 DUP1 MLOAD PUSH1 0x20 PUSH2 0x5F34 DUP4 CODECOPY DUP2 MLOAD SWAP2 MSTORE SWAP1 DUP3 SWAP1 LOG4 POP POP JUMP JUMPDEST PUSH1 0x0 PUSH2 0x4621 DUP3 PUSH2 0x25F5 JUMP JUMPDEST SWAP1 POP PUSH2 0x462F DUP2 PUSH1 0x0 DUP5 PUSH2 0x49A0 JUMP JUMPDEST PUSH2 0x463A PUSH1 0x0 DUP4 PUSH2 0x40CC JUMP JUMPDEST PUSH1 0x1 PUSH1 0x1 PUSH1 0xA0 SHL SUB DUP2 AND PUSH1 0x0 SWAP1 DUP2 MSTORE PUSH1 0x3 PUSH1 0x20 MSTORE PUSH1 0x40 DUP2 KECCAK256 DUP1 SLOAD PUSH1 0x1 SWAP3 SWAP1 PUSH2 0x4663 SWAP1 DUP5 SWAP1 PUSH2 0x57AB JUMP JUMPDEST SWAP1 SWAP2 SSTORE POP POP PUSH1 0x0 DUP3 DUP2 MSTORE PUSH1 0x2 PUSH1 0x20 MSTORE PUSH1 0x40 DUP1 DUP3 KECCAK256 DUP1 SLOAD PUSH1 0x1 PUSH1 0x1 PUSH1 0xA0 SHL SUB NOT AND SWAP1 SSTORE MLOAD DUP4 SWAP2 SWAP1 PUSH1 0x1 PUSH1 0x1 PUSH1 0xA0 SHL SUB DUP5 AND SWAP1 PUSH1 0x0 DUP1 MLOAD PUSH1 0x20 PUSH2 0x5F34 DUP4 CODECOPY DUP2 MLOAD SWAP2 MSTORE SWAP1 DUP4 SWAP1 LOG4 POP POP JUMP JUMPDEST PUSH1 0x0 PUSH1 0x96 PUSH2 0x46BA PUSH1 0x1 DUP5 PUSH2 0x5AC0 JUMP JUMPDEST PUSH2 0x46C4 SWAP2 SWAP1 PUSH2 0x5DF0 JUMP JUMPDEST PUSH2 0x1149 SWAP1 PUSH1 0x1 PUSH2 0x5AFF JUMP JUMPDEST PUSH2 0x46DA DUP5 DUP5 DUP5 PUSH2 0x4350 JUMP JUMPDEST PUSH2 0x46E6 DUP5 DUP5 DUP5 DUP5 PUSH2 0x4A58 JUMP JUMPDEST PUSH2 0x33E7 JUMPI PUSH1 0x40 MLOAD PUSH3 0x461BCD PUSH1 0xE5 SHL DUP2 MSTORE PUSH1 0x4 ADD PUSH2 0x12C2 SWAP1 PUSH2 0x5E04 JUMP JUMPDEST PUSH2 0x1404 DUP4 PUSH4 0xA9059CBB PUSH1 0xE0 SHL DUP5 DUP5 PUSH1 0x40 MLOAD PUSH1 0x24 ADD PUSH2 0x4257 SWAP3 SWAP2 SWAP1 PUSH2 0x5531 JUMP JUMPDEST PUSH1 0x60 DUP2 PUSH1 0x0 SUB PUSH2 0x4748 JUMPI POP POP PUSH1 0x40 DUP1 MLOAD DUP1 DUP3 ADD SWAP1 SWAP2 MSTORE PUSH1 0x1 DUP2 MSTORE PUSH1 0x3 PUSH1 0xFC SHL PUSH1 0x20 DUP3 ADD MSTORE SWAP1 JUMP JUMPDEST DUP2 PUSH1 0x0 JUMPDEST DUP2 ISZERO PUSH2 0x4772 JUMPI DUP1 PUSH2 0x475C DUP2 PUSH2 0x5CB6 JUMP JUMPDEST SWAP2 POP PUSH2 0x476B SWAP1 POP PUSH1 0xA DUP4 PUSH2 0x58A8 JUMP JUMPDEST SWAP2 POP PUSH2 0x474C JUMP JUMPDEST PUSH1 0x0 DUP2 PUSH1 0x1 PUSH1 0x1 PUSH1 0x40 SHL SUB DUP2 GT ISZERO PUSH2 0x478C JUMPI PUSH2 0x478C PUSH2 0x4EDA JUMP JUMPDEST PUSH1 0x40 MLOAD SWAP1 DUP1 DUP3 MSTORE DUP1 PUSH1 0x1F ADD PUSH1 0x1F NOT AND PUSH1 0x20 ADD DUP3 ADD PUSH1 0x40 MSTORE DUP1 ISZERO PUSH2 0x47B6 JUMPI PUSH1 0x20 DUP3 ADD DUP2 DUP1 CALLDATASIZE DUP4 CALLDATACOPY ADD SWAP1 POP JUMPDEST POP SWAP1 POP JUMPDEST DUP5 ISZERO PUSH2 0x1E4D JUMPI PUSH2 0x47CB PUSH1 0x1 DUP4 PUSH2 0x57AB JUMP JUMPDEST SWAP2 POP PUSH2 0x47D8 PUSH1 0xA DUP7 PUSH2 0x5E56 JUMP JUMPDEST PUSH2 0x47E3 SWAP1 PUSH1 0x30 PUSH2 0x57C2 JUMP JUMPDEST PUSH1 0xF8 SHL DUP2 DUP4 DUP2 MLOAD DUP2 LT PUSH2 0x47F8 JUMPI PUSH2 0x47F8 PUSH2 0x5920 JUMP JUMPDEST PUSH1 0x20 ADD ADD SWAP1 PUSH1 0x1 PUSH1 0x1 PUSH1 0xF8 SHL SUB NOT AND SWAP1 DUP2 PUSH1 0x0 BYTE SWAP1 MSTORE8 POP PUSH2 0x481A PUSH1 0xA DUP7 PUSH2 0x58A8 JUMP JUMPDEST SWAP5 POP PUSH2 0x47BA JUMP JUMPDEST PUSH1 0x0 PUSH1 0x40 MLOAD DUP1 PUSH1 0x80 ADD PUSH1 0x40 MSTORE DUP1 PUSH1 0x43 DUP2 MSTORE PUSH1 0x20 ADD PUSH2 0x5ED1 PUSH1 0x43 SWAP2 CODECOPY DUP1 MLOAD PUSH1 0x20 SWAP2 DUP3 ADD KECCAK256 DUP4 MLOAD DUP5 DUP4 ADD MLOAD PUSH1 0x40 DUP1 DUP8 ADD MLOAD DUP1 MLOAD SWAP1 DUP7 ADD KECCAK256 SWAP1 MLOAD PUSH2 0x4881 SWAP6 ADD SWAP4 DUP5 MSTORE PUSH1 0x20 DUP5 ADD SWAP3 SWAP1 SWAP3 MSTORE PUSH1 0x1 PUSH1 0x1 PUSH1 0xA0 SHL SUB AND PUSH1 0x40 DUP4 ADD MSTORE PUSH1 0x60 DUP3 ADD MSTORE PUSH1 0x80 ADD SWAP1 JUMP JUMPDEST PUSH1 0x40 MLOAD PUSH1 0x20 DUP2 DUP4 SUB SUB DUP2 MSTORE SWAP1 PUSH1 0x40 MSTORE DUP1 MLOAD SWAP1 PUSH1 0x20 ADD KECCAK256 SWAP1 POP SWAP2 SWAP1 POP JUMP JUMPDEST PUSH1 0x0 PUSH2 0x48A9 PUSH1 0xB SLOAD SWAP1 JUMP JUMPDEST PUSH1 0x40 MLOAD PUSH2 0x1901 PUSH1 0xF0 SHL PUSH1 0x20 DUP3 ADD MSTORE PUSH1 0x22 DUP2 ADD SWAP2 SWAP1 SWAP2 MSTORE PUSH1 0x42 DUP2 ADD DUP4 SWAP1 MSTORE PUSH1 0x62 ADD PUSH2 0x4881 JUMP JUMPDEST PUSH1 0x0 PUSH2 0x4923 DUP3 PUSH1 0x40 MLOAD DUP1 PUSH1 0x40 ADD PUSH1 0x40 MSTORE DUP1 PUSH1 0x20 DUP2 MSTORE PUSH1 0x20 ADD PUSH32 0x5361666545524332303A206C6F772D6C6576656C2063616C6C206661696C6564 DUP2 MSTORE POP DUP6 PUSH1 0x1 PUSH1 0x1 PUSH1 0xA0 SHL SUB AND PUSH2 0x4B5D SWAP1 SWAP3 SWAP2 SWAP1 PUSH4 0xFFFFFFFF AND JUMP JUMPDEST DUP1 MLOAD SWAP1 SWAP2 POP ISZERO PUSH2 0x1404 JUMPI DUP1 DUP1 PUSH1 0x20 ADD SWAP1 MLOAD DUP2 ADD SWAP1 PUSH2 0x4941 SWAP2 SWAP1 PUSH2 0x5875 JUMP JUMPDEST PUSH2 0x1404 JUMPI PUSH1 0x40 MLOAD PUSH3 0x461BCD PUSH1 0xE5 SHL DUP2 MSTORE PUSH1 0x20 PUSH1 0x4 DUP3 ADD MSTORE PUSH1 0x2A PUSH1 0x24 DUP3 ADD MSTORE PUSH32 0x5361666545524332303A204552433230206F7065726174696F6E20646964206E PUSH1 0x44 DUP3 ADD MSTORE PUSH10 0x1BDD081CDD58D8D95959 PUSH1 0xB2 SHL PUSH1 0x64 DUP3 ADD MSTORE PUSH1 0x84 ADD PUSH2 0x12C2 JUMP JUMPDEST PUSH1 0x1 PUSH1 0x1 PUSH1 0xA0 SHL SUB DUP4 AND PUSH2 0x49FB JUMPI PUSH2 0x49F6 DUP2 PUSH1 0x8 DUP1 SLOAD PUSH1 0x0 DUP4 DUP2 MSTORE PUSH1 0x9 PUSH1 0x20 MSTORE PUSH1 0x40 DUP2 KECCAK256 DUP3 SWAP1 SSTORE PUSH1 0x1 DUP3 ADD DUP4 SSTORE SWAP2 SWAP1 SWAP2 MSTORE PUSH32 0xF3F7A9FE364FAAB93B216DA50A3214154F22A0A2B415B23A84C8169E8B636EE3 ADD SSTORE JUMP JUMPDEST PUSH2 0x4A1E JUMP JUMPDEST DUP2 PUSH1 0x1 PUSH1 0x1 PUSH1 0xA0 SHL SUB AND DUP4 PUSH1 0x1 PUSH1 0x1 PUSH1 0xA0 SHL SUB AND EQ PUSH2 0x4A1E JUMPI PUSH2 0x4A1E DUP4 DUP3 PUSH2 0x4B6C JUMP JUMPDEST PUSH1 0x1 PUSH1 0x1 PUSH1 0xA0 SHL SUB DUP3 AND PUSH2 0x4A35 JUMPI PUSH2 0x1404 DUP2 PUSH2 0x4C09 JUMP JUMPDEST DUP3 PUSH1 0x1 PUSH1 0x1 PUSH1 0xA0 SHL SUB AND DUP3 PUSH1 0x1 PUSH1 0x1 PUSH1 0xA0 SHL SUB AND EQ PUSH2 0x1404 JUMPI PUSH2 0x1404 DUP3 DUP3 PUSH2 0x4CB8 JUMP JUMPDEST PUSH1 0x0 PUSH1 0x1 PUSH1 0x1 PUSH1 0xA0 SHL SUB DUP5 AND EXTCODESIZE ISZERO PUSH2 0x4B55 JUMPI DUP4 PUSH1 0x1 PUSH1 0x1 PUSH1 0xA0 SHL SUB AND PUSH4 0x150B7A02 PUSH2 0x4A81 PUSH2 0x40C2 JUMP JUMPDEST DUP8 DUP7 DUP7 PUSH1 0x40 MLOAD DUP6 PUSH4 0xFFFFFFFF AND PUSH1 0xE0 SHL DUP2 MSTORE PUSH1 0x4 ADD PUSH2 0x4AA3 SWAP5 SWAP4 SWAP3 SWAP2 SWAP1 PUSH2 0x5E6A JUMP JUMPDEST PUSH1 0x20 PUSH1 0x40 MLOAD DUP1 DUP4 SUB DUP2 PUSH1 0x0 DUP8 GAS CALL SWAP3 POP POP POP DUP1 ISZERO PUSH2 0x4ADE JUMPI POP PUSH1 0x40 DUP1 MLOAD PUSH1 0x1F RETURNDATASIZE SWAP1 DUP2 ADD PUSH1 0x1F NOT AND DUP3 ADD SWAP1 SWAP3 MSTORE PUSH2 0x4ADB SWAP2 DUP2 ADD SWAP1 PUSH2 0x5E9D JUMP JUMPDEST PUSH1 0x1 JUMPDEST PUSH2 0x4B3B JUMPI RETURNDATASIZE DUP1 DUP1 ISZERO PUSH2 0x4B0C JUMPI PUSH1 0x40 MLOAD SWAP2 POP PUSH1 0x1F NOT PUSH1 0x3F RETURNDATASIZE ADD AND DUP3 ADD PUSH1 0x40 MSTORE RETURNDATASIZE DUP3 MSTORE RETURNDATASIZE PUSH1 0x0 PUSH1 0x20 DUP5 ADD RETURNDATACOPY PUSH2 0x4B11 JUMP JUMPDEST PUSH1 0x60 SWAP2 POP JUMPDEST POP DUP1 MLOAD PUSH1 0x0 SUB PUSH2 0x4B33 JUMPI PUSH1 0x40 MLOAD PUSH3 0x461BCD PUSH1 0xE5 SHL DUP2 MSTORE PUSH1 0x4 ADD PUSH2 0x12C2 SWAP1 PUSH2 0x5E04 JUMP JUMPDEST DUP1 MLOAD DUP2 PUSH1 0x20 ADD REVERT JUMPDEST PUSH1 0x1 PUSH1 0x1 PUSH1 0xE0 SHL SUB NOT AND PUSH4 0xA85BD01 PUSH1 0xE1 SHL EQ SWAP1 POP PUSH2 0x1E4D JUMP JUMPDEST POP PUSH1 0x1 PUSH2 0x1E4D JUMP JUMPDEST PUSH1 0x60 PUSH2 0x1E4D DUP5 DUP5 PUSH1 0x0 DUP6 PUSH2 0x4CFC JUMP JUMPDEST PUSH1 0x0 PUSH1 0x1 PUSH2 0x4B79 DUP5 PUSH2 0x293F JUMP JUMPDEST PUSH2 0x4B83 SWAP2 SWAP1 PUSH2 0x57AB JUMP JUMPDEST PUSH1 0x0 DUP4 DUP2 MSTORE PUSH1 0x7 PUSH1 0x20 MSTORE PUSH1 0x40 SWAP1 KECCAK256 SLOAD SWAP1 SWAP2 POP DUP1 DUP3 EQ PUSH2 0x4BD6 JUMPI PUSH1 0x1 PUSH1 0x1 PUSH1 0xA0 SHL SUB DUP5 AND PUSH1 0x0 SWAP1 DUP2 MSTORE PUSH1 0x6 PUSH1 0x20 SWAP1 DUP2 MSTORE PUSH1 0x40 DUP1 DUP4 KECCAK256 DUP6 DUP5 MSTORE DUP3 MSTORE DUP1 DUP4 KECCAK256 SLOAD DUP5 DUP5 MSTORE DUP2 DUP5 KECCAK256 DUP2 SWAP1 SSTORE DUP4 MSTORE PUSH1 0x7 SWAP1 SWAP2 MSTORE SWAP1 KECCAK256 DUP2 SWAP1 SSTORE JUMPDEST POP PUSH1 0x0 SWAP2 DUP3 MSTORE PUSH1 0x7 PUSH1 0x20 SWAP1 DUP2 MSTORE PUSH1 0x40 DUP1 DUP5 KECCAK256 DUP5 SWAP1 SSTORE PUSH1 0x1 PUSH1 0x1 PUSH1 0xA0 SHL SUB SWAP1 SWAP5 AND DUP4 MSTORE PUSH1 0x6 DUP2 MSTORE DUP4 DUP4 KECCAK256 SWAP2 DUP4 MSTORE MSTORE SWAP1 DUP2 KECCAK256 SSTORE JUMP JUMPDEST PUSH1 0x8 SLOAD PUSH1 0x0 SWAP1 PUSH2 0x4C1B SWAP1 PUSH1 0x1 SWAP1 PUSH2 0x57AB JUMP JUMPDEST PUSH1 0x0 DUP4 DUP2 MSTORE PUSH1 0x9 PUSH1 0x20 MSTORE PUSH1 0x40 DUP2 KECCAK256 SLOAD PUSH1 0x8 DUP1 SLOAD SWAP4 SWAP5 POP SWAP1 SWAP3 DUP5 SWAP1 DUP2 LT PUSH2 0x4C43 JUMPI PUSH2 0x4C43 PUSH2 0x5920 JUMP JUMPDEST SWAP1 PUSH1 0x0 MSTORE PUSH1 0x20 PUSH1 0x0 KECCAK256 ADD SLOAD SWAP1 POP DUP1 PUSH1 0x8 DUP4 DUP2 SLOAD DUP2 LT PUSH2 0x4C64 JUMPI PUSH2 0x4C64 PUSH2 0x5920 JUMP JUMPDEST PUSH1 0x0 SWAP2 DUP3 MSTORE PUSH1 0x20 DUP1 DUP4 KECCAK256 SWAP1 SWAP2 ADD SWAP3 SWAP1 SWAP3 SSTORE DUP3 DUP2 MSTORE PUSH1 0x9 SWAP1 SWAP2 MSTORE PUSH1 0x40 DUP1 DUP3 KECCAK256 DUP5 SWAP1 SSTORE DUP6 DUP3 MSTORE DUP2 KECCAK256 SSTORE PUSH1 0x8 DUP1 SLOAD DUP1 PUSH2 0x4C9C JUMPI PUSH2 0x4C9C PUSH2 0x5EBA JUMP JUMPDEST PUSH1 0x1 SWAP1 SUB DUP2 DUP2 SWAP1 PUSH1 0x0 MSTORE PUSH1 0x20 PUSH1 0x0 KECCAK256 ADD PUSH1 0x0 SWAP1 SSTORE SWAP1 SSTORE POP POP POP POP JUMP JUMPDEST PUSH1 0x0 PUSH2 0x4CC3 DUP4 PUSH2 0x293F JUMP JUMPDEST PUSH1 0x1 PUSH1 0x1 PUSH1 0xA0 SHL SUB SWAP1 SWAP4 AND PUSH1 0x0 SWAP1 DUP2 MSTORE PUSH1 0x6 PUSH1 0x20 SWAP1 DUP2 MSTORE PUSH1 0x40 DUP1 DUP4 KECCAK256 DUP7 DUP5 MSTORE DUP3 MSTORE DUP1 DUP4 KECCAK256 DUP6 SWAP1 SSTORE SWAP4 DUP3 MSTORE PUSH1 0x7 SWAP1 MSTORE SWAP2 SWAP1 SWAP2 KECCAK256 SWAP2 SWAP1 SWAP2 SSTORE POP JUMP JUMPDEST PUSH1 0x60 DUP3 SELFBALANCE LT ISZERO PUSH2 0x4D5D JUMPI PUSH1 0x40 MLOAD PUSH3 0x461BCD PUSH1 0xE5 SHL DUP2 MSTORE PUSH1 0x20 PUSH1 0x4 DUP3 ADD MSTORE PUSH1 0x26 PUSH1 0x24 DUP3 ADD MSTORE PUSH32 0x416464726573733A20696E73756666696369656E742062616C616E636520666F PUSH1 0x44 DUP3 ADD MSTORE PUSH6 0x1C8818D85B1B PUSH1 0xD2 SHL PUSH1 0x64 DUP3 ADD MSTORE PUSH1 0x84 ADD PUSH2 0x12C2 JUMP JUMPDEST DUP5 EXTCODESIZE PUSH2 0x4DAB JUMPI PUSH1 0x40 MLOAD PUSH3 0x461BCD PUSH1 0xE5 SHL DUP2 MSTORE PUSH1 0x20 PUSH1 0x4 DUP3 ADD MSTORE PUSH1 0x1D PUSH1 0x24 DUP3 ADD MSTORE PUSH32 0x416464726573733A2063616C6C20746F206E6F6E2D636F6E7472616374000000 PUSH1 0x44 DUP3 ADD MSTORE PUSH1 0x64 ADD PUSH2 0x12C2 JUMP JUMPDEST PUSH1 0x0 DUP1 DUP7 PUSH1 0x1 PUSH1 0x1 PUSH1 0xA0 SHL SUB AND DUP6 DUP8 PUSH1 0x40 MLOAD PUSH2 0x4DC7 SWAP2 SWAP1 PUSH2 0x5729 JUMP JUMPDEST PUSH1 0x0 PUSH1 0x40 MLOAD DUP1 DUP4 SUB DUP2 DUP6 DUP8 GAS CALL SWAP3 POP POP POP RETURNDATASIZE DUP1 PUSH1 0x0 DUP2 EQ PUSH2 0x4E04 JUMPI PUSH1 0x40 MLOAD SWAP2 POP PUSH1 0x1F NOT PUSH1 0x3F RETURNDATASIZE ADD AND DUP3 ADD PUSH1 0x40 MSTORE RETURNDATASIZE DUP3 MSTORE RETURNDATASIZE PUSH1 0x0 PUSH1 0x20 DUP5 ADD RETURNDATACOPY PUSH2 0x4E09 JUMP JUMPDEST PUSH1 0x60 SWAP2 POP JUMPDEST POP SWAP2 POP SWAP2 POP PUSH2 0x4E19 DUP3 DUP3 DUP7 PUSH2 0x4E24 JUMP JUMPDEST SWAP8 SWAP7 POP POP POP POP POP POP POP JUMP JUMPDEST PUSH1 0x60 DUP4 ISZERO PUSH2 0x4E33 JUMPI POP DUP2 PUSH2 0x258D JUMP JUMPDEST DUP3 MLOAD ISZERO PUSH2 0x4E43 JUMPI DUP3 MLOAD DUP1 DUP5 PUSH1 0x20 ADD REVERT JUMPDEST DUP2 PUSH1 0x40 MLOAD PUSH3 0x461BCD PUSH1 0xE5 SHL DUP2 MSTORE PUSH1 0x4 ADD PUSH2 0x12C2 SWAP2 SWAP1 PUSH2 0x5006 JUMP JUMPDEST PUSH1 0x40 MLOAD DUP1 PUSH1 0xC0 ADD PUSH1 0x40 MSTORE DUP1 PUSH1 0x0 DUP2 MSTORE PUSH1 0x20 ADD PUSH1 0x0 DUP2 MSTORE PUSH1 0x20 ADD PUSH1 0x0 DUP2 MSTORE PUSH1 0x20 ADD PUSH1 0x0 DUP2 MSTORE PUSH1 0x20 ADD PUSH2 0x4E9A PUSH1 0x40 MLOAD DUP1 PUSH1 0x20 ADD PUSH1 0x40 MSTORE DUP1 PUSH1 0x0 DUP2 MSTORE POP SWAP1 JUMP JUMPDEST DUP2 MSTORE PUSH1 0x20 ADD PUSH1 0x0 DUP2 MSTORE POP SWAP1 JUMP JUMPDEST PUSH1 0x1 PUSH1 0x1 PUSH1 0xE0 SHL SUB NOT DUP2 AND DUP2 EQ PUSH2 0x1F53 JUMPI PUSH1 0x0 DUP1 REVERT JUMPDEST PUSH1 0x0 PUSH1 0x20 DUP3 DUP5 SUB SLT ISZERO PUSH2 0x4ECF JUMPI PUSH1 0x0 DUP1 REVERT JUMPDEST DUP2 CALLDATALOAD PUSH2 0x258D DUP2 PUSH2 0x4EA7 JUMP JUMPDEST PUSH4 0x4E487B71 PUSH1 0xE0 SHL PUSH1 0x0 MSTORE PUSH1 0x41 PUSH1 0x4 MSTORE PUSH1 0x24 PUSH1 0x0 REVERT JUMPDEST PUSH1 0x40 MLOAD PUSH1 0x20 DUP2 ADD PUSH1 0x1 PUSH1 0x1 PUSH1 0x40 SHL SUB DUP2 GT DUP3 DUP3 LT OR ISZERO PUSH2 0x4F12 JUMPI PUSH2 0x4F12 PUSH2 0x4EDA JUMP JUMPDEST PUSH1 0x40 MSTORE SWAP1 JUMP JUMPDEST PUSH1 0x0 DUP1 DUP3 DUP5 SUB PUSH1 0xE0 DUP2 SLT ISZERO PUSH2 0x4F2C JUMPI PUSH1 0x0 DUP1 REVERT JUMPDEST DUP4 CALLDATALOAD SWAP3 POP PUSH1 0xC0 PUSH1 0x1F NOT DUP3 ADD SLT ISZERO PUSH2 0x4F42 JUMPI PUSH1 0x0 DUP1 REVERT JUMPDEST POP PUSH1 0x40 MLOAD PUSH1 0xC0 DUP2 ADD DUP2 DUP2 LT PUSH1 0x1 PUSH1 0x1 PUSH1 0x40 SHL SUB DUP3 GT OR ISZERO PUSH2 0x4F65 JUMPI PUSH2 0x4F65 PUSH2 0x4EDA JUMP JUMPDEST DUP1 PUSH1 0x40 MSTORE POP PUSH1 0x20 DUP5 ADD CALLDATALOAD DUP2 MSTORE PUSH1 0x40 DUP5 ADD CALLDATALOAD PUSH1 0x20 DUP3 ADD MSTORE PUSH1 0x60 DUP5 ADD CALLDATALOAD PUSH1 0x40 DUP3 ADD MSTORE PUSH1 0x80 DUP5 ADD CALLDATALOAD PUSH1 0x60 DUP3 ADD MSTORE PUSH1 0xA0 DUP5 ADD CALLDATALOAD PUSH1 0x80 DUP3 ADD MSTORE PUSH1 0xC0 DUP5 ADD CALLDATALOAD PUSH1 0xA0 DUP3 ADD MSTORE DUP1 SWAP2 POP POP SWAP3 POP SWAP3 SWAP1 POP JUMP JUMPDEST PUSH1 0x0 JUMPDEST DUP4 DUP2 LT ISZERO PUSH2 0x4FC9 JUMPI DUP2 DUP2 ADD MLOAD DUP4 DUP3 ADD MSTORE PUSH1 0x20 ADD PUSH2 0x4FB1 JUMP JUMPDEST DUP4 DUP2 GT ISZERO PUSH2 0x33E7 JUMPI POP POP PUSH1 0x0 SWAP2 ADD MSTORE JUMP JUMPDEST PUSH1 0x0 DUP2 MLOAD DUP1 DUP5 MSTORE PUSH2 0x4FF2 DUP2 PUSH1 0x20 DUP7 ADD PUSH1 0x20 DUP7 ADD PUSH2 0x4FAE JUMP JUMPDEST PUSH1 0x1F ADD PUSH1 0x1F NOT AND SWAP3 SWAP1 SWAP3 ADD PUSH1 0x20 ADD SWAP3 SWAP2 POP POP JUMP JUMPDEST PUSH1 0x20 DUP2 MSTORE PUSH1 0x0 PUSH2 0x258D PUSH1 0x20 DUP4 ADD DUP5 PUSH2 0x4FDA JUMP JUMPDEST PUSH1 0x0 PUSH1 0x20 DUP3 DUP5 SUB SLT ISZERO PUSH2 0x502B JUMPI PUSH1 0x0 DUP1 REVERT JUMPDEST POP CALLDATALOAD SWAP2 SWAP1 POP JUMP JUMPDEST PUSH1 0x1 PUSH1 0x1 PUSH1 0xA0 SHL SUB DUP2 AND DUP2 EQ PUSH2 0x1F53 JUMPI PUSH1 0x0 DUP1 REVERT JUMPDEST PUSH1 0x0 DUP1 PUSH1 0x40 DUP4 DUP6 SUB SLT ISZERO PUSH2 0x505A JUMPI PUSH1 0x0 DUP1 REVERT JUMPDEST DUP3 CALLDATALOAD PUSH2 0x5065 DUP2 PUSH2 0x5032 JUMP JUMPDEST SWAP5 PUSH1 0x20 SWAP4 SWAP1 SWAP4 ADD CALLDATALOAD SWAP4 POP POP POP JUMP JUMPDEST PUSH1 0x0 DUP3 PUSH1 0x1F DUP4 ADD SLT PUSH2 0x5084 JUMPI PUSH1 0x0 DUP1 REVERT JUMPDEST DUP2 CALLDATALOAD PUSH1 0x1 PUSH1 0x1 PUSH1 0x40 SHL SUB DUP1 DUP3 GT ISZERO PUSH2 0x509E JUMPI PUSH2 0x509E PUSH2 0x4EDA JUMP JUMPDEST PUSH1 0x40 MLOAD PUSH1 0x1F DUP4 ADD PUSH1 0x1F NOT SWAP1 DUP2 AND PUSH1 0x3F ADD AND DUP2 ADD SWAP1 DUP3 DUP3 GT DUP2 DUP4 LT OR ISZERO PUSH2 0x50C6 JUMPI PUSH2 0x50C6 PUSH2 0x4EDA JUMP JUMPDEST DUP2 PUSH1 0x40 MSTORE DUP4 DUP2 MSTORE DUP7 PUSH1 0x20 DUP6 DUP9 ADD ADD GT ISZERO PUSH2 0x50DF JUMPI PUSH1 0x0 DUP1 REVERT JUMPDEST DUP4 PUSH1 0x20 DUP8 ADD PUSH1 0x20 DUP4 ADD CALLDATACOPY PUSH1 0x0 PUSH1 0x20 DUP6 DUP4 ADD ADD MSTORE DUP1 SWAP5 POP POP POP POP POP SWAP3 SWAP2 POP POP JUMP JUMPDEST PUSH1 0x0 DUP1 PUSH1 0x0 DUP1 PUSH1 0x0 PUSH1 0xA0 DUP7 DUP9 SUB SLT ISZERO PUSH2 0x5117 JUMPI PUSH1 0x0 DUP1 REVERT JUMPDEST DUP6 CALLDATALOAD PUSH2 0x5122 DUP2 PUSH2 0x5032 JUMP JUMPDEST SWAP5 POP PUSH1 0x20 DUP7 ADD CALLDATALOAD PUSH1 0x1 PUSH1 0x1 PUSH1 0x40 SHL SUB DUP2 GT ISZERO PUSH2 0x513D JUMPI PUSH1 0x0 DUP1 REVERT JUMPDEST PUSH2 0x5149 DUP9 DUP3 DUP10 ADD PUSH2 0x5073 JUMP JUMPDEST SWAP5 POP POP PUSH1 0x40 DUP7 ADD CALLDATALOAD SWAP3 POP PUSH1 0x60 DUP7 ADD CALLDATALOAD SWAP2 POP PUSH1 0x80 DUP7 ADD CALLDATALOAD PUSH1 0xFF DUP2 AND DUP2 EQ PUSH2 0x516E JUMPI PUSH1 0x0 DUP1 REVERT JUMPDEST DUP1 SWAP2 POP POP SWAP3 SWAP6 POP SWAP3 SWAP6 SWAP1 SWAP4 POP JUMP JUMPDEST PUSH1 0x0 DUP1 PUSH1 0x0 PUSH1 0x60 DUP5 DUP7 SUB SLT ISZERO PUSH2 0x5191 JUMPI PUSH1 0x0 DUP1 REVERT JUMPDEST POP POP DUP2 CALLDATALOAD SWAP4 PUSH1 0x20 DUP4 ADD CALLDATALOAD SWAP4 POP PUSH1 0x40 SWAP1 SWAP3 ADD CALLDATALOAD SWAP2 SWAP1 POP JUMP JUMPDEST PUSH1 0x0 PUSH1 0x20 DUP3 DUP5 SUB SLT ISZERO PUSH2 0x51BA JUMPI PUSH1 0x0 DUP1 REVERT JUMPDEST DUP2 CALLDATALOAD PUSH2 0x258D DUP2 PUSH2 0x5032 JUMP JUMPDEST PUSH1 0x0 DUP1 PUSH1 0x0 PUSH1 0x60 DUP5 DUP7 SUB SLT ISZERO PUSH2 0x51DA JUMPI PUSH1 0x0 DUP1 REVERT JUMPDEST DUP4 CALLDATALOAD PUSH2 0x51E5 DUP2 PUSH2 0x5032 JUMP JUMPDEST SWAP3 POP PUSH1 0x20 DUP5 ADD CALLDATALOAD PUSH2 0x51F5 DUP2 PUSH2 0x5032 JUMP JUMPDEST SWAP3 SWAP6 SWAP3 SWAP5 POP POP POP PUSH1 0x40 SWAP2 SWAP1 SWAP2 ADD CALLDATALOAD SWAP1 JUMP JUMPDEST PUSH1 0x0 DUP1 PUSH1 0x0 DUP1 PUSH1 0x80 DUP6 DUP8 SUB SLT ISZERO PUSH2 0x521C JUMPI PUSH1 0x0 DUP1 REVERT JUMPDEST DUP5 CALLDATALOAD SWAP4 POP PUSH1 0x20 DUP6 ADD CALLDATALOAD PUSH2 0x522E DUP2 PUSH2 0x5032 JUMP JUMPDEST SWAP4 SWAP7 SWAP4 SWAP6 POP POP POP POP PUSH1 0x40 DUP3 ADD CALLDATALOAD SWAP2 PUSH1 0x60 ADD CALLDATALOAD SWAP1 JUMP JUMPDEST PUSH1 0x0 DUP1 PUSH1 0x40 DUP4 DUP6 SUB SLT ISZERO PUSH2 0x5256 JUMPI PUSH1 0x0 DUP1 REVERT JUMPDEST POP POP DUP1 CALLDATALOAD SWAP3 PUSH1 0x20 SWAP1 SWAP2 ADD CALLDATALOAD SWAP2 POP JUMP JUMPDEST PUSH1 0x0 DUP1 PUSH1 0x0 DUP1 PUSH1 0x0 PUSH1 0xA0 DUP7 DUP9 SUB SLT ISZERO PUSH2 0x527D JUMPI PUSH1 0x0 DUP1 REVERT JUMPDEST DUP6 CALLDATALOAD PUSH2 0x5288 DUP2 PUSH2 0x5032 JUMP JUMPDEST SWAP8 PUSH1 0x20 DUP8 ADD CALLDATALOAD SWAP8 POP PUSH1 0x40 DUP8 ADD CALLDATALOAD SWAP7 PUSH1 0x60 DUP2 ADD CALLDATALOAD SWAP7 POP PUSH1 0x80 ADD CALLDATALOAD SWAP5 POP SWAP3 POP POP POP JUMP JUMPDEST PUSH1 0x0 DUP1 PUSH1 0x0 DUP1 PUSH1 0x0 PUSH1 0xA0 DUP7 DUP9 SUB SLT ISZERO PUSH2 0x52C1 JUMPI PUSH1 0x0 DUP1 REVERT JUMPDEST POP POP DUP4 CALLDATALOAD SWAP6 PUSH1 0x20 DUP6 ADD CALLDATALOAD SWAP6 POP PUSH1 0x40 DUP6 ADD CALLDATALOAD SWAP5 PUSH1 0x60 DUP2 ADD CALLDATALOAD SWAP5 POP PUSH1 0x80 ADD CALLDATALOAD SWAP3 POP SWAP1 POP JUMP JUMPDEST PUSH1 0x0 PUSH1 0x20 DUP3 DUP5 SUB SLT ISZERO PUSH2 0x52F6 JUMPI PUSH1 0x0 DUP1 REVERT JUMPDEST DUP2 CALLDATALOAD PUSH1 0x1 PUSH1 0x1 PUSH1 0x40 SHL SUB DUP2 GT ISZERO PUSH2 0x530C JUMPI PUSH1 0x0 DUP1 REVERT JUMPDEST PUSH2 0x1E4D DUP5 DUP3 DUP6 ADD PUSH2 0x5073 JUMP JUMPDEST DUP1 ISZERO ISZERO DUP2 EQ PUSH2 0x1F53 JUMPI PUSH1 0x0 DUP1 REVERT JUMPDEST PUSH1 0x0 DUP1 PUSH1 0x40 DUP4 DUP6 SUB SLT ISZERO PUSH2 0x5339 JUMPI PUSH1 0x0 DUP1 REVERT JUMPDEST DUP3 CALLDATALOAD PUSH2 0x5344 DUP2 PUSH2 0x5032 JUMP JUMPDEST SWAP2 POP PUSH1 0x20 DUP4 ADD CALLDATALOAD PUSH2 0x5354 DUP2 PUSH2 0x5318 JUMP JUMPDEST DUP1 SWAP2 POP POP SWAP3 POP SWAP3 SWAP1 POP JUMP JUMPDEST PUSH1 0x0 PUSH1 0x20 DUP3 DUP5 SUB SLT ISZERO PUSH2 0x5371 JUMPI PUSH1 0x0 DUP1 REVERT JUMPDEST DUP2 CALLDATALOAD PUSH2 0x258D DUP2 PUSH2 0x5318 JUMP JUMPDEST PUSH1 0x0 DUP1 PUSH1 0x0 DUP1 PUSH1 0x80 DUP6 DUP8 SUB SLT ISZERO PUSH2 0x5392 JUMPI PUSH1 0x0 DUP1 REVERT JUMPDEST DUP5 CALLDATALOAD PUSH2 0x539D DUP2 PUSH2 0x5032 JUMP JUMPDEST SWAP4 POP PUSH1 0x20 DUP6 ADD CALLDATALOAD PUSH2 0x53AD DUP2 PUSH2 0x5032 JUMP JUMPDEST SWAP3 POP PUSH1 0x40 DUP6 ADD CALLDATALOAD SWAP2 POP PUSH1 0x60 DUP6 ADD CALLDATALOAD PUSH1 0x1 PUSH1 0x1 PUSH1 0x40 SHL SUB DUP2 GT ISZERO PUSH2 0x53CF JUMPI PUSH1 0x0 DUP1 REVERT JUMPDEST PUSH2 0x53DB DUP8 DUP3 DUP9 ADD PUSH2 0x5073 JUMP JUMPDEST SWAP2 POP POP SWAP3 SWAP6 SWAP2 SWAP5 POP SWAP3 POP JUMP JUMPDEST PUSH1 0x0 DUP1 DUP4 PUSH1 0x1F DUP5 ADD SLT PUSH2 0x53F9 JUMPI PUSH1 0x0 DUP1 REVERT JUMPDEST POP DUP2 CALLDATALOAD PUSH1 0x1 PUSH1 0x1 PUSH1 0x40 SHL SUB DUP2 GT ISZERO PUSH2 0x5410 JUMPI PUSH1 0x0 DUP1 REVERT JUMPDEST PUSH1 0x20 DUP4 ADD SWAP2 POP DUP4 PUSH1 0x20 DUP3 PUSH1 0x5 SHL DUP6 ADD ADD GT ISZERO PUSH2 0x542B JUMPI PUSH1 0x0 DUP1 REVERT JUMPDEST SWAP3 POP SWAP3 SWAP1 POP JUMP JUMPDEST PUSH1 0x0 DUP1 DUP4 PUSH1 0x1F DUP5 ADD SLT PUSH2 0x5444 JUMPI PUSH1 0x0 DUP1 REVERT JUMPDEST POP DUP2 CALLDATALOAD PUSH1 0x1 PUSH1 0x1 PUSH1 0x40 SHL SUB DUP2 GT ISZERO PUSH2 0x545B JUMPI PUSH1 0x0 DUP1 REVERT JUMPDEST PUSH1 0x20 DUP4 ADD SWAP2 POP DUP4 PUSH1 0x20 DUP3 DUP6 ADD ADD GT ISZERO PUSH2 0x542B JUMPI PUSH1 0x0 DUP1 REVERT JUMPDEST PUSH1 0x0 DUP1 PUSH1 0x0 DUP1 PUSH1 0x0 DUP1 PUSH1 0x0 DUP1 PUSH1 0xA0 DUP10 DUP12 SUB SLT ISZERO PUSH2 0x548F JUMPI PUSH1 0x0 DUP1 REVERT JUMPDEST DUP9 CALLDATALOAD PUSH2 0x549A DUP2 PUSH2 0x5032 JUMP JUMPDEST SWAP8 POP PUSH1 0x20 DUP10 ADD CALLDATALOAD PUSH2 0x54AA DUP2 PUSH2 0x5032 JUMP JUMPDEST SWAP7 POP PUSH1 0x40 DUP10 ADD CALLDATALOAD PUSH1 0x1 PUSH1 0x1 PUSH1 0x40 SHL SUB DUP1 DUP3 GT ISZERO PUSH2 0x54C6 JUMPI PUSH1 0x0 DUP1 REVERT JUMPDEST PUSH2 0x54D2 DUP13 DUP4 DUP14 ADD PUSH2 0x53E7 JUMP JUMPDEST SWAP1 SWAP9 POP SWAP7 POP PUSH1 0x60 DUP12 ADD CALLDATALOAD SWAP2 POP DUP1 DUP3 GT ISZERO PUSH2 0x54EB JUMPI PUSH1 0x0 DUP1 REVERT JUMPDEST PUSH2 0x54F7 DUP13 DUP4 DUP14 ADD PUSH2 0x53E7 JUMP JUMPDEST SWAP1 SWAP7 POP SWAP5 POP PUSH1 0x80 DUP12 ADD CALLDATALOAD SWAP2 POP DUP1 DUP3 GT ISZERO PUSH2 0x5510 JUMPI PUSH1 0x0 DUP1 REVERT JUMPDEST POP PUSH2 0x551D DUP12 DUP3 DUP13 ADD PUSH2 0x5432 JUMP JUMPDEST SWAP10 SWAP13 SWAP9 SWAP12 POP SWAP7 SWAP10 POP SWAP5 SWAP8 SWAP4 SWAP7 SWAP3 SWAP6 SWAP5 POP POP POP JUMP JUMPDEST PUSH1 0x1 PUSH1 0x1 PUSH1 0xA0 SHL SUB SWAP3 SWAP1 SWAP3 AND DUP3 MSTORE PUSH1 0x20 DUP3 ADD MSTORE PUSH1 0x40 ADD SWAP1 JUMP JUMPDEST PUSH1 0x0 DUP1 PUSH1 0x0 PUSH1 0x60 DUP5 DUP7 SUB SLT ISZERO PUSH2 0x555F JUMPI PUSH1 0x0 DUP1 REVERT JUMPDEST DUP4 CALLDATALOAD SWAP3 POP PUSH1 0x20 DUP5 ADD CALLDATALOAD SWAP2 POP PUSH1 0x40 DUP5 ADD CALLDATALOAD PUSH1 0x1 PUSH1 0x1 PUSH1 0x40 SHL SUB DUP2 GT ISZERO PUSH2 0x5583 JUMPI PUSH1 0x0 DUP1 REVERT JUMPDEST PUSH2 0x558F DUP7 DUP3 DUP8 ADD PUSH2 0x5073 JUMP JUMPDEST SWAP2 POP POP SWAP3 POP SWAP3 POP SWAP3 JUMP JUMPDEST PUSH1 0x0 DUP1 PUSH1 0x40 DUP4 DUP6 SUB SLT ISZERO PUSH2 0x55AC JUMPI PUSH1 0x0 DUP1 REVERT JUMPDEST DUP3 CALLDATALOAD PUSH2 0x55B7 DUP2 PUSH2 0x5032 JUMP JUMPDEST SWAP2 POP PUSH1 0x20 DUP4 ADD CALLDATALOAD PUSH2 0x5354 DUP2 PUSH2 0x5032 JUMP JUMPDEST PUSH1 0x0 DUP1 PUSH1 0x0 DUP1 PUSH1 0x80 DUP6 DUP8 SUB SLT ISZERO PUSH2 0x55DD JUMPI PUSH1 0x0 DUP1 REVERT JUMPDEST DUP5 CALLDATALOAD SWAP4 POP PUSH1 0x20 DUP6 ADD CALLDATALOAD SWAP3 POP PUSH1 0x40 DUP6 ADD CALLDATALOAD SWAP2 POP PUSH1 0x60 DUP6 ADD CALLDATALOAD PUSH2 0x55FD DUP2 PUSH2 0x5032 JUMP JUMPDEST SWAP4 SWAP7 SWAP3 SWAP6 POP SWAP1 SWAP4 POP POP JUMP JUMPDEST PUSH1 0x0 DUP1 PUSH1 0x0 DUP1 PUSH1 0x0 DUP1 PUSH1 0xA0 DUP8 DUP10 SUB SLT ISZERO PUSH2 0x5621 JUMPI PUSH1 0x0 DUP1 REVERT JUMPDEST DUP7 CALLDATALOAD PUSH2 0x562C DUP2 PUSH2 0x5032 JUMP JUMPDEST SWAP6 POP PUSH1 0x20 DUP8 ADD CALLDATALOAD PUSH2 0x563C DUP2 PUSH2 0x5032 JUMP JUMPDEST SWAP5 POP PUSH1 0x40 DUP8 ADD CALLDATALOAD SWAP4 POP PUSH1 0x60 DUP8 ADD CALLDATALOAD SWAP3 POP PUSH1 0x80 DUP8 ADD CALLDATALOAD PUSH1 0x1 PUSH1 0x1 PUSH1 0x40 SHL SUB DUP2 GT ISZERO PUSH2 0x5665 JUMPI PUSH1 0x0 DUP1 REVERT JUMPDEST PUSH2 0x5671 DUP10 DUP3 DUP11 ADD PUSH2 0x5432 JUMP JUMPDEST SWAP8 SWAP11 SWAP7 SWAP10 POP SWAP5 SWAP8 POP SWAP3 SWAP6 SWAP4 SWAP5 SWAP3 POP POP POP JUMP JUMPDEST PUSH1 0x1 DUP2 DUP2 SHR SWAP1 DUP3 AND DUP1 PUSH2 0x5697 JUMPI PUSH1 0x7F DUP3 AND SWAP2 POP JUMPDEST PUSH1 0x20 DUP3 LT DUP2 SUB PUSH2 0x56B7 JUMPI PUSH4 0x4E487B71 PUSH1 0xE0 SHL PUSH1 0x0 MSTORE PUSH1 0x22 PUSH1 0x4 MSTORE PUSH1 0x24 PUSH1 0x0 REVERT JUMPDEST POP SWAP2 SWAP1 POP JUMP JUMPDEST PUSH1 0x1 PUSH1 0x1 PUSH1 0xA0 SHL SUB DUP5 DUP2 AND DUP3 MSTORE DUP4 AND PUSH1 0x20 DUP3 ADD MSTORE PUSH1 0x60 PUSH1 0x40 DUP3 ADD DUP2 SWAP1 MSTORE PUSH1 0x0 SWAP1 PUSH2 0x56E9 SWAP1 DUP4 ADD DUP5 PUSH2 0x4FDA JUMP JUMPDEST SWAP6 SWAP5 POP POP POP POP POP JUMP JUMPDEST PUSH1 0x0 DUP4 MLOAD PUSH2 0x5704 DUP2 DUP5 PUSH1 0x20 DUP9 ADD PUSH2 0x4FAE JUMP JUMPDEST PUSH1 0x60 SWAP4 SWAP1 SWAP4 SHL PUSH12 0xFFFFFFFFFFFFFFFFFFFFFFFF NOT AND SWAP2 SWAP1 SWAP3 ADD SWAP1 DUP2 MSTORE PUSH1 0x14 ADD SWAP3 SWAP2 POP POP JUMP JUMPDEST PUSH1 0x0 DUP3 MLOAD PUSH2 0x573B DUP2 DUP5 PUSH1 0x20 DUP8 ADD PUSH2 0x4FAE JUMP JUMPDEST SWAP2 SWAP1 SWAP2 ADD SWAP3 SWAP2 POP POP JUMP JUMPDEST PUSH1 0x20 DUP1 DUP3 MSTORE PUSH1 0x1F SWAP1 DUP3 ADD MSTORE PUSH32 0x5265656E7472616E637947756172643A207265656E7472616E742063616C6C00 PUSH1 0x40 DUP3 ADD MSTORE PUSH1 0x60 ADD SWAP1 JUMP JUMPDEST PUSH1 0x0 PUSH1 0x20 DUP3 DUP5 SUB SLT ISZERO PUSH2 0x578E JUMPI PUSH1 0x0 DUP1 REVERT JUMPDEST POP MLOAD SWAP2 SWAP1 POP JUMP JUMPDEST PUSH4 0x4E487B71 PUSH1 0xE0 SHL PUSH1 0x0 MSTORE PUSH1 0x11 PUSH1 0x4 MSTORE PUSH1 0x24 PUSH1 0x0 REVERT JUMPDEST PUSH1 0x0 DUP3 DUP3 LT ISZERO PUSH2 0x57BD JUMPI PUSH2 0x57BD PUSH2 0x5795 JUMP JUMPDEST POP SUB SWAP1 JUMP JUMPDEST PUSH1 0x0 DUP3 NOT DUP3 GT ISZERO PUSH2 0x57D5 JUMPI PUSH2 0x57D5 PUSH2 0x5795 JUMP JUMPDEST POP ADD SWAP1 JUMP JUMPDEST PUSH1 0x1 PUSH1 0x1 PUSH1 0xA0 SHL SUB SWAP4 SWAP1 SWAP4 AND DUP4 MSTORE PUSH1 0x20 DUP4 ADD SWAP2 SWAP1 SWAP2 MSTORE PUSH1 0x40 DUP3 ADD MSTORE PUSH1 0x60 ADD SWAP1 JUMP JUMPDEST PUSH1 0x20 DUP1 DUP3 MSTORE PUSH1 0xF SWAP1 DUP3 ADD MSTORE PUSH15 0x496E76616C69642061646472657373 PUSH1 0x88 SHL PUSH1 0x40 DUP3 ADD MSTORE PUSH1 0x60 ADD SWAP1 JUMP JUMPDEST PUSH1 0x20 DUP1 DUP3 MSTORE PUSH1 0x31 SWAP1 DUP3 ADD MSTORE PUSH32 0x4552433732313A207472616E736665722063616C6C6572206973206E6F74206F PUSH1 0x40 DUP3 ADD MSTORE PUSH17 0x1DDB995C881B9BDC88185C1C1C9BDD9959 PUSH1 0x7A SHL PUSH1 0x60 DUP3 ADD MSTORE PUSH1 0x80 ADD SWAP1 JUMP JUMPDEST PUSH1 0x0 PUSH1 0x20 DUP3 DUP5 SUB SLT ISZERO PUSH2 0x5887 JUMPI PUSH1 0x0 DUP1 REVERT JUMPDEST DUP2 MLOAD PUSH2 0x258D DUP2 PUSH2 0x5318 JUMP JUMPDEST PUSH4 0x4E487B71 PUSH1 0xE0 SHL PUSH1 0x0 MSTORE PUSH1 0x12 PUSH1 0x4 MSTORE PUSH1 0x24 PUSH1 0x0 REVERT JUMPDEST PUSH1 0x0 DUP3 PUSH2 0x58B7 JUMPI PUSH2 0x58B7 PUSH2 0x5892 JUMP JUMPDEST POP DIV SWAP1 JUMP JUMPDEST PUSH1 0x0 PUSH1 0x20 DUP3 DUP5 SUB SLT ISZERO PUSH2 0x58CE JUMPI PUSH1 0x0 DUP1 REVERT JUMPDEST DUP2 MLOAD PUSH2 0x258D DUP2 PUSH2 0x5032 JUMP JUMPDEST PUSH1 0x1 PUSH1 0x1 PUSH1 0xA0 SHL SUB SWAP4 DUP5 AND DUP2 MSTORE SWAP2 SWAP1 SWAP3 AND PUSH1 0x20 DUP3 ADD MSTORE PUSH1 0x40 DUP2 ADD SWAP2 SWAP1 SWAP2 MSTORE PUSH1 0x60 ADD SWAP1 JUMP JUMPDEST SWAP5 DUP6 MSTORE PUSH1 0x20 DUP6 ADD SWAP4 SWAP1 SWAP4 MSTORE PUSH1 0x40 DUP5 ADD SWAP2 SWAP1 SWAP2 MSTORE PUSH1 0x60 DUP4 ADD MSTORE PUSH1 0x80 DUP3 ADD MSTORE PUSH1 0xA0 ADD SWAP1 JUMP JUMPDEST PUSH4 0x4E487B71 PUSH1 0xE0 SHL PUSH1 0x0 MSTORE PUSH1 0x32 PUSH1 0x4 MSTORE PUSH1 0x24 PUSH1 0x0 REVERT JUMPDEST PUSH1 0x1 PUSH1 0x1 PUSH1 0xA0 SHL SUB SWAP5 DUP6 AND DUP2 MSTORE SWAP3 SWAP1 SWAP4 AND PUSH1 0x20 DUP4 ADD MSTORE PUSH1 0x40 DUP3 ADD MSTORE PUSH1 0x60 DUP2 ADD SWAP2 SWAP1 SWAP2 MSTORE PUSH1 0xA0 PUSH1 0x80 DUP3 ADD DUP2 SWAP1 MSTORE PUSH1 0x0 SWAP1 DUP3 ADD MSTORE PUSH1 0xC0 ADD SWAP1 JUMP JUMPDEST PUSH1 0x1 PUSH1 0x1 PUSH1 0xA0 SHL SUB SWAP5 SWAP1 SWAP5 AND DUP5 MSTORE PUSH1 0x20 DUP5 ADD SWAP3 SWAP1 SWAP3 MSTORE PUSH1 0x40 DUP4 ADD MSTORE PUSH1 0x60 DUP3 ADD MSTORE PUSH1 0x80 ADD SWAP1 JUMP JUMPDEST PUSH1 0x1F DUP3 GT ISZERO PUSH2 0x1404 JUMPI PUSH1 0x0 DUP2 DUP2 MSTORE PUSH1 0x20 DUP2 KECCAK256 PUSH1 0x1F DUP6 ADD PUSH1 0x5 SHR DUP2 ADD PUSH1 0x20 DUP7 LT ISZERO PUSH2 0x59BB JUMPI POP DUP1 JUMPDEST PUSH1 0x1F DUP6 ADD PUSH1 0x5 SHR DUP3 ADD SWAP2 POP JUMPDEST DUP2 DUP2 LT ISZERO PUSH2 0x59DA JUMPI DUP3 DUP2 SSTORE PUSH1 0x1 ADD PUSH2 0x59C7 JUMP JUMPDEST POP POP POP POP POP POP JUMP JUMPDEST DUP2 MLOAD PUSH1 0x1 PUSH1 0x1 PUSH1 0x40 SHL SUB DUP2 GT ISZERO PUSH2 0x59FB JUMPI PUSH2 0x59FB PUSH2 0x4EDA JUMP JUMPDEST PUSH2 0x5A0F DUP2 PUSH2 0x5A09 DUP5 SLOAD PUSH2 0x5683 JUMP JUMPDEST DUP5 PUSH2 0x5994 JUMP JUMPDEST PUSH1 0x20 DUP1 PUSH1 0x1F DUP4 GT PUSH1 0x1 DUP2 EQ PUSH2 0x5A44 JUMPI PUSH1 0x0 DUP5 ISZERO PUSH2 0x5A2C JUMPI POP DUP6 DUP4 ADD MLOAD JUMPDEST PUSH1 0x0 NOT PUSH1 0x3 DUP7 SWAP1 SHL SHR NOT AND PUSH1 0x1 DUP6 SWAP1 SHL OR DUP6 SSTORE PUSH2 0x59DA JUMP JUMPDEST PUSH1 0x0 DUP6 DUP2 MSTORE PUSH1 0x20 DUP2 KECCAK256 PUSH1 0x1F NOT DUP7 AND SWAP2 JUMPDEST DUP3 DUP2 LT ISZERO PUSH2 0x5A73 JUMPI DUP9 DUP7 ADD MLOAD DUP3 SSTORE SWAP5 DUP5 ADD SWAP5 PUSH1 0x1 SWAP1 SWAP2 ADD SWAP1 DUP5 ADD PUSH2 0x5A54 JUMP JUMPDEST POP DUP6 DUP3 LT ISZERO PUSH2 0x5A91 JUMPI DUP8 DUP6 ADD MLOAD PUSH1 0x0 NOT PUSH1 0x3 DUP9 SWAP1 SHL PUSH1 0xF8 AND SHR NOT AND DUP2 SSTORE JUMPDEST POP POP POP POP POP PUSH1 0x1 SWAP1 DUP2 SHL ADD SWAP1 SSTORE POP JUMP JUMPDEST PUSH1 0x0 DUP2 PUSH1 0x0 NOT DIV DUP4 GT DUP3 ISZERO ISZERO AND ISZERO PUSH2 0x5ABB JUMPI PUSH2 0x5ABB PUSH2 0x5795 JUMP JUMPDEST POP MUL SWAP1 JUMP JUMPDEST PUSH1 0x0 DUP1 DUP4 SLT DUP1 ISZERO PUSH1 0x1 PUSH1 0xFF SHL DUP6 ADD DUP5 SLT AND ISZERO PUSH2 0x5ADE JUMPI PUSH2 0x5ADE PUSH2 0x5795 JUMP JUMPDEST PUSH1 0x1 PUSH1 0x1 PUSH1 0xFF SHL SUB DUP5 ADD DUP4 SGT DUP2 AND ISZERO PUSH2 0x5AF9 JUMPI PUSH2 0x5AF9 PUSH2 0x5795 JUMP JUMPDEST POP POP SUB SWAP1 JUMP JUMPDEST PUSH1 0x0 DUP1 DUP3 SLT DUP1 ISZERO PUSH1 0x1 PUSH1 0x1 PUSH1 0xFF SHL SUB DUP5 SWAP1 SUB DUP6 SGT AND ISZERO PUSH2 0x5B21 JUMPI PUSH2 0x5B21 PUSH2 0x5795 JUMP JUMPDEST PUSH1 0x1 PUSH1 0xFF SHL DUP4 SWAP1 SUB DUP5 SLT DUP2 AND ISZERO PUSH2 0x5B3A JUMPI PUSH2 0x5B3A PUSH2 0x5795 JUMP JUMPDEST POP POP ADD SWAP1 JUMP JUMPDEST PUSH1 0x20 DUP1 DUP3 MSTORE DUP2 DUP2 ADD MSTORE PUSH32 0x4F776E61626C653A2063616C6C6572206973206E6F7420746865206F776E6572 PUSH1 0x40 DUP3 ADD MSTORE PUSH1 0x60 ADD SWAP1 JUMP JUMPDEST PUSH1 0x0 DUP2 DUP4 SUB PUSH1 0xC0 DUP2 SLT ISZERO PUSH2 0x5B88 JUMPI PUSH1 0x0 DUP1 REVERT JUMPDEST PUSH1 0x40 MLOAD PUSH1 0xC0 DUP2 ADD DUP2 DUP2 LT PUSH1 0x1 PUSH1 0x1 PUSH1 0x40 SHL SUB DUP3 GT OR ISZERO PUSH2 0x5BAA JUMPI PUSH2 0x5BAA PUSH2 0x4EDA JUMP JUMPDEST DUP1 PUSH1 0x40 MSTORE POP DUP4 MLOAD DUP2 MSTORE PUSH1 0x20 DUP5 ADD MLOAD PUSH1 0x20 DUP3 ADD MSTORE PUSH1 0x40 DUP5 ADD MLOAD PUSH1 0x40 DUP3 ADD MSTORE PUSH1 0x60 DUP5 ADD MLOAD PUSH1 0x60 DUP3 ADD MSTORE PUSH1 0x20 PUSH1 0x7F NOT DUP4 ADD SLT ISZERO PUSH2 0x5BE3 JUMPI PUSH1 0x0 DUP1 REVERT JUMPDEST PUSH2 0x5BEB PUSH2 0x4EF0 JUMP JUMPDEST PUSH1 0x80 DUP6 DUP2 ADD MLOAD DUP3 MSTORE DUP3 ADD MSTORE PUSH1 0xA0 SWAP4 DUP5 ADD MLOAD SWAP4 DUP2 ADD SWAP4 SWAP1 SWAP4 MSTORE POP SWAP1 SWAP3 SWAP2 POP POP JUMP JUMPDEST PUSH1 0x1 PUSH1 0x1 PUSH1 0xA0 SHL SUB SWAP6 SWAP1 SWAP6 AND DUP6 MSTORE PUSH1 0x20 DUP6 ADD SWAP4 SWAP1 SWAP4 MSTORE PUSH1 0x40 DUP5 ADD SWAP2 SWAP1 SWAP2 MSTORE PUSH1 0x60 DUP4 ADD MSTORE PUSH1 0x80 DUP3 ADD MSTORE PUSH1 0xA0 ADD SWAP1 JUMP JUMPDEST PUSH1 0x1 PUSH1 0x1 PUSH1 0xA0 SHL SUB SWAP8 SWAP1 SWAP8 AND DUP8 MSTORE PUSH1 0x20 DUP8 ADD SWAP6 SWAP1 SWAP6 MSTORE PUSH1 0x40 DUP7 ADD SWAP4 SWAP1 SWAP4 MSTORE PUSH1 0x60 DUP6 ADD SWAP2 SWAP1 SWAP2 MSTORE PUSH1 0x80 DUP5 ADD MSTORE PUSH1 0xA0 DUP4 ADD MSTORE PUSH1 0xC0 DUP3 ADD MSTORE PUSH1 0xE0 ADD SWAP1 JUMP JUMPDEST PUSH1 0x0 PUSH1 0x1 PUSH1 0xFF SHL DUP3 ADD PUSH2 0x5C89 JUMPI PUSH2 0x5C89 PUSH2 0x5795 JUMP JUMPDEST POP PUSH1 0x0 SUB SWAP1 JUMP JUMPDEST PUSH1 0x20 DUP1 DUP3 MSTORE PUSH1 0xC SWAP1 DUP3 ADD MSTORE PUSH12 0x20B23237B7399037B7363C97 PUSH1 0xA1 SHL PUSH1 0x40 DUP3 ADD MSTORE PUSH1 0x60 ADD SWAP1 JUMP JUMPDEST PUSH1 0x0 PUSH1 0x1 DUP3 ADD PUSH2 0x5CC8 JUMPI PUSH2 0x5CC8 PUSH2 0x5795 JUMP JUMPDEST POP PUSH1 0x1 ADD SWAP1 JUMP JUMPDEST PUSH1 0x0 DUP4 MLOAD PUSH2 0x5CE1 DUP2 DUP5 PUSH1 0x20 DUP9 ADD PUSH2 0x4FAE JUMP JUMPDEST DUP4 MLOAD SWAP1 DUP4 ADD SWAP1 PUSH2 0x5CF5 DUP2 DUP4 PUSH1 0x20 DUP9 ADD PUSH2 0x4FAE JUMP JUMPDEST ADD SWAP5 SWAP4 POP POP POP POP JUMP JUMPDEST PUSH1 0x0 DUP2 SLOAD PUSH2 0x5D0B DUP2 PUSH2 0x5683 JUMP JUMPDEST PUSH1 0x1 DUP3 DUP2 AND DUP1 ISZERO PUSH2 0x5D23 JUMPI PUSH1 0x1 DUP2 EQ PUSH2 0x5D38 JUMPI PUSH2 0x5D67 JUMP JUMPDEST PUSH1 0xFF NOT DUP5 AND DUP8 MSTORE DUP3 ISZERO ISZERO DUP4 MUL DUP8 ADD SWAP5 POP PUSH2 0x5D67 JUMP JUMPDEST DUP6 PUSH1 0x0 MSTORE PUSH1 0x20 DUP1 PUSH1 0x0 KECCAK256 PUSH1 0x0 JUMPDEST DUP6 DUP2 LT ISZERO PUSH2 0x5D5E JUMPI DUP2 SLOAD DUP11 DUP3 ADD MSTORE SWAP1 DUP5 ADD SWAP1 DUP3 ADD PUSH2 0x5D45 JUMP JUMPDEST POP POP POP DUP3 DUP8 ADD SWAP5 POP JUMPDEST POP POP POP POP SWAP3 SWAP2 POP POP JUMP JUMPDEST PUSH1 0x0 PUSH2 0x5D7D DUP3 DUP5 PUSH2 0x5CFE JUMP JUMPDEST PUSH7 0x746F6B656E732F PUSH1 0xC8 SHL DUP2 MSTORE PUSH1 0x7 ADD SWAP4 SWAP3 POP POP POP JUMP JUMPDEST PUSH1 0x1 DUP1 PUSH1 0xA0 SHL SUB DUP6 AND DUP2 MSTORE DUP4 PUSH1 0x20 DUP3 ADD MSTORE DUP3 PUSH1 0x40 DUP3 ADD MSTORE PUSH1 0x80 PUSH1 0x60 DUP3 ADD MSTORE PUSH1 0x0 PUSH2 0x5DC1 PUSH1 0x80 DUP4 ADD DUP5 PUSH2 0x4FDA JUMP JUMPDEST SWAP7 SWAP6 POP POP POP POP POP POP JUMP JUMPDEST PUSH1 0x0 PUSH2 0x5DD7 DUP3 DUP5 PUSH2 0x5CFE JUMP JUMPDEST PUSH9 0x636F6E74726163742F PUSH1 0xB8 SHL DUP2 MSTORE PUSH1 0x9 ADD SWAP4 SWAP3 POP POP POP JUMP JUMPDEST PUSH1 0x0 DUP3 PUSH2 0x5DFF JUMPI PUSH2 0x5DFF PUSH2 0x5892 JUMP JUMPDEST POP SMOD SWAP1 JUMP JUMPDEST PUSH1 0x20 DUP1 DUP3 MSTORE PUSH1 0x32 SWAP1 DUP3 ADD MSTORE PUSH32 0x4552433732313A207472616E7366657220746F206E6F6E204552433732315265 PUSH1 0x40 DUP3 ADD MSTORE PUSH18 0x31B2B4BB32B91034B6B83632B6B2B73A32B9 PUSH1 0x71 SHL PUSH1 0x60 DUP3 ADD MSTORE PUSH1 0x80 ADD SWAP1 JUMP JUMPDEST PUSH1 0x0 DUP3 PUSH2 0x5E65 JUMPI PUSH2 0x5E65 PUSH2 0x5892 JUMP JUMPDEST POP MOD SWAP1 JUMP JUMPDEST PUSH1 0x1 PUSH1 0x1 PUSH1 0xA0 SHL SUB DUP6 DUP2 AND DUP3 MSTORE DUP5 AND PUSH1 0x20 DUP3 ADD MSTORE PUSH1 0x40 DUP2 ADD DUP4 SWAP1 MSTORE PUSH1 0x80 PUSH1 0x60 DUP3 ADD DUP2 SWAP1 MSTORE PUSH1 0x0 SWAP1 PUSH2 0x5DC1 SWAP1 DUP4 ADD DUP5 PUSH2 0x4FDA JUMP JUMPDEST PUSH1 0x0 PUSH1 0x20 DUP3 DUP5 SUB SLT ISZERO PUSH2 0x5EAF JUMPI PUSH1 0x0 DUP1 REVERT JUMPDEST DUP2 MLOAD PUSH2 0x258D DUP2 PUSH2 0x4EA7 JUMP JUMPDEST PUSH4 0x4E487B71 PUSH1 0xE0 SHL PUSH1 0x0 MSTORE PUSH1 0x31 PUSH1 0x4 MSTORE PUSH1 0x24 PUSH1 0x0 REVERT INVALID 0x4D PUSH6 0x74615472616E PUSH20 0x616374696F6E2875696E74323536206E6F6E6365 0x2C PUSH2 0x6464 PUSH19 0x6573732066726F6D2C62797465732066756E63 PUSH21 0x696F6E5369676E61747572652935A9C2DDE5B859CB 0xF6 0x4D 0xD5 REVERT 0x2E DUP9 0xC1 PUSH8 0x64A8A622D8064361 SWAP16 0xE5 0xB0 PUSH30 0x4500CFFDDF252AD1BE2C89B69C2B068FC378DAA952BA7F163C4A11628F5 GAS 0x4D CREATE2 0x23 0xB3 0xEF LOG2 PUSH5 0x6970667358 0x22 SLT KECCAK256 SGT ADDRESS 0x2D PUSH11 0x3C6285A6618D07EFD06BC6 0xD8 0xC3 TIMESTAMP OR CREATE 0xFB 0xBA CHAINID 0xE9 BYTE RETURN 0xF8 RETURN SWAP9 0xE6 GAS DUP16 PUSH5 0x736F6C6343 STOP ADDMOD 0xF STOP CALLER ",
  "sha1": "22a1bc4cba193250ed9ddf01af80ee83bf78006e",
  "source": "// SPDX-License-Identifier:\tUNLICENSED\n\npragma solidity ^0.8.0;\n\nimport \"./Constants.sol\";\nimport \"./HeroXYZ.sol\";\nimport \"./Base.sol\";\nimport \"./MyItems.sol\";\nimport \"./BaseSpells.sol\";\nimport \"./CultureCoin.sol\";\nimport \"./BookTradable.sol\";\nimport \"./LiveTradables.sol\";\nimport \"./send_receive.sol\";\n\nimport \"../openzeppelin-solidity/contracts/token/ERC1155/IERC1155Receiver.sol\";\n\ncontract Hero is BookTradable, Receiver, IERC1155Receiver, LiveTradables /*, DaedalusClassUpgradeable: FIXME will not work until upgradable. */ {\n\tmapping(uint256 => int) private hClass;\t\t// Static...\n\tmapping(uint256 => uint256) private hSpawn;\t// The spawn point is the NBT id for the hero id.\n\n\tmapping(uint256 => uint) private hHp;\t\t// Editable by itself.  1.0 ether = 100%.\n\tmapping(uint256 => uint) private hPower;\t// Ditto for 1.0 ether being 100%.\n\n\tmapping(uint256 => int) private hAlpha;\n\tmapping(uint256 => int) private hBeta;\n\n\tmapping(uint256 => mapping(uint => uint256)) private casts;\n\tmapping(uint256 => uint) private maxPower;\t// This guy is controled from the items code.\n\tmapping(uint256 => uint) private maxHp;\t// This guy is also controled from the items code.\n\tmapping(uint256 => HPSummary) private hpSum;\n\n\tCultureCoin CC;\n\tBookTradable private NBT;\n\taddress private baseSpells;\n\tBaseSpells private spells;\n\taddress private myItems;\n\tMyItems private items;\n\n\tuint256 private basePrice;\n\tmapping(uint256 => uint256) private mintPrice;\n\n\t/// Shaman || Arcanist ||    Druid   ||  Warrior || Warlock || Shaman || Arcanist ||\t///\n\t/// The-Elements    Arcane Nature Physical     Shadow     All-The-Elements      Arcane\n\t/// +DPS+++++++DPS++---+++DPS++----TANKS--+--++DPS++++PET++HEAL+DPS++++++DPS++---++\t///\n\t/// Each + Means damage, - means support, DPS means damage per second. TANK means damage mitigated.\n\t/// HEAL means restoring hit points to pets or players, etc.\n\t/// Each class gets ~10 main abilities with pet classes getting way more.\n\t// \n        // ...Cool people here...   ...Pallys sorta go here... ...More cool people...\n\t// I don't hate pally's, they just don't exist in the scheme. :)\n\n\t//\n\t// Spell Book\t--\t150 total spells -- Each class gets 30 spells centered any where.\n\t//\n\n\t// ARCANIST --\t\tClass 15\n\t// Arcane Orb \t\t1\t\t1 Priest: Arcane Orb, Heal, Arcane Power\n\t// ...\n\t// Arcane Power\t\t15\n\t// ...\n\t// Arcane Cystal\t30\t\t30 Artifact: Arcane Crystal, Druidfire, Arcane Power\n\t//\n\n\n\t// DRUID --\t\tClass 45\n\t// Druidfire\t\t31\t\t31 Wild Spirit: Druidfire, Mangle, Arcane Crystal\n\t// ...\n\t// Mangle\t\t45\n\t// ...\n\t// Shapeshift\t\t60\t\t60 Guardian: Shapeshift, Iron Skin, Mangle\n\t//\n\n\n\t// WARRIOR --\t\tClass 75\n\t// Taunt\t\t61\t\t61 Deathknight: Taunt, Irons Skin, Shapeshift\n\t// ...\n\t// Iron Skin\t\t75\n\t// ...\n\t// Deathwish\t\t90\t\t90 Rogue: Deathwish, Shadow Pact, Iron Skin\n\t//\n\n\t// WARLOCK --\t\tClass 105\n\t// Shadow Pact\t\t91\t\t91 Demonologist: Shadow Pact, Summon, Deathwish\n\t// ...\n\t// Summon\t\t105\n\t// ...\n\t// Heal Pet\t\t120\t\t120 Hunter: Heal Pet, Summon, Totemic Insight\n\t//\n\n\t// Shaman --\t\tClass 135\n\t// Totemic Insight\t121\t\t121 Ranger: Totemic Insight, Heal Pet, Bloodlust\n\t// ...\n\t// Bloodlust\t\t135\n\t// ...\n\t// Heal\t\t\t150\t\t150 Pally: Heal, Arcane Orb, and Bloodlust\n\t//\n\n    \tconstructor (address _cCA, address _cultureCoin, address _nbt, address _registryAddress, address _baseSpells, address _myItems)\n\t\tBookTradable(\"ScarabCycle\", \"TSCH\", _registryAddress, \"https://greatlibrary.io/games/TSC/heros/\", true, MAXUINT, MAXUINT, MAXUINT, _cultureCoin, _cCA) {\n\t\tcCA = _cCA;\n\t\tCC = CultureCoin(_cultureCoin);\n\n\t\tNBT = BookTradable(_nbt);\n\t\tbaseSpells = _baseSpells;\n\t\tspells = BaseSpells(baseSpells);\n\t\tmyItems = _myItems;\n\t\titems = MyItems(_myItems);\n\n\t\tbasePrice = 0;\n\t}\t\n\tfunction getNBT() public view returns(address) {\n\t\treturn address(NBT);\n\t}\n\tfunction getSpawn(uint256 _hId) public view returns(uint256) {\n\t\treturn hSpawn[_hId];\n\t}\n\tfunction setPrice(uint256 _tokenId, uint256 _price) public {\n\t\trequire(msg.sender == NBT.ownerOf(_tokenId));\n\t\tmintPrice[_tokenId] = _price;\n\t}\n\tfunction getPrice(uint256 _tokenId) public view returns(uint) {\n\t\treturn basePrice + mintPrice[_tokenId];\n\t}\n\tevent NewHero(uint256 hId, uint256 tokenId, address to, int class, uint256 amount);\n\tfunction heroMint(uint256 _tokenId, address _to, int _class, uint256 _amount) public returns(uint256) {\n\t\tuint256 _cost = getPrice(_tokenId);\n\t\trequire(_amount >= _cost, \"Costs more.\");\n\n\t\tuint256 xAmount = CC.dexCCInFrom(msg.sender, _amount);\n\t\tuint256 msgValue = CC.dexXMTSPIn{value:xAmount}();\n\n\t\tCC.approve(address(this), msgValue);\t\t\t\t\t\t// Do it in one big approval step.\n\n\t\tuint256 halfValue = msgValue / 2;                                             \t// Divy up the spoils...\n\t\tCC.transferFrom(address(this), NBT.ownerOf(_tokenId), halfValue);\n\n                uint256 otherHalf = msgValue - halfValue;\n                uint256 quarterValue = otherHalf / 2;                                           // Authors and admins gets otherhalf the tax.\n                uint256 otherQuarter = otherHalf - quarterValue;\n\n\t\tCC.transferFrom(address(this), NBT.owner(), quarterValue);\n\n\t\tCC.burn(otherQuarter);\n\n\t\tuint256 newTokenId = _getNextTokenId();\n        \t_mint(_to, newTokenId);\n        \t_incrementTokenId();\n\n\t\t// Populate the hero.\n\t\thClass[newTokenId] = _class;\n\t\thHp[newTokenId] = 1 ether;\t\t// This is the percentage of total. To get real total ask the items.\n\t\thPower[newTokenId] = _amount;\n\t\thAlpha[newTokenId] = int(_tokenId);\t// This is sort of saying that each scene of the book is 1 away from each other..\n\t\thSpawn[newTokenId] = _tokenId;\n\n\t\temit NewHero(newTokenId, _tokenId, _to, _class, _amount);\n\n\t\treturn newTokenId;\n\t}\n\t//event HP(uint256 hId, uint256 hp);\n\tfunction getHP(uint256 _hId) public returns(uint, uint) {\n\t\tif(hHp[_hId] > 0) {\n\t\t\thHp[_hId] = items.getHPWithAmount(address(this), _hId, hHp[_hId], 0, 0);\n\t\t\t//emit HP(_hId, hHp[_hId]);\n\t\t\treturn (hHp[_hId], getCurrentPower(_hId));\n\t\t} else {\n\t\t\t//emit HP(0, 0);\n\t\t\treturn (0, 0);  // Dead ... getCurrentPower(_hId));\n\t\t}\n\t}\n\tfunction setAB(uint256 _hId, int _a, int _b) public {\n                require(msg.sender == cCA || isAddon[msg.sender]);\n\t\t\n\t\thAlpha[_hId] = _a;\n\t\thBeta[_hId] = _b;\n\t}\n\tfunction getAB(uint256 _hId) public returns(int, int) {\n\t\treturn (hAlpha[_hId], hBeta[_hId]);\n\t}\n\tevent Fizzle(uint256 hId, uint256 target, int how, uint amount, uint fizzleType);\n\tfunction fizzle(uint256 _hId, uint256 _target, int _how, uint _amount, uint _fizzleType) public {\n\t\temit Fizzle(_hId, _target, _how, _amount, _fizzleType);\n\t}\n\tevent Casting(address sender, uint256 _who, uint what, uint amount);\n\tfunction doCast(uint256 _hId, uint _whatId, uint _amount) external {\n\t\trequire(msg.sender == cCA || isAddon[msg.sender]);\n\t\tcasts[_hId][_whatId] += _amount;\n                emit Casting(msg.sender, _hId, _whatId, _amount);\n\t}\n\tevent Uncasting(address sender, uint256 _who, uint what, uint amount);\n\tfunction unCast(uint256 _hId, int _whatId, uint _amount) external returns(bool) {\n                require(msg.sender == cCA || isAddon[msg.sender]);\n\t\tif(_amount > casts[_hId][uint(_whatId)]) {\n\t\t\treturn false;\n\t\t}\n                casts[_hId][uint(_whatId)] -= _amount;\n\t\tspells.burn(address(this), uint(_whatId), _amount);\n                emit Uncasting(msg.sender, _hId, uint(_whatId), _amount);\n\t\treturn true;\n        }\n\tevent HP(uint256 _hId, uint256 target, int amount, uint256 hp, uint effect);\n\tfunction healByPercent(uint256 _hId, uint256 _target, uint _amount, int _healType, uint _effect) public {\n\t\trequire(isAddon[msg.sender] || msg.sender == cCA || msg.sender == NBT.ownerOf(hSpawn[_target]));\n\t\tuint _hpBefore = hHp[_target];\n\t\thHp[_target] += _amount;\n\t\tif(_effect > 0) items.hpByEffect(address(this), _hId, _target, _hpBefore, hHp[_target], HEAL_BY_PERCENT, _effect);\n\t\tif(hHp[_target] > 1.0 ether) {\n\t\t\thHp[_target] = 1.0 ether;\n\t\t}\n\t\temit HP(_hId, _target, int(_amount), hHp[_target], _effect);\n\t}\n\tfunction healBy(uint256 _hId, uint256 _target, uint _amount, int _healType, uint _effect) public {\n\t\trequire(isAddon[msg.sender] || msg.sender == cCA || msg.sender == NBT.ownerOf(hSpawn[_target]));\n\n\t\tuint _hpBefore = hHp[_target];\n\t\thHp[_target] = items.getHPWithAmount(address(this), _target, hHp[_target], int(_amount), _healType);\n\t\tif(_effect > 0) items.hpByEffect(address(this), _hId, _target, _hpBefore, hHp[_target], _healType, _effect);\n\n\t\temit HP(_hId, _target, int(_amount), hHp[_target], _effect);\n\t}\n        function hurtBy(uint256 _hId, uint256 _target, uint _amount, int _damageType, uint _effect) public {\t//NBT here means we are saying that bookmark holders own all heros minted from them.\n\t\trequire(isAddon[msg.sender] || msg.sender == cCA || msg.sender == NBT.ownerOf(hSpawn[_target]));\n\t\tuint _hpBefore = hHp[_target];\n\t\thHp[_target] = items.getHPWithAmount(address(this), _target, hHp[_target], -int(_amount), _damageType);\n\t\tif(_effect > 0) items.hpByEffect(address(this), _hId, _target, _hpBefore, hHp[_target], _damageType, _effect);\n\t\temit HP(_hId, _target, -int(_amount), hHp[_target], _effect);\n\t}\n\tfunction getStats(uint256 _target) public returns (Stats memory) {\n\t\treturn items.getStats(address(this), _target);\n\t}\n\tfunction setHPSummary(uint _target, HPSummary memory sum) public {\n\t\trequire(isAddon[msg.sender] || msg.sender == cCA);\n\t\thpSum[_target] = sum;\n\t}\n\tfunction getHPSumary(uint _target) public returns(HPSummary memory) {\n\t\treturn hpSum[_target];\n\t}\n\tfunction alive(uint256 _hp) public pure returns(bool) {\n                return _hp > 0;\n        }\n\tevent Power(uint256 _hId, uint256 power);\n\tfunction setMaxPower(uint256 _target, uint _maxPower) public {\n\t\trequire(isAddon[msg.sender] || msg.sender == cCA);\n\t\tmaxPower[_target] = _maxPower;\n\t}\n\tfunction setMaxHp(uint256 _target, uint _maxHp)  public {\n\t\trequire(isAddon[msg.sender] || msg.sender == cCA);\n\t\tmaxHp[_target] = _maxHp;\n\t}\n\tfunction getMaxHp(uint256 _target) public returns(uint) {\n\t\treturn maxHp[_target];\n\t}\n\tfunction getCurrentPower(uint256 _target) public returns(uint) {\n\t\tif(hHp[_target] == 0) {\n\t\t\treturn 0;\t// Dead means no power.\n\t\t} else {\n\t\t\thPower[_target] = items.getCurrentPower(address(this), _target, hPower[_target]);\n\t\t\treturn hPower[_target];\n\t\t}\n\t}\n        function powerUp(uint256 _target, uint _amount) public {\n\t\trequire(isAddon[msg.sender] || msg.sender == cCA || msg.sender == NBT.ownerOf(hSpawn[_target]));\n                hPower[_target] += _amount * 1 ether / maxPower[_target];\n\t\tif(hPower[_target] > 1.0 ether) {\n\t\t\thPower[_target] = 1.0 ether;\n\t\t}\n\t\temit Power(_target, hPower[_target]);\n\t}\n\tfunction powerDown(uint256 _target, uint _amount) public returns (uint) {\n                require(isAddon[msg.sender] || msg.sender == cCA || msg.sender == NBT.ownerOf(hSpawn[_target]));\n\t\tif(_amount > hPower[_target]) {\n\t\t\thPower[_target] = 0;\n\t\t} else {\n                \thPower[_target] -= _amount * 1 ether / maxPower[_target];\n\t\t}\n                emit Power(_target, hPower[_target]);\n        }\n\tevent Bug(address sender, address from, uint256 hId, uint256 target, int how, uint amount);\n        function bug(address _bugger, uint256 _hId, uint256 _target, int _how, uint _amount) public {\n\t\temit Bug(msg.sender, _bugger, _hId, _target, _how, _amount);\n\t}\n\tfunction _myMod(int _class) internal view returns(int) {\n\t\treturn ((_class -1) % 150) + 1;\n\t}\n\tfunction canCast(uint256 _hId, int _spell) public view returns(bool) {\n\t\treturn _spell >= _myMod(hClass[_hId]-14) && _spell <= _myMod(hClass[_hId]+15);\n\t}\n\tfunction transferSpellOut(uint256 _hId, uint _whatId, uint _amount, address _to) public { // What is the spell even though it is uint here...\n\t\trequire(ownerOf(_hId) == msg.sender || msg.sender == cCA || isAddon[msg.sender], \"You don't own this hero.\");\n\t\tcasts[_hId][_whatId] -= _amount;\n\n\t\tspells.safeTransferFrom(address(this), _to, _whatId, _amount, \"\");\n\t}\n\tfunction transferSpellIn(uint256 _hId, uint _whatId, uint _amount) public {\n\t\tspells.safeTransferFrom(msg.sender, address(this), _whatId, _amount, \"\");\n\t\tcasts[_hId][_whatId] += _amount;\n\t}\n\tfunction castsOf(uint256 _hId, uint _whatId) public view returns(uint) {\n\t\treturn casts[_hId][_whatId];\n\t}\n\tfunction onERC1155Received(address operator, address from, uint256 id, uint256 value, bytes calldata data) external returns(bytes4) {\n\t\treturn bytes4(keccak256(\"onERC1155Received(address,address,uint256,uint256,bytes)\"));\n\t}\n    \tfunction onERC1155BatchReceived(address operator, address from, uint256[] calldata ids, uint256[] calldata values, bytes calldata data) external returns(bytes4) {\n    \t\treturn bytes4(keccak256(\"onERC1155BatchReceived(address,address,uint256[],uint256[],bytes)\"));\n    \t}\n}\n\n",
  "sourcePath": "contracts/Hero.sol",
  "type": "contract"
}