{
  "abi": [
    {
      "inputs": [
        {
          "internalType": "address",
          "name": "_operator",
          "type": "address"
        },
        {
          "internalType": "address",
          "name": "_cCA",
          "type": "address"
        },
        {
          "internalType": "address",
          "name": "_gasToken",
          "type": "address"
        }
      ],
      "stateMutability": "nonpayable",
      "type": "constructor"
    },
    {
      "anonymous": false,
      "inputs": [
        {
          "indexed": true,
          "internalType": "address",
          "name": "beneficiary",
          "type": "address"
        },
        {
          "indexed": false,
          "internalType": "uint256",
          "name": "amount",
          "type": "uint256"
        }
      ],
      "name": "BalanceWithdrawn",
      "type": "event"
    },
    {
      "anonymous": false,
      "inputs": [
        {
          "indexed": true,
          "internalType": "bytes32",
          "name": "offeringId",
          "type": "bytes32"
        },
        {
          "indexed": true,
          "internalType": "address",
          "name": "buyer",
          "type": "address"
        }
      ],
      "name": "OfferingClosed",
      "type": "event"
    },
    {
      "anonymous": false,
      "inputs": [
        {
          "indexed": true,
          "internalType": "bytes32",
          "name": "offeringId",
          "type": "bytes32"
        },
        {
          "indexed": true,
          "internalType": "address",
          "name": "hostContract",
          "type": "address"
        },
        {
          "indexed": true,
          "internalType": "address",
          "name": "offerer",
          "type": "address"
        },
        {
          "indexed": false,
          "internalType": "uint256",
          "name": "tokenId",
          "type": "uint256"
        },
        {
          "indexed": false,
          "internalType": "uint256",
          "name": "price",
          "type": "uint256"
        },
        {
          "indexed": false,
          "internalType": "string",
          "name": "uri",
          "type": "string"
        }
      ],
      "name": "OfferingPlaced",
      "type": "event"
    },
    {
      "anonymous": false,
      "inputs": [
        {
          "indexed": false,
          "internalType": "address",
          "name": "previousOperator",
          "type": "address"
        },
        {
          "indexed": false,
          "internalType": "address",
          "name": "newOperator",
          "type": "address"
        }
      ],
      "name": "OperatorChanged",
      "type": "event"
    },
    {
      "inputs": [],
      "name": "addonPay",
      "outputs": [],
      "stateMutability": "payable",
      "type": "function"
    },
    {
      "inputs": [
        {
          "internalType": "address",
          "name": "_newOperator",
          "type": "address"
        }
      ],
      "name": "changeOperator",
      "outputs": [],
      "stateMutability": "nonpayable",
      "type": "function"
    },
    {
      "inputs": [
        {
          "internalType": "bytes32",
          "name": "_offeringId",
          "type": "bytes32"
        }
      ],
      "name": "closeOfferingRoyalty",
      "outputs": [],
      "stateMutability": "payable",
      "type": "function"
    },
    {
      "inputs": [
        {
          "internalType": "bytes32",
          "name": "_offeringId",
          "type": "bytes32"
        },
        {
          "internalType": "uint256",
          "name": "_amount",
          "type": "uint256"
        }
      ],
      "name": "closeOfferingRoyaltyCC",
      "outputs": [],
      "stateMutability": "nonpayable",
      "type": "function"
    },
    {
      "inputs": [
        {
          "internalType": "address",
          "name": "_hostContract",
          "type": "address"
        },
        {
          "internalType": "uint256",
          "name": "_tokenId",
          "type": "uint256"
        },
        {
          "internalType": "uint256",
          "name": "_price",
          "type": "uint256"
        }
      ],
      "name": "placeOffering",
      "outputs": [
        {
          "internalType": "bytes32",
          "name": "",
          "type": "bytes32"
        }
      ],
      "stateMutability": "nonpayable",
      "type": "function"
    },
    {
      "inputs": [
        {
          "internalType": "address",
          "name": "_offerer",
          "type": "address"
        },
        {
          "internalType": "address",
          "name": "_hostContract",
          "type": "address"
        },
        {
          "internalType": "uint256",
          "name": "_tokenId",
          "type": "uint256"
        },
        {
          "internalType": "uint256",
          "name": "_price",
          "type": "uint256"
        }
      ],
      "name": "placeOfferingOperator",
      "outputs": [
        {
          "internalType": "bytes32",
          "name": "",
          "type": "bytes32"
        }
      ],
      "stateMutability": "nonpayable",
      "type": "function"
    },
    {
      "inputs": [
        {
          "internalType": "uint256",
          "name": "_fee",
          "type": "uint256"
        }
      ],
      "name": "setFee",
      "outputs": [],
      "stateMutability": "nonpayable",
      "type": "function"
    },
    {
      "inputs": [
        {
          "internalType": "address",
          "name": "_gasToken",
          "type": "address"
        }
      ],
      "name": "setGasToken",
      "outputs": [],
      "stateMutability": "nonpayable",
      "type": "function"
    },
    {
      "inputs": [
        {
          "internalType": "address",
          "name": "_address",
          "type": "address"
        }
      ],
      "name": "viewBalances",
      "outputs": [
        {
          "internalType": "uint256",
          "name": "",
          "type": "uint256"
        }
      ],
      "stateMutability": "view",
      "type": "function"
    },
    {
      "inputs": [
        {
          "internalType": "bytes32",
          "name": "_offeringId",
          "type": "bytes32"
        }
      ],
      "name": "viewOfferingNFT",
      "outputs": [
        {
          "internalType": "address",
          "name": "",
          "type": "address"
        },
        {
          "internalType": "uint256",
          "name": "",
          "type": "uint256"
        },
        {
          "internalType": "uint256",
          "name": "",
          "type": "uint256"
        },
        {
          "internalType": "bool",
          "name": "",
          "type": "bool"
        }
      ],
      "stateMutability": "view",
      "type": "function"
    },
    {
      "inputs": [],
      "name": "withdrawBalance",
      "outputs": [],
      "stateMutability": "nonpayable",
      "type": "function"
    }
  ],
  "bytecode": "60806040523480156200001157600080fd5b50604051620016093803806200160983398101604081905262000034916200009e565b6001600081905580546001600160a01b039485166001600160a01b0319918216178255600291909155600680549385169382169390931790925560078054919093169116179055620000e8565b80516001600160a01b03811681146200009957600080fd5b919050565b600080600060608486031215620000b457600080fd5b620000bf8462000081565b9250620000cf6020850162000081565b9150620000df6040850162000081565b90509250925092565b61151180620000f86000396000f3fe60806040526004361061009c5760003560e01c8063495057be11610064578063495057be146100c15780634b5822b1146101565780635fd8c7101461018c578063684d7bfb146101a157806369fe0e2d146101b4578063ec7bca54146101d457600080fd5b806306394c9b146100a157806308ecda28146100c3578063188071e6146100e35780631e9f8aad146101165780632bc77fc914610136575b600080fd5b3480156100ad57600080fd5b506100c16100bc366004611131565b610254565b005b3480156100cf57600080fd5b506100c16100de366004611155565b61035c565b3480156100ef57600080fd5b506101036100fe366004611177565b610728565b6040519081526020015b60405180910390f35b34801561012257600080fd5b506100c1610131366004611131565b61099c565b34801561014257600080fd5b506101036101513660046111ac565b610a12565b34801561016257600080fd5b50610103610171366004611131565b6001600160a01b031660009081526005602052604090205490565b34801561019857600080fd5b506100c1610c38565b6100c16101af3660046111f2565b610d5b565b3480156101c057600080fd5b506100c16101cf3660046111f2565b611098565b3480156101e057600080fd5b506102286101ef3660046111f2565b600090815260046020819052604090912060018101546002820154600383015492909301546001600160a01b039091169360ff90911690565b604080516001600160a01b0390951685526020850193909352918301521515606082015260800161010d565b600260005414156102805760405162461bcd60e51b81526004016102779061120b565b60405180910390fd5b60026000556001546001600160a01b031633146102f95760405162461bcd60e51b815260206004820152603160248201527f6f6e6c7920746865206f70657261746f722063616e206368616e6765207468656044820152701031bab93932b73a1037b832b930ba37b960791b6064820152608401610277565b60018054336001600160a01b031982168117909255604080516001600160a01b0390921680835260208301939093527fd58299b712891143e76310d5e664c4203c940a67db37cf856bdaa3c5c76a802c910160405180910390a150506001600055565b6002600054141561037f5760405162461bcd60e51b81526004016102779061120b565b600260009081556007546040516313784abf60e31b8152336004820152602481018490526001600160a01b0390911691908290639bc255f890604401602060405180830381600087803b1580156103d557600080fd5b505af11580156103e9573d6000803e3d6000fd5b505050506040513d601f19601f8201168201806040525081019061040d9190611242565b6000858152600460205260409020600301549091508110156104415760405162461bcd60e51b81526004016102779061125b565b6000848152600460208190526040909120015460ff161515600114156104795760405162461bcd60e51b81526004016102779061128c565b60008481526004602081905260409182902060018101548154600290920154935163c43e92b160e01b81526001600160a01b0391821694859463c43e92b1946104c7941692339291016112b8565b600060405180830381600087803b1580156104e157600080fd5b505af11580156104f5573d6000803e3d6000fd5b50505060008681526004602081815260408084208301805460ff1916600117905580516326a3b99560e11b815290519394506001600160a01b03861693634d47732a938281019392829003018186803b15801561055157600080fd5b505afa158015610565573d6000803e3d6000fd5b505050506040513d601f19601f820116820180604052508101906105899190611242565b9050600060646002548561059d91906112f2565b6105a79190611311565b9050600060646105b784876112f2565b6105c19190611311565b9050816105ce8287611333565b6105d89190611333565b6000898152600460209081526040808320546001600160a01b0316835260059091528120805490919061060c90849061134a565b90915550506001546001600160a01b03166000908152600560205260408120805484929061063b90849061134a565b925050819055508060056000866001600160a01b0316638da5cb5b6040518163ffffffff1660e01b815260040160206040518083038186803b15801561068057600080fd5b505afa158015610694573d6000803e3d6000fd5b505050506040513d601f19601f820116820180604052508101906106b89190611362565b6001600160a01b03166001600160a01b0316815260200190815260200160002060008282546106e7919061134a565b9091555050604051339089907f0cfb1c3841b1ebe2ad43e9d641c358c0d40c4a10fc3c2ee73fd956a2658ed14490600090a350506001600055505050505050565b60006002600054141561074d5760405162461bcd60e51b81526004016102779061120b565b600260009081556040516331a9108f60e11b8152600481018590528591906001600160a01b03831690636352211e9060240160206040518083038186803b15801561079757600080fd5b505afa1580156107ab573d6000803e3d6000fd5b505050506040513d601f19601f820116820180604052508101906107cf9190611362565b9050336001600160a01b038216146108255760405162461bcd60e51b815260206004820152601960248201527821b0b63632b9103237b2b9903737ba1037bbb7103a37b5b2b760391b6044820152606401610277565b6000600354878760405160200161083e9392919061137f565b60408051601f1981840301815291815281516020928301206000818152600490935290822080546001600160a01b038087166001600160a01b031992831617835560018084018054928e169290931691909117909155600282018a9055600391820189905581549294509290916108b690849061134a565b909155505060405163c87b56dd60e01b8152600481018790526000906001600160a01b0385169063c87b56dd9060240160006040518083038186803b1580156108fe57600080fd5b505afa158015610912573d6000803e3d6000fd5b505050506040513d6000823e601f3d908101601f1916820160405261093a91908101906113ed565b9050826001600160a01b0316886001600160a01b0316837fedb9bcc509764747e9a869005eece6e1a1bf4936195e4454f5f0de1f64a1b9598a8a866040516109849392919061149a565b60405180910390a45060016000559695505050505050565b6006546001600160a01b03163314806109bf57506001546001600160a01b031633145b6109f05760405162461bcd60e51b81526020600482015260026024820152616e6f60f01b6044820152606401610277565b600780546001600160a01b0319166001600160a01b0392909216919091179055565b600060026000541415610a375760405162461bcd60e51b81526004016102779061120b565b60026000556001546001600160a01b03163314610aaf5760405162461bcd60e51b815260206004820152603060248201527f4f6e6c79206f70657261746f7220644170702063616e20637265617465206f6660448201526f666572696e677320746869732077617960801b6064820152608401610277565b60006003548585604051602001610ac89392919061137f565b60408051601f1981840301815291815281516020928301206000818152600490935290822080546001600160a01b03808b166001600160a01b031992831617835560018084018054928c1692909316919091179091556002820188905560039182018790558154929450929091610b4090849061134a565b9091555050600081815260046020819052604080832060010154905163c87b56dd60e01b81529182018790526001600160a01b03169190829063c87b56dd9060240160006040518083038186803b158015610b9a57600080fd5b505afa158015610bae573d6000803e3d6000fd5b505050506040513d6000823e601f3d908101601f19168201604052610bd691908101906113ed565b9050876001600160a01b0316876001600160a01b0316847fedb9bcc509764747e9a869005eece6e1a1bf4936195e4454f5f0de1f64a1b959898986604051610c209392919061149a565b60405180910390a45050600160005595945050505050565b60026000541415610c5b5760405162461bcd60e51b81526004016102779061120b565b6002600090815533815260056020526040902054610cca5760405162461bcd60e51b815260206004820152602660248201527f596f7520646f6e2774206861766520616e792062616c616e636520746f20776960448201526574686472617760d01b6064820152608401610277565b3360008181526005602052604080822054905190929183156108fc02918491818181858888f19350505050158015610d06573d6000803e3d6000fd5b503360008181526005602052604080822091909155517fddc398b321237a8d40ac914388309c2f52a08c134e4dc4ce61e32f57cb7d80f190610d4b9084815260200190565b60405180910390a2506001600055565b60026000541415610d7e5760405162461bcd60e51b81526004016102779061120b565b6002600090815581815260046020526040902060030154341015610db45760405162461bcd60e51b81526004016102779061125b565b6000818152600460208190526040909120015460ff16151560011415610dec5760405162461bcd60e51b81526004016102779061128c565b60008181526004602081905260409182902060018101548154600290920154935163c43e92b160e01b81526001600160a01b0391821694859463c43e92b194610e3a941692339291016112b8565b600060405180830381600087803b158015610e5457600080fd5b505af1158015610e68573d6000803e3d6000fd5b50505060008381526004602081815260408084208301805460ff1916600117905580516326a3b99560e11b815290519394506001600160a01b03861693634d47732a938281019392829003018186803b158015610ec457600080fd5b505afa158015610ed8573d6000803e3d6000fd5b505050506040513d601f19601f82011682018060405250810190610efc9190611242565b90506000606460025434610f1091906112f2565b610f1a9190611311565b905060006064610f2a84346112f2565b610f349190611311565b905081610f418234611333565b610f4b9190611333565b6000868152600460209081526040808320546001600160a01b03168352600590915281208054909190610f7f90849061134a565b90915550506001546001600160a01b031660009081526005602052604081208054849290610fae90849061134a565b925050819055508060056000866001600160a01b0316638da5cb5b6040518163ffffffff1660e01b815260040160206040518083038186803b158015610ff357600080fd5b505afa158015611007573d6000803e3d6000fd5b505050506040513d601f19601f8201168201806040525081019061102b9190611362565b6001600160a01b03166001600160a01b03168152602001908152602001600020600082825461105a919061134a565b9091555050604051339086907f0cfb1c3841b1ebe2ad43e9d641c358c0d40c4a10fc3c2ee73fd956a2658ed14490600090a350506001600055505050565b6001546001600160a01b031633146111145760405162461bcd60e51b815260206004820152603960248201527f4f6e6c7920746865206f70657261746f72206d6179206368616e676520746865604482015278103332b2903337b9103a34329036b0b935b2ba383630b1b29760391b6064820152608401610277565b600255565b6001600160a01b038116811461112e57600080fd5b50565b60006020828403121561114357600080fd5b813561114e81611119565b9392505050565b6000806040838503121561116857600080fd5b50508035926020909101359150565b60008060006060848603121561118c57600080fd5b833561119781611119565b95602085013595506040909401359392505050565b600080600080608085870312156111c257600080fd5b84356111cd81611119565b935060208501356111dd81611119565b93969395505050506040820135916060013590565b60006020828403121561120457600080fd5b5035919050565b6020808252601f908201527f5265656e7472616e637947756172643a207265656e7472616e742063616c6c00604082015260600190565b60006020828403121561125457600080fd5b5051919050565b6020808252601790820152764e6f7420656e6f7567682066756e647320746f2062757960481b604082015260600190565b60208082526012908201527113d999995c9a5b99c81a5cc818db1bdcd95960721b604082015260600190565b6001600160a01b039384168152919092166020820152604081019190915260600190565b634e487b7160e01b600052601160045260246000fd5b600081600019048311821515161561130c5761130c6112dc565b500290565b60008261132e57634e487b7160e01b600052601260045260246000fd5b500490565b600082821015611345576113456112dc565b500390565b6000821982111561135d5761135d6112dc565b500190565b60006020828403121561137457600080fd5b815161114e81611119565b92835260609190911b6bffffffffffffffffffffffff19166020830152603482015260540190565b634e487b7160e01b600052604160045260246000fd5b60005b838110156113d85781810151838201526020016113c0565b838111156113e7576000848401525b50505050565b6000602082840312156113ff57600080fd5b815167ffffffffffffffff8082111561141757600080fd5b818401915084601f83011261142b57600080fd5b81518181111561143d5761143d6113a7565b604051601f8201601f19908116603f01168101908382118183101715611465576114656113a7565b8160405282815287602084870101111561147e57600080fd5b61148f8360208301602088016113bd565b979650505050505050565b83815282602082015260606040820152600082518060608401526114c58160808501602087016113bd565b601f01601f19169190910160800194935050505056fea264697066735822122082a40386041442813c4b90d5943f136b5f82bda4bb9e59f93a18f6ab08a8c4f064736f6c63430008090033",
  "bytecodeSha1": "9ef1a889e63e16bf34a012786c2e263f2154c878",
  "compiler": {
    "evm_version": "istanbul",
    "optimizer": {
      "enabled": true,
      "runs": 100
    },
    "version": "0.8.9+commit.e5eed63a"
  },
  "contractName": "MarketPlace",
  "language": "Solidity",
  "natspec": {
    "kind": "dev",
    "methods": {
      "constructor": {
        "notice": "culturecoin."
      }
    },
    "version": 1
  },
  "opcodes": "PUSH1 0x80 PUSH1 0x40 MSTORE PUSH1 0x4 CALLDATASIZE LT PUSH2 0x9C JUMPI PUSH1 0x0 CALLDATALOAD PUSH1 0xE0 SHR DUP1 PUSH4 0x495057BE GT PUSH2 0x64 JUMPI DUP1 PUSH4 0x495057BE EQ PUSH2 0xC1 JUMPI DUP1 PUSH4 0x4B5822B1 EQ PUSH2 0x156 JUMPI DUP1 PUSH4 0x5FD8C710 EQ PUSH2 0x18C JUMPI DUP1 PUSH4 0x684D7BFB EQ PUSH2 0x1A1 JUMPI DUP1 PUSH4 0x69FE0E2D EQ PUSH2 0x1B4 JUMPI DUP1 PUSH4 0xEC7BCA54 EQ PUSH2 0x1D4 JUMPI PUSH1 0x0 DUP1 REVERT JUMPDEST DUP1 PUSH4 0x6394C9B EQ PUSH2 0xA1 JUMPI DUP1 PUSH4 0x8ECDA28 EQ PUSH2 0xC3 JUMPI DUP1 PUSH4 0x188071E6 EQ PUSH2 0xE3 JUMPI DUP1 PUSH4 0x1E9F8AAD EQ PUSH2 0x116 JUMPI DUP1 PUSH4 0x2BC77FC9 EQ PUSH2 0x136 JUMPI JUMPDEST PUSH1 0x0 DUP1 REVERT JUMPDEST CALLVALUE DUP1 ISZERO PUSH2 0xAD JUMPI PUSH1 0x0 DUP1 REVERT JUMPDEST POP PUSH2 0xC1 PUSH2 0xBC CALLDATASIZE PUSH1 0x4 PUSH2 0x1131 JUMP JUMPDEST PUSH2 0x254 JUMP JUMPDEST STOP JUMPDEST CALLVALUE DUP1 ISZERO PUSH2 0xCF JUMPI PUSH1 0x0 DUP1 REVERT JUMPDEST POP PUSH2 0xC1 PUSH2 0xDE CALLDATASIZE PUSH1 0x4 PUSH2 0x1155 JUMP JUMPDEST PUSH2 0x35C JUMP JUMPDEST CALLVALUE DUP1 ISZERO PUSH2 0xEF JUMPI PUSH1 0x0 DUP1 REVERT JUMPDEST POP PUSH2 0x103 PUSH2 0xFE CALLDATASIZE PUSH1 0x4 PUSH2 0x1177 JUMP JUMPDEST PUSH2 0x728 JUMP JUMPDEST PUSH1 0x40 MLOAD SWAP1 DUP2 MSTORE PUSH1 0x20 ADD JUMPDEST PUSH1 0x40 MLOAD DUP1 SWAP2 SUB SWAP1 RETURN JUMPDEST CALLVALUE DUP1 ISZERO PUSH2 0x122 JUMPI PUSH1 0x0 DUP1 REVERT JUMPDEST POP PUSH2 0xC1 PUSH2 0x131 CALLDATASIZE PUSH1 0x4 PUSH2 0x1131 JUMP JUMPDEST PUSH2 0x99C JUMP JUMPDEST CALLVALUE DUP1 ISZERO PUSH2 0x142 JUMPI PUSH1 0x0 DUP1 REVERT JUMPDEST POP PUSH2 0x103 PUSH2 0x151 CALLDATASIZE PUSH1 0x4 PUSH2 0x11AC JUMP JUMPDEST PUSH2 0xA12 JUMP JUMPDEST CALLVALUE DUP1 ISZERO PUSH2 0x162 JUMPI PUSH1 0x0 DUP1 REVERT JUMPDEST POP PUSH2 0x103 PUSH2 0x171 CALLDATASIZE PUSH1 0x4 PUSH2 0x1131 JUMP JUMPDEST PUSH1 0x1 PUSH1 0x1 PUSH1 0xA0 SHL SUB AND PUSH1 0x0 SWAP1 DUP2 MSTORE PUSH1 0x5 PUSH1 0x20 MSTORE PUSH1 0x40 SWAP1 KECCAK256 SLOAD SWAP1 JUMP JUMPDEST CALLVALUE DUP1 ISZERO PUSH2 0x198 JUMPI PUSH1 0x0 DUP1 REVERT JUMPDEST POP PUSH2 0xC1 PUSH2 0xC38 JUMP JUMPDEST PUSH2 0xC1 PUSH2 0x1AF CALLDATASIZE PUSH1 0x4 PUSH2 0x11F2 JUMP JUMPDEST PUSH2 0xD5B JUMP JUMPDEST CALLVALUE DUP1 ISZERO PUSH2 0x1C0 JUMPI PUSH1 0x0 DUP1 REVERT JUMPDEST POP PUSH2 0xC1 PUSH2 0x1CF CALLDATASIZE PUSH1 0x4 PUSH2 0x11F2 JUMP JUMPDEST PUSH2 0x1098 JUMP JUMPDEST CALLVALUE DUP1 ISZERO PUSH2 0x1E0 JUMPI PUSH1 0x0 DUP1 REVERT JUMPDEST POP PUSH2 0x228 PUSH2 0x1EF CALLDATASIZE PUSH1 0x4 PUSH2 0x11F2 JUMP JUMPDEST PUSH1 0x0 SWAP1 DUP2 MSTORE PUSH1 0x4 PUSH1 0x20 DUP2 SWAP1 MSTORE PUSH1 0x40 SWAP1 SWAP2 KECCAK256 PUSH1 0x1 DUP2 ADD SLOAD PUSH1 0x2 DUP3 ADD SLOAD PUSH1 0x3 DUP4 ADD SLOAD SWAP3 SWAP1 SWAP4 ADD SLOAD PUSH1 0x1 PUSH1 0x1 PUSH1 0xA0 SHL SUB SWAP1 SWAP2 AND SWAP4 PUSH1 0xFF SWAP1 SWAP2 AND SWAP1 JUMP JUMPDEST PUSH1 0x40 DUP1 MLOAD PUSH1 0x1 PUSH1 0x1 PUSH1 0xA0 SHL SUB SWAP1 SWAP6 AND DUP6 MSTORE PUSH1 0x20 DUP6 ADD SWAP4 SWAP1 SWAP4 MSTORE SWAP2 DUP4 ADD MSTORE ISZERO ISZERO PUSH1 0x60 DUP3 ADD MSTORE PUSH1 0x80 ADD PUSH2 0x10D JUMP JUMPDEST PUSH1 0x2 PUSH1 0x0 SLOAD EQ ISZERO PUSH2 0x280 JUMPI PUSH1 0x40 MLOAD PUSH3 0x461BCD PUSH1 0xE5 SHL DUP2 MSTORE PUSH1 0x4 ADD PUSH2 0x277 SWAP1 PUSH2 0x120B JUMP JUMPDEST PUSH1 0x40 MLOAD DUP1 SWAP2 SUB SWAP1 REVERT JUMPDEST PUSH1 0x2 PUSH1 0x0 SSTORE PUSH1 0x1 SLOAD PUSH1 0x1 PUSH1 0x1 PUSH1 0xA0 SHL SUB AND CALLER EQ PUSH2 0x2F9 JUMPI PUSH1 0x40 MLOAD PUSH3 0x461BCD PUSH1 0xE5 SHL DUP2 MSTORE PUSH1 0x20 PUSH1 0x4 DUP3 ADD MSTORE PUSH1 0x31 PUSH1 0x24 DUP3 ADD MSTORE PUSH32 0x6F6E6C7920746865206F70657261746F722063616E206368616E676520746865 PUSH1 0x44 DUP3 ADD MSTORE PUSH17 0x1031BAB93932B73A1037B832B930BA37B9 PUSH1 0x79 SHL PUSH1 0x64 DUP3 ADD MSTORE PUSH1 0x84 ADD PUSH2 0x277 JUMP JUMPDEST PUSH1 0x1 DUP1 SLOAD CALLER PUSH1 0x1 PUSH1 0x1 PUSH1 0xA0 SHL SUB NOT DUP3 AND DUP2 OR SWAP1 SWAP3 SSTORE PUSH1 0x40 DUP1 MLOAD PUSH1 0x1 PUSH1 0x1 PUSH1 0xA0 SHL SUB SWAP1 SWAP3 AND DUP1 DUP4 MSTORE PUSH1 0x20 DUP4 ADD SWAP4 SWAP1 SWAP4 MSTORE PUSH32 0xD58299B712891143E76310D5E664C4203C940A67DB37CF856BDAA3C5C76A802C SWAP2 ADD PUSH1 0x40 MLOAD DUP1 SWAP2 SUB SWAP1 LOG1 POP POP PUSH1 0x1 PUSH1 0x0 SSTORE JUMP JUMPDEST PUSH1 0x2 PUSH1 0x0 SLOAD EQ ISZERO PUSH2 0x37F JUMPI PUSH1 0x40 MLOAD PUSH3 0x461BCD PUSH1 0xE5 SHL DUP2 MSTORE PUSH1 0x4 ADD PUSH2 0x277 SWAP1 PUSH2 0x120B JUMP JUMPDEST PUSH1 0x2 PUSH1 0x0 SWAP1 DUP2 SSTORE PUSH1 0x7 SLOAD PUSH1 0x40 MLOAD PUSH4 0x13784ABF PUSH1 0xE3 SHL DUP2 MSTORE CALLER PUSH1 0x4 DUP3 ADD MSTORE PUSH1 0x24 DUP2 ADD DUP5 SWAP1 MSTORE PUSH1 0x1 PUSH1 0x1 PUSH1 0xA0 SHL SUB SWAP1 SWAP2 AND SWAP2 SWAP1 DUP3 SWAP1 PUSH4 0x9BC255F8 SWAP1 PUSH1 0x44 ADD PUSH1 0x20 PUSH1 0x40 MLOAD DUP1 DUP4 SUB DUP2 PUSH1 0x0 DUP8 DUP1 EXTCODESIZE ISZERO DUP1 ISZERO PUSH2 0x3D5 JUMPI PUSH1 0x0 DUP1 REVERT JUMPDEST POP GAS CALL ISZERO DUP1 ISZERO PUSH2 0x3E9 JUMPI RETURNDATASIZE PUSH1 0x0 DUP1 RETURNDATACOPY RETURNDATASIZE PUSH1 0x0 REVERT JUMPDEST POP POP POP POP PUSH1 0x40 MLOAD RETURNDATASIZE PUSH1 0x1F NOT PUSH1 0x1F DUP3 ADD AND DUP3 ADD DUP1 PUSH1 0x40 MSTORE POP DUP2 ADD SWAP1 PUSH2 0x40D SWAP2 SWAP1 PUSH2 0x1242 JUMP JUMPDEST PUSH1 0x0 DUP6 DUP2 MSTORE PUSH1 0x4 PUSH1 0x20 MSTORE PUSH1 0x40 SWAP1 KECCAK256 PUSH1 0x3 ADD SLOAD SWAP1 SWAP2 POP DUP2 LT ISZERO PUSH2 0x441 JUMPI PUSH1 0x40 MLOAD PUSH3 0x461BCD PUSH1 0xE5 SHL DUP2 MSTORE PUSH1 0x4 ADD PUSH2 0x277 SWAP1 PUSH2 0x125B JUMP JUMPDEST PUSH1 0x0 DUP5 DUP2 MSTORE PUSH1 0x4 PUSH1 0x20 DUP2 SWAP1 MSTORE PUSH1 0x40 SWAP1 SWAP2 KECCAK256 ADD SLOAD PUSH1 0xFF AND ISZERO ISZERO PUSH1 0x1 EQ ISZERO PUSH2 0x479 JUMPI PUSH1 0x40 MLOAD PUSH3 0x461BCD PUSH1 0xE5 SHL DUP2 MSTORE PUSH1 0x4 ADD PUSH2 0x277 SWAP1 PUSH2 0x128C JUMP JUMPDEST PUSH1 0x0 DUP5 DUP2 MSTORE PUSH1 0x4 PUSH1 0x20 DUP2 SWAP1 MSTORE PUSH1 0x40 SWAP2 DUP3 SWAP1 KECCAK256 PUSH1 0x1 DUP2 ADD SLOAD DUP2 SLOAD PUSH1 0x2 SWAP1 SWAP3 ADD SLOAD SWAP4 MLOAD PUSH4 0xC43E92B1 PUSH1 0xE0 SHL DUP2 MSTORE PUSH1 0x1 PUSH1 0x1 PUSH1 0xA0 SHL SUB SWAP2 DUP3 AND SWAP5 DUP6 SWAP5 PUSH4 0xC43E92B1 SWAP5 PUSH2 0x4C7 SWAP5 AND SWAP3 CALLER SWAP3 SWAP2 ADD PUSH2 0x12B8 JUMP JUMPDEST PUSH1 0x0 PUSH1 0x40 MLOAD DUP1 DUP4 SUB DUP2 PUSH1 0x0 DUP8 DUP1 EXTCODESIZE ISZERO DUP1 ISZERO PUSH2 0x4E1 JUMPI PUSH1 0x0 DUP1 REVERT JUMPDEST POP GAS CALL ISZERO DUP1 ISZERO PUSH2 0x4F5 JUMPI RETURNDATASIZE PUSH1 0x0 DUP1 RETURNDATACOPY RETURNDATASIZE PUSH1 0x0 REVERT JUMPDEST POP POP POP PUSH1 0x0 DUP7 DUP2 MSTORE PUSH1 0x4 PUSH1 0x20 DUP2 DUP2 MSTORE PUSH1 0x40 DUP1 DUP5 KECCAK256 DUP4 ADD DUP1 SLOAD PUSH1 0xFF NOT AND PUSH1 0x1 OR SWAP1 SSTORE DUP1 MLOAD PUSH4 0x26A3B995 PUSH1 0xE1 SHL DUP2 MSTORE SWAP1 MLOAD SWAP4 SWAP5 POP PUSH1 0x1 PUSH1 0x1 PUSH1 0xA0 SHL SUB DUP7 AND SWAP4 PUSH4 0x4D47732A SWAP4 DUP3 DUP2 ADD SWAP4 SWAP3 DUP3 SWAP1 SUB ADD DUP2 DUP7 DUP1 EXTCODESIZE ISZERO DUP1 ISZERO PUSH2 0x551 JUMPI PUSH1 0x0 DUP1 REVERT JUMPDEST POP GAS STATICCALL ISZERO DUP1 ISZERO PUSH2 0x565 JUMPI RETURNDATASIZE PUSH1 0x0 DUP1 RETURNDATACOPY RETURNDATASIZE PUSH1 0x0 REVERT JUMPDEST POP POP POP POP PUSH1 0x40 MLOAD RETURNDATASIZE PUSH1 0x1F NOT PUSH1 0x1F DUP3 ADD AND DUP3 ADD DUP1 PUSH1 0x40 MSTORE POP DUP2 ADD SWAP1 PUSH2 0x589 SWAP2 SWAP1 PUSH2 0x1242 JUMP JUMPDEST SWAP1 POP PUSH1 0x0 PUSH1 0x64 PUSH1 0x2 SLOAD DUP6 PUSH2 0x59D SWAP2 SWAP1 PUSH2 0x12F2 JUMP JUMPDEST PUSH2 0x5A7 SWAP2 SWAP1 PUSH2 0x1311 JUMP JUMPDEST SWAP1 POP PUSH1 0x0 PUSH1 0x64 PUSH2 0x5B7 DUP5 DUP8 PUSH2 0x12F2 JUMP JUMPDEST PUSH2 0x5C1 SWAP2 SWAP1 PUSH2 0x1311 JUMP JUMPDEST SWAP1 POP DUP2 PUSH2 0x5CE DUP3 DUP8 PUSH2 0x1333 JUMP JUMPDEST PUSH2 0x5D8 SWAP2 SWAP1 PUSH2 0x1333 JUMP JUMPDEST PUSH1 0x0 DUP10 DUP2 MSTORE PUSH1 0x4 PUSH1 0x20 SWAP1 DUP2 MSTORE PUSH1 0x40 DUP1 DUP4 KECCAK256 SLOAD PUSH1 0x1 PUSH1 0x1 PUSH1 0xA0 SHL SUB AND DUP4 MSTORE PUSH1 0x5 SWAP1 SWAP2 MSTORE DUP2 KECCAK256 DUP1 SLOAD SWAP1 SWAP2 SWAP1 PUSH2 0x60C SWAP1 DUP5 SWAP1 PUSH2 0x134A JUMP JUMPDEST SWAP1 SWAP2 SSTORE POP POP PUSH1 0x1 SLOAD PUSH1 0x1 PUSH1 0x1 PUSH1 0xA0 SHL SUB AND PUSH1 0x0 SWAP1 DUP2 MSTORE PUSH1 0x5 PUSH1 0x20 MSTORE PUSH1 0x40 DUP2 KECCAK256 DUP1 SLOAD DUP5 SWAP3 SWAP1 PUSH2 0x63B SWAP1 DUP5 SWAP1 PUSH2 0x134A JUMP JUMPDEST SWAP3 POP POP DUP2 SWAP1 SSTORE POP DUP1 PUSH1 0x5 PUSH1 0x0 DUP7 PUSH1 0x1 PUSH1 0x1 PUSH1 0xA0 SHL SUB AND PUSH4 0x8DA5CB5B PUSH1 0x40 MLOAD DUP2 PUSH4 0xFFFFFFFF AND PUSH1 0xE0 SHL DUP2 MSTORE PUSH1 0x4 ADD PUSH1 0x20 PUSH1 0x40 MLOAD DUP1 DUP4 SUB DUP2 DUP7 DUP1 EXTCODESIZE ISZERO DUP1 ISZERO PUSH2 0x680 JUMPI PUSH1 0x0 DUP1 REVERT JUMPDEST POP GAS STATICCALL ISZERO DUP1 ISZERO PUSH2 0x694 JUMPI RETURNDATASIZE PUSH1 0x0 DUP1 RETURNDATACOPY RETURNDATASIZE PUSH1 0x0 REVERT JUMPDEST POP POP POP POP PUSH1 0x40 MLOAD RETURNDATASIZE PUSH1 0x1F NOT PUSH1 0x1F DUP3 ADD AND DUP3 ADD DUP1 PUSH1 0x40 MSTORE POP DUP2 ADD SWAP1 PUSH2 0x6B8 SWAP2 SWAP1 PUSH2 0x1362 JUMP JUMPDEST PUSH1 0x1 PUSH1 0x1 PUSH1 0xA0 SHL SUB AND PUSH1 0x1 PUSH1 0x1 PUSH1 0xA0 SHL SUB AND DUP2 MSTORE PUSH1 0x20 ADD SWAP1 DUP2 MSTORE PUSH1 0x20 ADD PUSH1 0x0 KECCAK256 PUSH1 0x0 DUP3 DUP3 SLOAD PUSH2 0x6E7 SWAP2 SWAP1 PUSH2 0x134A JUMP JUMPDEST SWAP1 SWAP2 SSTORE POP POP PUSH1 0x40 MLOAD CALLER SWAP1 DUP10 SWAP1 PUSH32 0xCFB1C3841B1EBE2AD43E9D641C358C0D40C4A10FC3C2EE73FD956A2658ED144 SWAP1 PUSH1 0x0 SWAP1 LOG3 POP POP PUSH1 0x1 PUSH1 0x0 SSTORE POP POP POP POP POP POP JUMP JUMPDEST PUSH1 0x0 PUSH1 0x2 PUSH1 0x0 SLOAD EQ ISZERO PUSH2 0x74D JUMPI PUSH1 0x40 MLOAD PUSH3 0x461BCD PUSH1 0xE5 SHL DUP2 MSTORE PUSH1 0x4 ADD PUSH2 0x277 SWAP1 PUSH2 0x120B JUMP JUMPDEST PUSH1 0x2 PUSH1 0x0 SWAP1 DUP2 SSTORE PUSH1 0x40 MLOAD PUSH4 0x31A9108F PUSH1 0xE1 SHL DUP2 MSTORE PUSH1 0x4 DUP2 ADD DUP6 SWAP1 MSTORE DUP6 SWAP2 SWAP1 PUSH1 0x1 PUSH1 0x1 PUSH1 0xA0 SHL SUB DUP4 AND SWAP1 PUSH4 0x6352211E SWAP1 PUSH1 0x24 ADD PUSH1 0x20 PUSH1 0x40 MLOAD DUP1 DUP4 SUB DUP2 DUP7 DUP1 EXTCODESIZE ISZERO DUP1 ISZERO PUSH2 0x797 JUMPI PUSH1 0x0 DUP1 REVERT JUMPDEST POP GAS STATICCALL ISZERO DUP1 ISZERO PUSH2 0x7AB JUMPI RETURNDATASIZE PUSH1 0x0 DUP1 RETURNDATACOPY RETURNDATASIZE PUSH1 0x0 REVERT JUMPDEST POP POP POP POP PUSH1 0x40 MLOAD RETURNDATASIZE PUSH1 0x1F NOT PUSH1 0x1F DUP3 ADD AND DUP3 ADD DUP1 PUSH1 0x40 MSTORE POP DUP2 ADD SWAP1 PUSH2 0x7CF SWAP2 SWAP1 PUSH2 0x1362 JUMP JUMPDEST SWAP1 POP CALLER PUSH1 0x1 PUSH1 0x1 PUSH1 0xA0 SHL SUB DUP3 AND EQ PUSH2 0x825 JUMPI PUSH1 0x40 MLOAD PUSH3 0x461BCD PUSH1 0xE5 SHL DUP2 MSTORE PUSH1 0x20 PUSH1 0x4 DUP3 ADD MSTORE PUSH1 0x19 PUSH1 0x24 DUP3 ADD MSTORE PUSH25 0x21B0B63632B9103237B2B9903737BA1037BBB7103A37B5B2B7 PUSH1 0x39 SHL PUSH1 0x44 DUP3 ADD MSTORE PUSH1 0x64 ADD PUSH2 0x277 JUMP JUMPDEST PUSH1 0x0 PUSH1 0x3 SLOAD DUP8 DUP8 PUSH1 0x40 MLOAD PUSH1 0x20 ADD PUSH2 0x83E SWAP4 SWAP3 SWAP2 SWAP1 PUSH2 0x137F JUMP JUMPDEST PUSH1 0x40 DUP1 MLOAD PUSH1 0x1F NOT DUP2 DUP5 SUB ADD DUP2 MSTORE SWAP2 DUP2 MSTORE DUP2 MLOAD PUSH1 0x20 SWAP3 DUP4 ADD KECCAK256 PUSH1 0x0 DUP2 DUP2 MSTORE PUSH1 0x4 SWAP1 SWAP4 MSTORE SWAP1 DUP3 KECCAK256 DUP1 SLOAD PUSH1 0x1 PUSH1 0x1 PUSH1 0xA0 SHL SUB DUP1 DUP8 AND PUSH1 0x1 PUSH1 0x1 PUSH1 0xA0 SHL SUB NOT SWAP3 DUP4 AND OR DUP4 SSTORE PUSH1 0x1 DUP1 DUP5 ADD DUP1 SLOAD SWAP3 DUP15 AND SWAP3 SWAP1 SWAP4 AND SWAP2 SWAP1 SWAP2 OR SWAP1 SWAP2 SSTORE PUSH1 0x2 DUP3 ADD DUP11 SWAP1 SSTORE PUSH1 0x3 SWAP2 DUP3 ADD DUP10 SWAP1 SSTORE DUP2 SLOAD SWAP3 SWAP5 POP SWAP3 SWAP1 SWAP2 PUSH2 0x8B6 SWAP1 DUP5 SWAP1 PUSH2 0x134A JUMP JUMPDEST SWAP1 SWAP2 SSTORE POP POP PUSH1 0x40 MLOAD PUSH4 0xC87B56DD PUSH1 0xE0 SHL DUP2 MSTORE PUSH1 0x4 DUP2 ADD DUP8 SWAP1 MSTORE PUSH1 0x0 SWAP1 PUSH1 0x1 PUSH1 0x1 PUSH1 0xA0 SHL SUB DUP6 AND SWAP1 PUSH4 0xC87B56DD SWAP1 PUSH1 0x24 ADD PUSH1 0x0 PUSH1 0x40 MLOAD DUP1 DUP4 SUB DUP2 DUP7 DUP1 EXTCODESIZE ISZERO DUP1 ISZERO PUSH2 0x8FE JUMPI PUSH1 0x0 DUP1 REVERT JUMPDEST POP GAS STATICCALL ISZERO DUP1 ISZERO PUSH2 0x912 JUMPI RETURNDATASIZE PUSH1 0x0 DUP1 RETURNDATACOPY RETURNDATASIZE PUSH1 0x0 REVERT JUMPDEST POP POP POP POP PUSH1 0x40 MLOAD RETURNDATASIZE PUSH1 0x0 DUP3 RETURNDATACOPY PUSH1 0x1F RETURNDATASIZE SWAP1 DUP2 ADD PUSH1 0x1F NOT AND DUP3 ADD PUSH1 0x40 MSTORE PUSH2 0x93A SWAP2 SWAP1 DUP2 ADD SWAP1 PUSH2 0x13ED JUMP JUMPDEST SWAP1 POP DUP3 PUSH1 0x1 PUSH1 0x1 PUSH1 0xA0 SHL SUB AND DUP9 PUSH1 0x1 PUSH1 0x1 PUSH1 0xA0 SHL SUB AND DUP4 PUSH32 0xEDB9BCC509764747E9A869005EECE6E1A1BF4936195E4454F5F0DE1F64A1B959 DUP11 DUP11 DUP7 PUSH1 0x40 MLOAD PUSH2 0x984 SWAP4 SWAP3 SWAP2 SWAP1 PUSH2 0x149A JUMP JUMPDEST PUSH1 0x40 MLOAD DUP1 SWAP2 SUB SWAP1 LOG4 POP PUSH1 0x1 PUSH1 0x0 SSTORE SWAP7 SWAP6 POP POP POP POP POP POP JUMP JUMPDEST PUSH1 0x6 SLOAD PUSH1 0x1 PUSH1 0x1 PUSH1 0xA0 SHL SUB AND CALLER EQ DUP1 PUSH2 0x9BF JUMPI POP PUSH1 0x1 SLOAD PUSH1 0x1 PUSH1 0x1 PUSH1 0xA0 SHL SUB AND CALLER EQ JUMPDEST PUSH2 0x9F0 JUMPI PUSH1 0x40 MLOAD PUSH3 0x461BCD PUSH1 0xE5 SHL DUP2 MSTORE PUSH1 0x20 PUSH1 0x4 DUP3 ADD MSTORE PUSH1 0x2 PUSH1 0x24 DUP3 ADD MSTORE PUSH2 0x6E6F PUSH1 0xF0 SHL PUSH1 0x44 DUP3 ADD MSTORE PUSH1 0x64 ADD PUSH2 0x277 JUMP JUMPDEST PUSH1 0x7 DUP1 SLOAD PUSH1 0x1 PUSH1 0x1 PUSH1 0xA0 SHL SUB NOT AND PUSH1 0x1 PUSH1 0x1 PUSH1 0xA0 SHL SUB SWAP3 SWAP1 SWAP3 AND SWAP2 SWAP1 SWAP2 OR SWAP1 SSTORE JUMP JUMPDEST PUSH1 0x0 PUSH1 0x2 PUSH1 0x0 SLOAD EQ ISZERO PUSH2 0xA37 JUMPI PUSH1 0x40 MLOAD PUSH3 0x461BCD PUSH1 0xE5 SHL DUP2 MSTORE PUSH1 0x4 ADD PUSH2 0x277 SWAP1 PUSH2 0x120B JUMP JUMPDEST PUSH1 0x2 PUSH1 0x0 SSTORE PUSH1 0x1 SLOAD PUSH1 0x1 PUSH1 0x1 PUSH1 0xA0 SHL SUB AND CALLER EQ PUSH2 0xAAF JUMPI PUSH1 0x40 MLOAD PUSH3 0x461BCD PUSH1 0xE5 SHL DUP2 MSTORE PUSH1 0x20 PUSH1 0x4 DUP3 ADD MSTORE PUSH1 0x30 PUSH1 0x24 DUP3 ADD MSTORE PUSH32 0x4F6E6C79206F70657261746F7220644170702063616E20637265617465206F66 PUSH1 0x44 DUP3 ADD MSTORE PUSH16 0x666572696E6773207468697320776179 PUSH1 0x80 SHL PUSH1 0x64 DUP3 ADD MSTORE PUSH1 0x84 ADD PUSH2 0x277 JUMP JUMPDEST PUSH1 0x0 PUSH1 0x3 SLOAD DUP6 DUP6 PUSH1 0x40 MLOAD PUSH1 0x20 ADD PUSH2 0xAC8 SWAP4 SWAP3 SWAP2 SWAP1 PUSH2 0x137F JUMP JUMPDEST PUSH1 0x40 DUP1 MLOAD PUSH1 0x1F NOT DUP2 DUP5 SUB ADD DUP2 MSTORE SWAP2 DUP2 MSTORE DUP2 MLOAD PUSH1 0x20 SWAP3 DUP4 ADD KECCAK256 PUSH1 0x0 DUP2 DUP2 MSTORE PUSH1 0x4 SWAP1 SWAP4 MSTORE SWAP1 DUP3 KECCAK256 DUP1 SLOAD PUSH1 0x1 PUSH1 0x1 PUSH1 0xA0 SHL SUB DUP1 DUP12 AND PUSH1 0x1 PUSH1 0x1 PUSH1 0xA0 SHL SUB NOT SWAP3 DUP4 AND OR DUP4 SSTORE PUSH1 0x1 DUP1 DUP5 ADD DUP1 SLOAD SWAP3 DUP13 AND SWAP3 SWAP1 SWAP4 AND SWAP2 SWAP1 SWAP2 OR SWAP1 SWAP2 SSTORE PUSH1 0x2 DUP3 ADD DUP9 SWAP1 SSTORE PUSH1 0x3 SWAP2 DUP3 ADD DUP8 SWAP1 SSTORE DUP2 SLOAD SWAP3 SWAP5 POP SWAP3 SWAP1 SWAP2 PUSH2 0xB40 SWAP1 DUP5 SWAP1 PUSH2 0x134A JUMP JUMPDEST SWAP1 SWAP2 SSTORE POP POP PUSH1 0x0 DUP2 DUP2 MSTORE PUSH1 0x4 PUSH1 0x20 DUP2 SWAP1 MSTORE PUSH1 0x40 DUP1 DUP4 KECCAK256 PUSH1 0x1 ADD SLOAD SWAP1 MLOAD PUSH4 0xC87B56DD PUSH1 0xE0 SHL DUP2 MSTORE SWAP2 DUP3 ADD DUP8 SWAP1 MSTORE PUSH1 0x1 PUSH1 0x1 PUSH1 0xA0 SHL SUB AND SWAP2 SWAP1 DUP3 SWAP1 PUSH4 0xC87B56DD SWAP1 PUSH1 0x24 ADD PUSH1 0x0 PUSH1 0x40 MLOAD DUP1 DUP4 SUB DUP2 DUP7 DUP1 EXTCODESIZE ISZERO DUP1 ISZERO PUSH2 0xB9A JUMPI PUSH1 0x0 DUP1 REVERT JUMPDEST POP GAS STATICCALL ISZERO DUP1 ISZERO PUSH2 0xBAE JUMPI RETURNDATASIZE PUSH1 0x0 DUP1 RETURNDATACOPY RETURNDATASIZE PUSH1 0x0 REVERT JUMPDEST POP POP POP POP PUSH1 0x40 MLOAD RETURNDATASIZE PUSH1 0x0 DUP3 RETURNDATACOPY PUSH1 0x1F RETURNDATASIZE SWAP1 DUP2 ADD PUSH1 0x1F NOT AND DUP3 ADD PUSH1 0x40 MSTORE PUSH2 0xBD6 SWAP2 SWAP1 DUP2 ADD SWAP1 PUSH2 0x13ED JUMP JUMPDEST SWAP1 POP DUP8 PUSH1 0x1 PUSH1 0x1 PUSH1 0xA0 SHL SUB AND DUP8 PUSH1 0x1 PUSH1 0x1 PUSH1 0xA0 SHL SUB AND DUP5 PUSH32 0xEDB9BCC509764747E9A869005EECE6E1A1BF4936195E4454F5F0DE1F64A1B959 DUP10 DUP10 DUP7 PUSH1 0x40 MLOAD PUSH2 0xC20 SWAP4 SWAP3 SWAP2 SWAP1 PUSH2 0x149A JUMP JUMPDEST PUSH1 0x40 MLOAD DUP1 SWAP2 SUB SWAP1 LOG4 POP POP PUSH1 0x1 PUSH1 0x0 SSTORE SWAP6 SWAP5 POP POP POP POP POP JUMP JUMPDEST PUSH1 0x2 PUSH1 0x0 SLOAD EQ ISZERO PUSH2 0xC5B JUMPI PUSH1 0x40 MLOAD PUSH3 0x461BCD PUSH1 0xE5 SHL DUP2 MSTORE PUSH1 0x4 ADD PUSH2 0x277 SWAP1 PUSH2 0x120B JUMP JUMPDEST PUSH1 0x2 PUSH1 0x0 SWAP1 DUP2 SSTORE CALLER DUP2 MSTORE PUSH1 0x5 PUSH1 0x20 MSTORE PUSH1 0x40 SWAP1 KECCAK256 SLOAD PUSH2 0xCCA JUMPI PUSH1 0x40 MLOAD PUSH3 0x461BCD PUSH1 0xE5 SHL DUP2 MSTORE PUSH1 0x20 PUSH1 0x4 DUP3 ADD MSTORE PUSH1 0x26 PUSH1 0x24 DUP3 ADD MSTORE PUSH32 0x596F7520646F6E2774206861766520616E792062616C616E636520746F207769 PUSH1 0x44 DUP3 ADD MSTORE PUSH6 0x746864726177 PUSH1 0xD0 SHL PUSH1 0x64 DUP3 ADD MSTORE PUSH1 0x84 ADD PUSH2 0x277 JUMP JUMPDEST CALLER PUSH1 0x0 DUP2 DUP2 MSTORE PUSH1 0x5 PUSH1 0x20 MSTORE PUSH1 0x40 DUP1 DUP3 KECCAK256 SLOAD SWAP1 MLOAD SWAP1 SWAP3 SWAP2 DUP4 ISZERO PUSH2 0x8FC MUL SWAP2 DUP5 SWAP2 DUP2 DUP2 DUP2 DUP6 DUP9 DUP9 CALL SWAP4 POP POP POP POP ISZERO DUP1 ISZERO PUSH2 0xD06 JUMPI RETURNDATASIZE PUSH1 0x0 DUP1 RETURNDATACOPY RETURNDATASIZE PUSH1 0x0 REVERT JUMPDEST POP CALLER PUSH1 0x0 DUP2 DUP2 MSTORE PUSH1 0x5 PUSH1 0x20 MSTORE PUSH1 0x40 DUP1 DUP3 KECCAK256 SWAP2 SWAP1 SWAP2 SSTORE MLOAD PUSH32 0xDDC398B321237A8D40AC914388309C2F52A08C134E4DC4CE61E32F57CB7D80F1 SWAP1 PUSH2 0xD4B SWAP1 DUP5 DUP2 MSTORE PUSH1 0x20 ADD SWAP1 JUMP JUMPDEST PUSH1 0x40 MLOAD DUP1 SWAP2 SUB SWAP1 LOG2 POP PUSH1 0x1 PUSH1 0x0 SSTORE JUMP JUMPDEST PUSH1 0x2 PUSH1 0x0 SLOAD EQ ISZERO PUSH2 0xD7E JUMPI PUSH1 0x40 MLOAD PUSH3 0x461BCD PUSH1 0xE5 SHL DUP2 MSTORE PUSH1 0x4 ADD PUSH2 0x277 SWAP1 PUSH2 0x120B JUMP JUMPDEST PUSH1 0x2 PUSH1 0x0 SWAP1 DUP2 SSTORE DUP2 DUP2 MSTORE PUSH1 0x4 PUSH1 0x20 MSTORE PUSH1 0x40 SWAP1 KECCAK256 PUSH1 0x3 ADD SLOAD CALLVALUE LT ISZERO PUSH2 0xDB4 JUMPI PUSH1 0x40 MLOAD PUSH3 0x461BCD PUSH1 0xE5 SHL DUP2 MSTORE PUSH1 0x4 ADD PUSH2 0x277 SWAP1 PUSH2 0x125B JUMP JUMPDEST PUSH1 0x0 DUP2 DUP2 MSTORE PUSH1 0x4 PUSH1 0x20 DUP2 SWAP1 MSTORE PUSH1 0x40 SWAP1 SWAP2 KECCAK256 ADD SLOAD PUSH1 0xFF AND ISZERO ISZERO PUSH1 0x1 EQ ISZERO PUSH2 0xDEC JUMPI PUSH1 0x40 MLOAD PUSH3 0x461BCD PUSH1 0xE5 SHL DUP2 MSTORE PUSH1 0x4 ADD PUSH2 0x277 SWAP1 PUSH2 0x128C JUMP JUMPDEST PUSH1 0x0 DUP2 DUP2 MSTORE PUSH1 0x4 PUSH1 0x20 DUP2 SWAP1 MSTORE PUSH1 0x40 SWAP2 DUP3 SWAP1 KECCAK256 PUSH1 0x1 DUP2 ADD SLOAD DUP2 SLOAD PUSH1 0x2 SWAP1 SWAP3 ADD SLOAD SWAP4 MLOAD PUSH4 0xC43E92B1 PUSH1 0xE0 SHL DUP2 MSTORE PUSH1 0x1 PUSH1 0x1 PUSH1 0xA0 SHL SUB SWAP2 DUP3 AND SWAP5 DUP6 SWAP5 PUSH4 0xC43E92B1 SWAP5 PUSH2 0xE3A SWAP5 AND SWAP3 CALLER SWAP3 SWAP2 ADD PUSH2 0x12B8 JUMP JUMPDEST PUSH1 0x0 PUSH1 0x40 MLOAD DUP1 DUP4 SUB DUP2 PUSH1 0x0 DUP8 DUP1 EXTCODESIZE ISZERO DUP1 ISZERO PUSH2 0xE54 JUMPI PUSH1 0x0 DUP1 REVERT JUMPDEST POP GAS CALL ISZERO DUP1 ISZERO PUSH2 0xE68 JUMPI RETURNDATASIZE PUSH1 0x0 DUP1 RETURNDATACOPY RETURNDATASIZE PUSH1 0x0 REVERT JUMPDEST POP POP POP PUSH1 0x0 DUP4 DUP2 MSTORE PUSH1 0x4 PUSH1 0x20 DUP2 DUP2 MSTORE PUSH1 0x40 DUP1 DUP5 KECCAK256 DUP4 ADD DUP1 SLOAD PUSH1 0xFF NOT AND PUSH1 0x1 OR SWAP1 SSTORE DUP1 MLOAD PUSH4 0x26A3B995 PUSH1 0xE1 SHL DUP2 MSTORE SWAP1 MLOAD SWAP4 SWAP5 POP PUSH1 0x1 PUSH1 0x1 PUSH1 0xA0 SHL SUB DUP7 AND SWAP4 PUSH4 0x4D47732A SWAP4 DUP3 DUP2 ADD SWAP4 SWAP3 DUP3 SWAP1 SUB ADD DUP2 DUP7 DUP1 EXTCODESIZE ISZERO DUP1 ISZERO PUSH2 0xEC4 JUMPI PUSH1 0x0 DUP1 REVERT JUMPDEST POP GAS STATICCALL ISZERO DUP1 ISZERO PUSH2 0xED8 JUMPI RETURNDATASIZE PUSH1 0x0 DUP1 RETURNDATACOPY RETURNDATASIZE PUSH1 0x0 REVERT JUMPDEST POP POP POP POP PUSH1 0x40 MLOAD RETURNDATASIZE PUSH1 0x1F NOT PUSH1 0x1F DUP3 ADD AND DUP3 ADD DUP1 PUSH1 0x40 MSTORE POP DUP2 ADD SWAP1 PUSH2 0xEFC SWAP2 SWAP1 PUSH2 0x1242 JUMP JUMPDEST SWAP1 POP PUSH1 0x0 PUSH1 0x64 PUSH1 0x2 SLOAD CALLVALUE PUSH2 0xF10 SWAP2 SWAP1 PUSH2 0x12F2 JUMP JUMPDEST PUSH2 0xF1A SWAP2 SWAP1 PUSH2 0x1311 JUMP JUMPDEST SWAP1 POP PUSH1 0x0 PUSH1 0x64 PUSH2 0xF2A DUP5 CALLVALUE PUSH2 0x12F2 JUMP JUMPDEST PUSH2 0xF34 SWAP2 SWAP1 PUSH2 0x1311 JUMP JUMPDEST SWAP1 POP DUP2 PUSH2 0xF41 DUP3 CALLVALUE PUSH2 0x1333 JUMP JUMPDEST PUSH2 0xF4B SWAP2 SWAP1 PUSH2 0x1333 JUMP JUMPDEST PUSH1 0x0 DUP7 DUP2 MSTORE PUSH1 0x4 PUSH1 0x20 SWAP1 DUP2 MSTORE PUSH1 0x40 DUP1 DUP4 KECCAK256 SLOAD PUSH1 0x1 PUSH1 0x1 PUSH1 0xA0 SHL SUB AND DUP4 MSTORE PUSH1 0x5 SWAP1 SWAP2 MSTORE DUP2 KECCAK256 DUP1 SLOAD SWAP1 SWAP2 SWAP1 PUSH2 0xF7F SWAP1 DUP5 SWAP1 PUSH2 0x134A JUMP JUMPDEST SWAP1 SWAP2 SSTORE POP POP PUSH1 0x1 SLOAD PUSH1 0x1 PUSH1 0x1 PUSH1 0xA0 SHL SUB AND PUSH1 0x0 SWAP1 DUP2 MSTORE PUSH1 0x5 PUSH1 0x20 MSTORE PUSH1 0x40 DUP2 KECCAK256 DUP1 SLOAD DUP5 SWAP3 SWAP1 PUSH2 0xFAE SWAP1 DUP5 SWAP1 PUSH2 0x134A JUMP JUMPDEST SWAP3 POP POP DUP2 SWAP1 SSTORE POP DUP1 PUSH1 0x5 PUSH1 0x0 DUP7 PUSH1 0x1 PUSH1 0x1 PUSH1 0xA0 SHL SUB AND PUSH4 0x8DA5CB5B PUSH1 0x40 MLOAD DUP2 PUSH4 0xFFFFFFFF AND PUSH1 0xE0 SHL DUP2 MSTORE PUSH1 0x4 ADD PUSH1 0x20 PUSH1 0x40 MLOAD DUP1 DUP4 SUB DUP2 DUP7 DUP1 EXTCODESIZE ISZERO DUP1 ISZERO PUSH2 0xFF3 JUMPI PUSH1 0x0 DUP1 REVERT JUMPDEST POP GAS STATICCALL ISZERO DUP1 ISZERO PUSH2 0x1007 JUMPI RETURNDATASIZE PUSH1 0x0 DUP1 RETURNDATACOPY RETURNDATASIZE PUSH1 0x0 REVERT JUMPDEST POP POP POP POP PUSH1 0x40 MLOAD RETURNDATASIZE PUSH1 0x1F NOT PUSH1 0x1F DUP3 ADD AND DUP3 ADD DUP1 PUSH1 0x40 MSTORE POP DUP2 ADD SWAP1 PUSH2 0x102B SWAP2 SWAP1 PUSH2 0x1362 JUMP JUMPDEST PUSH1 0x1 PUSH1 0x1 PUSH1 0xA0 SHL SUB AND PUSH1 0x1 PUSH1 0x1 PUSH1 0xA0 SHL SUB AND DUP2 MSTORE PUSH1 0x20 ADD SWAP1 DUP2 MSTORE PUSH1 0x20 ADD PUSH1 0x0 KECCAK256 PUSH1 0x0 DUP3 DUP3 SLOAD PUSH2 0x105A SWAP2 SWAP1 PUSH2 0x134A JUMP JUMPDEST SWAP1 SWAP2 SSTORE POP POP PUSH1 0x40 MLOAD CALLER SWAP1 DUP7 SWAP1 PUSH32 0xCFB1C3841B1EBE2AD43E9D641C358C0D40C4A10FC3C2EE73FD956A2658ED144 SWAP1 PUSH1 0x0 SWAP1 LOG3 POP POP PUSH1 0x1 PUSH1 0x0 SSTORE POP POP POP JUMP JUMPDEST PUSH1 0x1 SLOAD PUSH1 0x1 PUSH1 0x1 PUSH1 0xA0 SHL SUB AND CALLER EQ PUSH2 0x1114 JUMPI PUSH1 0x40 MLOAD PUSH3 0x461BCD PUSH1 0xE5 SHL DUP2 MSTORE PUSH1 0x20 PUSH1 0x4 DUP3 ADD MSTORE PUSH1 0x39 PUSH1 0x24 DUP3 ADD MSTORE PUSH32 0x4F6E6C7920746865206F70657261746F72206D6179206368616E676520746865 PUSH1 0x44 DUP3 ADD MSTORE PUSH25 0x103332B2903337B9103A34329036B0B935B2BA383630B1B297 PUSH1 0x39 SHL PUSH1 0x64 DUP3 ADD MSTORE PUSH1 0x84 ADD PUSH2 0x277 JUMP JUMPDEST PUSH1 0x2 SSTORE JUMP JUMPDEST PUSH1 0x1 PUSH1 0x1 PUSH1 0xA0 SHL SUB DUP2 AND DUP2 EQ PUSH2 0x112E JUMPI PUSH1 0x0 DUP1 REVERT JUMPDEST POP JUMP JUMPDEST PUSH1 0x0 PUSH1 0x20 DUP3 DUP5 SUB SLT ISZERO PUSH2 0x1143 JUMPI PUSH1 0x0 DUP1 REVERT JUMPDEST DUP2 CALLDATALOAD PUSH2 0x114E DUP2 PUSH2 0x1119 JUMP JUMPDEST SWAP4 SWAP3 POP POP POP JUMP JUMPDEST PUSH1 0x0 DUP1 PUSH1 0x40 DUP4 DUP6 SUB SLT ISZERO PUSH2 0x1168 JUMPI PUSH1 0x0 DUP1 REVERT JUMPDEST POP POP DUP1 CALLDATALOAD SWAP3 PUSH1 0x20 SWAP1 SWAP2 ADD CALLDATALOAD SWAP2 POP JUMP JUMPDEST PUSH1 0x0 DUP1 PUSH1 0x0 PUSH1 0x60 DUP5 DUP7 SUB SLT ISZERO PUSH2 0x118C JUMPI PUSH1 0x0 DUP1 REVERT JUMPDEST DUP4 CALLDATALOAD PUSH2 0x1197 DUP2 PUSH2 0x1119 JUMP JUMPDEST SWAP6 PUSH1 0x20 DUP6 ADD CALLDATALOAD SWAP6 POP PUSH1 0x40 SWAP1 SWAP5 ADD CALLDATALOAD SWAP4 SWAP3 POP POP POP JUMP JUMPDEST PUSH1 0x0 DUP1 PUSH1 0x0 DUP1 PUSH1 0x80 DUP6 DUP8 SUB SLT ISZERO PUSH2 0x11C2 JUMPI PUSH1 0x0 DUP1 REVERT JUMPDEST DUP5 CALLDATALOAD PUSH2 0x11CD DUP2 PUSH2 0x1119 JUMP JUMPDEST SWAP4 POP PUSH1 0x20 DUP6 ADD CALLDATALOAD PUSH2 0x11DD DUP2 PUSH2 0x1119 JUMP JUMPDEST SWAP4 SWAP7 SWAP4 SWAP6 POP POP POP POP PUSH1 0x40 DUP3 ADD CALLDATALOAD SWAP2 PUSH1 0x60 ADD CALLDATALOAD SWAP1 JUMP JUMPDEST PUSH1 0x0 PUSH1 0x20 DUP3 DUP5 SUB SLT ISZERO PUSH2 0x1204 JUMPI PUSH1 0x0 DUP1 REVERT JUMPDEST POP CALLDATALOAD SWAP2 SWAP1 POP JUMP JUMPDEST PUSH1 0x20 DUP1 DUP3 MSTORE PUSH1 0x1F SWAP1 DUP3 ADD MSTORE PUSH32 0x5265656E7472616E637947756172643A207265656E7472616E742063616C6C00 PUSH1 0x40 DUP3 ADD MSTORE PUSH1 0x60 ADD SWAP1 JUMP JUMPDEST PUSH1 0x0 PUSH1 0x20 DUP3 DUP5 SUB SLT ISZERO PUSH2 0x1254 JUMPI PUSH1 0x0 DUP1 REVERT JUMPDEST POP MLOAD SWAP2 SWAP1 POP JUMP JUMPDEST PUSH1 0x20 DUP1 DUP3 MSTORE PUSH1 0x17 SWAP1 DUP3 ADD MSTORE PUSH23 0x4E6F7420656E6F7567682066756E647320746F20627579 PUSH1 0x48 SHL PUSH1 0x40 DUP3 ADD MSTORE PUSH1 0x60 ADD SWAP1 JUMP JUMPDEST PUSH1 0x20 DUP1 DUP3 MSTORE PUSH1 0x12 SWAP1 DUP3 ADD MSTORE PUSH18 0x13D999995C9A5B99C81A5CC818DB1BDCD959 PUSH1 0x72 SHL PUSH1 0x40 DUP3 ADD MSTORE PUSH1 0x60 ADD SWAP1 JUMP JUMPDEST PUSH1 0x1 PUSH1 0x1 PUSH1 0xA0 SHL SUB SWAP4 DUP5 AND DUP2 MSTORE SWAP2 SWAP1 SWAP3 AND PUSH1 0x20 DUP3 ADD MSTORE PUSH1 0x40 DUP2 ADD SWAP2 SWAP1 SWAP2 MSTORE PUSH1 0x60 ADD SWAP1 JUMP JUMPDEST PUSH4 0x4E487B71 PUSH1 0xE0 SHL PUSH1 0x0 MSTORE PUSH1 0x11 PUSH1 0x4 MSTORE PUSH1 0x24 PUSH1 0x0 REVERT JUMPDEST PUSH1 0x0 DUP2 PUSH1 0x0 NOT DIV DUP4 GT DUP3 ISZERO ISZERO AND ISZERO PUSH2 0x130C JUMPI PUSH2 0x130C PUSH2 0x12DC JUMP JUMPDEST POP MUL SWAP1 JUMP JUMPDEST PUSH1 0x0 DUP3 PUSH2 0x132E JUMPI PUSH4 0x4E487B71 PUSH1 0xE0 SHL PUSH1 0x0 MSTORE PUSH1 0x12 PUSH1 0x4 MSTORE PUSH1 0x24 PUSH1 0x0 REVERT JUMPDEST POP DIV SWAP1 JUMP JUMPDEST PUSH1 0x0 DUP3 DUP3 LT ISZERO PUSH2 0x1345 JUMPI PUSH2 0x1345 PUSH2 0x12DC JUMP JUMPDEST POP SUB SWAP1 JUMP JUMPDEST PUSH1 0x0 DUP3 NOT DUP3 GT ISZERO PUSH2 0x135D JUMPI PUSH2 0x135D PUSH2 0x12DC JUMP JUMPDEST POP ADD SWAP1 JUMP JUMPDEST PUSH1 0x0 PUSH1 0x20 DUP3 DUP5 SUB SLT ISZERO PUSH2 0x1374 JUMPI PUSH1 0x0 DUP1 REVERT JUMPDEST DUP2 MLOAD PUSH2 0x114E DUP2 PUSH2 0x1119 JUMP JUMPDEST SWAP3 DUP4 MSTORE PUSH1 0x60 SWAP2 SWAP1 SWAP2 SHL PUSH12 0xFFFFFFFFFFFFFFFFFFFFFFFF NOT AND PUSH1 0x20 DUP4 ADD MSTORE PUSH1 0x34 DUP3 ADD MSTORE PUSH1 0x54 ADD SWAP1 JUMP JUMPDEST PUSH4 0x4E487B71 PUSH1 0xE0 SHL PUSH1 0x0 MSTORE PUSH1 0x41 PUSH1 0x4 MSTORE PUSH1 0x24 PUSH1 0x0 REVERT JUMPDEST PUSH1 0x0 JUMPDEST DUP4 DUP2 LT ISZERO PUSH2 0x13D8 JUMPI DUP2 DUP2 ADD MLOAD DUP4 DUP3 ADD MSTORE PUSH1 0x20 ADD PUSH2 0x13C0 JUMP JUMPDEST DUP4 DUP2 GT ISZERO PUSH2 0x13E7 JUMPI PUSH1 0x0 DUP5 DUP5 ADD MSTORE JUMPDEST POP POP POP POP JUMP JUMPDEST PUSH1 0x0 PUSH1 0x20 DUP3 DUP5 SUB SLT ISZERO PUSH2 0x13FF JUMPI PUSH1 0x0 DUP1 REVERT JUMPDEST DUP2 MLOAD PUSH8 0xFFFFFFFFFFFFFFFF DUP1 DUP3 GT ISZERO PUSH2 0x1417 JUMPI PUSH1 0x0 DUP1 REVERT JUMPDEST DUP2 DUP5 ADD SWAP2 POP DUP5 PUSH1 0x1F DUP4 ADD SLT PUSH2 0x142B JUMPI PUSH1 0x0 DUP1 REVERT JUMPDEST DUP2 MLOAD DUP2 DUP2 GT ISZERO PUSH2 0x143D JUMPI PUSH2 0x143D PUSH2 0x13A7 JUMP JUMPDEST PUSH1 0x40 MLOAD PUSH1 0x1F DUP3 ADD PUSH1 0x1F NOT SWAP1 DUP2 AND PUSH1 0x3F ADD AND DUP2 ADD SWAP1 DUP4 DUP3 GT DUP2 DUP4 LT OR ISZERO PUSH2 0x1465 JUMPI PUSH2 0x1465 PUSH2 0x13A7 JUMP JUMPDEST DUP2 PUSH1 0x40 MSTORE DUP3 DUP2 MSTORE DUP8 PUSH1 0x20 DUP5 DUP8 ADD ADD GT ISZERO PUSH2 0x147E JUMPI PUSH1 0x0 DUP1 REVERT JUMPDEST PUSH2 0x148F DUP4 PUSH1 0x20 DUP4 ADD PUSH1 0x20 DUP9 ADD PUSH2 0x13BD JUMP JUMPDEST SWAP8 SWAP7 POP POP POP POP POP POP POP JUMP JUMPDEST DUP4 DUP2 MSTORE DUP3 PUSH1 0x20 DUP3 ADD MSTORE PUSH1 0x60 PUSH1 0x40 DUP3 ADD MSTORE PUSH1 0x0 DUP3 MLOAD DUP1 PUSH1 0x60 DUP5 ADD MSTORE PUSH2 0x14C5 DUP2 PUSH1 0x80 DUP6 ADD PUSH1 0x20 DUP8 ADD PUSH2 0x13BD JUMP JUMPDEST PUSH1 0x1F ADD PUSH1 0x1F NOT AND SWAP2 SWAP1 SWAP2 ADD PUSH1 0x80 ADD SWAP5 SWAP4 POP POP POP POP JUMP INVALID LOG2 PUSH5 0x6970667358 0x22 SLT KECCAK256 DUP3 LOG4 SUB DUP7 DIV EQ TIMESTAMP DUP2 EXTCODECOPY 0x4B SWAP1 0xD5 SWAP5 EXTCODEHASH SGT PUSH12 0x5F82BDA4BB9E59F93A18F6AB ADDMOD 0xA8 0xC4 CREATE PUSH5 0x736F6C6343 STOP ADDMOD MULMOD STOP CALLER ",
  "sha1": "389f4e24ae7e5618e3523186be5cf32cd180e5c3",
  "source": "// SPDX-License-Identifier: MIT\npragma solidity 0.8.9;\n\nimport \"./BookTradable.sol\";\nimport \"./CultureCoin.sol\";\nimport \"./send_receive.sol\";\nimport \"../openzeppelin-solidity/contracts/security/ReentrancyGuard.sol\";\n\ncontract MarketPlace is Receiver, ReentrancyGuard {\n\n    event OfferingPlaced(bytes32 indexed offeringId, address indexed hostContract, address indexed offerer,  uint tokenId, uint price, string uri);\n    event OfferingClosed(bytes32 indexed offeringId, address indexed buyer);\n    event BalanceWithdrawn (address indexed beneficiary, uint amount);\n    event OperatorChanged (address previousOperator, address newOperator);\n\n    address operator;\n    uint256 private operatorFee;\n\n    uint offeringNonce;\n\n    struct offering {\n        address offerer;\n        address hostContract;\n        uint tokenId;\n        uint price;\n        bool closed; \n    }\n    \n    mapping (bytes32 => offering) offeringRegistry;\n    mapping (address => uint) balances;\n\n    address private cCA; \t/// Adminisistrator \n    address private gasToken;   /// culturecoin.\n    constructor (address _operator, address _cCA, address _gasToken) { // me :: me :: culturecoin\n        operator = _operator;\n        operatorFee = 1;  // 1% is the default.\n\tcCA = _cCA;\n\tgasToken = _gasToken;\n    }\n\n\n    function placeOfferingOperator (address _offerer, address _hostContract, uint _tokenId, uint _price) external nonReentrant returns(bytes32) {\n        require (msg.sender == operator, \"Only operator dApp can create offerings this way\");\n        bytes32 offeringId = keccak256(abi.encodePacked(offeringNonce, _hostContract, _tokenId));\n        offeringRegistry[offeringId].offerer = _offerer;\n        offeringRegistry[offeringId].hostContract = _hostContract;\n        offeringRegistry[offeringId].tokenId = _tokenId;\n        offeringRegistry[offeringId].price = _price;\n        offeringNonce += 1;\n        BookTradable hostContract = BookTradable(offeringRegistry[offeringId].hostContract);\n        string memory uri = hostContract.tokenURI(_tokenId);\n\n        emit OfferingPlaced(offeringId, _hostContract, _offerer, _tokenId, _price, uri);\n\treturn offeringId;\n    }\n\n    function setFee(uint256 _fee) external {\n    \trequire(msg.sender == operator, \"Only the operator may change the fee for the marketplace.\");\n\n\toperatorFee = _fee;\n    }\n\n    function placeOffering (address _hostContract, uint _tokenId, uint _price) external nonReentrant returns(bytes32) {\n        BookTradable hostContract = BookTradable(_hostContract);\n\taddress owner = hostContract.ownerOf(_tokenId);\n\n\trequire(msg.sender == owner, \"Caller does not own token\");\n\n        bytes32 offeringId = keccak256(abi.encodePacked(offeringNonce, _hostContract, _tokenId));\n        offeringRegistry[offeringId].offerer = owner;\n        offeringRegistry[offeringId].hostContract = _hostContract;\n        offeringRegistry[offeringId].tokenId = _tokenId;\n        offeringRegistry[offeringId].price = _price;\n        offeringNonce += 1;\n        string memory uri = hostContract.tokenURI(_tokenId);\n\n        emit OfferingPlaced(offeringId, _hostContract, owner, _tokenId, _price, uri);\n\treturn offeringId;\n    }\n    function closeOfferingRoyalty(bytes32 _offeringId) external nonReentrant payable {\n        require(msg.value >= offeringRegistry[_offeringId].price, \"Not enough funds to buy\");\n        require(offeringRegistry[_offeringId].closed != true, \"Offering is closed\");\n        BookTradable hostContract = BookTradable(offeringRegistry[_offeringId].hostContract);\n        hostContract.safeTransferFromRegistry(offeringRegistry[_offeringId].offerer, msg.sender, offeringRegistry[_offeringId].tokenId);\n        offeringRegistry[_offeringId].closed = true;\n\n\tuint256 ownerFee = hostContract.getRoyalty();\n\n\tuint256 operatorCut = (msg.value * operatorFee) / 100; \t\t// Divide to make it a percent.\n\tuint256 royalties = (msg.value * ownerFee) / 100; \t\t// Divide to make it a percent.\n\n        balances[offeringRegistry[_offeringId].offerer] += msg.value - royalties - operatorCut;\n        balances[operator] += operatorCut;\n        balances[hostContract.owner()] += royalties;\n\n        emit OfferingClosed(_offeringId, msg.sender);\n    } \n\n    function closeOfferingRoyaltyCC(bytes32 _offeringId, uint256 _amount) external nonReentrant {\n\tCultureCoin CC = CultureCoin(gasToken);\n    \tuint256 msgValue = CC.dexCCInFrom(msg.sender, _amount);\n    \trequire(msgValue >= offeringRegistry[_offeringId].price, \"Not enough funds to buy\");\n        require(offeringRegistry[_offeringId].closed != true, \"Offering is closed\");\n        BookTradable hostContract = BookTradable(offeringRegistry[_offeringId].hostContract);\n        hostContract.safeTransferFromRegistry(offeringRegistry[_offeringId].offerer, msg.sender, offeringRegistry[_offeringId].tokenId);\n        offeringRegistry[_offeringId].closed = true;\n\n        uint256 ownerFee = hostContract.getRoyalty();\n\n        uint256 operatorCut = (msgValue * operatorFee) / 100;          // Divide to make it a percent.\n        uint256 royalties = (msgValue * ownerFee) / 100;               // Divide to make it a percent.\n\n        balances[offeringRegistry[_offeringId].offerer] += msgValue - royalties - operatorCut;\n        balances[operator] += operatorCut;\n        balances[hostContract.owner()] += royalties;\n\n        emit OfferingClosed(_offeringId, msg.sender);\n    }\n\n    function withdrawBalance() external nonReentrant {\n        require(balances[msg.sender] > 0,\"You don't have any balance to withdraw\");\n        uint amount = balances[msg.sender];\n        payable(msg.sender).transfer(amount);\n        balances[msg.sender] = 0;\n        emit BalanceWithdrawn(msg.sender, amount);\n    }\n\n    function changeOperator(address _newOperator) external nonReentrant {\n        require(msg.sender == operator,\"only the operator can change the current operator\");\n        address previousOperator = operator;\n        operator = msg.sender;\n        emit OperatorChanged(previousOperator, operator);\n    }\n\n    function viewOfferingNFT(bytes32 _offeringId) external view returns (address, uint, uint, bool){\n        return (offeringRegistry[_offeringId].hostContract, offeringRegistry[_offeringId].tokenId, offeringRegistry[_offeringId].price, offeringRegistry[_offeringId].closed);\n    }\n\n    function viewBalances(address _address) external view returns (uint) {\n        return (balances[_address]);\n    }\n\n    function setGasToken(address _gasToken) public {\n        require(msg.sender == cCA || msg.sender == operator, \"no\");\n    \tgasToken = _gasToken; // The new CC's address.\n    }\n\n}\n",
  "sourcePath": "contracts/market_place.sol",
  "type": "contract"
}