{
  "abi": [
    {
      "inputs": [
        {
          "internalType": "address",
          "name": "_operator",
          "type": "address"
        },
        {
          "internalType": "address",
          "name": "_cCA",
          "type": "address"
        },
        {
          "internalType": "address",
          "name": "_gasToken",
          "type": "address"
        }
      ],
      "stateMutability": "nonpayable",
      "type": "constructor"
    },
    {
      "anonymous": false,
      "inputs": [
        {
          "indexed": true,
          "internalType": "address",
          "name": "beneficiary",
          "type": "address"
        },
        {
          "indexed": false,
          "internalType": "uint256",
          "name": "amount",
          "type": "uint256"
        }
      ],
      "name": "BalanceWithdrawn",
      "type": "event"
    },
    {
      "anonymous": false,
      "inputs": [
        {
          "indexed": true,
          "internalType": "address",
          "name": "hostContract",
          "type": "address"
        },
        {
          "indexed": true,
          "internalType": "address",
          "name": "offerer",
          "type": "address"
        },
        {
          "indexed": false,
          "internalType": "uint256",
          "name": "tokenId",
          "type": "uint256"
        },
        {
          "indexed": false,
          "internalType": "uint256",
          "name": "price",
          "type": "uint256"
        }
      ],
      "name": "OnSale",
      "type": "event"
    },
    {
      "anonymous": false,
      "inputs": [
        {
          "indexed": false,
          "internalType": "address",
          "name": "previousOperator",
          "type": "address"
        },
        {
          "indexed": false,
          "internalType": "address",
          "name": "newOperator",
          "type": "address"
        }
      ],
      "name": "OperatorChanged",
      "type": "event"
    },
    {
      "anonymous": false,
      "inputs": [
        {
          "indexed": true,
          "internalType": "address",
          "name": "hostContract",
          "type": "address"
        },
        {
          "indexed": false,
          "internalType": "uint256",
          "name": "tokenId",
          "type": "uint256"
        },
        {
          "indexed": false,
          "internalType": "uint256",
          "name": "price",
          "type": "uint256"
        }
      ],
      "name": "Sold",
      "type": "event"
    },
    {
      "inputs": [],
      "name": "addonPay",
      "outputs": [],
      "stateMutability": "payable",
      "type": "function"
    },
    {
      "inputs": [
        {
          "internalType": "address",
          "name": "_hostContract",
          "type": "address"
        },
        {
          "internalType": "uint256",
          "name": "_tokenId",
          "type": "uint256"
        }
      ],
      "name": "buy",
      "outputs": [],
      "stateMutability": "payable",
      "type": "function"
    },
    {
      "inputs": [
        {
          "internalType": "address",
          "name": "_hostContract",
          "type": "address"
        },
        {
          "internalType": "uint256",
          "name": "_tokenId",
          "type": "uint256"
        },
        {
          "internalType": "uint256",
          "name": "_amount",
          "type": "uint256"
        }
      ],
      "name": "buyWithCC",
      "outputs": [],
      "stateMutability": "nonpayable",
      "type": "function"
    },
    {
      "inputs": [
        {
          "internalType": "address",
          "name": "_newOperator",
          "type": "address"
        }
      ],
      "name": "changeOperator",
      "outputs": [],
      "stateMutability": "nonpayable",
      "type": "function"
    },
    {
      "inputs": [
        {
          "internalType": "address",
          "name": "",
          "type": "address"
        },
        {
          "internalType": "uint256",
          "name": "",
          "type": "uint256"
        }
      ],
      "name": "price",
      "outputs": [
        {
          "internalType": "uint256",
          "name": "",
          "type": "uint256"
        }
      ],
      "stateMutability": "view",
      "type": "function"
    },
    {
      "inputs": [
        {
          "internalType": "address",
          "name": "_hostContract",
          "type": "address"
        },
        {
          "internalType": "uint256",
          "name": "_tokenId",
          "type": "uint256"
        },
        {
          "internalType": "uint256",
          "name": "_price",
          "type": "uint256"
        }
      ],
      "name": "sell",
      "outputs": [
        {
          "internalType": "bytes32",
          "name": "",
          "type": "bytes32"
        }
      ],
      "stateMutability": "nonpayable",
      "type": "function"
    },
    {
      "inputs": [
        {
          "internalType": "uint256",
          "name": "_fee",
          "type": "uint256"
        }
      ],
      "name": "setFee",
      "outputs": [],
      "stateMutability": "nonpayable",
      "type": "function"
    },
    {
      "inputs": [
        {
          "internalType": "address",
          "name": "_gasToken",
          "type": "address"
        }
      ],
      "name": "setGasToken",
      "outputs": [],
      "stateMutability": "nonpayable",
      "type": "function"
    },
    {
      "inputs": [
        {
          "internalType": "address",
          "name": "_address",
          "type": "address"
        }
      ],
      "name": "viewBalances",
      "outputs": [
        {
          "internalType": "uint256",
          "name": "",
          "type": "uint256"
        }
      ],
      "stateMutability": "view",
      "type": "function"
    },
    {
      "inputs": [],
      "name": "withdrawBalance",
      "outputs": [],
      "stateMutability": "nonpayable",
      "type": "function"
    }
  ],
  "bytecode": "608060405234801561001057600080fd5b506040516111e83803806111e883398101604081905261002f91610097565b6001600081905580546001600160a01b039485166001600160a01b03199182161782556002919091556005805493851693821693909317909255600680549190931691161790556100da565b80516001600160a01b038116811461009257600080fd5b919050565b6000806000606084860312156100ac57600080fd5b6100b58461007b565b92506100c36020850161007b565b91506100d16040850161007b565b90509250925092565b6110ff806100e96000396000f3fe6080604052600436106100915760003560e01c80635fd8c710116100595780635fd8c7101461014057806369fe0e2d146101555780636a27246214610175578063ad9b802414610195578063cce7ec13146101cd57600080fd5b806306394c9b146100965780631e9f8aad146100b8578063205a612a146100d8578063495057be146100b65780634b5822b1146100f8575b600080fd5b3480156100a257600080fd5b506100b66100b1366004610edd565b6101e0565b005b3480156100c457600080fd5b506100b66100d3366004610edd565b6102e8565b3480156100e457600080fd5b506100b66100f3366004610f01565b61035e565b34801561010457600080fd5b5061012e610113366004610edd565b6001600160a01b031660009081526003602052604090205490565b60405190815260200160405180910390f35b34801561014c57600080fd5b506100b66107c3565b34801561016157600080fd5b506100b6610170366004610f36565b6108e6565b34801561018157600080fd5b5061012e610190366004610f01565b610967565b3480156101a157600080fd5b5061012e6101b0366004610f4f565b600460209081526000928352604080842090915290825290205481565b6100b66101db366004610f4f565b610ad4565b6002600054141561020c5760405162461bcd60e51b815260040161020390610f7b565b60405180910390fd5b60026000556001546001600160a01b031633146102855760405162461bcd60e51b815260206004820152603160248201527f6f6e6c7920746865206f70657261746f722063616e206368616e6765207468656044820152701031bab93932b73a1037b832b930ba37b960791b6064820152608401610203565b60018054336001600160a01b031982168117909255604080516001600160a01b0390921680835260208301939093527fd58299b712891143e76310d5e664c4203c940a67db37cf856bdaa3c5c76a802c910160405180910390a150506001600055565b6005546001600160a01b031633148061030b57506001546001600160a01b031633145b61033c5760405162461bcd60e51b81526020600482015260026024820152616e6f60f01b6044820152606401610203565b600680546001600160a01b0319166001600160a01b0392909216919091179055565b600260005414156103815760405162461bcd60e51b815260040161020390610f7b565b600260009081556006546040516331a9108f60e11b8152600481018590526001600160a01b03918216928692909190831690636352211e9060240160206040518083038186803b1580156103d457600080fd5b505afa1580156103e8573d6000803e3d6000fd5b505050506040513d601f19601f8201168201806040525081019061040c9190610fb2565b6040516313784abf60e31b8152336004820152602481018690529091506000906001600160a01b03851690639bc255f890604401602060405180830381600087803b15801561045a57600080fd5b505af115801561046e573d6000803e3d6000fd5b505050506040513d601f19601f820116820180604052508101906104929190610fcf565b6001600160a01b03881660009081526004602090815260408083208a84529091529020549091508110156105025760405162461bcd60e51b81526020600482015260176024820152764e6f7420656e6f7567682066756e647320746f2062757960481b6044820152606401610203565b6001600160a01b03871660009081526004602090815260408083208984529091529020546105425760405162461bcd60e51b815260040161020390610fe8565b60405163c43e92b160e01b81526001600160a01b0384169063c43e92b19061057290859033908b9060040161101f565b600060405180830381600087803b15801561058c57600080fd5b505af11580156105a0573d6000803e3d6000fd5b505050506000836001600160a01b0316634d47732a6040518163ffffffff1660e01b815260040160206040518083038186803b1580156105df57600080fd5b505afa1580156105f3573d6000803e3d6000fd5b505050506040513d601f19601f820116820180604052508101906106179190610fcf565b9050600060646002548461062b9190611059565b6106359190611078565b9050600060646106458486611059565b61064f9190611078565b90508161065c828661109a565b610666919061109a565b6001600160a01b0386166000908152600360205260408120805490919061068e9084906110b1565b90915550506001546001600160a01b0316600090815260036020526040812080548492906106bd9084906110b1565b925050819055508060036000886001600160a01b0316638da5cb5b6040518163ffffffff1660e01b815260040160206040518083038186803b15801561070257600080fd5b505afa158015610716573d6000803e3d6000fd5b505050506040513d601f19601f8201168201806040525081019061073a9190610fb2565b6001600160a01b03166001600160a01b03168152602001908152602001600020600082825461076991906110b1565b9091555050604080518a8152602081018690526001600160a01b038c16917fbac9694ac0daa55169abd117086fe32c89401d9a3b15dd1d34e55e0aa4e47a9d910160405180910390a2505060016000555050505050505050565b600260005414156107e65760405162461bcd60e51b815260040161020390610f7b565b60026000908155338152600360205260409020546108555760405162461bcd60e51b815260206004820152602660248201527f596f7520646f6e2774206861766520616e792062616c616e636520746f20776960448201526574686472617760d01b6064820152608401610203565b3360008181526003602052604080822054905190929183156108fc02918491818181858888f19350505050158015610891573d6000803e3d6000fd5b503360008181526003602052604080822091909155517fddc398b321237a8d40ac914388309c2f52a08c134e4dc4ce61e32f57cb7d80f1906108d69084815260200190565b60405180910390a2506001600055565b6001546001600160a01b031633146109625760405162461bcd60e51b815260206004820152603960248201527f4f6e6c7920746865206f70657261746f72206d6179206368616e676520746865604482015278103332b2903337b9103a34329036b0b935b2ba383630b1b29760391b6064820152608401610203565b600255565b60006002600054141561098c5760405162461bcd60e51b815260040161020390610f7b565b600260009081556040516331a9108f60e11b8152600481018590528591906001600160a01b03831690636352211e9060240160206040518083038186803b1580156109d657600080fd5b505afa1580156109ea573d6000803e3d6000fd5b505050506040513d601f19601f82011682018060405250810190610a0e9190610fb2565b9050336001600160a01b03821614610a645760405162461bcd60e51b815260206004820152601960248201527821b0b63632b9103237b2b9903737ba1037bbb7103a37b5b2b760391b6044820152606401610203565b6001600160a01b0386811660008181526004602090815260408083208a84528252918290208890558151898152908101889052928416927fa1424a2c6c5c34718c2d3a9246c6d8c976b24b319baee16fb2a9cb939ba75a02910160405180910390a3505060016000559392505050565b60026000541415610af75760405162461bcd60e51b815260040161020390610f7b565b600260009081556040516331a9108f60e11b8152600481018390528391906001600160a01b03831690636352211e9060240160206040518083038186803b158015610b4157600080fd5b505afa158015610b55573d6000803e3d6000fd5b505050506040513d601f19601f82011682018060405250810190610b799190610fb2565b6001600160a01b0385166000908152600460209081526040808320878452909152902054909150610bbc5760405162461bcd60e51b815260040161020390610fe8565b6001600160a01b0384166000908152600460209081526040808320868452909152902054341015610c2a5760405162461bcd60e51b81526020600482015260186024820152772737ba1032b737bab3b410333ab73239903a3790313abc9760411b6044820152606401610203565b60405163c43e92b160e01b81526001600160a01b0383169063c43e92b190610c5a9084903390889060040161101f565b600060405180830381600087803b158015610c7457600080fd5b505af1158015610c88573d6000803e3d6000fd5b505050506001600160a01b038481166000908152600460208181526040808420888552825280842084905580516326a3b99560e11b815290519394871693634d47732a938281019392829003018186803b158015610ce557600080fd5b505afa158015610cf9573d6000803e3d6000fd5b505050506040513d601f19601f82011682018060405250810190610d1d9190610fcf565b90506000606460025434610d319190611059565b610d3b9190611078565b905060006064610d4b8434611059565b610d559190611078565b905081610d62823461109a565b610d6c919061109a565b6001600160a01b03851660009081526003602052604081208054909190610d949084906110b1565b90915550506001546001600160a01b031660009081526003602052604081208054849290610dc39084906110b1565b925050819055508060036000876001600160a01b0316638da5cb5b6040518163ffffffff1660e01b815260040160206040518083038186803b158015610e0857600080fd5b505afa158015610e1c573d6000803e3d6000fd5b505050506040513d601f19601f82011682018060405250810190610e409190610fb2565b6001600160a01b03166001600160a01b031681526020019081526020016000206000828254610e6f91906110b1565b9091555050604080518781523460208201526001600160a01b038916917fbac9694ac0daa55169abd117086fe32c89401d9a3b15dd1d34e55e0aa4e47a9d910160405180910390a2505060016000555050505050565b6001600160a01b0381168114610eda57600080fd5b50565b600060208284031215610eef57600080fd5b8135610efa81610ec5565b9392505050565b600080600060608486031215610f1657600080fd5b8335610f2181610ec5565b95602085013595506040909401359392505050565b600060208284031215610f4857600080fd5b5035919050565b60008060408385031215610f6257600080fd5b8235610f6d81610ec5565b946020939093013593505050565b6020808252601f908201527f5265656e7472616e637947756172643a207265656e7472616e742063616c6c00604082015260600190565b600060208284031215610fc457600080fd5b8151610efa81610ec5565b600060208284031215610fe157600080fd5b5051919050565b6020808252601c908201527f4e6f2070726963652073657420666f72207468697320746f6b656e2e00000000604082015260600190565b6001600160a01b039384168152919092166020820152604081019190915260600190565b634e487b7160e01b600052601160045260246000fd5b600081600019048311821515161561107357611073611043565b500290565b60008261109557634e487b7160e01b600052601260045260246000fd5b500490565b6000828210156110ac576110ac611043565b500390565b600082198211156110c4576110c4611043565b50019056fea26469706673582212207d7ffa5936e74bde03e16dc85440649b7068a8a45f10b50c7dcfa189ec45ac6164736f6c63430008090033",
  "bytecodeSha1": "72d1552e5c76d4aab16ab95a8b233e4bce3e2191",
  "compiler": {
    "evm_version": "istanbul",
    "optimizer": {
      "enabled": true,
      "runs": 100
    },
    "version": "0.8.9+commit.e5eed63a"
  },
  "contractName": "MiniMart",
  "language": "Solidity",
  "natspec": {
    "kind": "dev",
    "methods": {
      "constructor": {
        "notice": "culturecoin."
      }
    },
    "version": 1
  },
  "opcodes": "PUSH1 0x80 PUSH1 0x40 MSTORE PUSH1 0x4 CALLDATASIZE LT PUSH2 0x91 JUMPI PUSH1 0x0 CALLDATALOAD PUSH1 0xE0 SHR DUP1 PUSH4 0x5FD8C710 GT PUSH2 0x59 JUMPI DUP1 PUSH4 0x5FD8C710 EQ PUSH2 0x140 JUMPI DUP1 PUSH4 0x69FE0E2D EQ PUSH2 0x155 JUMPI DUP1 PUSH4 0x6A272462 EQ PUSH2 0x175 JUMPI DUP1 PUSH4 0xAD9B8024 EQ PUSH2 0x195 JUMPI DUP1 PUSH4 0xCCE7EC13 EQ PUSH2 0x1CD JUMPI PUSH1 0x0 DUP1 REVERT JUMPDEST DUP1 PUSH4 0x6394C9B EQ PUSH2 0x96 JUMPI DUP1 PUSH4 0x1E9F8AAD EQ PUSH2 0xB8 JUMPI DUP1 PUSH4 0x205A612A EQ PUSH2 0xD8 JUMPI DUP1 PUSH4 0x495057BE EQ PUSH2 0xB6 JUMPI DUP1 PUSH4 0x4B5822B1 EQ PUSH2 0xF8 JUMPI JUMPDEST PUSH1 0x0 DUP1 REVERT JUMPDEST CALLVALUE DUP1 ISZERO PUSH2 0xA2 JUMPI PUSH1 0x0 DUP1 REVERT JUMPDEST POP PUSH2 0xB6 PUSH2 0xB1 CALLDATASIZE PUSH1 0x4 PUSH2 0xEDD JUMP JUMPDEST PUSH2 0x1E0 JUMP JUMPDEST STOP JUMPDEST CALLVALUE DUP1 ISZERO PUSH2 0xC4 JUMPI PUSH1 0x0 DUP1 REVERT JUMPDEST POP PUSH2 0xB6 PUSH2 0xD3 CALLDATASIZE PUSH1 0x4 PUSH2 0xEDD JUMP JUMPDEST PUSH2 0x2E8 JUMP JUMPDEST CALLVALUE DUP1 ISZERO PUSH2 0xE4 JUMPI PUSH1 0x0 DUP1 REVERT JUMPDEST POP PUSH2 0xB6 PUSH2 0xF3 CALLDATASIZE PUSH1 0x4 PUSH2 0xF01 JUMP JUMPDEST PUSH2 0x35E JUMP JUMPDEST CALLVALUE DUP1 ISZERO PUSH2 0x104 JUMPI PUSH1 0x0 DUP1 REVERT JUMPDEST POP PUSH2 0x12E PUSH2 0x113 CALLDATASIZE PUSH1 0x4 PUSH2 0xEDD JUMP JUMPDEST PUSH1 0x1 PUSH1 0x1 PUSH1 0xA0 SHL SUB AND PUSH1 0x0 SWAP1 DUP2 MSTORE PUSH1 0x3 PUSH1 0x20 MSTORE PUSH1 0x40 SWAP1 KECCAK256 SLOAD SWAP1 JUMP JUMPDEST PUSH1 0x40 MLOAD SWAP1 DUP2 MSTORE PUSH1 0x20 ADD PUSH1 0x40 MLOAD DUP1 SWAP2 SUB SWAP1 RETURN JUMPDEST CALLVALUE DUP1 ISZERO PUSH2 0x14C JUMPI PUSH1 0x0 DUP1 REVERT JUMPDEST POP PUSH2 0xB6 PUSH2 0x7C3 JUMP JUMPDEST CALLVALUE DUP1 ISZERO PUSH2 0x161 JUMPI PUSH1 0x0 DUP1 REVERT JUMPDEST POP PUSH2 0xB6 PUSH2 0x170 CALLDATASIZE PUSH1 0x4 PUSH2 0xF36 JUMP JUMPDEST PUSH2 0x8E6 JUMP JUMPDEST CALLVALUE DUP1 ISZERO PUSH2 0x181 JUMPI PUSH1 0x0 DUP1 REVERT JUMPDEST POP PUSH2 0x12E PUSH2 0x190 CALLDATASIZE PUSH1 0x4 PUSH2 0xF01 JUMP JUMPDEST PUSH2 0x967 JUMP JUMPDEST CALLVALUE DUP1 ISZERO PUSH2 0x1A1 JUMPI PUSH1 0x0 DUP1 REVERT JUMPDEST POP PUSH2 0x12E PUSH2 0x1B0 CALLDATASIZE PUSH1 0x4 PUSH2 0xF4F JUMP JUMPDEST PUSH1 0x4 PUSH1 0x20 SWAP1 DUP2 MSTORE PUSH1 0x0 SWAP3 DUP4 MSTORE PUSH1 0x40 DUP1 DUP5 KECCAK256 SWAP1 SWAP2 MSTORE SWAP1 DUP3 MSTORE SWAP1 KECCAK256 SLOAD DUP2 JUMP JUMPDEST PUSH2 0xB6 PUSH2 0x1DB CALLDATASIZE PUSH1 0x4 PUSH2 0xF4F JUMP JUMPDEST PUSH2 0xAD4 JUMP JUMPDEST PUSH1 0x2 PUSH1 0x0 SLOAD EQ ISZERO PUSH2 0x20C JUMPI PUSH1 0x40 MLOAD PUSH3 0x461BCD PUSH1 0xE5 SHL DUP2 MSTORE PUSH1 0x4 ADD PUSH2 0x203 SWAP1 PUSH2 0xF7B JUMP JUMPDEST PUSH1 0x40 MLOAD DUP1 SWAP2 SUB SWAP1 REVERT JUMPDEST PUSH1 0x2 PUSH1 0x0 SSTORE PUSH1 0x1 SLOAD PUSH1 0x1 PUSH1 0x1 PUSH1 0xA0 SHL SUB AND CALLER EQ PUSH2 0x285 JUMPI PUSH1 0x40 MLOAD PUSH3 0x461BCD PUSH1 0xE5 SHL DUP2 MSTORE PUSH1 0x20 PUSH1 0x4 DUP3 ADD MSTORE PUSH1 0x31 PUSH1 0x24 DUP3 ADD MSTORE PUSH32 0x6F6E6C7920746865206F70657261746F722063616E206368616E676520746865 PUSH1 0x44 DUP3 ADD MSTORE PUSH17 0x1031BAB93932B73A1037B832B930BA37B9 PUSH1 0x79 SHL PUSH1 0x64 DUP3 ADD MSTORE PUSH1 0x84 ADD PUSH2 0x203 JUMP JUMPDEST PUSH1 0x1 DUP1 SLOAD CALLER PUSH1 0x1 PUSH1 0x1 PUSH1 0xA0 SHL SUB NOT DUP3 AND DUP2 OR SWAP1 SWAP3 SSTORE PUSH1 0x40 DUP1 MLOAD PUSH1 0x1 PUSH1 0x1 PUSH1 0xA0 SHL SUB SWAP1 SWAP3 AND DUP1 DUP4 MSTORE PUSH1 0x20 DUP4 ADD SWAP4 SWAP1 SWAP4 MSTORE PUSH32 0xD58299B712891143E76310D5E664C4203C940A67DB37CF856BDAA3C5C76A802C SWAP2 ADD PUSH1 0x40 MLOAD DUP1 SWAP2 SUB SWAP1 LOG1 POP POP PUSH1 0x1 PUSH1 0x0 SSTORE JUMP JUMPDEST PUSH1 0x5 SLOAD PUSH1 0x1 PUSH1 0x1 PUSH1 0xA0 SHL SUB AND CALLER EQ DUP1 PUSH2 0x30B JUMPI POP PUSH1 0x1 SLOAD PUSH1 0x1 PUSH1 0x1 PUSH1 0xA0 SHL SUB AND CALLER EQ JUMPDEST PUSH2 0x33C JUMPI PUSH1 0x40 MLOAD PUSH3 0x461BCD PUSH1 0xE5 SHL DUP2 MSTORE PUSH1 0x20 PUSH1 0x4 DUP3 ADD MSTORE PUSH1 0x2 PUSH1 0x24 DUP3 ADD MSTORE PUSH2 0x6E6F PUSH1 0xF0 SHL PUSH1 0x44 DUP3 ADD MSTORE PUSH1 0x64 ADD PUSH2 0x203 JUMP JUMPDEST PUSH1 0x6 DUP1 SLOAD PUSH1 0x1 PUSH1 0x1 PUSH1 0xA0 SHL SUB NOT AND PUSH1 0x1 PUSH1 0x1 PUSH1 0xA0 SHL SUB SWAP3 SWAP1 SWAP3 AND SWAP2 SWAP1 SWAP2 OR SWAP1 SSTORE JUMP JUMPDEST PUSH1 0x2 PUSH1 0x0 SLOAD EQ ISZERO PUSH2 0x381 JUMPI PUSH1 0x40 MLOAD PUSH3 0x461BCD PUSH1 0xE5 SHL DUP2 MSTORE PUSH1 0x4 ADD PUSH2 0x203 SWAP1 PUSH2 0xF7B JUMP JUMPDEST PUSH1 0x2 PUSH1 0x0 SWAP1 DUP2 SSTORE PUSH1 0x6 SLOAD PUSH1 0x40 MLOAD PUSH4 0x31A9108F PUSH1 0xE1 SHL DUP2 MSTORE PUSH1 0x4 DUP2 ADD DUP6 SWAP1 MSTORE PUSH1 0x1 PUSH1 0x1 PUSH1 0xA0 SHL SUB SWAP2 DUP3 AND SWAP3 DUP7 SWAP3 SWAP1 SWAP2 SWAP1 DUP4 AND SWAP1 PUSH4 0x6352211E SWAP1 PUSH1 0x24 ADD PUSH1 0x20 PUSH1 0x40 MLOAD DUP1 DUP4 SUB DUP2 DUP7 DUP1 EXTCODESIZE ISZERO DUP1 ISZERO PUSH2 0x3D4 JUMPI PUSH1 0x0 DUP1 REVERT JUMPDEST POP GAS STATICCALL ISZERO DUP1 ISZERO PUSH2 0x3E8 JUMPI RETURNDATASIZE PUSH1 0x0 DUP1 RETURNDATACOPY RETURNDATASIZE PUSH1 0x0 REVERT JUMPDEST POP POP POP POP PUSH1 0x40 MLOAD RETURNDATASIZE PUSH1 0x1F NOT PUSH1 0x1F DUP3 ADD AND DUP3 ADD DUP1 PUSH1 0x40 MSTORE POP DUP2 ADD SWAP1 PUSH2 0x40C SWAP2 SWAP1 PUSH2 0xFB2 JUMP JUMPDEST PUSH1 0x40 MLOAD PUSH4 0x13784ABF PUSH1 0xE3 SHL DUP2 MSTORE CALLER PUSH1 0x4 DUP3 ADD MSTORE PUSH1 0x24 DUP2 ADD DUP7 SWAP1 MSTORE SWAP1 SWAP2 POP PUSH1 0x0 SWAP1 PUSH1 0x1 PUSH1 0x1 PUSH1 0xA0 SHL SUB DUP6 AND SWAP1 PUSH4 0x9BC255F8 SWAP1 PUSH1 0x44 ADD PUSH1 0x20 PUSH1 0x40 MLOAD DUP1 DUP4 SUB DUP2 PUSH1 0x0 DUP8 DUP1 EXTCODESIZE ISZERO DUP1 ISZERO PUSH2 0x45A JUMPI PUSH1 0x0 DUP1 REVERT JUMPDEST POP GAS CALL ISZERO DUP1 ISZERO PUSH2 0x46E JUMPI RETURNDATASIZE PUSH1 0x0 DUP1 RETURNDATACOPY RETURNDATASIZE PUSH1 0x0 REVERT JUMPDEST POP POP POP POP PUSH1 0x40 MLOAD RETURNDATASIZE PUSH1 0x1F NOT PUSH1 0x1F DUP3 ADD AND DUP3 ADD DUP1 PUSH1 0x40 MSTORE POP DUP2 ADD SWAP1 PUSH2 0x492 SWAP2 SWAP1 PUSH2 0xFCF JUMP JUMPDEST PUSH1 0x1 PUSH1 0x1 PUSH1 0xA0 SHL SUB DUP9 AND PUSH1 0x0 SWAP1 DUP2 MSTORE PUSH1 0x4 PUSH1 0x20 SWAP1 DUP2 MSTORE PUSH1 0x40 DUP1 DUP4 KECCAK256 DUP11 DUP5 MSTORE SWAP1 SWAP2 MSTORE SWAP1 KECCAK256 SLOAD SWAP1 SWAP2 POP DUP2 LT ISZERO PUSH2 0x502 JUMPI PUSH1 0x40 MLOAD PUSH3 0x461BCD PUSH1 0xE5 SHL DUP2 MSTORE PUSH1 0x20 PUSH1 0x4 DUP3 ADD MSTORE PUSH1 0x17 PUSH1 0x24 DUP3 ADD MSTORE PUSH23 0x4E6F7420656E6F7567682066756E647320746F20627579 PUSH1 0x48 SHL PUSH1 0x44 DUP3 ADD MSTORE PUSH1 0x64 ADD PUSH2 0x203 JUMP JUMPDEST PUSH1 0x1 PUSH1 0x1 PUSH1 0xA0 SHL SUB DUP8 AND PUSH1 0x0 SWAP1 DUP2 MSTORE PUSH1 0x4 PUSH1 0x20 SWAP1 DUP2 MSTORE PUSH1 0x40 DUP1 DUP4 KECCAK256 DUP10 DUP5 MSTORE SWAP1 SWAP2 MSTORE SWAP1 KECCAK256 SLOAD PUSH2 0x542 JUMPI PUSH1 0x40 MLOAD PUSH3 0x461BCD PUSH1 0xE5 SHL DUP2 MSTORE PUSH1 0x4 ADD PUSH2 0x203 SWAP1 PUSH2 0xFE8 JUMP JUMPDEST PUSH1 0x40 MLOAD PUSH4 0xC43E92B1 PUSH1 0xE0 SHL DUP2 MSTORE PUSH1 0x1 PUSH1 0x1 PUSH1 0xA0 SHL SUB DUP5 AND SWAP1 PUSH4 0xC43E92B1 SWAP1 PUSH2 0x572 SWAP1 DUP6 SWAP1 CALLER SWAP1 DUP12 SWAP1 PUSH1 0x4 ADD PUSH2 0x101F JUMP JUMPDEST PUSH1 0x0 PUSH1 0x40 MLOAD DUP1 DUP4 SUB DUP2 PUSH1 0x0 DUP8 DUP1 EXTCODESIZE ISZERO DUP1 ISZERO PUSH2 0x58C JUMPI PUSH1 0x0 DUP1 REVERT JUMPDEST POP GAS CALL ISZERO DUP1 ISZERO PUSH2 0x5A0 JUMPI RETURNDATASIZE PUSH1 0x0 DUP1 RETURNDATACOPY RETURNDATASIZE PUSH1 0x0 REVERT JUMPDEST POP POP POP POP PUSH1 0x0 DUP4 PUSH1 0x1 PUSH1 0x1 PUSH1 0xA0 SHL SUB AND PUSH4 0x4D47732A PUSH1 0x40 MLOAD DUP2 PUSH4 0xFFFFFFFF AND PUSH1 0xE0 SHL DUP2 MSTORE PUSH1 0x4 ADD PUSH1 0x20 PUSH1 0x40 MLOAD DUP1 DUP4 SUB DUP2 DUP7 DUP1 EXTCODESIZE ISZERO DUP1 ISZERO PUSH2 0x5DF JUMPI PUSH1 0x0 DUP1 REVERT JUMPDEST POP GAS STATICCALL ISZERO DUP1 ISZERO PUSH2 0x5F3 JUMPI RETURNDATASIZE PUSH1 0x0 DUP1 RETURNDATACOPY RETURNDATASIZE PUSH1 0x0 REVERT JUMPDEST POP POP POP POP PUSH1 0x40 MLOAD RETURNDATASIZE PUSH1 0x1F NOT PUSH1 0x1F DUP3 ADD AND DUP3 ADD DUP1 PUSH1 0x40 MSTORE POP DUP2 ADD SWAP1 PUSH2 0x617 SWAP2 SWAP1 PUSH2 0xFCF JUMP JUMPDEST SWAP1 POP PUSH1 0x0 PUSH1 0x64 PUSH1 0x2 SLOAD DUP5 PUSH2 0x62B SWAP2 SWAP1 PUSH2 0x1059 JUMP JUMPDEST PUSH2 0x635 SWAP2 SWAP1 PUSH2 0x1078 JUMP JUMPDEST SWAP1 POP PUSH1 0x0 PUSH1 0x64 PUSH2 0x645 DUP5 DUP7 PUSH2 0x1059 JUMP JUMPDEST PUSH2 0x64F SWAP2 SWAP1 PUSH2 0x1078 JUMP JUMPDEST SWAP1 POP DUP2 PUSH2 0x65C DUP3 DUP7 PUSH2 0x109A JUMP JUMPDEST PUSH2 0x666 SWAP2 SWAP1 PUSH2 0x109A JUMP JUMPDEST PUSH1 0x1 PUSH1 0x1 PUSH1 0xA0 SHL SUB DUP7 AND PUSH1 0x0 SWAP1 DUP2 MSTORE PUSH1 0x3 PUSH1 0x20 MSTORE PUSH1 0x40 DUP2 KECCAK256 DUP1 SLOAD SWAP1 SWAP2 SWAP1 PUSH2 0x68E SWAP1 DUP5 SWAP1 PUSH2 0x10B1 JUMP JUMPDEST SWAP1 SWAP2 SSTORE POP POP PUSH1 0x1 SLOAD PUSH1 0x1 PUSH1 0x1 PUSH1 0xA0 SHL SUB AND PUSH1 0x0 SWAP1 DUP2 MSTORE PUSH1 0x3 PUSH1 0x20 MSTORE PUSH1 0x40 DUP2 KECCAK256 DUP1 SLOAD DUP5 SWAP3 SWAP1 PUSH2 0x6BD SWAP1 DUP5 SWAP1 PUSH2 0x10B1 JUMP JUMPDEST SWAP3 POP POP DUP2 SWAP1 SSTORE POP DUP1 PUSH1 0x3 PUSH1 0x0 DUP9 PUSH1 0x1 PUSH1 0x1 PUSH1 0xA0 SHL SUB AND PUSH4 0x8DA5CB5B PUSH1 0x40 MLOAD DUP2 PUSH4 0xFFFFFFFF AND PUSH1 0xE0 SHL DUP2 MSTORE PUSH1 0x4 ADD PUSH1 0x20 PUSH1 0x40 MLOAD DUP1 DUP4 SUB DUP2 DUP7 DUP1 EXTCODESIZE ISZERO DUP1 ISZERO PUSH2 0x702 JUMPI PUSH1 0x0 DUP1 REVERT JUMPDEST POP GAS STATICCALL ISZERO DUP1 ISZERO PUSH2 0x716 JUMPI RETURNDATASIZE PUSH1 0x0 DUP1 RETURNDATACOPY RETURNDATASIZE PUSH1 0x0 REVERT JUMPDEST POP POP POP POP PUSH1 0x40 MLOAD RETURNDATASIZE PUSH1 0x1F NOT PUSH1 0x1F DUP3 ADD AND DUP3 ADD DUP1 PUSH1 0x40 MSTORE POP DUP2 ADD SWAP1 PUSH2 0x73A SWAP2 SWAP1 PUSH2 0xFB2 JUMP JUMPDEST PUSH1 0x1 PUSH1 0x1 PUSH1 0xA0 SHL SUB AND PUSH1 0x1 PUSH1 0x1 PUSH1 0xA0 SHL SUB AND DUP2 MSTORE PUSH1 0x20 ADD SWAP1 DUP2 MSTORE PUSH1 0x20 ADD PUSH1 0x0 KECCAK256 PUSH1 0x0 DUP3 DUP3 SLOAD PUSH2 0x769 SWAP2 SWAP1 PUSH2 0x10B1 JUMP JUMPDEST SWAP1 SWAP2 SSTORE POP POP PUSH1 0x40 DUP1 MLOAD DUP11 DUP2 MSTORE PUSH1 0x20 DUP2 ADD DUP7 SWAP1 MSTORE PUSH1 0x1 PUSH1 0x1 PUSH1 0xA0 SHL SUB DUP13 AND SWAP2 PUSH32 0xBAC9694AC0DAA55169ABD117086FE32C89401D9A3B15DD1D34E55E0AA4E47A9D SWAP2 ADD PUSH1 0x40 MLOAD DUP1 SWAP2 SUB SWAP1 LOG2 POP POP PUSH1 0x1 PUSH1 0x0 SSTORE POP POP POP POP POP POP POP POP JUMP JUMPDEST PUSH1 0x2 PUSH1 0x0 SLOAD EQ ISZERO PUSH2 0x7E6 JUMPI PUSH1 0x40 MLOAD PUSH3 0x461BCD PUSH1 0xE5 SHL DUP2 MSTORE PUSH1 0x4 ADD PUSH2 0x203 SWAP1 PUSH2 0xF7B JUMP JUMPDEST PUSH1 0x2 PUSH1 0x0 SWAP1 DUP2 SSTORE CALLER DUP2 MSTORE PUSH1 0x3 PUSH1 0x20 MSTORE PUSH1 0x40 SWAP1 KECCAK256 SLOAD PUSH2 0x855 JUMPI PUSH1 0x40 MLOAD PUSH3 0x461BCD PUSH1 0xE5 SHL DUP2 MSTORE PUSH1 0x20 PUSH1 0x4 DUP3 ADD MSTORE PUSH1 0x26 PUSH1 0x24 DUP3 ADD MSTORE PUSH32 0x596F7520646F6E2774206861766520616E792062616C616E636520746F207769 PUSH1 0x44 DUP3 ADD MSTORE PUSH6 0x746864726177 PUSH1 0xD0 SHL PUSH1 0x64 DUP3 ADD MSTORE PUSH1 0x84 ADD PUSH2 0x203 JUMP JUMPDEST CALLER PUSH1 0x0 DUP2 DUP2 MSTORE PUSH1 0x3 PUSH1 0x20 MSTORE PUSH1 0x40 DUP1 DUP3 KECCAK256 SLOAD SWAP1 MLOAD SWAP1 SWAP3 SWAP2 DUP4 ISZERO PUSH2 0x8FC MUL SWAP2 DUP5 SWAP2 DUP2 DUP2 DUP2 DUP6 DUP9 DUP9 CALL SWAP4 POP POP POP POP ISZERO DUP1 ISZERO PUSH2 0x891 JUMPI RETURNDATASIZE PUSH1 0x0 DUP1 RETURNDATACOPY RETURNDATASIZE PUSH1 0x0 REVERT JUMPDEST POP CALLER PUSH1 0x0 DUP2 DUP2 MSTORE PUSH1 0x3 PUSH1 0x20 MSTORE PUSH1 0x40 DUP1 DUP3 KECCAK256 SWAP2 SWAP1 SWAP2 SSTORE MLOAD PUSH32 0xDDC398B321237A8D40AC914388309C2F52A08C134E4DC4CE61E32F57CB7D80F1 SWAP1 PUSH2 0x8D6 SWAP1 DUP5 DUP2 MSTORE PUSH1 0x20 ADD SWAP1 JUMP JUMPDEST PUSH1 0x40 MLOAD DUP1 SWAP2 SUB SWAP1 LOG2 POP PUSH1 0x1 PUSH1 0x0 SSTORE JUMP JUMPDEST PUSH1 0x1 SLOAD PUSH1 0x1 PUSH1 0x1 PUSH1 0xA0 SHL SUB AND CALLER EQ PUSH2 0x962 JUMPI PUSH1 0x40 MLOAD PUSH3 0x461BCD PUSH1 0xE5 SHL DUP2 MSTORE PUSH1 0x20 PUSH1 0x4 DUP3 ADD MSTORE PUSH1 0x39 PUSH1 0x24 DUP3 ADD MSTORE PUSH32 0x4F6E6C7920746865206F70657261746F72206D6179206368616E676520746865 PUSH1 0x44 DUP3 ADD MSTORE PUSH25 0x103332B2903337B9103A34329036B0B935B2BA383630B1B297 PUSH1 0x39 SHL PUSH1 0x64 DUP3 ADD MSTORE PUSH1 0x84 ADD PUSH2 0x203 JUMP JUMPDEST PUSH1 0x2 SSTORE JUMP JUMPDEST PUSH1 0x0 PUSH1 0x2 PUSH1 0x0 SLOAD EQ ISZERO PUSH2 0x98C JUMPI PUSH1 0x40 MLOAD PUSH3 0x461BCD PUSH1 0xE5 SHL DUP2 MSTORE PUSH1 0x4 ADD PUSH2 0x203 SWAP1 PUSH2 0xF7B JUMP JUMPDEST PUSH1 0x2 PUSH1 0x0 SWAP1 DUP2 SSTORE PUSH1 0x40 MLOAD PUSH4 0x31A9108F PUSH1 0xE1 SHL DUP2 MSTORE PUSH1 0x4 DUP2 ADD DUP6 SWAP1 MSTORE DUP6 SWAP2 SWAP1 PUSH1 0x1 PUSH1 0x1 PUSH1 0xA0 SHL SUB DUP4 AND SWAP1 PUSH4 0x6352211E SWAP1 PUSH1 0x24 ADD PUSH1 0x20 PUSH1 0x40 MLOAD DUP1 DUP4 SUB DUP2 DUP7 DUP1 EXTCODESIZE ISZERO DUP1 ISZERO PUSH2 0x9D6 JUMPI PUSH1 0x0 DUP1 REVERT JUMPDEST POP GAS STATICCALL ISZERO DUP1 ISZERO PUSH2 0x9EA JUMPI RETURNDATASIZE PUSH1 0x0 DUP1 RETURNDATACOPY RETURNDATASIZE PUSH1 0x0 REVERT JUMPDEST POP POP POP POP PUSH1 0x40 MLOAD RETURNDATASIZE PUSH1 0x1F NOT PUSH1 0x1F DUP3 ADD AND DUP3 ADD DUP1 PUSH1 0x40 MSTORE POP DUP2 ADD SWAP1 PUSH2 0xA0E SWAP2 SWAP1 PUSH2 0xFB2 JUMP JUMPDEST SWAP1 POP CALLER PUSH1 0x1 PUSH1 0x1 PUSH1 0xA0 SHL SUB DUP3 AND EQ PUSH2 0xA64 JUMPI PUSH1 0x40 MLOAD PUSH3 0x461BCD PUSH1 0xE5 SHL DUP2 MSTORE PUSH1 0x20 PUSH1 0x4 DUP3 ADD MSTORE PUSH1 0x19 PUSH1 0x24 DUP3 ADD MSTORE PUSH25 0x21B0B63632B9103237B2B9903737BA1037BBB7103A37B5B2B7 PUSH1 0x39 SHL PUSH1 0x44 DUP3 ADD MSTORE PUSH1 0x64 ADD PUSH2 0x203 JUMP JUMPDEST PUSH1 0x1 PUSH1 0x1 PUSH1 0xA0 SHL SUB DUP7 DUP2 AND PUSH1 0x0 DUP2 DUP2 MSTORE PUSH1 0x4 PUSH1 0x20 SWAP1 DUP2 MSTORE PUSH1 0x40 DUP1 DUP4 KECCAK256 DUP11 DUP5 MSTORE DUP3 MSTORE SWAP2 DUP3 SWAP1 KECCAK256 DUP9 SWAP1 SSTORE DUP2 MLOAD DUP10 DUP2 MSTORE SWAP1 DUP2 ADD DUP9 SWAP1 MSTORE SWAP3 DUP5 AND SWAP3 PUSH32 0xA1424A2C6C5C34718C2D3A9246C6D8C976B24B319BAEE16FB2A9CB939BA75A02 SWAP2 ADD PUSH1 0x40 MLOAD DUP1 SWAP2 SUB SWAP1 LOG3 POP POP PUSH1 0x1 PUSH1 0x0 SSTORE SWAP4 SWAP3 POP POP POP JUMP JUMPDEST PUSH1 0x2 PUSH1 0x0 SLOAD EQ ISZERO PUSH2 0xAF7 JUMPI PUSH1 0x40 MLOAD PUSH3 0x461BCD PUSH1 0xE5 SHL DUP2 MSTORE PUSH1 0x4 ADD PUSH2 0x203 SWAP1 PUSH2 0xF7B JUMP JUMPDEST PUSH1 0x2 PUSH1 0x0 SWAP1 DUP2 SSTORE PUSH1 0x40 MLOAD PUSH4 0x31A9108F PUSH1 0xE1 SHL DUP2 MSTORE PUSH1 0x4 DUP2 ADD DUP4 SWAP1 MSTORE DUP4 SWAP2 SWAP1 PUSH1 0x1 PUSH1 0x1 PUSH1 0xA0 SHL SUB DUP4 AND SWAP1 PUSH4 0x6352211E SWAP1 PUSH1 0x24 ADD PUSH1 0x20 PUSH1 0x40 MLOAD DUP1 DUP4 SUB DUP2 DUP7 DUP1 EXTCODESIZE ISZERO DUP1 ISZERO PUSH2 0xB41 JUMPI PUSH1 0x0 DUP1 REVERT JUMPDEST POP GAS STATICCALL ISZERO DUP1 ISZERO PUSH2 0xB55 JUMPI RETURNDATASIZE PUSH1 0x0 DUP1 RETURNDATACOPY RETURNDATASIZE PUSH1 0x0 REVERT JUMPDEST POP POP POP POP PUSH1 0x40 MLOAD RETURNDATASIZE PUSH1 0x1F NOT PUSH1 0x1F DUP3 ADD AND DUP3 ADD DUP1 PUSH1 0x40 MSTORE POP DUP2 ADD SWAP1 PUSH2 0xB79 SWAP2 SWAP1 PUSH2 0xFB2 JUMP JUMPDEST PUSH1 0x1 PUSH1 0x1 PUSH1 0xA0 SHL SUB DUP6 AND PUSH1 0x0 SWAP1 DUP2 MSTORE PUSH1 0x4 PUSH1 0x20 SWAP1 DUP2 MSTORE PUSH1 0x40 DUP1 DUP4 KECCAK256 DUP8 DUP5 MSTORE SWAP1 SWAP2 MSTORE SWAP1 KECCAK256 SLOAD SWAP1 SWAP2 POP PUSH2 0xBBC JUMPI PUSH1 0x40 MLOAD PUSH3 0x461BCD PUSH1 0xE5 SHL DUP2 MSTORE PUSH1 0x4 ADD PUSH2 0x203 SWAP1 PUSH2 0xFE8 JUMP JUMPDEST PUSH1 0x1 PUSH1 0x1 PUSH1 0xA0 SHL SUB DUP5 AND PUSH1 0x0 SWAP1 DUP2 MSTORE PUSH1 0x4 PUSH1 0x20 SWAP1 DUP2 MSTORE PUSH1 0x40 DUP1 DUP4 KECCAK256 DUP7 DUP5 MSTORE SWAP1 SWAP2 MSTORE SWAP1 KECCAK256 SLOAD CALLVALUE LT ISZERO PUSH2 0xC2A JUMPI PUSH1 0x40 MLOAD PUSH3 0x461BCD PUSH1 0xE5 SHL DUP2 MSTORE PUSH1 0x20 PUSH1 0x4 DUP3 ADD MSTORE PUSH1 0x18 PUSH1 0x24 DUP3 ADD MSTORE PUSH24 0x2737BA1032B737BAB3B410333AB73239903A3790313ABC97 PUSH1 0x41 SHL PUSH1 0x44 DUP3 ADD MSTORE PUSH1 0x64 ADD PUSH2 0x203 JUMP JUMPDEST PUSH1 0x40 MLOAD PUSH4 0xC43E92B1 PUSH1 0xE0 SHL DUP2 MSTORE PUSH1 0x1 PUSH1 0x1 PUSH1 0xA0 SHL SUB DUP4 AND SWAP1 PUSH4 0xC43E92B1 SWAP1 PUSH2 0xC5A SWAP1 DUP5 SWAP1 CALLER SWAP1 DUP9 SWAP1 PUSH1 0x4 ADD PUSH2 0x101F JUMP JUMPDEST PUSH1 0x0 PUSH1 0x40 MLOAD DUP1 DUP4 SUB DUP2 PUSH1 0x0 DUP8 DUP1 EXTCODESIZE ISZERO DUP1 ISZERO PUSH2 0xC74 JUMPI PUSH1 0x0 DUP1 REVERT JUMPDEST POP GAS CALL ISZERO DUP1 ISZERO PUSH2 0xC88 JUMPI RETURNDATASIZE PUSH1 0x0 DUP1 RETURNDATACOPY RETURNDATASIZE PUSH1 0x0 REVERT JUMPDEST POP POP POP POP PUSH1 0x1 PUSH1 0x1 PUSH1 0xA0 SHL SUB DUP5 DUP2 AND PUSH1 0x0 SWAP1 DUP2 MSTORE PUSH1 0x4 PUSH1 0x20 DUP2 DUP2 MSTORE PUSH1 0x40 DUP1 DUP5 KECCAK256 DUP9 DUP6 MSTORE DUP3 MSTORE DUP1 DUP5 KECCAK256 DUP5 SWAP1 SSTORE DUP1 MLOAD PUSH4 0x26A3B995 PUSH1 0xE1 SHL DUP2 MSTORE SWAP1 MLOAD SWAP4 SWAP5 DUP8 AND SWAP4 PUSH4 0x4D47732A SWAP4 DUP3 DUP2 ADD SWAP4 SWAP3 DUP3 SWAP1 SUB ADD DUP2 DUP7 DUP1 EXTCODESIZE ISZERO DUP1 ISZERO PUSH2 0xCE5 JUMPI PUSH1 0x0 DUP1 REVERT JUMPDEST POP GAS STATICCALL ISZERO DUP1 ISZERO PUSH2 0xCF9 JUMPI RETURNDATASIZE PUSH1 0x0 DUP1 RETURNDATACOPY RETURNDATASIZE PUSH1 0x0 REVERT JUMPDEST POP POP POP POP PUSH1 0x40 MLOAD RETURNDATASIZE PUSH1 0x1F NOT PUSH1 0x1F DUP3 ADD AND DUP3 ADD DUP1 PUSH1 0x40 MSTORE POP DUP2 ADD SWAP1 PUSH2 0xD1D SWAP2 SWAP1 PUSH2 0xFCF JUMP JUMPDEST SWAP1 POP PUSH1 0x0 PUSH1 0x64 PUSH1 0x2 SLOAD CALLVALUE PUSH2 0xD31 SWAP2 SWAP1 PUSH2 0x1059 JUMP JUMPDEST PUSH2 0xD3B SWAP2 SWAP1 PUSH2 0x1078 JUMP JUMPDEST SWAP1 POP PUSH1 0x0 PUSH1 0x64 PUSH2 0xD4B DUP5 CALLVALUE PUSH2 0x1059 JUMP JUMPDEST PUSH2 0xD55 SWAP2 SWAP1 PUSH2 0x1078 JUMP JUMPDEST SWAP1 POP DUP2 PUSH2 0xD62 DUP3 CALLVALUE PUSH2 0x109A JUMP JUMPDEST PUSH2 0xD6C SWAP2 SWAP1 PUSH2 0x109A JUMP JUMPDEST PUSH1 0x1 PUSH1 0x1 PUSH1 0xA0 SHL SUB DUP6 AND PUSH1 0x0 SWAP1 DUP2 MSTORE PUSH1 0x3 PUSH1 0x20 MSTORE PUSH1 0x40 DUP2 KECCAK256 DUP1 SLOAD SWAP1 SWAP2 SWAP1 PUSH2 0xD94 SWAP1 DUP5 SWAP1 PUSH2 0x10B1 JUMP JUMPDEST SWAP1 SWAP2 SSTORE POP POP PUSH1 0x1 SLOAD PUSH1 0x1 PUSH1 0x1 PUSH1 0xA0 SHL SUB AND PUSH1 0x0 SWAP1 DUP2 MSTORE PUSH1 0x3 PUSH1 0x20 MSTORE PUSH1 0x40 DUP2 KECCAK256 DUP1 SLOAD DUP5 SWAP3 SWAP1 PUSH2 0xDC3 SWAP1 DUP5 SWAP1 PUSH2 0x10B1 JUMP JUMPDEST SWAP3 POP POP DUP2 SWAP1 SSTORE POP DUP1 PUSH1 0x3 PUSH1 0x0 DUP8 PUSH1 0x1 PUSH1 0x1 PUSH1 0xA0 SHL SUB AND PUSH4 0x8DA5CB5B PUSH1 0x40 MLOAD DUP2 PUSH4 0xFFFFFFFF AND PUSH1 0xE0 SHL DUP2 MSTORE PUSH1 0x4 ADD PUSH1 0x20 PUSH1 0x40 MLOAD DUP1 DUP4 SUB DUP2 DUP7 DUP1 EXTCODESIZE ISZERO DUP1 ISZERO PUSH2 0xE08 JUMPI PUSH1 0x0 DUP1 REVERT JUMPDEST POP GAS STATICCALL ISZERO DUP1 ISZERO PUSH2 0xE1C JUMPI RETURNDATASIZE PUSH1 0x0 DUP1 RETURNDATACOPY RETURNDATASIZE PUSH1 0x0 REVERT JUMPDEST POP POP POP POP PUSH1 0x40 MLOAD RETURNDATASIZE PUSH1 0x1F NOT PUSH1 0x1F DUP3 ADD AND DUP3 ADD DUP1 PUSH1 0x40 MSTORE POP DUP2 ADD SWAP1 PUSH2 0xE40 SWAP2 SWAP1 PUSH2 0xFB2 JUMP JUMPDEST PUSH1 0x1 PUSH1 0x1 PUSH1 0xA0 SHL SUB AND PUSH1 0x1 PUSH1 0x1 PUSH1 0xA0 SHL SUB AND DUP2 MSTORE PUSH1 0x20 ADD SWAP1 DUP2 MSTORE PUSH1 0x20 ADD PUSH1 0x0 KECCAK256 PUSH1 0x0 DUP3 DUP3 SLOAD PUSH2 0xE6F SWAP2 SWAP1 PUSH2 0x10B1 JUMP JUMPDEST SWAP1 SWAP2 SSTORE POP POP PUSH1 0x40 DUP1 MLOAD DUP8 DUP2 MSTORE CALLVALUE PUSH1 0x20 DUP3 ADD MSTORE PUSH1 0x1 PUSH1 0x1 PUSH1 0xA0 SHL SUB DUP10 AND SWAP2 PUSH32 0xBAC9694AC0DAA55169ABD117086FE32C89401D9A3B15DD1D34E55E0AA4E47A9D SWAP2 ADD PUSH1 0x40 MLOAD DUP1 SWAP2 SUB SWAP1 LOG2 POP POP PUSH1 0x1 PUSH1 0x0 SSTORE POP POP POP POP POP JUMP JUMPDEST PUSH1 0x1 PUSH1 0x1 PUSH1 0xA0 SHL SUB DUP2 AND DUP2 EQ PUSH2 0xEDA JUMPI PUSH1 0x0 DUP1 REVERT JUMPDEST POP JUMP JUMPDEST PUSH1 0x0 PUSH1 0x20 DUP3 DUP5 SUB SLT ISZERO PUSH2 0xEEF JUMPI PUSH1 0x0 DUP1 REVERT JUMPDEST DUP2 CALLDATALOAD PUSH2 0xEFA DUP2 PUSH2 0xEC5 JUMP JUMPDEST SWAP4 SWAP3 POP POP POP JUMP JUMPDEST PUSH1 0x0 DUP1 PUSH1 0x0 PUSH1 0x60 DUP5 DUP7 SUB SLT ISZERO PUSH2 0xF16 JUMPI PUSH1 0x0 DUP1 REVERT JUMPDEST DUP4 CALLDATALOAD PUSH2 0xF21 DUP2 PUSH2 0xEC5 JUMP JUMPDEST SWAP6 PUSH1 0x20 DUP6 ADD CALLDATALOAD SWAP6 POP PUSH1 0x40 SWAP1 SWAP5 ADD CALLDATALOAD SWAP4 SWAP3 POP POP POP JUMP JUMPDEST PUSH1 0x0 PUSH1 0x20 DUP3 DUP5 SUB SLT ISZERO PUSH2 0xF48 JUMPI PUSH1 0x0 DUP1 REVERT JUMPDEST POP CALLDATALOAD SWAP2 SWAP1 POP JUMP JUMPDEST PUSH1 0x0 DUP1 PUSH1 0x40 DUP4 DUP6 SUB SLT ISZERO PUSH2 0xF62 JUMPI PUSH1 0x0 DUP1 REVERT JUMPDEST DUP3 CALLDATALOAD PUSH2 0xF6D DUP2 PUSH2 0xEC5 JUMP JUMPDEST SWAP5 PUSH1 0x20 SWAP4 SWAP1 SWAP4 ADD CALLDATALOAD SWAP4 POP POP POP JUMP JUMPDEST PUSH1 0x20 DUP1 DUP3 MSTORE PUSH1 0x1F SWAP1 DUP3 ADD MSTORE PUSH32 0x5265656E7472616E637947756172643A207265656E7472616E742063616C6C00 PUSH1 0x40 DUP3 ADD MSTORE PUSH1 0x60 ADD SWAP1 JUMP JUMPDEST PUSH1 0x0 PUSH1 0x20 DUP3 DUP5 SUB SLT ISZERO PUSH2 0xFC4 JUMPI PUSH1 0x0 DUP1 REVERT JUMPDEST DUP2 MLOAD PUSH2 0xEFA DUP2 PUSH2 0xEC5 JUMP JUMPDEST PUSH1 0x0 PUSH1 0x20 DUP3 DUP5 SUB SLT ISZERO PUSH2 0xFE1 JUMPI PUSH1 0x0 DUP1 REVERT JUMPDEST POP MLOAD SWAP2 SWAP1 POP JUMP JUMPDEST PUSH1 0x20 DUP1 DUP3 MSTORE PUSH1 0x1C SWAP1 DUP3 ADD MSTORE PUSH32 0x4E6F2070726963652073657420666F72207468697320746F6B656E2E00000000 PUSH1 0x40 DUP3 ADD MSTORE PUSH1 0x60 ADD SWAP1 JUMP JUMPDEST PUSH1 0x1 PUSH1 0x1 PUSH1 0xA0 SHL SUB SWAP4 DUP5 AND DUP2 MSTORE SWAP2 SWAP1 SWAP3 AND PUSH1 0x20 DUP3 ADD MSTORE PUSH1 0x40 DUP2 ADD SWAP2 SWAP1 SWAP2 MSTORE PUSH1 0x60 ADD SWAP1 JUMP JUMPDEST PUSH4 0x4E487B71 PUSH1 0xE0 SHL PUSH1 0x0 MSTORE PUSH1 0x11 PUSH1 0x4 MSTORE PUSH1 0x24 PUSH1 0x0 REVERT JUMPDEST PUSH1 0x0 DUP2 PUSH1 0x0 NOT DIV DUP4 GT DUP3 ISZERO ISZERO AND ISZERO PUSH2 0x1073 JUMPI PUSH2 0x1073 PUSH2 0x1043 JUMP JUMPDEST POP MUL SWAP1 JUMP JUMPDEST PUSH1 0x0 DUP3 PUSH2 0x1095 JUMPI PUSH4 0x4E487B71 PUSH1 0xE0 SHL PUSH1 0x0 MSTORE PUSH1 0x12 PUSH1 0x4 MSTORE PUSH1 0x24 PUSH1 0x0 REVERT JUMPDEST POP DIV SWAP1 JUMP JUMPDEST PUSH1 0x0 DUP3 DUP3 LT ISZERO PUSH2 0x10AC JUMPI PUSH2 0x10AC PUSH2 0x1043 JUMP JUMPDEST POP SUB SWAP1 JUMP JUMPDEST PUSH1 0x0 DUP3 NOT DUP3 GT ISZERO PUSH2 0x10C4 JUMPI PUSH2 0x10C4 PUSH2 0x1043 JUMP JUMPDEST POP ADD SWAP1 JUMP INVALID LOG2 PUSH5 0x6970667358 0x22 SLT KECCAK256 PUSH30 0x7FFA5936E74BDE03E16DC85440649B7068A8A45F10B50C7DCFA189EC45AC PUSH2 0x6473 PUSH16 0x6C634300080900330000000000000000 ",
  "sha1": "a354bbc7e491eb82f13ee9dc462b5e528262e47e",
  "source": "// SPDX-License-Identifier: MIT\npragma solidity 0.8.9;\n\nimport \"./BookTradable.sol\";\nimport \"./CultureCoin.sol\";\nimport \"./send_receive.sol\";\nimport \"../openzeppelin-solidity/contracts/security/ReentrancyGuard.sol\";\n\ncontract MiniMart is Receiver, ReentrancyGuard {\n\n    event OnSale(address indexed hostContract, address indexed offerer, uint tokenId, uint price);\n    event Sold(address indexed hostContract, uint tokenId, uint256 price);\n    event BalanceWithdrawn (address indexed beneficiary, uint amount);\n    event OperatorChanged (address previousOperator, address newOperator);\n\n    address operator;\n    uint256 private operatorFee;\n\n    mapping (address => uint) balances;\n\n    mapping(address => mapping(uint256 => uint256)) public price;\n\n    address private cCA;        /// Adminisistrator\n    address private gasToken;   /// culturecoin.\n    constructor (address _operator, address _cCA, address _gasToken) { // me :: me :: culturecoin\n        operator = _operator;\n        operatorFee = 1;  // 1% is the default.\n        cCA = _cCA;\n        gasToken = _gasToken;\n    }\n\n    function setFee(uint256 _fee) external {\n        require(msg.sender == operator, \"Only the operator may change the fee for the marketplace.\");\n\n        operatorFee = _fee;\n    }\n\n    function sell(address _hostContract, uint _tokenId, uint _price) external nonReentrant returns(bytes32) {\n        BookTradable hostContract = BookTradable(_hostContract);\n        address owner = hostContract.ownerOf(_tokenId);\n        require(msg.sender == owner, \"Caller does not own token\");\n\n        price[_hostContract][_tokenId] = _price;\n\n        emit OnSale(_hostContract, owner, _tokenId, _price);\n    }\n\n    function buy(address _hostContract, uint _tokenId) external nonReentrant payable {\n        BookTradable hostContract = BookTradable(_hostContract);\n        address owner = hostContract.ownerOf(_tokenId);\n        require(price[_hostContract][_tokenId] > 0, \"No price set for this token.\");\n        require(msg.value >= price[_hostContract][_tokenId], \"Not enough funds to buy.\");\n\n        hostContract.safeTransferFromRegistry(owner, msg.sender, _tokenId);\n\n        price[_hostContract][_tokenId] = 0;\n\n        uint256 ownerFee = hostContract.getRoyalty();\n\n        uint256 operatorCut = (msg.value * operatorFee) / 100;          // Divide to make it a percent.\n        uint256 royalties = (msg.value * ownerFee) / 100;               // Divide to make it a percent.\n\n        balances[owner] += msg.value - royalties - operatorCut;\n        balances[operator] += operatorCut;\n        balances[hostContract.owner()] += royalties;\n\n        emit Sold(_hostContract, _tokenId, msg.value);\n    }\n\n    function buyWithCC(address _hostContract, uint _tokenId, uint256 _amount) external nonReentrant {\n        CultureCoin CC = CultureCoin(gasToken);\n        BookTradable hostContract = BookTradable(_hostContract);\n        address owner = hostContract.ownerOf(_tokenId);\n        uint256 msgValue = CC.dexCCInFrom(msg.sender, _amount);\n        require(msgValue >=  price[_hostContract][_tokenId], \"Not enough funds to buy\");\n        require(price[_hostContract][_tokenId] > 0, \"No price set for this token.\");\n\n        hostContract.safeTransferFromRegistry(owner, msg.sender, _tokenId);\n\n        uint256 ownerFee = hostContract.getRoyalty();\n\n        uint256 operatorCut = (msgValue * operatorFee) / 100;          // Divide to make it a percent.\n        uint256 royalties = (msgValue * ownerFee) / 100;               // Divide to make it a percent.\n\n        balances[owner] += msgValue - royalties - operatorCut;\n        balances[operator] += operatorCut;\n        balances[hostContract.owner()] += royalties;\n\n        emit Sold(_hostContract, _tokenId, msgValue);\n    }\n\n    function withdrawBalance() external nonReentrant {\n        require(balances[msg.sender] > 0,\"You don't have any balance to withdraw\");\n        uint amount = balances[msg.sender];\n        payable(msg.sender).transfer(amount);\n        balances[msg.sender] = 0;\n        emit BalanceWithdrawn(msg.sender, amount);\n    }\n\n    function changeOperator(address _newOperator) external nonReentrant {\n        require(msg.sender == operator,\"only the operator can change the current operator\");\n        address previousOperator = operator;\n        operator = msg.sender;\n        emit OperatorChanged(previousOperator, operator);\n    }\n\n    function viewBalances(address _address) external view returns (uint) {\n        return (balances[_address]);\n    }\n\n    function setGasToken(address _gasToken) public {\n        require(msg.sender == cCA || msg.sender == operator, \"no\");\n        gasToken = _gasToken; // The new CC's address.\n    }\n}\n\n",
  "sourcePath": "contracts/mini_mart.sol",
  "type": "contract"
}