{
  "abi": [
    {
      "inputs": [
        {
          "internalType": "address",
          "name": "_cCA",
          "type": "address"
        },
        {
          "internalType": "address",
          "name": "_cultureCoin",
          "type": "address"
        },
        {
          "internalType": "address",
          "name": "_registryAddress",
          "type": "address"
        },
        {
          "internalType": "address",
          "name": "_baseSpells",
          "type": "address"
        },
        {
          "internalType": "address",
          "name": "_nbt",
          "type": "address"
        }
      ],
      "stateMutability": "nonpayable",
      "type": "constructor"
    },
    {
      "anonymous": false,
      "inputs": [
        {
          "indexed": true,
          "internalType": "address",
          "name": "owner",
          "type": "address"
        },
        {
          "indexed": true,
          "internalType": "address",
          "name": "approved",
          "type": "address"
        },
        {
          "indexed": true,
          "internalType": "uint256",
          "name": "tokenId",
          "type": "uint256"
        }
      ],
      "name": "Approval",
      "type": "event"
    },
    {
      "anonymous": false,
      "inputs": [
        {
          "indexed": true,
          "internalType": "address",
          "name": "owner",
          "type": "address"
        },
        {
          "indexed": true,
          "internalType": "address",
          "name": "operator",
          "type": "address"
        },
        {
          "indexed": false,
          "internalType": "bool",
          "name": "approved",
          "type": "bool"
        }
      ],
      "name": "ApprovalForAll",
      "type": "event"
    },
    {
      "anonymous": false,
      "inputs": [
        {
          "indexed": false,
          "internalType": "address",
          "name": "owner",
          "type": "address"
        },
        {
          "indexed": false,
          "internalType": "uint256",
          "name": "tokenId",
          "type": "uint256"
        },
        {
          "indexed": false,
          "internalType": "uint256",
          "name": "amount",
          "type": "uint256"
        },
        {
          "indexed": false,
          "internalType": "string",
          "name": "reason",
          "type": "string"
        }
      ],
      "name": "GasTokenSpent",
      "type": "event"
    },
    {
      "anonymous": false,
      "inputs": [
        {
          "indexed": false,
          "internalType": "address",
          "name": "userAddress",
          "type": "address"
        },
        {
          "indexed": false,
          "internalType": "address payable",
          "name": "relayerAddress",
          "type": "address"
        },
        {
          "indexed": false,
          "internalType": "bytes",
          "name": "functionSignature",
          "type": "bytes"
        }
      ],
      "name": "MetaTransactionExecuted",
      "type": "event"
    },
    {
      "anonymous": false,
      "inputs": [
        {
          "indexed": true,
          "internalType": "address",
          "name": "previousOwner",
          "type": "address"
        },
        {
          "indexed": true,
          "internalType": "address",
          "name": "newOwner",
          "type": "address"
        }
      ],
      "name": "OwnershipTransferred",
      "type": "event"
    },
    {
      "anonymous": false,
      "inputs": [
        {
          "indexed": true,
          "internalType": "address",
          "name": "from",
          "type": "address"
        },
        {
          "indexed": true,
          "internalType": "address",
          "name": "to",
          "type": "address"
        },
        {
          "indexed": true,
          "internalType": "uint256",
          "name": "tokenId",
          "type": "uint256"
        }
      ],
      "name": "Transfer",
      "type": "event"
    },
    {
      "inputs": [],
      "name": "ERC712_VERSION",
      "outputs": [
        {
          "internalType": "string",
          "name": "",
          "type": "string"
        }
      ],
      "stateMutability": "view",
      "type": "function"
    },
    {
      "inputs": [],
      "name": "_getNextTokenId",
      "outputs": [
        {
          "internalType": "uint256",
          "name": "",
          "type": "uint256"
        }
      ],
      "stateMutability": "view",
      "type": "function"
    },
    {
      "inputs": [],
      "name": "_incrementTokenId",
      "outputs": [],
      "stateMutability": "nonpayable",
      "type": "function"
    },
    {
      "inputs": [
        {
          "internalType": "address",
          "name": "_addonAddress",
          "type": "address"
        },
        {
          "internalType": "address",
          "name": "_sender",
          "type": "address"
        },
        {
          "internalType": "uint256",
          "name": "_iId",
          "type": "uint256"
        }
      ],
      "name": "addonApprove",
      "outputs": [],
      "stateMutability": "nonpayable",
      "type": "function"
    },
    {
      "inputs": [
        {
          "internalType": "uint256",
          "name": "_tokenId",
          "type": "uint256"
        }
      ],
      "name": "addonBurn",
      "outputs": [],
      "stateMutability": "nonpayable",
      "type": "function"
    },
    {
      "inputs": [
        {
          "internalType": "address",
          "name": "_to",
          "type": "address"
        }
      ],
      "name": "addonMintTo",
      "outputs": [
        {
          "internalType": "uint256",
          "name": "",
          "type": "uint256"
        }
      ],
      "stateMutability": "nonpayable",
      "type": "function"
    },
    {
      "inputs": [],
      "name": "addonPay",
      "outputs": [],
      "stateMutability": "payable",
      "type": "function"
    },
    {
      "inputs": [
        {
          "internalType": "address",
          "name": "to",
          "type": "address"
        },
        {
          "internalType": "uint256",
          "name": "tokenId",
          "type": "uint256"
        }
      ],
      "name": "approve",
      "outputs": [],
      "stateMutability": "nonpayable",
      "type": "function"
    },
    {
      "inputs": [
        {
          "internalType": "address",
          "name": "owner",
          "type": "address"
        }
      ],
      "name": "balanceOf",
      "outputs": [
        {
          "internalType": "uint256",
          "name": "",
          "type": "uint256"
        }
      ],
      "stateMutability": "view",
      "type": "function"
    },
    {
      "inputs": [],
      "name": "baseTokenURI",
      "outputs": [
        {
          "internalType": "string",
          "name": "",
          "type": "string"
        }
      ],
      "stateMutability": "view",
      "type": "function"
    },
    {
      "inputs": [
        {
          "internalType": "uint256",
          "name": "tokenId",
          "type": "uint256"
        }
      ],
      "name": "burn",
      "outputs": [],
      "stateMutability": "nonpayable",
      "type": "function"
    },
    {
      "inputs": [
        {
          "internalType": "uint256",
          "name": "_tokenId",
          "type": "uint256"
        },
        {
          "internalType": "uint256",
          "name": "_amount",
          "type": "uint256"
        },
        {
          "internalType": "string",
          "name": "_reason",
          "type": "string"
        }
      ],
      "name": "burnGas",
      "outputs": [],
      "stateMutability": "nonpayable",
      "type": "function"
    },
    {
      "inputs": [],
      "name": "cCA",
      "outputs": [
        {
          "internalType": "address",
          "name": "",
          "type": "address"
        }
      ],
      "stateMutability": "view",
      "type": "function"
    },
    {
      "inputs": [],
      "name": "contractURI",
      "outputs": [
        {
          "internalType": "string",
          "name": "",
          "type": "string"
        }
      ],
      "stateMutability": "view",
      "type": "function"
    },
    {
      "inputs": [
        {
          "internalType": "address",
          "name": "_owner",
          "type": "address"
        },
        {
          "internalType": "address",
          "name": "_hero",
          "type": "address"
        },
        {
          "internalType": "uint256",
          "name": "_hId",
          "type": "uint256"
        },
        {
          "internalType": "uint256",
          "name": "_iId",
          "type": "uint256"
        }
      ],
      "name": "equipItemFrom",
      "outputs": [],
      "stateMutability": "nonpayable",
      "type": "function"
    },
    {
      "inputs": [
        {
          "internalType": "address",
          "name": "userAddress",
          "type": "address"
        },
        {
          "internalType": "bytes",
          "name": "functionSignature",
          "type": "bytes"
        },
        {
          "internalType": "bytes32",
          "name": "sigR",
          "type": "bytes32"
        },
        {
          "internalType": "bytes32",
          "name": "sigS",
          "type": "bytes32"
        },
        {
          "internalType": "uint8",
          "name": "sigV",
          "type": "uint8"
        }
      ],
      "name": "executeMetaTransaction",
      "outputs": [
        {
          "internalType": "bytes",
          "name": "",
          "type": "bytes"
        }
      ],
      "stateMutability": "payable",
      "type": "function"
    },
    {
      "inputs": [
        {
          "internalType": "uint256",
          "name": "_tokenId",
          "type": "uint256"
        },
        {
          "internalType": "uint256",
          "name": "_amount",
          "type": "uint256"
        },
        {
          "internalType": "uint256",
          "name": "_gasRewards",
          "type": "uint256"
        }
      ],
      "name": "fillGasTank",
      "outputs": [],
      "stateMutability": "nonpayable",
      "type": "function"
    },
    {
      "inputs": [
        {
          "internalType": "address",
          "name": "_addon",
          "type": "address"
        }
      ],
      "name": "getAddon",
      "outputs": [
        {
          "internalType": "bool",
          "name": "",
          "type": "bool"
        }
      ],
      "stateMutability": "view",
      "type": "function"
    },
    {
      "inputs": [
        {
          "internalType": "uint256",
          "name": "tokenId",
          "type": "uint256"
        }
      ],
      "name": "getApproved",
      "outputs": [
        {
          "internalType": "address",
          "name": "",
          "type": "address"
        }
      ],
      "stateMutability": "view",
      "type": "function"
    },
    {
      "inputs": [],
      "name": "getChainId",
      "outputs": [
        {
          "internalType": "uint256",
          "name": "",
          "type": "uint256"
        }
      ],
      "stateMutability": "view",
      "type": "function"
    },
    {
      "inputs": [
        {
          "internalType": "address",
          "name": "_hero",
          "type": "address"
        },
        {
          "internalType": "uint256",
          "name": "_target",
          "type": "uint256"
        },
        {
          "internalType": "uint256",
          "name": "_power",
          "type": "uint256"
        }
      ],
      "name": "getCurrentPower",
      "outputs": [
        {
          "internalType": "uint256",
          "name": "",
          "type": "uint256"
        }
      ],
      "stateMutability": "nonpayable",
      "type": "function"
    },
    {
      "inputs": [],
      "name": "getCurrentToken",
      "outputs": [
        {
          "internalType": "uint256",
          "name": "",
          "type": "uint256"
        }
      ],
      "stateMutability": "view",
      "type": "function"
    },
    {
      "inputs": [],
      "name": "getDefaultFrom",
      "outputs": [
        {
          "internalType": "uint256",
          "name": "",
          "type": "uint256"
        }
      ],
      "stateMutability": "view",
      "type": "function"
    },
    {
      "inputs": [],
      "name": "getDefaultPrice",
      "outputs": [
        {
          "internalType": "uint256",
          "name": "",
          "type": "uint256"
        }
      ],
      "stateMutability": "view",
      "type": "function"
    },
    {
      "inputs": [],
      "name": "getDomainSeperator",
      "outputs": [
        {
          "internalType": "bytes32",
          "name": "",
          "type": "bytes32"
        }
      ],
      "stateMutability": "view",
      "type": "function"
    },
    {
      "inputs": [
        {
          "internalType": "uint256",
          "name": "_tokenId",
          "type": "uint256"
        }
      ],
      "name": "getGasRewards",
      "outputs": [
        {
          "internalType": "uint256",
          "name": "",
          "type": "uint256"
        },
        {
          "internalType": "uint256",
          "name": "",
          "type": "uint256"
        }
      ],
      "stateMutability": "view",
      "type": "function"
    },
    {
      "inputs": [],
      "name": "getGasToken",
      "outputs": [
        {
          "internalType": "address",
          "name": "",
          "type": "address"
        }
      ],
      "stateMutability": "view",
      "type": "function"
    },
    {
      "inputs": [
        {
          "internalType": "uint256",
          "name": "_totalMaxHp",
          "type": "uint256"
        },
        {
          "internalType": "uint256",
          "name": "_targetHp",
          "type": "uint256"
        }
      ],
      "name": "getHPReal",
      "outputs": [
        {
          "internalType": "uint256",
          "name": "",
          "type": "uint256"
        }
      ],
      "stateMutability": "view",
      "type": "function"
    },
    {
      "inputs": [
        {
          "internalType": "address",
          "name": "_hero",
          "type": "address"
        },
        {
          "internalType": "uint256",
          "name": "_target",
          "type": "uint256"
        },
        {
          "internalType": "uint256",
          "name": "_targetHp",
          "type": "uint256"
        },
        {
          "internalType": "int256",
          "name": "_amount",
          "type": "int256"
        },
        {
          "internalType": "int256",
          "name": "_amtType",
          "type": "int256"
        }
      ],
      "name": "getHPWithAmount",
      "outputs": [
        {
          "internalType": "uint256",
          "name": "",
          "type": "uint256"
        }
      ],
      "stateMutability": "nonpayable",
      "type": "function"
    },
    {
      "inputs": [
        {
          "internalType": "uint256",
          "name": "_iId",
          "type": "uint256"
        }
      ],
      "name": "getItemStats",
      "outputs": [
        {
          "components": [
            {
              "internalType": "int256",
              "name": "slot",
              "type": "int256"
            },
            {
              "internalType": "int256",
              "name": "stam",
              "type": "int256"
            },
            {
              "internalType": "int256",
              "name": "strn",
              "type": "int256"
            },
            {
              "internalType": "int256",
              "name": "intel",
              "type": "int256"
            },
            {
              "internalType": "int256",
              "name": "agi",
              "type": "int256"
            },
            {
              "internalType": "int256",
              "name": "armor",
              "type": "int256"
            },
            {
              "internalType": "int256",
              "name": "fire",
              "type": "int256"
            },
            {
              "internalType": "int256",
              "name": "frost",
              "type": "int256"
            },
            {
              "internalType": "int256",
              "name": "meta",
              "type": "int256"
            },
            {
              "internalType": "uint256",
              "name": "effect",
              "type": "uint256"
            },
            {
              "internalType": "uint256",
              "name": "level",
              "type": "uint256"
            }
          ],
          "internalType": "struct HeroItem",
          "name": "",
          "type": "tuple"
        }
      ],
      "stateMutability": "nonpayable",
      "type": "function"
    },
    {
      "inputs": [],
      "name": "getNBT",
      "outputs": [
        {
          "internalType": "address",
          "name": "",
          "type": "address"
        }
      ],
      "stateMutability": "view",
      "type": "function"
    },
    {
      "inputs": [
        {
          "internalType": "address",
          "name": "user",
          "type": "address"
        }
      ],
      "name": "getNonce",
      "outputs": [
        {
          "internalType": "uint256",
          "name": "nonce",
          "type": "uint256"
        }
      ],
      "stateMutability": "view",
      "type": "function"
    },
    {
      "inputs": [
        {
          "internalType": "uint256",
          "name": "_tokenId",
          "type": "uint256"
        }
      ],
      "name": "getRewards",
      "outputs": [
        {
          "internalType": "address",
          "name": "",
          "type": "address"
        },
        {
          "internalType": "uint256",
          "name": "",
          "type": "uint256"
        }
      ],
      "stateMutability": "view",
      "type": "function"
    },
    {
      "inputs": [],
      "name": "getRoyalty",
      "outputs": [
        {
          "internalType": "uint256",
          "name": "",
          "type": "uint256"
        }
      ],
      "stateMutability": "view",
      "type": "function"
    },
    {
      "inputs": [
        {
          "internalType": "uint256",
          "name": "_hId",
          "type": "uint256"
        }
      ],
      "name": "getSpawn",
      "outputs": [
        {
          "internalType": "uint256",
          "name": "",
          "type": "uint256"
        }
      ],
      "stateMutability": "view",
      "type": "function"
    },
    {
      "inputs": [
        {
          "internalType": "address",
          "name": "_hero",
          "type": "address"
        },
        {
          "internalType": "uint256",
          "name": "_target",
          "type": "uint256"
        }
      ],
      "name": "getStats",
      "outputs": [
        {
          "components": [
            {
              "internalType": "uint256",
              "name": "intel",
              "type": "uint256"
            },
            {
              "internalType": "uint256",
              "name": "agi",
              "type": "uint256"
            },
            {
              "internalType": "uint256",
              "name": "strn",
              "type": "uint256"
            },
            {
              "internalType": "uint256",
              "name": "effect",
              "type": "uint256"
            },
            {
              "components": [
                {
                  "internalType": "uint256",
                  "name": "talent",
                  "type": "uint256"
                }
              ],
              "internalType": "struct HeroTalents",
              "name": "talent",
              "type": "tuple"
            },
            {
              "internalType": "uint256",
              "name": "fizzle",
              "type": "uint256"
            }
          ],
          "internalType": "struct Stats",
          "name": "",
          "type": "tuple"
        }
      ],
      "stateMutability": "nonpayable",
      "type": "function"
    },
    {
      "inputs": [
        {
          "internalType": "address",
          "name": "_hero",
          "type": "address"
        },
        {
          "internalType": "uint256",
          "name": "_hId",
          "type": "uint256"
        },
        {
          "internalType": "uint256",
          "name": "_target",
          "type": "uint256"
        },
        {
          "internalType": "uint256",
          "name": "_hpBefore",
          "type": "uint256"
        },
        {
          "internalType": "uint256",
          "name": "_hpAfter",
          "type": "uint256"
        },
        {
          "internalType": "int256",
          "name": "_how",
          "type": "int256"
        },
        {
          "internalType": "uint256",
          "name": "_effect",
          "type": "uint256"
        }
      ],
      "name": "hpByEffect",
      "outputs": [],
      "stateMutability": "nonpayable",
      "type": "function"
    },
    {
      "inputs": [
        {
          "internalType": "address",
          "name": "",
          "type": "address"
        }
      ],
      "name": "isAddon",
      "outputs": [
        {
          "internalType": "bool",
          "name": "",
          "type": "bool"
        }
      ],
      "stateMutability": "view",
      "type": "function"
    },
    {
      "inputs": [
        {
          "internalType": "address",
          "name": "owner",
          "type": "address"
        },
        {
          "internalType": "address",
          "name": "operator",
          "type": "address"
        }
      ],
      "name": "isApprovedForAll",
      "outputs": [
        {
          "internalType": "bool",
          "name": "",
          "type": "bool"
        }
      ],
      "stateMutability": "view",
      "type": "function"
    },
    {
      "inputs": [
        {
          "internalType": "address",
          "name": "_hero",
          "type": "address"
        },
        {
          "internalType": "uint256",
          "name": "_hId",
          "type": "uint256"
        },
        {
          "internalType": "address",
          "name": "_to",
          "type": "address"
        },
        {
          "internalType": "int256",
          "name": "_slot",
          "type": "int256"
        }
      ],
      "name": "itemMint",
      "outputs": [
        {
          "internalType": "uint256",
          "name": "",
          "type": "uint256"
        }
      ],
      "stateMutability": "nonpayable",
      "type": "function"
    },
    {
      "inputs": [],
      "name": "maxmint",
      "outputs": [
        {
          "internalType": "uint256",
          "name": "",
          "type": "uint256"
        }
      ],
      "stateMutability": "view",
      "type": "function"
    },
    {
      "inputs": [
        {
          "internalType": "address",
          "name": "_to",
          "type": "address"
        }
      ],
      "name": "mintTo",
      "outputs": [
        {
          "internalType": "uint256",
          "name": "",
          "type": "uint256"
        }
      ],
      "stateMutability": "nonpayable",
      "type": "function"
    },
    {
      "inputs": [],
      "name": "name",
      "outputs": [
        {
          "internalType": "string",
          "name": "",
          "type": "string"
        }
      ],
      "stateMutability": "view",
      "type": "function"
    },
    {
      "inputs": [
        {
          "internalType": "address",
          "name": "operator",
          "type": "address"
        },
        {
          "internalType": "address",
          "name": "from",
          "type": "address"
        },
        {
          "internalType": "uint256",
          "name": "tokenId",
          "type": "uint256"
        },
        {
          "internalType": "bytes",
          "name": "data",
          "type": "bytes"
        }
      ],
      "name": "onERC721Received",
      "outputs": [
        {
          "internalType": "bytes4",
          "name": "",
          "type": "bytes4"
        }
      ],
      "stateMutability": "nonpayable",
      "type": "function"
    },
    {
      "inputs": [],
      "name": "owner",
      "outputs": [
        {
          "internalType": "address",
          "name": "",
          "type": "address"
        }
      ],
      "stateMutability": "view",
      "type": "function"
    },
    {
      "inputs": [
        {
          "internalType": "uint256",
          "name": "tokenId",
          "type": "uint256"
        }
      ],
      "name": "ownerOf",
      "outputs": [
        {
          "internalType": "address",
          "name": "",
          "type": "address"
        }
      ],
      "stateMutability": "view",
      "type": "function"
    },
    {
      "inputs": [],
      "name": "renounceOwnership",
      "outputs": [],
      "stateMutability": "nonpayable",
      "type": "function"
    },
    {
      "inputs": [
        {
          "internalType": "address",
          "name": "from",
          "type": "address"
        },
        {
          "internalType": "address",
          "name": "to",
          "type": "address"
        },
        {
          "internalType": "uint256",
          "name": "tokenId",
          "type": "uint256"
        }
      ],
      "name": "safeTransferFrom",
      "outputs": [],
      "stateMutability": "nonpayable",
      "type": "function"
    },
    {
      "inputs": [
        {
          "internalType": "address",
          "name": "from",
          "type": "address"
        },
        {
          "internalType": "address",
          "name": "to",
          "type": "address"
        },
        {
          "internalType": "uint256",
          "name": "tokenId",
          "type": "uint256"
        },
        {
          "internalType": "bytes",
          "name": "_data",
          "type": "bytes"
        }
      ],
      "name": "safeTransferFrom",
      "outputs": [],
      "stateMutability": "nonpayable",
      "type": "function"
    },
    {
      "inputs": [
        {
          "internalType": "address",
          "name": "from",
          "type": "address"
        },
        {
          "internalType": "address",
          "name": "to",
          "type": "address"
        },
        {
          "internalType": "uint256",
          "name": "tokenId",
          "type": "uint256"
        }
      ],
      "name": "safeTransferFromRegistry",
      "outputs": [],
      "stateMutability": "nonpayable",
      "type": "function"
    },
    {
      "inputs": [
        {
          "internalType": "address",
          "name": "_addon",
          "type": "address"
        },
        {
          "internalType": "bool",
          "name": "_isAddon",
          "type": "bool"
        }
      ],
      "name": "setAddon",
      "outputs": [],
      "stateMutability": "nonpayable",
      "type": "function"
    },
    {
      "inputs": [
        {
          "internalType": "address",
          "name": "operator",
          "type": "address"
        },
        {
          "internalType": "bool",
          "name": "approved",
          "type": "bool"
        }
      ],
      "name": "setApprovalForAll",
      "outputs": [],
      "stateMutability": "nonpayable",
      "type": "function"
    },
    {
      "inputs": [
        {
          "internalType": "string",
          "name": "_baseuri",
          "type": "string"
        }
      ],
      "name": "setBaseURI",
      "outputs": [],
      "stateMutability": "nonpayable",
      "type": "function"
    },
    {
      "inputs": [
        {
          "internalType": "bool",
          "name": "_burnable",
          "type": "bool"
        }
      ],
      "name": "setBurnable",
      "outputs": [],
      "stateMutability": "nonpayable",
      "type": "function"
    },
    {
      "inputs": [
        {
          "internalType": "uint256",
          "name": "_defaultfrom",
          "type": "uint256"
        }
      ],
      "name": "setDefaultFrom",
      "outputs": [],
      "stateMutability": "nonpayable",
      "type": "function"
    },
    {
      "inputs": [
        {
          "internalType": "uint256",
          "name": "_defaultprice",
          "type": "uint256"
        }
      ],
      "name": "setDefaultPrice",
      "outputs": [],
      "stateMutability": "nonpayable",
      "type": "function"
    },
    {
      "inputs": [
        {
          "internalType": "address",
          "name": "_gasToken",
          "type": "address"
        }
      ],
      "name": "setGasToken",
      "outputs": [],
      "stateMutability": "nonpayable",
      "type": "function"
    },
    {
      "inputs": [
        {
          "internalType": "uint256",
          "name": "_iId",
          "type": "uint256"
        },
        {
          "components": [
            {
              "internalType": "int256",
              "name": "slot",
              "type": "int256"
            },
            {
              "internalType": "int256",
              "name": "stam",
              "type": "int256"
            },
            {
              "internalType": "int256",
              "name": "strn",
              "type": "int256"
            },
            {
              "internalType": "int256",
              "name": "intel",
              "type": "int256"
            },
            {
              "internalType": "int256",
              "name": "agi",
              "type": "int256"
            },
            {
              "internalType": "int256",
              "name": "armor",
              "type": "int256"
            },
            {
              "internalType": "int256",
              "name": "fire",
              "type": "int256"
            },
            {
              "internalType": "int256",
              "name": "frost",
              "type": "int256"
            },
            {
              "internalType": "int256",
              "name": "meta",
              "type": "int256"
            },
            {
              "internalType": "uint256",
              "name": "effect",
              "type": "uint256"
            },
            {
              "internalType": "uint256",
              "name": "level",
              "type": "uint256"
            }
          ],
          "internalType": "struct HeroItem",
          "name": "_item",
          "type": "tuple"
        }
      ],
      "name": "setItemStats",
      "outputs": [],
      "stateMutability": "nonpayable",
      "type": "function"
    },
    {
      "inputs": [
        {
          "internalType": "uint256",
          "name": "_maxmint",
          "type": "uint256"
        }
      ],
      "name": "setMaxMint",
      "outputs": [],
      "stateMutability": "nonpayable",
      "type": "function"
    },
    {
      "inputs": [
        {
          "internalType": "address",
          "name": "_rewardContract",
          "type": "address"
        }
      ],
      "name": "setRewardContract",
      "outputs": [],
      "stateMutability": "nonpayable",
      "type": "function"
    },
    {
      "inputs": [
        {
          "internalType": "uint256",
          "name": "_tokenId",
          "type": "uint256"
        },
        {
          "internalType": "uint256",
          "name": "_rewardTokenId",
          "type": "uint256"
        }
      ],
      "name": "setRewardToken",
      "outputs": [],
      "stateMutability": "nonpayable",
      "type": "function"
    },
    {
      "inputs": [
        {
          "internalType": "uint256",
          "name": "_royalty",
          "type": "uint256"
        }
      ],
      "name": "setRoyalty",
      "outputs": [],
      "stateMutability": "nonpayable",
      "type": "function"
    },
    {
      "inputs": [
        {
          "internalType": "bytes4",
          "name": "interfaceId",
          "type": "bytes4"
        }
      ],
      "name": "supportsInterface",
      "outputs": [
        {
          "internalType": "bool",
          "name": "",
          "type": "bool"
        }
      ],
      "stateMutability": "view",
      "type": "function"
    },
    {
      "inputs": [],
      "name": "symbol",
      "outputs": [
        {
          "internalType": "string",
          "name": "",
          "type": "string"
        }
      ],
      "stateMutability": "view",
      "type": "function"
    },
    {
      "inputs": [
        {
          "internalType": "uint256",
          "name": "index",
          "type": "uint256"
        }
      ],
      "name": "tokenByIndex",
      "outputs": [
        {
          "internalType": "uint256",
          "name": "",
          "type": "uint256"
        }
      ],
      "stateMutability": "view",
      "type": "function"
    },
    {
      "inputs": [
        {
          "internalType": "address",
          "name": "owner",
          "type": "address"
        },
        {
          "internalType": "uint256",
          "name": "index",
          "type": "uint256"
        }
      ],
      "name": "tokenOfOwnerByIndex",
      "outputs": [
        {
          "internalType": "uint256",
          "name": "",
          "type": "uint256"
        }
      ],
      "stateMutability": "view",
      "type": "function"
    },
    {
      "inputs": [
        {
          "internalType": "uint256",
          "name": "_tokenId",
          "type": "uint256"
        }
      ],
      "name": "tokenURI",
      "outputs": [
        {
          "internalType": "string",
          "name": "",
          "type": "string"
        }
      ],
      "stateMutability": "view",
      "type": "function"
    },
    {
      "inputs": [],
      "name": "totalSupply",
      "outputs": [
        {
          "internalType": "uint256",
          "name": "",
          "type": "uint256"
        }
      ],
      "stateMutability": "view",
      "type": "function"
    },
    {
      "inputs": [
        {
          "internalType": "address",
          "name": "from",
          "type": "address"
        },
        {
          "internalType": "address",
          "name": "to",
          "type": "address"
        },
        {
          "internalType": "uint256",
          "name": "tokenId",
          "type": "uint256"
        }
      ],
      "name": "transferFrom",
      "outputs": [],
      "stateMutability": "nonpayable",
      "type": "function"
    },
    {
      "inputs": [
        {
          "internalType": "address",
          "name": "newOwner",
          "type": "address"
        }
      ],
      "name": "transferOwnership",
      "outputs": [],
      "stateMutability": "nonpayable",
      "type": "function"
    }
  ],
  "bytecode": "6080604052600a805460ff191690556000600e553480156200002057600080fd5b5060405162005a9338038062005a93833981016040819052620000439162000538565b6040518060400160405280601881526020017f54686520536361726162204379636c652773204974656d730000000000000000815250604051806040016040528060048152602001635453434960e01b8152508460405180606001604052806028815260200162005a1c602891396001600019806000198b8d8989828783838160009080519060200190620000da92919062000475565b508051620000f090600190602084019062000475565b505050600062000105620002f860201b60201c565b600d80546001600160a01b0319166001600160a01b038316908117909155604051919250906000907f8be0079c531659141344cd1fd0a4f28419497f9722a3daafe3b4186f6b6457e0908290a350601080546001600160a01b0319166001600160a01b038416179055620001798462000314565b600f5550506001601155506001600160a01b038116620001e05760405162461bcd60e51b815260206004820152601560248201527f496e76616c69642061646d696e2061646472657373000000000000000000000060448201526064015b60405180910390fd5b6001600160a01b0382166200022c5760405162461bcd60e51b815260206004820152601160248201527024b73b30b634b21033b0b9903a37b5b2b760791b6044820152606401620001d7565b601080546001600160a01b0319166001600160a01b03831617905586516200025c9060129060208a019062000475565b50506013805460ff19169515159590951790945560149190915560155550601a80546001600160a01b03199081166001600160a01b039384161790915560056016556010805482169b83169b909b17909a55601f80548b169982169990991790985550506023805488169387169390931790925550506020805485169190931690811790925550602180549092161790556000602255620005e4565b60006200030f6200037560201b620032d81760201c565b905090565b600a5460ff16156200035a5760405162461bcd60e51b815260206004820152600e60248201526d185b1c9958591e481a5b9a5d195960921b6044820152606401620001d7565b6200036581620003d3565b50600a805460ff19166001179055565b6000303303620003cd57600080368080601f0160208091040260200160405190810160405280939291908181526020018383808284376000920191909152505050503601516001600160a01b03169150620003d09050565b50335b90565b6040518060800160405280604f815260200162005a44604f9139805160209182012082519282019290922060408051808201825260018152603160f81b90840152805180840194909452838101919091527fc89efdaa54c0f20c7adf612882df0950f5a951637e0307cdcb4c672f298b8bc660608401523060808401524660a0808501919091528151808503909101815260c090930190528151910120600b55565b8280546200048390620005a8565b90600052602060002090601f016020900481019282620004a75760008555620004f2565b82601f10620004c257805160ff1916838001178555620004f2565b82800160010185558215620004f2579182015b82811115620004f2578251825591602001919060010190620004d5565b506200050092915062000504565b5090565b5b8082111562000500576000815560010162000505565b80516001600160a01b03811681146200053357600080fd5b919050565b600080600080600060a086880312156200055157600080fd5b6200055c866200051b565b94506200056c602087016200051b565b93506200057c604087016200051b565b92506200058c606087016200051b565b91506200059c608087016200051b565b90509295509295909350565b600181811c90821680620005bd57607f821691505b602082108103620005de57634e487b7160e01b600052602260045260246000fd5b50919050565b61542880620005f46000396000f3fe6080604052600436106103855760003560e01c8063596c6325116101d3578063a22cb46511610103578063c87b56dd1161009b578063c87b56dd14610c58578063d547cfb714610c78578063e189977f14610c8d578063e6cda97414610cad578063e8a3d48514610ccd578063e985e9c514610ce2578063ef2d174614610d02578063f2fde38b14610d17578063fae06be614610d3757600080fd5b8063a22cb46514610b24578063a795e19314610b44578063b086613c14610b64578063b3a54f0014610b79578063b88d4fde14610b99578063b9dd657414610bb9578063c0d8012c14610bce578063c43e92b114610c18578063c60e328d14610c3857600080fd5b806380929e5b1161017657806380929e5b146109935780638297f29f146109b357806389a7ea6c146109ec5780638a0de3dd14610a915780638aa80ea514610aaf5780638da5cb5b14610ac55780638dd1983b14610ada57806395d89b4114610afa578063972d1ae214610b0f57600080fd5b8063596c63251461088e5780635febc07a146108be5780636352211e146108de5780636d3c7ec5146108fe5780636d714b681461091e57806370a082311461093e578063715018a61461095e578063755edd171461097357600080fd5b80632d0335ab116102b9578063495057be11610251578063495057be146104a65780634d47732a1461079b5780634d57ca4f146107b05780634f6ccce7146107d057806351508f0a146107f057806351f41ee314610810578063547520fe1461082e578063547b17c61461084e57806355f804b31461086e57600080fd5b80632d0335ab146106655780632f745c591461069b57806333d119eb146106bb5780633408e470146106e8578063343f40df146106fb5780634209a2e11461071b57806342842e0e1461073b57806342966c681461075b5780634409559a1461077b57600080fd5b8063150b7a021161032c578063150b7a021461050857806318160ddd1461054d578063199dc5321461056c5780631b64ab59146105bb5780631e9f8aad146105db57806320379ee5146105fb57806323b872dd1461061057806324d64ca2146106305780632966bef01461064557600080fd5b806301ffc9a71461038a57806303685169146103bf57806306fdde031461042c578063081812fc1461044e578063095ea7b3146104865780630c53c51c146104a85780630f7e5970146104bb578063109f7561146104e8575b600080fd5b34801561039657600080fd5b506103aa6103a536600461468a565b610d57565b60405190151581526020015b60405180910390f35b3480156103cb57600080fd5b506103df6103da3660046146c3565b610d82565b6040516103b69190600060c08201905082518252602083015160208301526040830151604083015260608301516060830152608083015151608083015260a083015160a083015292915050565b34801561043857600080fd5b50610441610f31565b6040516103b69190614745565b34801561045a57600080fd5b5061046e610469366004614758565b610fc3565b6040516001600160a01b0390911681526020016103b6565b34801561049257600080fd5b506104a66104a13660046146c3565b611050565b005b6104416104b636600461483c565b611172565b3480156104c757600080fd5b50610441604051806040016040528060018152602001603160f81b81525081565b3480156104f457600080fd5b506104a6610503366004614758565b61135e565b34801561051457600080fd5b506105346105233660046148b7565b63785cf2dd60e11b95945050505050565b6040516001600160e01b031990911681526020016103b6565b34801561055957600080fd5b506008545b6040519081526020016103b6565b34801561057857600080fd5b506105a6610587366004614758565b6000908152601860209081526040808320546019909252909120549091565b604080519283526020830191909152016103b6565b3480156105c757600080fd5b506104a66105d6366004614951565b6113af565b3480156105e757600080fd5b506104a66105f636600461497d565b61151b565b34801561060757600080fd5b50600b5461055e565b34801561061c57600080fd5b506104a661062b366004614998565b6115af565b34801561063c57600080fd5b5060155461055e565b34801561065157600080fd5b506104a66106603660046149d4565b6115e7565b34801561067157600080fd5b5061055e61068036600461497d565b6001600160a01b03166000908152600c602052604090205490565b3480156106a757600080fd5b5061055e6106b63660046146c3565b61171f565b3480156106c757600080fd5b5061055e6106d6366004614758565b60009081526024602052604090205490565b3480156106f457600080fd5b504661055e565b34801561070757600080fd5b506104a6610716366004614758565b6117b5565b34801561072757600080fd5b506104a6610736366004614758565b6117dd565b34801561074757600080fd5b506104a6610756366004614998565b61187d565b34801561076757600080fd5b506104a6610776366004614758565b611898565b34801561078757600080fd5b5060105461046e906001600160a01b031681565b3480156107a757600080fd5b5060165461055e565b3480156107bc57600080fd5b506104a66107cb366004614a27565b611961565b3480156107dc57600080fd5b5061055e6107eb366004614758565b6119c2565b3480156107fc57600080fd5b506104a661080b36600461497d565b611a55565b34801561081c57600080fd5b506023546001600160a01b031661046e565b34801561083a57600080fd5b506104a6610849366004614758565b611b52565b34801561085a57600080fd5b506104a6610869366004614a49565b611ba8565b34801561087a57600080fd5b506104a6610889366004614afd565b611c69565b34801561089a57600080fd5b506103aa6108a936600461497d565b601e6020526000908152604090205460ff1681565b3480156108ca57600080fd5b5061055e6108d9366004614a27565b611cd1565b3480156108ea57600080fd5b5061046e6108f9366004614758565b611cf7565b34801561090a57600080fd5b506104a6610919366004614758565b611d6e565b34801561092a57600080fd5b506104a6610939366004614b3f565b611dbf565b34801561094a57600080fd5b5061055e61095936600461497d565b611e4c565b34801561096a57600080fd5b506104a6611ed3565b34801561097f57600080fd5b5061055e61098e36600461497d565b611f5c565b34801561099f57600080fd5b506104a66109ae366004614b76565b612075565b3480156109bf57600080fd5b506103aa6109ce36600461497d565b6001600160a01b03166000908152601e602052604090205460ff1690565b3480156109f857600080fd5b50610a0c610a07366004614758565b6120c7565b6040516103b69190600061016082019050825182526020830151602083015260408301516040830152606083015160608301526080830151608083015260a083015160a083015260c083015160c083015260e083015160e083015261010080840151818401525061012080840151818401525061014080840151818401525092915050565b348015610a9d57600080fd5b50601a546001600160a01b031661046e565b348015610abb57600080fd5b5061055e600f5481565b348015610ad157600080fd5b5061046e6121f7565b348015610ae657600080fd5b5061055e610af5366004614b93565b612206565b348015610b0657600080fd5b506104416124b5565b348015610b1b57600080fd5b5061055e6124c4565b348015610b3057600080fd5b506104a6610b3f366004614b3f565b6124da565b348015610b5057600080fd5b5061055e610b5f36600461497d565b6125d7565b348015610b7057600080fd5b5060145461055e565b348015610b8557600080fd5b506104a6610b94366004614bc6565b61264f565b348015610ba557600080fd5b506104a6610bb4366004614c08565b612745565b348015610bc557600080fd5b506104a6612784565b348015610bda57600080fd5b50610c0a610be9366004614758565b601b546000918252601c6020526040909120546001600160a01b0390911691565b6040516103b6929190614c6f565b348015610c2457600080fd5b506104a6610c33366004614998565b61279b565b348015610c4457600080fd5b5061055e610c53366004614c88565b6129bf565b348015610c6457600080fd5b50610441610c73366004614758565b612dcc565b348015610c8457600080fd5b50610441612e06565b348015610c9957600080fd5b506104a6610ca8366004614cca565b612e2e565b348015610cb957600080fd5b506104a6610cc8366004614998565b612fe9565b348015610cd957600080fd5b50610441613067565b348015610cee57600080fd5b506103aa610cfd366004614d19565b61307b565b348015610d0e57600080fd5b50600e5461055e565b348015610d2357600080fd5b506104a6610d3236600461497d565b6130a9565b348015610d4357600080fd5b5061055e610d52366004614d4c565b6131a9565b60006001600160e01b0319821663780e9d6360e01b1480610d7c5750610d7c82613334565b92915050565b610d8a614591565b600080808060015b600e8113610ea9576001600160a01b03881660009081526027602090815260408083208a845282528083208484529091529020548015610e96576000818152602660209081526040918290208251610160810184528154815260018201549281019290925260028101549282019290925260038201546060820181905260048301546080830152600583015460a0830152600683015460c0830152600783015460e083015260088301546101008301526009830154610120830152600a9092015461014082015290610e649088614da6565b9650806080015186610e769190614da6565b9550806040015185610e889190614da6565b945080610120015184179350505b5080610ea181614dbe565b915050610d92565b506040518060c00160405280856001610ec29190614da6565b8152602001610ed2856001614da6565b8152602001610ee2846001614da6565b81526020808201939093526001600160a01b0398909816600090815260288352604080822098825297835287902087519283018852548252958701525050600660609094019390935250919050565b606060008054610f4090614ddd565b80601f0160208091040260200160405190810160405280929190818152602001828054610f6c90614ddd565b8015610fb95780601f10610f8e57610100808354040283529160200191610fb9565b820191906000526020600020905b815481529060010190602001808311610f9c57829003601f168201915b5050505050905090565b6000610fce82613384565b6110345760405162461bcd60e51b815260206004820152602c60248201527f4552433732313a20617070726f76656420717565727920666f72206e6f6e657860448201526b34b9ba32b73a103a37b5b2b760a11b60648201526084015b60405180910390fd5b506000908152600460205260409020546001600160a01b031690565b600061105b82611cf7565b9050806001600160a01b0316836001600160a01b0316036110c85760405162461bcd60e51b815260206004820152602160248201527f4552433732313a20617070726f76616c20746f2063757272656e74206f776e656044820152603960f91b606482015260840161102b565b806001600160a01b03166110da6133a1565b6001600160a01b031614806110f657506110f681610cfd6133a1565b6111635760405162461bcd60e51b815260206004820152603860248201527f4552433732313a20617070726f76652063616c6c6572206973206e6f74206f776044820152771b995c881b9bdc88185c1c1c9bdd995908199bdc88185b1b60421b606482015260840161102b565b61116d83836133ab565b505050565b60408051606081810183526001600160a01b0388166000818152600c6020908152908590205484528301529181018690526111b08782878787613419565b6112065760405162461bcd60e51b815260206004820152602160248201527f5369676e657220616e64207369676e617475726520646f206e6f74206d6174636044820152600d60fb1b606482015260840161102b565b6001600160a01b0387166000908152600c602052604090205461122a906001613509565b6001600160a01b0388166000908152600c60205260409081902091909155517f5845892132946850460bff5a0083f71031bc5bf9aadcd40f1de79423eac9b10b9061127a90899033908a90614e17565b60405180910390a1600080306001600160a01b0316888a6040516020016112a2929190614e43565b60408051601f19818403018152908290526112bc91614e7a565b6000604051808303816000865af19150503d80600081146112f9576040519150601f19603f3d011682016040523d82523d6000602084013e6112fe565b606091505b5091509150816113505760405162461bcd60e51b815260206004820152601c60248201527f46756e6374696f6e2063616c6c206e6f74207375636365737366756c00000000604482015260640161102b565b925050505b95945050505050565b6113666121f7565b6001600160a01b03166113776132d8565b6001600160a01b031614806113a1575061138f6132d8565b6010546001600160a01b039081169116145b6113aa57600080fd5b601555565b6002601154036113d15760405162461bcd60e51b815260040161102b90614e96565b6002601155601a546000906001600160a01b031663dd62ed3e6113f26132d8565b6040516001600160e01b031960e084901b1681526001600160a01b039091166004820152306024820152604401602060405180830381865afa15801561143c573d6000803e3d6000fd5b505050506040513d601f19601f820116820180604052508101906114609190614ecd565b9050828110156114a05760405162461bcd60e51b815260206004820152600b60248201526a66696c6c47617354616e6b60a81b604482015260640161102b565b6114aa8284614ee6565b600085815260186020526040812080549091906114c8908490614da6565b9091555050600084815260196020526040812080548492906114eb908490614da6565b9091555061151090506114fc6132d8565b601a546001600160a01b0316903086613515565b505060016011555050565b6001600160a01b0381166115415760405162461bcd60e51b815260040161102b90614efd565b6115496121f7565b6001600160a01b031661155a6132d8565b6001600160a01b0316148061158457506115726132d8565b6010546001600160a01b039081169116145b61158d57600080fd5b601a80546001600160a01b0319166001600160a01b0392909216919091179055565b6115c06115ba6133a1565b8261356d565b6115dc5760405162461bcd60e51b815260040161102b90614f26565b61116d83838361362f565b336000908152601e602052604090205460ff168061160f57506010546001600160a01b031633145b6116485760405162461bcd60e51b815260206004820152600a6024820152691a1c109e5159999958dd60b21b604482015260640161102b565b60005b60048110156117155760006029826004811061166957611669614f77565b01546001600160a01b031690508015611702576040516302966bef60e41b81526001600160a01b038a81166004830152602482018a905260448201899052606482018890526084820187905260a4820186905260c48201859052821690632966bef09060e401600060405180830381600087803b1580156116e957600080fd5b505af11580156116fd573d6000803e3d6000fd5b505050505b508061170d81614f8d565b91505061164b565b5050505050505050565b600061172a83611e4c565b821061178c5760405162461bcd60e51b815260206004820152602b60248201527f455243373231456e756d657261626c653a206f776e657220696e646578206f7560448201526a74206f6620626f756e647360a81b606482015260840161102b565b506001600160a01b03919091166000908152600660209081526040808320938352929052205490565b336000908152601e602052604090205460ff166117d157600080fd5b6117da816137c8565b50565b6117e56121f7565b6001600160a01b03166117f66132d8565b6001600160a01b0316148061182557506010546001600160a01b031661181a6132d8565b6001600160a01b0316145b61182e57600080fd5b606360165411156118785760405162461bcd60e51b81526020600482015260146024820152732132903132ba3bb2b2b710181030b732101c9c9760611b604482015260640161102b565b601655565b61116d83838360405180602001604052806000815250612745565b60135460ff166118ea5760405162461bcd60e51b815260206004820152601b60248201527f596f752063616e2774206275726e20746869732e2e2e207965743f0000000000604482015260640161102b565b6118f56115ba6133a1565b8061191557506119036132d8565b6010546001600160a01b039081169116145b6117d15760405162461bcd60e51b815260206004820181905260248201527f43616c6c6572206973206e6f74206f776e6572206e6f7220617070726f766564604482015260640161102b565b336000908152601e602052604090205460ff168061199457506119826132d8565b6010546001600160a01b039081169116145b61199d57600080fd5b6000918252601c6020908152604080842092909255601d90529020805460ff19169055565b60006119cd60085490565b8210611a305760405162461bcd60e51b815260206004820152602c60248201527f455243373231456e756d657261626c653a20676c6f62616c20696e646578206f60448201526b7574206f6620626f756e647360a01b606482015260840161102b565b60088281548110611a4357611a43614f77565b90600052602060002001549050919050565b6001600160a01b038116611a7b5760405162461bcd60e51b815260040161102b90614efd565b611a836121f7565b6001600160a01b0316611a946132d8565b6001600160a01b03161480611abe5750611aac6132d8565b6010546001600160a01b039081169116145b611b305760405162461bcd60e51b815260206004820152603b60248201527f4f6e6c7920746865206f776e6572206f7220726567697374657279206d61792060448201527f6368616e6765207468652072657761726420636f6e74726163742e0000000000606482015260840161102b565b601b80546001600160a01b0319166001600160a01b0392909216919091179055565b611b5a6121f7565b6001600160a01b0316611b6b6132d8565b6001600160a01b03161480611b9a57506010546001600160a01b0316611b8f6132d8565b6001600160a01b0316145b611ba357600080fd5b600f55565b336000908152601e602052604090205460ff1680611bd057506010546001600160a01b031633145b611bec5760405162461bcd60e51b815260040161102b90614f9f565b60009182526026602090815260409283902082518155908201516001820155918101516002830155606081015160038301556080810151600483015560a0810151600583015560c0810151600683015560e08101516007830155610100810151600883015561012081015160098301556101400151600a90910155565b611c716121f7565b6001600160a01b0316611c826132d8565b6001600160a01b03161480611cb157506010546001600160a01b0316611ca66132d8565b6001600160a01b0316145b611cba57600080fd5b8051611ccd9060129060208401906145db565b5050565b6000670de0b6b3a7640000611ce68385614fd1565b611cf09190615006565b9392505050565b6000818152600260205260408120546001600160a01b031680610d7c5760405162461bcd60e51b815260206004820152602960248201527f4552433732313a206f776e657220717565727920666f72206e6f6e657869737460448201526832b73a103a37b5b2b760b91b606482015260840161102b565b611d766121f7565b6001600160a01b0316611d876132d8565b6001600160a01b03161480611db15750611d9f6132d8565b6010546001600160a01b039081169116145b611dba57600080fd5b601455565b6001600160a01b038216611de55760405162461bcd60e51b815260040161102b90614efd565b611ded6132d8565b6010546001600160a01b0390811691161480611e185750336000908152601e602052604090205460ff165b611e2157600080fd5b6001600160a01b03919091166000908152601e60205260409020805460ff1916911515919091179055565b60006001600160a01b038216611eb75760405162461bcd60e51b815260206004820152602a60248201527f4552433732313a2062616c616e636520717565727920666f7220746865207a65604482015269726f206164647265737360b01b606482015260840161102b565b506001600160a01b031660009081526003602052604090205490565b611edb6133a1565b6001600160a01b0316611eec6121f7565b6001600160a01b031614611f125760405162461bcd60e51b815260040161102b9061501a565b600d546040516000916001600160a01b0316907f8be0079c531659141344cd1fd0a4f28419497f9722a3daafe3b4186f6b6457e0908390a3600d80546001600160a01b0319169055565b6000611f666121f7565b6001600160a01b0316611f776132d8565b6001600160a01b03161480611fa657506010546001600160a01b0316611f9b6132d8565b6001600160a01b0316145b6120065760405162461bcd60e51b815260206004820152602b60248201527f4f6e6c79206f776e657220616e64206d61726b6574706c6163652063616e206d60448201526a34b73a103a37b5b2b7399760a91b606482015260840161102b565b600f546120116124c4565b106120575760405162461bcd60e51b815260206004820152601660248201527520b63932b0b23c9030ba1036b0bc103a37b5b2b7399760511b604482015260640161102b565b60006120616124c4565b905061206d838261385d565b610d7c612784565b61207d6133a1565b6001600160a01b031661208e6121f7565b6001600160a01b0316146120b45760405162461bcd60e51b815260040161102b9061501a565b6013805460ff1916911515919091179055565b61212460405180610160016040528060008152602001600081526020016000815260200160008152602001600081526020016000815260200160008152602001600081526020016000815260200160008152602001600081525090565b336000908152601e602052604090205460ff168061214c57506010546001600160a01b031633145b6121685760405162461bcd60e51b815260040161102b90614f9f565b50600090815260266020908152604091829020825161016081018452815481526001820154928101929092526002810154928201929092526003820154606082015260048201546080820152600582015460a0820152600682015460c0820152600782015460e082015260088201546101008201526009820154610120820152600a9091015461014082015290565b600d546001600160a01b031690565b336000908152601e602052604081205460ff168061222e57506010546001600160a01b031633145b6122705760405162461bcd60e51b81526020600482015260136024820152722cb7ba903630b1b5903a3432903837bbb2b91760691b604482015260640161102b565b6021546040516307e6f85d60e01b81526000916001600160a01b0316906307e6f85d906122a39088908890600401614c6f565b602060405180830381865afa1580156122c0573d6000803e3d6000fd5b505050506040513d601f19601f820116820180604052508101906122e49190614ecd565b905060006122f386868661398a565b905060008282600001516123079190614da6565b604051638d1d0bb960e01b8152600481018890526024810182905290915087906001600160a01b03821690638d1d0bb990604401600060405180830381600087803b15801561235557600080fd5b505af1158015612369573d6000803e3d6000fd5b50506021546040516381b38be960e01b81526001600160a01b038c81166004830152602482018c9052604482018b9052606482018790526000945090911691506381b38be9906084016020604051808303816000875af11580156123d1573d6000803e3d6000fd5b505050506040513d601f19601f820116820180604052508101906123f59190614ecd565b9050600081121561245b57600061240e8260001961504f565b9050878111156124275760009650505050505050611cf0565b83612432828a614ee6565b61244490670de0b6b3a7640000614fd1565b61244e9190615006565b9650505050505050611cf0565b806000612468828a614da6565b90508481111561248957670de0b6b3a7640000975050505050505050611cf0565b8461249c82670de0b6b3a7640000614fd1565b6124a69190615006565b9b9a5050505050505050505050565b606060018054610f4090614ddd565b600e546000906124d5906001613509565b905090565b6124e26133a1565b6001600160a01b0316826001600160a01b03160361253e5760405162461bcd60e51b815260206004820152601960248201527822a9219b99189d1030b8383937bb32903a379031b0b63632b960391b604482015260640161102b565b806005600061254b6133a1565b6001600160a01b03908116825260208083019390935260409182016000908120918716808252919093529120805460ff19169215159290921790915561258f6133a1565b6001600160a01b03167f17307eab39ab6107e8899845ad3d59bd9653f200f220920489ca2b5937696c31836040516125cb911515815260200190565b60405180910390a35050565b336000908152601e602052604081205460ff166126065760405162461bcd60e51b815260040161102b906150d4565b600f546126116124c4565b106120575760405162461bcd60e51b815260206004820152600e60248201526d20ba1036b0bc103a37b5b2b7399760911b604482015260640161102b565b336000908152601e602052604090205460ff168061267757506010546001600160a01b031633145b6126b35760405162461bcd60e51b815260206004820152600d60248201526c65717569704974656d46726f6d60981b604482015260640161102b565b80156126c4576126c484308361362f565b6001600160a01b0383166000908152602760209081526040808320858452825280832084845260258352818420548452909152902054801561270b5761270b30868461362f565b506001600160a01b039092166000908152602760209081526040808320938352928152828220848352602582528383205483529052205550565b6127566127506133a1565b8361356d565b6127725760405162461bcd60e51b815260040161102b90614f26565b61277e84848484613b25565b50505050565b600e805490600061279483614f8d565b9190505550565b6002601154036127bd5760405162461bcd60e51b815260040161102b90614e96565b6002601155601e60006127ce6132d8565b6001600160a01b0316815260208101919091526040016000205460ff166128075760405162461bcd60e51b815260040161102b906150d4565b600061281282611cf7565b9050826001600160a01b0316816001600160a01b0316036128895760405162461bcd60e51b815260206004820152602b60248201527f546f6b656e206f776e65722063616e206e6f74207472616e7366657220746f6b60448201526a32b7103a379039b2b6331760a91b606482015260840161102b565b61289484848461362f565b601b546001600160a01b0316158015906128bb57506000828152601c602052604090205415155b80156128d657506000828152601d602052604090205460ff16155b1561296957601b546000838152601c60205260409081902054905163c43e92b160e01b81526001600160a01b039092169163c43e92b19161291d91889188916004016150fa565b600060405180830381600087803b15801561293757600080fd5b505af115801561294b573d6000803e3d6000fd5b5050506000838152601d60205260409020805460ff19166001179055505b6000828152601960205260409020541561151057600082815260196020526040902054601a546129a6916001600160a01b03909116908590613b58565b5060009081526019602052604081205550506001601155565b336000908152601e602052604081205460ff16806129e757506010546001600160a01b031633145b612a235760405162461bcd60e51b815260206004820152600d60248201526c283632b0b9b2903237b713ba1760991b604482015260640161102b565b60215460405163cd0aca9960e01b81526000916001600160a01b03169063cd0aca9990612a56908a908a90600401614c6f565b602060405180830381865afa158015612a73573d6000803e3d6000fd5b505050506040513d601f19601f82011682018060405250810190612a979190614ecd565b90506000612aa58888613b77565b8051909150600090612ab79084614da6565b604051630acadcb760e21b8152600481018a9052602481018290529091506001600160a01b038a1690632b2b72dc90604401600060405180830381600087803b158015612b0357600080fd5b505af1158015612b17573d6000803e3d6000fd5b505050506000806000881315612b2e575086612b3d565b612b3a8860001961504f565b91505b6000604051806101e001604052806001151581526020018d6001600160a01b031681526020018c8152602001838152602001848152602001898152602001866020015181526020018660400151815260200186606001518152602001866080015181526020018660a001518152602001600181526020016001815260200160008152602001600181525090506000612bd5858c611cd1565b90506000602160009054906101000a90046001600160a01b03166001600160a01b031663787023b58f8f85876040518563ffffffff1660e01b8152600401612d0b94939291906001600160a01b03851681526020810184905260408101839052815115156060820152610240810160208301516001600160a01b038116608084015250604083015160a0830152606083015160c0830152608083015160e083015260a0830151610100818185015260c08501519150610120828186015260e0860151925061014083818701528287015193506101609250838387015281870151935061018091508382870152808701519350506101a083818701528287015193506101c092508383870152818701516101e087015280870151610200870152505080850151610220850152505095945050505050565b6020604051808303816000875af1158015612d2a573d6000803e3d6000fd5b505050506040513d601f19601f82011682018060405250810190612d4e9190614ecd565b905080600003612d6957600098505050505050505050611355565b612d738482614da6565b905080851115612d8557506000612d92565b612d8f8582614ee6565b90505b85811115612d9d5750845b85612db082670de0b6b3a7640000614fd1565b612dba9190615006565b9e9d5050505050505050505050505050565b6060612dd6612e06565b612ddf83613e55565b604051602001612df092919061511e565b6040516020818303038152906040529050919050565b60606012604051602001612e1a91906151e6565b604051602081830303815290604052905090565b600260115403612e505760405162461bcd60e51b815260040161102b90614e96565b60026011556000612e6084611cf7565b9050806001600160a01b0316612e746132d8565b6001600160a01b03161480612e9e5750612e8c6132d8565b6010546001600160a01b039081169116145b612ed85760405162461bcd60e51b815260206004820152600b60248201526a20b6b4b7399037b7363c9760a91b604482015260640161102b565b600084815260186020526040902054831115612f205760405162461bcd60e51b81526020600482015260076024820152662932b334b6361760c91b604482015260640161102b565b60008481526018602052604081208054859290612f3e908490614ee6565b9091555050601a54604051630852cd8d60e31b8152600481018590526001600160a01b03909116906342966c6890602401600060405180830381600087803b158015612f8957600080fd5b505af1158015612f9d573d6000803e3d6000fd5b505050507f06cf1047b698de02174db713eb2021be336d8a8370c8e3b762fe83b7ed289bc381858585604051612fd69493929190615209565b60405180910390a1505060016011555050565b336000908152601e602052604090205460ff168061301157506010546001600160a01b031633145b61305d5760405162461bcd60e51b815260206004820152601c60248201527f596f752063616e277420617070726f7665206c696b6520746861742e00000000604482015260640161102b565b61116d83826133ab565b60606012604051602001612e1a9190615240565b6001600160a01b03918216600090815260056020908152604080832093909416825291909152205460ff1690565b6130b16133a1565b6001600160a01b03166130c26121f7565b6001600160a01b0316146130e85760405162461bcd60e51b815260040161102b9061501a565b6001600160a01b03811661314d5760405162461bcd60e51b815260206004820152602660248201527f4f776e61626c653a206e6577206f776e657220697320746865207a65726f206160448201526564647265737360d01b606482015260840161102b565b600d546040516001600160a01b038084169216907f8be0079c531659141344cd1fd0a4f28419497f9722a3daafe3b4186f6b6457e090600090a3600d80546001600160a01b0319166001600160a01b0392909216919091179055565b336000908152601e602052604081205460ff16806131d157506010546001600160a01b031633145b6132295760405162461bcd60e51b8152602060048201526024808201527f596f752063616e2774206d616b652061206e6577206974656d732074686973206044820152633bb0bc9760e11b606482015260840161102b565b60006132336124c4565b905061323f848261385d565b613247612784565b6040516333d119eb60e01b8152600481018690526001600160a01b038716906333d119eb90602401602060405180830381865afa15801561328c573d6000803e3d6000fd5b505050506040513d601f19601f820116820180604052508101906132b09190614ecd565b600082815260246020908152604080832093909355602590522083905590505b949350505050565b600030330361332e57600080368080601f0160208091040260200160405190810160405280939291908181526020018383808284376000920191909152505050503601516001600160a01b031691506133319050565b50335b90565b60006001600160e01b031982166380ac58cd60e01b148061336557506001600160e01b03198216635b5e139f60e01b145b80610d7c57506301ffc9a760e01b6001600160e01b0319831614610d7c565b6000908152600260205260409020546001600160a01b0316151590565b60006124d56132d8565b600081815260046020526040902080546001600160a01b0319166001600160a01b03841690811790915581906133e082611cf7565b6001600160a01b03167f8c5be1e5ebec7d5bd14f71427d1e84f3dd0314c0f7b2291e5b200ac8c7c3b92560405160405180910390a45050565b60006001600160a01b03861661347f5760405162461bcd60e51b815260206004820152602560248201527f4e61746976654d6574615472616e73616374696f6e3a20494e56414c49445f5360448201526424a3a722a960d91b606482015260840161102b565b600161349261348d87613f55565b613fd2565b6040805160008152602081018083529290925260ff851690820152606081018690526080810185905260a0016020604051602081039080840390855afa1580156134e0573d6000803e3d6000fd5b505050602060405103516001600160a01b0316866001600160a01b031614905095945050505050565b6000611cf08284614da6565b61277e846323b872dd60e01b858585604051602401613536939291906150fa565b60408051601f198184030181529190526020810180516001600160e01b03166001600160e01b031990931692909217909152614002565b600061357882613384565b6135d95760405162461bcd60e51b815260206004820152602c60248201527f4552433732313a206f70657261746f7220717565727920666f72206e6f6e657860448201526b34b9ba32b73a103a37b5b2b760a11b606482015260840161102b565b60006135e483611cf7565b9050806001600160a01b0316846001600160a01b0316148061361f5750836001600160a01b031661361484610fc3565b6001600160a01b0316145b806132d057506132d0818561307b565b826001600160a01b031661364282611cf7565b6001600160a01b0316146136aa5760405162461bcd60e51b815260206004820152602960248201527f4552433732313a207472616e73666572206f6620746f6b656e2074686174206960448201526839903737ba1037bbb760b91b606482015260840161102b565b6001600160a01b03821661370c5760405162461bcd60e51b8152602060048201526024808201527f4552433732313a207472616e7366657220746f20746865207a65726f206164646044820152637265737360e01b606482015260840161102b565b6137178383836140d4565b6137226000826133ab565b6001600160a01b038316600090815260036020526040812080546001929061374b908490614ee6565b90915550506001600160a01b0382166000908152600360205260408120805460019290613779908490614da6565b909155505060008181526002602052604080822080546001600160a01b0319166001600160a01b0386811691821790925591518493918716916000805160206153d383398151915291a4505050565b60006137d382611cf7565b90506137e1816000846140d4565b6137ec6000836133ab565b6001600160a01b0381166000908152600360205260408120805460019290613815908490614ee6565b909155505060008281526002602052604080822080546001600160a01b0319169055518391906001600160a01b038416906000805160206153d3833981519152908390a45050565b6001600160a01b0382166138b35760405162461bcd60e51b815260206004820181905260248201527f4552433732313a206d696e7420746f20746865207a65726f2061646472657373604482015260640161102b565b6138bc81613384565b156139095760405162461bcd60e51b815260206004820152601c60248201527f4552433732313a20746f6b656e20616c7265616479206d696e74656400000000604482015260640161102b565b613915600083836140d4565b6001600160a01b038216600090815260036020526040812080546001929061393e908490614da6565b909155505060008181526002602052604080822080546001600160a01b0319166001600160a01b03861690811790915590518392906000805160206153d3833981519152908290a45050565b604080516020810190915260008152600060015b600e8113613b0e576001600160a01b038616600090815260276020908152604080832088845282528083208484529091529020548015613afb5760008181526026602090815260409182902082516101608101845281548152600182015492810192909252600281015482840152600381015460608301526004808201546080840152600582015460a0840152600682015460c0840152600782015460e084015260088201546101008401526009820154610120840152600a909101546101408301526021549251630a2d082960e21b81526001600160a01b038b811692820192909252602481018a905260448101899052919216906328b420a490606401602060405180830381865afa158015613aba573d6000803e3d6000fd5b505050506040513d601f19601f82011682018060405250810190613ade9190614ecd565b8160600151613aed9190614fd1565b613af79085614da6565b9350505b5080613b0681614dbe565b91505061399e565b506040805160208101909152908152949350505050565b613b3084848461362f565b613b3c8484848461418c565b61277e5760405162461bcd60e51b815260040161102b90615265565b61116d8363a9059cbb60e01b8484604051602401613536929190614c6f565b613bb06040518060c001604052806000815260200160008152602001600081526020016000815260200160008152602001600081525090565b602154604051633de49a8b60e11b81526000916001600160a01b031690637bc9351690613be39087908790600401614c6f565b602060405180830381865afa158015613c00573d6000803e3d6000fd5b505050506040513d601f19601f82011682018060405250810190613c249190614ecd565b90506000808080808060015b600e8113613d71576001600160a01b038b1660009081526027602090815260408083208d845282528083208484529091529020548015613d5e576000818152602660209081526040918290208251610160810184528154815260018201549281018390526002820154938101939093526003810154606084015260048101546080840152600581015460a0840152600681015460c0840152600781015460e084015260088101546101008401526009810154610120840152600a0154610140830152613cfd908b90614fd1565b613d07908a614da6565b98508060a0015188613d1991906152b7565b97508060c0015187613d2b91906152b7565b96508060e0015186613d3d91906152b7565b955080610100015185613d5091906152b7565b945080610120015184179350505b5080613d6981614dbe565b915050613c30565b506040805160c08101825287815260208101879052808201869052606081018590526080810184905260a0810183905290516304bc43a560e01b81526001600160a01b038c16906304bc43a590613e14908d908590600401600060e08201905083825282516020830152602083015160408301526040830151606083015260608301516080830152608083015160a083015260a083015160c08301529392505050565b600060405180830381600087803b158015613e2e57600080fd5b505af1158015613e42573d6000803e3d6000fd5b50929d9c50505050505050505050505050565b606081600003613e7c5750506040805180820190915260018152600360fc1b602082015290565b8160005b8115613ea65780613e9081614f8d565b9150613e9f9050600a83615006565b9150613e80565b6000816001600160401b03811115613ec057613ec0614771565b6040519080825280601f01601f191660200182016040528015613eea576020820181803683370190505b5090505b84156132d057613eff600183614ee6565b9150613f0c600a866152f8565b613f17906030614da6565b60f81b818381518110613f2c57613f2c614f77565b60200101906001600160f81b031916908160001a905350613f4e600a86615006565b9450613eee565b60006040518060800160405280604381526020016153906043913980516020918201208351848301516040808701518051908601209051613fb5950193845260208401929092526001600160a01b03166040830152606082015260800190565b604051602081830303815290604052805190602001209050919050565b6000613fdd600b5490565b60405161190160f01b6020820152602281019190915260428101839052606201613fb5565b6000614057826040518060400160405280602081526020017f5361666545524332303a206c6f772d6c6576656c2063616c6c206661696c6564815250856001600160a01b03166142919092919063ffffffff16565b80519091501561116d5780806020019051810190614075919061530c565b61116d5760405162461bcd60e51b815260206004820152602a60248201527f5361666545524332303a204552433230206f7065726174696f6e20646964206e6044820152691bdd081cdd58d8d9595960b21b606482015260840161102b565b6001600160a01b03831661412f5761412a81600880546000838152600960205260408120829055600182018355919091527ff3f7a9fe364faab93b216da50a3214154f22a0a2b415b23a84c8169e8b636ee30155565b614152565b816001600160a01b0316836001600160a01b0316146141525761415283826142a0565b6001600160a01b0382166141695761116d8161433d565b826001600160a01b0316826001600160a01b03161461116d5761116d82826143ec565b60006001600160a01b0384163b1561428957836001600160a01b031663150b7a026141b56133a1565b8786866040518563ffffffff1660e01b81526004016141d79493929190615329565b6020604051808303816000875af1925050508015614212575060408051601f3d908101601f1916820190925261420f9181019061535c565b60015b61426f573d808015614240576040519150601f19603f3d011682016040523d82523d6000602084013e614245565b606091505b5080516000036142675760405162461bcd60e51b815260040161102b90615265565b805181602001fd5b6001600160e01b031916630a85bd0160e11b1490506132d0565b5060016132d0565b60606132d08484600085614430565b600060016142ad84611e4c565b6142b79190614ee6565b60008381526007602052604090205490915080821461430a576001600160a01b03841660009081526006602090815260408083208584528252808320548484528184208190558352600790915290208190555b5060009182526007602090815260408084208490556001600160a01b039094168352600681528383209183525290812055565b60085460009061434f90600190614ee6565b6000838152600960205260408120546008805493945090928490811061437757614377614f77565b90600052602060002001549050806008838154811061439857614398614f77565b60009182526020808320909101929092558281526009909152604080822084905585825281205560088054806143d0576143d0615379565b6001900381819060005260206000200160009055905550505050565b60006143f783611e4c565b6001600160a01b039093166000908152600660209081526040808320868452825280832085905593825260079052919091209190915550565b6060824710156144915760405162461bcd60e51b815260206004820152602660248201527f416464726573733a20696e73756666696369656e742062616c616e636520666f6044820152651c8818d85b1b60d21b606482015260840161102b565b843b6144df5760405162461bcd60e51b815260206004820152601d60248201527f416464726573733a2063616c6c20746f206e6f6e2d636f6e7472616374000000604482015260640161102b565b600080866001600160a01b031685876040516144fb9190614e7a565b60006040518083038185875af1925050503d8060008114614538576040519150601f19603f3d011682016040523d82523d6000602084013e61453d565b606091505b509150915061454d828286614558565b979650505050505050565b60608315614567575081611cf0565b8251156145775782518084602001fd5b8160405162461bcd60e51b815260040161102b9190614745565b6040518060c00160405280600081526020016000815260200160008152602001600081526020016145ce6040518060200160405280600081525090565b8152602001600081525090565b8280546145e790614ddd565b90600052602060002090601f016020900481019282614609576000855561464f565b82601f1061462257805160ff191683800117855561464f565b8280016001018555821561464f579182015b8281111561464f578251825591602001919060010190614634565b5061465b92915061465f565b5090565b5b8082111561465b5760008155600101614660565b6001600160e01b0319811681146117da57600080fd5b60006020828403121561469c57600080fd5b8135611cf081614674565b80356001600160a01b03811681146146be57600080fd5b919050565b600080604083850312156146d657600080fd5b6146df836146a7565b946020939093013593505050565b60005b838110156147085781810151838201526020016146f0565b8381111561277e5750506000910152565b600081518084526147318160208601602086016146ed565b601f01601f19169290920160200192915050565b602081526000611cf06020830184614719565b60006020828403121561476a57600080fd5b5035919050565b634e487b7160e01b600052604160045260246000fd5b60405161016081016001600160401b03811182821017156147aa576147aa614771565b60405290565b600082601f8301126147c157600080fd5b81356001600160401b03808211156147db576147db614771565b604051601f8301601f19908116603f0116810190828211818310171561480357614803614771565b8160405283815286602085880101111561481c57600080fd5b836020870160208301376000602085830101528094505050505092915050565b600080600080600060a0868803121561485457600080fd5b61485d866146a7565b945060208601356001600160401b0381111561487857600080fd5b614884888289016147b0565b9450506040860135925060608601359150608086013560ff811681146148a957600080fd5b809150509295509295909350565b6000806000806000608086880312156148cf57600080fd5b6148d8866146a7565b94506148e6602087016146a7565b93506040860135925060608601356001600160401b038082111561490957600080fd5b818801915088601f83011261491d57600080fd5b81358181111561492c57600080fd5b89602082850101111561493e57600080fd5b9699959850939650602001949392505050565b60008060006060848603121561496657600080fd5b505081359360208301359350604090920135919050565b60006020828403121561498f57600080fd5b611cf0826146a7565b6000806000606084860312156149ad57600080fd5b6149b6846146a7565b92506149c4602085016146a7565b9150604084013590509250925092565b600080600080600080600060e0888a0312156149ef57600080fd5b6149f8886146a7565b9960208901359950604089013598606081013598506080810135975060a0810135965060c00135945092505050565b60008060408385031215614a3a57600080fd5b50508035926020909101359150565b600080828403610180811215614a5e57600080fd5b8335925061016080601f1983011215614a7657600080fd5b614a7e614787565b91506020850135825260408501356020830152606085013560408301526080850135606083015260a0850135608083015260c085013560a083015260e085013560c08301526101008086013560e08401526101208087013582850152610140915081870135818501525081860135818401525050809150509250929050565b600060208284031215614b0f57600080fd5b81356001600160401b03811115614b2557600080fd5b6132d0848285016147b0565b80151581146117da57600080fd5b60008060408385031215614b5257600080fd5b614b5b836146a7565b91506020830135614b6b81614b31565b809150509250929050565b600060208284031215614b8857600080fd5b8135611cf081614b31565b600080600060608486031215614ba857600080fd5b614bb1846146a7565b95602085013595506040909401359392505050565b60008060008060808587031215614bdc57600080fd5b614be5856146a7565b9350614bf3602086016146a7565b93969395505050506040820135916060013590565b60008060008060808587031215614c1e57600080fd5b614c27856146a7565b9350614c35602086016146a7565b92506040850135915060608501356001600160401b03811115614c5757600080fd5b614c63878288016147b0565b91505092959194509250565b6001600160a01b03929092168252602082015260400190565b600080600080600060a08688031215614ca057600080fd5b614ca9866146a7565b97602087013597506040870135966060810135965060800135945092505050565b600080600060608486031215614cdf57600080fd5b833592506020840135915060408401356001600160401b03811115614d0357600080fd5b614d0f868287016147b0565b9150509250925092565b60008060408385031215614d2c57600080fd5b614d35836146a7565b9150614d43602084016146a7565b90509250929050565b60008060008060808587031215614d6257600080fd5b614d6b856146a7565b935060208501359250614d80604086016146a7565b9396929550929360600135925050565b634e487b7160e01b600052601160045260246000fd5b60008219821115614db957614db9614d90565b500190565b60006001600160ff1b018201614dd657614dd6614d90565b5060010190565b600181811c90821680614df157607f821691505b602082108103614e1157634e487b7160e01b600052602260045260246000fd5b50919050565b6001600160a01b0384811682528316602082015260606040820181905260009061135590830184614719565b60008351614e558184602088016146ed565b60609390931b6bffffffffffffffffffffffff19169190920190815260140192915050565b60008251614e8c8184602087016146ed565b9190910192915050565b6020808252601f908201527f5265656e7472616e637947756172643a207265656e7472616e742063616c6c00604082015260600190565b600060208284031215614edf57600080fd5b5051919050565b600082821015614ef857614ef8614d90565b500390565b6020808252600f908201526e496e76616c6964206164647265737360881b604082015260600190565b60208082526031908201527f4552433732313a207472616e736665722063616c6c6572206973206e6f74206f6040820152701ddb995c881b9bdc88185c1c1c9bdd9959607a1b606082015260800190565b634e487b7160e01b600052603260045260246000fd5b600060018201614dd657614dd6614d90565b6020808252601890820152772cb7ba9031b0b713ba1039b2ba103a34329039ba30ba399760411b604082015260600190565b6000816000190483118215151615614feb57614feb614d90565b500290565b634e487b7160e01b600052601260045260246000fd5b60008261501557615015614ff0565b500490565b6020808252818101527f4f776e61626c653a2063616c6c6572206973206e6f7420746865206f776e6572604082015260600190565b60006001600160ff1b038184138284138082168684048611161561507557615075614d90565b600160ff1b600087128281168783058912161561509457615094614d90565b600087129250878205871284841616156150b0576150b0614d90565b878505871281841616156150c6576150c6614d90565b505050929093029392505050565b6020808252600c908201526b20b23237b7399037b7363c9760a11b604082015260600190565b6001600160a01b039384168152919092166020820152604081019190915260600190565b600083516151308184602088016146ed565b8351908301906151448183602088016146ed565b01949350505050565b8054600090600181811c908083168061516757607f831692505b6020808410820361518857634e487b7160e01b600052602260045260246000fd5b81801561519c57600181146151ad576151da565b60ff198616895284890196506151da565b60008881526020902060005b868110156151d25781548b8201529085019083016151b9565b505084890196505b50505050505092915050565b60006151f2828461514d565b66746f6b656e732f60c81b81526007019392505050565b60018060a01b03851681528360208201528260408201526080606082015260006152366080830184614719565b9695505050505050565b600061524c828461514d565b68636f6e74726163742f60b81b81526009019392505050565b60208082526032908201527f4552433732313a207472616e7366657220746f206e6f6e20455243373231526560408201527131b2b4bb32b91034b6b83632b6b2b73a32b960711b606082015260800190565b600080821280156001600160ff1b03849003851316156152d9576152d9614d90565b600160ff1b83900384128116156152f2576152f2614d90565b50500190565b60008261530757615307614ff0565b500690565b60006020828403121561531e57600080fd5b8151611cf081614b31565b6001600160a01b038581168252841660208201526040810183905260806060820181905260009061523690830184614719565b60006020828403121561536e57600080fd5b8151611cf081614674565b634e487b7160e01b600052603160045260246000fdfe4d6574615472616e73616374696f6e2875696e74323536206e6f6e63652c616464726573732066726f6d2c62797465732066756e6374696f6e5369676e617475726529ddf252ad1be2c89b69c2b068fc378daa952ba7f163c4a11628f55a4df523b3efa26469706673582212202dded484ad1f93f5c1ab251f9e14791ea24f4a14fc9743ddac64490dfd50560b64736f6c634300080e003368747470733a2f2f67726561746c6962726172792e696f2f67616d65732f5443532f6974656d732f454950373132446f6d61696e28737472696e67206e616d652c737472696e672076657273696f6e2c6164647265737320766572696679696e67436f6e74726163742c627974657333322073616c7429",
  "bytecodeSha1": "da39a3ee5e6b4b0d3255bfef95601890afd80709",
  "compiler": {
    "evm_version": "istanbul",
    "optimizer": {
      "enabled": true,
      "runs": 100
    },
    "version": "0.8.14+commit.80d49f37"
  },
  "contractName": "MyItems",
  "language": "Solidity",
  "natspec": {
    "kind": "dev",
    "methods": {
      "_getNextTokenId()": {
        "details": "calculates the next token ID based on value of _currentTokenId",
        "returns": {
          "_0": "uint256 for the next token ID"
        }
      },
      "_incrementTokenId()": {
        "details": "increments the value of _currentTokenId"
      },
      "approve(address,uint256)": {
        "details": "See {IERC721-approve}."
      },
      "balanceOf(address)": {
        "details": "See {IERC721-balanceOf}."
      },
      "getApproved(uint256)": {
        "details": "See {IERC721-getApproved}."
      },
      "isApprovedForAll(address,address)": {
        "details": "See {IERC721-isApprovedForAll}."
      },
      "mintTo(address)": {
        "details": "Mints a token to an address with a tokenURI.",
        "params": {
          "_to": "address of the future owner of the token"
        }
      },
      "name()": {
        "details": "See {IERC721Metadata-name}."
      },
      "onERC721Received(address,address,uint256,bytes)": {
        "details": "Whenever an {IERC721} `tokenId` token is transferred to this contract via {IERC721-safeTransferFrom} by `operator` from `from`, this function is called. It must return its Solidity selector to confirm the token transfer. If any other value is returned or the interface is not implemented by the recipient, the transfer will be reverted. The selector can be obtained in Solidity with `IERC721.onERC721Received.selector`."
      },
      "owner()": {
        "details": "Returns the address of the current owner."
      },
      "ownerOf(uint256)": {
        "details": "See {IERC721-ownerOf}."
      },
      "renounceOwnership()": {
        "details": "Leaves the contract without owner. It will not be possible to call `onlyOwner` functions anymore. Can only be called by the current owner. NOTE: Renouncing ownership will leave the contract without an owner, thereby removing any functionality that is only available to the owner."
      },
      "safeTransferFrom(address,address,uint256)": {
        "details": "See {IERC721-safeTransferFrom}."
      },
      "safeTransferFrom(address,address,uint256,bytes)": {
        "details": "See {IERC721-safeTransferFrom}."
      },
      "setApprovalForAll(address,bool)": {
        "details": "See {IERC721-setApprovalForAll}."
      },
      "supportsInterface(bytes4)": {
        "details": "See {IERC165-supportsInterface}."
      },
      "symbol()": {
        "details": "See {IERC721Metadata-symbol}."
      },
      "tokenByIndex(uint256)": {
        "details": "See {IERC721Enumerable-tokenByIndex}."
      },
      "tokenOfOwnerByIndex(address,uint256)": {
        "details": "See {IERC721Enumerable-tokenOfOwnerByIndex}."
      },
      "totalSupply()": {
        "details": "See {IERC721Enumerable-totalSupply}."
      },
      "transferFrom(address,address,uint256)": {
        "details": "See {IERC721-transferFrom}."
      },
      "transferOwnership(address)": {
        "details": "Transfers ownership of the contract to a new account (`newOwner`). Can only be called by the current owner."
      }
    },
    "version": 1
  },
  "opcodes": "PUSH1 0x80 PUSH1 0x40 MSTORE PUSH1 0x4 CALLDATASIZE LT PUSH2 0x385 JUMPI PUSH1 0x0 CALLDATALOAD PUSH1 0xE0 SHR DUP1 PUSH4 0x596C6325 GT PUSH2 0x1D3 JUMPI DUP1 PUSH4 0xA22CB465 GT PUSH2 0x103 JUMPI DUP1 PUSH4 0xC87B56DD GT PUSH2 0x9B JUMPI DUP1 PUSH4 0xC87B56DD EQ PUSH2 0xC58 JUMPI DUP1 PUSH4 0xD547CFB7 EQ PUSH2 0xC78 JUMPI DUP1 PUSH4 0xE189977F EQ PUSH2 0xC8D JUMPI DUP1 PUSH4 0xE6CDA974 EQ PUSH2 0xCAD JUMPI DUP1 PUSH4 0xE8A3D485 EQ PUSH2 0xCCD JUMPI DUP1 PUSH4 0xE985E9C5 EQ PUSH2 0xCE2 JUMPI DUP1 PUSH4 0xEF2D1746 EQ PUSH2 0xD02 JUMPI DUP1 PUSH4 0xF2FDE38B EQ PUSH2 0xD17 JUMPI DUP1 PUSH4 0xFAE06BE6 EQ PUSH2 0xD37 JUMPI PUSH1 0x0 DUP1 REVERT JUMPDEST DUP1 PUSH4 0xA22CB465 EQ PUSH2 0xB24 JUMPI DUP1 PUSH4 0xA795E193 EQ PUSH2 0xB44 JUMPI DUP1 PUSH4 0xB086613C EQ PUSH2 0xB64 JUMPI DUP1 PUSH4 0xB3A54F00 EQ PUSH2 0xB79 JUMPI DUP1 PUSH4 0xB88D4FDE EQ PUSH2 0xB99 JUMPI DUP1 PUSH4 0xB9DD6574 EQ PUSH2 0xBB9 JUMPI DUP1 PUSH4 0xC0D8012C EQ PUSH2 0xBCE JUMPI DUP1 PUSH4 0xC43E92B1 EQ PUSH2 0xC18 JUMPI DUP1 PUSH4 0xC60E328D EQ PUSH2 0xC38 JUMPI PUSH1 0x0 DUP1 REVERT JUMPDEST DUP1 PUSH4 0x80929E5B GT PUSH2 0x176 JUMPI DUP1 PUSH4 0x80929E5B EQ PUSH2 0x993 JUMPI DUP1 PUSH4 0x8297F29F EQ PUSH2 0x9B3 JUMPI DUP1 PUSH4 0x89A7EA6C EQ PUSH2 0x9EC JUMPI DUP1 PUSH4 0x8A0DE3DD EQ PUSH2 0xA91 JUMPI DUP1 PUSH4 0x8AA80EA5 EQ PUSH2 0xAAF JUMPI DUP1 PUSH4 0x8DA5CB5B EQ PUSH2 0xAC5 JUMPI DUP1 PUSH4 0x8DD1983B EQ PUSH2 0xADA JUMPI DUP1 PUSH4 0x95D89B41 EQ PUSH2 0xAFA JUMPI DUP1 PUSH4 0x972D1AE2 EQ PUSH2 0xB0F JUMPI PUSH1 0x0 DUP1 REVERT JUMPDEST DUP1 PUSH4 0x596C6325 EQ PUSH2 0x88E JUMPI DUP1 PUSH4 0x5FEBC07A EQ PUSH2 0x8BE JUMPI DUP1 PUSH4 0x6352211E EQ PUSH2 0x8DE JUMPI DUP1 PUSH4 0x6D3C7EC5 EQ PUSH2 0x8FE JUMPI DUP1 PUSH4 0x6D714B68 EQ PUSH2 0x91E JUMPI DUP1 PUSH4 0x70A08231 EQ PUSH2 0x93E JUMPI DUP1 PUSH4 0x715018A6 EQ PUSH2 0x95E JUMPI DUP1 PUSH4 0x755EDD17 EQ PUSH2 0x973 JUMPI PUSH1 0x0 DUP1 REVERT JUMPDEST DUP1 PUSH4 0x2D0335AB GT PUSH2 0x2B9 JUMPI DUP1 PUSH4 0x495057BE GT PUSH2 0x251 JUMPI DUP1 PUSH4 0x495057BE EQ PUSH2 0x4A6 JUMPI DUP1 PUSH4 0x4D47732A EQ PUSH2 0x79B JUMPI DUP1 PUSH4 0x4D57CA4F EQ PUSH2 0x7B0 JUMPI DUP1 PUSH4 0x4F6CCCE7 EQ PUSH2 0x7D0 JUMPI DUP1 PUSH4 0x51508F0A EQ PUSH2 0x7F0 JUMPI DUP1 PUSH4 0x51F41EE3 EQ PUSH2 0x810 JUMPI DUP1 PUSH4 0x547520FE EQ PUSH2 0x82E JUMPI DUP1 PUSH4 0x547B17C6 EQ PUSH2 0x84E JUMPI DUP1 PUSH4 0x55F804B3 EQ PUSH2 0x86E JUMPI PUSH1 0x0 DUP1 REVERT JUMPDEST DUP1 PUSH4 0x2D0335AB EQ PUSH2 0x665 JUMPI DUP1 PUSH4 0x2F745C59 EQ PUSH2 0x69B JUMPI DUP1 PUSH4 0x33D119EB EQ PUSH2 0x6BB JUMPI DUP1 PUSH4 0x3408E470 EQ PUSH2 0x6E8 JUMPI DUP1 PUSH4 0x343F40DF EQ PUSH2 0x6FB JUMPI DUP1 PUSH4 0x4209A2E1 EQ PUSH2 0x71B JUMPI DUP1 PUSH4 0x42842E0E EQ PUSH2 0x73B JUMPI DUP1 PUSH4 0x42966C68 EQ PUSH2 0x75B JUMPI DUP1 PUSH4 0x4409559A EQ PUSH2 0x77B JUMPI PUSH1 0x0 DUP1 REVERT JUMPDEST DUP1 PUSH4 0x150B7A02 GT PUSH2 0x32C JUMPI DUP1 PUSH4 0x150B7A02 EQ PUSH2 0x508 JUMPI DUP1 PUSH4 0x18160DDD EQ PUSH2 0x54D JUMPI DUP1 PUSH4 0x199DC532 EQ PUSH2 0x56C JUMPI DUP1 PUSH4 0x1B64AB59 EQ PUSH2 0x5BB JUMPI DUP1 PUSH4 0x1E9F8AAD EQ PUSH2 0x5DB JUMPI DUP1 PUSH4 0x20379EE5 EQ PUSH2 0x5FB JUMPI DUP1 PUSH4 0x23B872DD EQ PUSH2 0x610 JUMPI DUP1 PUSH4 0x24D64CA2 EQ PUSH2 0x630 JUMPI DUP1 PUSH4 0x2966BEF0 EQ PUSH2 0x645 JUMPI PUSH1 0x0 DUP1 REVERT JUMPDEST DUP1 PUSH4 0x1FFC9A7 EQ PUSH2 0x38A JUMPI DUP1 PUSH4 0x3685169 EQ PUSH2 0x3BF JUMPI DUP1 PUSH4 0x6FDDE03 EQ PUSH2 0x42C JUMPI DUP1 PUSH4 0x81812FC EQ PUSH2 0x44E JUMPI DUP1 PUSH4 0x95EA7B3 EQ PUSH2 0x486 JUMPI DUP1 PUSH4 0xC53C51C EQ PUSH2 0x4A8 JUMPI DUP1 PUSH4 0xF7E5970 EQ PUSH2 0x4BB JUMPI DUP1 PUSH4 0x109F7561 EQ PUSH2 0x4E8 JUMPI JUMPDEST PUSH1 0x0 DUP1 REVERT JUMPDEST CALLVALUE DUP1 ISZERO PUSH2 0x396 JUMPI PUSH1 0x0 DUP1 REVERT JUMPDEST POP PUSH2 0x3AA PUSH2 0x3A5 CALLDATASIZE PUSH1 0x4 PUSH2 0x468A JUMP JUMPDEST PUSH2 0xD57 JUMP JUMPDEST PUSH1 0x40 MLOAD SWAP1 ISZERO ISZERO DUP2 MSTORE PUSH1 0x20 ADD JUMPDEST PUSH1 0x40 MLOAD DUP1 SWAP2 SUB SWAP1 RETURN JUMPDEST CALLVALUE DUP1 ISZERO PUSH2 0x3CB JUMPI PUSH1 0x0 DUP1 REVERT JUMPDEST POP PUSH2 0x3DF PUSH2 0x3DA CALLDATASIZE PUSH1 0x4 PUSH2 0x46C3 JUMP JUMPDEST PUSH2 0xD82 JUMP JUMPDEST PUSH1 0x40 MLOAD PUSH2 0x3B6 SWAP2 SWAP1 PUSH1 0x0 PUSH1 0xC0 DUP3 ADD SWAP1 POP DUP3 MLOAD DUP3 MSTORE PUSH1 0x20 DUP4 ADD MLOAD PUSH1 0x20 DUP4 ADD MSTORE PUSH1 0x40 DUP4 ADD MLOAD PUSH1 0x40 DUP4 ADD MSTORE PUSH1 0x60 DUP4 ADD MLOAD PUSH1 0x60 DUP4 ADD MSTORE PUSH1 0x80 DUP4 ADD MLOAD MLOAD PUSH1 0x80 DUP4 ADD MSTORE PUSH1 0xA0 DUP4 ADD MLOAD PUSH1 0xA0 DUP4 ADD MSTORE SWAP3 SWAP2 POP POP JUMP JUMPDEST CALLVALUE DUP1 ISZERO PUSH2 0x438 JUMPI PUSH1 0x0 DUP1 REVERT JUMPDEST POP PUSH2 0x441 PUSH2 0xF31 JUMP JUMPDEST PUSH1 0x40 MLOAD PUSH2 0x3B6 SWAP2 SWAP1 PUSH2 0x4745 JUMP JUMPDEST CALLVALUE DUP1 ISZERO PUSH2 0x45A JUMPI PUSH1 0x0 DUP1 REVERT JUMPDEST POP PUSH2 0x46E PUSH2 0x469 CALLDATASIZE PUSH1 0x4 PUSH2 0x4758 JUMP JUMPDEST PUSH2 0xFC3 JUMP JUMPDEST PUSH1 0x40 MLOAD PUSH1 0x1 PUSH1 0x1 PUSH1 0xA0 SHL SUB SWAP1 SWAP2 AND DUP2 MSTORE PUSH1 0x20 ADD PUSH2 0x3B6 JUMP JUMPDEST CALLVALUE DUP1 ISZERO PUSH2 0x492 JUMPI PUSH1 0x0 DUP1 REVERT JUMPDEST POP PUSH2 0x4A6 PUSH2 0x4A1 CALLDATASIZE PUSH1 0x4 PUSH2 0x46C3 JUMP JUMPDEST PUSH2 0x1050 JUMP JUMPDEST STOP JUMPDEST PUSH2 0x441 PUSH2 0x4B6 CALLDATASIZE PUSH1 0x4 PUSH2 0x483C JUMP JUMPDEST PUSH2 0x1172 JUMP JUMPDEST CALLVALUE DUP1 ISZERO PUSH2 0x4C7 JUMPI PUSH1 0x0 DUP1 REVERT JUMPDEST POP PUSH2 0x441 PUSH1 0x40 MLOAD DUP1 PUSH1 0x40 ADD PUSH1 0x40 MSTORE DUP1 PUSH1 0x1 DUP2 MSTORE PUSH1 0x20 ADD PUSH1 0x31 PUSH1 0xF8 SHL DUP2 MSTORE POP DUP2 JUMP JUMPDEST CALLVALUE DUP1 ISZERO PUSH2 0x4F4 JUMPI PUSH1 0x0 DUP1 REVERT JUMPDEST POP PUSH2 0x4A6 PUSH2 0x503 CALLDATASIZE PUSH1 0x4 PUSH2 0x4758 JUMP JUMPDEST PUSH2 0x135E JUMP JUMPDEST CALLVALUE DUP1 ISZERO PUSH2 0x514 JUMPI PUSH1 0x0 DUP1 REVERT JUMPDEST POP PUSH2 0x534 PUSH2 0x523 CALLDATASIZE PUSH1 0x4 PUSH2 0x48B7 JUMP JUMPDEST PUSH4 0x785CF2DD PUSH1 0xE1 SHL SWAP6 SWAP5 POP POP POP POP POP JUMP JUMPDEST PUSH1 0x40 MLOAD PUSH1 0x1 PUSH1 0x1 PUSH1 0xE0 SHL SUB NOT SWAP1 SWAP2 AND DUP2 MSTORE PUSH1 0x20 ADD PUSH2 0x3B6 JUMP JUMPDEST CALLVALUE DUP1 ISZERO PUSH2 0x559 JUMPI PUSH1 0x0 DUP1 REVERT JUMPDEST POP PUSH1 0x8 SLOAD JUMPDEST PUSH1 0x40 MLOAD SWAP1 DUP2 MSTORE PUSH1 0x20 ADD PUSH2 0x3B6 JUMP JUMPDEST CALLVALUE DUP1 ISZERO PUSH2 0x578 JUMPI PUSH1 0x0 DUP1 REVERT JUMPDEST POP PUSH2 0x5A6 PUSH2 0x587 CALLDATASIZE PUSH1 0x4 PUSH2 0x4758 JUMP JUMPDEST PUSH1 0x0 SWAP1 DUP2 MSTORE PUSH1 0x18 PUSH1 0x20 SWAP1 DUP2 MSTORE PUSH1 0x40 DUP1 DUP4 KECCAK256 SLOAD PUSH1 0x19 SWAP1 SWAP3 MSTORE SWAP1 SWAP2 KECCAK256 SLOAD SWAP1 SWAP2 JUMP JUMPDEST PUSH1 0x40 DUP1 MLOAD SWAP3 DUP4 MSTORE PUSH1 0x20 DUP4 ADD SWAP2 SWAP1 SWAP2 MSTORE ADD PUSH2 0x3B6 JUMP JUMPDEST CALLVALUE DUP1 ISZERO PUSH2 0x5C7 JUMPI PUSH1 0x0 DUP1 REVERT JUMPDEST POP PUSH2 0x4A6 PUSH2 0x5D6 CALLDATASIZE PUSH1 0x4 PUSH2 0x4951 JUMP JUMPDEST PUSH2 0x13AF JUMP JUMPDEST CALLVALUE DUP1 ISZERO PUSH2 0x5E7 JUMPI PUSH1 0x0 DUP1 REVERT JUMPDEST POP PUSH2 0x4A6 PUSH2 0x5F6 CALLDATASIZE PUSH1 0x4 PUSH2 0x497D JUMP JUMPDEST PUSH2 0x151B JUMP JUMPDEST CALLVALUE DUP1 ISZERO PUSH2 0x607 JUMPI PUSH1 0x0 DUP1 REVERT JUMPDEST POP PUSH1 0xB SLOAD PUSH2 0x55E JUMP JUMPDEST CALLVALUE DUP1 ISZERO PUSH2 0x61C JUMPI PUSH1 0x0 DUP1 REVERT JUMPDEST POP PUSH2 0x4A6 PUSH2 0x62B CALLDATASIZE PUSH1 0x4 PUSH2 0x4998 JUMP JUMPDEST PUSH2 0x15AF JUMP JUMPDEST CALLVALUE DUP1 ISZERO PUSH2 0x63C JUMPI PUSH1 0x0 DUP1 REVERT JUMPDEST POP PUSH1 0x15 SLOAD PUSH2 0x55E JUMP JUMPDEST CALLVALUE DUP1 ISZERO PUSH2 0x651 JUMPI PUSH1 0x0 DUP1 REVERT JUMPDEST POP PUSH2 0x4A6 PUSH2 0x660 CALLDATASIZE PUSH1 0x4 PUSH2 0x49D4 JUMP JUMPDEST PUSH2 0x15E7 JUMP JUMPDEST CALLVALUE DUP1 ISZERO PUSH2 0x671 JUMPI PUSH1 0x0 DUP1 REVERT JUMPDEST POP PUSH2 0x55E PUSH2 0x680 CALLDATASIZE PUSH1 0x4 PUSH2 0x497D JUMP JUMPDEST PUSH1 0x1 PUSH1 0x1 PUSH1 0xA0 SHL SUB AND PUSH1 0x0 SWAP1 DUP2 MSTORE PUSH1 0xC PUSH1 0x20 MSTORE PUSH1 0x40 SWAP1 KECCAK256 SLOAD SWAP1 JUMP JUMPDEST CALLVALUE DUP1 ISZERO PUSH2 0x6A7 JUMPI PUSH1 0x0 DUP1 REVERT JUMPDEST POP PUSH2 0x55E PUSH2 0x6B6 CALLDATASIZE PUSH1 0x4 PUSH2 0x46C3 JUMP JUMPDEST PUSH2 0x171F JUMP JUMPDEST CALLVALUE DUP1 ISZERO PUSH2 0x6C7 JUMPI PUSH1 0x0 DUP1 REVERT JUMPDEST POP PUSH2 0x55E PUSH2 0x6D6 CALLDATASIZE PUSH1 0x4 PUSH2 0x4758 JUMP JUMPDEST PUSH1 0x0 SWAP1 DUP2 MSTORE PUSH1 0x24 PUSH1 0x20 MSTORE PUSH1 0x40 SWAP1 KECCAK256 SLOAD SWAP1 JUMP JUMPDEST CALLVALUE DUP1 ISZERO PUSH2 0x6F4 JUMPI PUSH1 0x0 DUP1 REVERT JUMPDEST POP CHAINID PUSH2 0x55E JUMP JUMPDEST CALLVALUE DUP1 ISZERO PUSH2 0x707 JUMPI PUSH1 0x0 DUP1 REVERT JUMPDEST POP PUSH2 0x4A6 PUSH2 0x716 CALLDATASIZE PUSH1 0x4 PUSH2 0x4758 JUMP JUMPDEST PUSH2 0x17B5 JUMP JUMPDEST CALLVALUE DUP1 ISZERO PUSH2 0x727 JUMPI PUSH1 0x0 DUP1 REVERT JUMPDEST POP PUSH2 0x4A6 PUSH2 0x736 CALLDATASIZE PUSH1 0x4 PUSH2 0x4758 JUMP JUMPDEST PUSH2 0x17DD JUMP JUMPDEST CALLVALUE DUP1 ISZERO PUSH2 0x747 JUMPI PUSH1 0x0 DUP1 REVERT JUMPDEST POP PUSH2 0x4A6 PUSH2 0x756 CALLDATASIZE PUSH1 0x4 PUSH2 0x4998 JUMP JUMPDEST PUSH2 0x187D JUMP JUMPDEST CALLVALUE DUP1 ISZERO PUSH2 0x767 JUMPI PUSH1 0x0 DUP1 REVERT JUMPDEST POP PUSH2 0x4A6 PUSH2 0x776 CALLDATASIZE PUSH1 0x4 PUSH2 0x4758 JUMP JUMPDEST PUSH2 0x1898 JUMP JUMPDEST CALLVALUE DUP1 ISZERO PUSH2 0x787 JUMPI PUSH1 0x0 DUP1 REVERT JUMPDEST POP PUSH1 0x10 SLOAD PUSH2 0x46E SWAP1 PUSH1 0x1 PUSH1 0x1 PUSH1 0xA0 SHL SUB AND DUP2 JUMP JUMPDEST CALLVALUE DUP1 ISZERO PUSH2 0x7A7 JUMPI PUSH1 0x0 DUP1 REVERT JUMPDEST POP PUSH1 0x16 SLOAD PUSH2 0x55E JUMP JUMPDEST CALLVALUE DUP1 ISZERO PUSH2 0x7BC JUMPI PUSH1 0x0 DUP1 REVERT JUMPDEST POP PUSH2 0x4A6 PUSH2 0x7CB CALLDATASIZE PUSH1 0x4 PUSH2 0x4A27 JUMP JUMPDEST PUSH2 0x1961 JUMP JUMPDEST CALLVALUE DUP1 ISZERO PUSH2 0x7DC JUMPI PUSH1 0x0 DUP1 REVERT JUMPDEST POP PUSH2 0x55E PUSH2 0x7EB CALLDATASIZE PUSH1 0x4 PUSH2 0x4758 JUMP JUMPDEST PUSH2 0x19C2 JUMP JUMPDEST CALLVALUE DUP1 ISZERO PUSH2 0x7FC JUMPI PUSH1 0x0 DUP1 REVERT JUMPDEST POP PUSH2 0x4A6 PUSH2 0x80B CALLDATASIZE PUSH1 0x4 PUSH2 0x497D JUMP JUMPDEST PUSH2 0x1A55 JUMP JUMPDEST CALLVALUE DUP1 ISZERO PUSH2 0x81C JUMPI PUSH1 0x0 DUP1 REVERT JUMPDEST POP PUSH1 0x23 SLOAD PUSH1 0x1 PUSH1 0x1 PUSH1 0xA0 SHL SUB AND PUSH2 0x46E JUMP JUMPDEST CALLVALUE DUP1 ISZERO PUSH2 0x83A JUMPI PUSH1 0x0 DUP1 REVERT JUMPDEST POP PUSH2 0x4A6 PUSH2 0x849 CALLDATASIZE PUSH1 0x4 PUSH2 0x4758 JUMP JUMPDEST PUSH2 0x1B52 JUMP JUMPDEST CALLVALUE DUP1 ISZERO PUSH2 0x85A JUMPI PUSH1 0x0 DUP1 REVERT JUMPDEST POP PUSH2 0x4A6 PUSH2 0x869 CALLDATASIZE PUSH1 0x4 PUSH2 0x4A49 JUMP JUMPDEST PUSH2 0x1BA8 JUMP JUMPDEST CALLVALUE DUP1 ISZERO PUSH2 0x87A JUMPI PUSH1 0x0 DUP1 REVERT JUMPDEST POP PUSH2 0x4A6 PUSH2 0x889 CALLDATASIZE PUSH1 0x4 PUSH2 0x4AFD JUMP JUMPDEST PUSH2 0x1C69 JUMP JUMPDEST CALLVALUE DUP1 ISZERO PUSH2 0x89A JUMPI PUSH1 0x0 DUP1 REVERT JUMPDEST POP PUSH2 0x3AA PUSH2 0x8A9 CALLDATASIZE PUSH1 0x4 PUSH2 0x497D JUMP JUMPDEST PUSH1 0x1E PUSH1 0x20 MSTORE PUSH1 0x0 SWAP1 DUP2 MSTORE PUSH1 0x40 SWAP1 KECCAK256 SLOAD PUSH1 0xFF AND DUP2 JUMP JUMPDEST CALLVALUE DUP1 ISZERO PUSH2 0x8CA JUMPI PUSH1 0x0 DUP1 REVERT JUMPDEST POP PUSH2 0x55E PUSH2 0x8D9 CALLDATASIZE PUSH1 0x4 PUSH2 0x4A27 JUMP JUMPDEST PUSH2 0x1CD1 JUMP JUMPDEST CALLVALUE DUP1 ISZERO PUSH2 0x8EA JUMPI PUSH1 0x0 DUP1 REVERT JUMPDEST POP PUSH2 0x46E PUSH2 0x8F9 CALLDATASIZE PUSH1 0x4 PUSH2 0x4758 JUMP JUMPDEST PUSH2 0x1CF7 JUMP JUMPDEST CALLVALUE DUP1 ISZERO PUSH2 0x90A JUMPI PUSH1 0x0 DUP1 REVERT JUMPDEST POP PUSH2 0x4A6 PUSH2 0x919 CALLDATASIZE PUSH1 0x4 PUSH2 0x4758 JUMP JUMPDEST PUSH2 0x1D6E JUMP JUMPDEST CALLVALUE DUP1 ISZERO PUSH2 0x92A JUMPI PUSH1 0x0 DUP1 REVERT JUMPDEST POP PUSH2 0x4A6 PUSH2 0x939 CALLDATASIZE PUSH1 0x4 PUSH2 0x4B3F JUMP JUMPDEST PUSH2 0x1DBF JUMP JUMPDEST CALLVALUE DUP1 ISZERO PUSH2 0x94A JUMPI PUSH1 0x0 DUP1 REVERT JUMPDEST POP PUSH2 0x55E PUSH2 0x959 CALLDATASIZE PUSH1 0x4 PUSH2 0x497D JUMP JUMPDEST PUSH2 0x1E4C JUMP JUMPDEST CALLVALUE DUP1 ISZERO PUSH2 0x96A JUMPI PUSH1 0x0 DUP1 REVERT JUMPDEST POP PUSH2 0x4A6 PUSH2 0x1ED3 JUMP JUMPDEST CALLVALUE DUP1 ISZERO PUSH2 0x97F JUMPI PUSH1 0x0 DUP1 REVERT JUMPDEST POP PUSH2 0x55E PUSH2 0x98E CALLDATASIZE PUSH1 0x4 PUSH2 0x497D JUMP JUMPDEST PUSH2 0x1F5C JUMP JUMPDEST CALLVALUE DUP1 ISZERO PUSH2 0x99F JUMPI PUSH1 0x0 DUP1 REVERT JUMPDEST POP PUSH2 0x4A6 PUSH2 0x9AE CALLDATASIZE PUSH1 0x4 PUSH2 0x4B76 JUMP JUMPDEST PUSH2 0x2075 JUMP JUMPDEST CALLVALUE DUP1 ISZERO PUSH2 0x9BF JUMPI PUSH1 0x0 DUP1 REVERT JUMPDEST POP PUSH2 0x3AA PUSH2 0x9CE CALLDATASIZE PUSH1 0x4 PUSH2 0x497D JUMP JUMPDEST PUSH1 0x1 PUSH1 0x1 PUSH1 0xA0 SHL SUB AND PUSH1 0x0 SWAP1 DUP2 MSTORE PUSH1 0x1E PUSH1 0x20 MSTORE PUSH1 0x40 SWAP1 KECCAK256 SLOAD PUSH1 0xFF AND SWAP1 JUMP JUMPDEST CALLVALUE DUP1 ISZERO PUSH2 0x9F8 JUMPI PUSH1 0x0 DUP1 REVERT JUMPDEST POP PUSH2 0xA0C PUSH2 0xA07 CALLDATASIZE PUSH1 0x4 PUSH2 0x4758 JUMP JUMPDEST PUSH2 0x20C7 JUMP JUMPDEST PUSH1 0x40 MLOAD PUSH2 0x3B6 SWAP2 SWAP1 PUSH1 0x0 PUSH2 0x160 DUP3 ADD SWAP1 POP DUP3 MLOAD DUP3 MSTORE PUSH1 0x20 DUP4 ADD MLOAD PUSH1 0x20 DUP4 ADD MSTORE PUSH1 0x40 DUP4 ADD MLOAD PUSH1 0x40 DUP4 ADD MSTORE PUSH1 0x60 DUP4 ADD MLOAD PUSH1 0x60 DUP4 ADD MSTORE PUSH1 0x80 DUP4 ADD MLOAD PUSH1 0x80 DUP4 ADD MSTORE PUSH1 0xA0 DUP4 ADD MLOAD PUSH1 0xA0 DUP4 ADD MSTORE PUSH1 0xC0 DUP4 ADD MLOAD PUSH1 0xC0 DUP4 ADD MSTORE PUSH1 0xE0 DUP4 ADD MLOAD PUSH1 0xE0 DUP4 ADD MSTORE PUSH2 0x100 DUP1 DUP5 ADD MLOAD DUP2 DUP5 ADD MSTORE POP PUSH2 0x120 DUP1 DUP5 ADD MLOAD DUP2 DUP5 ADD MSTORE POP PUSH2 0x140 DUP1 DUP5 ADD MLOAD DUP2 DUP5 ADD MSTORE POP SWAP3 SWAP2 POP POP JUMP JUMPDEST CALLVALUE DUP1 ISZERO PUSH2 0xA9D JUMPI PUSH1 0x0 DUP1 REVERT JUMPDEST POP PUSH1 0x1A SLOAD PUSH1 0x1 PUSH1 0x1 PUSH1 0xA0 SHL SUB AND PUSH2 0x46E JUMP JUMPDEST CALLVALUE DUP1 ISZERO PUSH2 0xABB JUMPI PUSH1 0x0 DUP1 REVERT JUMPDEST POP PUSH2 0x55E PUSH1 0xF SLOAD DUP2 JUMP JUMPDEST CALLVALUE DUP1 ISZERO PUSH2 0xAD1 JUMPI PUSH1 0x0 DUP1 REVERT JUMPDEST POP PUSH2 0x46E PUSH2 0x21F7 JUMP JUMPDEST CALLVALUE DUP1 ISZERO PUSH2 0xAE6 JUMPI PUSH1 0x0 DUP1 REVERT JUMPDEST POP PUSH2 0x55E PUSH2 0xAF5 CALLDATASIZE PUSH1 0x4 PUSH2 0x4B93 JUMP JUMPDEST PUSH2 0x2206 JUMP JUMPDEST CALLVALUE DUP1 ISZERO PUSH2 0xB06 JUMPI PUSH1 0x0 DUP1 REVERT JUMPDEST POP PUSH2 0x441 PUSH2 0x24B5 JUMP JUMPDEST CALLVALUE DUP1 ISZERO PUSH2 0xB1B JUMPI PUSH1 0x0 DUP1 REVERT JUMPDEST POP PUSH2 0x55E PUSH2 0x24C4 JUMP JUMPDEST CALLVALUE DUP1 ISZERO PUSH2 0xB30 JUMPI PUSH1 0x0 DUP1 REVERT JUMPDEST POP PUSH2 0x4A6 PUSH2 0xB3F CALLDATASIZE PUSH1 0x4 PUSH2 0x4B3F JUMP JUMPDEST PUSH2 0x24DA JUMP JUMPDEST CALLVALUE DUP1 ISZERO PUSH2 0xB50 JUMPI PUSH1 0x0 DUP1 REVERT JUMPDEST POP PUSH2 0x55E PUSH2 0xB5F CALLDATASIZE PUSH1 0x4 PUSH2 0x497D JUMP JUMPDEST PUSH2 0x25D7 JUMP JUMPDEST CALLVALUE DUP1 ISZERO PUSH2 0xB70 JUMPI PUSH1 0x0 DUP1 REVERT JUMPDEST POP PUSH1 0x14 SLOAD PUSH2 0x55E JUMP JUMPDEST CALLVALUE DUP1 ISZERO PUSH2 0xB85 JUMPI PUSH1 0x0 DUP1 REVERT JUMPDEST POP PUSH2 0x4A6 PUSH2 0xB94 CALLDATASIZE PUSH1 0x4 PUSH2 0x4BC6 JUMP JUMPDEST PUSH2 0x264F JUMP JUMPDEST CALLVALUE DUP1 ISZERO PUSH2 0xBA5 JUMPI PUSH1 0x0 DUP1 REVERT JUMPDEST POP PUSH2 0x4A6 PUSH2 0xBB4 CALLDATASIZE PUSH1 0x4 PUSH2 0x4C08 JUMP JUMPDEST PUSH2 0x2745 JUMP JUMPDEST CALLVALUE DUP1 ISZERO PUSH2 0xBC5 JUMPI PUSH1 0x0 DUP1 REVERT JUMPDEST POP PUSH2 0x4A6 PUSH2 0x2784 JUMP JUMPDEST CALLVALUE DUP1 ISZERO PUSH2 0xBDA JUMPI PUSH1 0x0 DUP1 REVERT JUMPDEST POP PUSH2 0xC0A PUSH2 0xBE9 CALLDATASIZE PUSH1 0x4 PUSH2 0x4758 JUMP JUMPDEST PUSH1 0x1B SLOAD PUSH1 0x0 SWAP2 DUP3 MSTORE PUSH1 0x1C PUSH1 0x20 MSTORE PUSH1 0x40 SWAP1 SWAP2 KECCAK256 SLOAD PUSH1 0x1 PUSH1 0x1 PUSH1 0xA0 SHL SUB SWAP1 SWAP2 AND SWAP2 JUMP JUMPDEST PUSH1 0x40 MLOAD PUSH2 0x3B6 SWAP3 SWAP2 SWAP1 PUSH2 0x4C6F JUMP JUMPDEST CALLVALUE DUP1 ISZERO PUSH2 0xC24 JUMPI PUSH1 0x0 DUP1 REVERT JUMPDEST POP PUSH2 0x4A6 PUSH2 0xC33 CALLDATASIZE PUSH1 0x4 PUSH2 0x4998 JUMP JUMPDEST PUSH2 0x279B JUMP JUMPDEST CALLVALUE DUP1 ISZERO PUSH2 0xC44 JUMPI PUSH1 0x0 DUP1 REVERT JUMPDEST POP PUSH2 0x55E PUSH2 0xC53 CALLDATASIZE PUSH1 0x4 PUSH2 0x4C88 JUMP JUMPDEST PUSH2 0x29BF JUMP JUMPDEST CALLVALUE DUP1 ISZERO PUSH2 0xC64 JUMPI PUSH1 0x0 DUP1 REVERT JUMPDEST POP PUSH2 0x441 PUSH2 0xC73 CALLDATASIZE PUSH1 0x4 PUSH2 0x4758 JUMP JUMPDEST PUSH2 0x2DCC JUMP JUMPDEST CALLVALUE DUP1 ISZERO PUSH2 0xC84 JUMPI PUSH1 0x0 DUP1 REVERT JUMPDEST POP PUSH2 0x441 PUSH2 0x2E06 JUMP JUMPDEST CALLVALUE DUP1 ISZERO PUSH2 0xC99 JUMPI PUSH1 0x0 DUP1 REVERT JUMPDEST POP PUSH2 0x4A6 PUSH2 0xCA8 CALLDATASIZE PUSH1 0x4 PUSH2 0x4CCA JUMP JUMPDEST PUSH2 0x2E2E JUMP JUMPDEST CALLVALUE DUP1 ISZERO PUSH2 0xCB9 JUMPI PUSH1 0x0 DUP1 REVERT JUMPDEST POP PUSH2 0x4A6 PUSH2 0xCC8 CALLDATASIZE PUSH1 0x4 PUSH2 0x4998 JUMP JUMPDEST PUSH2 0x2FE9 JUMP JUMPDEST CALLVALUE DUP1 ISZERO PUSH2 0xCD9 JUMPI PUSH1 0x0 DUP1 REVERT JUMPDEST POP PUSH2 0x441 PUSH2 0x3067 JUMP JUMPDEST CALLVALUE DUP1 ISZERO PUSH2 0xCEE JUMPI PUSH1 0x0 DUP1 REVERT JUMPDEST POP PUSH2 0x3AA PUSH2 0xCFD CALLDATASIZE PUSH1 0x4 PUSH2 0x4D19 JUMP JUMPDEST PUSH2 0x307B JUMP JUMPDEST CALLVALUE DUP1 ISZERO PUSH2 0xD0E JUMPI PUSH1 0x0 DUP1 REVERT JUMPDEST POP PUSH1 0xE SLOAD PUSH2 0x55E JUMP JUMPDEST CALLVALUE DUP1 ISZERO PUSH2 0xD23 JUMPI PUSH1 0x0 DUP1 REVERT JUMPDEST POP PUSH2 0x4A6 PUSH2 0xD32 CALLDATASIZE PUSH1 0x4 PUSH2 0x497D JUMP JUMPDEST PUSH2 0x30A9 JUMP JUMPDEST CALLVALUE DUP1 ISZERO PUSH2 0xD43 JUMPI PUSH1 0x0 DUP1 REVERT JUMPDEST POP PUSH2 0x55E PUSH2 0xD52 CALLDATASIZE PUSH1 0x4 PUSH2 0x4D4C JUMP JUMPDEST PUSH2 0x31A9 JUMP JUMPDEST PUSH1 0x0 PUSH1 0x1 PUSH1 0x1 PUSH1 0xE0 SHL SUB NOT DUP3 AND PUSH4 0x780E9D63 PUSH1 0xE0 SHL EQ DUP1 PUSH2 0xD7C JUMPI POP PUSH2 0xD7C DUP3 PUSH2 0x3334 JUMP JUMPDEST SWAP3 SWAP2 POP POP JUMP JUMPDEST PUSH2 0xD8A PUSH2 0x4591 JUMP JUMPDEST PUSH1 0x0 DUP1 DUP1 DUP1 PUSH1 0x1 JUMPDEST PUSH1 0xE DUP2 SGT PUSH2 0xEA9 JUMPI PUSH1 0x1 PUSH1 0x1 PUSH1 0xA0 SHL SUB DUP9 AND PUSH1 0x0 SWAP1 DUP2 MSTORE PUSH1 0x27 PUSH1 0x20 SWAP1 DUP2 MSTORE PUSH1 0x40 DUP1 DUP4 KECCAK256 DUP11 DUP5 MSTORE DUP3 MSTORE DUP1 DUP4 KECCAK256 DUP5 DUP5 MSTORE SWAP1 SWAP2 MSTORE SWAP1 KECCAK256 SLOAD DUP1 ISZERO PUSH2 0xE96 JUMPI PUSH1 0x0 DUP2 DUP2 MSTORE PUSH1 0x26 PUSH1 0x20 SWAP1 DUP2 MSTORE PUSH1 0x40 SWAP2 DUP3 SWAP1 KECCAK256 DUP3 MLOAD PUSH2 0x160 DUP2 ADD DUP5 MSTORE DUP2 SLOAD DUP2 MSTORE PUSH1 0x1 DUP3 ADD SLOAD SWAP3 DUP2 ADD SWAP3 SWAP1 SWAP3 MSTORE PUSH1 0x2 DUP2 ADD SLOAD SWAP3 DUP3 ADD SWAP3 SWAP1 SWAP3 MSTORE PUSH1 0x3 DUP3 ADD SLOAD PUSH1 0x60 DUP3 ADD DUP2 SWAP1 MSTORE PUSH1 0x4 DUP4 ADD SLOAD PUSH1 0x80 DUP4 ADD MSTORE PUSH1 0x5 DUP4 ADD SLOAD PUSH1 0xA0 DUP4 ADD MSTORE PUSH1 0x6 DUP4 ADD SLOAD PUSH1 0xC0 DUP4 ADD MSTORE PUSH1 0x7 DUP4 ADD SLOAD PUSH1 0xE0 DUP4 ADD MSTORE PUSH1 0x8 DUP4 ADD SLOAD PUSH2 0x100 DUP4 ADD MSTORE PUSH1 0x9 DUP4 ADD SLOAD PUSH2 0x120 DUP4 ADD MSTORE PUSH1 0xA SWAP1 SWAP3 ADD SLOAD PUSH2 0x140 DUP3 ADD MSTORE SWAP1 PUSH2 0xE64 SWAP1 DUP9 PUSH2 0x4DA6 JUMP JUMPDEST SWAP7 POP DUP1 PUSH1 0x80 ADD MLOAD DUP7 PUSH2 0xE76 SWAP2 SWAP1 PUSH2 0x4DA6 JUMP JUMPDEST SWAP6 POP DUP1 PUSH1 0x40 ADD MLOAD DUP6 PUSH2 0xE88 SWAP2 SWAP1 PUSH2 0x4DA6 JUMP JUMPDEST SWAP5 POP DUP1 PUSH2 0x120 ADD MLOAD DUP5 OR SWAP4 POP POP JUMPDEST POP DUP1 PUSH2 0xEA1 DUP2 PUSH2 0x4DBE JUMP JUMPDEST SWAP2 POP POP PUSH2 0xD92 JUMP JUMPDEST POP PUSH1 0x40 MLOAD DUP1 PUSH1 0xC0 ADD PUSH1 0x40 MSTORE DUP1 DUP6 PUSH1 0x1 PUSH2 0xEC2 SWAP2 SWAP1 PUSH2 0x4DA6 JUMP JUMPDEST DUP2 MSTORE PUSH1 0x20 ADD PUSH2 0xED2 DUP6 PUSH1 0x1 PUSH2 0x4DA6 JUMP JUMPDEST DUP2 MSTORE PUSH1 0x20 ADD PUSH2 0xEE2 DUP5 PUSH1 0x1 PUSH2 0x4DA6 JUMP JUMPDEST DUP2 MSTORE PUSH1 0x20 DUP1 DUP3 ADD SWAP4 SWAP1 SWAP4 MSTORE PUSH1 0x1 PUSH1 0x1 PUSH1 0xA0 SHL SUB SWAP9 SWAP1 SWAP9 AND PUSH1 0x0 SWAP1 DUP2 MSTORE PUSH1 0x28 DUP4 MSTORE PUSH1 0x40 DUP1 DUP3 KECCAK256 SWAP9 DUP3 MSTORE SWAP8 DUP4 MSTORE DUP8 SWAP1 KECCAK256 DUP8 MLOAD SWAP3 DUP4 ADD DUP9 MSTORE SLOAD DUP3 MSTORE SWAP6 DUP8 ADD MSTORE POP POP PUSH1 0x6 PUSH1 0x60 SWAP1 SWAP5 ADD SWAP4 SWAP1 SWAP4 MSTORE POP SWAP2 SWAP1 POP JUMP JUMPDEST PUSH1 0x60 PUSH1 0x0 DUP1 SLOAD PUSH2 0xF40 SWAP1 PUSH2 0x4DDD JUMP JUMPDEST DUP1 PUSH1 0x1F ADD PUSH1 0x20 DUP1 SWAP2 DIV MUL PUSH1 0x20 ADD PUSH1 0x40 MLOAD SWAP1 DUP2 ADD PUSH1 0x40 MSTORE DUP1 SWAP3 SWAP2 SWAP1 DUP2 DUP2 MSTORE PUSH1 0x20 ADD DUP3 DUP1 SLOAD PUSH2 0xF6C SWAP1 PUSH2 0x4DDD JUMP JUMPDEST DUP1 ISZERO PUSH2 0xFB9 JUMPI DUP1 PUSH1 0x1F LT PUSH2 0xF8E JUMPI PUSH2 0x100 DUP1 DUP4 SLOAD DIV MUL DUP4 MSTORE SWAP2 PUSH1 0x20 ADD SWAP2 PUSH2 0xFB9 JUMP JUMPDEST DUP3 ADD SWAP2 SWAP1 PUSH1 0x0 MSTORE PUSH1 0x20 PUSH1 0x0 KECCAK256 SWAP1 JUMPDEST DUP2 SLOAD DUP2 MSTORE SWAP1 PUSH1 0x1 ADD SWAP1 PUSH1 0x20 ADD DUP1 DUP4 GT PUSH2 0xF9C JUMPI DUP3 SWAP1 SUB PUSH1 0x1F AND DUP3 ADD SWAP2 JUMPDEST POP POP POP POP POP SWAP1 POP SWAP1 JUMP JUMPDEST PUSH1 0x0 PUSH2 0xFCE DUP3 PUSH2 0x3384 JUMP JUMPDEST PUSH2 0x1034 JUMPI PUSH1 0x40 MLOAD PUSH3 0x461BCD PUSH1 0xE5 SHL DUP2 MSTORE PUSH1 0x20 PUSH1 0x4 DUP3 ADD MSTORE PUSH1 0x2C PUSH1 0x24 DUP3 ADD MSTORE PUSH32 0x4552433732313A20617070726F76656420717565727920666F72206E6F6E6578 PUSH1 0x44 DUP3 ADD MSTORE PUSH12 0x34B9BA32B73A103A37B5B2B7 PUSH1 0xA1 SHL PUSH1 0x64 DUP3 ADD MSTORE PUSH1 0x84 ADD JUMPDEST PUSH1 0x40 MLOAD DUP1 SWAP2 SUB SWAP1 REVERT JUMPDEST POP PUSH1 0x0 SWAP1 DUP2 MSTORE PUSH1 0x4 PUSH1 0x20 MSTORE PUSH1 0x40 SWAP1 KECCAK256 SLOAD PUSH1 0x1 PUSH1 0x1 PUSH1 0xA0 SHL SUB AND SWAP1 JUMP JUMPDEST PUSH1 0x0 PUSH2 0x105B DUP3 PUSH2 0x1CF7 JUMP JUMPDEST SWAP1 POP DUP1 PUSH1 0x1 PUSH1 0x1 PUSH1 0xA0 SHL SUB AND DUP4 PUSH1 0x1 PUSH1 0x1 PUSH1 0xA0 SHL SUB AND SUB PUSH2 0x10C8 JUMPI PUSH1 0x40 MLOAD PUSH3 0x461BCD PUSH1 0xE5 SHL DUP2 MSTORE PUSH1 0x20 PUSH1 0x4 DUP3 ADD MSTORE PUSH1 0x21 PUSH1 0x24 DUP3 ADD MSTORE PUSH32 0x4552433732313A20617070726F76616C20746F2063757272656E74206F776E65 PUSH1 0x44 DUP3 ADD MSTORE PUSH1 0x39 PUSH1 0xF9 SHL PUSH1 0x64 DUP3 ADD MSTORE PUSH1 0x84 ADD PUSH2 0x102B JUMP JUMPDEST DUP1 PUSH1 0x1 PUSH1 0x1 PUSH1 0xA0 SHL SUB AND PUSH2 0x10DA PUSH2 0x33A1 JUMP JUMPDEST PUSH1 0x1 PUSH1 0x1 PUSH1 0xA0 SHL SUB AND EQ DUP1 PUSH2 0x10F6 JUMPI POP PUSH2 0x10F6 DUP2 PUSH2 0xCFD PUSH2 0x33A1 JUMP JUMPDEST PUSH2 0x1163 JUMPI PUSH1 0x40 MLOAD PUSH3 0x461BCD PUSH1 0xE5 SHL DUP2 MSTORE PUSH1 0x20 PUSH1 0x4 DUP3 ADD MSTORE PUSH1 0x38 PUSH1 0x24 DUP3 ADD MSTORE PUSH32 0x4552433732313A20617070726F76652063616C6C6572206973206E6F74206F77 PUSH1 0x44 DUP3 ADD MSTORE PUSH24 0x1B995C881B9BDC88185C1C1C9BDD995908199BDC88185B1B PUSH1 0x42 SHL PUSH1 0x64 DUP3 ADD MSTORE PUSH1 0x84 ADD PUSH2 0x102B JUMP JUMPDEST PUSH2 0x116D DUP4 DUP4 PUSH2 0x33AB JUMP JUMPDEST POP POP POP JUMP JUMPDEST PUSH1 0x40 DUP1 MLOAD PUSH1 0x60 DUP2 DUP2 ADD DUP4 MSTORE PUSH1 0x1 PUSH1 0x1 PUSH1 0xA0 SHL SUB DUP9 AND PUSH1 0x0 DUP2 DUP2 MSTORE PUSH1 0xC PUSH1 0x20 SWAP1 DUP2 MSTORE SWAP1 DUP6 SWAP1 KECCAK256 SLOAD DUP5 MSTORE DUP4 ADD MSTORE SWAP2 DUP2 ADD DUP7 SWAP1 MSTORE PUSH2 0x11B0 DUP8 DUP3 DUP8 DUP8 DUP8 PUSH2 0x3419 JUMP JUMPDEST PUSH2 0x1206 JUMPI PUSH1 0x40 MLOAD PUSH3 0x461BCD PUSH1 0xE5 SHL DUP2 MSTORE PUSH1 0x20 PUSH1 0x4 DUP3 ADD MSTORE PUSH1 0x21 PUSH1 0x24 DUP3 ADD MSTORE PUSH32 0x5369676E657220616E64207369676E617475726520646F206E6F74206D617463 PUSH1 0x44 DUP3 ADD MSTORE PUSH1 0xD PUSH1 0xFB SHL PUSH1 0x64 DUP3 ADD MSTORE PUSH1 0x84 ADD PUSH2 0x102B JUMP JUMPDEST PUSH1 0x1 PUSH1 0x1 PUSH1 0xA0 SHL SUB DUP8 AND PUSH1 0x0 SWAP1 DUP2 MSTORE PUSH1 0xC PUSH1 0x20 MSTORE PUSH1 0x40 SWAP1 KECCAK256 SLOAD PUSH2 0x122A SWAP1 PUSH1 0x1 PUSH2 0x3509 JUMP JUMPDEST PUSH1 0x1 PUSH1 0x1 PUSH1 0xA0 SHL SUB DUP9 AND PUSH1 0x0 SWAP1 DUP2 MSTORE PUSH1 0xC PUSH1 0x20 MSTORE PUSH1 0x40 SWAP1 DUP2 SWAP1 KECCAK256 SWAP2 SWAP1 SWAP2 SSTORE MLOAD PUSH32 0x5845892132946850460BFF5A0083F71031BC5BF9AADCD40F1DE79423EAC9B10B SWAP1 PUSH2 0x127A SWAP1 DUP10 SWAP1 CALLER SWAP1 DUP11 SWAP1 PUSH2 0x4E17 JUMP JUMPDEST PUSH1 0x40 MLOAD DUP1 SWAP2 SUB SWAP1 LOG1 PUSH1 0x0 DUP1 ADDRESS PUSH1 0x1 PUSH1 0x1 PUSH1 0xA0 SHL SUB AND DUP9 DUP11 PUSH1 0x40 MLOAD PUSH1 0x20 ADD PUSH2 0x12A2 SWAP3 SWAP2 SWAP1 PUSH2 0x4E43 JUMP JUMPDEST PUSH1 0x40 DUP1 MLOAD PUSH1 0x1F NOT DUP2 DUP5 SUB ADD DUP2 MSTORE SWAP1 DUP3 SWAP1 MSTORE PUSH2 0x12BC SWAP2 PUSH2 0x4E7A JUMP JUMPDEST PUSH1 0x0 PUSH1 0x40 MLOAD DUP1 DUP4 SUB DUP2 PUSH1 0x0 DUP7 GAS CALL SWAP2 POP POP RETURNDATASIZE DUP1 PUSH1 0x0 DUP2 EQ PUSH2 0x12F9 JUMPI PUSH1 0x40 MLOAD SWAP2 POP PUSH1 0x1F NOT PUSH1 0x3F RETURNDATASIZE ADD AND DUP3 ADD PUSH1 0x40 MSTORE RETURNDATASIZE DUP3 MSTORE RETURNDATASIZE PUSH1 0x0 PUSH1 0x20 DUP5 ADD RETURNDATACOPY PUSH2 0x12FE JUMP JUMPDEST PUSH1 0x60 SWAP2 POP JUMPDEST POP SWAP2 POP SWAP2 POP DUP2 PUSH2 0x1350 JUMPI PUSH1 0x40 MLOAD PUSH3 0x461BCD PUSH1 0xE5 SHL DUP2 MSTORE PUSH1 0x20 PUSH1 0x4 DUP3 ADD MSTORE PUSH1 0x1C PUSH1 0x24 DUP3 ADD MSTORE PUSH32 0x46756E6374696F6E2063616C6C206E6F74207375636365737366756C00000000 PUSH1 0x44 DUP3 ADD MSTORE PUSH1 0x64 ADD PUSH2 0x102B JUMP JUMPDEST SWAP3 POP POP POP JUMPDEST SWAP6 SWAP5 POP POP POP POP POP JUMP JUMPDEST PUSH2 0x1366 PUSH2 0x21F7 JUMP JUMPDEST PUSH1 0x1 PUSH1 0x1 PUSH1 0xA0 SHL SUB AND PUSH2 0x1377 PUSH2 0x32D8 JUMP JUMPDEST PUSH1 0x1 PUSH1 0x1 PUSH1 0xA0 SHL SUB AND EQ DUP1 PUSH2 0x13A1 JUMPI POP PUSH2 0x138F PUSH2 0x32D8 JUMP JUMPDEST PUSH1 0x10 SLOAD PUSH1 0x1 PUSH1 0x1 PUSH1 0xA0 SHL SUB SWAP1 DUP2 AND SWAP2 AND EQ JUMPDEST PUSH2 0x13AA JUMPI PUSH1 0x0 DUP1 REVERT JUMPDEST PUSH1 0x15 SSTORE JUMP JUMPDEST PUSH1 0x2 PUSH1 0x11 SLOAD SUB PUSH2 0x13D1 JUMPI PUSH1 0x40 MLOAD PUSH3 0x461BCD PUSH1 0xE5 SHL DUP2 MSTORE PUSH1 0x4 ADD PUSH2 0x102B SWAP1 PUSH2 0x4E96 JUMP JUMPDEST PUSH1 0x2 PUSH1 0x11 SSTORE PUSH1 0x1A SLOAD PUSH1 0x0 SWAP1 PUSH1 0x1 PUSH1 0x1 PUSH1 0xA0 SHL SUB AND PUSH4 0xDD62ED3E PUSH2 0x13F2 PUSH2 0x32D8 JUMP JUMPDEST PUSH1 0x40 MLOAD PUSH1 0x1 PUSH1 0x1 PUSH1 0xE0 SHL SUB NOT PUSH1 0xE0 DUP5 SWAP1 SHL AND DUP2 MSTORE PUSH1 0x1 PUSH1 0x1 PUSH1 0xA0 SHL SUB SWAP1 SWAP2 AND PUSH1 0x4 DUP3 ADD MSTORE ADDRESS PUSH1 0x24 DUP3 ADD MSTORE PUSH1 0x44 ADD PUSH1 0x20 PUSH1 0x40 MLOAD DUP1 DUP4 SUB DUP2 DUP7 GAS STATICCALL ISZERO DUP1 ISZERO PUSH2 0x143C JUMPI RETURNDATASIZE PUSH1 0x0 DUP1 RETURNDATACOPY RETURNDATASIZE PUSH1 0x0 REVERT JUMPDEST POP POP POP POP PUSH1 0x40 MLOAD RETURNDATASIZE PUSH1 0x1F NOT PUSH1 0x1F DUP3 ADD AND DUP3 ADD DUP1 PUSH1 0x40 MSTORE POP DUP2 ADD SWAP1 PUSH2 0x1460 SWAP2 SWAP1 PUSH2 0x4ECD JUMP JUMPDEST SWAP1 POP DUP3 DUP2 LT ISZERO PUSH2 0x14A0 JUMPI PUSH1 0x40 MLOAD PUSH3 0x461BCD PUSH1 0xE5 SHL DUP2 MSTORE PUSH1 0x20 PUSH1 0x4 DUP3 ADD MSTORE PUSH1 0xB PUSH1 0x24 DUP3 ADD MSTORE PUSH11 0x66696C6C47617354616E6B PUSH1 0xA8 SHL PUSH1 0x44 DUP3 ADD MSTORE PUSH1 0x64 ADD PUSH2 0x102B JUMP JUMPDEST PUSH2 0x14AA DUP3 DUP5 PUSH2 0x4EE6 JUMP JUMPDEST PUSH1 0x0 DUP6 DUP2 MSTORE PUSH1 0x18 PUSH1 0x20 MSTORE PUSH1 0x40 DUP2 KECCAK256 DUP1 SLOAD SWAP1 SWAP2 SWAP1 PUSH2 0x14C8 SWAP1 DUP5 SWAP1 PUSH2 0x4DA6 JUMP JUMPDEST SWAP1 SWAP2 SSTORE POP POP PUSH1 0x0 DUP5 DUP2 MSTORE PUSH1 0x19 PUSH1 0x20 MSTORE PUSH1 0x40 DUP2 KECCAK256 DUP1 SLOAD DUP5 SWAP3 SWAP1 PUSH2 0x14EB SWAP1 DUP5 SWAP1 PUSH2 0x4DA6 JUMP JUMPDEST SWAP1 SWAP2 SSTORE POP PUSH2 0x1510 SWAP1 POP PUSH2 0x14FC PUSH2 0x32D8 JUMP JUMPDEST PUSH1 0x1A SLOAD PUSH1 0x1 PUSH1 0x1 PUSH1 0xA0 SHL SUB AND SWAP1 ADDRESS DUP7 PUSH2 0x3515 JUMP JUMPDEST POP POP PUSH1 0x1 PUSH1 0x11 SSTORE POP POP JUMP JUMPDEST PUSH1 0x1 PUSH1 0x1 PUSH1 0xA0 SHL SUB DUP2 AND PUSH2 0x1541 JUMPI PUSH1 0x40 MLOAD PUSH3 0x461BCD PUSH1 0xE5 SHL DUP2 MSTORE PUSH1 0x4 ADD PUSH2 0x102B SWAP1 PUSH2 0x4EFD JUMP JUMPDEST PUSH2 0x1549 PUSH2 0x21F7 JUMP JUMPDEST PUSH1 0x1 PUSH1 0x1 PUSH1 0xA0 SHL SUB AND PUSH2 0x155A PUSH2 0x32D8 JUMP JUMPDEST PUSH1 0x1 PUSH1 0x1 PUSH1 0xA0 SHL SUB AND EQ DUP1 PUSH2 0x1584 JUMPI POP PUSH2 0x1572 PUSH2 0x32D8 JUMP JUMPDEST PUSH1 0x10 SLOAD PUSH1 0x1 PUSH1 0x1 PUSH1 0xA0 SHL SUB SWAP1 DUP2 AND SWAP2 AND EQ JUMPDEST PUSH2 0x158D JUMPI PUSH1 0x0 DUP1 REVERT JUMPDEST PUSH1 0x1A DUP1 SLOAD PUSH1 0x1 PUSH1 0x1 PUSH1 0xA0 SHL SUB NOT AND PUSH1 0x1 PUSH1 0x1 PUSH1 0xA0 SHL SUB SWAP3 SWAP1 SWAP3 AND SWAP2 SWAP1 SWAP2 OR SWAP1 SSTORE JUMP JUMPDEST PUSH2 0x15C0 PUSH2 0x15BA PUSH2 0x33A1 JUMP JUMPDEST DUP3 PUSH2 0x356D JUMP JUMPDEST PUSH2 0x15DC JUMPI PUSH1 0x40 MLOAD PUSH3 0x461BCD PUSH1 0xE5 SHL DUP2 MSTORE PUSH1 0x4 ADD PUSH2 0x102B SWAP1 PUSH2 0x4F26 JUMP JUMPDEST PUSH2 0x116D DUP4 DUP4 DUP4 PUSH2 0x362F JUMP JUMPDEST CALLER PUSH1 0x0 SWAP1 DUP2 MSTORE PUSH1 0x1E PUSH1 0x20 MSTORE PUSH1 0x40 SWAP1 KECCAK256 SLOAD PUSH1 0xFF AND DUP1 PUSH2 0x160F JUMPI POP PUSH1 0x10 SLOAD PUSH1 0x1 PUSH1 0x1 PUSH1 0xA0 SHL SUB AND CALLER EQ JUMPDEST PUSH2 0x1648 JUMPI PUSH1 0x40 MLOAD PUSH3 0x461BCD PUSH1 0xE5 SHL DUP2 MSTORE PUSH1 0x20 PUSH1 0x4 DUP3 ADD MSTORE PUSH1 0xA PUSH1 0x24 DUP3 ADD MSTORE PUSH10 0x1A1C109E5159999958DD PUSH1 0xB2 SHL PUSH1 0x44 DUP3 ADD MSTORE PUSH1 0x64 ADD PUSH2 0x102B JUMP JUMPDEST PUSH1 0x0 JUMPDEST PUSH1 0x4 DUP2 LT ISZERO PUSH2 0x1715 JUMPI PUSH1 0x0 PUSH1 0x29 DUP3 PUSH1 0x4 DUP2 LT PUSH2 0x1669 JUMPI PUSH2 0x1669 PUSH2 0x4F77 JUMP JUMPDEST ADD SLOAD PUSH1 0x1 PUSH1 0x1 PUSH1 0xA0 SHL SUB AND SWAP1 POP DUP1 ISZERO PUSH2 0x1702 JUMPI PUSH1 0x40 MLOAD PUSH4 0x2966BEF PUSH1 0xE4 SHL DUP2 MSTORE PUSH1 0x1 PUSH1 0x1 PUSH1 0xA0 SHL SUB DUP11 DUP2 AND PUSH1 0x4 DUP4 ADD MSTORE PUSH1 0x24 DUP3 ADD DUP11 SWAP1 MSTORE PUSH1 0x44 DUP3 ADD DUP10 SWAP1 MSTORE PUSH1 0x64 DUP3 ADD DUP9 SWAP1 MSTORE PUSH1 0x84 DUP3 ADD DUP8 SWAP1 MSTORE PUSH1 0xA4 DUP3 ADD DUP7 SWAP1 MSTORE PUSH1 0xC4 DUP3 ADD DUP6 SWAP1 MSTORE DUP3 AND SWAP1 PUSH4 0x2966BEF0 SWAP1 PUSH1 0xE4 ADD PUSH1 0x0 PUSH1 0x40 MLOAD DUP1 DUP4 SUB DUP2 PUSH1 0x0 DUP8 DUP1 EXTCODESIZE ISZERO DUP1 ISZERO PUSH2 0x16E9 JUMPI PUSH1 0x0 DUP1 REVERT JUMPDEST POP GAS CALL ISZERO DUP1 ISZERO PUSH2 0x16FD JUMPI RETURNDATASIZE PUSH1 0x0 DUP1 RETURNDATACOPY RETURNDATASIZE PUSH1 0x0 REVERT JUMPDEST POP POP POP POP JUMPDEST POP DUP1 PUSH2 0x170D DUP2 PUSH2 0x4F8D JUMP JUMPDEST SWAP2 POP POP PUSH2 0x164B JUMP JUMPDEST POP POP POP POP POP POP POP POP JUMP JUMPDEST PUSH1 0x0 PUSH2 0x172A DUP4 PUSH2 0x1E4C JUMP JUMPDEST DUP3 LT PUSH2 0x178C JUMPI PUSH1 0x40 MLOAD PUSH3 0x461BCD PUSH1 0xE5 SHL DUP2 MSTORE PUSH1 0x20 PUSH1 0x4 DUP3 ADD MSTORE PUSH1 0x2B PUSH1 0x24 DUP3 ADD MSTORE PUSH32 0x455243373231456E756D657261626C653A206F776E657220696E646578206F75 PUSH1 0x44 DUP3 ADD MSTORE PUSH11 0x74206F6620626F756E6473 PUSH1 0xA8 SHL PUSH1 0x64 DUP3 ADD MSTORE PUSH1 0x84 ADD PUSH2 0x102B JUMP JUMPDEST POP PUSH1 0x1 PUSH1 0x1 PUSH1 0xA0 SHL SUB SWAP2 SWAP1 SWAP2 AND PUSH1 0x0 SWAP1 DUP2 MSTORE PUSH1 0x6 PUSH1 0x20 SWAP1 DUP2 MSTORE PUSH1 0x40 DUP1 DUP4 KECCAK256 SWAP4 DUP4 MSTORE SWAP3 SWAP1 MSTORE KECCAK256 SLOAD SWAP1 JUMP JUMPDEST CALLER PUSH1 0x0 SWAP1 DUP2 MSTORE PUSH1 0x1E PUSH1 0x20 MSTORE PUSH1 0x40 SWAP1 KECCAK256 SLOAD PUSH1 0xFF AND PUSH2 0x17D1 JUMPI PUSH1 0x0 DUP1 REVERT JUMPDEST PUSH2 0x17DA DUP2 PUSH2 0x37C8 JUMP JUMPDEST POP JUMP JUMPDEST PUSH2 0x17E5 PUSH2 0x21F7 JUMP JUMPDEST PUSH1 0x1 PUSH1 0x1 PUSH1 0xA0 SHL SUB AND PUSH2 0x17F6 PUSH2 0x32D8 JUMP JUMPDEST PUSH1 0x1 PUSH1 0x1 PUSH1 0xA0 SHL SUB AND EQ DUP1 PUSH2 0x1825 JUMPI POP PUSH1 0x10 SLOAD PUSH1 0x1 PUSH1 0x1 PUSH1 0xA0 SHL SUB AND PUSH2 0x181A PUSH2 0x32D8 JUMP JUMPDEST PUSH1 0x1 PUSH1 0x1 PUSH1 0xA0 SHL SUB AND EQ JUMPDEST PUSH2 0x182E JUMPI PUSH1 0x0 DUP1 REVERT JUMPDEST PUSH1 0x63 PUSH1 0x16 SLOAD GT ISZERO PUSH2 0x1878 JUMPI PUSH1 0x40 MLOAD PUSH3 0x461BCD PUSH1 0xE5 SHL DUP2 MSTORE PUSH1 0x20 PUSH1 0x4 DUP3 ADD MSTORE PUSH1 0x14 PUSH1 0x24 DUP3 ADD MSTORE PUSH20 0x2132903132BA3BB2B2B710181030B732101C9C97 PUSH1 0x61 SHL PUSH1 0x44 DUP3 ADD MSTORE PUSH1 0x64 ADD PUSH2 0x102B JUMP JUMPDEST PUSH1 0x16 SSTORE JUMP JUMPDEST PUSH2 0x116D DUP4 DUP4 DUP4 PUSH1 0x40 MLOAD DUP1 PUSH1 0x20 ADD PUSH1 0x40 MSTORE DUP1 PUSH1 0x0 DUP2 MSTORE POP PUSH2 0x2745 JUMP JUMPDEST PUSH1 0x13 SLOAD PUSH1 0xFF AND PUSH2 0x18EA JUMPI PUSH1 0x40 MLOAD PUSH3 0x461BCD PUSH1 0xE5 SHL DUP2 MSTORE PUSH1 0x20 PUSH1 0x4 DUP3 ADD MSTORE PUSH1 0x1B PUSH1 0x24 DUP3 ADD MSTORE PUSH32 0x596F752063616E2774206275726E20746869732E2E2E207965743F0000000000 PUSH1 0x44 DUP3 ADD MSTORE PUSH1 0x64 ADD PUSH2 0x102B JUMP JUMPDEST PUSH2 0x18F5 PUSH2 0x15BA PUSH2 0x33A1 JUMP JUMPDEST DUP1 PUSH2 0x1915 JUMPI POP PUSH2 0x1903 PUSH2 0x32D8 JUMP JUMPDEST PUSH1 0x10 SLOAD PUSH1 0x1 PUSH1 0x1 PUSH1 0xA0 SHL SUB SWAP1 DUP2 AND SWAP2 AND EQ JUMPDEST PUSH2 0x17D1 JUMPI PUSH1 0x40 MLOAD PUSH3 0x461BCD PUSH1 0xE5 SHL DUP2 MSTORE PUSH1 0x20 PUSH1 0x4 DUP3 ADD DUP2 SWAP1 MSTORE PUSH1 0x24 DUP3 ADD MSTORE PUSH32 0x43616C6C6572206973206E6F74206F776E6572206E6F7220617070726F766564 PUSH1 0x44 DUP3 ADD MSTORE PUSH1 0x64 ADD PUSH2 0x102B JUMP JUMPDEST CALLER PUSH1 0x0 SWAP1 DUP2 MSTORE PUSH1 0x1E PUSH1 0x20 MSTORE PUSH1 0x40 SWAP1 KECCAK256 SLOAD PUSH1 0xFF AND DUP1 PUSH2 0x1994 JUMPI POP PUSH2 0x1982 PUSH2 0x32D8 JUMP JUMPDEST PUSH1 0x10 SLOAD PUSH1 0x1 PUSH1 0x1 PUSH1 0xA0 SHL SUB SWAP1 DUP2 AND SWAP2 AND EQ JUMPDEST PUSH2 0x199D JUMPI PUSH1 0x0 DUP1 REVERT JUMPDEST PUSH1 0x0 SWAP2 DUP3 MSTORE PUSH1 0x1C PUSH1 0x20 SWAP1 DUP2 MSTORE PUSH1 0x40 DUP1 DUP5 KECCAK256 SWAP3 SWAP1 SWAP3 SSTORE PUSH1 0x1D SWAP1 MSTORE SWAP1 KECCAK256 DUP1 SLOAD PUSH1 0xFF NOT AND SWAP1 SSTORE JUMP JUMPDEST PUSH1 0x0 PUSH2 0x19CD PUSH1 0x8 SLOAD SWAP1 JUMP JUMPDEST DUP3 LT PUSH2 0x1A30 JUMPI PUSH1 0x40 MLOAD PUSH3 0x461BCD PUSH1 0xE5 SHL DUP2 MSTORE PUSH1 0x20 PUSH1 0x4 DUP3 ADD MSTORE PUSH1 0x2C PUSH1 0x24 DUP3 ADD MSTORE PUSH32 0x455243373231456E756D657261626C653A20676C6F62616C20696E646578206F PUSH1 0x44 DUP3 ADD MSTORE PUSH12 0x7574206F6620626F756E6473 PUSH1 0xA0 SHL PUSH1 0x64 DUP3 ADD MSTORE PUSH1 0x84 ADD PUSH2 0x102B JUMP JUMPDEST PUSH1 0x8 DUP3 DUP2 SLOAD DUP2 LT PUSH2 0x1A43 JUMPI PUSH2 0x1A43 PUSH2 0x4F77 JUMP JUMPDEST SWAP1 PUSH1 0x0 MSTORE PUSH1 0x20 PUSH1 0x0 KECCAK256 ADD SLOAD SWAP1 POP SWAP2 SWAP1 POP JUMP JUMPDEST PUSH1 0x1 PUSH1 0x1 PUSH1 0xA0 SHL SUB DUP2 AND PUSH2 0x1A7B JUMPI PUSH1 0x40 MLOAD PUSH3 0x461BCD PUSH1 0xE5 SHL DUP2 MSTORE PUSH1 0x4 ADD PUSH2 0x102B SWAP1 PUSH2 0x4EFD JUMP JUMPDEST PUSH2 0x1A83 PUSH2 0x21F7 JUMP JUMPDEST PUSH1 0x1 PUSH1 0x1 PUSH1 0xA0 SHL SUB AND PUSH2 0x1A94 PUSH2 0x32D8 JUMP JUMPDEST PUSH1 0x1 PUSH1 0x1 PUSH1 0xA0 SHL SUB AND EQ DUP1 PUSH2 0x1ABE JUMPI POP PUSH2 0x1AAC PUSH2 0x32D8 JUMP JUMPDEST PUSH1 0x10 SLOAD PUSH1 0x1 PUSH1 0x1 PUSH1 0xA0 SHL SUB SWAP1 DUP2 AND SWAP2 AND EQ JUMPDEST PUSH2 0x1B30 JUMPI PUSH1 0x40 MLOAD PUSH3 0x461BCD PUSH1 0xE5 SHL DUP2 MSTORE PUSH1 0x20 PUSH1 0x4 DUP3 ADD MSTORE PUSH1 0x3B PUSH1 0x24 DUP3 ADD MSTORE PUSH32 0x4F6E6C7920746865206F776E6572206F7220726567697374657279206D617920 PUSH1 0x44 DUP3 ADD MSTORE PUSH32 0x6368616E6765207468652072657761726420636F6E74726163742E0000000000 PUSH1 0x64 DUP3 ADD MSTORE PUSH1 0x84 ADD PUSH2 0x102B JUMP JUMPDEST PUSH1 0x1B DUP1 SLOAD PUSH1 0x1 PUSH1 0x1 PUSH1 0xA0 SHL SUB NOT AND PUSH1 0x1 PUSH1 0x1 PUSH1 0xA0 SHL SUB SWAP3 SWAP1 SWAP3 AND SWAP2 SWAP1 SWAP2 OR SWAP1 SSTORE JUMP JUMPDEST PUSH2 0x1B5A PUSH2 0x21F7 JUMP JUMPDEST PUSH1 0x1 PUSH1 0x1 PUSH1 0xA0 SHL SUB AND PUSH2 0x1B6B PUSH2 0x32D8 JUMP JUMPDEST PUSH1 0x1 PUSH1 0x1 PUSH1 0xA0 SHL SUB AND EQ DUP1 PUSH2 0x1B9A JUMPI POP PUSH1 0x10 SLOAD PUSH1 0x1 PUSH1 0x1 PUSH1 0xA0 SHL SUB AND PUSH2 0x1B8F PUSH2 0x32D8 JUMP JUMPDEST PUSH1 0x1 PUSH1 0x1 PUSH1 0xA0 SHL SUB AND EQ JUMPDEST PUSH2 0x1BA3 JUMPI PUSH1 0x0 DUP1 REVERT JUMPDEST PUSH1 0xF SSTORE JUMP JUMPDEST CALLER PUSH1 0x0 SWAP1 DUP2 MSTORE PUSH1 0x1E PUSH1 0x20 MSTORE PUSH1 0x40 SWAP1 KECCAK256 SLOAD PUSH1 0xFF AND DUP1 PUSH2 0x1BD0 JUMPI POP PUSH1 0x10 SLOAD PUSH1 0x1 PUSH1 0x1 PUSH1 0xA0 SHL SUB AND CALLER EQ JUMPDEST PUSH2 0x1BEC JUMPI PUSH1 0x40 MLOAD PUSH3 0x461BCD PUSH1 0xE5 SHL DUP2 MSTORE PUSH1 0x4 ADD PUSH2 0x102B SWAP1 PUSH2 0x4F9F JUMP JUMPDEST PUSH1 0x0 SWAP2 DUP3 MSTORE PUSH1 0x26 PUSH1 0x20 SWAP1 DUP2 MSTORE PUSH1 0x40 SWAP3 DUP4 SWAP1 KECCAK256 DUP3 MLOAD DUP2 SSTORE SWAP1 DUP3 ADD MLOAD PUSH1 0x1 DUP3 ADD SSTORE SWAP2 DUP2 ADD MLOAD PUSH1 0x2 DUP4 ADD SSTORE PUSH1 0x60 DUP2 ADD MLOAD PUSH1 0x3 DUP4 ADD SSTORE PUSH1 0x80 DUP2 ADD MLOAD PUSH1 0x4 DUP4 ADD SSTORE PUSH1 0xA0 DUP2 ADD MLOAD PUSH1 0x5 DUP4 ADD SSTORE PUSH1 0xC0 DUP2 ADD MLOAD PUSH1 0x6 DUP4 ADD SSTORE PUSH1 0xE0 DUP2 ADD MLOAD PUSH1 0x7 DUP4 ADD SSTORE PUSH2 0x100 DUP2 ADD MLOAD PUSH1 0x8 DUP4 ADD SSTORE PUSH2 0x120 DUP2 ADD MLOAD PUSH1 0x9 DUP4 ADD SSTORE PUSH2 0x140 ADD MLOAD PUSH1 0xA SWAP1 SWAP2 ADD SSTORE JUMP JUMPDEST PUSH2 0x1C71 PUSH2 0x21F7 JUMP JUMPDEST PUSH1 0x1 PUSH1 0x1 PUSH1 0xA0 SHL SUB AND PUSH2 0x1C82 PUSH2 0x32D8 JUMP JUMPDEST PUSH1 0x1 PUSH1 0x1 PUSH1 0xA0 SHL SUB AND EQ DUP1 PUSH2 0x1CB1 JUMPI POP PUSH1 0x10 SLOAD PUSH1 0x1 PUSH1 0x1 PUSH1 0xA0 SHL SUB AND PUSH2 0x1CA6 PUSH2 0x32D8 JUMP JUMPDEST PUSH1 0x1 PUSH1 0x1 PUSH1 0xA0 SHL SUB AND EQ JUMPDEST PUSH2 0x1CBA JUMPI PUSH1 0x0 DUP1 REVERT JUMPDEST DUP1 MLOAD PUSH2 0x1CCD SWAP1 PUSH1 0x12 SWAP1 PUSH1 0x20 DUP5 ADD SWAP1 PUSH2 0x45DB JUMP JUMPDEST POP POP JUMP JUMPDEST PUSH1 0x0 PUSH8 0xDE0B6B3A7640000 PUSH2 0x1CE6 DUP4 DUP6 PUSH2 0x4FD1 JUMP JUMPDEST PUSH2 0x1CF0 SWAP2 SWAP1 PUSH2 0x5006 JUMP JUMPDEST SWAP4 SWAP3 POP POP POP JUMP JUMPDEST PUSH1 0x0 DUP2 DUP2 MSTORE PUSH1 0x2 PUSH1 0x20 MSTORE PUSH1 0x40 DUP2 KECCAK256 SLOAD PUSH1 0x1 PUSH1 0x1 PUSH1 0xA0 SHL SUB AND DUP1 PUSH2 0xD7C JUMPI PUSH1 0x40 MLOAD PUSH3 0x461BCD PUSH1 0xE5 SHL DUP2 MSTORE PUSH1 0x20 PUSH1 0x4 DUP3 ADD MSTORE PUSH1 0x29 PUSH1 0x24 DUP3 ADD MSTORE PUSH32 0x4552433732313A206F776E657220717565727920666F72206E6F6E6578697374 PUSH1 0x44 DUP3 ADD MSTORE PUSH9 0x32B73A103A37B5B2B7 PUSH1 0xB9 SHL PUSH1 0x64 DUP3 ADD MSTORE PUSH1 0x84 ADD PUSH2 0x102B JUMP JUMPDEST PUSH2 0x1D76 PUSH2 0x21F7 JUMP JUMPDEST PUSH1 0x1 PUSH1 0x1 PUSH1 0xA0 SHL SUB AND PUSH2 0x1D87 PUSH2 0x32D8 JUMP JUMPDEST PUSH1 0x1 PUSH1 0x1 PUSH1 0xA0 SHL SUB AND EQ DUP1 PUSH2 0x1DB1 JUMPI POP PUSH2 0x1D9F PUSH2 0x32D8 JUMP JUMPDEST PUSH1 0x10 SLOAD PUSH1 0x1 PUSH1 0x1 PUSH1 0xA0 SHL SUB SWAP1 DUP2 AND SWAP2 AND EQ JUMPDEST PUSH2 0x1DBA JUMPI PUSH1 0x0 DUP1 REVERT JUMPDEST PUSH1 0x14 SSTORE JUMP JUMPDEST PUSH1 0x1 PUSH1 0x1 PUSH1 0xA0 SHL SUB DUP3 AND PUSH2 0x1DE5 JUMPI PUSH1 0x40 MLOAD PUSH3 0x461BCD PUSH1 0xE5 SHL DUP2 MSTORE PUSH1 0x4 ADD PUSH2 0x102B SWAP1 PUSH2 0x4EFD JUMP JUMPDEST PUSH2 0x1DED PUSH2 0x32D8 JUMP JUMPDEST PUSH1 0x10 SLOAD PUSH1 0x1 PUSH1 0x1 PUSH1 0xA0 SHL SUB SWAP1 DUP2 AND SWAP2 AND EQ DUP1 PUSH2 0x1E18 JUMPI POP CALLER PUSH1 0x0 SWAP1 DUP2 MSTORE PUSH1 0x1E PUSH1 0x20 MSTORE PUSH1 0x40 SWAP1 KECCAK256 SLOAD PUSH1 0xFF AND JUMPDEST PUSH2 0x1E21 JUMPI PUSH1 0x0 DUP1 REVERT JUMPDEST PUSH1 0x1 PUSH1 0x1 PUSH1 0xA0 SHL SUB SWAP2 SWAP1 SWAP2 AND PUSH1 0x0 SWAP1 DUP2 MSTORE PUSH1 0x1E PUSH1 0x20 MSTORE PUSH1 0x40 SWAP1 KECCAK256 DUP1 SLOAD PUSH1 0xFF NOT AND SWAP2 ISZERO ISZERO SWAP2 SWAP1 SWAP2 OR SWAP1 SSTORE JUMP JUMPDEST PUSH1 0x0 PUSH1 0x1 PUSH1 0x1 PUSH1 0xA0 SHL SUB DUP3 AND PUSH2 0x1EB7 JUMPI PUSH1 0x40 MLOAD PUSH3 0x461BCD PUSH1 0xE5 SHL DUP2 MSTORE PUSH1 0x20 PUSH1 0x4 DUP3 ADD MSTORE PUSH1 0x2A PUSH1 0x24 DUP3 ADD MSTORE PUSH32 0x4552433732313A2062616C616E636520717565727920666F7220746865207A65 PUSH1 0x44 DUP3 ADD MSTORE PUSH10 0x726F2061646472657373 PUSH1 0xB0 SHL PUSH1 0x64 DUP3 ADD MSTORE PUSH1 0x84 ADD PUSH2 0x102B JUMP JUMPDEST POP PUSH1 0x1 PUSH1 0x1 PUSH1 0xA0 SHL SUB AND PUSH1 0x0 SWAP1 DUP2 MSTORE PUSH1 0x3 PUSH1 0x20 MSTORE PUSH1 0x40 SWAP1 KECCAK256 SLOAD SWAP1 JUMP JUMPDEST PUSH2 0x1EDB PUSH2 0x33A1 JUMP JUMPDEST PUSH1 0x1 PUSH1 0x1 PUSH1 0xA0 SHL SUB AND PUSH2 0x1EEC PUSH2 0x21F7 JUMP JUMPDEST PUSH1 0x1 PUSH1 0x1 PUSH1 0xA0 SHL SUB AND EQ PUSH2 0x1F12 JUMPI PUSH1 0x40 MLOAD PUSH3 0x461BCD PUSH1 0xE5 SHL DUP2 MSTORE PUSH1 0x4 ADD PUSH2 0x102B SWAP1 PUSH2 0x501A JUMP JUMPDEST PUSH1 0xD SLOAD PUSH1 0x40 MLOAD PUSH1 0x0 SWAP2 PUSH1 0x1 PUSH1 0x1 PUSH1 0xA0 SHL SUB AND SWAP1 PUSH32 0x8BE0079C531659141344CD1FD0A4F28419497F9722A3DAAFE3B4186F6B6457E0 SWAP1 DUP4 SWAP1 LOG3 PUSH1 0xD DUP1 SLOAD PUSH1 0x1 PUSH1 0x1 PUSH1 0xA0 SHL SUB NOT AND SWAP1 SSTORE JUMP JUMPDEST PUSH1 0x0 PUSH2 0x1F66 PUSH2 0x21F7 JUMP JUMPDEST PUSH1 0x1 PUSH1 0x1 PUSH1 0xA0 SHL SUB AND PUSH2 0x1F77 PUSH2 0x32D8 JUMP JUMPDEST PUSH1 0x1 PUSH1 0x1 PUSH1 0xA0 SHL SUB AND EQ DUP1 PUSH2 0x1FA6 JUMPI POP PUSH1 0x10 SLOAD PUSH1 0x1 PUSH1 0x1 PUSH1 0xA0 SHL SUB AND PUSH2 0x1F9B PUSH2 0x32D8 JUMP JUMPDEST PUSH1 0x1 PUSH1 0x1 PUSH1 0xA0 SHL SUB AND EQ JUMPDEST PUSH2 0x2006 JUMPI PUSH1 0x40 MLOAD PUSH3 0x461BCD PUSH1 0xE5 SHL DUP2 MSTORE PUSH1 0x20 PUSH1 0x4 DUP3 ADD MSTORE PUSH1 0x2B PUSH1 0x24 DUP3 ADD MSTORE PUSH32 0x4F6E6C79206F776E657220616E64206D61726B6574706C6163652063616E206D PUSH1 0x44 DUP3 ADD MSTORE PUSH11 0x34B73A103A37B5B2B73997 PUSH1 0xA9 SHL PUSH1 0x64 DUP3 ADD MSTORE PUSH1 0x84 ADD PUSH2 0x102B JUMP JUMPDEST PUSH1 0xF SLOAD PUSH2 0x2011 PUSH2 0x24C4 JUMP JUMPDEST LT PUSH2 0x2057 JUMPI PUSH1 0x40 MLOAD PUSH3 0x461BCD PUSH1 0xE5 SHL DUP2 MSTORE PUSH1 0x20 PUSH1 0x4 DUP3 ADD MSTORE PUSH1 0x16 PUSH1 0x24 DUP3 ADD MSTORE PUSH22 0x20B63932B0B23C9030BA1036B0BC103A37B5B2B73997 PUSH1 0x51 SHL PUSH1 0x44 DUP3 ADD MSTORE PUSH1 0x64 ADD PUSH2 0x102B JUMP JUMPDEST PUSH1 0x0 PUSH2 0x2061 PUSH2 0x24C4 JUMP JUMPDEST SWAP1 POP PUSH2 0x206D DUP4 DUP3 PUSH2 0x385D JUMP JUMPDEST PUSH2 0xD7C PUSH2 0x2784 JUMP JUMPDEST PUSH2 0x207D PUSH2 0x33A1 JUMP JUMPDEST PUSH1 0x1 PUSH1 0x1 PUSH1 0xA0 SHL SUB AND PUSH2 0x208E PUSH2 0x21F7 JUMP JUMPDEST PUSH1 0x1 PUSH1 0x1 PUSH1 0xA0 SHL SUB AND EQ PUSH2 0x20B4 JUMPI PUSH1 0x40 MLOAD PUSH3 0x461BCD PUSH1 0xE5 SHL DUP2 MSTORE PUSH1 0x4 ADD PUSH2 0x102B SWAP1 PUSH2 0x501A JUMP JUMPDEST PUSH1 0x13 DUP1 SLOAD PUSH1 0xFF NOT AND SWAP2 ISZERO ISZERO SWAP2 SWAP1 SWAP2 OR SWAP1 SSTORE JUMP JUMPDEST PUSH2 0x2124 PUSH1 0x40 MLOAD DUP1 PUSH2 0x160 ADD PUSH1 0x40 MSTORE DUP1 PUSH1 0x0 DUP2 MSTORE PUSH1 0x20 ADD PUSH1 0x0 DUP2 MSTORE PUSH1 0x20 ADD PUSH1 0x0 DUP2 MSTORE PUSH1 0x20 ADD PUSH1 0x0 DUP2 MSTORE PUSH1 0x20 ADD PUSH1 0x0 DUP2 MSTORE PUSH1 0x20 ADD PUSH1 0x0 DUP2 MSTORE PUSH1 0x20 ADD PUSH1 0x0 DUP2 MSTORE PUSH1 0x20 ADD PUSH1 0x0 DUP2 MSTORE PUSH1 0x20 ADD PUSH1 0x0 DUP2 MSTORE PUSH1 0x20 ADD PUSH1 0x0 DUP2 MSTORE PUSH1 0x20 ADD PUSH1 0x0 DUP2 MSTORE POP SWAP1 JUMP JUMPDEST CALLER PUSH1 0x0 SWAP1 DUP2 MSTORE PUSH1 0x1E PUSH1 0x20 MSTORE PUSH1 0x40 SWAP1 KECCAK256 SLOAD PUSH1 0xFF AND DUP1 PUSH2 0x214C JUMPI POP PUSH1 0x10 SLOAD PUSH1 0x1 PUSH1 0x1 PUSH1 0xA0 SHL SUB AND CALLER EQ JUMPDEST PUSH2 0x2168 JUMPI PUSH1 0x40 MLOAD PUSH3 0x461BCD PUSH1 0xE5 SHL DUP2 MSTORE PUSH1 0x4 ADD PUSH2 0x102B SWAP1 PUSH2 0x4F9F JUMP JUMPDEST POP PUSH1 0x0 SWAP1 DUP2 MSTORE PUSH1 0x26 PUSH1 0x20 SWAP1 DUP2 MSTORE PUSH1 0x40 SWAP2 DUP3 SWAP1 KECCAK256 DUP3 MLOAD PUSH2 0x160 DUP2 ADD DUP5 MSTORE DUP2 SLOAD DUP2 MSTORE PUSH1 0x1 DUP3 ADD SLOAD SWAP3 DUP2 ADD SWAP3 SWAP1 SWAP3 MSTORE PUSH1 0x2 DUP2 ADD SLOAD SWAP3 DUP3 ADD SWAP3 SWAP1 SWAP3 MSTORE PUSH1 0x3 DUP3 ADD SLOAD PUSH1 0x60 DUP3 ADD MSTORE PUSH1 0x4 DUP3 ADD SLOAD PUSH1 0x80 DUP3 ADD MSTORE PUSH1 0x5 DUP3 ADD SLOAD PUSH1 0xA0 DUP3 ADD MSTORE PUSH1 0x6 DUP3 ADD SLOAD PUSH1 0xC0 DUP3 ADD MSTORE PUSH1 0x7 DUP3 ADD SLOAD PUSH1 0xE0 DUP3 ADD MSTORE PUSH1 0x8 DUP3 ADD SLOAD PUSH2 0x100 DUP3 ADD MSTORE PUSH1 0x9 DUP3 ADD SLOAD PUSH2 0x120 DUP3 ADD MSTORE PUSH1 0xA SWAP1 SWAP2 ADD SLOAD PUSH2 0x140 DUP3 ADD MSTORE SWAP1 JUMP JUMPDEST PUSH1 0xD SLOAD PUSH1 0x1 PUSH1 0x1 PUSH1 0xA0 SHL SUB AND SWAP1 JUMP JUMPDEST CALLER PUSH1 0x0 SWAP1 DUP2 MSTORE PUSH1 0x1E PUSH1 0x20 MSTORE PUSH1 0x40 DUP2 KECCAK256 SLOAD PUSH1 0xFF AND DUP1 PUSH2 0x222E JUMPI POP PUSH1 0x10 SLOAD PUSH1 0x1 PUSH1 0x1 PUSH1 0xA0 SHL SUB AND CALLER EQ JUMPDEST PUSH2 0x2270 JUMPI PUSH1 0x40 MLOAD PUSH3 0x461BCD PUSH1 0xE5 SHL DUP2 MSTORE PUSH1 0x20 PUSH1 0x4 DUP3 ADD MSTORE PUSH1 0x13 PUSH1 0x24 DUP3 ADD MSTORE PUSH19 0x2CB7BA903630B1B5903A3432903837BBB2B917 PUSH1 0x69 SHL PUSH1 0x44 DUP3 ADD MSTORE PUSH1 0x64 ADD PUSH2 0x102B JUMP JUMPDEST PUSH1 0x21 SLOAD PUSH1 0x40 MLOAD PUSH4 0x7E6F85D PUSH1 0xE0 SHL DUP2 MSTORE PUSH1 0x0 SWAP2 PUSH1 0x1 PUSH1 0x1 PUSH1 0xA0 SHL SUB AND SWAP1 PUSH4 0x7E6F85D SWAP1 PUSH2 0x22A3 SWAP1 DUP9 SWAP1 DUP9 SWAP1 PUSH1 0x4 ADD PUSH2 0x4C6F JUMP JUMPDEST PUSH1 0x20 PUSH1 0x40 MLOAD DUP1 DUP4 SUB DUP2 DUP7 GAS STATICCALL ISZERO DUP1 ISZERO PUSH2 0x22C0 JUMPI RETURNDATASIZE PUSH1 0x0 DUP1 RETURNDATACOPY RETURNDATASIZE PUSH1 0x0 REVERT JUMPDEST POP POP POP POP PUSH1 0x40 MLOAD RETURNDATASIZE PUSH1 0x1F NOT PUSH1 0x1F DUP3 ADD AND DUP3 ADD DUP1 PUSH1 0x40 MSTORE POP DUP2 ADD SWAP1 PUSH2 0x22E4 SWAP2 SWAP1 PUSH2 0x4ECD JUMP JUMPDEST SWAP1 POP PUSH1 0x0 PUSH2 0x22F3 DUP7 DUP7 DUP7 PUSH2 0x398A JUMP JUMPDEST SWAP1 POP PUSH1 0x0 DUP3 DUP3 PUSH1 0x0 ADD MLOAD PUSH2 0x2307 SWAP2 SWAP1 PUSH2 0x4DA6 JUMP JUMPDEST PUSH1 0x40 MLOAD PUSH4 0x8D1D0BB9 PUSH1 0xE0 SHL DUP2 MSTORE PUSH1 0x4 DUP2 ADD DUP9 SWAP1 MSTORE PUSH1 0x24 DUP2 ADD DUP3 SWAP1 MSTORE SWAP1 SWAP2 POP DUP8 SWAP1 PUSH1 0x1 PUSH1 0x1 PUSH1 0xA0 SHL SUB DUP3 AND SWAP1 PUSH4 0x8D1D0BB9 SWAP1 PUSH1 0x44 ADD PUSH1 0x0 PUSH1 0x40 MLOAD DUP1 DUP4 SUB DUP2 PUSH1 0x0 DUP8 DUP1 EXTCODESIZE ISZERO DUP1 ISZERO PUSH2 0x2355 JUMPI PUSH1 0x0 DUP1 REVERT JUMPDEST POP GAS CALL ISZERO DUP1 ISZERO PUSH2 0x2369 JUMPI RETURNDATASIZE PUSH1 0x0 DUP1 RETURNDATACOPY RETURNDATASIZE PUSH1 0x0 REVERT JUMPDEST POP POP PUSH1 0x21 SLOAD PUSH1 0x40 MLOAD PUSH4 0x81B38BE9 PUSH1 0xE0 SHL DUP2 MSTORE PUSH1 0x1 PUSH1 0x1 PUSH1 0xA0 SHL SUB DUP13 DUP2 AND PUSH1 0x4 DUP4 ADD MSTORE PUSH1 0x24 DUP3 ADD DUP13 SWAP1 MSTORE PUSH1 0x44 DUP3 ADD DUP12 SWAP1 MSTORE PUSH1 0x64 DUP3 ADD DUP8 SWAP1 MSTORE PUSH1 0x0 SWAP5 POP SWAP1 SWAP2 AND SWAP2 POP PUSH4 0x81B38BE9 SWAP1 PUSH1 0x84 ADD PUSH1 0x20 PUSH1 0x40 MLOAD DUP1 DUP4 SUB DUP2 PUSH1 0x0 DUP8 GAS CALL ISZERO DUP1 ISZERO PUSH2 0x23D1 JUMPI RETURNDATASIZE PUSH1 0x0 DUP1 RETURNDATACOPY RETURNDATASIZE PUSH1 0x0 REVERT JUMPDEST POP POP POP POP PUSH1 0x40 MLOAD RETURNDATASIZE PUSH1 0x1F NOT PUSH1 0x1F DUP3 ADD AND DUP3 ADD DUP1 PUSH1 0x40 MSTORE POP DUP2 ADD SWAP1 PUSH2 0x23F5 SWAP2 SWAP1 PUSH2 0x4ECD JUMP JUMPDEST SWAP1 POP PUSH1 0x0 DUP2 SLT ISZERO PUSH2 0x245B JUMPI PUSH1 0x0 PUSH2 0x240E DUP3 PUSH1 0x0 NOT PUSH2 0x504F JUMP JUMPDEST SWAP1 POP DUP8 DUP2 GT ISZERO PUSH2 0x2427 JUMPI PUSH1 0x0 SWAP7 POP POP POP POP POP POP POP PUSH2 0x1CF0 JUMP JUMPDEST DUP4 PUSH2 0x2432 DUP3 DUP11 PUSH2 0x4EE6 JUMP JUMPDEST PUSH2 0x2444 SWAP1 PUSH8 0xDE0B6B3A7640000 PUSH2 0x4FD1 JUMP JUMPDEST PUSH2 0x244E SWAP2 SWAP1 PUSH2 0x5006 JUMP JUMPDEST SWAP7 POP POP POP POP POP POP POP PUSH2 0x1CF0 JUMP JUMPDEST DUP1 PUSH1 0x0 PUSH2 0x2468 DUP3 DUP11 PUSH2 0x4DA6 JUMP JUMPDEST SWAP1 POP DUP5 DUP2 GT ISZERO PUSH2 0x2489 JUMPI PUSH8 0xDE0B6B3A7640000 SWAP8 POP POP POP POP POP POP POP POP PUSH2 0x1CF0 JUMP JUMPDEST DUP5 PUSH2 0x249C DUP3 PUSH8 0xDE0B6B3A7640000 PUSH2 0x4FD1 JUMP JUMPDEST PUSH2 0x24A6 SWAP2 SWAP1 PUSH2 0x5006 JUMP JUMPDEST SWAP12 SWAP11 POP POP POP POP POP POP POP POP POP POP POP JUMP JUMPDEST PUSH1 0x60 PUSH1 0x1 DUP1 SLOAD PUSH2 0xF40 SWAP1 PUSH2 0x4DDD JUMP JUMPDEST PUSH1 0xE SLOAD PUSH1 0x0 SWAP1 PUSH2 0x24D5 SWAP1 PUSH1 0x1 PUSH2 0x3509 JUMP JUMPDEST SWAP1 POP SWAP1 JUMP JUMPDEST PUSH2 0x24E2 PUSH2 0x33A1 JUMP JUMPDEST PUSH1 0x1 PUSH1 0x1 PUSH1 0xA0 SHL SUB AND DUP3 PUSH1 0x1 PUSH1 0x1 PUSH1 0xA0 SHL SUB AND SUB PUSH2 0x253E JUMPI PUSH1 0x40 MLOAD PUSH3 0x461BCD PUSH1 0xE5 SHL DUP2 MSTORE PUSH1 0x20 PUSH1 0x4 DUP3 ADD MSTORE PUSH1 0x19 PUSH1 0x24 DUP3 ADD MSTORE PUSH25 0x22A9219B99189D1030B8383937BB32903A379031B0B63632B9 PUSH1 0x39 SHL PUSH1 0x44 DUP3 ADD MSTORE PUSH1 0x64 ADD PUSH2 0x102B JUMP JUMPDEST DUP1 PUSH1 0x5 PUSH1 0x0 PUSH2 0x254B PUSH2 0x33A1 JUMP JUMPDEST PUSH1 0x1 PUSH1 0x1 PUSH1 0xA0 SHL SUB SWAP1 DUP2 AND DUP3 MSTORE PUSH1 0x20 DUP1 DUP4 ADD SWAP4 SWAP1 SWAP4 MSTORE PUSH1 0x40 SWAP2 DUP3 ADD PUSH1 0x0 SWAP1 DUP2 KECCAK256 SWAP2 DUP8 AND DUP1 DUP3 MSTORE SWAP2 SWAP1 SWAP4 MSTORE SWAP2 KECCAK256 DUP1 SLOAD PUSH1 0xFF NOT AND SWAP3 ISZERO ISZERO SWAP3 SWAP1 SWAP3 OR SWAP1 SWAP2 SSTORE PUSH2 0x258F PUSH2 0x33A1 JUMP JUMPDEST PUSH1 0x1 PUSH1 0x1 PUSH1 0xA0 SHL SUB AND PUSH32 0x17307EAB39AB6107E8899845AD3D59BD9653F200F220920489CA2B5937696C31 DUP4 PUSH1 0x40 MLOAD PUSH2 0x25CB SWAP2 ISZERO ISZERO DUP2 MSTORE PUSH1 0x20 ADD SWAP1 JUMP JUMPDEST PUSH1 0x40 MLOAD DUP1 SWAP2 SUB SWAP1 LOG3 POP POP JUMP JUMPDEST CALLER PUSH1 0x0 SWAP1 DUP2 MSTORE PUSH1 0x1E PUSH1 0x20 MSTORE PUSH1 0x40 DUP2 KECCAK256 SLOAD PUSH1 0xFF AND PUSH2 0x2606 JUMPI PUSH1 0x40 MLOAD PUSH3 0x461BCD PUSH1 0xE5 SHL DUP2 MSTORE PUSH1 0x4 ADD PUSH2 0x102B SWAP1 PUSH2 0x50D4 JUMP JUMPDEST PUSH1 0xF SLOAD PUSH2 0x2611 PUSH2 0x24C4 JUMP JUMPDEST LT PUSH2 0x2057 JUMPI PUSH1 0x40 MLOAD PUSH3 0x461BCD PUSH1 0xE5 SHL DUP2 MSTORE PUSH1 0x20 PUSH1 0x4 DUP3 ADD MSTORE PUSH1 0xE PUSH1 0x24 DUP3 ADD MSTORE PUSH14 0x20BA1036B0BC103A37B5B2B73997 PUSH1 0x91 SHL PUSH1 0x44 DUP3 ADD MSTORE PUSH1 0x64 ADD PUSH2 0x102B JUMP JUMPDEST CALLER PUSH1 0x0 SWAP1 DUP2 MSTORE PUSH1 0x1E PUSH1 0x20 MSTORE PUSH1 0x40 SWAP1 KECCAK256 SLOAD PUSH1 0xFF AND DUP1 PUSH2 0x2677 JUMPI POP PUSH1 0x10 SLOAD PUSH1 0x1 PUSH1 0x1 PUSH1 0xA0 SHL SUB AND CALLER EQ JUMPDEST PUSH2 0x26B3 JUMPI PUSH1 0x40 MLOAD PUSH3 0x461BCD PUSH1 0xE5 SHL DUP2 MSTORE PUSH1 0x20 PUSH1 0x4 DUP3 ADD MSTORE PUSH1 0xD PUSH1 0x24 DUP3 ADD MSTORE PUSH13 0x65717569704974656D46726F6D PUSH1 0x98 SHL PUSH1 0x44 DUP3 ADD MSTORE PUSH1 0x64 ADD PUSH2 0x102B JUMP JUMPDEST DUP1 ISZERO PUSH2 0x26C4 JUMPI PUSH2 0x26C4 DUP5 ADDRESS DUP4 PUSH2 0x362F JUMP JUMPDEST PUSH1 0x1 PUSH1 0x1 PUSH1 0xA0 SHL SUB DUP4 AND PUSH1 0x0 SWAP1 DUP2 MSTORE PUSH1 0x27 PUSH1 0x20 SWAP1 DUP2 MSTORE PUSH1 0x40 DUP1 DUP4 KECCAK256 DUP6 DUP5 MSTORE DUP3 MSTORE DUP1 DUP4 KECCAK256 DUP5 DUP5 MSTORE PUSH1 0x25 DUP4 MSTORE DUP2 DUP5 KECCAK256 SLOAD DUP5 MSTORE SWAP1 SWAP2 MSTORE SWAP1 KECCAK256 SLOAD DUP1 ISZERO PUSH2 0x270B JUMPI PUSH2 0x270B ADDRESS DUP7 DUP5 PUSH2 0x362F JUMP JUMPDEST POP PUSH1 0x1 PUSH1 0x1 PUSH1 0xA0 SHL SUB SWAP1 SWAP3 AND PUSH1 0x0 SWAP1 DUP2 MSTORE PUSH1 0x27 PUSH1 0x20 SWAP1 DUP2 MSTORE PUSH1 0x40 DUP1 DUP4 KECCAK256 SWAP4 DUP4 MSTORE SWAP3 DUP2 MSTORE DUP3 DUP3 KECCAK256 DUP5 DUP4 MSTORE PUSH1 0x25 DUP3 MSTORE DUP4 DUP4 KECCAK256 SLOAD DUP4 MSTORE SWAP1 MSTORE KECCAK256 SSTORE POP JUMP JUMPDEST PUSH2 0x2756 PUSH2 0x2750 PUSH2 0x33A1 JUMP JUMPDEST DUP4 PUSH2 0x356D JUMP JUMPDEST PUSH2 0x2772 JUMPI PUSH1 0x40 MLOAD PUSH3 0x461BCD PUSH1 0xE5 SHL DUP2 MSTORE PUSH1 0x4 ADD PUSH2 0x102B SWAP1 PUSH2 0x4F26 JUMP JUMPDEST PUSH2 0x277E DUP5 DUP5 DUP5 DUP5 PUSH2 0x3B25 JUMP JUMPDEST POP POP POP POP JUMP JUMPDEST PUSH1 0xE DUP1 SLOAD SWAP1 PUSH1 0x0 PUSH2 0x2794 DUP4 PUSH2 0x4F8D JUMP JUMPDEST SWAP2 SWAP1 POP SSTORE POP JUMP JUMPDEST PUSH1 0x2 PUSH1 0x11 SLOAD SUB PUSH2 0x27BD JUMPI PUSH1 0x40 MLOAD PUSH3 0x461BCD PUSH1 0xE5 SHL DUP2 MSTORE PUSH1 0x4 ADD PUSH2 0x102B SWAP1 PUSH2 0x4E96 JUMP JUMPDEST PUSH1 0x2 PUSH1 0x11 SSTORE PUSH1 0x1E PUSH1 0x0 PUSH2 0x27CE PUSH2 0x32D8 JUMP JUMPDEST PUSH1 0x1 PUSH1 0x1 PUSH1 0xA0 SHL SUB AND DUP2 MSTORE PUSH1 0x20 DUP2 ADD SWAP2 SWAP1 SWAP2 MSTORE PUSH1 0x40 ADD PUSH1 0x0 KECCAK256 SLOAD PUSH1 0xFF AND PUSH2 0x2807 JUMPI PUSH1 0x40 MLOAD PUSH3 0x461BCD PUSH1 0xE5 SHL DUP2 MSTORE PUSH1 0x4 ADD PUSH2 0x102B SWAP1 PUSH2 0x50D4 JUMP JUMPDEST PUSH1 0x0 PUSH2 0x2812 DUP3 PUSH2 0x1CF7 JUMP JUMPDEST SWAP1 POP DUP3 PUSH1 0x1 PUSH1 0x1 PUSH1 0xA0 SHL SUB AND DUP2 PUSH1 0x1 PUSH1 0x1 PUSH1 0xA0 SHL SUB AND SUB PUSH2 0x2889 JUMPI PUSH1 0x40 MLOAD PUSH3 0x461BCD PUSH1 0xE5 SHL DUP2 MSTORE PUSH1 0x20 PUSH1 0x4 DUP3 ADD MSTORE PUSH1 0x2B PUSH1 0x24 DUP3 ADD MSTORE PUSH32 0x546F6B656E206F776E65722063616E206E6F74207472616E7366657220746F6B PUSH1 0x44 DUP3 ADD MSTORE PUSH11 0x32B7103A379039B2B63317 PUSH1 0xA9 SHL PUSH1 0x64 DUP3 ADD MSTORE PUSH1 0x84 ADD PUSH2 0x102B JUMP JUMPDEST PUSH2 0x2894 DUP5 DUP5 DUP5 PUSH2 0x362F JUMP JUMPDEST PUSH1 0x1B SLOAD PUSH1 0x1 PUSH1 0x1 PUSH1 0xA0 SHL SUB AND ISZERO DUP1 ISZERO SWAP1 PUSH2 0x28BB JUMPI POP PUSH1 0x0 DUP3 DUP2 MSTORE PUSH1 0x1C PUSH1 0x20 MSTORE PUSH1 0x40 SWAP1 KECCAK256 SLOAD ISZERO ISZERO JUMPDEST DUP1 ISZERO PUSH2 0x28D6 JUMPI POP PUSH1 0x0 DUP3 DUP2 MSTORE PUSH1 0x1D PUSH1 0x20 MSTORE PUSH1 0x40 SWAP1 KECCAK256 SLOAD PUSH1 0xFF AND ISZERO JUMPDEST ISZERO PUSH2 0x2969 JUMPI PUSH1 0x1B SLOAD PUSH1 0x0 DUP4 DUP2 MSTORE PUSH1 0x1C PUSH1 0x20 MSTORE PUSH1 0x40 SWAP1 DUP2 SWAP1 KECCAK256 SLOAD SWAP1 MLOAD PUSH4 0xC43E92B1 PUSH1 0xE0 SHL DUP2 MSTORE PUSH1 0x1 PUSH1 0x1 PUSH1 0xA0 SHL SUB SWAP1 SWAP3 AND SWAP2 PUSH4 0xC43E92B1 SWAP2 PUSH2 0x291D SWAP2 DUP9 SWAP2 DUP9 SWAP2 PUSH1 0x4 ADD PUSH2 0x50FA JUMP JUMPDEST PUSH1 0x0 PUSH1 0x40 MLOAD DUP1 DUP4 SUB DUP2 PUSH1 0x0 DUP8 DUP1 EXTCODESIZE ISZERO DUP1 ISZERO PUSH2 0x2937 JUMPI PUSH1 0x0 DUP1 REVERT JUMPDEST POP GAS CALL ISZERO DUP1 ISZERO PUSH2 0x294B JUMPI RETURNDATASIZE PUSH1 0x0 DUP1 RETURNDATACOPY RETURNDATASIZE PUSH1 0x0 REVERT JUMPDEST POP POP POP PUSH1 0x0 DUP4 DUP2 MSTORE PUSH1 0x1D PUSH1 0x20 MSTORE PUSH1 0x40 SWAP1 KECCAK256 DUP1 SLOAD PUSH1 0xFF NOT AND PUSH1 0x1 OR SWAP1 SSTORE POP JUMPDEST PUSH1 0x0 DUP3 DUP2 MSTORE PUSH1 0x19 PUSH1 0x20 MSTORE PUSH1 0x40 SWAP1 KECCAK256 SLOAD ISZERO PUSH2 0x1510 JUMPI PUSH1 0x0 DUP3 DUP2 MSTORE PUSH1 0x19 PUSH1 0x20 MSTORE PUSH1 0x40 SWAP1 KECCAK256 SLOAD PUSH1 0x1A SLOAD PUSH2 0x29A6 SWAP2 PUSH1 0x1 PUSH1 0x1 PUSH1 0xA0 SHL SUB SWAP1 SWAP2 AND SWAP1 DUP6 SWAP1 PUSH2 0x3B58 JUMP JUMPDEST POP PUSH1 0x0 SWAP1 DUP2 MSTORE PUSH1 0x19 PUSH1 0x20 MSTORE PUSH1 0x40 DUP2 KECCAK256 SSTORE POP POP PUSH1 0x1 PUSH1 0x11 SSTORE JUMP JUMPDEST CALLER PUSH1 0x0 SWAP1 DUP2 MSTORE PUSH1 0x1E PUSH1 0x20 MSTORE PUSH1 0x40 DUP2 KECCAK256 SLOAD PUSH1 0xFF AND DUP1 PUSH2 0x29E7 JUMPI POP PUSH1 0x10 SLOAD PUSH1 0x1 PUSH1 0x1 PUSH1 0xA0 SHL SUB AND CALLER EQ JUMPDEST PUSH2 0x2A23 JUMPI PUSH1 0x40 MLOAD PUSH3 0x461BCD PUSH1 0xE5 SHL DUP2 MSTORE PUSH1 0x20 PUSH1 0x4 DUP3 ADD MSTORE PUSH1 0xD PUSH1 0x24 DUP3 ADD MSTORE PUSH13 0x283632B0B9B2903237B713BA17 PUSH1 0x99 SHL PUSH1 0x44 DUP3 ADD MSTORE PUSH1 0x64 ADD PUSH2 0x102B JUMP JUMPDEST PUSH1 0x21 SLOAD PUSH1 0x40 MLOAD PUSH4 0xCD0ACA99 PUSH1 0xE0 SHL DUP2 MSTORE PUSH1 0x0 SWAP2 PUSH1 0x1 PUSH1 0x1 PUSH1 0xA0 SHL SUB AND SWAP1 PUSH4 0xCD0ACA99 SWAP1 PUSH2 0x2A56 SWAP1 DUP11 SWAP1 DUP11 SWAP1 PUSH1 0x4 ADD PUSH2 0x4C6F JUMP JUMPDEST PUSH1 0x20 PUSH1 0x40 MLOAD DUP1 DUP4 SUB DUP2 DUP7 GAS STATICCALL ISZERO DUP1 ISZERO PUSH2 0x2A73 JUMPI RETURNDATASIZE PUSH1 0x0 DUP1 RETURNDATACOPY RETURNDATASIZE PUSH1 0x0 REVERT JUMPDEST POP POP POP POP PUSH1 0x40 MLOAD RETURNDATASIZE PUSH1 0x1F NOT PUSH1 0x1F DUP3 ADD AND DUP3 ADD DUP1 PUSH1 0x40 MSTORE POP DUP2 ADD SWAP1 PUSH2 0x2A97 SWAP2 SWAP1 PUSH2 0x4ECD JUMP JUMPDEST SWAP1 POP PUSH1 0x0 PUSH2 0x2AA5 DUP9 DUP9 PUSH2 0x3B77 JUMP JUMPDEST DUP1 MLOAD SWAP1 SWAP2 POP PUSH1 0x0 SWAP1 PUSH2 0x2AB7 SWAP1 DUP5 PUSH2 0x4DA6 JUMP JUMPDEST PUSH1 0x40 MLOAD PUSH4 0xACADCB7 PUSH1 0xE2 SHL DUP2 MSTORE PUSH1 0x4 DUP2 ADD DUP11 SWAP1 MSTORE PUSH1 0x24 DUP2 ADD DUP3 SWAP1 MSTORE SWAP1 SWAP2 POP PUSH1 0x1 PUSH1 0x1 PUSH1 0xA0 SHL SUB DUP11 AND SWAP1 PUSH4 0x2B2B72DC SWAP1 PUSH1 0x44 ADD PUSH1 0x0 PUSH1 0x40 MLOAD DUP1 DUP4 SUB DUP2 PUSH1 0x0 DUP8 DUP1 EXTCODESIZE ISZERO DUP1 ISZERO PUSH2 0x2B03 JUMPI PUSH1 0x0 DUP1 REVERT JUMPDEST POP GAS CALL ISZERO DUP1 ISZERO PUSH2 0x2B17 JUMPI RETURNDATASIZE PUSH1 0x0 DUP1 RETURNDATACOPY RETURNDATASIZE PUSH1 0x0 REVERT JUMPDEST POP POP POP POP PUSH1 0x0 DUP1 PUSH1 0x0 DUP9 SGT ISZERO PUSH2 0x2B2E JUMPI POP DUP7 PUSH2 0x2B3D JUMP JUMPDEST PUSH2 0x2B3A DUP9 PUSH1 0x0 NOT PUSH2 0x504F JUMP JUMPDEST SWAP2 POP JUMPDEST PUSH1 0x0 PUSH1 0x40 MLOAD DUP1 PUSH2 0x1E0 ADD PUSH1 0x40 MSTORE DUP1 PUSH1 0x1 ISZERO ISZERO DUP2 MSTORE PUSH1 0x20 ADD DUP14 PUSH1 0x1 PUSH1 0x1 PUSH1 0xA0 SHL SUB AND DUP2 MSTORE PUSH1 0x20 ADD DUP13 DUP2 MSTORE PUSH1 0x20 ADD DUP4 DUP2 MSTORE PUSH1 0x20 ADD DUP5 DUP2 MSTORE PUSH1 0x20 ADD DUP10 DUP2 MSTORE PUSH1 0x20 ADD DUP7 PUSH1 0x20 ADD MLOAD DUP2 MSTORE PUSH1 0x20 ADD DUP7 PUSH1 0x40 ADD MLOAD DUP2 MSTORE PUSH1 0x20 ADD DUP7 PUSH1 0x60 ADD MLOAD DUP2 MSTORE PUSH1 0x20 ADD DUP7 PUSH1 0x80 ADD MLOAD DUP2 MSTORE PUSH1 0x20 ADD DUP7 PUSH1 0xA0 ADD MLOAD DUP2 MSTORE PUSH1 0x20 ADD PUSH1 0x1 DUP2 MSTORE PUSH1 0x20 ADD PUSH1 0x1 DUP2 MSTORE PUSH1 0x20 ADD PUSH1 0x0 DUP2 MSTORE PUSH1 0x20 ADD PUSH1 0x1 DUP2 MSTORE POP SWAP1 POP PUSH1 0x0 PUSH2 0x2BD5 DUP6 DUP13 PUSH2 0x1CD1 JUMP JUMPDEST SWAP1 POP PUSH1 0x0 PUSH1 0x21 PUSH1 0x0 SWAP1 SLOAD SWAP1 PUSH2 0x100 EXP SWAP1 DIV PUSH1 0x1 PUSH1 0x1 PUSH1 0xA0 SHL SUB AND PUSH1 0x1 PUSH1 0x1 PUSH1 0xA0 SHL SUB AND PUSH4 0x787023B5 DUP16 DUP16 DUP6 DUP8 PUSH1 0x40 MLOAD DUP6 PUSH4 0xFFFFFFFF AND PUSH1 0xE0 SHL DUP2 MSTORE PUSH1 0x4 ADD PUSH2 0x2D0B SWAP5 SWAP4 SWAP3 SWAP2 SWAP1 PUSH1 0x1 PUSH1 0x1 PUSH1 0xA0 SHL SUB DUP6 AND DUP2 MSTORE PUSH1 0x20 DUP2 ADD DUP5 SWAP1 MSTORE PUSH1 0x40 DUP2 ADD DUP4 SWAP1 MSTORE DUP2 MLOAD ISZERO ISZERO PUSH1 0x60 DUP3 ADD MSTORE PUSH2 0x240 DUP2 ADD PUSH1 0x20 DUP4 ADD MLOAD PUSH1 0x1 PUSH1 0x1 PUSH1 0xA0 SHL SUB DUP2 AND PUSH1 0x80 DUP5 ADD MSTORE POP PUSH1 0x40 DUP4 ADD MLOAD PUSH1 0xA0 DUP4 ADD MSTORE PUSH1 0x60 DUP4 ADD MLOAD PUSH1 0xC0 DUP4 ADD MSTORE PUSH1 0x80 DUP4 ADD MLOAD PUSH1 0xE0 DUP4 ADD MSTORE PUSH1 0xA0 DUP4 ADD MLOAD PUSH2 0x100 DUP2 DUP2 DUP6 ADD MSTORE PUSH1 0xC0 DUP6 ADD MLOAD SWAP2 POP PUSH2 0x120 DUP3 DUP2 DUP7 ADD MSTORE PUSH1 0xE0 DUP7 ADD MLOAD SWAP3 POP PUSH2 0x140 DUP4 DUP2 DUP8 ADD MSTORE DUP3 DUP8 ADD MLOAD SWAP4 POP PUSH2 0x160 SWAP3 POP DUP4 DUP4 DUP8 ADD MSTORE DUP2 DUP8 ADD MLOAD SWAP4 POP PUSH2 0x180 SWAP2 POP DUP4 DUP3 DUP8 ADD MSTORE DUP1 DUP8 ADD MLOAD SWAP4 POP POP PUSH2 0x1A0 DUP4 DUP2 DUP8 ADD MSTORE DUP3 DUP8 ADD MLOAD SWAP4 POP PUSH2 0x1C0 SWAP3 POP DUP4 DUP4 DUP8 ADD MSTORE DUP2 DUP8 ADD MLOAD PUSH2 0x1E0 DUP8 ADD MSTORE DUP1 DUP8 ADD MLOAD PUSH2 0x200 DUP8 ADD MSTORE POP POP DUP1 DUP6 ADD MLOAD PUSH2 0x220 DUP6 ADD MSTORE POP POP SWAP6 SWAP5 POP POP POP POP POP JUMP JUMPDEST PUSH1 0x20 PUSH1 0x40 MLOAD DUP1 DUP4 SUB DUP2 PUSH1 0x0 DUP8 GAS CALL ISZERO DUP1 ISZERO PUSH2 0x2D2A JUMPI RETURNDATASIZE PUSH1 0x0 DUP1 RETURNDATACOPY RETURNDATASIZE PUSH1 0x0 REVERT JUMPDEST POP POP POP POP PUSH1 0x40 MLOAD RETURNDATASIZE PUSH1 0x1F NOT PUSH1 0x1F DUP3 ADD AND DUP3 ADD DUP1 PUSH1 0x40 MSTORE POP DUP2 ADD SWAP1 PUSH2 0x2D4E SWAP2 SWAP1 PUSH2 0x4ECD JUMP JUMPDEST SWAP1 POP DUP1 PUSH1 0x0 SUB PUSH2 0x2D69 JUMPI PUSH1 0x0 SWAP9 POP POP POP POP POP POP POP POP POP PUSH2 0x1355 JUMP JUMPDEST PUSH2 0x2D73 DUP5 DUP3 PUSH2 0x4DA6 JUMP JUMPDEST SWAP1 POP DUP1 DUP6 GT ISZERO PUSH2 0x2D85 JUMPI POP PUSH1 0x0 PUSH2 0x2D92 JUMP JUMPDEST PUSH2 0x2D8F DUP6 DUP3 PUSH2 0x4EE6 JUMP JUMPDEST SWAP1 POP JUMPDEST DUP6 DUP2 GT ISZERO PUSH2 0x2D9D JUMPI POP DUP5 JUMPDEST DUP6 PUSH2 0x2DB0 DUP3 PUSH8 0xDE0B6B3A7640000 PUSH2 0x4FD1 JUMP JUMPDEST PUSH2 0x2DBA SWAP2 SWAP1 PUSH2 0x5006 JUMP JUMPDEST SWAP15 SWAP14 POP POP POP POP POP POP POP POP POP POP POP POP POP POP JUMP JUMPDEST PUSH1 0x60 PUSH2 0x2DD6 PUSH2 0x2E06 JUMP JUMPDEST PUSH2 0x2DDF DUP4 PUSH2 0x3E55 JUMP JUMPDEST PUSH1 0x40 MLOAD PUSH1 0x20 ADD PUSH2 0x2DF0 SWAP3 SWAP2 SWAP1 PUSH2 0x511E JUMP JUMPDEST PUSH1 0x40 MLOAD PUSH1 0x20 DUP2 DUP4 SUB SUB DUP2 MSTORE SWAP1 PUSH1 0x40 MSTORE SWAP1 POP SWAP2 SWAP1 POP JUMP JUMPDEST PUSH1 0x60 PUSH1 0x12 PUSH1 0x40 MLOAD PUSH1 0x20 ADD PUSH2 0x2E1A SWAP2 SWAP1 PUSH2 0x51E6 JUMP JUMPDEST PUSH1 0x40 MLOAD PUSH1 0x20 DUP2 DUP4 SUB SUB DUP2 MSTORE SWAP1 PUSH1 0x40 MSTORE SWAP1 POP SWAP1 JUMP JUMPDEST PUSH1 0x2 PUSH1 0x11 SLOAD SUB PUSH2 0x2E50 JUMPI PUSH1 0x40 MLOAD PUSH3 0x461BCD PUSH1 0xE5 SHL DUP2 MSTORE PUSH1 0x4 ADD PUSH2 0x102B SWAP1 PUSH2 0x4E96 JUMP JUMPDEST PUSH1 0x2 PUSH1 0x11 SSTORE PUSH1 0x0 PUSH2 0x2E60 DUP5 PUSH2 0x1CF7 JUMP JUMPDEST SWAP1 POP DUP1 PUSH1 0x1 PUSH1 0x1 PUSH1 0xA0 SHL SUB AND PUSH2 0x2E74 PUSH2 0x32D8 JUMP JUMPDEST PUSH1 0x1 PUSH1 0x1 PUSH1 0xA0 SHL SUB AND EQ DUP1 PUSH2 0x2E9E JUMPI POP PUSH2 0x2E8C PUSH2 0x32D8 JUMP JUMPDEST PUSH1 0x10 SLOAD PUSH1 0x1 PUSH1 0x1 PUSH1 0xA0 SHL SUB SWAP1 DUP2 AND SWAP2 AND EQ JUMPDEST PUSH2 0x2ED8 JUMPI PUSH1 0x40 MLOAD PUSH3 0x461BCD PUSH1 0xE5 SHL DUP2 MSTORE PUSH1 0x20 PUSH1 0x4 DUP3 ADD MSTORE PUSH1 0xB PUSH1 0x24 DUP3 ADD MSTORE PUSH11 0x20B6B4B7399037B7363C97 PUSH1 0xA9 SHL PUSH1 0x44 DUP3 ADD MSTORE PUSH1 0x64 ADD PUSH2 0x102B JUMP JUMPDEST PUSH1 0x0 DUP5 DUP2 MSTORE PUSH1 0x18 PUSH1 0x20 MSTORE PUSH1 0x40 SWAP1 KECCAK256 SLOAD DUP4 GT ISZERO PUSH2 0x2F20 JUMPI PUSH1 0x40 MLOAD PUSH3 0x461BCD PUSH1 0xE5 SHL DUP2 MSTORE PUSH1 0x20 PUSH1 0x4 DUP3 ADD MSTORE PUSH1 0x7 PUSH1 0x24 DUP3 ADD MSTORE PUSH7 0x2932B334B63617 PUSH1 0xC9 SHL PUSH1 0x44 DUP3 ADD MSTORE PUSH1 0x64 ADD PUSH2 0x102B JUMP JUMPDEST PUSH1 0x0 DUP5 DUP2 MSTORE PUSH1 0x18 PUSH1 0x20 MSTORE PUSH1 0x40 DUP2 KECCAK256 DUP1 SLOAD DUP6 SWAP3 SWAP1 PUSH2 0x2F3E SWAP1 DUP5 SWAP1 PUSH2 0x4EE6 JUMP JUMPDEST SWAP1 SWAP2 SSTORE POP POP PUSH1 0x1A SLOAD PUSH1 0x40 MLOAD PUSH4 0x852CD8D PUSH1 0xE3 SHL DUP2 MSTORE PUSH1 0x4 DUP2 ADD DUP6 SWAP1 MSTORE PUSH1 0x1 PUSH1 0x1 PUSH1 0xA0 SHL SUB SWAP1 SWAP2 AND SWAP1 PUSH4 0x42966C68 SWAP1 PUSH1 0x24 ADD PUSH1 0x0 PUSH1 0x40 MLOAD DUP1 DUP4 SUB DUP2 PUSH1 0x0 DUP8 DUP1 EXTCODESIZE ISZERO DUP1 ISZERO PUSH2 0x2F89 JUMPI PUSH1 0x0 DUP1 REVERT JUMPDEST POP GAS CALL ISZERO DUP1 ISZERO PUSH2 0x2F9D JUMPI RETURNDATASIZE PUSH1 0x0 DUP1 RETURNDATACOPY RETURNDATASIZE PUSH1 0x0 REVERT JUMPDEST POP POP POP POP PUSH32 0x6CF1047B698DE02174DB713EB2021BE336D8A8370C8E3B762FE83B7ED289BC3 DUP2 DUP6 DUP6 DUP6 PUSH1 0x40 MLOAD PUSH2 0x2FD6 SWAP5 SWAP4 SWAP3 SWAP2 SWAP1 PUSH2 0x5209 JUMP JUMPDEST PUSH1 0x40 MLOAD DUP1 SWAP2 SUB SWAP1 LOG1 POP POP PUSH1 0x1 PUSH1 0x11 SSTORE POP POP JUMP JUMPDEST CALLER PUSH1 0x0 SWAP1 DUP2 MSTORE PUSH1 0x1E PUSH1 0x20 MSTORE PUSH1 0x40 SWAP1 KECCAK256 SLOAD PUSH1 0xFF AND DUP1 PUSH2 0x3011 JUMPI POP PUSH1 0x10 SLOAD PUSH1 0x1 PUSH1 0x1 PUSH1 0xA0 SHL SUB AND CALLER EQ JUMPDEST PUSH2 0x305D JUMPI PUSH1 0x40 MLOAD PUSH3 0x461BCD PUSH1 0xE5 SHL DUP2 MSTORE PUSH1 0x20 PUSH1 0x4 DUP3 ADD MSTORE PUSH1 0x1C PUSH1 0x24 DUP3 ADD MSTORE PUSH32 0x596F752063616E277420617070726F7665206C696B6520746861742E00000000 PUSH1 0x44 DUP3 ADD MSTORE PUSH1 0x64 ADD PUSH2 0x102B JUMP JUMPDEST PUSH2 0x116D DUP4 DUP3 PUSH2 0x33AB JUMP JUMPDEST PUSH1 0x60 PUSH1 0x12 PUSH1 0x40 MLOAD PUSH1 0x20 ADD PUSH2 0x2E1A SWAP2 SWAP1 PUSH2 0x5240 JUMP JUMPDEST PUSH1 0x1 PUSH1 0x1 PUSH1 0xA0 SHL SUB SWAP2 DUP3 AND PUSH1 0x0 SWAP1 DUP2 MSTORE PUSH1 0x5 PUSH1 0x20 SWAP1 DUP2 MSTORE PUSH1 0x40 DUP1 DUP4 KECCAK256 SWAP4 SWAP1 SWAP5 AND DUP3 MSTORE SWAP2 SWAP1 SWAP2 MSTORE KECCAK256 SLOAD PUSH1 0xFF AND SWAP1 JUMP JUMPDEST PUSH2 0x30B1 PUSH2 0x33A1 JUMP JUMPDEST PUSH1 0x1 PUSH1 0x1 PUSH1 0xA0 SHL SUB AND PUSH2 0x30C2 PUSH2 0x21F7 JUMP JUMPDEST PUSH1 0x1 PUSH1 0x1 PUSH1 0xA0 SHL SUB AND EQ PUSH2 0x30E8 JUMPI PUSH1 0x40 MLOAD PUSH3 0x461BCD PUSH1 0xE5 SHL DUP2 MSTORE PUSH1 0x4 ADD PUSH2 0x102B SWAP1 PUSH2 0x501A JUMP JUMPDEST PUSH1 0x1 PUSH1 0x1 PUSH1 0xA0 SHL SUB DUP2 AND PUSH2 0x314D JUMPI PUSH1 0x40 MLOAD PUSH3 0x461BCD PUSH1 0xE5 SHL DUP2 MSTORE PUSH1 0x20 PUSH1 0x4 DUP3 ADD MSTORE PUSH1 0x26 PUSH1 0x24 DUP3 ADD MSTORE PUSH32 0x4F776E61626C653A206E6577206F776E657220697320746865207A65726F2061 PUSH1 0x44 DUP3 ADD MSTORE PUSH6 0x646472657373 PUSH1 0xD0 SHL PUSH1 0x64 DUP3 ADD MSTORE PUSH1 0x84 ADD PUSH2 0x102B JUMP JUMPDEST PUSH1 0xD SLOAD PUSH1 0x40 MLOAD PUSH1 0x1 PUSH1 0x1 PUSH1 0xA0 SHL SUB DUP1 DUP5 AND SWAP3 AND SWAP1 PUSH32 0x8BE0079C531659141344CD1FD0A4F28419497F9722A3DAAFE3B4186F6B6457E0 SWAP1 PUSH1 0x0 SWAP1 LOG3 PUSH1 0xD DUP1 SLOAD PUSH1 0x1 PUSH1 0x1 PUSH1 0xA0 SHL SUB NOT AND PUSH1 0x1 PUSH1 0x1 PUSH1 0xA0 SHL SUB SWAP3 SWAP1 SWAP3 AND SWAP2 SWAP1 SWAP2 OR SWAP1 SSTORE JUMP JUMPDEST CALLER PUSH1 0x0 SWAP1 DUP2 MSTORE PUSH1 0x1E PUSH1 0x20 MSTORE PUSH1 0x40 DUP2 KECCAK256 SLOAD PUSH1 0xFF AND DUP1 PUSH2 0x31D1 JUMPI POP PUSH1 0x10 SLOAD PUSH1 0x1 PUSH1 0x1 PUSH1 0xA0 SHL SUB AND CALLER EQ JUMPDEST PUSH2 0x3229 JUMPI PUSH1 0x40 MLOAD PUSH3 0x461BCD PUSH1 0xE5 SHL DUP2 MSTORE PUSH1 0x20 PUSH1 0x4 DUP3 ADD MSTORE PUSH1 0x24 DUP1 DUP3 ADD MSTORE PUSH32 0x596F752063616E2774206D616B652061206E6577206974656D73207468697320 PUSH1 0x44 DUP3 ADD MSTORE PUSH4 0x3BB0BC97 PUSH1 0xE1 SHL PUSH1 0x64 DUP3 ADD MSTORE PUSH1 0x84 ADD PUSH2 0x102B JUMP JUMPDEST PUSH1 0x0 PUSH2 0x3233 PUSH2 0x24C4 JUMP JUMPDEST SWAP1 POP PUSH2 0x323F DUP5 DUP3 PUSH2 0x385D JUMP JUMPDEST PUSH2 0x3247 PUSH2 0x2784 JUMP JUMPDEST PUSH1 0x40 MLOAD PUSH4 0x33D119EB PUSH1 0xE0 SHL DUP2 MSTORE PUSH1 0x4 DUP2 ADD DUP7 SWAP1 MSTORE PUSH1 0x1 PUSH1 0x1 PUSH1 0xA0 SHL SUB DUP8 AND SWAP1 PUSH4 0x33D119EB SWAP1 PUSH1 0x24 ADD PUSH1 0x20 PUSH1 0x40 MLOAD DUP1 DUP4 SUB DUP2 DUP7 GAS STATICCALL ISZERO DUP1 ISZERO PUSH2 0x328C JUMPI RETURNDATASIZE PUSH1 0x0 DUP1 RETURNDATACOPY RETURNDATASIZE PUSH1 0x0 REVERT JUMPDEST POP POP POP POP PUSH1 0x40 MLOAD RETURNDATASIZE PUSH1 0x1F NOT PUSH1 0x1F DUP3 ADD AND DUP3 ADD DUP1 PUSH1 0x40 MSTORE POP DUP2 ADD SWAP1 PUSH2 0x32B0 SWAP2 SWAP1 PUSH2 0x4ECD JUMP JUMPDEST PUSH1 0x0 DUP3 DUP2 MSTORE PUSH1 0x24 PUSH1 0x20 SWAP1 DUP2 MSTORE PUSH1 0x40 DUP1 DUP4 KECCAK256 SWAP4 SWAP1 SWAP4 SSTORE PUSH1 0x25 SWAP1 MSTORE KECCAK256 DUP4 SWAP1 SSTORE SWAP1 POP JUMPDEST SWAP5 SWAP4 POP POP POP POP JUMP JUMPDEST PUSH1 0x0 ADDRESS CALLER SUB PUSH2 0x332E JUMPI PUSH1 0x0 DUP1 CALLDATASIZE DUP1 DUP1 PUSH1 0x1F ADD PUSH1 0x20 DUP1 SWAP2 DIV MUL PUSH1 0x20 ADD PUSH1 0x40 MLOAD SWAP1 DUP2 ADD PUSH1 0x40 MSTORE DUP1 SWAP4 SWAP3 SWAP2 SWAP1 DUP2 DUP2 MSTORE PUSH1 0x20 ADD DUP4 DUP4 DUP1 DUP3 DUP5 CALLDATACOPY PUSH1 0x0 SWAP3 ADD SWAP2 SWAP1 SWAP2 MSTORE POP POP POP POP CALLDATASIZE ADD MLOAD PUSH1 0x1 PUSH1 0x1 PUSH1 0xA0 SHL SUB AND SWAP2 POP PUSH2 0x3331 SWAP1 POP JUMP JUMPDEST POP CALLER JUMPDEST SWAP1 JUMP JUMPDEST PUSH1 0x0 PUSH1 0x1 PUSH1 0x1 PUSH1 0xE0 SHL SUB NOT DUP3 AND PUSH4 0x80AC58CD PUSH1 0xE0 SHL EQ DUP1 PUSH2 0x3365 JUMPI POP PUSH1 0x1 PUSH1 0x1 PUSH1 0xE0 SHL SUB NOT DUP3 AND PUSH4 0x5B5E139F PUSH1 0xE0 SHL EQ JUMPDEST DUP1 PUSH2 0xD7C JUMPI POP PUSH4 0x1FFC9A7 PUSH1 0xE0 SHL PUSH1 0x1 PUSH1 0x1 PUSH1 0xE0 SHL SUB NOT DUP4 AND EQ PUSH2 0xD7C JUMP JUMPDEST PUSH1 0x0 SWAP1 DUP2 MSTORE PUSH1 0x2 PUSH1 0x20 MSTORE PUSH1 0x40 SWAP1 KECCAK256 SLOAD PUSH1 0x1 PUSH1 0x1 PUSH1 0xA0 SHL SUB AND ISZERO ISZERO SWAP1 JUMP JUMPDEST PUSH1 0x0 PUSH2 0x24D5 PUSH2 0x32D8 JUMP JUMPDEST PUSH1 0x0 DUP2 DUP2 MSTORE PUSH1 0x4 PUSH1 0x20 MSTORE PUSH1 0x40 SWAP1 KECCAK256 DUP1 SLOAD PUSH1 0x1 PUSH1 0x1 PUSH1 0xA0 SHL SUB NOT AND PUSH1 0x1 PUSH1 0x1 PUSH1 0xA0 SHL SUB DUP5 AND SWAP1 DUP2 OR SWAP1 SWAP2 SSTORE DUP2 SWAP1 PUSH2 0x33E0 DUP3 PUSH2 0x1CF7 JUMP JUMPDEST PUSH1 0x1 PUSH1 0x1 PUSH1 0xA0 SHL SUB AND PUSH32 0x8C5BE1E5EBEC7D5BD14F71427D1E84F3DD0314C0F7B2291E5B200AC8C7C3B925 PUSH1 0x40 MLOAD PUSH1 0x40 MLOAD DUP1 SWAP2 SUB SWAP1 LOG4 POP POP JUMP JUMPDEST PUSH1 0x0 PUSH1 0x1 PUSH1 0x1 PUSH1 0xA0 SHL SUB DUP7 AND PUSH2 0x347F JUMPI PUSH1 0x40 MLOAD PUSH3 0x461BCD PUSH1 0xE5 SHL DUP2 MSTORE PUSH1 0x20 PUSH1 0x4 DUP3 ADD MSTORE PUSH1 0x25 PUSH1 0x24 DUP3 ADD MSTORE PUSH32 0x4E61746976654D6574615472616E73616374696F6E3A20494E56414C49445F53 PUSH1 0x44 DUP3 ADD MSTORE PUSH5 0x24A3A722A9 PUSH1 0xD9 SHL PUSH1 0x64 DUP3 ADD MSTORE PUSH1 0x84 ADD PUSH2 0x102B JUMP JUMPDEST PUSH1 0x1 PUSH2 0x3492 PUSH2 0x348D DUP8 PUSH2 0x3F55 JUMP JUMPDEST PUSH2 0x3FD2 JUMP JUMPDEST PUSH1 0x40 DUP1 MLOAD PUSH1 0x0 DUP2 MSTORE PUSH1 0x20 DUP2 ADD DUP1 DUP4 MSTORE SWAP3 SWAP1 SWAP3 MSTORE PUSH1 0xFF DUP6 AND SWAP1 DUP3 ADD MSTORE PUSH1 0x60 DUP2 ADD DUP7 SWAP1 MSTORE PUSH1 0x80 DUP2 ADD DUP6 SWAP1 MSTORE PUSH1 0xA0 ADD PUSH1 0x20 PUSH1 0x40 MLOAD PUSH1 0x20 DUP2 SUB SWAP1 DUP1 DUP5 SUB SWAP1 DUP6 GAS STATICCALL ISZERO DUP1 ISZERO PUSH2 0x34E0 JUMPI RETURNDATASIZE PUSH1 0x0 DUP1 RETURNDATACOPY RETURNDATASIZE PUSH1 0x0 REVERT JUMPDEST POP POP POP PUSH1 0x20 PUSH1 0x40 MLOAD SUB MLOAD PUSH1 0x1 PUSH1 0x1 PUSH1 0xA0 SHL SUB AND DUP7 PUSH1 0x1 PUSH1 0x1 PUSH1 0xA0 SHL SUB AND EQ SWAP1 POP SWAP6 SWAP5 POP POP POP POP POP JUMP JUMPDEST PUSH1 0x0 PUSH2 0x1CF0 DUP3 DUP5 PUSH2 0x4DA6 JUMP JUMPDEST PUSH2 0x277E DUP5 PUSH4 0x23B872DD PUSH1 0xE0 SHL DUP6 DUP6 DUP6 PUSH1 0x40 MLOAD PUSH1 0x24 ADD PUSH2 0x3536 SWAP4 SWAP3 SWAP2 SWAP1 PUSH2 0x50FA JUMP JUMPDEST PUSH1 0x40 DUP1 MLOAD PUSH1 0x1F NOT DUP2 DUP5 SUB ADD DUP2 MSTORE SWAP2 SWAP1 MSTORE PUSH1 0x20 DUP2 ADD DUP1 MLOAD PUSH1 0x1 PUSH1 0x1 PUSH1 0xE0 SHL SUB AND PUSH1 0x1 PUSH1 0x1 PUSH1 0xE0 SHL SUB NOT SWAP1 SWAP4 AND SWAP3 SWAP1 SWAP3 OR SWAP1 SWAP2 MSTORE PUSH2 0x4002 JUMP JUMPDEST PUSH1 0x0 PUSH2 0x3578 DUP3 PUSH2 0x3384 JUMP JUMPDEST PUSH2 0x35D9 JUMPI PUSH1 0x40 MLOAD PUSH3 0x461BCD PUSH1 0xE5 SHL DUP2 MSTORE PUSH1 0x20 PUSH1 0x4 DUP3 ADD MSTORE PUSH1 0x2C PUSH1 0x24 DUP3 ADD MSTORE PUSH32 0x4552433732313A206F70657261746F7220717565727920666F72206E6F6E6578 PUSH1 0x44 DUP3 ADD MSTORE PUSH12 0x34B9BA32B73A103A37B5B2B7 PUSH1 0xA1 SHL PUSH1 0x64 DUP3 ADD MSTORE PUSH1 0x84 ADD PUSH2 0x102B JUMP JUMPDEST PUSH1 0x0 PUSH2 0x35E4 DUP4 PUSH2 0x1CF7 JUMP JUMPDEST SWAP1 POP DUP1 PUSH1 0x1 PUSH1 0x1 PUSH1 0xA0 SHL SUB AND DUP5 PUSH1 0x1 PUSH1 0x1 PUSH1 0xA0 SHL SUB AND EQ DUP1 PUSH2 0x361F JUMPI POP DUP4 PUSH1 0x1 PUSH1 0x1 PUSH1 0xA0 SHL SUB AND PUSH2 0x3614 DUP5 PUSH2 0xFC3 JUMP JUMPDEST PUSH1 0x1 PUSH1 0x1 PUSH1 0xA0 SHL SUB AND EQ JUMPDEST DUP1 PUSH2 0x32D0 JUMPI POP PUSH2 0x32D0 DUP2 DUP6 PUSH2 0x307B JUMP JUMPDEST DUP3 PUSH1 0x1 PUSH1 0x1 PUSH1 0xA0 SHL SUB AND PUSH2 0x3642 DUP3 PUSH2 0x1CF7 JUMP JUMPDEST PUSH1 0x1 PUSH1 0x1 PUSH1 0xA0 SHL SUB AND EQ PUSH2 0x36AA JUMPI PUSH1 0x40 MLOAD PUSH3 0x461BCD PUSH1 0xE5 SHL DUP2 MSTORE PUSH1 0x20 PUSH1 0x4 DUP3 ADD MSTORE PUSH1 0x29 PUSH1 0x24 DUP3 ADD MSTORE PUSH32 0x4552433732313A207472616E73666572206F6620746F6B656E20746861742069 PUSH1 0x44 DUP3 ADD MSTORE PUSH9 0x39903737BA1037BBB7 PUSH1 0xB9 SHL PUSH1 0x64 DUP3 ADD MSTORE PUSH1 0x84 ADD PUSH2 0x102B JUMP JUMPDEST PUSH1 0x1 PUSH1 0x1 PUSH1 0xA0 SHL SUB DUP3 AND PUSH2 0x370C JUMPI PUSH1 0x40 MLOAD PUSH3 0x461BCD PUSH1 0xE5 SHL DUP2 MSTORE PUSH1 0x20 PUSH1 0x4 DUP3 ADD MSTORE PUSH1 0x24 DUP1 DUP3 ADD MSTORE PUSH32 0x4552433732313A207472616E7366657220746F20746865207A65726F20616464 PUSH1 0x44 DUP3 ADD MSTORE PUSH4 0x72657373 PUSH1 0xE0 SHL PUSH1 0x64 DUP3 ADD MSTORE PUSH1 0x84 ADD PUSH2 0x102B JUMP JUMPDEST PUSH2 0x3717 DUP4 DUP4 DUP4 PUSH2 0x40D4 JUMP JUMPDEST PUSH2 0x3722 PUSH1 0x0 DUP3 PUSH2 0x33AB JUMP JUMPDEST PUSH1 0x1 PUSH1 0x1 PUSH1 0xA0 SHL SUB DUP4 AND PUSH1 0x0 SWAP1 DUP2 MSTORE PUSH1 0x3 PUSH1 0x20 MSTORE PUSH1 0x40 DUP2 KECCAK256 DUP1 SLOAD PUSH1 0x1 SWAP3 SWAP1 PUSH2 0x374B SWAP1 DUP5 SWAP1 PUSH2 0x4EE6 JUMP JUMPDEST SWAP1 SWAP2 SSTORE POP POP PUSH1 0x1 PUSH1 0x1 PUSH1 0xA0 SHL SUB DUP3 AND PUSH1 0x0 SWAP1 DUP2 MSTORE PUSH1 0x3 PUSH1 0x20 MSTORE PUSH1 0x40 DUP2 KECCAK256 DUP1 SLOAD PUSH1 0x1 SWAP3 SWAP1 PUSH2 0x3779 SWAP1 DUP5 SWAP1 PUSH2 0x4DA6 JUMP JUMPDEST SWAP1 SWAP2 SSTORE POP POP PUSH1 0x0 DUP2 DUP2 MSTORE PUSH1 0x2 PUSH1 0x20 MSTORE PUSH1 0x40 DUP1 DUP3 KECCAK256 DUP1 SLOAD PUSH1 0x1 PUSH1 0x1 PUSH1 0xA0 SHL SUB NOT AND PUSH1 0x1 PUSH1 0x1 PUSH1 0xA0 SHL SUB DUP7 DUP2 AND SWAP2 DUP3 OR SWAP1 SWAP3 SSTORE SWAP2 MLOAD DUP5 SWAP4 SWAP2 DUP8 AND SWAP2 PUSH1 0x0 DUP1 MLOAD PUSH1 0x20 PUSH2 0x53D3 DUP4 CODECOPY DUP2 MLOAD SWAP2 MSTORE SWAP2 LOG4 POP POP POP JUMP JUMPDEST PUSH1 0x0 PUSH2 0x37D3 DUP3 PUSH2 0x1CF7 JUMP JUMPDEST SWAP1 POP PUSH2 0x37E1 DUP2 PUSH1 0x0 DUP5 PUSH2 0x40D4 JUMP JUMPDEST PUSH2 0x37EC PUSH1 0x0 DUP4 PUSH2 0x33AB JUMP JUMPDEST PUSH1 0x1 PUSH1 0x1 PUSH1 0xA0 SHL SUB DUP2 AND PUSH1 0x0 SWAP1 DUP2 MSTORE PUSH1 0x3 PUSH1 0x20 MSTORE PUSH1 0x40 DUP2 KECCAK256 DUP1 SLOAD PUSH1 0x1 SWAP3 SWAP1 PUSH2 0x3815 SWAP1 DUP5 SWAP1 PUSH2 0x4EE6 JUMP JUMPDEST SWAP1 SWAP2 SSTORE POP POP PUSH1 0x0 DUP3 DUP2 MSTORE PUSH1 0x2 PUSH1 0x20 MSTORE PUSH1 0x40 DUP1 DUP3 KECCAK256 DUP1 SLOAD PUSH1 0x1 PUSH1 0x1 PUSH1 0xA0 SHL SUB NOT AND SWAP1 SSTORE MLOAD DUP4 SWAP2 SWAP1 PUSH1 0x1 PUSH1 0x1 PUSH1 0xA0 SHL SUB DUP5 AND SWAP1 PUSH1 0x0 DUP1 MLOAD PUSH1 0x20 PUSH2 0x53D3 DUP4 CODECOPY DUP2 MLOAD SWAP2 MSTORE SWAP1 DUP4 SWAP1 LOG4 POP POP JUMP JUMPDEST PUSH1 0x1 PUSH1 0x1 PUSH1 0xA0 SHL SUB DUP3 AND PUSH2 0x38B3 JUMPI PUSH1 0x40 MLOAD PUSH3 0x461BCD PUSH1 0xE5 SHL DUP2 MSTORE PUSH1 0x20 PUSH1 0x4 DUP3 ADD DUP2 SWAP1 MSTORE PUSH1 0x24 DUP3 ADD MSTORE PUSH32 0x4552433732313A206D696E7420746F20746865207A65726F2061646472657373 PUSH1 0x44 DUP3 ADD MSTORE PUSH1 0x64 ADD PUSH2 0x102B JUMP JUMPDEST PUSH2 0x38BC DUP2 PUSH2 0x3384 JUMP JUMPDEST ISZERO PUSH2 0x3909 JUMPI PUSH1 0x40 MLOAD PUSH3 0x461BCD PUSH1 0xE5 SHL DUP2 MSTORE PUSH1 0x20 PUSH1 0x4 DUP3 ADD MSTORE PUSH1 0x1C PUSH1 0x24 DUP3 ADD MSTORE PUSH32 0x4552433732313A20746F6B656E20616C7265616479206D696E74656400000000 PUSH1 0x44 DUP3 ADD MSTORE PUSH1 0x64 ADD PUSH2 0x102B JUMP JUMPDEST PUSH2 0x3915 PUSH1 0x0 DUP4 DUP4 PUSH2 0x40D4 JUMP JUMPDEST PUSH1 0x1 PUSH1 0x1 PUSH1 0xA0 SHL SUB DUP3 AND PUSH1 0x0 SWAP1 DUP2 MSTORE PUSH1 0x3 PUSH1 0x20 MSTORE PUSH1 0x40 DUP2 KECCAK256 DUP1 SLOAD PUSH1 0x1 SWAP3 SWAP1 PUSH2 0x393E SWAP1 DUP5 SWAP1 PUSH2 0x4DA6 JUMP JUMPDEST SWAP1 SWAP2 SSTORE POP POP PUSH1 0x0 DUP2 DUP2 MSTORE PUSH1 0x2 PUSH1 0x20 MSTORE PUSH1 0x40 DUP1 DUP3 KECCAK256 DUP1 SLOAD PUSH1 0x1 PUSH1 0x1 PUSH1 0xA0 SHL SUB NOT AND PUSH1 0x1 PUSH1 0x1 PUSH1 0xA0 SHL SUB DUP7 AND SWAP1 DUP2 OR SWAP1 SWAP2 SSTORE SWAP1 MLOAD DUP4 SWAP3 SWAP1 PUSH1 0x0 DUP1 MLOAD PUSH1 0x20 PUSH2 0x53D3 DUP4 CODECOPY DUP2 MLOAD SWAP2 MSTORE SWAP1 DUP3 SWAP1 LOG4 POP POP JUMP JUMPDEST PUSH1 0x40 DUP1 MLOAD PUSH1 0x20 DUP2 ADD SWAP1 SWAP2 MSTORE PUSH1 0x0 DUP2 MSTORE PUSH1 0x0 PUSH1 0x1 JUMPDEST PUSH1 0xE DUP2 SGT PUSH2 0x3B0E JUMPI PUSH1 0x1 PUSH1 0x1 PUSH1 0xA0 SHL SUB DUP7 AND PUSH1 0x0 SWAP1 DUP2 MSTORE PUSH1 0x27 PUSH1 0x20 SWAP1 DUP2 MSTORE PUSH1 0x40 DUP1 DUP4 KECCAK256 DUP9 DUP5 MSTORE DUP3 MSTORE DUP1 DUP4 KECCAK256 DUP5 DUP5 MSTORE SWAP1 SWAP2 MSTORE SWAP1 KECCAK256 SLOAD DUP1 ISZERO PUSH2 0x3AFB JUMPI PUSH1 0x0 DUP2 DUP2 MSTORE PUSH1 0x26 PUSH1 0x20 SWAP1 DUP2 MSTORE PUSH1 0x40 SWAP2 DUP3 SWAP1 KECCAK256 DUP3 MLOAD PUSH2 0x160 DUP2 ADD DUP5 MSTORE DUP2 SLOAD DUP2 MSTORE PUSH1 0x1 DUP3 ADD SLOAD SWAP3 DUP2 ADD SWAP3 SWAP1 SWAP3 MSTORE PUSH1 0x2 DUP2 ADD SLOAD DUP3 DUP5 ADD MSTORE PUSH1 0x3 DUP2 ADD SLOAD PUSH1 0x60 DUP4 ADD MSTORE PUSH1 0x4 DUP1 DUP3 ADD SLOAD PUSH1 0x80 DUP5 ADD MSTORE PUSH1 0x5 DUP3 ADD SLOAD PUSH1 0xA0 DUP5 ADD MSTORE PUSH1 0x6 DUP3 ADD SLOAD PUSH1 0xC0 DUP5 ADD MSTORE PUSH1 0x7 DUP3 ADD SLOAD PUSH1 0xE0 DUP5 ADD MSTORE PUSH1 0x8 DUP3 ADD SLOAD PUSH2 0x100 DUP5 ADD MSTORE PUSH1 0x9 DUP3 ADD SLOAD PUSH2 0x120 DUP5 ADD MSTORE PUSH1 0xA SWAP1 SWAP2 ADD SLOAD PUSH2 0x140 DUP4 ADD MSTORE PUSH1 0x21 SLOAD SWAP3 MLOAD PUSH4 0xA2D0829 PUSH1 0xE2 SHL DUP2 MSTORE PUSH1 0x1 PUSH1 0x1 PUSH1 0xA0 SHL SUB DUP12 DUP2 AND SWAP3 DUP3 ADD SWAP3 SWAP1 SWAP3 MSTORE PUSH1 0x24 DUP2 ADD DUP11 SWAP1 MSTORE PUSH1 0x44 DUP2 ADD DUP10 SWAP1 MSTORE SWAP2 SWAP3 AND SWAP1 PUSH4 0x28B420A4 SWAP1 PUSH1 0x64 ADD PUSH1 0x20 PUSH1 0x40 MLOAD DUP1 DUP4 SUB DUP2 DUP7 GAS STATICCALL ISZERO DUP1 ISZERO PUSH2 0x3ABA JUMPI RETURNDATASIZE PUSH1 0x0 DUP1 RETURNDATACOPY RETURNDATASIZE PUSH1 0x0 REVERT JUMPDEST POP POP POP POP PUSH1 0x40 MLOAD RETURNDATASIZE PUSH1 0x1F NOT PUSH1 0x1F DUP3 ADD AND DUP3 ADD DUP1 PUSH1 0x40 MSTORE POP DUP2 ADD SWAP1 PUSH2 0x3ADE SWAP2 SWAP1 PUSH2 0x4ECD JUMP JUMPDEST DUP2 PUSH1 0x60 ADD MLOAD PUSH2 0x3AED SWAP2 SWAP1 PUSH2 0x4FD1 JUMP JUMPDEST PUSH2 0x3AF7 SWAP1 DUP6 PUSH2 0x4DA6 JUMP JUMPDEST SWAP4 POP POP JUMPDEST POP DUP1 PUSH2 0x3B06 DUP2 PUSH2 0x4DBE JUMP JUMPDEST SWAP2 POP POP PUSH2 0x399E JUMP JUMPDEST POP PUSH1 0x40 DUP1 MLOAD PUSH1 0x20 DUP2 ADD SWAP1 SWAP2 MSTORE SWAP1 DUP2 MSTORE SWAP5 SWAP4 POP POP POP POP JUMP JUMPDEST PUSH2 0x3B30 DUP5 DUP5 DUP5 PUSH2 0x362F JUMP JUMPDEST PUSH2 0x3B3C DUP5 DUP5 DUP5 DUP5 PUSH2 0x418C JUMP JUMPDEST PUSH2 0x277E JUMPI PUSH1 0x40 MLOAD PUSH3 0x461BCD PUSH1 0xE5 SHL DUP2 MSTORE PUSH1 0x4 ADD PUSH2 0x102B SWAP1 PUSH2 0x5265 JUMP JUMPDEST PUSH2 0x116D DUP4 PUSH4 0xA9059CBB PUSH1 0xE0 SHL DUP5 DUP5 PUSH1 0x40 MLOAD PUSH1 0x24 ADD PUSH2 0x3536 SWAP3 SWAP2 SWAP1 PUSH2 0x4C6F JUMP JUMPDEST PUSH2 0x3BB0 PUSH1 0x40 MLOAD DUP1 PUSH1 0xC0 ADD PUSH1 0x40 MSTORE DUP1 PUSH1 0x0 DUP2 MSTORE PUSH1 0x20 ADD PUSH1 0x0 DUP2 MSTORE PUSH1 0x20 ADD PUSH1 0x0 DUP2 MSTORE PUSH1 0x20 ADD PUSH1 0x0 DUP2 MSTORE PUSH1 0x20 ADD PUSH1 0x0 DUP2 MSTORE PUSH1 0x20 ADD PUSH1 0x0 DUP2 MSTORE POP SWAP1 JUMP JUMPDEST PUSH1 0x21 SLOAD PUSH1 0x40 MLOAD PUSH4 0x3DE49A8B PUSH1 0xE1 SHL DUP2 MSTORE PUSH1 0x0 SWAP2 PUSH1 0x1 PUSH1 0x1 PUSH1 0xA0 SHL SUB AND SWAP1 PUSH4 0x7BC93516 SWAP1 PUSH2 0x3BE3 SWAP1 DUP8 SWAP1 DUP8 SWAP1 PUSH1 0x4 ADD PUSH2 0x4C6F JUMP JUMPDEST PUSH1 0x20 PUSH1 0x40 MLOAD DUP1 DUP4 SUB DUP2 DUP7 GAS STATICCALL ISZERO DUP1 ISZERO PUSH2 0x3C00 JUMPI RETURNDATASIZE PUSH1 0x0 DUP1 RETURNDATACOPY RETURNDATASIZE PUSH1 0x0 REVERT JUMPDEST POP POP POP POP PUSH1 0x40 MLOAD RETURNDATASIZE PUSH1 0x1F NOT PUSH1 0x1F DUP3 ADD AND DUP3 ADD DUP1 PUSH1 0x40 MSTORE POP DUP2 ADD SWAP1 PUSH2 0x3C24 SWAP2 SWAP1 PUSH2 0x4ECD JUMP JUMPDEST SWAP1 POP PUSH1 0x0 DUP1 DUP1 DUP1 DUP1 DUP1 PUSH1 0x1 JUMPDEST PUSH1 0xE DUP2 SGT PUSH2 0x3D71 JUMPI PUSH1 0x1 PUSH1 0x1 PUSH1 0xA0 SHL SUB DUP12 AND PUSH1 0x0 SWAP1 DUP2 MSTORE PUSH1 0x27 PUSH1 0x20 SWAP1 DUP2 MSTORE PUSH1 0x40 DUP1 DUP4 KECCAK256 DUP14 DUP5 MSTORE DUP3 MSTORE DUP1 DUP4 KECCAK256 DUP5 DUP5 MSTORE SWAP1 SWAP2 MSTORE SWAP1 KECCAK256 SLOAD DUP1 ISZERO PUSH2 0x3D5E JUMPI PUSH1 0x0 DUP2 DUP2 MSTORE PUSH1 0x26 PUSH1 0x20 SWAP1 DUP2 MSTORE PUSH1 0x40 SWAP2 DUP3 SWAP1 KECCAK256 DUP3 MLOAD PUSH2 0x160 DUP2 ADD DUP5 MSTORE DUP2 SLOAD DUP2 MSTORE PUSH1 0x1 DUP3 ADD SLOAD SWAP3 DUP2 ADD DUP4 SWAP1 MSTORE PUSH1 0x2 DUP3 ADD SLOAD SWAP4 DUP2 ADD SWAP4 SWAP1 SWAP4 MSTORE PUSH1 0x3 DUP2 ADD SLOAD PUSH1 0x60 DUP5 ADD MSTORE PUSH1 0x4 DUP2 ADD SLOAD PUSH1 0x80 DUP5 ADD MSTORE PUSH1 0x5 DUP2 ADD SLOAD PUSH1 0xA0 DUP5 ADD MSTORE PUSH1 0x6 DUP2 ADD SLOAD PUSH1 0xC0 DUP5 ADD MSTORE PUSH1 0x7 DUP2 ADD SLOAD PUSH1 0xE0 DUP5 ADD MSTORE PUSH1 0x8 DUP2 ADD SLOAD PUSH2 0x100 DUP5 ADD MSTORE PUSH1 0x9 DUP2 ADD SLOAD PUSH2 0x120 DUP5 ADD MSTORE PUSH1 0xA ADD SLOAD PUSH2 0x140 DUP4 ADD MSTORE PUSH2 0x3CFD SWAP1 DUP12 SWAP1 PUSH2 0x4FD1 JUMP JUMPDEST PUSH2 0x3D07 SWAP1 DUP11 PUSH2 0x4DA6 JUMP JUMPDEST SWAP9 POP DUP1 PUSH1 0xA0 ADD MLOAD DUP9 PUSH2 0x3D19 SWAP2 SWAP1 PUSH2 0x52B7 JUMP JUMPDEST SWAP8 POP DUP1 PUSH1 0xC0 ADD MLOAD DUP8 PUSH2 0x3D2B SWAP2 SWAP1 PUSH2 0x52B7 JUMP JUMPDEST SWAP7 POP DUP1 PUSH1 0xE0 ADD MLOAD DUP7 PUSH2 0x3D3D SWAP2 SWAP1 PUSH2 0x52B7 JUMP JUMPDEST SWAP6 POP DUP1 PUSH2 0x100 ADD MLOAD DUP6 PUSH2 0x3D50 SWAP2 SWAP1 PUSH2 0x52B7 JUMP JUMPDEST SWAP5 POP DUP1 PUSH2 0x120 ADD MLOAD DUP5 OR SWAP4 POP POP JUMPDEST POP DUP1 PUSH2 0x3D69 DUP2 PUSH2 0x4DBE JUMP JUMPDEST SWAP2 POP POP PUSH2 0x3C30 JUMP JUMPDEST POP PUSH1 0x40 DUP1 MLOAD PUSH1 0xC0 DUP2 ADD DUP3 MSTORE DUP8 DUP2 MSTORE PUSH1 0x20 DUP2 ADD DUP8 SWAP1 MSTORE DUP1 DUP3 ADD DUP7 SWAP1 MSTORE PUSH1 0x60 DUP2 ADD DUP6 SWAP1 MSTORE PUSH1 0x80 DUP2 ADD DUP5 SWAP1 MSTORE PUSH1 0xA0 DUP2 ADD DUP4 SWAP1 MSTORE SWAP1 MLOAD PUSH4 0x4BC43A5 PUSH1 0xE0 SHL DUP2 MSTORE PUSH1 0x1 PUSH1 0x1 PUSH1 0xA0 SHL SUB DUP13 AND SWAP1 PUSH4 0x4BC43A5 SWAP1 PUSH2 0x3E14 SWAP1 DUP14 SWAP1 DUP6 SWAP1 PUSH1 0x4 ADD PUSH1 0x0 PUSH1 0xE0 DUP3 ADD SWAP1 POP DUP4 DUP3 MSTORE DUP3 MLOAD PUSH1 0x20 DUP4 ADD MSTORE PUSH1 0x20 DUP4 ADD MLOAD PUSH1 0x40 DUP4 ADD MSTORE PUSH1 0x40 DUP4 ADD MLOAD PUSH1 0x60 DUP4 ADD MSTORE PUSH1 0x60 DUP4 ADD MLOAD PUSH1 0x80 DUP4 ADD MSTORE PUSH1 0x80 DUP4 ADD MLOAD PUSH1 0xA0 DUP4 ADD MSTORE PUSH1 0xA0 DUP4 ADD MLOAD PUSH1 0xC0 DUP4 ADD MSTORE SWAP4 SWAP3 POP POP POP JUMP JUMPDEST PUSH1 0x0 PUSH1 0x40 MLOAD DUP1 DUP4 SUB DUP2 PUSH1 0x0 DUP8 DUP1 EXTCODESIZE ISZERO DUP1 ISZERO PUSH2 0x3E2E JUMPI PUSH1 0x0 DUP1 REVERT JUMPDEST POP GAS CALL ISZERO DUP1 ISZERO PUSH2 0x3E42 JUMPI RETURNDATASIZE PUSH1 0x0 DUP1 RETURNDATACOPY RETURNDATASIZE PUSH1 0x0 REVERT JUMPDEST POP SWAP3 SWAP14 SWAP13 POP POP POP POP POP POP POP POP POP POP POP POP POP JUMP JUMPDEST PUSH1 0x60 DUP2 PUSH1 0x0 SUB PUSH2 0x3E7C JUMPI POP POP PUSH1 0x40 DUP1 MLOAD DUP1 DUP3 ADD SWAP1 SWAP2 MSTORE PUSH1 0x1 DUP2 MSTORE PUSH1 0x3 PUSH1 0xFC SHL PUSH1 0x20 DUP3 ADD MSTORE SWAP1 JUMP JUMPDEST DUP2 PUSH1 0x0 JUMPDEST DUP2 ISZERO PUSH2 0x3EA6 JUMPI DUP1 PUSH2 0x3E90 DUP2 PUSH2 0x4F8D JUMP JUMPDEST SWAP2 POP PUSH2 0x3E9F SWAP1 POP PUSH1 0xA DUP4 PUSH2 0x5006 JUMP JUMPDEST SWAP2 POP PUSH2 0x3E80 JUMP JUMPDEST PUSH1 0x0 DUP2 PUSH1 0x1 PUSH1 0x1 PUSH1 0x40 SHL SUB DUP2 GT ISZERO PUSH2 0x3EC0 JUMPI PUSH2 0x3EC0 PUSH2 0x4771 JUMP JUMPDEST PUSH1 0x40 MLOAD SWAP1 DUP1 DUP3 MSTORE DUP1 PUSH1 0x1F ADD PUSH1 0x1F NOT AND PUSH1 0x20 ADD DUP3 ADD PUSH1 0x40 MSTORE DUP1 ISZERO PUSH2 0x3EEA JUMPI PUSH1 0x20 DUP3 ADD DUP2 DUP1 CALLDATASIZE DUP4 CALLDATACOPY ADD SWAP1 POP JUMPDEST POP SWAP1 POP JUMPDEST DUP5 ISZERO PUSH2 0x32D0 JUMPI PUSH2 0x3EFF PUSH1 0x1 DUP4 PUSH2 0x4EE6 JUMP JUMPDEST SWAP2 POP PUSH2 0x3F0C PUSH1 0xA DUP7 PUSH2 0x52F8 JUMP JUMPDEST PUSH2 0x3F17 SWAP1 PUSH1 0x30 PUSH2 0x4DA6 JUMP JUMPDEST PUSH1 0xF8 SHL DUP2 DUP4 DUP2 MLOAD DUP2 LT PUSH2 0x3F2C JUMPI PUSH2 0x3F2C PUSH2 0x4F77 JUMP JUMPDEST PUSH1 0x20 ADD ADD SWAP1 PUSH1 0x1 PUSH1 0x1 PUSH1 0xF8 SHL SUB NOT AND SWAP1 DUP2 PUSH1 0x0 BYTE SWAP1 MSTORE8 POP PUSH2 0x3F4E PUSH1 0xA DUP7 PUSH2 0x5006 JUMP JUMPDEST SWAP5 POP PUSH2 0x3EEE JUMP JUMPDEST PUSH1 0x0 PUSH1 0x40 MLOAD DUP1 PUSH1 0x80 ADD PUSH1 0x40 MSTORE DUP1 PUSH1 0x43 DUP2 MSTORE PUSH1 0x20 ADD PUSH2 0x5390 PUSH1 0x43 SWAP2 CODECOPY DUP1 MLOAD PUSH1 0x20 SWAP2 DUP3 ADD KECCAK256 DUP4 MLOAD DUP5 DUP4 ADD MLOAD PUSH1 0x40 DUP1 DUP8 ADD MLOAD DUP1 MLOAD SWAP1 DUP7 ADD KECCAK256 SWAP1 MLOAD PUSH2 0x3FB5 SWAP6 ADD SWAP4 DUP5 MSTORE PUSH1 0x20 DUP5 ADD SWAP3 SWAP1 SWAP3 MSTORE PUSH1 0x1 PUSH1 0x1 PUSH1 0xA0 SHL SUB AND PUSH1 0x40 DUP4 ADD MSTORE PUSH1 0x60 DUP3 ADD MSTORE PUSH1 0x80 ADD SWAP1 JUMP JUMPDEST PUSH1 0x40 MLOAD PUSH1 0x20 DUP2 DUP4 SUB SUB DUP2 MSTORE SWAP1 PUSH1 0x40 MSTORE DUP1 MLOAD SWAP1 PUSH1 0x20 ADD KECCAK256 SWAP1 POP SWAP2 SWAP1 POP JUMP JUMPDEST PUSH1 0x0 PUSH2 0x3FDD PUSH1 0xB SLOAD SWAP1 JUMP JUMPDEST PUSH1 0x40 MLOAD PUSH2 0x1901 PUSH1 0xF0 SHL PUSH1 0x20 DUP3 ADD MSTORE PUSH1 0x22 DUP2 ADD SWAP2 SWAP1 SWAP2 MSTORE PUSH1 0x42 DUP2 ADD DUP4 SWAP1 MSTORE PUSH1 0x62 ADD PUSH2 0x3FB5 JUMP JUMPDEST PUSH1 0x0 PUSH2 0x4057 DUP3 PUSH1 0x40 MLOAD DUP1 PUSH1 0x40 ADD PUSH1 0x40 MSTORE DUP1 PUSH1 0x20 DUP2 MSTORE PUSH1 0x20 ADD PUSH32 0x5361666545524332303A206C6F772D6C6576656C2063616C6C206661696C6564 DUP2 MSTORE POP DUP6 PUSH1 0x1 PUSH1 0x1 PUSH1 0xA0 SHL SUB AND PUSH2 0x4291 SWAP1 SWAP3 SWAP2 SWAP1 PUSH4 0xFFFFFFFF AND JUMP JUMPDEST DUP1 MLOAD SWAP1 SWAP2 POP ISZERO PUSH2 0x116D JUMPI DUP1 DUP1 PUSH1 0x20 ADD SWAP1 MLOAD DUP2 ADD SWAP1 PUSH2 0x4075 SWAP2 SWAP1 PUSH2 0x530C JUMP JUMPDEST PUSH2 0x116D JUMPI PUSH1 0x40 MLOAD PUSH3 0x461BCD PUSH1 0xE5 SHL DUP2 MSTORE PUSH1 0x20 PUSH1 0x4 DUP3 ADD MSTORE PUSH1 0x2A PUSH1 0x24 DUP3 ADD MSTORE PUSH32 0x5361666545524332303A204552433230206F7065726174696F6E20646964206E PUSH1 0x44 DUP3 ADD MSTORE PUSH10 0x1BDD081CDD58D8D95959 PUSH1 0xB2 SHL PUSH1 0x64 DUP3 ADD MSTORE PUSH1 0x84 ADD PUSH2 0x102B JUMP JUMPDEST PUSH1 0x1 PUSH1 0x1 PUSH1 0xA0 SHL SUB DUP4 AND PUSH2 0x412F JUMPI PUSH2 0x412A DUP2 PUSH1 0x8 DUP1 SLOAD PUSH1 0x0 DUP4 DUP2 MSTORE PUSH1 0x9 PUSH1 0x20 MSTORE PUSH1 0x40 DUP2 KECCAK256 DUP3 SWAP1 SSTORE PUSH1 0x1 DUP3 ADD DUP4 SSTORE SWAP2 SWAP1 SWAP2 MSTORE PUSH32 0xF3F7A9FE364FAAB93B216DA50A3214154F22A0A2B415B23A84C8169E8B636EE3 ADD SSTORE JUMP JUMPDEST PUSH2 0x4152 JUMP JUMPDEST DUP2 PUSH1 0x1 PUSH1 0x1 PUSH1 0xA0 SHL SUB AND DUP4 PUSH1 0x1 PUSH1 0x1 PUSH1 0xA0 SHL SUB AND EQ PUSH2 0x4152 JUMPI PUSH2 0x4152 DUP4 DUP3 PUSH2 0x42A0 JUMP JUMPDEST PUSH1 0x1 PUSH1 0x1 PUSH1 0xA0 SHL SUB DUP3 AND PUSH2 0x4169 JUMPI PUSH2 0x116D DUP2 PUSH2 0x433D JUMP JUMPDEST DUP3 PUSH1 0x1 PUSH1 0x1 PUSH1 0xA0 SHL SUB AND DUP3 PUSH1 0x1 PUSH1 0x1 PUSH1 0xA0 SHL SUB AND EQ PUSH2 0x116D JUMPI PUSH2 0x116D DUP3 DUP3 PUSH2 0x43EC JUMP JUMPDEST PUSH1 0x0 PUSH1 0x1 PUSH1 0x1 PUSH1 0xA0 SHL SUB DUP5 AND EXTCODESIZE ISZERO PUSH2 0x4289 JUMPI DUP4 PUSH1 0x1 PUSH1 0x1 PUSH1 0xA0 SHL SUB AND PUSH4 0x150B7A02 PUSH2 0x41B5 PUSH2 0x33A1 JUMP JUMPDEST DUP8 DUP7 DUP7 PUSH1 0x40 MLOAD DUP6 PUSH4 0xFFFFFFFF AND PUSH1 0xE0 SHL DUP2 MSTORE PUSH1 0x4 ADD PUSH2 0x41D7 SWAP5 SWAP4 SWAP3 SWAP2 SWAP1 PUSH2 0x5329 JUMP JUMPDEST PUSH1 0x20 PUSH1 0x40 MLOAD DUP1 DUP4 SUB DUP2 PUSH1 0x0 DUP8 GAS CALL SWAP3 POP POP POP DUP1 ISZERO PUSH2 0x4212 JUMPI POP PUSH1 0x40 DUP1 MLOAD PUSH1 0x1F RETURNDATASIZE SWAP1 DUP2 ADD PUSH1 0x1F NOT AND DUP3 ADD SWAP1 SWAP3 MSTORE PUSH2 0x420F SWAP2 DUP2 ADD SWAP1 PUSH2 0x535C JUMP JUMPDEST PUSH1 0x1 JUMPDEST PUSH2 0x426F JUMPI RETURNDATASIZE DUP1 DUP1 ISZERO PUSH2 0x4240 JUMPI PUSH1 0x40 MLOAD SWAP2 POP PUSH1 0x1F NOT PUSH1 0x3F RETURNDATASIZE ADD AND DUP3 ADD PUSH1 0x40 MSTORE RETURNDATASIZE DUP3 MSTORE RETURNDATASIZE PUSH1 0x0 PUSH1 0x20 DUP5 ADD RETURNDATACOPY PUSH2 0x4245 JUMP JUMPDEST PUSH1 0x60 SWAP2 POP JUMPDEST POP DUP1 MLOAD PUSH1 0x0 SUB PUSH2 0x4267 JUMPI PUSH1 0x40 MLOAD PUSH3 0x461BCD PUSH1 0xE5 SHL DUP2 MSTORE PUSH1 0x4 ADD PUSH2 0x102B SWAP1 PUSH2 0x5265 JUMP JUMPDEST DUP1 MLOAD DUP2 PUSH1 0x20 ADD REVERT JUMPDEST PUSH1 0x1 PUSH1 0x1 PUSH1 0xE0 SHL SUB NOT AND PUSH4 0xA85BD01 PUSH1 0xE1 SHL EQ SWAP1 POP PUSH2 0x32D0 JUMP JUMPDEST POP PUSH1 0x1 PUSH2 0x32D0 JUMP JUMPDEST PUSH1 0x60 PUSH2 0x32D0 DUP5 DUP5 PUSH1 0x0 DUP6 PUSH2 0x4430 JUMP JUMPDEST PUSH1 0x0 PUSH1 0x1 PUSH2 0x42AD DUP5 PUSH2 0x1E4C JUMP JUMPDEST PUSH2 0x42B7 SWAP2 SWAP1 PUSH2 0x4EE6 JUMP JUMPDEST PUSH1 0x0 DUP4 DUP2 MSTORE PUSH1 0x7 PUSH1 0x20 MSTORE PUSH1 0x40 SWAP1 KECCAK256 SLOAD SWAP1 SWAP2 POP DUP1 DUP3 EQ PUSH2 0x430A JUMPI PUSH1 0x1 PUSH1 0x1 PUSH1 0xA0 SHL SUB DUP5 AND PUSH1 0x0 SWAP1 DUP2 MSTORE PUSH1 0x6 PUSH1 0x20 SWAP1 DUP2 MSTORE PUSH1 0x40 DUP1 DUP4 KECCAK256 DUP6 DUP5 MSTORE DUP3 MSTORE DUP1 DUP4 KECCAK256 SLOAD DUP5 DUP5 MSTORE DUP2 DUP5 KECCAK256 DUP2 SWAP1 SSTORE DUP4 MSTORE PUSH1 0x7 SWAP1 SWAP2 MSTORE SWAP1 KECCAK256 DUP2 SWAP1 SSTORE JUMPDEST POP PUSH1 0x0 SWAP2 DUP3 MSTORE PUSH1 0x7 PUSH1 0x20 SWAP1 DUP2 MSTORE PUSH1 0x40 DUP1 DUP5 KECCAK256 DUP5 SWAP1 SSTORE PUSH1 0x1 PUSH1 0x1 PUSH1 0xA0 SHL SUB SWAP1 SWAP5 AND DUP4 MSTORE PUSH1 0x6 DUP2 MSTORE DUP4 DUP4 KECCAK256 SWAP2 DUP4 MSTORE MSTORE SWAP1 DUP2 KECCAK256 SSTORE JUMP JUMPDEST PUSH1 0x8 SLOAD PUSH1 0x0 SWAP1 PUSH2 0x434F SWAP1 PUSH1 0x1 SWAP1 PUSH2 0x4EE6 JUMP JUMPDEST PUSH1 0x0 DUP4 DUP2 MSTORE PUSH1 0x9 PUSH1 0x20 MSTORE PUSH1 0x40 DUP2 KECCAK256 SLOAD PUSH1 0x8 DUP1 SLOAD SWAP4 SWAP5 POP SWAP1 SWAP3 DUP5 SWAP1 DUP2 LT PUSH2 0x4377 JUMPI PUSH2 0x4377 PUSH2 0x4F77 JUMP JUMPDEST SWAP1 PUSH1 0x0 MSTORE PUSH1 0x20 PUSH1 0x0 KECCAK256 ADD SLOAD SWAP1 POP DUP1 PUSH1 0x8 DUP4 DUP2 SLOAD DUP2 LT PUSH2 0x4398 JUMPI PUSH2 0x4398 PUSH2 0x4F77 JUMP JUMPDEST PUSH1 0x0 SWAP2 DUP3 MSTORE PUSH1 0x20 DUP1 DUP4 KECCAK256 SWAP1 SWAP2 ADD SWAP3 SWAP1 SWAP3 SSTORE DUP3 DUP2 MSTORE PUSH1 0x9 SWAP1 SWAP2 MSTORE PUSH1 0x40 DUP1 DUP3 KECCAK256 DUP5 SWAP1 SSTORE DUP6 DUP3 MSTORE DUP2 KECCAK256 SSTORE PUSH1 0x8 DUP1 SLOAD DUP1 PUSH2 0x43D0 JUMPI PUSH2 0x43D0 PUSH2 0x5379 JUMP JUMPDEST PUSH1 0x1 SWAP1 SUB DUP2 DUP2 SWAP1 PUSH1 0x0 MSTORE PUSH1 0x20 PUSH1 0x0 KECCAK256 ADD PUSH1 0x0 SWAP1 SSTORE SWAP1 SSTORE POP POP POP POP JUMP JUMPDEST PUSH1 0x0 PUSH2 0x43F7 DUP4 PUSH2 0x1E4C JUMP JUMPDEST PUSH1 0x1 PUSH1 0x1 PUSH1 0xA0 SHL SUB SWAP1 SWAP4 AND PUSH1 0x0 SWAP1 DUP2 MSTORE PUSH1 0x6 PUSH1 0x20 SWAP1 DUP2 MSTORE PUSH1 0x40 DUP1 DUP4 KECCAK256 DUP7 DUP5 MSTORE DUP3 MSTORE DUP1 DUP4 KECCAK256 DUP6 SWAP1 SSTORE SWAP4 DUP3 MSTORE PUSH1 0x7 SWAP1 MSTORE SWAP2 SWAP1 SWAP2 KECCAK256 SWAP2 SWAP1 SWAP2 SSTORE POP JUMP JUMPDEST PUSH1 0x60 DUP3 SELFBALANCE LT ISZERO PUSH2 0x4491 JUMPI PUSH1 0x40 MLOAD PUSH3 0x461BCD PUSH1 0xE5 SHL DUP2 MSTORE PUSH1 0x20 PUSH1 0x4 DUP3 ADD MSTORE PUSH1 0x26 PUSH1 0x24 DUP3 ADD MSTORE PUSH32 0x416464726573733A20696E73756666696369656E742062616C616E636520666F PUSH1 0x44 DUP3 ADD MSTORE PUSH6 0x1C8818D85B1B PUSH1 0xD2 SHL PUSH1 0x64 DUP3 ADD MSTORE PUSH1 0x84 ADD PUSH2 0x102B JUMP JUMPDEST DUP5 EXTCODESIZE PUSH2 0x44DF JUMPI PUSH1 0x40 MLOAD PUSH3 0x461BCD PUSH1 0xE5 SHL DUP2 MSTORE PUSH1 0x20 PUSH1 0x4 DUP3 ADD MSTORE PUSH1 0x1D PUSH1 0x24 DUP3 ADD MSTORE PUSH32 0x416464726573733A2063616C6C20746F206E6F6E2D636F6E7472616374000000 PUSH1 0x44 DUP3 ADD MSTORE PUSH1 0x64 ADD PUSH2 0x102B JUMP JUMPDEST PUSH1 0x0 DUP1 DUP7 PUSH1 0x1 PUSH1 0x1 PUSH1 0xA0 SHL SUB AND DUP6 DUP8 PUSH1 0x40 MLOAD PUSH2 0x44FB SWAP2 SWAP1 PUSH2 0x4E7A JUMP JUMPDEST PUSH1 0x0 PUSH1 0x40 MLOAD DUP1 DUP4 SUB DUP2 DUP6 DUP8 GAS CALL SWAP3 POP POP POP RETURNDATASIZE DUP1 PUSH1 0x0 DUP2 EQ PUSH2 0x4538 JUMPI PUSH1 0x40 MLOAD SWAP2 POP PUSH1 0x1F NOT PUSH1 0x3F RETURNDATASIZE ADD AND DUP3 ADD PUSH1 0x40 MSTORE RETURNDATASIZE DUP3 MSTORE RETURNDATASIZE PUSH1 0x0 PUSH1 0x20 DUP5 ADD RETURNDATACOPY PUSH2 0x453D JUMP JUMPDEST PUSH1 0x60 SWAP2 POP JUMPDEST POP SWAP2 POP SWAP2 POP PUSH2 0x454D DUP3 DUP3 DUP7 PUSH2 0x4558 JUMP JUMPDEST SWAP8 SWAP7 POP POP POP POP POP POP POP JUMP JUMPDEST PUSH1 0x60 DUP4 ISZERO PUSH2 0x4567 JUMPI POP DUP2 PUSH2 0x1CF0 JUMP JUMPDEST DUP3 MLOAD ISZERO PUSH2 0x4577 JUMPI DUP3 MLOAD DUP1 DUP5 PUSH1 0x20 ADD REVERT JUMPDEST DUP2 PUSH1 0x40 MLOAD PUSH3 0x461BCD PUSH1 0xE5 SHL DUP2 MSTORE PUSH1 0x4 ADD PUSH2 0x102B SWAP2 SWAP1 PUSH2 0x4745 JUMP JUMPDEST PUSH1 0x40 MLOAD DUP1 PUSH1 0xC0 ADD PUSH1 0x40 MSTORE DUP1 PUSH1 0x0 DUP2 MSTORE PUSH1 0x20 ADD PUSH1 0x0 DUP2 MSTORE PUSH1 0x20 ADD PUSH1 0x0 DUP2 MSTORE PUSH1 0x20 ADD PUSH1 0x0 DUP2 MSTORE PUSH1 0x20 ADD PUSH2 0x45CE PUSH1 0x40 MLOAD DUP1 PUSH1 0x20 ADD PUSH1 0x40 MSTORE DUP1 PUSH1 0x0 DUP2 MSTORE POP SWAP1 JUMP JUMPDEST DUP2 MSTORE PUSH1 0x20 ADD PUSH1 0x0 DUP2 MSTORE POP SWAP1 JUMP JUMPDEST DUP3 DUP1 SLOAD PUSH2 0x45E7 SWAP1 PUSH2 0x4DDD JUMP JUMPDEST SWAP1 PUSH1 0x0 MSTORE PUSH1 0x20 PUSH1 0x0 KECCAK256 SWAP1 PUSH1 0x1F ADD PUSH1 0x20 SWAP1 DIV DUP2 ADD SWAP3 DUP3 PUSH2 0x4609 JUMPI PUSH1 0x0 DUP6 SSTORE PUSH2 0x464F JUMP JUMPDEST DUP3 PUSH1 0x1F LT PUSH2 0x4622 JUMPI DUP1 MLOAD PUSH1 0xFF NOT AND DUP4 DUP1 ADD OR DUP6 SSTORE PUSH2 0x464F JUMP JUMPDEST DUP3 DUP1 ADD PUSH1 0x1 ADD DUP6 SSTORE DUP3 ISZERO PUSH2 0x464F JUMPI SWAP2 DUP3 ADD JUMPDEST DUP3 DUP2 GT ISZERO PUSH2 0x464F JUMPI DUP3 MLOAD DUP3 SSTORE SWAP2 PUSH1 0x20 ADD SWAP2 SWAP1 PUSH1 0x1 ADD SWAP1 PUSH2 0x4634 JUMP JUMPDEST POP PUSH2 0x465B SWAP3 SWAP2 POP PUSH2 0x465F JUMP JUMPDEST POP SWAP1 JUMP JUMPDEST JUMPDEST DUP1 DUP3 GT ISZERO PUSH2 0x465B JUMPI PUSH1 0x0 DUP2 SSTORE PUSH1 0x1 ADD PUSH2 0x4660 JUMP JUMPDEST PUSH1 0x1 PUSH1 0x1 PUSH1 0xE0 SHL SUB NOT DUP2 AND DUP2 EQ PUSH2 0x17DA JUMPI PUSH1 0x0 DUP1 REVERT JUMPDEST PUSH1 0x0 PUSH1 0x20 DUP3 DUP5 SUB SLT ISZERO PUSH2 0x469C JUMPI PUSH1 0x0 DUP1 REVERT JUMPDEST DUP2 CALLDATALOAD PUSH2 0x1CF0 DUP2 PUSH2 0x4674 JUMP JUMPDEST DUP1 CALLDATALOAD PUSH1 0x1 PUSH1 0x1 PUSH1 0xA0 SHL SUB DUP2 AND DUP2 EQ PUSH2 0x46BE JUMPI PUSH1 0x0 DUP1 REVERT JUMPDEST SWAP2 SWAP1 POP JUMP JUMPDEST PUSH1 0x0 DUP1 PUSH1 0x40 DUP4 DUP6 SUB SLT ISZERO PUSH2 0x46D6 JUMPI PUSH1 0x0 DUP1 REVERT JUMPDEST PUSH2 0x46DF DUP4 PUSH2 0x46A7 JUMP JUMPDEST SWAP5 PUSH1 0x20 SWAP4 SWAP1 SWAP4 ADD CALLDATALOAD SWAP4 POP POP POP JUMP JUMPDEST PUSH1 0x0 JUMPDEST DUP4 DUP2 LT ISZERO PUSH2 0x4708 JUMPI DUP2 DUP2 ADD MLOAD DUP4 DUP3 ADD MSTORE PUSH1 0x20 ADD PUSH2 0x46F0 JUMP JUMPDEST DUP4 DUP2 GT ISZERO PUSH2 0x277E JUMPI POP POP PUSH1 0x0 SWAP2 ADD MSTORE JUMP JUMPDEST PUSH1 0x0 DUP2 MLOAD DUP1 DUP5 MSTORE PUSH2 0x4731 DUP2 PUSH1 0x20 DUP7 ADD PUSH1 0x20 DUP7 ADD PUSH2 0x46ED JUMP JUMPDEST PUSH1 0x1F ADD PUSH1 0x1F NOT AND SWAP3 SWAP1 SWAP3 ADD PUSH1 0x20 ADD SWAP3 SWAP2 POP POP JUMP JUMPDEST PUSH1 0x20 DUP2 MSTORE PUSH1 0x0 PUSH2 0x1CF0 PUSH1 0x20 DUP4 ADD DUP5 PUSH2 0x4719 JUMP JUMPDEST PUSH1 0x0 PUSH1 0x20 DUP3 DUP5 SUB SLT ISZERO PUSH2 0x476A JUMPI PUSH1 0x0 DUP1 REVERT JUMPDEST POP CALLDATALOAD SWAP2 SWAP1 POP JUMP JUMPDEST PUSH4 0x4E487B71 PUSH1 0xE0 SHL PUSH1 0x0 MSTORE PUSH1 0x41 PUSH1 0x4 MSTORE PUSH1 0x24 PUSH1 0x0 REVERT JUMPDEST PUSH1 0x40 MLOAD PUSH2 0x160 DUP2 ADD PUSH1 0x1 PUSH1 0x1 PUSH1 0x40 SHL SUB DUP2 GT DUP3 DUP3 LT OR ISZERO PUSH2 0x47AA JUMPI PUSH2 0x47AA PUSH2 0x4771 JUMP JUMPDEST PUSH1 0x40 MSTORE SWAP1 JUMP JUMPDEST PUSH1 0x0 DUP3 PUSH1 0x1F DUP4 ADD SLT PUSH2 0x47C1 JUMPI PUSH1 0x0 DUP1 REVERT JUMPDEST DUP2 CALLDATALOAD PUSH1 0x1 PUSH1 0x1 PUSH1 0x40 SHL SUB DUP1 DUP3 GT ISZERO PUSH2 0x47DB JUMPI PUSH2 0x47DB PUSH2 0x4771 JUMP JUMPDEST PUSH1 0x40 MLOAD PUSH1 0x1F DUP4 ADD PUSH1 0x1F NOT SWAP1 DUP2 AND PUSH1 0x3F ADD AND DUP2 ADD SWAP1 DUP3 DUP3 GT DUP2 DUP4 LT OR ISZERO PUSH2 0x4803 JUMPI PUSH2 0x4803 PUSH2 0x4771 JUMP JUMPDEST DUP2 PUSH1 0x40 MSTORE DUP4 DUP2 MSTORE DUP7 PUSH1 0x20 DUP6 DUP9 ADD ADD GT ISZERO PUSH2 0x481C JUMPI PUSH1 0x0 DUP1 REVERT JUMPDEST DUP4 PUSH1 0x20 DUP8 ADD PUSH1 0x20 DUP4 ADD CALLDATACOPY PUSH1 0x0 PUSH1 0x20 DUP6 DUP4 ADD ADD MSTORE DUP1 SWAP5 POP POP POP POP POP SWAP3 SWAP2 POP POP JUMP JUMPDEST PUSH1 0x0 DUP1 PUSH1 0x0 DUP1 PUSH1 0x0 PUSH1 0xA0 DUP7 DUP9 SUB SLT ISZERO PUSH2 0x4854 JUMPI PUSH1 0x0 DUP1 REVERT JUMPDEST PUSH2 0x485D DUP7 PUSH2 0x46A7 JUMP JUMPDEST SWAP5 POP PUSH1 0x20 DUP7 ADD CALLDATALOAD PUSH1 0x1 PUSH1 0x1 PUSH1 0x40 SHL SUB DUP2 GT ISZERO PUSH2 0x4878 JUMPI PUSH1 0x0 DUP1 REVERT JUMPDEST PUSH2 0x4884 DUP9 DUP3 DUP10 ADD PUSH2 0x47B0 JUMP JUMPDEST SWAP5 POP POP PUSH1 0x40 DUP7 ADD CALLDATALOAD SWAP3 POP PUSH1 0x60 DUP7 ADD CALLDATALOAD SWAP2 POP PUSH1 0x80 DUP7 ADD CALLDATALOAD PUSH1 0xFF DUP2 AND DUP2 EQ PUSH2 0x48A9 JUMPI PUSH1 0x0 DUP1 REVERT JUMPDEST DUP1 SWAP2 POP POP SWAP3 SWAP6 POP SWAP3 SWAP6 SWAP1 SWAP4 POP JUMP JUMPDEST PUSH1 0x0 DUP1 PUSH1 0x0 DUP1 PUSH1 0x0 PUSH1 0x80 DUP7 DUP9 SUB SLT ISZERO PUSH2 0x48CF JUMPI PUSH1 0x0 DUP1 REVERT JUMPDEST PUSH2 0x48D8 DUP7 PUSH2 0x46A7 JUMP JUMPDEST SWAP5 POP PUSH2 0x48E6 PUSH1 0x20 DUP8 ADD PUSH2 0x46A7 JUMP JUMPDEST SWAP4 POP PUSH1 0x40 DUP7 ADD CALLDATALOAD SWAP3 POP PUSH1 0x60 DUP7 ADD CALLDATALOAD PUSH1 0x1 PUSH1 0x1 PUSH1 0x40 SHL SUB DUP1 DUP3 GT ISZERO PUSH2 0x4909 JUMPI PUSH1 0x0 DUP1 REVERT JUMPDEST DUP2 DUP9 ADD SWAP2 POP DUP9 PUSH1 0x1F DUP4 ADD SLT PUSH2 0x491D JUMPI PUSH1 0x0 DUP1 REVERT JUMPDEST DUP2 CALLDATALOAD DUP2 DUP2 GT ISZERO PUSH2 0x492C JUMPI PUSH1 0x0 DUP1 REVERT JUMPDEST DUP10 PUSH1 0x20 DUP3 DUP6 ADD ADD GT ISZERO PUSH2 0x493E JUMPI PUSH1 0x0 DUP1 REVERT JUMPDEST SWAP7 SWAP10 SWAP6 SWAP9 POP SWAP4 SWAP7 POP PUSH1 0x20 ADD SWAP5 SWAP4 SWAP3 POP POP POP JUMP JUMPDEST PUSH1 0x0 DUP1 PUSH1 0x0 PUSH1 0x60 DUP5 DUP7 SUB SLT ISZERO PUSH2 0x4966 JUMPI PUSH1 0x0 DUP1 REVERT JUMPDEST POP POP DUP2 CALLDATALOAD SWAP4 PUSH1 0x20 DUP4 ADD CALLDATALOAD SWAP4 POP PUSH1 0x40 SWAP1 SWAP3 ADD CALLDATALOAD SWAP2 SWAP1 POP JUMP JUMPDEST PUSH1 0x0 PUSH1 0x20 DUP3 DUP5 SUB SLT ISZERO PUSH2 0x498F JUMPI PUSH1 0x0 DUP1 REVERT JUMPDEST PUSH2 0x1CF0 DUP3 PUSH2 0x46A7 JUMP JUMPDEST PUSH1 0x0 DUP1 PUSH1 0x0 PUSH1 0x60 DUP5 DUP7 SUB SLT ISZERO PUSH2 0x49AD JUMPI PUSH1 0x0 DUP1 REVERT JUMPDEST PUSH2 0x49B6 DUP5 PUSH2 0x46A7 JUMP JUMPDEST SWAP3 POP PUSH2 0x49C4 PUSH1 0x20 DUP6 ADD PUSH2 0x46A7 JUMP JUMPDEST SWAP2 POP PUSH1 0x40 DUP5 ADD CALLDATALOAD SWAP1 POP SWAP3 POP SWAP3 POP SWAP3 JUMP JUMPDEST PUSH1 0x0 DUP1 PUSH1 0x0 DUP1 PUSH1 0x0 DUP1 PUSH1 0x0 PUSH1 0xE0 DUP9 DUP11 SUB SLT ISZERO PUSH2 0x49EF JUMPI PUSH1 0x0 DUP1 REVERT JUMPDEST PUSH2 0x49F8 DUP9 PUSH2 0x46A7 JUMP JUMPDEST SWAP10 PUSH1 0x20 DUP10 ADD CALLDATALOAD SWAP10 POP PUSH1 0x40 DUP10 ADD CALLDATALOAD SWAP9 PUSH1 0x60 DUP2 ADD CALLDATALOAD SWAP9 POP PUSH1 0x80 DUP2 ADD CALLDATALOAD SWAP8 POP PUSH1 0xA0 DUP2 ADD CALLDATALOAD SWAP7 POP PUSH1 0xC0 ADD CALLDATALOAD SWAP5 POP SWAP3 POP POP POP JUMP JUMPDEST PUSH1 0x0 DUP1 PUSH1 0x40 DUP4 DUP6 SUB SLT ISZERO PUSH2 0x4A3A JUMPI PUSH1 0x0 DUP1 REVERT JUMPDEST POP POP DUP1 CALLDATALOAD SWAP3 PUSH1 0x20 SWAP1 SWAP2 ADD CALLDATALOAD SWAP2 POP JUMP JUMPDEST PUSH1 0x0 DUP1 DUP3 DUP5 SUB PUSH2 0x180 DUP2 SLT ISZERO PUSH2 0x4A5E JUMPI PUSH1 0x0 DUP1 REVERT JUMPDEST DUP4 CALLDATALOAD SWAP3 POP PUSH2 0x160 DUP1 PUSH1 0x1F NOT DUP4 ADD SLT ISZERO PUSH2 0x4A76 JUMPI PUSH1 0x0 DUP1 REVERT JUMPDEST PUSH2 0x4A7E PUSH2 0x4787 JUMP JUMPDEST SWAP2 POP PUSH1 0x20 DUP6 ADD CALLDATALOAD DUP3 MSTORE PUSH1 0x40 DUP6 ADD CALLDATALOAD PUSH1 0x20 DUP4 ADD MSTORE PUSH1 0x60 DUP6 ADD CALLDATALOAD PUSH1 0x40 DUP4 ADD MSTORE PUSH1 0x80 DUP6 ADD CALLDATALOAD PUSH1 0x60 DUP4 ADD MSTORE PUSH1 0xA0 DUP6 ADD CALLDATALOAD PUSH1 0x80 DUP4 ADD MSTORE PUSH1 0xC0 DUP6 ADD CALLDATALOAD PUSH1 0xA0 DUP4 ADD MSTORE PUSH1 0xE0 DUP6 ADD CALLDATALOAD PUSH1 0xC0 DUP4 ADD MSTORE PUSH2 0x100 DUP1 DUP7 ADD CALLDATALOAD PUSH1 0xE0 DUP5 ADD MSTORE PUSH2 0x120 DUP1 DUP8 ADD CALLDATALOAD DUP3 DUP6 ADD MSTORE PUSH2 0x140 SWAP2 POP DUP2 DUP8 ADD CALLDATALOAD DUP2 DUP6 ADD MSTORE POP DUP2 DUP7 ADD CALLDATALOAD DUP2 DUP5 ADD MSTORE POP POP DUP1 SWAP2 POP POP SWAP3 POP SWAP3 SWAP1 POP JUMP JUMPDEST PUSH1 0x0 PUSH1 0x20 DUP3 DUP5 SUB SLT ISZERO PUSH2 0x4B0F JUMPI PUSH1 0x0 DUP1 REVERT JUMPDEST DUP2 CALLDATALOAD PUSH1 0x1 PUSH1 0x1 PUSH1 0x40 SHL SUB DUP2 GT ISZERO PUSH2 0x4B25 JUMPI PUSH1 0x0 DUP1 REVERT JUMPDEST PUSH2 0x32D0 DUP5 DUP3 DUP6 ADD PUSH2 0x47B0 JUMP JUMPDEST DUP1 ISZERO ISZERO DUP2 EQ PUSH2 0x17DA JUMPI PUSH1 0x0 DUP1 REVERT JUMPDEST PUSH1 0x0 DUP1 PUSH1 0x40 DUP4 DUP6 SUB SLT ISZERO PUSH2 0x4B52 JUMPI PUSH1 0x0 DUP1 REVERT JUMPDEST PUSH2 0x4B5B DUP4 PUSH2 0x46A7 JUMP JUMPDEST SWAP2 POP PUSH1 0x20 DUP4 ADD CALLDATALOAD PUSH2 0x4B6B DUP2 PUSH2 0x4B31 JUMP JUMPDEST DUP1 SWAP2 POP POP SWAP3 POP SWAP3 SWAP1 POP JUMP JUMPDEST PUSH1 0x0 PUSH1 0x20 DUP3 DUP5 SUB SLT ISZERO PUSH2 0x4B88 JUMPI PUSH1 0x0 DUP1 REVERT JUMPDEST DUP2 CALLDATALOAD PUSH2 0x1CF0 DUP2 PUSH2 0x4B31 JUMP JUMPDEST PUSH1 0x0 DUP1 PUSH1 0x0 PUSH1 0x60 DUP5 DUP7 SUB SLT ISZERO PUSH2 0x4BA8 JUMPI PUSH1 0x0 DUP1 REVERT JUMPDEST PUSH2 0x4BB1 DUP5 PUSH2 0x46A7 JUMP JUMPDEST SWAP6 PUSH1 0x20 DUP6 ADD CALLDATALOAD SWAP6 POP PUSH1 0x40 SWAP1 SWAP5 ADD CALLDATALOAD SWAP4 SWAP3 POP POP POP JUMP JUMPDEST PUSH1 0x0 DUP1 PUSH1 0x0 DUP1 PUSH1 0x80 DUP6 DUP8 SUB SLT ISZERO PUSH2 0x4BDC JUMPI PUSH1 0x0 DUP1 REVERT JUMPDEST PUSH2 0x4BE5 DUP6 PUSH2 0x46A7 JUMP JUMPDEST SWAP4 POP PUSH2 0x4BF3 PUSH1 0x20 DUP7 ADD PUSH2 0x46A7 JUMP JUMPDEST SWAP4 SWAP7 SWAP4 SWAP6 POP POP POP POP PUSH1 0x40 DUP3 ADD CALLDATALOAD SWAP2 PUSH1 0x60 ADD CALLDATALOAD SWAP1 JUMP JUMPDEST PUSH1 0x0 DUP1 PUSH1 0x0 DUP1 PUSH1 0x80 DUP6 DUP8 SUB SLT ISZERO PUSH2 0x4C1E JUMPI PUSH1 0x0 DUP1 REVERT JUMPDEST PUSH2 0x4C27 DUP6 PUSH2 0x46A7 JUMP JUMPDEST SWAP4 POP PUSH2 0x4C35 PUSH1 0x20 DUP7 ADD PUSH2 0x46A7 JUMP JUMPDEST SWAP3 POP PUSH1 0x40 DUP6 ADD CALLDATALOAD SWAP2 POP PUSH1 0x60 DUP6 ADD CALLDATALOAD PUSH1 0x1 PUSH1 0x1 PUSH1 0x40 SHL SUB DUP2 GT ISZERO PUSH2 0x4C57 JUMPI PUSH1 0x0 DUP1 REVERT JUMPDEST PUSH2 0x4C63 DUP8 DUP3 DUP9 ADD PUSH2 0x47B0 JUMP JUMPDEST SWAP2 POP POP SWAP3 SWAP6 SWAP2 SWAP5 POP SWAP3 POP JUMP JUMPDEST PUSH1 0x1 PUSH1 0x1 PUSH1 0xA0 SHL SUB SWAP3 SWAP1 SWAP3 AND DUP3 MSTORE PUSH1 0x20 DUP3 ADD MSTORE PUSH1 0x40 ADD SWAP1 JUMP JUMPDEST PUSH1 0x0 DUP1 PUSH1 0x0 DUP1 PUSH1 0x0 PUSH1 0xA0 DUP7 DUP9 SUB SLT ISZERO PUSH2 0x4CA0 JUMPI PUSH1 0x0 DUP1 REVERT JUMPDEST PUSH2 0x4CA9 DUP7 PUSH2 0x46A7 JUMP JUMPDEST SWAP8 PUSH1 0x20 DUP8 ADD CALLDATALOAD SWAP8 POP PUSH1 0x40 DUP8 ADD CALLDATALOAD SWAP7 PUSH1 0x60 DUP2 ADD CALLDATALOAD SWAP7 POP PUSH1 0x80 ADD CALLDATALOAD SWAP5 POP SWAP3 POP POP POP JUMP JUMPDEST PUSH1 0x0 DUP1 PUSH1 0x0 PUSH1 0x60 DUP5 DUP7 SUB SLT ISZERO PUSH2 0x4CDF JUMPI PUSH1 0x0 DUP1 REVERT JUMPDEST DUP4 CALLDATALOAD SWAP3 POP PUSH1 0x20 DUP5 ADD CALLDATALOAD SWAP2 POP PUSH1 0x40 DUP5 ADD CALLDATALOAD PUSH1 0x1 PUSH1 0x1 PUSH1 0x40 SHL SUB DUP2 GT ISZERO PUSH2 0x4D03 JUMPI PUSH1 0x0 DUP1 REVERT JUMPDEST PUSH2 0x4D0F DUP7 DUP3 DUP8 ADD PUSH2 0x47B0 JUMP JUMPDEST SWAP2 POP POP SWAP3 POP SWAP3 POP SWAP3 JUMP JUMPDEST PUSH1 0x0 DUP1 PUSH1 0x40 DUP4 DUP6 SUB SLT ISZERO PUSH2 0x4D2C JUMPI PUSH1 0x0 DUP1 REVERT JUMPDEST PUSH2 0x4D35 DUP4 PUSH2 0x46A7 JUMP JUMPDEST SWAP2 POP PUSH2 0x4D43 PUSH1 0x20 DUP5 ADD PUSH2 0x46A7 JUMP JUMPDEST SWAP1 POP SWAP3 POP SWAP3 SWAP1 POP JUMP JUMPDEST PUSH1 0x0 DUP1 PUSH1 0x0 DUP1 PUSH1 0x80 DUP6 DUP8 SUB SLT ISZERO PUSH2 0x4D62 JUMPI PUSH1 0x0 DUP1 REVERT JUMPDEST PUSH2 0x4D6B DUP6 PUSH2 0x46A7 JUMP JUMPDEST SWAP4 POP PUSH1 0x20 DUP6 ADD CALLDATALOAD SWAP3 POP PUSH2 0x4D80 PUSH1 0x40 DUP7 ADD PUSH2 0x46A7 JUMP JUMPDEST SWAP4 SWAP7 SWAP3 SWAP6 POP SWAP3 SWAP4 PUSH1 0x60 ADD CALLDATALOAD SWAP3 POP POP JUMP JUMPDEST PUSH4 0x4E487B71 PUSH1 0xE0 SHL PUSH1 0x0 MSTORE PUSH1 0x11 PUSH1 0x4 MSTORE PUSH1 0x24 PUSH1 0x0 REVERT JUMPDEST PUSH1 0x0 DUP3 NOT DUP3 GT ISZERO PUSH2 0x4DB9 JUMPI PUSH2 0x4DB9 PUSH2 0x4D90 JUMP JUMPDEST POP ADD SWAP1 JUMP JUMPDEST PUSH1 0x0 PUSH1 0x1 PUSH1 0x1 PUSH1 0xFF SHL ADD DUP3 ADD PUSH2 0x4DD6 JUMPI PUSH2 0x4DD6 PUSH2 0x4D90 JUMP JUMPDEST POP PUSH1 0x1 ADD SWAP1 JUMP JUMPDEST PUSH1 0x1 DUP2 DUP2 SHR SWAP1 DUP3 AND DUP1 PUSH2 0x4DF1 JUMPI PUSH1 0x7F DUP3 AND SWAP2 POP JUMPDEST PUSH1 0x20 DUP3 LT DUP2 SUB PUSH2 0x4E11 JUMPI PUSH4 0x4E487B71 PUSH1 0xE0 SHL PUSH1 0x0 MSTORE PUSH1 0x22 PUSH1 0x4 MSTORE PUSH1 0x24 PUSH1 0x0 REVERT JUMPDEST POP SWAP2 SWAP1 POP JUMP JUMPDEST PUSH1 0x1 PUSH1 0x1 PUSH1 0xA0 SHL SUB DUP5 DUP2 AND DUP3 MSTORE DUP4 AND PUSH1 0x20 DUP3 ADD MSTORE PUSH1 0x60 PUSH1 0x40 DUP3 ADD DUP2 SWAP1 MSTORE PUSH1 0x0 SWAP1 PUSH2 0x1355 SWAP1 DUP4 ADD DUP5 PUSH2 0x4719 JUMP JUMPDEST PUSH1 0x0 DUP4 MLOAD PUSH2 0x4E55 DUP2 DUP5 PUSH1 0x20 DUP9 ADD PUSH2 0x46ED JUMP JUMPDEST PUSH1 0x60 SWAP4 SWAP1 SWAP4 SHL PUSH12 0xFFFFFFFFFFFFFFFFFFFFFFFF NOT AND SWAP2 SWAP1 SWAP3 ADD SWAP1 DUP2 MSTORE PUSH1 0x14 ADD SWAP3 SWAP2 POP POP JUMP JUMPDEST PUSH1 0x0 DUP3 MLOAD PUSH2 0x4E8C DUP2 DUP5 PUSH1 0x20 DUP8 ADD PUSH2 0x46ED JUMP JUMPDEST SWAP2 SWAP1 SWAP2 ADD SWAP3 SWAP2 POP POP JUMP JUMPDEST PUSH1 0x20 DUP1 DUP3 MSTORE PUSH1 0x1F SWAP1 DUP3 ADD MSTORE PUSH32 0x5265656E7472616E637947756172643A207265656E7472616E742063616C6C00 PUSH1 0x40 DUP3 ADD MSTORE PUSH1 0x60 ADD SWAP1 JUMP JUMPDEST PUSH1 0x0 PUSH1 0x20 DUP3 DUP5 SUB SLT ISZERO PUSH2 0x4EDF JUMPI PUSH1 0x0 DUP1 REVERT JUMPDEST POP MLOAD SWAP2 SWAP1 POP JUMP JUMPDEST PUSH1 0x0 DUP3 DUP3 LT ISZERO PUSH2 0x4EF8 JUMPI PUSH2 0x4EF8 PUSH2 0x4D90 JUMP JUMPDEST POP SUB SWAP1 JUMP JUMPDEST PUSH1 0x20 DUP1 DUP3 MSTORE PUSH1 0xF SWAP1 DUP3 ADD MSTORE PUSH15 0x496E76616C69642061646472657373 PUSH1 0x88 SHL PUSH1 0x40 DUP3 ADD MSTORE PUSH1 0x60 ADD SWAP1 JUMP JUMPDEST PUSH1 0x20 DUP1 DUP3 MSTORE PUSH1 0x31 SWAP1 DUP3 ADD MSTORE PUSH32 0x4552433732313A207472616E736665722063616C6C6572206973206E6F74206F PUSH1 0x40 DUP3 ADD MSTORE PUSH17 0x1DDB995C881B9BDC88185C1C1C9BDD9959 PUSH1 0x7A SHL PUSH1 0x60 DUP3 ADD MSTORE PUSH1 0x80 ADD SWAP1 JUMP JUMPDEST PUSH4 0x4E487B71 PUSH1 0xE0 SHL PUSH1 0x0 MSTORE PUSH1 0x32 PUSH1 0x4 MSTORE PUSH1 0x24 PUSH1 0x0 REVERT JUMPDEST PUSH1 0x0 PUSH1 0x1 DUP3 ADD PUSH2 0x4DD6 JUMPI PUSH2 0x4DD6 PUSH2 0x4D90 JUMP JUMPDEST PUSH1 0x20 DUP1 DUP3 MSTORE PUSH1 0x18 SWAP1 DUP3 ADD MSTORE PUSH24 0x2CB7BA9031B0B713BA1039B2BA103A34329039BA30BA3997 PUSH1 0x41 SHL PUSH1 0x40 DUP3 ADD MSTORE PUSH1 0x60 ADD SWAP1 JUMP JUMPDEST PUSH1 0x0 DUP2 PUSH1 0x0 NOT DIV DUP4 GT DUP3 ISZERO ISZERO AND ISZERO PUSH2 0x4FEB JUMPI PUSH2 0x4FEB PUSH2 0x4D90 JUMP JUMPDEST POP MUL SWAP1 JUMP JUMPDEST PUSH4 0x4E487B71 PUSH1 0xE0 SHL PUSH1 0x0 MSTORE PUSH1 0x12 PUSH1 0x4 MSTORE PUSH1 0x24 PUSH1 0x0 REVERT JUMPDEST PUSH1 0x0 DUP3 PUSH2 0x5015 JUMPI PUSH2 0x5015 PUSH2 0x4FF0 JUMP JUMPDEST POP DIV SWAP1 JUMP JUMPDEST PUSH1 0x20 DUP1 DUP3 MSTORE DUP2 DUP2 ADD MSTORE PUSH32 0x4F776E61626C653A2063616C6C6572206973206E6F7420746865206F776E6572 PUSH1 0x40 DUP3 ADD MSTORE PUSH1 0x60 ADD SWAP1 JUMP JUMPDEST PUSH1 0x0 PUSH1 0x1 PUSH1 0x1 PUSH1 0xFF SHL SUB DUP2 DUP5 SGT DUP3 DUP5 SGT DUP1 DUP3 AND DUP7 DUP5 DIV DUP7 GT AND ISZERO PUSH2 0x5075 JUMPI PUSH2 0x5075 PUSH2 0x4D90 JUMP JUMPDEST PUSH1 0x1 PUSH1 0xFF SHL PUSH1 0x0 DUP8 SLT DUP3 DUP2 AND DUP8 DUP4 SDIV DUP10 SLT AND ISZERO PUSH2 0x5094 JUMPI PUSH2 0x5094 PUSH2 0x4D90 JUMP JUMPDEST PUSH1 0x0 DUP8 SLT SWAP3 POP DUP8 DUP3 SDIV DUP8 SLT DUP5 DUP5 AND AND ISZERO PUSH2 0x50B0 JUMPI PUSH2 0x50B0 PUSH2 0x4D90 JUMP JUMPDEST DUP8 DUP6 SDIV DUP8 SLT DUP2 DUP5 AND AND ISZERO PUSH2 0x50C6 JUMPI PUSH2 0x50C6 PUSH2 0x4D90 JUMP JUMPDEST POP POP POP SWAP3 SWAP1 SWAP4 MUL SWAP4 SWAP3 POP POP POP JUMP JUMPDEST PUSH1 0x20 DUP1 DUP3 MSTORE PUSH1 0xC SWAP1 DUP3 ADD MSTORE PUSH12 0x20B23237B7399037B7363C97 PUSH1 0xA1 SHL PUSH1 0x40 DUP3 ADD MSTORE PUSH1 0x60 ADD SWAP1 JUMP JUMPDEST PUSH1 0x1 PUSH1 0x1 PUSH1 0xA0 SHL SUB SWAP4 DUP5 AND DUP2 MSTORE SWAP2 SWAP1 SWAP3 AND PUSH1 0x20 DUP3 ADD MSTORE PUSH1 0x40 DUP2 ADD SWAP2 SWAP1 SWAP2 MSTORE PUSH1 0x60 ADD SWAP1 JUMP JUMPDEST PUSH1 0x0 DUP4 MLOAD PUSH2 0x5130 DUP2 DUP5 PUSH1 0x20 DUP9 ADD PUSH2 0x46ED JUMP JUMPDEST DUP4 MLOAD SWAP1 DUP4 ADD SWAP1 PUSH2 0x5144 DUP2 DUP4 PUSH1 0x20 DUP9 ADD PUSH2 0x46ED JUMP JUMPDEST ADD SWAP5 SWAP4 POP POP POP POP JUMP JUMPDEST DUP1 SLOAD PUSH1 0x0 SWAP1 PUSH1 0x1 DUP2 DUP2 SHR SWAP1 DUP1 DUP4 AND DUP1 PUSH2 0x5167 JUMPI PUSH1 0x7F DUP4 AND SWAP3 POP JUMPDEST PUSH1 0x20 DUP1 DUP5 LT DUP3 SUB PUSH2 0x5188 JUMPI PUSH4 0x4E487B71 PUSH1 0xE0 SHL PUSH1 0x0 MSTORE PUSH1 0x22 PUSH1 0x4 MSTORE PUSH1 0x24 PUSH1 0x0 REVERT JUMPDEST DUP2 DUP1 ISZERO PUSH2 0x519C JUMPI PUSH1 0x1 DUP2 EQ PUSH2 0x51AD JUMPI PUSH2 0x51DA JUMP JUMPDEST PUSH1 0xFF NOT DUP7 AND DUP10 MSTORE DUP5 DUP10 ADD SWAP7 POP PUSH2 0x51DA JUMP JUMPDEST PUSH1 0x0 DUP9 DUP2 MSTORE PUSH1 0x20 SWAP1 KECCAK256 PUSH1 0x0 JUMPDEST DUP7 DUP2 LT ISZERO PUSH2 0x51D2 JUMPI DUP2 SLOAD DUP12 DUP3 ADD MSTORE SWAP1 DUP6 ADD SWAP1 DUP4 ADD PUSH2 0x51B9 JUMP JUMPDEST POP POP DUP5 DUP10 ADD SWAP7 POP JUMPDEST POP POP POP POP POP POP SWAP3 SWAP2 POP POP JUMP JUMPDEST PUSH1 0x0 PUSH2 0x51F2 DUP3 DUP5 PUSH2 0x514D JUMP JUMPDEST PUSH7 0x746F6B656E732F PUSH1 0xC8 SHL DUP2 MSTORE PUSH1 0x7 ADD SWAP4 SWAP3 POP POP POP JUMP JUMPDEST PUSH1 0x1 DUP1 PUSH1 0xA0 SHL SUB DUP6 AND DUP2 MSTORE DUP4 PUSH1 0x20 DUP3 ADD MSTORE DUP3 PUSH1 0x40 DUP3 ADD MSTORE PUSH1 0x80 PUSH1 0x60 DUP3 ADD MSTORE PUSH1 0x0 PUSH2 0x5236 PUSH1 0x80 DUP4 ADD DUP5 PUSH2 0x4719 JUMP JUMPDEST SWAP7 SWAP6 POP POP POP POP POP POP JUMP JUMPDEST PUSH1 0x0 PUSH2 0x524C DUP3 DUP5 PUSH2 0x514D JUMP JUMPDEST PUSH9 0x636F6E74726163742F PUSH1 0xB8 SHL DUP2 MSTORE PUSH1 0x9 ADD SWAP4 SWAP3 POP POP POP JUMP JUMPDEST PUSH1 0x20 DUP1 DUP3 MSTORE PUSH1 0x32 SWAP1 DUP3 ADD MSTORE PUSH32 0x4552433732313A207472616E7366657220746F206E6F6E204552433732315265 PUSH1 0x40 DUP3 ADD MSTORE PUSH18 0x31B2B4BB32B91034B6B83632B6B2B73A32B9 PUSH1 0x71 SHL PUSH1 0x60 DUP3 ADD MSTORE PUSH1 0x80 ADD SWAP1 JUMP JUMPDEST PUSH1 0x0 DUP1 DUP3 SLT DUP1 ISZERO PUSH1 0x1 PUSH1 0x1 PUSH1 0xFF SHL SUB DUP5 SWAP1 SUB DUP6 SGT AND ISZERO PUSH2 0x52D9 JUMPI PUSH2 0x52D9 PUSH2 0x4D90 JUMP JUMPDEST PUSH1 0x1 PUSH1 0xFF SHL DUP4 SWAP1 SUB DUP5 SLT DUP2 AND ISZERO PUSH2 0x52F2 JUMPI PUSH2 0x52F2 PUSH2 0x4D90 JUMP JUMPDEST POP POP ADD SWAP1 JUMP JUMPDEST PUSH1 0x0 DUP3 PUSH2 0x5307 JUMPI PUSH2 0x5307 PUSH2 0x4FF0 JUMP JUMPDEST POP MOD SWAP1 JUMP JUMPDEST PUSH1 0x0 PUSH1 0x20 DUP3 DUP5 SUB SLT ISZERO PUSH2 0x531E JUMPI PUSH1 0x0 DUP1 REVERT JUMPDEST DUP2 MLOAD PUSH2 0x1CF0 DUP2 PUSH2 0x4B31 JUMP JUMPDEST PUSH1 0x1 PUSH1 0x1 PUSH1 0xA0 SHL SUB DUP6 DUP2 AND DUP3 MSTORE DUP5 AND PUSH1 0x20 DUP3 ADD MSTORE PUSH1 0x40 DUP2 ADD DUP4 SWAP1 MSTORE PUSH1 0x80 PUSH1 0x60 DUP3 ADD DUP2 SWAP1 MSTORE PUSH1 0x0 SWAP1 PUSH2 0x5236 SWAP1 DUP4 ADD DUP5 PUSH2 0x4719 JUMP JUMPDEST PUSH1 0x0 PUSH1 0x20 DUP3 DUP5 SUB SLT ISZERO PUSH2 0x536E JUMPI PUSH1 0x0 DUP1 REVERT JUMPDEST DUP2 MLOAD PUSH2 0x1CF0 DUP2 PUSH2 0x4674 JUMP JUMPDEST PUSH4 0x4E487B71 PUSH1 0xE0 SHL PUSH1 0x0 MSTORE PUSH1 0x31 PUSH1 0x4 MSTORE PUSH1 0x24 PUSH1 0x0 REVERT INVALID 0x4D PUSH6 0x74615472616E PUSH20 0x616374696F6E2875696E74323536206E6F6E6365 0x2C PUSH2 0x6464 PUSH19 0x6573732066726F6D2C62797465732066756E63 PUSH21 0x696F6E5369676E617475726529DDF252AD1BE2C89B PUSH10 0xC2B068FC378DAA952BA7 CALL PUSH4 0xC4A11628 CREATE2 GAS 0x4D CREATE2 0x23 0xB3 0xEF LOG2 PUSH5 0x6970667358 0x22 SLT KECCAK256 0x2D 0xDE 0xD4 DUP5 0xAD 0x1F SWAP4 CREATE2 0xC1 0xAB 0x25 0x1F SWAP15 EQ PUSH26 0x1EA24F4A14FC9743DDAC64490DFD50560B64736F6C634300080E STOP CALLER ",
  "sha1": "5cebb68cea96d8cd362a3ffcf475a9de3d7daa4a",
  "source": "// SPDX-License-Identifier:\tUNLICENSED\n\npragma solidity ^0.8.0;\n\nimport \"./Constants.sol\";\nimport \"./Hero.sol\";\nimport \"./HeroXYZ.sol\";\nimport \"./Base.sol\";\nimport \"./BaseSpells.sol\";\nimport \"./Legion.sol\";\nimport \"./CultureCoin.sol\";\nimport \"./BookTradable.sol\";\nimport \"./LiveTradables.sol\";\nimport \"./send_receive.sol\";\n\nimport \"../openzeppelin-solidity/contracts/token/ERC721/IERC721Receiver.sol\";\n\ncontract MyItems is BookTradable, Receiver, IERC721Receiver, LiveTradables {\t// Each game gets differnt items.\n\tCultureCoin private CC;\n\taddress private baseSpells;\n        BaseSpells private spells;\n\tuint256 basePrice;\n\n\taddress private nbt;\n        mapping(uint256 => uint256) hSpawn;\n        mapping(uint256 => int) slot;\n\n\tmapping(uint256 => HeroItem) private allItems;\t\t// These token ids mapped their data.\n\n\tmapping(address => mapping(uint256 => mapping(int => uint256))) private heroSlots;\n\tmapping(address => mapping(uint256 => HeroTalents)) private talents;\t\t\t// And each hero gets different talents...\n\n\taddress[LEGION_LEGOS] private legionLegos;\n\n    \tconstructor (address _cCA, address _cultureCoin, address _registryAddress, address _baseSpells, address _nbt)\n\t\tBookTradable(\"The Scarab Cycle's Items\", \"TSCI\", _registryAddress, \"https://greatlibrary.io/games/TCS/items/\", true, MAXUINT, MAXUINT, MAXUINT, _cultureCoin, _cCA) {\n\t\tcCA = _cCA;\n\t\tCC = CultureCoin(_cultureCoin);\n\n\t\tnbt = _nbt;\n\n\t\tbaseSpells = _baseSpells;\n                spells = BaseSpells(baseSpells);\n\n\t\tbasePrice = 0;\n\t}\t\n\tfunction itemMint(address _hero, uint256 _hId, address _to, int _slot) public returns(uint256) {\n\t\trequire(isAddon[msg.sender] || msg.sender == cCA, \"You can't make a new items this way.\");\n\n\t\tuint256 newTokenId = _getNextTokenId();\n        \t_mint(_to, newTokenId);\n        \t_incrementTokenId();\n\n\t\thSpawn[newTokenId] = Hero(_hero).getSpawn(_hId);\n\t\tslot[newTokenId] = _slot;\n\n\t\treturn newTokenId;\n\t}\n\tfunction addonApprove(address _addonAddress, address _sender, uint256 _iId) public {\n\t\trequire(isAddon[msg.sender] || msg.sender == cCA, \"You can't approve like that.\");\n\t\t_approve(_addonAddress, _iId);\n\t}\n\tfunction getItemStats(uint256 _iId) public returns(HeroItem memory) {\n\t\trequire(isAddon[msg.sender] || msg.sender == cCA, \"You can't set the stats.\");\n\t\treturn allItems[_iId];\n\t}\n\tfunction setItemStats(uint256 _iId, HeroItem memory _item) public {\n\t\trequire(isAddon[msg.sender] || msg.sender == cCA, \"You can't set the stats.\");\n\t\tallItems[_iId] = _item;\n\t}\n\tfunction getNBT() public view returns(address) {\n\t\treturn nbt;\n\t}\n\tfunction getSpawn(uint256 _hId) public view returns(uint256) {\n                return hSpawn[_hId];\n        }\n\tfunction getCurrentPower(address _hero, uint256 _target, uint _power) public returns(uint) {\n\t\trequire(isAddon[msg.sender] || msg.sender == cCA, \"You lack the power.\");\n\t\tuint basePow = spells.getPowBase(_hero, _target);\n\t\tPowSum memory pow = getPowerItems(_hero, _target, _power);\n\t\tuint maxPower = pow.mana + basePow;\n\t\tHero hero = Hero(_hero);\n\n\t\thero.setMaxPower(_target, maxPower);\t\t\t// This is odd but the way these contracts interact this call from the hero sets state back in the hero...\n\n\t\tint powerShift = spells.getPowerShift(_hero, _target, _power, maxPower);\n\n\t\tif(powerShift < 0) {\n\t\t\tuint downShift = uint(-1 * powerShift);\n\t\t\tif(downShift > _power) {\n\t\t\t\treturn 0;\t\t// Now we at zero tho...\n\t\t\t} else {\n\t\t\t\treturn (_power - downShift) * 1.0 ether / maxPower;\n\t\t\t}\n\t\t} else {\n\t\t\tuint upShift = uint(powerShift);\n\t\t\tuint power = _power + upShift;\n\t\t\tif(power > maxPower) {\n\t\t\t\treturn 1.0 ether;\n\t\t\t} else {\n\t\t\t\treturn power * 1.0 ether / maxPower;\n\t\t\t}\n\t\t}\n\t}\n\tfunction getStats(address _hero, uint256 _target) public returns(Stats memory) {\n\t\tuint intel;\n\t\tuint agi;\n\t\tuint strn;\n\t\tuint256 effects;\n\t\tfor(int i = 1; i <= EQUP_SLOTS; i++) {\n                        uint256 _itemId = heroSlots[_hero][_target][i];\n                        if(_itemId > 0) {\n                                HeroItem memory item = allItems[_itemId];\n                                intel += uint(item.intel);\n\t\t\t\tagi += uint(item.agi);\n\t\t\t\tstrn += uint(item.strn);\n\t\t\t\teffects |= item.effect;\n                        }\n                }\n                return Stats(intel + 1, agi + 1, strn + 1, effects, talents[_hero][_target], FIZZLE_FIRE_WORKS);\n\t}\n\tfunction equipItemFrom(address _owner, address _hero, uint256 _hId, uint256 _iId) public {\n\t\trequire(isAddon[msg.sender] || msg.sender == cCA, \"equipItemFrom\");\n\n\t\tif(_iId > 0) {\n\t\t\t//approve(address(this), _iId);\n\t\t\t//safeTransferFrom(_owner, address(this), _iId);\n\t\t\t_transfer(_owner, address(this), _iId);\n\t\t}\n\n\t\tuint256 _curItemId = heroSlots[_hero][_hId][slot[_iId]];\n\t\tif(_curItemId > 0) {\n\t\t\t//safeTransferFrom(address(this), _owner, _curItemId);\n\t\t\t_transfer(address(this), _owner, _iId);\n\t\t}\n\t\theroSlots[_hero][_hId][slot[_iId]] = _iId;\n\t}\n\tfunction getPowerItems(address _hero, uint256 _target, uint _power) internal returns(PowSum memory) {\n\t\tuint mana;\n\t\tfor(int i = 1; i <= EQUP_SLOTS; i++) {\n\t\t\tuint256 _itemId = heroSlots[_hero][_target][i];\n\t\t\tif(_itemId > 0) {\n                                HeroItem memory item = allItems[_itemId];\n\t\t\t\tmana += uint(item.intel) * spells.getPowerMult(_hero, _target, _power);\n\t\t\t}\n\t\t}\n\t\treturn PowSum(mana);\n\t}\n\tfunction getHPItems(address _hero, uint256 _target) internal returns(HPSummary memory) {\n\t\tuint stamMul = spells.getStamMult(_hero, _target);\n\t\tuint hp;\n\t\tint armor;\n\t\tint fire;\n\t\tint frost;\n\t\tint meta;\n\t\tuint256 effect;\n\n\t\tfor(int i = 1; i <= EQUP_SLOTS; i++) {\n\t\t\tuint256 _itemId = heroSlots[_hero][_target][i];\n\t\t\tif(_itemId > 0) {\n\t\t\t\tHeroItem memory item = allItems[_itemId];\n\t\t\t\thp += uint(item.stam) * stamMul;\n\t\t\t\tarmor += item.armor;\n\t\t\t\tfire += item.fire;\n\t\t\t\tfrost += item.frost;\n\t\t\t\tmeta += item.meta;\n\t\t\t\teffect |= item.effect;\n\t\t\t}\n\t\t}\n\t\tHPSummary memory sum = HPSummary(hp, armor, fire, frost, meta, effect);\n\t\tHero(_hero).setHPSummary(_target, sum);\n\t\treturn sum;\n        }\n\tfunction getHPReal(uint _totalMaxHp, uint256 _targetHp) public view returns(uint256) {\n\t\treturn _totalMaxHp * _targetHp / 1 ether;\n\t}\n\tfunction hpByEffect(address _hero, uint256 _hId, uint256 _target, uint256 _hpBefore, uint256 _hpAfter, int _how, uint256 _effect) public {\n\t\trequire(isAddon[msg.sender] || msg.sender == cCA, \"hpByEffect\");\n\t\tfor(uint i = 0; i < LEGION_LEGOS; i++) {\n                        address legion = legionLegos[i];\n                        if(legion != address(0)) {\n                                Legion(legion).hpByEffect(_hero, _hId, _target, _hpBefore, _hpAfter, _how, _effect);\n                        }\n                }\n\t}\n\tfunction getHPWithAmount(address _hero, uint256 _target, uint256 _targetHp, int _amount, int _amtType) public returns(uint256) {\t// Not a view because we deal with HOT and DOTs here.\n\t\trequire(isAddon[msg.sender] || msg.sender == cCA, \"Please don't.\");\n\t\t//require(_targetHp != 0, \"Take me out...\");\t\t// Turn on for testing if you dont believe you are dead...\n\t\tuint baseHp = spells.getHPBase(_hero, _target);\n\t\tHPSummary memory sum = getHPItems(_hero, _target);\n\t\tuint hpMax = baseHp + sum.hp;\n\t\t//require(hpMax > 1, \"No wusses allowed.\");\n\n\t\tHero(_hero).setMaxHp(_target, hpMax);\n\n\t\tuint damage;\n\t\tuint heals;\n\n\t\tif(_amount > 0) {\n\t\t\theals = uint(_amount);\n\t\t} else {\n\t\t\tdamage = uint(-1 * _amount);\n\t\t}\n\n\t\t// 1, 1, 0, 1 :: interval, curTick, starttime left 0 to force damage now, maxTick\n\t\tScrewdrivers memory _nutsNBolts = Screwdrivers(true, _hero, _target, heals, damage, _amtType, sum.armor, sum.fire, sum.frost, sum.meta, sum.effect, 1,1,0,1);\n\t\tuint hp = getHPReal(hpMax, _targetHp);\n\t\tuint256 targetHp = spells.resolveHP(_hero, _target, hp, _nutsNBolts);\t// Real hp goes in the resolver...\n\n\t\tif(targetHp == 0) { \n\t\t\treturn 0; // They are already dead... didn't survive their dots.\n\t\t} else {\n\t\t\ttargetHp += heals;\n\t\t\tif(damage > targetHp) {\n\t\t\t\ttargetHp = 0;\t\t// Dead now from direct damage.\n\t\t\t} else {\n\t\t\t\ttargetHp -= damage;\t// They survived it.\n\t\t\t}\n\t\t}\n\n\t\tif(targetHp > hpMax) {\n\t\t\ttargetHp = hpMax;\n\t\t}\n\n\t\treturn targetHp * 1 ether / hpMax;\t// Back to percent..\n\t}\n\tfunction onERC721Received(address operator, address from, uint256 tokenId, bytes calldata data) external returns (bytes4) {\n        \treturn 0xf0b9e5ba;\n    \t}\n}\n",
  "sourcePath": "contracts/MyItems.sol",
  "type": "contract"
}