{
  "abi": [
    {
      "inputs": [
        {
          "internalType": "address",
          "name": "_cCA",
          "type": "address"
        },
        {
          "internalType": "address",
          "name": "_cultureCoin",
          "type": "address"
        },
        {
          "internalType": "address",
          "name": "_registryAddress",
          "type": "address"
        },
        {
          "internalType": "address",
          "name": "_baseSpells",
          "type": "address"
        },
        {
          "internalType": "address",
          "name": "_nbt",
          "type": "address"
        }
      ],
      "stateMutability": "nonpayable",
      "type": "constructor"
    },
    {
      "anonymous": false,
      "inputs": [
        {
          "indexed": true,
          "internalType": "address",
          "name": "owner",
          "type": "address"
        },
        {
          "indexed": true,
          "internalType": "address",
          "name": "approved",
          "type": "address"
        },
        {
          "indexed": true,
          "internalType": "uint256",
          "name": "tokenId",
          "type": "uint256"
        }
      ],
      "name": "Approval",
      "type": "event"
    },
    {
      "anonymous": false,
      "inputs": [
        {
          "indexed": true,
          "internalType": "address",
          "name": "owner",
          "type": "address"
        },
        {
          "indexed": true,
          "internalType": "address",
          "name": "operator",
          "type": "address"
        },
        {
          "indexed": false,
          "internalType": "bool",
          "name": "approved",
          "type": "bool"
        }
      ],
      "name": "ApprovalForAll",
      "type": "event"
    },
    {
      "anonymous": false,
      "inputs": [
        {
          "indexed": false,
          "internalType": "address",
          "name": "owner",
          "type": "address"
        },
        {
          "indexed": false,
          "internalType": "uint256",
          "name": "tokenId",
          "type": "uint256"
        },
        {
          "indexed": false,
          "internalType": "uint256",
          "name": "amount",
          "type": "uint256"
        },
        {
          "indexed": false,
          "internalType": "string",
          "name": "reason",
          "type": "string"
        }
      ],
      "name": "GasTokenSpent",
      "type": "event"
    },
    {
      "anonymous": false,
      "inputs": [
        {
          "indexed": false,
          "internalType": "address",
          "name": "userAddress",
          "type": "address"
        },
        {
          "indexed": false,
          "internalType": "address payable",
          "name": "relayerAddress",
          "type": "address"
        },
        {
          "indexed": false,
          "internalType": "bytes",
          "name": "functionSignature",
          "type": "bytes"
        }
      ],
      "name": "MetaTransactionExecuted",
      "type": "event"
    },
    {
      "anonymous": false,
      "inputs": [
        {
          "indexed": true,
          "internalType": "address",
          "name": "previousOwner",
          "type": "address"
        },
        {
          "indexed": true,
          "internalType": "address",
          "name": "newOwner",
          "type": "address"
        }
      ],
      "name": "OwnershipTransferred",
      "type": "event"
    },
    {
      "anonymous": false,
      "inputs": [
        {
          "indexed": true,
          "internalType": "address",
          "name": "from",
          "type": "address"
        },
        {
          "indexed": true,
          "internalType": "address",
          "name": "to",
          "type": "address"
        },
        {
          "indexed": true,
          "internalType": "uint256",
          "name": "tokenId",
          "type": "uint256"
        }
      ],
      "name": "Transfer",
      "type": "event"
    },
    {
      "inputs": [],
      "name": "ERC712_VERSION",
      "outputs": [
        {
          "internalType": "string",
          "name": "",
          "type": "string"
        }
      ],
      "stateMutability": "view",
      "type": "function"
    },
    {
      "inputs": [],
      "name": "_getNextTokenId",
      "outputs": [
        {
          "internalType": "uint256",
          "name": "",
          "type": "uint256"
        }
      ],
      "stateMutability": "view",
      "type": "function"
    },
    {
      "inputs": [],
      "name": "_incrementTokenId",
      "outputs": [],
      "stateMutability": "nonpayable",
      "type": "function"
    },
    {
      "inputs": [
        {
          "internalType": "address",
          "name": "_addonAddress",
          "type": "address"
        },
        {
          "internalType": "address",
          "name": "_sender",
          "type": "address"
        },
        {
          "internalType": "uint256",
          "name": "_iId",
          "type": "uint256"
        }
      ],
      "name": "addonApprove",
      "outputs": [],
      "stateMutability": "nonpayable",
      "type": "function"
    },
    {
      "inputs": [
        {
          "internalType": "uint256",
          "name": "_tokenId",
          "type": "uint256"
        }
      ],
      "name": "addonBurn",
      "outputs": [],
      "stateMutability": "nonpayable",
      "type": "function"
    },
    {
      "inputs": [
        {
          "internalType": "address",
          "name": "_to",
          "type": "address"
        }
      ],
      "name": "addonMintTo",
      "outputs": [
        {
          "internalType": "uint256",
          "name": "",
          "type": "uint256"
        }
      ],
      "stateMutability": "nonpayable",
      "type": "function"
    },
    {
      "inputs": [],
      "name": "addonPay",
      "outputs": [],
      "stateMutability": "payable",
      "type": "function"
    },
    {
      "inputs": [
        {
          "internalType": "address",
          "name": "to",
          "type": "address"
        },
        {
          "internalType": "uint256",
          "name": "tokenId",
          "type": "uint256"
        }
      ],
      "name": "approve",
      "outputs": [],
      "stateMutability": "nonpayable",
      "type": "function"
    },
    {
      "inputs": [
        {
          "internalType": "address",
          "name": "owner",
          "type": "address"
        }
      ],
      "name": "balanceOf",
      "outputs": [
        {
          "internalType": "uint256",
          "name": "",
          "type": "uint256"
        }
      ],
      "stateMutability": "view",
      "type": "function"
    },
    {
      "inputs": [],
      "name": "baseTokenURI",
      "outputs": [
        {
          "internalType": "string",
          "name": "",
          "type": "string"
        }
      ],
      "stateMutability": "view",
      "type": "function"
    },
    {
      "inputs": [
        {
          "internalType": "uint256",
          "name": "tokenId",
          "type": "uint256"
        }
      ],
      "name": "burn",
      "outputs": [],
      "stateMutability": "nonpayable",
      "type": "function"
    },
    {
      "inputs": [
        {
          "internalType": "uint256",
          "name": "_tokenId",
          "type": "uint256"
        },
        {
          "internalType": "uint256",
          "name": "_amount",
          "type": "uint256"
        },
        {
          "internalType": "string",
          "name": "_reason",
          "type": "string"
        }
      ],
      "name": "burnGas",
      "outputs": [],
      "stateMutability": "nonpayable",
      "type": "function"
    },
    {
      "inputs": [],
      "name": "cCA",
      "outputs": [
        {
          "internalType": "address",
          "name": "",
          "type": "address"
        }
      ],
      "stateMutability": "view",
      "type": "function"
    },
    {
      "inputs": [],
      "name": "contractURI",
      "outputs": [
        {
          "internalType": "string",
          "name": "",
          "type": "string"
        }
      ],
      "stateMutability": "view",
      "type": "function"
    },
    {
      "inputs": [
        {
          "internalType": "address",
          "name": "_owner",
          "type": "address"
        },
        {
          "internalType": "address",
          "name": "_hero",
          "type": "address"
        },
        {
          "internalType": "uint256",
          "name": "_hId",
          "type": "uint256"
        },
        {
          "internalType": "uint256",
          "name": "_iId",
          "type": "uint256"
        }
      ],
      "name": "equipItemFrom",
      "outputs": [],
      "stateMutability": "nonpayable",
      "type": "function"
    },
    {
      "inputs": [
        {
          "internalType": "address",
          "name": "userAddress",
          "type": "address"
        },
        {
          "internalType": "bytes",
          "name": "functionSignature",
          "type": "bytes"
        },
        {
          "internalType": "bytes32",
          "name": "sigR",
          "type": "bytes32"
        },
        {
          "internalType": "bytes32",
          "name": "sigS",
          "type": "bytes32"
        },
        {
          "internalType": "uint8",
          "name": "sigV",
          "type": "uint8"
        }
      ],
      "name": "executeMetaTransaction",
      "outputs": [
        {
          "internalType": "bytes",
          "name": "",
          "type": "bytes"
        }
      ],
      "stateMutability": "payable",
      "type": "function"
    },
    {
      "inputs": [
        {
          "internalType": "uint256",
          "name": "_tokenId",
          "type": "uint256"
        },
        {
          "internalType": "uint256",
          "name": "_amount",
          "type": "uint256"
        },
        {
          "internalType": "uint256",
          "name": "_gasRewards",
          "type": "uint256"
        }
      ],
      "name": "fillGasTank",
      "outputs": [],
      "stateMutability": "nonpayable",
      "type": "function"
    },
    {
      "inputs": [
        {
          "internalType": "address",
          "name": "_addon",
          "type": "address"
        }
      ],
      "name": "getAddon",
      "outputs": [
        {
          "internalType": "bool",
          "name": "",
          "type": "bool"
        }
      ],
      "stateMutability": "view",
      "type": "function"
    },
    {
      "inputs": [
        {
          "internalType": "uint256",
          "name": "tokenId",
          "type": "uint256"
        }
      ],
      "name": "getApproved",
      "outputs": [
        {
          "internalType": "address",
          "name": "",
          "type": "address"
        }
      ],
      "stateMutability": "view",
      "type": "function"
    },
    {
      "inputs": [],
      "name": "getChainId",
      "outputs": [
        {
          "internalType": "uint256",
          "name": "",
          "type": "uint256"
        }
      ],
      "stateMutability": "view",
      "type": "function"
    },
    {
      "inputs": [
        {
          "internalType": "address",
          "name": "_hero",
          "type": "address"
        },
        {
          "internalType": "uint256",
          "name": "_target",
          "type": "uint256"
        },
        {
          "internalType": "uint256",
          "name": "_power",
          "type": "uint256"
        }
      ],
      "name": "getCurrentPower",
      "outputs": [
        {
          "internalType": "uint256",
          "name": "",
          "type": "uint256"
        }
      ],
      "stateMutability": "nonpayable",
      "type": "function"
    },
    {
      "inputs": [],
      "name": "getCurrentToken",
      "outputs": [
        {
          "internalType": "uint256",
          "name": "",
          "type": "uint256"
        }
      ],
      "stateMutability": "view",
      "type": "function"
    },
    {
      "inputs": [],
      "name": "getDefaultFrom",
      "outputs": [
        {
          "internalType": "uint256",
          "name": "",
          "type": "uint256"
        }
      ],
      "stateMutability": "view",
      "type": "function"
    },
    {
      "inputs": [],
      "name": "getDefaultPrice",
      "outputs": [
        {
          "internalType": "uint256",
          "name": "",
          "type": "uint256"
        }
      ],
      "stateMutability": "view",
      "type": "function"
    },
    {
      "inputs": [],
      "name": "getDomainSeperator",
      "outputs": [
        {
          "internalType": "bytes32",
          "name": "",
          "type": "bytes32"
        }
      ],
      "stateMutability": "view",
      "type": "function"
    },
    {
      "inputs": [
        {
          "internalType": "uint256",
          "name": "_tokenId",
          "type": "uint256"
        }
      ],
      "name": "getGasRewards",
      "outputs": [
        {
          "internalType": "uint256",
          "name": "",
          "type": "uint256"
        },
        {
          "internalType": "uint256",
          "name": "",
          "type": "uint256"
        }
      ],
      "stateMutability": "view",
      "type": "function"
    },
    {
      "inputs": [],
      "name": "getGasToken",
      "outputs": [
        {
          "internalType": "address",
          "name": "",
          "type": "address"
        }
      ],
      "stateMutability": "view",
      "type": "function"
    },
    {
      "inputs": [
        {
          "internalType": "uint256",
          "name": "_totalMaxHp",
          "type": "uint256"
        },
        {
          "internalType": "uint256",
          "name": "_targetHp",
          "type": "uint256"
        }
      ],
      "name": "getHPReal",
      "outputs": [
        {
          "internalType": "uint256",
          "name": "",
          "type": "uint256"
        }
      ],
      "stateMutability": "view",
      "type": "function"
    },
    {
      "inputs": [
        {
          "internalType": "address",
          "name": "_hero",
          "type": "address"
        },
        {
          "internalType": "uint256",
          "name": "_target",
          "type": "uint256"
        },
        {
          "internalType": "uint256",
          "name": "_targetHp",
          "type": "uint256"
        },
        {
          "internalType": "int256",
          "name": "_amount",
          "type": "int256"
        },
        {
          "internalType": "int256",
          "name": "_amtType",
          "type": "int256"
        }
      ],
      "name": "getHPWithAmount",
      "outputs": [
        {
          "internalType": "uint256",
          "name": "",
          "type": "uint256"
        }
      ],
      "stateMutability": "nonpayable",
      "type": "function"
    },
    {
      "inputs": [
        {
          "internalType": "uint256",
          "name": "_iId",
          "type": "uint256"
        }
      ],
      "name": "getItemStats",
      "outputs": [
        {
          "components": [
            {
              "internalType": "int256",
              "name": "slot",
              "type": "int256"
            },
            {
              "internalType": "int256",
              "name": "stam",
              "type": "int256"
            },
            {
              "internalType": "int256",
              "name": "strn",
              "type": "int256"
            },
            {
              "internalType": "int256",
              "name": "intel",
              "type": "int256"
            },
            {
              "internalType": "int256",
              "name": "agi",
              "type": "int256"
            },
            {
              "internalType": "int256",
              "name": "armor",
              "type": "int256"
            },
            {
              "internalType": "int256",
              "name": "fire",
              "type": "int256"
            },
            {
              "internalType": "int256",
              "name": "frost",
              "type": "int256"
            },
            {
              "internalType": "int256",
              "name": "meta",
              "type": "int256"
            },
            {
              "internalType": "uint256",
              "name": "effect",
              "type": "uint256"
            },
            {
              "internalType": "uint256",
              "name": "level",
              "type": "uint256"
            }
          ],
          "internalType": "struct HeroItem",
          "name": "",
          "type": "tuple"
        }
      ],
      "stateMutability": "nonpayable",
      "type": "function"
    },
    {
      "inputs": [],
      "name": "getNBT",
      "outputs": [
        {
          "internalType": "address",
          "name": "",
          "type": "address"
        }
      ],
      "stateMutability": "view",
      "type": "function"
    },
    {
      "inputs": [
        {
          "internalType": "address",
          "name": "user",
          "type": "address"
        }
      ],
      "name": "getNonce",
      "outputs": [
        {
          "internalType": "uint256",
          "name": "nonce",
          "type": "uint256"
        }
      ],
      "stateMutability": "view",
      "type": "function"
    },
    {
      "inputs": [
        {
          "internalType": "uint256",
          "name": "_tokenId",
          "type": "uint256"
        }
      ],
      "name": "getRewards",
      "outputs": [
        {
          "internalType": "address",
          "name": "",
          "type": "address"
        },
        {
          "internalType": "uint256",
          "name": "",
          "type": "uint256"
        }
      ],
      "stateMutability": "view",
      "type": "function"
    },
    {
      "inputs": [],
      "name": "getRoyalty",
      "outputs": [
        {
          "internalType": "uint256",
          "name": "",
          "type": "uint256"
        }
      ],
      "stateMutability": "view",
      "type": "function"
    },
    {
      "inputs": [
        {
          "internalType": "uint256",
          "name": "_hId",
          "type": "uint256"
        }
      ],
      "name": "getSpawn",
      "outputs": [
        {
          "internalType": "uint256",
          "name": "",
          "type": "uint256"
        }
      ],
      "stateMutability": "view",
      "type": "function"
    },
    {
      "inputs": [
        {
          "internalType": "address",
          "name": "_hero",
          "type": "address"
        },
        {
          "internalType": "uint256",
          "name": "_target",
          "type": "uint256"
        }
      ],
      "name": "getStats",
      "outputs": [
        {
          "components": [
            {
              "internalType": "uint256",
              "name": "intel",
              "type": "uint256"
            },
            {
              "internalType": "uint256",
              "name": "agi",
              "type": "uint256"
            },
            {
              "internalType": "uint256",
              "name": "strn",
              "type": "uint256"
            },
            {
              "internalType": "uint256",
              "name": "effect",
              "type": "uint256"
            },
            {
              "components": [
                {
                  "internalType": "uint256",
                  "name": "talent",
                  "type": "uint256"
                }
              ],
              "internalType": "struct HeroTalents",
              "name": "talent",
              "type": "tuple"
            },
            {
              "internalType": "uint256",
              "name": "fizzle",
              "type": "uint256"
            }
          ],
          "internalType": "struct Stats",
          "name": "",
          "type": "tuple"
        }
      ],
      "stateMutability": "nonpayable",
      "type": "function"
    },
    {
      "inputs": [
        {
          "internalType": "address",
          "name": "_hero",
          "type": "address"
        },
        {
          "internalType": "uint256",
          "name": "_hId",
          "type": "uint256"
        },
        {
          "internalType": "uint256",
          "name": "_target",
          "type": "uint256"
        },
        {
          "internalType": "uint256",
          "name": "_hpBefore",
          "type": "uint256"
        },
        {
          "internalType": "uint256",
          "name": "_hpAfter",
          "type": "uint256"
        },
        {
          "internalType": "int256",
          "name": "_how",
          "type": "int256"
        },
        {
          "internalType": "uint256",
          "name": "_effect",
          "type": "uint256"
        }
      ],
      "name": "hpByEffect",
      "outputs": [],
      "stateMutability": "nonpayable",
      "type": "function"
    },
    {
      "inputs": [
        {
          "internalType": "address",
          "name": "",
          "type": "address"
        }
      ],
      "name": "isAddon",
      "outputs": [
        {
          "internalType": "bool",
          "name": "",
          "type": "bool"
        }
      ],
      "stateMutability": "view",
      "type": "function"
    },
    {
      "inputs": [
        {
          "internalType": "address",
          "name": "owner",
          "type": "address"
        },
        {
          "internalType": "address",
          "name": "operator",
          "type": "address"
        }
      ],
      "name": "isApprovedForAll",
      "outputs": [
        {
          "internalType": "bool",
          "name": "",
          "type": "bool"
        }
      ],
      "stateMutability": "view",
      "type": "function"
    },
    {
      "inputs": [
        {
          "internalType": "address",
          "name": "_hero",
          "type": "address"
        },
        {
          "internalType": "uint256",
          "name": "_hId",
          "type": "uint256"
        },
        {
          "internalType": "address",
          "name": "_to",
          "type": "address"
        },
        {
          "internalType": "int256",
          "name": "_slot",
          "type": "int256"
        }
      ],
      "name": "itemMint",
      "outputs": [
        {
          "internalType": "uint256",
          "name": "",
          "type": "uint256"
        }
      ],
      "stateMutability": "nonpayable",
      "type": "function"
    },
    {
      "inputs": [],
      "name": "maxmint",
      "outputs": [
        {
          "internalType": "uint256",
          "name": "",
          "type": "uint256"
        }
      ],
      "stateMutability": "view",
      "type": "function"
    },
    {
      "inputs": [
        {
          "internalType": "address",
          "name": "_to",
          "type": "address"
        }
      ],
      "name": "mintTo",
      "outputs": [
        {
          "internalType": "uint256",
          "name": "",
          "type": "uint256"
        }
      ],
      "stateMutability": "nonpayable",
      "type": "function"
    },
    {
      "inputs": [],
      "name": "name",
      "outputs": [
        {
          "internalType": "string",
          "name": "",
          "type": "string"
        }
      ],
      "stateMutability": "view",
      "type": "function"
    },
    {
      "inputs": [
        {
          "internalType": "address",
          "name": "operator",
          "type": "address"
        },
        {
          "internalType": "address",
          "name": "from",
          "type": "address"
        },
        {
          "internalType": "uint256",
          "name": "tokenId",
          "type": "uint256"
        },
        {
          "internalType": "bytes",
          "name": "data",
          "type": "bytes"
        }
      ],
      "name": "onERC721Received",
      "outputs": [
        {
          "internalType": "bytes4",
          "name": "",
          "type": "bytes4"
        }
      ],
      "stateMutability": "nonpayable",
      "type": "function"
    },
    {
      "inputs": [],
      "name": "owner",
      "outputs": [
        {
          "internalType": "address",
          "name": "",
          "type": "address"
        }
      ],
      "stateMutability": "view",
      "type": "function"
    },
    {
      "inputs": [
        {
          "internalType": "uint256",
          "name": "tokenId",
          "type": "uint256"
        }
      ],
      "name": "ownerOf",
      "outputs": [
        {
          "internalType": "address",
          "name": "",
          "type": "address"
        }
      ],
      "stateMutability": "view",
      "type": "function"
    },
    {
      "inputs": [],
      "name": "renounceOwnership",
      "outputs": [],
      "stateMutability": "nonpayable",
      "type": "function"
    },
    {
      "inputs": [
        {
          "internalType": "address",
          "name": "from",
          "type": "address"
        },
        {
          "internalType": "address",
          "name": "to",
          "type": "address"
        },
        {
          "internalType": "uint256",
          "name": "tokenId",
          "type": "uint256"
        }
      ],
      "name": "safeTransferFrom",
      "outputs": [],
      "stateMutability": "nonpayable",
      "type": "function"
    },
    {
      "inputs": [
        {
          "internalType": "address",
          "name": "from",
          "type": "address"
        },
        {
          "internalType": "address",
          "name": "to",
          "type": "address"
        },
        {
          "internalType": "uint256",
          "name": "tokenId",
          "type": "uint256"
        },
        {
          "internalType": "bytes",
          "name": "_data",
          "type": "bytes"
        }
      ],
      "name": "safeTransferFrom",
      "outputs": [],
      "stateMutability": "nonpayable",
      "type": "function"
    },
    {
      "inputs": [
        {
          "internalType": "address",
          "name": "from",
          "type": "address"
        },
        {
          "internalType": "address",
          "name": "to",
          "type": "address"
        },
        {
          "internalType": "uint256",
          "name": "tokenId",
          "type": "uint256"
        }
      ],
      "name": "safeTransferFromRegistry",
      "outputs": [],
      "stateMutability": "nonpayable",
      "type": "function"
    },
    {
      "inputs": [
        {
          "internalType": "address",
          "name": "_addon",
          "type": "address"
        },
        {
          "internalType": "bool",
          "name": "_isAddon",
          "type": "bool"
        }
      ],
      "name": "setAddon",
      "outputs": [],
      "stateMutability": "nonpayable",
      "type": "function"
    },
    {
      "inputs": [
        {
          "internalType": "address",
          "name": "operator",
          "type": "address"
        },
        {
          "internalType": "bool",
          "name": "approved",
          "type": "bool"
        }
      ],
      "name": "setApprovalForAll",
      "outputs": [],
      "stateMutability": "nonpayable",
      "type": "function"
    },
    {
      "inputs": [
        {
          "internalType": "string",
          "name": "_baseuri",
          "type": "string"
        }
      ],
      "name": "setBaseURI",
      "outputs": [],
      "stateMutability": "nonpayable",
      "type": "function"
    },
    {
      "inputs": [
        {
          "internalType": "bool",
          "name": "_burnable",
          "type": "bool"
        }
      ],
      "name": "setBurnable",
      "outputs": [],
      "stateMutability": "nonpayable",
      "type": "function"
    },
    {
      "inputs": [
        {
          "internalType": "uint256",
          "name": "_defaultfrom",
          "type": "uint256"
        }
      ],
      "name": "setDefaultFrom",
      "outputs": [],
      "stateMutability": "nonpayable",
      "type": "function"
    },
    {
      "inputs": [
        {
          "internalType": "uint256",
          "name": "_defaultprice",
          "type": "uint256"
        }
      ],
      "name": "setDefaultPrice",
      "outputs": [],
      "stateMutability": "nonpayable",
      "type": "function"
    },
    {
      "inputs": [
        {
          "internalType": "address",
          "name": "_gasToken",
          "type": "address"
        }
      ],
      "name": "setGasToken",
      "outputs": [],
      "stateMutability": "nonpayable",
      "type": "function"
    },
    {
      "inputs": [
        {
          "internalType": "uint256",
          "name": "_iId",
          "type": "uint256"
        },
        {
          "components": [
            {
              "internalType": "int256",
              "name": "slot",
              "type": "int256"
            },
            {
              "internalType": "int256",
              "name": "stam",
              "type": "int256"
            },
            {
              "internalType": "int256",
              "name": "strn",
              "type": "int256"
            },
            {
              "internalType": "int256",
              "name": "intel",
              "type": "int256"
            },
            {
              "internalType": "int256",
              "name": "agi",
              "type": "int256"
            },
            {
              "internalType": "int256",
              "name": "armor",
              "type": "int256"
            },
            {
              "internalType": "int256",
              "name": "fire",
              "type": "int256"
            },
            {
              "internalType": "int256",
              "name": "frost",
              "type": "int256"
            },
            {
              "internalType": "int256",
              "name": "meta",
              "type": "int256"
            },
            {
              "internalType": "uint256",
              "name": "effect",
              "type": "uint256"
            },
            {
              "internalType": "uint256",
              "name": "level",
              "type": "uint256"
            }
          ],
          "internalType": "struct HeroItem",
          "name": "_item",
          "type": "tuple"
        }
      ],
      "name": "setItemStats",
      "outputs": [],
      "stateMutability": "nonpayable",
      "type": "function"
    },
    {
      "inputs": [
        {
          "internalType": "uint256",
          "name": "_maxmint",
          "type": "uint256"
        }
      ],
      "name": "setMaxMint",
      "outputs": [],
      "stateMutability": "nonpayable",
      "type": "function"
    },
    {
      "inputs": [
        {
          "internalType": "address",
          "name": "_rewardContract",
          "type": "address"
        }
      ],
      "name": "setRewardContract",
      "outputs": [],
      "stateMutability": "nonpayable",
      "type": "function"
    },
    {
      "inputs": [
        {
          "internalType": "uint256",
          "name": "_tokenId",
          "type": "uint256"
        },
        {
          "internalType": "uint256",
          "name": "_rewardTokenId",
          "type": "uint256"
        }
      ],
      "name": "setRewardToken",
      "outputs": [],
      "stateMutability": "nonpayable",
      "type": "function"
    },
    {
      "inputs": [
        {
          "internalType": "uint256",
          "name": "_royalty",
          "type": "uint256"
        }
      ],
      "name": "setRoyalty",
      "outputs": [],
      "stateMutability": "nonpayable",
      "type": "function"
    },
    {
      "inputs": [
        {
          "internalType": "bytes4",
          "name": "interfaceId",
          "type": "bytes4"
        }
      ],
      "name": "supportsInterface",
      "outputs": [
        {
          "internalType": "bool",
          "name": "",
          "type": "bool"
        }
      ],
      "stateMutability": "view",
      "type": "function"
    },
    {
      "inputs": [],
      "name": "symbol",
      "outputs": [
        {
          "internalType": "string",
          "name": "",
          "type": "string"
        }
      ],
      "stateMutability": "view",
      "type": "function"
    },
    {
      "inputs": [
        {
          "internalType": "uint256",
          "name": "index",
          "type": "uint256"
        }
      ],
      "name": "tokenByIndex",
      "outputs": [
        {
          "internalType": "uint256",
          "name": "",
          "type": "uint256"
        }
      ],
      "stateMutability": "view",
      "type": "function"
    },
    {
      "inputs": [
        {
          "internalType": "address",
          "name": "owner",
          "type": "address"
        },
        {
          "internalType": "uint256",
          "name": "index",
          "type": "uint256"
        }
      ],
      "name": "tokenOfOwnerByIndex",
      "outputs": [
        {
          "internalType": "uint256",
          "name": "",
          "type": "uint256"
        }
      ],
      "stateMutability": "view",
      "type": "function"
    },
    {
      "inputs": [
        {
          "internalType": "uint256",
          "name": "_tokenId",
          "type": "uint256"
        }
      ],
      "name": "tokenURI",
      "outputs": [
        {
          "internalType": "string",
          "name": "",
          "type": "string"
        }
      ],
      "stateMutability": "view",
      "type": "function"
    },
    {
      "inputs": [],
      "name": "totalSupply",
      "outputs": [
        {
          "internalType": "uint256",
          "name": "",
          "type": "uint256"
        }
      ],
      "stateMutability": "view",
      "type": "function"
    },
    {
      "inputs": [
        {
          "internalType": "address",
          "name": "from",
          "type": "address"
        },
        {
          "internalType": "address",
          "name": "to",
          "type": "address"
        },
        {
          "internalType": "uint256",
          "name": "tokenId",
          "type": "uint256"
        }
      ],
      "name": "transferFrom",
      "outputs": [],
      "stateMutability": "nonpayable",
      "type": "function"
    },
    {
      "inputs": [
        {
          "internalType": "address",
          "name": "newOwner",
          "type": "address"
        }
      ],
      "name": "transferOwnership",
      "outputs": [],
      "stateMutability": "nonpayable",
      "type": "function"
    }
  ],
  "bytecode": "6080604052600a805460ff191690556000600e553480156200002057600080fd5b5060405162005b5038038062005b50833981016040819052620000439162000478565b6040518060400160405280601881526020017f54686520536361726162204379636c652773204974656d730000000000000000815250604051806040016040528060048152602001635453434960e01b8152508460405180606001604052806028815260200162005ad960289139600160001980808b8d8989828583836000620000ce83826200058d565b506001620000dd82826200058d565b5050506000620000f2620002de60201b60201c565b600d80546001600160a01b0319166001600160a01b038316908117909155604051919250906000907f8be0079c531659141344cd1fd0a4f28419497f9722a3daafe3b4186f6b6457e0908290a350601080546001600160a01b0319166001600160a01b0384161790556200016684620002fa565b600f5550506001601155506001600160a01b038116620001cd5760405162461bcd60e51b815260206004820152601560248201527f496e76616c69642061646d696e2061646472657373000000000000000000000060448201526064015b60405180910390fd5b6001600160a01b038216620002195760405162461bcd60e51b815260206004820152601160248201527024b73b30b634b21033b0b9903a37b5b2b760791b6044820152606401620001c4565b601080546001600160a01b0319166001600160a01b03831617905560126200024288826200058d565b50506013805460ff19169515159590951790945560149190915560155550601a80546001600160a01b03199081166001600160a01b039384161790915560056016556010805482169b83169b909b17909a55601f80548b16998216999099179098555050602380548816938716939093179092555050602080548516919093169081179092555060218054909216179055600060225562000659565b6000620002f56200035b60201b620032d21760201c565b905090565b600a5460ff1615620003405760405162461bcd60e51b815260206004820152600e60248201526d185b1c9958591e481a5b9a5d195960921b6044820152606401620001c4565b6200034b81620003b9565b50600a805460ff19166001179055565b6000303303620003b357600080368080601f0160208091040260200160405190810160405280939291908181526020018383808284376000920191909152505050503601516001600160a01b03169150620003b69050565b50335b90565b6040518060800160405280604f815260200162005b01604f9139805160209182012082519282019290922060408051808201825260018152603160f81b90840152805180840194909452838101919091527fc89efdaa54c0f20c7adf612882df0950f5a951637e0307cdcb4c672f298b8bc660608401523060808401524660a0808501919091528151808503909101815260c090930190528151910120600b55565b80516001600160a01b03811681146200047357600080fd5b919050565b600080600080600060a086880312156200049157600080fd5b6200049c866200045b565b9450620004ac602087016200045b565b9350620004bc604087016200045b565b9250620004cc606087016200045b565b9150620004dc608087016200045b565b90509295509295909350565b634e487b7160e01b600052604160045260246000fd5b600181811c908216806200051357607f821691505b6020821081036200053457634e487b7160e01b600052602260045260246000fd5b50919050565b601f8211156200058857600081815260208120601f850160051c81016020861015620005635750805b601f850160051c820191505b8181101562000584578281556001016200056f565b5050505b505050565b81516001600160401b03811115620005a957620005a9620004e8565b620005c181620005ba8454620004fe565b846200053a565b602080601f831160018114620005f95760008415620005e05750858301515b600019600386901b1c1916600185901b17855562000584565b600085815260208120601f198616915b828110156200062a5788860151825594840194600190910190840162000609565b5085821015620006495787850151600019600388901b60f8161c191681555b5050505050600190811b01905550565b61547080620006696000396000f3fe6080604052600436106103855760003560e01c8063596c6325116101d3578063a22cb46511610103578063c87b56dd1161009b578063c87b56dd14610c58578063d547cfb714610c78578063e189977f14610c8d578063e6cda97414610cad578063e8a3d48514610ccd578063e985e9c514610ce2578063ef2d174614610d02578063f2fde38b14610d17578063fae06be614610d3757600080fd5b8063a22cb46514610b24578063a795e19314610b44578063b086613c14610b64578063b3a54f0014610b79578063b88d4fde14610b99578063b9dd657414610bb9578063c0d8012c14610bce578063c43e92b114610c18578063c60e328d14610c3857600080fd5b806380929e5b1161017657806380929e5b146109935780638297f29f146109b357806389a7ea6c146109ec5780638a0de3dd14610a915780638aa80ea514610aaf5780638da5cb5b14610ac55780638dd1983b14610ada57806395d89b4114610afa578063972d1ae214610b0f57600080fd5b8063596c63251461088e5780635febc07a146108be5780636352211e146108de5780636d3c7ec5146108fe5780636d714b681461091e57806370a082311461093e578063715018a61461095e578063755edd171461097357600080fd5b80632d0335ab116102b9578063495057be11610251578063495057be146104a65780634d47732a1461079b5780634d57ca4f146107b05780634f6ccce7146107d057806351508f0a146107f057806351f41ee314610810578063547520fe1461082e578063547b17c61461084e57806355f804b31461086e57600080fd5b80632d0335ab146106655780632f745c591461069b57806333d119eb146106bb5780633408e470146106e8578063343f40df146106fb5780634209a2e11461071b57806342842e0e1461073b57806342966c681461075b5780634409559a1461077b57600080fd5b8063150b7a021161032c578063150b7a021461050857806318160ddd1461054d578063199dc5321461056c5780631b64ab59146105bb5780631e9f8aad146105db57806320379ee5146105fb57806323b872dd1461061057806324d64ca2146106305780632966bef01461064557600080fd5b806301ffc9a71461038a57806303685169146103bf57806306fdde031461042c578063081812fc1461044e578063095ea7b3146104865780630c53c51c146104a85780630f7e5970146104bb578063109f7561146104e8575b600080fd5b34801561039657600080fd5b506103aa6103a53660046145eb565b610d57565b60405190151581526020015b60405180910390f35b3480156103cb57600080fd5b506103df6103da366004614624565b610d82565b6040516103b69190600060c08201905082518252602083015160208301526040830151604083015260608301516060830152608083015151608083015260a083015160a083015292915050565b34801561043857600080fd5b50610441610f31565b6040516103b691906146a6565b34801561045a57600080fd5b5061046e6104693660046146b9565b610fc3565b6040516001600160a01b0390911681526020016103b6565b34801561049257600080fd5b506104a66104a1366004614624565b611050565b005b6104416104b636600461479d565b611172565b3480156104c757600080fd5b50610441604051806040016040528060018152602001603160f81b81525081565b3480156104f457600080fd5b506104a66105033660046146b9565b61135e565b34801561051457600080fd5b50610534610523366004614818565b63785cf2dd60e11b95945050505050565b6040516001600160e01b031990911681526020016103b6565b34801561055957600080fd5b506008545b6040519081526020016103b6565b34801561057857600080fd5b506105a66105873660046146b9565b6000908152601860209081526040808320546019909252909120549091565b604080519283526020830191909152016103b6565b3480156105c757600080fd5b506104a66105d63660046148b2565b6113af565b3480156105e757600080fd5b506104a66105f63660046148de565b61151b565b34801561060757600080fd5b50600b5461055e565b34801561061c57600080fd5b506104a661062b3660046148f9565b6115af565b34801561063c57600080fd5b5060155461055e565b34801561065157600080fd5b506104a6610660366004614935565b6115e7565b34801561067157600080fd5b5061055e6106803660046148de565b6001600160a01b03166000908152600c602052604090205490565b3480156106a757600080fd5b5061055e6106b6366004614624565b61171f565b3480156106c757600080fd5b5061055e6106d63660046146b9565b60009081526024602052604090205490565b3480156106f457600080fd5b504661055e565b34801561070757600080fd5b506104a66107163660046146b9565b6117b5565b34801561072757600080fd5b506104a66107363660046146b9565b6117dd565b34801561074757600080fd5b506104a66107563660046148f9565b61187d565b34801561076757600080fd5b506104a66107763660046146b9565b611898565b34801561078757600080fd5b5060105461046e906001600160a01b031681565b3480156107a757600080fd5b5060165461055e565b3480156107bc57600080fd5b506104a66107cb366004614988565b611961565b3480156107dc57600080fd5b5061055e6107eb3660046146b9565b6119c2565b3480156107fc57600080fd5b506104a661080b3660046148de565b611a55565b34801561081c57600080fd5b506023546001600160a01b031661046e565b34801561083a57600080fd5b506104a66108493660046146b9565b611b52565b34801561085a57600080fd5b506104a66108693660046149aa565b611ba8565b34801561087a57600080fd5b506104a6610889366004614a5e565b611c69565b34801561089a57600080fd5b506103aa6108a93660046148de565b601e6020526000908152604090205460ff1681565b3480156108ca57600080fd5b5061055e6108d9366004614988565b611cca565b3480156108ea57600080fd5b5061046e6108f93660046146b9565b611cf0565b34801561090a57600080fd5b506104a66109193660046146b9565b611d67565b34801561092a57600080fd5b506104a6610939366004614aa0565b611db8565b34801561094a57600080fd5b5061055e6109593660046148de565b611e45565b34801561096a57600080fd5b506104a6611ecc565b34801561097f57600080fd5b5061055e61098e3660046148de565b611f55565b34801561099f57600080fd5b506104a66109ae366004614ad7565b61206e565b3480156109bf57600080fd5b506103aa6109ce3660046148de565b6001600160a01b03166000908152601e602052604090205460ff1690565b3480156109f857600080fd5b50610a0c610a073660046146b9565b6120c0565b6040516103b69190600061016082019050825182526020830151602083015260408301516040830152606083015160608301526080830151608083015260a083015160a083015260c083015160c083015260e083015160e083015261010080840151818401525061012080840151818401525061014080840151818401525092915050565b348015610a9d57600080fd5b50601a546001600160a01b031661046e565b348015610abb57600080fd5b5061055e600f5481565b348015610ad157600080fd5b5061046e6121f0565b348015610ae657600080fd5b5061055e610af5366004614af4565b6121ff565b348015610b0657600080fd5b506104416124ae565b348015610b1b57600080fd5b5061055e6124bd565b348015610b3057600080fd5b506104a6610b3f366004614aa0565b6124d3565b348015610b5057600080fd5b5061055e610b5f3660046148de565b6125d0565b348015610b7057600080fd5b5060145461055e565b348015610b8557600080fd5b506104a6610b94366004614b27565b612648565b348015610ba557600080fd5b506104a6610bb4366004614b69565b61273e565b348015610bc557600080fd5b506104a661277d565b348015610bda57600080fd5b50610c0a610be93660046146b9565b601b546000918252601c6020526040909120546001600160a01b0390911691565b6040516103b6929190614bd0565b348015610c2457600080fd5b506104a6610c333660046148f9565b612794565b348015610c4457600080fd5b5061055e610c53366004614be9565b6129b8565b348015610c6457600080fd5b50610441610c733660046146b9565b612dc5565b348015610c8457600080fd5b50610441612dff565b348015610c9957600080fd5b506104a6610ca8366004614c2b565b612e27565b348015610cb957600080fd5b506104a6610cc83660046148f9565b612fe3565b348015610cd957600080fd5b50610441613061565b348015610cee57600080fd5b506103aa610cfd366004614c7a565b613075565b348015610d0e57600080fd5b50600e5461055e565b348015610d2357600080fd5b506104a6610d323660046148de565b6130a3565b348015610d4357600080fd5b5061055e610d52366004614cad565b6131a3565b60006001600160e01b0319821663780e9d6360e01b1480610d7c5750610d7c8261332e565b92915050565b610d8a61458b565b600080808060015b600e8113610ea9576001600160a01b03881660009081526027602090815260408083208a845282528083208484529091529020548015610e96576000818152602660209081526040918290208251610160810184528154815260018201549281019290925260028101549282019290925260038201546060820181905260048301546080830152600583015460a0830152600683015460c0830152600783015460e083015260088301546101008301526009830154610120830152600a9092015461014082015290610e649088614d07565b9650806080015186610e769190614d07565b9550806040015185610e889190614d07565b945080610120015184179350505b5080610ea181614d1f565b915050610d92565b506040518060c00160405280856001610ec29190614d07565b8152602001610ed2856001614d07565b8152602001610ee2846001614d07565b81526020808201939093526001600160a01b0398909816600090815260288352604080822098825297835287902087519283018852548252958701525050600660609094019390935250919050565b606060008054610f4090614d3e565b80601f0160208091040260200160405190810160405280929190818152602001828054610f6c90614d3e565b8015610fb95780601f10610f8e57610100808354040283529160200191610fb9565b820191906000526020600020905b815481529060010190602001808311610f9c57829003601f168201915b5050505050905090565b6000610fce8261337e565b6110345760405162461bcd60e51b815260206004820152602c60248201527f4552433732313a20617070726f76656420717565727920666f72206e6f6e657860448201526b34b9ba32b73a103a37b5b2b760a11b60648201526084015b60405180910390fd5b506000908152600460205260409020546001600160a01b031690565b600061105b82611cf0565b9050806001600160a01b0316836001600160a01b0316036110c85760405162461bcd60e51b815260206004820152602160248201527f4552433732313a20617070726f76616c20746f2063757272656e74206f776e656044820152603960f91b606482015260840161102b565b806001600160a01b03166110da61339b565b6001600160a01b031614806110f657506110f681610cfd61339b565b6111635760405162461bcd60e51b815260206004820152603860248201527f4552433732313a20617070726f76652063616c6c6572206973206e6f74206f776044820152771b995c881b9bdc88185c1c1c9bdd995908199bdc88185b1b60421b606482015260840161102b565b61116d83836133a5565b505050565b60408051606081810183526001600160a01b0388166000818152600c6020908152908590205484528301529181018690526111b08782878787613413565b6112065760405162461bcd60e51b815260206004820152602160248201527f5369676e657220616e64207369676e617475726520646f206e6f74206d6174636044820152600d60fb1b606482015260840161102b565b6001600160a01b0387166000908152600c602052604090205461122a906001613503565b6001600160a01b0388166000908152600c60205260409081902091909155517f5845892132946850460bff5a0083f71031bc5bf9aadcd40f1de79423eac9b10b9061127a90899033908a90614d78565b60405180910390a1600080306001600160a01b0316888a6040516020016112a2929190614da4565b60408051601f19818403018152908290526112bc91614ddb565b6000604051808303816000865af19150503d80600081146112f9576040519150601f19603f3d011682016040523d82523d6000602084013e6112fe565b606091505b5091509150816113505760405162461bcd60e51b815260206004820152601c60248201527f46756e6374696f6e2063616c6c206e6f74207375636365737366756c00000000604482015260640161102b565b925050505b95945050505050565b6113666121f0565b6001600160a01b03166113776132d2565b6001600160a01b031614806113a1575061138f6132d2565b6010546001600160a01b039081169116145b6113aa57600080fd5b601555565b6002601154036113d15760405162461bcd60e51b815260040161102b90614df7565b6002601155601a546000906001600160a01b031663dd62ed3e6113f26132d2565b6040516001600160e01b031960e084901b1681526001600160a01b039091166004820152306024820152604401602060405180830381865afa15801561143c573d6000803e3d6000fd5b505050506040513d601f19601f820116820180604052508101906114609190614e2e565b9050828110156114a05760405162461bcd60e51b815260206004820152600b60248201526a66696c6c47617354616e6b60a81b604482015260640161102b565b6114aa8284614e47565b600085815260186020526040812080549091906114c8908490614d07565b9091555050600084815260196020526040812080548492906114eb908490614d07565b9091555061151090506114fc6132d2565b601a546001600160a01b031690308661350f565b505060016011555050565b6001600160a01b0381166115415760405162461bcd60e51b815260040161102b90614e5e565b6115496121f0565b6001600160a01b031661155a6132d2565b6001600160a01b0316148061158457506115726132d2565b6010546001600160a01b039081169116145b61158d57600080fd5b601a80546001600160a01b0319166001600160a01b0392909216919091179055565b6115c06115ba61339b565b82613567565b6115dc5760405162461bcd60e51b815260040161102b90614e87565b61116d838383613629565b336000908152601e602052604090205460ff168061160f57506010546001600160a01b031633145b6116485760405162461bcd60e51b815260206004820152600a6024820152691a1c109e5159999958dd60b21b604482015260640161102b565b60005b60048110156117155760006029826004811061166957611669614ed8565b01546001600160a01b031690508015611702576040516302966bef60e41b81526001600160a01b038a81166004830152602482018a905260448201899052606482018890526084820187905260a4820186905260c48201859052821690632966bef09060e401600060405180830381600087803b1580156116e957600080fd5b505af11580156116fd573d6000803e3d6000fd5b505050505b508061170d81614eee565b91505061164b565b5050505050505050565b600061172a83611e45565b821061178c5760405162461bcd60e51b815260206004820152602b60248201527f455243373231456e756d657261626c653a206f776e657220696e646578206f7560448201526a74206f6620626f756e647360a81b606482015260840161102b565b506001600160a01b03919091166000908152600660209081526040808320938352929052205490565b336000908152601e602052604090205460ff166117d157600080fd5b6117da816137c2565b50565b6117e56121f0565b6001600160a01b03166117f66132d2565b6001600160a01b0316148061182557506010546001600160a01b031661181a6132d2565b6001600160a01b0316145b61182e57600080fd5b606360165411156118785760405162461bcd60e51b81526020600482015260146024820152732132903132ba3bb2b2b710181030b732101c9c9760611b604482015260640161102b565b601655565b61116d8383836040518060200160405280600081525061273e565b60135460ff166118ea5760405162461bcd60e51b815260206004820152601b60248201527f596f752063616e2774206275726e20746869732e2e2e207965743f0000000000604482015260640161102b565b6118f56115ba61339b565b8061191557506119036132d2565b6010546001600160a01b039081169116145b6117d15760405162461bcd60e51b815260206004820181905260248201527f43616c6c6572206973206e6f74206f776e6572206e6f7220617070726f766564604482015260640161102b565b336000908152601e602052604090205460ff168061199457506119826132d2565b6010546001600160a01b039081169116145b61199d57600080fd5b6000918252601c6020908152604080842092909255601d90529020805460ff19169055565b60006119cd60085490565b8210611a305760405162461bcd60e51b815260206004820152602c60248201527f455243373231456e756d657261626c653a20676c6f62616c20696e646578206f60448201526b7574206f6620626f756e647360a01b606482015260840161102b565b60088281548110611a4357611a43614ed8565b90600052602060002001549050919050565b6001600160a01b038116611a7b5760405162461bcd60e51b815260040161102b90614e5e565b611a836121f0565b6001600160a01b0316611a946132d2565b6001600160a01b03161480611abe5750611aac6132d2565b6010546001600160a01b039081169116145b611b305760405162461bcd60e51b815260206004820152603b60248201527f4f6e6c7920746865206f776e6572206f7220726567697374657279206d61792060448201527f6368616e6765207468652072657761726420636f6e74726163742e0000000000606482015260840161102b565b601b80546001600160a01b0319166001600160a01b0392909216919091179055565b611b5a6121f0565b6001600160a01b0316611b6b6132d2565b6001600160a01b03161480611b9a57506010546001600160a01b0316611b8f6132d2565b6001600160a01b0316145b611ba357600080fd5b600f55565b336000908152601e602052604090205460ff1680611bd057506010546001600160a01b031633145b611bec5760405162461bcd60e51b815260040161102b90614f00565b60009182526026602090815260409283902082518155908201516001820155918101516002830155606081015160038301556080810151600483015560a0810151600583015560c0810151600683015560e08101516007830155610100810151600883015561012081015160098301556101400151600a90910155565b611c716121f0565b6001600160a01b0316611c826132d2565b6001600160a01b03161480611cb157506010546001600160a01b0316611ca66132d2565b6001600160a01b0316145b611cba57600080fd5b6012611cc68282614f80565b5050565b6000670de0b6b3a7640000611cdf838561503f565b611ce99190615074565b9392505050565b6000818152600260205260408120546001600160a01b031680610d7c5760405162461bcd60e51b815260206004820152602960248201527f4552433732313a206f776e657220717565727920666f72206e6f6e657869737460448201526832b73a103a37b5b2b760b91b606482015260840161102b565b611d6f6121f0565b6001600160a01b0316611d806132d2565b6001600160a01b03161480611daa5750611d986132d2565b6010546001600160a01b039081169116145b611db357600080fd5b601455565b6001600160a01b038216611dde5760405162461bcd60e51b815260040161102b90614e5e565b611de66132d2565b6010546001600160a01b0390811691161480611e115750336000908152601e602052604090205460ff165b611e1a57600080fd5b6001600160a01b03919091166000908152601e60205260409020805460ff1916911515919091179055565b60006001600160a01b038216611eb05760405162461bcd60e51b815260206004820152602a60248201527f4552433732313a2062616c616e636520717565727920666f7220746865207a65604482015269726f206164647265737360b01b606482015260840161102b565b506001600160a01b031660009081526003602052604090205490565b611ed461339b565b6001600160a01b0316611ee56121f0565b6001600160a01b031614611f0b5760405162461bcd60e51b815260040161102b90615088565b600d546040516000916001600160a01b0316907f8be0079c531659141344cd1fd0a4f28419497f9722a3daafe3b4186f6b6457e0908390a3600d80546001600160a01b0319169055565b6000611f5f6121f0565b6001600160a01b0316611f706132d2565b6001600160a01b03161480611f9f57506010546001600160a01b0316611f946132d2565b6001600160a01b0316145b611fff5760405162461bcd60e51b815260206004820152602b60248201527f4f6e6c79206f776e657220616e64206d61726b6574706c6163652063616e206d60448201526a34b73a103a37b5b2b7399760a91b606482015260840161102b565b600f5461200a6124bd565b106120505760405162461bcd60e51b815260206004820152601660248201527520b63932b0b23c9030ba1036b0bc103a37b5b2b7399760511b604482015260640161102b565b600061205a6124bd565b90506120668382613857565b610d7c61277d565b61207661339b565b6001600160a01b03166120876121f0565b6001600160a01b0316146120ad5760405162461bcd60e51b815260040161102b90615088565b6013805460ff1916911515919091179055565b61211d60405180610160016040528060008152602001600081526020016000815260200160008152602001600081526020016000815260200160008152602001600081526020016000815260200160008152602001600081525090565b336000908152601e602052604090205460ff168061214557506010546001600160a01b031633145b6121615760405162461bcd60e51b815260040161102b90614f00565b50600090815260266020908152604091829020825161016081018452815481526001820154928101929092526002810154928201929092526003820154606082015260048201546080820152600582015460a0820152600682015460c0820152600782015460e082015260088201546101008201526009820154610120820152600a9091015461014082015290565b600d546001600160a01b031690565b336000908152601e602052604081205460ff168061222757506010546001600160a01b031633145b6122695760405162461bcd60e51b81526020600482015260136024820152722cb7ba903630b1b5903a3432903837bbb2b91760691b604482015260640161102b565b6021546040516307e6f85d60e01b81526000916001600160a01b0316906307e6f85d9061229c9088908890600401614bd0565b602060405180830381865afa1580156122b9573d6000803e3d6000fd5b505050506040513d601f19601f820116820180604052508101906122dd9190614e2e565b905060006122ec868686613984565b905060008282600001516123009190614d07565b604051638d1d0bb960e01b8152600481018890526024810182905290915087906001600160a01b03821690638d1d0bb990604401600060405180830381600087803b15801561234e57600080fd5b505af1158015612362573d6000803e3d6000fd5b50506021546040516381b38be960e01b81526001600160a01b038c81166004830152602482018c9052604482018b9052606482018790526000945090911691506381b38be9906084016020604051808303816000875af11580156123ca573d6000803e3d6000fd5b505050506040513d601f19601f820116820180604052508101906123ee9190614e2e565b90506000811215612454576000612407826000196150bd565b9050878111156124205760009650505050505050611ce9565b8361242b828a614e47565b61243d90670de0b6b3a764000061503f565b6124479190615074565b9650505050505050611ce9565b806000612461828a614d07565b90508481111561248257670de0b6b3a7640000975050505050505050611ce9565b8461249582670de0b6b3a764000061503f565b61249f9190615074565b9b9a5050505050505050505050565b606060018054610f4090614d3e565b600e546000906124ce906001613503565b905090565b6124db61339b565b6001600160a01b0316826001600160a01b0316036125375760405162461bcd60e51b815260206004820152601960248201527822a9219b99189d1030b8383937bb32903a379031b0b63632b960391b604482015260640161102b565b806005600061254461339b565b6001600160a01b03908116825260208083019390935260409182016000908120918716808252919093529120805460ff19169215159290921790915561258861339b565b6001600160a01b03167f17307eab39ab6107e8899845ad3d59bd9653f200f220920489ca2b5937696c31836040516125c4911515815260200190565b60405180910390a35050565b336000908152601e602052604081205460ff166125ff5760405162461bcd60e51b815260040161102b90615142565b600f5461260a6124bd565b106120505760405162461bcd60e51b815260206004820152600e60248201526d20ba1036b0bc103a37b5b2b7399760911b604482015260640161102b565b336000908152601e602052604090205460ff168061267057506010546001600160a01b031633145b6126ac5760405162461bcd60e51b815260206004820152600d60248201526c65717569704974656d46726f6d60981b604482015260640161102b565b80156126bd576126bd843083613629565b6001600160a01b0383166000908152602760209081526040808320858452825280832084845260258352818420548452909152902054801561270457612704308684613629565b506001600160a01b039092166000908152602760209081526040808320938352928152828220848352602582528383205483529052205550565b61274f61274961339b565b83613567565b61276b5760405162461bcd60e51b815260040161102b90614e87565b61277784848484613b1f565b50505050565b600e805490600061278d83614eee565b9190505550565b6002601154036127b65760405162461bcd60e51b815260040161102b90614df7565b6002601155601e60006127c76132d2565b6001600160a01b0316815260208101919091526040016000205460ff166128005760405162461bcd60e51b815260040161102b90615142565b600061280b82611cf0565b9050826001600160a01b0316816001600160a01b0316036128825760405162461bcd60e51b815260206004820152602b60248201527f546f6b656e206f776e65722063616e206e6f74207472616e7366657220746f6b60448201526a32b7103a379039b2b6331760a91b606482015260840161102b565b61288d848484613629565b601b546001600160a01b0316158015906128b457506000828152601c602052604090205415155b80156128cf57506000828152601d602052604090205460ff16155b1561296257601b546000838152601c60205260409081902054905163c43e92b160e01b81526001600160a01b039092169163c43e92b1916129169188918891600401615168565b600060405180830381600087803b15801561293057600080fd5b505af1158015612944573d6000803e3d6000fd5b5050506000838152601d60205260409020805460ff19166001179055505b6000828152601960205260409020541561151057600082815260196020526040902054601a5461299f916001600160a01b03909116908590613b52565b5060009081526019602052604081205550506001601155565b336000908152601e602052604081205460ff16806129e057506010546001600160a01b031633145b612a1c5760405162461bcd60e51b815260206004820152600d60248201526c283632b0b9b2903237b713ba1760991b604482015260640161102b565b60215460405163cd0aca9960e01b81526000916001600160a01b03169063cd0aca9990612a4f908a908a90600401614bd0565b602060405180830381865afa158015612a6c573d6000803e3d6000fd5b505050506040513d601f19601f82011682018060405250810190612a909190614e2e565b90506000612a9e8888613b71565b8051909150600090612ab09084614d07565b604051630acadcb760e21b8152600481018a9052602481018290529091506001600160a01b038a1690632b2b72dc90604401600060405180830381600087803b158015612afc57600080fd5b505af1158015612b10573d6000803e3d6000fd5b505050506000806000881315612b27575086612b36565b612b33886000196150bd565b91505b6000604051806101e001604052806001151581526020018d6001600160a01b031681526020018c8152602001838152602001848152602001898152602001866020015181526020018660400151815260200186606001518152602001866080015181526020018660a001518152602001600181526020016001815260200160008152602001600181525090506000612bce858c611cca565b90506000602160009054906101000a90046001600160a01b03166001600160a01b031663787023b58f8f85876040518563ffffffff1660e01b8152600401612d0494939291906001600160a01b03851681526020810184905260408101839052815115156060820152610240810160208301516001600160a01b038116608084015250604083015160a0830152606083015160c0830152608083015160e083015260a0830151610100818185015260c08501519150610120828186015260e0860151925061014083818701528287015193506101609250838387015281870151935061018091508382870152808701519350506101a083818701528287015193506101c092508383870152818701516101e087015280870151610200870152505080850151610220850152505095945050505050565b6020604051808303816000875af1158015612d23573d6000803e3d6000fd5b505050506040513d601f19601f82011682018060405250810190612d479190614e2e565b905080600003612d6257600098505050505050505050611355565b612d6c8482614d07565b905080851115612d7e57506000612d8b565b612d888582614e47565b90505b85811115612d965750845b85612da982670de0b6b3a764000061503f565b612db39190615074565b9e9d5050505050505050505050505050565b6060612dcf612dff565b612dd883613e4f565b604051602001612de992919061518c565b6040516020818303038152906040529050919050565b60606012604051602001612e13919061522e565b604051602081830303815290604052905090565b600260115403612e495760405162461bcd60e51b815260040161102b90614df7565b60026011556000612e5984611cf0565b9050806001600160a01b0316612e6d6132d2565b6001600160a01b03161480612e975750612e856132d2565b6010546001600160a01b039081169116145b612ed25760405162461bcd60e51b815260206004820152600c60248201526b20b236b4b7399037b7363c9760a11b604482015260640161102b565b600084815260186020526040902054831115612f1a5760405162461bcd60e51b81526020600482015260076024820152662932b334b6361760c91b604482015260640161102b565b60008481526018602052604081208054859290612f38908490614e47565b9091555050601a54604051630852cd8d60e31b8152600481018590526001600160a01b03909116906342966c6890602401600060405180830381600087803b158015612f8357600080fd5b505af1158015612f97573d6000803e3d6000fd5b505050507f06cf1047b698de02174db713eb2021be336d8a8370c8e3b762fe83b7ed289bc381858585604051612fd09493929190615251565b60405180910390a1505060016011555050565b336000908152601e602052604090205460ff168061300b57506010546001600160a01b031633145b6130575760405162461bcd60e51b815260206004820152601c60248201527f596f752063616e277420617070726f7665206c696b6520746861742e00000000604482015260640161102b565b61116d83826133a5565b60606012604051602001612e139190615288565b6001600160a01b03918216600090815260056020908152604080832093909416825291909152205460ff1690565b6130ab61339b565b6001600160a01b03166130bc6121f0565b6001600160a01b0316146130e25760405162461bcd60e51b815260040161102b90615088565b6001600160a01b0381166131475760405162461bcd60e51b815260206004820152602660248201527f4f776e61626c653a206e6577206f776e657220697320746865207a65726f206160448201526564647265737360d01b606482015260840161102b565b600d546040516001600160a01b038084169216907f8be0079c531659141344cd1fd0a4f28419497f9722a3daafe3b4186f6b6457e090600090a3600d80546001600160a01b0319166001600160a01b0392909216919091179055565b336000908152601e602052604081205460ff16806131cb57506010546001600160a01b031633145b6132235760405162461bcd60e51b8152602060048201526024808201527f596f752063616e2774206d616b652061206e6577206974656d732074686973206044820152633bb0bc9760e11b606482015260840161102b565b600061322d6124bd565b90506132398482613857565b61324161277d565b6040516333d119eb60e01b8152600481018690526001600160a01b038716906333d119eb90602401602060405180830381865afa158015613286573d6000803e3d6000fd5b505050506040513d601f19601f820116820180604052508101906132aa9190614e2e565b600082815260246020908152604080832093909355602590522083905590505b949350505050565b600030330361332857600080368080601f0160208091040260200160405190810160405280939291908181526020018383808284376000920191909152505050503601516001600160a01b0316915061332b9050565b50335b90565b60006001600160e01b031982166380ac58cd60e01b148061335f57506001600160e01b03198216635b5e139f60e01b145b80610d7c57506301ffc9a760e01b6001600160e01b0319831614610d7c565b6000908152600260205260409020546001600160a01b0316151590565b60006124ce6132d2565b600081815260046020526040902080546001600160a01b0319166001600160a01b03841690811790915581906133da82611cf0565b6001600160a01b03167f8c5be1e5ebec7d5bd14f71427d1e84f3dd0314c0f7b2291e5b200ac8c7c3b92560405160405180910390a45050565b60006001600160a01b0386166134795760405162461bcd60e51b815260206004820152602560248201527f4e61746976654d6574615472616e73616374696f6e3a20494e56414c49445f5360448201526424a3a722a960d91b606482015260840161102b565b600161348c61348787613f4f565b613fcc565b6040805160008152602081018083529290925260ff851690820152606081018690526080810185905260a0016020604051602081039080840390855afa1580156134da573d6000803e3d6000fd5b505050602060405103516001600160a01b0316866001600160a01b031614905095945050505050565b6000611ce98284614d07565b612777846323b872dd60e01b85858560405160240161353093929190615168565b60408051601f198184030181529190526020810180516001600160e01b03166001600160e01b031990931692909217909152613ffc565b60006135728261337e565b6135d35760405162461bcd60e51b815260206004820152602c60248201527f4552433732313a206f70657261746f7220717565727920666f72206e6f6e657860448201526b34b9ba32b73a103a37b5b2b760a11b606482015260840161102b565b60006135de83611cf0565b9050806001600160a01b0316846001600160a01b031614806136195750836001600160a01b031661360e84610fc3565b6001600160a01b0316145b806132ca57506132ca8185613075565b826001600160a01b031661363c82611cf0565b6001600160a01b0316146136a45760405162461bcd60e51b815260206004820152602960248201527f4552433732313a207472616e73666572206f6620746f6b656e2074686174206960448201526839903737ba1037bbb760b91b606482015260840161102b565b6001600160a01b0382166137065760405162461bcd60e51b8152602060048201526024808201527f4552433732313a207472616e7366657220746f20746865207a65726f206164646044820152637265737360e01b606482015260840161102b565b6137118383836140ce565b61371c6000826133a5565b6001600160a01b0383166000908152600360205260408120805460019290613745908490614e47565b90915550506001600160a01b0382166000908152600360205260408120805460019290613773908490614d07565b909155505060008181526002602052604080822080546001600160a01b0319166001600160a01b03868116918217909255915184939187169160008051602061541b83398151915291a4505050565b60006137cd82611cf0565b90506137db816000846140ce565b6137e66000836133a5565b6001600160a01b038116600090815260036020526040812080546001929061380f908490614e47565b909155505060008281526002602052604080822080546001600160a01b0319169055518391906001600160a01b0384169060008051602061541b833981519152908390a45050565b6001600160a01b0382166138ad5760405162461bcd60e51b815260206004820181905260248201527f4552433732313a206d696e7420746f20746865207a65726f2061646472657373604482015260640161102b565b6138b68161337e565b156139035760405162461bcd60e51b815260206004820152601c60248201527f4552433732313a20746f6b656e20616c7265616479206d696e74656400000000604482015260640161102b565b61390f600083836140ce565b6001600160a01b0382166000908152600360205260408120805460019290613938908490614d07565b909155505060008181526002602052604080822080546001600160a01b0319166001600160a01b038616908117909155905183929060008051602061541b833981519152908290a45050565b604080516020810190915260008152600060015b600e8113613b08576001600160a01b038616600090815260276020908152604080832088845282528083208484529091529020548015613af55760008181526026602090815260409182902082516101608101845281548152600182015492810192909252600281015482840152600381015460608301526004808201546080840152600582015460a0840152600682015460c0840152600782015460e084015260088201546101008401526009820154610120840152600a909101546101408301526021549251630a2d082960e21b81526001600160a01b038b811692820192909252602481018a905260448101899052919216906328b420a490606401602060405180830381865afa158015613ab4573d6000803e3d6000fd5b505050506040513d601f19601f82011682018060405250810190613ad89190614e2e565b8160600151613ae7919061503f565b613af19085614d07565b9350505b5080613b0081614d1f565b915050613998565b506040805160208101909152908152949350505050565b613b2a848484613629565b613b3684848484614186565b6127775760405162461bcd60e51b815260040161102b906152ad565b61116d8363a9059cbb60e01b8484604051602401613530929190614bd0565b613baa6040518060c001604052806000815260200160008152602001600081526020016000815260200160008152602001600081525090565b602154604051633de49a8b60e11b81526000916001600160a01b031690637bc9351690613bdd9087908790600401614bd0565b602060405180830381865afa158015613bfa573d6000803e3d6000fd5b505050506040513d601f19601f82011682018060405250810190613c1e9190614e2e565b90506000808080808060015b600e8113613d6b576001600160a01b038b1660009081526027602090815260408083208d845282528083208484529091529020548015613d58576000818152602660209081526040918290208251610160810184528154815260018201549281018390526002820154938101939093526003810154606084015260048101546080840152600581015460a0840152600681015460c0840152600781015460e084015260088101546101008401526009810154610120840152600a0154610140830152613cf7908b9061503f565b613d01908a614d07565b98508060a0015188613d1391906152ff565b97508060c0015187613d2591906152ff565b96508060e0015186613d3791906152ff565b955080610100015185613d4a91906152ff565b945080610120015184179350505b5080613d6381614d1f565b915050613c2a565b506040805160c08101825287815260208101879052808201869052606081018590526080810184905260a0810183905290516304bc43a560e01b81526001600160a01b038c16906304bc43a590613e0e908d908590600401600060e08201905083825282516020830152602083015160408301526040830151606083015260608301516080830152608083015160a083015260a083015160c08301529392505050565b600060405180830381600087803b158015613e2857600080fd5b505af1158015613e3c573d6000803e3d6000fd5b50929d9c50505050505050505050505050565b606081600003613e765750506040805180820190915260018152600360fc1b602082015290565b8160005b8115613ea05780613e8a81614eee565b9150613e999050600a83615074565b9150613e7a565b6000816001600160401b03811115613eba57613eba6146d2565b6040519080825280601f01601f191660200182016040528015613ee4576020820181803683370190505b5090505b84156132ca57613ef9600183614e47565b9150613f06600a86615340565b613f11906030614d07565b60f81b818381518110613f2657613f26614ed8565b60200101906001600160f81b031916908160001a905350613f48600a86615074565b9450613ee8565b60006040518060800160405280604381526020016153d86043913980516020918201208351848301516040808701518051908601209051613faf950193845260208401929092526001600160a01b03166040830152606082015260800190565b604051602081830303815290604052805190602001209050919050565b6000613fd7600b5490565b60405161190160f01b6020820152602281019190915260428101839052606201613faf565b6000614051826040518060400160405280602081526020017f5361666545524332303a206c6f772d6c6576656c2063616c6c206661696c6564815250856001600160a01b031661428b9092919063ffffffff16565b80519091501561116d578080602001905181019061406f9190615354565b61116d5760405162461bcd60e51b815260206004820152602a60248201527f5361666545524332303a204552433230206f7065726174696f6e20646964206e6044820152691bdd081cdd58d8d9595960b21b606482015260840161102b565b6001600160a01b0383166141295761412481600880546000838152600960205260408120829055600182018355919091527ff3f7a9fe364faab93b216da50a3214154f22a0a2b415b23a84c8169e8b636ee30155565b61414c565b816001600160a01b0316836001600160a01b03161461414c5761414c838261429a565b6001600160a01b0382166141635761116d81614337565b826001600160a01b0316826001600160a01b03161461116d5761116d82826143e6565b60006001600160a01b0384163b1561428357836001600160a01b031663150b7a026141af61339b565b8786866040518563ffffffff1660e01b81526004016141d19493929190615371565b6020604051808303816000875af192505050801561420c575060408051601f3d908101601f19168201909252614209918101906153a4565b60015b614269573d80801561423a576040519150601f19603f3d011682016040523d82523d6000602084013e61423f565b606091505b5080516000036142615760405162461bcd60e51b815260040161102b906152ad565b805181602001fd5b6001600160e01b031916630a85bd0160e11b1490506132ca565b5060016132ca565b60606132ca848460008561442a565b600060016142a784611e45565b6142b19190614e47565b600083815260076020526040902054909150808214614304576001600160a01b03841660009081526006602090815260408083208584528252808320548484528184208190558352600790915290208190555b5060009182526007602090815260408084208490556001600160a01b039094168352600681528383209183525290812055565b60085460009061434990600190614e47565b6000838152600960205260408120546008805493945090928490811061437157614371614ed8565b90600052602060002001549050806008838154811061439257614392614ed8565b60009182526020808320909101929092558281526009909152604080822084905585825281205560088054806143ca576143ca6153c1565b6001900381819060005260206000200160009055905550505050565b60006143f183611e45565b6001600160a01b039093166000908152600660209081526040808320868452825280832085905593825260079052919091209190915550565b60608247101561448b5760405162461bcd60e51b815260206004820152602660248201527f416464726573733a20696e73756666696369656e742062616c616e636520666f6044820152651c8818d85b1b60d21b606482015260840161102b565b843b6144d95760405162461bcd60e51b815260206004820152601d60248201527f416464726573733a2063616c6c20746f206e6f6e2d636f6e7472616374000000604482015260640161102b565b600080866001600160a01b031685876040516144f59190614ddb565b60006040518083038185875af1925050503d8060008114614532576040519150601f19603f3d011682016040523d82523d6000602084013e614537565b606091505b5091509150614547828286614552565b979650505050505050565b60608315614561575081611ce9565b8251156145715782518084602001fd5b8160405162461bcd60e51b815260040161102b91906146a6565b6040518060c00160405280600081526020016000815260200160008152602001600081526020016145c86040518060200160405280600081525090565b8152602001600081525090565b6001600160e01b0319811681146117da57600080fd5b6000602082840312156145fd57600080fd5b8135611ce9816145d5565b80356001600160a01b038116811461461f57600080fd5b919050565b6000806040838503121561463757600080fd5b61464083614608565b946020939093013593505050565b60005b83811015614669578181015183820152602001614651565b838111156127775750506000910152565b6000815180845261469281602086016020860161464e565b601f01601f19169290920160200192915050565b602081526000611ce9602083018461467a565b6000602082840312156146cb57600080fd5b5035919050565b634e487b7160e01b600052604160045260246000fd5b60405161016081016001600160401b038111828210171561470b5761470b6146d2565b60405290565b600082601f83011261472257600080fd5b81356001600160401b038082111561473c5761473c6146d2565b604051601f8301601f19908116603f01168101908282118183101715614764576147646146d2565b8160405283815286602085880101111561477d57600080fd5b836020870160208301376000602085830101528094505050505092915050565b600080600080600060a086880312156147b557600080fd5b6147be86614608565b945060208601356001600160401b038111156147d957600080fd5b6147e588828901614711565b9450506040860135925060608601359150608086013560ff8116811461480a57600080fd5b809150509295509295909350565b60008060008060006080868803121561483057600080fd5b61483986614608565b945061484760208701614608565b93506040860135925060608601356001600160401b038082111561486a57600080fd5b818801915088601f83011261487e57600080fd5b81358181111561488d57600080fd5b89602082850101111561489f57600080fd5b9699959850939650602001949392505050565b6000806000606084860312156148c757600080fd5b505081359360208301359350604090920135919050565b6000602082840312156148f057600080fd5b611ce982614608565b60008060006060848603121561490e57600080fd5b61491784614608565b925061492560208501614608565b9150604084013590509250925092565b600080600080600080600060e0888a03121561495057600080fd5b61495988614608565b9960208901359950604089013598606081013598506080810135975060a0810135965060c00135945092505050565b6000806040838503121561499b57600080fd5b50508035926020909101359150565b6000808284036101808112156149bf57600080fd5b8335925061016080601f19830112156149d757600080fd5b6149df6146e8565b91506020850135825260408501356020830152606085013560408301526080850135606083015260a0850135608083015260c085013560a083015260e085013560c08301526101008086013560e08401526101208087013582850152610140915081870135818501525081860135818401525050809150509250929050565b600060208284031215614a7057600080fd5b81356001600160401b03811115614a8657600080fd5b6132ca84828501614711565b80151581146117da57600080fd5b60008060408385031215614ab357600080fd5b614abc83614608565b91506020830135614acc81614a92565b809150509250929050565b600060208284031215614ae957600080fd5b8135611ce981614a92565b600080600060608486031215614b0957600080fd5b614b1284614608565b95602085013595506040909401359392505050565b60008060008060808587031215614b3d57600080fd5b614b4685614608565b9350614b5460208601614608565b93969395505050506040820135916060013590565b60008060008060808587031215614b7f57600080fd5b614b8885614608565b9350614b9660208601614608565b92506040850135915060608501356001600160401b03811115614bb857600080fd5b614bc487828801614711565b91505092959194509250565b6001600160a01b03929092168252602082015260400190565b600080600080600060a08688031215614c0157600080fd5b614c0a86614608565b97602087013597506040870135966060810135965060800135945092505050565b600080600060608486031215614c4057600080fd5b833592506020840135915060408401356001600160401b03811115614c6457600080fd5b614c7086828701614711565b9150509250925092565b60008060408385031215614c8d57600080fd5b614c9683614608565b9150614ca460208401614608565b90509250929050565b60008060008060808587031215614cc357600080fd5b614ccc85614608565b935060208501359250614ce160408601614608565b9396929550929360600135925050565b634e487b7160e01b600052601160045260246000fd5b60008219821115614d1a57614d1a614cf1565b500190565b60006001600160ff1b018201614d3757614d37614cf1565b5060010190565b600181811c90821680614d5257607f821691505b602082108103614d7257634e487b7160e01b600052602260045260246000fd5b50919050565b6001600160a01b038481168252831660208201526060604082018190526000906113559083018461467a565b60008351614db681846020880161464e565b60609390931b6bffffffffffffffffffffffff19169190920190815260140192915050565b60008251614ded81846020870161464e565b9190910192915050565b6020808252601f908201527f5265656e7472616e637947756172643a207265656e7472616e742063616c6c00604082015260600190565b600060208284031215614e4057600080fd5b5051919050565b600082821015614e5957614e59614cf1565b500390565b6020808252600f908201526e496e76616c6964206164647265737360881b604082015260600190565b60208082526031908201527f4552433732313a207472616e736665722063616c6c6572206973206e6f74206f6040820152701ddb995c881b9bdc88185c1c1c9bdd9959607a1b606082015260800190565b634e487b7160e01b600052603260045260246000fd5b600060018201614d3757614d37614cf1565b6020808252601890820152772cb7ba9031b0b713ba1039b2ba103a34329039ba30ba399760411b604082015260600190565b601f82111561116d57600081815260208120601f850160051c81016020861015614f595750805b601f850160051c820191505b81811015614f7857828155600101614f65565b505050505050565b81516001600160401b03811115614f9957614f996146d2565b614fad81614fa78454614d3e565b84614f32565b602080601f831160018114614fe25760008415614fca5750858301515b600019600386901b1c1916600185901b178555614f78565b600085815260208120601f198616915b8281101561501157888601518255948401946001909101908401614ff2565b508582101561502f5787850151600019600388901b60f8161c191681555b5050505050600190811b01905550565b600081600019048311821515161561505957615059614cf1565b500290565b634e487b7160e01b600052601260045260246000fd5b6000826150835761508361505e565b500490565b6020808252818101527f4f776e61626c653a2063616c6c6572206973206e6f7420746865206f776e6572604082015260600190565b60006001600160ff1b03818413828413808216868404861116156150e3576150e3614cf1565b600160ff1b600087128281168783058912161561510257615102614cf1565b6000871292508782058712848416161561511e5761511e614cf1565b8785058712818416161561513457615134614cf1565b505050929093029392505050565b6020808252600c908201526b20b23237b7399037b7363c9760a11b604082015260600190565b6001600160a01b039384168152919092166020820152604081019190915260600190565b6000835161519e81846020880161464e565b8351908301906151b281836020880161464e565b01949350505050565b600081546151c881614d3e565b600182811680156151e057600181146151f557615224565b60ff1984168752821515830287019450615224565b8560005260208060002060005b8581101561521b5781548a820152908401908201615202565b50505082870194505b5050505092915050565b600061523a82846151bb565b66746f6b656e732f60c81b81526007019392505050565b60018060a01b038516815283602082015282604082015260806060820152600061527e608083018461467a565b9695505050505050565b600061529482846151bb565b68636f6e74726163742f60b81b81526009019392505050565b60208082526032908201527f4552433732313a207472616e7366657220746f206e6f6e20455243373231526560408201527131b2b4bb32b91034b6b83632b6b2b73a32b960711b606082015260800190565b600080821280156001600160ff1b038490038513161561532157615321614cf1565b600160ff1b839003841281161561533a5761533a614cf1565b50500190565b60008261534f5761534f61505e565b500690565b60006020828403121561536657600080fd5b8151611ce981614a92565b6001600160a01b038581168252841660208201526040810183905260806060820181905260009061527e9083018461467a565b6000602082840312156153b657600080fd5b8151611ce9816145d5565b634e487b7160e01b600052603160045260246000fdfe4d6574615472616e73616374696f6e2875696e74323536206e6f6e63652c616464726573732066726f6d2c62797465732066756e6374696f6e5369676e617475726529ddf252ad1be2c89b69c2b068fc378daa952ba7f163c4a11628f55a4df523b3efa26469706673582212208429ef76910cf165d379554a4935aa4a160b14cd89387f96b91824ab40efc4b364736f6c634300080f003368747470733a2f2f67726561746c6962726172792e696f2f67616d65732f5443532f6974656d732f454950373132446f6d61696e28737472696e67206e616d652c737472696e672076657273696f6e2c6164647265737320766572696679696e67436f6e74726163742c627974657333322073616c7429",
  "bytecodeSha1": "da39a3ee5e6b4b0d3255bfef95601890afd80709",
  "compiler": {
    "evm_version": "istanbul",
    "optimizer": {
      "enabled": true,
      "runs": 100
    },
    "version": "0.8.15+commit.e14f2714"
  },
  "contractName": "MyItems",
  "language": "Solidity",
  "natspec": {
    "kind": "dev",
    "methods": {
      "_getNextTokenId()": {
        "details": "calculates the next token ID based on value of _currentTokenId",
        "returns": {
          "_0": "uint256 for the next token ID"
        }
      },
      "_incrementTokenId()": {
        "details": "increments the value of _currentTokenId"
      },
      "approve(address,uint256)": {
        "details": "See {IERC721-approve}."
      },
      "balanceOf(address)": {
        "details": "See {IERC721-balanceOf}."
      },
      "getApproved(uint256)": {
        "details": "See {IERC721-getApproved}."
      },
      "isApprovedForAll(address,address)": {
        "details": "See {IERC721-isApprovedForAll}."
      },
      "mintTo(address)": {
        "details": "Mints a token to an address with a tokenURI.",
        "params": {
          "_to": "address of the future owner of the token"
        }
      },
      "name()": {
        "details": "See {IERC721Metadata-name}."
      },
      "onERC721Received(address,address,uint256,bytes)": {
        "details": "Whenever an {IERC721} `tokenId` token is transferred to this contract via {IERC721-safeTransferFrom} by `operator` from `from`, this function is called. It must return its Solidity selector to confirm the token transfer. If any other value is returned or the interface is not implemented by the recipient, the transfer will be reverted. The selector can be obtained in Solidity with `IERC721.onERC721Received.selector`."
      },
      "owner()": {
        "details": "Returns the address of the current owner."
      },
      "ownerOf(uint256)": {
        "details": "See {IERC721-ownerOf}."
      },
      "renounceOwnership()": {
        "details": "Leaves the contract without owner. It will not be possible to call `onlyOwner` functions anymore. Can only be called by the current owner. NOTE: Renouncing ownership will leave the contract without an owner, thereby removing any functionality that is only available to the owner."
      },
      "safeTransferFrom(address,address,uint256)": {
        "details": "See {IERC721-safeTransferFrom}."
      },
      "safeTransferFrom(address,address,uint256,bytes)": {
        "details": "See {IERC721-safeTransferFrom}."
      },
      "setApprovalForAll(address,bool)": {
        "details": "See {IERC721-setApprovalForAll}."
      },
      "supportsInterface(bytes4)": {
        "details": "See {IERC165-supportsInterface}."
      },
      "symbol()": {
        "details": "See {IERC721Metadata-symbol}."
      },
      "tokenByIndex(uint256)": {
        "details": "See {IERC721Enumerable-tokenByIndex}."
      },
      "tokenOfOwnerByIndex(address,uint256)": {
        "details": "See {IERC721Enumerable-tokenOfOwnerByIndex}."
      },
      "totalSupply()": {
        "details": "See {IERC721Enumerable-totalSupply}."
      },
      "transferFrom(address,address,uint256)": {
        "details": "See {IERC721-transferFrom}."
      },
      "transferOwnership(address)": {
        "details": "Transfers ownership of the contract to a new account (`newOwner`). Can only be called by the current owner."
      }
    },
    "version": 1
  },
  "opcodes": "PUSH1 0x80 PUSH1 0x40 MSTORE PUSH1 0x4 CALLDATASIZE LT PUSH2 0x385 JUMPI PUSH1 0x0 CALLDATALOAD PUSH1 0xE0 SHR DUP1 PUSH4 0x596C6325 GT PUSH2 0x1D3 JUMPI DUP1 PUSH4 0xA22CB465 GT PUSH2 0x103 JUMPI DUP1 PUSH4 0xC87B56DD GT PUSH2 0x9B JUMPI DUP1 PUSH4 0xC87B56DD EQ PUSH2 0xC58 JUMPI DUP1 PUSH4 0xD547CFB7 EQ PUSH2 0xC78 JUMPI DUP1 PUSH4 0xE189977F EQ PUSH2 0xC8D JUMPI DUP1 PUSH4 0xE6CDA974 EQ PUSH2 0xCAD JUMPI DUP1 PUSH4 0xE8A3D485 EQ PUSH2 0xCCD JUMPI DUP1 PUSH4 0xE985E9C5 EQ PUSH2 0xCE2 JUMPI DUP1 PUSH4 0xEF2D1746 EQ PUSH2 0xD02 JUMPI DUP1 PUSH4 0xF2FDE38B EQ PUSH2 0xD17 JUMPI DUP1 PUSH4 0xFAE06BE6 EQ PUSH2 0xD37 JUMPI PUSH1 0x0 DUP1 REVERT JUMPDEST DUP1 PUSH4 0xA22CB465 EQ PUSH2 0xB24 JUMPI DUP1 PUSH4 0xA795E193 EQ PUSH2 0xB44 JUMPI DUP1 PUSH4 0xB086613C EQ PUSH2 0xB64 JUMPI DUP1 PUSH4 0xB3A54F00 EQ PUSH2 0xB79 JUMPI DUP1 PUSH4 0xB88D4FDE EQ PUSH2 0xB99 JUMPI DUP1 PUSH4 0xB9DD6574 EQ PUSH2 0xBB9 JUMPI DUP1 PUSH4 0xC0D8012C EQ PUSH2 0xBCE JUMPI DUP1 PUSH4 0xC43E92B1 EQ PUSH2 0xC18 JUMPI DUP1 PUSH4 0xC60E328D EQ PUSH2 0xC38 JUMPI PUSH1 0x0 DUP1 REVERT JUMPDEST DUP1 PUSH4 0x80929E5B GT PUSH2 0x176 JUMPI DUP1 PUSH4 0x80929E5B EQ PUSH2 0x993 JUMPI DUP1 PUSH4 0x8297F29F EQ PUSH2 0x9B3 JUMPI DUP1 PUSH4 0x89A7EA6C EQ PUSH2 0x9EC JUMPI DUP1 PUSH4 0x8A0DE3DD EQ PUSH2 0xA91 JUMPI DUP1 PUSH4 0x8AA80EA5 EQ PUSH2 0xAAF JUMPI DUP1 PUSH4 0x8DA5CB5B EQ PUSH2 0xAC5 JUMPI DUP1 PUSH4 0x8DD1983B EQ PUSH2 0xADA JUMPI DUP1 PUSH4 0x95D89B41 EQ PUSH2 0xAFA JUMPI DUP1 PUSH4 0x972D1AE2 EQ PUSH2 0xB0F JUMPI PUSH1 0x0 DUP1 REVERT JUMPDEST DUP1 PUSH4 0x596C6325 EQ PUSH2 0x88E JUMPI DUP1 PUSH4 0x5FEBC07A EQ PUSH2 0x8BE JUMPI DUP1 PUSH4 0x6352211E EQ PUSH2 0x8DE JUMPI DUP1 PUSH4 0x6D3C7EC5 EQ PUSH2 0x8FE JUMPI DUP1 PUSH4 0x6D714B68 EQ PUSH2 0x91E JUMPI DUP1 PUSH4 0x70A08231 EQ PUSH2 0x93E JUMPI DUP1 PUSH4 0x715018A6 EQ PUSH2 0x95E JUMPI DUP1 PUSH4 0x755EDD17 EQ PUSH2 0x973 JUMPI PUSH1 0x0 DUP1 REVERT JUMPDEST DUP1 PUSH4 0x2D0335AB GT PUSH2 0x2B9 JUMPI DUP1 PUSH4 0x495057BE GT PUSH2 0x251 JUMPI DUP1 PUSH4 0x495057BE EQ PUSH2 0x4A6 JUMPI DUP1 PUSH4 0x4D47732A EQ PUSH2 0x79B JUMPI DUP1 PUSH4 0x4D57CA4F EQ PUSH2 0x7B0 JUMPI DUP1 PUSH4 0x4F6CCCE7 EQ PUSH2 0x7D0 JUMPI DUP1 PUSH4 0x51508F0A EQ PUSH2 0x7F0 JUMPI DUP1 PUSH4 0x51F41EE3 EQ PUSH2 0x810 JUMPI DUP1 PUSH4 0x547520FE EQ PUSH2 0x82E JUMPI DUP1 PUSH4 0x547B17C6 EQ PUSH2 0x84E JUMPI DUP1 PUSH4 0x55F804B3 EQ PUSH2 0x86E JUMPI PUSH1 0x0 DUP1 REVERT JUMPDEST DUP1 PUSH4 0x2D0335AB EQ PUSH2 0x665 JUMPI DUP1 PUSH4 0x2F745C59 EQ PUSH2 0x69B JUMPI DUP1 PUSH4 0x33D119EB EQ PUSH2 0x6BB JUMPI DUP1 PUSH4 0x3408E470 EQ PUSH2 0x6E8 JUMPI DUP1 PUSH4 0x343F40DF EQ PUSH2 0x6FB JUMPI DUP1 PUSH4 0x4209A2E1 EQ PUSH2 0x71B JUMPI DUP1 PUSH4 0x42842E0E EQ PUSH2 0x73B JUMPI DUP1 PUSH4 0x42966C68 EQ PUSH2 0x75B JUMPI DUP1 PUSH4 0x4409559A EQ PUSH2 0x77B JUMPI PUSH1 0x0 DUP1 REVERT JUMPDEST DUP1 PUSH4 0x150B7A02 GT PUSH2 0x32C JUMPI DUP1 PUSH4 0x150B7A02 EQ PUSH2 0x508 JUMPI DUP1 PUSH4 0x18160DDD EQ PUSH2 0x54D JUMPI DUP1 PUSH4 0x199DC532 EQ PUSH2 0x56C JUMPI DUP1 PUSH4 0x1B64AB59 EQ PUSH2 0x5BB JUMPI DUP1 PUSH4 0x1E9F8AAD EQ PUSH2 0x5DB JUMPI DUP1 PUSH4 0x20379EE5 EQ PUSH2 0x5FB JUMPI DUP1 PUSH4 0x23B872DD EQ PUSH2 0x610 JUMPI DUP1 PUSH4 0x24D64CA2 EQ PUSH2 0x630 JUMPI DUP1 PUSH4 0x2966BEF0 EQ PUSH2 0x645 JUMPI PUSH1 0x0 DUP1 REVERT JUMPDEST DUP1 PUSH4 0x1FFC9A7 EQ PUSH2 0x38A JUMPI DUP1 PUSH4 0x3685169 EQ PUSH2 0x3BF JUMPI DUP1 PUSH4 0x6FDDE03 EQ PUSH2 0x42C JUMPI DUP1 PUSH4 0x81812FC EQ PUSH2 0x44E JUMPI DUP1 PUSH4 0x95EA7B3 EQ PUSH2 0x486 JUMPI DUP1 PUSH4 0xC53C51C EQ PUSH2 0x4A8 JUMPI DUP1 PUSH4 0xF7E5970 EQ PUSH2 0x4BB JUMPI DUP1 PUSH4 0x109F7561 EQ PUSH2 0x4E8 JUMPI JUMPDEST PUSH1 0x0 DUP1 REVERT JUMPDEST CALLVALUE DUP1 ISZERO PUSH2 0x396 JUMPI PUSH1 0x0 DUP1 REVERT JUMPDEST POP PUSH2 0x3AA PUSH2 0x3A5 CALLDATASIZE PUSH1 0x4 PUSH2 0x45EB JUMP JUMPDEST PUSH2 0xD57 JUMP JUMPDEST PUSH1 0x40 MLOAD SWAP1 ISZERO ISZERO DUP2 MSTORE PUSH1 0x20 ADD JUMPDEST PUSH1 0x40 MLOAD DUP1 SWAP2 SUB SWAP1 RETURN JUMPDEST CALLVALUE DUP1 ISZERO PUSH2 0x3CB JUMPI PUSH1 0x0 DUP1 REVERT JUMPDEST POP PUSH2 0x3DF PUSH2 0x3DA CALLDATASIZE PUSH1 0x4 PUSH2 0x4624 JUMP JUMPDEST PUSH2 0xD82 JUMP JUMPDEST PUSH1 0x40 MLOAD PUSH2 0x3B6 SWAP2 SWAP1 PUSH1 0x0 PUSH1 0xC0 DUP3 ADD SWAP1 POP DUP3 MLOAD DUP3 MSTORE PUSH1 0x20 DUP4 ADD MLOAD PUSH1 0x20 DUP4 ADD MSTORE PUSH1 0x40 DUP4 ADD MLOAD PUSH1 0x40 DUP4 ADD MSTORE PUSH1 0x60 DUP4 ADD MLOAD PUSH1 0x60 DUP4 ADD MSTORE PUSH1 0x80 DUP4 ADD MLOAD MLOAD PUSH1 0x80 DUP4 ADD MSTORE PUSH1 0xA0 DUP4 ADD MLOAD PUSH1 0xA0 DUP4 ADD MSTORE SWAP3 SWAP2 POP POP JUMP JUMPDEST CALLVALUE DUP1 ISZERO PUSH2 0x438 JUMPI PUSH1 0x0 DUP1 REVERT JUMPDEST POP PUSH2 0x441 PUSH2 0xF31 JUMP JUMPDEST PUSH1 0x40 MLOAD PUSH2 0x3B6 SWAP2 SWAP1 PUSH2 0x46A6 JUMP JUMPDEST CALLVALUE DUP1 ISZERO PUSH2 0x45A JUMPI PUSH1 0x0 DUP1 REVERT JUMPDEST POP PUSH2 0x46E PUSH2 0x469 CALLDATASIZE PUSH1 0x4 PUSH2 0x46B9 JUMP JUMPDEST PUSH2 0xFC3 JUMP JUMPDEST PUSH1 0x40 MLOAD PUSH1 0x1 PUSH1 0x1 PUSH1 0xA0 SHL SUB SWAP1 SWAP2 AND DUP2 MSTORE PUSH1 0x20 ADD PUSH2 0x3B6 JUMP JUMPDEST CALLVALUE DUP1 ISZERO PUSH2 0x492 JUMPI PUSH1 0x0 DUP1 REVERT JUMPDEST POP PUSH2 0x4A6 PUSH2 0x4A1 CALLDATASIZE PUSH1 0x4 PUSH2 0x4624 JUMP JUMPDEST PUSH2 0x1050 JUMP JUMPDEST STOP JUMPDEST PUSH2 0x441 PUSH2 0x4B6 CALLDATASIZE PUSH1 0x4 PUSH2 0x479D JUMP JUMPDEST PUSH2 0x1172 JUMP JUMPDEST CALLVALUE DUP1 ISZERO PUSH2 0x4C7 JUMPI PUSH1 0x0 DUP1 REVERT JUMPDEST POP PUSH2 0x441 PUSH1 0x40 MLOAD DUP1 PUSH1 0x40 ADD PUSH1 0x40 MSTORE DUP1 PUSH1 0x1 DUP2 MSTORE PUSH1 0x20 ADD PUSH1 0x31 PUSH1 0xF8 SHL DUP2 MSTORE POP DUP2 JUMP JUMPDEST CALLVALUE DUP1 ISZERO PUSH2 0x4F4 JUMPI PUSH1 0x0 DUP1 REVERT JUMPDEST POP PUSH2 0x4A6 PUSH2 0x503 CALLDATASIZE PUSH1 0x4 PUSH2 0x46B9 JUMP JUMPDEST PUSH2 0x135E JUMP JUMPDEST CALLVALUE DUP1 ISZERO PUSH2 0x514 JUMPI PUSH1 0x0 DUP1 REVERT JUMPDEST POP PUSH2 0x534 PUSH2 0x523 CALLDATASIZE PUSH1 0x4 PUSH2 0x4818 JUMP JUMPDEST PUSH4 0x785CF2DD PUSH1 0xE1 SHL SWAP6 SWAP5 POP POP POP POP POP JUMP JUMPDEST PUSH1 0x40 MLOAD PUSH1 0x1 PUSH1 0x1 PUSH1 0xE0 SHL SUB NOT SWAP1 SWAP2 AND DUP2 MSTORE PUSH1 0x20 ADD PUSH2 0x3B6 JUMP JUMPDEST CALLVALUE DUP1 ISZERO PUSH2 0x559 JUMPI PUSH1 0x0 DUP1 REVERT JUMPDEST POP PUSH1 0x8 SLOAD JUMPDEST PUSH1 0x40 MLOAD SWAP1 DUP2 MSTORE PUSH1 0x20 ADD PUSH2 0x3B6 JUMP JUMPDEST CALLVALUE DUP1 ISZERO PUSH2 0x578 JUMPI PUSH1 0x0 DUP1 REVERT JUMPDEST POP PUSH2 0x5A6 PUSH2 0x587 CALLDATASIZE PUSH1 0x4 PUSH2 0x46B9 JUMP JUMPDEST PUSH1 0x0 SWAP1 DUP2 MSTORE PUSH1 0x18 PUSH1 0x20 SWAP1 DUP2 MSTORE PUSH1 0x40 DUP1 DUP4 KECCAK256 SLOAD PUSH1 0x19 SWAP1 SWAP3 MSTORE SWAP1 SWAP2 KECCAK256 SLOAD SWAP1 SWAP2 JUMP JUMPDEST PUSH1 0x40 DUP1 MLOAD SWAP3 DUP4 MSTORE PUSH1 0x20 DUP4 ADD SWAP2 SWAP1 SWAP2 MSTORE ADD PUSH2 0x3B6 JUMP JUMPDEST CALLVALUE DUP1 ISZERO PUSH2 0x5C7 JUMPI PUSH1 0x0 DUP1 REVERT JUMPDEST POP PUSH2 0x4A6 PUSH2 0x5D6 CALLDATASIZE PUSH1 0x4 PUSH2 0x48B2 JUMP JUMPDEST PUSH2 0x13AF JUMP JUMPDEST CALLVALUE DUP1 ISZERO PUSH2 0x5E7 JUMPI PUSH1 0x0 DUP1 REVERT JUMPDEST POP PUSH2 0x4A6 PUSH2 0x5F6 CALLDATASIZE PUSH1 0x4 PUSH2 0x48DE JUMP JUMPDEST PUSH2 0x151B JUMP JUMPDEST CALLVALUE DUP1 ISZERO PUSH2 0x607 JUMPI PUSH1 0x0 DUP1 REVERT JUMPDEST POP PUSH1 0xB SLOAD PUSH2 0x55E JUMP JUMPDEST CALLVALUE DUP1 ISZERO PUSH2 0x61C JUMPI PUSH1 0x0 DUP1 REVERT JUMPDEST POP PUSH2 0x4A6 PUSH2 0x62B CALLDATASIZE PUSH1 0x4 PUSH2 0x48F9 JUMP JUMPDEST PUSH2 0x15AF JUMP JUMPDEST CALLVALUE DUP1 ISZERO PUSH2 0x63C JUMPI PUSH1 0x0 DUP1 REVERT JUMPDEST POP PUSH1 0x15 SLOAD PUSH2 0x55E JUMP JUMPDEST CALLVALUE DUP1 ISZERO PUSH2 0x651 JUMPI PUSH1 0x0 DUP1 REVERT JUMPDEST POP PUSH2 0x4A6 PUSH2 0x660 CALLDATASIZE PUSH1 0x4 PUSH2 0x4935 JUMP JUMPDEST PUSH2 0x15E7 JUMP JUMPDEST CALLVALUE DUP1 ISZERO PUSH2 0x671 JUMPI PUSH1 0x0 DUP1 REVERT JUMPDEST POP PUSH2 0x55E PUSH2 0x680 CALLDATASIZE PUSH1 0x4 PUSH2 0x48DE JUMP JUMPDEST PUSH1 0x1 PUSH1 0x1 PUSH1 0xA0 SHL SUB AND PUSH1 0x0 SWAP1 DUP2 MSTORE PUSH1 0xC PUSH1 0x20 MSTORE PUSH1 0x40 SWAP1 KECCAK256 SLOAD SWAP1 JUMP JUMPDEST CALLVALUE DUP1 ISZERO PUSH2 0x6A7 JUMPI PUSH1 0x0 DUP1 REVERT JUMPDEST POP PUSH2 0x55E PUSH2 0x6B6 CALLDATASIZE PUSH1 0x4 PUSH2 0x4624 JUMP JUMPDEST PUSH2 0x171F JUMP JUMPDEST CALLVALUE DUP1 ISZERO PUSH2 0x6C7 JUMPI PUSH1 0x0 DUP1 REVERT JUMPDEST POP PUSH2 0x55E PUSH2 0x6D6 CALLDATASIZE PUSH1 0x4 PUSH2 0x46B9 JUMP JUMPDEST PUSH1 0x0 SWAP1 DUP2 MSTORE PUSH1 0x24 PUSH1 0x20 MSTORE PUSH1 0x40 SWAP1 KECCAK256 SLOAD SWAP1 JUMP JUMPDEST CALLVALUE DUP1 ISZERO PUSH2 0x6F4 JUMPI PUSH1 0x0 DUP1 REVERT JUMPDEST POP CHAINID PUSH2 0x55E JUMP JUMPDEST CALLVALUE DUP1 ISZERO PUSH2 0x707 JUMPI PUSH1 0x0 DUP1 REVERT JUMPDEST POP PUSH2 0x4A6 PUSH2 0x716 CALLDATASIZE PUSH1 0x4 PUSH2 0x46B9 JUMP JUMPDEST PUSH2 0x17B5 JUMP JUMPDEST CALLVALUE DUP1 ISZERO PUSH2 0x727 JUMPI PUSH1 0x0 DUP1 REVERT JUMPDEST POP PUSH2 0x4A6 PUSH2 0x736 CALLDATASIZE PUSH1 0x4 PUSH2 0x46B9 JUMP JUMPDEST PUSH2 0x17DD JUMP JUMPDEST CALLVALUE DUP1 ISZERO PUSH2 0x747 JUMPI PUSH1 0x0 DUP1 REVERT JUMPDEST POP PUSH2 0x4A6 PUSH2 0x756 CALLDATASIZE PUSH1 0x4 PUSH2 0x48F9 JUMP JUMPDEST PUSH2 0x187D JUMP JUMPDEST CALLVALUE DUP1 ISZERO PUSH2 0x767 JUMPI PUSH1 0x0 DUP1 REVERT JUMPDEST POP PUSH2 0x4A6 PUSH2 0x776 CALLDATASIZE PUSH1 0x4 PUSH2 0x46B9 JUMP JUMPDEST PUSH2 0x1898 JUMP JUMPDEST CALLVALUE DUP1 ISZERO PUSH2 0x787 JUMPI PUSH1 0x0 DUP1 REVERT JUMPDEST POP PUSH1 0x10 SLOAD PUSH2 0x46E SWAP1 PUSH1 0x1 PUSH1 0x1 PUSH1 0xA0 SHL SUB AND DUP2 JUMP JUMPDEST CALLVALUE DUP1 ISZERO PUSH2 0x7A7 JUMPI PUSH1 0x0 DUP1 REVERT JUMPDEST POP PUSH1 0x16 SLOAD PUSH2 0x55E JUMP JUMPDEST CALLVALUE DUP1 ISZERO PUSH2 0x7BC JUMPI PUSH1 0x0 DUP1 REVERT JUMPDEST POP PUSH2 0x4A6 PUSH2 0x7CB CALLDATASIZE PUSH1 0x4 PUSH2 0x4988 JUMP JUMPDEST PUSH2 0x1961 JUMP JUMPDEST CALLVALUE DUP1 ISZERO PUSH2 0x7DC JUMPI PUSH1 0x0 DUP1 REVERT JUMPDEST POP PUSH2 0x55E PUSH2 0x7EB CALLDATASIZE PUSH1 0x4 PUSH2 0x46B9 JUMP JUMPDEST PUSH2 0x19C2 JUMP JUMPDEST CALLVALUE DUP1 ISZERO PUSH2 0x7FC JUMPI PUSH1 0x0 DUP1 REVERT JUMPDEST POP PUSH2 0x4A6 PUSH2 0x80B CALLDATASIZE PUSH1 0x4 PUSH2 0x48DE JUMP JUMPDEST PUSH2 0x1A55 JUMP JUMPDEST CALLVALUE DUP1 ISZERO PUSH2 0x81C JUMPI PUSH1 0x0 DUP1 REVERT JUMPDEST POP PUSH1 0x23 SLOAD PUSH1 0x1 PUSH1 0x1 PUSH1 0xA0 SHL SUB AND PUSH2 0x46E JUMP JUMPDEST CALLVALUE DUP1 ISZERO PUSH2 0x83A JUMPI PUSH1 0x0 DUP1 REVERT JUMPDEST POP PUSH2 0x4A6 PUSH2 0x849 CALLDATASIZE PUSH1 0x4 PUSH2 0x46B9 JUMP JUMPDEST PUSH2 0x1B52 JUMP JUMPDEST CALLVALUE DUP1 ISZERO PUSH2 0x85A JUMPI PUSH1 0x0 DUP1 REVERT JUMPDEST POP PUSH2 0x4A6 PUSH2 0x869 CALLDATASIZE PUSH1 0x4 PUSH2 0x49AA JUMP JUMPDEST PUSH2 0x1BA8 JUMP JUMPDEST CALLVALUE DUP1 ISZERO PUSH2 0x87A JUMPI PUSH1 0x0 DUP1 REVERT JUMPDEST POP PUSH2 0x4A6 PUSH2 0x889 CALLDATASIZE PUSH1 0x4 PUSH2 0x4A5E JUMP JUMPDEST PUSH2 0x1C69 JUMP JUMPDEST CALLVALUE DUP1 ISZERO PUSH2 0x89A JUMPI PUSH1 0x0 DUP1 REVERT JUMPDEST POP PUSH2 0x3AA PUSH2 0x8A9 CALLDATASIZE PUSH1 0x4 PUSH2 0x48DE JUMP JUMPDEST PUSH1 0x1E PUSH1 0x20 MSTORE PUSH1 0x0 SWAP1 DUP2 MSTORE PUSH1 0x40 SWAP1 KECCAK256 SLOAD PUSH1 0xFF AND DUP2 JUMP JUMPDEST CALLVALUE DUP1 ISZERO PUSH2 0x8CA JUMPI PUSH1 0x0 DUP1 REVERT JUMPDEST POP PUSH2 0x55E PUSH2 0x8D9 CALLDATASIZE PUSH1 0x4 PUSH2 0x4988 JUMP JUMPDEST PUSH2 0x1CCA JUMP JUMPDEST CALLVALUE DUP1 ISZERO PUSH2 0x8EA JUMPI PUSH1 0x0 DUP1 REVERT JUMPDEST POP PUSH2 0x46E PUSH2 0x8F9 CALLDATASIZE PUSH1 0x4 PUSH2 0x46B9 JUMP JUMPDEST PUSH2 0x1CF0 JUMP JUMPDEST CALLVALUE DUP1 ISZERO PUSH2 0x90A JUMPI PUSH1 0x0 DUP1 REVERT JUMPDEST POP PUSH2 0x4A6 PUSH2 0x919 CALLDATASIZE PUSH1 0x4 PUSH2 0x46B9 JUMP JUMPDEST PUSH2 0x1D67 JUMP JUMPDEST CALLVALUE DUP1 ISZERO PUSH2 0x92A JUMPI PUSH1 0x0 DUP1 REVERT JUMPDEST POP PUSH2 0x4A6 PUSH2 0x939 CALLDATASIZE PUSH1 0x4 PUSH2 0x4AA0 JUMP JUMPDEST PUSH2 0x1DB8 JUMP JUMPDEST CALLVALUE DUP1 ISZERO PUSH2 0x94A JUMPI PUSH1 0x0 DUP1 REVERT JUMPDEST POP PUSH2 0x55E PUSH2 0x959 CALLDATASIZE PUSH1 0x4 PUSH2 0x48DE JUMP JUMPDEST PUSH2 0x1E45 JUMP JUMPDEST CALLVALUE DUP1 ISZERO PUSH2 0x96A JUMPI PUSH1 0x0 DUP1 REVERT JUMPDEST POP PUSH2 0x4A6 PUSH2 0x1ECC JUMP JUMPDEST CALLVALUE DUP1 ISZERO PUSH2 0x97F JUMPI PUSH1 0x0 DUP1 REVERT JUMPDEST POP PUSH2 0x55E PUSH2 0x98E CALLDATASIZE PUSH1 0x4 PUSH2 0x48DE JUMP JUMPDEST PUSH2 0x1F55 JUMP JUMPDEST CALLVALUE DUP1 ISZERO PUSH2 0x99F JUMPI PUSH1 0x0 DUP1 REVERT JUMPDEST POP PUSH2 0x4A6 PUSH2 0x9AE CALLDATASIZE PUSH1 0x4 PUSH2 0x4AD7 JUMP JUMPDEST PUSH2 0x206E JUMP JUMPDEST CALLVALUE DUP1 ISZERO PUSH2 0x9BF JUMPI PUSH1 0x0 DUP1 REVERT JUMPDEST POP PUSH2 0x3AA PUSH2 0x9CE CALLDATASIZE PUSH1 0x4 PUSH2 0x48DE JUMP JUMPDEST PUSH1 0x1 PUSH1 0x1 PUSH1 0xA0 SHL SUB AND PUSH1 0x0 SWAP1 DUP2 MSTORE PUSH1 0x1E PUSH1 0x20 MSTORE PUSH1 0x40 SWAP1 KECCAK256 SLOAD PUSH1 0xFF AND SWAP1 JUMP JUMPDEST CALLVALUE DUP1 ISZERO PUSH2 0x9F8 JUMPI PUSH1 0x0 DUP1 REVERT JUMPDEST POP PUSH2 0xA0C PUSH2 0xA07 CALLDATASIZE PUSH1 0x4 PUSH2 0x46B9 JUMP JUMPDEST PUSH2 0x20C0 JUMP JUMPDEST PUSH1 0x40 MLOAD PUSH2 0x3B6 SWAP2 SWAP1 PUSH1 0x0 PUSH2 0x160 DUP3 ADD SWAP1 POP DUP3 MLOAD DUP3 MSTORE PUSH1 0x20 DUP4 ADD MLOAD PUSH1 0x20 DUP4 ADD MSTORE PUSH1 0x40 DUP4 ADD MLOAD PUSH1 0x40 DUP4 ADD MSTORE PUSH1 0x60 DUP4 ADD MLOAD PUSH1 0x60 DUP4 ADD MSTORE PUSH1 0x80 DUP4 ADD MLOAD PUSH1 0x80 DUP4 ADD MSTORE PUSH1 0xA0 DUP4 ADD MLOAD PUSH1 0xA0 DUP4 ADD MSTORE PUSH1 0xC0 DUP4 ADD MLOAD PUSH1 0xC0 DUP4 ADD MSTORE PUSH1 0xE0 DUP4 ADD MLOAD PUSH1 0xE0 DUP4 ADD MSTORE PUSH2 0x100 DUP1 DUP5 ADD MLOAD DUP2 DUP5 ADD MSTORE POP PUSH2 0x120 DUP1 DUP5 ADD MLOAD DUP2 DUP5 ADD MSTORE POP PUSH2 0x140 DUP1 DUP5 ADD MLOAD DUP2 DUP5 ADD MSTORE POP SWAP3 SWAP2 POP POP JUMP JUMPDEST CALLVALUE DUP1 ISZERO PUSH2 0xA9D JUMPI PUSH1 0x0 DUP1 REVERT JUMPDEST POP PUSH1 0x1A SLOAD PUSH1 0x1 PUSH1 0x1 PUSH1 0xA0 SHL SUB AND PUSH2 0x46E JUMP JUMPDEST CALLVALUE DUP1 ISZERO PUSH2 0xABB JUMPI PUSH1 0x0 DUP1 REVERT JUMPDEST POP PUSH2 0x55E PUSH1 0xF SLOAD DUP2 JUMP JUMPDEST CALLVALUE DUP1 ISZERO PUSH2 0xAD1 JUMPI PUSH1 0x0 DUP1 REVERT JUMPDEST POP PUSH2 0x46E PUSH2 0x21F0 JUMP JUMPDEST CALLVALUE DUP1 ISZERO PUSH2 0xAE6 JUMPI PUSH1 0x0 DUP1 REVERT JUMPDEST POP PUSH2 0x55E PUSH2 0xAF5 CALLDATASIZE PUSH1 0x4 PUSH2 0x4AF4 JUMP JUMPDEST PUSH2 0x21FF JUMP JUMPDEST CALLVALUE DUP1 ISZERO PUSH2 0xB06 JUMPI PUSH1 0x0 DUP1 REVERT JUMPDEST POP PUSH2 0x441 PUSH2 0x24AE JUMP JUMPDEST CALLVALUE DUP1 ISZERO PUSH2 0xB1B JUMPI PUSH1 0x0 DUP1 REVERT JUMPDEST POP PUSH2 0x55E PUSH2 0x24BD JUMP JUMPDEST CALLVALUE DUP1 ISZERO PUSH2 0xB30 JUMPI PUSH1 0x0 DUP1 REVERT JUMPDEST POP PUSH2 0x4A6 PUSH2 0xB3F CALLDATASIZE PUSH1 0x4 PUSH2 0x4AA0 JUMP JUMPDEST PUSH2 0x24D3 JUMP JUMPDEST CALLVALUE DUP1 ISZERO PUSH2 0xB50 JUMPI PUSH1 0x0 DUP1 REVERT JUMPDEST POP PUSH2 0x55E PUSH2 0xB5F CALLDATASIZE PUSH1 0x4 PUSH2 0x48DE JUMP JUMPDEST PUSH2 0x25D0 JUMP JUMPDEST CALLVALUE DUP1 ISZERO PUSH2 0xB70 JUMPI PUSH1 0x0 DUP1 REVERT JUMPDEST POP PUSH1 0x14 SLOAD PUSH2 0x55E JUMP JUMPDEST CALLVALUE DUP1 ISZERO PUSH2 0xB85 JUMPI PUSH1 0x0 DUP1 REVERT JUMPDEST POP PUSH2 0x4A6 PUSH2 0xB94 CALLDATASIZE PUSH1 0x4 PUSH2 0x4B27 JUMP JUMPDEST PUSH2 0x2648 JUMP JUMPDEST CALLVALUE DUP1 ISZERO PUSH2 0xBA5 JUMPI PUSH1 0x0 DUP1 REVERT JUMPDEST POP PUSH2 0x4A6 PUSH2 0xBB4 CALLDATASIZE PUSH1 0x4 PUSH2 0x4B69 JUMP JUMPDEST PUSH2 0x273E JUMP JUMPDEST CALLVALUE DUP1 ISZERO PUSH2 0xBC5 JUMPI PUSH1 0x0 DUP1 REVERT JUMPDEST POP PUSH2 0x4A6 PUSH2 0x277D JUMP JUMPDEST CALLVALUE DUP1 ISZERO PUSH2 0xBDA JUMPI PUSH1 0x0 DUP1 REVERT JUMPDEST POP PUSH2 0xC0A PUSH2 0xBE9 CALLDATASIZE PUSH1 0x4 PUSH2 0x46B9 JUMP JUMPDEST PUSH1 0x1B SLOAD PUSH1 0x0 SWAP2 DUP3 MSTORE PUSH1 0x1C PUSH1 0x20 MSTORE PUSH1 0x40 SWAP1 SWAP2 KECCAK256 SLOAD PUSH1 0x1 PUSH1 0x1 PUSH1 0xA0 SHL SUB SWAP1 SWAP2 AND SWAP2 JUMP JUMPDEST PUSH1 0x40 MLOAD PUSH2 0x3B6 SWAP3 SWAP2 SWAP1 PUSH2 0x4BD0 JUMP JUMPDEST CALLVALUE DUP1 ISZERO PUSH2 0xC24 JUMPI PUSH1 0x0 DUP1 REVERT JUMPDEST POP PUSH2 0x4A6 PUSH2 0xC33 CALLDATASIZE PUSH1 0x4 PUSH2 0x48F9 JUMP JUMPDEST PUSH2 0x2794 JUMP JUMPDEST CALLVALUE DUP1 ISZERO PUSH2 0xC44 JUMPI PUSH1 0x0 DUP1 REVERT JUMPDEST POP PUSH2 0x55E PUSH2 0xC53 CALLDATASIZE PUSH1 0x4 PUSH2 0x4BE9 JUMP JUMPDEST PUSH2 0x29B8 JUMP JUMPDEST CALLVALUE DUP1 ISZERO PUSH2 0xC64 JUMPI PUSH1 0x0 DUP1 REVERT JUMPDEST POP PUSH2 0x441 PUSH2 0xC73 CALLDATASIZE PUSH1 0x4 PUSH2 0x46B9 JUMP JUMPDEST PUSH2 0x2DC5 JUMP JUMPDEST CALLVALUE DUP1 ISZERO PUSH2 0xC84 JUMPI PUSH1 0x0 DUP1 REVERT JUMPDEST POP PUSH2 0x441 PUSH2 0x2DFF JUMP JUMPDEST CALLVALUE DUP1 ISZERO PUSH2 0xC99 JUMPI PUSH1 0x0 DUP1 REVERT JUMPDEST POP PUSH2 0x4A6 PUSH2 0xCA8 CALLDATASIZE PUSH1 0x4 PUSH2 0x4C2B JUMP JUMPDEST PUSH2 0x2E27 JUMP JUMPDEST CALLVALUE DUP1 ISZERO PUSH2 0xCB9 JUMPI PUSH1 0x0 DUP1 REVERT JUMPDEST POP PUSH2 0x4A6 PUSH2 0xCC8 CALLDATASIZE PUSH1 0x4 PUSH2 0x48F9 JUMP JUMPDEST PUSH2 0x2FE3 JUMP JUMPDEST CALLVALUE DUP1 ISZERO PUSH2 0xCD9 JUMPI PUSH1 0x0 DUP1 REVERT JUMPDEST POP PUSH2 0x441 PUSH2 0x3061 JUMP JUMPDEST CALLVALUE DUP1 ISZERO PUSH2 0xCEE JUMPI PUSH1 0x0 DUP1 REVERT JUMPDEST POP PUSH2 0x3AA PUSH2 0xCFD CALLDATASIZE PUSH1 0x4 PUSH2 0x4C7A JUMP JUMPDEST PUSH2 0x3075 JUMP JUMPDEST CALLVALUE DUP1 ISZERO PUSH2 0xD0E JUMPI PUSH1 0x0 DUP1 REVERT JUMPDEST POP PUSH1 0xE SLOAD PUSH2 0x55E JUMP JUMPDEST CALLVALUE DUP1 ISZERO PUSH2 0xD23 JUMPI PUSH1 0x0 DUP1 REVERT JUMPDEST POP PUSH2 0x4A6 PUSH2 0xD32 CALLDATASIZE PUSH1 0x4 PUSH2 0x48DE JUMP JUMPDEST PUSH2 0x30A3 JUMP JUMPDEST CALLVALUE DUP1 ISZERO PUSH2 0xD43 JUMPI PUSH1 0x0 DUP1 REVERT JUMPDEST POP PUSH2 0x55E PUSH2 0xD52 CALLDATASIZE PUSH1 0x4 PUSH2 0x4CAD JUMP JUMPDEST PUSH2 0x31A3 JUMP JUMPDEST PUSH1 0x0 PUSH1 0x1 PUSH1 0x1 PUSH1 0xE0 SHL SUB NOT DUP3 AND PUSH4 0x780E9D63 PUSH1 0xE0 SHL EQ DUP1 PUSH2 0xD7C JUMPI POP PUSH2 0xD7C DUP3 PUSH2 0x332E JUMP JUMPDEST SWAP3 SWAP2 POP POP JUMP JUMPDEST PUSH2 0xD8A PUSH2 0x458B JUMP JUMPDEST PUSH1 0x0 DUP1 DUP1 DUP1 PUSH1 0x1 JUMPDEST PUSH1 0xE DUP2 SGT PUSH2 0xEA9 JUMPI PUSH1 0x1 PUSH1 0x1 PUSH1 0xA0 SHL SUB DUP9 AND PUSH1 0x0 SWAP1 DUP2 MSTORE PUSH1 0x27 PUSH1 0x20 SWAP1 DUP2 MSTORE PUSH1 0x40 DUP1 DUP4 KECCAK256 DUP11 DUP5 MSTORE DUP3 MSTORE DUP1 DUP4 KECCAK256 DUP5 DUP5 MSTORE SWAP1 SWAP2 MSTORE SWAP1 KECCAK256 SLOAD DUP1 ISZERO PUSH2 0xE96 JUMPI PUSH1 0x0 DUP2 DUP2 MSTORE PUSH1 0x26 PUSH1 0x20 SWAP1 DUP2 MSTORE PUSH1 0x40 SWAP2 DUP3 SWAP1 KECCAK256 DUP3 MLOAD PUSH2 0x160 DUP2 ADD DUP5 MSTORE DUP2 SLOAD DUP2 MSTORE PUSH1 0x1 DUP3 ADD SLOAD SWAP3 DUP2 ADD SWAP3 SWAP1 SWAP3 MSTORE PUSH1 0x2 DUP2 ADD SLOAD SWAP3 DUP3 ADD SWAP3 SWAP1 SWAP3 MSTORE PUSH1 0x3 DUP3 ADD SLOAD PUSH1 0x60 DUP3 ADD DUP2 SWAP1 MSTORE PUSH1 0x4 DUP4 ADD SLOAD PUSH1 0x80 DUP4 ADD MSTORE PUSH1 0x5 DUP4 ADD SLOAD PUSH1 0xA0 DUP4 ADD MSTORE PUSH1 0x6 DUP4 ADD SLOAD PUSH1 0xC0 DUP4 ADD MSTORE PUSH1 0x7 DUP4 ADD SLOAD PUSH1 0xE0 DUP4 ADD MSTORE PUSH1 0x8 DUP4 ADD SLOAD PUSH2 0x100 DUP4 ADD MSTORE PUSH1 0x9 DUP4 ADD SLOAD PUSH2 0x120 DUP4 ADD MSTORE PUSH1 0xA SWAP1 SWAP3 ADD SLOAD PUSH2 0x140 DUP3 ADD MSTORE SWAP1 PUSH2 0xE64 SWAP1 DUP9 PUSH2 0x4D07 JUMP JUMPDEST SWAP7 POP DUP1 PUSH1 0x80 ADD MLOAD DUP7 PUSH2 0xE76 SWAP2 SWAP1 PUSH2 0x4D07 JUMP JUMPDEST SWAP6 POP DUP1 PUSH1 0x40 ADD MLOAD DUP6 PUSH2 0xE88 SWAP2 SWAP1 PUSH2 0x4D07 JUMP JUMPDEST SWAP5 POP DUP1 PUSH2 0x120 ADD MLOAD DUP5 OR SWAP4 POP POP JUMPDEST POP DUP1 PUSH2 0xEA1 DUP2 PUSH2 0x4D1F JUMP JUMPDEST SWAP2 POP POP PUSH2 0xD92 JUMP JUMPDEST POP PUSH1 0x40 MLOAD DUP1 PUSH1 0xC0 ADD PUSH1 0x40 MSTORE DUP1 DUP6 PUSH1 0x1 PUSH2 0xEC2 SWAP2 SWAP1 PUSH2 0x4D07 JUMP JUMPDEST DUP2 MSTORE PUSH1 0x20 ADD PUSH2 0xED2 DUP6 PUSH1 0x1 PUSH2 0x4D07 JUMP JUMPDEST DUP2 MSTORE PUSH1 0x20 ADD PUSH2 0xEE2 DUP5 PUSH1 0x1 PUSH2 0x4D07 JUMP JUMPDEST DUP2 MSTORE PUSH1 0x20 DUP1 DUP3 ADD SWAP4 SWAP1 SWAP4 MSTORE PUSH1 0x1 PUSH1 0x1 PUSH1 0xA0 SHL SUB SWAP9 SWAP1 SWAP9 AND PUSH1 0x0 SWAP1 DUP2 MSTORE PUSH1 0x28 DUP4 MSTORE PUSH1 0x40 DUP1 DUP3 KECCAK256 SWAP9 DUP3 MSTORE SWAP8 DUP4 MSTORE DUP8 SWAP1 KECCAK256 DUP8 MLOAD SWAP3 DUP4 ADD DUP9 MSTORE SLOAD DUP3 MSTORE SWAP6 DUP8 ADD MSTORE POP POP PUSH1 0x6 PUSH1 0x60 SWAP1 SWAP5 ADD SWAP4 SWAP1 SWAP4 MSTORE POP SWAP2 SWAP1 POP JUMP JUMPDEST PUSH1 0x60 PUSH1 0x0 DUP1 SLOAD PUSH2 0xF40 SWAP1 PUSH2 0x4D3E JUMP JUMPDEST DUP1 PUSH1 0x1F ADD PUSH1 0x20 DUP1 SWAP2 DIV MUL PUSH1 0x20 ADD PUSH1 0x40 MLOAD SWAP1 DUP2 ADD PUSH1 0x40 MSTORE DUP1 SWAP3 SWAP2 SWAP1 DUP2 DUP2 MSTORE PUSH1 0x20 ADD DUP3 DUP1 SLOAD PUSH2 0xF6C SWAP1 PUSH2 0x4D3E JUMP JUMPDEST DUP1 ISZERO PUSH2 0xFB9 JUMPI DUP1 PUSH1 0x1F LT PUSH2 0xF8E JUMPI PUSH2 0x100 DUP1 DUP4 SLOAD DIV MUL DUP4 MSTORE SWAP2 PUSH1 0x20 ADD SWAP2 PUSH2 0xFB9 JUMP JUMPDEST DUP3 ADD SWAP2 SWAP1 PUSH1 0x0 MSTORE PUSH1 0x20 PUSH1 0x0 KECCAK256 SWAP1 JUMPDEST DUP2 SLOAD DUP2 MSTORE SWAP1 PUSH1 0x1 ADD SWAP1 PUSH1 0x20 ADD DUP1 DUP4 GT PUSH2 0xF9C JUMPI DUP3 SWAP1 SUB PUSH1 0x1F AND DUP3 ADD SWAP2 JUMPDEST POP POP POP POP POP SWAP1 POP SWAP1 JUMP JUMPDEST PUSH1 0x0 PUSH2 0xFCE DUP3 PUSH2 0x337E JUMP JUMPDEST PUSH2 0x1034 JUMPI PUSH1 0x40 MLOAD PUSH3 0x461BCD PUSH1 0xE5 SHL DUP2 MSTORE PUSH1 0x20 PUSH1 0x4 DUP3 ADD MSTORE PUSH1 0x2C PUSH1 0x24 DUP3 ADD MSTORE PUSH32 0x4552433732313A20617070726F76656420717565727920666F72206E6F6E6578 PUSH1 0x44 DUP3 ADD MSTORE PUSH12 0x34B9BA32B73A103A37B5B2B7 PUSH1 0xA1 SHL PUSH1 0x64 DUP3 ADD MSTORE PUSH1 0x84 ADD JUMPDEST PUSH1 0x40 MLOAD DUP1 SWAP2 SUB SWAP1 REVERT JUMPDEST POP PUSH1 0x0 SWAP1 DUP2 MSTORE PUSH1 0x4 PUSH1 0x20 MSTORE PUSH1 0x40 SWAP1 KECCAK256 SLOAD PUSH1 0x1 PUSH1 0x1 PUSH1 0xA0 SHL SUB AND SWAP1 JUMP JUMPDEST PUSH1 0x0 PUSH2 0x105B DUP3 PUSH2 0x1CF0 JUMP JUMPDEST SWAP1 POP DUP1 PUSH1 0x1 PUSH1 0x1 PUSH1 0xA0 SHL SUB AND DUP4 PUSH1 0x1 PUSH1 0x1 PUSH1 0xA0 SHL SUB AND SUB PUSH2 0x10C8 JUMPI PUSH1 0x40 MLOAD PUSH3 0x461BCD PUSH1 0xE5 SHL DUP2 MSTORE PUSH1 0x20 PUSH1 0x4 DUP3 ADD MSTORE PUSH1 0x21 PUSH1 0x24 DUP3 ADD MSTORE PUSH32 0x4552433732313A20617070726F76616C20746F2063757272656E74206F776E65 PUSH1 0x44 DUP3 ADD MSTORE PUSH1 0x39 PUSH1 0xF9 SHL PUSH1 0x64 DUP3 ADD MSTORE PUSH1 0x84 ADD PUSH2 0x102B JUMP JUMPDEST DUP1 PUSH1 0x1 PUSH1 0x1 PUSH1 0xA0 SHL SUB AND PUSH2 0x10DA PUSH2 0x339B JUMP JUMPDEST PUSH1 0x1 PUSH1 0x1 PUSH1 0xA0 SHL SUB AND EQ DUP1 PUSH2 0x10F6 JUMPI POP PUSH2 0x10F6 DUP2 PUSH2 0xCFD PUSH2 0x339B JUMP JUMPDEST PUSH2 0x1163 JUMPI PUSH1 0x40 MLOAD PUSH3 0x461BCD PUSH1 0xE5 SHL DUP2 MSTORE PUSH1 0x20 PUSH1 0x4 DUP3 ADD MSTORE PUSH1 0x38 PUSH1 0x24 DUP3 ADD MSTORE PUSH32 0x4552433732313A20617070726F76652063616C6C6572206973206E6F74206F77 PUSH1 0x44 DUP3 ADD MSTORE PUSH24 0x1B995C881B9BDC88185C1C1C9BDD995908199BDC88185B1B PUSH1 0x42 SHL PUSH1 0x64 DUP3 ADD MSTORE PUSH1 0x84 ADD PUSH2 0x102B JUMP JUMPDEST PUSH2 0x116D DUP4 DUP4 PUSH2 0x33A5 JUMP JUMPDEST POP POP POP JUMP JUMPDEST PUSH1 0x40 DUP1 MLOAD PUSH1 0x60 DUP2 DUP2 ADD DUP4 MSTORE PUSH1 0x1 PUSH1 0x1 PUSH1 0xA0 SHL SUB DUP9 AND PUSH1 0x0 DUP2 DUP2 MSTORE PUSH1 0xC PUSH1 0x20 SWAP1 DUP2 MSTORE SWAP1 DUP6 SWAP1 KECCAK256 SLOAD DUP5 MSTORE DUP4 ADD MSTORE SWAP2 DUP2 ADD DUP7 SWAP1 MSTORE PUSH2 0x11B0 DUP8 DUP3 DUP8 DUP8 DUP8 PUSH2 0x3413 JUMP JUMPDEST PUSH2 0x1206 JUMPI PUSH1 0x40 MLOAD PUSH3 0x461BCD PUSH1 0xE5 SHL DUP2 MSTORE PUSH1 0x20 PUSH1 0x4 DUP3 ADD MSTORE PUSH1 0x21 PUSH1 0x24 DUP3 ADD MSTORE PUSH32 0x5369676E657220616E64207369676E617475726520646F206E6F74206D617463 PUSH1 0x44 DUP3 ADD MSTORE PUSH1 0xD PUSH1 0xFB SHL PUSH1 0x64 DUP3 ADD MSTORE PUSH1 0x84 ADD PUSH2 0x102B JUMP JUMPDEST PUSH1 0x1 PUSH1 0x1 PUSH1 0xA0 SHL SUB DUP8 AND PUSH1 0x0 SWAP1 DUP2 MSTORE PUSH1 0xC PUSH1 0x20 MSTORE PUSH1 0x40 SWAP1 KECCAK256 SLOAD PUSH2 0x122A SWAP1 PUSH1 0x1 PUSH2 0x3503 JUMP JUMPDEST PUSH1 0x1 PUSH1 0x1 PUSH1 0xA0 SHL SUB DUP9 AND PUSH1 0x0 SWAP1 DUP2 MSTORE PUSH1 0xC PUSH1 0x20 MSTORE PUSH1 0x40 SWAP1 DUP2 SWAP1 KECCAK256 SWAP2 SWAP1 SWAP2 SSTORE MLOAD PUSH32 0x5845892132946850460BFF5A0083F71031BC5BF9AADCD40F1DE79423EAC9B10B SWAP1 PUSH2 0x127A SWAP1 DUP10 SWAP1 CALLER SWAP1 DUP11 SWAP1 PUSH2 0x4D78 JUMP JUMPDEST PUSH1 0x40 MLOAD DUP1 SWAP2 SUB SWAP1 LOG1 PUSH1 0x0 DUP1 ADDRESS PUSH1 0x1 PUSH1 0x1 PUSH1 0xA0 SHL SUB AND DUP9 DUP11 PUSH1 0x40 MLOAD PUSH1 0x20 ADD PUSH2 0x12A2 SWAP3 SWAP2 SWAP1 PUSH2 0x4DA4 JUMP JUMPDEST PUSH1 0x40 DUP1 MLOAD PUSH1 0x1F NOT DUP2 DUP5 SUB ADD DUP2 MSTORE SWAP1 DUP3 SWAP1 MSTORE PUSH2 0x12BC SWAP2 PUSH2 0x4DDB JUMP JUMPDEST PUSH1 0x0 PUSH1 0x40 MLOAD DUP1 DUP4 SUB DUP2 PUSH1 0x0 DUP7 GAS CALL SWAP2 POP POP RETURNDATASIZE DUP1 PUSH1 0x0 DUP2 EQ PUSH2 0x12F9 JUMPI PUSH1 0x40 MLOAD SWAP2 POP PUSH1 0x1F NOT PUSH1 0x3F RETURNDATASIZE ADD AND DUP3 ADD PUSH1 0x40 MSTORE RETURNDATASIZE DUP3 MSTORE RETURNDATASIZE PUSH1 0x0 PUSH1 0x20 DUP5 ADD RETURNDATACOPY PUSH2 0x12FE JUMP JUMPDEST PUSH1 0x60 SWAP2 POP JUMPDEST POP SWAP2 POP SWAP2 POP DUP2 PUSH2 0x1350 JUMPI PUSH1 0x40 MLOAD PUSH3 0x461BCD PUSH1 0xE5 SHL DUP2 MSTORE PUSH1 0x20 PUSH1 0x4 DUP3 ADD MSTORE PUSH1 0x1C PUSH1 0x24 DUP3 ADD MSTORE PUSH32 0x46756E6374696F6E2063616C6C206E6F74207375636365737366756C00000000 PUSH1 0x44 DUP3 ADD MSTORE PUSH1 0x64 ADD PUSH2 0x102B JUMP JUMPDEST SWAP3 POP POP POP JUMPDEST SWAP6 SWAP5 POP POP POP POP POP JUMP JUMPDEST PUSH2 0x1366 PUSH2 0x21F0 JUMP JUMPDEST PUSH1 0x1 PUSH1 0x1 PUSH1 0xA0 SHL SUB AND PUSH2 0x1377 PUSH2 0x32D2 JUMP JUMPDEST PUSH1 0x1 PUSH1 0x1 PUSH1 0xA0 SHL SUB AND EQ DUP1 PUSH2 0x13A1 JUMPI POP PUSH2 0x138F PUSH2 0x32D2 JUMP JUMPDEST PUSH1 0x10 SLOAD PUSH1 0x1 PUSH1 0x1 PUSH1 0xA0 SHL SUB SWAP1 DUP2 AND SWAP2 AND EQ JUMPDEST PUSH2 0x13AA JUMPI PUSH1 0x0 DUP1 REVERT JUMPDEST PUSH1 0x15 SSTORE JUMP JUMPDEST PUSH1 0x2 PUSH1 0x11 SLOAD SUB PUSH2 0x13D1 JUMPI PUSH1 0x40 MLOAD PUSH3 0x461BCD PUSH1 0xE5 SHL DUP2 MSTORE PUSH1 0x4 ADD PUSH2 0x102B SWAP1 PUSH2 0x4DF7 JUMP JUMPDEST PUSH1 0x2 PUSH1 0x11 SSTORE PUSH1 0x1A SLOAD PUSH1 0x0 SWAP1 PUSH1 0x1 PUSH1 0x1 PUSH1 0xA0 SHL SUB AND PUSH4 0xDD62ED3E PUSH2 0x13F2 PUSH2 0x32D2 JUMP JUMPDEST PUSH1 0x40 MLOAD PUSH1 0x1 PUSH1 0x1 PUSH1 0xE0 SHL SUB NOT PUSH1 0xE0 DUP5 SWAP1 SHL AND DUP2 MSTORE PUSH1 0x1 PUSH1 0x1 PUSH1 0xA0 SHL SUB SWAP1 SWAP2 AND PUSH1 0x4 DUP3 ADD MSTORE ADDRESS PUSH1 0x24 DUP3 ADD MSTORE PUSH1 0x44 ADD PUSH1 0x20 PUSH1 0x40 MLOAD DUP1 DUP4 SUB DUP2 DUP7 GAS STATICCALL ISZERO DUP1 ISZERO PUSH2 0x143C JUMPI RETURNDATASIZE PUSH1 0x0 DUP1 RETURNDATACOPY RETURNDATASIZE PUSH1 0x0 REVERT JUMPDEST POP POP POP POP PUSH1 0x40 MLOAD RETURNDATASIZE PUSH1 0x1F NOT PUSH1 0x1F DUP3 ADD AND DUP3 ADD DUP1 PUSH1 0x40 MSTORE POP DUP2 ADD SWAP1 PUSH2 0x1460 SWAP2 SWAP1 PUSH2 0x4E2E JUMP JUMPDEST SWAP1 POP DUP3 DUP2 LT ISZERO PUSH2 0x14A0 JUMPI PUSH1 0x40 MLOAD PUSH3 0x461BCD PUSH1 0xE5 SHL DUP2 MSTORE PUSH1 0x20 PUSH1 0x4 DUP3 ADD MSTORE PUSH1 0xB PUSH1 0x24 DUP3 ADD MSTORE PUSH11 0x66696C6C47617354616E6B PUSH1 0xA8 SHL PUSH1 0x44 DUP3 ADD MSTORE PUSH1 0x64 ADD PUSH2 0x102B JUMP JUMPDEST PUSH2 0x14AA DUP3 DUP5 PUSH2 0x4E47 JUMP JUMPDEST PUSH1 0x0 DUP6 DUP2 MSTORE PUSH1 0x18 PUSH1 0x20 MSTORE PUSH1 0x40 DUP2 KECCAK256 DUP1 SLOAD SWAP1 SWAP2 SWAP1 PUSH2 0x14C8 SWAP1 DUP5 SWAP1 PUSH2 0x4D07 JUMP JUMPDEST SWAP1 SWAP2 SSTORE POP POP PUSH1 0x0 DUP5 DUP2 MSTORE PUSH1 0x19 PUSH1 0x20 MSTORE PUSH1 0x40 DUP2 KECCAK256 DUP1 SLOAD DUP5 SWAP3 SWAP1 PUSH2 0x14EB SWAP1 DUP5 SWAP1 PUSH2 0x4D07 JUMP JUMPDEST SWAP1 SWAP2 SSTORE POP PUSH2 0x1510 SWAP1 POP PUSH2 0x14FC PUSH2 0x32D2 JUMP JUMPDEST PUSH1 0x1A SLOAD PUSH1 0x1 PUSH1 0x1 PUSH1 0xA0 SHL SUB AND SWAP1 ADDRESS DUP7 PUSH2 0x350F JUMP JUMPDEST POP POP PUSH1 0x1 PUSH1 0x11 SSTORE POP POP JUMP JUMPDEST PUSH1 0x1 PUSH1 0x1 PUSH1 0xA0 SHL SUB DUP2 AND PUSH2 0x1541 JUMPI PUSH1 0x40 MLOAD PUSH3 0x461BCD PUSH1 0xE5 SHL DUP2 MSTORE PUSH1 0x4 ADD PUSH2 0x102B SWAP1 PUSH2 0x4E5E JUMP JUMPDEST PUSH2 0x1549 PUSH2 0x21F0 JUMP JUMPDEST PUSH1 0x1 PUSH1 0x1 PUSH1 0xA0 SHL SUB AND PUSH2 0x155A PUSH2 0x32D2 JUMP JUMPDEST PUSH1 0x1 PUSH1 0x1 PUSH1 0xA0 SHL SUB AND EQ DUP1 PUSH2 0x1584 JUMPI POP PUSH2 0x1572 PUSH2 0x32D2 JUMP JUMPDEST PUSH1 0x10 SLOAD PUSH1 0x1 PUSH1 0x1 PUSH1 0xA0 SHL SUB SWAP1 DUP2 AND SWAP2 AND EQ JUMPDEST PUSH2 0x158D JUMPI PUSH1 0x0 DUP1 REVERT JUMPDEST PUSH1 0x1A DUP1 SLOAD PUSH1 0x1 PUSH1 0x1 PUSH1 0xA0 SHL SUB NOT AND PUSH1 0x1 PUSH1 0x1 PUSH1 0xA0 SHL SUB SWAP3 SWAP1 SWAP3 AND SWAP2 SWAP1 SWAP2 OR SWAP1 SSTORE JUMP JUMPDEST PUSH2 0x15C0 PUSH2 0x15BA PUSH2 0x339B JUMP JUMPDEST DUP3 PUSH2 0x3567 JUMP JUMPDEST PUSH2 0x15DC JUMPI PUSH1 0x40 MLOAD PUSH3 0x461BCD PUSH1 0xE5 SHL DUP2 MSTORE PUSH1 0x4 ADD PUSH2 0x102B SWAP1 PUSH2 0x4E87 JUMP JUMPDEST PUSH2 0x116D DUP4 DUP4 DUP4 PUSH2 0x3629 JUMP JUMPDEST CALLER PUSH1 0x0 SWAP1 DUP2 MSTORE PUSH1 0x1E PUSH1 0x20 MSTORE PUSH1 0x40 SWAP1 KECCAK256 SLOAD PUSH1 0xFF AND DUP1 PUSH2 0x160F JUMPI POP PUSH1 0x10 SLOAD PUSH1 0x1 PUSH1 0x1 PUSH1 0xA0 SHL SUB AND CALLER EQ JUMPDEST PUSH2 0x1648 JUMPI PUSH1 0x40 MLOAD PUSH3 0x461BCD PUSH1 0xE5 SHL DUP2 MSTORE PUSH1 0x20 PUSH1 0x4 DUP3 ADD MSTORE PUSH1 0xA PUSH1 0x24 DUP3 ADD MSTORE PUSH10 0x1A1C109E5159999958DD PUSH1 0xB2 SHL PUSH1 0x44 DUP3 ADD MSTORE PUSH1 0x64 ADD PUSH2 0x102B JUMP JUMPDEST PUSH1 0x0 JUMPDEST PUSH1 0x4 DUP2 LT ISZERO PUSH2 0x1715 JUMPI PUSH1 0x0 PUSH1 0x29 DUP3 PUSH1 0x4 DUP2 LT PUSH2 0x1669 JUMPI PUSH2 0x1669 PUSH2 0x4ED8 JUMP JUMPDEST ADD SLOAD PUSH1 0x1 PUSH1 0x1 PUSH1 0xA0 SHL SUB AND SWAP1 POP DUP1 ISZERO PUSH2 0x1702 JUMPI PUSH1 0x40 MLOAD PUSH4 0x2966BEF PUSH1 0xE4 SHL DUP2 MSTORE PUSH1 0x1 PUSH1 0x1 PUSH1 0xA0 SHL SUB DUP11 DUP2 AND PUSH1 0x4 DUP4 ADD MSTORE PUSH1 0x24 DUP3 ADD DUP11 SWAP1 MSTORE PUSH1 0x44 DUP3 ADD DUP10 SWAP1 MSTORE PUSH1 0x64 DUP3 ADD DUP9 SWAP1 MSTORE PUSH1 0x84 DUP3 ADD DUP8 SWAP1 MSTORE PUSH1 0xA4 DUP3 ADD DUP7 SWAP1 MSTORE PUSH1 0xC4 DUP3 ADD DUP6 SWAP1 MSTORE DUP3 AND SWAP1 PUSH4 0x2966BEF0 SWAP1 PUSH1 0xE4 ADD PUSH1 0x0 PUSH1 0x40 MLOAD DUP1 DUP4 SUB DUP2 PUSH1 0x0 DUP8 DUP1 EXTCODESIZE ISZERO DUP1 ISZERO PUSH2 0x16E9 JUMPI PUSH1 0x0 DUP1 REVERT JUMPDEST POP GAS CALL ISZERO DUP1 ISZERO PUSH2 0x16FD JUMPI RETURNDATASIZE PUSH1 0x0 DUP1 RETURNDATACOPY RETURNDATASIZE PUSH1 0x0 REVERT JUMPDEST POP POP POP POP JUMPDEST POP DUP1 PUSH2 0x170D DUP2 PUSH2 0x4EEE JUMP JUMPDEST SWAP2 POP POP PUSH2 0x164B JUMP JUMPDEST POP POP POP POP POP POP POP POP JUMP JUMPDEST PUSH1 0x0 PUSH2 0x172A DUP4 PUSH2 0x1E45 JUMP JUMPDEST DUP3 LT PUSH2 0x178C JUMPI PUSH1 0x40 MLOAD PUSH3 0x461BCD PUSH1 0xE5 SHL DUP2 MSTORE PUSH1 0x20 PUSH1 0x4 DUP3 ADD MSTORE PUSH1 0x2B PUSH1 0x24 DUP3 ADD MSTORE PUSH32 0x455243373231456E756D657261626C653A206F776E657220696E646578206F75 PUSH1 0x44 DUP3 ADD MSTORE PUSH11 0x74206F6620626F756E6473 PUSH1 0xA8 SHL PUSH1 0x64 DUP3 ADD MSTORE PUSH1 0x84 ADD PUSH2 0x102B JUMP JUMPDEST POP PUSH1 0x1 PUSH1 0x1 PUSH1 0xA0 SHL SUB SWAP2 SWAP1 SWAP2 AND PUSH1 0x0 SWAP1 DUP2 MSTORE PUSH1 0x6 PUSH1 0x20 SWAP1 DUP2 MSTORE PUSH1 0x40 DUP1 DUP4 KECCAK256 SWAP4 DUP4 MSTORE SWAP3 SWAP1 MSTORE KECCAK256 SLOAD SWAP1 JUMP JUMPDEST CALLER PUSH1 0x0 SWAP1 DUP2 MSTORE PUSH1 0x1E PUSH1 0x20 MSTORE PUSH1 0x40 SWAP1 KECCAK256 SLOAD PUSH1 0xFF AND PUSH2 0x17D1 JUMPI PUSH1 0x0 DUP1 REVERT JUMPDEST PUSH2 0x17DA DUP2 PUSH2 0x37C2 JUMP JUMPDEST POP JUMP JUMPDEST PUSH2 0x17E5 PUSH2 0x21F0 JUMP JUMPDEST PUSH1 0x1 PUSH1 0x1 PUSH1 0xA0 SHL SUB AND PUSH2 0x17F6 PUSH2 0x32D2 JUMP JUMPDEST PUSH1 0x1 PUSH1 0x1 PUSH1 0xA0 SHL SUB AND EQ DUP1 PUSH2 0x1825 JUMPI POP PUSH1 0x10 SLOAD PUSH1 0x1 PUSH1 0x1 PUSH1 0xA0 SHL SUB AND PUSH2 0x181A PUSH2 0x32D2 JUMP JUMPDEST PUSH1 0x1 PUSH1 0x1 PUSH1 0xA0 SHL SUB AND EQ JUMPDEST PUSH2 0x182E JUMPI PUSH1 0x0 DUP1 REVERT JUMPDEST PUSH1 0x63 PUSH1 0x16 SLOAD GT ISZERO PUSH2 0x1878 JUMPI PUSH1 0x40 MLOAD PUSH3 0x461BCD PUSH1 0xE5 SHL DUP2 MSTORE PUSH1 0x20 PUSH1 0x4 DUP3 ADD MSTORE PUSH1 0x14 PUSH1 0x24 DUP3 ADD MSTORE PUSH20 0x2132903132BA3BB2B2B710181030B732101C9C97 PUSH1 0x61 SHL PUSH1 0x44 DUP3 ADD MSTORE PUSH1 0x64 ADD PUSH2 0x102B JUMP JUMPDEST PUSH1 0x16 SSTORE JUMP JUMPDEST PUSH2 0x116D DUP4 DUP4 DUP4 PUSH1 0x40 MLOAD DUP1 PUSH1 0x20 ADD PUSH1 0x40 MSTORE DUP1 PUSH1 0x0 DUP2 MSTORE POP PUSH2 0x273E JUMP JUMPDEST PUSH1 0x13 SLOAD PUSH1 0xFF AND PUSH2 0x18EA JUMPI PUSH1 0x40 MLOAD PUSH3 0x461BCD PUSH1 0xE5 SHL DUP2 MSTORE PUSH1 0x20 PUSH1 0x4 DUP3 ADD MSTORE PUSH1 0x1B PUSH1 0x24 DUP3 ADD MSTORE PUSH32 0x596F752063616E2774206275726E20746869732E2E2E207965743F0000000000 PUSH1 0x44 DUP3 ADD MSTORE PUSH1 0x64 ADD PUSH2 0x102B JUMP JUMPDEST PUSH2 0x18F5 PUSH2 0x15BA PUSH2 0x339B JUMP JUMPDEST DUP1 PUSH2 0x1915 JUMPI POP PUSH2 0x1903 PUSH2 0x32D2 JUMP JUMPDEST PUSH1 0x10 SLOAD PUSH1 0x1 PUSH1 0x1 PUSH1 0xA0 SHL SUB SWAP1 DUP2 AND SWAP2 AND EQ JUMPDEST PUSH2 0x17D1 JUMPI PUSH1 0x40 MLOAD PUSH3 0x461BCD PUSH1 0xE5 SHL DUP2 MSTORE PUSH1 0x20 PUSH1 0x4 DUP3 ADD DUP2 SWAP1 MSTORE PUSH1 0x24 DUP3 ADD MSTORE PUSH32 0x43616C6C6572206973206E6F74206F776E6572206E6F7220617070726F766564 PUSH1 0x44 DUP3 ADD MSTORE PUSH1 0x64 ADD PUSH2 0x102B JUMP JUMPDEST CALLER PUSH1 0x0 SWAP1 DUP2 MSTORE PUSH1 0x1E PUSH1 0x20 MSTORE PUSH1 0x40 SWAP1 KECCAK256 SLOAD PUSH1 0xFF AND DUP1 PUSH2 0x1994 JUMPI POP PUSH2 0x1982 PUSH2 0x32D2 JUMP JUMPDEST PUSH1 0x10 SLOAD PUSH1 0x1 PUSH1 0x1 PUSH1 0xA0 SHL SUB SWAP1 DUP2 AND SWAP2 AND EQ JUMPDEST PUSH2 0x199D JUMPI PUSH1 0x0 DUP1 REVERT JUMPDEST PUSH1 0x0 SWAP2 DUP3 MSTORE PUSH1 0x1C PUSH1 0x20 SWAP1 DUP2 MSTORE PUSH1 0x40 DUP1 DUP5 KECCAK256 SWAP3 SWAP1 SWAP3 SSTORE PUSH1 0x1D SWAP1 MSTORE SWAP1 KECCAK256 DUP1 SLOAD PUSH1 0xFF NOT AND SWAP1 SSTORE JUMP JUMPDEST PUSH1 0x0 PUSH2 0x19CD PUSH1 0x8 SLOAD SWAP1 JUMP JUMPDEST DUP3 LT PUSH2 0x1A30 JUMPI PUSH1 0x40 MLOAD PUSH3 0x461BCD PUSH1 0xE5 SHL DUP2 MSTORE PUSH1 0x20 PUSH1 0x4 DUP3 ADD MSTORE PUSH1 0x2C PUSH1 0x24 DUP3 ADD MSTORE PUSH32 0x455243373231456E756D657261626C653A20676C6F62616C20696E646578206F PUSH1 0x44 DUP3 ADD MSTORE PUSH12 0x7574206F6620626F756E6473 PUSH1 0xA0 SHL PUSH1 0x64 DUP3 ADD MSTORE PUSH1 0x84 ADD PUSH2 0x102B JUMP JUMPDEST PUSH1 0x8 DUP3 DUP2 SLOAD DUP2 LT PUSH2 0x1A43 JUMPI PUSH2 0x1A43 PUSH2 0x4ED8 JUMP JUMPDEST SWAP1 PUSH1 0x0 MSTORE PUSH1 0x20 PUSH1 0x0 KECCAK256 ADD SLOAD SWAP1 POP SWAP2 SWAP1 POP JUMP JUMPDEST PUSH1 0x1 PUSH1 0x1 PUSH1 0xA0 SHL SUB DUP2 AND PUSH2 0x1A7B JUMPI PUSH1 0x40 MLOAD PUSH3 0x461BCD PUSH1 0xE5 SHL DUP2 MSTORE PUSH1 0x4 ADD PUSH2 0x102B SWAP1 PUSH2 0x4E5E JUMP JUMPDEST PUSH2 0x1A83 PUSH2 0x21F0 JUMP JUMPDEST PUSH1 0x1 PUSH1 0x1 PUSH1 0xA0 SHL SUB AND PUSH2 0x1A94 PUSH2 0x32D2 JUMP JUMPDEST PUSH1 0x1 PUSH1 0x1 PUSH1 0xA0 SHL SUB AND EQ DUP1 PUSH2 0x1ABE JUMPI POP PUSH2 0x1AAC PUSH2 0x32D2 JUMP JUMPDEST PUSH1 0x10 SLOAD PUSH1 0x1 PUSH1 0x1 PUSH1 0xA0 SHL SUB SWAP1 DUP2 AND SWAP2 AND EQ JUMPDEST PUSH2 0x1B30 JUMPI PUSH1 0x40 MLOAD PUSH3 0x461BCD PUSH1 0xE5 SHL DUP2 MSTORE PUSH1 0x20 PUSH1 0x4 DUP3 ADD MSTORE PUSH1 0x3B PUSH1 0x24 DUP3 ADD MSTORE PUSH32 0x4F6E6C7920746865206F776E6572206F7220726567697374657279206D617920 PUSH1 0x44 DUP3 ADD MSTORE PUSH32 0x6368616E6765207468652072657761726420636F6E74726163742E0000000000 PUSH1 0x64 DUP3 ADD MSTORE PUSH1 0x84 ADD PUSH2 0x102B JUMP JUMPDEST PUSH1 0x1B DUP1 SLOAD PUSH1 0x1 PUSH1 0x1 PUSH1 0xA0 SHL SUB NOT AND PUSH1 0x1 PUSH1 0x1 PUSH1 0xA0 SHL SUB SWAP3 SWAP1 SWAP3 AND SWAP2 SWAP1 SWAP2 OR SWAP1 SSTORE JUMP JUMPDEST PUSH2 0x1B5A PUSH2 0x21F0 JUMP JUMPDEST PUSH1 0x1 PUSH1 0x1 PUSH1 0xA0 SHL SUB AND PUSH2 0x1B6B PUSH2 0x32D2 JUMP JUMPDEST PUSH1 0x1 PUSH1 0x1 PUSH1 0xA0 SHL SUB AND EQ DUP1 PUSH2 0x1B9A JUMPI POP PUSH1 0x10 SLOAD PUSH1 0x1 PUSH1 0x1 PUSH1 0xA0 SHL SUB AND PUSH2 0x1B8F PUSH2 0x32D2 JUMP JUMPDEST PUSH1 0x1 PUSH1 0x1 PUSH1 0xA0 SHL SUB AND EQ JUMPDEST PUSH2 0x1BA3 JUMPI PUSH1 0x0 DUP1 REVERT JUMPDEST PUSH1 0xF SSTORE JUMP JUMPDEST CALLER PUSH1 0x0 SWAP1 DUP2 MSTORE PUSH1 0x1E PUSH1 0x20 MSTORE PUSH1 0x40 SWAP1 KECCAK256 SLOAD PUSH1 0xFF AND DUP1 PUSH2 0x1BD0 JUMPI POP PUSH1 0x10 SLOAD PUSH1 0x1 PUSH1 0x1 PUSH1 0xA0 SHL SUB AND CALLER EQ JUMPDEST PUSH2 0x1BEC JUMPI PUSH1 0x40 MLOAD PUSH3 0x461BCD PUSH1 0xE5 SHL DUP2 MSTORE PUSH1 0x4 ADD PUSH2 0x102B SWAP1 PUSH2 0x4F00 JUMP JUMPDEST PUSH1 0x0 SWAP2 DUP3 MSTORE PUSH1 0x26 PUSH1 0x20 SWAP1 DUP2 MSTORE PUSH1 0x40 SWAP3 DUP4 SWAP1 KECCAK256 DUP3 MLOAD DUP2 SSTORE SWAP1 DUP3 ADD MLOAD PUSH1 0x1 DUP3 ADD SSTORE SWAP2 DUP2 ADD MLOAD PUSH1 0x2 DUP4 ADD SSTORE PUSH1 0x60 DUP2 ADD MLOAD PUSH1 0x3 DUP4 ADD SSTORE PUSH1 0x80 DUP2 ADD MLOAD PUSH1 0x4 DUP4 ADD SSTORE PUSH1 0xA0 DUP2 ADD MLOAD PUSH1 0x5 DUP4 ADD SSTORE PUSH1 0xC0 DUP2 ADD MLOAD PUSH1 0x6 DUP4 ADD SSTORE PUSH1 0xE0 DUP2 ADD MLOAD PUSH1 0x7 DUP4 ADD SSTORE PUSH2 0x100 DUP2 ADD MLOAD PUSH1 0x8 DUP4 ADD SSTORE PUSH2 0x120 DUP2 ADD MLOAD PUSH1 0x9 DUP4 ADD SSTORE PUSH2 0x140 ADD MLOAD PUSH1 0xA SWAP1 SWAP2 ADD SSTORE JUMP JUMPDEST PUSH2 0x1C71 PUSH2 0x21F0 JUMP JUMPDEST PUSH1 0x1 PUSH1 0x1 PUSH1 0xA0 SHL SUB AND PUSH2 0x1C82 PUSH2 0x32D2 JUMP JUMPDEST PUSH1 0x1 PUSH1 0x1 PUSH1 0xA0 SHL SUB AND EQ DUP1 PUSH2 0x1CB1 JUMPI POP PUSH1 0x10 SLOAD PUSH1 0x1 PUSH1 0x1 PUSH1 0xA0 SHL SUB AND PUSH2 0x1CA6 PUSH2 0x32D2 JUMP JUMPDEST PUSH1 0x1 PUSH1 0x1 PUSH1 0xA0 SHL SUB AND EQ JUMPDEST PUSH2 0x1CBA JUMPI PUSH1 0x0 DUP1 REVERT JUMPDEST PUSH1 0x12 PUSH2 0x1CC6 DUP3 DUP3 PUSH2 0x4F80 JUMP JUMPDEST POP POP JUMP JUMPDEST PUSH1 0x0 PUSH8 0xDE0B6B3A7640000 PUSH2 0x1CDF DUP4 DUP6 PUSH2 0x503F JUMP JUMPDEST PUSH2 0x1CE9 SWAP2 SWAP1 PUSH2 0x5074 JUMP JUMPDEST SWAP4 SWAP3 POP POP POP JUMP JUMPDEST PUSH1 0x0 DUP2 DUP2 MSTORE PUSH1 0x2 PUSH1 0x20 MSTORE PUSH1 0x40 DUP2 KECCAK256 SLOAD PUSH1 0x1 PUSH1 0x1 PUSH1 0xA0 SHL SUB AND DUP1 PUSH2 0xD7C JUMPI PUSH1 0x40 MLOAD PUSH3 0x461BCD PUSH1 0xE5 SHL DUP2 MSTORE PUSH1 0x20 PUSH1 0x4 DUP3 ADD MSTORE PUSH1 0x29 PUSH1 0x24 DUP3 ADD MSTORE PUSH32 0x4552433732313A206F776E657220717565727920666F72206E6F6E6578697374 PUSH1 0x44 DUP3 ADD MSTORE PUSH9 0x32B73A103A37B5B2B7 PUSH1 0xB9 SHL PUSH1 0x64 DUP3 ADD MSTORE PUSH1 0x84 ADD PUSH2 0x102B JUMP JUMPDEST PUSH2 0x1D6F PUSH2 0x21F0 JUMP JUMPDEST PUSH1 0x1 PUSH1 0x1 PUSH1 0xA0 SHL SUB AND PUSH2 0x1D80 PUSH2 0x32D2 JUMP JUMPDEST PUSH1 0x1 PUSH1 0x1 PUSH1 0xA0 SHL SUB AND EQ DUP1 PUSH2 0x1DAA JUMPI POP PUSH2 0x1D98 PUSH2 0x32D2 JUMP JUMPDEST PUSH1 0x10 SLOAD PUSH1 0x1 PUSH1 0x1 PUSH1 0xA0 SHL SUB SWAP1 DUP2 AND SWAP2 AND EQ JUMPDEST PUSH2 0x1DB3 JUMPI PUSH1 0x0 DUP1 REVERT JUMPDEST PUSH1 0x14 SSTORE JUMP JUMPDEST PUSH1 0x1 PUSH1 0x1 PUSH1 0xA0 SHL SUB DUP3 AND PUSH2 0x1DDE JUMPI PUSH1 0x40 MLOAD PUSH3 0x461BCD PUSH1 0xE5 SHL DUP2 MSTORE PUSH1 0x4 ADD PUSH2 0x102B SWAP1 PUSH2 0x4E5E JUMP JUMPDEST PUSH2 0x1DE6 PUSH2 0x32D2 JUMP JUMPDEST PUSH1 0x10 SLOAD PUSH1 0x1 PUSH1 0x1 PUSH1 0xA0 SHL SUB SWAP1 DUP2 AND SWAP2 AND EQ DUP1 PUSH2 0x1E11 JUMPI POP CALLER PUSH1 0x0 SWAP1 DUP2 MSTORE PUSH1 0x1E PUSH1 0x20 MSTORE PUSH1 0x40 SWAP1 KECCAK256 SLOAD PUSH1 0xFF AND JUMPDEST PUSH2 0x1E1A JUMPI PUSH1 0x0 DUP1 REVERT JUMPDEST PUSH1 0x1 PUSH1 0x1 PUSH1 0xA0 SHL SUB SWAP2 SWAP1 SWAP2 AND PUSH1 0x0 SWAP1 DUP2 MSTORE PUSH1 0x1E PUSH1 0x20 MSTORE PUSH1 0x40 SWAP1 KECCAK256 DUP1 SLOAD PUSH1 0xFF NOT AND SWAP2 ISZERO ISZERO SWAP2 SWAP1 SWAP2 OR SWAP1 SSTORE JUMP JUMPDEST PUSH1 0x0 PUSH1 0x1 PUSH1 0x1 PUSH1 0xA0 SHL SUB DUP3 AND PUSH2 0x1EB0 JUMPI PUSH1 0x40 MLOAD PUSH3 0x461BCD PUSH1 0xE5 SHL DUP2 MSTORE PUSH1 0x20 PUSH1 0x4 DUP3 ADD MSTORE PUSH1 0x2A PUSH1 0x24 DUP3 ADD MSTORE PUSH32 0x4552433732313A2062616C616E636520717565727920666F7220746865207A65 PUSH1 0x44 DUP3 ADD MSTORE PUSH10 0x726F2061646472657373 PUSH1 0xB0 SHL PUSH1 0x64 DUP3 ADD MSTORE PUSH1 0x84 ADD PUSH2 0x102B JUMP JUMPDEST POP PUSH1 0x1 PUSH1 0x1 PUSH1 0xA0 SHL SUB AND PUSH1 0x0 SWAP1 DUP2 MSTORE PUSH1 0x3 PUSH1 0x20 MSTORE PUSH1 0x40 SWAP1 KECCAK256 SLOAD SWAP1 JUMP JUMPDEST PUSH2 0x1ED4 PUSH2 0x339B JUMP JUMPDEST PUSH1 0x1 PUSH1 0x1 PUSH1 0xA0 SHL SUB AND PUSH2 0x1EE5 PUSH2 0x21F0 JUMP JUMPDEST PUSH1 0x1 PUSH1 0x1 PUSH1 0xA0 SHL SUB AND EQ PUSH2 0x1F0B JUMPI PUSH1 0x40 MLOAD PUSH3 0x461BCD PUSH1 0xE5 SHL DUP2 MSTORE PUSH1 0x4 ADD PUSH2 0x102B SWAP1 PUSH2 0x5088 JUMP JUMPDEST PUSH1 0xD SLOAD PUSH1 0x40 MLOAD PUSH1 0x0 SWAP2 PUSH1 0x1 PUSH1 0x1 PUSH1 0xA0 SHL SUB AND SWAP1 PUSH32 0x8BE0079C531659141344CD1FD0A4F28419497F9722A3DAAFE3B4186F6B6457E0 SWAP1 DUP4 SWAP1 LOG3 PUSH1 0xD DUP1 SLOAD PUSH1 0x1 PUSH1 0x1 PUSH1 0xA0 SHL SUB NOT AND SWAP1 SSTORE JUMP JUMPDEST PUSH1 0x0 PUSH2 0x1F5F PUSH2 0x21F0 JUMP JUMPDEST PUSH1 0x1 PUSH1 0x1 PUSH1 0xA0 SHL SUB AND PUSH2 0x1F70 PUSH2 0x32D2 JUMP JUMPDEST PUSH1 0x1 PUSH1 0x1 PUSH1 0xA0 SHL SUB AND EQ DUP1 PUSH2 0x1F9F JUMPI POP PUSH1 0x10 SLOAD PUSH1 0x1 PUSH1 0x1 PUSH1 0xA0 SHL SUB AND PUSH2 0x1F94 PUSH2 0x32D2 JUMP JUMPDEST PUSH1 0x1 PUSH1 0x1 PUSH1 0xA0 SHL SUB AND EQ JUMPDEST PUSH2 0x1FFF JUMPI PUSH1 0x40 MLOAD PUSH3 0x461BCD PUSH1 0xE5 SHL DUP2 MSTORE PUSH1 0x20 PUSH1 0x4 DUP3 ADD MSTORE PUSH1 0x2B PUSH1 0x24 DUP3 ADD MSTORE PUSH32 0x4F6E6C79206F776E657220616E64206D61726B6574706C6163652063616E206D PUSH1 0x44 DUP3 ADD MSTORE PUSH11 0x34B73A103A37B5B2B73997 PUSH1 0xA9 SHL PUSH1 0x64 DUP3 ADD MSTORE PUSH1 0x84 ADD PUSH2 0x102B JUMP JUMPDEST PUSH1 0xF SLOAD PUSH2 0x200A PUSH2 0x24BD JUMP JUMPDEST LT PUSH2 0x2050 JUMPI PUSH1 0x40 MLOAD PUSH3 0x461BCD PUSH1 0xE5 SHL DUP2 MSTORE PUSH1 0x20 PUSH1 0x4 DUP3 ADD MSTORE PUSH1 0x16 PUSH1 0x24 DUP3 ADD MSTORE PUSH22 0x20B63932B0B23C9030BA1036B0BC103A37B5B2B73997 PUSH1 0x51 SHL PUSH1 0x44 DUP3 ADD MSTORE PUSH1 0x64 ADD PUSH2 0x102B JUMP JUMPDEST PUSH1 0x0 PUSH2 0x205A PUSH2 0x24BD JUMP JUMPDEST SWAP1 POP PUSH2 0x2066 DUP4 DUP3 PUSH2 0x3857 JUMP JUMPDEST PUSH2 0xD7C PUSH2 0x277D JUMP JUMPDEST PUSH2 0x2076 PUSH2 0x339B JUMP JUMPDEST PUSH1 0x1 PUSH1 0x1 PUSH1 0xA0 SHL SUB AND PUSH2 0x2087 PUSH2 0x21F0 JUMP JUMPDEST PUSH1 0x1 PUSH1 0x1 PUSH1 0xA0 SHL SUB AND EQ PUSH2 0x20AD JUMPI PUSH1 0x40 MLOAD PUSH3 0x461BCD PUSH1 0xE5 SHL DUP2 MSTORE PUSH1 0x4 ADD PUSH2 0x102B SWAP1 PUSH2 0x5088 JUMP JUMPDEST PUSH1 0x13 DUP1 SLOAD PUSH1 0xFF NOT AND SWAP2 ISZERO ISZERO SWAP2 SWAP1 SWAP2 OR SWAP1 SSTORE JUMP JUMPDEST PUSH2 0x211D PUSH1 0x40 MLOAD DUP1 PUSH2 0x160 ADD PUSH1 0x40 MSTORE DUP1 PUSH1 0x0 DUP2 MSTORE PUSH1 0x20 ADD PUSH1 0x0 DUP2 MSTORE PUSH1 0x20 ADD PUSH1 0x0 DUP2 MSTORE PUSH1 0x20 ADD PUSH1 0x0 DUP2 MSTORE PUSH1 0x20 ADD PUSH1 0x0 DUP2 MSTORE PUSH1 0x20 ADD PUSH1 0x0 DUP2 MSTORE PUSH1 0x20 ADD PUSH1 0x0 DUP2 MSTORE PUSH1 0x20 ADD PUSH1 0x0 DUP2 MSTORE PUSH1 0x20 ADD PUSH1 0x0 DUP2 MSTORE PUSH1 0x20 ADD PUSH1 0x0 DUP2 MSTORE PUSH1 0x20 ADD PUSH1 0x0 DUP2 MSTORE POP SWAP1 JUMP JUMPDEST CALLER PUSH1 0x0 SWAP1 DUP2 MSTORE PUSH1 0x1E PUSH1 0x20 MSTORE PUSH1 0x40 SWAP1 KECCAK256 SLOAD PUSH1 0xFF AND DUP1 PUSH2 0x2145 JUMPI POP PUSH1 0x10 SLOAD PUSH1 0x1 PUSH1 0x1 PUSH1 0xA0 SHL SUB AND CALLER EQ JUMPDEST PUSH2 0x2161 JUMPI PUSH1 0x40 MLOAD PUSH3 0x461BCD PUSH1 0xE5 SHL DUP2 MSTORE PUSH1 0x4 ADD PUSH2 0x102B SWAP1 PUSH2 0x4F00 JUMP JUMPDEST POP PUSH1 0x0 SWAP1 DUP2 MSTORE PUSH1 0x26 PUSH1 0x20 SWAP1 DUP2 MSTORE PUSH1 0x40 SWAP2 DUP3 SWAP1 KECCAK256 DUP3 MLOAD PUSH2 0x160 DUP2 ADD DUP5 MSTORE DUP2 SLOAD DUP2 MSTORE PUSH1 0x1 DUP3 ADD SLOAD SWAP3 DUP2 ADD SWAP3 SWAP1 SWAP3 MSTORE PUSH1 0x2 DUP2 ADD SLOAD SWAP3 DUP3 ADD SWAP3 SWAP1 SWAP3 MSTORE PUSH1 0x3 DUP3 ADD SLOAD PUSH1 0x60 DUP3 ADD MSTORE PUSH1 0x4 DUP3 ADD SLOAD PUSH1 0x80 DUP3 ADD MSTORE PUSH1 0x5 DUP3 ADD SLOAD PUSH1 0xA0 DUP3 ADD MSTORE PUSH1 0x6 DUP3 ADD SLOAD PUSH1 0xC0 DUP3 ADD MSTORE PUSH1 0x7 DUP3 ADD SLOAD PUSH1 0xE0 DUP3 ADD MSTORE PUSH1 0x8 DUP3 ADD SLOAD PUSH2 0x100 DUP3 ADD MSTORE PUSH1 0x9 DUP3 ADD SLOAD PUSH2 0x120 DUP3 ADD MSTORE PUSH1 0xA SWAP1 SWAP2 ADD SLOAD PUSH2 0x140 DUP3 ADD MSTORE SWAP1 JUMP JUMPDEST PUSH1 0xD SLOAD PUSH1 0x1 PUSH1 0x1 PUSH1 0xA0 SHL SUB AND SWAP1 JUMP JUMPDEST CALLER PUSH1 0x0 SWAP1 DUP2 MSTORE PUSH1 0x1E PUSH1 0x20 MSTORE PUSH1 0x40 DUP2 KECCAK256 SLOAD PUSH1 0xFF AND DUP1 PUSH2 0x2227 JUMPI POP PUSH1 0x10 SLOAD PUSH1 0x1 PUSH1 0x1 PUSH1 0xA0 SHL SUB AND CALLER EQ JUMPDEST PUSH2 0x2269 JUMPI PUSH1 0x40 MLOAD PUSH3 0x461BCD PUSH1 0xE5 SHL DUP2 MSTORE PUSH1 0x20 PUSH1 0x4 DUP3 ADD MSTORE PUSH1 0x13 PUSH1 0x24 DUP3 ADD MSTORE PUSH19 0x2CB7BA903630B1B5903A3432903837BBB2B917 PUSH1 0x69 SHL PUSH1 0x44 DUP3 ADD MSTORE PUSH1 0x64 ADD PUSH2 0x102B JUMP JUMPDEST PUSH1 0x21 SLOAD PUSH1 0x40 MLOAD PUSH4 0x7E6F85D PUSH1 0xE0 SHL DUP2 MSTORE PUSH1 0x0 SWAP2 PUSH1 0x1 PUSH1 0x1 PUSH1 0xA0 SHL SUB AND SWAP1 PUSH4 0x7E6F85D SWAP1 PUSH2 0x229C SWAP1 DUP9 SWAP1 DUP9 SWAP1 PUSH1 0x4 ADD PUSH2 0x4BD0 JUMP JUMPDEST PUSH1 0x20 PUSH1 0x40 MLOAD DUP1 DUP4 SUB DUP2 DUP7 GAS STATICCALL ISZERO DUP1 ISZERO PUSH2 0x22B9 JUMPI RETURNDATASIZE PUSH1 0x0 DUP1 RETURNDATACOPY RETURNDATASIZE PUSH1 0x0 REVERT JUMPDEST POP POP POP POP PUSH1 0x40 MLOAD RETURNDATASIZE PUSH1 0x1F NOT PUSH1 0x1F DUP3 ADD AND DUP3 ADD DUP1 PUSH1 0x40 MSTORE POP DUP2 ADD SWAP1 PUSH2 0x22DD SWAP2 SWAP1 PUSH2 0x4E2E JUMP JUMPDEST SWAP1 POP PUSH1 0x0 PUSH2 0x22EC DUP7 DUP7 DUP7 PUSH2 0x3984 JUMP JUMPDEST SWAP1 POP PUSH1 0x0 DUP3 DUP3 PUSH1 0x0 ADD MLOAD PUSH2 0x2300 SWAP2 SWAP1 PUSH2 0x4D07 JUMP JUMPDEST PUSH1 0x40 MLOAD PUSH4 0x8D1D0BB9 PUSH1 0xE0 SHL DUP2 MSTORE PUSH1 0x4 DUP2 ADD DUP9 SWAP1 MSTORE PUSH1 0x24 DUP2 ADD DUP3 SWAP1 MSTORE SWAP1 SWAP2 POP DUP8 SWAP1 PUSH1 0x1 PUSH1 0x1 PUSH1 0xA0 SHL SUB DUP3 AND SWAP1 PUSH4 0x8D1D0BB9 SWAP1 PUSH1 0x44 ADD PUSH1 0x0 PUSH1 0x40 MLOAD DUP1 DUP4 SUB DUP2 PUSH1 0x0 DUP8 DUP1 EXTCODESIZE ISZERO DUP1 ISZERO PUSH2 0x234E JUMPI PUSH1 0x0 DUP1 REVERT JUMPDEST POP GAS CALL ISZERO DUP1 ISZERO PUSH2 0x2362 JUMPI RETURNDATASIZE PUSH1 0x0 DUP1 RETURNDATACOPY RETURNDATASIZE PUSH1 0x0 REVERT JUMPDEST POP POP PUSH1 0x21 SLOAD PUSH1 0x40 MLOAD PUSH4 0x81B38BE9 PUSH1 0xE0 SHL DUP2 MSTORE PUSH1 0x1 PUSH1 0x1 PUSH1 0xA0 SHL SUB DUP13 DUP2 AND PUSH1 0x4 DUP4 ADD MSTORE PUSH1 0x24 DUP3 ADD DUP13 SWAP1 MSTORE PUSH1 0x44 DUP3 ADD DUP12 SWAP1 MSTORE PUSH1 0x64 DUP3 ADD DUP8 SWAP1 MSTORE PUSH1 0x0 SWAP5 POP SWAP1 SWAP2 AND SWAP2 POP PUSH4 0x81B38BE9 SWAP1 PUSH1 0x84 ADD PUSH1 0x20 PUSH1 0x40 MLOAD DUP1 DUP4 SUB DUP2 PUSH1 0x0 DUP8 GAS CALL ISZERO DUP1 ISZERO PUSH2 0x23CA JUMPI RETURNDATASIZE PUSH1 0x0 DUP1 RETURNDATACOPY RETURNDATASIZE PUSH1 0x0 REVERT JUMPDEST POP POP POP POP PUSH1 0x40 MLOAD RETURNDATASIZE PUSH1 0x1F NOT PUSH1 0x1F DUP3 ADD AND DUP3 ADD DUP1 PUSH1 0x40 MSTORE POP DUP2 ADD SWAP1 PUSH2 0x23EE SWAP2 SWAP1 PUSH2 0x4E2E JUMP JUMPDEST SWAP1 POP PUSH1 0x0 DUP2 SLT ISZERO PUSH2 0x2454 JUMPI PUSH1 0x0 PUSH2 0x2407 DUP3 PUSH1 0x0 NOT PUSH2 0x50BD JUMP JUMPDEST SWAP1 POP DUP8 DUP2 GT ISZERO PUSH2 0x2420 JUMPI PUSH1 0x0 SWAP7 POP POP POP POP POP POP POP PUSH2 0x1CE9 JUMP JUMPDEST DUP4 PUSH2 0x242B DUP3 DUP11 PUSH2 0x4E47 JUMP JUMPDEST PUSH2 0x243D SWAP1 PUSH8 0xDE0B6B3A7640000 PUSH2 0x503F JUMP JUMPDEST PUSH2 0x2447 SWAP2 SWAP1 PUSH2 0x5074 JUMP JUMPDEST SWAP7 POP POP POP POP POP POP POP PUSH2 0x1CE9 JUMP JUMPDEST DUP1 PUSH1 0x0 PUSH2 0x2461 DUP3 DUP11 PUSH2 0x4D07 JUMP JUMPDEST SWAP1 POP DUP5 DUP2 GT ISZERO PUSH2 0x2482 JUMPI PUSH8 0xDE0B6B3A7640000 SWAP8 POP POP POP POP POP POP POP POP PUSH2 0x1CE9 JUMP JUMPDEST DUP5 PUSH2 0x2495 DUP3 PUSH8 0xDE0B6B3A7640000 PUSH2 0x503F JUMP JUMPDEST PUSH2 0x249F SWAP2 SWAP1 PUSH2 0x5074 JUMP JUMPDEST SWAP12 SWAP11 POP POP POP POP POP POP POP POP POP POP POP JUMP JUMPDEST PUSH1 0x60 PUSH1 0x1 DUP1 SLOAD PUSH2 0xF40 SWAP1 PUSH2 0x4D3E JUMP JUMPDEST PUSH1 0xE SLOAD PUSH1 0x0 SWAP1 PUSH2 0x24CE SWAP1 PUSH1 0x1 PUSH2 0x3503 JUMP JUMPDEST SWAP1 POP SWAP1 JUMP JUMPDEST PUSH2 0x24DB PUSH2 0x339B JUMP JUMPDEST PUSH1 0x1 PUSH1 0x1 PUSH1 0xA0 SHL SUB AND DUP3 PUSH1 0x1 PUSH1 0x1 PUSH1 0xA0 SHL SUB AND SUB PUSH2 0x2537 JUMPI PUSH1 0x40 MLOAD PUSH3 0x461BCD PUSH1 0xE5 SHL DUP2 MSTORE PUSH1 0x20 PUSH1 0x4 DUP3 ADD MSTORE PUSH1 0x19 PUSH1 0x24 DUP3 ADD MSTORE PUSH25 0x22A9219B99189D1030B8383937BB32903A379031B0B63632B9 PUSH1 0x39 SHL PUSH1 0x44 DUP3 ADD MSTORE PUSH1 0x64 ADD PUSH2 0x102B JUMP JUMPDEST DUP1 PUSH1 0x5 PUSH1 0x0 PUSH2 0x2544 PUSH2 0x339B JUMP JUMPDEST PUSH1 0x1 PUSH1 0x1 PUSH1 0xA0 SHL SUB SWAP1 DUP2 AND DUP3 MSTORE PUSH1 0x20 DUP1 DUP4 ADD SWAP4 SWAP1 SWAP4 MSTORE PUSH1 0x40 SWAP2 DUP3 ADD PUSH1 0x0 SWAP1 DUP2 KECCAK256 SWAP2 DUP8 AND DUP1 DUP3 MSTORE SWAP2 SWAP1 SWAP4 MSTORE SWAP2 KECCAK256 DUP1 SLOAD PUSH1 0xFF NOT AND SWAP3 ISZERO ISZERO SWAP3 SWAP1 SWAP3 OR SWAP1 SWAP2 SSTORE PUSH2 0x2588 PUSH2 0x339B JUMP JUMPDEST PUSH1 0x1 PUSH1 0x1 PUSH1 0xA0 SHL SUB AND PUSH32 0x17307EAB39AB6107E8899845AD3D59BD9653F200F220920489CA2B5937696C31 DUP4 PUSH1 0x40 MLOAD PUSH2 0x25C4 SWAP2 ISZERO ISZERO DUP2 MSTORE PUSH1 0x20 ADD SWAP1 JUMP JUMPDEST PUSH1 0x40 MLOAD DUP1 SWAP2 SUB SWAP1 LOG3 POP POP JUMP JUMPDEST CALLER PUSH1 0x0 SWAP1 DUP2 MSTORE PUSH1 0x1E PUSH1 0x20 MSTORE PUSH1 0x40 DUP2 KECCAK256 SLOAD PUSH1 0xFF AND PUSH2 0x25FF JUMPI PUSH1 0x40 MLOAD PUSH3 0x461BCD PUSH1 0xE5 SHL DUP2 MSTORE PUSH1 0x4 ADD PUSH2 0x102B SWAP1 PUSH2 0x5142 JUMP JUMPDEST PUSH1 0xF SLOAD PUSH2 0x260A PUSH2 0x24BD JUMP JUMPDEST LT PUSH2 0x2050 JUMPI PUSH1 0x40 MLOAD PUSH3 0x461BCD PUSH1 0xE5 SHL DUP2 MSTORE PUSH1 0x20 PUSH1 0x4 DUP3 ADD MSTORE PUSH1 0xE PUSH1 0x24 DUP3 ADD MSTORE PUSH14 0x20BA1036B0BC103A37B5B2B73997 PUSH1 0x91 SHL PUSH1 0x44 DUP3 ADD MSTORE PUSH1 0x64 ADD PUSH2 0x102B JUMP JUMPDEST CALLER PUSH1 0x0 SWAP1 DUP2 MSTORE PUSH1 0x1E PUSH1 0x20 MSTORE PUSH1 0x40 SWAP1 KECCAK256 SLOAD PUSH1 0xFF AND DUP1 PUSH2 0x2670 JUMPI POP PUSH1 0x10 SLOAD PUSH1 0x1 PUSH1 0x1 PUSH1 0xA0 SHL SUB AND CALLER EQ JUMPDEST PUSH2 0x26AC JUMPI PUSH1 0x40 MLOAD PUSH3 0x461BCD PUSH1 0xE5 SHL DUP2 MSTORE PUSH1 0x20 PUSH1 0x4 DUP3 ADD MSTORE PUSH1 0xD PUSH1 0x24 DUP3 ADD MSTORE PUSH13 0x65717569704974656D46726F6D PUSH1 0x98 SHL PUSH1 0x44 DUP3 ADD MSTORE PUSH1 0x64 ADD PUSH2 0x102B JUMP JUMPDEST DUP1 ISZERO PUSH2 0x26BD JUMPI PUSH2 0x26BD DUP5 ADDRESS DUP4 PUSH2 0x3629 JUMP JUMPDEST PUSH1 0x1 PUSH1 0x1 PUSH1 0xA0 SHL SUB DUP4 AND PUSH1 0x0 SWAP1 DUP2 MSTORE PUSH1 0x27 PUSH1 0x20 SWAP1 DUP2 MSTORE PUSH1 0x40 DUP1 DUP4 KECCAK256 DUP6 DUP5 MSTORE DUP3 MSTORE DUP1 DUP4 KECCAK256 DUP5 DUP5 MSTORE PUSH1 0x25 DUP4 MSTORE DUP2 DUP5 KECCAK256 SLOAD DUP5 MSTORE SWAP1 SWAP2 MSTORE SWAP1 KECCAK256 SLOAD DUP1 ISZERO PUSH2 0x2704 JUMPI PUSH2 0x2704 ADDRESS DUP7 DUP5 PUSH2 0x3629 JUMP JUMPDEST POP PUSH1 0x1 PUSH1 0x1 PUSH1 0xA0 SHL SUB SWAP1 SWAP3 AND PUSH1 0x0 SWAP1 DUP2 MSTORE PUSH1 0x27 PUSH1 0x20 SWAP1 DUP2 MSTORE PUSH1 0x40 DUP1 DUP4 KECCAK256 SWAP4 DUP4 MSTORE SWAP3 DUP2 MSTORE DUP3 DUP3 KECCAK256 DUP5 DUP4 MSTORE PUSH1 0x25 DUP3 MSTORE DUP4 DUP4 KECCAK256 SLOAD DUP4 MSTORE SWAP1 MSTORE KECCAK256 SSTORE POP JUMP JUMPDEST PUSH2 0x274F PUSH2 0x2749 PUSH2 0x339B JUMP JUMPDEST DUP4 PUSH2 0x3567 JUMP JUMPDEST PUSH2 0x276B JUMPI PUSH1 0x40 MLOAD PUSH3 0x461BCD PUSH1 0xE5 SHL DUP2 MSTORE PUSH1 0x4 ADD PUSH2 0x102B SWAP1 PUSH2 0x4E87 JUMP JUMPDEST PUSH2 0x2777 DUP5 DUP5 DUP5 DUP5 PUSH2 0x3B1F JUMP JUMPDEST POP POP POP POP JUMP JUMPDEST PUSH1 0xE DUP1 SLOAD SWAP1 PUSH1 0x0 PUSH2 0x278D DUP4 PUSH2 0x4EEE JUMP JUMPDEST SWAP2 SWAP1 POP SSTORE POP JUMP JUMPDEST PUSH1 0x2 PUSH1 0x11 SLOAD SUB PUSH2 0x27B6 JUMPI PUSH1 0x40 MLOAD PUSH3 0x461BCD PUSH1 0xE5 SHL DUP2 MSTORE PUSH1 0x4 ADD PUSH2 0x102B SWAP1 PUSH2 0x4DF7 JUMP JUMPDEST PUSH1 0x2 PUSH1 0x11 SSTORE PUSH1 0x1E PUSH1 0x0 PUSH2 0x27C7 PUSH2 0x32D2 JUMP JUMPDEST PUSH1 0x1 PUSH1 0x1 PUSH1 0xA0 SHL SUB AND DUP2 MSTORE PUSH1 0x20 DUP2 ADD SWAP2 SWAP1 SWAP2 MSTORE PUSH1 0x40 ADD PUSH1 0x0 KECCAK256 SLOAD PUSH1 0xFF AND PUSH2 0x2800 JUMPI PUSH1 0x40 MLOAD PUSH3 0x461BCD PUSH1 0xE5 SHL DUP2 MSTORE PUSH1 0x4 ADD PUSH2 0x102B SWAP1 PUSH2 0x5142 JUMP JUMPDEST PUSH1 0x0 PUSH2 0x280B DUP3 PUSH2 0x1CF0 JUMP JUMPDEST SWAP1 POP DUP3 PUSH1 0x1 PUSH1 0x1 PUSH1 0xA0 SHL SUB AND DUP2 PUSH1 0x1 PUSH1 0x1 PUSH1 0xA0 SHL SUB AND SUB PUSH2 0x2882 JUMPI PUSH1 0x40 MLOAD PUSH3 0x461BCD PUSH1 0xE5 SHL DUP2 MSTORE PUSH1 0x20 PUSH1 0x4 DUP3 ADD MSTORE PUSH1 0x2B PUSH1 0x24 DUP3 ADD MSTORE PUSH32 0x546F6B656E206F776E65722063616E206E6F74207472616E7366657220746F6B PUSH1 0x44 DUP3 ADD MSTORE PUSH11 0x32B7103A379039B2B63317 PUSH1 0xA9 SHL PUSH1 0x64 DUP3 ADD MSTORE PUSH1 0x84 ADD PUSH2 0x102B JUMP JUMPDEST PUSH2 0x288D DUP5 DUP5 DUP5 PUSH2 0x3629 JUMP JUMPDEST PUSH1 0x1B SLOAD PUSH1 0x1 PUSH1 0x1 PUSH1 0xA0 SHL SUB AND ISZERO DUP1 ISZERO SWAP1 PUSH2 0x28B4 JUMPI POP PUSH1 0x0 DUP3 DUP2 MSTORE PUSH1 0x1C PUSH1 0x20 MSTORE PUSH1 0x40 SWAP1 KECCAK256 SLOAD ISZERO ISZERO JUMPDEST DUP1 ISZERO PUSH2 0x28CF JUMPI POP PUSH1 0x0 DUP3 DUP2 MSTORE PUSH1 0x1D PUSH1 0x20 MSTORE PUSH1 0x40 SWAP1 KECCAK256 SLOAD PUSH1 0xFF AND ISZERO JUMPDEST ISZERO PUSH2 0x2962 JUMPI PUSH1 0x1B SLOAD PUSH1 0x0 DUP4 DUP2 MSTORE PUSH1 0x1C PUSH1 0x20 MSTORE PUSH1 0x40 SWAP1 DUP2 SWAP1 KECCAK256 SLOAD SWAP1 MLOAD PUSH4 0xC43E92B1 PUSH1 0xE0 SHL DUP2 MSTORE PUSH1 0x1 PUSH1 0x1 PUSH1 0xA0 SHL SUB SWAP1 SWAP3 AND SWAP2 PUSH4 0xC43E92B1 SWAP2 PUSH2 0x2916 SWAP2 DUP9 SWAP2 DUP9 SWAP2 PUSH1 0x4 ADD PUSH2 0x5168 JUMP JUMPDEST PUSH1 0x0 PUSH1 0x40 MLOAD DUP1 DUP4 SUB DUP2 PUSH1 0x0 DUP8 DUP1 EXTCODESIZE ISZERO DUP1 ISZERO PUSH2 0x2930 JUMPI PUSH1 0x0 DUP1 REVERT JUMPDEST POP GAS CALL ISZERO DUP1 ISZERO PUSH2 0x2944 JUMPI RETURNDATASIZE PUSH1 0x0 DUP1 RETURNDATACOPY RETURNDATASIZE PUSH1 0x0 REVERT JUMPDEST POP POP POP PUSH1 0x0 DUP4 DUP2 MSTORE PUSH1 0x1D PUSH1 0x20 MSTORE PUSH1 0x40 SWAP1 KECCAK256 DUP1 SLOAD PUSH1 0xFF NOT AND PUSH1 0x1 OR SWAP1 SSTORE POP JUMPDEST PUSH1 0x0 DUP3 DUP2 MSTORE PUSH1 0x19 PUSH1 0x20 MSTORE PUSH1 0x40 SWAP1 KECCAK256 SLOAD ISZERO PUSH2 0x1510 JUMPI PUSH1 0x0 DUP3 DUP2 MSTORE PUSH1 0x19 PUSH1 0x20 MSTORE PUSH1 0x40 SWAP1 KECCAK256 SLOAD PUSH1 0x1A SLOAD PUSH2 0x299F SWAP2 PUSH1 0x1 PUSH1 0x1 PUSH1 0xA0 SHL SUB SWAP1 SWAP2 AND SWAP1 DUP6 SWAP1 PUSH2 0x3B52 JUMP JUMPDEST POP PUSH1 0x0 SWAP1 DUP2 MSTORE PUSH1 0x19 PUSH1 0x20 MSTORE PUSH1 0x40 DUP2 KECCAK256 SSTORE POP POP PUSH1 0x1 PUSH1 0x11 SSTORE JUMP JUMPDEST CALLER PUSH1 0x0 SWAP1 DUP2 MSTORE PUSH1 0x1E PUSH1 0x20 MSTORE PUSH1 0x40 DUP2 KECCAK256 SLOAD PUSH1 0xFF AND DUP1 PUSH2 0x29E0 JUMPI POP PUSH1 0x10 SLOAD PUSH1 0x1 PUSH1 0x1 PUSH1 0xA0 SHL SUB AND CALLER EQ JUMPDEST PUSH2 0x2A1C JUMPI PUSH1 0x40 MLOAD PUSH3 0x461BCD PUSH1 0xE5 SHL DUP2 MSTORE PUSH1 0x20 PUSH1 0x4 DUP3 ADD MSTORE PUSH1 0xD PUSH1 0x24 DUP3 ADD MSTORE PUSH13 0x283632B0B9B2903237B713BA17 PUSH1 0x99 SHL PUSH1 0x44 DUP3 ADD MSTORE PUSH1 0x64 ADD PUSH2 0x102B JUMP JUMPDEST PUSH1 0x21 SLOAD PUSH1 0x40 MLOAD PUSH4 0xCD0ACA99 PUSH1 0xE0 SHL DUP2 MSTORE PUSH1 0x0 SWAP2 PUSH1 0x1 PUSH1 0x1 PUSH1 0xA0 SHL SUB AND SWAP1 PUSH4 0xCD0ACA99 SWAP1 PUSH2 0x2A4F SWAP1 DUP11 SWAP1 DUP11 SWAP1 PUSH1 0x4 ADD PUSH2 0x4BD0 JUMP JUMPDEST PUSH1 0x20 PUSH1 0x40 MLOAD DUP1 DUP4 SUB DUP2 DUP7 GAS STATICCALL ISZERO DUP1 ISZERO PUSH2 0x2A6C JUMPI RETURNDATASIZE PUSH1 0x0 DUP1 RETURNDATACOPY RETURNDATASIZE PUSH1 0x0 REVERT JUMPDEST POP POP POP POP PUSH1 0x40 MLOAD RETURNDATASIZE PUSH1 0x1F NOT PUSH1 0x1F DUP3 ADD AND DUP3 ADD DUP1 PUSH1 0x40 MSTORE POP DUP2 ADD SWAP1 PUSH2 0x2A90 SWAP2 SWAP1 PUSH2 0x4E2E JUMP JUMPDEST SWAP1 POP PUSH1 0x0 PUSH2 0x2A9E DUP9 DUP9 PUSH2 0x3B71 JUMP JUMPDEST DUP1 MLOAD SWAP1 SWAP2 POP PUSH1 0x0 SWAP1 PUSH2 0x2AB0 SWAP1 DUP5 PUSH2 0x4D07 JUMP JUMPDEST PUSH1 0x40 MLOAD PUSH4 0xACADCB7 PUSH1 0xE2 SHL DUP2 MSTORE PUSH1 0x4 DUP2 ADD DUP11 SWAP1 MSTORE PUSH1 0x24 DUP2 ADD DUP3 SWAP1 MSTORE SWAP1 SWAP2 POP PUSH1 0x1 PUSH1 0x1 PUSH1 0xA0 SHL SUB DUP11 AND SWAP1 PUSH4 0x2B2B72DC SWAP1 PUSH1 0x44 ADD PUSH1 0x0 PUSH1 0x40 MLOAD DUP1 DUP4 SUB DUP2 PUSH1 0x0 DUP8 DUP1 EXTCODESIZE ISZERO DUP1 ISZERO PUSH2 0x2AFC JUMPI PUSH1 0x0 DUP1 REVERT JUMPDEST POP GAS CALL ISZERO DUP1 ISZERO PUSH2 0x2B10 JUMPI RETURNDATASIZE PUSH1 0x0 DUP1 RETURNDATACOPY RETURNDATASIZE PUSH1 0x0 REVERT JUMPDEST POP POP POP POP PUSH1 0x0 DUP1 PUSH1 0x0 DUP9 SGT ISZERO PUSH2 0x2B27 JUMPI POP DUP7 PUSH2 0x2B36 JUMP JUMPDEST PUSH2 0x2B33 DUP9 PUSH1 0x0 NOT PUSH2 0x50BD JUMP JUMPDEST SWAP2 POP JUMPDEST PUSH1 0x0 PUSH1 0x40 MLOAD DUP1 PUSH2 0x1E0 ADD PUSH1 0x40 MSTORE DUP1 PUSH1 0x1 ISZERO ISZERO DUP2 MSTORE PUSH1 0x20 ADD DUP14 PUSH1 0x1 PUSH1 0x1 PUSH1 0xA0 SHL SUB AND DUP2 MSTORE PUSH1 0x20 ADD DUP13 DUP2 MSTORE PUSH1 0x20 ADD DUP4 DUP2 MSTORE PUSH1 0x20 ADD DUP5 DUP2 MSTORE PUSH1 0x20 ADD DUP10 DUP2 MSTORE PUSH1 0x20 ADD DUP7 PUSH1 0x20 ADD MLOAD DUP2 MSTORE PUSH1 0x20 ADD DUP7 PUSH1 0x40 ADD MLOAD DUP2 MSTORE PUSH1 0x20 ADD DUP7 PUSH1 0x60 ADD MLOAD DUP2 MSTORE PUSH1 0x20 ADD DUP7 PUSH1 0x80 ADD MLOAD DUP2 MSTORE PUSH1 0x20 ADD DUP7 PUSH1 0xA0 ADD MLOAD DUP2 MSTORE PUSH1 0x20 ADD PUSH1 0x1 DUP2 MSTORE PUSH1 0x20 ADD PUSH1 0x1 DUP2 MSTORE PUSH1 0x20 ADD PUSH1 0x0 DUP2 MSTORE PUSH1 0x20 ADD PUSH1 0x1 DUP2 MSTORE POP SWAP1 POP PUSH1 0x0 PUSH2 0x2BCE DUP6 DUP13 PUSH2 0x1CCA JUMP JUMPDEST SWAP1 POP PUSH1 0x0 PUSH1 0x21 PUSH1 0x0 SWAP1 SLOAD SWAP1 PUSH2 0x100 EXP SWAP1 DIV PUSH1 0x1 PUSH1 0x1 PUSH1 0xA0 SHL SUB AND PUSH1 0x1 PUSH1 0x1 PUSH1 0xA0 SHL SUB AND PUSH4 0x787023B5 DUP16 DUP16 DUP6 DUP8 PUSH1 0x40 MLOAD DUP6 PUSH4 0xFFFFFFFF AND PUSH1 0xE0 SHL DUP2 MSTORE PUSH1 0x4 ADD PUSH2 0x2D04 SWAP5 SWAP4 SWAP3 SWAP2 SWAP1 PUSH1 0x1 PUSH1 0x1 PUSH1 0xA0 SHL SUB DUP6 AND DUP2 MSTORE PUSH1 0x20 DUP2 ADD DUP5 SWAP1 MSTORE PUSH1 0x40 DUP2 ADD DUP4 SWAP1 MSTORE DUP2 MLOAD ISZERO ISZERO PUSH1 0x60 DUP3 ADD MSTORE PUSH2 0x240 DUP2 ADD PUSH1 0x20 DUP4 ADD MLOAD PUSH1 0x1 PUSH1 0x1 PUSH1 0xA0 SHL SUB DUP2 AND PUSH1 0x80 DUP5 ADD MSTORE POP PUSH1 0x40 DUP4 ADD MLOAD PUSH1 0xA0 DUP4 ADD MSTORE PUSH1 0x60 DUP4 ADD MLOAD PUSH1 0xC0 DUP4 ADD MSTORE PUSH1 0x80 DUP4 ADD MLOAD PUSH1 0xE0 DUP4 ADD MSTORE PUSH1 0xA0 DUP4 ADD MLOAD PUSH2 0x100 DUP2 DUP2 DUP6 ADD MSTORE PUSH1 0xC0 DUP6 ADD MLOAD SWAP2 POP PUSH2 0x120 DUP3 DUP2 DUP7 ADD MSTORE PUSH1 0xE0 DUP7 ADD MLOAD SWAP3 POP PUSH2 0x140 DUP4 DUP2 DUP8 ADD MSTORE DUP3 DUP8 ADD MLOAD SWAP4 POP PUSH2 0x160 SWAP3 POP DUP4 DUP4 DUP8 ADD MSTORE DUP2 DUP8 ADD MLOAD SWAP4 POP PUSH2 0x180 SWAP2 POP DUP4 DUP3 DUP8 ADD MSTORE DUP1 DUP8 ADD MLOAD SWAP4 POP POP PUSH2 0x1A0 DUP4 DUP2 DUP8 ADD MSTORE DUP3 DUP8 ADD MLOAD SWAP4 POP PUSH2 0x1C0 SWAP3 POP DUP4 DUP4 DUP8 ADD MSTORE DUP2 DUP8 ADD MLOAD PUSH2 0x1E0 DUP8 ADD MSTORE DUP1 DUP8 ADD MLOAD PUSH2 0x200 DUP8 ADD MSTORE POP POP DUP1 DUP6 ADD MLOAD PUSH2 0x220 DUP6 ADD MSTORE POP POP SWAP6 SWAP5 POP POP POP POP POP JUMP JUMPDEST PUSH1 0x20 PUSH1 0x40 MLOAD DUP1 DUP4 SUB DUP2 PUSH1 0x0 DUP8 GAS CALL ISZERO DUP1 ISZERO PUSH2 0x2D23 JUMPI RETURNDATASIZE PUSH1 0x0 DUP1 RETURNDATACOPY RETURNDATASIZE PUSH1 0x0 REVERT JUMPDEST POP POP POP POP PUSH1 0x40 MLOAD RETURNDATASIZE PUSH1 0x1F NOT PUSH1 0x1F DUP3 ADD AND DUP3 ADD DUP1 PUSH1 0x40 MSTORE POP DUP2 ADD SWAP1 PUSH2 0x2D47 SWAP2 SWAP1 PUSH2 0x4E2E JUMP JUMPDEST SWAP1 POP DUP1 PUSH1 0x0 SUB PUSH2 0x2D62 JUMPI PUSH1 0x0 SWAP9 POP POP POP POP POP POP POP POP POP PUSH2 0x1355 JUMP JUMPDEST PUSH2 0x2D6C DUP5 DUP3 PUSH2 0x4D07 JUMP JUMPDEST SWAP1 POP DUP1 DUP6 GT ISZERO PUSH2 0x2D7E JUMPI POP PUSH1 0x0 PUSH2 0x2D8B JUMP JUMPDEST PUSH2 0x2D88 DUP6 DUP3 PUSH2 0x4E47 JUMP JUMPDEST SWAP1 POP JUMPDEST DUP6 DUP2 GT ISZERO PUSH2 0x2D96 JUMPI POP DUP5 JUMPDEST DUP6 PUSH2 0x2DA9 DUP3 PUSH8 0xDE0B6B3A7640000 PUSH2 0x503F JUMP JUMPDEST PUSH2 0x2DB3 SWAP2 SWAP1 PUSH2 0x5074 JUMP JUMPDEST SWAP15 SWAP14 POP POP POP POP POP POP POP POP POP POP POP POP POP POP JUMP JUMPDEST PUSH1 0x60 PUSH2 0x2DCF PUSH2 0x2DFF JUMP JUMPDEST PUSH2 0x2DD8 DUP4 PUSH2 0x3E4F JUMP JUMPDEST PUSH1 0x40 MLOAD PUSH1 0x20 ADD PUSH2 0x2DE9 SWAP3 SWAP2 SWAP1 PUSH2 0x518C JUMP JUMPDEST PUSH1 0x40 MLOAD PUSH1 0x20 DUP2 DUP4 SUB SUB DUP2 MSTORE SWAP1 PUSH1 0x40 MSTORE SWAP1 POP SWAP2 SWAP1 POP JUMP JUMPDEST PUSH1 0x60 PUSH1 0x12 PUSH1 0x40 MLOAD PUSH1 0x20 ADD PUSH2 0x2E13 SWAP2 SWAP1 PUSH2 0x522E JUMP JUMPDEST PUSH1 0x40 MLOAD PUSH1 0x20 DUP2 DUP4 SUB SUB DUP2 MSTORE SWAP1 PUSH1 0x40 MSTORE SWAP1 POP SWAP1 JUMP JUMPDEST PUSH1 0x2 PUSH1 0x11 SLOAD SUB PUSH2 0x2E49 JUMPI PUSH1 0x40 MLOAD PUSH3 0x461BCD PUSH1 0xE5 SHL DUP2 MSTORE PUSH1 0x4 ADD PUSH2 0x102B SWAP1 PUSH2 0x4DF7 JUMP JUMPDEST PUSH1 0x2 PUSH1 0x11 SSTORE PUSH1 0x0 PUSH2 0x2E59 DUP5 PUSH2 0x1CF0 JUMP JUMPDEST SWAP1 POP DUP1 PUSH1 0x1 PUSH1 0x1 PUSH1 0xA0 SHL SUB AND PUSH2 0x2E6D PUSH2 0x32D2 JUMP JUMPDEST PUSH1 0x1 PUSH1 0x1 PUSH1 0xA0 SHL SUB AND EQ DUP1 PUSH2 0x2E97 JUMPI POP PUSH2 0x2E85 PUSH2 0x32D2 JUMP JUMPDEST PUSH1 0x10 SLOAD PUSH1 0x1 PUSH1 0x1 PUSH1 0xA0 SHL SUB SWAP1 DUP2 AND SWAP2 AND EQ JUMPDEST PUSH2 0x2ED2 JUMPI PUSH1 0x40 MLOAD PUSH3 0x461BCD PUSH1 0xE5 SHL DUP2 MSTORE PUSH1 0x20 PUSH1 0x4 DUP3 ADD MSTORE PUSH1 0xC PUSH1 0x24 DUP3 ADD MSTORE PUSH12 0x20B236B4B7399037B7363C97 PUSH1 0xA1 SHL PUSH1 0x44 DUP3 ADD MSTORE PUSH1 0x64 ADD PUSH2 0x102B JUMP JUMPDEST PUSH1 0x0 DUP5 DUP2 MSTORE PUSH1 0x18 PUSH1 0x20 MSTORE PUSH1 0x40 SWAP1 KECCAK256 SLOAD DUP4 GT ISZERO PUSH2 0x2F1A JUMPI PUSH1 0x40 MLOAD PUSH3 0x461BCD PUSH1 0xE5 SHL DUP2 MSTORE PUSH1 0x20 PUSH1 0x4 DUP3 ADD MSTORE PUSH1 0x7 PUSH1 0x24 DUP3 ADD MSTORE PUSH7 0x2932B334B63617 PUSH1 0xC9 SHL PUSH1 0x44 DUP3 ADD MSTORE PUSH1 0x64 ADD PUSH2 0x102B JUMP JUMPDEST PUSH1 0x0 DUP5 DUP2 MSTORE PUSH1 0x18 PUSH1 0x20 MSTORE PUSH1 0x40 DUP2 KECCAK256 DUP1 SLOAD DUP6 SWAP3 SWAP1 PUSH2 0x2F38 SWAP1 DUP5 SWAP1 PUSH2 0x4E47 JUMP JUMPDEST SWAP1 SWAP2 SSTORE POP POP PUSH1 0x1A SLOAD PUSH1 0x40 MLOAD PUSH4 0x852CD8D PUSH1 0xE3 SHL DUP2 MSTORE PUSH1 0x4 DUP2 ADD DUP6 SWAP1 MSTORE PUSH1 0x1 PUSH1 0x1 PUSH1 0xA0 SHL SUB SWAP1 SWAP2 AND SWAP1 PUSH4 0x42966C68 SWAP1 PUSH1 0x24 ADD PUSH1 0x0 PUSH1 0x40 MLOAD DUP1 DUP4 SUB DUP2 PUSH1 0x0 DUP8 DUP1 EXTCODESIZE ISZERO DUP1 ISZERO PUSH2 0x2F83 JUMPI PUSH1 0x0 DUP1 REVERT JUMPDEST POP GAS CALL ISZERO DUP1 ISZERO PUSH2 0x2F97 JUMPI RETURNDATASIZE PUSH1 0x0 DUP1 RETURNDATACOPY RETURNDATASIZE PUSH1 0x0 REVERT JUMPDEST POP POP POP POP PUSH32 0x6CF1047B698DE02174DB713EB2021BE336D8A8370C8E3B762FE83B7ED289BC3 DUP2 DUP6 DUP6 DUP6 PUSH1 0x40 MLOAD PUSH2 0x2FD0 SWAP5 SWAP4 SWAP3 SWAP2 SWAP1 PUSH2 0x5251 JUMP JUMPDEST PUSH1 0x40 MLOAD DUP1 SWAP2 SUB SWAP1 LOG1 POP POP PUSH1 0x1 PUSH1 0x11 SSTORE POP POP JUMP JUMPDEST CALLER PUSH1 0x0 SWAP1 DUP2 MSTORE PUSH1 0x1E PUSH1 0x20 MSTORE PUSH1 0x40 SWAP1 KECCAK256 SLOAD PUSH1 0xFF AND DUP1 PUSH2 0x300B JUMPI POP PUSH1 0x10 SLOAD PUSH1 0x1 PUSH1 0x1 PUSH1 0xA0 SHL SUB AND CALLER EQ JUMPDEST PUSH2 0x3057 JUMPI PUSH1 0x40 MLOAD PUSH3 0x461BCD PUSH1 0xE5 SHL DUP2 MSTORE PUSH1 0x20 PUSH1 0x4 DUP3 ADD MSTORE PUSH1 0x1C PUSH1 0x24 DUP3 ADD MSTORE PUSH32 0x596F752063616E277420617070726F7665206C696B6520746861742E00000000 PUSH1 0x44 DUP3 ADD MSTORE PUSH1 0x64 ADD PUSH2 0x102B JUMP JUMPDEST PUSH2 0x116D DUP4 DUP3 PUSH2 0x33A5 JUMP JUMPDEST PUSH1 0x60 PUSH1 0x12 PUSH1 0x40 MLOAD PUSH1 0x20 ADD PUSH2 0x2E13 SWAP2 SWAP1 PUSH2 0x5288 JUMP JUMPDEST PUSH1 0x1 PUSH1 0x1 PUSH1 0xA0 SHL SUB SWAP2 DUP3 AND PUSH1 0x0 SWAP1 DUP2 MSTORE PUSH1 0x5 PUSH1 0x20 SWAP1 DUP2 MSTORE PUSH1 0x40 DUP1 DUP4 KECCAK256 SWAP4 SWAP1 SWAP5 AND DUP3 MSTORE SWAP2 SWAP1 SWAP2 MSTORE KECCAK256 SLOAD PUSH1 0xFF AND SWAP1 JUMP JUMPDEST PUSH2 0x30AB PUSH2 0x339B JUMP JUMPDEST PUSH1 0x1 PUSH1 0x1 PUSH1 0xA0 SHL SUB AND PUSH2 0x30BC PUSH2 0x21F0 JUMP JUMPDEST PUSH1 0x1 PUSH1 0x1 PUSH1 0xA0 SHL SUB AND EQ PUSH2 0x30E2 JUMPI PUSH1 0x40 MLOAD PUSH3 0x461BCD PUSH1 0xE5 SHL DUP2 MSTORE PUSH1 0x4 ADD PUSH2 0x102B SWAP1 PUSH2 0x5088 JUMP JUMPDEST PUSH1 0x1 PUSH1 0x1 PUSH1 0xA0 SHL SUB DUP2 AND PUSH2 0x3147 JUMPI PUSH1 0x40 MLOAD PUSH3 0x461BCD PUSH1 0xE5 SHL DUP2 MSTORE PUSH1 0x20 PUSH1 0x4 DUP3 ADD MSTORE PUSH1 0x26 PUSH1 0x24 DUP3 ADD MSTORE PUSH32 0x4F776E61626C653A206E6577206F776E657220697320746865207A65726F2061 PUSH1 0x44 DUP3 ADD MSTORE PUSH6 0x646472657373 PUSH1 0xD0 SHL PUSH1 0x64 DUP3 ADD MSTORE PUSH1 0x84 ADD PUSH2 0x102B JUMP JUMPDEST PUSH1 0xD SLOAD PUSH1 0x40 MLOAD PUSH1 0x1 PUSH1 0x1 PUSH1 0xA0 SHL SUB DUP1 DUP5 AND SWAP3 AND SWAP1 PUSH32 0x8BE0079C531659141344CD1FD0A4F28419497F9722A3DAAFE3B4186F6B6457E0 SWAP1 PUSH1 0x0 SWAP1 LOG3 PUSH1 0xD DUP1 SLOAD PUSH1 0x1 PUSH1 0x1 PUSH1 0xA0 SHL SUB NOT AND PUSH1 0x1 PUSH1 0x1 PUSH1 0xA0 SHL SUB SWAP3 SWAP1 SWAP3 AND SWAP2 SWAP1 SWAP2 OR SWAP1 SSTORE JUMP JUMPDEST CALLER PUSH1 0x0 SWAP1 DUP2 MSTORE PUSH1 0x1E PUSH1 0x20 MSTORE PUSH1 0x40 DUP2 KECCAK256 SLOAD PUSH1 0xFF AND DUP1 PUSH2 0x31CB JUMPI POP PUSH1 0x10 SLOAD PUSH1 0x1 PUSH1 0x1 PUSH1 0xA0 SHL SUB AND CALLER EQ JUMPDEST PUSH2 0x3223 JUMPI PUSH1 0x40 MLOAD PUSH3 0x461BCD PUSH1 0xE5 SHL DUP2 MSTORE PUSH1 0x20 PUSH1 0x4 DUP3 ADD MSTORE PUSH1 0x24 DUP1 DUP3 ADD MSTORE PUSH32 0x596F752063616E2774206D616B652061206E6577206974656D73207468697320 PUSH1 0x44 DUP3 ADD MSTORE PUSH4 0x3BB0BC97 PUSH1 0xE1 SHL PUSH1 0x64 DUP3 ADD MSTORE PUSH1 0x84 ADD PUSH2 0x102B JUMP JUMPDEST PUSH1 0x0 PUSH2 0x322D PUSH2 0x24BD JUMP JUMPDEST SWAP1 POP PUSH2 0x3239 DUP5 DUP3 PUSH2 0x3857 JUMP JUMPDEST PUSH2 0x3241 PUSH2 0x277D JUMP JUMPDEST PUSH1 0x40 MLOAD PUSH4 0x33D119EB PUSH1 0xE0 SHL DUP2 MSTORE PUSH1 0x4 DUP2 ADD DUP7 SWAP1 MSTORE PUSH1 0x1 PUSH1 0x1 PUSH1 0xA0 SHL SUB DUP8 AND SWAP1 PUSH4 0x33D119EB SWAP1 PUSH1 0x24 ADD PUSH1 0x20 PUSH1 0x40 MLOAD DUP1 DUP4 SUB DUP2 DUP7 GAS STATICCALL ISZERO DUP1 ISZERO PUSH2 0x3286 JUMPI RETURNDATASIZE PUSH1 0x0 DUP1 RETURNDATACOPY RETURNDATASIZE PUSH1 0x0 REVERT JUMPDEST POP POP POP POP PUSH1 0x40 MLOAD RETURNDATASIZE PUSH1 0x1F NOT PUSH1 0x1F DUP3 ADD AND DUP3 ADD DUP1 PUSH1 0x40 MSTORE POP DUP2 ADD SWAP1 PUSH2 0x32AA SWAP2 SWAP1 PUSH2 0x4E2E JUMP JUMPDEST PUSH1 0x0 DUP3 DUP2 MSTORE PUSH1 0x24 PUSH1 0x20 SWAP1 DUP2 MSTORE PUSH1 0x40 DUP1 DUP4 KECCAK256 SWAP4 SWAP1 SWAP4 SSTORE PUSH1 0x25 SWAP1 MSTORE KECCAK256 DUP4 SWAP1 SSTORE SWAP1 POP JUMPDEST SWAP5 SWAP4 POP POP POP POP JUMP JUMPDEST PUSH1 0x0 ADDRESS CALLER SUB PUSH2 0x3328 JUMPI PUSH1 0x0 DUP1 CALLDATASIZE DUP1 DUP1 PUSH1 0x1F ADD PUSH1 0x20 DUP1 SWAP2 DIV MUL PUSH1 0x20 ADD PUSH1 0x40 MLOAD SWAP1 DUP2 ADD PUSH1 0x40 MSTORE DUP1 SWAP4 SWAP3 SWAP2 SWAP1 DUP2 DUP2 MSTORE PUSH1 0x20 ADD DUP4 DUP4 DUP1 DUP3 DUP5 CALLDATACOPY PUSH1 0x0 SWAP3 ADD SWAP2 SWAP1 SWAP2 MSTORE POP POP POP POP CALLDATASIZE ADD MLOAD PUSH1 0x1 PUSH1 0x1 PUSH1 0xA0 SHL SUB AND SWAP2 POP PUSH2 0x332B SWAP1 POP JUMP JUMPDEST POP CALLER JUMPDEST SWAP1 JUMP JUMPDEST PUSH1 0x0 PUSH1 0x1 PUSH1 0x1 PUSH1 0xE0 SHL SUB NOT DUP3 AND PUSH4 0x80AC58CD PUSH1 0xE0 SHL EQ DUP1 PUSH2 0x335F JUMPI POP PUSH1 0x1 PUSH1 0x1 PUSH1 0xE0 SHL SUB NOT DUP3 AND PUSH4 0x5B5E139F PUSH1 0xE0 SHL EQ JUMPDEST DUP1 PUSH2 0xD7C JUMPI POP PUSH4 0x1FFC9A7 PUSH1 0xE0 SHL PUSH1 0x1 PUSH1 0x1 PUSH1 0xE0 SHL SUB NOT DUP4 AND EQ PUSH2 0xD7C JUMP JUMPDEST PUSH1 0x0 SWAP1 DUP2 MSTORE PUSH1 0x2 PUSH1 0x20 MSTORE PUSH1 0x40 SWAP1 KECCAK256 SLOAD PUSH1 0x1 PUSH1 0x1 PUSH1 0xA0 SHL SUB AND ISZERO ISZERO SWAP1 JUMP JUMPDEST PUSH1 0x0 PUSH2 0x24CE PUSH2 0x32D2 JUMP JUMPDEST PUSH1 0x0 DUP2 DUP2 MSTORE PUSH1 0x4 PUSH1 0x20 MSTORE PUSH1 0x40 SWAP1 KECCAK256 DUP1 SLOAD PUSH1 0x1 PUSH1 0x1 PUSH1 0xA0 SHL SUB NOT AND PUSH1 0x1 PUSH1 0x1 PUSH1 0xA0 SHL SUB DUP5 AND SWAP1 DUP2 OR SWAP1 SWAP2 SSTORE DUP2 SWAP1 PUSH2 0x33DA DUP3 PUSH2 0x1CF0 JUMP JUMPDEST PUSH1 0x1 PUSH1 0x1 PUSH1 0xA0 SHL SUB AND PUSH32 0x8C5BE1E5EBEC7D5BD14F71427D1E84F3DD0314C0F7B2291E5B200AC8C7C3B925 PUSH1 0x40 MLOAD PUSH1 0x40 MLOAD DUP1 SWAP2 SUB SWAP1 LOG4 POP POP JUMP JUMPDEST PUSH1 0x0 PUSH1 0x1 PUSH1 0x1 PUSH1 0xA0 SHL SUB DUP7 AND PUSH2 0x3479 JUMPI PUSH1 0x40 MLOAD PUSH3 0x461BCD PUSH1 0xE5 SHL DUP2 MSTORE PUSH1 0x20 PUSH1 0x4 DUP3 ADD MSTORE PUSH1 0x25 PUSH1 0x24 DUP3 ADD MSTORE PUSH32 0x4E61746976654D6574615472616E73616374696F6E3A20494E56414C49445F53 PUSH1 0x44 DUP3 ADD MSTORE PUSH5 0x24A3A722A9 PUSH1 0xD9 SHL PUSH1 0x64 DUP3 ADD MSTORE PUSH1 0x84 ADD PUSH2 0x102B JUMP JUMPDEST PUSH1 0x1 PUSH2 0x348C PUSH2 0x3487 DUP8 PUSH2 0x3F4F JUMP JUMPDEST PUSH2 0x3FCC JUMP JUMPDEST PUSH1 0x40 DUP1 MLOAD PUSH1 0x0 DUP2 MSTORE PUSH1 0x20 DUP2 ADD DUP1 DUP4 MSTORE SWAP3 SWAP1 SWAP3 MSTORE PUSH1 0xFF DUP6 AND SWAP1 DUP3 ADD MSTORE PUSH1 0x60 DUP2 ADD DUP7 SWAP1 MSTORE PUSH1 0x80 DUP2 ADD DUP6 SWAP1 MSTORE PUSH1 0xA0 ADD PUSH1 0x20 PUSH1 0x40 MLOAD PUSH1 0x20 DUP2 SUB SWAP1 DUP1 DUP5 SUB SWAP1 DUP6 GAS STATICCALL ISZERO DUP1 ISZERO PUSH2 0x34DA JUMPI RETURNDATASIZE PUSH1 0x0 DUP1 RETURNDATACOPY RETURNDATASIZE PUSH1 0x0 REVERT JUMPDEST POP POP POP PUSH1 0x20 PUSH1 0x40 MLOAD SUB MLOAD PUSH1 0x1 PUSH1 0x1 PUSH1 0xA0 SHL SUB AND DUP7 PUSH1 0x1 PUSH1 0x1 PUSH1 0xA0 SHL SUB AND EQ SWAP1 POP SWAP6 SWAP5 POP POP POP POP POP JUMP JUMPDEST PUSH1 0x0 PUSH2 0x1CE9 DUP3 DUP5 PUSH2 0x4D07 JUMP JUMPDEST PUSH2 0x2777 DUP5 PUSH4 0x23B872DD PUSH1 0xE0 SHL DUP6 DUP6 DUP6 PUSH1 0x40 MLOAD PUSH1 0x24 ADD PUSH2 0x3530 SWAP4 SWAP3 SWAP2 SWAP1 PUSH2 0x5168 JUMP JUMPDEST PUSH1 0x40 DUP1 MLOAD PUSH1 0x1F NOT DUP2 DUP5 SUB ADD DUP2 MSTORE SWAP2 SWAP1 MSTORE PUSH1 0x20 DUP2 ADD DUP1 MLOAD PUSH1 0x1 PUSH1 0x1 PUSH1 0xE0 SHL SUB AND PUSH1 0x1 PUSH1 0x1 PUSH1 0xE0 SHL SUB NOT SWAP1 SWAP4 AND SWAP3 SWAP1 SWAP3 OR SWAP1 SWAP2 MSTORE PUSH2 0x3FFC JUMP JUMPDEST PUSH1 0x0 PUSH2 0x3572 DUP3 PUSH2 0x337E JUMP JUMPDEST PUSH2 0x35D3 JUMPI PUSH1 0x40 MLOAD PUSH3 0x461BCD PUSH1 0xE5 SHL DUP2 MSTORE PUSH1 0x20 PUSH1 0x4 DUP3 ADD MSTORE PUSH1 0x2C PUSH1 0x24 DUP3 ADD MSTORE PUSH32 0x4552433732313A206F70657261746F7220717565727920666F72206E6F6E6578 PUSH1 0x44 DUP3 ADD MSTORE PUSH12 0x34B9BA32B73A103A37B5B2B7 PUSH1 0xA1 SHL PUSH1 0x64 DUP3 ADD MSTORE PUSH1 0x84 ADD PUSH2 0x102B JUMP JUMPDEST PUSH1 0x0 PUSH2 0x35DE DUP4 PUSH2 0x1CF0 JUMP JUMPDEST SWAP1 POP DUP1 PUSH1 0x1 PUSH1 0x1 PUSH1 0xA0 SHL SUB AND DUP5 PUSH1 0x1 PUSH1 0x1 PUSH1 0xA0 SHL SUB AND EQ DUP1 PUSH2 0x3619 JUMPI POP DUP4 PUSH1 0x1 PUSH1 0x1 PUSH1 0xA0 SHL SUB AND PUSH2 0x360E DUP5 PUSH2 0xFC3 JUMP JUMPDEST PUSH1 0x1 PUSH1 0x1 PUSH1 0xA0 SHL SUB AND EQ JUMPDEST DUP1 PUSH2 0x32CA JUMPI POP PUSH2 0x32CA DUP2 DUP6 PUSH2 0x3075 JUMP JUMPDEST DUP3 PUSH1 0x1 PUSH1 0x1 PUSH1 0xA0 SHL SUB AND PUSH2 0x363C DUP3 PUSH2 0x1CF0 JUMP JUMPDEST PUSH1 0x1 PUSH1 0x1 PUSH1 0xA0 SHL SUB AND EQ PUSH2 0x36A4 JUMPI PUSH1 0x40 MLOAD PUSH3 0x461BCD PUSH1 0xE5 SHL DUP2 MSTORE PUSH1 0x20 PUSH1 0x4 DUP3 ADD MSTORE PUSH1 0x29 PUSH1 0x24 DUP3 ADD MSTORE PUSH32 0x4552433732313A207472616E73666572206F6620746F6B656E20746861742069 PUSH1 0x44 DUP3 ADD MSTORE PUSH9 0x39903737BA1037BBB7 PUSH1 0xB9 SHL PUSH1 0x64 DUP3 ADD MSTORE PUSH1 0x84 ADD PUSH2 0x102B JUMP JUMPDEST PUSH1 0x1 PUSH1 0x1 PUSH1 0xA0 SHL SUB DUP3 AND PUSH2 0x3706 JUMPI PUSH1 0x40 MLOAD PUSH3 0x461BCD PUSH1 0xE5 SHL DUP2 MSTORE PUSH1 0x20 PUSH1 0x4 DUP3 ADD MSTORE PUSH1 0x24 DUP1 DUP3 ADD MSTORE PUSH32 0x4552433732313A207472616E7366657220746F20746865207A65726F20616464 PUSH1 0x44 DUP3 ADD MSTORE PUSH4 0x72657373 PUSH1 0xE0 SHL PUSH1 0x64 DUP3 ADD MSTORE PUSH1 0x84 ADD PUSH2 0x102B JUMP JUMPDEST PUSH2 0x3711 DUP4 DUP4 DUP4 PUSH2 0x40CE JUMP JUMPDEST PUSH2 0x371C PUSH1 0x0 DUP3 PUSH2 0x33A5 JUMP JUMPDEST PUSH1 0x1 PUSH1 0x1 PUSH1 0xA0 SHL SUB DUP4 AND PUSH1 0x0 SWAP1 DUP2 MSTORE PUSH1 0x3 PUSH1 0x20 MSTORE PUSH1 0x40 DUP2 KECCAK256 DUP1 SLOAD PUSH1 0x1 SWAP3 SWAP1 PUSH2 0x3745 SWAP1 DUP5 SWAP1 PUSH2 0x4E47 JUMP JUMPDEST SWAP1 SWAP2 SSTORE POP POP PUSH1 0x1 PUSH1 0x1 PUSH1 0xA0 SHL SUB DUP3 AND PUSH1 0x0 SWAP1 DUP2 MSTORE PUSH1 0x3 PUSH1 0x20 MSTORE PUSH1 0x40 DUP2 KECCAK256 DUP1 SLOAD PUSH1 0x1 SWAP3 SWAP1 PUSH2 0x3773 SWAP1 DUP5 SWAP1 PUSH2 0x4D07 JUMP JUMPDEST SWAP1 SWAP2 SSTORE POP POP PUSH1 0x0 DUP2 DUP2 MSTORE PUSH1 0x2 PUSH1 0x20 MSTORE PUSH1 0x40 DUP1 DUP3 KECCAK256 DUP1 SLOAD PUSH1 0x1 PUSH1 0x1 PUSH1 0xA0 SHL SUB NOT AND PUSH1 0x1 PUSH1 0x1 PUSH1 0xA0 SHL SUB DUP7 DUP2 AND SWAP2 DUP3 OR SWAP1 SWAP3 SSTORE SWAP2 MLOAD DUP5 SWAP4 SWAP2 DUP8 AND SWAP2 PUSH1 0x0 DUP1 MLOAD PUSH1 0x20 PUSH2 0x541B DUP4 CODECOPY DUP2 MLOAD SWAP2 MSTORE SWAP2 LOG4 POP POP POP JUMP JUMPDEST PUSH1 0x0 PUSH2 0x37CD DUP3 PUSH2 0x1CF0 JUMP JUMPDEST SWAP1 POP PUSH2 0x37DB DUP2 PUSH1 0x0 DUP5 PUSH2 0x40CE JUMP JUMPDEST PUSH2 0x37E6 PUSH1 0x0 DUP4 PUSH2 0x33A5 JUMP JUMPDEST PUSH1 0x1 PUSH1 0x1 PUSH1 0xA0 SHL SUB DUP2 AND PUSH1 0x0 SWAP1 DUP2 MSTORE PUSH1 0x3 PUSH1 0x20 MSTORE PUSH1 0x40 DUP2 KECCAK256 DUP1 SLOAD PUSH1 0x1 SWAP3 SWAP1 PUSH2 0x380F SWAP1 DUP5 SWAP1 PUSH2 0x4E47 JUMP JUMPDEST SWAP1 SWAP2 SSTORE POP POP PUSH1 0x0 DUP3 DUP2 MSTORE PUSH1 0x2 PUSH1 0x20 MSTORE PUSH1 0x40 DUP1 DUP3 KECCAK256 DUP1 SLOAD PUSH1 0x1 PUSH1 0x1 PUSH1 0xA0 SHL SUB NOT AND SWAP1 SSTORE MLOAD DUP4 SWAP2 SWAP1 PUSH1 0x1 PUSH1 0x1 PUSH1 0xA0 SHL SUB DUP5 AND SWAP1 PUSH1 0x0 DUP1 MLOAD PUSH1 0x20 PUSH2 0x541B DUP4 CODECOPY DUP2 MLOAD SWAP2 MSTORE SWAP1 DUP4 SWAP1 LOG4 POP POP JUMP JUMPDEST PUSH1 0x1 PUSH1 0x1 PUSH1 0xA0 SHL SUB DUP3 AND PUSH2 0x38AD JUMPI PUSH1 0x40 MLOAD PUSH3 0x461BCD PUSH1 0xE5 SHL DUP2 MSTORE PUSH1 0x20 PUSH1 0x4 DUP3 ADD DUP2 SWAP1 MSTORE PUSH1 0x24 DUP3 ADD MSTORE PUSH32 0x4552433732313A206D696E7420746F20746865207A65726F2061646472657373 PUSH1 0x44 DUP3 ADD MSTORE PUSH1 0x64 ADD PUSH2 0x102B JUMP JUMPDEST PUSH2 0x38B6 DUP2 PUSH2 0x337E JUMP JUMPDEST ISZERO PUSH2 0x3903 JUMPI PUSH1 0x40 MLOAD PUSH3 0x461BCD PUSH1 0xE5 SHL DUP2 MSTORE PUSH1 0x20 PUSH1 0x4 DUP3 ADD MSTORE PUSH1 0x1C PUSH1 0x24 DUP3 ADD MSTORE PUSH32 0x4552433732313A20746F6B656E20616C7265616479206D696E74656400000000 PUSH1 0x44 DUP3 ADD MSTORE PUSH1 0x64 ADD PUSH2 0x102B JUMP JUMPDEST PUSH2 0x390F PUSH1 0x0 DUP4 DUP4 PUSH2 0x40CE JUMP JUMPDEST PUSH1 0x1 PUSH1 0x1 PUSH1 0xA0 SHL SUB DUP3 AND PUSH1 0x0 SWAP1 DUP2 MSTORE PUSH1 0x3 PUSH1 0x20 MSTORE PUSH1 0x40 DUP2 KECCAK256 DUP1 SLOAD PUSH1 0x1 SWAP3 SWAP1 PUSH2 0x3938 SWAP1 DUP5 SWAP1 PUSH2 0x4D07 JUMP JUMPDEST SWAP1 SWAP2 SSTORE POP POP PUSH1 0x0 DUP2 DUP2 MSTORE PUSH1 0x2 PUSH1 0x20 MSTORE PUSH1 0x40 DUP1 DUP3 KECCAK256 DUP1 SLOAD PUSH1 0x1 PUSH1 0x1 PUSH1 0xA0 SHL SUB NOT AND PUSH1 0x1 PUSH1 0x1 PUSH1 0xA0 SHL SUB DUP7 AND SWAP1 DUP2 OR SWAP1 SWAP2 SSTORE SWAP1 MLOAD DUP4 SWAP3 SWAP1 PUSH1 0x0 DUP1 MLOAD PUSH1 0x20 PUSH2 0x541B DUP4 CODECOPY DUP2 MLOAD SWAP2 MSTORE SWAP1 DUP3 SWAP1 LOG4 POP POP JUMP JUMPDEST PUSH1 0x40 DUP1 MLOAD PUSH1 0x20 DUP2 ADD SWAP1 SWAP2 MSTORE PUSH1 0x0 DUP2 MSTORE PUSH1 0x0 PUSH1 0x1 JUMPDEST PUSH1 0xE DUP2 SGT PUSH2 0x3B08 JUMPI PUSH1 0x1 PUSH1 0x1 PUSH1 0xA0 SHL SUB DUP7 AND PUSH1 0x0 SWAP1 DUP2 MSTORE PUSH1 0x27 PUSH1 0x20 SWAP1 DUP2 MSTORE PUSH1 0x40 DUP1 DUP4 KECCAK256 DUP9 DUP5 MSTORE DUP3 MSTORE DUP1 DUP4 KECCAK256 DUP5 DUP5 MSTORE SWAP1 SWAP2 MSTORE SWAP1 KECCAK256 SLOAD DUP1 ISZERO PUSH2 0x3AF5 JUMPI PUSH1 0x0 DUP2 DUP2 MSTORE PUSH1 0x26 PUSH1 0x20 SWAP1 DUP2 MSTORE PUSH1 0x40 SWAP2 DUP3 SWAP1 KECCAK256 DUP3 MLOAD PUSH2 0x160 DUP2 ADD DUP5 MSTORE DUP2 SLOAD DUP2 MSTORE PUSH1 0x1 DUP3 ADD SLOAD SWAP3 DUP2 ADD SWAP3 SWAP1 SWAP3 MSTORE PUSH1 0x2 DUP2 ADD SLOAD DUP3 DUP5 ADD MSTORE PUSH1 0x3 DUP2 ADD SLOAD PUSH1 0x60 DUP4 ADD MSTORE PUSH1 0x4 DUP1 DUP3 ADD SLOAD PUSH1 0x80 DUP5 ADD MSTORE PUSH1 0x5 DUP3 ADD SLOAD PUSH1 0xA0 DUP5 ADD MSTORE PUSH1 0x6 DUP3 ADD SLOAD PUSH1 0xC0 DUP5 ADD MSTORE PUSH1 0x7 DUP3 ADD SLOAD PUSH1 0xE0 DUP5 ADD MSTORE PUSH1 0x8 DUP3 ADD SLOAD PUSH2 0x100 DUP5 ADD MSTORE PUSH1 0x9 DUP3 ADD SLOAD PUSH2 0x120 DUP5 ADD MSTORE PUSH1 0xA SWAP1 SWAP2 ADD SLOAD PUSH2 0x140 DUP4 ADD MSTORE PUSH1 0x21 SLOAD SWAP3 MLOAD PUSH4 0xA2D0829 PUSH1 0xE2 SHL DUP2 MSTORE PUSH1 0x1 PUSH1 0x1 PUSH1 0xA0 SHL SUB DUP12 DUP2 AND SWAP3 DUP3 ADD SWAP3 SWAP1 SWAP3 MSTORE PUSH1 0x24 DUP2 ADD DUP11 SWAP1 MSTORE PUSH1 0x44 DUP2 ADD DUP10 SWAP1 MSTORE SWAP2 SWAP3 AND SWAP1 PUSH4 0x28B420A4 SWAP1 PUSH1 0x64 ADD PUSH1 0x20 PUSH1 0x40 MLOAD DUP1 DUP4 SUB DUP2 DUP7 GAS STATICCALL ISZERO DUP1 ISZERO PUSH2 0x3AB4 JUMPI RETURNDATASIZE PUSH1 0x0 DUP1 RETURNDATACOPY RETURNDATASIZE PUSH1 0x0 REVERT JUMPDEST POP POP POP POP PUSH1 0x40 MLOAD RETURNDATASIZE PUSH1 0x1F NOT PUSH1 0x1F DUP3 ADD AND DUP3 ADD DUP1 PUSH1 0x40 MSTORE POP DUP2 ADD SWAP1 PUSH2 0x3AD8 SWAP2 SWAP1 PUSH2 0x4E2E JUMP JUMPDEST DUP2 PUSH1 0x60 ADD MLOAD PUSH2 0x3AE7 SWAP2 SWAP1 PUSH2 0x503F JUMP JUMPDEST PUSH2 0x3AF1 SWAP1 DUP6 PUSH2 0x4D07 JUMP JUMPDEST SWAP4 POP POP JUMPDEST POP DUP1 PUSH2 0x3B00 DUP2 PUSH2 0x4D1F JUMP JUMPDEST SWAP2 POP POP PUSH2 0x3998 JUMP JUMPDEST POP PUSH1 0x40 DUP1 MLOAD PUSH1 0x20 DUP2 ADD SWAP1 SWAP2 MSTORE SWAP1 DUP2 MSTORE SWAP5 SWAP4 POP POP POP POP JUMP JUMPDEST PUSH2 0x3B2A DUP5 DUP5 DUP5 PUSH2 0x3629 JUMP JUMPDEST PUSH2 0x3B36 DUP5 DUP5 DUP5 DUP5 PUSH2 0x4186 JUMP JUMPDEST PUSH2 0x2777 JUMPI PUSH1 0x40 MLOAD PUSH3 0x461BCD PUSH1 0xE5 SHL DUP2 MSTORE PUSH1 0x4 ADD PUSH2 0x102B SWAP1 PUSH2 0x52AD JUMP JUMPDEST PUSH2 0x116D DUP4 PUSH4 0xA9059CBB PUSH1 0xE0 SHL DUP5 DUP5 PUSH1 0x40 MLOAD PUSH1 0x24 ADD PUSH2 0x3530 SWAP3 SWAP2 SWAP1 PUSH2 0x4BD0 JUMP JUMPDEST PUSH2 0x3BAA PUSH1 0x40 MLOAD DUP1 PUSH1 0xC0 ADD PUSH1 0x40 MSTORE DUP1 PUSH1 0x0 DUP2 MSTORE PUSH1 0x20 ADD PUSH1 0x0 DUP2 MSTORE PUSH1 0x20 ADD PUSH1 0x0 DUP2 MSTORE PUSH1 0x20 ADD PUSH1 0x0 DUP2 MSTORE PUSH1 0x20 ADD PUSH1 0x0 DUP2 MSTORE PUSH1 0x20 ADD PUSH1 0x0 DUP2 MSTORE POP SWAP1 JUMP JUMPDEST PUSH1 0x21 SLOAD PUSH1 0x40 MLOAD PUSH4 0x3DE49A8B PUSH1 0xE1 SHL DUP2 MSTORE PUSH1 0x0 SWAP2 PUSH1 0x1 PUSH1 0x1 PUSH1 0xA0 SHL SUB AND SWAP1 PUSH4 0x7BC93516 SWAP1 PUSH2 0x3BDD SWAP1 DUP8 SWAP1 DUP8 SWAP1 PUSH1 0x4 ADD PUSH2 0x4BD0 JUMP JUMPDEST PUSH1 0x20 PUSH1 0x40 MLOAD DUP1 DUP4 SUB DUP2 DUP7 GAS STATICCALL ISZERO DUP1 ISZERO PUSH2 0x3BFA JUMPI RETURNDATASIZE PUSH1 0x0 DUP1 RETURNDATACOPY RETURNDATASIZE PUSH1 0x0 REVERT JUMPDEST POP POP POP POP PUSH1 0x40 MLOAD RETURNDATASIZE PUSH1 0x1F NOT PUSH1 0x1F DUP3 ADD AND DUP3 ADD DUP1 PUSH1 0x40 MSTORE POP DUP2 ADD SWAP1 PUSH2 0x3C1E SWAP2 SWAP1 PUSH2 0x4E2E JUMP JUMPDEST SWAP1 POP PUSH1 0x0 DUP1 DUP1 DUP1 DUP1 DUP1 PUSH1 0x1 JUMPDEST PUSH1 0xE DUP2 SGT PUSH2 0x3D6B JUMPI PUSH1 0x1 PUSH1 0x1 PUSH1 0xA0 SHL SUB DUP12 AND PUSH1 0x0 SWAP1 DUP2 MSTORE PUSH1 0x27 PUSH1 0x20 SWAP1 DUP2 MSTORE PUSH1 0x40 DUP1 DUP4 KECCAK256 DUP14 DUP5 MSTORE DUP3 MSTORE DUP1 DUP4 KECCAK256 DUP5 DUP5 MSTORE SWAP1 SWAP2 MSTORE SWAP1 KECCAK256 SLOAD DUP1 ISZERO PUSH2 0x3D58 JUMPI PUSH1 0x0 DUP2 DUP2 MSTORE PUSH1 0x26 PUSH1 0x20 SWAP1 DUP2 MSTORE PUSH1 0x40 SWAP2 DUP3 SWAP1 KECCAK256 DUP3 MLOAD PUSH2 0x160 DUP2 ADD DUP5 MSTORE DUP2 SLOAD DUP2 MSTORE PUSH1 0x1 DUP3 ADD SLOAD SWAP3 DUP2 ADD DUP4 SWAP1 MSTORE PUSH1 0x2 DUP3 ADD SLOAD SWAP4 DUP2 ADD SWAP4 SWAP1 SWAP4 MSTORE PUSH1 0x3 DUP2 ADD SLOAD PUSH1 0x60 DUP5 ADD MSTORE PUSH1 0x4 DUP2 ADD SLOAD PUSH1 0x80 DUP5 ADD MSTORE PUSH1 0x5 DUP2 ADD SLOAD PUSH1 0xA0 DUP5 ADD MSTORE PUSH1 0x6 DUP2 ADD SLOAD PUSH1 0xC0 DUP5 ADD MSTORE PUSH1 0x7 DUP2 ADD SLOAD PUSH1 0xE0 DUP5 ADD MSTORE PUSH1 0x8 DUP2 ADD SLOAD PUSH2 0x100 DUP5 ADD MSTORE PUSH1 0x9 DUP2 ADD SLOAD PUSH2 0x120 DUP5 ADD MSTORE PUSH1 0xA ADD SLOAD PUSH2 0x140 DUP4 ADD MSTORE PUSH2 0x3CF7 SWAP1 DUP12 SWAP1 PUSH2 0x503F JUMP JUMPDEST PUSH2 0x3D01 SWAP1 DUP11 PUSH2 0x4D07 JUMP JUMPDEST SWAP9 POP DUP1 PUSH1 0xA0 ADD MLOAD DUP9 PUSH2 0x3D13 SWAP2 SWAP1 PUSH2 0x52FF JUMP JUMPDEST SWAP8 POP DUP1 PUSH1 0xC0 ADD MLOAD DUP8 PUSH2 0x3D25 SWAP2 SWAP1 PUSH2 0x52FF JUMP JUMPDEST SWAP7 POP DUP1 PUSH1 0xE0 ADD MLOAD DUP7 PUSH2 0x3D37 SWAP2 SWAP1 PUSH2 0x52FF JUMP JUMPDEST SWAP6 POP DUP1 PUSH2 0x100 ADD MLOAD DUP6 PUSH2 0x3D4A SWAP2 SWAP1 PUSH2 0x52FF JUMP JUMPDEST SWAP5 POP DUP1 PUSH2 0x120 ADD MLOAD DUP5 OR SWAP4 POP POP JUMPDEST POP DUP1 PUSH2 0x3D63 DUP2 PUSH2 0x4D1F JUMP JUMPDEST SWAP2 POP POP PUSH2 0x3C2A JUMP JUMPDEST POP PUSH1 0x40 DUP1 MLOAD PUSH1 0xC0 DUP2 ADD DUP3 MSTORE DUP8 DUP2 MSTORE PUSH1 0x20 DUP2 ADD DUP8 SWAP1 MSTORE DUP1 DUP3 ADD DUP7 SWAP1 MSTORE PUSH1 0x60 DUP2 ADD DUP6 SWAP1 MSTORE PUSH1 0x80 DUP2 ADD DUP5 SWAP1 MSTORE PUSH1 0xA0 DUP2 ADD DUP4 SWAP1 MSTORE SWAP1 MLOAD PUSH4 0x4BC43A5 PUSH1 0xE0 SHL DUP2 MSTORE PUSH1 0x1 PUSH1 0x1 PUSH1 0xA0 SHL SUB DUP13 AND SWAP1 PUSH4 0x4BC43A5 SWAP1 PUSH2 0x3E0E SWAP1 DUP14 SWAP1 DUP6 SWAP1 PUSH1 0x4 ADD PUSH1 0x0 PUSH1 0xE0 DUP3 ADD SWAP1 POP DUP4 DUP3 MSTORE DUP3 MLOAD PUSH1 0x20 DUP4 ADD MSTORE PUSH1 0x20 DUP4 ADD MLOAD PUSH1 0x40 DUP4 ADD MSTORE PUSH1 0x40 DUP4 ADD MLOAD PUSH1 0x60 DUP4 ADD MSTORE PUSH1 0x60 DUP4 ADD MLOAD PUSH1 0x80 DUP4 ADD MSTORE PUSH1 0x80 DUP4 ADD MLOAD PUSH1 0xA0 DUP4 ADD MSTORE PUSH1 0xA0 DUP4 ADD MLOAD PUSH1 0xC0 DUP4 ADD MSTORE SWAP4 SWAP3 POP POP POP JUMP JUMPDEST PUSH1 0x0 PUSH1 0x40 MLOAD DUP1 DUP4 SUB DUP2 PUSH1 0x0 DUP8 DUP1 EXTCODESIZE ISZERO DUP1 ISZERO PUSH2 0x3E28 JUMPI PUSH1 0x0 DUP1 REVERT JUMPDEST POP GAS CALL ISZERO DUP1 ISZERO PUSH2 0x3E3C JUMPI RETURNDATASIZE PUSH1 0x0 DUP1 RETURNDATACOPY RETURNDATASIZE PUSH1 0x0 REVERT JUMPDEST POP SWAP3 SWAP14 SWAP13 POP POP POP POP POP POP POP POP POP POP POP POP POP JUMP JUMPDEST PUSH1 0x60 DUP2 PUSH1 0x0 SUB PUSH2 0x3E76 JUMPI POP POP PUSH1 0x40 DUP1 MLOAD DUP1 DUP3 ADD SWAP1 SWAP2 MSTORE PUSH1 0x1 DUP2 MSTORE PUSH1 0x3 PUSH1 0xFC SHL PUSH1 0x20 DUP3 ADD MSTORE SWAP1 JUMP JUMPDEST DUP2 PUSH1 0x0 JUMPDEST DUP2 ISZERO PUSH2 0x3EA0 JUMPI DUP1 PUSH2 0x3E8A DUP2 PUSH2 0x4EEE JUMP JUMPDEST SWAP2 POP PUSH2 0x3E99 SWAP1 POP PUSH1 0xA DUP4 PUSH2 0x5074 JUMP JUMPDEST SWAP2 POP PUSH2 0x3E7A JUMP JUMPDEST PUSH1 0x0 DUP2 PUSH1 0x1 PUSH1 0x1 PUSH1 0x40 SHL SUB DUP2 GT ISZERO PUSH2 0x3EBA JUMPI PUSH2 0x3EBA PUSH2 0x46D2 JUMP JUMPDEST PUSH1 0x40 MLOAD SWAP1 DUP1 DUP3 MSTORE DUP1 PUSH1 0x1F ADD PUSH1 0x1F NOT AND PUSH1 0x20 ADD DUP3 ADD PUSH1 0x40 MSTORE DUP1 ISZERO PUSH2 0x3EE4 JUMPI PUSH1 0x20 DUP3 ADD DUP2 DUP1 CALLDATASIZE DUP4 CALLDATACOPY ADD SWAP1 POP JUMPDEST POP SWAP1 POP JUMPDEST DUP5 ISZERO PUSH2 0x32CA JUMPI PUSH2 0x3EF9 PUSH1 0x1 DUP4 PUSH2 0x4E47 JUMP JUMPDEST SWAP2 POP PUSH2 0x3F06 PUSH1 0xA DUP7 PUSH2 0x5340 JUMP JUMPDEST PUSH2 0x3F11 SWAP1 PUSH1 0x30 PUSH2 0x4D07 JUMP JUMPDEST PUSH1 0xF8 SHL DUP2 DUP4 DUP2 MLOAD DUP2 LT PUSH2 0x3F26 JUMPI PUSH2 0x3F26 PUSH2 0x4ED8 JUMP JUMPDEST PUSH1 0x20 ADD ADD SWAP1 PUSH1 0x1 PUSH1 0x1 PUSH1 0xF8 SHL SUB NOT AND SWAP1 DUP2 PUSH1 0x0 BYTE SWAP1 MSTORE8 POP PUSH2 0x3F48 PUSH1 0xA DUP7 PUSH2 0x5074 JUMP JUMPDEST SWAP5 POP PUSH2 0x3EE8 JUMP JUMPDEST PUSH1 0x0 PUSH1 0x40 MLOAD DUP1 PUSH1 0x80 ADD PUSH1 0x40 MSTORE DUP1 PUSH1 0x43 DUP2 MSTORE PUSH1 0x20 ADD PUSH2 0x53D8 PUSH1 0x43 SWAP2 CODECOPY DUP1 MLOAD PUSH1 0x20 SWAP2 DUP3 ADD KECCAK256 DUP4 MLOAD DUP5 DUP4 ADD MLOAD PUSH1 0x40 DUP1 DUP8 ADD MLOAD DUP1 MLOAD SWAP1 DUP7 ADD KECCAK256 SWAP1 MLOAD PUSH2 0x3FAF SWAP6 ADD SWAP4 DUP5 MSTORE PUSH1 0x20 DUP5 ADD SWAP3 SWAP1 SWAP3 MSTORE PUSH1 0x1 PUSH1 0x1 PUSH1 0xA0 SHL SUB AND PUSH1 0x40 DUP4 ADD MSTORE PUSH1 0x60 DUP3 ADD MSTORE PUSH1 0x80 ADD SWAP1 JUMP JUMPDEST PUSH1 0x40 MLOAD PUSH1 0x20 DUP2 DUP4 SUB SUB DUP2 MSTORE SWAP1 PUSH1 0x40 MSTORE DUP1 MLOAD SWAP1 PUSH1 0x20 ADD KECCAK256 SWAP1 POP SWAP2 SWAP1 POP JUMP JUMPDEST PUSH1 0x0 PUSH2 0x3FD7 PUSH1 0xB SLOAD SWAP1 JUMP JUMPDEST PUSH1 0x40 MLOAD PUSH2 0x1901 PUSH1 0xF0 SHL PUSH1 0x20 DUP3 ADD MSTORE PUSH1 0x22 DUP2 ADD SWAP2 SWAP1 SWAP2 MSTORE PUSH1 0x42 DUP2 ADD DUP4 SWAP1 MSTORE PUSH1 0x62 ADD PUSH2 0x3FAF JUMP JUMPDEST PUSH1 0x0 PUSH2 0x4051 DUP3 PUSH1 0x40 MLOAD DUP1 PUSH1 0x40 ADD PUSH1 0x40 MSTORE DUP1 PUSH1 0x20 DUP2 MSTORE PUSH1 0x20 ADD PUSH32 0x5361666545524332303A206C6F772D6C6576656C2063616C6C206661696C6564 DUP2 MSTORE POP DUP6 PUSH1 0x1 PUSH1 0x1 PUSH1 0xA0 SHL SUB AND PUSH2 0x428B SWAP1 SWAP3 SWAP2 SWAP1 PUSH4 0xFFFFFFFF AND JUMP JUMPDEST DUP1 MLOAD SWAP1 SWAP2 POP ISZERO PUSH2 0x116D JUMPI DUP1 DUP1 PUSH1 0x20 ADD SWAP1 MLOAD DUP2 ADD SWAP1 PUSH2 0x406F SWAP2 SWAP1 PUSH2 0x5354 JUMP JUMPDEST PUSH2 0x116D JUMPI PUSH1 0x40 MLOAD PUSH3 0x461BCD PUSH1 0xE5 SHL DUP2 MSTORE PUSH1 0x20 PUSH1 0x4 DUP3 ADD MSTORE PUSH1 0x2A PUSH1 0x24 DUP3 ADD MSTORE PUSH32 0x5361666545524332303A204552433230206F7065726174696F6E20646964206E PUSH1 0x44 DUP3 ADD MSTORE PUSH10 0x1BDD081CDD58D8D95959 PUSH1 0xB2 SHL PUSH1 0x64 DUP3 ADD MSTORE PUSH1 0x84 ADD PUSH2 0x102B JUMP JUMPDEST PUSH1 0x1 PUSH1 0x1 PUSH1 0xA0 SHL SUB DUP4 AND PUSH2 0x4129 JUMPI PUSH2 0x4124 DUP2 PUSH1 0x8 DUP1 SLOAD PUSH1 0x0 DUP4 DUP2 MSTORE PUSH1 0x9 PUSH1 0x20 MSTORE PUSH1 0x40 DUP2 KECCAK256 DUP3 SWAP1 SSTORE PUSH1 0x1 DUP3 ADD DUP4 SSTORE SWAP2 SWAP1 SWAP2 MSTORE PUSH32 0xF3F7A9FE364FAAB93B216DA50A3214154F22A0A2B415B23A84C8169E8B636EE3 ADD SSTORE JUMP JUMPDEST PUSH2 0x414C JUMP JUMPDEST DUP2 PUSH1 0x1 PUSH1 0x1 PUSH1 0xA0 SHL SUB AND DUP4 PUSH1 0x1 PUSH1 0x1 PUSH1 0xA0 SHL SUB AND EQ PUSH2 0x414C JUMPI PUSH2 0x414C DUP4 DUP3 PUSH2 0x429A JUMP JUMPDEST PUSH1 0x1 PUSH1 0x1 PUSH1 0xA0 SHL SUB DUP3 AND PUSH2 0x4163 JUMPI PUSH2 0x116D DUP2 PUSH2 0x4337 JUMP JUMPDEST DUP3 PUSH1 0x1 PUSH1 0x1 PUSH1 0xA0 SHL SUB AND DUP3 PUSH1 0x1 PUSH1 0x1 PUSH1 0xA0 SHL SUB AND EQ PUSH2 0x116D JUMPI PUSH2 0x116D DUP3 DUP3 PUSH2 0x43E6 JUMP JUMPDEST PUSH1 0x0 PUSH1 0x1 PUSH1 0x1 PUSH1 0xA0 SHL SUB DUP5 AND EXTCODESIZE ISZERO PUSH2 0x4283 JUMPI DUP4 PUSH1 0x1 PUSH1 0x1 PUSH1 0xA0 SHL SUB AND PUSH4 0x150B7A02 PUSH2 0x41AF PUSH2 0x339B JUMP JUMPDEST DUP8 DUP7 DUP7 PUSH1 0x40 MLOAD DUP6 PUSH4 0xFFFFFFFF AND PUSH1 0xE0 SHL DUP2 MSTORE PUSH1 0x4 ADD PUSH2 0x41D1 SWAP5 SWAP4 SWAP3 SWAP2 SWAP1 PUSH2 0x5371 JUMP JUMPDEST PUSH1 0x20 PUSH1 0x40 MLOAD DUP1 DUP4 SUB DUP2 PUSH1 0x0 DUP8 GAS CALL SWAP3 POP POP POP DUP1 ISZERO PUSH2 0x420C JUMPI POP PUSH1 0x40 DUP1 MLOAD PUSH1 0x1F RETURNDATASIZE SWAP1 DUP2 ADD PUSH1 0x1F NOT AND DUP3 ADD SWAP1 SWAP3 MSTORE PUSH2 0x4209 SWAP2 DUP2 ADD SWAP1 PUSH2 0x53A4 JUMP JUMPDEST PUSH1 0x1 JUMPDEST PUSH2 0x4269 JUMPI RETURNDATASIZE DUP1 DUP1 ISZERO PUSH2 0x423A JUMPI PUSH1 0x40 MLOAD SWAP2 POP PUSH1 0x1F NOT PUSH1 0x3F RETURNDATASIZE ADD AND DUP3 ADD PUSH1 0x40 MSTORE RETURNDATASIZE DUP3 MSTORE RETURNDATASIZE PUSH1 0x0 PUSH1 0x20 DUP5 ADD RETURNDATACOPY PUSH2 0x423F JUMP JUMPDEST PUSH1 0x60 SWAP2 POP JUMPDEST POP DUP1 MLOAD PUSH1 0x0 SUB PUSH2 0x4261 JUMPI PUSH1 0x40 MLOAD PUSH3 0x461BCD PUSH1 0xE5 SHL DUP2 MSTORE PUSH1 0x4 ADD PUSH2 0x102B SWAP1 PUSH2 0x52AD JUMP JUMPDEST DUP1 MLOAD DUP2 PUSH1 0x20 ADD REVERT JUMPDEST PUSH1 0x1 PUSH1 0x1 PUSH1 0xE0 SHL SUB NOT AND PUSH4 0xA85BD01 PUSH1 0xE1 SHL EQ SWAP1 POP PUSH2 0x32CA JUMP JUMPDEST POP PUSH1 0x1 PUSH2 0x32CA JUMP JUMPDEST PUSH1 0x60 PUSH2 0x32CA DUP5 DUP5 PUSH1 0x0 DUP6 PUSH2 0x442A JUMP JUMPDEST PUSH1 0x0 PUSH1 0x1 PUSH2 0x42A7 DUP5 PUSH2 0x1E45 JUMP JUMPDEST PUSH2 0x42B1 SWAP2 SWAP1 PUSH2 0x4E47 JUMP JUMPDEST PUSH1 0x0 DUP4 DUP2 MSTORE PUSH1 0x7 PUSH1 0x20 MSTORE PUSH1 0x40 SWAP1 KECCAK256 SLOAD SWAP1 SWAP2 POP DUP1 DUP3 EQ PUSH2 0x4304 JUMPI PUSH1 0x1 PUSH1 0x1 PUSH1 0xA0 SHL SUB DUP5 AND PUSH1 0x0 SWAP1 DUP2 MSTORE PUSH1 0x6 PUSH1 0x20 SWAP1 DUP2 MSTORE PUSH1 0x40 DUP1 DUP4 KECCAK256 DUP6 DUP5 MSTORE DUP3 MSTORE DUP1 DUP4 KECCAK256 SLOAD DUP5 DUP5 MSTORE DUP2 DUP5 KECCAK256 DUP2 SWAP1 SSTORE DUP4 MSTORE PUSH1 0x7 SWAP1 SWAP2 MSTORE SWAP1 KECCAK256 DUP2 SWAP1 SSTORE JUMPDEST POP PUSH1 0x0 SWAP2 DUP3 MSTORE PUSH1 0x7 PUSH1 0x20 SWAP1 DUP2 MSTORE PUSH1 0x40 DUP1 DUP5 KECCAK256 DUP5 SWAP1 SSTORE PUSH1 0x1 PUSH1 0x1 PUSH1 0xA0 SHL SUB SWAP1 SWAP5 AND DUP4 MSTORE PUSH1 0x6 DUP2 MSTORE DUP4 DUP4 KECCAK256 SWAP2 DUP4 MSTORE MSTORE SWAP1 DUP2 KECCAK256 SSTORE JUMP JUMPDEST PUSH1 0x8 SLOAD PUSH1 0x0 SWAP1 PUSH2 0x4349 SWAP1 PUSH1 0x1 SWAP1 PUSH2 0x4E47 JUMP JUMPDEST PUSH1 0x0 DUP4 DUP2 MSTORE PUSH1 0x9 PUSH1 0x20 MSTORE PUSH1 0x40 DUP2 KECCAK256 SLOAD PUSH1 0x8 DUP1 SLOAD SWAP4 SWAP5 POP SWAP1 SWAP3 DUP5 SWAP1 DUP2 LT PUSH2 0x4371 JUMPI PUSH2 0x4371 PUSH2 0x4ED8 JUMP JUMPDEST SWAP1 PUSH1 0x0 MSTORE PUSH1 0x20 PUSH1 0x0 KECCAK256 ADD SLOAD SWAP1 POP DUP1 PUSH1 0x8 DUP4 DUP2 SLOAD DUP2 LT PUSH2 0x4392 JUMPI PUSH2 0x4392 PUSH2 0x4ED8 JUMP JUMPDEST PUSH1 0x0 SWAP2 DUP3 MSTORE PUSH1 0x20 DUP1 DUP4 KECCAK256 SWAP1 SWAP2 ADD SWAP3 SWAP1 SWAP3 SSTORE DUP3 DUP2 MSTORE PUSH1 0x9 SWAP1 SWAP2 MSTORE PUSH1 0x40 DUP1 DUP3 KECCAK256 DUP5 SWAP1 SSTORE DUP6 DUP3 MSTORE DUP2 KECCAK256 SSTORE PUSH1 0x8 DUP1 SLOAD DUP1 PUSH2 0x43CA JUMPI PUSH2 0x43CA PUSH2 0x53C1 JUMP JUMPDEST PUSH1 0x1 SWAP1 SUB DUP2 DUP2 SWAP1 PUSH1 0x0 MSTORE PUSH1 0x20 PUSH1 0x0 KECCAK256 ADD PUSH1 0x0 SWAP1 SSTORE SWAP1 SSTORE POP POP POP POP JUMP JUMPDEST PUSH1 0x0 PUSH2 0x43F1 DUP4 PUSH2 0x1E45 JUMP JUMPDEST PUSH1 0x1 PUSH1 0x1 PUSH1 0xA0 SHL SUB SWAP1 SWAP4 AND PUSH1 0x0 SWAP1 DUP2 MSTORE PUSH1 0x6 PUSH1 0x20 SWAP1 DUP2 MSTORE PUSH1 0x40 DUP1 DUP4 KECCAK256 DUP7 DUP5 MSTORE DUP3 MSTORE DUP1 DUP4 KECCAK256 DUP6 SWAP1 SSTORE SWAP4 DUP3 MSTORE PUSH1 0x7 SWAP1 MSTORE SWAP2 SWAP1 SWAP2 KECCAK256 SWAP2 SWAP1 SWAP2 SSTORE POP JUMP JUMPDEST PUSH1 0x60 DUP3 SELFBALANCE LT ISZERO PUSH2 0x448B JUMPI PUSH1 0x40 MLOAD PUSH3 0x461BCD PUSH1 0xE5 SHL DUP2 MSTORE PUSH1 0x20 PUSH1 0x4 DUP3 ADD MSTORE PUSH1 0x26 PUSH1 0x24 DUP3 ADD MSTORE PUSH32 0x416464726573733A20696E73756666696369656E742062616C616E636520666F PUSH1 0x44 DUP3 ADD MSTORE PUSH6 0x1C8818D85B1B PUSH1 0xD2 SHL PUSH1 0x64 DUP3 ADD MSTORE PUSH1 0x84 ADD PUSH2 0x102B JUMP JUMPDEST DUP5 EXTCODESIZE PUSH2 0x44D9 JUMPI PUSH1 0x40 MLOAD PUSH3 0x461BCD PUSH1 0xE5 SHL DUP2 MSTORE PUSH1 0x20 PUSH1 0x4 DUP3 ADD MSTORE PUSH1 0x1D PUSH1 0x24 DUP3 ADD MSTORE PUSH32 0x416464726573733A2063616C6C20746F206E6F6E2D636F6E7472616374000000 PUSH1 0x44 DUP3 ADD MSTORE PUSH1 0x64 ADD PUSH2 0x102B JUMP JUMPDEST PUSH1 0x0 DUP1 DUP7 PUSH1 0x1 PUSH1 0x1 PUSH1 0xA0 SHL SUB AND DUP6 DUP8 PUSH1 0x40 MLOAD PUSH2 0x44F5 SWAP2 SWAP1 PUSH2 0x4DDB JUMP JUMPDEST PUSH1 0x0 PUSH1 0x40 MLOAD DUP1 DUP4 SUB DUP2 DUP6 DUP8 GAS CALL SWAP3 POP POP POP RETURNDATASIZE DUP1 PUSH1 0x0 DUP2 EQ PUSH2 0x4532 JUMPI PUSH1 0x40 MLOAD SWAP2 POP PUSH1 0x1F NOT PUSH1 0x3F RETURNDATASIZE ADD AND DUP3 ADD PUSH1 0x40 MSTORE RETURNDATASIZE DUP3 MSTORE RETURNDATASIZE PUSH1 0x0 PUSH1 0x20 DUP5 ADD RETURNDATACOPY PUSH2 0x4537 JUMP JUMPDEST PUSH1 0x60 SWAP2 POP JUMPDEST POP SWAP2 POP SWAP2 POP PUSH2 0x4547 DUP3 DUP3 DUP7 PUSH2 0x4552 JUMP JUMPDEST SWAP8 SWAP7 POP POP POP POP POP POP POP JUMP JUMPDEST PUSH1 0x60 DUP4 ISZERO PUSH2 0x4561 JUMPI POP DUP2 PUSH2 0x1CE9 JUMP JUMPDEST DUP3 MLOAD ISZERO PUSH2 0x4571 JUMPI DUP3 MLOAD DUP1 DUP5 PUSH1 0x20 ADD REVERT JUMPDEST DUP2 PUSH1 0x40 MLOAD PUSH3 0x461BCD PUSH1 0xE5 SHL DUP2 MSTORE PUSH1 0x4 ADD PUSH2 0x102B SWAP2 SWAP1 PUSH2 0x46A6 JUMP JUMPDEST PUSH1 0x40 MLOAD DUP1 PUSH1 0xC0 ADD PUSH1 0x40 MSTORE DUP1 PUSH1 0x0 DUP2 MSTORE PUSH1 0x20 ADD PUSH1 0x0 DUP2 MSTORE PUSH1 0x20 ADD PUSH1 0x0 DUP2 MSTORE PUSH1 0x20 ADD PUSH1 0x0 DUP2 MSTORE PUSH1 0x20 ADD PUSH2 0x45C8 PUSH1 0x40 MLOAD DUP1 PUSH1 0x20 ADD PUSH1 0x40 MSTORE DUP1 PUSH1 0x0 DUP2 MSTORE POP SWAP1 JUMP JUMPDEST DUP2 MSTORE PUSH1 0x20 ADD PUSH1 0x0 DUP2 MSTORE POP SWAP1 JUMP JUMPDEST PUSH1 0x1 PUSH1 0x1 PUSH1 0xE0 SHL SUB NOT DUP2 AND DUP2 EQ PUSH2 0x17DA JUMPI PUSH1 0x0 DUP1 REVERT JUMPDEST PUSH1 0x0 PUSH1 0x20 DUP3 DUP5 SUB SLT ISZERO PUSH2 0x45FD JUMPI PUSH1 0x0 DUP1 REVERT JUMPDEST DUP2 CALLDATALOAD PUSH2 0x1CE9 DUP2 PUSH2 0x45D5 JUMP JUMPDEST DUP1 CALLDATALOAD PUSH1 0x1 PUSH1 0x1 PUSH1 0xA0 SHL SUB DUP2 AND DUP2 EQ PUSH2 0x461F JUMPI PUSH1 0x0 DUP1 REVERT JUMPDEST SWAP2 SWAP1 POP JUMP JUMPDEST PUSH1 0x0 DUP1 PUSH1 0x40 DUP4 DUP6 SUB SLT ISZERO PUSH2 0x4637 JUMPI PUSH1 0x0 DUP1 REVERT JUMPDEST PUSH2 0x4640 DUP4 PUSH2 0x4608 JUMP JUMPDEST SWAP5 PUSH1 0x20 SWAP4 SWAP1 SWAP4 ADD CALLDATALOAD SWAP4 POP POP POP JUMP JUMPDEST PUSH1 0x0 JUMPDEST DUP4 DUP2 LT ISZERO PUSH2 0x4669 JUMPI DUP2 DUP2 ADD MLOAD DUP4 DUP3 ADD MSTORE PUSH1 0x20 ADD PUSH2 0x4651 JUMP JUMPDEST DUP4 DUP2 GT ISZERO PUSH2 0x2777 JUMPI POP POP PUSH1 0x0 SWAP2 ADD MSTORE JUMP JUMPDEST PUSH1 0x0 DUP2 MLOAD DUP1 DUP5 MSTORE PUSH2 0x4692 DUP2 PUSH1 0x20 DUP7 ADD PUSH1 0x20 DUP7 ADD PUSH2 0x464E JUMP JUMPDEST PUSH1 0x1F ADD PUSH1 0x1F NOT AND SWAP3 SWAP1 SWAP3 ADD PUSH1 0x20 ADD SWAP3 SWAP2 POP POP JUMP JUMPDEST PUSH1 0x20 DUP2 MSTORE PUSH1 0x0 PUSH2 0x1CE9 PUSH1 0x20 DUP4 ADD DUP5 PUSH2 0x467A JUMP JUMPDEST PUSH1 0x0 PUSH1 0x20 DUP3 DUP5 SUB SLT ISZERO PUSH2 0x46CB JUMPI PUSH1 0x0 DUP1 REVERT JUMPDEST POP CALLDATALOAD SWAP2 SWAP1 POP JUMP JUMPDEST PUSH4 0x4E487B71 PUSH1 0xE0 SHL PUSH1 0x0 MSTORE PUSH1 0x41 PUSH1 0x4 MSTORE PUSH1 0x24 PUSH1 0x0 REVERT JUMPDEST PUSH1 0x40 MLOAD PUSH2 0x160 DUP2 ADD PUSH1 0x1 PUSH1 0x1 PUSH1 0x40 SHL SUB DUP2 GT DUP3 DUP3 LT OR ISZERO PUSH2 0x470B JUMPI PUSH2 0x470B PUSH2 0x46D2 JUMP JUMPDEST PUSH1 0x40 MSTORE SWAP1 JUMP JUMPDEST PUSH1 0x0 DUP3 PUSH1 0x1F DUP4 ADD SLT PUSH2 0x4722 JUMPI PUSH1 0x0 DUP1 REVERT JUMPDEST DUP2 CALLDATALOAD PUSH1 0x1 PUSH1 0x1 PUSH1 0x40 SHL SUB DUP1 DUP3 GT ISZERO PUSH2 0x473C JUMPI PUSH2 0x473C PUSH2 0x46D2 JUMP JUMPDEST PUSH1 0x40 MLOAD PUSH1 0x1F DUP4 ADD PUSH1 0x1F NOT SWAP1 DUP2 AND PUSH1 0x3F ADD AND DUP2 ADD SWAP1 DUP3 DUP3 GT DUP2 DUP4 LT OR ISZERO PUSH2 0x4764 JUMPI PUSH2 0x4764 PUSH2 0x46D2 JUMP JUMPDEST DUP2 PUSH1 0x40 MSTORE DUP4 DUP2 MSTORE DUP7 PUSH1 0x20 DUP6 DUP9 ADD ADD GT ISZERO PUSH2 0x477D JUMPI PUSH1 0x0 DUP1 REVERT JUMPDEST DUP4 PUSH1 0x20 DUP8 ADD PUSH1 0x20 DUP4 ADD CALLDATACOPY PUSH1 0x0 PUSH1 0x20 DUP6 DUP4 ADD ADD MSTORE DUP1 SWAP5 POP POP POP POP POP SWAP3 SWAP2 POP POP JUMP JUMPDEST PUSH1 0x0 DUP1 PUSH1 0x0 DUP1 PUSH1 0x0 PUSH1 0xA0 DUP7 DUP9 SUB SLT ISZERO PUSH2 0x47B5 JUMPI PUSH1 0x0 DUP1 REVERT JUMPDEST PUSH2 0x47BE DUP7 PUSH2 0x4608 JUMP JUMPDEST SWAP5 POP PUSH1 0x20 DUP7 ADD CALLDATALOAD PUSH1 0x1 PUSH1 0x1 PUSH1 0x40 SHL SUB DUP2 GT ISZERO PUSH2 0x47D9 JUMPI PUSH1 0x0 DUP1 REVERT JUMPDEST PUSH2 0x47E5 DUP9 DUP3 DUP10 ADD PUSH2 0x4711 JUMP JUMPDEST SWAP5 POP POP PUSH1 0x40 DUP7 ADD CALLDATALOAD SWAP3 POP PUSH1 0x60 DUP7 ADD CALLDATALOAD SWAP2 POP PUSH1 0x80 DUP7 ADD CALLDATALOAD PUSH1 0xFF DUP2 AND DUP2 EQ PUSH2 0x480A JUMPI PUSH1 0x0 DUP1 REVERT JUMPDEST DUP1 SWAP2 POP POP SWAP3 SWAP6 POP SWAP3 SWAP6 SWAP1 SWAP4 POP JUMP JUMPDEST PUSH1 0x0 DUP1 PUSH1 0x0 DUP1 PUSH1 0x0 PUSH1 0x80 DUP7 DUP9 SUB SLT ISZERO PUSH2 0x4830 JUMPI PUSH1 0x0 DUP1 REVERT JUMPDEST PUSH2 0x4839 DUP7 PUSH2 0x4608 JUMP JUMPDEST SWAP5 POP PUSH2 0x4847 PUSH1 0x20 DUP8 ADD PUSH2 0x4608 JUMP JUMPDEST SWAP4 POP PUSH1 0x40 DUP7 ADD CALLDATALOAD SWAP3 POP PUSH1 0x60 DUP7 ADD CALLDATALOAD PUSH1 0x1 PUSH1 0x1 PUSH1 0x40 SHL SUB DUP1 DUP3 GT ISZERO PUSH2 0x486A JUMPI PUSH1 0x0 DUP1 REVERT JUMPDEST DUP2 DUP9 ADD SWAP2 POP DUP9 PUSH1 0x1F DUP4 ADD SLT PUSH2 0x487E JUMPI PUSH1 0x0 DUP1 REVERT JUMPDEST DUP2 CALLDATALOAD DUP2 DUP2 GT ISZERO PUSH2 0x488D JUMPI PUSH1 0x0 DUP1 REVERT JUMPDEST DUP10 PUSH1 0x20 DUP3 DUP6 ADD ADD GT ISZERO PUSH2 0x489F JUMPI PUSH1 0x0 DUP1 REVERT JUMPDEST SWAP7 SWAP10 SWAP6 SWAP9 POP SWAP4 SWAP7 POP PUSH1 0x20 ADD SWAP5 SWAP4 SWAP3 POP POP POP JUMP JUMPDEST PUSH1 0x0 DUP1 PUSH1 0x0 PUSH1 0x60 DUP5 DUP7 SUB SLT ISZERO PUSH2 0x48C7 JUMPI PUSH1 0x0 DUP1 REVERT JUMPDEST POP POP DUP2 CALLDATALOAD SWAP4 PUSH1 0x20 DUP4 ADD CALLDATALOAD SWAP4 POP PUSH1 0x40 SWAP1 SWAP3 ADD CALLDATALOAD SWAP2 SWAP1 POP JUMP JUMPDEST PUSH1 0x0 PUSH1 0x20 DUP3 DUP5 SUB SLT ISZERO PUSH2 0x48F0 JUMPI PUSH1 0x0 DUP1 REVERT JUMPDEST PUSH2 0x1CE9 DUP3 PUSH2 0x4608 JUMP JUMPDEST PUSH1 0x0 DUP1 PUSH1 0x0 PUSH1 0x60 DUP5 DUP7 SUB SLT ISZERO PUSH2 0x490E JUMPI PUSH1 0x0 DUP1 REVERT JUMPDEST PUSH2 0x4917 DUP5 PUSH2 0x4608 JUMP JUMPDEST SWAP3 POP PUSH2 0x4925 PUSH1 0x20 DUP6 ADD PUSH2 0x4608 JUMP JUMPDEST SWAP2 POP PUSH1 0x40 DUP5 ADD CALLDATALOAD SWAP1 POP SWAP3 POP SWAP3 POP SWAP3 JUMP JUMPDEST PUSH1 0x0 DUP1 PUSH1 0x0 DUP1 PUSH1 0x0 DUP1 PUSH1 0x0 PUSH1 0xE0 DUP9 DUP11 SUB SLT ISZERO PUSH2 0x4950 JUMPI PUSH1 0x0 DUP1 REVERT JUMPDEST PUSH2 0x4959 DUP9 PUSH2 0x4608 JUMP JUMPDEST SWAP10 PUSH1 0x20 DUP10 ADD CALLDATALOAD SWAP10 POP PUSH1 0x40 DUP10 ADD CALLDATALOAD SWAP9 PUSH1 0x60 DUP2 ADD CALLDATALOAD SWAP9 POP PUSH1 0x80 DUP2 ADD CALLDATALOAD SWAP8 POP PUSH1 0xA0 DUP2 ADD CALLDATALOAD SWAP7 POP PUSH1 0xC0 ADD CALLDATALOAD SWAP5 POP SWAP3 POP POP POP JUMP JUMPDEST PUSH1 0x0 DUP1 PUSH1 0x40 DUP4 DUP6 SUB SLT ISZERO PUSH2 0x499B JUMPI PUSH1 0x0 DUP1 REVERT JUMPDEST POP POP DUP1 CALLDATALOAD SWAP3 PUSH1 0x20 SWAP1 SWAP2 ADD CALLDATALOAD SWAP2 POP JUMP JUMPDEST PUSH1 0x0 DUP1 DUP3 DUP5 SUB PUSH2 0x180 DUP2 SLT ISZERO PUSH2 0x49BF JUMPI PUSH1 0x0 DUP1 REVERT JUMPDEST DUP4 CALLDATALOAD SWAP3 POP PUSH2 0x160 DUP1 PUSH1 0x1F NOT DUP4 ADD SLT ISZERO PUSH2 0x49D7 JUMPI PUSH1 0x0 DUP1 REVERT JUMPDEST PUSH2 0x49DF PUSH2 0x46E8 JUMP JUMPDEST SWAP2 POP PUSH1 0x20 DUP6 ADD CALLDATALOAD DUP3 MSTORE PUSH1 0x40 DUP6 ADD CALLDATALOAD PUSH1 0x20 DUP4 ADD MSTORE PUSH1 0x60 DUP6 ADD CALLDATALOAD PUSH1 0x40 DUP4 ADD MSTORE PUSH1 0x80 DUP6 ADD CALLDATALOAD PUSH1 0x60 DUP4 ADD MSTORE PUSH1 0xA0 DUP6 ADD CALLDATALOAD PUSH1 0x80 DUP4 ADD MSTORE PUSH1 0xC0 DUP6 ADD CALLDATALOAD PUSH1 0xA0 DUP4 ADD MSTORE PUSH1 0xE0 DUP6 ADD CALLDATALOAD PUSH1 0xC0 DUP4 ADD MSTORE PUSH2 0x100 DUP1 DUP7 ADD CALLDATALOAD PUSH1 0xE0 DUP5 ADD MSTORE PUSH2 0x120 DUP1 DUP8 ADD CALLDATALOAD DUP3 DUP6 ADD MSTORE PUSH2 0x140 SWAP2 POP DUP2 DUP8 ADD CALLDATALOAD DUP2 DUP6 ADD MSTORE POP DUP2 DUP7 ADD CALLDATALOAD DUP2 DUP5 ADD MSTORE POP POP DUP1 SWAP2 POP POP SWAP3 POP SWAP3 SWAP1 POP JUMP JUMPDEST PUSH1 0x0 PUSH1 0x20 DUP3 DUP5 SUB SLT ISZERO PUSH2 0x4A70 JUMPI PUSH1 0x0 DUP1 REVERT JUMPDEST DUP2 CALLDATALOAD PUSH1 0x1 PUSH1 0x1 PUSH1 0x40 SHL SUB DUP2 GT ISZERO PUSH2 0x4A86 JUMPI PUSH1 0x0 DUP1 REVERT JUMPDEST PUSH2 0x32CA DUP5 DUP3 DUP6 ADD PUSH2 0x4711 JUMP JUMPDEST DUP1 ISZERO ISZERO DUP2 EQ PUSH2 0x17DA JUMPI PUSH1 0x0 DUP1 REVERT JUMPDEST PUSH1 0x0 DUP1 PUSH1 0x40 DUP4 DUP6 SUB SLT ISZERO PUSH2 0x4AB3 JUMPI PUSH1 0x0 DUP1 REVERT JUMPDEST PUSH2 0x4ABC DUP4 PUSH2 0x4608 JUMP JUMPDEST SWAP2 POP PUSH1 0x20 DUP4 ADD CALLDATALOAD PUSH2 0x4ACC DUP2 PUSH2 0x4A92 JUMP JUMPDEST DUP1 SWAP2 POP POP SWAP3 POP SWAP3 SWAP1 POP JUMP JUMPDEST PUSH1 0x0 PUSH1 0x20 DUP3 DUP5 SUB SLT ISZERO PUSH2 0x4AE9 JUMPI PUSH1 0x0 DUP1 REVERT JUMPDEST DUP2 CALLDATALOAD PUSH2 0x1CE9 DUP2 PUSH2 0x4A92 JUMP JUMPDEST PUSH1 0x0 DUP1 PUSH1 0x0 PUSH1 0x60 DUP5 DUP7 SUB SLT ISZERO PUSH2 0x4B09 JUMPI PUSH1 0x0 DUP1 REVERT JUMPDEST PUSH2 0x4B12 DUP5 PUSH2 0x4608 JUMP JUMPDEST SWAP6 PUSH1 0x20 DUP6 ADD CALLDATALOAD SWAP6 POP PUSH1 0x40 SWAP1 SWAP5 ADD CALLDATALOAD SWAP4 SWAP3 POP POP POP JUMP JUMPDEST PUSH1 0x0 DUP1 PUSH1 0x0 DUP1 PUSH1 0x80 DUP6 DUP8 SUB SLT ISZERO PUSH2 0x4B3D JUMPI PUSH1 0x0 DUP1 REVERT JUMPDEST PUSH2 0x4B46 DUP6 PUSH2 0x4608 JUMP JUMPDEST SWAP4 POP PUSH2 0x4B54 PUSH1 0x20 DUP7 ADD PUSH2 0x4608 JUMP JUMPDEST SWAP4 SWAP7 SWAP4 SWAP6 POP POP POP POP PUSH1 0x40 DUP3 ADD CALLDATALOAD SWAP2 PUSH1 0x60 ADD CALLDATALOAD SWAP1 JUMP JUMPDEST PUSH1 0x0 DUP1 PUSH1 0x0 DUP1 PUSH1 0x80 DUP6 DUP8 SUB SLT ISZERO PUSH2 0x4B7F JUMPI PUSH1 0x0 DUP1 REVERT JUMPDEST PUSH2 0x4B88 DUP6 PUSH2 0x4608 JUMP JUMPDEST SWAP4 POP PUSH2 0x4B96 PUSH1 0x20 DUP7 ADD PUSH2 0x4608 JUMP JUMPDEST SWAP3 POP PUSH1 0x40 DUP6 ADD CALLDATALOAD SWAP2 POP PUSH1 0x60 DUP6 ADD CALLDATALOAD PUSH1 0x1 PUSH1 0x1 PUSH1 0x40 SHL SUB DUP2 GT ISZERO PUSH2 0x4BB8 JUMPI PUSH1 0x0 DUP1 REVERT JUMPDEST PUSH2 0x4BC4 DUP8 DUP3 DUP9 ADD PUSH2 0x4711 JUMP JUMPDEST SWAP2 POP POP SWAP3 SWAP6 SWAP2 SWAP5 POP SWAP3 POP JUMP JUMPDEST PUSH1 0x1 PUSH1 0x1 PUSH1 0xA0 SHL SUB SWAP3 SWAP1 SWAP3 AND DUP3 MSTORE PUSH1 0x20 DUP3 ADD MSTORE PUSH1 0x40 ADD SWAP1 JUMP JUMPDEST PUSH1 0x0 DUP1 PUSH1 0x0 DUP1 PUSH1 0x0 PUSH1 0xA0 DUP7 DUP9 SUB SLT ISZERO PUSH2 0x4C01 JUMPI PUSH1 0x0 DUP1 REVERT JUMPDEST PUSH2 0x4C0A DUP7 PUSH2 0x4608 JUMP JUMPDEST SWAP8 PUSH1 0x20 DUP8 ADD CALLDATALOAD SWAP8 POP PUSH1 0x40 DUP8 ADD CALLDATALOAD SWAP7 PUSH1 0x60 DUP2 ADD CALLDATALOAD SWAP7 POP PUSH1 0x80 ADD CALLDATALOAD SWAP5 POP SWAP3 POP POP POP JUMP JUMPDEST PUSH1 0x0 DUP1 PUSH1 0x0 PUSH1 0x60 DUP5 DUP7 SUB SLT ISZERO PUSH2 0x4C40 JUMPI PUSH1 0x0 DUP1 REVERT JUMPDEST DUP4 CALLDATALOAD SWAP3 POP PUSH1 0x20 DUP5 ADD CALLDATALOAD SWAP2 POP PUSH1 0x40 DUP5 ADD CALLDATALOAD PUSH1 0x1 PUSH1 0x1 PUSH1 0x40 SHL SUB DUP2 GT ISZERO PUSH2 0x4C64 JUMPI PUSH1 0x0 DUP1 REVERT JUMPDEST PUSH2 0x4C70 DUP7 DUP3 DUP8 ADD PUSH2 0x4711 JUMP JUMPDEST SWAP2 POP POP SWAP3 POP SWAP3 POP SWAP3 JUMP JUMPDEST PUSH1 0x0 DUP1 PUSH1 0x40 DUP4 DUP6 SUB SLT ISZERO PUSH2 0x4C8D JUMPI PUSH1 0x0 DUP1 REVERT JUMPDEST PUSH2 0x4C96 DUP4 PUSH2 0x4608 JUMP JUMPDEST SWAP2 POP PUSH2 0x4CA4 PUSH1 0x20 DUP5 ADD PUSH2 0x4608 JUMP JUMPDEST SWAP1 POP SWAP3 POP SWAP3 SWAP1 POP JUMP JUMPDEST PUSH1 0x0 DUP1 PUSH1 0x0 DUP1 PUSH1 0x80 DUP6 DUP8 SUB SLT ISZERO PUSH2 0x4CC3 JUMPI PUSH1 0x0 DUP1 REVERT JUMPDEST PUSH2 0x4CCC DUP6 PUSH2 0x4608 JUMP JUMPDEST SWAP4 POP PUSH1 0x20 DUP6 ADD CALLDATALOAD SWAP3 POP PUSH2 0x4CE1 PUSH1 0x40 DUP7 ADD PUSH2 0x4608 JUMP JUMPDEST SWAP4 SWAP7 SWAP3 SWAP6 POP SWAP3 SWAP4 PUSH1 0x60 ADD CALLDATALOAD SWAP3 POP POP JUMP JUMPDEST PUSH4 0x4E487B71 PUSH1 0xE0 SHL PUSH1 0x0 MSTORE PUSH1 0x11 PUSH1 0x4 MSTORE PUSH1 0x24 PUSH1 0x0 REVERT JUMPDEST PUSH1 0x0 DUP3 NOT DUP3 GT ISZERO PUSH2 0x4D1A JUMPI PUSH2 0x4D1A PUSH2 0x4CF1 JUMP JUMPDEST POP ADD SWAP1 JUMP JUMPDEST PUSH1 0x0 PUSH1 0x1 PUSH1 0x1 PUSH1 0xFF SHL ADD DUP3 ADD PUSH2 0x4D37 JUMPI PUSH2 0x4D37 PUSH2 0x4CF1 JUMP JUMPDEST POP PUSH1 0x1 ADD SWAP1 JUMP JUMPDEST PUSH1 0x1 DUP2 DUP2 SHR SWAP1 DUP3 AND DUP1 PUSH2 0x4D52 JUMPI PUSH1 0x7F DUP3 AND SWAP2 POP JUMPDEST PUSH1 0x20 DUP3 LT DUP2 SUB PUSH2 0x4D72 JUMPI PUSH4 0x4E487B71 PUSH1 0xE0 SHL PUSH1 0x0 MSTORE PUSH1 0x22 PUSH1 0x4 MSTORE PUSH1 0x24 PUSH1 0x0 REVERT JUMPDEST POP SWAP2 SWAP1 POP JUMP JUMPDEST PUSH1 0x1 PUSH1 0x1 PUSH1 0xA0 SHL SUB DUP5 DUP2 AND DUP3 MSTORE DUP4 AND PUSH1 0x20 DUP3 ADD MSTORE PUSH1 0x60 PUSH1 0x40 DUP3 ADD DUP2 SWAP1 MSTORE PUSH1 0x0 SWAP1 PUSH2 0x1355 SWAP1 DUP4 ADD DUP5 PUSH2 0x467A JUMP JUMPDEST PUSH1 0x0 DUP4 MLOAD PUSH2 0x4DB6 DUP2 DUP5 PUSH1 0x20 DUP9 ADD PUSH2 0x464E JUMP JUMPDEST PUSH1 0x60 SWAP4 SWAP1 SWAP4 SHL PUSH12 0xFFFFFFFFFFFFFFFFFFFFFFFF NOT AND SWAP2 SWAP1 SWAP3 ADD SWAP1 DUP2 MSTORE PUSH1 0x14 ADD SWAP3 SWAP2 POP POP JUMP JUMPDEST PUSH1 0x0 DUP3 MLOAD PUSH2 0x4DED DUP2 DUP5 PUSH1 0x20 DUP8 ADD PUSH2 0x464E JUMP JUMPDEST SWAP2 SWAP1 SWAP2 ADD SWAP3 SWAP2 POP POP JUMP JUMPDEST PUSH1 0x20 DUP1 DUP3 MSTORE PUSH1 0x1F SWAP1 DUP3 ADD MSTORE PUSH32 0x5265656E7472616E637947756172643A207265656E7472616E742063616C6C00 PUSH1 0x40 DUP3 ADD MSTORE PUSH1 0x60 ADD SWAP1 JUMP JUMPDEST PUSH1 0x0 PUSH1 0x20 DUP3 DUP5 SUB SLT ISZERO PUSH2 0x4E40 JUMPI PUSH1 0x0 DUP1 REVERT JUMPDEST POP MLOAD SWAP2 SWAP1 POP JUMP JUMPDEST PUSH1 0x0 DUP3 DUP3 LT ISZERO PUSH2 0x4E59 JUMPI PUSH2 0x4E59 PUSH2 0x4CF1 JUMP JUMPDEST POP SUB SWAP1 JUMP JUMPDEST PUSH1 0x20 DUP1 DUP3 MSTORE PUSH1 0xF SWAP1 DUP3 ADD MSTORE PUSH15 0x496E76616C69642061646472657373 PUSH1 0x88 SHL PUSH1 0x40 DUP3 ADD MSTORE PUSH1 0x60 ADD SWAP1 JUMP JUMPDEST PUSH1 0x20 DUP1 DUP3 MSTORE PUSH1 0x31 SWAP1 DUP3 ADD MSTORE PUSH32 0x4552433732313A207472616E736665722063616C6C6572206973206E6F74206F PUSH1 0x40 DUP3 ADD MSTORE PUSH17 0x1DDB995C881B9BDC88185C1C1C9BDD9959 PUSH1 0x7A SHL PUSH1 0x60 DUP3 ADD MSTORE PUSH1 0x80 ADD SWAP1 JUMP JUMPDEST PUSH4 0x4E487B71 PUSH1 0xE0 SHL PUSH1 0x0 MSTORE PUSH1 0x32 PUSH1 0x4 MSTORE PUSH1 0x24 PUSH1 0x0 REVERT JUMPDEST PUSH1 0x0 PUSH1 0x1 DUP3 ADD PUSH2 0x4D37 JUMPI PUSH2 0x4D37 PUSH2 0x4CF1 JUMP JUMPDEST PUSH1 0x20 DUP1 DUP3 MSTORE PUSH1 0x18 SWAP1 DUP3 ADD MSTORE PUSH24 0x2CB7BA9031B0B713BA1039B2BA103A34329039BA30BA3997 PUSH1 0x41 SHL PUSH1 0x40 DUP3 ADD MSTORE PUSH1 0x60 ADD SWAP1 JUMP JUMPDEST PUSH1 0x1F DUP3 GT ISZERO PUSH2 0x116D JUMPI PUSH1 0x0 DUP2 DUP2 MSTORE PUSH1 0x20 DUP2 KECCAK256 PUSH1 0x1F DUP6 ADD PUSH1 0x5 SHR DUP2 ADD PUSH1 0x20 DUP7 LT ISZERO PUSH2 0x4F59 JUMPI POP DUP1 JUMPDEST PUSH1 0x1F DUP6 ADD PUSH1 0x5 SHR DUP3 ADD SWAP2 POP JUMPDEST DUP2 DUP2 LT ISZERO PUSH2 0x4F78 JUMPI DUP3 DUP2 SSTORE PUSH1 0x1 ADD PUSH2 0x4F65 JUMP JUMPDEST POP POP POP POP POP POP JUMP JUMPDEST DUP2 MLOAD PUSH1 0x1 PUSH1 0x1 PUSH1 0x40 SHL SUB DUP2 GT ISZERO PUSH2 0x4F99 JUMPI PUSH2 0x4F99 PUSH2 0x46D2 JUMP JUMPDEST PUSH2 0x4FAD DUP2 PUSH2 0x4FA7 DUP5 SLOAD PUSH2 0x4D3E JUMP JUMPDEST DUP5 PUSH2 0x4F32 JUMP JUMPDEST PUSH1 0x20 DUP1 PUSH1 0x1F DUP4 GT PUSH1 0x1 DUP2 EQ PUSH2 0x4FE2 JUMPI PUSH1 0x0 DUP5 ISZERO PUSH2 0x4FCA JUMPI POP DUP6 DUP4 ADD MLOAD JUMPDEST PUSH1 0x0 NOT PUSH1 0x3 DUP7 SWAP1 SHL SHR NOT AND PUSH1 0x1 DUP6 SWAP1 SHL OR DUP6 SSTORE PUSH2 0x4F78 JUMP JUMPDEST PUSH1 0x0 DUP6 DUP2 MSTORE PUSH1 0x20 DUP2 KECCAK256 PUSH1 0x1F NOT DUP7 AND SWAP2 JUMPDEST DUP3 DUP2 LT ISZERO PUSH2 0x5011 JUMPI DUP9 DUP7 ADD MLOAD DUP3 SSTORE SWAP5 DUP5 ADD SWAP5 PUSH1 0x1 SWAP1 SWAP2 ADD SWAP1 DUP5 ADD PUSH2 0x4FF2 JUMP JUMPDEST POP DUP6 DUP3 LT ISZERO PUSH2 0x502F JUMPI DUP8 DUP6 ADD MLOAD PUSH1 0x0 NOT PUSH1 0x3 DUP9 SWAP1 SHL PUSH1 0xF8 AND SHR NOT AND DUP2 SSTORE JUMPDEST POP POP POP POP POP PUSH1 0x1 SWAP1 DUP2 SHL ADD SWAP1 SSTORE POP JUMP JUMPDEST PUSH1 0x0 DUP2 PUSH1 0x0 NOT DIV DUP4 GT DUP3 ISZERO ISZERO AND ISZERO PUSH2 0x5059 JUMPI PUSH2 0x5059 PUSH2 0x4CF1 JUMP JUMPDEST POP MUL SWAP1 JUMP JUMPDEST PUSH4 0x4E487B71 PUSH1 0xE0 SHL PUSH1 0x0 MSTORE PUSH1 0x12 PUSH1 0x4 MSTORE PUSH1 0x24 PUSH1 0x0 REVERT JUMPDEST PUSH1 0x0 DUP3 PUSH2 0x5083 JUMPI PUSH2 0x5083 PUSH2 0x505E JUMP JUMPDEST POP DIV SWAP1 JUMP JUMPDEST PUSH1 0x20 DUP1 DUP3 MSTORE DUP2 DUP2 ADD MSTORE PUSH32 0x4F776E61626C653A2063616C6C6572206973206E6F7420746865206F776E6572 PUSH1 0x40 DUP3 ADD MSTORE PUSH1 0x60 ADD SWAP1 JUMP JUMPDEST PUSH1 0x0 PUSH1 0x1 PUSH1 0x1 PUSH1 0xFF SHL SUB DUP2 DUP5 SGT DUP3 DUP5 SGT DUP1 DUP3 AND DUP7 DUP5 DIV DUP7 GT AND ISZERO PUSH2 0x50E3 JUMPI PUSH2 0x50E3 PUSH2 0x4CF1 JUMP JUMPDEST PUSH1 0x1 PUSH1 0xFF SHL PUSH1 0x0 DUP8 SLT DUP3 DUP2 AND DUP8 DUP4 SDIV DUP10 SLT AND ISZERO PUSH2 0x5102 JUMPI PUSH2 0x5102 PUSH2 0x4CF1 JUMP JUMPDEST PUSH1 0x0 DUP8 SLT SWAP3 POP DUP8 DUP3 SDIV DUP8 SLT DUP5 DUP5 AND AND ISZERO PUSH2 0x511E JUMPI PUSH2 0x511E PUSH2 0x4CF1 JUMP JUMPDEST DUP8 DUP6 SDIV DUP8 SLT DUP2 DUP5 AND AND ISZERO PUSH2 0x5134 JUMPI PUSH2 0x5134 PUSH2 0x4CF1 JUMP JUMPDEST POP POP POP SWAP3 SWAP1 SWAP4 MUL SWAP4 SWAP3 POP POP POP JUMP JUMPDEST PUSH1 0x20 DUP1 DUP3 MSTORE PUSH1 0xC SWAP1 DUP3 ADD MSTORE PUSH12 0x20B23237B7399037B7363C97 PUSH1 0xA1 SHL PUSH1 0x40 DUP3 ADD MSTORE PUSH1 0x60 ADD SWAP1 JUMP JUMPDEST PUSH1 0x1 PUSH1 0x1 PUSH1 0xA0 SHL SUB SWAP4 DUP5 AND DUP2 MSTORE SWAP2 SWAP1 SWAP3 AND PUSH1 0x20 DUP3 ADD MSTORE PUSH1 0x40 DUP2 ADD SWAP2 SWAP1 SWAP2 MSTORE PUSH1 0x60 ADD SWAP1 JUMP JUMPDEST PUSH1 0x0 DUP4 MLOAD PUSH2 0x519E DUP2 DUP5 PUSH1 0x20 DUP9 ADD PUSH2 0x464E JUMP JUMPDEST DUP4 MLOAD SWAP1 DUP4 ADD SWAP1 PUSH2 0x51B2 DUP2 DUP4 PUSH1 0x20 DUP9 ADD PUSH2 0x464E JUMP JUMPDEST ADD SWAP5 SWAP4 POP POP POP POP JUMP JUMPDEST PUSH1 0x0 DUP2 SLOAD PUSH2 0x51C8 DUP2 PUSH2 0x4D3E JUMP JUMPDEST PUSH1 0x1 DUP3 DUP2 AND DUP1 ISZERO PUSH2 0x51E0 JUMPI PUSH1 0x1 DUP2 EQ PUSH2 0x51F5 JUMPI PUSH2 0x5224 JUMP JUMPDEST PUSH1 0xFF NOT DUP5 AND DUP8 MSTORE DUP3 ISZERO ISZERO DUP4 MUL DUP8 ADD SWAP5 POP PUSH2 0x5224 JUMP JUMPDEST DUP6 PUSH1 0x0 MSTORE PUSH1 0x20 DUP1 PUSH1 0x0 KECCAK256 PUSH1 0x0 JUMPDEST DUP6 DUP2 LT ISZERO PUSH2 0x521B JUMPI DUP2 SLOAD DUP11 DUP3 ADD MSTORE SWAP1 DUP5 ADD SWAP1 DUP3 ADD PUSH2 0x5202 JUMP JUMPDEST POP POP POP DUP3 DUP8 ADD SWAP5 POP JUMPDEST POP POP POP POP SWAP3 SWAP2 POP POP JUMP JUMPDEST PUSH1 0x0 PUSH2 0x523A DUP3 DUP5 PUSH2 0x51BB JUMP JUMPDEST PUSH7 0x746F6B656E732F PUSH1 0xC8 SHL DUP2 MSTORE PUSH1 0x7 ADD SWAP4 SWAP3 POP POP POP JUMP JUMPDEST PUSH1 0x1 DUP1 PUSH1 0xA0 SHL SUB DUP6 AND DUP2 MSTORE DUP4 PUSH1 0x20 DUP3 ADD MSTORE DUP3 PUSH1 0x40 DUP3 ADD MSTORE PUSH1 0x80 PUSH1 0x60 DUP3 ADD MSTORE PUSH1 0x0 PUSH2 0x527E PUSH1 0x80 DUP4 ADD DUP5 PUSH2 0x467A JUMP JUMPDEST SWAP7 SWAP6 POP POP POP POP POP POP JUMP JUMPDEST PUSH1 0x0 PUSH2 0x5294 DUP3 DUP5 PUSH2 0x51BB JUMP JUMPDEST PUSH9 0x636F6E74726163742F PUSH1 0xB8 SHL DUP2 MSTORE PUSH1 0x9 ADD SWAP4 SWAP3 POP POP POP JUMP JUMPDEST PUSH1 0x20 DUP1 DUP3 MSTORE PUSH1 0x32 SWAP1 DUP3 ADD MSTORE PUSH32 0x4552433732313A207472616E7366657220746F206E6F6E204552433732315265 PUSH1 0x40 DUP3 ADD MSTORE PUSH18 0x31B2B4BB32B91034B6B83632B6B2B73A32B9 PUSH1 0x71 SHL PUSH1 0x60 DUP3 ADD MSTORE PUSH1 0x80 ADD SWAP1 JUMP JUMPDEST PUSH1 0x0 DUP1 DUP3 SLT DUP1 ISZERO PUSH1 0x1 PUSH1 0x1 PUSH1 0xFF SHL SUB DUP5 SWAP1 SUB DUP6 SGT AND ISZERO PUSH2 0x5321 JUMPI PUSH2 0x5321 PUSH2 0x4CF1 JUMP JUMPDEST PUSH1 0x1 PUSH1 0xFF SHL DUP4 SWAP1 SUB DUP5 SLT DUP2 AND ISZERO PUSH2 0x533A JUMPI PUSH2 0x533A PUSH2 0x4CF1 JUMP JUMPDEST POP POP ADD SWAP1 JUMP JUMPDEST PUSH1 0x0 DUP3 PUSH2 0x534F JUMPI PUSH2 0x534F PUSH2 0x505E JUMP JUMPDEST POP MOD SWAP1 JUMP JUMPDEST PUSH1 0x0 PUSH1 0x20 DUP3 DUP5 SUB SLT ISZERO PUSH2 0x5366 JUMPI PUSH1 0x0 DUP1 REVERT JUMPDEST DUP2 MLOAD PUSH2 0x1CE9 DUP2 PUSH2 0x4A92 JUMP JUMPDEST PUSH1 0x1 PUSH1 0x1 PUSH1 0xA0 SHL SUB DUP6 DUP2 AND DUP3 MSTORE DUP5 AND PUSH1 0x20 DUP3 ADD MSTORE PUSH1 0x40 DUP2 ADD DUP4 SWAP1 MSTORE PUSH1 0x80 PUSH1 0x60 DUP3 ADD DUP2 SWAP1 MSTORE PUSH1 0x0 SWAP1 PUSH2 0x527E SWAP1 DUP4 ADD DUP5 PUSH2 0x467A JUMP JUMPDEST PUSH1 0x0 PUSH1 0x20 DUP3 DUP5 SUB SLT ISZERO PUSH2 0x53B6 JUMPI PUSH1 0x0 DUP1 REVERT JUMPDEST DUP2 MLOAD PUSH2 0x1CE9 DUP2 PUSH2 0x45D5 JUMP JUMPDEST PUSH4 0x4E487B71 PUSH1 0xE0 SHL PUSH1 0x0 MSTORE PUSH1 0x31 PUSH1 0x4 MSTORE PUSH1 0x24 PUSH1 0x0 REVERT INVALID 0x4D PUSH6 0x74615472616E PUSH20 0x616374696F6E2875696E74323536206E6F6E6365 0x2C PUSH2 0x6464 PUSH19 0x6573732066726F6D2C62797465732066756E63 PUSH21 0x696F6E5369676E617475726529DDF252AD1BE2C89B PUSH10 0xC2B068FC378DAA952BA7 CALL PUSH4 0xC4A11628 CREATE2 GAS 0x4D CREATE2 0x23 0xB3 0xEF LOG2 PUSH5 0x6970667358 0x22 SLT KECCAK256 DUP5 0x29 0xEF PUSH23 0x910CF165D379554A4935AA4A160B14CD89387F96B91824 0xAB BLOCKHASH 0xEF 0xC4 0xB3 PUSH5 0x736F6C6343 STOP ADDMOD 0xF STOP CALLER ",
  "sha1": "5cebb68cea96d8cd362a3ffcf475a9de3d7daa4a",
  "source": "// SPDX-License-Identifier:\tUNLICENSED\n\npragma solidity ^0.8.0;\n\nimport \"./Constants.sol\";\nimport \"./Hero.sol\";\nimport \"./HeroXYZ.sol\";\nimport \"./Base.sol\";\nimport \"./BaseSpells.sol\";\nimport \"./Legion.sol\";\nimport \"./CultureCoin.sol\";\nimport \"./BookTradable.sol\";\nimport \"./LiveTradables.sol\";\nimport \"./send_receive.sol\";\n\nimport \"../openzeppelin-solidity/contracts/token/ERC721/IERC721Receiver.sol\";\n\ncontract MyItems is BookTradable, Receiver, IERC721Receiver, LiveTradables {\t// Each game gets differnt items.\n\tCultureCoin private CC;\n\taddress private baseSpells;\n        BaseSpells private spells;\n\tuint256 basePrice;\n\n\taddress private nbt;\n        mapping(uint256 => uint256) hSpawn;\n        mapping(uint256 => int) slot;\n\n\tmapping(uint256 => HeroItem) private allItems;\t\t// These token ids mapped their data.\n\n\tmapping(address => mapping(uint256 => mapping(int => uint256))) private heroSlots;\n\tmapping(address => mapping(uint256 => HeroTalents)) private talents;\t\t\t// And each hero gets different talents...\n\n\taddress[LEGION_LEGOS] private legionLegos;\n\n    \tconstructor (address _cCA, address _cultureCoin, address _registryAddress, address _baseSpells, address _nbt)\n\t\tBookTradable(\"The Scarab Cycle's Items\", \"TSCI\", _registryAddress, \"https://greatlibrary.io/games/TCS/items/\", true, MAXUINT, MAXUINT, MAXUINT, _cultureCoin, _cCA) {\n\t\tcCA = _cCA;\n\t\tCC = CultureCoin(_cultureCoin);\n\n\t\tnbt = _nbt;\n\n\t\tbaseSpells = _baseSpells;\n                spells = BaseSpells(baseSpells);\n\n\t\tbasePrice = 0;\n\t}\t\n\tfunction itemMint(address _hero, uint256 _hId, address _to, int _slot) public returns(uint256) {\n\t\trequire(isAddon[msg.sender] || msg.sender == cCA, \"You can't make a new items this way.\");\n\n\t\tuint256 newTokenId = _getNextTokenId();\n        \t_mint(_to, newTokenId);\n        \t_incrementTokenId();\n\n\t\thSpawn[newTokenId] = Hero(_hero).getSpawn(_hId);\n\t\tslot[newTokenId] = _slot;\n\n\t\treturn newTokenId;\n\t}\n\tfunction addonApprove(address _addonAddress, address _sender, uint256 _iId) public {\n\t\trequire(isAddon[msg.sender] || msg.sender == cCA, \"You can't approve like that.\");\n\t\t_approve(_addonAddress, _iId);\n\t}\n\tfunction getItemStats(uint256 _iId) public returns(HeroItem memory) {\n\t\trequire(isAddon[msg.sender] || msg.sender == cCA, \"You can't set the stats.\");\n\t\treturn allItems[_iId];\n\t}\n\tfunction setItemStats(uint256 _iId, HeroItem memory _item) public {\n\t\trequire(isAddon[msg.sender] || msg.sender == cCA, \"You can't set the stats.\");\n\t\tallItems[_iId] = _item;\n\t}\n\tfunction getNBT() public view returns(address) {\n\t\treturn nbt;\n\t}\n\tfunction getSpawn(uint256 _hId) public view returns(uint256) {\n                return hSpawn[_hId];\n        }\n\tfunction getCurrentPower(address _hero, uint256 _target, uint _power) public returns(uint) {\n\t\trequire(isAddon[msg.sender] || msg.sender == cCA, \"You lack the power.\");\n\t\tuint basePow = spells.getPowBase(_hero, _target);\n\t\tPowSum memory pow = getPowerItems(_hero, _target, _power);\n\t\tuint maxPower = pow.mana + basePow;\n\t\tHero hero = Hero(_hero);\n\n\t\thero.setMaxPower(_target, maxPower);\t\t\t// This is odd but the way these contracts interact this call from the hero sets state back in the hero...\n\n\t\tint powerShift = spells.getPowerShift(_hero, _target, _power, maxPower);\n\n\t\tif(powerShift < 0) {\n\t\t\tuint downShift = uint(-1 * powerShift);\n\t\t\tif(downShift > _power) {\n\t\t\t\treturn 0;\t\t// Now we at zero tho...\n\t\t\t} else {\n\t\t\t\treturn (_power - downShift) * 1.0 ether / maxPower;\n\t\t\t}\n\t\t} else {\n\t\t\tuint upShift = uint(powerShift);\n\t\t\tuint power = _power + upShift;\n\t\t\tif(power > maxPower) {\n\t\t\t\treturn 1.0 ether;\n\t\t\t} else {\n\t\t\t\treturn power * 1.0 ether / maxPower;\n\t\t\t}\n\t\t}\n\t}\n\tfunction getStats(address _hero, uint256 _target) public returns(Stats memory) {\n\t\tuint intel;\n\t\tuint agi;\n\t\tuint strn;\n\t\tuint256 effects;\n\t\tfor(int i = 1; i <= EQUP_SLOTS; i++) {\n                        uint256 _itemId = heroSlots[_hero][_target][i];\n                        if(_itemId > 0) {\n                                HeroItem memory item = allItems[_itemId];\n                                intel += uint(item.intel);\n\t\t\t\tagi += uint(item.agi);\n\t\t\t\tstrn += uint(item.strn);\n\t\t\t\teffects |= item.effect;\n                        }\n                }\n                return Stats(intel + 1, agi + 1, strn + 1, effects, talents[_hero][_target], FIZZLE_FIRE_WORKS);\n\t}\n\tfunction equipItemFrom(address _owner, address _hero, uint256 _hId, uint256 _iId) public {\n\t\trequire(isAddon[msg.sender] || msg.sender == cCA, \"equipItemFrom\");\n\n\t\tif(_iId > 0) {\n\t\t\t//approve(address(this), _iId);\n\t\t\t//safeTransferFrom(_owner, address(this), _iId);\n\t\t\t_transfer(_owner, address(this), _iId);\n\t\t}\n\n\t\tuint256 _curItemId = heroSlots[_hero][_hId][slot[_iId]];\n\t\tif(_curItemId > 0) {\n\t\t\t//safeTransferFrom(address(this), _owner, _curItemId);\n\t\t\t_transfer(address(this), _owner, _iId);\n\t\t}\n\t\theroSlots[_hero][_hId][slot[_iId]] = _iId;\n\t}\n\tfunction getPowerItems(address _hero, uint256 _target, uint _power) internal returns(PowSum memory) {\n\t\tuint mana;\n\t\tfor(int i = 1; i <= EQUP_SLOTS; i++) {\n\t\t\tuint256 _itemId = heroSlots[_hero][_target][i];\n\t\t\tif(_itemId > 0) {\n                                HeroItem memory item = allItems[_itemId];\n\t\t\t\tmana += uint(item.intel) * spells.getPowerMult(_hero, _target, _power);\n\t\t\t}\n\t\t}\n\t\treturn PowSum(mana);\n\t}\n\tfunction getHPItems(address _hero, uint256 _target) internal returns(HPSummary memory) {\n\t\tuint stamMul = spells.getStamMult(_hero, _target);\n\t\tuint hp;\n\t\tint armor;\n\t\tint fire;\n\t\tint frost;\n\t\tint meta;\n\t\tuint256 effect;\n\n\t\tfor(int i = 1; i <= EQUP_SLOTS; i++) {\n\t\t\tuint256 _itemId = heroSlots[_hero][_target][i];\n\t\t\tif(_itemId > 0) {\n\t\t\t\tHeroItem memory item = allItems[_itemId];\n\t\t\t\thp += uint(item.stam) * stamMul;\n\t\t\t\tarmor += item.armor;\n\t\t\t\tfire += item.fire;\n\t\t\t\tfrost += item.frost;\n\t\t\t\tmeta += item.meta;\n\t\t\t\teffect |= item.effect;\n\t\t\t}\n\t\t}\n\t\tHPSummary memory sum = HPSummary(hp, armor, fire, frost, meta, effect);\n\t\tHero(_hero).setHPSummary(_target, sum);\n\t\treturn sum;\n        }\n\tfunction getHPReal(uint _totalMaxHp, uint256 _targetHp) public view returns(uint256) {\n\t\treturn _totalMaxHp * _targetHp / 1 ether;\n\t}\n\tfunction hpByEffect(address _hero, uint256 _hId, uint256 _target, uint256 _hpBefore, uint256 _hpAfter, int _how, uint256 _effect) public {\n\t\trequire(isAddon[msg.sender] || msg.sender == cCA, \"hpByEffect\");\n\t\tfor(uint i = 0; i < LEGION_LEGOS; i++) {\n                        address legion = legionLegos[i];\n                        if(legion != address(0)) {\n                                Legion(legion).hpByEffect(_hero, _hId, _target, _hpBefore, _hpAfter, _how, _effect);\n                        }\n                }\n\t}\n\tfunction getHPWithAmount(address _hero, uint256 _target, uint256 _targetHp, int _amount, int _amtType) public returns(uint256) {\t// Not a view because we deal with HOT and DOTs here.\n\t\trequire(isAddon[msg.sender] || msg.sender == cCA, \"Please don't.\");\n\t\t//require(_targetHp != 0, \"Take me out...\");\t\t// Turn on for testing if you dont believe you are dead...\n\t\tuint baseHp = spells.getHPBase(_hero, _target);\n\t\tHPSummary memory sum = getHPItems(_hero, _target);\n\t\tuint hpMax = baseHp + sum.hp;\n\t\t//require(hpMax > 1, \"No wusses allowed.\");\n\n\t\tHero(_hero).setMaxHp(_target, hpMax);\n\n\t\tuint damage;\n\t\tuint heals;\n\n\t\tif(_amount > 0) {\n\t\t\theals = uint(_amount);\n\t\t} else {\n\t\t\tdamage = uint(-1 * _amount);\n\t\t}\n\n\t\t// 1, 1, 0, 1 :: interval, curTick, starttime left 0 to force damage now, maxTick\n\t\tScrewdrivers memory _nutsNBolts = Screwdrivers(true, _hero, _target, heals, damage, _amtType, sum.armor, sum.fire, sum.frost, sum.meta, sum.effect, 1,1,0,1);\n\t\tuint hp = getHPReal(hpMax, _targetHp);\n\t\tuint256 targetHp = spells.resolveHP(_hero, _target, hp, _nutsNBolts);\t// Real hp goes in the resolver...\n\n\t\tif(targetHp == 0) { \n\t\t\treturn 0; // They are already dead... didn't survive their dots.\n\t\t} else {\n\t\t\ttargetHp += heals;\n\t\t\tif(damage > targetHp) {\n\t\t\t\ttargetHp = 0;\t\t// Dead now from direct damage.\n\t\t\t} else {\n\t\t\t\ttargetHp -= damage;\t// They survived it.\n\t\t\t}\n\t\t}\n\n\t\tif(targetHp > hpMax) {\n\t\t\ttargetHp = hpMax;\n\t\t}\n\n\t\treturn targetHp * 1 ether / hpMax;\t// Back to percent..\n\t}\n\tfunction onERC721Received(address operator, address from, uint256 tokenId, bytes calldata data) external returns (bytes4) {\n        \treturn 0xf0b9e5ba;\n    \t}\n}\n",
  "sourcePath": "contracts/MyItems.sol",
  "type": "contract"
}