{
  "abi": [
    {
      "inputs": [
        {
          "internalType": "address",
          "name": "_cCA",
          "type": "address"
        },
        {
          "internalType": "address",
          "name": "_gasToken",
          "type": "address"
        }
      ],
      "stateMutability": "nonpayable",
      "type": "constructor"
    },
    {
      "anonymous": false,
      "inputs": [
        {
          "indexed": false,
          "internalType": "address",
          "name": "who",
          "type": "address"
        },
        {
          "indexed": false,
          "internalType": "address",
          "name": "what",
          "type": "address"
        }
      ],
      "name": "BookContract",
      "type": "event"
    },
    {
      "anonymous": false,
      "inputs": [
        {
          "indexed": false,
          "internalType": "address",
          "name": "parent",
          "type": "address"
        },
        {
          "indexed": false,
          "internalType": "address",
          "name": "child",
          "type": "address"
        },
        {
          "indexed": false,
          "internalType": "uint256",
          "name": "parentId",
          "type": "uint256"
        },
        {
          "indexed": false,
          "internalType": "uint256",
          "name": "childId",
          "type": "uint256"
        }
      ],
      "name": "PairPrinted",
      "type": "event"
    },
    {
      "inputs": [
        {
          "internalType": "address",
          "name": "_whom",
          "type": "address"
        }
      ],
      "name": "addBalance",
      "outputs": [],
      "stateMutability": "payable",
      "type": "function"
    },
    {
      "inputs": [
        {
          "internalType": "address",
          "name": "_whom",
          "type": "address"
        },
        {
          "internalType": "uint256",
          "name": "_amount",
          "type": "uint256"
        }
      ],
      "name": "addBalanceCC",
      "outputs": [],
      "stateMutability": "nonpayable",
      "type": "function"
    },
    {
      "inputs": [],
      "name": "addonPay",
      "outputs": [],
      "stateMutability": "payable",
      "type": "function"
    },
    {
      "inputs": [
        {
          "internalType": "address",
          "name": "_NBT",
          "type": "address"
        }
      ],
      "name": "buyBook",
      "outputs": [],
      "stateMutability": "payable",
      "type": "function"
    },
    {
      "inputs": [
        {
          "internalType": "address",
          "name": "_to",
          "type": "address"
        },
        {
          "internalType": "address",
          "name": "_NBT",
          "type": "address"
        },
        {
          "internalType": "uint256",
          "name": "_tokenMax",
          "type": "uint256"
        },
        {
          "internalType": "uint256",
          "name": "_amount",
          "type": "uint256"
        },
        {
          "internalType": "uint256",
          "name": "_gasRewards",
          "type": "uint256"
        }
      ],
      "name": "delegateMinter",
      "outputs": [],
      "stateMutability": "nonpayable",
      "type": "function"
    },
    {
      "inputs": [
        {
          "internalType": "address",
          "name": "_whom",
          "type": "address"
        }
      ],
      "name": "getBalance",
      "outputs": [
        {
          "internalType": "uint256",
          "name": "",
          "type": "uint256"
        }
      ],
      "stateMutability": "view",
      "type": "function"
    },
    {
      "inputs": [
        {
          "internalType": "address",
          "name": "_to",
          "type": "address"
        },
        {
          "internalType": "address",
          "name": "_NBT",
          "type": "address"
        },
        {
          "internalType": "uint256",
          "name": "_amount",
          "type": "uint256"
        },
        {
          "internalType": "uint256",
          "name": "_gasRewards",
          "type": "uint256"
        }
      ],
      "name": "mintPair",
      "outputs": [],
      "stateMutability": "nonpayable",
      "type": "function"
    },
    {
      "inputs": [
        {
          "internalType": "string",
          "name": "_name",
          "type": "string"
        },
        {
          "internalType": "string",
          "name": "_symbol",
          "type": "string"
        },
        {
          "internalType": "address",
          "name": "_bookRegistryAddress",
          "type": "address"
        },
        {
          "internalType": "string",
          "name": "_baseuri",
          "type": "string"
        },
        {
          "internalType": "bool",
          "name": "_burnable",
          "type": "bool"
        },
        {
          "internalType": "uint256",
          "name": "_maxmint",
          "type": "uint256"
        },
        {
          "internalType": "uint256",
          "name": "_defaultprice",
          "type": "uint256"
        },
        {
          "internalType": "uint256",
          "name": "_defaultfrom",
          "type": "uint256"
        },
        {
          "internalType": "address",
          "name": "_mintTo",
          "type": "address"
        }
      ],
      "name": "newBookContract",
      "outputs": [
        {
          "internalType": "address",
          "name": "",
          "type": "address"
        }
      ],
      "stateMutability": "nonpayable",
      "type": "function"
    },
    {
      "inputs": [
        {
          "internalType": "address",
          "name": "_a",
          "type": "address"
        }
      ],
      "name": "retireBookContract",
      "outputs": [],
      "stateMutability": "nonpayable",
      "type": "function"
    },
    {
      "inputs": [
        {
          "internalType": "uint256",
          "name": "_operatorFee",
          "type": "uint256"
        }
      ],
      "name": "setOperatorFee",
      "outputs": [],
      "stateMutability": "nonpayable",
      "type": "function"
    },
    {
      "inputs": [
        {
          "internalType": "uint256",
          "name": "_amount",
          "type": "uint256"
        }
      ],
      "name": "withdraw",
      "outputs": [],
      "stateMutability": "nonpayable",
      "type": "function"
    }
  ],
  "bytecode": "608060405260016006553480156200001657600080fd5b5060405162005ef738038062005ef7833981016040819052620000399162000096565b60016000819055600480546001600160a01b039485166001600160a01b0319918216179091556005805493909416921691909117909155600655620000ce565b80516001600160a01b03811681146200009157600080fd5b919050565b60008060408385031215620000aa57600080fd5b620000b58362000079565b9150620000c56020840162000079565b90509250929050565b615e1980620000de6000396000f3fe608060405260043610620000a95760003560e01c80635cffeb71116200006c5780635cffeb711462000144578063747276811462000169578063a715e2fc146200018e578063b5cef24a14620001a5578063f8b2cb4f14620001bc578063fb60e6fa146200020957600080fd5b80631d09580514620000ae5780632a74eebe14620000d55780632e1a7d4d14620000fa578063384efaf6146200011f578063495057be14620000d3575b600080fd5b348015620000bb57600080fd5b50620000d3620000cd3660046200172c565b6200023d565b005b348015620000e257600080fd5b50620000d3620000f43660046200176e565b62000278565b3480156200010757600080fd5b50620000d3620001193660046200172c565b6200045f565b3480156200012c57600080fd5b50620000d36200013e366004620017c4565b62000515565b3480156200015157600080fd5b50620000d362000163366004620017eb565b6200056f565b3480156200017657600080fd5b50620000d36200018836600462001836565b62000691565b620000d36200019f366004620017c4565b620007e7565b620000d3620001b6366004620017c4565b62001032565b348015620001c957600080fd5b50620001f6620001db366004620017c4565b6001600160a01b031660009081526002602052604090205490565b6040519081526020015b60405180910390f35b3480156200021657600080fd5b506200022e620002283660046200192c565b620010f9565b60405162000200919062001a14565b6004546001600160a01b03163314620002735760405162461bcd60e51b81526004016200026a9062001a28565b60405180910390fd5b600655565b600260005414156200029e5760405162461bcd60e51b81526004016200026a9062001a4e565b600260005560045484906001600160a01b0316331480620003445750806001600160a01b0316638da5cb5b6040518163ffffffff1660e01b815260040160206040518083038186803b158015620002f457600080fd5b505afa15801562000309573d6000803e3d6000fd5b505050506040513d601f19601f820116820180604052508101906200032f919062001a85565b6001600160a01b0316336001600160a01b0316145b620003a35760405162461bcd60e51b815260206004820152602860248201527f596f7520646f206e6f742061646d696e206f662074686973207072696e74696e6044820152673390383932b9b99760c11b60648201526084016200026a565b83620003b184600262001abb565b620003bd919062001abb565b3360009081526002602052604090205410156200041d5760405162461bcd60e51b815260206004820152601a60248201527f4e656564206d6f7265204343206f6e2074686520626f6f6b732e00000000000060448201526064016200026a565b6200042c868286868662001270565b33600090815260026020526040812080548592906200044d90849062001add565b90915550506001600055505050505050565b6005546040516323b872dd60e01b81526001600160a01b03909116906323b872dd90620004959030903390869060040162001af7565b602060405180830381600087803b158015620004b057600080fd5b505af1158015620004c5573d6000803e3d6000fd5b505050506040513d601f19601f82011682018060405250810190620004eb919062001b1b565b5033600090815260026020526040812080548392906200050d90849062001add565b909155505050565b6004546001600160a01b03163314806200053957506003546001600160a01b031633145b6200056c5760405162461bcd60e51b81526020600482015260026024820152616e6f60f01b60448201526064016200026a565b50565b60026000541415620005955760405162461bcd60e51b81526004016200026a9062001a4e565b600260005560045483906001600160a01b03163314806200063b5750806001600160a01b0316638da5cb5b6040518163ffffffff1660e01b815260040160206040518083038186803b158015620005eb57600080fd5b505afa15801562000600573d6000803e3d6000fd5b505050506040513d601f19601f8201168201806040525081019062000626919062001a85565b6001600160a01b0316336001600160a01b0316145b620006775760405162461bcd60e51b815260206004820152600b60248201526a20b236b4b71037b7363c9760a91b60448201526064016200026a565b6200068585858585620012a9565b50506001600055505050565b6005546040516313784abf60e31b81526000916001600160a01b031690639bc255f890620006c6903390869060040162001b3b565b602060405180830381600087803b158015620006e157600080fd5b505af1158015620006f6573d6000803e3d6000fd5b505050506040513d601f19601f820116820180604052508101906200071c919062001b54565b90506000600560009054906101000a90046001600160a01b03166001600160a01b031663935418fc836040518263ffffffff1660e01b81526004016020604051808303818588803b1580156200077157600080fd5b505af115801562000786573d6000803e3d6000fd5b50505050506040513d601f19601f82011682018060405250810190620007ad919062001b54565b6001600160a01b038516600090815260026020526040812080549293508392909190620007dc90849062001b6e565b909155505050505050565b600260005414156200080d5760405162461bcd60e51b81526004016200026a9062001a4e565b60026000819055506000819050806001600160a01b03166324d64ca26040518163ffffffff1660e01b815260040160206040518083038186803b1580156200085457600080fd5b505afa15801562000869573d6000803e3d6000fd5b505050506040513d601f19601f820116820180604052508101906200088f919062001b54565b816001600160a01b03166318160ddd6040518163ffffffff1660e01b815260040160206040518083038186803b158015620008c957600080fd5b505afa158015620008de573d6000803e3d6000fd5b505050506040513d601f19601f8201168201806040525081019062000904919062001b54565b10156200093f5760405162461bcd60e51b81526020600482015260086024820152672737ba103cb2ba1760c11b60448201526064016200026a565b34816001600160a01b031663b086613c6040518163ffffffff1660e01b815260040160206040518083038186803b1580156200097a57600080fd5b505afa1580156200098f573d6000803e3d6000fd5b505050506040513d601f19601f82011682018060405250810190620009b5919062001b54565b1115620009ed5760405162461bcd60e51b815260206004820152600560248201526426b7b9329760d91b60448201526064016200026a565b6000816001600160a01b031663b086613c6040518163ffffffff1660e01b815260040160206040518083038186803b15801562000a2957600080fd5b505afa15801562000a3e573d6000803e3d6000fd5b505050506040513d601f19601f8201168201806040525081019062000a64919062001b54565b62000a70903462001add565b9050600062000a80823462001add565b90506000600560009054906101000a90046001600160a01b03166001600160a01b031663935418fc846040518263ffffffff1660e01b81526004016020604051808303818588803b15801562000ad557600080fd5b505af115801562000aea573d6000803e3d6000fd5b50505050506040513d601f19601f8201168201806040525081019062000b11919062001b54565b6005549091506000906001600160a01b031663935418fc62000b34863462001add565b6040518263ffffffff1660e01b81526004016020604051808303818588803b15801562000b6057600080fd5b505af115801562000b75573d6000803e3d6000fd5b50505050506040513d601f19601f8201168201806040525081019062000b9c919062001b54565b9050600060646006548362000bb2919062001abb565b62000bbe919062001b89565b905062000bcc818362001add565b60026000886001600160a01b0316638da5cb5b6040518163ffffffff1660e01b815260040160206040518083038186803b15801562000c0a57600080fd5b505afa15801562000c1f573d6000803e3d6000fd5b505050506040513d601f19601f8201168201806040525081019062000c45919062001a85565b6001600160a01b03166001600160a01b03168152602001908152602001600020600082825462000c76919062001b6e565b90915550506004546001600160a01b03166000908152600260205260408120805483929062000ca790849062001b6e565b9091555050336000908152600260205260408120805485929062000ccd90849062001b6e565b9091555050604051633036004b60e21b8152600060048201819052906001600160a01b0388169063c0d8012c90602401604080518083038186803b15801562000d1557600080fd5b505afa15801562000d2a573d6000803e3d6000fd5b505050506040513d601f19601f8201168201806040525081019062000d50919062001bac565b5090506001600160a01b0381161562000d8f5762000d89308962000d7660028862001b89565b62000d8360048962001b89565b620012a9565b62000f49565b60405163a795e19360e01b81526000906001600160a01b0389169063a795e1939062000dc090309060040162001a14565b602060405180830381600087803b15801562000ddb57600080fd5b505af115801562000df0573d6000803e3d6000fd5b505050506040513d601f19601f8201168201806040525081019062000e16919062001b54565b60055460405163095ea7b360e01b81529192506001600160a01b03169063095ea7b39062000e4b908b90899060040162001b3b565b602060405180830381600087803b15801562000e6657600080fd5b505af115801562000e7b573d6000803e3d6000fd5b505050506040513d601f19601f8201168201806040525081019062000ea1919062001b1b565b506001600160a01b038816631b64ab59828762000ec060028262001b89565b6040516001600160e01b031960e086901b168152600481019390935260248301919091526044820152606401600060405180830381600087803b15801562000f0757600080fd5b505af115801562000f1c573d6000803e3d6000fd5b5050336000908152600260205260408120805489945090925062000f4290849062001add565b9091555050505b866001600160a01b031663c43e92b130338a6001600160a01b03166318160ddd6040518163ffffffff1660e01b815260040160206040518083038186803b15801562000f9457600080fd5b505afa15801562000fa9573d6000803e3d6000fd5b505050506040513d601f19601f8201168201806040525081019062000fcf919062001b54565b6040518463ffffffff1660e01b815260040162000fef9392919062001af7565b600060405180830381600087803b1580156200100a57600080fd5b505af11580156200101f573d6000803e3d6000fd5b5050600160005550505050505050505050565b6000600560009054906101000a90046001600160a01b03166001600160a01b031663935418fc346040518263ffffffff1660e01b81526004016020604051808303818588803b1580156200108557600080fd5b505af11580156200109a573d6000803e3d6000fd5b50505050506040513d601f19601f82011682018060405250810190620010c1919062001b54565b6001600160a01b038316600090815260026020526040812080549293508392909190620010f090849062001b6e565b90915550505050565b6004546000906001600160a01b03163314806200112357506004546001600160a01b038381169116145b620011425760405162461bcd60e51b81526004016200026a9062001a28565b60008a8a8a8a8a8a8a8a600560009054906101000a90046001600160a01b0316600460009054906101000a90046001600160a01b031660405162001186906200171e565b6200119b9a9998979695949392919062001c2d565b604051809103906000f080158015620011b8573d6000803e3d6000fd5b5060405163f2fde38b60e01b81529091506001600160a01b0382169063f2fde38b90620011ea90869060040162001a14565b600060405180830381600087803b1580156200120557600080fd5b505af11580156200121a573d6000803e3d6000fd5b5050604080516001600160a01b038088168252851660208201527fcfc38f0d51ce64ddbba3ae402fd807d884f2462f2c03581e4b073561b113f443935001905060405180910390a19a9950505050505050505050565b8360005b84811015620012a0576200128b87878686620012a9565b80620012978162001cbc565b91505062001274565b50505050505050565b604051633036004b60e21b815260006004820181905284916001600160a01b0383169063c0d8012c90602401604080518083038186803b158015620012ed57600080fd5b505afa15801562001302573d6000803e3d6000fd5b505050506040513d601f19601f8201168201806040525081019062001328919062001bac565b5060405163a795e19360e01b815290915081906000906001600160a01b0383169063a795e193906200135f908b9060040162001a14565b602060405180830381600087803b1580156200137a57600080fd5b505af11580156200138f573d6000803e3d6000fd5b505050506040513d601f19601f82011682018060405250810190620013b5919062001b54565b90506000846001600160a01b031663a795e1938a6040518263ffffffff1660e01b8152600401620013e7919062001a14565b602060405180830381600087803b1580156200140257600080fd5b505af115801562001417573d6000803e3d6000fd5b505050506040513d601f19601f820116820180604052508101906200143d919062001b54565b604051634d57ca4f60e01b815260048101829052602481018490529091506001600160a01b03861690634d57ca4f90604401600060405180830381600087803b1580156200148a57600080fd5b505af11580156200149f573d6000803e3d6000fd5b505060055460405163095ea7b360e01b81526001600160a01b03909116925082915063095ea7b390620014d99089908c9060040162001b3b565b602060405180830381600087803b158015620014f457600080fd5b505af115801562001509573d6000803e3d6000fd5b505050506040513d601f19601f820116820180604052508101906200152f919062001b1b565b5060405163095ea7b360e01b81526001600160a01b0382169063095ea7b390620015609087908c9060040162001b3b565b602060405180830381600087803b1580156200157b57600080fd5b505af115801562001590573d6000803e3d6000fd5b505050506040513d601f19601f82011682018060405250810190620015b6919062001b1b565b50604051631b64ab5960e01b81526004810183905260248101899052604481018890526001600160a01b03871690631b64ab5990606401600060405180830381600087803b1580156200160857600080fd5b505af11580156200161d573d6000803e3d6000fd5b5050604051631b64ab5960e01b815260048101869052602481018b9052604481018a90526001600160a01b0387169250631b64ab599150606401600060405180830381600087803b1580156200167257600080fd5b505af115801562001687573d6000803e3d6000fd5b505050508760026200169a919062001abb565b3360009081526002602052604081208054909190620016bb90849062001add565b9091555050604080516001600160a01b03808916825286166020820152908101839052606081018490527f99643a3174360b2af868fd8fb24bea8a18b5e8242309acad5e4e279b11f3cdda9060800160405180910390a150505050505050505050565b6141098062001cdb83390190565b6000602082840312156200173f57600080fd5b5035919050565b6001600160a01b03811681146200056c57600080fd5b8035620017698162001746565b919050565b600080600080600060a086880312156200178757600080fd5b8535620017948162001746565b94506020860135620017a68162001746565b94979496505050506040830135926060810135926080909101359150565b600060208284031215620017d757600080fd5b8135620017e48162001746565b9392505050565b600080600080608085870312156200180257600080fd5b84356200180f8162001746565b93506020850135620018218162001746565b93969395505050506040820135916060013590565b600080604083850312156200184a57600080fd5b8235620018578162001746565b946020939093013593505050565b634e487b7160e01b600052604160045260246000fd5b600082601f8301126200188d57600080fd5b813567ffffffffffffffff80821115620018ab57620018ab62001865565b604051601f8301601f19908116603f01168101908282118183101715620018d657620018d662001865565b81604052838152866020858801011115620018f057600080fd5b836020870160208301376000602085830101528094505050505092915050565b80151581146200056c57600080fd5b8035620017698162001910565b60008060008060008060008060006101208a8c0312156200194c57600080fd5b893567ffffffffffffffff808211156200196557600080fd5b620019738d838e016200187b565b9a5060208c01359150808211156200198a57600080fd5b620019988d838e016200187b565b9950620019a860408d016200175c565b985060608c0135915080821115620019bf57600080fd5b50620019ce8c828d016200187b565b965050620019df60808b016200191f565b945060a08a0135935060c08a0135925060e08a0135915062001a056101008b016200175c565b90509295985092959850929598565b6001600160a01b0391909116815260200190565b6020808252600c908201526b20b236b4b7399037b7363c9760a11b604082015260600190565b6020808252601f908201527f5265656e7472616e637947756172643a207265656e7472616e742063616c6c00604082015260600190565b60006020828403121562001a9857600080fd5b8151620017e48162001746565b634e487b7160e01b600052601160045260246000fd5b600081600019048311821515161562001ad85762001ad862001aa5565b500290565b60008282101562001af25762001af262001aa5565b500390565b6001600160a01b039384168152919092166020820152604081019190915260600190565b60006020828403121562001b2e57600080fd5b8151620017e48162001910565b6001600160a01b03929092168252602082015260400190565b60006020828403121562001b6757600080fd5b5051919050565b6000821982111562001b845762001b8462001aa5565b500190565b60008262001ba757634e487b7160e01b600052601260045260246000fd5b500490565b6000806040838503121562001bc057600080fd5b825162001bcd8162001746565b6020939093015192949293505050565b6000815180845260005b8181101562001c055760208185018101518683018201520162001be7565b8181111562001c18576000602083870101525b50601f01601f19169290920160200192915050565b600061014080835262001c438184018e62001bdd565b9050828103602084015262001c59818d62001bdd565b6001600160a01b038c81166040860152848203606086015290915062001c80828c62001bdd565b991515608085015260a0840198909852505060c081019490945260e0840192909252831661010083015290911661012090910152949350505050565b600060001982141562001cd35762001cd362001aa5565b506001019056fe6080604052600a805460ff191690556000600e553480156200002057600080fd5b50604051620041093803806200410983398101604081905262000043916200054f565b898982878383816000908051906020019062000061929190620003ae565b50805162000077906001906020840190620003ae565b50505060006200008c6200023060201b60201c565b600d80546001600160a01b0319166001600160a01b038316908117909155604051919250906000907f8be0079c531659141344cd1fd0a4f28419497f9722a3daafe3b4186f6b6457e0908290a350601080546001600160a01b0319166001600160a01b03841617905562000100846200024c565b600f5550506001601155506001600160a01b038116620001675760405162461bcd60e51b815260206004820152601560248201527f496e76616c69642061646d696e2061646472657373000000000000000000000060448201526064015b60405180910390fd5b6001600160a01b038216620001b35760405162461bcd60e51b815260206004820152601160248201527024b73b30b634b21033b0b9903a37b5b2b760791b60448201526064016200015e565b601080546001600160a01b0319166001600160a01b0383161790558651620001e39060129060208a0190620003ae565b50506013805460ff19169515159590951790945560149190915560155550601a80546001600160a01b0319166001600160a01b039092169190911790555050600560165550620006879050565b600062000247620002ad60201b620021631760201c565b905090565b600a5460ff1615620002925760405162461bcd60e51b815260206004820152600e60248201526d185b1c9958591e481a5b9a5d195960921b60448201526064016200015e565b6200029d816200030c565b50600a805460ff19166001179055565b6000333014156200030657600080368080601f0160208091040260200160405190810160405280939291908181526020018383808284376000920191909152505050503601516001600160a01b03169150620003099050565b50335b90565b6040518060800160405280604f8152602001620040ba604f9139805160209182012082519282019290922060408051808201825260018152603160f81b90840152805180840194909452838101919091527fc89efdaa54c0f20c7adf612882df0950f5a951637e0307cdcb4c672f298b8bc660608401523060808401524660a0808501919091528151808503909101815260c090930190528151910120600b55565b828054620003bc906200064a565b90600052602060002090601f016020900481019282620003e057600085556200042b565b82601f10620003fb57805160ff19168380011785556200042b565b828001600101855582156200042b579182015b828111156200042b5782518255916020019190600101906200040e565b50620004399291506200043d565b5090565b5b808211156200043957600081556001016200043e565b634e487b7160e01b600052604160045260246000fd5b600082601f8301126200047c57600080fd5b81516001600160401b038082111562000499576200049962000454565b604051601f8301601f19908116603f01168101908282118183101715620004c457620004c462000454565b81604052838152602092508683858801011115620004e157600080fd5b600091505b83821015620005055785820183015181830184015290820190620004e6565b83821115620005175760008385830101525b9695505050505050565b80516001600160a01b03811681146200053957600080fd5b919050565b805180151581146200053957600080fd5b6000806000806000806000806000806101408b8d0312156200057057600080fd5b8a516001600160401b03808211156200058857600080fd5b620005968e838f016200046a565b9b5060208d0151915080821115620005ad57600080fd5b620005bb8e838f016200046a565b9a50620005cb60408e0162000521565b995060608d0151915080821115620005e257600080fd5b50620005f18d828e016200046a565b9750506200060260808c016200053e565b955060a08b0151945060c08b0151935060e08b01519250620006286101008c0162000521565b9150620006396101208c0162000521565b90509295989b9194979a5092959850565b600181811c908216806200065f57607f821691505b602082108114156200068157634e487b7160e01b600052602260045260246000fd5b50919050565b613a2380620006976000396000f3fe6080604052600436106102eb5760003560e01c8063596c632511610186578063a22cb465116100d7578063c87b56dd11610085578063c87b56dd1461096d578063d547cfb71461098d578063e189977f146109a2578063e8a3d485146109c2578063e985e9c5146109d7578063ef2d1746146109f7578063f2fde38b14610a0c57600080fd5b8063a22cb46514610868578063a795e19314610888578063b086613c146108a8578063b88d4fde146108bd578063b9dd6574146108dd578063c0d8012c146108f2578063c43e92b11461094d57600080fd5b806380929e5b1161013457806380929e5b1461079c5780638297f29f146107bc5780638a0de3dd146107f55780638aa80ea5146108135780638da5cb5b1461082957806395d89b411461083e578063972d1ae21461085357600080fd5b8063596c6325146106b75780636352211e146106e75780636d3c7ec5146107075780636d714b681461072757806370a0823114610747578063715018a614610767578063755edd171461077c57600080fd5b80632d0335ab116102405780634409559a116101ee5780634409559a146105e25780634d47732a146106025780634d57ca4f146106175780634f6ccce71461063757806351508f0a14610657578063547520fe1461067757806355f804b31461069757600080fd5b80632d0335ab146104f95780632f745c591461052f5780633408e4701461054f578063343f40df146105625780634209a2e11461058257806342842e0e146105a257806342966c68146105c257600080fd5b806318160ddd1161029d57806318160ddd14610401578063199dc532146104205780631b64ab591461046f5780631e9f8aad1461048f57806320379ee5146104af57806323b872dd146104c457806324d64ca2146104e457600080fd5b806301ffc9a7146102f057806306fdde0314610325578063081812fc14610347578063095ea7b31461037f5780630c53c51c146103a15780630f7e5970146103b4578063109f7561146103e1575b600080fd5b3480156102fc57600080fd5b5061031061030b366004613080565b610a2c565b60405190151581526020015b60405180910390f35b34801561033157600080fd5b5061033a610a57565b60405161031c91906130f5565b34801561035357600080fd5b50610367610362366004613108565b610ae9565b6040516001600160a01b03909116815260200161031c565b34801561038b57600080fd5b5061039f61039a36600461313d565b610b76565b005b61033a6103af36600461320a565b610c99565b3480156103c057600080fd5b5061033a604051806040016040528060018152602001603160f81b81525081565b3480156103ed57600080fd5b5061039f6103fc366004613108565b610e83565b34801561040d57600080fd5b506008545b60405190815260200161031c565b34801561042c57600080fd5b5061045a61043b366004613108565b6000908152601860209081526040808320546019909252909120549091565b6040805192835260208301919091520161031c565b34801561047b57600080fd5b5061039f61048a366004613286565b610ed4565b34801561049b57600080fd5b5061039f6104aa3660046132b2565b611050565b3480156104bb57600080fd5b50600b54610412565b3480156104d057600080fd5b5061039f6104df3660046132cd565b6110e4565b3480156104f057600080fd5b50601554610412565b34801561050557600080fd5b506104126105143660046132b2565b6001600160a01b03166000908152600c602052604090205490565b34801561053b57600080fd5b5061041261054a36600461313d565b61111c565b34801561055b57600080fd5b5046610412565b34801561056e57600080fd5b5061039f61057d366004613108565b6111b2565b34801561058e57600080fd5b5061039f61059d366004613108565b6111da565b3480156105ae57600080fd5b5061039f6105bd3660046132cd565b61127a565b3480156105ce57600080fd5b5061039f6105dd366004613108565b611295565b3480156105ee57600080fd5b50601054610367906001600160a01b031681565b34801561060e57600080fd5b50601654610412565b34801561062357600080fd5b5061039f610632366004613309565b61135e565b34801561064357600080fd5b50610412610652366004613108565b6113bf565b34801561066357600080fd5b5061039f6106723660046132b2565b611452565b34801561068357600080fd5b5061039f610692366004613108565b61154f565b3480156106a357600080fd5b5061039f6106b236600461332b565b6115a5565b3480156106c357600080fd5b506103106106d23660046132b2565b601e6020526000908152604090205460ff1681565b3480156106f357600080fd5b50610367610702366004613108565b61160d565b34801561071357600080fd5b5061039f610722366004613108565b611684565b34801561073357600080fd5b5061039f61074236600461336e565b6116d5565b34801561075357600080fd5b506104126107623660046132b2565b611762565b34801561077357600080fd5b5061039f6117e9565b34801561078857600080fd5b506104126107973660046132b2565b611872565b3480156107a857600080fd5b5061039f6107b73660046133a5565b61198b565b3480156107c857600080fd5b506103106107d73660046132b2565b6001600160a01b03166000908152601e602052604090205460ff1690565b34801561080157600080fd5b50601a546001600160a01b0316610367565b34801561081f57600080fd5b50610412600f5481565b34801561083557600080fd5b506103676119dd565b34801561084a57600080fd5b5061033a6119ec565b34801561085f57600080fd5b506104126119fb565b34801561087457600080fd5b5061039f61088336600461336e565b611a11565b34801561089457600080fd5b506104126108a33660046132b2565b611b0f565b3480156108b457600080fd5b50601454610412565b3480156108c957600080fd5b5061039f6108d83660046133c2565b611b87565b3480156108e957600080fd5b5061039f611bc6565b3480156108fe57600080fd5b5061092e61090d366004613108565b601b546000918252601c6020526040909120546001600160a01b0390911691565b604080516001600160a01b03909316835260208301919091520161031c565b34801561095957600080fd5b5061039f6109683660046132cd565b611bdd565b34801561097957600080fd5b5061033a610988366004613108565b611e03565b34801561099957600080fd5b5061033a611e3d565b3480156109ae57600080fd5b5061039f6109bd36600461342a565b611e65565b3480156109ce57600080fd5b5061033a612021565b3480156109e357600080fd5b506103106109f236600461347a565b612035565b348015610a0357600080fd5b50600e54610412565b348015610a1857600080fd5b5061039f610a273660046132b2565b612063565b60006001600160e01b0319821663780e9d6360e01b1480610a515750610a51826121c0565b92915050565b606060008054610a66906134ad565b80601f0160208091040260200160405190810160405280929190818152602001828054610a92906134ad565b8015610adf5780601f10610ab457610100808354040283529160200191610adf565b820191906000526020600020905b815481529060010190602001808311610ac257829003601f168201915b5050505050905090565b6000610af482612210565b610b5a5760405162461bcd60e51b815260206004820152602c60248201527f4552433732313a20617070726f76656420717565727920666f72206e6f6e657860448201526b34b9ba32b73a103a37b5b2b760a11b60648201526084015b60405180910390fd5b506000908152600460205260409020546001600160a01b031690565b6000610b818261160d565b9050806001600160a01b0316836001600160a01b03161415610bef5760405162461bcd60e51b815260206004820152602160248201527f4552433732313a20617070726f76616c20746f2063757272656e74206f776e656044820152603960f91b6064820152608401610b51565b806001600160a01b0316610c0161222d565b6001600160a01b03161480610c1d5750610c1d816109f261222d565b610c8a5760405162461bcd60e51b815260206004820152603860248201527f4552433732313a20617070726f76652063616c6c6572206973206e6f74206f776044820152771b995c881b9bdc88185c1c1c9bdd995908199bdc88185b1b60421b6064820152608401610b51565b610c948383612237565b505050565b60408051606081810183526001600160a01b0388166000818152600c602090815290859020548452830152918101869052610cd787828787876122a5565b610d2d5760405162461bcd60e51b815260206004820152602160248201527f5369676e657220616e64207369676e617475726520646f206e6f74206d6174636044820152600d60fb1b6064820152608401610b51565b6001600160a01b0387166000908152600c6020526040902054610d51906001612395565b6001600160a01b0388166000908152600c60205260409081902091909155517f5845892132946850460bff5a0083f71031bc5bf9aadcd40f1de79423eac9b10b90610da190899033908a906134e8565b60405180910390a1600080306001600160a01b0316888a604051602001610dc992919061351d565b60408051601f1981840301815290829052610de391613554565b6000604051808303816000865af19150503d8060008114610e20576040519150601f19603f3d011682016040523d82523d6000602084013e610e25565b606091505b509150915081610e775760405162461bcd60e51b815260206004820152601c60248201527f46756e6374696f6e2063616c6c206e6f74207375636365737366756c000000006044820152606401610b51565b98975050505050505050565b610e8b6119dd565b6001600160a01b0316610e9c612163565b6001600160a01b03161480610ec65750610eb4612163565b6010546001600160a01b039081169116145b610ecf57600080fd5b601555565b60026011541415610ef75760405162461bcd60e51b8152600401610b5190613570565b6002601155601a546000906001600160a01b031663dd62ed3e610f18612163565b6040516001600160e01b031960e084901b1681526001600160a01b03909116600482015230602482015260440160206040518083038186803b158015610f5d57600080fd5b505afa158015610f71573d6000803e3d6000fd5b505050506040513d601f19601f82011682018060405250810190610f9591906135a7565b905082811015610fd55760405162461bcd60e51b815260206004820152600b60248201526a66696c6c47617354616e6b60a81b6044820152606401610b51565b610fdf82846135d6565b60008581526018602052604081208054909190610ffd9084906135ed565b9091555050600084815260196020526040812080548492906110209084906135ed565b909155506110459050611031612163565b601a546001600160a01b03169030866123a8565b505060016011555050565b6001600160a01b0381166110765760405162461bcd60e51b8152600401610b5190613605565b61107e6119dd565b6001600160a01b031661108f612163565b6001600160a01b031614806110b957506110a7612163565b6010546001600160a01b039081169116145b6110c257600080fd5b601a80546001600160a01b0319166001600160a01b0392909216919091179055565b6110f56110ef61222d565b82612400565b6111115760405162461bcd60e51b8152600401610b519061362e565b610c948383836124ca565b600061112783611762565b82106111895760405162461bcd60e51b815260206004820152602b60248201527f455243373231456e756d657261626c653a206f776e657220696e646578206f7560448201526a74206f6620626f756e647360a81b6064820152608401610b51565b506001600160a01b03919091166000908152600660209081526040808320938352929052205490565b336000908152601e602052604090205460ff166111ce57600080fd5b6111d781612663565b50565b6111e26119dd565b6001600160a01b03166111f3612163565b6001600160a01b0316148061122257506010546001600160a01b0316611217612163565b6001600160a01b0316145b61122b57600080fd5b606360165411156112755760405162461bcd60e51b81526020600482015260146024820152732132903132ba3bb2b2b710181030b732101c9c9760611b6044820152606401610b51565b601655565b610c9483838360405180602001604052806000815250611b87565b60135460ff166112e75760405162461bcd60e51b815260206004820152601b60248201527f596f752063616e2774206275726e20746869732e2e2e207965743f00000000006044820152606401610b51565b6112f26110ef61222d565b806113125750611300612163565b6010546001600160a01b039081169116145b6111ce5760405162461bcd60e51b815260206004820181905260248201527f43616c6c6572206973206e6f74206f776e6572206e6f7220617070726f7665646044820152606401610b51565b336000908152601e602052604090205460ff1680611391575061137f612163565b6010546001600160a01b039081169116145b61139a57600080fd5b6000918252601c6020908152604080842092909255601d90529020805460ff19169055565b60006113ca60085490565b821061142d5760405162461bcd60e51b815260206004820152602c60248201527f455243373231456e756d657261626c653a20676c6f62616c20696e646578206f60448201526b7574206f6620626f756e647360a01b6064820152608401610b51565b600882815481106114405761144061367f565b90600052602060002001549050919050565b6001600160a01b0381166114785760405162461bcd60e51b8152600401610b5190613605565b6114806119dd565b6001600160a01b0316611491612163565b6001600160a01b031614806114bb57506114a9612163565b6010546001600160a01b039081169116145b61152d5760405162461bcd60e51b815260206004820152603b60248201527f4f6e6c7920746865206f776e6572206f7220726567697374657279206d61792060448201527f6368616e6765207468652072657761726420636f6e74726163742e00000000006064820152608401610b51565b601b80546001600160a01b0319166001600160a01b0392909216919091179055565b6115576119dd565b6001600160a01b0316611568612163565b6001600160a01b0316148061159757506010546001600160a01b031661158c612163565b6001600160a01b0316145b6115a057600080fd5b600f55565b6115ad6119dd565b6001600160a01b03166115be612163565b6001600160a01b031614806115ed57506010546001600160a01b03166115e2612163565b6001600160a01b0316145b6115f657600080fd5b8051611609906012906020840190612fd1565b5050565b6000818152600260205260408120546001600160a01b031680610a515760405162461bcd60e51b815260206004820152602960248201527f4552433732313a206f776e657220717565727920666f72206e6f6e657869737460448201526832b73a103a37b5b2b760b91b6064820152608401610b51565b61168c6119dd565b6001600160a01b031661169d612163565b6001600160a01b031614806116c757506116b5612163565b6010546001600160a01b039081169116145b6116d057600080fd5b601455565b6001600160a01b0382166116fb5760405162461bcd60e51b8152600401610b5190613605565b611703612163565b6010546001600160a01b039081169116148061172e5750336000908152601e602052604090205460ff165b61173757600080fd5b6001600160a01b03919091166000908152601e60205260409020805460ff1916911515919091179055565b60006001600160a01b0382166117cd5760405162461bcd60e51b815260206004820152602a60248201527f4552433732313a2062616c616e636520717565727920666f7220746865207a65604482015269726f206164647265737360b01b6064820152608401610b51565b506001600160a01b031660009081526003602052604090205490565b6117f161222d565b6001600160a01b03166118026119dd565b6001600160a01b0316146118285760405162461bcd60e51b8152600401610b5190613695565b600d546040516000916001600160a01b0316907f8be0079c531659141344cd1fd0a4f28419497f9722a3daafe3b4186f6b6457e0908390a3600d80546001600160a01b0319169055565b600061187c6119dd565b6001600160a01b031661188d612163565b6001600160a01b031614806118bc57506010546001600160a01b03166118b1612163565b6001600160a01b0316145b61191c5760405162461bcd60e51b815260206004820152602b60248201527f4f6e6c79206f776e657220616e64206d61726b6574706c6163652063616e206d60448201526a34b73a103a37b5b2b7399760a91b6064820152608401610b51565b600f546119276119fb565b1061196d5760405162461bcd60e51b815260206004820152601660248201527520b63932b0b23c9030ba1036b0bc103a37b5b2b7399760511b6044820152606401610b51565b60006119776119fb565b905061198383826126f8565b610a51611bc6565b61199361222d565b6001600160a01b03166119a46119dd565b6001600160a01b0316146119ca5760405162461bcd60e51b8152600401610b5190613695565b6013805460ff1916911515919091179055565b600d546001600160a01b031690565b606060018054610a66906134ad565b600e54600090611a0c906001612395565b905090565b611a1961222d565b6001600160a01b0316826001600160a01b03161415611a765760405162461bcd60e51b815260206004820152601960248201527822a9219b99189d1030b8383937bb32903a379031b0b63632b960391b6044820152606401610b51565b8060056000611a8361222d565b6001600160a01b03908116825260208083019390935260409182016000908120918716808252919093529120805460ff191692151592909217909155611ac761222d565b6001600160a01b03167f17307eab39ab6107e8899845ad3d59bd9653f200f220920489ca2b5937696c3183604051611b03911515815260200190565b60405180910390a35050565b336000908152601e602052604081205460ff16611b3e5760405162461bcd60e51b8152600401610b51906136ca565b600f54611b496119fb565b1061196d5760405162461bcd60e51b815260206004820152600e60248201526d20ba1036b0bc103a37b5b2b7399760911b6044820152606401610b51565b611b98611b9261222d565b83612400565b611bb45760405162461bcd60e51b8152600401610b519061362e565b611bc084848484612825565b50505050565b600e8054906000611bd6836136f0565b9190505550565b60026011541415611c005760405162461bcd60e51b8152600401610b5190613570565b6002601155601e6000611c11612163565b6001600160a01b0316815260208101919091526040016000205460ff16611c4a5760405162461bcd60e51b8152600401610b51906136ca565b6000611c558261160d565b9050826001600160a01b0316816001600160a01b03161415611ccd5760405162461bcd60e51b815260206004820152602b60248201527f546f6b656e206f776e65722063616e206e6f74207472616e7366657220746f6b60448201526a32b7103a379039b2b6331760a91b6064820152608401610b51565b611cd88484846124ca565b601b546001600160a01b031615801590611cff57506000828152601c602052604090205415155b8015611d1a57506000828152601d602052604090205460ff16155b15611dad57601b546000838152601c60205260409081902054905163c43e92b160e01b81526001600160a01b039092169163c43e92b191611d61918891889160040161370b565b600060405180830381600087803b158015611d7b57600080fd5b505af1158015611d8f573d6000803e3d6000fd5b5050506000838152601d60205260409020805460ff19166001179055505b6000828152601960205260409020541561104557600082815260196020526040902054601a54611dea916001600160a01b03909116908590612858565b5060009081526019602052604081205550506001601155565b6060611e0d611e3d565b611e1683612888565b604051602001611e2792919061372f565b6040516020818303038152906040529050919050565b60606012604051602001611e5191906137f8565b604051602081830303815290604052905090565b60026011541415611e885760405162461bcd60e51b8152600401610b5190613570565b60026011556000611e988461160d565b9050806001600160a01b0316611eac612163565b6001600160a01b03161480611ed65750611ec4612163565b6010546001600160a01b039081169116145b611f105760405162461bcd60e51b815260206004820152600b60248201526a20b6b4b7399037b7363c9760a91b6044820152606401610b51565b600084815260186020526040902054831115611f585760405162461bcd60e51b81526020600482015260076024820152662932b334b6361760c91b6044820152606401610b51565b60008481526018602052604081208054859290611f769084906135d6565b9091555050601a54604051630852cd8d60e31b8152600481018590526001600160a01b03909116906342966c6890602401600060405180830381600087803b158015611fc157600080fd5b505af1158015611fd5573d6000803e3d6000fd5b505050507f06cf1047b698de02174db713eb2021be336d8a8370c8e3b762fe83b7ed289bc38185858560405161200e949392919061381b565b60405180910390a1505060016011555050565b60606012604051602001611e519190613852565b6001600160a01b03918216600090815260056020908152604080832093909416825291909152205460ff1690565b61206b61222d565b6001600160a01b031661207c6119dd565b6001600160a01b0316146120a25760405162461bcd60e51b8152600401610b5190613695565b6001600160a01b0381166121075760405162461bcd60e51b815260206004820152602660248201527f4f776e61626c653a206e6577206f776e657220697320746865207a65726f206160448201526564647265737360d01b6064820152608401610b51565b600d546040516001600160a01b038084169216907f8be0079c531659141344cd1fd0a4f28419497f9722a3daafe3b4186f6b6457e090600090a3600d80546001600160a01b0319166001600160a01b0392909216919091179055565b6000333014156121ba57600080368080601f0160208091040260200160405190810160405280939291908181526020018383808284376000920191909152505050503601516001600160a01b031691506121bd9050565b50335b90565b60006001600160e01b031982166380ac58cd60e01b14806121f157506001600160e01b03198216635b5e139f60e01b145b80610a5157506301ffc9a760e01b6001600160e01b0319831614610a51565b6000908152600260205260409020546001600160a01b0316151590565b6000611a0c612163565b600081815260046020526040902080546001600160a01b0319166001600160a01b038416908117909155819061226c8261160d565b6001600160a01b03167f8c5be1e5ebec7d5bd14f71427d1e84f3dd0314c0f7b2291e5b200ac8c7c3b92560405160405180910390a45050565b60006001600160a01b03861661230b5760405162461bcd60e51b815260206004820152602560248201527f4e61746976654d6574615472616e73616374696f6e3a20494e56414c49445f5360448201526424a3a722a960d91b6064820152608401610b51565b600161231e61231987612986565b612a03565b6040805160008152602081018083529290925260ff851690820152606081018690526080810185905260a0016020604051602081039080840390855afa15801561236c573d6000803e3d6000fd5b505050602060405103516001600160a01b0316866001600160a01b031614905095945050505050565b60006123a182846135ed565b9392505050565b611bc0846323b872dd60e01b8585856040516024016123c99392919061370b565b60408051601f198184030181529190526020810180516001600160e01b03166001600160e01b031990931692909217909152612a33565b600061240b82612210565b61246c5760405162461bcd60e51b815260206004820152602c60248201527f4552433732313a206f70657261746f7220717565727920666f72206e6f6e657860448201526b34b9ba32b73a103a37b5b2b760a11b6064820152608401610b51565b60006124778361160d565b9050806001600160a01b0316846001600160a01b031614806124b25750836001600160a01b03166124a784610ae9565b6001600160a01b0316145b806124c257506124c28185612035565b949350505050565b826001600160a01b03166124dd8261160d565b6001600160a01b0316146125455760405162461bcd60e51b815260206004820152602960248201527f4552433732313a207472616e73666572206f6620746f6b656e2074686174206960448201526839903737ba1037bbb760b91b6064820152608401610b51565b6001600160a01b0382166125a75760405162461bcd60e51b8152602060048201526024808201527f4552433732313a207472616e7366657220746f20746865207a65726f206164646044820152637265737360e01b6064820152608401610b51565b6125b2838383612b05565b6125bd600082612237565b6001600160a01b03831660009081526003602052604081208054600192906125e69084906135d6565b90915550506001600160a01b03821660009081526003602052604081208054600192906126149084906135ed565b909155505060008181526002602052604080822080546001600160a01b0319166001600160a01b0386811691821790925591518493918716916000805160206139ce83398151915291a4505050565b600061266e8261160d565b905061267c81600084612b05565b612687600083612237565b6001600160a01b03811660009081526003602052604081208054600192906126b09084906135d6565b909155505060008281526002602052604080822080546001600160a01b0319169055518391906001600160a01b038416906000805160206139ce833981519152908390a45050565b6001600160a01b03821661274e5760405162461bcd60e51b815260206004820181905260248201527f4552433732313a206d696e7420746f20746865207a65726f20616464726573736044820152606401610b51565b61275781612210565b156127a45760405162461bcd60e51b815260206004820152601c60248201527f4552433732313a20746f6b656e20616c7265616479206d696e746564000000006044820152606401610b51565b6127b060008383612b05565b6001600160a01b03821660009081526003602052604081208054600192906127d99084906135ed565b909155505060008181526002602052604080822080546001600160a01b0319166001600160a01b03861690811790915590518392906000805160206139ce833981519152908290a45050565b6128308484846124ca565b61283c84848484612bbd565b611bc05760405162461bcd60e51b8152600401610b5190613877565b6040516001600160a01b038316602482015260448101829052610c9490849063a9059cbb60e01b906064016123c9565b6060816128ac5750506040805180820190915260018152600360fc1b602082015290565b8160005b81156128d657806128c0816136f0565b91506128cf9050600a836138df565b91506128b0565b60008167ffffffffffffffff8111156128f1576128f1613167565b6040519080825280601f01601f19166020018201604052801561291b576020820181803683370190505b5090505b84156124c2576129306001836135d6565b915061293d600a866138f3565b6129489060306135ed565b60f81b81838151811061295d5761295d61367f565b60200101906001600160f81b031916908160001a90535061297f600a866138df565b945061291f565b600060405180608001604052806043815260200161398b60439139805160209182012083518483015160408087015180519086012090516129e6950193845260208401929092526001600160a01b03166040830152606082015260800190565b604051602081830303815290604052805190602001209050919050565b6000612a0e600b5490565b60405161190160f01b60208201526022810191909152604281018390526062016129e6565b6000612a88826040518060400160405280602081526020017f5361666545524332303a206c6f772d6c6576656c2063616c6c206661696c6564815250856001600160a01b0316612cd19092919063ffffffff16565b805190915015610c945780806020019051810190612aa69190613907565b610c945760405162461bcd60e51b815260206004820152602a60248201527f5361666545524332303a204552433230206f7065726174696f6e20646964206e6044820152691bdd081cdd58d8d9595960b21b6064820152608401610b51565b6001600160a01b038316612b6057612b5b81600880546000838152600960205260408120829055600182018355919091527ff3f7a9fe364faab93b216da50a3214154f22a0a2b415b23a84c8169e8b636ee30155565b612b83565b816001600160a01b0316836001600160a01b031614612b8357612b838382612ce0565b6001600160a01b038216612b9a57610c9481612d7d565b826001600160a01b0316826001600160a01b031614610c9457610c948282612e2c565b60006001600160a01b0384163b15612cc657836001600160a01b031663150b7a02612be661222d565b8786866040518563ffffffff1660e01b8152600401612c089493929190613924565b602060405180830381600087803b158015612c2257600080fd5b505af1925050508015612c52575060408051601f3d908101601f19168201909252612c4f91810190613957565b60015b612cac573d808015612c80576040519150601f19603f3d011682016040523d82523d6000602084013e612c85565b606091505b508051612ca45760405162461bcd60e51b8152600401610b5190613877565b805181602001fd5b6001600160e01b031916630a85bd0160e11b1490506124c2565b506001949350505050565b60606124c28484600085612e70565b60006001612ced84611762565b612cf791906135d6565b600083815260076020526040902054909150808214612d4a576001600160a01b03841660009081526006602090815260408083208584528252808320548484528184208190558352600790915290208190555b5060009182526007602090815260408084208490556001600160a01b039094168352600681528383209183525290812055565b600854600090612d8f906001906135d6565b60008381526009602052604081205460088054939450909284908110612db757612db761367f565b906000526020600020015490508060088381548110612dd857612dd861367f565b6000918252602080832090910192909255828152600990915260408082208490558582528120556008805480612e1057612e10613974565b6001900381819060005260206000200160009055905550505050565b6000612e3783611762565b6001600160a01b039093166000908152600660209081526040808320868452825280832085905593825260079052919091209190915550565b606082471015612ed15760405162461bcd60e51b815260206004820152602660248201527f416464726573733a20696e73756666696369656e742062616c616e636520666f6044820152651c8818d85b1b60d21b6064820152608401610b51565b843b612f1f5760405162461bcd60e51b815260206004820152601d60248201527f416464726573733a2063616c6c20746f206e6f6e2d636f6e74726163740000006044820152606401610b51565b600080866001600160a01b03168587604051612f3b9190613554565b60006040518083038185875af1925050503d8060008114612f78576040519150601f19603f3d011682016040523d82523d6000602084013e612f7d565b606091505b5091509150612f8d828286612f98565b979650505050505050565b60608315612fa75750816123a1565b825115612fb75782518084602001fd5b8160405162461bcd60e51b8152600401610b5191906130f5565b828054612fdd906134ad565b90600052602060002090601f016020900481019282612fff5760008555613045565b82601f1061301857805160ff1916838001178555613045565b82800160010185558215613045579182015b8281111561304557825182559160200191906001019061302a565b50613051929150613055565b5090565b5b808211156130515760008155600101613056565b6001600160e01b0319811681146111d757600080fd5b60006020828403121561309257600080fd5b81356123a18161306a565b60005b838110156130b85781810151838201526020016130a0565b83811115611bc05750506000910152565b600081518084526130e181602086016020860161309d565b601f01601f19169290920160200192915050565b6020815260006123a160208301846130c9565b60006020828403121561311a57600080fd5b5035919050565b80356001600160a01b038116811461313857600080fd5b919050565b6000806040838503121561315057600080fd5b61315983613121565b946020939093013593505050565b634e487b7160e01b600052604160045260246000fd5b600082601f83011261318e57600080fd5b813567ffffffffffffffff808211156131a9576131a9613167565b604051601f8301601f19908116603f011681019082821181831017156131d1576131d1613167565b816040528381528660208588010111156131ea57600080fd5b836020870160208301376000602085830101528094505050505092915050565b600080600080600060a0868803121561322257600080fd5b61322b86613121565b9450602086013567ffffffffffffffff81111561324757600080fd5b6132538882890161317d565b9450506040860135925060608601359150608086013560ff8116811461327857600080fd5b809150509295509295909350565b60008060006060848603121561329b57600080fd5b505081359360208301359350604090920135919050565b6000602082840312156132c457600080fd5b6123a182613121565b6000806000606084860312156132e257600080fd5b6132eb84613121565b92506132f960208501613121565b9150604084013590509250925092565b6000806040838503121561331c57600080fd5b50508035926020909101359150565b60006020828403121561333d57600080fd5b813567ffffffffffffffff81111561335457600080fd5b6124c28482850161317d565b80151581146111d757600080fd5b6000806040838503121561338157600080fd5b61338a83613121565b9150602083013561339a81613360565b809150509250929050565b6000602082840312156133b757600080fd5b81356123a181613360565b600080600080608085870312156133d857600080fd5b6133e185613121565b93506133ef60208601613121565b925060408501359150606085013567ffffffffffffffff81111561341257600080fd5b61341e8782880161317d565b91505092959194509250565b60008060006060848603121561343f57600080fd5b8335925060208401359150604084013567ffffffffffffffff81111561346457600080fd5b6134708682870161317d565b9150509250925092565b6000806040838503121561348d57600080fd5b61349683613121565b91506134a460208401613121565b90509250929050565b600181811c908216806134c157607f821691505b602082108114156134e257634e487b7160e01b600052602260045260246000fd5b50919050565b6001600160a01b03848116825283166020820152606060408201819052600090613514908301846130c9565b95945050505050565b6000835161352f81846020880161309d565b60609390931b6bffffffffffffffffffffffff19169190920190815260140192915050565b6000825161356681846020870161309d565b9190910192915050565b6020808252601f908201527f5265656e7472616e637947756172643a207265656e7472616e742063616c6c00604082015260600190565b6000602082840312156135b957600080fd5b5051919050565b634e487b7160e01b600052601160045260246000fd5b6000828210156135e8576135e86135c0565b500390565b60008219821115613600576136006135c0565b500190565b6020808252600f908201526e496e76616c6964206164647265737360881b604082015260600190565b60208082526031908201527f4552433732313a207472616e736665722063616c6c6572206973206e6f74206f6040820152701ddb995c881b9bdc88185c1c1c9bdd9959607a1b606082015260800190565b634e487b7160e01b600052603260045260246000fd5b6020808252818101527f4f776e61626c653a2063616c6c6572206973206e6f7420746865206f776e6572604082015260600190565b6020808252600c908201526b20b23237b7399037b7363c9760a11b604082015260600190565b6000600019821415613704576137046135c0565b5060010190565b6001600160a01b039384168152919092166020820152604081019190915260600190565b6000835161374181846020880161309d565b83519083019061375581836020880161309d565b01949350505050565b8054600090600181811c908083168061377857607f831692505b602080841082141561379a57634e487b7160e01b600052602260045260246000fd5b8180156137ae57600181146137bf576137ec565b60ff198616895284890196506137ec565b60008881526020902060005b868110156137e45781548b8201529085019083016137cb565b505084890196505b50505050505092915050565b6000613804828461375e565b66746f6b656e732f60c81b81526007019392505050565b60018060a01b038516815283602082015282604082015260806060820152600061384860808301846130c9565b9695505050505050565b600061385e828461375e565b68636f6e74726163742f60b81b81526009019392505050565b60208082526032908201527f4552433732313a207472616e7366657220746f206e6f6e20455243373231526560408201527131b2b4bb32b91034b6b83632b6b2b73a32b960711b606082015260800190565b634e487b7160e01b600052601260045260246000fd5b6000826138ee576138ee6138c9565b500490565b600082613902576139026138c9565b500690565b60006020828403121561391957600080fd5b81516123a181613360565b6001600160a01b0385811682528416602082015260408101839052608060608201819052600090613848908301846130c9565b60006020828403121561396957600080fd5b81516123a18161306a565b634e487b7160e01b600052603160045260246000fdfe4d6574615472616e73616374696f6e2875696e74323536206e6f6e63652c616464726573732066726f6d2c62797465732066756e6374696f6e5369676e617475726529ddf252ad1be2c89b69c2b068fc378daa952ba7f163c4a11628f55a4df523b3efa2646970667358221220df79bf0f18e521e767e89e1475c0cafd1d14ca5346240f21f4ab4ebce0beb99f64736f6c63430008090033454950373132446f6d61696e28737472696e67206e616d652c737472696e672076657273696f6e2c6164647265737320766572696679696e67436f6e74726163742c627974657333322073616c7429a264697066735822122008da99cfdd1d56457744ee0830dacdee82c18e9e5f7b173219c3b00c501485d664736f6c63430008090033",
  "bytecodeSha1": "059cd545836bf92b9bc74ae25694b6cc97559511",
  "compiler": {
    "evm_version": "istanbul",
    "optimizer": {
      "enabled": true,
      "runs": 100
    },
    "version": "0.8.9+commit.e5eed63a"
  },
  "contractName": "PrintingPress",
  "language": "Solidity",
  "natspec": {
    "kind": "dev",
    "methods": {},
    "version": 1
  },
  "opcodes": "PUSH1 0x80 PUSH1 0x40 MSTORE PUSH1 0x4 CALLDATASIZE LT PUSH3 0xA9 JUMPI PUSH1 0x0 CALLDATALOAD PUSH1 0xE0 SHR DUP1 PUSH4 0x5CFFEB71 GT PUSH3 0x6C JUMPI DUP1 PUSH4 0x5CFFEB71 EQ PUSH3 0x144 JUMPI DUP1 PUSH4 0x74727681 EQ PUSH3 0x169 JUMPI DUP1 PUSH4 0xA715E2FC EQ PUSH3 0x18E JUMPI DUP1 PUSH4 0xB5CEF24A EQ PUSH3 0x1A5 JUMPI DUP1 PUSH4 0xF8B2CB4F EQ PUSH3 0x1BC JUMPI DUP1 PUSH4 0xFB60E6FA EQ PUSH3 0x209 JUMPI PUSH1 0x0 DUP1 REVERT JUMPDEST DUP1 PUSH4 0x1D095805 EQ PUSH3 0xAE JUMPI DUP1 PUSH4 0x2A74EEBE EQ PUSH3 0xD5 JUMPI DUP1 PUSH4 0x2E1A7D4D EQ PUSH3 0xFA JUMPI DUP1 PUSH4 0x384EFAF6 EQ PUSH3 0x11F JUMPI DUP1 PUSH4 0x495057BE EQ PUSH3 0xD3 JUMPI JUMPDEST PUSH1 0x0 DUP1 REVERT JUMPDEST CALLVALUE DUP1 ISZERO PUSH3 0xBB JUMPI PUSH1 0x0 DUP1 REVERT JUMPDEST POP PUSH3 0xD3 PUSH3 0xCD CALLDATASIZE PUSH1 0x4 PUSH3 0x172C JUMP JUMPDEST PUSH3 0x23D JUMP JUMPDEST STOP JUMPDEST CALLVALUE DUP1 ISZERO PUSH3 0xE2 JUMPI PUSH1 0x0 DUP1 REVERT JUMPDEST POP PUSH3 0xD3 PUSH3 0xF4 CALLDATASIZE PUSH1 0x4 PUSH3 0x176E JUMP JUMPDEST PUSH3 0x278 JUMP JUMPDEST CALLVALUE DUP1 ISZERO PUSH3 0x107 JUMPI PUSH1 0x0 DUP1 REVERT JUMPDEST POP PUSH3 0xD3 PUSH3 0x119 CALLDATASIZE PUSH1 0x4 PUSH3 0x172C JUMP JUMPDEST PUSH3 0x45F JUMP JUMPDEST CALLVALUE DUP1 ISZERO PUSH3 0x12C JUMPI PUSH1 0x0 DUP1 REVERT JUMPDEST POP PUSH3 0xD3 PUSH3 0x13E CALLDATASIZE PUSH1 0x4 PUSH3 0x17C4 JUMP JUMPDEST PUSH3 0x515 JUMP JUMPDEST CALLVALUE DUP1 ISZERO PUSH3 0x151 JUMPI PUSH1 0x0 DUP1 REVERT JUMPDEST POP PUSH3 0xD3 PUSH3 0x163 CALLDATASIZE PUSH1 0x4 PUSH3 0x17EB JUMP JUMPDEST PUSH3 0x56F JUMP JUMPDEST CALLVALUE DUP1 ISZERO PUSH3 0x176 JUMPI PUSH1 0x0 DUP1 REVERT JUMPDEST POP PUSH3 0xD3 PUSH3 0x188 CALLDATASIZE PUSH1 0x4 PUSH3 0x1836 JUMP JUMPDEST PUSH3 0x691 JUMP JUMPDEST PUSH3 0xD3 PUSH3 0x19F CALLDATASIZE PUSH1 0x4 PUSH3 0x17C4 JUMP JUMPDEST PUSH3 0x7E7 JUMP JUMPDEST PUSH3 0xD3 PUSH3 0x1B6 CALLDATASIZE PUSH1 0x4 PUSH3 0x17C4 JUMP JUMPDEST PUSH3 0x1032 JUMP JUMPDEST CALLVALUE DUP1 ISZERO PUSH3 0x1C9 JUMPI PUSH1 0x0 DUP1 REVERT JUMPDEST POP PUSH3 0x1F6 PUSH3 0x1DB CALLDATASIZE PUSH1 0x4 PUSH3 0x17C4 JUMP JUMPDEST PUSH1 0x1 PUSH1 0x1 PUSH1 0xA0 SHL SUB AND PUSH1 0x0 SWAP1 DUP2 MSTORE PUSH1 0x2 PUSH1 0x20 MSTORE PUSH1 0x40 SWAP1 KECCAK256 SLOAD SWAP1 JUMP JUMPDEST PUSH1 0x40 MLOAD SWAP1 DUP2 MSTORE PUSH1 0x20 ADD JUMPDEST PUSH1 0x40 MLOAD DUP1 SWAP2 SUB SWAP1 RETURN JUMPDEST CALLVALUE DUP1 ISZERO PUSH3 0x216 JUMPI PUSH1 0x0 DUP1 REVERT JUMPDEST POP PUSH3 0x22E PUSH3 0x228 CALLDATASIZE PUSH1 0x4 PUSH3 0x192C JUMP JUMPDEST PUSH3 0x10F9 JUMP JUMPDEST PUSH1 0x40 MLOAD PUSH3 0x200 SWAP2 SWAP1 PUSH3 0x1A14 JUMP JUMPDEST PUSH1 0x4 SLOAD PUSH1 0x1 PUSH1 0x1 PUSH1 0xA0 SHL SUB AND CALLER EQ PUSH3 0x273 JUMPI PUSH1 0x40 MLOAD PUSH3 0x461BCD PUSH1 0xE5 SHL DUP2 MSTORE PUSH1 0x4 ADD PUSH3 0x26A SWAP1 PUSH3 0x1A28 JUMP JUMPDEST PUSH1 0x40 MLOAD DUP1 SWAP2 SUB SWAP1 REVERT JUMPDEST PUSH1 0x6 SSTORE JUMP JUMPDEST PUSH1 0x2 PUSH1 0x0 SLOAD EQ ISZERO PUSH3 0x29E JUMPI PUSH1 0x40 MLOAD PUSH3 0x461BCD PUSH1 0xE5 SHL DUP2 MSTORE PUSH1 0x4 ADD PUSH3 0x26A SWAP1 PUSH3 0x1A4E JUMP JUMPDEST PUSH1 0x2 PUSH1 0x0 SSTORE PUSH1 0x4 SLOAD DUP5 SWAP1 PUSH1 0x1 PUSH1 0x1 PUSH1 0xA0 SHL SUB AND CALLER EQ DUP1 PUSH3 0x344 JUMPI POP DUP1 PUSH1 0x1 PUSH1 0x1 PUSH1 0xA0 SHL SUB AND PUSH4 0x8DA5CB5B PUSH1 0x40 MLOAD DUP2 PUSH4 0xFFFFFFFF AND PUSH1 0xE0 SHL DUP2 MSTORE PUSH1 0x4 ADD PUSH1 0x20 PUSH1 0x40 MLOAD DUP1 DUP4 SUB DUP2 DUP7 DUP1 EXTCODESIZE ISZERO DUP1 ISZERO PUSH3 0x2F4 JUMPI PUSH1 0x0 DUP1 REVERT JUMPDEST POP GAS STATICCALL ISZERO DUP1 ISZERO PUSH3 0x309 JUMPI RETURNDATASIZE PUSH1 0x0 DUP1 RETURNDATACOPY RETURNDATASIZE PUSH1 0x0 REVERT JUMPDEST POP POP POP POP PUSH1 0x40 MLOAD RETURNDATASIZE PUSH1 0x1F NOT PUSH1 0x1F DUP3 ADD AND DUP3 ADD DUP1 PUSH1 0x40 MSTORE POP DUP2 ADD SWAP1 PUSH3 0x32F SWAP2 SWAP1 PUSH3 0x1A85 JUMP JUMPDEST PUSH1 0x1 PUSH1 0x1 PUSH1 0xA0 SHL SUB AND CALLER PUSH1 0x1 PUSH1 0x1 PUSH1 0xA0 SHL SUB AND EQ JUMPDEST PUSH3 0x3A3 JUMPI PUSH1 0x40 MLOAD PUSH3 0x461BCD PUSH1 0xE5 SHL DUP2 MSTORE PUSH1 0x20 PUSH1 0x4 DUP3 ADD MSTORE PUSH1 0x28 PUSH1 0x24 DUP3 ADD MSTORE PUSH32 0x596F7520646F206E6F742061646D696E206F662074686973207072696E74696E PUSH1 0x44 DUP3 ADD MSTORE PUSH8 0x3390383932B9B997 PUSH1 0xC1 SHL PUSH1 0x64 DUP3 ADD MSTORE PUSH1 0x84 ADD PUSH3 0x26A JUMP JUMPDEST DUP4 PUSH3 0x3B1 DUP5 PUSH1 0x2 PUSH3 0x1ABB JUMP JUMPDEST PUSH3 0x3BD SWAP2 SWAP1 PUSH3 0x1ABB JUMP JUMPDEST CALLER PUSH1 0x0 SWAP1 DUP2 MSTORE PUSH1 0x2 PUSH1 0x20 MSTORE PUSH1 0x40 SWAP1 KECCAK256 SLOAD LT ISZERO PUSH3 0x41D JUMPI PUSH1 0x40 MLOAD PUSH3 0x461BCD PUSH1 0xE5 SHL DUP2 MSTORE PUSH1 0x20 PUSH1 0x4 DUP3 ADD MSTORE PUSH1 0x1A PUSH1 0x24 DUP3 ADD MSTORE PUSH32 0x4E656564206D6F7265204343206F6E2074686520626F6F6B732E000000000000 PUSH1 0x44 DUP3 ADD MSTORE PUSH1 0x64 ADD PUSH3 0x26A JUMP JUMPDEST PUSH3 0x42C DUP7 DUP3 DUP7 DUP7 DUP7 PUSH3 0x1270 JUMP JUMPDEST CALLER PUSH1 0x0 SWAP1 DUP2 MSTORE PUSH1 0x2 PUSH1 0x20 MSTORE PUSH1 0x40 DUP2 KECCAK256 DUP1 SLOAD DUP6 SWAP3 SWAP1 PUSH3 0x44D SWAP1 DUP5 SWAP1 PUSH3 0x1ADD JUMP JUMPDEST SWAP1 SWAP2 SSTORE POP POP PUSH1 0x1 PUSH1 0x0 SSTORE POP POP POP POP POP POP JUMP JUMPDEST PUSH1 0x5 SLOAD PUSH1 0x40 MLOAD PUSH4 0x23B872DD PUSH1 0xE0 SHL DUP2 MSTORE PUSH1 0x1 PUSH1 0x1 PUSH1 0xA0 SHL SUB SWAP1 SWAP2 AND SWAP1 PUSH4 0x23B872DD SWAP1 PUSH3 0x495 SWAP1 ADDRESS SWAP1 CALLER SWAP1 DUP7 SWAP1 PUSH1 0x4 ADD PUSH3 0x1AF7 JUMP JUMPDEST PUSH1 0x20 PUSH1 0x40 MLOAD DUP1 DUP4 SUB DUP2 PUSH1 0x0 DUP8 DUP1 EXTCODESIZE ISZERO DUP1 ISZERO PUSH3 0x4B0 JUMPI PUSH1 0x0 DUP1 REVERT JUMPDEST POP GAS CALL ISZERO DUP1 ISZERO PUSH3 0x4C5 JUMPI RETURNDATASIZE PUSH1 0x0 DUP1 RETURNDATACOPY RETURNDATASIZE PUSH1 0x0 REVERT JUMPDEST POP POP POP POP PUSH1 0x40 MLOAD RETURNDATASIZE PUSH1 0x1F NOT PUSH1 0x1F DUP3 ADD AND DUP3 ADD DUP1 PUSH1 0x40 MSTORE POP DUP2 ADD SWAP1 PUSH3 0x4EB SWAP2 SWAP1 PUSH3 0x1B1B JUMP JUMPDEST POP CALLER PUSH1 0x0 SWAP1 DUP2 MSTORE PUSH1 0x2 PUSH1 0x20 MSTORE PUSH1 0x40 DUP2 KECCAK256 DUP1 SLOAD DUP4 SWAP3 SWAP1 PUSH3 0x50D SWAP1 DUP5 SWAP1 PUSH3 0x1ADD JUMP JUMPDEST SWAP1 SWAP2 SSTORE POP POP POP JUMP JUMPDEST PUSH1 0x4 SLOAD PUSH1 0x1 PUSH1 0x1 PUSH1 0xA0 SHL SUB AND CALLER EQ DUP1 PUSH3 0x539 JUMPI POP PUSH1 0x3 SLOAD PUSH1 0x1 PUSH1 0x1 PUSH1 0xA0 SHL SUB AND CALLER EQ JUMPDEST PUSH3 0x56C JUMPI PUSH1 0x40 MLOAD PUSH3 0x461BCD PUSH1 0xE5 SHL DUP2 MSTORE PUSH1 0x20 PUSH1 0x4 DUP3 ADD MSTORE PUSH1 0x2 PUSH1 0x24 DUP3 ADD MSTORE PUSH2 0x6E6F PUSH1 0xF0 SHL PUSH1 0x44 DUP3 ADD MSTORE PUSH1 0x64 ADD PUSH3 0x26A JUMP JUMPDEST POP JUMP JUMPDEST PUSH1 0x2 PUSH1 0x0 SLOAD EQ ISZERO PUSH3 0x595 JUMPI PUSH1 0x40 MLOAD PUSH3 0x461BCD PUSH1 0xE5 SHL DUP2 MSTORE PUSH1 0x4 ADD PUSH3 0x26A SWAP1 PUSH3 0x1A4E JUMP JUMPDEST PUSH1 0x2 PUSH1 0x0 SSTORE PUSH1 0x4 SLOAD DUP4 SWAP1 PUSH1 0x1 PUSH1 0x1 PUSH1 0xA0 SHL SUB AND CALLER EQ DUP1 PUSH3 0x63B JUMPI POP DUP1 PUSH1 0x1 PUSH1 0x1 PUSH1 0xA0 SHL SUB AND PUSH4 0x8DA5CB5B PUSH1 0x40 MLOAD DUP2 PUSH4 0xFFFFFFFF AND PUSH1 0xE0 SHL DUP2 MSTORE PUSH1 0x4 ADD PUSH1 0x20 PUSH1 0x40 MLOAD DUP1 DUP4 SUB DUP2 DUP7 DUP1 EXTCODESIZE ISZERO DUP1 ISZERO PUSH3 0x5EB JUMPI PUSH1 0x0 DUP1 REVERT JUMPDEST POP GAS STATICCALL ISZERO DUP1 ISZERO PUSH3 0x600 JUMPI RETURNDATASIZE PUSH1 0x0 DUP1 RETURNDATACOPY RETURNDATASIZE PUSH1 0x0 REVERT JUMPDEST POP POP POP POP PUSH1 0x40 MLOAD RETURNDATASIZE PUSH1 0x1F NOT PUSH1 0x1F DUP3 ADD AND DUP3 ADD DUP1 PUSH1 0x40 MSTORE POP DUP2 ADD SWAP1 PUSH3 0x626 SWAP2 SWAP1 PUSH3 0x1A85 JUMP JUMPDEST PUSH1 0x1 PUSH1 0x1 PUSH1 0xA0 SHL SUB AND CALLER PUSH1 0x1 PUSH1 0x1 PUSH1 0xA0 SHL SUB AND EQ JUMPDEST PUSH3 0x677 JUMPI PUSH1 0x40 MLOAD PUSH3 0x461BCD PUSH1 0xE5 SHL DUP2 MSTORE PUSH1 0x20 PUSH1 0x4 DUP3 ADD MSTORE PUSH1 0xB PUSH1 0x24 DUP3 ADD MSTORE PUSH11 0x20B236B4B71037B7363C97 PUSH1 0xA9 SHL PUSH1 0x44 DUP3 ADD MSTORE PUSH1 0x64 ADD PUSH3 0x26A JUMP JUMPDEST PUSH3 0x685 DUP6 DUP6 DUP6 DUP6 PUSH3 0x12A9 JUMP JUMPDEST POP POP PUSH1 0x1 PUSH1 0x0 SSTORE POP POP POP JUMP JUMPDEST PUSH1 0x5 SLOAD PUSH1 0x40 MLOAD PUSH4 0x13784ABF PUSH1 0xE3 SHL DUP2 MSTORE PUSH1 0x0 SWAP2 PUSH1 0x1 PUSH1 0x1 PUSH1 0xA0 SHL SUB AND SWAP1 PUSH4 0x9BC255F8 SWAP1 PUSH3 0x6C6 SWAP1 CALLER SWAP1 DUP7 SWAP1 PUSH1 0x4 ADD PUSH3 0x1B3B JUMP JUMPDEST PUSH1 0x20 PUSH1 0x40 MLOAD DUP1 DUP4 SUB DUP2 PUSH1 0x0 DUP8 DUP1 EXTCODESIZE ISZERO DUP1 ISZERO PUSH3 0x6E1 JUMPI PUSH1 0x0 DUP1 REVERT JUMPDEST POP GAS CALL ISZERO DUP1 ISZERO PUSH3 0x6F6 JUMPI RETURNDATASIZE PUSH1 0x0 DUP1 RETURNDATACOPY RETURNDATASIZE PUSH1 0x0 REVERT JUMPDEST POP POP POP POP PUSH1 0x40 MLOAD RETURNDATASIZE PUSH1 0x1F NOT PUSH1 0x1F DUP3 ADD AND DUP3 ADD DUP1 PUSH1 0x40 MSTORE POP DUP2 ADD SWAP1 PUSH3 0x71C SWAP2 SWAP1 PUSH3 0x1B54 JUMP JUMPDEST SWAP1 POP PUSH1 0x0 PUSH1 0x5 PUSH1 0x0 SWAP1 SLOAD SWAP1 PUSH2 0x100 EXP SWAP1 DIV PUSH1 0x1 PUSH1 0x1 PUSH1 0xA0 SHL SUB AND PUSH1 0x1 PUSH1 0x1 PUSH1 0xA0 SHL SUB AND PUSH4 0x935418FC DUP4 PUSH1 0x40 MLOAD DUP3 PUSH4 0xFFFFFFFF AND PUSH1 0xE0 SHL DUP2 MSTORE PUSH1 0x4 ADD PUSH1 0x20 PUSH1 0x40 MLOAD DUP1 DUP4 SUB DUP2 DUP6 DUP9 DUP1 EXTCODESIZE ISZERO DUP1 ISZERO PUSH3 0x771 JUMPI PUSH1 0x0 DUP1 REVERT JUMPDEST POP GAS CALL ISZERO DUP1 ISZERO PUSH3 0x786 JUMPI RETURNDATASIZE PUSH1 0x0 DUP1 RETURNDATACOPY RETURNDATASIZE PUSH1 0x0 REVERT JUMPDEST POP POP POP POP POP PUSH1 0x40 MLOAD RETURNDATASIZE PUSH1 0x1F NOT PUSH1 0x1F DUP3 ADD AND DUP3 ADD DUP1 PUSH1 0x40 MSTORE POP DUP2 ADD SWAP1 PUSH3 0x7AD SWAP2 SWAP1 PUSH3 0x1B54 JUMP JUMPDEST PUSH1 0x1 PUSH1 0x1 PUSH1 0xA0 SHL SUB DUP6 AND PUSH1 0x0 SWAP1 DUP2 MSTORE PUSH1 0x2 PUSH1 0x20 MSTORE PUSH1 0x40 DUP2 KECCAK256 DUP1 SLOAD SWAP3 SWAP4 POP DUP4 SWAP3 SWAP1 SWAP2 SWAP1 PUSH3 0x7DC SWAP1 DUP5 SWAP1 PUSH3 0x1B6E JUMP JUMPDEST SWAP1 SWAP2 SSTORE POP POP POP POP POP POP JUMP JUMPDEST PUSH1 0x2 PUSH1 0x0 SLOAD EQ ISZERO PUSH3 0x80D JUMPI PUSH1 0x40 MLOAD PUSH3 0x461BCD PUSH1 0xE5 SHL DUP2 MSTORE PUSH1 0x4 ADD PUSH3 0x26A SWAP1 PUSH3 0x1A4E JUMP JUMPDEST PUSH1 0x2 PUSH1 0x0 DUP2 SWAP1 SSTORE POP PUSH1 0x0 DUP2 SWAP1 POP DUP1 PUSH1 0x1 PUSH1 0x1 PUSH1 0xA0 SHL SUB AND PUSH4 0x24D64CA2 PUSH1 0x40 MLOAD DUP2 PUSH4 0xFFFFFFFF AND PUSH1 0xE0 SHL DUP2 MSTORE PUSH1 0x4 ADD PUSH1 0x20 PUSH1 0x40 MLOAD DUP1 DUP4 SUB DUP2 DUP7 DUP1 EXTCODESIZE ISZERO DUP1 ISZERO PUSH3 0x854 JUMPI PUSH1 0x0 DUP1 REVERT JUMPDEST POP GAS STATICCALL ISZERO DUP1 ISZERO PUSH3 0x869 JUMPI RETURNDATASIZE PUSH1 0x0 DUP1 RETURNDATACOPY RETURNDATASIZE PUSH1 0x0 REVERT JUMPDEST POP POP POP POP PUSH1 0x40 MLOAD RETURNDATASIZE PUSH1 0x1F NOT PUSH1 0x1F DUP3 ADD AND DUP3 ADD DUP1 PUSH1 0x40 MSTORE POP DUP2 ADD SWAP1 PUSH3 0x88F SWAP2 SWAP1 PUSH3 0x1B54 JUMP JUMPDEST DUP2 PUSH1 0x1 PUSH1 0x1 PUSH1 0xA0 SHL SUB AND PUSH4 0x18160DDD PUSH1 0x40 MLOAD DUP2 PUSH4 0xFFFFFFFF AND PUSH1 0xE0 SHL DUP2 MSTORE PUSH1 0x4 ADD PUSH1 0x20 PUSH1 0x40 MLOAD DUP1 DUP4 SUB DUP2 DUP7 DUP1 EXTCODESIZE ISZERO DUP1 ISZERO PUSH3 0x8C9 JUMPI PUSH1 0x0 DUP1 REVERT JUMPDEST POP GAS STATICCALL ISZERO DUP1 ISZERO PUSH3 0x8DE JUMPI RETURNDATASIZE PUSH1 0x0 DUP1 RETURNDATACOPY RETURNDATASIZE PUSH1 0x0 REVERT JUMPDEST POP POP POP POP PUSH1 0x40 MLOAD RETURNDATASIZE PUSH1 0x1F NOT PUSH1 0x1F DUP3 ADD AND DUP3 ADD DUP1 PUSH1 0x40 MSTORE POP DUP2 ADD SWAP1 PUSH3 0x904 SWAP2 SWAP1 PUSH3 0x1B54 JUMP JUMPDEST LT ISZERO PUSH3 0x93F JUMPI PUSH1 0x40 MLOAD PUSH3 0x461BCD PUSH1 0xE5 SHL DUP2 MSTORE PUSH1 0x20 PUSH1 0x4 DUP3 ADD MSTORE PUSH1 0x8 PUSH1 0x24 DUP3 ADD MSTORE PUSH8 0x2737BA103CB2BA17 PUSH1 0xC1 SHL PUSH1 0x44 DUP3 ADD MSTORE PUSH1 0x64 ADD PUSH3 0x26A JUMP JUMPDEST CALLVALUE DUP2 PUSH1 0x1 PUSH1 0x1 PUSH1 0xA0 SHL SUB AND PUSH4 0xB086613C PUSH1 0x40 MLOAD DUP2 PUSH4 0xFFFFFFFF AND PUSH1 0xE0 SHL DUP2 MSTORE PUSH1 0x4 ADD PUSH1 0x20 PUSH1 0x40 MLOAD DUP1 DUP4 SUB DUP2 DUP7 DUP1 EXTCODESIZE ISZERO DUP1 ISZERO PUSH3 0x97A JUMPI PUSH1 0x0 DUP1 REVERT JUMPDEST POP GAS STATICCALL ISZERO DUP1 ISZERO PUSH3 0x98F JUMPI RETURNDATASIZE PUSH1 0x0 DUP1 RETURNDATACOPY RETURNDATASIZE PUSH1 0x0 REVERT JUMPDEST POP POP POP POP PUSH1 0x40 MLOAD RETURNDATASIZE PUSH1 0x1F NOT PUSH1 0x1F DUP3 ADD AND DUP3 ADD DUP1 PUSH1 0x40 MSTORE POP DUP2 ADD SWAP1 PUSH3 0x9B5 SWAP2 SWAP1 PUSH3 0x1B54 JUMP JUMPDEST GT ISZERO PUSH3 0x9ED JUMPI PUSH1 0x40 MLOAD PUSH3 0x461BCD PUSH1 0xE5 SHL DUP2 MSTORE PUSH1 0x20 PUSH1 0x4 DUP3 ADD MSTORE PUSH1 0x5 PUSH1 0x24 DUP3 ADD MSTORE PUSH5 0x26B7B93297 PUSH1 0xD9 SHL PUSH1 0x44 DUP3 ADD MSTORE PUSH1 0x64 ADD PUSH3 0x26A JUMP JUMPDEST PUSH1 0x0 DUP2 PUSH1 0x1 PUSH1 0x1 PUSH1 0xA0 SHL SUB AND PUSH4 0xB086613C PUSH1 0x40 MLOAD DUP2 PUSH4 0xFFFFFFFF AND PUSH1 0xE0 SHL DUP2 MSTORE PUSH1 0x4 ADD PUSH1 0x20 PUSH1 0x40 MLOAD DUP1 DUP4 SUB DUP2 DUP7 DUP1 EXTCODESIZE ISZERO DUP1 ISZERO PUSH3 0xA29 JUMPI PUSH1 0x0 DUP1 REVERT JUMPDEST POP GAS STATICCALL ISZERO DUP1 ISZERO PUSH3 0xA3E JUMPI RETURNDATASIZE PUSH1 0x0 DUP1 RETURNDATACOPY RETURNDATASIZE PUSH1 0x0 REVERT JUMPDEST POP POP POP POP PUSH1 0x40 MLOAD RETURNDATASIZE PUSH1 0x1F NOT PUSH1 0x1F DUP3 ADD AND DUP3 ADD DUP1 PUSH1 0x40 MSTORE POP DUP2 ADD SWAP1 PUSH3 0xA64 SWAP2 SWAP1 PUSH3 0x1B54 JUMP JUMPDEST PUSH3 0xA70 SWAP1 CALLVALUE PUSH3 0x1ADD JUMP JUMPDEST SWAP1 POP PUSH1 0x0 PUSH3 0xA80 DUP3 CALLVALUE PUSH3 0x1ADD JUMP JUMPDEST SWAP1 POP PUSH1 0x0 PUSH1 0x5 PUSH1 0x0 SWAP1 SLOAD SWAP1 PUSH2 0x100 EXP SWAP1 DIV PUSH1 0x1 PUSH1 0x1 PUSH1 0xA0 SHL SUB AND PUSH1 0x1 PUSH1 0x1 PUSH1 0xA0 SHL SUB AND PUSH4 0x935418FC DUP5 PUSH1 0x40 MLOAD DUP3 PUSH4 0xFFFFFFFF AND PUSH1 0xE0 SHL DUP2 MSTORE PUSH1 0x4 ADD PUSH1 0x20 PUSH1 0x40 MLOAD DUP1 DUP4 SUB DUP2 DUP6 DUP9 DUP1 EXTCODESIZE ISZERO DUP1 ISZERO PUSH3 0xAD5 JUMPI PUSH1 0x0 DUP1 REVERT JUMPDEST POP GAS CALL ISZERO DUP1 ISZERO PUSH3 0xAEA JUMPI RETURNDATASIZE PUSH1 0x0 DUP1 RETURNDATACOPY RETURNDATASIZE PUSH1 0x0 REVERT JUMPDEST POP POP POP POP POP PUSH1 0x40 MLOAD RETURNDATASIZE PUSH1 0x1F NOT PUSH1 0x1F DUP3 ADD AND DUP3 ADD DUP1 PUSH1 0x40 MSTORE POP DUP2 ADD SWAP1 PUSH3 0xB11 SWAP2 SWAP1 PUSH3 0x1B54 JUMP JUMPDEST PUSH1 0x5 SLOAD SWAP1 SWAP2 POP PUSH1 0x0 SWAP1 PUSH1 0x1 PUSH1 0x1 PUSH1 0xA0 SHL SUB AND PUSH4 0x935418FC PUSH3 0xB34 DUP7 CALLVALUE PUSH3 0x1ADD JUMP JUMPDEST PUSH1 0x40 MLOAD DUP3 PUSH4 0xFFFFFFFF AND PUSH1 0xE0 SHL DUP2 MSTORE PUSH1 0x4 ADD PUSH1 0x20 PUSH1 0x40 MLOAD DUP1 DUP4 SUB DUP2 DUP6 DUP9 DUP1 EXTCODESIZE ISZERO DUP1 ISZERO PUSH3 0xB60 JUMPI PUSH1 0x0 DUP1 REVERT JUMPDEST POP GAS CALL ISZERO DUP1 ISZERO PUSH3 0xB75 JUMPI RETURNDATASIZE PUSH1 0x0 DUP1 RETURNDATACOPY RETURNDATASIZE PUSH1 0x0 REVERT JUMPDEST POP POP POP POP POP PUSH1 0x40 MLOAD RETURNDATASIZE PUSH1 0x1F NOT PUSH1 0x1F DUP3 ADD AND DUP3 ADD DUP1 PUSH1 0x40 MSTORE POP DUP2 ADD SWAP1 PUSH3 0xB9C SWAP2 SWAP1 PUSH3 0x1B54 JUMP JUMPDEST SWAP1 POP PUSH1 0x0 PUSH1 0x64 PUSH1 0x6 SLOAD DUP4 PUSH3 0xBB2 SWAP2 SWAP1 PUSH3 0x1ABB JUMP JUMPDEST PUSH3 0xBBE SWAP2 SWAP1 PUSH3 0x1B89 JUMP JUMPDEST SWAP1 POP PUSH3 0xBCC DUP2 DUP4 PUSH3 0x1ADD JUMP JUMPDEST PUSH1 0x2 PUSH1 0x0 DUP9 PUSH1 0x1 PUSH1 0x1 PUSH1 0xA0 SHL SUB AND PUSH4 0x8DA5CB5B PUSH1 0x40 MLOAD DUP2 PUSH4 0xFFFFFFFF AND PUSH1 0xE0 SHL DUP2 MSTORE PUSH1 0x4 ADD PUSH1 0x20 PUSH1 0x40 MLOAD DUP1 DUP4 SUB DUP2 DUP7 DUP1 EXTCODESIZE ISZERO DUP1 ISZERO PUSH3 0xC0A JUMPI PUSH1 0x0 DUP1 REVERT JUMPDEST POP GAS STATICCALL ISZERO DUP1 ISZERO PUSH3 0xC1F JUMPI RETURNDATASIZE PUSH1 0x0 DUP1 RETURNDATACOPY RETURNDATASIZE PUSH1 0x0 REVERT JUMPDEST POP POP POP POP PUSH1 0x40 MLOAD RETURNDATASIZE PUSH1 0x1F NOT PUSH1 0x1F DUP3 ADD AND DUP3 ADD DUP1 PUSH1 0x40 MSTORE POP DUP2 ADD SWAP1 PUSH3 0xC45 SWAP2 SWAP1 PUSH3 0x1A85 JUMP JUMPDEST PUSH1 0x1 PUSH1 0x1 PUSH1 0xA0 SHL SUB AND PUSH1 0x1 PUSH1 0x1 PUSH1 0xA0 SHL SUB AND DUP2 MSTORE PUSH1 0x20 ADD SWAP1 DUP2 MSTORE PUSH1 0x20 ADD PUSH1 0x0 KECCAK256 PUSH1 0x0 DUP3 DUP3 SLOAD PUSH3 0xC76 SWAP2 SWAP1 PUSH3 0x1B6E JUMP JUMPDEST SWAP1 SWAP2 SSTORE POP POP PUSH1 0x4 SLOAD PUSH1 0x1 PUSH1 0x1 PUSH1 0xA0 SHL SUB AND PUSH1 0x0 SWAP1 DUP2 MSTORE PUSH1 0x2 PUSH1 0x20 MSTORE PUSH1 0x40 DUP2 KECCAK256 DUP1 SLOAD DUP4 SWAP3 SWAP1 PUSH3 0xCA7 SWAP1 DUP5 SWAP1 PUSH3 0x1B6E JUMP JUMPDEST SWAP1 SWAP2 SSTORE POP POP CALLER PUSH1 0x0 SWAP1 DUP2 MSTORE PUSH1 0x2 PUSH1 0x20 MSTORE PUSH1 0x40 DUP2 KECCAK256 DUP1 SLOAD DUP6 SWAP3 SWAP1 PUSH3 0xCCD SWAP1 DUP5 SWAP1 PUSH3 0x1B6E JUMP JUMPDEST SWAP1 SWAP2 SSTORE POP POP PUSH1 0x40 MLOAD PUSH4 0x3036004B PUSH1 0xE2 SHL DUP2 MSTORE PUSH1 0x0 PUSH1 0x4 DUP3 ADD DUP2 SWAP1 MSTORE SWAP1 PUSH1 0x1 PUSH1 0x1 PUSH1 0xA0 SHL SUB DUP9 AND SWAP1 PUSH4 0xC0D8012C SWAP1 PUSH1 0x24 ADD PUSH1 0x40 DUP1 MLOAD DUP1 DUP4 SUB DUP2 DUP7 DUP1 EXTCODESIZE ISZERO DUP1 ISZERO PUSH3 0xD15 JUMPI PUSH1 0x0 DUP1 REVERT JUMPDEST POP GAS STATICCALL ISZERO DUP1 ISZERO PUSH3 0xD2A JUMPI RETURNDATASIZE PUSH1 0x0 DUP1 RETURNDATACOPY RETURNDATASIZE PUSH1 0x0 REVERT JUMPDEST POP POP POP POP PUSH1 0x40 MLOAD RETURNDATASIZE PUSH1 0x1F NOT PUSH1 0x1F DUP3 ADD AND DUP3 ADD DUP1 PUSH1 0x40 MSTORE POP DUP2 ADD SWAP1 PUSH3 0xD50 SWAP2 SWAP1 PUSH3 0x1BAC JUMP JUMPDEST POP SWAP1 POP PUSH1 0x1 PUSH1 0x1 PUSH1 0xA0 SHL SUB DUP2 AND ISZERO PUSH3 0xD8F JUMPI PUSH3 0xD89 ADDRESS DUP10 PUSH3 0xD76 PUSH1 0x2 DUP9 PUSH3 0x1B89 JUMP JUMPDEST PUSH3 0xD83 PUSH1 0x4 DUP10 PUSH3 0x1B89 JUMP JUMPDEST PUSH3 0x12A9 JUMP JUMPDEST PUSH3 0xF49 JUMP JUMPDEST PUSH1 0x40 MLOAD PUSH4 0xA795E193 PUSH1 0xE0 SHL DUP2 MSTORE PUSH1 0x0 SWAP1 PUSH1 0x1 PUSH1 0x1 PUSH1 0xA0 SHL SUB DUP10 AND SWAP1 PUSH4 0xA795E193 SWAP1 PUSH3 0xDC0 SWAP1 ADDRESS SWAP1 PUSH1 0x4 ADD PUSH3 0x1A14 JUMP JUMPDEST PUSH1 0x20 PUSH1 0x40 MLOAD DUP1 DUP4 SUB DUP2 PUSH1 0x0 DUP8 DUP1 EXTCODESIZE ISZERO DUP1 ISZERO PUSH3 0xDDB JUMPI PUSH1 0x0 DUP1 REVERT JUMPDEST POP GAS CALL ISZERO DUP1 ISZERO PUSH3 0xDF0 JUMPI RETURNDATASIZE PUSH1 0x0 DUP1 RETURNDATACOPY RETURNDATASIZE PUSH1 0x0 REVERT JUMPDEST POP POP POP POP PUSH1 0x40 MLOAD RETURNDATASIZE PUSH1 0x1F NOT PUSH1 0x1F DUP3 ADD AND DUP3 ADD DUP1 PUSH1 0x40 MSTORE POP DUP2 ADD SWAP1 PUSH3 0xE16 SWAP2 SWAP1 PUSH3 0x1B54 JUMP JUMPDEST PUSH1 0x5 SLOAD PUSH1 0x40 MLOAD PUSH4 0x95EA7B3 PUSH1 0xE0 SHL DUP2 MSTORE SWAP2 SWAP3 POP PUSH1 0x1 PUSH1 0x1 PUSH1 0xA0 SHL SUB AND SWAP1 PUSH4 0x95EA7B3 SWAP1 PUSH3 0xE4B SWAP1 DUP12 SWAP1 DUP10 SWAP1 PUSH1 0x4 ADD PUSH3 0x1B3B JUMP JUMPDEST PUSH1 0x20 PUSH1 0x40 MLOAD DUP1 DUP4 SUB DUP2 PUSH1 0x0 DUP8 DUP1 EXTCODESIZE ISZERO DUP1 ISZERO PUSH3 0xE66 JUMPI PUSH1 0x0 DUP1 REVERT JUMPDEST POP GAS CALL ISZERO DUP1 ISZERO PUSH3 0xE7B JUMPI RETURNDATASIZE PUSH1 0x0 DUP1 RETURNDATACOPY RETURNDATASIZE PUSH1 0x0 REVERT JUMPDEST POP POP POP POP PUSH1 0x40 MLOAD RETURNDATASIZE PUSH1 0x1F NOT PUSH1 0x1F DUP3 ADD AND DUP3 ADD DUP1 PUSH1 0x40 MSTORE POP DUP2 ADD SWAP1 PUSH3 0xEA1 SWAP2 SWAP1 PUSH3 0x1B1B JUMP JUMPDEST POP PUSH1 0x1 PUSH1 0x1 PUSH1 0xA0 SHL SUB DUP9 AND PUSH4 0x1B64AB59 DUP3 DUP8 PUSH3 0xEC0 PUSH1 0x2 DUP3 PUSH3 0x1B89 JUMP JUMPDEST PUSH1 0x40 MLOAD PUSH1 0x1 PUSH1 0x1 PUSH1 0xE0 SHL SUB NOT PUSH1 0xE0 DUP7 SWAP1 SHL AND DUP2 MSTORE PUSH1 0x4 DUP2 ADD SWAP4 SWAP1 SWAP4 MSTORE PUSH1 0x24 DUP4 ADD SWAP2 SWAP1 SWAP2 MSTORE PUSH1 0x44 DUP3 ADD MSTORE PUSH1 0x64 ADD PUSH1 0x0 PUSH1 0x40 MLOAD DUP1 DUP4 SUB DUP2 PUSH1 0x0 DUP8 DUP1 EXTCODESIZE ISZERO DUP1 ISZERO PUSH3 0xF07 JUMPI PUSH1 0x0 DUP1 REVERT JUMPDEST POP GAS CALL ISZERO DUP1 ISZERO PUSH3 0xF1C JUMPI RETURNDATASIZE PUSH1 0x0 DUP1 RETURNDATACOPY RETURNDATASIZE PUSH1 0x0 REVERT JUMPDEST POP POP CALLER PUSH1 0x0 SWAP1 DUP2 MSTORE PUSH1 0x2 PUSH1 0x20 MSTORE PUSH1 0x40 DUP2 KECCAK256 DUP1 SLOAD DUP10 SWAP5 POP SWAP1 SWAP3 POP PUSH3 0xF42 SWAP1 DUP5 SWAP1 PUSH3 0x1ADD JUMP JUMPDEST SWAP1 SWAP2 SSTORE POP POP POP JUMPDEST DUP7 PUSH1 0x1 PUSH1 0x1 PUSH1 0xA0 SHL SUB AND PUSH4 0xC43E92B1 ADDRESS CALLER DUP11 PUSH1 0x1 PUSH1 0x1 PUSH1 0xA0 SHL SUB AND PUSH4 0x18160DDD PUSH1 0x40 MLOAD DUP2 PUSH4 0xFFFFFFFF AND PUSH1 0xE0 SHL DUP2 MSTORE PUSH1 0x4 ADD PUSH1 0x20 PUSH1 0x40 MLOAD DUP1 DUP4 SUB DUP2 DUP7 DUP1 EXTCODESIZE ISZERO DUP1 ISZERO PUSH3 0xF94 JUMPI PUSH1 0x0 DUP1 REVERT JUMPDEST POP GAS STATICCALL ISZERO DUP1 ISZERO PUSH3 0xFA9 JUMPI RETURNDATASIZE PUSH1 0x0 DUP1 RETURNDATACOPY RETURNDATASIZE PUSH1 0x0 REVERT JUMPDEST POP POP POP POP PUSH1 0x40 MLOAD RETURNDATASIZE PUSH1 0x1F NOT PUSH1 0x1F DUP3 ADD AND DUP3 ADD DUP1 PUSH1 0x40 MSTORE POP DUP2 ADD SWAP1 PUSH3 0xFCF SWAP2 SWAP1 PUSH3 0x1B54 JUMP JUMPDEST PUSH1 0x40 MLOAD DUP5 PUSH4 0xFFFFFFFF AND PUSH1 0xE0 SHL DUP2 MSTORE PUSH1 0x4 ADD PUSH3 0xFEF SWAP4 SWAP3 SWAP2 SWAP1 PUSH3 0x1AF7 JUMP JUMPDEST PUSH1 0x0 PUSH1 0x40 MLOAD DUP1 DUP4 SUB DUP2 PUSH1 0x0 DUP8 DUP1 EXTCODESIZE ISZERO DUP1 ISZERO PUSH3 0x100A JUMPI PUSH1 0x0 DUP1 REVERT JUMPDEST POP GAS CALL ISZERO DUP1 ISZERO PUSH3 0x101F JUMPI RETURNDATASIZE PUSH1 0x0 DUP1 RETURNDATACOPY RETURNDATASIZE PUSH1 0x0 REVERT JUMPDEST POP POP PUSH1 0x1 PUSH1 0x0 SSTORE POP POP POP POP POP POP POP POP POP POP JUMP JUMPDEST PUSH1 0x0 PUSH1 0x5 PUSH1 0x0 SWAP1 SLOAD SWAP1 PUSH2 0x100 EXP SWAP1 DIV PUSH1 0x1 PUSH1 0x1 PUSH1 0xA0 SHL SUB AND PUSH1 0x1 PUSH1 0x1 PUSH1 0xA0 SHL SUB AND PUSH4 0x935418FC CALLVALUE PUSH1 0x40 MLOAD DUP3 PUSH4 0xFFFFFFFF AND PUSH1 0xE0 SHL DUP2 MSTORE PUSH1 0x4 ADD PUSH1 0x20 PUSH1 0x40 MLOAD DUP1 DUP4 SUB DUP2 DUP6 DUP9 DUP1 EXTCODESIZE ISZERO DUP1 ISZERO PUSH3 0x1085 JUMPI PUSH1 0x0 DUP1 REVERT JUMPDEST POP GAS CALL ISZERO DUP1 ISZERO PUSH3 0x109A JUMPI RETURNDATASIZE PUSH1 0x0 DUP1 RETURNDATACOPY RETURNDATASIZE PUSH1 0x0 REVERT JUMPDEST POP POP POP POP POP PUSH1 0x40 MLOAD RETURNDATASIZE PUSH1 0x1F NOT PUSH1 0x1F DUP3 ADD AND DUP3 ADD DUP1 PUSH1 0x40 MSTORE POP DUP2 ADD SWAP1 PUSH3 0x10C1 SWAP2 SWAP1 PUSH3 0x1B54 JUMP JUMPDEST PUSH1 0x1 PUSH1 0x1 PUSH1 0xA0 SHL SUB DUP4 AND PUSH1 0x0 SWAP1 DUP2 MSTORE PUSH1 0x2 PUSH1 0x20 MSTORE PUSH1 0x40 DUP2 KECCAK256 DUP1 SLOAD SWAP3 SWAP4 POP DUP4 SWAP3 SWAP1 SWAP2 SWAP1 PUSH3 0x10F0 SWAP1 DUP5 SWAP1 PUSH3 0x1B6E JUMP JUMPDEST SWAP1 SWAP2 SSTORE POP POP POP POP JUMP JUMPDEST PUSH1 0x4 SLOAD PUSH1 0x0 SWAP1 PUSH1 0x1 PUSH1 0x1 PUSH1 0xA0 SHL SUB AND CALLER EQ DUP1 PUSH3 0x1123 JUMPI POP PUSH1 0x4 SLOAD PUSH1 0x1 PUSH1 0x1 PUSH1 0xA0 SHL SUB DUP4 DUP2 AND SWAP2 AND EQ JUMPDEST PUSH3 0x1142 JUMPI PUSH1 0x40 MLOAD PUSH3 0x461BCD PUSH1 0xE5 SHL DUP2 MSTORE PUSH1 0x4 ADD PUSH3 0x26A SWAP1 PUSH3 0x1A28 JUMP JUMPDEST PUSH1 0x0 DUP11 DUP11 DUP11 DUP11 DUP11 DUP11 DUP11 DUP11 PUSH1 0x5 PUSH1 0x0 SWAP1 SLOAD SWAP1 PUSH2 0x100 EXP SWAP1 DIV PUSH1 0x1 PUSH1 0x1 PUSH1 0xA0 SHL SUB AND PUSH1 0x4 PUSH1 0x0 SWAP1 SLOAD SWAP1 PUSH2 0x100 EXP SWAP1 DIV PUSH1 0x1 PUSH1 0x1 PUSH1 0xA0 SHL SUB AND PUSH1 0x40 MLOAD PUSH3 0x1186 SWAP1 PUSH3 0x171E JUMP JUMPDEST PUSH3 0x119B SWAP11 SWAP10 SWAP9 SWAP8 SWAP7 SWAP6 SWAP5 SWAP4 SWAP3 SWAP2 SWAP1 PUSH3 0x1C2D JUMP JUMPDEST PUSH1 0x40 MLOAD DUP1 SWAP2 SUB SWAP1 PUSH1 0x0 CREATE DUP1 ISZERO DUP1 ISZERO PUSH3 0x11B8 JUMPI RETURNDATASIZE PUSH1 0x0 DUP1 RETURNDATACOPY RETURNDATASIZE PUSH1 0x0 REVERT JUMPDEST POP PUSH1 0x40 MLOAD PUSH4 0xF2FDE38B PUSH1 0xE0 SHL DUP2 MSTORE SWAP1 SWAP2 POP PUSH1 0x1 PUSH1 0x1 PUSH1 0xA0 SHL SUB DUP3 AND SWAP1 PUSH4 0xF2FDE38B SWAP1 PUSH3 0x11EA SWAP1 DUP7 SWAP1 PUSH1 0x4 ADD PUSH3 0x1A14 JUMP JUMPDEST PUSH1 0x0 PUSH1 0x40 MLOAD DUP1 DUP4 SUB DUP2 PUSH1 0x0 DUP8 DUP1 EXTCODESIZE ISZERO DUP1 ISZERO PUSH3 0x1205 JUMPI PUSH1 0x0 DUP1 REVERT JUMPDEST POP GAS CALL ISZERO DUP1 ISZERO PUSH3 0x121A JUMPI RETURNDATASIZE PUSH1 0x0 DUP1 RETURNDATACOPY RETURNDATASIZE PUSH1 0x0 REVERT JUMPDEST POP POP PUSH1 0x40 DUP1 MLOAD PUSH1 0x1 PUSH1 0x1 PUSH1 0xA0 SHL SUB DUP1 DUP9 AND DUP3 MSTORE DUP6 AND PUSH1 0x20 DUP3 ADD MSTORE PUSH32 0xCFC38F0D51CE64DDBBA3AE402FD807D884F2462F2C03581E4B073561B113F443 SWAP4 POP ADD SWAP1 POP PUSH1 0x40 MLOAD DUP1 SWAP2 SUB SWAP1 LOG1 SWAP11 SWAP10 POP POP POP POP POP POP POP POP POP POP JUMP JUMPDEST DUP4 PUSH1 0x0 JUMPDEST DUP5 DUP2 LT ISZERO PUSH3 0x12A0 JUMPI PUSH3 0x128B DUP8 DUP8 DUP7 DUP7 PUSH3 0x12A9 JUMP JUMPDEST DUP1 PUSH3 0x1297 DUP2 PUSH3 0x1CBC JUMP JUMPDEST SWAP2 POP POP PUSH3 0x1274 JUMP JUMPDEST POP POP POP POP POP POP POP JUMP JUMPDEST PUSH1 0x40 MLOAD PUSH4 0x3036004B PUSH1 0xE2 SHL DUP2 MSTORE PUSH1 0x0 PUSH1 0x4 DUP3 ADD DUP2 SWAP1 MSTORE DUP5 SWAP2 PUSH1 0x1 PUSH1 0x1 PUSH1 0xA0 SHL SUB DUP4 AND SWAP1 PUSH4 0xC0D8012C SWAP1 PUSH1 0x24 ADD PUSH1 0x40 DUP1 MLOAD DUP1 DUP4 SUB DUP2 DUP7 DUP1 EXTCODESIZE ISZERO DUP1 ISZERO PUSH3 0x12ED JUMPI PUSH1 0x0 DUP1 REVERT JUMPDEST POP GAS STATICCALL ISZERO DUP1 ISZERO PUSH3 0x1302 JUMPI RETURNDATASIZE PUSH1 0x0 DUP1 RETURNDATACOPY RETURNDATASIZE PUSH1 0x0 REVERT JUMPDEST POP POP POP POP PUSH1 0x40 MLOAD RETURNDATASIZE PUSH1 0x1F NOT PUSH1 0x1F DUP3 ADD AND DUP3 ADD DUP1 PUSH1 0x40 MSTORE POP DUP2 ADD SWAP1 PUSH3 0x1328 SWAP2 SWAP1 PUSH3 0x1BAC JUMP JUMPDEST POP PUSH1 0x40 MLOAD PUSH4 0xA795E193 PUSH1 0xE0 SHL DUP2 MSTORE SWAP1 SWAP2 POP DUP2 SWAP1 PUSH1 0x0 SWAP1 PUSH1 0x1 PUSH1 0x1 PUSH1 0xA0 SHL SUB DUP4 AND SWAP1 PUSH4 0xA795E193 SWAP1 PUSH3 0x135F SWAP1 DUP12 SWAP1 PUSH1 0x4 ADD PUSH3 0x1A14 JUMP JUMPDEST PUSH1 0x20 PUSH1 0x40 MLOAD DUP1 DUP4 SUB DUP2 PUSH1 0x0 DUP8 DUP1 EXTCODESIZE ISZERO DUP1 ISZERO PUSH3 0x137A JUMPI PUSH1 0x0 DUP1 REVERT JUMPDEST POP GAS CALL ISZERO DUP1 ISZERO PUSH3 0x138F JUMPI RETURNDATASIZE PUSH1 0x0 DUP1 RETURNDATACOPY RETURNDATASIZE PUSH1 0x0 REVERT JUMPDEST POP POP POP POP PUSH1 0x40 MLOAD RETURNDATASIZE PUSH1 0x1F NOT PUSH1 0x1F DUP3 ADD AND DUP3 ADD DUP1 PUSH1 0x40 MSTORE POP DUP2 ADD SWAP1 PUSH3 0x13B5 SWAP2 SWAP1 PUSH3 0x1B54 JUMP JUMPDEST SWAP1 POP PUSH1 0x0 DUP5 PUSH1 0x1 PUSH1 0x1 PUSH1 0xA0 SHL SUB AND PUSH4 0xA795E193 DUP11 PUSH1 0x40 MLOAD DUP3 PUSH4 0xFFFFFFFF AND PUSH1 0xE0 SHL DUP2 MSTORE PUSH1 0x4 ADD PUSH3 0x13E7 SWAP2 SWAP1 PUSH3 0x1A14 JUMP JUMPDEST PUSH1 0x20 PUSH1 0x40 MLOAD DUP1 DUP4 SUB DUP2 PUSH1 0x0 DUP8 DUP1 EXTCODESIZE ISZERO DUP1 ISZERO PUSH3 0x1402 JUMPI PUSH1 0x0 DUP1 REVERT JUMPDEST POP GAS CALL ISZERO DUP1 ISZERO PUSH3 0x1417 JUMPI RETURNDATASIZE PUSH1 0x0 DUP1 RETURNDATACOPY RETURNDATASIZE PUSH1 0x0 REVERT JUMPDEST POP POP POP POP PUSH1 0x40 MLOAD RETURNDATASIZE PUSH1 0x1F NOT PUSH1 0x1F DUP3 ADD AND DUP3 ADD DUP1 PUSH1 0x40 MSTORE POP DUP2 ADD SWAP1 PUSH3 0x143D SWAP2 SWAP1 PUSH3 0x1B54 JUMP JUMPDEST PUSH1 0x40 MLOAD PUSH4 0x4D57CA4F PUSH1 0xE0 SHL DUP2 MSTORE PUSH1 0x4 DUP2 ADD DUP3 SWAP1 MSTORE PUSH1 0x24 DUP2 ADD DUP5 SWAP1 MSTORE SWAP1 SWAP2 POP PUSH1 0x1 PUSH1 0x1 PUSH1 0xA0 SHL SUB DUP7 AND SWAP1 PUSH4 0x4D57CA4F SWAP1 PUSH1 0x44 ADD PUSH1 0x0 PUSH1 0x40 MLOAD DUP1 DUP4 SUB DUP2 PUSH1 0x0 DUP8 DUP1 EXTCODESIZE ISZERO DUP1 ISZERO PUSH3 0x148A JUMPI PUSH1 0x0 DUP1 REVERT JUMPDEST POP GAS CALL ISZERO DUP1 ISZERO PUSH3 0x149F JUMPI RETURNDATASIZE PUSH1 0x0 DUP1 RETURNDATACOPY RETURNDATASIZE PUSH1 0x0 REVERT JUMPDEST POP POP PUSH1 0x5 SLOAD PUSH1 0x40 MLOAD PUSH4 0x95EA7B3 PUSH1 0xE0 SHL DUP2 MSTORE PUSH1 0x1 PUSH1 0x1 PUSH1 0xA0 SHL SUB SWAP1 SWAP2 AND SWAP3 POP DUP3 SWAP2 POP PUSH4 0x95EA7B3 SWAP1 PUSH3 0x14D9 SWAP1 DUP10 SWAP1 DUP13 SWAP1 PUSH1 0x4 ADD PUSH3 0x1B3B JUMP JUMPDEST PUSH1 0x20 PUSH1 0x40 MLOAD DUP1 DUP4 SUB DUP2 PUSH1 0x0 DUP8 DUP1 EXTCODESIZE ISZERO DUP1 ISZERO PUSH3 0x14F4 JUMPI PUSH1 0x0 DUP1 REVERT JUMPDEST POP GAS CALL ISZERO DUP1 ISZERO PUSH3 0x1509 JUMPI RETURNDATASIZE PUSH1 0x0 DUP1 RETURNDATACOPY RETURNDATASIZE PUSH1 0x0 REVERT JUMPDEST POP POP POP POP PUSH1 0x40 MLOAD RETURNDATASIZE PUSH1 0x1F NOT PUSH1 0x1F DUP3 ADD AND DUP3 ADD DUP1 PUSH1 0x40 MSTORE POP DUP2 ADD SWAP1 PUSH3 0x152F SWAP2 SWAP1 PUSH3 0x1B1B JUMP JUMPDEST POP PUSH1 0x40 MLOAD PUSH4 0x95EA7B3 PUSH1 0xE0 SHL DUP2 MSTORE PUSH1 0x1 PUSH1 0x1 PUSH1 0xA0 SHL SUB DUP3 AND SWAP1 PUSH4 0x95EA7B3 SWAP1 PUSH3 0x1560 SWAP1 DUP8 SWAP1 DUP13 SWAP1 PUSH1 0x4 ADD PUSH3 0x1B3B JUMP JUMPDEST PUSH1 0x20 PUSH1 0x40 MLOAD DUP1 DUP4 SUB DUP2 PUSH1 0x0 DUP8 DUP1 EXTCODESIZE ISZERO DUP1 ISZERO PUSH3 0x157B JUMPI PUSH1 0x0 DUP1 REVERT JUMPDEST POP GAS CALL ISZERO DUP1 ISZERO PUSH3 0x1590 JUMPI RETURNDATASIZE PUSH1 0x0 DUP1 RETURNDATACOPY RETURNDATASIZE PUSH1 0x0 REVERT JUMPDEST POP POP POP POP PUSH1 0x40 MLOAD RETURNDATASIZE PUSH1 0x1F NOT PUSH1 0x1F DUP3 ADD AND DUP3 ADD DUP1 PUSH1 0x40 MSTORE POP DUP2 ADD SWAP1 PUSH3 0x15B6 SWAP2 SWAP1 PUSH3 0x1B1B JUMP JUMPDEST POP PUSH1 0x40 MLOAD PUSH4 0x1B64AB59 PUSH1 0xE0 SHL DUP2 MSTORE PUSH1 0x4 DUP2 ADD DUP4 SWAP1 MSTORE PUSH1 0x24 DUP2 ADD DUP10 SWAP1 MSTORE PUSH1 0x44 DUP2 ADD DUP9 SWAP1 MSTORE PUSH1 0x1 PUSH1 0x1 PUSH1 0xA0 SHL SUB DUP8 AND SWAP1 PUSH4 0x1B64AB59 SWAP1 PUSH1 0x64 ADD PUSH1 0x0 PUSH1 0x40 MLOAD DUP1 DUP4 SUB DUP2 PUSH1 0x0 DUP8 DUP1 EXTCODESIZE ISZERO DUP1 ISZERO PUSH3 0x1608 JUMPI PUSH1 0x0 DUP1 REVERT JUMPDEST POP GAS CALL ISZERO DUP1 ISZERO PUSH3 0x161D JUMPI RETURNDATASIZE PUSH1 0x0 DUP1 RETURNDATACOPY RETURNDATASIZE PUSH1 0x0 REVERT JUMPDEST POP POP PUSH1 0x40 MLOAD PUSH4 0x1B64AB59 PUSH1 0xE0 SHL DUP2 MSTORE PUSH1 0x4 DUP2 ADD DUP7 SWAP1 MSTORE PUSH1 0x24 DUP2 ADD DUP12 SWAP1 MSTORE PUSH1 0x44 DUP2 ADD DUP11 SWAP1 MSTORE PUSH1 0x1 PUSH1 0x1 PUSH1 0xA0 SHL SUB DUP8 AND SWAP3 POP PUSH4 0x1B64AB59 SWAP2 POP PUSH1 0x64 ADD PUSH1 0x0 PUSH1 0x40 MLOAD DUP1 DUP4 SUB DUP2 PUSH1 0x0 DUP8 DUP1 EXTCODESIZE ISZERO DUP1 ISZERO PUSH3 0x1672 JUMPI PUSH1 0x0 DUP1 REVERT JUMPDEST POP GAS CALL ISZERO DUP1 ISZERO PUSH3 0x1687 JUMPI RETURNDATASIZE PUSH1 0x0 DUP1 RETURNDATACOPY RETURNDATASIZE PUSH1 0x0 REVERT JUMPDEST POP POP POP POP DUP8 PUSH1 0x2 PUSH3 0x169A SWAP2 SWAP1 PUSH3 0x1ABB JUMP JUMPDEST CALLER PUSH1 0x0 SWAP1 DUP2 MSTORE PUSH1 0x2 PUSH1 0x20 MSTORE PUSH1 0x40 DUP2 KECCAK256 DUP1 SLOAD SWAP1 SWAP2 SWAP1 PUSH3 0x16BB SWAP1 DUP5 SWAP1 PUSH3 0x1ADD JUMP JUMPDEST SWAP1 SWAP2 SSTORE POP POP PUSH1 0x40 DUP1 MLOAD PUSH1 0x1 PUSH1 0x1 PUSH1 0xA0 SHL SUB DUP1 DUP10 AND DUP3 MSTORE DUP7 AND PUSH1 0x20 DUP3 ADD MSTORE SWAP1 DUP2 ADD DUP4 SWAP1 MSTORE PUSH1 0x60 DUP2 ADD DUP5 SWAP1 MSTORE PUSH32 0x99643A3174360B2AF868FD8FB24BEA8A18B5E8242309ACAD5E4E279B11F3CDDA SWAP1 PUSH1 0x80 ADD PUSH1 0x40 MLOAD DUP1 SWAP2 SUB SWAP1 LOG1 POP POP POP POP POP POP POP POP POP POP JUMP JUMPDEST PUSH2 0x4109 DUP1 PUSH3 0x1CDB DUP4 CODECOPY ADD SWAP1 JUMP JUMPDEST PUSH1 0x0 PUSH1 0x20 DUP3 DUP5 SUB SLT ISZERO PUSH3 0x173F JUMPI PUSH1 0x0 DUP1 REVERT JUMPDEST POP CALLDATALOAD SWAP2 SWAP1 POP JUMP JUMPDEST PUSH1 0x1 PUSH1 0x1 PUSH1 0xA0 SHL SUB DUP2 AND DUP2 EQ PUSH3 0x56C JUMPI PUSH1 0x0 DUP1 REVERT JUMPDEST DUP1 CALLDATALOAD PUSH3 0x1769 DUP2 PUSH3 0x1746 JUMP JUMPDEST SWAP2 SWAP1 POP JUMP JUMPDEST PUSH1 0x0 DUP1 PUSH1 0x0 DUP1 PUSH1 0x0 PUSH1 0xA0 DUP7 DUP9 SUB SLT ISZERO PUSH3 0x1787 JUMPI PUSH1 0x0 DUP1 REVERT JUMPDEST DUP6 CALLDATALOAD PUSH3 0x1794 DUP2 PUSH3 0x1746 JUMP JUMPDEST SWAP5 POP PUSH1 0x20 DUP7 ADD CALLDATALOAD PUSH3 0x17A6 DUP2 PUSH3 0x1746 JUMP JUMPDEST SWAP5 SWAP8 SWAP5 SWAP7 POP POP POP POP PUSH1 0x40 DUP4 ADD CALLDATALOAD SWAP3 PUSH1 0x60 DUP2 ADD CALLDATALOAD SWAP3 PUSH1 0x80 SWAP1 SWAP2 ADD CALLDATALOAD SWAP2 POP JUMP JUMPDEST PUSH1 0x0 PUSH1 0x20 DUP3 DUP5 SUB SLT ISZERO PUSH3 0x17D7 JUMPI PUSH1 0x0 DUP1 REVERT JUMPDEST DUP2 CALLDATALOAD PUSH3 0x17E4 DUP2 PUSH3 0x1746 JUMP JUMPDEST SWAP4 SWAP3 POP POP POP JUMP JUMPDEST PUSH1 0x0 DUP1 PUSH1 0x0 DUP1 PUSH1 0x80 DUP6 DUP8 SUB SLT ISZERO PUSH3 0x1802 JUMPI PUSH1 0x0 DUP1 REVERT JUMPDEST DUP5 CALLDATALOAD PUSH3 0x180F DUP2 PUSH3 0x1746 JUMP JUMPDEST SWAP4 POP PUSH1 0x20 DUP6 ADD CALLDATALOAD PUSH3 0x1821 DUP2 PUSH3 0x1746 JUMP JUMPDEST SWAP4 SWAP7 SWAP4 SWAP6 POP POP POP POP PUSH1 0x40 DUP3 ADD CALLDATALOAD SWAP2 PUSH1 0x60 ADD CALLDATALOAD SWAP1 JUMP JUMPDEST PUSH1 0x0 DUP1 PUSH1 0x40 DUP4 DUP6 SUB SLT ISZERO PUSH3 0x184A JUMPI PUSH1 0x0 DUP1 REVERT JUMPDEST DUP3 CALLDATALOAD PUSH3 0x1857 DUP2 PUSH3 0x1746 JUMP JUMPDEST SWAP5 PUSH1 0x20 SWAP4 SWAP1 SWAP4 ADD CALLDATALOAD SWAP4 POP POP POP JUMP JUMPDEST PUSH4 0x4E487B71 PUSH1 0xE0 SHL PUSH1 0x0 MSTORE PUSH1 0x41 PUSH1 0x4 MSTORE PUSH1 0x24 PUSH1 0x0 REVERT JUMPDEST PUSH1 0x0 DUP3 PUSH1 0x1F DUP4 ADD SLT PUSH3 0x188D JUMPI PUSH1 0x0 DUP1 REVERT JUMPDEST DUP2 CALLDATALOAD PUSH8 0xFFFFFFFFFFFFFFFF DUP1 DUP3 GT ISZERO PUSH3 0x18AB JUMPI PUSH3 0x18AB PUSH3 0x1865 JUMP JUMPDEST PUSH1 0x40 MLOAD PUSH1 0x1F DUP4 ADD PUSH1 0x1F NOT SWAP1 DUP2 AND PUSH1 0x3F ADD AND DUP2 ADD SWAP1 DUP3 DUP3 GT DUP2 DUP4 LT OR ISZERO PUSH3 0x18D6 JUMPI PUSH3 0x18D6 PUSH3 0x1865 JUMP JUMPDEST DUP2 PUSH1 0x40 MSTORE DUP4 DUP2 MSTORE DUP7 PUSH1 0x20 DUP6 DUP9 ADD ADD GT ISZERO PUSH3 0x18F0 JUMPI PUSH1 0x0 DUP1 REVERT JUMPDEST DUP4 PUSH1 0x20 DUP8 ADD PUSH1 0x20 DUP4 ADD CALLDATACOPY PUSH1 0x0 PUSH1 0x20 DUP6 DUP4 ADD ADD MSTORE DUP1 SWAP5 POP POP POP POP POP SWAP3 SWAP2 POP POP JUMP JUMPDEST DUP1 ISZERO ISZERO DUP2 EQ PUSH3 0x56C JUMPI PUSH1 0x0 DUP1 REVERT JUMPDEST DUP1 CALLDATALOAD PUSH3 0x1769 DUP2 PUSH3 0x1910 JUMP JUMPDEST PUSH1 0x0 DUP1 PUSH1 0x0 DUP1 PUSH1 0x0 DUP1 PUSH1 0x0 DUP1 PUSH1 0x0 PUSH2 0x120 DUP11 DUP13 SUB SLT ISZERO PUSH3 0x194C JUMPI PUSH1 0x0 DUP1 REVERT JUMPDEST DUP10 CALLDATALOAD PUSH8 0xFFFFFFFFFFFFFFFF DUP1 DUP3 GT ISZERO PUSH3 0x1965 JUMPI PUSH1 0x0 DUP1 REVERT JUMPDEST PUSH3 0x1973 DUP14 DUP4 DUP15 ADD PUSH3 0x187B JUMP JUMPDEST SWAP11 POP PUSH1 0x20 DUP13 ADD CALLDATALOAD SWAP2 POP DUP1 DUP3 GT ISZERO PUSH3 0x198A JUMPI PUSH1 0x0 DUP1 REVERT JUMPDEST PUSH3 0x1998 DUP14 DUP4 DUP15 ADD PUSH3 0x187B JUMP JUMPDEST SWAP10 POP PUSH3 0x19A8 PUSH1 0x40 DUP14 ADD PUSH3 0x175C JUMP JUMPDEST SWAP9 POP PUSH1 0x60 DUP13 ADD CALLDATALOAD SWAP2 POP DUP1 DUP3 GT ISZERO PUSH3 0x19BF JUMPI PUSH1 0x0 DUP1 REVERT JUMPDEST POP PUSH3 0x19CE DUP13 DUP3 DUP14 ADD PUSH3 0x187B JUMP JUMPDEST SWAP7 POP POP PUSH3 0x19DF PUSH1 0x80 DUP12 ADD PUSH3 0x191F JUMP JUMPDEST SWAP5 POP PUSH1 0xA0 DUP11 ADD CALLDATALOAD SWAP4 POP PUSH1 0xC0 DUP11 ADD CALLDATALOAD SWAP3 POP PUSH1 0xE0 DUP11 ADD CALLDATALOAD SWAP2 POP PUSH3 0x1A05 PUSH2 0x100 DUP12 ADD PUSH3 0x175C JUMP JUMPDEST SWAP1 POP SWAP3 SWAP6 SWAP9 POP SWAP3 SWAP6 SWAP9 POP SWAP3 SWAP6 SWAP9 JUMP JUMPDEST PUSH1 0x1 PUSH1 0x1 PUSH1 0xA0 SHL SUB SWAP2 SWAP1 SWAP2 AND DUP2 MSTORE PUSH1 0x20 ADD SWAP1 JUMP JUMPDEST PUSH1 0x20 DUP1 DUP3 MSTORE PUSH1 0xC SWAP1 DUP3 ADD MSTORE PUSH12 0x20B236B4B7399037B7363C97 PUSH1 0xA1 SHL PUSH1 0x40 DUP3 ADD MSTORE PUSH1 0x60 ADD SWAP1 JUMP JUMPDEST PUSH1 0x20 DUP1 DUP3 MSTORE PUSH1 0x1F SWAP1 DUP3 ADD MSTORE PUSH32 0x5265656E7472616E637947756172643A207265656E7472616E742063616C6C00 PUSH1 0x40 DUP3 ADD MSTORE PUSH1 0x60 ADD SWAP1 JUMP JUMPDEST PUSH1 0x0 PUSH1 0x20 DUP3 DUP5 SUB SLT ISZERO PUSH3 0x1A98 JUMPI PUSH1 0x0 DUP1 REVERT JUMPDEST DUP2 MLOAD PUSH3 0x17E4 DUP2 PUSH3 0x1746 JUMP JUMPDEST PUSH4 0x4E487B71 PUSH1 0xE0 SHL PUSH1 0x0 MSTORE PUSH1 0x11 PUSH1 0x4 MSTORE PUSH1 0x24 PUSH1 0x0 REVERT JUMPDEST PUSH1 0x0 DUP2 PUSH1 0x0 NOT DIV DUP4 GT DUP3 ISZERO ISZERO AND ISZERO PUSH3 0x1AD8 JUMPI PUSH3 0x1AD8 PUSH3 0x1AA5 JUMP JUMPDEST POP MUL SWAP1 JUMP JUMPDEST PUSH1 0x0 DUP3 DUP3 LT ISZERO PUSH3 0x1AF2 JUMPI PUSH3 0x1AF2 PUSH3 0x1AA5 JUMP JUMPDEST POP SUB SWAP1 JUMP JUMPDEST PUSH1 0x1 PUSH1 0x1 PUSH1 0xA0 SHL SUB SWAP4 DUP5 AND DUP2 MSTORE SWAP2 SWAP1 SWAP3 AND PUSH1 0x20 DUP3 ADD MSTORE PUSH1 0x40 DUP2 ADD SWAP2 SWAP1 SWAP2 MSTORE PUSH1 0x60 ADD SWAP1 JUMP JUMPDEST PUSH1 0x0 PUSH1 0x20 DUP3 DUP5 SUB SLT ISZERO PUSH3 0x1B2E JUMPI PUSH1 0x0 DUP1 REVERT JUMPDEST DUP2 MLOAD PUSH3 0x17E4 DUP2 PUSH3 0x1910 JUMP JUMPDEST PUSH1 0x1 PUSH1 0x1 PUSH1 0xA0 SHL SUB SWAP3 SWAP1 SWAP3 AND DUP3 MSTORE PUSH1 0x20 DUP3 ADD MSTORE PUSH1 0x40 ADD SWAP1 JUMP JUMPDEST PUSH1 0x0 PUSH1 0x20 DUP3 DUP5 SUB SLT ISZERO PUSH3 0x1B67 JUMPI PUSH1 0x0 DUP1 REVERT JUMPDEST POP MLOAD SWAP2 SWAP1 POP JUMP JUMPDEST PUSH1 0x0 DUP3 NOT DUP3 GT ISZERO PUSH3 0x1B84 JUMPI PUSH3 0x1B84 PUSH3 0x1AA5 JUMP JUMPDEST POP ADD SWAP1 JUMP JUMPDEST PUSH1 0x0 DUP3 PUSH3 0x1BA7 JUMPI PUSH4 0x4E487B71 PUSH1 0xE0 SHL PUSH1 0x0 MSTORE PUSH1 0x12 PUSH1 0x4 MSTORE PUSH1 0x24 PUSH1 0x0 REVERT JUMPDEST POP DIV SWAP1 JUMP JUMPDEST PUSH1 0x0 DUP1 PUSH1 0x40 DUP4 DUP6 SUB SLT ISZERO PUSH3 0x1BC0 JUMPI PUSH1 0x0 DUP1 REVERT JUMPDEST DUP3 MLOAD PUSH3 0x1BCD DUP2 PUSH3 0x1746 JUMP JUMPDEST PUSH1 0x20 SWAP4 SWAP1 SWAP4 ADD MLOAD SWAP3 SWAP5 SWAP3 SWAP4 POP POP POP JUMP JUMPDEST PUSH1 0x0 DUP2 MLOAD DUP1 DUP5 MSTORE PUSH1 0x0 JUMPDEST DUP2 DUP2 LT ISZERO PUSH3 0x1C05 JUMPI PUSH1 0x20 DUP2 DUP6 ADD DUP2 ADD MLOAD DUP7 DUP4 ADD DUP3 ADD MSTORE ADD PUSH3 0x1BE7 JUMP JUMPDEST DUP2 DUP2 GT ISZERO PUSH3 0x1C18 JUMPI PUSH1 0x0 PUSH1 0x20 DUP4 DUP8 ADD ADD MSTORE JUMPDEST POP PUSH1 0x1F ADD PUSH1 0x1F NOT AND SWAP3 SWAP1 SWAP3 ADD PUSH1 0x20 ADD SWAP3 SWAP2 POP POP JUMP JUMPDEST PUSH1 0x0 PUSH2 0x140 DUP1 DUP4 MSTORE PUSH3 0x1C43 DUP2 DUP5 ADD DUP15 PUSH3 0x1BDD JUMP JUMPDEST SWAP1 POP DUP3 DUP2 SUB PUSH1 0x20 DUP5 ADD MSTORE PUSH3 0x1C59 DUP2 DUP14 PUSH3 0x1BDD JUMP JUMPDEST PUSH1 0x1 PUSH1 0x1 PUSH1 0xA0 SHL SUB DUP13 DUP2 AND PUSH1 0x40 DUP7 ADD MSTORE DUP5 DUP3 SUB PUSH1 0x60 DUP7 ADD MSTORE SWAP1 SWAP2 POP PUSH3 0x1C80 DUP3 DUP13 PUSH3 0x1BDD JUMP JUMPDEST SWAP10 ISZERO ISZERO PUSH1 0x80 DUP6 ADD MSTORE PUSH1 0xA0 DUP5 ADD SWAP9 SWAP1 SWAP9 MSTORE POP POP PUSH1 0xC0 DUP2 ADD SWAP5 SWAP1 SWAP5 MSTORE PUSH1 0xE0 DUP5 ADD SWAP3 SWAP1 SWAP3 MSTORE DUP4 AND PUSH2 0x100 DUP4 ADD MSTORE SWAP1 SWAP2 AND PUSH2 0x120 SWAP1 SWAP2 ADD MSTORE SWAP5 SWAP4 POP POP POP POP JUMP JUMPDEST PUSH1 0x0 PUSH1 0x0 NOT DUP3 EQ ISZERO PUSH3 0x1CD3 JUMPI PUSH3 0x1CD3 PUSH3 0x1AA5 JUMP JUMPDEST POP PUSH1 0x1 ADD SWAP1 JUMP INVALID PUSH1 0x80 PUSH1 0x40 MSTORE PUSH1 0xA DUP1 SLOAD PUSH1 0xFF NOT AND SWAP1 SSTORE PUSH1 0x0 PUSH1 0xE SSTORE CALLVALUE DUP1 ISZERO PUSH3 0x20 JUMPI PUSH1 0x0 DUP1 REVERT JUMPDEST POP PUSH1 0x40 MLOAD PUSH3 0x4109 CODESIZE SUB DUP1 PUSH3 0x4109 DUP4 CODECOPY DUP2 ADD PUSH1 0x40 DUP2 SWAP1 MSTORE PUSH3 0x43 SWAP2 PUSH3 0x54F JUMP JUMPDEST DUP10 DUP10 DUP3 DUP8 DUP4 DUP4 DUP2 PUSH1 0x0 SWAP1 DUP1 MLOAD SWAP1 PUSH1 0x20 ADD SWAP1 PUSH3 0x61 SWAP3 SWAP2 SWAP1 PUSH3 0x3AE JUMP JUMPDEST POP DUP1 MLOAD PUSH3 0x77 SWAP1 PUSH1 0x1 SWAP1 PUSH1 0x20 DUP5 ADD SWAP1 PUSH3 0x3AE JUMP JUMPDEST POP POP POP PUSH1 0x0 PUSH3 0x8C PUSH3 0x230 PUSH1 0x20 SHL PUSH1 0x20 SHR JUMP JUMPDEST PUSH1 0xD DUP1 SLOAD PUSH1 0x1 PUSH1 0x1 PUSH1 0xA0 SHL SUB NOT AND PUSH1 0x1 PUSH1 0x1 PUSH1 0xA0 SHL SUB DUP4 AND SWAP1 DUP2 OR SWAP1 SWAP2 SSTORE PUSH1 0x40 MLOAD SWAP2 SWAP3 POP SWAP1 PUSH1 0x0 SWAP1 PUSH32 0x8BE0079C531659141344CD1FD0A4F28419497F9722A3DAAFE3B4186F6B6457E0 SWAP1 DUP3 SWAP1 LOG3 POP PUSH1 0x10 DUP1 SLOAD PUSH1 0x1 PUSH1 0x1 PUSH1 0xA0 SHL SUB NOT AND PUSH1 0x1 PUSH1 0x1 PUSH1 0xA0 SHL SUB DUP5 AND OR SWAP1 SSTORE PUSH3 0x100 DUP5 PUSH3 0x24C JUMP JUMPDEST PUSH1 0xF SSTORE POP POP PUSH1 0x1 PUSH1 0x11 SSTORE POP PUSH1 0x1 PUSH1 0x1 PUSH1 0xA0 SHL SUB DUP2 AND PUSH3 0x167 JUMPI PUSH1 0x40 MLOAD PUSH3 0x461BCD PUSH1 0xE5 SHL DUP2 MSTORE PUSH1 0x20 PUSH1 0x4 DUP3 ADD MSTORE PUSH1 0x15 PUSH1 0x24 DUP3 ADD MSTORE PUSH32 0x496E76616C69642061646D696E20616464726573730000000000000000000000 PUSH1 0x44 DUP3 ADD MSTORE PUSH1 0x64 ADD JUMPDEST PUSH1 0x40 MLOAD DUP1 SWAP2 SUB SWAP1 REVERT JUMPDEST PUSH1 0x1 PUSH1 0x1 PUSH1 0xA0 SHL SUB DUP3 AND PUSH3 0x1B3 JUMPI PUSH1 0x40 MLOAD PUSH3 0x461BCD PUSH1 0xE5 SHL DUP2 MSTORE PUSH1 0x20 PUSH1 0x4 DUP3 ADD MSTORE PUSH1 0x11 PUSH1 0x24 DUP3 ADD MSTORE PUSH17 0x24B73B30B634B21033B0B9903A37B5B2B7 PUSH1 0x79 SHL PUSH1 0x44 DUP3 ADD MSTORE PUSH1 0x64 ADD PUSH3 0x15E JUMP JUMPDEST PUSH1 0x10 DUP1 SLOAD PUSH1 0x1 PUSH1 0x1 PUSH1 0xA0 SHL SUB NOT AND PUSH1 0x1 PUSH1 0x1 PUSH1 0xA0 SHL SUB DUP4 AND OR SWAP1 SSTORE DUP7 MLOAD PUSH3 0x1E3 SWAP1 PUSH1 0x12 SWAP1 PUSH1 0x20 DUP11 ADD SWAP1 PUSH3 0x3AE JUMP JUMPDEST POP POP PUSH1 0x13 DUP1 SLOAD PUSH1 0xFF NOT AND SWAP6 ISZERO ISZERO SWAP6 SWAP1 SWAP6 OR SWAP1 SWAP5 SSTORE PUSH1 0x14 SWAP2 SWAP1 SWAP2 SSTORE PUSH1 0x15 SSTORE POP PUSH1 0x1A DUP1 SLOAD PUSH1 0x1 PUSH1 0x1 PUSH1 0xA0 SHL SUB NOT AND PUSH1 0x1 PUSH1 0x1 PUSH1 0xA0 SHL SUB SWAP1 SWAP3 AND SWAP2 SWAP1 SWAP2 OR SWAP1 SSTORE POP POP PUSH1 0x5 PUSH1 0x16 SSTORE POP PUSH3 0x687 SWAP1 POP JUMP JUMPDEST PUSH1 0x0 PUSH3 0x247 PUSH3 0x2AD PUSH1 0x20 SHL PUSH3 0x2163 OR PUSH1 0x20 SHR JUMP JUMPDEST SWAP1 POP SWAP1 JUMP JUMPDEST PUSH1 0xA SLOAD PUSH1 0xFF AND ISZERO PUSH3 0x292 JUMPI PUSH1 0x40 MLOAD PUSH3 0x461BCD PUSH1 0xE5 SHL DUP2 MSTORE PUSH1 0x20 PUSH1 0x4 DUP3 ADD MSTORE PUSH1 0xE PUSH1 0x24 DUP3 ADD MSTORE PUSH14 0x185B1C9958591E481A5B9A5D1959 PUSH1 0x92 SHL PUSH1 0x44 DUP3 ADD MSTORE PUSH1 0x64 ADD PUSH3 0x15E JUMP JUMPDEST PUSH3 0x29D DUP2 PUSH3 0x30C JUMP JUMPDEST POP PUSH1 0xA DUP1 SLOAD PUSH1 0xFF NOT AND PUSH1 0x1 OR SWAP1 SSTORE JUMP JUMPDEST PUSH1 0x0 CALLER ADDRESS EQ ISZERO PUSH3 0x306 JUMPI PUSH1 0x0 DUP1 CALLDATASIZE DUP1 DUP1 PUSH1 0x1F ADD PUSH1 0x20 DUP1 SWAP2 DIV MUL PUSH1 0x20 ADD PUSH1 0x40 MLOAD SWAP1 DUP2 ADD PUSH1 0x40 MSTORE DUP1 SWAP4 SWAP3 SWAP2 SWAP1 DUP2 DUP2 MSTORE PUSH1 0x20 ADD DUP4 DUP4 DUP1 DUP3 DUP5 CALLDATACOPY PUSH1 0x0 SWAP3 ADD SWAP2 SWAP1 SWAP2 MSTORE POP POP POP POP CALLDATASIZE ADD MLOAD PUSH1 0x1 PUSH1 0x1 PUSH1 0xA0 SHL SUB AND SWAP2 POP PUSH3 0x309 SWAP1 POP JUMP JUMPDEST POP CALLER JUMPDEST SWAP1 JUMP JUMPDEST PUSH1 0x40 MLOAD DUP1 PUSH1 0x80 ADD PUSH1 0x40 MSTORE DUP1 PUSH1 0x4F DUP2 MSTORE PUSH1 0x20 ADD PUSH3 0x40BA PUSH1 0x4F SWAP2 CODECOPY DUP1 MLOAD PUSH1 0x20 SWAP2 DUP3 ADD KECCAK256 DUP3 MLOAD SWAP3 DUP3 ADD SWAP3 SWAP1 SWAP3 KECCAK256 PUSH1 0x40 DUP1 MLOAD DUP1 DUP3 ADD DUP3 MSTORE PUSH1 0x1 DUP2 MSTORE PUSH1 0x31 PUSH1 0xF8 SHL SWAP1 DUP5 ADD MSTORE DUP1 MLOAD DUP1 DUP5 ADD SWAP5 SWAP1 SWAP5 MSTORE DUP4 DUP2 ADD SWAP2 SWAP1 SWAP2 MSTORE PUSH32 0xC89EFDAA54C0F20C7ADF612882DF0950F5A951637E0307CDCB4C672F298B8BC6 PUSH1 0x60 DUP5 ADD MSTORE ADDRESS PUSH1 0x80 DUP5 ADD MSTORE CHAINID PUSH1 0xA0 DUP1 DUP6 ADD SWAP2 SWAP1 SWAP2 MSTORE DUP2 MLOAD DUP1 DUP6 SUB SWAP1 SWAP2 ADD DUP2 MSTORE PUSH1 0xC0 SWAP1 SWAP4 ADD SWAP1 MSTORE DUP2 MLOAD SWAP2 ADD KECCAK256 PUSH1 0xB SSTORE JUMP JUMPDEST DUP3 DUP1 SLOAD PUSH3 0x3BC SWAP1 PUSH3 0x64A JUMP JUMPDEST SWAP1 PUSH1 0x0 MSTORE PUSH1 0x20 PUSH1 0x0 KECCAK256 SWAP1 PUSH1 0x1F ADD PUSH1 0x20 SWAP1 DIV DUP2 ADD SWAP3 DUP3 PUSH3 0x3E0 JUMPI PUSH1 0x0 DUP6 SSTORE PUSH3 0x42B JUMP JUMPDEST DUP3 PUSH1 0x1F LT PUSH3 0x3FB JUMPI DUP1 MLOAD PUSH1 0xFF NOT AND DUP4 DUP1 ADD OR DUP6 SSTORE PUSH3 0x42B JUMP JUMPDEST DUP3 DUP1 ADD PUSH1 0x1 ADD DUP6 SSTORE DUP3 ISZERO PUSH3 0x42B JUMPI SWAP2 DUP3 ADD JUMPDEST DUP3 DUP2 GT ISZERO PUSH3 0x42B JUMPI DUP3 MLOAD DUP3 SSTORE SWAP2 PUSH1 0x20 ADD SWAP2 SWAP1 PUSH1 0x1 ADD SWAP1 PUSH3 0x40E JUMP JUMPDEST POP PUSH3 0x439 SWAP3 SWAP2 POP PUSH3 0x43D JUMP JUMPDEST POP SWAP1 JUMP JUMPDEST JUMPDEST DUP1 DUP3 GT ISZERO PUSH3 0x439 JUMPI PUSH1 0x0 DUP2 SSTORE PUSH1 0x1 ADD PUSH3 0x43E JUMP JUMPDEST PUSH4 0x4E487B71 PUSH1 0xE0 SHL PUSH1 0x0 MSTORE PUSH1 0x41 PUSH1 0x4 MSTORE PUSH1 0x24 PUSH1 0x0 REVERT JUMPDEST PUSH1 0x0 DUP3 PUSH1 0x1F DUP4 ADD SLT PUSH3 0x47C JUMPI PUSH1 0x0 DUP1 REVERT JUMPDEST DUP2 MLOAD PUSH1 0x1 PUSH1 0x1 PUSH1 0x40 SHL SUB DUP1 DUP3 GT ISZERO PUSH3 0x499 JUMPI PUSH3 0x499 PUSH3 0x454 JUMP JUMPDEST PUSH1 0x40 MLOAD PUSH1 0x1F DUP4 ADD PUSH1 0x1F NOT SWAP1 DUP2 AND PUSH1 0x3F ADD AND DUP2 ADD SWAP1 DUP3 DUP3 GT DUP2 DUP4 LT OR ISZERO PUSH3 0x4C4 JUMPI PUSH3 0x4C4 PUSH3 0x454 JUMP JUMPDEST DUP2 PUSH1 0x40 MSTORE DUP4 DUP2 MSTORE PUSH1 0x20 SWAP3 POP DUP7 DUP4 DUP6 DUP9 ADD ADD GT ISZERO PUSH3 0x4E1 JUMPI PUSH1 0x0 DUP1 REVERT JUMPDEST PUSH1 0x0 SWAP2 POP JUMPDEST DUP4 DUP3 LT ISZERO PUSH3 0x505 JUMPI DUP6 DUP3 ADD DUP4 ADD MLOAD DUP2 DUP4 ADD DUP5 ADD MSTORE SWAP1 DUP3 ADD SWAP1 PUSH3 0x4E6 JUMP JUMPDEST DUP4 DUP3 GT ISZERO PUSH3 0x517 JUMPI PUSH1 0x0 DUP4 DUP6 DUP4 ADD ADD MSTORE JUMPDEST SWAP7 SWAP6 POP POP POP POP POP POP JUMP JUMPDEST DUP1 MLOAD PUSH1 0x1 PUSH1 0x1 PUSH1 0xA0 SHL SUB DUP2 AND DUP2 EQ PUSH3 0x539 JUMPI PUSH1 0x0 DUP1 REVERT JUMPDEST SWAP2 SWAP1 POP JUMP JUMPDEST DUP1 MLOAD DUP1 ISZERO ISZERO DUP2 EQ PUSH3 0x539 JUMPI PUSH1 0x0 DUP1 REVERT JUMPDEST PUSH1 0x0 DUP1 PUSH1 0x0 DUP1 PUSH1 0x0 DUP1 PUSH1 0x0 DUP1 PUSH1 0x0 DUP1 PUSH2 0x140 DUP12 DUP14 SUB SLT ISZERO PUSH3 0x570 JUMPI PUSH1 0x0 DUP1 REVERT JUMPDEST DUP11 MLOAD PUSH1 0x1 PUSH1 0x1 PUSH1 0x40 SHL SUB DUP1 DUP3 GT ISZERO PUSH3 0x588 JUMPI PUSH1 0x0 DUP1 REVERT JUMPDEST PUSH3 0x596 DUP15 DUP4 DUP16 ADD PUSH3 0x46A JUMP JUMPDEST SWAP12 POP PUSH1 0x20 DUP14 ADD MLOAD SWAP2 POP DUP1 DUP3 GT ISZERO PUSH3 0x5AD JUMPI PUSH1 0x0 DUP1 REVERT JUMPDEST PUSH3 0x5BB DUP15 DUP4 DUP16 ADD PUSH3 0x46A JUMP JUMPDEST SWAP11 POP PUSH3 0x5CB PUSH1 0x40 DUP15 ADD PUSH3 0x521 JUMP JUMPDEST SWAP10 POP PUSH1 0x60 DUP14 ADD MLOAD SWAP2 POP DUP1 DUP3 GT ISZERO PUSH3 0x5E2 JUMPI PUSH1 0x0 DUP1 REVERT JUMPDEST POP PUSH3 0x5F1 DUP14 DUP3 DUP15 ADD PUSH3 0x46A JUMP JUMPDEST SWAP8 POP POP PUSH3 0x602 PUSH1 0x80 DUP13 ADD PUSH3 0x53E JUMP JUMPDEST SWAP6 POP PUSH1 0xA0 DUP12 ADD MLOAD SWAP5 POP PUSH1 0xC0 DUP12 ADD MLOAD SWAP4 POP PUSH1 0xE0 DUP12 ADD MLOAD SWAP3 POP PUSH3 0x628 PUSH2 0x100 DUP13 ADD PUSH3 0x521 JUMP JUMPDEST SWAP2 POP PUSH3 0x639 PUSH2 0x120 DUP13 ADD PUSH3 0x521 JUMP JUMPDEST SWAP1 POP SWAP3 SWAP6 SWAP9 SWAP12 SWAP2 SWAP5 SWAP8 SWAP11 POP SWAP3 SWAP6 SWAP9 POP JUMP JUMPDEST PUSH1 0x1 DUP2 DUP2 SHR SWAP1 DUP3 AND DUP1 PUSH3 0x65F JUMPI PUSH1 0x7F DUP3 AND SWAP2 POP JUMPDEST PUSH1 0x20 DUP3 LT DUP2 EQ ISZERO PUSH3 0x681 JUMPI PUSH4 0x4E487B71 PUSH1 0xE0 SHL PUSH1 0x0 MSTORE PUSH1 0x22 PUSH1 0x4 MSTORE PUSH1 0x24 PUSH1 0x0 REVERT JUMPDEST POP SWAP2 SWAP1 POP JUMP JUMPDEST PUSH2 0x3A23 DUP1 PUSH3 0x697 PUSH1 0x0 CODECOPY PUSH1 0x0 RETURN INVALID PUSH1 0x80 PUSH1 0x40 MSTORE PUSH1 0x4 CALLDATASIZE LT PUSH2 0x2EB JUMPI PUSH1 0x0 CALLDATALOAD PUSH1 0xE0 SHR DUP1 PUSH4 0x596C6325 GT PUSH2 0x186 JUMPI DUP1 PUSH4 0xA22CB465 GT PUSH2 0xD7 JUMPI DUP1 PUSH4 0xC87B56DD GT PUSH2 0x85 JUMPI DUP1 PUSH4 0xC87B56DD EQ PUSH2 0x96D JUMPI DUP1 PUSH4 0xD547CFB7 EQ PUSH2 0x98D JUMPI DUP1 PUSH4 0xE189977F EQ PUSH2 0x9A2 JUMPI DUP1 PUSH4 0xE8A3D485 EQ PUSH2 0x9C2 JUMPI DUP1 PUSH4 0xE985E9C5 EQ PUSH2 0x9D7 JUMPI DUP1 PUSH4 0xEF2D1746 EQ PUSH2 0x9F7 JUMPI DUP1 PUSH4 0xF2FDE38B EQ PUSH2 0xA0C JUMPI PUSH1 0x0 DUP1 REVERT JUMPDEST DUP1 PUSH4 0xA22CB465 EQ PUSH2 0x868 JUMPI DUP1 PUSH4 0xA795E193 EQ PUSH2 0x888 JUMPI DUP1 PUSH4 0xB086613C EQ PUSH2 0x8A8 JUMPI DUP1 PUSH4 0xB88D4FDE EQ PUSH2 0x8BD JUMPI DUP1 PUSH4 0xB9DD6574 EQ PUSH2 0x8DD JUMPI DUP1 PUSH4 0xC0D8012C EQ PUSH2 0x8F2 JUMPI DUP1 PUSH4 0xC43E92B1 EQ PUSH2 0x94D JUMPI PUSH1 0x0 DUP1 REVERT JUMPDEST DUP1 PUSH4 0x80929E5B GT PUSH2 0x134 JUMPI DUP1 PUSH4 0x80929E5B EQ PUSH2 0x79C JUMPI DUP1 PUSH4 0x8297F29F EQ PUSH2 0x7BC JUMPI DUP1 PUSH4 0x8A0DE3DD EQ PUSH2 0x7F5 JUMPI DUP1 PUSH4 0x8AA80EA5 EQ PUSH2 0x813 JUMPI DUP1 PUSH4 0x8DA5CB5B EQ PUSH2 0x829 JUMPI DUP1 PUSH4 0x95D89B41 EQ PUSH2 0x83E JUMPI DUP1 PUSH4 0x972D1AE2 EQ PUSH2 0x853 JUMPI PUSH1 0x0 DUP1 REVERT JUMPDEST DUP1 PUSH4 0x596C6325 EQ PUSH2 0x6B7 JUMPI DUP1 PUSH4 0x6352211E EQ PUSH2 0x6E7 JUMPI DUP1 PUSH4 0x6D3C7EC5 EQ PUSH2 0x707 JUMPI DUP1 PUSH4 0x6D714B68 EQ PUSH2 0x727 JUMPI DUP1 PUSH4 0x70A08231 EQ PUSH2 0x747 JUMPI DUP1 PUSH4 0x715018A6 EQ PUSH2 0x767 JUMPI DUP1 PUSH4 0x755EDD17 EQ PUSH2 0x77C JUMPI PUSH1 0x0 DUP1 REVERT JUMPDEST DUP1 PUSH4 0x2D0335AB GT PUSH2 0x240 JUMPI DUP1 PUSH4 0x4409559A GT PUSH2 0x1EE JUMPI DUP1 PUSH4 0x4409559A EQ PUSH2 0x5E2 JUMPI DUP1 PUSH4 0x4D47732A EQ PUSH2 0x602 JUMPI DUP1 PUSH4 0x4D57CA4F EQ PUSH2 0x617 JUMPI DUP1 PUSH4 0x4F6CCCE7 EQ PUSH2 0x637 JUMPI DUP1 PUSH4 0x51508F0A EQ PUSH2 0x657 JUMPI DUP1 PUSH4 0x547520FE EQ PUSH2 0x677 JUMPI DUP1 PUSH4 0x55F804B3 EQ PUSH2 0x697 JUMPI PUSH1 0x0 DUP1 REVERT JUMPDEST DUP1 PUSH4 0x2D0335AB EQ PUSH2 0x4F9 JUMPI DUP1 PUSH4 0x2F745C59 EQ PUSH2 0x52F JUMPI DUP1 PUSH4 0x3408E470 EQ PUSH2 0x54F JUMPI DUP1 PUSH4 0x343F40DF EQ PUSH2 0x562 JUMPI DUP1 PUSH4 0x4209A2E1 EQ PUSH2 0x582 JUMPI DUP1 PUSH4 0x42842E0E EQ PUSH2 0x5A2 JUMPI DUP1 PUSH4 0x42966C68 EQ PUSH2 0x5C2 JUMPI PUSH1 0x0 DUP1 REVERT JUMPDEST DUP1 PUSH4 0x18160DDD GT PUSH2 0x29D JUMPI DUP1 PUSH4 0x18160DDD EQ PUSH2 0x401 JUMPI DUP1 PUSH4 0x199DC532 EQ PUSH2 0x420 JUMPI DUP1 PUSH4 0x1B64AB59 EQ PUSH2 0x46F JUMPI DUP1 PUSH4 0x1E9F8AAD EQ PUSH2 0x48F JUMPI DUP1 PUSH4 0x20379EE5 EQ PUSH2 0x4AF JUMPI DUP1 PUSH4 0x23B872DD EQ PUSH2 0x4C4 JUMPI DUP1 PUSH4 0x24D64CA2 EQ PUSH2 0x4E4 JUMPI PUSH1 0x0 DUP1 REVERT JUMPDEST DUP1 PUSH4 0x1FFC9A7 EQ PUSH2 0x2F0 JUMPI DUP1 PUSH4 0x6FDDE03 EQ PUSH2 0x325 JUMPI DUP1 PUSH4 0x81812FC EQ PUSH2 0x347 JUMPI DUP1 PUSH4 0x95EA7B3 EQ PUSH2 0x37F JUMPI DUP1 PUSH4 0xC53C51C EQ PUSH2 0x3A1 JUMPI DUP1 PUSH4 0xF7E5970 EQ PUSH2 0x3B4 JUMPI DUP1 PUSH4 0x109F7561 EQ PUSH2 0x3E1 JUMPI JUMPDEST PUSH1 0x0 DUP1 REVERT JUMPDEST CALLVALUE DUP1 ISZERO PUSH2 0x2FC JUMPI PUSH1 0x0 DUP1 REVERT JUMPDEST POP PUSH2 0x310 PUSH2 0x30B CALLDATASIZE PUSH1 0x4 PUSH2 0x3080 JUMP JUMPDEST PUSH2 0xA2C JUMP JUMPDEST PUSH1 0x40 MLOAD SWAP1 ISZERO ISZERO DUP2 MSTORE PUSH1 0x20 ADD JUMPDEST PUSH1 0x40 MLOAD DUP1 SWAP2 SUB SWAP1 RETURN JUMPDEST CALLVALUE DUP1 ISZERO PUSH2 0x331 JUMPI PUSH1 0x0 DUP1 REVERT JUMPDEST POP PUSH2 0x33A PUSH2 0xA57 JUMP JUMPDEST PUSH1 0x40 MLOAD PUSH2 0x31C SWAP2 SWAP1 PUSH2 0x30F5 JUMP JUMPDEST CALLVALUE DUP1 ISZERO PUSH2 0x353 JUMPI PUSH1 0x0 DUP1 REVERT JUMPDEST POP PUSH2 0x367 PUSH2 0x362 CALLDATASIZE PUSH1 0x4 PUSH2 0x3108 JUMP JUMPDEST PUSH2 0xAE9 JUMP JUMPDEST PUSH1 0x40 MLOAD PUSH1 0x1 PUSH1 0x1 PUSH1 0xA0 SHL SUB SWAP1 SWAP2 AND DUP2 MSTORE PUSH1 0x20 ADD PUSH2 0x31C JUMP JUMPDEST CALLVALUE DUP1 ISZERO PUSH2 0x38B JUMPI PUSH1 0x0 DUP1 REVERT JUMPDEST POP PUSH2 0x39F PUSH2 0x39A CALLDATASIZE PUSH1 0x4 PUSH2 0x313D JUMP JUMPDEST PUSH2 0xB76 JUMP JUMPDEST STOP JUMPDEST PUSH2 0x33A PUSH2 0x3AF CALLDATASIZE PUSH1 0x4 PUSH2 0x320A JUMP JUMPDEST PUSH2 0xC99 JUMP JUMPDEST CALLVALUE DUP1 ISZERO PUSH2 0x3C0 JUMPI PUSH1 0x0 DUP1 REVERT JUMPDEST POP PUSH2 0x33A PUSH1 0x40 MLOAD DUP1 PUSH1 0x40 ADD PUSH1 0x40 MSTORE DUP1 PUSH1 0x1 DUP2 MSTORE PUSH1 0x20 ADD PUSH1 0x31 PUSH1 0xF8 SHL DUP2 MSTORE POP DUP2 JUMP JUMPDEST CALLVALUE DUP1 ISZERO PUSH2 0x3ED JUMPI PUSH1 0x0 DUP1 REVERT JUMPDEST POP PUSH2 0x39F PUSH2 0x3FC CALLDATASIZE PUSH1 0x4 PUSH2 0x3108 JUMP JUMPDEST PUSH2 0xE83 JUMP JUMPDEST CALLVALUE DUP1 ISZERO PUSH2 0x40D JUMPI PUSH1 0x0 DUP1 REVERT JUMPDEST POP PUSH1 0x8 SLOAD JUMPDEST PUSH1 0x40 MLOAD SWAP1 DUP2 MSTORE PUSH1 0x20 ADD PUSH2 0x31C JUMP JUMPDEST CALLVALUE DUP1 ISZERO PUSH2 0x42C JUMPI PUSH1 0x0 DUP1 REVERT JUMPDEST POP PUSH2 0x45A PUSH2 0x43B CALLDATASIZE PUSH1 0x4 PUSH2 0x3108 JUMP JUMPDEST PUSH1 0x0 SWAP1 DUP2 MSTORE PUSH1 0x18 PUSH1 0x20 SWAP1 DUP2 MSTORE PUSH1 0x40 DUP1 DUP4 KECCAK256 SLOAD PUSH1 0x19 SWAP1 SWAP3 MSTORE SWAP1 SWAP2 KECCAK256 SLOAD SWAP1 SWAP2 JUMP JUMPDEST PUSH1 0x40 DUP1 MLOAD SWAP3 DUP4 MSTORE PUSH1 0x20 DUP4 ADD SWAP2 SWAP1 SWAP2 MSTORE ADD PUSH2 0x31C JUMP JUMPDEST CALLVALUE DUP1 ISZERO PUSH2 0x47B JUMPI PUSH1 0x0 DUP1 REVERT JUMPDEST POP PUSH2 0x39F PUSH2 0x48A CALLDATASIZE PUSH1 0x4 PUSH2 0x3286 JUMP JUMPDEST PUSH2 0xED4 JUMP JUMPDEST CALLVALUE DUP1 ISZERO PUSH2 0x49B JUMPI PUSH1 0x0 DUP1 REVERT JUMPDEST POP PUSH2 0x39F PUSH2 0x4AA CALLDATASIZE PUSH1 0x4 PUSH2 0x32B2 JUMP JUMPDEST PUSH2 0x1050 JUMP JUMPDEST CALLVALUE DUP1 ISZERO PUSH2 0x4BB JUMPI PUSH1 0x0 DUP1 REVERT JUMPDEST POP PUSH1 0xB SLOAD PUSH2 0x412 JUMP JUMPDEST CALLVALUE DUP1 ISZERO PUSH2 0x4D0 JUMPI PUSH1 0x0 DUP1 REVERT JUMPDEST POP PUSH2 0x39F PUSH2 0x4DF CALLDATASIZE PUSH1 0x4 PUSH2 0x32CD JUMP JUMPDEST PUSH2 0x10E4 JUMP JUMPDEST CALLVALUE DUP1 ISZERO PUSH2 0x4F0 JUMPI PUSH1 0x0 DUP1 REVERT JUMPDEST POP PUSH1 0x15 SLOAD PUSH2 0x412 JUMP JUMPDEST CALLVALUE DUP1 ISZERO PUSH2 0x505 JUMPI PUSH1 0x0 DUP1 REVERT JUMPDEST POP PUSH2 0x412 PUSH2 0x514 CALLDATASIZE PUSH1 0x4 PUSH2 0x32B2 JUMP JUMPDEST PUSH1 0x1 PUSH1 0x1 PUSH1 0xA0 SHL SUB AND PUSH1 0x0 SWAP1 DUP2 MSTORE PUSH1 0xC PUSH1 0x20 MSTORE PUSH1 0x40 SWAP1 KECCAK256 SLOAD SWAP1 JUMP JUMPDEST CALLVALUE DUP1 ISZERO PUSH2 0x53B JUMPI PUSH1 0x0 DUP1 REVERT JUMPDEST POP PUSH2 0x412 PUSH2 0x54A CALLDATASIZE PUSH1 0x4 PUSH2 0x313D JUMP JUMPDEST PUSH2 0x111C JUMP JUMPDEST CALLVALUE DUP1 ISZERO PUSH2 0x55B JUMPI PUSH1 0x0 DUP1 REVERT JUMPDEST POP CHAINID PUSH2 0x412 JUMP JUMPDEST CALLVALUE DUP1 ISZERO PUSH2 0x56E JUMPI PUSH1 0x0 DUP1 REVERT JUMPDEST POP PUSH2 0x39F PUSH2 0x57D CALLDATASIZE PUSH1 0x4 PUSH2 0x3108 JUMP JUMPDEST PUSH2 0x11B2 JUMP JUMPDEST CALLVALUE DUP1 ISZERO PUSH2 0x58E JUMPI PUSH1 0x0 DUP1 REVERT JUMPDEST POP PUSH2 0x39F PUSH2 0x59D CALLDATASIZE PUSH1 0x4 PUSH2 0x3108 JUMP JUMPDEST PUSH2 0x11DA JUMP JUMPDEST CALLVALUE DUP1 ISZERO PUSH2 0x5AE JUMPI PUSH1 0x0 DUP1 REVERT JUMPDEST POP PUSH2 0x39F PUSH2 0x5BD CALLDATASIZE PUSH1 0x4 PUSH2 0x32CD JUMP JUMPDEST PUSH2 0x127A JUMP JUMPDEST CALLVALUE DUP1 ISZERO PUSH2 0x5CE JUMPI PUSH1 0x0 DUP1 REVERT JUMPDEST POP PUSH2 0x39F PUSH2 0x5DD CALLDATASIZE PUSH1 0x4 PUSH2 0x3108 JUMP JUMPDEST PUSH2 0x1295 JUMP JUMPDEST CALLVALUE DUP1 ISZERO PUSH2 0x5EE JUMPI PUSH1 0x0 DUP1 REVERT JUMPDEST POP PUSH1 0x10 SLOAD PUSH2 0x367 SWAP1 PUSH1 0x1 PUSH1 0x1 PUSH1 0xA0 SHL SUB AND DUP2 JUMP JUMPDEST CALLVALUE DUP1 ISZERO PUSH2 0x60E JUMPI PUSH1 0x0 DUP1 REVERT JUMPDEST POP PUSH1 0x16 SLOAD PUSH2 0x412 JUMP JUMPDEST CALLVALUE DUP1 ISZERO PUSH2 0x623 JUMPI PUSH1 0x0 DUP1 REVERT JUMPDEST POP PUSH2 0x39F PUSH2 0x632 CALLDATASIZE PUSH1 0x4 PUSH2 0x3309 JUMP JUMPDEST PUSH2 0x135E JUMP JUMPDEST CALLVALUE DUP1 ISZERO PUSH2 0x643 JUMPI PUSH1 0x0 DUP1 REVERT JUMPDEST POP PUSH2 0x412 PUSH2 0x652 CALLDATASIZE PUSH1 0x4 PUSH2 0x3108 JUMP JUMPDEST PUSH2 0x13BF JUMP JUMPDEST CALLVALUE DUP1 ISZERO PUSH2 0x663 JUMPI PUSH1 0x0 DUP1 REVERT JUMPDEST POP PUSH2 0x39F PUSH2 0x672 CALLDATASIZE PUSH1 0x4 PUSH2 0x32B2 JUMP JUMPDEST PUSH2 0x1452 JUMP JUMPDEST CALLVALUE DUP1 ISZERO PUSH2 0x683 JUMPI PUSH1 0x0 DUP1 REVERT JUMPDEST POP PUSH2 0x39F PUSH2 0x692 CALLDATASIZE PUSH1 0x4 PUSH2 0x3108 JUMP JUMPDEST PUSH2 0x154F JUMP JUMPDEST CALLVALUE DUP1 ISZERO PUSH2 0x6A3 JUMPI PUSH1 0x0 DUP1 REVERT JUMPDEST POP PUSH2 0x39F PUSH2 0x6B2 CALLDATASIZE PUSH1 0x4 PUSH2 0x332B JUMP JUMPDEST PUSH2 0x15A5 JUMP JUMPDEST CALLVALUE DUP1 ISZERO PUSH2 0x6C3 JUMPI PUSH1 0x0 DUP1 REVERT JUMPDEST POP PUSH2 0x310 PUSH2 0x6D2 CALLDATASIZE PUSH1 0x4 PUSH2 0x32B2 JUMP JUMPDEST PUSH1 0x1E PUSH1 0x20 MSTORE PUSH1 0x0 SWAP1 DUP2 MSTORE PUSH1 0x40 SWAP1 KECCAK256 SLOAD PUSH1 0xFF AND DUP2 JUMP JUMPDEST CALLVALUE DUP1 ISZERO PUSH2 0x6F3 JUMPI PUSH1 0x0 DUP1 REVERT JUMPDEST POP PUSH2 0x367 PUSH2 0x702 CALLDATASIZE PUSH1 0x4 PUSH2 0x3108 JUMP JUMPDEST PUSH2 0x160D JUMP JUMPDEST CALLVALUE DUP1 ISZERO PUSH2 0x713 JUMPI PUSH1 0x0 DUP1 REVERT JUMPDEST POP PUSH2 0x39F PUSH2 0x722 CALLDATASIZE PUSH1 0x4 PUSH2 0x3108 JUMP JUMPDEST PUSH2 0x1684 JUMP JUMPDEST CALLVALUE DUP1 ISZERO PUSH2 0x733 JUMPI PUSH1 0x0 DUP1 REVERT JUMPDEST POP PUSH2 0x39F PUSH2 0x742 CALLDATASIZE PUSH1 0x4 PUSH2 0x336E JUMP JUMPDEST PUSH2 0x16D5 JUMP JUMPDEST CALLVALUE DUP1 ISZERO PUSH2 0x753 JUMPI PUSH1 0x0 DUP1 REVERT JUMPDEST POP PUSH2 0x412 PUSH2 0x762 CALLDATASIZE PUSH1 0x4 PUSH2 0x32B2 JUMP JUMPDEST PUSH2 0x1762 JUMP JUMPDEST CALLVALUE DUP1 ISZERO PUSH2 0x773 JUMPI PUSH1 0x0 DUP1 REVERT JUMPDEST POP PUSH2 0x39F PUSH2 0x17E9 JUMP JUMPDEST CALLVALUE DUP1 ISZERO PUSH2 0x788 JUMPI PUSH1 0x0 DUP1 REVERT JUMPDEST POP PUSH2 0x412 PUSH2 0x797 CALLDATASIZE PUSH1 0x4 PUSH2 0x32B2 JUMP JUMPDEST PUSH2 0x1872 JUMP JUMPDEST CALLVALUE DUP1 ISZERO PUSH2 0x7A8 JUMPI PUSH1 0x0 DUP1 REVERT JUMPDEST POP PUSH2 0x39F PUSH2 0x7B7 CALLDATASIZE PUSH1 0x4 PUSH2 0x33A5 JUMP JUMPDEST PUSH2 0x198B JUMP JUMPDEST CALLVALUE DUP1 ISZERO PUSH2 0x7C8 JUMPI PUSH1 0x0 DUP1 REVERT JUMPDEST POP PUSH2 0x310 PUSH2 0x7D7 CALLDATASIZE PUSH1 0x4 PUSH2 0x32B2 JUMP JUMPDEST PUSH1 0x1 PUSH1 0x1 PUSH1 0xA0 SHL SUB AND PUSH1 0x0 SWAP1 DUP2 MSTORE PUSH1 0x1E PUSH1 0x20 MSTORE PUSH1 0x40 SWAP1 KECCAK256 SLOAD PUSH1 0xFF AND SWAP1 JUMP JUMPDEST CALLVALUE DUP1 ISZERO PUSH2 0x801 JUMPI PUSH1 0x0 DUP1 REVERT JUMPDEST POP PUSH1 0x1A SLOAD PUSH1 0x1 PUSH1 0x1 PUSH1 0xA0 SHL SUB AND PUSH2 0x367 JUMP JUMPDEST CALLVALUE DUP1 ISZERO PUSH2 0x81F JUMPI PUSH1 0x0 DUP1 REVERT JUMPDEST POP PUSH2 0x412 PUSH1 0xF SLOAD DUP2 JUMP JUMPDEST CALLVALUE DUP1 ISZERO PUSH2 0x835 JUMPI PUSH1 0x0 DUP1 REVERT JUMPDEST POP PUSH2 0x367 PUSH2 0x19DD JUMP JUMPDEST CALLVALUE DUP1 ISZERO PUSH2 0x84A JUMPI PUSH1 0x0 DUP1 REVERT JUMPDEST POP PUSH2 0x33A PUSH2 0x19EC JUMP JUMPDEST CALLVALUE DUP1 ISZERO PUSH2 0x85F JUMPI PUSH1 0x0 DUP1 REVERT JUMPDEST POP PUSH2 0x412 PUSH2 0x19FB JUMP JUMPDEST CALLVALUE DUP1 ISZERO PUSH2 0x874 JUMPI PUSH1 0x0 DUP1 REVERT JUMPDEST POP PUSH2 0x39F PUSH2 0x883 CALLDATASIZE PUSH1 0x4 PUSH2 0x336E JUMP JUMPDEST PUSH2 0x1A11 JUMP JUMPDEST CALLVALUE DUP1 ISZERO PUSH2 0x894 JUMPI PUSH1 0x0 DUP1 REVERT JUMPDEST POP PUSH2 0x412 PUSH2 0x8A3 CALLDATASIZE PUSH1 0x4 PUSH2 0x32B2 JUMP JUMPDEST PUSH2 0x1B0F JUMP JUMPDEST CALLVALUE DUP1 ISZERO PUSH2 0x8B4 JUMPI PUSH1 0x0 DUP1 REVERT JUMPDEST POP PUSH1 0x14 SLOAD PUSH2 0x412 JUMP JUMPDEST CALLVALUE DUP1 ISZERO PUSH2 0x8C9 JUMPI PUSH1 0x0 DUP1 REVERT JUMPDEST POP PUSH2 0x39F PUSH2 0x8D8 CALLDATASIZE PUSH1 0x4 PUSH2 0x33C2 JUMP JUMPDEST PUSH2 0x1B87 JUMP JUMPDEST CALLVALUE DUP1 ISZERO PUSH2 0x8E9 JUMPI PUSH1 0x0 DUP1 REVERT JUMPDEST POP PUSH2 0x39F PUSH2 0x1BC6 JUMP JUMPDEST CALLVALUE DUP1 ISZERO PUSH2 0x8FE JUMPI PUSH1 0x0 DUP1 REVERT JUMPDEST POP PUSH2 0x92E PUSH2 0x90D CALLDATASIZE PUSH1 0x4 PUSH2 0x3108 JUMP JUMPDEST PUSH1 0x1B SLOAD PUSH1 0x0 SWAP2 DUP3 MSTORE PUSH1 0x1C PUSH1 0x20 MSTORE PUSH1 0x40 SWAP1 SWAP2 KECCAK256 SLOAD PUSH1 0x1 PUSH1 0x1 PUSH1 0xA0 SHL SUB SWAP1 SWAP2 AND SWAP2 JUMP JUMPDEST PUSH1 0x40 DUP1 MLOAD PUSH1 0x1 PUSH1 0x1 PUSH1 0xA0 SHL SUB SWAP1 SWAP4 AND DUP4 MSTORE PUSH1 0x20 DUP4 ADD SWAP2 SWAP1 SWAP2 MSTORE ADD PUSH2 0x31C JUMP JUMPDEST CALLVALUE DUP1 ISZERO PUSH2 0x959 JUMPI PUSH1 0x0 DUP1 REVERT JUMPDEST POP PUSH2 0x39F PUSH2 0x968 CALLDATASIZE PUSH1 0x4 PUSH2 0x32CD JUMP JUMPDEST PUSH2 0x1BDD JUMP JUMPDEST CALLVALUE DUP1 ISZERO PUSH2 0x979 JUMPI PUSH1 0x0 DUP1 REVERT JUMPDEST POP PUSH2 0x33A PUSH2 0x988 CALLDATASIZE PUSH1 0x4 PUSH2 0x3108 JUMP JUMPDEST PUSH2 0x1E03 JUMP JUMPDEST CALLVALUE DUP1 ISZERO PUSH2 0x999 JUMPI PUSH1 0x0 DUP1 REVERT JUMPDEST POP PUSH2 0x33A PUSH2 0x1E3D JUMP JUMPDEST CALLVALUE DUP1 ISZERO PUSH2 0x9AE JUMPI PUSH1 0x0 DUP1 REVERT JUMPDEST POP PUSH2 0x39F PUSH2 0x9BD CALLDATASIZE PUSH1 0x4 PUSH2 0x342A JUMP JUMPDEST PUSH2 0x1E65 JUMP JUMPDEST CALLVALUE DUP1 ISZERO PUSH2 0x9CE JUMPI PUSH1 0x0 DUP1 REVERT JUMPDEST POP PUSH2 0x33A PUSH2 0x2021 JUMP JUMPDEST CALLVALUE DUP1 ISZERO PUSH2 0x9E3 JUMPI PUSH1 0x0 DUP1 REVERT JUMPDEST POP PUSH2 0x310 PUSH2 0x9F2 CALLDATASIZE PUSH1 0x4 PUSH2 0x347A JUMP JUMPDEST PUSH2 0x2035 JUMP JUMPDEST CALLVALUE DUP1 ISZERO PUSH2 0xA03 JUMPI PUSH1 0x0 DUP1 REVERT JUMPDEST POP PUSH1 0xE SLOAD PUSH2 0x412 JUMP JUMPDEST CALLVALUE DUP1 ISZERO PUSH2 0xA18 JUMPI PUSH1 0x0 DUP1 REVERT JUMPDEST POP PUSH2 0x39F PUSH2 0xA27 CALLDATASIZE PUSH1 0x4 PUSH2 0x32B2 JUMP JUMPDEST PUSH2 0x2063 JUMP JUMPDEST PUSH1 0x0 PUSH1 0x1 PUSH1 0x1 PUSH1 0xE0 SHL SUB NOT DUP3 AND PUSH4 0x780E9D63 PUSH1 0xE0 SHL EQ DUP1 PUSH2 0xA51 JUMPI POP PUSH2 0xA51 DUP3 PUSH2 0x21C0 JUMP JUMPDEST SWAP3 SWAP2 POP POP JUMP JUMPDEST PUSH1 0x60 PUSH1 0x0 DUP1 SLOAD PUSH2 0xA66 SWAP1 PUSH2 0x34AD JUMP JUMPDEST DUP1 PUSH1 0x1F ADD PUSH1 0x20 DUP1 SWAP2 DIV MUL PUSH1 0x20 ADD PUSH1 0x40 MLOAD SWAP1 DUP2 ADD PUSH1 0x40 MSTORE DUP1 SWAP3 SWAP2 SWAP1 DUP2 DUP2 MSTORE PUSH1 0x20 ADD DUP3 DUP1 SLOAD PUSH2 0xA92 SWAP1 PUSH2 0x34AD JUMP JUMPDEST DUP1 ISZERO PUSH2 0xADF JUMPI DUP1 PUSH1 0x1F LT PUSH2 0xAB4 JUMPI PUSH2 0x100 DUP1 DUP4 SLOAD DIV MUL DUP4 MSTORE SWAP2 PUSH1 0x20 ADD SWAP2 PUSH2 0xADF JUMP JUMPDEST DUP3 ADD SWAP2 SWAP1 PUSH1 0x0 MSTORE PUSH1 0x20 PUSH1 0x0 KECCAK256 SWAP1 JUMPDEST DUP2 SLOAD DUP2 MSTORE SWAP1 PUSH1 0x1 ADD SWAP1 PUSH1 0x20 ADD DUP1 DUP4 GT PUSH2 0xAC2 JUMPI DUP3 SWAP1 SUB PUSH1 0x1F AND DUP3 ADD SWAP2 JUMPDEST POP POP POP POP POP SWAP1 POP SWAP1 JUMP JUMPDEST PUSH1 0x0 PUSH2 0xAF4 DUP3 PUSH2 0x2210 JUMP JUMPDEST PUSH2 0xB5A JUMPI PUSH1 0x40 MLOAD PUSH3 0x461BCD PUSH1 0xE5 SHL DUP2 MSTORE PUSH1 0x20 PUSH1 0x4 DUP3 ADD MSTORE PUSH1 0x2C PUSH1 0x24 DUP3 ADD MSTORE PUSH32 0x4552433732313A20617070726F76656420717565727920666F72206E6F6E6578 PUSH1 0x44 DUP3 ADD MSTORE PUSH12 0x34B9BA32B73A103A37B5B2B7 PUSH1 0xA1 SHL PUSH1 0x64 DUP3 ADD MSTORE PUSH1 0x84 ADD JUMPDEST PUSH1 0x40 MLOAD DUP1 SWAP2 SUB SWAP1 REVERT JUMPDEST POP PUSH1 0x0 SWAP1 DUP2 MSTORE PUSH1 0x4 PUSH1 0x20 MSTORE PUSH1 0x40 SWAP1 KECCAK256 SLOAD PUSH1 0x1 PUSH1 0x1 PUSH1 0xA0 SHL SUB AND SWAP1 JUMP JUMPDEST PUSH1 0x0 PUSH2 0xB81 DUP3 PUSH2 0x160D JUMP JUMPDEST SWAP1 POP DUP1 PUSH1 0x1 PUSH1 0x1 PUSH1 0xA0 SHL SUB AND DUP4 PUSH1 0x1 PUSH1 0x1 PUSH1 0xA0 SHL SUB AND EQ ISZERO PUSH2 0xBEF JUMPI PUSH1 0x40 MLOAD PUSH3 0x461BCD PUSH1 0xE5 SHL DUP2 MSTORE PUSH1 0x20 PUSH1 0x4 DUP3 ADD MSTORE PUSH1 0x21 PUSH1 0x24 DUP3 ADD MSTORE PUSH32 0x4552433732313A20617070726F76616C20746F2063757272656E74206F776E65 PUSH1 0x44 DUP3 ADD MSTORE PUSH1 0x39 PUSH1 0xF9 SHL PUSH1 0x64 DUP3 ADD MSTORE PUSH1 0x84 ADD PUSH2 0xB51 JUMP JUMPDEST DUP1 PUSH1 0x1 PUSH1 0x1 PUSH1 0xA0 SHL SUB AND PUSH2 0xC01 PUSH2 0x222D JUMP JUMPDEST PUSH1 0x1 PUSH1 0x1 PUSH1 0xA0 SHL SUB AND EQ DUP1 PUSH2 0xC1D JUMPI POP PUSH2 0xC1D DUP2 PUSH2 0x9F2 PUSH2 0x222D JUMP JUMPDEST PUSH2 0xC8A JUMPI PUSH1 0x40 MLOAD PUSH3 0x461BCD PUSH1 0xE5 SHL DUP2 MSTORE PUSH1 0x20 PUSH1 0x4 DUP3 ADD MSTORE PUSH1 0x38 PUSH1 0x24 DUP3 ADD MSTORE PUSH32 0x4552433732313A20617070726F76652063616C6C6572206973206E6F74206F77 PUSH1 0x44 DUP3 ADD MSTORE PUSH24 0x1B995C881B9BDC88185C1C1C9BDD995908199BDC88185B1B PUSH1 0x42 SHL PUSH1 0x64 DUP3 ADD MSTORE PUSH1 0x84 ADD PUSH2 0xB51 JUMP JUMPDEST PUSH2 0xC94 DUP4 DUP4 PUSH2 0x2237 JUMP JUMPDEST POP POP POP JUMP JUMPDEST PUSH1 0x40 DUP1 MLOAD PUSH1 0x60 DUP2 DUP2 ADD DUP4 MSTORE PUSH1 0x1 PUSH1 0x1 PUSH1 0xA0 SHL SUB DUP9 AND PUSH1 0x0 DUP2 DUP2 MSTORE PUSH1 0xC PUSH1 0x20 SWAP1 DUP2 MSTORE SWAP1 DUP6 SWAP1 KECCAK256 SLOAD DUP5 MSTORE DUP4 ADD MSTORE SWAP2 DUP2 ADD DUP7 SWAP1 MSTORE PUSH2 0xCD7 DUP8 DUP3 DUP8 DUP8 DUP8 PUSH2 0x22A5 JUMP JUMPDEST PUSH2 0xD2D JUMPI PUSH1 0x40 MLOAD PUSH3 0x461BCD PUSH1 0xE5 SHL DUP2 MSTORE PUSH1 0x20 PUSH1 0x4 DUP3 ADD MSTORE PUSH1 0x21 PUSH1 0x24 DUP3 ADD MSTORE PUSH32 0x5369676E657220616E64207369676E617475726520646F206E6F74206D617463 PUSH1 0x44 DUP3 ADD MSTORE PUSH1 0xD PUSH1 0xFB SHL PUSH1 0x64 DUP3 ADD MSTORE PUSH1 0x84 ADD PUSH2 0xB51 JUMP JUMPDEST PUSH1 0x1 PUSH1 0x1 PUSH1 0xA0 SHL SUB DUP8 AND PUSH1 0x0 SWAP1 DUP2 MSTORE PUSH1 0xC PUSH1 0x20 MSTORE PUSH1 0x40 SWAP1 KECCAK256 SLOAD PUSH2 0xD51 SWAP1 PUSH1 0x1 PUSH2 0x2395 JUMP JUMPDEST PUSH1 0x1 PUSH1 0x1 PUSH1 0xA0 SHL SUB DUP9 AND PUSH1 0x0 SWAP1 DUP2 MSTORE PUSH1 0xC PUSH1 0x20 MSTORE PUSH1 0x40 SWAP1 DUP2 SWAP1 KECCAK256 SWAP2 SWAP1 SWAP2 SSTORE MLOAD PUSH32 0x5845892132946850460BFF5A0083F71031BC5BF9AADCD40F1DE79423EAC9B10B SWAP1 PUSH2 0xDA1 SWAP1 DUP10 SWAP1 CALLER SWAP1 DUP11 SWAP1 PUSH2 0x34E8 JUMP JUMPDEST PUSH1 0x40 MLOAD DUP1 SWAP2 SUB SWAP1 LOG1 PUSH1 0x0 DUP1 ADDRESS PUSH1 0x1 PUSH1 0x1 PUSH1 0xA0 SHL SUB AND DUP9 DUP11 PUSH1 0x40 MLOAD PUSH1 0x20 ADD PUSH2 0xDC9 SWAP3 SWAP2 SWAP1 PUSH2 0x351D JUMP JUMPDEST PUSH1 0x40 DUP1 MLOAD PUSH1 0x1F NOT DUP2 DUP5 SUB ADD DUP2 MSTORE SWAP1 DUP3 SWAP1 MSTORE PUSH2 0xDE3 SWAP2 PUSH2 0x3554 JUMP JUMPDEST PUSH1 0x0 PUSH1 0x40 MLOAD DUP1 DUP4 SUB DUP2 PUSH1 0x0 DUP7 GAS CALL SWAP2 POP POP RETURNDATASIZE DUP1 PUSH1 0x0 DUP2 EQ PUSH2 0xE20 JUMPI PUSH1 0x40 MLOAD SWAP2 POP PUSH1 0x1F NOT PUSH1 0x3F RETURNDATASIZE ADD AND DUP3 ADD PUSH1 0x40 MSTORE RETURNDATASIZE DUP3 MSTORE RETURNDATASIZE PUSH1 0x0 PUSH1 0x20 DUP5 ADD RETURNDATACOPY PUSH2 0xE25 JUMP JUMPDEST PUSH1 0x60 SWAP2 POP JUMPDEST POP SWAP2 POP SWAP2 POP DUP2 PUSH2 0xE77 JUMPI PUSH1 0x40 MLOAD PUSH3 0x461BCD PUSH1 0xE5 SHL DUP2 MSTORE PUSH1 0x20 PUSH1 0x4 DUP3 ADD MSTORE PUSH1 0x1C PUSH1 0x24 DUP3 ADD MSTORE PUSH32 0x46756E6374696F6E2063616C6C206E6F74207375636365737366756C00000000 PUSH1 0x44 DUP3 ADD MSTORE PUSH1 0x64 ADD PUSH2 0xB51 JUMP JUMPDEST SWAP9 SWAP8 POP POP POP POP POP POP POP POP JUMP JUMPDEST PUSH2 0xE8B PUSH2 0x19DD JUMP JUMPDEST PUSH1 0x1 PUSH1 0x1 PUSH1 0xA0 SHL SUB AND PUSH2 0xE9C PUSH2 0x2163 JUMP JUMPDEST PUSH1 0x1 PUSH1 0x1 PUSH1 0xA0 SHL SUB AND EQ DUP1 PUSH2 0xEC6 JUMPI POP PUSH2 0xEB4 PUSH2 0x2163 JUMP JUMPDEST PUSH1 0x10 SLOAD PUSH1 0x1 PUSH1 0x1 PUSH1 0xA0 SHL SUB SWAP1 DUP2 AND SWAP2 AND EQ JUMPDEST PUSH2 0xECF JUMPI PUSH1 0x0 DUP1 REVERT JUMPDEST PUSH1 0x15 SSTORE JUMP JUMPDEST PUSH1 0x2 PUSH1 0x11 SLOAD EQ ISZERO PUSH2 0xEF7 JUMPI PUSH1 0x40 MLOAD PUSH3 0x461BCD PUSH1 0xE5 SHL DUP2 MSTORE PUSH1 0x4 ADD PUSH2 0xB51 SWAP1 PUSH2 0x3570 JUMP JUMPDEST PUSH1 0x2 PUSH1 0x11 SSTORE PUSH1 0x1A SLOAD PUSH1 0x0 SWAP1 PUSH1 0x1 PUSH1 0x1 PUSH1 0xA0 SHL SUB AND PUSH4 0xDD62ED3E PUSH2 0xF18 PUSH2 0x2163 JUMP JUMPDEST PUSH1 0x40 MLOAD PUSH1 0x1 PUSH1 0x1 PUSH1 0xE0 SHL SUB NOT PUSH1 0xE0 DUP5 SWAP1 SHL AND DUP2 MSTORE PUSH1 0x1 PUSH1 0x1 PUSH1 0xA0 SHL SUB SWAP1 SWAP2 AND PUSH1 0x4 DUP3 ADD MSTORE ADDRESS PUSH1 0x24 DUP3 ADD MSTORE PUSH1 0x44 ADD PUSH1 0x20 PUSH1 0x40 MLOAD DUP1 DUP4 SUB DUP2 DUP7 DUP1 EXTCODESIZE ISZERO DUP1 ISZERO PUSH2 0xF5D JUMPI PUSH1 0x0 DUP1 REVERT JUMPDEST POP GAS STATICCALL ISZERO DUP1 ISZERO PUSH2 0xF71 JUMPI RETURNDATASIZE PUSH1 0x0 DUP1 RETURNDATACOPY RETURNDATASIZE PUSH1 0x0 REVERT JUMPDEST POP POP POP POP PUSH1 0x40 MLOAD RETURNDATASIZE PUSH1 0x1F NOT PUSH1 0x1F DUP3 ADD AND DUP3 ADD DUP1 PUSH1 0x40 MSTORE POP DUP2 ADD SWAP1 PUSH2 0xF95 SWAP2 SWAP1 PUSH2 0x35A7 JUMP JUMPDEST SWAP1 POP DUP3 DUP2 LT ISZERO PUSH2 0xFD5 JUMPI PUSH1 0x40 MLOAD PUSH3 0x461BCD PUSH1 0xE5 SHL DUP2 MSTORE PUSH1 0x20 PUSH1 0x4 DUP3 ADD MSTORE PUSH1 0xB PUSH1 0x24 DUP3 ADD MSTORE PUSH11 0x66696C6C47617354616E6B PUSH1 0xA8 SHL PUSH1 0x44 DUP3 ADD MSTORE PUSH1 0x64 ADD PUSH2 0xB51 JUMP JUMPDEST PUSH2 0xFDF DUP3 DUP5 PUSH2 0x35D6 JUMP JUMPDEST PUSH1 0x0 DUP6 DUP2 MSTORE PUSH1 0x18 PUSH1 0x20 MSTORE PUSH1 0x40 DUP2 KECCAK256 DUP1 SLOAD SWAP1 SWAP2 SWAP1 PUSH2 0xFFD SWAP1 DUP5 SWAP1 PUSH2 0x35ED JUMP JUMPDEST SWAP1 SWAP2 SSTORE POP POP PUSH1 0x0 DUP5 DUP2 MSTORE PUSH1 0x19 PUSH1 0x20 MSTORE PUSH1 0x40 DUP2 KECCAK256 DUP1 SLOAD DUP5 SWAP3 SWAP1 PUSH2 0x1020 SWAP1 DUP5 SWAP1 PUSH2 0x35ED JUMP JUMPDEST SWAP1 SWAP2 SSTORE POP PUSH2 0x1045 SWAP1 POP PUSH2 0x1031 PUSH2 0x2163 JUMP JUMPDEST PUSH1 0x1A SLOAD PUSH1 0x1 PUSH1 0x1 PUSH1 0xA0 SHL SUB AND SWAP1 ADDRESS DUP7 PUSH2 0x23A8 JUMP JUMPDEST POP POP PUSH1 0x1 PUSH1 0x11 SSTORE POP POP JUMP JUMPDEST PUSH1 0x1 PUSH1 0x1 PUSH1 0xA0 SHL SUB DUP2 AND PUSH2 0x1076 JUMPI PUSH1 0x40 MLOAD PUSH3 0x461BCD PUSH1 0xE5 SHL DUP2 MSTORE PUSH1 0x4 ADD PUSH2 0xB51 SWAP1 PUSH2 0x3605 JUMP JUMPDEST PUSH2 0x107E PUSH2 0x19DD JUMP JUMPDEST PUSH1 0x1 PUSH1 0x1 PUSH1 0xA0 SHL SUB AND PUSH2 0x108F PUSH2 0x2163 JUMP JUMPDEST PUSH1 0x1 PUSH1 0x1 PUSH1 0xA0 SHL SUB AND EQ DUP1 PUSH2 0x10B9 JUMPI POP PUSH2 0x10A7 PUSH2 0x2163 JUMP JUMPDEST PUSH1 0x10 SLOAD PUSH1 0x1 PUSH1 0x1 PUSH1 0xA0 SHL SUB SWAP1 DUP2 AND SWAP2 AND EQ JUMPDEST PUSH2 0x10C2 JUMPI PUSH1 0x0 DUP1 REVERT JUMPDEST PUSH1 0x1A DUP1 SLOAD PUSH1 0x1 PUSH1 0x1 PUSH1 0xA0 SHL SUB NOT AND PUSH1 0x1 PUSH1 0x1 PUSH1 0xA0 SHL SUB SWAP3 SWAP1 SWAP3 AND SWAP2 SWAP1 SWAP2 OR SWAP1 SSTORE JUMP JUMPDEST PUSH2 0x10F5 PUSH2 0x10EF PUSH2 0x222D JUMP JUMPDEST DUP3 PUSH2 0x2400 JUMP JUMPDEST PUSH2 0x1111 JUMPI PUSH1 0x40 MLOAD PUSH3 0x461BCD PUSH1 0xE5 SHL DUP2 MSTORE PUSH1 0x4 ADD PUSH2 0xB51 SWAP1 PUSH2 0x362E JUMP JUMPDEST PUSH2 0xC94 DUP4 DUP4 DUP4 PUSH2 0x24CA JUMP JUMPDEST PUSH1 0x0 PUSH2 0x1127 DUP4 PUSH2 0x1762 JUMP JUMPDEST DUP3 LT PUSH2 0x1189 JUMPI PUSH1 0x40 MLOAD PUSH3 0x461BCD PUSH1 0xE5 SHL DUP2 MSTORE PUSH1 0x20 PUSH1 0x4 DUP3 ADD MSTORE PUSH1 0x2B PUSH1 0x24 DUP3 ADD MSTORE PUSH32 0x455243373231456E756D657261626C653A206F776E657220696E646578206F75 PUSH1 0x44 DUP3 ADD MSTORE PUSH11 0x74206F6620626F756E6473 PUSH1 0xA8 SHL PUSH1 0x64 DUP3 ADD MSTORE PUSH1 0x84 ADD PUSH2 0xB51 JUMP JUMPDEST POP PUSH1 0x1 PUSH1 0x1 PUSH1 0xA0 SHL SUB SWAP2 SWAP1 SWAP2 AND PUSH1 0x0 SWAP1 DUP2 MSTORE PUSH1 0x6 PUSH1 0x20 SWAP1 DUP2 MSTORE PUSH1 0x40 DUP1 DUP4 KECCAK256 SWAP4 DUP4 MSTORE SWAP3 SWAP1 MSTORE KECCAK256 SLOAD SWAP1 JUMP JUMPDEST CALLER PUSH1 0x0 SWAP1 DUP2 MSTORE PUSH1 0x1E PUSH1 0x20 MSTORE PUSH1 0x40 SWAP1 KECCAK256 SLOAD PUSH1 0xFF AND PUSH2 0x11CE JUMPI PUSH1 0x0 DUP1 REVERT JUMPDEST PUSH2 0x11D7 DUP2 PUSH2 0x2663 JUMP JUMPDEST POP JUMP JUMPDEST PUSH2 0x11E2 PUSH2 0x19DD JUMP JUMPDEST PUSH1 0x1 PUSH1 0x1 PUSH1 0xA0 SHL SUB AND PUSH2 0x11F3 PUSH2 0x2163 JUMP JUMPDEST PUSH1 0x1 PUSH1 0x1 PUSH1 0xA0 SHL SUB AND EQ DUP1 PUSH2 0x1222 JUMPI POP PUSH1 0x10 SLOAD PUSH1 0x1 PUSH1 0x1 PUSH1 0xA0 SHL SUB AND PUSH2 0x1217 PUSH2 0x2163 JUMP JUMPDEST PUSH1 0x1 PUSH1 0x1 PUSH1 0xA0 SHL SUB AND EQ JUMPDEST PUSH2 0x122B JUMPI PUSH1 0x0 DUP1 REVERT JUMPDEST PUSH1 0x63 PUSH1 0x16 SLOAD GT ISZERO PUSH2 0x1275 JUMPI PUSH1 0x40 MLOAD PUSH3 0x461BCD PUSH1 0xE5 SHL DUP2 MSTORE PUSH1 0x20 PUSH1 0x4 DUP3 ADD MSTORE PUSH1 0x14 PUSH1 0x24 DUP3 ADD MSTORE PUSH20 0x2132903132BA3BB2B2B710181030B732101C9C97 PUSH1 0x61 SHL PUSH1 0x44 DUP3 ADD MSTORE PUSH1 0x64 ADD PUSH2 0xB51 JUMP JUMPDEST PUSH1 0x16 SSTORE JUMP JUMPDEST PUSH2 0xC94 DUP4 DUP4 DUP4 PUSH1 0x40 MLOAD DUP1 PUSH1 0x20 ADD PUSH1 0x40 MSTORE DUP1 PUSH1 0x0 DUP2 MSTORE POP PUSH2 0x1B87 JUMP JUMPDEST PUSH1 0x13 SLOAD PUSH1 0xFF AND PUSH2 0x12E7 JUMPI PUSH1 0x40 MLOAD PUSH3 0x461BCD PUSH1 0xE5 SHL DUP2 MSTORE PUSH1 0x20 PUSH1 0x4 DUP3 ADD MSTORE PUSH1 0x1B PUSH1 0x24 DUP3 ADD MSTORE PUSH32 0x596F752063616E2774206275726E20746869732E2E2E207965743F0000000000 PUSH1 0x44 DUP3 ADD MSTORE PUSH1 0x64 ADD PUSH2 0xB51 JUMP JUMPDEST PUSH2 0x12F2 PUSH2 0x10EF PUSH2 0x222D JUMP JUMPDEST DUP1 PUSH2 0x1312 JUMPI POP PUSH2 0x1300 PUSH2 0x2163 JUMP JUMPDEST PUSH1 0x10 SLOAD PUSH1 0x1 PUSH1 0x1 PUSH1 0xA0 SHL SUB SWAP1 DUP2 AND SWAP2 AND EQ JUMPDEST PUSH2 0x11CE JUMPI PUSH1 0x40 MLOAD PUSH3 0x461BCD PUSH1 0xE5 SHL DUP2 MSTORE PUSH1 0x20 PUSH1 0x4 DUP3 ADD DUP2 SWAP1 MSTORE PUSH1 0x24 DUP3 ADD MSTORE PUSH32 0x43616C6C6572206973206E6F74206F776E6572206E6F7220617070726F766564 PUSH1 0x44 DUP3 ADD MSTORE PUSH1 0x64 ADD PUSH2 0xB51 JUMP JUMPDEST CALLER PUSH1 0x0 SWAP1 DUP2 MSTORE PUSH1 0x1E PUSH1 0x20 MSTORE PUSH1 0x40 SWAP1 KECCAK256 SLOAD PUSH1 0xFF AND DUP1 PUSH2 0x1391 JUMPI POP PUSH2 0x137F PUSH2 0x2163 JUMP JUMPDEST PUSH1 0x10 SLOAD PUSH1 0x1 PUSH1 0x1 PUSH1 0xA0 SHL SUB SWAP1 DUP2 AND SWAP2 AND EQ JUMPDEST PUSH2 0x139A JUMPI PUSH1 0x0 DUP1 REVERT JUMPDEST PUSH1 0x0 SWAP2 DUP3 MSTORE PUSH1 0x1C PUSH1 0x20 SWAP1 DUP2 MSTORE PUSH1 0x40 DUP1 DUP5 KECCAK256 SWAP3 SWAP1 SWAP3 SSTORE PUSH1 0x1D SWAP1 MSTORE SWAP1 KECCAK256 DUP1 SLOAD PUSH1 0xFF NOT AND SWAP1 SSTORE JUMP JUMPDEST PUSH1 0x0 PUSH2 0x13CA PUSH1 0x8 SLOAD SWAP1 JUMP JUMPDEST DUP3 LT PUSH2 0x142D JUMPI PUSH1 0x40 MLOAD PUSH3 0x461BCD PUSH1 0xE5 SHL DUP2 MSTORE PUSH1 0x20 PUSH1 0x4 DUP3 ADD MSTORE PUSH1 0x2C PUSH1 0x24 DUP3 ADD MSTORE PUSH32 0x455243373231456E756D657261626C653A20676C6F62616C20696E646578206F PUSH1 0x44 DUP3 ADD MSTORE PUSH12 0x7574206F6620626F756E6473 PUSH1 0xA0 SHL PUSH1 0x64 DUP3 ADD MSTORE PUSH1 0x84 ADD PUSH2 0xB51 JUMP JUMPDEST PUSH1 0x8 DUP3 DUP2 SLOAD DUP2 LT PUSH2 0x1440 JUMPI PUSH2 0x1440 PUSH2 0x367F JUMP JUMPDEST SWAP1 PUSH1 0x0 MSTORE PUSH1 0x20 PUSH1 0x0 KECCAK256 ADD SLOAD SWAP1 POP SWAP2 SWAP1 POP JUMP JUMPDEST PUSH1 0x1 PUSH1 0x1 PUSH1 0xA0 SHL SUB DUP2 AND PUSH2 0x1478 JUMPI PUSH1 0x40 MLOAD PUSH3 0x461BCD PUSH1 0xE5 SHL DUP2 MSTORE PUSH1 0x4 ADD PUSH2 0xB51 SWAP1 PUSH2 0x3605 JUMP JUMPDEST PUSH2 0x1480 PUSH2 0x19DD JUMP JUMPDEST PUSH1 0x1 PUSH1 0x1 PUSH1 0xA0 SHL SUB AND PUSH2 0x1491 PUSH2 0x2163 JUMP JUMPDEST PUSH1 0x1 PUSH1 0x1 PUSH1 0xA0 SHL SUB AND EQ DUP1 PUSH2 0x14BB JUMPI POP PUSH2 0x14A9 PUSH2 0x2163 JUMP JUMPDEST PUSH1 0x10 SLOAD PUSH1 0x1 PUSH1 0x1 PUSH1 0xA0 SHL SUB SWAP1 DUP2 AND SWAP2 AND EQ JUMPDEST PUSH2 0x152D JUMPI PUSH1 0x40 MLOAD PUSH3 0x461BCD PUSH1 0xE5 SHL DUP2 MSTORE PUSH1 0x20 PUSH1 0x4 DUP3 ADD MSTORE PUSH1 0x3B PUSH1 0x24 DUP3 ADD MSTORE PUSH32 0x4F6E6C7920746865206F776E6572206F7220726567697374657279206D617920 PUSH1 0x44 DUP3 ADD MSTORE PUSH32 0x6368616E6765207468652072657761726420636F6E74726163742E0000000000 PUSH1 0x64 DUP3 ADD MSTORE PUSH1 0x84 ADD PUSH2 0xB51 JUMP JUMPDEST PUSH1 0x1B DUP1 SLOAD PUSH1 0x1 PUSH1 0x1 PUSH1 0xA0 SHL SUB NOT AND PUSH1 0x1 PUSH1 0x1 PUSH1 0xA0 SHL SUB SWAP3 SWAP1 SWAP3 AND SWAP2 SWAP1 SWAP2 OR SWAP1 SSTORE JUMP JUMPDEST PUSH2 0x1557 PUSH2 0x19DD JUMP JUMPDEST PUSH1 0x1 PUSH1 0x1 PUSH1 0xA0 SHL SUB AND PUSH2 0x1568 PUSH2 0x2163 JUMP JUMPDEST PUSH1 0x1 PUSH1 0x1 PUSH1 0xA0 SHL SUB AND EQ DUP1 PUSH2 0x1597 JUMPI POP PUSH1 0x10 SLOAD PUSH1 0x1 PUSH1 0x1 PUSH1 0xA0 SHL SUB AND PUSH2 0x158C PUSH2 0x2163 JUMP JUMPDEST PUSH1 0x1 PUSH1 0x1 PUSH1 0xA0 SHL SUB AND EQ JUMPDEST PUSH2 0x15A0 JUMPI PUSH1 0x0 DUP1 REVERT JUMPDEST PUSH1 0xF SSTORE JUMP JUMPDEST PUSH2 0x15AD PUSH2 0x19DD JUMP JUMPDEST PUSH1 0x1 PUSH1 0x1 PUSH1 0xA0 SHL SUB AND PUSH2 0x15BE PUSH2 0x2163 JUMP JUMPDEST PUSH1 0x1 PUSH1 0x1 PUSH1 0xA0 SHL SUB AND EQ DUP1 PUSH2 0x15ED JUMPI POP PUSH1 0x10 SLOAD PUSH1 0x1 PUSH1 0x1 PUSH1 0xA0 SHL SUB AND PUSH2 0x15E2 PUSH2 0x2163 JUMP JUMPDEST PUSH1 0x1 PUSH1 0x1 PUSH1 0xA0 SHL SUB AND EQ JUMPDEST PUSH2 0x15F6 JUMPI PUSH1 0x0 DUP1 REVERT JUMPDEST DUP1 MLOAD PUSH2 0x1609 SWAP1 PUSH1 0x12 SWAP1 PUSH1 0x20 DUP5 ADD SWAP1 PUSH2 0x2FD1 JUMP JUMPDEST POP POP JUMP JUMPDEST PUSH1 0x0 DUP2 DUP2 MSTORE PUSH1 0x2 PUSH1 0x20 MSTORE PUSH1 0x40 DUP2 KECCAK256 SLOAD PUSH1 0x1 PUSH1 0x1 PUSH1 0xA0 SHL SUB AND DUP1 PUSH2 0xA51 JUMPI PUSH1 0x40 MLOAD PUSH3 0x461BCD PUSH1 0xE5 SHL DUP2 MSTORE PUSH1 0x20 PUSH1 0x4 DUP3 ADD MSTORE PUSH1 0x29 PUSH1 0x24 DUP3 ADD MSTORE PUSH32 0x4552433732313A206F776E657220717565727920666F72206E6F6E6578697374 PUSH1 0x44 DUP3 ADD MSTORE PUSH9 0x32B73A103A37B5B2B7 PUSH1 0xB9 SHL PUSH1 0x64 DUP3 ADD MSTORE PUSH1 0x84 ADD PUSH2 0xB51 JUMP JUMPDEST PUSH2 0x168C PUSH2 0x19DD JUMP JUMPDEST PUSH1 0x1 PUSH1 0x1 PUSH1 0xA0 SHL SUB AND PUSH2 0x169D PUSH2 0x2163 JUMP JUMPDEST PUSH1 0x1 PUSH1 0x1 PUSH1 0xA0 SHL SUB AND EQ DUP1 PUSH2 0x16C7 JUMPI POP PUSH2 0x16B5 PUSH2 0x2163 JUMP JUMPDEST PUSH1 0x10 SLOAD PUSH1 0x1 PUSH1 0x1 PUSH1 0xA0 SHL SUB SWAP1 DUP2 AND SWAP2 AND EQ JUMPDEST PUSH2 0x16D0 JUMPI PUSH1 0x0 DUP1 REVERT JUMPDEST PUSH1 0x14 SSTORE JUMP JUMPDEST PUSH1 0x1 PUSH1 0x1 PUSH1 0xA0 SHL SUB DUP3 AND PUSH2 0x16FB JUMPI PUSH1 0x40 MLOAD PUSH3 0x461BCD PUSH1 0xE5 SHL DUP2 MSTORE PUSH1 0x4 ADD PUSH2 0xB51 SWAP1 PUSH2 0x3605 JUMP JUMPDEST PUSH2 0x1703 PUSH2 0x2163 JUMP JUMPDEST PUSH1 0x10 SLOAD PUSH1 0x1 PUSH1 0x1 PUSH1 0xA0 SHL SUB SWAP1 DUP2 AND SWAP2 AND EQ DUP1 PUSH2 0x172E JUMPI POP CALLER PUSH1 0x0 SWAP1 DUP2 MSTORE PUSH1 0x1E PUSH1 0x20 MSTORE PUSH1 0x40 SWAP1 KECCAK256 SLOAD PUSH1 0xFF AND JUMPDEST PUSH2 0x1737 JUMPI PUSH1 0x0 DUP1 REVERT JUMPDEST PUSH1 0x1 PUSH1 0x1 PUSH1 0xA0 SHL SUB SWAP2 SWAP1 SWAP2 AND PUSH1 0x0 SWAP1 DUP2 MSTORE PUSH1 0x1E PUSH1 0x20 MSTORE PUSH1 0x40 SWAP1 KECCAK256 DUP1 SLOAD PUSH1 0xFF NOT AND SWAP2 ISZERO ISZERO SWAP2 SWAP1 SWAP2 OR SWAP1 SSTORE JUMP JUMPDEST PUSH1 0x0 PUSH1 0x1 PUSH1 0x1 PUSH1 0xA0 SHL SUB DUP3 AND PUSH2 0x17CD JUMPI PUSH1 0x40 MLOAD PUSH3 0x461BCD PUSH1 0xE5 SHL DUP2 MSTORE PUSH1 0x20 PUSH1 0x4 DUP3 ADD MSTORE PUSH1 0x2A PUSH1 0x24 DUP3 ADD MSTORE PUSH32 0x4552433732313A2062616C616E636520717565727920666F7220746865207A65 PUSH1 0x44 DUP3 ADD MSTORE PUSH10 0x726F2061646472657373 PUSH1 0xB0 SHL PUSH1 0x64 DUP3 ADD MSTORE PUSH1 0x84 ADD PUSH2 0xB51 JUMP JUMPDEST POP PUSH1 0x1 PUSH1 0x1 PUSH1 0xA0 SHL SUB AND PUSH1 0x0 SWAP1 DUP2 MSTORE PUSH1 0x3 PUSH1 0x20 MSTORE PUSH1 0x40 SWAP1 KECCAK256 SLOAD SWAP1 JUMP JUMPDEST PUSH2 0x17F1 PUSH2 0x222D JUMP JUMPDEST PUSH1 0x1 PUSH1 0x1 PUSH1 0xA0 SHL SUB AND PUSH2 0x1802 PUSH2 0x19DD JUMP JUMPDEST PUSH1 0x1 PUSH1 0x1 PUSH1 0xA0 SHL SUB AND EQ PUSH2 0x1828 JUMPI PUSH1 0x40 MLOAD PUSH3 0x461BCD PUSH1 0xE5 SHL DUP2 MSTORE PUSH1 0x4 ADD PUSH2 0xB51 SWAP1 PUSH2 0x3695 JUMP JUMPDEST PUSH1 0xD SLOAD PUSH1 0x40 MLOAD PUSH1 0x0 SWAP2 PUSH1 0x1 PUSH1 0x1 PUSH1 0xA0 SHL SUB AND SWAP1 PUSH32 0x8BE0079C531659141344CD1FD0A4F28419497F9722A3DAAFE3B4186F6B6457E0 SWAP1 DUP4 SWAP1 LOG3 PUSH1 0xD DUP1 SLOAD PUSH1 0x1 PUSH1 0x1 PUSH1 0xA0 SHL SUB NOT AND SWAP1 SSTORE JUMP JUMPDEST PUSH1 0x0 PUSH2 0x187C PUSH2 0x19DD JUMP JUMPDEST PUSH1 0x1 PUSH1 0x1 PUSH1 0xA0 SHL SUB AND PUSH2 0x188D PUSH2 0x2163 JUMP JUMPDEST PUSH1 0x1 PUSH1 0x1 PUSH1 0xA0 SHL SUB AND EQ DUP1 PUSH2 0x18BC JUMPI POP PUSH1 0x10 SLOAD PUSH1 0x1 PUSH1 0x1 PUSH1 0xA0 SHL SUB AND PUSH2 0x18B1 PUSH2 0x2163 JUMP JUMPDEST PUSH1 0x1 PUSH1 0x1 PUSH1 0xA0 SHL SUB AND EQ JUMPDEST PUSH2 0x191C JUMPI PUSH1 0x40 MLOAD PUSH3 0x461BCD PUSH1 0xE5 SHL DUP2 MSTORE PUSH1 0x20 PUSH1 0x4 DUP3 ADD MSTORE PUSH1 0x2B PUSH1 0x24 DUP3 ADD MSTORE PUSH32 0x4F6E6C79206F776E657220616E64206D61726B6574706C6163652063616E206D PUSH1 0x44 DUP3 ADD MSTORE PUSH11 0x34B73A103A37B5B2B73997 PUSH1 0xA9 SHL PUSH1 0x64 DUP3 ADD MSTORE PUSH1 0x84 ADD PUSH2 0xB51 JUMP JUMPDEST PUSH1 0xF SLOAD PUSH2 0x1927 PUSH2 0x19FB JUMP JUMPDEST LT PUSH2 0x196D JUMPI PUSH1 0x40 MLOAD PUSH3 0x461BCD PUSH1 0xE5 SHL DUP2 MSTORE PUSH1 0x20 PUSH1 0x4 DUP3 ADD MSTORE PUSH1 0x16 PUSH1 0x24 DUP3 ADD MSTORE PUSH22 0x20B63932B0B23C9030BA1036B0BC103A37B5B2B73997 PUSH1 0x51 SHL PUSH1 0x44 DUP3 ADD MSTORE PUSH1 0x64 ADD PUSH2 0xB51 JUMP JUMPDEST PUSH1 0x0 PUSH2 0x1977 PUSH2 0x19FB JUMP JUMPDEST SWAP1 POP PUSH2 0x1983 DUP4 DUP3 PUSH2 0x26F8 JUMP JUMPDEST PUSH2 0xA51 PUSH2 0x1BC6 JUMP JUMPDEST PUSH2 0x1993 PUSH2 0x222D JUMP JUMPDEST PUSH1 0x1 PUSH1 0x1 PUSH1 0xA0 SHL SUB AND PUSH2 0x19A4 PUSH2 0x19DD JUMP JUMPDEST PUSH1 0x1 PUSH1 0x1 PUSH1 0xA0 SHL SUB AND EQ PUSH2 0x19CA JUMPI PUSH1 0x40 MLOAD PUSH3 0x461BCD PUSH1 0xE5 SHL DUP2 MSTORE PUSH1 0x4 ADD PUSH2 0xB51 SWAP1 PUSH2 0x3695 JUMP JUMPDEST PUSH1 0x13 DUP1 SLOAD PUSH1 0xFF NOT AND SWAP2 ISZERO ISZERO SWAP2 SWAP1 SWAP2 OR SWAP1 SSTORE JUMP JUMPDEST PUSH1 0xD SLOAD PUSH1 0x1 PUSH1 0x1 PUSH1 0xA0 SHL SUB AND SWAP1 JUMP JUMPDEST PUSH1 0x60 PUSH1 0x1 DUP1 SLOAD PUSH2 0xA66 SWAP1 PUSH2 0x34AD JUMP JUMPDEST PUSH1 0xE SLOAD PUSH1 0x0 SWAP1 PUSH2 0x1A0C SWAP1 PUSH1 0x1 PUSH2 0x2395 JUMP JUMPDEST SWAP1 POP SWAP1 JUMP JUMPDEST PUSH2 0x1A19 PUSH2 0x222D JUMP JUMPDEST PUSH1 0x1 PUSH1 0x1 PUSH1 0xA0 SHL SUB AND DUP3 PUSH1 0x1 PUSH1 0x1 PUSH1 0xA0 SHL SUB AND EQ ISZERO PUSH2 0x1A76 JUMPI PUSH1 0x40 MLOAD PUSH3 0x461BCD PUSH1 0xE5 SHL DUP2 MSTORE PUSH1 0x20 PUSH1 0x4 DUP3 ADD MSTORE PUSH1 0x19 PUSH1 0x24 DUP3 ADD MSTORE PUSH25 0x22A9219B99189D1030B8383937BB32903A379031B0B63632B9 PUSH1 0x39 SHL PUSH1 0x44 DUP3 ADD MSTORE PUSH1 0x64 ADD PUSH2 0xB51 JUMP JUMPDEST DUP1 PUSH1 0x5 PUSH1 0x0 PUSH2 0x1A83 PUSH2 0x222D JUMP JUMPDEST PUSH1 0x1 PUSH1 0x1 PUSH1 0xA0 SHL SUB SWAP1 DUP2 AND DUP3 MSTORE PUSH1 0x20 DUP1 DUP4 ADD SWAP4 SWAP1 SWAP4 MSTORE PUSH1 0x40 SWAP2 DUP3 ADD PUSH1 0x0 SWAP1 DUP2 KECCAK256 SWAP2 DUP8 AND DUP1 DUP3 MSTORE SWAP2 SWAP1 SWAP4 MSTORE SWAP2 KECCAK256 DUP1 SLOAD PUSH1 0xFF NOT AND SWAP3 ISZERO ISZERO SWAP3 SWAP1 SWAP3 OR SWAP1 SWAP2 SSTORE PUSH2 0x1AC7 PUSH2 0x222D JUMP JUMPDEST PUSH1 0x1 PUSH1 0x1 PUSH1 0xA0 SHL SUB AND PUSH32 0x17307EAB39AB6107E8899845AD3D59BD9653F200F220920489CA2B5937696C31 DUP4 PUSH1 0x40 MLOAD PUSH2 0x1B03 SWAP2 ISZERO ISZERO DUP2 MSTORE PUSH1 0x20 ADD SWAP1 JUMP JUMPDEST PUSH1 0x40 MLOAD DUP1 SWAP2 SUB SWAP1 LOG3 POP POP JUMP JUMPDEST CALLER PUSH1 0x0 SWAP1 DUP2 MSTORE PUSH1 0x1E PUSH1 0x20 MSTORE PUSH1 0x40 DUP2 KECCAK256 SLOAD PUSH1 0xFF AND PUSH2 0x1B3E JUMPI PUSH1 0x40 MLOAD PUSH3 0x461BCD PUSH1 0xE5 SHL DUP2 MSTORE PUSH1 0x4 ADD PUSH2 0xB51 SWAP1 PUSH2 0x36CA JUMP JUMPDEST PUSH1 0xF SLOAD PUSH2 0x1B49 PUSH2 0x19FB JUMP JUMPDEST LT PUSH2 0x196D JUMPI PUSH1 0x40 MLOAD PUSH3 0x461BCD PUSH1 0xE5 SHL DUP2 MSTORE PUSH1 0x20 PUSH1 0x4 DUP3 ADD MSTORE PUSH1 0xE PUSH1 0x24 DUP3 ADD MSTORE PUSH14 0x20BA1036B0BC103A37B5B2B73997 PUSH1 0x91 SHL PUSH1 0x44 DUP3 ADD MSTORE PUSH1 0x64 ADD PUSH2 0xB51 JUMP JUMPDEST PUSH2 0x1B98 PUSH2 0x1B92 PUSH2 0x222D JUMP JUMPDEST DUP4 PUSH2 0x2400 JUMP JUMPDEST PUSH2 0x1BB4 JUMPI PUSH1 0x40 MLOAD PUSH3 0x461BCD PUSH1 0xE5 SHL DUP2 MSTORE PUSH1 0x4 ADD PUSH2 0xB51 SWAP1 PUSH2 0x362E JUMP JUMPDEST PUSH2 0x1BC0 DUP5 DUP5 DUP5 DUP5 PUSH2 0x2825 JUMP JUMPDEST POP POP POP POP JUMP JUMPDEST PUSH1 0xE DUP1 SLOAD SWAP1 PUSH1 0x0 PUSH2 0x1BD6 DUP4 PUSH2 0x36F0 JUMP JUMPDEST SWAP2 SWAP1 POP SSTORE POP JUMP JUMPDEST PUSH1 0x2 PUSH1 0x11 SLOAD EQ ISZERO PUSH2 0x1C00 JUMPI PUSH1 0x40 MLOAD PUSH3 0x461BCD PUSH1 0xE5 SHL DUP2 MSTORE PUSH1 0x4 ADD PUSH2 0xB51 SWAP1 PUSH2 0x3570 JUMP JUMPDEST PUSH1 0x2 PUSH1 0x11 SSTORE PUSH1 0x1E PUSH1 0x0 PUSH2 0x1C11 PUSH2 0x2163 JUMP JUMPDEST PUSH1 0x1 PUSH1 0x1 PUSH1 0xA0 SHL SUB AND DUP2 MSTORE PUSH1 0x20 DUP2 ADD SWAP2 SWAP1 SWAP2 MSTORE PUSH1 0x40 ADD PUSH1 0x0 KECCAK256 SLOAD PUSH1 0xFF AND PUSH2 0x1C4A JUMPI PUSH1 0x40 MLOAD PUSH3 0x461BCD PUSH1 0xE5 SHL DUP2 MSTORE PUSH1 0x4 ADD PUSH2 0xB51 SWAP1 PUSH2 0x36CA JUMP JUMPDEST PUSH1 0x0 PUSH2 0x1C55 DUP3 PUSH2 0x160D JUMP JUMPDEST SWAP1 POP DUP3 PUSH1 0x1 PUSH1 0x1 PUSH1 0xA0 SHL SUB AND DUP2 PUSH1 0x1 PUSH1 0x1 PUSH1 0xA0 SHL SUB AND EQ ISZERO PUSH2 0x1CCD JUMPI PUSH1 0x40 MLOAD PUSH3 0x461BCD PUSH1 0xE5 SHL DUP2 MSTORE PUSH1 0x20 PUSH1 0x4 DUP3 ADD MSTORE PUSH1 0x2B PUSH1 0x24 DUP3 ADD MSTORE PUSH32 0x546F6B656E206F776E65722063616E206E6F74207472616E7366657220746F6B PUSH1 0x44 DUP3 ADD MSTORE PUSH11 0x32B7103A379039B2B63317 PUSH1 0xA9 SHL PUSH1 0x64 DUP3 ADD MSTORE PUSH1 0x84 ADD PUSH2 0xB51 JUMP JUMPDEST PUSH2 0x1CD8 DUP5 DUP5 DUP5 PUSH2 0x24CA JUMP JUMPDEST PUSH1 0x1B SLOAD PUSH1 0x1 PUSH1 0x1 PUSH1 0xA0 SHL SUB AND ISZERO DUP1 ISZERO SWAP1 PUSH2 0x1CFF JUMPI POP PUSH1 0x0 DUP3 DUP2 MSTORE PUSH1 0x1C PUSH1 0x20 MSTORE PUSH1 0x40 SWAP1 KECCAK256 SLOAD ISZERO ISZERO JUMPDEST DUP1 ISZERO PUSH2 0x1D1A JUMPI POP PUSH1 0x0 DUP3 DUP2 MSTORE PUSH1 0x1D PUSH1 0x20 MSTORE PUSH1 0x40 SWAP1 KECCAK256 SLOAD PUSH1 0xFF AND ISZERO JUMPDEST ISZERO PUSH2 0x1DAD JUMPI PUSH1 0x1B SLOAD PUSH1 0x0 DUP4 DUP2 MSTORE PUSH1 0x1C PUSH1 0x20 MSTORE PUSH1 0x40 SWAP1 DUP2 SWAP1 KECCAK256 SLOAD SWAP1 MLOAD PUSH4 0xC43E92B1 PUSH1 0xE0 SHL DUP2 MSTORE PUSH1 0x1 PUSH1 0x1 PUSH1 0xA0 SHL SUB SWAP1 SWAP3 AND SWAP2 PUSH4 0xC43E92B1 SWAP2 PUSH2 0x1D61 SWAP2 DUP9 SWAP2 DUP9 SWAP2 PUSH1 0x4 ADD PUSH2 0x370B JUMP JUMPDEST PUSH1 0x0 PUSH1 0x40 MLOAD DUP1 DUP4 SUB DUP2 PUSH1 0x0 DUP8 DUP1 EXTCODESIZE ISZERO DUP1 ISZERO PUSH2 0x1D7B JUMPI PUSH1 0x0 DUP1 REVERT JUMPDEST POP GAS CALL ISZERO DUP1 ISZERO PUSH2 0x1D8F JUMPI RETURNDATASIZE PUSH1 0x0 DUP1 RETURNDATACOPY RETURNDATASIZE PUSH1 0x0 REVERT JUMPDEST POP POP POP PUSH1 0x0 DUP4 DUP2 MSTORE PUSH1 0x1D PUSH1 0x20 MSTORE PUSH1 0x40 SWAP1 KECCAK256 DUP1 SLOAD PUSH1 0xFF NOT AND PUSH1 0x1 OR SWAP1 SSTORE POP JUMPDEST PUSH1 0x0 DUP3 DUP2 MSTORE PUSH1 0x19 PUSH1 0x20 MSTORE PUSH1 0x40 SWAP1 KECCAK256 SLOAD ISZERO PUSH2 0x1045 JUMPI PUSH1 0x0 DUP3 DUP2 MSTORE PUSH1 0x19 PUSH1 0x20 MSTORE PUSH1 0x40 SWAP1 KECCAK256 SLOAD PUSH1 0x1A SLOAD PUSH2 0x1DEA SWAP2 PUSH1 0x1 PUSH1 0x1 PUSH1 0xA0 SHL SUB SWAP1 SWAP2 AND SWAP1 DUP6 SWAP1 PUSH2 0x2858 JUMP JUMPDEST POP PUSH1 0x0 SWAP1 DUP2 MSTORE PUSH1 0x19 PUSH1 0x20 MSTORE PUSH1 0x40 DUP2 KECCAK256 SSTORE POP POP PUSH1 0x1 PUSH1 0x11 SSTORE JUMP JUMPDEST PUSH1 0x60 PUSH2 0x1E0D PUSH2 0x1E3D JUMP JUMPDEST PUSH2 0x1E16 DUP4 PUSH2 0x2888 JUMP JUMPDEST PUSH1 0x40 MLOAD PUSH1 0x20 ADD PUSH2 0x1E27 SWAP3 SWAP2 SWAP1 PUSH2 0x372F JUMP JUMPDEST PUSH1 0x40 MLOAD PUSH1 0x20 DUP2 DUP4 SUB SUB DUP2 MSTORE SWAP1 PUSH1 0x40 MSTORE SWAP1 POP SWAP2 SWAP1 POP JUMP JUMPDEST PUSH1 0x60 PUSH1 0x12 PUSH1 0x40 MLOAD PUSH1 0x20 ADD PUSH2 0x1E51 SWAP2 SWAP1 PUSH2 0x37F8 JUMP JUMPDEST PUSH1 0x40 MLOAD PUSH1 0x20 DUP2 DUP4 SUB SUB DUP2 MSTORE SWAP1 PUSH1 0x40 MSTORE SWAP1 POP SWAP1 JUMP JUMPDEST PUSH1 0x2 PUSH1 0x11 SLOAD EQ ISZERO PUSH2 0x1E88 JUMPI PUSH1 0x40 MLOAD PUSH3 0x461BCD PUSH1 0xE5 SHL DUP2 MSTORE PUSH1 0x4 ADD PUSH2 0xB51 SWAP1 PUSH2 0x3570 JUMP JUMPDEST PUSH1 0x2 PUSH1 0x11 SSTORE PUSH1 0x0 PUSH2 0x1E98 DUP5 PUSH2 0x160D JUMP JUMPDEST SWAP1 POP DUP1 PUSH1 0x1 PUSH1 0x1 PUSH1 0xA0 SHL SUB AND PUSH2 0x1EAC PUSH2 0x2163 JUMP JUMPDEST PUSH1 0x1 PUSH1 0x1 PUSH1 0xA0 SHL SUB AND EQ DUP1 PUSH2 0x1ED6 JUMPI POP PUSH2 0x1EC4 PUSH2 0x2163 JUMP JUMPDEST PUSH1 0x10 SLOAD PUSH1 0x1 PUSH1 0x1 PUSH1 0xA0 SHL SUB SWAP1 DUP2 AND SWAP2 AND EQ JUMPDEST PUSH2 0x1F10 JUMPI PUSH1 0x40 MLOAD PUSH3 0x461BCD PUSH1 0xE5 SHL DUP2 MSTORE PUSH1 0x20 PUSH1 0x4 DUP3 ADD MSTORE PUSH1 0xB PUSH1 0x24 DUP3 ADD MSTORE PUSH11 0x20B6B4B7399037B7363C97 PUSH1 0xA9 SHL PUSH1 0x44 DUP3 ADD MSTORE PUSH1 0x64 ADD PUSH2 0xB51 JUMP JUMPDEST PUSH1 0x0 DUP5 DUP2 MSTORE PUSH1 0x18 PUSH1 0x20 MSTORE PUSH1 0x40 SWAP1 KECCAK256 SLOAD DUP4 GT ISZERO PUSH2 0x1F58 JUMPI PUSH1 0x40 MLOAD PUSH3 0x461BCD PUSH1 0xE5 SHL DUP2 MSTORE PUSH1 0x20 PUSH1 0x4 DUP3 ADD MSTORE PUSH1 0x7 PUSH1 0x24 DUP3 ADD MSTORE PUSH7 0x2932B334B63617 PUSH1 0xC9 SHL PUSH1 0x44 DUP3 ADD MSTORE PUSH1 0x64 ADD PUSH2 0xB51 JUMP JUMPDEST PUSH1 0x0 DUP5 DUP2 MSTORE PUSH1 0x18 PUSH1 0x20 MSTORE PUSH1 0x40 DUP2 KECCAK256 DUP1 SLOAD DUP6 SWAP3 SWAP1 PUSH2 0x1F76 SWAP1 DUP5 SWAP1 PUSH2 0x35D6 JUMP JUMPDEST SWAP1 SWAP2 SSTORE POP POP PUSH1 0x1A SLOAD PUSH1 0x40 MLOAD PUSH4 0x852CD8D PUSH1 0xE3 SHL DUP2 MSTORE PUSH1 0x4 DUP2 ADD DUP6 SWAP1 MSTORE PUSH1 0x1 PUSH1 0x1 PUSH1 0xA0 SHL SUB SWAP1 SWAP2 AND SWAP1 PUSH4 0x42966C68 SWAP1 PUSH1 0x24 ADD PUSH1 0x0 PUSH1 0x40 MLOAD DUP1 DUP4 SUB DUP2 PUSH1 0x0 DUP8 DUP1 EXTCODESIZE ISZERO DUP1 ISZERO PUSH2 0x1FC1 JUMPI PUSH1 0x0 DUP1 REVERT JUMPDEST POP GAS CALL ISZERO DUP1 ISZERO PUSH2 0x1FD5 JUMPI RETURNDATASIZE PUSH1 0x0 DUP1 RETURNDATACOPY RETURNDATASIZE PUSH1 0x0 REVERT JUMPDEST POP POP POP POP PUSH32 0x6CF1047B698DE02174DB713EB2021BE336D8A8370C8E3B762FE83B7ED289BC3 DUP2 DUP6 DUP6 DUP6 PUSH1 0x40 MLOAD PUSH2 0x200E SWAP5 SWAP4 SWAP3 SWAP2 SWAP1 PUSH2 0x381B JUMP JUMPDEST PUSH1 0x40 MLOAD DUP1 SWAP2 SUB SWAP1 LOG1 POP POP PUSH1 0x1 PUSH1 0x11 SSTORE POP POP JUMP JUMPDEST PUSH1 0x60 PUSH1 0x12 PUSH1 0x40 MLOAD PUSH1 0x20 ADD PUSH2 0x1E51 SWAP2 SWAP1 PUSH2 0x3852 JUMP JUMPDEST PUSH1 0x1 PUSH1 0x1 PUSH1 0xA0 SHL SUB SWAP2 DUP3 AND PUSH1 0x0 SWAP1 DUP2 MSTORE PUSH1 0x5 PUSH1 0x20 SWAP1 DUP2 MSTORE PUSH1 0x40 DUP1 DUP4 KECCAK256 SWAP4 SWAP1 SWAP5 AND DUP3 MSTORE SWAP2 SWAP1 SWAP2 MSTORE KECCAK256 SLOAD PUSH1 0xFF AND SWAP1 JUMP JUMPDEST PUSH2 0x206B PUSH2 0x222D JUMP JUMPDEST PUSH1 0x1 PUSH1 0x1 PUSH1 0xA0 SHL SUB AND PUSH2 0x207C PUSH2 0x19DD JUMP JUMPDEST PUSH1 0x1 PUSH1 0x1 PUSH1 0xA0 SHL SUB AND EQ PUSH2 0x20A2 JUMPI PUSH1 0x40 MLOAD PUSH3 0x461BCD PUSH1 0xE5 SHL DUP2 MSTORE PUSH1 0x4 ADD PUSH2 0xB51 SWAP1 PUSH2 0x3695 JUMP JUMPDEST PUSH1 0x1 PUSH1 0x1 PUSH1 0xA0 SHL SUB DUP2 AND PUSH2 0x2107 JUMPI PUSH1 0x40 MLOAD PUSH3 0x461BCD PUSH1 0xE5 SHL DUP2 MSTORE PUSH1 0x20 PUSH1 0x4 DUP3 ADD MSTORE PUSH1 0x26 PUSH1 0x24 DUP3 ADD MSTORE PUSH32 0x4F776E61626C653A206E6577206F776E657220697320746865207A65726F2061 PUSH1 0x44 DUP3 ADD MSTORE PUSH6 0x646472657373 PUSH1 0xD0 SHL PUSH1 0x64 DUP3 ADD MSTORE PUSH1 0x84 ADD PUSH2 0xB51 JUMP JUMPDEST PUSH1 0xD SLOAD PUSH1 0x40 MLOAD PUSH1 0x1 PUSH1 0x1 PUSH1 0xA0 SHL SUB DUP1 DUP5 AND SWAP3 AND SWAP1 PUSH32 0x8BE0079C531659141344CD1FD0A4F28419497F9722A3DAAFE3B4186F6B6457E0 SWAP1 PUSH1 0x0 SWAP1 LOG3 PUSH1 0xD DUP1 SLOAD PUSH1 0x1 PUSH1 0x1 PUSH1 0xA0 SHL SUB NOT AND PUSH1 0x1 PUSH1 0x1 PUSH1 0xA0 SHL SUB SWAP3 SWAP1 SWAP3 AND SWAP2 SWAP1 SWAP2 OR SWAP1 SSTORE JUMP JUMPDEST PUSH1 0x0 CALLER ADDRESS EQ ISZERO PUSH2 0x21BA JUMPI PUSH1 0x0 DUP1 CALLDATASIZE DUP1 DUP1 PUSH1 0x1F ADD PUSH1 0x20 DUP1 SWAP2 DIV MUL PUSH1 0x20 ADD PUSH1 0x40 MLOAD SWAP1 DUP2 ADD PUSH1 0x40 MSTORE DUP1 SWAP4 SWAP3 SWAP2 SWAP1 DUP2 DUP2 MSTORE PUSH1 0x20 ADD DUP4 DUP4 DUP1 DUP3 DUP5 CALLDATACOPY PUSH1 0x0 SWAP3 ADD SWAP2 SWAP1 SWAP2 MSTORE POP POP POP POP CALLDATASIZE ADD MLOAD PUSH1 0x1 PUSH1 0x1 PUSH1 0xA0 SHL SUB AND SWAP2 POP PUSH2 0x21BD SWAP1 POP JUMP JUMPDEST POP CALLER JUMPDEST SWAP1 JUMP JUMPDEST PUSH1 0x0 PUSH1 0x1 PUSH1 0x1 PUSH1 0xE0 SHL SUB NOT DUP3 AND PUSH4 0x80AC58CD PUSH1 0xE0 SHL EQ DUP1 PUSH2 0x21F1 JUMPI POP PUSH1 0x1 PUSH1 0x1 PUSH1 0xE0 SHL SUB NOT DUP3 AND PUSH4 0x5B5E139F PUSH1 0xE0 SHL EQ JUMPDEST DUP1 PUSH2 0xA51 JUMPI POP PUSH4 0x1FFC9A7 PUSH1 0xE0 SHL PUSH1 0x1 PUSH1 0x1 PUSH1 0xE0 SHL SUB NOT DUP4 AND EQ PUSH2 0xA51 JUMP JUMPDEST PUSH1 0x0 SWAP1 DUP2 MSTORE PUSH1 0x2 PUSH1 0x20 MSTORE PUSH1 0x40 SWAP1 KECCAK256 SLOAD PUSH1 0x1 PUSH1 0x1 PUSH1 0xA0 SHL SUB AND ISZERO ISZERO SWAP1 JUMP JUMPDEST PUSH1 0x0 PUSH2 0x1A0C PUSH2 0x2163 JUMP JUMPDEST PUSH1 0x0 DUP2 DUP2 MSTORE PUSH1 0x4 PUSH1 0x20 MSTORE PUSH1 0x40 SWAP1 KECCAK256 DUP1 SLOAD PUSH1 0x1 PUSH1 0x1 PUSH1 0xA0 SHL SUB NOT AND PUSH1 0x1 PUSH1 0x1 PUSH1 0xA0 SHL SUB DUP5 AND SWAP1 DUP2 OR SWAP1 SWAP2 SSTORE DUP2 SWAP1 PUSH2 0x226C DUP3 PUSH2 0x160D JUMP JUMPDEST PUSH1 0x1 PUSH1 0x1 PUSH1 0xA0 SHL SUB AND PUSH32 0x8C5BE1E5EBEC7D5BD14F71427D1E84F3DD0314C0F7B2291E5B200AC8C7C3B925 PUSH1 0x40 MLOAD PUSH1 0x40 MLOAD DUP1 SWAP2 SUB SWAP1 LOG4 POP POP JUMP JUMPDEST PUSH1 0x0 PUSH1 0x1 PUSH1 0x1 PUSH1 0xA0 SHL SUB DUP7 AND PUSH2 0x230B JUMPI PUSH1 0x40 MLOAD PUSH3 0x461BCD PUSH1 0xE5 SHL DUP2 MSTORE PUSH1 0x20 PUSH1 0x4 DUP3 ADD MSTORE PUSH1 0x25 PUSH1 0x24 DUP3 ADD MSTORE PUSH32 0x4E61746976654D6574615472616E73616374696F6E3A20494E56414C49445F53 PUSH1 0x44 DUP3 ADD MSTORE PUSH5 0x24A3A722A9 PUSH1 0xD9 SHL PUSH1 0x64 DUP3 ADD MSTORE PUSH1 0x84 ADD PUSH2 0xB51 JUMP JUMPDEST PUSH1 0x1 PUSH2 0x231E PUSH2 0x2319 DUP8 PUSH2 0x2986 JUMP JUMPDEST PUSH2 0x2A03 JUMP JUMPDEST PUSH1 0x40 DUP1 MLOAD PUSH1 0x0 DUP2 MSTORE PUSH1 0x20 DUP2 ADD DUP1 DUP4 MSTORE SWAP3 SWAP1 SWAP3 MSTORE PUSH1 0xFF DUP6 AND SWAP1 DUP3 ADD MSTORE PUSH1 0x60 DUP2 ADD DUP7 SWAP1 MSTORE PUSH1 0x80 DUP2 ADD DUP6 SWAP1 MSTORE PUSH1 0xA0 ADD PUSH1 0x20 PUSH1 0x40 MLOAD PUSH1 0x20 DUP2 SUB SWAP1 DUP1 DUP5 SUB SWAP1 DUP6 GAS STATICCALL ISZERO DUP1 ISZERO PUSH2 0x236C JUMPI RETURNDATASIZE PUSH1 0x0 DUP1 RETURNDATACOPY RETURNDATASIZE PUSH1 0x0 REVERT JUMPDEST POP POP POP PUSH1 0x20 PUSH1 0x40 MLOAD SUB MLOAD PUSH1 0x1 PUSH1 0x1 PUSH1 0xA0 SHL SUB AND DUP7 PUSH1 0x1 PUSH1 0x1 PUSH1 0xA0 SHL SUB AND EQ SWAP1 POP SWAP6 SWAP5 POP POP POP POP POP JUMP JUMPDEST PUSH1 0x0 PUSH2 0x23A1 DUP3 DUP5 PUSH2 0x35ED JUMP JUMPDEST SWAP4 SWAP3 POP POP POP JUMP JUMPDEST PUSH2 0x1BC0 DUP5 PUSH4 0x23B872DD PUSH1 0xE0 SHL DUP6 DUP6 DUP6 PUSH1 0x40 MLOAD PUSH1 0x24 ADD PUSH2 0x23C9 SWAP4 SWAP3 SWAP2 SWAP1 PUSH2 0x370B JUMP JUMPDEST PUSH1 0x40 DUP1 MLOAD PUSH1 0x1F NOT DUP2 DUP5 SUB ADD DUP2 MSTORE SWAP2 SWAP1 MSTORE PUSH1 0x20 DUP2 ADD DUP1 MLOAD PUSH1 0x1 PUSH1 0x1 PUSH1 0xE0 SHL SUB AND PUSH1 0x1 PUSH1 0x1 PUSH1 0xE0 SHL SUB NOT SWAP1 SWAP4 AND SWAP3 SWAP1 SWAP3 OR SWAP1 SWAP2 MSTORE PUSH2 0x2A33 JUMP JUMPDEST PUSH1 0x0 PUSH2 0x240B DUP3 PUSH2 0x2210 JUMP JUMPDEST PUSH2 0x246C JUMPI PUSH1 0x40 MLOAD PUSH3 0x461BCD PUSH1 0xE5 SHL DUP2 MSTORE PUSH1 0x20 PUSH1 0x4 DUP3 ADD MSTORE PUSH1 0x2C PUSH1 0x24 DUP3 ADD MSTORE PUSH32 0x4552433732313A206F70657261746F7220717565727920666F72206E6F6E6578 PUSH1 0x44 DUP3 ADD MSTORE PUSH12 0x34B9BA32B73A103A37B5B2B7 PUSH1 0xA1 SHL PUSH1 0x64 DUP3 ADD MSTORE PUSH1 0x84 ADD PUSH2 0xB51 JUMP JUMPDEST PUSH1 0x0 PUSH2 0x2477 DUP4 PUSH2 0x160D JUMP JUMPDEST SWAP1 POP DUP1 PUSH1 0x1 PUSH1 0x1 PUSH1 0xA0 SHL SUB AND DUP5 PUSH1 0x1 PUSH1 0x1 PUSH1 0xA0 SHL SUB AND EQ DUP1 PUSH2 0x24B2 JUMPI POP DUP4 PUSH1 0x1 PUSH1 0x1 PUSH1 0xA0 SHL SUB AND PUSH2 0x24A7 DUP5 PUSH2 0xAE9 JUMP JUMPDEST PUSH1 0x1 PUSH1 0x1 PUSH1 0xA0 SHL SUB AND EQ JUMPDEST DUP1 PUSH2 0x24C2 JUMPI POP PUSH2 0x24C2 DUP2 DUP6 PUSH2 0x2035 JUMP JUMPDEST SWAP5 SWAP4 POP POP POP POP JUMP JUMPDEST DUP3 PUSH1 0x1 PUSH1 0x1 PUSH1 0xA0 SHL SUB AND PUSH2 0x24DD DUP3 PUSH2 0x160D JUMP JUMPDEST PUSH1 0x1 PUSH1 0x1 PUSH1 0xA0 SHL SUB AND EQ PUSH2 0x2545 JUMPI PUSH1 0x40 MLOAD PUSH3 0x461BCD PUSH1 0xE5 SHL DUP2 MSTORE PUSH1 0x20 PUSH1 0x4 DUP3 ADD MSTORE PUSH1 0x29 PUSH1 0x24 DUP3 ADD MSTORE PUSH32 0x4552433732313A207472616E73666572206F6620746F6B656E20746861742069 PUSH1 0x44 DUP3 ADD MSTORE PUSH9 0x39903737BA1037BBB7 PUSH1 0xB9 SHL PUSH1 0x64 DUP3 ADD MSTORE PUSH1 0x84 ADD PUSH2 0xB51 JUMP JUMPDEST PUSH1 0x1 PUSH1 0x1 PUSH1 0xA0 SHL SUB DUP3 AND PUSH2 0x25A7 JUMPI PUSH1 0x40 MLOAD PUSH3 0x461BCD PUSH1 0xE5 SHL DUP2 MSTORE PUSH1 0x20 PUSH1 0x4 DUP3 ADD MSTORE PUSH1 0x24 DUP1 DUP3 ADD MSTORE PUSH32 0x4552433732313A207472616E7366657220746F20746865207A65726F20616464 PUSH1 0x44 DUP3 ADD MSTORE PUSH4 0x72657373 PUSH1 0xE0 SHL PUSH1 0x64 DUP3 ADD MSTORE PUSH1 0x84 ADD PUSH2 0xB51 JUMP JUMPDEST PUSH2 0x25B2 DUP4 DUP4 DUP4 PUSH2 0x2B05 JUMP JUMPDEST PUSH2 0x25BD PUSH1 0x0 DUP3 PUSH2 0x2237 JUMP JUMPDEST PUSH1 0x1 PUSH1 0x1 PUSH1 0xA0 SHL SUB DUP4 AND PUSH1 0x0 SWAP1 DUP2 MSTORE PUSH1 0x3 PUSH1 0x20 MSTORE PUSH1 0x40 DUP2 KECCAK256 DUP1 SLOAD PUSH1 0x1 SWAP3 SWAP1 PUSH2 0x25E6 SWAP1 DUP5 SWAP1 PUSH2 0x35D6 JUMP JUMPDEST SWAP1 SWAP2 SSTORE POP POP PUSH1 0x1 PUSH1 0x1 PUSH1 0xA0 SHL SUB DUP3 AND PUSH1 0x0 SWAP1 DUP2 MSTORE PUSH1 0x3 PUSH1 0x20 MSTORE PUSH1 0x40 DUP2 KECCAK256 DUP1 SLOAD PUSH1 0x1 SWAP3 SWAP1 PUSH2 0x2614 SWAP1 DUP5 SWAP1 PUSH2 0x35ED JUMP JUMPDEST SWAP1 SWAP2 SSTORE POP POP PUSH1 0x0 DUP2 DUP2 MSTORE PUSH1 0x2 PUSH1 0x20 MSTORE PUSH1 0x40 DUP1 DUP3 KECCAK256 DUP1 SLOAD PUSH1 0x1 PUSH1 0x1 PUSH1 0xA0 SHL SUB NOT AND PUSH1 0x1 PUSH1 0x1 PUSH1 0xA0 SHL SUB DUP7 DUP2 AND SWAP2 DUP3 OR SWAP1 SWAP3 SSTORE SWAP2 MLOAD DUP5 SWAP4 SWAP2 DUP8 AND SWAP2 PUSH1 0x0 DUP1 MLOAD PUSH1 0x20 PUSH2 0x39CE DUP4 CODECOPY DUP2 MLOAD SWAP2 MSTORE SWAP2 LOG4 POP POP POP JUMP JUMPDEST PUSH1 0x0 PUSH2 0x266E DUP3 PUSH2 0x160D JUMP JUMPDEST SWAP1 POP PUSH2 0x267C DUP2 PUSH1 0x0 DUP5 PUSH2 0x2B05 JUMP JUMPDEST PUSH2 0x2687 PUSH1 0x0 DUP4 PUSH2 0x2237 JUMP JUMPDEST PUSH1 0x1 PUSH1 0x1 PUSH1 0xA0 SHL SUB DUP2 AND PUSH1 0x0 SWAP1 DUP2 MSTORE PUSH1 0x3 PUSH1 0x20 MSTORE PUSH1 0x40 DUP2 KECCAK256 DUP1 SLOAD PUSH1 0x1 SWAP3 SWAP1 PUSH2 0x26B0 SWAP1 DUP5 SWAP1 PUSH2 0x35D6 JUMP JUMPDEST SWAP1 SWAP2 SSTORE POP POP PUSH1 0x0 DUP3 DUP2 MSTORE PUSH1 0x2 PUSH1 0x20 MSTORE PUSH1 0x40 DUP1 DUP3 KECCAK256 DUP1 SLOAD PUSH1 0x1 PUSH1 0x1 PUSH1 0xA0 SHL SUB NOT AND SWAP1 SSTORE MLOAD DUP4 SWAP2 SWAP1 PUSH1 0x1 PUSH1 0x1 PUSH1 0xA0 SHL SUB DUP5 AND SWAP1 PUSH1 0x0 DUP1 MLOAD PUSH1 0x20 PUSH2 0x39CE DUP4 CODECOPY DUP2 MLOAD SWAP2 MSTORE SWAP1 DUP4 SWAP1 LOG4 POP POP JUMP JUMPDEST PUSH1 0x1 PUSH1 0x1 PUSH1 0xA0 SHL SUB DUP3 AND PUSH2 0x274E JUMPI PUSH1 0x40 MLOAD PUSH3 0x461BCD PUSH1 0xE5 SHL DUP2 MSTORE PUSH1 0x20 PUSH1 0x4 DUP3 ADD DUP2 SWAP1 MSTORE PUSH1 0x24 DUP3 ADD MSTORE PUSH32 0x4552433732313A206D696E7420746F20746865207A65726F2061646472657373 PUSH1 0x44 DUP3 ADD MSTORE PUSH1 0x64 ADD PUSH2 0xB51 JUMP JUMPDEST PUSH2 0x2757 DUP2 PUSH2 0x2210 JUMP JUMPDEST ISZERO PUSH2 0x27A4 JUMPI PUSH1 0x40 MLOAD PUSH3 0x461BCD PUSH1 0xE5 SHL DUP2 MSTORE PUSH1 0x20 PUSH1 0x4 DUP3 ADD MSTORE PUSH1 0x1C PUSH1 0x24 DUP3 ADD MSTORE PUSH32 0x4552433732313A20746F6B656E20616C7265616479206D696E74656400000000 PUSH1 0x44 DUP3 ADD MSTORE PUSH1 0x64 ADD PUSH2 0xB51 JUMP JUMPDEST PUSH2 0x27B0 PUSH1 0x0 DUP4 DUP4 PUSH2 0x2B05 JUMP JUMPDEST PUSH1 0x1 PUSH1 0x1 PUSH1 0xA0 SHL SUB DUP3 AND PUSH1 0x0 SWAP1 DUP2 MSTORE PUSH1 0x3 PUSH1 0x20 MSTORE PUSH1 0x40 DUP2 KECCAK256 DUP1 SLOAD PUSH1 0x1 SWAP3 SWAP1 PUSH2 0x27D9 SWAP1 DUP5 SWAP1 PUSH2 0x35ED JUMP JUMPDEST SWAP1 SWAP2 SSTORE POP POP PUSH1 0x0 DUP2 DUP2 MSTORE PUSH1 0x2 PUSH1 0x20 MSTORE PUSH1 0x40 DUP1 DUP3 KECCAK256 DUP1 SLOAD PUSH1 0x1 PUSH1 0x1 PUSH1 0xA0 SHL SUB NOT AND PUSH1 0x1 PUSH1 0x1 PUSH1 0xA0 SHL SUB DUP7 AND SWAP1 DUP2 OR SWAP1 SWAP2 SSTORE SWAP1 MLOAD DUP4 SWAP3 SWAP1 PUSH1 0x0 DUP1 MLOAD PUSH1 0x20 PUSH2 0x39CE DUP4 CODECOPY DUP2 MLOAD SWAP2 MSTORE SWAP1 DUP3 SWAP1 LOG4 POP POP JUMP JUMPDEST PUSH2 0x2830 DUP5 DUP5 DUP5 PUSH2 0x24CA JUMP JUMPDEST PUSH2 0x283C DUP5 DUP5 DUP5 DUP5 PUSH2 0x2BBD JUMP JUMPDEST PUSH2 0x1BC0 JUMPI PUSH1 0x40 MLOAD PUSH3 0x461BCD PUSH1 0xE5 SHL DUP2 MSTORE PUSH1 0x4 ADD PUSH2 0xB51 SWAP1 PUSH2 0x3877 JUMP JUMPDEST PUSH1 0x40 MLOAD PUSH1 0x1 PUSH1 0x1 PUSH1 0xA0 SHL SUB DUP4 AND PUSH1 0x24 DUP3 ADD MSTORE PUSH1 0x44 DUP2 ADD DUP3 SWAP1 MSTORE PUSH2 0xC94 SWAP1 DUP5 SWAP1 PUSH4 0xA9059CBB PUSH1 0xE0 SHL SWAP1 PUSH1 0x64 ADD PUSH2 0x23C9 JUMP JUMPDEST PUSH1 0x60 DUP2 PUSH2 0x28AC JUMPI POP POP PUSH1 0x40 DUP1 MLOAD DUP1 DUP3 ADD SWAP1 SWAP2 MSTORE PUSH1 0x1 DUP2 MSTORE PUSH1 0x3 PUSH1 0xFC SHL PUSH1 0x20 DUP3 ADD MSTORE SWAP1 JUMP JUMPDEST DUP2 PUSH1 0x0 JUMPDEST DUP2 ISZERO PUSH2 0x28D6 JUMPI DUP1 PUSH2 0x28C0 DUP2 PUSH2 0x36F0 JUMP JUMPDEST SWAP2 POP PUSH2 0x28CF SWAP1 POP PUSH1 0xA DUP4 PUSH2 0x38DF JUMP JUMPDEST SWAP2 POP PUSH2 0x28B0 JUMP JUMPDEST PUSH1 0x0 DUP2 PUSH8 0xFFFFFFFFFFFFFFFF DUP2 GT ISZERO PUSH2 0x28F1 JUMPI PUSH2 0x28F1 PUSH2 0x3167 JUMP JUMPDEST PUSH1 0x40 MLOAD SWAP1 DUP1 DUP3 MSTORE DUP1 PUSH1 0x1F ADD PUSH1 0x1F NOT AND PUSH1 0x20 ADD DUP3 ADD PUSH1 0x40 MSTORE DUP1 ISZERO PUSH2 0x291B JUMPI PUSH1 0x20 DUP3 ADD DUP2 DUP1 CALLDATASIZE DUP4 CALLDATACOPY ADD SWAP1 POP JUMPDEST POP SWAP1 POP JUMPDEST DUP5 ISZERO PUSH2 0x24C2 JUMPI PUSH2 0x2930 PUSH1 0x1 DUP4 PUSH2 0x35D6 JUMP JUMPDEST SWAP2 POP PUSH2 0x293D PUSH1 0xA DUP7 PUSH2 0x38F3 JUMP JUMPDEST PUSH2 0x2948 SWAP1 PUSH1 0x30 PUSH2 0x35ED JUMP JUMPDEST PUSH1 0xF8 SHL DUP2 DUP4 DUP2 MLOAD DUP2 LT PUSH2 0x295D JUMPI PUSH2 0x295D PUSH2 0x367F JUMP JUMPDEST PUSH1 0x20 ADD ADD SWAP1 PUSH1 0x1 PUSH1 0x1 PUSH1 0xF8 SHL SUB NOT AND SWAP1 DUP2 PUSH1 0x0 BYTE SWAP1 MSTORE8 POP PUSH2 0x297F PUSH1 0xA DUP7 PUSH2 0x38DF JUMP JUMPDEST SWAP5 POP PUSH2 0x291F JUMP JUMPDEST PUSH1 0x0 PUSH1 0x40 MLOAD DUP1 PUSH1 0x80 ADD PUSH1 0x40 MSTORE DUP1 PUSH1 0x43 DUP2 MSTORE PUSH1 0x20 ADD PUSH2 0x398B PUSH1 0x43 SWAP2 CODECOPY DUP1 MLOAD PUSH1 0x20 SWAP2 DUP3 ADD KECCAK256 DUP4 MLOAD DUP5 DUP4 ADD MLOAD PUSH1 0x40 DUP1 DUP8 ADD MLOAD DUP1 MLOAD SWAP1 DUP7 ADD KECCAK256 SWAP1 MLOAD PUSH2 0x29E6 SWAP6 ADD SWAP4 DUP5 MSTORE PUSH1 0x20 DUP5 ADD SWAP3 SWAP1 SWAP3 MSTORE PUSH1 0x1 PUSH1 0x1 PUSH1 0xA0 SHL SUB AND PUSH1 0x40 DUP4 ADD MSTORE PUSH1 0x60 DUP3 ADD MSTORE PUSH1 0x80 ADD SWAP1 JUMP JUMPDEST PUSH1 0x40 MLOAD PUSH1 0x20 DUP2 DUP4 SUB SUB DUP2 MSTORE SWAP1 PUSH1 0x40 MSTORE DUP1 MLOAD SWAP1 PUSH1 0x20 ADD KECCAK256 SWAP1 POP SWAP2 SWAP1 POP JUMP JUMPDEST PUSH1 0x0 PUSH2 0x2A0E PUSH1 0xB SLOAD SWAP1 JUMP JUMPDEST PUSH1 0x40 MLOAD PUSH2 0x1901 PUSH1 0xF0 SHL PUSH1 0x20 DUP3 ADD MSTORE PUSH1 0x22 DUP2 ADD SWAP2 SWAP1 SWAP2 MSTORE PUSH1 0x42 DUP2 ADD DUP4 SWAP1 MSTORE PUSH1 0x62 ADD PUSH2 0x29E6 JUMP JUMPDEST PUSH1 0x0 PUSH2 0x2A88 DUP3 PUSH1 0x40 MLOAD DUP1 PUSH1 0x40 ADD PUSH1 0x40 MSTORE DUP1 PUSH1 0x20 DUP2 MSTORE PUSH1 0x20 ADD PUSH32 0x5361666545524332303A206C6F772D6C6576656C2063616C6C206661696C6564 DUP2 MSTORE POP DUP6 PUSH1 0x1 PUSH1 0x1 PUSH1 0xA0 SHL SUB AND PUSH2 0x2CD1 SWAP1 SWAP3 SWAP2 SWAP1 PUSH4 0xFFFFFFFF AND JUMP JUMPDEST DUP1 MLOAD SWAP1 SWAP2 POP ISZERO PUSH2 0xC94 JUMPI DUP1 DUP1 PUSH1 0x20 ADD SWAP1 MLOAD DUP2 ADD SWAP1 PUSH2 0x2AA6 SWAP2 SWAP1 PUSH2 0x3907 JUMP JUMPDEST PUSH2 0xC94 JUMPI PUSH1 0x40 MLOAD PUSH3 0x461BCD PUSH1 0xE5 SHL DUP2 MSTORE PUSH1 0x20 PUSH1 0x4 DUP3 ADD MSTORE PUSH1 0x2A PUSH1 0x24 DUP3 ADD MSTORE PUSH32 0x5361666545524332303A204552433230206F7065726174696F6E20646964206E PUSH1 0x44 DUP3 ADD MSTORE PUSH10 0x1BDD081CDD58D8D95959 PUSH1 0xB2 SHL PUSH1 0x64 DUP3 ADD MSTORE PUSH1 0x84 ADD PUSH2 0xB51 JUMP JUMPDEST PUSH1 0x1 PUSH1 0x1 PUSH1 0xA0 SHL SUB DUP4 AND PUSH2 0x2B60 JUMPI PUSH2 0x2B5B DUP2 PUSH1 0x8 DUP1 SLOAD PUSH1 0x0 DUP4 DUP2 MSTORE PUSH1 0x9 PUSH1 0x20 MSTORE PUSH1 0x40 DUP2 KECCAK256 DUP3 SWAP1 SSTORE PUSH1 0x1 DUP3 ADD DUP4 SSTORE SWAP2 SWAP1 SWAP2 MSTORE PUSH32 0xF3F7A9FE364FAAB93B216DA50A3214154F22A0A2B415B23A84C8169E8B636EE3 ADD SSTORE JUMP JUMPDEST PUSH2 0x2B83 JUMP JUMPDEST DUP2 PUSH1 0x1 PUSH1 0x1 PUSH1 0xA0 SHL SUB AND DUP4 PUSH1 0x1 PUSH1 0x1 PUSH1 0xA0 SHL SUB AND EQ PUSH2 0x2B83 JUMPI PUSH2 0x2B83 DUP4 DUP3 PUSH2 0x2CE0 JUMP JUMPDEST PUSH1 0x1 PUSH1 0x1 PUSH1 0xA0 SHL SUB DUP3 AND PUSH2 0x2B9A JUMPI PUSH2 0xC94 DUP2 PUSH2 0x2D7D JUMP JUMPDEST DUP3 PUSH1 0x1 PUSH1 0x1 PUSH1 0xA0 SHL SUB AND DUP3 PUSH1 0x1 PUSH1 0x1 PUSH1 0xA0 SHL SUB AND EQ PUSH2 0xC94 JUMPI PUSH2 0xC94 DUP3 DUP3 PUSH2 0x2E2C JUMP JUMPDEST PUSH1 0x0 PUSH1 0x1 PUSH1 0x1 PUSH1 0xA0 SHL SUB DUP5 AND EXTCODESIZE ISZERO PUSH2 0x2CC6 JUMPI DUP4 PUSH1 0x1 PUSH1 0x1 PUSH1 0xA0 SHL SUB AND PUSH4 0x150B7A02 PUSH2 0x2BE6 PUSH2 0x222D JUMP JUMPDEST DUP8 DUP7 DUP7 PUSH1 0x40 MLOAD DUP6 PUSH4 0xFFFFFFFF AND PUSH1 0xE0 SHL DUP2 MSTORE PUSH1 0x4 ADD PUSH2 0x2C08 SWAP5 SWAP4 SWAP3 SWAP2 SWAP1 PUSH2 0x3924 JUMP JUMPDEST PUSH1 0x20 PUSH1 0x40 MLOAD DUP1 DUP4 SUB DUP2 PUSH1 0x0 DUP8 DUP1 EXTCODESIZE ISZERO DUP1 ISZERO PUSH2 0x2C22 JUMPI PUSH1 0x0 DUP1 REVERT JUMPDEST POP GAS CALL SWAP3 POP POP POP DUP1 ISZERO PUSH2 0x2C52 JUMPI POP PUSH1 0x40 DUP1 MLOAD PUSH1 0x1F RETURNDATASIZE SWAP1 DUP2 ADD PUSH1 0x1F NOT AND DUP3 ADD SWAP1 SWAP3 MSTORE PUSH2 0x2C4F SWAP2 DUP2 ADD SWAP1 PUSH2 0x3957 JUMP JUMPDEST PUSH1 0x1 JUMPDEST PUSH2 0x2CAC JUMPI RETURNDATASIZE DUP1 DUP1 ISZERO PUSH2 0x2C80 JUMPI PUSH1 0x40 MLOAD SWAP2 POP PUSH1 0x1F NOT PUSH1 0x3F RETURNDATASIZE ADD AND DUP3 ADD PUSH1 0x40 MSTORE RETURNDATASIZE DUP3 MSTORE RETURNDATASIZE PUSH1 0x0 PUSH1 0x20 DUP5 ADD RETURNDATACOPY PUSH2 0x2C85 JUMP JUMPDEST PUSH1 0x60 SWAP2 POP JUMPDEST POP DUP1 MLOAD PUSH2 0x2CA4 JUMPI PUSH1 0x40 MLOAD PUSH3 0x461BCD PUSH1 0xE5 SHL DUP2 MSTORE PUSH1 0x4 ADD PUSH2 0xB51 SWAP1 PUSH2 0x3877 JUMP JUMPDEST DUP1 MLOAD DUP2 PUSH1 0x20 ADD REVERT JUMPDEST PUSH1 0x1 PUSH1 0x1 PUSH1 0xE0 SHL SUB NOT AND PUSH4 0xA85BD01 PUSH1 0xE1 SHL EQ SWAP1 POP PUSH2 0x24C2 JUMP JUMPDEST POP PUSH1 0x1 SWAP5 SWAP4 POP POP POP POP JUMP JUMPDEST PUSH1 0x60 PUSH2 0x24C2 DUP5 DUP5 PUSH1 0x0 DUP6 PUSH2 0x2E70 JUMP JUMPDEST PUSH1 0x0 PUSH1 0x1 PUSH2 0x2CED DUP5 PUSH2 0x1762 JUMP JUMPDEST PUSH2 0x2CF7 SWAP2 SWAP1 PUSH2 0x35D6 JUMP JUMPDEST PUSH1 0x0 DUP4 DUP2 MSTORE PUSH1 0x7 PUSH1 0x20 MSTORE PUSH1 0x40 SWAP1 KECCAK256 SLOAD SWAP1 SWAP2 POP DUP1 DUP3 EQ PUSH2 0x2D4A JUMPI PUSH1 0x1 PUSH1 0x1 PUSH1 0xA0 SHL SUB DUP5 AND PUSH1 0x0 SWAP1 DUP2 MSTORE PUSH1 0x6 PUSH1 0x20 SWAP1 DUP2 MSTORE PUSH1 0x40 DUP1 DUP4 KECCAK256 DUP6 DUP5 MSTORE DUP3 MSTORE DUP1 DUP4 KECCAK256 SLOAD DUP5 DUP5 MSTORE DUP2 DUP5 KECCAK256 DUP2 SWAP1 SSTORE DUP4 MSTORE PUSH1 0x7 SWAP1 SWAP2 MSTORE SWAP1 KECCAK256 DUP2 SWAP1 SSTORE JUMPDEST POP PUSH1 0x0 SWAP2 DUP3 MSTORE PUSH1 0x7 PUSH1 0x20 SWAP1 DUP2 MSTORE PUSH1 0x40 DUP1 DUP5 KECCAK256 DUP5 SWAP1 SSTORE PUSH1 0x1 PUSH1 0x1 PUSH1 0xA0 SHL SUB SWAP1 SWAP5 AND DUP4 MSTORE PUSH1 0x6 DUP2 MSTORE DUP4 DUP4 KECCAK256 SWAP2 DUP4 MSTORE MSTORE SWAP1 DUP2 KECCAK256 SSTORE JUMP JUMPDEST PUSH1 0x8 SLOAD PUSH1 0x0 SWAP1 PUSH2 0x2D8F SWAP1 PUSH1 0x1 SWAP1 PUSH2 0x35D6 JUMP JUMPDEST PUSH1 0x0 DUP4 DUP2 MSTORE PUSH1 0x9 PUSH1 0x20 MSTORE PUSH1 0x40 DUP2 KECCAK256 SLOAD PUSH1 0x8 DUP1 SLOAD SWAP4 SWAP5 POP SWAP1 SWAP3 DUP5 SWAP1 DUP2 LT PUSH2 0x2DB7 JUMPI PUSH2 0x2DB7 PUSH2 0x367F JUMP JUMPDEST SWAP1 PUSH1 0x0 MSTORE PUSH1 0x20 PUSH1 0x0 KECCAK256 ADD SLOAD SWAP1 POP DUP1 PUSH1 0x8 DUP4 DUP2 SLOAD DUP2 LT PUSH2 0x2DD8 JUMPI PUSH2 0x2DD8 PUSH2 0x367F JUMP JUMPDEST PUSH1 0x0 SWAP2 DUP3 MSTORE PUSH1 0x20 DUP1 DUP4 KECCAK256 SWAP1 SWAP2 ADD SWAP3 SWAP1 SWAP3 SSTORE DUP3 DUP2 MSTORE PUSH1 0x9 SWAP1 SWAP2 MSTORE PUSH1 0x40 DUP1 DUP3 KECCAK256 DUP5 SWAP1 SSTORE DUP6 DUP3 MSTORE DUP2 KECCAK256 SSTORE PUSH1 0x8 DUP1 SLOAD DUP1 PUSH2 0x2E10 JUMPI PUSH2 0x2E10 PUSH2 0x3974 JUMP JUMPDEST PUSH1 0x1 SWAP1 SUB DUP2 DUP2 SWAP1 PUSH1 0x0 MSTORE PUSH1 0x20 PUSH1 0x0 KECCAK256 ADD PUSH1 0x0 SWAP1 SSTORE SWAP1 SSTORE POP POP POP POP JUMP JUMPDEST PUSH1 0x0 PUSH2 0x2E37 DUP4 PUSH2 0x1762 JUMP JUMPDEST PUSH1 0x1 PUSH1 0x1 PUSH1 0xA0 SHL SUB SWAP1 SWAP4 AND PUSH1 0x0 SWAP1 DUP2 MSTORE PUSH1 0x6 PUSH1 0x20 SWAP1 DUP2 MSTORE PUSH1 0x40 DUP1 DUP4 KECCAK256 DUP7 DUP5 MSTORE DUP3 MSTORE DUP1 DUP4 KECCAK256 DUP6 SWAP1 SSTORE SWAP4 DUP3 MSTORE PUSH1 0x7 SWAP1 MSTORE SWAP2 SWAP1 SWAP2 KECCAK256 SWAP2 SWAP1 SWAP2 SSTORE POP JUMP JUMPDEST PUSH1 0x60 DUP3 SELFBALANCE LT ISZERO PUSH2 0x2ED1 JUMPI PUSH1 0x40 MLOAD PUSH3 0x461BCD PUSH1 0xE5 SHL DUP2 MSTORE PUSH1 0x20 PUSH1 0x4 DUP3 ADD MSTORE PUSH1 0x26 PUSH1 0x24 DUP3 ADD MSTORE PUSH32 0x416464726573733A20696E73756666696369656E742062616C616E636520666F PUSH1 0x44 DUP3 ADD MSTORE PUSH6 0x1C8818D85B1B PUSH1 0xD2 SHL PUSH1 0x64 DUP3 ADD MSTORE PUSH1 0x84 ADD PUSH2 0xB51 JUMP JUMPDEST DUP5 EXTCODESIZE PUSH2 0x2F1F JUMPI PUSH1 0x40 MLOAD PUSH3 0x461BCD PUSH1 0xE5 SHL DUP2 MSTORE PUSH1 0x20 PUSH1 0x4 DUP3 ADD MSTORE PUSH1 0x1D PUSH1 0x24 DUP3 ADD MSTORE PUSH32 0x416464726573733A2063616C6C20746F206E6F6E2D636F6E7472616374000000 PUSH1 0x44 DUP3 ADD MSTORE PUSH1 0x64 ADD PUSH2 0xB51 JUMP JUMPDEST PUSH1 0x0 DUP1 DUP7 PUSH1 0x1 PUSH1 0x1 PUSH1 0xA0 SHL SUB AND DUP6 DUP8 PUSH1 0x40 MLOAD PUSH2 0x2F3B SWAP2 SWAP1 PUSH2 0x3554 JUMP JUMPDEST PUSH1 0x0 PUSH1 0x40 MLOAD DUP1 DUP4 SUB DUP2 DUP6 DUP8 GAS CALL SWAP3 POP POP POP RETURNDATASIZE DUP1 PUSH1 0x0 DUP2 EQ PUSH2 0x2F78 JUMPI PUSH1 0x40 MLOAD SWAP2 POP PUSH1 0x1F NOT PUSH1 0x3F RETURNDATASIZE ADD AND DUP3 ADD PUSH1 0x40 MSTORE RETURNDATASIZE DUP3 MSTORE RETURNDATASIZE PUSH1 0x0 PUSH1 0x20 DUP5 ADD RETURNDATACOPY PUSH2 0x2F7D JUMP JUMPDEST PUSH1 0x60 SWAP2 POP JUMPDEST POP SWAP2 POP SWAP2 POP PUSH2 0x2F8D DUP3 DUP3 DUP7 PUSH2 0x2F98 JUMP JUMPDEST SWAP8 SWAP7 POP POP POP POP POP POP POP JUMP JUMPDEST PUSH1 0x60 DUP4 ISZERO PUSH2 0x2FA7 JUMPI POP DUP2 PUSH2 0x23A1 JUMP JUMPDEST DUP3 MLOAD ISZERO PUSH2 0x2FB7 JUMPI DUP3 MLOAD DUP1 DUP5 PUSH1 0x20 ADD REVERT JUMPDEST DUP2 PUSH1 0x40 MLOAD PUSH3 0x461BCD PUSH1 0xE5 SHL DUP2 MSTORE PUSH1 0x4 ADD PUSH2 0xB51 SWAP2 SWAP1 PUSH2 0x30F5 JUMP JUMPDEST DUP3 DUP1 SLOAD PUSH2 0x2FDD SWAP1 PUSH2 0x34AD JUMP JUMPDEST SWAP1 PUSH1 0x0 MSTORE PUSH1 0x20 PUSH1 0x0 KECCAK256 SWAP1 PUSH1 0x1F ADD PUSH1 0x20 SWAP1 DIV DUP2 ADD SWAP3 DUP3 PUSH2 0x2FFF JUMPI PUSH1 0x0 DUP6 SSTORE PUSH2 0x3045 JUMP JUMPDEST DUP3 PUSH1 0x1F LT PUSH2 0x3018 JUMPI DUP1 MLOAD PUSH1 0xFF NOT AND DUP4 DUP1 ADD OR DUP6 SSTORE PUSH2 0x3045 JUMP JUMPDEST DUP3 DUP1 ADD PUSH1 0x1 ADD DUP6 SSTORE DUP3 ISZERO PUSH2 0x3045 JUMPI SWAP2 DUP3 ADD JUMPDEST DUP3 DUP2 GT ISZERO PUSH2 0x3045 JUMPI DUP3 MLOAD DUP3 SSTORE SWAP2 PUSH1 0x20 ADD SWAP2 SWAP1 PUSH1 0x1 ADD SWAP1 PUSH2 0x302A JUMP JUMPDEST POP PUSH2 0x3051 SWAP3 SWAP2 POP PUSH2 0x3055 JUMP JUMPDEST POP SWAP1 JUMP JUMPDEST JUMPDEST DUP1 DUP3 GT ISZERO PUSH2 0x3051 JUMPI PUSH1 0x0 DUP2 SSTORE PUSH1 0x1 ADD PUSH2 0x3056 JUMP JUMPDEST PUSH1 0x1 PUSH1 0x1 PUSH1 0xE0 SHL SUB NOT DUP2 AND DUP2 EQ PUSH2 0x11D7 JUMPI PUSH1 0x0 DUP1 REVERT JUMPDEST PUSH1 0x0 PUSH1 0x20 DUP3 DUP5 SUB SLT ISZERO PUSH2 0x3092 JUMPI PUSH1 0x0 DUP1 REVERT JUMPDEST DUP2 CALLDATALOAD PUSH2 0x23A1 DUP2 PUSH2 0x306A JUMP JUMPDEST PUSH1 0x0 JUMPDEST DUP4 DUP2 LT ISZERO PUSH2 0x30B8 JUMPI DUP2 DUP2 ADD MLOAD DUP4 DUP3 ADD MSTORE PUSH1 0x20 ADD PUSH2 0x30A0 JUMP JUMPDEST DUP4 DUP2 GT ISZERO PUSH2 0x1BC0 JUMPI POP POP PUSH1 0x0 SWAP2 ADD MSTORE JUMP JUMPDEST PUSH1 0x0 DUP2 MLOAD DUP1 DUP5 MSTORE PUSH2 0x30E1 DUP2 PUSH1 0x20 DUP7 ADD PUSH1 0x20 DUP7 ADD PUSH2 0x309D JUMP JUMPDEST PUSH1 0x1F ADD PUSH1 0x1F NOT AND SWAP3 SWAP1 SWAP3 ADD PUSH1 0x20 ADD SWAP3 SWAP2 POP POP JUMP JUMPDEST PUSH1 0x20 DUP2 MSTORE PUSH1 0x0 PUSH2 0x23A1 PUSH1 0x20 DUP4 ADD DUP5 PUSH2 0x30C9 JUMP JUMPDEST PUSH1 0x0 PUSH1 0x20 DUP3 DUP5 SUB SLT ISZERO PUSH2 0x311A JUMPI PUSH1 0x0 DUP1 REVERT JUMPDEST POP CALLDATALOAD SWAP2 SWAP1 POP JUMP JUMPDEST DUP1 CALLDATALOAD PUSH1 0x1 PUSH1 0x1 PUSH1 0xA0 SHL SUB DUP2 AND DUP2 EQ PUSH2 0x3138 JUMPI PUSH1 0x0 DUP1 REVERT JUMPDEST SWAP2 SWAP1 POP JUMP JUMPDEST PUSH1 0x0 DUP1 PUSH1 0x40 DUP4 DUP6 SUB SLT ISZERO PUSH2 0x3150 JUMPI PUSH1 0x0 DUP1 REVERT JUMPDEST PUSH2 0x3159 DUP4 PUSH2 0x3121 JUMP JUMPDEST SWAP5 PUSH1 0x20 SWAP4 SWAP1 SWAP4 ADD CALLDATALOAD SWAP4 POP POP POP JUMP JUMPDEST PUSH4 0x4E487B71 PUSH1 0xE0 SHL PUSH1 0x0 MSTORE PUSH1 0x41 PUSH1 0x4 MSTORE PUSH1 0x24 PUSH1 0x0 REVERT JUMPDEST PUSH1 0x0 DUP3 PUSH1 0x1F DUP4 ADD SLT PUSH2 0x318E JUMPI PUSH1 0x0 DUP1 REVERT JUMPDEST DUP2 CALLDATALOAD PUSH8 0xFFFFFFFFFFFFFFFF DUP1 DUP3 GT ISZERO PUSH2 0x31A9 JUMPI PUSH2 0x31A9 PUSH2 0x3167 JUMP JUMPDEST PUSH1 0x40 MLOAD PUSH1 0x1F DUP4 ADD PUSH1 0x1F NOT SWAP1 DUP2 AND PUSH1 0x3F ADD AND DUP2 ADD SWAP1 DUP3 DUP3 GT DUP2 DUP4 LT OR ISZERO PUSH2 0x31D1 JUMPI PUSH2 0x31D1 PUSH2 0x3167 JUMP JUMPDEST DUP2 PUSH1 0x40 MSTORE DUP4 DUP2 MSTORE DUP7 PUSH1 0x20 DUP6 DUP9 ADD ADD GT ISZERO PUSH2 0x31EA JUMPI PUSH1 0x0 DUP1 REVERT JUMPDEST DUP4 PUSH1 0x20 DUP8 ADD PUSH1 0x20 DUP4 ADD CALLDATACOPY PUSH1 0x0 PUSH1 0x20 DUP6 DUP4 ADD ADD MSTORE DUP1 SWAP5 POP POP POP POP POP SWAP3 SWAP2 POP POP JUMP JUMPDEST PUSH1 0x0 DUP1 PUSH1 0x0 DUP1 PUSH1 0x0 PUSH1 0xA0 DUP7 DUP9 SUB SLT ISZERO PUSH2 0x3222 JUMPI PUSH1 0x0 DUP1 REVERT JUMPDEST PUSH2 0x322B DUP7 PUSH2 0x3121 JUMP JUMPDEST SWAP5 POP PUSH1 0x20 DUP7 ADD CALLDATALOAD PUSH8 0xFFFFFFFFFFFFFFFF DUP2 GT ISZERO PUSH2 0x3247 JUMPI PUSH1 0x0 DUP1 REVERT JUMPDEST PUSH2 0x3253 DUP9 DUP3 DUP10 ADD PUSH2 0x317D JUMP JUMPDEST SWAP5 POP POP PUSH1 0x40 DUP7 ADD CALLDATALOAD SWAP3 POP PUSH1 0x60 DUP7 ADD CALLDATALOAD SWAP2 POP PUSH1 0x80 DUP7 ADD CALLDATALOAD PUSH1 0xFF DUP2 AND DUP2 EQ PUSH2 0x3278 JUMPI PUSH1 0x0 DUP1 REVERT JUMPDEST DUP1 SWAP2 POP POP SWAP3 SWAP6 POP SWAP3 SWAP6 SWAP1 SWAP4 POP JUMP JUMPDEST PUSH1 0x0 DUP1 PUSH1 0x0 PUSH1 0x60 DUP5 DUP7 SUB SLT ISZERO PUSH2 0x329B JUMPI PUSH1 0x0 DUP1 REVERT JUMPDEST POP POP DUP2 CALLDATALOAD SWAP4 PUSH1 0x20 DUP4 ADD CALLDATALOAD SWAP4 POP PUSH1 0x40 SWAP1 SWAP3 ADD CALLDATALOAD SWAP2 SWAP1 POP JUMP JUMPDEST PUSH1 0x0 PUSH1 0x20 DUP3 DUP5 SUB SLT ISZERO PUSH2 0x32C4 JUMPI PUSH1 0x0 DUP1 REVERT JUMPDEST PUSH2 0x23A1 DUP3 PUSH2 0x3121 JUMP JUMPDEST PUSH1 0x0 DUP1 PUSH1 0x0 PUSH1 0x60 DUP5 DUP7 SUB SLT ISZERO PUSH2 0x32E2 JUMPI PUSH1 0x0 DUP1 REVERT JUMPDEST PUSH2 0x32EB DUP5 PUSH2 0x3121 JUMP JUMPDEST SWAP3 POP PUSH2 0x32F9 PUSH1 0x20 DUP6 ADD PUSH2 0x3121 JUMP JUMPDEST SWAP2 POP PUSH1 0x40 DUP5 ADD CALLDATALOAD SWAP1 POP SWAP3 POP SWAP3 POP SWAP3 JUMP JUMPDEST PUSH1 0x0 DUP1 PUSH1 0x40 DUP4 DUP6 SUB SLT ISZERO PUSH2 0x331C JUMPI PUSH1 0x0 DUP1 REVERT JUMPDEST POP POP DUP1 CALLDATALOAD SWAP3 PUSH1 0x20 SWAP1 SWAP2 ADD CALLDATALOAD SWAP2 POP JUMP JUMPDEST PUSH1 0x0 PUSH1 0x20 DUP3 DUP5 SUB SLT ISZERO PUSH2 0x333D JUMPI PUSH1 0x0 DUP1 REVERT JUMPDEST DUP2 CALLDATALOAD PUSH8 0xFFFFFFFFFFFFFFFF DUP2 GT ISZERO PUSH2 0x3354 JUMPI PUSH1 0x0 DUP1 REVERT JUMPDEST PUSH2 0x24C2 DUP5 DUP3 DUP6 ADD PUSH2 0x317D JUMP JUMPDEST DUP1 ISZERO ISZERO DUP2 EQ PUSH2 0x11D7 JUMPI PUSH1 0x0 DUP1 REVERT JUMPDEST PUSH1 0x0 DUP1 PUSH1 0x40 DUP4 DUP6 SUB SLT ISZERO PUSH2 0x3381 JUMPI PUSH1 0x0 DUP1 REVERT JUMPDEST PUSH2 0x338A DUP4 PUSH2 0x3121 JUMP JUMPDEST SWAP2 POP PUSH1 0x20 DUP4 ADD CALLDATALOAD PUSH2 0x339A DUP2 PUSH2 0x3360 JUMP JUMPDEST DUP1 SWAP2 POP POP SWAP3 POP SWAP3 SWAP1 POP JUMP JUMPDEST PUSH1 0x0 PUSH1 0x20 DUP3 DUP5 SUB SLT ISZERO PUSH2 0x33B7 JUMPI PUSH1 0x0 DUP1 REVERT JUMPDEST DUP2 CALLDATALOAD PUSH2 0x23A1 DUP2 PUSH2 0x3360 JUMP JUMPDEST PUSH1 0x0 DUP1 PUSH1 0x0 DUP1 PUSH1 0x80 DUP6 DUP8 SUB SLT ISZERO PUSH2 0x33D8 JUMPI PUSH1 0x0 DUP1 REVERT JUMPDEST PUSH2 0x33E1 DUP6 PUSH2 0x3121 JUMP JUMPDEST SWAP4 POP PUSH2 0x33EF PUSH1 0x20 DUP7 ADD PUSH2 0x3121 JUMP JUMPDEST SWAP3 POP PUSH1 0x40 DUP6 ADD CALLDATALOAD SWAP2 POP PUSH1 0x60 DUP6 ADD CALLDATALOAD PUSH8 0xFFFFFFFFFFFFFFFF DUP2 GT ISZERO PUSH2 0x3412 JUMPI PUSH1 0x0 DUP1 REVERT JUMPDEST PUSH2 0x341E DUP8 DUP3 DUP9 ADD PUSH2 0x317D JUMP JUMPDEST SWAP2 POP POP SWAP3 SWAP6 SWAP2 SWAP5 POP SWAP3 POP JUMP JUMPDEST PUSH1 0x0 DUP1 PUSH1 0x0 PUSH1 0x60 DUP5 DUP7 SUB SLT ISZERO PUSH2 0x343F JUMPI PUSH1 0x0 DUP1 REVERT JUMPDEST DUP4 CALLDATALOAD SWAP3 POP PUSH1 0x20 DUP5 ADD CALLDATALOAD SWAP2 POP PUSH1 0x40 DUP5 ADD CALLDATALOAD PUSH8 0xFFFFFFFFFFFFFFFF DUP2 GT ISZERO PUSH2 0x3464 JUMPI PUSH1 0x0 DUP1 REVERT JUMPDEST PUSH2 0x3470 DUP7 DUP3 DUP8 ADD PUSH2 0x317D JUMP JUMPDEST SWAP2 POP POP SWAP3 POP SWAP3 POP SWAP3 JUMP JUMPDEST PUSH1 0x0 DUP1 PUSH1 0x40 DUP4 DUP6 SUB SLT ISZERO PUSH2 0x348D JUMPI PUSH1 0x0 DUP1 REVERT JUMPDEST PUSH2 0x3496 DUP4 PUSH2 0x3121 JUMP JUMPDEST SWAP2 POP PUSH2 0x34A4 PUSH1 0x20 DUP5 ADD PUSH2 0x3121 JUMP JUMPDEST SWAP1 POP SWAP3 POP SWAP3 SWAP1 POP JUMP JUMPDEST PUSH1 0x1 DUP2 DUP2 SHR SWAP1 DUP3 AND DUP1 PUSH2 0x34C1 JUMPI PUSH1 0x7F DUP3 AND SWAP2 POP JUMPDEST PUSH1 0x20 DUP3 LT DUP2 EQ ISZERO PUSH2 0x34E2 JUMPI PUSH4 0x4E487B71 PUSH1 0xE0 SHL PUSH1 0x0 MSTORE PUSH1 0x22 PUSH1 0x4 MSTORE PUSH1 0x24 PUSH1 0x0 REVERT JUMPDEST POP SWAP2 SWAP1 POP JUMP JUMPDEST PUSH1 0x1 PUSH1 0x1 PUSH1 0xA0 SHL SUB DUP5 DUP2 AND DUP3 MSTORE DUP4 AND PUSH1 0x20 DUP3 ADD MSTORE PUSH1 0x60 PUSH1 0x40 DUP3 ADD DUP2 SWAP1 MSTORE PUSH1 0x0 SWAP1 PUSH2 0x3514 SWAP1 DUP4 ADD DUP5 PUSH2 0x30C9 JUMP JUMPDEST SWAP6 SWAP5 POP POP POP POP POP JUMP JUMPDEST PUSH1 0x0 DUP4 MLOAD PUSH2 0x352F DUP2 DUP5 PUSH1 0x20 DUP9 ADD PUSH2 0x309D JUMP JUMPDEST PUSH1 0x60 SWAP4 SWAP1 SWAP4 SHL PUSH12 0xFFFFFFFFFFFFFFFFFFFFFFFF NOT AND SWAP2 SWAP1 SWAP3 ADD SWAP1 DUP2 MSTORE PUSH1 0x14 ADD SWAP3 SWAP2 POP POP JUMP JUMPDEST PUSH1 0x0 DUP3 MLOAD PUSH2 0x3566 DUP2 DUP5 PUSH1 0x20 DUP8 ADD PUSH2 0x309D JUMP JUMPDEST SWAP2 SWAP1 SWAP2 ADD SWAP3 SWAP2 POP POP JUMP JUMPDEST PUSH1 0x20 DUP1 DUP3 MSTORE PUSH1 0x1F SWAP1 DUP3 ADD MSTORE PUSH32 0x5265656E7472616E637947756172643A207265656E7472616E742063616C6C00 PUSH1 0x40 DUP3 ADD MSTORE PUSH1 0x60 ADD SWAP1 JUMP JUMPDEST PUSH1 0x0 PUSH1 0x20 DUP3 DUP5 SUB SLT ISZERO PUSH2 0x35B9 JUMPI PUSH1 0x0 DUP1 REVERT JUMPDEST POP MLOAD SWAP2 SWAP1 POP JUMP JUMPDEST PUSH4 0x4E487B71 PUSH1 0xE0 SHL PUSH1 0x0 MSTORE PUSH1 0x11 PUSH1 0x4 MSTORE PUSH1 0x24 PUSH1 0x0 REVERT JUMPDEST PUSH1 0x0 DUP3 DUP3 LT ISZERO PUSH2 0x35E8 JUMPI PUSH2 0x35E8 PUSH2 0x35C0 JUMP JUMPDEST POP SUB SWAP1 JUMP JUMPDEST PUSH1 0x0 DUP3 NOT DUP3 GT ISZERO PUSH2 0x3600 JUMPI PUSH2 0x3600 PUSH2 0x35C0 JUMP JUMPDEST POP ADD SWAP1 JUMP JUMPDEST PUSH1 0x20 DUP1 DUP3 MSTORE PUSH1 0xF SWAP1 DUP3 ADD MSTORE PUSH15 0x496E76616C69642061646472657373 PUSH1 0x88 SHL PUSH1 0x40 DUP3 ADD MSTORE PUSH1 0x60 ADD SWAP1 JUMP JUMPDEST PUSH1 0x20 DUP1 DUP3 MSTORE PUSH1 0x31 SWAP1 DUP3 ADD MSTORE PUSH32 0x4552433732313A207472616E736665722063616C6C6572206973206E6F74206F PUSH1 0x40 DUP3 ADD MSTORE PUSH17 0x1DDB995C881B9BDC88185C1C1C9BDD9959 PUSH1 0x7A SHL PUSH1 0x60 DUP3 ADD MSTORE PUSH1 0x80 ADD SWAP1 JUMP JUMPDEST PUSH4 0x4E487B71 PUSH1 0xE0 SHL PUSH1 0x0 MSTORE PUSH1 0x32 PUSH1 0x4 MSTORE PUSH1 0x24 PUSH1 0x0 REVERT JUMPDEST PUSH1 0x20 DUP1 DUP3 MSTORE DUP2 DUP2 ADD MSTORE PUSH32 0x4F776E61626C653A2063616C6C6572206973206E6F7420746865206F776E6572 PUSH1 0x40 DUP3 ADD MSTORE PUSH1 0x60 ADD SWAP1 JUMP JUMPDEST PUSH1 0x20 DUP1 DUP3 MSTORE PUSH1 0xC SWAP1 DUP3 ADD MSTORE PUSH12 0x20B23237B7399037B7363C97 PUSH1 0xA1 SHL PUSH1 0x40 DUP3 ADD MSTORE PUSH1 0x60 ADD SWAP1 JUMP JUMPDEST PUSH1 0x0 PUSH1 0x0 NOT DUP3 EQ ISZERO PUSH2 0x3704 JUMPI PUSH2 0x3704 PUSH2 0x35C0 JUMP JUMPDEST POP PUSH1 0x1 ADD SWAP1 JUMP JUMPDEST PUSH1 0x1 PUSH1 0x1 PUSH1 0xA0 SHL SUB SWAP4 DUP5 AND DUP2 MSTORE SWAP2 SWAP1 SWAP3 AND PUSH1 0x20 DUP3 ADD MSTORE PUSH1 0x40 DUP2 ADD SWAP2 SWAP1 SWAP2 MSTORE PUSH1 0x60 ADD SWAP1 JUMP JUMPDEST PUSH1 0x0 DUP4 MLOAD PUSH2 0x3741 DUP2 DUP5 PUSH1 0x20 DUP9 ADD PUSH2 0x309D JUMP JUMPDEST DUP4 MLOAD SWAP1 DUP4 ADD SWAP1 PUSH2 0x3755 DUP2 DUP4 PUSH1 0x20 DUP9 ADD PUSH2 0x309D JUMP JUMPDEST ADD SWAP5 SWAP4 POP POP POP POP JUMP JUMPDEST DUP1 SLOAD PUSH1 0x0 SWAP1 PUSH1 0x1 DUP2 DUP2 SHR SWAP1 DUP1 DUP4 AND DUP1 PUSH2 0x3778 JUMPI PUSH1 0x7F DUP4 AND SWAP3 POP JUMPDEST PUSH1 0x20 DUP1 DUP5 LT DUP3 EQ ISZERO PUSH2 0x379A JUMPI PUSH4 0x4E487B71 PUSH1 0xE0 SHL PUSH1 0x0 MSTORE PUSH1 0x22 PUSH1 0x4 MSTORE PUSH1 0x24 PUSH1 0x0 REVERT JUMPDEST DUP2 DUP1 ISZERO PUSH2 0x37AE JUMPI PUSH1 0x1 DUP2 EQ PUSH2 0x37BF JUMPI PUSH2 0x37EC JUMP JUMPDEST PUSH1 0xFF NOT DUP7 AND DUP10 MSTORE DUP5 DUP10 ADD SWAP7 POP PUSH2 0x37EC JUMP JUMPDEST PUSH1 0x0 DUP9 DUP2 MSTORE PUSH1 0x20 SWAP1 KECCAK256 PUSH1 0x0 JUMPDEST DUP7 DUP2 LT ISZERO PUSH2 0x37E4 JUMPI DUP2 SLOAD DUP12 DUP3 ADD MSTORE SWAP1 DUP6 ADD SWAP1 DUP4 ADD PUSH2 0x37CB JUMP JUMPDEST POP POP DUP5 DUP10 ADD SWAP7 POP JUMPDEST POP POP POP POP POP POP SWAP3 SWAP2 POP POP JUMP JUMPDEST PUSH1 0x0 PUSH2 0x3804 DUP3 DUP5 PUSH2 0x375E JUMP JUMPDEST PUSH7 0x746F6B656E732F PUSH1 0xC8 SHL DUP2 MSTORE PUSH1 0x7 ADD SWAP4 SWAP3 POP POP POP JUMP JUMPDEST PUSH1 0x1 DUP1 PUSH1 0xA0 SHL SUB DUP6 AND DUP2 MSTORE DUP4 PUSH1 0x20 DUP3 ADD MSTORE DUP3 PUSH1 0x40 DUP3 ADD MSTORE PUSH1 0x80 PUSH1 0x60 DUP3 ADD MSTORE PUSH1 0x0 PUSH2 0x3848 PUSH1 0x80 DUP4 ADD DUP5 PUSH2 0x30C9 JUMP JUMPDEST SWAP7 SWAP6 POP POP POP POP POP POP JUMP JUMPDEST PUSH1 0x0 PUSH2 0x385E DUP3 DUP5 PUSH2 0x375E JUMP JUMPDEST PUSH9 0x636F6E74726163742F PUSH1 0xB8 SHL DUP2 MSTORE PUSH1 0x9 ADD SWAP4 SWAP3 POP POP POP JUMP JUMPDEST PUSH1 0x20 DUP1 DUP3 MSTORE PUSH1 0x32 SWAP1 DUP3 ADD MSTORE PUSH32 0x4552433732313A207472616E7366657220746F206E6F6E204552433732315265 PUSH1 0x40 DUP3 ADD MSTORE PUSH18 0x31B2B4BB32B91034B6B83632B6B2B73A32B9 PUSH1 0x71 SHL PUSH1 0x60 DUP3 ADD MSTORE PUSH1 0x80 ADD SWAP1 JUMP JUMPDEST PUSH4 0x4E487B71 PUSH1 0xE0 SHL PUSH1 0x0 MSTORE PUSH1 0x12 PUSH1 0x4 MSTORE PUSH1 0x24 PUSH1 0x0 REVERT JUMPDEST PUSH1 0x0 DUP3 PUSH2 0x38EE JUMPI PUSH2 0x38EE PUSH2 0x38C9 JUMP JUMPDEST POP DIV SWAP1 JUMP JUMPDEST PUSH1 0x0 DUP3 PUSH2 0x3902 JUMPI PUSH2 0x3902 PUSH2 0x38C9 JUMP JUMPDEST POP MOD SWAP1 JUMP JUMPDEST PUSH1 0x0 PUSH1 0x20 DUP3 DUP5 SUB SLT ISZERO PUSH2 0x3919 JUMPI PUSH1 0x0 DUP1 REVERT JUMPDEST DUP2 MLOAD PUSH2 0x23A1 DUP2 PUSH2 0x3360 JUMP JUMPDEST PUSH1 0x1 PUSH1 0x1 PUSH1 0xA0 SHL SUB DUP6 DUP2 AND DUP3 MSTORE DUP5 AND PUSH1 0x20 DUP3 ADD MSTORE PUSH1 0x40 DUP2 ADD DUP4 SWAP1 MSTORE PUSH1 0x80 PUSH1 0x60 DUP3 ADD DUP2 SWAP1 MSTORE PUSH1 0x0 SWAP1 PUSH2 0x3848 SWAP1 DUP4 ADD DUP5 PUSH2 0x30C9 JUMP JUMPDEST PUSH1 0x0 PUSH1 0x20 DUP3 DUP5 SUB SLT ISZERO PUSH2 0x3969 JUMPI PUSH1 0x0 DUP1 REVERT JUMPDEST DUP2 MLOAD PUSH2 0x23A1 DUP2 PUSH2 0x306A JUMP JUMPDEST PUSH4 0x4E487B71 PUSH1 0xE0 SHL PUSH1 0x0 MSTORE PUSH1 0x31 PUSH1 0x4 MSTORE PUSH1 0x24 PUSH1 0x0 REVERT INVALID 0x4D PUSH6 0x74615472616E PUSH20 0x616374696F6E2875696E74323536206E6F6E6365 0x2C PUSH2 0x6464 PUSH19 0x6573732066726F6D2C62797465732066756E63 PUSH21 0x696F6E5369676E617475726529DDF252AD1BE2C89B PUSH10 0xC2B068FC378DAA952BA7 CALL PUSH4 0xC4A11628 CREATE2 GAS 0x4D CREATE2 0x23 0xB3 0xEF LOG2 PUSH5 0x6970667358 0x22 SLT KECCAK256 0xDF PUSH26 0xBF0F18E521E767E89E1475C0CAFD1D14CA5346240F21F4AB4EBC 0xE0 0xBE 0xB9 SWAP16 PUSH5 0x736F6C6343 STOP ADDMOD MULMOD STOP CALLER GASLIMIT 0x49 POP CALLDATACOPY BALANCE ORIGIN DIFFICULTY PUSH16 0x6D61696E28737472696E67206E616D65 0x2C PUSH20 0x7472696E672076657273696F6E2C616464726573 PUSH20 0x20766572696679696E67436F6E74726163742C62 PUSH26 0x74657333322073616C7429A264697066735822122008DA99CFDD SAR JUMP GASLIMIT PUSH24 0x44EE0830DACDEE82C18E9E5F7B173219C3B00C501485D664 PUSH20 0x6F6C634300080900330000000000000000000000 ",
  "sha1": "fde4d8ad66eaba5c43c2deb5315db8eddbebd41a",
  "source": "// SPDX-License-Identifier: MIT\npragma solidity 0.8.9;\n\nimport \"./BookTradable.sol\";\nimport \"./CultureCoin.sol\";\nimport \"./send_receive.sol\";\nimport \"../openzeppelin-solidity/contracts/security/ReentrancyGuard.sol\";\n\ncontract PrintingPress is Receiver, ReentrancyGuard { // is Ownable { // because require(msg.sender == address(________) // clone ::::: see json ::::\n\n        address private log;\n\tmapping(address => uint256) private B; // CC balance on this minter.\n\tfunction getBalance(address _whom) public view returns(uint256) {\n\t\treturn B[_whom];\n\t}\n\tfunction addBalance(address _whom) public payable {\n\t\t//address.function{value:msg.value}(arg1, arg2, arg3)\n\t\tuint256 ccAmount = CultureCoin(gasToken).dexXMTSPIn{value:msg.value}();\n\t\tB[_whom] += ccAmount;\n\t}\n\tfunction addBalanceCC(address _whom, uint256 _amount) public {\n\t\t//CultureCoin(gasToken).transferFrom(_whom, address(this), _amount); // This would require an approval...\n\t\tuint256 xAmount = CultureCoin(gasToken).dexCCInFrom(msg.sender, _amount);\n\t\tuint256 ccAmount = CultureCoin(gasToken).dexXMTSPIn{value:xAmount}();\n\t\tB[_whom] += ccAmount;\n\t}\n\n\tfunction withdraw(uint256 _amount) public {\n\t\tCultureCoin(gasToken).transferFrom(address(this), msg.sender, _amount);\n\t\tB[msg.sender] -= _amount;\n\t}\n\n\tevent PairPrinted(address parent, address child, uint256 parentId, uint256 childId);\n\tfunction mintPair(address _to, address _NBT, uint256 _amount, uint256 _gasRewards) public nonReentrant {\n\t\tBookTradable NBT = BookTradable(_NBT);\n\n\t\t// Me as written.... //Ownercheck. Non-transferable via any contract market I know of yet.. ::\n\t\trequire(cCA == msg.sender || msg.sender == NBT.owner(), \"Admin only.\");\n\t\t_mintPair(_to, _NBT, _amount, _gasRewards);\n\t}\n\tfunction _mintPair(address _to, address _NBT, uint256 _amount, uint256 _gasRewards) private {\n\t\tBookTradable NBT = BookTradable(_NBT);\n\n\t    \t//function getRewards(uint256 _tokenId) external view returns(address, uint256) { return(rewardContract, rewardTokenId[_tokenId]);}\n\t\t(address _rewardsContract, ) = NBT.getRewards(0);\n\t\tBookTradable CHILD = BookTradable(_rewardsContract);\n\t\tuint256 childTokenId = CHILD.addonMintTo(_to);\n\t\tuint256 parentTokenId = NBT.addonMintTo(_to);\n\n\t\tNBT.setRewardToken(parentTokenId, childTokenId);\t// Makes it so the tramserfer is nested.\n\n\t\tCultureCoin CC = CultureCoin(gasToken);\n\t\tCC.approve(address(NBT), _amount);\n\t\tCC.approve(address(CHILD), _amount);\n\n\t\tNBT.fillGasTank(parentTokenId, _amount, _gasRewards);\n\t\tCHILD.fillGasTank(childTokenId, _amount, _gasRewards);\n\n\t\tB[msg.sender] -= _amount * 2;\n\n\t\temit PairPrinted(address(NBT), address(CHILD), parentTokenId, childTokenId);\n\t}\n        function delegateMinter (address _to, address _NBT, uint _tokenMax, uint _amount, uint _gasRewards) public nonReentrant {\n                BookTradable NBT = BookTradable(_NBT);     //_NBT stands for Daedalus Class Booster Token and it is the token address being boosted here. TLSCBM, etc, ...\n\n\t\t// Me as written.... //Ownercheck. Non-transferable via any contract market I know of yet.. ::\n\t\trequire(cCA == msg.sender || msg.sender == NBT.owner(), \"You do not admin of this printing press.\"); \n\n\t\trequire(B[msg.sender] >= _amount * 2 * _tokenMax,  \"Need more CC on the books.\");\n\n\t\t_delegateMinter(_to, address(NBT), _tokenMax, _amount, _gasRewards);\n\n\t\tB[msg.sender] -= _amount;\n\t}\n        function _delegateMinter (address _to, address _NBT, uint _tokenMax, uint _amount, uint _gasRewards) private {\n                BookTradable NBT = BookTradable(_NBT);     //_NBT stands for Daedalus Class Booster Token and it is the token address being boosted here. TLSCBM, etc, ...\n\n\t\tfor(uint256 i = 0; i < _tokenMax; i++) {\n\t\t\t_mintPair(_to, _NBT, _amount, _gasRewards);\n\t\t}\n        }\n\n\tfunction buyBook(address _NBT) public payable nonReentrant {\n\t\tBookTradable NBT = BookTradable(_NBT);\n\n\t\trequire(NBT.totalSupply() >= NBT.getDefaultFrom(), \"Not yet.\");\n\t\trequire(NBT.getDefaultPrice() <= msg.value, \"More.\");\n\n\t\tuint256 extraX = msg.value - NBT.getDefaultPrice();\n\t\tuint256 msgValue = msg.value - extraX;\n\n\t\tuint256 ccExtra = CultureCoin(gasToken).dexXMTSPIn{value:extraX}();\n\t\tuint256 ccBulk = CultureCoin(gasToken).dexXMTSPIn{value: msg.value - extraX}();\n\n        \tuint256 operatorCut = (ccBulk * operatorFee) / 100;          // Divide to make it a percent.\n\n        \tB[NBT.owner()] += ccBulk - operatorCut;\n        \tB[cCA] += operatorCut;\n\n\t\tB[msg.sender] += ccExtra;\n\n\t\t(address _rewardsContract, ) = NBT.getRewards(0);\n\t\tif(address(0) != _rewardsContract) {\n\t\t\t_mintPair(address(this), _NBT, ccExtra/2, ccExtra/4) ;\n\t\t} else {\n\t\t\tuint256 tokenId = NBT.addonMintTo(address(this));\n\t\t\tCultureCoin(gasToken).approve(address(NBT), ccExtra);\n\t\t\tNBT.fillGasTank(tokenId, ccExtra, ccExtra/2);\n\t\t\tB[msg.sender] -= ccExtra;\n\t\t}\n\n\t\tNBT.safeTransferFromRegistry(address(this), msg.sender, NBT.totalSupply());\n\t}\n\n\n    \taddress operator;\n    \taddress private cCA; \t/// Adminisistrator \n    \taddress private gasToken;   /// culturecoin.\n\tuint256 private operatorFee = 1;\n    \tconstructor (address _cCA, address _gasToken) { // me :: me :: culturecoin\n\t\tcCA = _cCA;\n\t\tgasToken = _gasToken;\n\n\t\toperatorFee = 1;\n    \t}\n\tfunction setOperatorFee(uint256 _operatorFee) public {\n\t\trequire(msg.sender == cCA, \"Admins only.\");\n\t\t\n\t\toperatorFee = _operatorFee;\n\n\t}\n\n    \t// /// To the Moon. Hold on to your books boys, we are shooting this baby to the moon. And back. /// //\n    \tevent BookContract(address who, address what);  // <--author,nbt // see culture coin\n    \tfunction newBookContract(string memory _name, string memory _symbol, address _bookRegistryAddress, string memory _baseuri,\n                                        bool _burnable, uint256 _maxmint, uint256 _defaultprice, uint256 _defaultfrom,\n\t\t\t\t\taddress _mintTo) public returns(address) { //, address _gasToken) {\n\n\t\trequire(cCA == msg.sender || _mintTo == cCA, \"Admins only.\");\n    \t\tBookTradable book =  new BookTradable(_name, _symbol, _bookRegistryAddress, _baseuri, _burnable, _maxmint, _defaultprice, _defaultfrom, gasToken, cCA);\n\t\tbook.transferOwnership(_mintTo);\n\n\t\t//book.setAddon(address(this)); // would be nice...\n\t\t\n\t\temit BookContract(_mintTo, address(book));\n\t\treturn address(book);\n    \t}\n\n    \tfunction retireBookContract(address _a) public {\n        \trequire(msg.sender == cCA || msg.sender == operator, \"no\");\n    \t}\n\n}\n",
  "sourcePath": "contracts/printing_press.sol",
  "type": "contract"
}