{
  "abi": [
    {
      "inputs": [
        {
          "internalType": "address",
          "name": "_tokenaddress",
          "type": "address"
        },
        {
          "internalType": "uint256",
          "name": "_tokenvalue",
          "type": "uint256"
        },
        {
          "internalType": "uint256",
          "name": "_startTime",
          "type": "uint256"
        },
        {
          "internalType": "uint256",
          "name": "_duringDays",
          "type": "uint256"
        }
      ],
      "stateMutability": "nonpayable",
      "type": "constructor"
    },
    {
      "anonymous": false,
      "inputs": [
        {
          "indexed": true,
          "internalType": "address",
          "name": "previousOwner",
          "type": "address"
        },
        {
          "indexed": true,
          "internalType": "address",
          "name": "newOwner",
          "type": "address"
        }
      ],
      "name": "OwnershipTransferred",
      "type": "event"
    },
    {
      "anonymous": false,
      "inputs": [
        {
          "indexed": false,
          "internalType": "address",
          "name": "sender",
          "type": "address"
        },
        {
          "indexed": false,
          "internalType": "uint256",
          "name": "totalvalue",
          "type": "uint256"
        }
      ],
      "name": "Sell",
      "type": "event"
    },
    {
      "inputs": [],
      "name": "DAYS",
      "outputs": [
        {
          "internalType": "uint256",
          "name": "",
          "type": "uint256"
        }
      ],
      "stateMutability": "view",
      "type": "function"
    },
    {
      "inputs": [],
      "name": "START",
      "outputs": [
        {
          "internalType": "uint256",
          "name": "",
          "type": "uint256"
        }
      ],
      "stateMutability": "view",
      "type": "function"
    },
    {
      "inputs": [],
      "name": "buyTokens",
      "outputs": [],
      "stateMutability": "payable",
      "type": "function"
    },
    {
      "inputs": [
        {
          "internalType": "uint256",
          "name": "_delayDays",
          "type": "uint256"
        }
      ],
      "name": "delay_Duration",
      "outputs": [],
      "stateMutability": "nonpayable",
      "type": "function"
    },
    {
      "inputs": [],
      "name": "endStatus",
      "outputs": [
        {
          "internalType": "bool",
          "name": "",
          "type": "bool"
        }
      ],
      "stateMutability": "view",
      "type": "function"
    },
    {
      "inputs": [],
      "name": "endsale",
      "outputs": [],
      "stateMutability": "nonpayable",
      "type": "function"
    },
    {
      "inputs": [
        {
          "internalType": "address",
          "name": "_addr",
          "type": "address"
        }
      ],
      "name": "getAvaxBal",
      "outputs": [
        {
          "internalType": "uint256",
          "name": "",
          "type": "uint256"
        }
      ],
      "stateMutability": "view",
      "type": "function"
    },
    {
      "inputs": [],
      "name": "getBalance",
      "outputs": [
        {
          "internalType": "uint256",
          "name": "",
          "type": "uint256"
        }
      ],
      "stateMutability": "view",
      "type": "function"
    },
    {
      "inputs": [],
      "name": "getCuurentTime",
      "outputs": [
        {
          "internalType": "uint256",
          "name": "",
          "type": "uint256"
        }
      ],
      "stateMutability": "view",
      "type": "function"
    },
    {
      "inputs": [],
      "name": "isActive",
      "outputs": [
        {
          "internalType": "bool",
          "name": "",
          "type": "bool"
        }
      ],
      "stateMutability": "view",
      "type": "function"
    },
    {
      "inputs": [],
      "name": "owner",
      "outputs": [
        {
          "internalType": "address",
          "name": "",
          "type": "address"
        }
      ],
      "stateMutability": "view",
      "type": "function"
    },
    {
      "inputs": [],
      "name": "renounceOwnership",
      "outputs": [],
      "stateMutability": "nonpayable",
      "type": "function"
    },
    {
      "inputs": [
        {
          "internalType": "uint256",
          "name": "_startTime",
          "type": "uint256"
        }
      ],
      "name": "setStartTime",
      "outputs": [],
      "stateMutability": "nonpayable",
      "type": "function"
    },
    {
      "inputs": [
        {
          "internalType": "bool",
          "name": "status",
          "type": "bool"
        }
      ],
      "name": "set_EndStatus",
      "outputs": [],
      "stateMutability": "nonpayable",
      "type": "function"
    },
    {
      "inputs": [],
      "name": "token",
      "outputs": [
        {
          "internalType": "contract IERC20",
          "name": "",
          "type": "address"
        }
      ],
      "stateMutability": "view",
      "type": "function"
    },
    {
      "inputs": [],
      "name": "tokenprice",
      "outputs": [
        {
          "internalType": "uint256",
          "name": "",
          "type": "uint256"
        }
      ],
      "stateMutability": "view",
      "type": "function"
    },
    {
      "inputs": [],
      "name": "totalsold",
      "outputs": [
        {
          "internalType": "uint256",
          "name": "",
          "type": "uint256"
        }
      ],
      "stateMutability": "view",
      "type": "function"
    },
    {
      "inputs": [
        {
          "internalType": "address",
          "name": "newOwner",
          "type": "address"
        }
      ],
      "name": "transferOwnership",
      "outputs": [],
      "stateMutability": "nonpayable",
      "type": "function"
    },
    {
      "inputs": [
        {
          "internalType": "address",
          "name": "to",
          "type": "address"
        }
      ],
      "name": "withdraw",
      "outputs": [],
      "stateMutability": "nonpayable",
      "type": "function"
    }
  ],
  "bytecode": "60806040526006805460ff1916905534801561001a57600080fd5b50604051610bbd380380610bbd833981016040819052610039916100af565b600080546001600160a01b031916339081178255604051909182917f8be0079c531659141344cd1fd0a4f28419497f9722a3daafe3b4186f6b6457e0908290a350600292909255600180546001600160a01b0319166001600160a01b0394909416939093179092556004919091556005556100fa565b600080600080608085870312156100c557600080fd5b84516001600160a01b03811681146100dc57600080fd5b60208601516040870151606090970151919890975090945092505050565b610ab4806101096000396000f3fe6080604052600436106101045760003560e01c8063ba9a061a116100a0578063d49db5a811610064578063d49db5a814610286578063e73e1eb2146102a0578063ebb5b41c146102c0578063f2fde38b146102d3578063fc0c546a146102f357600080fd5b8063ba9a061a14610227578063c549e6b91461023d578063c8b335a414610253578063d0bd4c7314610268578063d0febe4c1461027e57600080fd5b806312065fe01461010957806322f3e2d41461012b5780633e0a322d1461015057806351cff8d914610172578063620523b514610192578063715018a6146101b257806385516ae2146101c75780638da5cb5b146101ef578063a352584814610211575b600080fd5b34801561011557600080fd5b50475b6040519081526020015b60405180910390f35b34801561013757600080fd5b50610140610313565b6040519015158152602001610122565b34801561015c57600080fd5b5061017061016b366004610913565b610358565b005b34801561017e57600080fd5b5061017061018d36600461092c565b610395565b34801561019e57600080fd5b506101706101ad366004610966565b6103fd565b3480156101be57600080fd5b5061017061043f565b3480156101d357600080fd5b506101186101e236600461092c565b6001600160a01b03163190565b3480156101fb57600080fd5b506102046104b8565b6040516101229190610983565b34801561021d57600080fd5b5061011860035481565b34801561023357600080fd5b5061011860045481565b34801561024957600080fd5b5061011860055481565b34801561025f57600080fd5b506101706104c7565b34801561027457600080fd5b5061011860025481565b6101706105d5565b34801561029257600080fd5b506006546101409060ff1681565b3480156102ac57600080fd5b506101706102bb366004610913565b6107c3565b3480156102cc57600080fd5b5042610118565b3480156102df57600080fd5b506101706102ee36600461092c565b610805565b3480156102ff57600080fd5b50600154610204906001600160a01b031681565b60065460009060ff1615801561032b57506004544210155b8015610353575060055461034f9061034690620151806108f4565b60045490610907565b4211155b905090565b336103616104b8565b6001600160a01b0316146103905760405162461bcd60e51b815260040161038790610997565b60405180910390fd5b600455565b3361039e6104b8565b6001600160a01b0316146103c45760405162461bcd60e51b815260040161038790610997565b6040516001600160a01b038216904780156108fc02916000818181858888f193505050501580156103f9573d6000803e3d6000fd5b5050565b336104066104b8565b6001600160a01b03161461042c5760405162461bcd60e51b815260040161038790610997565b6006805460ff1916911515919091179055565b336104486104b8565b6001600160a01b03161461046e5760405162461bcd60e51b815260040161038790610997565b600080546040516001600160a01b03909116907f8be0079c531659141344cd1fd0a4f28419497f9722a3daafe3b4186f6b6457e0908390a3600080546001600160a01b0319169055565b6000546001600160a01b031690565b336104d06104b8565b6001600160a01b0316146104f65760405162461bcd60e51b815260040161038790610997565b6001546040516370a0823160e01b81526001600160a01b039091169063a9059cbb90339083906370a0823190610530903090600401610983565b602060405180830381865afa15801561054d573d6000803e3d6000fd5b505050506040513d601f19601f8201168201806040525081019061057191906109cc565b6040518363ffffffff1660e01b815260040161058e9291906109e5565b6020604051808303816000875af11580156105ad573d6000803e3d6000fd5b505050506040513d601f19601f820116820180604052508101906105d191906109fe565b5033ff5b6105dd610313565b6105e9576105e9610a1b565b600254339034906105fa9082610a47565b6001546040516370a0823160e01b81526001600160a01b03909116906370a082319061062a903090600401610983565b602060405180830381865afa158015610647573d6000803e3d6000fd5b505050506040513d601f19601f8201168201806040525081019061066b91906109cc565b10156106d05760405162461bcd60e51b815260206004820152602e60248201527f74686520736d61727420636f6e747261637420646f6e7420686f6c642074686560448201526d20656e6f75676820746f6b656e7360901b6064820152608401610387565b6001546002546001600160a01b039091169063a9059cbb9084906106f49085610a47565b6040518363ffffffff1660e01b81526004016107119291906109e5565b6020604051808303816000875af1158015610730573d6000803e3d6000fd5b505050506040513d601f19601f8201168201806040525081019061075491906109fe565b506002546107629082610a47565b600360008282546107739190610a66565b90915550506002547f5e5e995ce3133561afceaa51a9a154d5db228cd7525d34df5185582c18d3df099083906107a99084610a47565b6040516107b79291906109e5565b60405180910390a15050565b336107cc6104b8565b6001600160a01b0316146107f25760405162461bcd60e51b815260040161038790610997565b6005546107ff9082610907565b60055550565b3361080e6104b8565b6001600160a01b0316146108345760405162461bcd60e51b815260040161038790610997565b6001600160a01b0381166108995760405162461bcd60e51b815260206004820152602660248201527f4f776e61626c653a206e6577206f776e657220697320746865207a65726f206160448201526564647265737360d01b6064820152608401610387565b600080546040516001600160a01b03808516939216917f8be0079c531659141344cd1fd0a4f28419497f9722a3daafe3b4186f6b6457e091a3600080546001600160a01b0319166001600160a01b0392909216919091179055565b60006109008284610a47565b9392505050565b60006109008284610a66565b60006020828403121561092557600080fd5b5035919050565b60006020828403121561093e57600080fd5b81356001600160a01b038116811461090057600080fd5b801515811461096357600080fd5b50565b60006020828403121561097857600080fd5b813561090081610955565b6001600160a01b0391909116815260200190565b6020808252818101527f4f776e61626c653a2063616c6c6572206973206e6f7420746865206f776e6572604082015260600190565b6000602082840312156109de57600080fd5b5051919050565b6001600160a01b03929092168252602082015260400190565b600060208284031215610a1057600080fd5b815161090081610955565b634e487b7160e01b600052600160045260246000fd5b634e487b7160e01b600052601160045260246000fd5b6000816000190483118215151615610a6157610a61610a31565b500290565b60008219821115610a7957610a79610a31565b50019056fea2646970667358221220f321ecfa97a943e6df4777a97d6447f7d6ea8768784f37455bb3d707afe73b4564736f6c634300080f0033",
  "bytecodeSha1": "c3b8404e05a47485aa5c769c0fd44ad465dfd470",
  "compiler": {
    "evm_version": "istanbul",
    "optimizer": {
      "enabled": true,
      "runs": 100
    },
    "version": "0.8.15+commit.e14f2714"
  },
  "contractName": "TokenPreSale",
  "language": "Solidity",
  "natspec": {
    "kind": "dev",
    "methods": {
      "delay_Duration(uint256)": {
        "details": "function that delays ICO during days*",
        "notice": "delayDuration"
      },
      "isActive()": {
        "details": "Determins if the contract is still active*",
        "notice": "isActive"
      },
      "owner()": {
        "details": "Returns the address of the current owner."
      },
      "renounceOwnership()": {
        "details": "Leaves the contract without owner. It will not be possible to call `onlyOwner` functions anymore. Can only be called by the current owner. NOTE: Renouncing ownership will leave the contract without an owner, thereby removing any functionality that is only available to the owner."
      },
      "set_EndStatus(bool)": {
        "details": "function that sets ending status*",
        "notice": "set_EndStatus"
      },
      "transferOwnership(address)": {
        "details": "Transfers ownership of the contract to a new account (`newOwner`). Can only be called by the current owner."
      }
    },
    "version": 1
  },
  "opcodes": "PUSH1 0x80 PUSH1 0x40 MSTORE PUSH1 0x4 CALLDATASIZE LT PUSH2 0x104 JUMPI PUSH1 0x0 CALLDATALOAD PUSH1 0xE0 SHR DUP1 PUSH4 0xBA9A061A GT PUSH2 0xA0 JUMPI DUP1 PUSH4 0xD49DB5A8 GT PUSH2 0x64 JUMPI DUP1 PUSH4 0xD49DB5A8 EQ PUSH2 0x286 JUMPI DUP1 PUSH4 0xE73E1EB2 EQ PUSH2 0x2A0 JUMPI DUP1 PUSH4 0xEBB5B41C EQ PUSH2 0x2C0 JUMPI DUP1 PUSH4 0xF2FDE38B EQ PUSH2 0x2D3 JUMPI DUP1 PUSH4 0xFC0C546A EQ PUSH2 0x2F3 JUMPI PUSH1 0x0 DUP1 REVERT JUMPDEST DUP1 PUSH4 0xBA9A061A EQ PUSH2 0x227 JUMPI DUP1 PUSH4 0xC549E6B9 EQ PUSH2 0x23D JUMPI DUP1 PUSH4 0xC8B335A4 EQ PUSH2 0x253 JUMPI DUP1 PUSH4 0xD0BD4C73 EQ PUSH2 0x268 JUMPI DUP1 PUSH4 0xD0FEBE4C EQ PUSH2 0x27E JUMPI PUSH1 0x0 DUP1 REVERT JUMPDEST DUP1 PUSH4 0x12065FE0 EQ PUSH2 0x109 JUMPI DUP1 PUSH4 0x22F3E2D4 EQ PUSH2 0x12B JUMPI DUP1 PUSH4 0x3E0A322D EQ PUSH2 0x150 JUMPI DUP1 PUSH4 0x51CFF8D9 EQ PUSH2 0x172 JUMPI DUP1 PUSH4 0x620523B5 EQ PUSH2 0x192 JUMPI DUP1 PUSH4 0x715018A6 EQ PUSH2 0x1B2 JUMPI DUP1 PUSH4 0x85516AE2 EQ PUSH2 0x1C7 JUMPI DUP1 PUSH4 0x8DA5CB5B EQ PUSH2 0x1EF JUMPI DUP1 PUSH4 0xA3525848 EQ PUSH2 0x211 JUMPI JUMPDEST PUSH1 0x0 DUP1 REVERT JUMPDEST CALLVALUE DUP1 ISZERO PUSH2 0x115 JUMPI PUSH1 0x0 DUP1 REVERT JUMPDEST POP SELFBALANCE JUMPDEST PUSH1 0x40 MLOAD SWAP1 DUP2 MSTORE PUSH1 0x20 ADD JUMPDEST PUSH1 0x40 MLOAD DUP1 SWAP2 SUB SWAP1 RETURN JUMPDEST CALLVALUE DUP1 ISZERO PUSH2 0x137 JUMPI PUSH1 0x0 DUP1 REVERT JUMPDEST POP PUSH2 0x140 PUSH2 0x313 JUMP JUMPDEST PUSH1 0x40 MLOAD SWAP1 ISZERO ISZERO DUP2 MSTORE PUSH1 0x20 ADD PUSH2 0x122 JUMP JUMPDEST CALLVALUE DUP1 ISZERO PUSH2 0x15C JUMPI PUSH1 0x0 DUP1 REVERT JUMPDEST POP PUSH2 0x170 PUSH2 0x16B CALLDATASIZE PUSH1 0x4 PUSH2 0x913 JUMP JUMPDEST PUSH2 0x358 JUMP JUMPDEST STOP JUMPDEST CALLVALUE DUP1 ISZERO PUSH2 0x17E JUMPI PUSH1 0x0 DUP1 REVERT JUMPDEST POP PUSH2 0x170 PUSH2 0x18D CALLDATASIZE PUSH1 0x4 PUSH2 0x92C JUMP JUMPDEST PUSH2 0x395 JUMP JUMPDEST CALLVALUE DUP1 ISZERO PUSH2 0x19E JUMPI PUSH1 0x0 DUP1 REVERT JUMPDEST POP PUSH2 0x170 PUSH2 0x1AD CALLDATASIZE PUSH1 0x4 PUSH2 0x966 JUMP JUMPDEST PUSH2 0x3FD JUMP JUMPDEST CALLVALUE DUP1 ISZERO PUSH2 0x1BE JUMPI PUSH1 0x0 DUP1 REVERT JUMPDEST POP PUSH2 0x170 PUSH2 0x43F JUMP JUMPDEST CALLVALUE DUP1 ISZERO PUSH2 0x1D3 JUMPI PUSH1 0x0 DUP1 REVERT JUMPDEST POP PUSH2 0x118 PUSH2 0x1E2 CALLDATASIZE PUSH1 0x4 PUSH2 0x92C JUMP JUMPDEST PUSH1 0x1 PUSH1 0x1 PUSH1 0xA0 SHL SUB AND BALANCE SWAP1 JUMP JUMPDEST CALLVALUE DUP1 ISZERO PUSH2 0x1FB JUMPI PUSH1 0x0 DUP1 REVERT JUMPDEST POP PUSH2 0x204 PUSH2 0x4B8 JUMP JUMPDEST PUSH1 0x40 MLOAD PUSH2 0x122 SWAP2 SWAP1 PUSH2 0x983 JUMP JUMPDEST CALLVALUE DUP1 ISZERO PUSH2 0x21D JUMPI PUSH1 0x0 DUP1 REVERT JUMPDEST POP PUSH2 0x118 PUSH1 0x3 SLOAD DUP2 JUMP JUMPDEST CALLVALUE DUP1 ISZERO PUSH2 0x233 JUMPI PUSH1 0x0 DUP1 REVERT JUMPDEST POP PUSH2 0x118 PUSH1 0x4 SLOAD DUP2 JUMP JUMPDEST CALLVALUE DUP1 ISZERO PUSH2 0x249 JUMPI PUSH1 0x0 DUP1 REVERT JUMPDEST POP PUSH2 0x118 PUSH1 0x5 SLOAD DUP2 JUMP JUMPDEST CALLVALUE DUP1 ISZERO PUSH2 0x25F JUMPI PUSH1 0x0 DUP1 REVERT JUMPDEST POP PUSH2 0x170 PUSH2 0x4C7 JUMP JUMPDEST CALLVALUE DUP1 ISZERO PUSH2 0x274 JUMPI PUSH1 0x0 DUP1 REVERT JUMPDEST POP PUSH2 0x118 PUSH1 0x2 SLOAD DUP2 JUMP JUMPDEST PUSH2 0x170 PUSH2 0x5D5 JUMP JUMPDEST CALLVALUE DUP1 ISZERO PUSH2 0x292 JUMPI PUSH1 0x0 DUP1 REVERT JUMPDEST POP PUSH1 0x6 SLOAD PUSH2 0x140 SWAP1 PUSH1 0xFF AND DUP2 JUMP JUMPDEST CALLVALUE DUP1 ISZERO PUSH2 0x2AC JUMPI PUSH1 0x0 DUP1 REVERT JUMPDEST POP PUSH2 0x170 PUSH2 0x2BB CALLDATASIZE PUSH1 0x4 PUSH2 0x913 JUMP JUMPDEST PUSH2 0x7C3 JUMP JUMPDEST CALLVALUE DUP1 ISZERO PUSH2 0x2CC JUMPI PUSH1 0x0 DUP1 REVERT JUMPDEST POP TIMESTAMP PUSH2 0x118 JUMP JUMPDEST CALLVALUE DUP1 ISZERO PUSH2 0x2DF JUMPI PUSH1 0x0 DUP1 REVERT JUMPDEST POP PUSH2 0x170 PUSH2 0x2EE CALLDATASIZE PUSH1 0x4 PUSH2 0x92C JUMP JUMPDEST PUSH2 0x805 JUMP JUMPDEST CALLVALUE DUP1 ISZERO PUSH2 0x2FF JUMPI PUSH1 0x0 DUP1 REVERT JUMPDEST POP PUSH1 0x1 SLOAD PUSH2 0x204 SWAP1 PUSH1 0x1 PUSH1 0x1 PUSH1 0xA0 SHL SUB AND DUP2 JUMP JUMPDEST PUSH1 0x6 SLOAD PUSH1 0x0 SWAP1 PUSH1 0xFF AND ISZERO DUP1 ISZERO PUSH2 0x32B JUMPI POP PUSH1 0x4 SLOAD TIMESTAMP LT ISZERO JUMPDEST DUP1 ISZERO PUSH2 0x353 JUMPI POP PUSH1 0x5 SLOAD PUSH2 0x34F SWAP1 PUSH2 0x346 SWAP1 PUSH3 0x15180 PUSH2 0x8F4 JUMP JUMPDEST PUSH1 0x4 SLOAD SWAP1 PUSH2 0x907 JUMP JUMPDEST TIMESTAMP GT ISZERO JUMPDEST SWAP1 POP SWAP1 JUMP JUMPDEST CALLER PUSH2 0x361 PUSH2 0x4B8 JUMP JUMPDEST PUSH1 0x1 PUSH1 0x1 PUSH1 0xA0 SHL SUB AND EQ PUSH2 0x390 JUMPI PUSH1 0x40 MLOAD PUSH3 0x461BCD PUSH1 0xE5 SHL DUP2 MSTORE PUSH1 0x4 ADD PUSH2 0x387 SWAP1 PUSH2 0x997 JUMP JUMPDEST PUSH1 0x40 MLOAD DUP1 SWAP2 SUB SWAP1 REVERT JUMPDEST PUSH1 0x4 SSTORE JUMP JUMPDEST CALLER PUSH2 0x39E PUSH2 0x4B8 JUMP JUMPDEST PUSH1 0x1 PUSH1 0x1 PUSH1 0xA0 SHL SUB AND EQ PUSH2 0x3C4 JUMPI PUSH1 0x40 MLOAD PUSH3 0x461BCD PUSH1 0xE5 SHL DUP2 MSTORE PUSH1 0x4 ADD PUSH2 0x387 SWAP1 PUSH2 0x997 JUMP JUMPDEST PUSH1 0x40 MLOAD PUSH1 0x1 PUSH1 0x1 PUSH1 0xA0 SHL SUB DUP3 AND SWAP1 SELFBALANCE DUP1 ISZERO PUSH2 0x8FC MUL SWAP2 PUSH1 0x0 DUP2 DUP2 DUP2 DUP6 DUP9 DUP9 CALL SWAP4 POP POP POP POP ISZERO DUP1 ISZERO PUSH2 0x3F9 JUMPI RETURNDATASIZE PUSH1 0x0 DUP1 RETURNDATACOPY RETURNDATASIZE PUSH1 0x0 REVERT JUMPDEST POP POP JUMP JUMPDEST CALLER PUSH2 0x406 PUSH2 0x4B8 JUMP JUMPDEST PUSH1 0x1 PUSH1 0x1 PUSH1 0xA0 SHL SUB AND EQ PUSH2 0x42C JUMPI PUSH1 0x40 MLOAD PUSH3 0x461BCD PUSH1 0xE5 SHL DUP2 MSTORE PUSH1 0x4 ADD PUSH2 0x387 SWAP1 PUSH2 0x997 JUMP JUMPDEST PUSH1 0x6 DUP1 SLOAD PUSH1 0xFF NOT AND SWAP2 ISZERO ISZERO SWAP2 SWAP1 SWAP2 OR SWAP1 SSTORE JUMP JUMPDEST CALLER PUSH2 0x448 PUSH2 0x4B8 JUMP JUMPDEST PUSH1 0x1 PUSH1 0x1 PUSH1 0xA0 SHL SUB AND EQ PUSH2 0x46E JUMPI PUSH1 0x40 MLOAD PUSH3 0x461BCD PUSH1 0xE5 SHL DUP2 MSTORE PUSH1 0x4 ADD PUSH2 0x387 SWAP1 PUSH2 0x997 JUMP JUMPDEST PUSH1 0x0 DUP1 SLOAD PUSH1 0x40 MLOAD PUSH1 0x1 PUSH1 0x1 PUSH1 0xA0 SHL SUB SWAP1 SWAP2 AND SWAP1 PUSH32 0x8BE0079C531659141344CD1FD0A4F28419497F9722A3DAAFE3B4186F6B6457E0 SWAP1 DUP4 SWAP1 LOG3 PUSH1 0x0 DUP1 SLOAD PUSH1 0x1 PUSH1 0x1 PUSH1 0xA0 SHL SUB NOT AND SWAP1 SSTORE JUMP JUMPDEST PUSH1 0x0 SLOAD PUSH1 0x1 PUSH1 0x1 PUSH1 0xA0 SHL SUB AND SWAP1 JUMP JUMPDEST CALLER PUSH2 0x4D0 PUSH2 0x4B8 JUMP JUMPDEST PUSH1 0x1 PUSH1 0x1 PUSH1 0xA0 SHL SUB AND EQ PUSH2 0x4F6 JUMPI PUSH1 0x40 MLOAD PUSH3 0x461BCD PUSH1 0xE5 SHL DUP2 MSTORE PUSH1 0x4 ADD PUSH2 0x387 SWAP1 PUSH2 0x997 JUMP JUMPDEST PUSH1 0x1 SLOAD PUSH1 0x40 MLOAD PUSH4 0x70A08231 PUSH1 0xE0 SHL DUP2 MSTORE PUSH1 0x1 PUSH1 0x1 PUSH1 0xA0 SHL SUB SWAP1 SWAP2 AND SWAP1 PUSH4 0xA9059CBB SWAP1 CALLER SWAP1 DUP4 SWAP1 PUSH4 0x70A08231 SWAP1 PUSH2 0x530 SWAP1 ADDRESS SWAP1 PUSH1 0x4 ADD PUSH2 0x983 JUMP JUMPDEST PUSH1 0x20 PUSH1 0x40 MLOAD DUP1 DUP4 SUB DUP2 DUP7 GAS STATICCALL ISZERO DUP1 ISZERO PUSH2 0x54D JUMPI RETURNDATASIZE PUSH1 0x0 DUP1 RETURNDATACOPY RETURNDATASIZE PUSH1 0x0 REVERT JUMPDEST POP POP POP POP PUSH1 0x40 MLOAD RETURNDATASIZE PUSH1 0x1F NOT PUSH1 0x1F DUP3 ADD AND DUP3 ADD DUP1 PUSH1 0x40 MSTORE POP DUP2 ADD SWAP1 PUSH2 0x571 SWAP2 SWAP1 PUSH2 0x9CC JUMP JUMPDEST PUSH1 0x40 MLOAD DUP4 PUSH4 0xFFFFFFFF AND PUSH1 0xE0 SHL DUP2 MSTORE PUSH1 0x4 ADD PUSH2 0x58E SWAP3 SWAP2 SWAP1 PUSH2 0x9E5 JUMP JUMPDEST PUSH1 0x20 PUSH1 0x40 MLOAD DUP1 DUP4 SUB DUP2 PUSH1 0x0 DUP8 GAS CALL ISZERO DUP1 ISZERO PUSH2 0x5AD JUMPI RETURNDATASIZE PUSH1 0x0 DUP1 RETURNDATACOPY RETURNDATASIZE PUSH1 0x0 REVERT JUMPDEST POP POP POP POP PUSH1 0x40 MLOAD RETURNDATASIZE PUSH1 0x1F NOT PUSH1 0x1F DUP3 ADD AND DUP3 ADD DUP1 PUSH1 0x40 MSTORE POP DUP2 ADD SWAP1 PUSH2 0x5D1 SWAP2 SWAP1 PUSH2 0x9FE JUMP JUMPDEST POP CALLER SELFDESTRUCT JUMPDEST PUSH2 0x5DD PUSH2 0x313 JUMP JUMPDEST PUSH2 0x5E9 JUMPI PUSH2 0x5E9 PUSH2 0xA1B JUMP JUMPDEST PUSH1 0x2 SLOAD CALLER SWAP1 CALLVALUE SWAP1 PUSH2 0x5FA SWAP1 DUP3 PUSH2 0xA47 JUMP JUMPDEST PUSH1 0x1 SLOAD PUSH1 0x40 MLOAD PUSH4 0x70A08231 PUSH1 0xE0 SHL DUP2 MSTORE PUSH1 0x1 PUSH1 0x1 PUSH1 0xA0 SHL SUB SWAP1 SWAP2 AND SWAP1 PUSH4 0x70A08231 SWAP1 PUSH2 0x62A SWAP1 ADDRESS SWAP1 PUSH1 0x4 ADD PUSH2 0x983 JUMP JUMPDEST PUSH1 0x20 PUSH1 0x40 MLOAD DUP1 DUP4 SUB DUP2 DUP7 GAS STATICCALL ISZERO DUP1 ISZERO PUSH2 0x647 JUMPI RETURNDATASIZE PUSH1 0x0 DUP1 RETURNDATACOPY RETURNDATASIZE PUSH1 0x0 REVERT JUMPDEST POP POP POP POP PUSH1 0x40 MLOAD RETURNDATASIZE PUSH1 0x1F NOT PUSH1 0x1F DUP3 ADD AND DUP3 ADD DUP1 PUSH1 0x40 MSTORE POP DUP2 ADD SWAP1 PUSH2 0x66B SWAP2 SWAP1 PUSH2 0x9CC JUMP JUMPDEST LT ISZERO PUSH2 0x6D0 JUMPI PUSH1 0x40 MLOAD PUSH3 0x461BCD PUSH1 0xE5 SHL DUP2 MSTORE PUSH1 0x20 PUSH1 0x4 DUP3 ADD MSTORE PUSH1 0x2E PUSH1 0x24 DUP3 ADD MSTORE PUSH32 0x74686520736D61727420636F6E747261637420646F6E7420686F6C6420746865 PUSH1 0x44 DUP3 ADD MSTORE PUSH14 0x20656E6F75676820746F6B656E73 PUSH1 0x90 SHL PUSH1 0x64 DUP3 ADD MSTORE PUSH1 0x84 ADD PUSH2 0x387 JUMP JUMPDEST PUSH1 0x1 SLOAD PUSH1 0x2 SLOAD PUSH1 0x1 PUSH1 0x1 PUSH1 0xA0 SHL SUB SWAP1 SWAP2 AND SWAP1 PUSH4 0xA9059CBB SWAP1 DUP5 SWAP1 PUSH2 0x6F4 SWAP1 DUP6 PUSH2 0xA47 JUMP JUMPDEST PUSH1 0x40 MLOAD DUP4 PUSH4 0xFFFFFFFF AND PUSH1 0xE0 SHL DUP2 MSTORE PUSH1 0x4 ADD PUSH2 0x711 SWAP3 SWAP2 SWAP1 PUSH2 0x9E5 JUMP JUMPDEST PUSH1 0x20 PUSH1 0x40 MLOAD DUP1 DUP4 SUB DUP2 PUSH1 0x0 DUP8 GAS CALL ISZERO DUP1 ISZERO PUSH2 0x730 JUMPI RETURNDATASIZE PUSH1 0x0 DUP1 RETURNDATACOPY RETURNDATASIZE PUSH1 0x0 REVERT JUMPDEST POP POP POP POP PUSH1 0x40 MLOAD RETURNDATASIZE PUSH1 0x1F NOT PUSH1 0x1F DUP3 ADD AND DUP3 ADD DUP1 PUSH1 0x40 MSTORE POP DUP2 ADD SWAP1 PUSH2 0x754 SWAP2 SWAP1 PUSH2 0x9FE JUMP JUMPDEST POP PUSH1 0x2 SLOAD PUSH2 0x762 SWAP1 DUP3 PUSH2 0xA47 JUMP JUMPDEST PUSH1 0x3 PUSH1 0x0 DUP3 DUP3 SLOAD PUSH2 0x773 SWAP2 SWAP1 PUSH2 0xA66 JUMP JUMPDEST SWAP1 SWAP2 SSTORE POP POP PUSH1 0x2 SLOAD PUSH32 0x5E5E995CE3133561AFCEAA51A9A154D5DB228CD7525D34DF5185582C18D3DF09 SWAP1 DUP4 SWAP1 PUSH2 0x7A9 SWAP1 DUP5 PUSH2 0xA47 JUMP JUMPDEST PUSH1 0x40 MLOAD PUSH2 0x7B7 SWAP3 SWAP2 SWAP1 PUSH2 0x9E5 JUMP JUMPDEST PUSH1 0x40 MLOAD DUP1 SWAP2 SUB SWAP1 LOG1 POP POP JUMP JUMPDEST CALLER PUSH2 0x7CC PUSH2 0x4B8 JUMP JUMPDEST PUSH1 0x1 PUSH1 0x1 PUSH1 0xA0 SHL SUB AND EQ PUSH2 0x7F2 JUMPI PUSH1 0x40 MLOAD PUSH3 0x461BCD PUSH1 0xE5 SHL DUP2 MSTORE PUSH1 0x4 ADD PUSH2 0x387 SWAP1 PUSH2 0x997 JUMP JUMPDEST PUSH1 0x5 SLOAD PUSH2 0x7FF SWAP1 DUP3 PUSH2 0x907 JUMP JUMPDEST PUSH1 0x5 SSTORE POP JUMP JUMPDEST CALLER PUSH2 0x80E PUSH2 0x4B8 JUMP JUMPDEST PUSH1 0x1 PUSH1 0x1 PUSH1 0xA0 SHL SUB AND EQ PUSH2 0x834 JUMPI PUSH1 0x40 MLOAD PUSH3 0x461BCD PUSH1 0xE5 SHL DUP2 MSTORE PUSH1 0x4 ADD PUSH2 0x387 SWAP1 PUSH2 0x997 JUMP JUMPDEST PUSH1 0x1 PUSH1 0x1 PUSH1 0xA0 SHL SUB DUP2 AND PUSH2 0x899 JUMPI PUSH1 0x40 MLOAD PUSH3 0x461BCD PUSH1 0xE5 SHL DUP2 MSTORE PUSH1 0x20 PUSH1 0x4 DUP3 ADD MSTORE PUSH1 0x26 PUSH1 0x24 DUP3 ADD MSTORE PUSH32 0x4F776E61626C653A206E6577206F776E657220697320746865207A65726F2061 PUSH1 0x44 DUP3 ADD MSTORE PUSH6 0x646472657373 PUSH1 0xD0 SHL PUSH1 0x64 DUP3 ADD MSTORE PUSH1 0x84 ADD PUSH2 0x387 JUMP JUMPDEST PUSH1 0x0 DUP1 SLOAD PUSH1 0x40 MLOAD PUSH1 0x1 PUSH1 0x1 PUSH1 0xA0 SHL SUB DUP1 DUP6 AND SWAP4 SWAP3 AND SWAP2 PUSH32 0x8BE0079C531659141344CD1FD0A4F28419497F9722A3DAAFE3B4186F6B6457E0 SWAP2 LOG3 PUSH1 0x0 DUP1 SLOAD PUSH1 0x1 PUSH1 0x1 PUSH1 0xA0 SHL SUB NOT AND PUSH1 0x1 PUSH1 0x1 PUSH1 0xA0 SHL SUB SWAP3 SWAP1 SWAP3 AND SWAP2 SWAP1 SWAP2 OR SWAP1 SSTORE JUMP JUMPDEST PUSH1 0x0 PUSH2 0x900 DUP3 DUP5 PUSH2 0xA47 JUMP JUMPDEST SWAP4 SWAP3 POP POP POP JUMP JUMPDEST PUSH1 0x0 PUSH2 0x900 DUP3 DUP5 PUSH2 0xA66 JUMP JUMPDEST PUSH1 0x0 PUSH1 0x20 DUP3 DUP5 SUB SLT ISZERO PUSH2 0x925 JUMPI PUSH1 0x0 DUP1 REVERT JUMPDEST POP CALLDATALOAD SWAP2 SWAP1 POP JUMP JUMPDEST PUSH1 0x0 PUSH1 0x20 DUP3 DUP5 SUB SLT ISZERO PUSH2 0x93E JUMPI PUSH1 0x0 DUP1 REVERT JUMPDEST DUP2 CALLDATALOAD PUSH1 0x1 PUSH1 0x1 PUSH1 0xA0 SHL SUB DUP2 AND DUP2 EQ PUSH2 0x900 JUMPI PUSH1 0x0 DUP1 REVERT JUMPDEST DUP1 ISZERO ISZERO DUP2 EQ PUSH2 0x963 JUMPI PUSH1 0x0 DUP1 REVERT JUMPDEST POP JUMP JUMPDEST PUSH1 0x0 PUSH1 0x20 DUP3 DUP5 SUB SLT ISZERO PUSH2 0x978 JUMPI PUSH1 0x0 DUP1 REVERT JUMPDEST DUP2 CALLDATALOAD PUSH2 0x900 DUP2 PUSH2 0x955 JUMP JUMPDEST PUSH1 0x1 PUSH1 0x1 PUSH1 0xA0 SHL SUB SWAP2 SWAP1 SWAP2 AND DUP2 MSTORE PUSH1 0x20 ADD SWAP1 JUMP JUMPDEST PUSH1 0x20 DUP1 DUP3 MSTORE DUP2 DUP2 ADD MSTORE PUSH32 0x4F776E61626C653A2063616C6C6572206973206E6F7420746865206F776E6572 PUSH1 0x40 DUP3 ADD MSTORE PUSH1 0x60 ADD SWAP1 JUMP JUMPDEST PUSH1 0x0 PUSH1 0x20 DUP3 DUP5 SUB SLT ISZERO PUSH2 0x9DE JUMPI PUSH1 0x0 DUP1 REVERT JUMPDEST POP MLOAD SWAP2 SWAP1 POP JUMP JUMPDEST PUSH1 0x1 PUSH1 0x1 PUSH1 0xA0 SHL SUB SWAP3 SWAP1 SWAP3 AND DUP3 MSTORE PUSH1 0x20 DUP3 ADD MSTORE PUSH1 0x40 ADD SWAP1 JUMP JUMPDEST PUSH1 0x0 PUSH1 0x20 DUP3 DUP5 SUB SLT ISZERO PUSH2 0xA10 JUMPI PUSH1 0x0 DUP1 REVERT JUMPDEST DUP2 MLOAD PUSH2 0x900 DUP2 PUSH2 0x955 JUMP JUMPDEST PUSH4 0x4E487B71 PUSH1 0xE0 SHL PUSH1 0x0 MSTORE PUSH1 0x1 PUSH1 0x4 MSTORE PUSH1 0x24 PUSH1 0x0 REVERT JUMPDEST PUSH4 0x4E487B71 PUSH1 0xE0 SHL PUSH1 0x0 MSTORE PUSH1 0x11 PUSH1 0x4 MSTORE PUSH1 0x24 PUSH1 0x0 REVERT JUMPDEST PUSH1 0x0 DUP2 PUSH1 0x0 NOT DIV DUP4 GT DUP3 ISZERO ISZERO AND ISZERO PUSH2 0xA61 JUMPI PUSH2 0xA61 PUSH2 0xA31 JUMP JUMPDEST POP MUL SWAP1 JUMP JUMPDEST PUSH1 0x0 DUP3 NOT DUP3 GT ISZERO PUSH2 0xA79 JUMPI PUSH2 0xA79 PUSH2 0xA31 JUMP JUMPDEST POP ADD SWAP1 JUMP INVALID LOG2 PUSH5 0x6970667358 0x22 SLT KECCAK256 RETURN 0x21 0xEC STATICCALL SWAP8 0xA9 NUMBER 0xE6 0xDF SELFBALANCE PUSH24 0xA97D6447F7D6EA8768784F37455BB3D707AFE73B4564736F PUSH13 0x634300080F0033000000000000 ",
  "sha1": "67b12d62f5e26cbb99f9be24049c6ad8270320ec",
  "source": "// SPDX-License-Identifier: MIT\npragma solidity ^0.8.0;\n\n\nimport \"openzeppelin-solidity/contracts/utils/math/SafeMath.sol\";\n\ninterface IERC20 {\n    function totalSupply() external view returns (uint256);\n\n    function balanceOf(address account) external view returns (uint256);\n\n    function transfer(address recipient, uint256 amount) external returns (bool);\n\n    function allowance(address owner, address spender) external view returns (uint256);\n\n    function approve(address spender, uint256 amount) external returns (bool);\n\n    function transferFrom(address sender, address recipient, uint256 amount) external returns (bool);\n\n    event Transfer(address indexed from, address indexed to, uint256 value);\n\n    event Approval(address indexed owner, address indexed spender, uint256 value);\n}\n\nabstract contract Context {\n    function _msgSender() internal view virtual returns (address) {\n        return msg.sender;\n    }\n\n    function _msgData() internal view virtual returns (bytes calldata) {\n        this; // silence state mutability warning without generating bytecode - see https://github.com/ethereum/solidity/issues/2691\n        return msg.data;\n    }\n}\n\nabstract contract Ownable is Context {\n    address private _owner;\n\n    event OwnershipTransferred(address indexed previousOwner, address indexed newOwner);\n\n    /**\n     * @dev Initializes the contract setting the deployer as the initial owner.\n     */\n    constructor () {\n        address msgSender = _msgSender();\n        _owner = msgSender;\n        emit OwnershipTransferred(address(0), msgSender);\n    }\n\n    /**\n     * @dev Returns the address of the current owner.\n     */\n    function owner() public view virtual returns (address) {\n        return _owner;\n    }\n\n    /**\n     * @dev Throws if called by any account other than the owner.\n     */\n    modifier onlyOwner() {\n        require(owner() == _msgSender(), \"Ownable: caller is not the owner\");\n        _;\n    }\n\n    /**\n     * @dev Leaves the contract without owner. It will not be possible to call\n     * `onlyOwner` functions anymore. Can only be called by the current owner.\n     *\n     * NOTE: Renouncing ownership will leave the contract without an owner,\n     * thereby removing any functionality that is only available to the owner.\n     */\n    function renounceOwnership() public virtual onlyOwner {\n        emit OwnershipTransferred(_owner, address(0));\n        _owner = address(0);\n    }\n\n    /**\n     * @dev Transfers ownership of the contract to a new account (`newOwner`).\n     * Can only be called by the current owner.\n     */\n    function transferOwnership(address newOwner) public virtual onlyOwner {\n        require(newOwner != address(0), \"Ownable: new owner is the zero address\");\n        emit OwnershipTransferred(_owner, newOwner);\n        _owner = newOwner;\n    }\n}\n\ncontract TokenPreSale is Ownable {\n    using SafeMath for uint256;\n    // address of admin\n    IERC20 public token;\n    // token price variable\n    uint256 public tokenprice;\n    // count of token sold vaariable\n    uint256 public totalsold; \n\n    uint256 public START; // start ICO time blocktime \n    uint256 public DAYS; // During Days days\n    bool public endStatus = false;\n     \n    event Sell(address sender,uint256 totalvalue); \n    \n    /**\n    * whenSaleIsActive\n    * @dev ensures that the contract is still active\n    **/\n    modifier whenSaleIsActive() {\n        // Check if sale is active\n        assert(isActive());\n        _;\n    }\n    // constructor \n    constructor(address _tokenaddress, uint256 _tokenvalue, uint _startTime, uint _duringDays){\n        tokenprice = _tokenvalue;\n        token  = IERC20(_tokenaddress);\n        START = _startTime;\n        DAYS = _duringDays;\n    }\n   \n    // buyTokens function\n    function buyTokens() public whenSaleIsActive payable{\n        address buyer = msg.sender;\n        uint256 bnbAmount = msg.value;\n\n        // check if the contract has the tokens or not\n        require(token.balanceOf(address(this)) >= bnbAmount * tokenprice,'the smart contract dont hold the enough tokens');\n        // transfer the token to the user\n        token.transfer(buyer, bnbAmount * tokenprice);\n        // increase the token sold\n        totalsold += bnbAmount * tokenprice;\n        // emit sell event for ui\n        emit Sell(buyer, bnbAmount * tokenprice);\n    }\n\n    function getAvaxBal(address _addr) public view returns(uint256) {\n        return address(_addr).balance;\n    }\n\n    // view native token amount\n    function getBalance() public view returns (uint256) {\n        return address(this).balance;\n    }\n\n    function getCuurentTime() public view returns(uint256) {\n        return block.timestamp;\n    }\n    \n    /**\n    * delayDuration\n    * @dev function that delays ICO during days\n    **/\n    function delay_Duration(uint256 _delayDays) public onlyOwner {\n        DAYS = DAYS.add(_delayDays);\n    }\n\n    function setStartTime(uint256 _startTime) public onlyOwner {\n        START = _startTime;\n    }\n\n    /**\n    * isActive\n    * @dev Determins if the contract is still active\n    **/\n    function isActive() public view returns (bool) {\n        return (\n            endStatus == false && \n            block.timestamp >= START && // Must be after the START date\n            block.timestamp <= START.add(DAYS.mul(1 days)) // Must be before the end date\n        );\n    }\n\n    /**\n    * set_EndStatus\n    * @dev function that sets ending status\n    **/\n    function set_EndStatus(bool status) public onlyOwner {\n        endStatus = status;\n    }\n\n\n    // withdraw native token\n    function withdraw(address to) external onlyOwner {\n        payable(to).transfer(address(this).balance);\n    }\n\n    // end sale\n    function endsale() public onlyOwner {\n        // transfer all the remaining tokens to admin\n        token.transfer(msg.sender, token.balanceOf(address(this)));\n        // transfer all the etherum to admin and self selfdestruct the contract\n        selfdestruct(payable(msg.sender));\n    }\n}\n",
  "sourcePath": "contracts/TokenPreSale.sol",
  "type": "contract"
}