{
  "abi": [
    {
      "inputs": [
        {
          "internalType": "address",
          "name": "_cultureCoin",
          "type": "address"
        },
        {
          "internalType": "address",
          "name": "_DCBT",
          "type": "address"
        },
        {
          "internalType": "address",
          "name": "_cCA",
          "type": "address"
        },
        {
          "internalType": "uint256",
          "name": "_tokenMax",
          "type": "uint256"
        },
        {
          "internalType": "uint256",
          "name": "_plurality",
          "type": "uint256"
        },
        {
          "internalType": "address",
          "name": "_scratches",
          "type": "address"
        },
        {
          "internalType": "address",
          "name": "_authorAddress",
          "type": "address"
        },
        {
          "internalType": "string",
          "name": "_language",
          "type": "string"
        }
      ],
      "stateMutability": "nonpayable",
      "type": "constructor"
    },
    {
      "anonymous": false,
      "inputs": [
        {
          "indexed": false,
          "internalType": "uint256",
          "name": "nonce",
          "type": "uint256"
        }
      ],
      "name": "Nonce",
      "type": "event"
    },
    {
      "anonymous": false,
      "inputs": [
        {
          "indexed": false,
          "internalType": "string",
          "name": "prompt",
          "type": "string"
        },
        {
          "indexed": false,
          "internalType": "uint256",
          "name": "tokenId",
          "type": "uint256"
        },
        {
          "indexed": false,
          "internalType": "uint256",
          "name": "value",
          "type": "uint256"
        },
        {
          "indexed": false,
          "internalType": "uint256",
          "name": "scratchId",
          "type": "uint256"
        }
      ],
      "name": "Translate",
      "type": "event"
    },
    {
      "anonymous": false,
      "inputs": [
        {
          "indexed": false,
          "internalType": "uint256",
          "name": "tokenId",
          "type": "uint256"
        },
        {
          "indexed": false,
          "internalType": "bool",
          "name": "vote",
          "type": "bool"
        },
        {
          "indexed": false,
          "internalType": "uint256",
          "name": "value",
          "type": "uint256"
        }
      ],
      "name": "YesNo",
      "type": "event"
    },
    {
      "inputs": [],
      "name": "DCBT",
      "outputs": [
        {
          "internalType": "address",
          "name": "",
          "type": "address"
        }
      ],
      "stateMutability": "view",
      "type": "function"
    },
    {
      "inputs": [
        {
          "internalType": "uint256",
          "name": "",
          "type": "uint256"
        }
      ],
      "name": "b",
      "outputs": [
        {
          "internalType": "uint256",
          "name": "",
          "type": "uint256"
        }
      ],
      "stateMutability": "view",
      "type": "function"
    },
    {
      "inputs": [],
      "name": "cCA",
      "outputs": [
        {
          "internalType": "address",
          "name": "",
          "type": "address"
        }
      ],
      "stateMutability": "view",
      "type": "function"
    },
    {
      "inputs": [],
      "name": "contractNonce",
      "outputs": [
        {
          "internalType": "uint256",
          "name": "",
          "type": "uint256"
        }
      ],
      "stateMutability": "view",
      "type": "function"
    },
    {
      "inputs": [
        {
          "internalType": "uint256",
          "name": "",
          "type": "uint256"
        }
      ],
      "name": "counted",
      "outputs": [
        {
          "internalType": "bool",
          "name": "",
          "type": "bool"
        }
      ],
      "stateMutability": "view",
      "type": "function"
    },
    {
      "inputs": [],
      "name": "cultureCoin",
      "outputs": [
        {
          "internalType": "address",
          "name": "",
          "type": "address"
        }
      ],
      "stateMutability": "view",
      "type": "function"
    },
    {
      "inputs": [],
      "name": "getBaseCost",
      "outputs": [
        {
          "internalType": "uint256",
          "name": "",
          "type": "uint256"
        }
      ],
      "stateMutability": "view",
      "type": "function"
    },
    {
      "inputs": [],
      "name": "getMaxCost",
      "outputs": [
        {
          "internalType": "uint256",
          "name": "",
          "type": "uint256"
        }
      ],
      "stateMutability": "view",
      "type": "function"
    },
    {
      "inputs": [],
      "name": "getNonce",
      "outputs": [
        {
          "internalType": "uint256",
          "name": "",
          "type": "uint256"
        }
      ],
      "stateMutability": "view",
      "type": "function"
    },
    {
      "inputs": [],
      "name": "getPaid",
      "outputs": [],
      "stateMutability": "nonpayable",
      "type": "function"
    },
    {
      "inputs": [
        {
          "internalType": "uint256",
          "name": "_tokenId",
          "type": "uint256"
        }
      ],
      "name": "getTokenOwner",
      "outputs": [
        {
          "internalType": "address",
          "name": "",
          "type": "address"
        }
      ],
      "stateMutability": "view",
      "type": "function"
    },
    {
      "inputs": [
        {
          "internalType": "address",
          "name": "_contract",
          "type": "address"
        },
        {
          "internalType": "uint256",
          "name": "_tokenId",
          "type": "uint256"
        }
      ],
      "name": "getTokenOwnerWithContract",
      "outputs": [
        {
          "internalType": "address",
          "name": "",
          "type": "address"
        }
      ],
      "stateMutability": "view",
      "type": "function"
    },
    {
      "inputs": [],
      "name": "getYesNo",
      "outputs": [
        {
          "internalType": "bool",
          "name": "",
          "type": "bool"
        }
      ],
      "stateMutability": "view",
      "type": "function"
    },
    {
      "inputs": [
        {
          "internalType": "uint256",
          "name": "_tokenId",
          "type": "uint256"
        }
      ],
      "name": "incrementNonce",
      "outputs": [],
      "stateMutability": "payable",
      "type": "function"
    },
    {
      "inputs": [],
      "name": "maxToken",
      "outputs": [
        {
          "internalType": "uint256",
          "name": "",
          "type": "uint256"
        }
      ],
      "stateMutability": "view",
      "type": "function"
    },
    {
      "inputs": [],
      "name": "noncePayment",
      "outputs": [
        {
          "internalType": "uint256",
          "name": "",
          "type": "uint256"
        }
      ],
      "stateMutability": "view",
      "type": "function"
    },
    {
      "inputs": [],
      "name": "plurality",
      "outputs": [
        {
          "internalType": "uint256",
          "name": "",
          "type": "uint256"
        }
      ],
      "stateMutability": "view",
      "type": "function"
    },
    {
      "inputs": [],
      "name": "recover",
      "outputs": [],
      "stateMutability": "nonpayable",
      "type": "function"
    },
    {
      "inputs": [
        {
          "internalType": "uint256",
          "name": "_amountCC",
          "type": "uint256"
        }
      ],
      "name": "recoverCC",
      "outputs": [],
      "stateMutability": "nonpayable",
      "type": "function"
    },
    {
      "inputs": [],
      "name": "remitAllPay",
      "outputs": [],
      "stateMutability": "nonpayable",
      "type": "function"
    },
    {
      "inputs": [
        {
          "internalType": "uint256",
          "name": "_tokenId",
          "type": "uint256"
        }
      ],
      "name": "remitPay",
      "outputs": [],
      "stateMutability": "nonpayable",
      "type": "function"
    },
    {
      "inputs": [
        {
          "internalType": "uint256",
          "name": "_tokenId",
          "type": "uint256"
        },
        {
          "internalType": "uint256",
          "name": "_tranlateTax",
          "type": "uint256"
        }
      ],
      "name": "setBENTax",
      "outputs": [],
      "stateMutability": "nonpayable",
      "type": "function"
    },
    {
      "inputs": [
        {
          "internalType": "uint256",
          "name": "_baseCost",
          "type": "uint256"
        }
      ],
      "name": "setBaseCost",
      "outputs": [],
      "stateMutability": "nonpayable",
      "type": "function"
    },
    {
      "inputs": [
        {
          "internalType": "bool",
          "name": "_doTranslate",
          "type": "bool"
        }
      ],
      "name": "setDoTranslate",
      "outputs": [],
      "stateMutability": "nonpayable",
      "type": "function"
    },
    {
      "inputs": [
        {
          "internalType": "uint256",
          "name": "_maxCost",
          "type": "uint256"
        }
      ],
      "name": "setMaxCost",
      "outputs": [],
      "stateMutability": "nonpayable",
      "type": "function"
    },
    {
      "inputs": [
        {
          "internalType": "uint256",
          "name": "_amount",
          "type": "uint256"
        }
      ],
      "name": "setNoncePayment",
      "outputs": [],
      "stateMutability": "nonpayable",
      "type": "function"
    },
    {
      "inputs": [
        {
          "internalType": "uint256",
          "name": "",
          "type": "uint256"
        }
      ],
      "name": "tranlateTax",
      "outputs": [
        {
          "internalType": "uint256",
          "name": "",
          "type": "uint256"
        }
      ],
      "stateMutability": "view",
      "type": "function"
    },
    {
      "inputs": [
        {
          "internalType": "string",
          "name": "_prompt",
          "type": "string"
        },
        {
          "internalType": "uint256",
          "name": "_tokenId",
          "type": "uint256"
        }
      ],
      "name": "translate",
      "outputs": [],
      "stateMutability": "payable",
      "type": "function"
    },
    {
      "inputs": [
        {
          "internalType": "uint256",
          "name": "",
          "type": "uint256"
        }
      ],
      "name": "upDownVote",
      "outputs": [
        {
          "internalType": "bool",
          "name": "",
          "type": "bool"
        }
      ],
      "stateMutability": "view",
      "type": "function"
    },
    {
      "inputs": [
        {
          "internalType": "uint256",
          "name": "_tokenId",
          "type": "uint256"
        },
        {
          "internalType": "bool",
          "name": "_upDownVote",
          "type": "bool"
        }
      ],
      "name": "yesNo",
      "outputs": [],
      "stateMutability": "payable",
      "type": "function"
    }
  ],
  "bytecode": "60806040523480156200001157600080fd5b506040516200192538038062001925833981016040819052620000349162000192565b6001600055600480546001600160a01b03199081166001600160a01b038a8116919091179092556005805482168984161790556008869055600d8054610100600160a81b03191661010087851602179055601080549091169184169190911790558051620000aa90600c906020840190620000b9565b5050505050505050506200031e565b828054620000c790620002e2565b90600052602060002090601f016020900481019282620000eb576000855562000136565b82601f106200010657805160ff191683800117855562000136565b8280016001018555821562000136579182015b828111156200013657825182559160200191906001019062000119565b506200014492915062000148565b5090565b5b8082111562000144576000815560010162000149565b80516001600160a01b03811681146200017757600080fd5b919050565b634e487b7160e01b600052604160045260246000fd5b600080600080600080600080610100898b031215620001b057600080fd5b620001bb896200015f565b97506020620001cc818b016200015f565b9750620001dc60408b016200015f565b965060608a0151955060808a01519450620001fa60a08b016200015f565b93506200020a60c08b016200015f565b60e08b01519093506001600160401b03808211156200022857600080fd5b818c0191508c601f8301126200023d57600080fd5b8151818111156200025257620002526200017c565b604051601f8201601f19908116603f011681019083821181831017156200027d576200027d6200017c565b816040528281528f868487010111156200029657600080fd5b600093505b82841015620002ba57848401860151818501870152928501926200029b565b82841115620002cc5760008684830101525b8096505050505050509295985092959890939650565b600181811c90821680620002f757607f821691505b6020821081036200031857634e487b7160e01b600052602260045260246000fd5b50919050565b6115f7806200032e6000396000f3fe60806040526004361061018d5760003560e01c8063be10559c116100d7578063d1c4a3ab11610085578063d1c4a3ab1461043e578063e17ba2131461045e578063e44867a414610473578063e4b8352114610493578063e4e6bea7146104c3578063e647e01a146104d8578063f0f66498146104f8578063f7a80fe91461050d57600080fd5b8063be10559c1461037c578063c49352501461039c578063ca69e323146103bc578063cd580ff3146103d2578063ce746024146103ff578063cf41d6f814610414578063d087d2881461042957600080fd5b8063668444021161013f57806366844402146102ab57806366925b95146102c1578063692f85f6146102d457806380b92640146102e75780638ab0310f14610314578063991ca38314610327578063a5cd761f14610347578063b54b6b161461036757600080fd5b8063115d997d146101925780632b5dc91f146101cf5780632f5ff155146101f15780633c2cdeb814610211578063400f4544146102515780634409559a1461027557806349d71f0514610295575b600080fd5b34801561019e57600080fd5b506006546101b2906001600160a01b031681565b6040516001600160a01b0390911681526020015b60405180910390f35b3480156101db57600080fd5b506101ef6101ea3660046112ac565b61052d565b005b3480156101fd57600080fd5b506101ef61020c3660046112c5565b6105b7565b34801561021d57600080fd5b5061024161022c3660046112ac565b60016020526000908152604090205460ff1681565b60405190151581526020016101c6565b34801561025d57600080fd5b5061026760085481565b6040519081526020016101c6565b34801561028157600080fd5b506005546101b2906001600160a01b031681565b3480156102a157600080fd5b50610267600a5481565b3480156102b757600080fd5b50610267600b5481565b6101ef6102cf3660046112fd565b610629565b6101ef6102e23660046112ac565b61090a565b3480156102f357600080fd5b506102676103023660046112ac565b60126020526000908152604090205481565b6101ef6103223660046113c0565b610a7e565b34801561033357600080fd5b506101ef6103423660046112ac565b610c20565b34801561035357600080fd5b506101b26103623660046112ac565b610d1d565b34801561037357600080fd5b506101ef610d93565b34801561038857600080fd5b506101ef6103973660046113f0565b610e9e565b3480156103a857600080fd5b506004546101b2906001600160a01b031681565b3480156103c857600080fd5b5061026760075481565b3480156103de57600080fd5b506102676103ed3660046112ac565b60036020526000908152604090205481565b34801561040b57600080fd5b506101ef610f22565b34801561042057600080fd5b506101ef610f60565b34801561043557600080fd5b50600a54610267565b34801561044a57600080fd5b506101ef6104593660046112ac565b610ffe565b34801561046a57600080fd5b50600e54610267565b34801561047f57600080fd5b506101b261048e366004611422565b6110eb565b34801561049f57600080fd5b506102416104ae3660046112ac565b60026020526000908152604090205460ff1681565b3480156104cf57600080fd5b50600f54610267565b3480156104e457600080fd5b506101ef6104f33660046112ac565b61115e565b34801561050457600080fd5b506102416111e3565b34801561051957600080fd5b506101ef6105283660046112ac565b611243565b6005546001600160a01b031633146105b25760405162461bcd60e51b815260206004820152603c60248201527f4f6e6c792042454e27732061646d696e6973747261746f72206d61792063686160448201527f6e6765206869732062617365207472616e736c61746520636f73742e0000000060648201526084015b60405180910390fd5b600e55565b336105c183610d1d565b6001600160a01b0316146106175760405162461bcd60e51b815260206004820152601b60248201527f596f75206172656e27742074686520626f7373206f662042454e21000000000060448201526064016105a9565b60009182526012602052604090912055565b600d5460ff1661066c5760405162461bcd60e51b815260206004820152600e60248201526d29ba30b93a34b733903ab817171760911b60448201526064016105a9565b6000818152601260205260409020546106e15760405162461bcd60e51b815260206004820152603160248201527f42454e20646f6573206e6f74206b6e6f772061626f757420746861742073706f604482015270742e2042454e20736179733a204e61682160781b60648201526084016105a9565b60008181526012602052604090205434108015906107015750600e543410155b6107695760405162461bcd60e51b815260206004820152603360248201527f497420636f737473206d6f726520746f207472616e6c6174652042454e20686560448201527272652e2042454e20736179733a204d656f723f60681b60648201526084016105a9565b600f543411156107bb5760405162461bcd60e51b815260206004820152601a60248201527f4c65742773206e6f7420626520756e726561736f6e61626c652e00000000000060448201526064016105a9565b600d5460405163a795e19360e01b815233600482015260009161010090046001600160a01b03169063a795e193906024016020604051808303816000875af115801561080b573d6000803e3d6000fd5b505050506040513d601f19601f8201168201806040525081019061082f919061144e565b90507fcbc4de7d448d76b0d0d273853142720d192139dc253b3665f801fd7b753db290838334846040516108669493929190611467565b60405180910390a1600061087b6002346114e6565b905060006108898234611508565b9050816003600086815260200190815260200160002060008282546108ae919061151f565b90915550600090506108c16002836114e6565b905060006108cf8284611508565b905081600960008282546108e3919061151f565b9250508190555080601160008282546108fc919061151f565b909155505050505050505050565b3361091482610d1d565b6001600160a01b03161461099a5760405162461bcd60e51b815260206004820152604160248201527f596f7520617265206e6f7420696e2074686520636c617373206f6620746f6b6560448201527f6e20686f6c646572732077686f2063616e2066726f622074686973206469616c6064820152601760f91b608482015260a4016105a9565b600b5415610a1857600b543410156109fe5760405162461bcd60e51b815260206004820152602160248201527f436f737473206d6f726520746f2066726f622074686973206469616c206e6f776044820152601760f91b60648201526084016105a9565b600a8054906000610a0e83611537565b9190505550610a2e565b600a8054906000610a2883611537565b91905055505b3460096000828254610a40919061151f565b9091555050600a546040519081527fe335c04c904a95df658ab3e6bb90e9f8f42b8d7b0dd1c5ec3c3000eff7562bc39060200160405180910390a150565b600480546040516331a9108f60e11b815291820184905233916001600160a01b0390911690636352211e90602401602060405180830381865afa158015610ac9573d6000803e3d6000fd5b505050506040513d601f19601f82011682018060405250810190610aed9190611550565b6001600160a01b031614610b365760405162461bcd60e51b815260206004820152601060248201526f27bbb7103a37b5b2b7103334b939ba1760811b60448201526064016105a9565b60008281526002602052604090205460ff1615610b885760405162461bcd60e51b815260206004820152601060248201526f20b63932b0b23c9031b7bab73a32b21760811b60448201526064016105a9565b60008281526003602052604081208054349290610ba690849061151f565b90915550506000828152600260209081526040808320805460ff199081166001908117909255908352928190208054851515941684179055805185815291820192909252348183015290517f9e3972d99dc7ca54de91944b044d4b600c41d1e212ca70ed9193169e998f8575916060908290030190a15050565b6005546001600160a01b03163314610ca05760405162461bcd60e51b815260206004820152603a60248201527f4f6e6c79207468652061646d696e697374726174796f72206d79207265636f7660448201527f6572206c656674206f7665722043756c7475726520436f696e2e00000000000060648201526084016105a9565b60065460055460405163a9059cbb60e01b81526001600160a01b0391821660048201526024810184905291169063a9059cbb906044016020604051808303816000875af1158015610cf5573d6000803e3d6000fd5b505050506040513d601f19601f82011682018060405250810190610d19919061156d565b5050565b600480546040516331a9108f60e11b81529182018390526000916001600160a01b0390911690636352211e90602401602060405180830381865afa158015610d69573d6000803e3d6000fd5b505050506040513d601f19601f82011682018060405250810190610d8d9190611550565b92915050565b600260005403610db55760405162461bcd60e51b81526004016105a99061158a565b600260005560015b6007548111610e9657600480546040516331a9108f60e11b81529182018390526001600160a01b031690636352211e90602401602060405180830381865afa158015610e0d573d6000803e3d6000fd5b505050506040513d601f19601f82011682018060405250810190610e319190611550565b6000828152600360205260408082205490516001600160a01b03939093169281156108fc0292818181858888f19350505050158015610e74573d6000803e3d6000fd5b5060008181526003602052604081205580610e8e81611537565b915050610dbd565b506001600055565b6005546001600160a01b03163314610f0f5760405162461bcd60e51b815260206004820152602e60248201527f4f6e6c792042454e27732061646d696e6973747261746f722063616e2073617960448201526d1034329034b99037b73634b7329760911b60648201526084016105a9565b600d805460ff1916911515919091179055565b600060098190556005546040516001600160a01b03909116916108fc9181818181818888f19350505050158015610f5d573d6000803e3d6000fd5b50565b6010546001600160a01b03163314610fba5760405162461bcd60e51b815260206004820152601e60248201527f596f7520646f6e277420636c65616e206d79206c697474657220626f7821000060448201526064016105a9565b6010546011546040516001600160a01b039092169181156108fc0291906000818181858888f19350505050158015610ff6573d6000803e3d6000fd5b506000601155565b6002600054036110205760405162461bcd60e51b81526004016105a99061158a565b6002600055600480546040516331a9108f60e11b81529182018390526001600160a01b031690636352211e90602401602060405180830381865afa15801561106c573d6000803e3d6000fd5b505050506040513d601f19601f820116820180604052508101906110909190611550565b6000828152600360205260408082205490516001600160a01b03939093169281156108fc0292818181858888f193505050501580156110d3573d6000803e3d6000fd5b50600090815260036020526040812081905560019055565b6040516331a9108f60e11b8152600481018290526000906001600160a01b03841690636352211e90602401602060405180830381865afa158015611133573d6000803e3d6000fd5b505050506040513d601f19601f820116820180604052508101906111579190611550565b9392505050565b6005546001600160a01b031633146111de5760405162461bcd60e51b815260206004820152603b60248201527f4f6e6c792042454e27732061646d696e6973747261746f72206d61792063686160448201527f6e676520686973206d6178207472616e736c61746520636f73742e000000000060648201526084016105a9565b600f55565b60008060015b600754811161123a5760008181526001602052604090205460ff1615611228578061121381611537565b91505060085481106112285760019250505090565b8061123281611537565b9150506111e9565b50600091505090565b6005546001600160a01b031633146112a75760405162461bcd60e51b815260206004820152602160248201527f4f6e6c79207468652061646d696e206d617920736574207468652070726963656044820152601760f91b60648201526084016105a9565b600b55565b6000602082840312156112be57600080fd5b5035919050565b600080604083850312156112d857600080fd5b50508035926020909101359150565b634e487b7160e01b600052604160045260246000fd5b6000806040838503121561131057600080fd5b823567ffffffffffffffff8082111561132857600080fd5b818501915085601f83011261133c57600080fd5b81358181111561134e5761134e6112e7565b604051601f8201601f19908116603f01168101908382118183101715611376576113766112e7565b8160405282815288602084870101111561138f57600080fd5b826020860160208301376000602093820184015298969091013596505050505050565b8015158114610f5d57600080fd5b600080604083850312156113d357600080fd5b8235915060208301356113e5816113b2565b809150509250929050565b60006020828403121561140257600080fd5b8135611157816113b2565b6001600160a01b0381168114610f5d57600080fd5b6000806040838503121561143557600080fd5b82356114408161140d565b946020939093013593505050565b60006020828403121561146057600080fd5b5051919050565b608081526000855180608084015260005b8181101561149557602081890181015160a0868401015201611478565b818111156114a757600060a083860101525b506020830195909552506040810192909252606082015260a0601f909201601f19160101919050565b634e487b7160e01b600052601160045260246000fd5b60008261150357634e487b7160e01b600052601260045260246000fd5b500490565b60008282101561151a5761151a6114d0565b500390565b60008219821115611532576115326114d0565b500190565b600060018201611549576115496114d0565b5060010190565b60006020828403121561156257600080fd5b81516111578161140d565b60006020828403121561157f57600080fd5b8151611157816113b2565b6020808252601f908201527f5265656e7472616e637947756172643a207265656e7472616e742063616c6c0060408201526060019056fea264697066735822122018461a8da7315312e845199cb3b4c6e67132b6893e13e612e6974b7f3d2f19f464736f6c634300080e0033",
  "bytecodeSha1": "33dec9c32b75b0fa52382e1706f1bbac9165422b",
  "compiler": {
    "evm_version": "istanbul",
    "optimizer": {
      "enabled": true,
      "runs": 100
    },
    "version": "0.8.14+commit.80d49f37"
  },
  "contractName": "Transalation",
  "language": "Solidity",
  "natspec": {
    "kind": "dev",
    "methods": {},
    "version": 1
  },
  "opcodes": "PUSH1 0x80 PUSH1 0x40 MSTORE PUSH1 0x4 CALLDATASIZE LT PUSH2 0x18D JUMPI PUSH1 0x0 CALLDATALOAD PUSH1 0xE0 SHR DUP1 PUSH4 0xBE10559C GT PUSH2 0xD7 JUMPI DUP1 PUSH4 0xD1C4A3AB GT PUSH2 0x85 JUMPI DUP1 PUSH4 0xD1C4A3AB EQ PUSH2 0x43E JUMPI DUP1 PUSH4 0xE17BA213 EQ PUSH2 0x45E JUMPI DUP1 PUSH4 0xE44867A4 EQ PUSH2 0x473 JUMPI DUP1 PUSH4 0xE4B83521 EQ PUSH2 0x493 JUMPI DUP1 PUSH4 0xE4E6BEA7 EQ PUSH2 0x4C3 JUMPI DUP1 PUSH4 0xE647E01A EQ PUSH2 0x4D8 JUMPI DUP1 PUSH4 0xF0F66498 EQ PUSH2 0x4F8 JUMPI DUP1 PUSH4 0xF7A80FE9 EQ PUSH2 0x50D JUMPI PUSH1 0x0 DUP1 REVERT JUMPDEST DUP1 PUSH4 0xBE10559C EQ PUSH2 0x37C JUMPI DUP1 PUSH4 0xC4935250 EQ PUSH2 0x39C JUMPI DUP1 PUSH4 0xCA69E323 EQ PUSH2 0x3BC JUMPI DUP1 PUSH4 0xCD580FF3 EQ PUSH2 0x3D2 JUMPI DUP1 PUSH4 0xCE746024 EQ PUSH2 0x3FF JUMPI DUP1 PUSH4 0xCF41D6F8 EQ PUSH2 0x414 JUMPI DUP1 PUSH4 0xD087D288 EQ PUSH2 0x429 JUMPI PUSH1 0x0 DUP1 REVERT JUMPDEST DUP1 PUSH4 0x66844402 GT PUSH2 0x13F JUMPI DUP1 PUSH4 0x66844402 EQ PUSH2 0x2AB JUMPI DUP1 PUSH4 0x66925B95 EQ PUSH2 0x2C1 JUMPI DUP1 PUSH4 0x692F85F6 EQ PUSH2 0x2D4 JUMPI DUP1 PUSH4 0x80B92640 EQ PUSH2 0x2E7 JUMPI DUP1 PUSH4 0x8AB0310F EQ PUSH2 0x314 JUMPI DUP1 PUSH4 0x991CA383 EQ PUSH2 0x327 JUMPI DUP1 PUSH4 0xA5CD761F EQ PUSH2 0x347 JUMPI DUP1 PUSH4 0xB54B6B16 EQ PUSH2 0x367 JUMPI PUSH1 0x0 DUP1 REVERT JUMPDEST DUP1 PUSH4 0x115D997D EQ PUSH2 0x192 JUMPI DUP1 PUSH4 0x2B5DC91F EQ PUSH2 0x1CF JUMPI DUP1 PUSH4 0x2F5FF155 EQ PUSH2 0x1F1 JUMPI DUP1 PUSH4 0x3C2CDEB8 EQ PUSH2 0x211 JUMPI DUP1 PUSH4 0x400F4544 EQ PUSH2 0x251 JUMPI DUP1 PUSH4 0x4409559A EQ PUSH2 0x275 JUMPI DUP1 PUSH4 0x49D71F05 EQ PUSH2 0x295 JUMPI JUMPDEST PUSH1 0x0 DUP1 REVERT JUMPDEST CALLVALUE DUP1 ISZERO PUSH2 0x19E JUMPI PUSH1 0x0 DUP1 REVERT JUMPDEST POP PUSH1 0x6 SLOAD PUSH2 0x1B2 SWAP1 PUSH1 0x1 PUSH1 0x1 PUSH1 0xA0 SHL SUB AND DUP2 JUMP JUMPDEST PUSH1 0x40 MLOAD PUSH1 0x1 PUSH1 0x1 PUSH1 0xA0 SHL SUB SWAP1 SWAP2 AND DUP2 MSTORE PUSH1 0x20 ADD JUMPDEST PUSH1 0x40 MLOAD DUP1 SWAP2 SUB SWAP1 RETURN JUMPDEST CALLVALUE DUP1 ISZERO PUSH2 0x1DB JUMPI PUSH1 0x0 DUP1 REVERT JUMPDEST POP PUSH2 0x1EF PUSH2 0x1EA CALLDATASIZE PUSH1 0x4 PUSH2 0x12AC JUMP JUMPDEST PUSH2 0x52D JUMP JUMPDEST STOP JUMPDEST CALLVALUE DUP1 ISZERO PUSH2 0x1FD JUMPI PUSH1 0x0 DUP1 REVERT JUMPDEST POP PUSH2 0x1EF PUSH2 0x20C CALLDATASIZE PUSH1 0x4 PUSH2 0x12C5 JUMP JUMPDEST PUSH2 0x5B7 JUMP JUMPDEST CALLVALUE DUP1 ISZERO PUSH2 0x21D JUMPI PUSH1 0x0 DUP1 REVERT JUMPDEST POP PUSH2 0x241 PUSH2 0x22C CALLDATASIZE PUSH1 0x4 PUSH2 0x12AC JUMP JUMPDEST PUSH1 0x1 PUSH1 0x20 MSTORE PUSH1 0x0 SWAP1 DUP2 MSTORE PUSH1 0x40 SWAP1 KECCAK256 SLOAD PUSH1 0xFF AND DUP2 JUMP JUMPDEST PUSH1 0x40 MLOAD SWAP1 ISZERO ISZERO DUP2 MSTORE PUSH1 0x20 ADD PUSH2 0x1C6 JUMP JUMPDEST CALLVALUE DUP1 ISZERO PUSH2 0x25D JUMPI PUSH1 0x0 DUP1 REVERT JUMPDEST POP PUSH2 0x267 PUSH1 0x8 SLOAD DUP2 JUMP JUMPDEST PUSH1 0x40 MLOAD SWAP1 DUP2 MSTORE PUSH1 0x20 ADD PUSH2 0x1C6 JUMP JUMPDEST CALLVALUE DUP1 ISZERO PUSH2 0x281 JUMPI PUSH1 0x0 DUP1 REVERT JUMPDEST POP PUSH1 0x5 SLOAD PUSH2 0x1B2 SWAP1 PUSH1 0x1 PUSH1 0x1 PUSH1 0xA0 SHL SUB AND DUP2 JUMP JUMPDEST CALLVALUE DUP1 ISZERO PUSH2 0x2A1 JUMPI PUSH1 0x0 DUP1 REVERT JUMPDEST POP PUSH2 0x267 PUSH1 0xA SLOAD DUP2 JUMP JUMPDEST CALLVALUE DUP1 ISZERO PUSH2 0x2B7 JUMPI PUSH1 0x0 DUP1 REVERT JUMPDEST POP PUSH2 0x267 PUSH1 0xB SLOAD DUP2 JUMP JUMPDEST PUSH2 0x1EF PUSH2 0x2CF CALLDATASIZE PUSH1 0x4 PUSH2 0x12FD JUMP JUMPDEST PUSH2 0x629 JUMP JUMPDEST PUSH2 0x1EF PUSH2 0x2E2 CALLDATASIZE PUSH1 0x4 PUSH2 0x12AC JUMP JUMPDEST PUSH2 0x90A JUMP JUMPDEST CALLVALUE DUP1 ISZERO PUSH2 0x2F3 JUMPI PUSH1 0x0 DUP1 REVERT JUMPDEST POP PUSH2 0x267 PUSH2 0x302 CALLDATASIZE PUSH1 0x4 PUSH2 0x12AC JUMP JUMPDEST PUSH1 0x12 PUSH1 0x20 MSTORE PUSH1 0x0 SWAP1 DUP2 MSTORE PUSH1 0x40 SWAP1 KECCAK256 SLOAD DUP2 JUMP JUMPDEST PUSH2 0x1EF PUSH2 0x322 CALLDATASIZE PUSH1 0x4 PUSH2 0x13C0 JUMP JUMPDEST PUSH2 0xA7E JUMP JUMPDEST CALLVALUE DUP1 ISZERO PUSH2 0x333 JUMPI PUSH1 0x0 DUP1 REVERT JUMPDEST POP PUSH2 0x1EF PUSH2 0x342 CALLDATASIZE PUSH1 0x4 PUSH2 0x12AC JUMP JUMPDEST PUSH2 0xC20 JUMP JUMPDEST CALLVALUE DUP1 ISZERO PUSH2 0x353 JUMPI PUSH1 0x0 DUP1 REVERT JUMPDEST POP PUSH2 0x1B2 PUSH2 0x362 CALLDATASIZE PUSH1 0x4 PUSH2 0x12AC JUMP JUMPDEST PUSH2 0xD1D JUMP JUMPDEST CALLVALUE DUP1 ISZERO PUSH2 0x373 JUMPI PUSH1 0x0 DUP1 REVERT JUMPDEST POP PUSH2 0x1EF PUSH2 0xD93 JUMP JUMPDEST CALLVALUE DUP1 ISZERO PUSH2 0x388 JUMPI PUSH1 0x0 DUP1 REVERT JUMPDEST POP PUSH2 0x1EF PUSH2 0x397 CALLDATASIZE PUSH1 0x4 PUSH2 0x13F0 JUMP JUMPDEST PUSH2 0xE9E JUMP JUMPDEST CALLVALUE DUP1 ISZERO PUSH2 0x3A8 JUMPI PUSH1 0x0 DUP1 REVERT JUMPDEST POP PUSH1 0x4 SLOAD PUSH2 0x1B2 SWAP1 PUSH1 0x1 PUSH1 0x1 PUSH1 0xA0 SHL SUB AND DUP2 JUMP JUMPDEST CALLVALUE DUP1 ISZERO PUSH2 0x3C8 JUMPI PUSH1 0x0 DUP1 REVERT JUMPDEST POP PUSH2 0x267 PUSH1 0x7 SLOAD DUP2 JUMP JUMPDEST CALLVALUE DUP1 ISZERO PUSH2 0x3DE JUMPI PUSH1 0x0 DUP1 REVERT JUMPDEST POP PUSH2 0x267 PUSH2 0x3ED CALLDATASIZE PUSH1 0x4 PUSH2 0x12AC JUMP JUMPDEST PUSH1 0x3 PUSH1 0x20 MSTORE PUSH1 0x0 SWAP1 DUP2 MSTORE PUSH1 0x40 SWAP1 KECCAK256 SLOAD DUP2 JUMP JUMPDEST CALLVALUE DUP1 ISZERO PUSH2 0x40B JUMPI PUSH1 0x0 DUP1 REVERT JUMPDEST POP PUSH2 0x1EF PUSH2 0xF22 JUMP JUMPDEST CALLVALUE DUP1 ISZERO PUSH2 0x420 JUMPI PUSH1 0x0 DUP1 REVERT JUMPDEST POP PUSH2 0x1EF PUSH2 0xF60 JUMP JUMPDEST CALLVALUE DUP1 ISZERO PUSH2 0x435 JUMPI PUSH1 0x0 DUP1 REVERT JUMPDEST POP PUSH1 0xA SLOAD PUSH2 0x267 JUMP JUMPDEST CALLVALUE DUP1 ISZERO PUSH2 0x44A JUMPI PUSH1 0x0 DUP1 REVERT JUMPDEST POP PUSH2 0x1EF PUSH2 0x459 CALLDATASIZE PUSH1 0x4 PUSH2 0x12AC JUMP JUMPDEST PUSH2 0xFFE JUMP JUMPDEST CALLVALUE DUP1 ISZERO PUSH2 0x46A JUMPI PUSH1 0x0 DUP1 REVERT JUMPDEST POP PUSH1 0xE SLOAD PUSH2 0x267 JUMP JUMPDEST CALLVALUE DUP1 ISZERO PUSH2 0x47F JUMPI PUSH1 0x0 DUP1 REVERT JUMPDEST POP PUSH2 0x1B2 PUSH2 0x48E CALLDATASIZE PUSH1 0x4 PUSH2 0x1422 JUMP JUMPDEST PUSH2 0x10EB JUMP JUMPDEST CALLVALUE DUP1 ISZERO PUSH2 0x49F JUMPI PUSH1 0x0 DUP1 REVERT JUMPDEST POP PUSH2 0x241 PUSH2 0x4AE CALLDATASIZE PUSH1 0x4 PUSH2 0x12AC JUMP JUMPDEST PUSH1 0x2 PUSH1 0x20 MSTORE PUSH1 0x0 SWAP1 DUP2 MSTORE PUSH1 0x40 SWAP1 KECCAK256 SLOAD PUSH1 0xFF AND DUP2 JUMP JUMPDEST CALLVALUE DUP1 ISZERO PUSH2 0x4CF JUMPI PUSH1 0x0 DUP1 REVERT JUMPDEST POP PUSH1 0xF SLOAD PUSH2 0x267 JUMP JUMPDEST CALLVALUE DUP1 ISZERO PUSH2 0x4E4 JUMPI PUSH1 0x0 DUP1 REVERT JUMPDEST POP PUSH2 0x1EF PUSH2 0x4F3 CALLDATASIZE PUSH1 0x4 PUSH2 0x12AC JUMP JUMPDEST PUSH2 0x115E JUMP JUMPDEST CALLVALUE DUP1 ISZERO PUSH2 0x504 JUMPI PUSH1 0x0 DUP1 REVERT JUMPDEST POP PUSH2 0x241 PUSH2 0x11E3 JUMP JUMPDEST CALLVALUE DUP1 ISZERO PUSH2 0x519 JUMPI PUSH1 0x0 DUP1 REVERT JUMPDEST POP PUSH2 0x1EF PUSH2 0x528 CALLDATASIZE PUSH1 0x4 PUSH2 0x12AC JUMP JUMPDEST PUSH2 0x1243 JUMP JUMPDEST PUSH1 0x5 SLOAD PUSH1 0x1 PUSH1 0x1 PUSH1 0xA0 SHL SUB AND CALLER EQ PUSH2 0x5B2 JUMPI PUSH1 0x40 MLOAD PUSH3 0x461BCD PUSH1 0xE5 SHL DUP2 MSTORE PUSH1 0x20 PUSH1 0x4 DUP3 ADD MSTORE PUSH1 0x3C PUSH1 0x24 DUP3 ADD MSTORE PUSH32 0x4F6E6C792042454E27732061646D696E6973747261746F72206D617920636861 PUSH1 0x44 DUP3 ADD MSTORE PUSH32 0x6E6765206869732062617365207472616E736C61746520636F73742E00000000 PUSH1 0x64 DUP3 ADD MSTORE PUSH1 0x84 ADD JUMPDEST PUSH1 0x40 MLOAD DUP1 SWAP2 SUB SWAP1 REVERT JUMPDEST PUSH1 0xE SSTORE JUMP JUMPDEST CALLER PUSH2 0x5C1 DUP4 PUSH2 0xD1D JUMP JUMPDEST PUSH1 0x1 PUSH1 0x1 PUSH1 0xA0 SHL SUB AND EQ PUSH2 0x617 JUMPI PUSH1 0x40 MLOAD PUSH3 0x461BCD PUSH1 0xE5 SHL DUP2 MSTORE PUSH1 0x20 PUSH1 0x4 DUP3 ADD MSTORE PUSH1 0x1B PUSH1 0x24 DUP3 ADD MSTORE PUSH32 0x596F75206172656E27742074686520626F7373206F662042454E210000000000 PUSH1 0x44 DUP3 ADD MSTORE PUSH1 0x64 ADD PUSH2 0x5A9 JUMP JUMPDEST PUSH1 0x0 SWAP2 DUP3 MSTORE PUSH1 0x12 PUSH1 0x20 MSTORE PUSH1 0x40 SWAP1 SWAP2 KECCAK256 SSTORE JUMP JUMPDEST PUSH1 0xD SLOAD PUSH1 0xFF AND PUSH2 0x66C JUMPI PUSH1 0x40 MLOAD PUSH3 0x461BCD PUSH1 0xE5 SHL DUP2 MSTORE PUSH1 0x20 PUSH1 0x4 DUP3 ADD MSTORE PUSH1 0xE PUSH1 0x24 DUP3 ADD MSTORE PUSH14 0x29BA30B93A34B733903AB8171717 PUSH1 0x91 SHL PUSH1 0x44 DUP3 ADD MSTORE PUSH1 0x64 ADD PUSH2 0x5A9 JUMP JUMPDEST PUSH1 0x0 DUP2 DUP2 MSTORE PUSH1 0x12 PUSH1 0x20 MSTORE PUSH1 0x40 SWAP1 KECCAK256 SLOAD PUSH2 0x6E1 JUMPI PUSH1 0x40 MLOAD PUSH3 0x461BCD PUSH1 0xE5 SHL DUP2 MSTORE PUSH1 0x20 PUSH1 0x4 DUP3 ADD MSTORE PUSH1 0x31 PUSH1 0x24 DUP3 ADD MSTORE PUSH32 0x42454E20646F6573206E6F74206B6E6F772061626F757420746861742073706F PUSH1 0x44 DUP3 ADD MSTORE PUSH17 0x742E2042454E20736179733A204E616821 PUSH1 0x78 SHL PUSH1 0x64 DUP3 ADD MSTORE PUSH1 0x84 ADD PUSH2 0x5A9 JUMP JUMPDEST PUSH1 0x0 DUP2 DUP2 MSTORE PUSH1 0x12 PUSH1 0x20 MSTORE PUSH1 0x40 SWAP1 KECCAK256 SLOAD CALLVALUE LT DUP1 ISZERO SWAP1 PUSH2 0x701 JUMPI POP PUSH1 0xE SLOAD CALLVALUE LT ISZERO JUMPDEST PUSH2 0x769 JUMPI PUSH1 0x40 MLOAD PUSH3 0x461BCD PUSH1 0xE5 SHL DUP2 MSTORE PUSH1 0x20 PUSH1 0x4 DUP3 ADD MSTORE PUSH1 0x33 PUSH1 0x24 DUP3 ADD MSTORE PUSH32 0x497420636F737473206D6F726520746F207472616E6C6174652042454E206865 PUSH1 0x44 DUP3 ADD MSTORE PUSH19 0x72652E2042454E20736179733A204D656F723F PUSH1 0x68 SHL PUSH1 0x64 DUP3 ADD MSTORE PUSH1 0x84 ADD PUSH2 0x5A9 JUMP JUMPDEST PUSH1 0xF SLOAD CALLVALUE GT ISZERO PUSH2 0x7BB JUMPI PUSH1 0x40 MLOAD PUSH3 0x461BCD PUSH1 0xE5 SHL DUP2 MSTORE PUSH1 0x20 PUSH1 0x4 DUP3 ADD MSTORE PUSH1 0x1A PUSH1 0x24 DUP3 ADD MSTORE PUSH32 0x4C65742773206E6F7420626520756E726561736F6E61626C652E000000000000 PUSH1 0x44 DUP3 ADD MSTORE PUSH1 0x64 ADD PUSH2 0x5A9 JUMP JUMPDEST PUSH1 0xD SLOAD PUSH1 0x40 MLOAD PUSH4 0xA795E193 PUSH1 0xE0 SHL DUP2 MSTORE CALLER PUSH1 0x4 DUP3 ADD MSTORE PUSH1 0x0 SWAP2 PUSH2 0x100 SWAP1 DIV PUSH1 0x1 PUSH1 0x1 PUSH1 0xA0 SHL SUB AND SWAP1 PUSH4 0xA795E193 SWAP1 PUSH1 0x24 ADD PUSH1 0x20 PUSH1 0x40 MLOAD DUP1 DUP4 SUB DUP2 PUSH1 0x0 DUP8 GAS CALL ISZERO DUP1 ISZERO PUSH2 0x80B JUMPI RETURNDATASIZE PUSH1 0x0 DUP1 RETURNDATACOPY RETURNDATASIZE PUSH1 0x0 REVERT JUMPDEST POP POP POP POP PUSH1 0x40 MLOAD RETURNDATASIZE PUSH1 0x1F NOT PUSH1 0x1F DUP3 ADD AND DUP3 ADD DUP1 PUSH1 0x40 MSTORE POP DUP2 ADD SWAP1 PUSH2 0x82F SWAP2 SWAP1 PUSH2 0x144E JUMP JUMPDEST SWAP1 POP PUSH32 0xCBC4DE7D448D76B0D0D273853142720D192139DC253B3665F801FD7B753DB290 DUP4 DUP4 CALLVALUE DUP5 PUSH1 0x40 MLOAD PUSH2 0x866 SWAP5 SWAP4 SWAP3 SWAP2 SWAP1 PUSH2 0x1467 JUMP JUMPDEST PUSH1 0x40 MLOAD DUP1 SWAP2 SUB SWAP1 LOG1 PUSH1 0x0 PUSH2 0x87B PUSH1 0x2 CALLVALUE PUSH2 0x14E6 JUMP JUMPDEST SWAP1 POP PUSH1 0x0 PUSH2 0x889 DUP3 CALLVALUE PUSH2 0x1508 JUMP JUMPDEST SWAP1 POP DUP2 PUSH1 0x3 PUSH1 0x0 DUP7 DUP2 MSTORE PUSH1 0x20 ADD SWAP1 DUP2 MSTORE PUSH1 0x20 ADD PUSH1 0x0 KECCAK256 PUSH1 0x0 DUP3 DUP3 SLOAD PUSH2 0x8AE SWAP2 SWAP1 PUSH2 0x151F JUMP JUMPDEST SWAP1 SWAP2 SSTORE POP PUSH1 0x0 SWAP1 POP PUSH2 0x8C1 PUSH1 0x2 DUP4 PUSH2 0x14E6 JUMP JUMPDEST SWAP1 POP PUSH1 0x0 PUSH2 0x8CF DUP3 DUP5 PUSH2 0x1508 JUMP JUMPDEST SWAP1 POP DUP2 PUSH1 0x9 PUSH1 0x0 DUP3 DUP3 SLOAD PUSH2 0x8E3 SWAP2 SWAP1 PUSH2 0x151F JUMP JUMPDEST SWAP3 POP POP DUP2 SWAP1 SSTORE POP DUP1 PUSH1 0x11 PUSH1 0x0 DUP3 DUP3 SLOAD PUSH2 0x8FC SWAP2 SWAP1 PUSH2 0x151F JUMP JUMPDEST SWAP1 SWAP2 SSTORE POP POP POP POP POP POP POP POP POP JUMP JUMPDEST CALLER PUSH2 0x914 DUP3 PUSH2 0xD1D JUMP JUMPDEST PUSH1 0x1 PUSH1 0x1 PUSH1 0xA0 SHL SUB AND EQ PUSH2 0x99A JUMPI PUSH1 0x40 MLOAD PUSH3 0x461BCD PUSH1 0xE5 SHL DUP2 MSTORE PUSH1 0x20 PUSH1 0x4 DUP3 ADD MSTORE PUSH1 0x41 PUSH1 0x24 DUP3 ADD MSTORE PUSH32 0x596F7520617265206E6F7420696E2074686520636C617373206F6620746F6B65 PUSH1 0x44 DUP3 ADD MSTORE PUSH32 0x6E20686F6C646572732077686F2063616E2066726F622074686973206469616C PUSH1 0x64 DUP3 ADD MSTORE PUSH1 0x17 PUSH1 0xF9 SHL PUSH1 0x84 DUP3 ADD MSTORE PUSH1 0xA4 ADD PUSH2 0x5A9 JUMP JUMPDEST PUSH1 0xB SLOAD ISZERO PUSH2 0xA18 JUMPI PUSH1 0xB SLOAD CALLVALUE LT ISZERO PUSH2 0x9FE JUMPI PUSH1 0x40 MLOAD PUSH3 0x461BCD PUSH1 0xE5 SHL DUP2 MSTORE PUSH1 0x20 PUSH1 0x4 DUP3 ADD MSTORE PUSH1 0x21 PUSH1 0x24 DUP3 ADD MSTORE PUSH32 0x436F737473206D6F726520746F2066726F622074686973206469616C206E6F77 PUSH1 0x44 DUP3 ADD MSTORE PUSH1 0x17 PUSH1 0xF9 SHL PUSH1 0x64 DUP3 ADD MSTORE PUSH1 0x84 ADD PUSH2 0x5A9 JUMP JUMPDEST PUSH1 0xA DUP1 SLOAD SWAP1 PUSH1 0x0 PUSH2 0xA0E DUP4 PUSH2 0x1537 JUMP JUMPDEST SWAP2 SWAP1 POP SSTORE POP PUSH2 0xA2E JUMP JUMPDEST PUSH1 0xA DUP1 SLOAD SWAP1 PUSH1 0x0 PUSH2 0xA28 DUP4 PUSH2 0x1537 JUMP JUMPDEST SWAP2 SWAP1 POP SSTORE POP JUMPDEST CALLVALUE PUSH1 0x9 PUSH1 0x0 DUP3 DUP3 SLOAD PUSH2 0xA40 SWAP2 SWAP1 PUSH2 0x151F JUMP JUMPDEST SWAP1 SWAP2 SSTORE POP POP PUSH1 0xA SLOAD PUSH1 0x40 MLOAD SWAP1 DUP2 MSTORE PUSH32 0xE335C04C904A95DF658AB3E6BB90E9F8F42B8D7B0DD1C5EC3C3000EFF7562BC3 SWAP1 PUSH1 0x20 ADD PUSH1 0x40 MLOAD DUP1 SWAP2 SUB SWAP1 LOG1 POP JUMP JUMPDEST PUSH1 0x4 DUP1 SLOAD PUSH1 0x40 MLOAD PUSH4 0x31A9108F PUSH1 0xE1 SHL DUP2 MSTORE SWAP2 DUP3 ADD DUP5 SWAP1 MSTORE CALLER SWAP2 PUSH1 0x1 PUSH1 0x1 PUSH1 0xA0 SHL SUB SWAP1 SWAP2 AND SWAP1 PUSH4 0x6352211E SWAP1 PUSH1 0x24 ADD PUSH1 0x20 PUSH1 0x40 MLOAD DUP1 DUP4 SUB DUP2 DUP7 GAS STATICCALL ISZERO DUP1 ISZERO PUSH2 0xAC9 JUMPI RETURNDATASIZE PUSH1 0x0 DUP1 RETURNDATACOPY RETURNDATASIZE PUSH1 0x0 REVERT JUMPDEST POP POP POP POP PUSH1 0x40 MLOAD RETURNDATASIZE PUSH1 0x1F NOT PUSH1 0x1F DUP3 ADD AND DUP3 ADD DUP1 PUSH1 0x40 MSTORE POP DUP2 ADD SWAP1 PUSH2 0xAED SWAP2 SWAP1 PUSH2 0x1550 JUMP JUMPDEST PUSH1 0x1 PUSH1 0x1 PUSH1 0xA0 SHL SUB AND EQ PUSH2 0xB36 JUMPI PUSH1 0x40 MLOAD PUSH3 0x461BCD PUSH1 0xE5 SHL DUP2 MSTORE PUSH1 0x20 PUSH1 0x4 DUP3 ADD MSTORE PUSH1 0x10 PUSH1 0x24 DUP3 ADD MSTORE PUSH16 0x27BBB7103A37B5B2B7103334B939BA17 PUSH1 0x81 SHL PUSH1 0x44 DUP3 ADD MSTORE PUSH1 0x64 ADD PUSH2 0x5A9 JUMP JUMPDEST PUSH1 0x0 DUP3 DUP2 MSTORE PUSH1 0x2 PUSH1 0x20 MSTORE PUSH1 0x40 SWAP1 KECCAK256 SLOAD PUSH1 0xFF AND ISZERO PUSH2 0xB88 JUMPI PUSH1 0x40 MLOAD PUSH3 0x461BCD PUSH1 0xE5 SHL DUP2 MSTORE PUSH1 0x20 PUSH1 0x4 DUP3 ADD MSTORE PUSH1 0x10 PUSH1 0x24 DUP3 ADD MSTORE PUSH16 0x20B63932B0B23C9031B7BAB73A32B217 PUSH1 0x81 SHL PUSH1 0x44 DUP3 ADD MSTORE PUSH1 0x64 ADD PUSH2 0x5A9 JUMP JUMPDEST PUSH1 0x0 DUP3 DUP2 MSTORE PUSH1 0x3 PUSH1 0x20 MSTORE PUSH1 0x40 DUP2 KECCAK256 DUP1 SLOAD CALLVALUE SWAP3 SWAP1 PUSH2 0xBA6 SWAP1 DUP5 SWAP1 PUSH2 0x151F JUMP JUMPDEST SWAP1 SWAP2 SSTORE POP POP PUSH1 0x0 DUP3 DUP2 MSTORE PUSH1 0x2 PUSH1 0x20 SWAP1 DUP2 MSTORE PUSH1 0x40 DUP1 DUP4 KECCAK256 DUP1 SLOAD PUSH1 0xFF NOT SWAP1 DUP2 AND PUSH1 0x1 SWAP1 DUP2 OR SWAP1 SWAP3 SSTORE SWAP1 DUP4 MSTORE SWAP3 DUP2 SWAP1 KECCAK256 DUP1 SLOAD DUP6 ISZERO ISZERO SWAP5 AND DUP5 OR SWAP1 SSTORE DUP1 MLOAD DUP6 DUP2 MSTORE SWAP2 DUP3 ADD SWAP3 SWAP1 SWAP3 MSTORE CALLVALUE DUP2 DUP4 ADD MSTORE SWAP1 MLOAD PUSH32 0x9E3972D99DC7CA54DE91944B044D4B600C41D1E212CA70ED9193169E998F8575 SWAP2 PUSH1 0x60 SWAP1 DUP3 SWAP1 SUB ADD SWAP1 LOG1 POP POP JUMP JUMPDEST PUSH1 0x5 SLOAD PUSH1 0x1 PUSH1 0x1 PUSH1 0xA0 SHL SUB AND CALLER EQ PUSH2 0xCA0 JUMPI PUSH1 0x40 MLOAD PUSH3 0x461BCD PUSH1 0xE5 SHL DUP2 MSTORE PUSH1 0x20 PUSH1 0x4 DUP3 ADD MSTORE PUSH1 0x3A PUSH1 0x24 DUP3 ADD MSTORE PUSH32 0x4F6E6C79207468652061646D696E697374726174796F72206D79207265636F76 PUSH1 0x44 DUP3 ADD MSTORE PUSH32 0x6572206C656674206F7665722043756C7475726520436F696E2E000000000000 PUSH1 0x64 DUP3 ADD MSTORE PUSH1 0x84 ADD PUSH2 0x5A9 JUMP JUMPDEST PUSH1 0x6 SLOAD PUSH1 0x5 SLOAD PUSH1 0x40 MLOAD PUSH4 0xA9059CBB PUSH1 0xE0 SHL DUP2 MSTORE PUSH1 0x1 PUSH1 0x1 PUSH1 0xA0 SHL SUB SWAP2 DUP3 AND PUSH1 0x4 DUP3 ADD MSTORE PUSH1 0x24 DUP2 ADD DUP5 SWAP1 MSTORE SWAP2 AND SWAP1 PUSH4 0xA9059CBB SWAP1 PUSH1 0x44 ADD PUSH1 0x20 PUSH1 0x40 MLOAD DUP1 DUP4 SUB DUP2 PUSH1 0x0 DUP8 GAS CALL ISZERO DUP1 ISZERO PUSH2 0xCF5 JUMPI RETURNDATASIZE PUSH1 0x0 DUP1 RETURNDATACOPY RETURNDATASIZE PUSH1 0x0 REVERT JUMPDEST POP POP POP POP PUSH1 0x40 MLOAD RETURNDATASIZE PUSH1 0x1F NOT PUSH1 0x1F DUP3 ADD AND DUP3 ADD DUP1 PUSH1 0x40 MSTORE POP DUP2 ADD SWAP1 PUSH2 0xD19 SWAP2 SWAP1 PUSH2 0x156D JUMP JUMPDEST POP POP JUMP JUMPDEST PUSH1 0x4 DUP1 SLOAD PUSH1 0x40 MLOAD PUSH4 0x31A9108F PUSH1 0xE1 SHL DUP2 MSTORE SWAP2 DUP3 ADD DUP4 SWAP1 MSTORE PUSH1 0x0 SWAP2 PUSH1 0x1 PUSH1 0x1 PUSH1 0xA0 SHL SUB SWAP1 SWAP2 AND SWAP1 PUSH4 0x6352211E SWAP1 PUSH1 0x24 ADD PUSH1 0x20 PUSH1 0x40 MLOAD DUP1 DUP4 SUB DUP2 DUP7 GAS STATICCALL ISZERO DUP1 ISZERO PUSH2 0xD69 JUMPI RETURNDATASIZE PUSH1 0x0 DUP1 RETURNDATACOPY RETURNDATASIZE PUSH1 0x0 REVERT JUMPDEST POP POP POP POP PUSH1 0x40 MLOAD RETURNDATASIZE PUSH1 0x1F NOT PUSH1 0x1F DUP3 ADD AND DUP3 ADD DUP1 PUSH1 0x40 MSTORE POP DUP2 ADD SWAP1 PUSH2 0xD8D SWAP2 SWAP1 PUSH2 0x1550 JUMP JUMPDEST SWAP3 SWAP2 POP POP JUMP JUMPDEST PUSH1 0x2 PUSH1 0x0 SLOAD SUB PUSH2 0xDB5 JUMPI PUSH1 0x40 MLOAD PUSH3 0x461BCD PUSH1 0xE5 SHL DUP2 MSTORE PUSH1 0x4 ADD PUSH2 0x5A9 SWAP1 PUSH2 0x158A JUMP JUMPDEST PUSH1 0x2 PUSH1 0x0 SSTORE PUSH1 0x1 JUMPDEST PUSH1 0x7 SLOAD DUP2 GT PUSH2 0xE96 JUMPI PUSH1 0x4 DUP1 SLOAD PUSH1 0x40 MLOAD PUSH4 0x31A9108F PUSH1 0xE1 SHL DUP2 MSTORE SWAP2 DUP3 ADD DUP4 SWAP1 MSTORE PUSH1 0x1 PUSH1 0x1 PUSH1 0xA0 SHL SUB AND SWAP1 PUSH4 0x6352211E SWAP1 PUSH1 0x24 ADD PUSH1 0x20 PUSH1 0x40 MLOAD DUP1 DUP4 SUB DUP2 DUP7 GAS STATICCALL ISZERO DUP1 ISZERO PUSH2 0xE0D JUMPI RETURNDATASIZE PUSH1 0x0 DUP1 RETURNDATACOPY RETURNDATASIZE PUSH1 0x0 REVERT JUMPDEST POP POP POP POP PUSH1 0x40 MLOAD RETURNDATASIZE PUSH1 0x1F NOT PUSH1 0x1F DUP3 ADD AND DUP3 ADD DUP1 PUSH1 0x40 MSTORE POP DUP2 ADD SWAP1 PUSH2 0xE31 SWAP2 SWAP1 PUSH2 0x1550 JUMP JUMPDEST PUSH1 0x0 DUP3 DUP2 MSTORE PUSH1 0x3 PUSH1 0x20 MSTORE PUSH1 0x40 DUP1 DUP3 KECCAK256 SLOAD SWAP1 MLOAD PUSH1 0x1 PUSH1 0x1 PUSH1 0xA0 SHL SUB SWAP4 SWAP1 SWAP4 AND SWAP3 DUP2 ISZERO PUSH2 0x8FC MUL SWAP3 DUP2 DUP2 DUP2 DUP6 DUP9 DUP9 CALL SWAP4 POP POP POP POP ISZERO DUP1 ISZERO PUSH2 0xE74 JUMPI RETURNDATASIZE PUSH1 0x0 DUP1 RETURNDATACOPY RETURNDATASIZE PUSH1 0x0 REVERT JUMPDEST POP PUSH1 0x0 DUP2 DUP2 MSTORE PUSH1 0x3 PUSH1 0x20 MSTORE PUSH1 0x40 DUP2 KECCAK256 SSTORE DUP1 PUSH2 0xE8E DUP2 PUSH2 0x1537 JUMP JUMPDEST SWAP2 POP POP PUSH2 0xDBD JUMP JUMPDEST POP PUSH1 0x1 PUSH1 0x0 SSTORE JUMP JUMPDEST PUSH1 0x5 SLOAD PUSH1 0x1 PUSH1 0x1 PUSH1 0xA0 SHL SUB AND CALLER EQ PUSH2 0xF0F JUMPI PUSH1 0x40 MLOAD PUSH3 0x461BCD PUSH1 0xE5 SHL DUP2 MSTORE PUSH1 0x20 PUSH1 0x4 DUP3 ADD MSTORE PUSH1 0x2E PUSH1 0x24 DUP3 ADD MSTORE PUSH32 0x4F6E6C792042454E27732061646D696E6973747261746F722063616E20736179 PUSH1 0x44 DUP3 ADD MSTORE PUSH14 0x1034329034B99037B73634B73297 PUSH1 0x91 SHL PUSH1 0x64 DUP3 ADD MSTORE PUSH1 0x84 ADD PUSH2 0x5A9 JUMP JUMPDEST PUSH1 0xD DUP1 SLOAD PUSH1 0xFF NOT AND SWAP2 ISZERO ISZERO SWAP2 SWAP1 SWAP2 OR SWAP1 SSTORE JUMP JUMPDEST PUSH1 0x0 PUSH1 0x9 DUP2 SWAP1 SSTORE PUSH1 0x5 SLOAD PUSH1 0x40 MLOAD PUSH1 0x1 PUSH1 0x1 PUSH1 0xA0 SHL SUB SWAP1 SWAP2 AND SWAP2 PUSH2 0x8FC SWAP2 DUP2 DUP2 DUP2 DUP2 DUP2 DUP9 DUP9 CALL SWAP4 POP POP POP POP ISZERO DUP1 ISZERO PUSH2 0xF5D JUMPI RETURNDATASIZE PUSH1 0x0 DUP1 RETURNDATACOPY RETURNDATASIZE PUSH1 0x0 REVERT JUMPDEST POP JUMP JUMPDEST PUSH1 0x10 SLOAD PUSH1 0x1 PUSH1 0x1 PUSH1 0xA0 SHL SUB AND CALLER EQ PUSH2 0xFBA JUMPI PUSH1 0x40 MLOAD PUSH3 0x461BCD PUSH1 0xE5 SHL DUP2 MSTORE PUSH1 0x20 PUSH1 0x4 DUP3 ADD MSTORE PUSH1 0x1E PUSH1 0x24 DUP3 ADD MSTORE PUSH32 0x596F7520646F6E277420636C65616E206D79206C697474657220626F78210000 PUSH1 0x44 DUP3 ADD MSTORE PUSH1 0x64 ADD PUSH2 0x5A9 JUMP JUMPDEST PUSH1 0x10 SLOAD PUSH1 0x11 SLOAD PUSH1 0x40 MLOAD PUSH1 0x1 PUSH1 0x1 PUSH1 0xA0 SHL SUB SWAP1 SWAP3 AND SWAP2 DUP2 ISZERO PUSH2 0x8FC MUL SWAP2 SWAP1 PUSH1 0x0 DUP2 DUP2 DUP2 DUP6 DUP9 DUP9 CALL SWAP4 POP POP POP POP ISZERO DUP1 ISZERO PUSH2 0xFF6 JUMPI RETURNDATASIZE PUSH1 0x0 DUP1 RETURNDATACOPY RETURNDATASIZE PUSH1 0x0 REVERT JUMPDEST POP PUSH1 0x0 PUSH1 0x11 SSTORE JUMP JUMPDEST PUSH1 0x2 PUSH1 0x0 SLOAD SUB PUSH2 0x1020 JUMPI PUSH1 0x40 MLOAD PUSH3 0x461BCD PUSH1 0xE5 SHL DUP2 MSTORE PUSH1 0x4 ADD PUSH2 0x5A9 SWAP1 PUSH2 0x158A JUMP JUMPDEST PUSH1 0x2 PUSH1 0x0 SSTORE PUSH1 0x4 DUP1 SLOAD PUSH1 0x40 MLOAD PUSH4 0x31A9108F PUSH1 0xE1 SHL DUP2 MSTORE SWAP2 DUP3 ADD DUP4 SWAP1 MSTORE PUSH1 0x1 PUSH1 0x1 PUSH1 0xA0 SHL SUB AND SWAP1 PUSH4 0x6352211E SWAP1 PUSH1 0x24 ADD PUSH1 0x20 PUSH1 0x40 MLOAD DUP1 DUP4 SUB DUP2 DUP7 GAS STATICCALL ISZERO DUP1 ISZERO PUSH2 0x106C JUMPI RETURNDATASIZE PUSH1 0x0 DUP1 RETURNDATACOPY RETURNDATASIZE PUSH1 0x0 REVERT JUMPDEST POP POP POP POP PUSH1 0x40 MLOAD RETURNDATASIZE PUSH1 0x1F NOT PUSH1 0x1F DUP3 ADD AND DUP3 ADD DUP1 PUSH1 0x40 MSTORE POP DUP2 ADD SWAP1 PUSH2 0x1090 SWAP2 SWAP1 PUSH2 0x1550 JUMP JUMPDEST PUSH1 0x0 DUP3 DUP2 MSTORE PUSH1 0x3 PUSH1 0x20 MSTORE PUSH1 0x40 DUP1 DUP3 KECCAK256 SLOAD SWAP1 MLOAD PUSH1 0x1 PUSH1 0x1 PUSH1 0xA0 SHL SUB SWAP4 SWAP1 SWAP4 AND SWAP3 DUP2 ISZERO PUSH2 0x8FC MUL SWAP3 DUP2 DUP2 DUP2 DUP6 DUP9 DUP9 CALL SWAP4 POP POP POP POP ISZERO DUP1 ISZERO PUSH2 0x10D3 JUMPI RETURNDATASIZE PUSH1 0x0 DUP1 RETURNDATACOPY RETURNDATASIZE PUSH1 0x0 REVERT JUMPDEST POP PUSH1 0x0 SWAP1 DUP2 MSTORE PUSH1 0x3 PUSH1 0x20 MSTORE PUSH1 0x40 DUP2 KECCAK256 DUP2 SWAP1 SSTORE PUSH1 0x1 SWAP1 SSTORE JUMP JUMPDEST PUSH1 0x40 MLOAD PUSH4 0x31A9108F PUSH1 0xE1 SHL DUP2 MSTORE PUSH1 0x4 DUP2 ADD DUP3 SWAP1 MSTORE PUSH1 0x0 SWAP1 PUSH1 0x1 PUSH1 0x1 PUSH1 0xA0 SHL SUB DUP5 AND SWAP1 PUSH4 0x6352211E SWAP1 PUSH1 0x24 ADD PUSH1 0x20 PUSH1 0x40 MLOAD DUP1 DUP4 SUB DUP2 DUP7 GAS STATICCALL ISZERO DUP1 ISZERO PUSH2 0x1133 JUMPI RETURNDATASIZE PUSH1 0x0 DUP1 RETURNDATACOPY RETURNDATASIZE PUSH1 0x0 REVERT JUMPDEST POP POP POP POP PUSH1 0x40 MLOAD RETURNDATASIZE PUSH1 0x1F NOT PUSH1 0x1F DUP3 ADD AND DUP3 ADD DUP1 PUSH1 0x40 MSTORE POP DUP2 ADD SWAP1 PUSH2 0x1157 SWAP2 SWAP1 PUSH2 0x1550 JUMP JUMPDEST SWAP4 SWAP3 POP POP POP JUMP JUMPDEST PUSH1 0x5 SLOAD PUSH1 0x1 PUSH1 0x1 PUSH1 0xA0 SHL SUB AND CALLER EQ PUSH2 0x11DE JUMPI PUSH1 0x40 MLOAD PUSH3 0x461BCD PUSH1 0xE5 SHL DUP2 MSTORE PUSH1 0x20 PUSH1 0x4 DUP3 ADD MSTORE PUSH1 0x3B PUSH1 0x24 DUP3 ADD MSTORE PUSH32 0x4F6E6C792042454E27732061646D696E6973747261746F72206D617920636861 PUSH1 0x44 DUP3 ADD MSTORE PUSH32 0x6E676520686973206D6178207472616E736C61746520636F73742E0000000000 PUSH1 0x64 DUP3 ADD MSTORE PUSH1 0x84 ADD PUSH2 0x5A9 JUMP JUMPDEST PUSH1 0xF SSTORE JUMP JUMPDEST PUSH1 0x0 DUP1 PUSH1 0x1 JUMPDEST PUSH1 0x7 SLOAD DUP2 GT PUSH2 0x123A JUMPI PUSH1 0x0 DUP2 DUP2 MSTORE PUSH1 0x1 PUSH1 0x20 MSTORE PUSH1 0x40 SWAP1 KECCAK256 SLOAD PUSH1 0xFF AND ISZERO PUSH2 0x1228 JUMPI DUP1 PUSH2 0x1213 DUP2 PUSH2 0x1537 JUMP JUMPDEST SWAP2 POP POP PUSH1 0x8 SLOAD DUP2 LT PUSH2 0x1228 JUMPI PUSH1 0x1 SWAP3 POP POP POP SWAP1 JUMP JUMPDEST DUP1 PUSH2 0x1232 DUP2 PUSH2 0x1537 JUMP JUMPDEST SWAP2 POP POP PUSH2 0x11E9 JUMP JUMPDEST POP PUSH1 0x0 SWAP2 POP POP SWAP1 JUMP JUMPDEST PUSH1 0x5 SLOAD PUSH1 0x1 PUSH1 0x1 PUSH1 0xA0 SHL SUB AND CALLER EQ PUSH2 0x12A7 JUMPI PUSH1 0x40 MLOAD PUSH3 0x461BCD PUSH1 0xE5 SHL DUP2 MSTORE PUSH1 0x20 PUSH1 0x4 DUP3 ADD MSTORE PUSH1 0x21 PUSH1 0x24 DUP3 ADD MSTORE PUSH32 0x4F6E6C79207468652061646D696E206D61792073657420746865207072696365 PUSH1 0x44 DUP3 ADD MSTORE PUSH1 0x17 PUSH1 0xF9 SHL PUSH1 0x64 DUP3 ADD MSTORE PUSH1 0x84 ADD PUSH2 0x5A9 JUMP JUMPDEST PUSH1 0xB SSTORE JUMP JUMPDEST PUSH1 0x0 PUSH1 0x20 DUP3 DUP5 SUB SLT ISZERO PUSH2 0x12BE JUMPI PUSH1 0x0 DUP1 REVERT JUMPDEST POP CALLDATALOAD SWAP2 SWAP1 POP JUMP JUMPDEST PUSH1 0x0 DUP1 PUSH1 0x40 DUP4 DUP6 SUB SLT ISZERO PUSH2 0x12D8 JUMPI PUSH1 0x0 DUP1 REVERT JUMPDEST POP POP DUP1 CALLDATALOAD SWAP3 PUSH1 0x20 SWAP1 SWAP2 ADD CALLDATALOAD SWAP2 POP JUMP JUMPDEST PUSH4 0x4E487B71 PUSH1 0xE0 SHL PUSH1 0x0 MSTORE PUSH1 0x41 PUSH1 0x4 MSTORE PUSH1 0x24 PUSH1 0x0 REVERT JUMPDEST PUSH1 0x0 DUP1 PUSH1 0x40 DUP4 DUP6 SUB SLT ISZERO PUSH2 0x1310 JUMPI PUSH1 0x0 DUP1 REVERT JUMPDEST DUP3 CALLDATALOAD PUSH8 0xFFFFFFFFFFFFFFFF DUP1 DUP3 GT ISZERO PUSH2 0x1328 JUMPI PUSH1 0x0 DUP1 REVERT JUMPDEST DUP2 DUP6 ADD SWAP2 POP DUP6 PUSH1 0x1F DUP4 ADD SLT PUSH2 0x133C JUMPI PUSH1 0x0 DUP1 REVERT JUMPDEST DUP2 CALLDATALOAD DUP2 DUP2 GT ISZERO PUSH2 0x134E JUMPI PUSH2 0x134E PUSH2 0x12E7 JUMP JUMPDEST PUSH1 0x40 MLOAD PUSH1 0x1F DUP3 ADD PUSH1 0x1F NOT SWAP1 DUP2 AND PUSH1 0x3F ADD AND DUP2 ADD SWAP1 DUP4 DUP3 GT DUP2 DUP4 LT OR ISZERO PUSH2 0x1376 JUMPI PUSH2 0x1376 PUSH2 0x12E7 JUMP JUMPDEST DUP2 PUSH1 0x40 MSTORE DUP3 DUP2 MSTORE DUP9 PUSH1 0x20 DUP5 DUP8 ADD ADD GT ISZERO PUSH2 0x138F JUMPI PUSH1 0x0 DUP1 REVERT JUMPDEST DUP3 PUSH1 0x20 DUP7 ADD PUSH1 0x20 DUP4 ADD CALLDATACOPY PUSH1 0x0 PUSH1 0x20 SWAP4 DUP3 ADD DUP5 ADD MSTORE SWAP9 SWAP7 SWAP1 SWAP2 ADD CALLDATALOAD SWAP7 POP POP POP POP POP POP JUMP JUMPDEST DUP1 ISZERO ISZERO DUP2 EQ PUSH2 0xF5D JUMPI PUSH1 0x0 DUP1 REVERT JUMPDEST PUSH1 0x0 DUP1 PUSH1 0x40 DUP4 DUP6 SUB SLT ISZERO PUSH2 0x13D3 JUMPI PUSH1 0x0 DUP1 REVERT JUMPDEST DUP3 CALLDATALOAD SWAP2 POP PUSH1 0x20 DUP4 ADD CALLDATALOAD PUSH2 0x13E5 DUP2 PUSH2 0x13B2 JUMP JUMPDEST DUP1 SWAP2 POP POP SWAP3 POP SWAP3 SWAP1 POP JUMP JUMPDEST PUSH1 0x0 PUSH1 0x20 DUP3 DUP5 SUB SLT ISZERO PUSH2 0x1402 JUMPI PUSH1 0x0 DUP1 REVERT JUMPDEST DUP2 CALLDATALOAD PUSH2 0x1157 DUP2 PUSH2 0x13B2 JUMP JUMPDEST PUSH1 0x1 PUSH1 0x1 PUSH1 0xA0 SHL SUB DUP2 AND DUP2 EQ PUSH2 0xF5D JUMPI PUSH1 0x0 DUP1 REVERT JUMPDEST PUSH1 0x0 DUP1 PUSH1 0x40 DUP4 DUP6 SUB SLT ISZERO PUSH2 0x1435 JUMPI PUSH1 0x0 DUP1 REVERT JUMPDEST DUP3 CALLDATALOAD PUSH2 0x1440 DUP2 PUSH2 0x140D JUMP JUMPDEST SWAP5 PUSH1 0x20 SWAP4 SWAP1 SWAP4 ADD CALLDATALOAD SWAP4 POP POP POP JUMP JUMPDEST PUSH1 0x0 PUSH1 0x20 DUP3 DUP5 SUB SLT ISZERO PUSH2 0x1460 JUMPI PUSH1 0x0 DUP1 REVERT JUMPDEST POP MLOAD SWAP2 SWAP1 POP JUMP JUMPDEST PUSH1 0x80 DUP2 MSTORE PUSH1 0x0 DUP6 MLOAD DUP1 PUSH1 0x80 DUP5 ADD MSTORE PUSH1 0x0 JUMPDEST DUP2 DUP2 LT ISZERO PUSH2 0x1495 JUMPI PUSH1 0x20 DUP2 DUP10 ADD DUP2 ADD MLOAD PUSH1 0xA0 DUP7 DUP5 ADD ADD MSTORE ADD PUSH2 0x1478 JUMP JUMPDEST DUP2 DUP2 GT ISZERO PUSH2 0x14A7 JUMPI PUSH1 0x0 PUSH1 0xA0 DUP4 DUP7 ADD ADD MSTORE JUMPDEST POP PUSH1 0x20 DUP4 ADD SWAP6 SWAP1 SWAP6 MSTORE POP PUSH1 0x40 DUP2 ADD SWAP3 SWAP1 SWAP3 MSTORE PUSH1 0x60 DUP3 ADD MSTORE PUSH1 0xA0 PUSH1 0x1F SWAP1 SWAP3 ADD PUSH1 0x1F NOT AND ADD ADD SWAP2 SWAP1 POP JUMP JUMPDEST PUSH4 0x4E487B71 PUSH1 0xE0 SHL PUSH1 0x0 MSTORE PUSH1 0x11 PUSH1 0x4 MSTORE PUSH1 0x24 PUSH1 0x0 REVERT JUMPDEST PUSH1 0x0 DUP3 PUSH2 0x1503 JUMPI PUSH4 0x4E487B71 PUSH1 0xE0 SHL PUSH1 0x0 MSTORE PUSH1 0x12 PUSH1 0x4 MSTORE PUSH1 0x24 PUSH1 0x0 REVERT JUMPDEST POP DIV SWAP1 JUMP JUMPDEST PUSH1 0x0 DUP3 DUP3 LT ISZERO PUSH2 0x151A JUMPI PUSH2 0x151A PUSH2 0x14D0 JUMP JUMPDEST POP SUB SWAP1 JUMP JUMPDEST PUSH1 0x0 DUP3 NOT DUP3 GT ISZERO PUSH2 0x1532 JUMPI PUSH2 0x1532 PUSH2 0x14D0 JUMP JUMPDEST POP ADD SWAP1 JUMP JUMPDEST PUSH1 0x0 PUSH1 0x1 DUP3 ADD PUSH2 0x1549 JUMPI PUSH2 0x1549 PUSH2 0x14D0 JUMP JUMPDEST POP PUSH1 0x1 ADD SWAP1 JUMP JUMPDEST PUSH1 0x0 PUSH1 0x20 DUP3 DUP5 SUB SLT ISZERO PUSH2 0x1562 JUMPI PUSH1 0x0 DUP1 REVERT JUMPDEST DUP2 MLOAD PUSH2 0x1157 DUP2 PUSH2 0x140D JUMP JUMPDEST PUSH1 0x0 PUSH1 0x20 DUP3 DUP5 SUB SLT ISZERO PUSH2 0x157F JUMPI PUSH1 0x0 DUP1 REVERT JUMPDEST DUP2 MLOAD PUSH2 0x1157 DUP2 PUSH2 0x13B2 JUMP JUMPDEST PUSH1 0x20 DUP1 DUP3 MSTORE PUSH1 0x1F SWAP1 DUP3 ADD MSTORE PUSH32 0x5265656E7472616E637947756172643A207265656E7472616E742063616C6C00 PUSH1 0x40 DUP3 ADD MSTORE PUSH1 0x60 ADD SWAP1 JUMP INVALID LOG2 PUSH5 0x6970667358 0x22 SLT KECCAK256 XOR CHAINID BYTE DUP14 0xA7 BALANCE MSTORE8 SLT 0xE8 GASLIMIT NOT SWAP13 0xB3 0xB4 0xC6 0xE6 PUSH18 0x32B6893E13E612E6974B7F3D2F19F464736F PUSH13 0x634300080E0033000000000000 ",
  "sha1": "d2f6e4669daa670335668d4e3e9cad7ab4568a88",
  "source": "// SPDX-License-Identifier: UNLICENSED\npragma solidity ^0.8.0;\nimport \"./DaedalusClass.sol\";\nimport \"./BookTradable.sol\";\nimport \"./CultureCoin.sol\";\n\ncontract Transalation is DaedalusClass {\n\tstring private language;\n\tbool private doTranslate;\n\taddress private scratches;\n        uint256 private baseCost;\n        uint256 private maxCost;\n        address private authorAddress;\n        uint256 private authorBalance;\n        constructor(address _cultureCoin, address _DCBT, address _cCA, uint _tokenMax, uint _plurality, address _scratches, address _authorAddress, string memory _language){\n                DCBT = _DCBT;                   //_DBCT stands for Daedalus Class Booster Token and it is the token address being boosted here. TLSCBM, etc, ...\n                cCA = _cCA;                     // The CC admin.\n                maxToken = maxToken;            // How many tokens we believe in.\n                plurality = _plurality;         // How many of them have to vote to make waves.\n\n                scratches = _scratches;         // BEN Specific BookTradable that BEN mints.\n\t\tauthorAddress = _authorAddress; // Save it down. too. I guess.\n\t\tlanguage = _language;\t\t// The language this translation project is for.\n        }\n        mapping(uint256 => uint256) public tranlateTax;\n        event Translate(string prompt, uint256 tokenId, uint256 value, uint256 scratchId);\n        function translate(string memory _prompt, uint256 _tokenId) public payable {\n\t\trequire(doTranslate, \"Starting up...\");\n                require(tranlateTax[_tokenId] > 0, \"BEN does not know about that spot. BEN says: Nah!\");\n                require(msg.value >= tranlateTax[_tokenId] && msg.value >= baseCost, \"It costs more to tranlate BEN here. BEN says: Meor?\");\n\t\trequire(msg.value <= maxCost, \"Let's not be unreasonable.\");\n                //require(!getYesNo(), \"Sorry, but this BEN unit is offline.\");\n\n                uint256 scratchId = BookTradable(scratches).addonMintTo(msg.sender);            //// WHERE THE MAGIC HAPPENS! BEN mints new token here. ////\n                emit Translate(_prompt, _tokenId, msg.value, scratchId);\n\n                uint256 halfValue = msg.value / 2;                                              // Divy up the spoils...\n                uint256 otherHalf = msg.value - halfValue;\n\n                b[_tokenId] += halfValue;                                                 // Let token owner have half the tax.\n\n                uint256 quarterValue = otherHalf / 2;                                           // Authors and admins gets otherhalf the tax.\n                uint256 otherQuarter = otherHalf - quarterValue;\n                adminBalance += quarterValue;\n                authorBalance += otherQuarter;\n        }\n        function setBENTax(uint256 _tokenId, uint256 _tranlateTax) public {\n                require(getTokenOwner(_tokenId) == msg.sender, \"You aren't the boss of BEN!\");\n                tranlateTax[_tokenId] = _tranlateTax;\n        }\n\tfunction getMaxCost() public view returns(uint256) {\n\t\treturn maxCost;\n\t}\n        function getBaseCost() public view returns(uint256) {\n                return baseCost;\n        }\n        function setBaseCost(uint256 _baseCost) public {\n                require(msg.sender == cCA, \"Only BEN's administrator may change his base translate cost.\");\n                baseCost = _baseCost;\n        }\n\tfunction setMaxCost(uint256 _maxCost) public {\n                require(msg.sender == cCA, \"Only BEN's administrator may change his max translate cost.\");\n\t\tmaxCost = _maxCost;\n\t}\n\tfunction setDoTranslate(bool _doTranslate) public {\n                require(msg.sender == cCA, \"Only BEN's administrator can say he is online.\");\n\t\tdoTranslate = _doTranslate;\n\t}\n        function getPaid() public {\n                require(msg.sender == authorAddress, \"You don't clean my litter box!\");\n                payable(authorAddress).transfer(authorBalance);\n                authorBalance = 0;\n        }\n}\n",
  "sourcePath": "contracts/Translation.sol",
  "type": "contract"
}