{
  "abi": [
    {
      "inputs": [
        {
          "internalType": "address",
          "name": "_CCoinToken",
          "type": "address"
        },
        {
          "internalType": "address",
          "name": "_presaleContract",
          "type": "address"
        }
      ],
      "stateMutability": "nonpayable",
      "type": "constructor"
    },
    {
      "anonymous": false,
      "inputs": [
        {
          "indexed": false,
          "internalType": "address",
          "name": "registeredAddress",
          "type": "address"
        },
        {
          "indexed": false,
          "internalType": "uint256",
          "name": "totalAmount",
          "type": "uint256"
        }
      ],
      "name": "VestingScheduleRegistered",
      "type": "event"
    },
    {
      "inputs": [],
      "name": "CCoinToken",
      "outputs": [
        {
          "internalType": "contract IERC20",
          "name": "",
          "type": "address"
        }
      ],
      "stateMutability": "view",
      "type": "function"
    },
    {
      "inputs": [],
      "name": "CLIFF_PERIOD",
      "outputs": [
        {
          "internalType": "uint256",
          "name": "",
          "type": "uint256"
        }
      ],
      "stateMutability": "view",
      "type": "function"
    },
    {
      "inputs": [],
      "name": "TGE_UNLOCK",
      "outputs": [
        {
          "internalType": "uint256",
          "name": "",
          "type": "uint256"
        }
      ],
      "stateMutability": "view",
      "type": "function"
    },
    {
      "inputs": [],
      "name": "UNLOCK_UNIT",
      "outputs": [
        {
          "internalType": "uint256",
          "name": "",
          "type": "uint256"
        }
      ],
      "stateMutability": "view",
      "type": "function"
    },
    {
      "inputs": [
        {
          "internalType": "address",
          "name": "_newRecipient",
          "type": "address"
        },
        {
          "internalType": "uint256",
          "name": "_totalAmount",
          "type": "uint256"
        },
        {
          "internalType": "bool",
          "name": "isPresaleBuyer",
          "type": "bool"
        }
      ],
      "name": "addNewRecipient",
      "outputs": [],
      "stateMutability": "nonpayable",
      "type": "function"
    },
    {
      "inputs": [],
      "name": "getCurrentVestingTime",
      "outputs": [
        {
          "internalType": "uint256",
          "name": "",
          "type": "uint256"
        }
      ],
      "stateMutability": "view",
      "type": "function"
    },
    {
      "inputs": [
        {
          "internalType": "address",
          "name": "beneficiary",
          "type": "address"
        }
      ],
      "name": "getLocked",
      "outputs": [
        {
          "internalType": "uint256",
          "name": "",
          "type": "uint256"
        }
      ],
      "stateMutability": "view",
      "type": "function"
    },
    {
      "inputs": [],
      "name": "getTGETime",
      "outputs": [
        {
          "internalType": "uint256",
          "name": "",
          "type": "uint256"
        }
      ],
      "stateMutability": "view",
      "type": "function"
    },
    {
      "inputs": [
        {
          "internalType": "address",
          "name": "beneficiary",
          "type": "address"
        }
      ],
      "name": "getVested",
      "outputs": [
        {
          "internalType": "uint256",
          "name": "_amountVested",
          "type": "uint256"
        }
      ],
      "stateMutability": "view",
      "type": "function"
    },
    {
      "inputs": [],
      "name": "getVestingEndTime",
      "outputs": [
        {
          "internalType": "uint256",
          "name": "",
          "type": "uint256"
        }
      ],
      "stateMutability": "view",
      "type": "function"
    },
    {
      "inputs": [
        {
          "internalType": "address",
          "name": "beneficiary",
          "type": "address"
        }
      ],
      "name": "getWithdrawable",
      "outputs": [
        {
          "internalType": "uint256",
          "name": "",
          "type": "uint256"
        }
      ],
      "stateMutability": "view",
      "type": "function"
    },
    {
      "inputs": [],
      "name": "multiSigAdmin",
      "outputs": [
        {
          "internalType": "address payable",
          "name": "",
          "type": "address"
        }
      ],
      "stateMutability": "view",
      "type": "function"
    },
    {
      "inputs": [],
      "name": "presaleContract",
      "outputs": [
        {
          "internalType": "contract IPresaleContract",
          "name": "",
          "type": "address"
        }
      ],
      "stateMutability": "view",
      "type": "function"
    },
    {
      "inputs": [
        {
          "internalType": "address",
          "name": "",
          "type": "address"
        }
      ],
      "name": "recipients",
      "outputs": [
        {
          "internalType": "uint256",
          "name": "totalAmount",
          "type": "uint256"
        },
        {
          "internalType": "uint256",
          "name": "amountWithdrawn",
          "type": "uint256"
        }
      ],
      "stateMutability": "view",
      "type": "function"
    },
    {
      "inputs": [],
      "name": "setVestingAllocation",
      "outputs": [],
      "stateMutability": "nonpayable",
      "type": "function"
    },
    {
      "inputs": [],
      "name": "vestingAllocation",
      "outputs": [
        {
          "internalType": "uint256",
          "name": "",
          "type": "uint256"
        }
      ],
      "stateMutability": "view",
      "type": "function"
    },
    {
      "inputs": [],
      "name": "vestingPeriod",
      "outputs": [
        {
          "internalType": "uint256",
          "name": "",
          "type": "uint256"
        }
      ],
      "stateMutability": "view",
      "type": "function"
    },
    {
      "inputs": [],
      "name": "withdrawToken",
      "outputs": [
        {
          "internalType": "uint256",
          "name": "",
          "type": "uint256"
        }
      ],
      "stateMutability": "nonpayable",
      "type": "function"
    },
    {
      "inputs": [],
      "name": "withrawRemainToken",
      "outputs": [],
      "stateMutability": "nonpayable",
      "type": "function"
    }
  ],
  "bytecode": "6080604052600c60055534801561001557600080fd5b5060405161107f38038061107f8339810160408190526100349161008c565b600080546001600160a01b03199081163317909155600380546001600160a01b03948516908316179055600280549290931691161790556100bf565b80516001600160a01b038116811461008757600080fd5b919050565b6000806040838503121561009f57600080fd5b6100a883610070565b91506100b660208401610070565b90509250929050565b610fb1806100ce6000396000f3fe608060405234801561001057600080fd5b50600436106101115760003560e01c80638c828c2d116100ad578063d1600df511610071578063d1600df5146101d5578063dec8f52e146101dd578063e9edd759146101f0578063eb82031214610203578063fd86feee1461023f57600080fd5b80638c828c2d146101a25780638cad856f146101a8578063a676f007146101b1578063bc22fd1b146101ba578063ca628c78146101cd57600080fd5b80631c9b61e11461011657806329c7f99b146101315780633113076a1461014657806332cc6ae61461014e5780634c4bff3a146101615780634eaee3f314610169578063558ed00e1461017157806363d9df85146101795780637313ee5a14610199575b600080fd5b61011e604b81565b6040519081526020015b60405180910390f35b61014461013f366004610e0a565b610252565b005b61011e6103a0565b61011e61015c366004610e4a565b610464565b610144610499565b61011e606481565b610144610539565b60025461018c906001600160a01b031681565b6040516101289190610e65565b61011e60055481565b4261011e565b61011e610e1081565b61011e60065481565b61011e6101c8366004610e4a565b610774565b61011e6107a1565b61011e6108c8565b61011e6101eb366004610e4a565b6109c7565b60035461018c906001600160a01b031681565b61022a610211366004610e4a565b6004602052600090815260409020805460019091015482565b60408051928352602083019190915201610128565b60015461018c906001600160a01b031681565b6001546001600160a01b031633148061027557506002546001600160a01b031633145b6102c65760405162461bcd60e51b815260206004820152601b60248201527f53686f756c64206265206d756c746953696720636f6e7472616374000000000060448201526064015b60405180910390fd5b6102da610e106102d46108c8565b90610b82565b421061034e5760405162461bcd60e51b815260206004820152603b60248201527f6164644e6577526563697069656e743a2043616e6e6f7420757064617465207460448201527f68652072656365697069656e742061667465722073746172746564000000000060648201526084016102bd565b610359838383610b8e565b604080516001600160a01b0385168152602081018490527f16e42921daee38136dc17f8420c371163ec8299e5299fb480d7aeff85cfac3eb910160405180910390a1505050565b6000600181805b600c81101561045d576103d26103ca826103c4866202a300610db9565b90610db9565b6102d46108c8565b421180156103fd57506103f96103ca6103ec836001610b82565b6103c4866202a300610db9565b4211155b1561041a576104136103ca6103ec836002610b82565b915061045d565b61042f6103ca600c6103c4866202a300610db9565b42111561044b576104136103ca600c6103c4866202a300610db9565b8061045581610e8f565b9150506103a7565b5092915050565b6001600160a01b0381166000908152600460205260408120600101546104939061048d846109c7565b90610dc5565b92915050565b6000546001600160a01b031633146104c35760405162461bcd60e51b81526004016102bd90610ea8565b6003546040516370a0823160e01b81526001600160a01b03909116906370a08231906104f3903090600401610e65565b602060405180830381865afa158015610510573d6000803e3d6000fd5b505050506040513d601f19601f820116820180604052508101906105349190610ed5565b600655565b6000546001600160a01b031633146105635760405162461bcd60e51b81526004016102bd90610ea8565b6003546040516370a0823160e01b81526000916001600160a01b0316906370a0823190610594903090600401610e65565b602060405180830381865afa1580156105b1573d6000803e3d6000fd5b505050506040513d601f19601f820116820180604052508101906105d59190610ed5565b116105fc5760405162461bcd60e51b815260206004820152600060248201526044016102bd565b6003546040516370a0823160e01b81526000916001600160a01b0316906370a082319061062d903090600401610e65565b602060405180830381865afa15801561064a573d6000803e3d6000fd5b505050506040513d601f19601f8201168201806040525081019061066e9190610ed5565b905060006106f3600260009054906101000a90046001600160a01b03166001600160a01b031663a35258486040518163ffffffff1660e01b8152600401602060405180830381865afa1580156106c8573d6000803e3d6000fd5b505050506040513d601f19601f820116820180604052508101906106ec9190610ed5565b8390610dc5565b6003546040516323b872dd60e01b8152306004820152336024820152604481018390529192506001600160a01b0316906323b872dd906064016020604051808303816000875af115801561074b573d6000803e3d6000fd5b505050506040513d601f19601f8201168201806040525081019061076f9190610eee565b505050565b6000610493610782836109c7565b6001600160a01b03841660009081526004602052604090205490610dc5565b336000908152600460205260408120805482036107c057600091505090565b60006107cb336109c7565b33600090815260046020526040812060010154919250906107ed908390610dc5565b600184018390559050806108435760405162461bcd60e51b815260206004820152601d60248201527f77697468647261773a204e6f7468696e6720746f20776974686472617700000060448201526064016102bd565b60035460405163a9059cbb60e01b8152336004820152602481018390526001600160a01b039091169063a9059cbb906044016020604051808303816000875af1158015610894573d6000803e3d6000fd5b505050506040513d601f19601f820116820180604052508101906108b89190610eee565b6108c157600080fd5b9392505050565b60006109c261094b62015180600260009054906101000a90046001600160a01b03166001600160a01b031663b4d1d7956040518163ffffffff1660e01b8152600401602060405180830381865afa158015610927573d6000803e3d6000fd5b505050506040513d601f19601f820116820180604052508101906103c49190610ed5565b600260009054906101000a90046001600160a01b03166001600160a01b031663ba9a061a6040518163ffffffff1660e01b8152600401602060405180830381865afa15801561099e573d6000803e3d6000fd5b505050506040513d601f19601f820116820180604052508101906102d49190610ed5565b905090565b60006001600160a01b038216610a1f5760405162461bcd60e51b815260206004820152601a60248201527f6765745665737465643a20496e76616c6964206164647265737300000000000060448201526064016102bd565b6001600160a01b03821660009081526004602090815260409182902082518084019093528054808452600190910154918301919091521580610a675750610a646108c8565b42105b15610a755750600092915050565b610a83610e106102d46108c8565b4211610aa25780516108c190606490610a9c9082610db9565b90610dd1565b60006001815b600c811015610b4a57610ac56103ca826103c4856202a300610db9565b42118015610af05750610aec6103ca610adf836001610b82565b6103c4856202a300610db9565b4211155b15610b1257610b0b610b03604b83610db9565b606490610b82565b9250610b4a565b610b276103ca600c6103c4856202a300610db9565b421115610b38576103e89250610b4a565b80610b4281610e8f565b915050610aa8565b508251600090610b62906103e890610a9c9086610db9565b8451909150811115610b7957505090519392505050565b95945050505050565b60006108c18284610f0b565b6001600160a01b038316610bf45760405162461bcd60e51b815260206004820152602760248201527f616464526563697069656e743a20496e76616c696420726563697069656e74206044820152666164647265737360c81b60648201526084016102bd565b60008211610c445760405162461bcd60e51b815260206004820152601b60248201527f616464526563697069656e743a2043616e6e6f7420766573742030000000000060448201526064016102bd565b8080610c6f575080158015610c6f57506001600160a01b038316600090815260046020526040902054155b610cbb5760405162461bcd60e51b815260206004820152601f60248201527f616464526563697069656e743a20416c726561647920616c6c6f63617465640060448201526064016102bd565b6006546001600160a01b038416600090815260046020526040902054600754610ce99185916102d491610dc5565b1115610d475760405162461bcd60e51b815260206004820152602760248201527f616464526563697069656e743a20546f74616c20416c6c6f636174696f6e204f604482015266766572666c6f7760c81b60648201526084016102bd565b6001600160a01b038316600090815260046020526040902054600754610d729184916102d491610dc5565b600755506040805180820182529182526001600160a01b03909216600081815260046020818152948220600181018054878701908152949093529452915190925590519055565b60006108c18284610f23565b60006108c18284610f42565b60006108c18284610f59565b80356001600160a01b0381168114610df457600080fd5b919050565b8015158114610e0757600080fd5b50565b600080600060608486031215610e1f57600080fd5b610e2884610ddd565b9250602084013591506040840135610e3f81610df9565b809150509250925092565b600060208284031215610e5c57600080fd5b6108c182610ddd565b6001600160a01b0391909116815260200190565b634e487b7160e01b600052601160045260246000fd5b600060018201610ea157610ea1610e79565b5060010190565b6020808252601390820152725265717569726573204f776e657220526f6c6560681b604082015260600190565b600060208284031215610ee757600080fd5b5051919050565b600060208284031215610f0057600080fd5b81516108c181610df9565b60008219821115610f1e57610f1e610e79565b500190565b6000816000190483118215151615610f3d57610f3d610e79565b500290565b600082821015610f5457610f54610e79565b500390565b600082610f7657634e487b7160e01b600052601260045260246000fd5b50049056fea2646970667358221220185c485fa40cc8a1c0c82a47cbb8e29ef63f181ffe2999978e620eb809c025c864736f6c634300080f0033",
  "bytecodeSha1": "f18413799926981397b28903cd895285fee5c050",
  "compiler": {
    "evm_version": "istanbul",
    "optimizer": {
      "enabled": true,
      "runs": 100
    },
    "version": "0.8.15+commit.e14f2714"
  },
  "contractName": "Vesting",
  "language": "Solidity",
  "natspec": {
    "kind": "dev",
    "methods": {
      "addNewRecipient(address,uint256,bool)": {
        "details": "Add new recipient to vesting schedule",
        "params": {
          "_newRecipient": "the address to be added",
          "_totalAmount": "integer variable to indicate SBC amount of the recipient"
        }
      },
      "getCurrentVestingTime()": {
        "details": "Get current vesting time (current block time)"
      },
      "getLocked(address)": {
        "details": "Gets the locked SBC amount of a beneficiary",
        "params": {
          "beneficiary": "address of beneficiary"
        }
      },
      "getTGETime()": {
        "details": "Get TGE time (TGE_Time = PresaleEnd_Time + 1 hours) token Generate end time"
      },
      "getVested(address)": {
        "details": "Get claimable SBC token amount of a beneficiary",
        "params": {
          "beneficiary": "address of beneficiary"
        }
      },
      "getWithdrawable(address)": {
        "details": "Gets the claimable SBC amount of a beneficiary",
        "params": {
          "beneficiary": "address of beneficiary"
        }
      },
      "setVestingAllocation()": {
        "details": "external function to set vesting allocation"
      },
      "withdrawToken()": {
        "details": "Claim unlocked SBC tokens of a recipient"
      },
      "withrawRemainToken()": {
        "details": "Claim unlocked SBC tokens of a recipient"
      }
    },
    "version": 1
  },
  "opcodes": "PUSH1 0x80 PUSH1 0x40 MSTORE CALLVALUE DUP1 ISZERO PUSH2 0x10 JUMPI PUSH1 0x0 DUP1 REVERT JUMPDEST POP PUSH1 0x4 CALLDATASIZE LT PUSH2 0x111 JUMPI PUSH1 0x0 CALLDATALOAD PUSH1 0xE0 SHR DUP1 PUSH4 0x8C828C2D GT PUSH2 0xAD JUMPI DUP1 PUSH4 0xD1600DF5 GT PUSH2 0x71 JUMPI DUP1 PUSH4 0xD1600DF5 EQ PUSH2 0x1D5 JUMPI DUP1 PUSH4 0xDEC8F52E EQ PUSH2 0x1DD JUMPI DUP1 PUSH4 0xE9EDD759 EQ PUSH2 0x1F0 JUMPI DUP1 PUSH4 0xEB820312 EQ PUSH2 0x203 JUMPI DUP1 PUSH4 0xFD86FEEE EQ PUSH2 0x23F JUMPI PUSH1 0x0 DUP1 REVERT JUMPDEST DUP1 PUSH4 0x8C828C2D EQ PUSH2 0x1A2 JUMPI DUP1 PUSH4 0x8CAD856F EQ PUSH2 0x1A8 JUMPI DUP1 PUSH4 0xA676F007 EQ PUSH2 0x1B1 JUMPI DUP1 PUSH4 0xBC22FD1B EQ PUSH2 0x1BA JUMPI DUP1 PUSH4 0xCA628C78 EQ PUSH2 0x1CD JUMPI PUSH1 0x0 DUP1 REVERT JUMPDEST DUP1 PUSH4 0x1C9B61E1 EQ PUSH2 0x116 JUMPI DUP1 PUSH4 0x29C7F99B EQ PUSH2 0x131 JUMPI DUP1 PUSH4 0x3113076A EQ PUSH2 0x146 JUMPI DUP1 PUSH4 0x32CC6AE6 EQ PUSH2 0x14E JUMPI DUP1 PUSH4 0x4C4BFF3A EQ PUSH2 0x161 JUMPI DUP1 PUSH4 0x4EAEE3F3 EQ PUSH2 0x169 JUMPI DUP1 PUSH4 0x558ED00E EQ PUSH2 0x171 JUMPI DUP1 PUSH4 0x63D9DF85 EQ PUSH2 0x179 JUMPI DUP1 PUSH4 0x7313EE5A EQ PUSH2 0x199 JUMPI JUMPDEST PUSH1 0x0 DUP1 REVERT JUMPDEST PUSH2 0x11E PUSH1 0x4B DUP2 JUMP JUMPDEST PUSH1 0x40 MLOAD SWAP1 DUP2 MSTORE PUSH1 0x20 ADD JUMPDEST PUSH1 0x40 MLOAD DUP1 SWAP2 SUB SWAP1 RETURN JUMPDEST PUSH2 0x144 PUSH2 0x13F CALLDATASIZE PUSH1 0x4 PUSH2 0xE0A JUMP JUMPDEST PUSH2 0x252 JUMP JUMPDEST STOP JUMPDEST PUSH2 0x11E PUSH2 0x3A0 JUMP JUMPDEST PUSH2 0x11E PUSH2 0x15C CALLDATASIZE PUSH1 0x4 PUSH2 0xE4A JUMP JUMPDEST PUSH2 0x464 JUMP JUMPDEST PUSH2 0x144 PUSH2 0x499 JUMP JUMPDEST PUSH2 0x11E PUSH1 0x64 DUP2 JUMP JUMPDEST PUSH2 0x144 PUSH2 0x539 JUMP JUMPDEST PUSH1 0x2 SLOAD PUSH2 0x18C SWAP1 PUSH1 0x1 PUSH1 0x1 PUSH1 0xA0 SHL SUB AND DUP2 JUMP JUMPDEST PUSH1 0x40 MLOAD PUSH2 0x128 SWAP2 SWAP1 PUSH2 0xE65 JUMP JUMPDEST PUSH2 0x11E PUSH1 0x5 SLOAD DUP2 JUMP JUMPDEST TIMESTAMP PUSH2 0x11E JUMP JUMPDEST PUSH2 0x11E PUSH2 0xE10 DUP2 JUMP JUMPDEST PUSH2 0x11E PUSH1 0x6 SLOAD DUP2 JUMP JUMPDEST PUSH2 0x11E PUSH2 0x1C8 CALLDATASIZE PUSH1 0x4 PUSH2 0xE4A JUMP JUMPDEST PUSH2 0x774 JUMP JUMPDEST PUSH2 0x11E PUSH2 0x7A1 JUMP JUMPDEST PUSH2 0x11E PUSH2 0x8C8 JUMP JUMPDEST PUSH2 0x11E PUSH2 0x1EB CALLDATASIZE PUSH1 0x4 PUSH2 0xE4A JUMP JUMPDEST PUSH2 0x9C7 JUMP JUMPDEST PUSH1 0x3 SLOAD PUSH2 0x18C SWAP1 PUSH1 0x1 PUSH1 0x1 PUSH1 0xA0 SHL SUB AND DUP2 JUMP JUMPDEST PUSH2 0x22A PUSH2 0x211 CALLDATASIZE PUSH1 0x4 PUSH2 0xE4A JUMP JUMPDEST PUSH1 0x4 PUSH1 0x20 MSTORE PUSH1 0x0 SWAP1 DUP2 MSTORE PUSH1 0x40 SWAP1 KECCAK256 DUP1 SLOAD PUSH1 0x1 SWAP1 SWAP2 ADD SLOAD DUP3 JUMP JUMPDEST PUSH1 0x40 DUP1 MLOAD SWAP3 DUP4 MSTORE PUSH1 0x20 DUP4 ADD SWAP2 SWAP1 SWAP2 MSTORE ADD PUSH2 0x128 JUMP JUMPDEST PUSH1 0x1 SLOAD PUSH2 0x18C SWAP1 PUSH1 0x1 PUSH1 0x1 PUSH1 0xA0 SHL SUB AND DUP2 JUMP JUMPDEST PUSH1 0x1 SLOAD PUSH1 0x1 PUSH1 0x1 PUSH1 0xA0 SHL SUB AND CALLER EQ DUP1 PUSH2 0x275 JUMPI POP PUSH1 0x2 SLOAD PUSH1 0x1 PUSH1 0x1 PUSH1 0xA0 SHL SUB AND CALLER EQ JUMPDEST PUSH2 0x2C6 JUMPI PUSH1 0x40 MLOAD PUSH3 0x461BCD PUSH1 0xE5 SHL DUP2 MSTORE PUSH1 0x20 PUSH1 0x4 DUP3 ADD MSTORE PUSH1 0x1B PUSH1 0x24 DUP3 ADD MSTORE PUSH32 0x53686F756C64206265206D756C746953696720636F6E74726163740000000000 PUSH1 0x44 DUP3 ADD MSTORE PUSH1 0x64 ADD JUMPDEST PUSH1 0x40 MLOAD DUP1 SWAP2 SUB SWAP1 REVERT JUMPDEST PUSH2 0x2DA PUSH2 0xE10 PUSH2 0x2D4 PUSH2 0x8C8 JUMP JUMPDEST SWAP1 PUSH2 0xB82 JUMP JUMPDEST TIMESTAMP LT PUSH2 0x34E JUMPI PUSH1 0x40 MLOAD PUSH3 0x461BCD PUSH1 0xE5 SHL DUP2 MSTORE PUSH1 0x20 PUSH1 0x4 DUP3 ADD MSTORE PUSH1 0x3B PUSH1 0x24 DUP3 ADD MSTORE PUSH32 0x6164644E6577526563697069656E743A2043616E6E6F74207570646174652074 PUSH1 0x44 DUP3 ADD MSTORE PUSH32 0x68652072656365697069656E7420616674657220737461727465640000000000 PUSH1 0x64 DUP3 ADD MSTORE PUSH1 0x84 ADD PUSH2 0x2BD JUMP JUMPDEST PUSH2 0x359 DUP4 DUP4 DUP4 PUSH2 0xB8E JUMP JUMPDEST PUSH1 0x40 DUP1 MLOAD PUSH1 0x1 PUSH1 0x1 PUSH1 0xA0 SHL SUB DUP6 AND DUP2 MSTORE PUSH1 0x20 DUP2 ADD DUP5 SWAP1 MSTORE PUSH32 0x16E42921DAEE38136DC17F8420C371163EC8299E5299FB480D7AEFF85CFAC3EB SWAP2 ADD PUSH1 0x40 MLOAD DUP1 SWAP2 SUB SWAP1 LOG1 POP POP POP JUMP JUMPDEST PUSH1 0x0 PUSH1 0x1 DUP2 DUP1 JUMPDEST PUSH1 0xC DUP2 LT ISZERO PUSH2 0x45D JUMPI PUSH2 0x3D2 PUSH2 0x3CA DUP3 PUSH2 0x3C4 DUP7 PUSH3 0x2A300 PUSH2 0xDB9 JUMP JUMPDEST SWAP1 PUSH2 0xDB9 JUMP JUMPDEST PUSH2 0x2D4 PUSH2 0x8C8 JUMP JUMPDEST TIMESTAMP GT DUP1 ISZERO PUSH2 0x3FD JUMPI POP PUSH2 0x3F9 PUSH2 0x3CA PUSH2 0x3EC DUP4 PUSH1 0x1 PUSH2 0xB82 JUMP JUMPDEST PUSH2 0x3C4 DUP7 PUSH3 0x2A300 PUSH2 0xDB9 JUMP JUMPDEST TIMESTAMP GT ISZERO JUMPDEST ISZERO PUSH2 0x41A JUMPI PUSH2 0x413 PUSH2 0x3CA PUSH2 0x3EC DUP4 PUSH1 0x2 PUSH2 0xB82 JUMP JUMPDEST SWAP2 POP PUSH2 0x45D JUMP JUMPDEST PUSH2 0x42F PUSH2 0x3CA PUSH1 0xC PUSH2 0x3C4 DUP7 PUSH3 0x2A300 PUSH2 0xDB9 JUMP JUMPDEST TIMESTAMP GT ISZERO PUSH2 0x44B JUMPI PUSH2 0x413 PUSH2 0x3CA PUSH1 0xC PUSH2 0x3C4 DUP7 PUSH3 0x2A300 PUSH2 0xDB9 JUMP JUMPDEST DUP1 PUSH2 0x455 DUP2 PUSH2 0xE8F JUMP JUMPDEST SWAP2 POP POP PUSH2 0x3A7 JUMP JUMPDEST POP SWAP3 SWAP2 POP POP JUMP JUMPDEST PUSH1 0x1 PUSH1 0x1 PUSH1 0xA0 SHL SUB DUP2 AND PUSH1 0x0 SWAP1 DUP2 MSTORE PUSH1 0x4 PUSH1 0x20 MSTORE PUSH1 0x40 DUP2 KECCAK256 PUSH1 0x1 ADD SLOAD PUSH2 0x493 SWAP1 PUSH2 0x48D DUP5 PUSH2 0x9C7 JUMP JUMPDEST SWAP1 PUSH2 0xDC5 JUMP JUMPDEST SWAP3 SWAP2 POP POP JUMP JUMPDEST PUSH1 0x0 SLOAD PUSH1 0x1 PUSH1 0x1 PUSH1 0xA0 SHL SUB AND CALLER EQ PUSH2 0x4C3 JUMPI PUSH1 0x40 MLOAD PUSH3 0x461BCD PUSH1 0xE5 SHL DUP2 MSTORE PUSH1 0x4 ADD PUSH2 0x2BD SWAP1 PUSH2 0xEA8 JUMP JUMPDEST PUSH1 0x3 SLOAD PUSH1 0x40 MLOAD PUSH4 0x70A08231 PUSH1 0xE0 SHL DUP2 MSTORE PUSH1 0x1 PUSH1 0x1 PUSH1 0xA0 SHL SUB SWAP1 SWAP2 AND SWAP1 PUSH4 0x70A08231 SWAP1 PUSH2 0x4F3 SWAP1 ADDRESS SWAP1 PUSH1 0x4 ADD PUSH2 0xE65 JUMP JUMPDEST PUSH1 0x20 PUSH1 0x40 MLOAD DUP1 DUP4 SUB DUP2 DUP7 GAS STATICCALL ISZERO DUP1 ISZERO PUSH2 0x510 JUMPI RETURNDATASIZE PUSH1 0x0 DUP1 RETURNDATACOPY RETURNDATASIZE PUSH1 0x0 REVERT JUMPDEST POP POP POP POP PUSH1 0x40 MLOAD RETURNDATASIZE PUSH1 0x1F NOT PUSH1 0x1F DUP3 ADD AND DUP3 ADD DUP1 PUSH1 0x40 MSTORE POP DUP2 ADD SWAP1 PUSH2 0x534 SWAP2 SWAP1 PUSH2 0xED5 JUMP JUMPDEST PUSH1 0x6 SSTORE JUMP JUMPDEST PUSH1 0x0 SLOAD PUSH1 0x1 PUSH1 0x1 PUSH1 0xA0 SHL SUB AND CALLER EQ PUSH2 0x563 JUMPI PUSH1 0x40 MLOAD PUSH3 0x461BCD PUSH1 0xE5 SHL DUP2 MSTORE PUSH1 0x4 ADD PUSH2 0x2BD SWAP1 PUSH2 0xEA8 JUMP JUMPDEST PUSH1 0x3 SLOAD PUSH1 0x40 MLOAD PUSH4 0x70A08231 PUSH1 0xE0 SHL DUP2 MSTORE PUSH1 0x0 SWAP2 PUSH1 0x1 PUSH1 0x1 PUSH1 0xA0 SHL SUB AND SWAP1 PUSH4 0x70A08231 SWAP1 PUSH2 0x594 SWAP1 ADDRESS SWAP1 PUSH1 0x4 ADD PUSH2 0xE65 JUMP JUMPDEST PUSH1 0x20 PUSH1 0x40 MLOAD DUP1 DUP4 SUB DUP2 DUP7 GAS STATICCALL ISZERO DUP1 ISZERO PUSH2 0x5B1 JUMPI RETURNDATASIZE PUSH1 0x0 DUP1 RETURNDATACOPY RETURNDATASIZE PUSH1 0x0 REVERT JUMPDEST POP POP POP POP PUSH1 0x40 MLOAD RETURNDATASIZE PUSH1 0x1F NOT PUSH1 0x1F DUP3 ADD AND DUP3 ADD DUP1 PUSH1 0x40 MSTORE POP DUP2 ADD SWAP1 PUSH2 0x5D5 SWAP2 SWAP1 PUSH2 0xED5 JUMP JUMPDEST GT PUSH2 0x5FC JUMPI PUSH1 0x40 MLOAD PUSH3 0x461BCD PUSH1 0xE5 SHL DUP2 MSTORE PUSH1 0x20 PUSH1 0x4 DUP3 ADD MSTORE PUSH1 0x0 PUSH1 0x24 DUP3 ADD MSTORE PUSH1 0x44 ADD PUSH2 0x2BD JUMP JUMPDEST PUSH1 0x3 SLOAD PUSH1 0x40 MLOAD PUSH4 0x70A08231 PUSH1 0xE0 SHL DUP2 MSTORE PUSH1 0x0 SWAP2 PUSH1 0x1 PUSH1 0x1 PUSH1 0xA0 SHL SUB AND SWAP1 PUSH4 0x70A08231 SWAP1 PUSH2 0x62D SWAP1 ADDRESS SWAP1 PUSH1 0x4 ADD PUSH2 0xE65 JUMP JUMPDEST PUSH1 0x20 PUSH1 0x40 MLOAD DUP1 DUP4 SUB DUP2 DUP7 GAS STATICCALL ISZERO DUP1 ISZERO PUSH2 0x64A JUMPI RETURNDATASIZE PUSH1 0x0 DUP1 RETURNDATACOPY RETURNDATASIZE PUSH1 0x0 REVERT JUMPDEST POP POP POP POP PUSH1 0x40 MLOAD RETURNDATASIZE PUSH1 0x1F NOT PUSH1 0x1F DUP3 ADD AND DUP3 ADD DUP1 PUSH1 0x40 MSTORE POP DUP2 ADD SWAP1 PUSH2 0x66E SWAP2 SWAP1 PUSH2 0xED5 JUMP JUMPDEST SWAP1 POP PUSH1 0x0 PUSH2 0x6F3 PUSH1 0x2 PUSH1 0x0 SWAP1 SLOAD SWAP1 PUSH2 0x100 EXP SWAP1 DIV PUSH1 0x1 PUSH1 0x1 PUSH1 0xA0 SHL SUB AND PUSH1 0x1 PUSH1 0x1 PUSH1 0xA0 SHL SUB AND PUSH4 0xA3525848 PUSH1 0x40 MLOAD DUP2 PUSH4 0xFFFFFFFF AND PUSH1 0xE0 SHL DUP2 MSTORE PUSH1 0x4 ADD PUSH1 0x20 PUSH1 0x40 MLOAD DUP1 DUP4 SUB DUP2 DUP7 GAS STATICCALL ISZERO DUP1 ISZERO PUSH2 0x6C8 JUMPI RETURNDATASIZE PUSH1 0x0 DUP1 RETURNDATACOPY RETURNDATASIZE PUSH1 0x0 REVERT JUMPDEST POP POP POP POP PUSH1 0x40 MLOAD RETURNDATASIZE PUSH1 0x1F NOT PUSH1 0x1F DUP3 ADD AND DUP3 ADD DUP1 PUSH1 0x40 MSTORE POP DUP2 ADD SWAP1 PUSH2 0x6EC SWAP2 SWAP1 PUSH2 0xED5 JUMP JUMPDEST DUP4 SWAP1 PUSH2 0xDC5 JUMP JUMPDEST PUSH1 0x3 SLOAD PUSH1 0x40 MLOAD PUSH4 0x23B872DD PUSH1 0xE0 SHL DUP2 MSTORE ADDRESS PUSH1 0x4 DUP3 ADD MSTORE CALLER PUSH1 0x24 DUP3 ADD MSTORE PUSH1 0x44 DUP2 ADD DUP4 SWAP1 MSTORE SWAP2 SWAP3 POP PUSH1 0x1 PUSH1 0x1 PUSH1 0xA0 SHL SUB AND SWAP1 PUSH4 0x23B872DD SWAP1 PUSH1 0x64 ADD PUSH1 0x20 PUSH1 0x40 MLOAD DUP1 DUP4 SUB DUP2 PUSH1 0x0 DUP8 GAS CALL ISZERO DUP1 ISZERO PUSH2 0x74B JUMPI RETURNDATASIZE PUSH1 0x0 DUP1 RETURNDATACOPY RETURNDATASIZE PUSH1 0x0 REVERT JUMPDEST POP POP POP POP PUSH1 0x40 MLOAD RETURNDATASIZE PUSH1 0x1F NOT PUSH1 0x1F DUP3 ADD AND DUP3 ADD DUP1 PUSH1 0x40 MSTORE POP DUP2 ADD SWAP1 PUSH2 0x76F SWAP2 SWAP1 PUSH2 0xEEE JUMP JUMPDEST POP POP POP JUMP JUMPDEST PUSH1 0x0 PUSH2 0x493 PUSH2 0x782 DUP4 PUSH2 0x9C7 JUMP JUMPDEST PUSH1 0x1 PUSH1 0x1 PUSH1 0xA0 SHL SUB DUP5 AND PUSH1 0x0 SWAP1 DUP2 MSTORE PUSH1 0x4 PUSH1 0x20 MSTORE PUSH1 0x40 SWAP1 KECCAK256 SLOAD SWAP1 PUSH2 0xDC5 JUMP JUMPDEST CALLER PUSH1 0x0 SWAP1 DUP2 MSTORE PUSH1 0x4 PUSH1 0x20 MSTORE PUSH1 0x40 DUP2 KECCAK256 DUP1 SLOAD DUP3 SUB PUSH2 0x7C0 JUMPI PUSH1 0x0 SWAP2 POP POP SWAP1 JUMP JUMPDEST PUSH1 0x0 PUSH2 0x7CB CALLER PUSH2 0x9C7 JUMP JUMPDEST CALLER PUSH1 0x0 SWAP1 DUP2 MSTORE PUSH1 0x4 PUSH1 0x20 MSTORE PUSH1 0x40 DUP2 KECCAK256 PUSH1 0x1 ADD SLOAD SWAP2 SWAP3 POP SWAP1 PUSH2 0x7ED SWAP1 DUP4 SWAP1 PUSH2 0xDC5 JUMP JUMPDEST PUSH1 0x1 DUP5 ADD DUP4 SWAP1 SSTORE SWAP1 POP DUP1 PUSH2 0x843 JUMPI PUSH1 0x40 MLOAD PUSH3 0x461BCD PUSH1 0xE5 SHL DUP2 MSTORE PUSH1 0x20 PUSH1 0x4 DUP3 ADD MSTORE PUSH1 0x1D PUSH1 0x24 DUP3 ADD MSTORE PUSH32 0x77697468647261773A204E6F7468696E6720746F207769746864726177000000 PUSH1 0x44 DUP3 ADD MSTORE PUSH1 0x64 ADD PUSH2 0x2BD JUMP JUMPDEST PUSH1 0x3 SLOAD PUSH1 0x40 MLOAD PUSH4 0xA9059CBB PUSH1 0xE0 SHL DUP2 MSTORE CALLER PUSH1 0x4 DUP3 ADD MSTORE PUSH1 0x24 DUP2 ADD DUP4 SWAP1 MSTORE PUSH1 0x1 PUSH1 0x1 PUSH1 0xA0 SHL SUB SWAP1 SWAP2 AND SWAP1 PUSH4 0xA9059CBB SWAP1 PUSH1 0x44 ADD PUSH1 0x20 PUSH1 0x40 MLOAD DUP1 DUP4 SUB DUP2 PUSH1 0x0 DUP8 GAS CALL ISZERO DUP1 ISZERO PUSH2 0x894 JUMPI RETURNDATASIZE PUSH1 0x0 DUP1 RETURNDATACOPY RETURNDATASIZE PUSH1 0x0 REVERT JUMPDEST POP POP POP POP PUSH1 0x40 MLOAD RETURNDATASIZE PUSH1 0x1F NOT PUSH1 0x1F DUP3 ADD AND DUP3 ADD DUP1 PUSH1 0x40 MSTORE POP DUP2 ADD SWAP1 PUSH2 0x8B8 SWAP2 SWAP1 PUSH2 0xEEE JUMP JUMPDEST PUSH2 0x8C1 JUMPI PUSH1 0x0 DUP1 REVERT JUMPDEST SWAP4 SWAP3 POP POP POP JUMP JUMPDEST PUSH1 0x0 PUSH2 0x9C2 PUSH2 0x94B PUSH3 0x15180 PUSH1 0x2 PUSH1 0x0 SWAP1 SLOAD SWAP1 PUSH2 0x100 EXP SWAP1 DIV PUSH1 0x1 PUSH1 0x1 PUSH1 0xA0 SHL SUB AND PUSH1 0x1 PUSH1 0x1 PUSH1 0xA0 SHL SUB AND PUSH4 0xB4D1D795 PUSH1 0x40 MLOAD DUP2 PUSH4 0xFFFFFFFF AND PUSH1 0xE0 SHL DUP2 MSTORE PUSH1 0x4 ADD PUSH1 0x20 PUSH1 0x40 MLOAD DUP1 DUP4 SUB DUP2 DUP7 GAS STATICCALL ISZERO DUP1 ISZERO PUSH2 0x927 JUMPI RETURNDATASIZE PUSH1 0x0 DUP1 RETURNDATACOPY RETURNDATASIZE PUSH1 0x0 REVERT JUMPDEST POP POP POP POP PUSH1 0x40 MLOAD RETURNDATASIZE PUSH1 0x1F NOT PUSH1 0x1F DUP3 ADD AND DUP3 ADD DUP1 PUSH1 0x40 MSTORE POP DUP2 ADD SWAP1 PUSH2 0x3C4 SWAP2 SWAP1 PUSH2 0xED5 JUMP JUMPDEST PUSH1 0x2 PUSH1 0x0 SWAP1 SLOAD SWAP1 PUSH2 0x100 EXP SWAP1 DIV PUSH1 0x1 PUSH1 0x1 PUSH1 0xA0 SHL SUB AND PUSH1 0x1 PUSH1 0x1 PUSH1 0xA0 SHL SUB AND PUSH4 0xBA9A061A PUSH1 0x40 MLOAD DUP2 PUSH4 0xFFFFFFFF AND PUSH1 0xE0 SHL DUP2 MSTORE PUSH1 0x4 ADD PUSH1 0x20 PUSH1 0x40 MLOAD DUP1 DUP4 SUB DUP2 DUP7 GAS STATICCALL ISZERO DUP1 ISZERO PUSH2 0x99E JUMPI RETURNDATASIZE PUSH1 0x0 DUP1 RETURNDATACOPY RETURNDATASIZE PUSH1 0x0 REVERT JUMPDEST POP POP POP POP PUSH1 0x40 MLOAD RETURNDATASIZE PUSH1 0x1F NOT PUSH1 0x1F DUP3 ADD AND DUP3 ADD DUP1 PUSH1 0x40 MSTORE POP DUP2 ADD SWAP1 PUSH2 0x2D4 SWAP2 SWAP1 PUSH2 0xED5 JUMP JUMPDEST SWAP1 POP SWAP1 JUMP JUMPDEST PUSH1 0x0 PUSH1 0x1 PUSH1 0x1 PUSH1 0xA0 SHL SUB DUP3 AND PUSH2 0xA1F JUMPI PUSH1 0x40 MLOAD PUSH3 0x461BCD PUSH1 0xE5 SHL DUP2 MSTORE PUSH1 0x20 PUSH1 0x4 DUP3 ADD MSTORE PUSH1 0x1A PUSH1 0x24 DUP3 ADD MSTORE PUSH32 0x6765745665737465643A20496E76616C69642061646472657373000000000000 PUSH1 0x44 DUP3 ADD MSTORE PUSH1 0x64 ADD PUSH2 0x2BD JUMP JUMPDEST PUSH1 0x1 PUSH1 0x1 PUSH1 0xA0 SHL SUB DUP3 AND PUSH1 0x0 SWAP1 DUP2 MSTORE PUSH1 0x4 PUSH1 0x20 SWAP1 DUP2 MSTORE PUSH1 0x40 SWAP2 DUP3 SWAP1 KECCAK256 DUP3 MLOAD DUP1 DUP5 ADD SWAP1 SWAP4 MSTORE DUP1 SLOAD DUP1 DUP5 MSTORE PUSH1 0x1 SWAP1 SWAP2 ADD SLOAD SWAP2 DUP4 ADD SWAP2 SWAP1 SWAP2 MSTORE ISZERO DUP1 PUSH2 0xA67 JUMPI POP PUSH2 0xA64 PUSH2 0x8C8 JUMP JUMPDEST TIMESTAMP LT JUMPDEST ISZERO PUSH2 0xA75 JUMPI POP PUSH1 0x0 SWAP3 SWAP2 POP POP JUMP JUMPDEST PUSH2 0xA83 PUSH2 0xE10 PUSH2 0x2D4 PUSH2 0x8C8 JUMP JUMPDEST TIMESTAMP GT PUSH2 0xAA2 JUMPI DUP1 MLOAD PUSH2 0x8C1 SWAP1 PUSH1 0x64 SWAP1 PUSH2 0xA9C SWAP1 DUP3 PUSH2 0xDB9 JUMP JUMPDEST SWAP1 PUSH2 0xDD1 JUMP JUMPDEST PUSH1 0x0 PUSH1 0x1 DUP2 JUMPDEST PUSH1 0xC DUP2 LT ISZERO PUSH2 0xB4A JUMPI PUSH2 0xAC5 PUSH2 0x3CA DUP3 PUSH2 0x3C4 DUP6 PUSH3 0x2A300 PUSH2 0xDB9 JUMP JUMPDEST TIMESTAMP GT DUP1 ISZERO PUSH2 0xAF0 JUMPI POP PUSH2 0xAEC PUSH2 0x3CA PUSH2 0xADF DUP4 PUSH1 0x1 PUSH2 0xB82 JUMP JUMPDEST PUSH2 0x3C4 DUP6 PUSH3 0x2A300 PUSH2 0xDB9 JUMP JUMPDEST TIMESTAMP GT ISZERO JUMPDEST ISZERO PUSH2 0xB12 JUMPI PUSH2 0xB0B PUSH2 0xB03 PUSH1 0x4B DUP4 PUSH2 0xDB9 JUMP JUMPDEST PUSH1 0x64 SWAP1 PUSH2 0xB82 JUMP JUMPDEST SWAP3 POP PUSH2 0xB4A JUMP JUMPDEST PUSH2 0xB27 PUSH2 0x3CA PUSH1 0xC PUSH2 0x3C4 DUP6 PUSH3 0x2A300 PUSH2 0xDB9 JUMP JUMPDEST TIMESTAMP GT ISZERO PUSH2 0xB38 JUMPI PUSH2 0x3E8 SWAP3 POP PUSH2 0xB4A JUMP JUMPDEST DUP1 PUSH2 0xB42 DUP2 PUSH2 0xE8F JUMP JUMPDEST SWAP2 POP POP PUSH2 0xAA8 JUMP JUMPDEST POP DUP3 MLOAD PUSH1 0x0 SWAP1 PUSH2 0xB62 SWAP1 PUSH2 0x3E8 SWAP1 PUSH2 0xA9C SWAP1 DUP7 PUSH2 0xDB9 JUMP JUMPDEST DUP5 MLOAD SWAP1 SWAP2 POP DUP2 GT ISZERO PUSH2 0xB79 JUMPI POP POP SWAP1 MLOAD SWAP4 SWAP3 POP POP POP JUMP JUMPDEST SWAP6 SWAP5 POP POP POP POP POP JUMP JUMPDEST PUSH1 0x0 PUSH2 0x8C1 DUP3 DUP5 PUSH2 0xF0B JUMP JUMPDEST PUSH1 0x1 PUSH1 0x1 PUSH1 0xA0 SHL SUB DUP4 AND PUSH2 0xBF4 JUMPI PUSH1 0x40 MLOAD PUSH3 0x461BCD PUSH1 0xE5 SHL DUP2 MSTORE PUSH1 0x20 PUSH1 0x4 DUP3 ADD MSTORE PUSH1 0x27 PUSH1 0x24 DUP3 ADD MSTORE PUSH32 0x616464526563697069656E743A20496E76616C696420726563697069656E7420 PUSH1 0x44 DUP3 ADD MSTORE PUSH7 0x61646472657373 PUSH1 0xC8 SHL PUSH1 0x64 DUP3 ADD MSTORE PUSH1 0x84 ADD PUSH2 0x2BD JUMP JUMPDEST PUSH1 0x0 DUP3 GT PUSH2 0xC44 JUMPI PUSH1 0x40 MLOAD PUSH3 0x461BCD PUSH1 0xE5 SHL DUP2 MSTORE PUSH1 0x20 PUSH1 0x4 DUP3 ADD MSTORE PUSH1 0x1B PUSH1 0x24 DUP3 ADD MSTORE PUSH32 0x616464526563697069656E743A2043616E6E6F74207665737420300000000000 PUSH1 0x44 DUP3 ADD MSTORE PUSH1 0x64 ADD PUSH2 0x2BD JUMP JUMPDEST DUP1 DUP1 PUSH2 0xC6F JUMPI POP DUP1 ISZERO DUP1 ISZERO PUSH2 0xC6F JUMPI POP PUSH1 0x1 PUSH1 0x1 PUSH1 0xA0 SHL SUB DUP4 AND PUSH1 0x0 SWAP1 DUP2 MSTORE PUSH1 0x4 PUSH1 0x20 MSTORE PUSH1 0x40 SWAP1 KECCAK256 SLOAD ISZERO JUMPDEST PUSH2 0xCBB JUMPI PUSH1 0x40 MLOAD PUSH3 0x461BCD PUSH1 0xE5 SHL DUP2 MSTORE PUSH1 0x20 PUSH1 0x4 DUP3 ADD MSTORE PUSH1 0x1F PUSH1 0x24 DUP3 ADD MSTORE PUSH32 0x616464526563697069656E743A20416C726561647920616C6C6F636174656400 PUSH1 0x44 DUP3 ADD MSTORE PUSH1 0x64 ADD PUSH2 0x2BD JUMP JUMPDEST PUSH1 0x6 SLOAD PUSH1 0x1 PUSH1 0x1 PUSH1 0xA0 SHL SUB DUP5 AND PUSH1 0x0 SWAP1 DUP2 MSTORE PUSH1 0x4 PUSH1 0x20 MSTORE PUSH1 0x40 SWAP1 KECCAK256 SLOAD PUSH1 0x7 SLOAD PUSH2 0xCE9 SWAP2 DUP6 SWAP2 PUSH2 0x2D4 SWAP2 PUSH2 0xDC5 JUMP JUMPDEST GT ISZERO PUSH2 0xD47 JUMPI PUSH1 0x40 MLOAD PUSH3 0x461BCD PUSH1 0xE5 SHL DUP2 MSTORE PUSH1 0x20 PUSH1 0x4 DUP3 ADD MSTORE PUSH1 0x27 PUSH1 0x24 DUP3 ADD MSTORE PUSH32 0x616464526563697069656E743A20546F74616C20416C6C6F636174696F6E204F PUSH1 0x44 DUP3 ADD MSTORE PUSH7 0x766572666C6F77 PUSH1 0xC8 SHL PUSH1 0x64 DUP3 ADD MSTORE PUSH1 0x84 ADD PUSH2 0x2BD JUMP JUMPDEST PUSH1 0x1 PUSH1 0x1 PUSH1 0xA0 SHL SUB DUP4 AND PUSH1 0x0 SWAP1 DUP2 MSTORE PUSH1 0x4 PUSH1 0x20 MSTORE PUSH1 0x40 SWAP1 KECCAK256 SLOAD PUSH1 0x7 SLOAD PUSH2 0xD72 SWAP2 DUP5 SWAP2 PUSH2 0x2D4 SWAP2 PUSH2 0xDC5 JUMP JUMPDEST PUSH1 0x7 SSTORE POP PUSH1 0x40 DUP1 MLOAD DUP1 DUP3 ADD DUP3 MSTORE SWAP2 DUP3 MSTORE PUSH1 0x1 PUSH1 0x1 PUSH1 0xA0 SHL SUB SWAP1 SWAP3 AND PUSH1 0x0 DUP2 DUP2 MSTORE PUSH1 0x4 PUSH1 0x20 DUP2 DUP2 MSTORE SWAP5 DUP3 KECCAK256 PUSH1 0x1 DUP2 ADD DUP1 SLOAD DUP8 DUP8 ADD SWAP1 DUP2 MSTORE SWAP5 SWAP1 SWAP4 MSTORE SWAP5 MSTORE SWAP2 MLOAD SWAP1 SWAP3 SSTORE SWAP1 MLOAD SWAP1 SSTORE JUMP JUMPDEST PUSH1 0x0 PUSH2 0x8C1 DUP3 DUP5 PUSH2 0xF23 JUMP JUMPDEST PUSH1 0x0 PUSH2 0x8C1 DUP3 DUP5 PUSH2 0xF42 JUMP JUMPDEST PUSH1 0x0 PUSH2 0x8C1 DUP3 DUP5 PUSH2 0xF59 JUMP JUMPDEST DUP1 CALLDATALOAD PUSH1 0x1 PUSH1 0x1 PUSH1 0xA0 SHL SUB DUP2 AND DUP2 EQ PUSH2 0xDF4 JUMPI PUSH1 0x0 DUP1 REVERT JUMPDEST SWAP2 SWAP1 POP JUMP JUMPDEST DUP1 ISZERO ISZERO DUP2 EQ PUSH2 0xE07 JUMPI PUSH1 0x0 DUP1 REVERT JUMPDEST POP JUMP JUMPDEST PUSH1 0x0 DUP1 PUSH1 0x0 PUSH1 0x60 DUP5 DUP7 SUB SLT ISZERO PUSH2 0xE1F JUMPI PUSH1 0x0 DUP1 REVERT JUMPDEST PUSH2 0xE28 DUP5 PUSH2 0xDDD JUMP JUMPDEST SWAP3 POP PUSH1 0x20 DUP5 ADD CALLDATALOAD SWAP2 POP PUSH1 0x40 DUP5 ADD CALLDATALOAD PUSH2 0xE3F DUP2 PUSH2 0xDF9 JUMP JUMPDEST DUP1 SWAP2 POP POP SWAP3 POP SWAP3 POP SWAP3 JUMP JUMPDEST PUSH1 0x0 PUSH1 0x20 DUP3 DUP5 SUB SLT ISZERO PUSH2 0xE5C JUMPI PUSH1 0x0 DUP1 REVERT JUMPDEST PUSH2 0x8C1 DUP3 PUSH2 0xDDD JUMP JUMPDEST PUSH1 0x1 PUSH1 0x1 PUSH1 0xA0 SHL SUB SWAP2 SWAP1 SWAP2 AND DUP2 MSTORE PUSH1 0x20 ADD SWAP1 JUMP JUMPDEST PUSH4 0x4E487B71 PUSH1 0xE0 SHL PUSH1 0x0 MSTORE PUSH1 0x11 PUSH1 0x4 MSTORE PUSH1 0x24 PUSH1 0x0 REVERT JUMPDEST PUSH1 0x0 PUSH1 0x1 DUP3 ADD PUSH2 0xEA1 JUMPI PUSH2 0xEA1 PUSH2 0xE79 JUMP JUMPDEST POP PUSH1 0x1 ADD SWAP1 JUMP JUMPDEST PUSH1 0x20 DUP1 DUP3 MSTORE PUSH1 0x13 SWAP1 DUP3 ADD MSTORE PUSH19 0x5265717569726573204F776E657220526F6C65 PUSH1 0x68 SHL PUSH1 0x40 DUP3 ADD MSTORE PUSH1 0x60 ADD SWAP1 JUMP JUMPDEST PUSH1 0x0 PUSH1 0x20 DUP3 DUP5 SUB SLT ISZERO PUSH2 0xEE7 JUMPI PUSH1 0x0 DUP1 REVERT JUMPDEST POP MLOAD SWAP2 SWAP1 POP JUMP JUMPDEST PUSH1 0x0 PUSH1 0x20 DUP3 DUP5 SUB SLT ISZERO PUSH2 0xF00 JUMPI PUSH1 0x0 DUP1 REVERT JUMPDEST DUP2 MLOAD PUSH2 0x8C1 DUP2 PUSH2 0xDF9 JUMP JUMPDEST PUSH1 0x0 DUP3 NOT DUP3 GT ISZERO PUSH2 0xF1E JUMPI PUSH2 0xF1E PUSH2 0xE79 JUMP JUMPDEST POP ADD SWAP1 JUMP JUMPDEST PUSH1 0x0 DUP2 PUSH1 0x0 NOT DIV DUP4 GT DUP3 ISZERO ISZERO AND ISZERO PUSH2 0xF3D JUMPI PUSH2 0xF3D PUSH2 0xE79 JUMP JUMPDEST POP MUL SWAP1 JUMP JUMPDEST PUSH1 0x0 DUP3 DUP3 LT ISZERO PUSH2 0xF54 JUMPI PUSH2 0xF54 PUSH2 0xE79 JUMP JUMPDEST POP SUB SWAP1 JUMP JUMPDEST PUSH1 0x0 DUP3 PUSH2 0xF76 JUMPI PUSH4 0x4E487B71 PUSH1 0xE0 SHL PUSH1 0x0 MSTORE PUSH1 0x12 PUSH1 0x4 MSTORE PUSH1 0x24 PUSH1 0x0 REVERT JUMPDEST POP DIV SWAP1 JUMP INVALID LOG2 PUSH5 0x6970667358 0x22 SLT KECCAK256 XOR 0x5C BASEFEE 0x5F LOG4 0xC 0xC8 LOG1 0xC0 0xC8 0x2A SELFBALANCE 0xCB 0xB8 0xE2 SWAP15 0xF6 EXTCODEHASH XOR 0x1F INVALID 0x29 SWAP10 SWAP8 DUP15 PUSH3 0xEB809 0xC0 0x25 0xC8 PUSH5 0x736F6C6343 STOP ADDMOD 0xF STOP CALLER ",
  "sha1": "1755e71d4800a6a028f858e45f8e66aac58128bc",
  "source": "// SPDX-License-Identifier: MIT\npragma solidity ^0.8.0;\n\nimport \"openzeppelin-solidity/contracts/utils/math/SafeMath.sol\";\n\ninterface IPresaleContract {\n    function START() external view returns (uint256);\n    function PERIOD() external view returns (uint256);\n    function totalsold() external view returns (uint256);\n}\n\ninterface IERC20 {\n    function totalSupply() external view returns (uint256);\n\n    function balanceOf(address account) external view returns (uint256);\n\n    function transfer(address recipient, uint256 amount) external returns (bool);\n\n    function allowance(address owner, address spender) external view returns (uint256);\n\n    function approve(address spender, uint256 amount) external returns (bool);\n\n    function transferFrom(address sender, address recipient, uint256 amount) external returns (bool);\n\n    event Transfer(address indexed from, address indexed to, uint256 value);\n\n    event Approval(address indexed owner, address indexed spender, uint256 value);\n}\ncontract Vesting {\n    using SafeMath for uint256;\n\n    struct VestingSchedule {\n      uint256 totalAmount; // Total amount of tokens to be vested.\n      uint256 amountWithdrawn; // The amount that has been withdrawn.\n    }\n\n    address private owner;\n    address payable public multiSigAdmin; // MultiSig contract address : The address where to withdraw funds\n\n    IPresaleContract public presaleContract; // Presale contract interface\n    IERC20 public CCoinToken; //SBC token interface\n\n    mapping(address => VestingSchedule) public recipients;\n\n    uint256 constant MAX_UINT256 = type(uint256).max;\n    uint256 public constant TGE_UNLOCK = 100; // 10% * 10: released percent at TGE stage, release token amount when end presale\n    uint256 public constant UNLOCK_UNIT = 75; // 7.5% * 10 of the total allocation will be unlocked\n    uint256 public constant CLIFF_PERIOD = 1 hours; // cliff period\n    uint public vestingPeriod = 12;\n\n    uint256 public vestingAllocation; // Max amount which will be locked in vesting contract\n    uint256 private totalAllocated; // The amount of allocated tokens\n\n    event VestingScheduleRegistered(address registeredAddress, uint256 totalAmount);\n\n    /********************** Modifiers ***********************/\n    modifier onlyOwner() {\n        require(owner == msg.sender, \"Requires Owner Role\");\n        _;\n    }\n\n    modifier onlyMultiSigAdmin() {\n        require(msg.sender == multiSigAdmin || address(presaleContract) == msg.sender, \"Should be multiSig contract\");\n        _;\n    }\n\n    constructor(address _CCoinToken, address _presaleContract) {\n        owner = msg.sender;\n\n        CCoinToken = IERC20(_CCoinToken);\n        presaleContract = IPresaleContract(_presaleContract);\n    }\n\n    /**\n     * @dev Get current vesting time (current block time)\n     */\n    function getCurrentVestingTime() public view returns (uint) {\n        return block.timestamp;\n    }\n\n    /**\n     * @dev Get TGE time (TGE_Time = PresaleEnd_Time + 1 hours) token Generate end time\n     */\n    function getTGETime() public view returns (uint256) {\n        //   ///  because blocktime is late than current UTC time \n        // return presaleContract.START().add(presaleContract.PERIOD()).add(1 hours);\n        return presaleContract.START().add(presaleContract.PERIOD().mul(1 days));\n    }\n    /**\n     * @dev external function to set vesting allocation\n     */\n    function setVestingAllocation() external onlyOwner {\n        vestingAllocation = CCoinToken.balanceOf(address(this));\n    }\n\n    // function setVestingPeriod(uint _days) external onlyOwner {\n    //     require(vestingPeriod == 0, \"Already set vesting period!!\");\n    //     vestingPeriod = _days;\n    // }\n    \n    /**\n     * @dev Private function to add a recipient to vesting schedule\n     * @param _recipient the address to be added\n     * @param _totalAmount integer variable to indicate SBC amount of the recipient\n     */\n    function addRecipient(address _recipient, uint256 _totalAmount, bool isPresaleBuyer) private {\n        require(_recipient != address(0x00), \"addRecipient: Invalid recipient address\");\n        require(_totalAmount > 0, \"addRecipient: Cannot vest 0\");\n        require(isPresaleBuyer || (!isPresaleBuyer && recipients[_recipient].totalAmount == 0), \"addRecipient: Already allocated\");\n        require(totalAllocated.sub(recipients[_recipient].totalAmount).add(_totalAmount) <= vestingAllocation, \"addRecipient: Total Allocation Overflow\");\n\n        totalAllocated = totalAllocated.sub(recipients[_recipient].totalAmount).add(_totalAmount);\n        \n        recipients[_recipient] = VestingSchedule({\n            totalAmount: _totalAmount,\n            amountWithdrawn: recipients[_recipient].amountWithdrawn\n        });\n    }\n    \n    /**\n     * @dev Add new recipient to vesting schedule\n     * @param _newRecipient the address to be added\n     * @param _totalAmount integer variable to indicate SBC amount of the recipient\n     */\n    function addNewRecipient(address _newRecipient, uint256 _totalAmount, bool isPresaleBuyer) external onlyMultiSigAdmin {\n        require(block.timestamp < getTGETime().add(CLIFF_PERIOD), \"addNewRecipient: Cannot update the receipient after started\");\n\n        addRecipient(_newRecipient, _totalAmount, isPresaleBuyer);\n\n        emit VestingScheduleRegistered(_newRecipient, _totalAmount);\n    }\n\n    /**\n     * @dev Gets the locked SBC amount of a beneficiary\n     * @param beneficiary address of beneficiary\n     */\n    function getLocked(address beneficiary) external view returns (uint256) {\n        return recipients[beneficiary].totalAmount.sub(getVested(beneficiary));\n    }\n\n    /**\n     * @dev Gets the claimable SBC amount of a beneficiary\n     * @param beneficiary address of beneficiary\n     */\n    function getWithdrawable(address beneficiary) public view returns (uint256) {\n        return getVested(beneficiary).sub(recipients[beneficiary].amountWithdrawn);\n    }\n\n    /**\n     * @dev Claim unlocked SBC tokens of a recipient\n     */\n    function withdrawToken() external returns (uint256) {\n        VestingSchedule storage _vestingSchedule = recipients[msg.sender];\n        if (_vestingSchedule.totalAmount == 0) return 0;\n\n        uint256 _vested = getVested(msg.sender);\n        uint256 _withdrawable = _vested.sub(recipients[msg.sender].amountWithdrawn);\n        _vestingSchedule.amountWithdrawn = _vested;\n\n        require(_withdrawable > 0, \"withdraw: Nothing to withdraw\");\n        require(CCoinToken.transfer(msg.sender, _withdrawable));\n        \n        return _withdrawable;\n    }\n    \n    /**\n     * @dev Claim unlocked SBC tokens of a recipient\n     */\n     function withrawRemainToken() external onlyOwner () {\n         require(CCoinToken.balanceOf(address(this)) > 0, \"\");\n         uint256 _totalTokenAmount = CCoinToken.balanceOf(address(this));\n         uint256 _remainToken = _totalTokenAmount.sub(presaleContract.totalsold());\n         CCoinToken.transferFrom(address(this), msg.sender, _remainToken);\n     }\n\n    function getVestingEndTime() public view returns(uint256) {\n        \n        // // /// for main net \n        // uint256 claimPeriodTime = 30;\n        // // for testnet\n        uint256 claimPeriodTime = 1;\n        uint VestingEndTime;\n\n        // // //// /// // for main net\n        // for (uint i = 0; i < 12; i++) {\n        //     if (block.timestamp > getTGETime().add(claimPeriodTime.mul(1 days).mul(i)) && block.timestamp <= getTGETime().add(claimPeriodTime.mul(1 days).mul(i.add(1)))) {\n        //         vestedPercent = TGE_UNLOCK.add(UNLOCK_UNIT.mul(i));\n        //     } else if(block.timestamp > getTGETime().add(claimPeriodTime.mul(1 days).mul(12))) {\n        //         vestedPercent = 1000;\n        //     }  \n        // }\n\n        // /// for test net \n        for (uint i = 0; i < 12; i++) {\n            if (block.timestamp > getTGETime().add(claimPeriodTime.mul(2 days).mul(i)) && block.timestamp <= getTGETime().add(claimPeriodTime.mul(2 days).mul(i.add(1)))) {\n                VestingEndTime = getTGETime().add(claimPeriodTime.mul(2 days).mul(i.add(2)));\n                break;\n            } else if(block.timestamp > getTGETime().add(claimPeriodTime.mul(2 days).mul(12))) {\n                VestingEndTime = getTGETime().add(claimPeriodTime.mul(2 days).mul(12));\n                break;\n            }\n        }\n        return VestingEndTime;\n    }\n    /**\n     * @dev Get claimable SBC token amount of a beneficiary\n     * @param beneficiary address of beneficiary\n     */\n    function getVested(address beneficiary) public view virtual returns (uint256 _amountVested) {\n        require(beneficiary != address(0x00), \"getVested: Invalid address\");\n        VestingSchedule memory _vestingSchedule = recipients[beneficiary];\n\n        if (_vestingSchedule.totalAmount == 0 || block.timestamp < getTGETime()) {\n            return 0;\n        } else if (block.timestamp <= getTGETime().add(CLIFF_PERIOD)) {\n            return (_vestingSchedule.totalAmount).mul(TGE_UNLOCK).div(100);\n        }\n\n        uint256 vestedPercent;\n        // // /// for main net \n        // uint256 claimPeriodTime = 30;\n        // // for test net\n        uint256 claimPeriodTime = 1;\n\n        // uint256 firstVestingPoint = getTGETime().add(CLIFF_PERIOD);\n        // uint256 secondVestingPoint = firstVestingPoint.add(1 hours);\n        // uint256 thirdVestingPoint = secondVestingPoint.add(1 hours);\n\n        // // //// /// // for main net\n        // for (uint i = 0; i < 12; i++) {\n        //     if (block.timestamp > getTGETime().add(claimPeriodTime.mul(1 days).mul(i)) && block.timestamp <= getTGETime().add(claimPeriodTime.mul(1 days).mul(i.add(1)))) {\n        //         vestedPercent = TGE_UNLOCK.add(UNLOCK_UNIT.mul(i));\n        //     } else if(block.timestamp > getTGETime().add(claimPeriodTime.mul(1 days).mul(12))) {\n        //         vestedPercent = 1000;\n        //     }  \n        // }\n\n        // /// for test net \n        for (uint i = 0; i < 12; i++) {\n            if (block.timestamp > getTGETime().add(claimPeriodTime.mul(2 days).mul(i)) && block.timestamp <= getTGETime().add(claimPeriodTime.mul(2 days).mul(i.add(1)))) {\n                vestedPercent = TGE_UNLOCK.add(UNLOCK_UNIT.mul(i));\n                break;\n            } else if(block.timestamp > getTGETime().add(claimPeriodTime.mul(2 days).mul(12))) {\n                vestedPercent = 1000;\n                break;\n            }  \n        }\n\n        // if (block.timestamp > firstVestingPoint && block.timestamp <= secondVestingPoint) {\n        //     vestedPercent = TGE_UNLOCK.add(UNLOCK_UNIT);\n        // } else if (block.timestamp > secondVestingPoint && block.timestamp <= thirdVestingPoint) {\n        //     vestedPercent = TGE_UNLOCK.add(UNLOCK_UNIT).add(UNLOCK_UNIT);\n        // } else if (block.timestamp > thirdVestingPoint) {\n        //     vestedPercent = 100;\n        // }\n\n        uint256 vestedAmount = _vestingSchedule.totalAmount.mul(vestedPercent).div(1000);\n        if (vestedAmount > _vestingSchedule.totalAmount) {\n            return _vestingSchedule.totalAmount;\n        }\n\n        return vestedAmount;\n    }\n}\n",
  "sourcePath": "contracts/Vesting.sol",
  "type": "contract"
}